{
  "fileName": "AToken2PTokenMigrator.sol",
  "contractName": "AToken2PTokenMigrator",
  "source": "pragma solidity 0.6.12;\n\nimport \"./ATokenInterface.sol\";\nimport \"../../token/PEther.sol\";\nimport \"../../token/PERC20.sol\";\nimport \"@openzeppelin/contracts/token/ERC20/IERC20.sol\";\nimport \"@openzeppelin/contracts/token/ERC20/SafeERC20.sol\";\nimport \"@openzeppelin/contracts/math/SafeMath.sol\";\nimport \"@openzeppelin/contracts/access/Ownable.sol\";\n\ncontract AToken2PTokenMigrator is Ownable {\n\n    using SafeMath for uint256;\n    using SafeERC20 for IERC20;\n\n    mapping(address => bool) public aTokenMapping;\n    mapping(address => bool) public pTokenMapping;\n\n    constructor() public {\n\n    }\n\n    function migrate(address aToken, address payable pToken, uint amount) public {\n\n        require(aTokenMapping[aToken], \"bad aToken\");\n        require(pTokenMapping[pToken], \"bad pToken\");\n\n        ATokenInterface aTokenInstance = ATokenInterface(aToken);\n\n        uint aTokenBalance = aTokenInstance.balanceOf(msg.sender);\n        require(amount <= aTokenBalance, \"error amount\");\n\n        address underlyingAssetAddress = aTokenInstance.underlyingAssetAddress();\n\n        //验证需要转换的两个代币是否正确\n        if (underlyingAssetAddress == address(0xEeeeeEeeeEeEeeEeEeEeeEEEeeeeEeeeeeeeEEeE)) {\n            PEther pEth = PEther(pToken);\n            require(compareStrings(pEth.symbol(), \"pETH\"), \"aToken and pToken not match\");\n        } else {\n            PERC20 pErc20 = PERC20(pToken);\n            require(pErc20.underlying() == underlyingAssetAddress, \"aToken and pToken not match\");\n        }\n\n        //将代币转到本合约\n        address self = address(this);\n        aTokenInstance.transferFrom(msg.sender, self, amount);\n\n        //从AToken中赎回基础币\n        uint beforeBalance = _getTokenBalance(underlyingAssetAddress);\n        aTokenInstance.redeem(amount);\n        uint afterBalance = _getTokenBalance(underlyingAssetAddress);\n        uint redeemedBalance = afterBalance.sub(beforeBalance);\n\n        //将基础币抵押给pToken\n        uint mintedBalance = 0;\n        if (underlyingAssetAddress == address(0xEeeeeEeeeEeEeeEeEeEeeEEEeeeeEeeeeeeeEEeE)) {\n\n            PEther newLpToken = PEther(pToken);\n            uint pTokenBeforeBalance = _getTokenBalance(pToken);\n            newLpToken.mint{value : redeemedBalance}();\n            uint pTokenAfterBalance = _getTokenBalance(pToken);\n            mintedBalance = pTokenAfterBalance.sub(pTokenBeforeBalance);\n\n            //将pToken转给用户\n            newLpToken.approve(self, mintedBalance);\n            newLpToken.transferFrom(self, msg.sender, mintedBalance);\n        } else {\n\n            PERC20 newLpToken = PERC20(pToken);\n            uint pTokenBeforeBalance = _getTokenBalance(pToken);\n\n            IERC20(underlyingAssetAddress).safeApprove(address(newLpToken), redeemedBalance);\n            newLpToken.mint(redeemedBalance);\n\n            uint pTokenAfterBalance = _getTokenBalance(pToken);\n            mintedBalance = pTokenAfterBalance.sub(pTokenBeforeBalance);\n\n            //将pToken转给用户\n            newLpToken.approve(self, mintedBalance);\n            newLpToken.transferFrom(self, msg.sender, mintedBalance);\n        }\n\n    }\n\n\n    function set(address[] memory aTokens, address[] memory pTokens) public onlyOwner {\n\n        for (uint i = 0; i < aTokens.length; i++) {\n            address aToken = aTokens[i];\n            aTokenMapping[aToken] = true;\n        }\n\n        for (uint i = 0; i < pTokens.length; i++) {\n            address pToken = pTokens[i];\n            pTokenMapping[pToken] = true;\n        }\n\n    }\n\n    function setATokenMapping(address aToken, bool isAvailable) public onlyOwner {\n        aTokenMapping[aToken] = isAvailable;\n    }\n\n    function setPTokenMapping(address pToken, bool isAvailable) public onlyOwner {\n        pTokenMapping[pToken] = isAvailable;\n    }\n\n    function _getTokenBalance(address tokenAddress) internal returns (uint){\n        if (tokenAddress == address(0xEeeeeEeeeEeEeeEeEeEeeEEEeeeeEeeeeeeeEEeE)) {\n            return address(this).balance;\n        } else {\n            IERC20 token = IERC20(tokenAddress);\n            return token.balanceOf(address(this));\n        }\n    }\n\n\n    receive() external payable {\n    }\n\n    function compareStrings(string memory a, string memory b) internal pure returns (bool) {\n        return (keccak256(abi.encodePacked((a))) == keccak256(abi.encodePacked((b))));\n    }\n\n\n}\n",
  "sourcePath": "contracts/farm/migrator/AToken2PTokenMigrator.sol",
  "abi": [
    {
      "inputs": [],
      "stateMutability": "nonpayable",
      "type": "constructor"
    },
    {
      "anonymous": false,
      "inputs": [
        {
          "indexed": true,
          "internalType": "address",
          "name": "previousOwner",
          "type": "address"
        },
        {
          "indexed": true,
          "internalType": "address",
          "name": "newOwner",
          "type": "address"
        }
      ],
      "name": "OwnershipTransferred",
      "type": "event"
    },
    {
      "inputs": [
        {
          "internalType": "address",
          "name": "",
          "type": "address"
        }
      ],
      "name": "aTokenMapping",
      "outputs": [
        {
          "internalType": "bool",
          "name": "",
          "type": "bool"
        }
      ],
      "stateMutability": "view",
      "type": "function"
    },
    {
      "inputs": [
        {
          "internalType": "address",
          "name": "aToken",
          "type": "address"
        },
        {
          "internalType": "address payable",
          "name": "pToken",
          "type": "address"
        },
        {
          "internalType": "uint256",
          "name": "amount",
          "type": "uint256"
        }
      ],
      "name": "migrate",
      "outputs": [],
      "stateMutability": "nonpayable",
      "type": "function"
    },
    {
      "inputs": [],
      "name": "owner",
      "outputs": [
        {
          "internalType": "address",
          "name": "",
          "type": "address"
        }
      ],
      "stateMutability": "view",
      "type": "function"
    },
    {
      "inputs": [
        {
          "internalType": "address",
          "name": "",
          "type": "address"
        }
      ],
      "name": "pTokenMapping",
      "outputs": [
        {
          "internalType": "bool",
          "name": "",
          "type": "bool"
        }
      ],
      "stateMutability": "view",
      "type": "function"
    },
    {
      "inputs": [],
      "name": "renounceOwnership",
      "outputs": [],
      "stateMutability": "nonpayable",
      "type": "function"
    },
    {
      "inputs": [
        {
          "internalType": "address[]",
          "name": "aTokens",
          "type": "address[]"
        },
        {
          "internalType": "address[]",
          "name": "pTokens",
          "type": "address[]"
        }
      ],
      "name": "set",
      "outputs": [],
      "stateMutability": "nonpayable",
      "type": "function"
    },
    {
      "inputs": [
        {
          "internalType": "address",
          "name": "aToken",
          "type": "address"
        },
        {
          "internalType": "bool",
          "name": "isAvailable",
          "type": "bool"
        }
      ],
      "name": "setATokenMapping",
      "outputs": [],
      "stateMutability": "nonpayable",
      "type": "function"
    },
    {
      "inputs": [
        {
          "internalType": "address",
          "name": "pToken",
          "type": "address"
        },
        {
          "internalType": "bool",
          "name": "isAvailable",
          "type": "bool"
        }
      ],
      "name": "setPTokenMapping",
      "outputs": [],
      "stateMutability": "nonpayable",
      "type": "function"
    },
    {
      "inputs": [
        {
          "internalType": "address",
          "name": "newOwner",
          "type": "address"
        }
      ],
      "name": "transferOwnership",
      "outputs": [],
      "stateMutability": "nonpayable",
      "type": "function"
    },
    {
      "stateMutability": "payable",
      "type": "receive"
    }
  ],
  "bytecode": "0x608060405234801561001057600080fd5b5060006100216100c460201b60201c565b9050806000806101000a81548173ffffffffffffffffffffffffffffffffffffffff021916908373ffffffffffffffffffffffffffffffffffffffff1602179055508073ffffffffffffffffffffffffffffffffffffffff16600073ffffffffffffffffffffffffffffffffffffffff167f8be0079c531659141344cd1fd0a4f28419497f9722a3daafe3b4186f6b6457e060405160405180910390a3506100cc565b600033905090565b6122c5806100db6000396000f3fe60806040526004361061008a5760003560e01c80638da5cb5b116100595780638da5cb5b146101d85780638fca52be14610219578063da419c5714610276578063f16565ee146103cf578063f2fde38b1461044a57610091565b80631a628054146100965780635b9f2079146100fd578063715018a614610164578063821e76d81461017b57610091565b3661009157005b600080fd5b3480156100a257600080fd5b506100e5600480360360208110156100b957600080fd5b81019080803573ffffffffffffffffffffffffffffffffffffffff16906020019092919050505061049b565b60405180821515815260200191505060405180910390f35b34801561010957600080fd5b5061014c6004803603602081101561012057600080fd5b81019080803573ffffffffffffffffffffffffffffffffffffffff1690602001909291905050506104bb565b60405180821515815260200191505060405180910390f35b34801561017057600080fd5b506101796104db565b005b34801561018757600080fd5b506101d66004803603604081101561019e57600080fd5b81019080803573ffffffffffffffffffffffffffffffffffffffff169060200190929190803515159060200190929190505050610661565b005b3480156101e457600080fd5b506101ed610784565b604051808273ffffffffffffffffffffffffffffffffffffffff16815260200191505060405180910390f35b34801561022557600080fd5b506102746004803603604081101561023c57600080fd5b81019080803573ffffffffffffffffffffffffffffffffffffffff1690602001909291908035151590602001909291905050506107ad565b005b34801561028257600080fd5b506103cd6004803603604081101561029957600080fd5b81019080803590602001906401000000008111156102b657600080fd5b8201836020820111156102c857600080fd5b803590602001918460208302840111640100000000831117156102ea57600080fd5b919080806020026020016040519081016040528093929190818152602001838360200280828437600081840152601f19601f8201169050808301925050505050505091929192908035906020019064010000000081111561034a57600080fd5b82018360208201111561035c57600080fd5b8035906020019184602083028401116401000000008311171561037e57600080fd5b919080806020026020016040519081016040528093929190818152602001838360200280828437600081840152601f19601f8201169050808301925050505050505091929192905050506108d0565b005b3480156103db57600080fd5b50610448600480360360608110156103f257600080fd5b81019080803573ffffffffffffffffffffffffffffffffffffffff169060200190929190803573ffffffffffffffffffffffffffffffffffffffff16906020019092919080359060200190929190505050610ab1565b005b34801561045657600080fd5b506104996004803603602081101561046d57600080fd5b81019080803573ffffffffffffffffffffffffffffffffffffffff169060200190929190505050611781565b005b60026020528060005260406000206000915054906101000a900460ff1681565b60016020528060005260406000206000915054906101000a900460ff1681565b6104e361198c565b73ffffffffffffffffffffffffffffffffffffffff1660008054906101000a900473ffffffffffffffffffffffffffffffffffffffff1673ffffffffffffffffffffffffffffffffffffffff16146105a3576040517f08c379a00000000000000000000000000000000000000000000000000000000081526004018080602001828103825260208152602001807f4f776e61626c653a2063616c6c6572206973206e6f7420746865206f776e657281525060200191505060405180910390fd5b600073ffffffffffffffffffffffffffffffffffffffff1660008054906101000a900473ffffffffffffffffffffffffffffffffffffffff1673ffffffffffffffffffffffffffffffffffffffff167f8be0079c531659141344cd1fd0a4f28419497f9722a3daafe3b4186f6b6457e060405160405180910390a360008060006101000a81548173ffffffffffffffffffffffffffffffffffffffff021916908373ffffffffffffffffffffffffffffffffffffffff160217905550565b61066961198c565b73ffffffffffffffffffffffffffffffffffffffff1660008054906101000a900473ffffffffffffffffffffffffffffffffffffffff1673ffffffffffffffffffffffffffffffffffffffff1614610729576040517f08c379a00000000000000000000000000000000000000000000000000000000081526004018080602001828103825260208152602001807f4f776e61626c653a2063616c6c6572206973206e6f7420746865206f776e657281525060200191505060405180910390fd5b80600160008473ffffffffffffffffffffffffffffffffffffffff1673ffffffffffffffffffffffffffffffffffffffff16815260200190815260200160002060006101000a81548160ff0219169083151502179055505050565b60008060009054906101000a900473ffffffffffffffffffffffffffffffffffffffff16905090565b6107b561198c565b73ffffffffffffffffffffffffffffffffffffffff1660008054906101000a900473ffffffffffffffffffffffffffffffffffffffff1673ffffffffffffffffffffffffffffffffffffffff1614610875576040517f08c379a00000000000000000000000000000000000000000000000000000000081526004018080602001828103825260208152602001807f4f776e61626c653a2063616c6c6572206973206e6f7420746865206f776e657281525060200191505060405180910390fd5b80600260008473ffffffffffffffffffffffffffffffffffffffff1673ffffffffffffffffffffffffffffffffffffffff16815260200190815260200160002060006101000a81548160ff0219169083151502179055505050565b6108d861198c565b73ffffffffffffffffffffffffffffffffffffffff1660008054906101000a900473ffffffffffffffffffffffffffffffffffffffff1673ffffffffffffffffffffffffffffffffffffffff1614610998576040517f08c379a00000000000000000000000000000000000000000000000000000000081526004018080602001828103825260208152602001807f4f776e61626c653a2063616c6c6572206973206e6f7420746865206f776e657281525060200191505060405180910390fd5b60005b8251811015610a215760008382815181106109b257fe5b6020026020010151905060018060008373ffffffffffffffffffffffffffffffffffffffff1673ffffffffffffffffffffffffffffffffffffffff16815260200190815260200160002060006101000a81548160ff02191690831515021790555050808060010191505061099b565b5060005b8151811015610aac576000828281518110610a3c57fe5b602002602001015190506001600260008373ffffffffffffffffffffffffffffffffffffffff1673ffffffffffffffffffffffffffffffffffffffff16815260200190815260200160002060006101000a81548160ff021916908315150217905550508080600101915050610a25565b505050565b600160008473ffffffffffffffffffffffffffffffffffffffff1673ffffffffffffffffffffffffffffffffffffffff16815260200190815260200160002060009054906101000a900460ff16610b70576040517f08c379a000000000000000000000000000000000000000000000000000000000815260040180806020018281038252600a8152602001807f6261642061546f6b656e0000000000000000000000000000000000000000000081525060200191505060405180910390fd5b600260008373ffffffffffffffffffffffffffffffffffffffff1673ffffffffffffffffffffffffffffffffffffffff16815260200190815260200160002060009054906101000a900460ff16610c2f576040517f08c379a000000000000000000000000000000000000000000000000000000000815260040180806020018281038252600a8152602001807f6261642070546f6b656e0000000000000000000000000000000000000000000081525060200191505060405180910390fd5b600083905060008173ffffffffffffffffffffffffffffffffffffffff166370a08231336040518263ffffffff1660e01b8152600401808273ffffffffffffffffffffffffffffffffffffffff16815260200191505060206040518083038186803b158015610c9d57600080fd5b505afa158015610cb1573d6000803e3d6000fd5b505050506040513d6020811015610cc757600080fd5b8101908080519060200190929190505050905080831115610d50576040517f08c379a000000000000000000000000000000000000000000000000000000000815260040180806020018281038252600c8152602001807f6572726f7220616d6f756e74000000000000000000000000000000000000000081525060200191505060405180910390fd5b60008273ffffffffffffffffffffffffffffffffffffffff166389d1a0fc6040518163ffffffff1660e01b815260040160206040518083038186803b158015610d9857600080fd5b505afa158015610dac573d6000803e3d6000fd5b505050506040513d6020811015610dc257600080fd5b8101908080519060200190929190505050905073eeeeeeeeeeeeeeeeeeeeeeeeeeeeeeeeeeeeeeee73ffffffffffffffffffffffffffffffffffffffff168173ffffffffffffffffffffffffffffffffffffffff161415611017576000859050610f9f8173ffffffffffffffffffffffffffffffffffffffff166395d89b416040518163ffffffff1660e01b815260040160006040518083038186803b158015610e6b57600080fd5b505afa158015610e7f573d6000803e3d6000fd5b505050506040513d6000823e3d601f19601f820116820180604052506020811015610ea957600080fd5b8101908080516040519392919084640100000000821115610ec957600080fd5b83820191506020820185811115610edf57600080fd5b8251866001820283011164010000000082111715610efc57600080fd5b8083526020830192505050908051906020019080838360005b83811015610f30578082015181840152602081019050610f15565b50505050905090810190601f168015610f5d5780820380516001836020036101000a031916815260200191505b506040525050506040518060400160405280600481526020017f7045544800000000000000000000000000000000000000000000000000000000815250611994565b611011576040517f08c379a000000000000000000000000000000000000000000000000000000000815260040180806020018281038252601b8152602001807f61546f6b656e20616e642070546f6b656e206e6f74206d61746368000000000081525060200191505060405180910390fd5b5061113f565b60008590508173ffffffffffffffffffffffffffffffffffffffff168173ffffffffffffffffffffffffffffffffffffffff16636f307dc36040518163ffffffff1660e01b815260040160206040518083038186803b15801561107957600080fd5b505afa15801561108d573d6000803e3d6000fd5b505050506040513d60208110156110a357600080fd5b810190808051906020019092919050505073ffffffffffffffffffffffffffffffffffffffff161461113d576040517f08c379a000000000000000000000000000000000000000000000000000000000815260040180806020018281038252601b8152602001807f61546f6b656e20616e642070546f6b656e206e6f74206d61746368000000000081525060200191505060405180910390fd5b505b60003090508373ffffffffffffffffffffffffffffffffffffffff166323b872dd3383886040518463ffffffff1660e01b8152600401808473ffffffffffffffffffffffffffffffffffffffff1681526020018373ffffffffffffffffffffffffffffffffffffffff1681526020018281526020019350505050602060405180830381600087803b1580156111d357600080fd5b505af11580156111e7573d6000803e3d6000fd5b505050506040513d60208110156111fd57600080fd5b810190808051906020019092919050505050600061121a83611a83565b90508473ffffffffffffffffffffffffffffffffffffffff1663db006a75876040518263ffffffff1660e01b815260040180828152602001915050600060405180830381600087803b15801561126f57600080fd5b505af1158015611283573d6000803e3d6000fd5b50505050600061129284611a83565b905060006112a98383611b8590919063ffffffff16565b9050600073eeeeeeeeeeeeeeeeeeeeeeeeeeeeeeeeeeeeeeee73ffffffffffffffffffffffffffffffffffffffff168673ffffffffffffffffffffffffffffffffffffffff16141561150a5760008a905060006113058c611a83565b90508173ffffffffffffffffffffffffffffffffffffffff16631249c58b856040518263ffffffff1660e01b81526004016000604051808303818588803b15801561134f57600080fd5b505af1158015611363573d6000803e3d6000fd5b505050505060006113738d611a83565b90506113888282611b8590919063ffffffff16565b93508273ffffffffffffffffffffffffffffffffffffffff1663095ea7b389866040518363ffffffff1660e01b8152600401808373ffffffffffffffffffffffffffffffffffffffff16815260200182815260200192505050602060405180830381600087803b1580156113fb57600080fd5b505af115801561140f573d6000803e3d6000fd5b505050506040513d602081101561142557600080fd5b8101908080519060200190929190505050508273ffffffffffffffffffffffffffffffffffffffff166323b872dd8933876040518463ffffffff1660e01b8152600401808473ffffffffffffffffffffffffffffffffffffffff1681526020018373ffffffffffffffffffffffffffffffffffffffff1681526020018281526020019350505050602060405180830381600087803b1580156114c657600080fd5b505af11580156114da573d6000803e3d6000fd5b505050506040513d60208110156114f057600080fd5b810190808051906020019092919050505050505050611774565b60008a9050600061151a8c611a83565b905061154782858a73ffffffffffffffffffffffffffffffffffffffff16611bcf9092919063ffffffff16565b8173ffffffffffffffffffffffffffffffffffffffff1663a0712d68856040518263ffffffff1660e01b815260040180828152602001915050602060405180830381600087803b15801561159a57600080fd5b505af11580156115ae573d6000803e3d6000fd5b505050506040513d60208110156115c457600080fd5b81019080805190602001909291905050505060006115e18d611a83565b90506115f68282611b8590919063ffffffff16565b93508273ffffffffffffffffffffffffffffffffffffffff1663095ea7b389866040518363ffffffff1660e01b8152600401808373ffffffffffffffffffffffffffffffffffffffff16815260200182815260200192505050602060405180830381600087803b15801561166957600080fd5b505af115801561167d573d6000803e3d6000fd5b505050506040513d602081101561169357600080fd5b8101908080519060200190929190505050508273ffffffffffffffffffffffffffffffffffffffff166323b872dd8933876040518463ffffffff1660e01b8152600401808473ffffffffffffffffffffffffffffffffffffffff1681526020018373ffffffffffffffffffffffffffffffffffffffff1681526020018281526020019350505050602060405180830381600087803b15801561173457600080fd5b505af1158015611748573d6000803e3d6000fd5b505050506040513d602081101561175e57600080fd5b8101908080519060200190929190505050505050505b5050505050505050505050565b61178961198c565b73ffffffffffffffffffffffffffffffffffffffff1660008054906101000a900473ffffffffffffffffffffffffffffffffffffffff1673ffffffffffffffffffffffffffffffffffffffff1614611849576040517f08c379a00000000000000000000000000000000000000000000000000000000081526004018080602001828103825260208152602001807f4f776e61626c653a2063616c6c6572206973206e6f7420746865206f776e657281525060200191505060405180910390fd5b600073ffffffffffffffffffffffffffffffffffffffff168173ffffffffffffffffffffffffffffffffffffffff1614156118cf576040517f08c379a00000000000000000000000000000000000000000000000000000000081526004018080602001828103825260268152602001806121e46026913960400191505060405180910390fd5b8073ffffffffffffffffffffffffffffffffffffffff1660008054906101000a900473ffffffffffffffffffffffffffffffffffffffff1673ffffffffffffffffffffffffffffffffffffffff167f8be0079c531659141344cd1fd0a4f28419497f9722a3daafe3b4186f6b6457e060405160405180910390a3806000806101000a81548173ffffffffffffffffffffffffffffffffffffffff021916908373ffffffffffffffffffffffffffffffffffffffff16021790555050565b600033905090565b6000816040516020018082805190602001908083835b602083106119cd57805182526020820191506020810190506020830392506119aa565b6001836020036101000a03801982511681845116808217855250505050505090500191505060405160208183030381529060405280519060200120836040516020018082805190602001908083835b60208310611a3f5780518252602082019150602081019050602083039250611a1c565b6001836020036101000a0380198251168184511680821785525050505050509050019150506040516020818303038152906040528051906020012014905092915050565b600073eeeeeeeeeeeeeeeeeeeeeeeeeeeeeeeeeeeeeeee73ffffffffffffffffffffffffffffffffffffffff168273ffffffffffffffffffffffffffffffffffffffff161415611ad557479050611b80565b60008290508073ffffffffffffffffffffffffffffffffffffffff166370a08231306040518263ffffffff1660e01b8152600401808273ffffffffffffffffffffffffffffffffffffffff16815260200191505060206040518083038186803b158015611b4157600080fd5b505afa158015611b55573d6000803e3d6000fd5b505050506040513d6020811015611b6b57600080fd5b81019080805190602001909291905050509150505b919050565b6000611bc783836040518060400160405280601e81526020017f536166654d6174683a207375627472616374696f6e206f766572666c6f770000815250611d94565b905092915050565b6000811480611c9d575060008373ffffffffffffffffffffffffffffffffffffffff1663dd62ed3e30856040518363ffffffff1660e01b8152600401808373ffffffffffffffffffffffffffffffffffffffff1681526020018273ffffffffffffffffffffffffffffffffffffffff1681526020019250505060206040518083038186803b158015611c6057600080fd5b505afa158015611c74573d6000803e3d6000fd5b505050506040513d6020811015611c8a57600080fd5b8101908080519060200190929190505050145b611cf2576040517f08c379a000000000000000000000000000000000000000000000000000000000815260040180806020018281038252603681526020018061225a6036913960400191505060405180910390fd5b611d8f8363095ea7b360e01b8484604051602401808373ffffffffffffffffffffffffffffffffffffffff16815260200182815260200192505050604051602081830303815290604052907bffffffffffffffffffffffffffffffffffffffffffffffffffffffff19166020820180517bffffffffffffffffffffffffffffffffffffffffffffffffffffffff8381831617835250505050611e54565b505050565b6000838311158290611e41576040517f08c379a00000000000000000000000000000000000000000000000000000000081526004018080602001828103825283818151815260200191508051906020019080838360005b83811015611e06578082015181840152602081019050611deb565b50505050905090810190601f168015611e335780820380516001836020036101000a031916815260200191505b509250505060405180910390fd5b5060008385039050809150509392505050565b6060611eb6826040518060400160405280602081526020017f5361666545524332303a206c6f772d6c6576656c2063616c6c206661696c65648152508573ffffffffffffffffffffffffffffffffffffffff16611f439092919063ffffffff16565b9050600081511115611f3e57808060200190516020811015611ed757600080fd5b8101908080519060200190929190505050611f3d576040517f08c379a000000000000000000000000000000000000000000000000000000000815260040180806020018281038252602a815260200180612230602a913960400191505060405180910390fd5b5b505050565b6060611f528484600085611f5b565b90509392505050565b606082471015611fb6576040517f08c379a000000000000000000000000000000000000000000000000000000000815260040180806020018281038252602681526020018061220a6026913960400191505060405180910390fd5b611fbf85612104565b612031576040517f08c379a000000000000000000000000000000000000000000000000000000000815260040180806020018281038252601d8152602001807f416464726573733a2063616c6c20746f206e6f6e2d636f6e747261637400000081525060200191505060405180910390fd5b600060608673ffffffffffffffffffffffffffffffffffffffff1685876040518082805190602001908083835b60208310612081578051825260208201915060208101905060208303925061205e565b6001836020036101000a03801982511681845116808217855250505050505090500191505060006040518083038185875af1925050503d80600081146120e3576040519150601f19603f3d011682016040523d82523d6000602084013e6120e8565b606091505b50915091506120f8828286612117565b92505050949350505050565b600080823b905060008111915050919050565b60608315612127578290506121dc565b60008351111561213a5782518084602001fd5b816040517f08c379a00000000000000000000000000000000000000000000000000000000081526004018080602001828103825283818151815260200191508051906020019080838360005b838110156121a1578082015181840152602081019050612186565b50505050905090810190601f1680156121ce5780820380516001836020036101000a031916815260200191505b509250505060405180910390fd5b939250505056fe4f776e61626c653a206e6577206f776e657220697320746865207a65726f2061646472657373416464726573733a20696e73756666696369656e742062616c616e636520666f722063616c6c5361666545524332303a204552433230206f7065726174696f6e20646964206e6f7420737563636565645361666545524332303a20617070726f76652066726f6d206e6f6e2d7a65726f20746f206e6f6e2d7a65726f20616c6c6f77616e6365a26469706673582212207bbb4584df8de783b922e280d9e0e10844107a959e53d634fc47e2d86de7548664736f6c634300060c0033",
  "compiler": {
    "name": "solc",
    "version": "0.6.12+commit.27d51765.Emscripten.clang",
    "optimizer": {
      "enabled": false,
      "runs": 200
    },
    "evmVersion": "istanbul"
  }
}