{
  "fileName": "ATokenMigrator.sol",
  "contractName": "ATokenMigrator",
  "source": "// SPDX-License-Identifier: MIT\npragma solidity 0.6.12;\n\nimport \"@openzeppelin/contracts/token/ERC20/IERC20.sol\";\nimport \"@openzeppelin/contracts/token/ERC20/SafeERC20.sol\";\nimport \"@openzeppelin/contracts/math/SafeMath.sol\";\nimport \"../../token/PEther.sol\";\nimport \"../../token/PERC20.sol\";\nimport \"./ATokenInterface.sol\";\n\n\ncontract ATokenMigrator {\n\n    using SafeMath for uint256;\n    using SafeERC20 for IERC20;\n\n    address public breeder;\n    uint256 public notBeforeBlock;\n    address payable public targetToken;\n\n    constructor (address _breeder, uint256 _notBeforeBlock, address payable _targetToken) public {\n        breeder = _breeder;\n        notBeforeBlock = _notBeforeBlock;\n        targetToken = _targetToken;\n    }\n\n    function replaceMigrate(ATokenInterface oldLpToken) external payable returns (PToken, uint){\n\n        require(msg.sender == breeder, \"not from breeder\");\n        require(block.number >= notBeforeBlock, \"too early to migrate\");\n\n        address self = address(this);\n        uint256 lp = oldLpToken.balanceOf(breeder);\n\n        require(lp > 0, \"balance must bigger than 0\");\n\n        address underlyingAssetAddress = oldLpToken.underlyingAssetAddress();\n        uint256 oldBalance = 0;\n\n        if (underlyingAssetAddress == address(0xEeeeeEeeeEeEeeEeEeEeeEEEeeeeEeeeeeeeEEeE)) {\n            oldBalance = self.balance;\n        } else {\n            IERC20 token = IERC20(underlyingAssetAddress);\n            oldBalance = token.balanceOf(self);\n        }\n\n        oldLpToken.transferFrom(breeder, self, lp);\n        oldLpToken.redeem(lp);\n\n        if (underlyingAssetAddress == address(0xEeeeeEeeeEeEeeEeEeEeeEEEeeeeEeeeeeeeEEeE)) {\n\n            PEther newLpToken = PEther(targetToken);\n\n            //获得赎回了多少代币\n            uint redeemBal = self.balance.sub(oldBalance);\n\n            // 将赎回的代币，抵押到wePiggy中，生成pToken\n            newLpToken.mintForMigrate{value : redeemBal}(lp);\n\n            // 获得抵押生成的pToken有多少\n            uint mintBal = newLpToken.balanceOf(self);\n\n            //将余额转到挖矿合约\n            newLpToken.transferFrom(self, breeder, mintBal);\n\n            //返回占比\n            return (newLpToken, mintBal);\n\n        } else {\n\n            PERC20 newLpToken = PERC20(targetToken);\n            require(underlyingAssetAddress == newLpToken.underlying(), \"not match\");\n\n            //获得赎回了多少代币\n            IERC20 token = IERC20(underlyingAssetAddress);\n            uint redeemBal = token.balanceOf(self).sub(oldBalance);\n\n            // 将赎回的代币，抵押到wePiggy中，生成pToken\n            token.safeApprove(address(newLpToken), redeemBal);\n            newLpToken.mintForMigrate(redeemBal, lp);\n\n            // 获得抵押生成的pToken有多少\n            uint mintBal = newLpToken.balanceOf(self);\n\n            //将余额转到挖矿合约\n            newLpToken.transferFrom(self, breeder, mintBal);\n\n            return (newLpToken, mintBal);\n        }\n\n    }\n\n    function migrate(ATokenInterface oldLpToken) external payable returns (PToken, uint){\n\n        require(msg.sender == breeder, \"not from breeder\");\n        require(block.number >= notBeforeBlock, \"too early to migrate\");\n\n        address self = address(this);\n        uint256 lp = oldLpToken.balanceOf(breeder);\n\n        require(lp > 0, \"balance must bigger than 0\");\n\n        // 从aToken中赎回相应的代币\n        oldLpToken.transferFrom(breeder, self, lp);\n        oldLpToken.redeem(lp);\n\n        address underlyingAssetAddress = oldLpToken.underlyingAssetAddress();\n        if (underlyingAssetAddress == address(0xEeeeeEeeeEeEeeEeEeEeeEEEeeeeEeeeeeeeEEeE)) {\n\n            PEther newLpToken = PEther(targetToken);\n\n            //获得赎回了多少代币\n            uint redeemBal = self.balance;\n\n            // 将赎回的代币，抵押到wePiggy中，生成pToken\n            newLpToken.mint{value : redeemBal}();\n\n            // 获得抵押生成的pToken有多少\n            uint mintBal = newLpToken.balanceOf(self);\n\n            //将余额转到挖矿合约\n            newLpToken.transferFrom(self, breeder, mintBal);\n\n            //返回占比\n            return (newLpToken, mintBal);\n\n        } else {\n\n            PERC20 newLpToken = PERC20(targetToken);\n            require(underlyingAssetAddress == newLpToken.underlying(), \"not match\");\n\n            //获得赎回了多少代币\n            uint redeemBal = 0;\n            IERC20 token = IERC20(underlyingAssetAddress);\n            redeemBal = token.balanceOf(self);\n\n            // 将赎回的代币，抵押到wePiggy中，生成pToken\n            token.safeApprove(address(newLpToken), redeemBal);\n            newLpToken.mint(redeemBal);\n\n            // 获得抵押生成的pToken有多少\n            uint mintBal = newLpToken.balanceOf(self);\n\n            //将余额转到挖矿合约\n            newLpToken.transferFrom(self, breeder, mintBal);\n\n            return (newLpToken, mintBal);\n        }\n\n    }\n\n    receive() external payable {\n    }\n\n}\n",
  "sourcePath": "contracts/farm/migrator/ATokenMigrator.sol",
  "abi": [
    {
      "inputs": [
        {
          "internalType": "address",
          "name": "_breeder",
          "type": "address"
        },
        {
          "internalType": "uint256",
          "name": "_notBeforeBlock",
          "type": "uint256"
        },
        {
          "internalType": "address payable",
          "name": "_targetToken",
          "type": "address"
        }
      ],
      "stateMutability": "nonpayable",
      "type": "constructor"
    },
    {
      "inputs": [],
      "name": "breeder",
      "outputs": [
        {
          "internalType": "address",
          "name": "",
          "type": "address"
        }
      ],
      "stateMutability": "view",
      "type": "function"
    },
    {
      "inputs": [
        {
          "internalType": "contract ATokenInterface",
          "name": "oldLpToken",
          "type": "address"
        }
      ],
      "name": "migrate",
      "outputs": [
        {
          "internalType": "contract PToken",
          "name": "",
          "type": "address"
        },
        {
          "internalType": "uint256",
          "name": "",
          "type": "uint256"
        }
      ],
      "stateMutability": "payable",
      "type": "function"
    },
    {
      "inputs": [],
      "name": "notBeforeBlock",
      "outputs": [
        {
          "internalType": "uint256",
          "name": "",
          "type": "uint256"
        }
      ],
      "stateMutability": "view",
      "type": "function"
    },
    {
      "inputs": [
        {
          "internalType": "contract ATokenInterface",
          "name": "oldLpToken",
          "type": "address"
        }
      ],
      "name": "replaceMigrate",
      "outputs": [
        {
          "internalType": "contract PToken",
          "name": "",
          "type": "address"
        },
        {
          "internalType": "uint256",
          "name": "",
          "type": "uint256"
        }
      ],
      "stateMutability": "payable",
      "type": "function"
    },
    {
      "inputs": [],
      "name": "targetToken",
      "outputs": [
        {
          "internalType": "address payable",
          "name": "",
          "type": "address"
        }
      ],
      "stateMutability": "view",
      "type": "function"
    },
    {
      "stateMutability": "payable",
      "type": "receive"
    }
  ],
  "bytecode": "0x608060405234801561001057600080fd5b506040516122073803806122078339818101604052606081101561003357600080fd5b81019080805190602001909291908051906020019092919080519060200190929190505050826000806101000a81548173ffffffffffffffffffffffffffffffffffffffff021916908373ffffffffffffffffffffffffffffffffffffffff1602179055508160018190555080600260006101000a81548173ffffffffffffffffffffffffffffffffffffffff021916908373ffffffffffffffffffffffffffffffffffffffff160217905550505050612115806100f26000396000f3fe60806040526004361061004e5760003560e01c8063052931371461005a578063327107f7146100855780636336cc61146100c6578063ae9dfc4d1461013b578063ce5494bb1461017c57610055565b3661005557005b600080fd5b34801561006657600080fd5b5061006f6101f1565b6040518082815260200191505060405180910390f35b34801561009157600080fd5b5061009a6101f7565b604051808273ffffffffffffffffffffffffffffffffffffffff16815260200191505060405180910390f35b610108600480360360208110156100dc57600080fd5b81019080803573ffffffffffffffffffffffffffffffffffffffff16906020019092919050505061021d565b604051808373ffffffffffffffffffffffffffffffffffffffff1681526020018281526020019250505060405180910390f35b34801561014757600080fd5b50610150610ea1565b604051808273ffffffffffffffffffffffffffffffffffffffff16815260200191505060405180910390f35b6101be6004803603602081101561019257600080fd5b81019080803573ffffffffffffffffffffffffffffffffffffffff169060200190929190505050610ec5565b604051808373ffffffffffffffffffffffffffffffffffffffff1681526020018281526020019250505060405180910390f35b60015481565b600260009054906101000a900473ffffffffffffffffffffffffffffffffffffffff1681565b60008060008054906101000a900473ffffffffffffffffffffffffffffffffffffffff1673ffffffffffffffffffffffffffffffffffffffff163373ffffffffffffffffffffffffffffffffffffffff16146102e1576040517f08c379a00000000000000000000000000000000000000000000000000000000081526004018080602001828103825260108152602001807f6e6f742066726f6d20627265656465720000000000000000000000000000000081525060200191505060405180910390fd5b600154431015610359576040517f08c379a00000000000000000000000000000000000000000000000000000000081526004018080602001828103825260148152602001807f746f6f206561726c7920746f206d69677261746500000000000000000000000081525060200191505060405180910390fd5b600030905060008473ffffffffffffffffffffffffffffffffffffffff166370a0823160008054906101000a900473ffffffffffffffffffffffffffffffffffffffff166040518263ffffffff1660e01b8152600401808273ffffffffffffffffffffffffffffffffffffffff16815260200191505060206040518083038186803b1580156103e757600080fd5b505afa1580156103fb573d6000803e3d6000fd5b505050506040513d602081101561041157600080fd5b810190808051906020019092919050505090506000811161049a576040517f08c379a000000000000000000000000000000000000000000000000000000000815260040180806020018281038252601a8152602001807f62616c616e6365206d75737420626967676572207468616e203000000000000081525060200191505060405180910390fd5b60008573ffffffffffffffffffffffffffffffffffffffff166389d1a0fc6040518163ffffffff1660e01b815260040160206040518083038186803b1580156104e257600080fd5b505afa1580156104f6573d6000803e3d6000fd5b505050506040513d602081101561050c57600080fd5b81019080805190602001909291905050509050600073eeeeeeeeeeeeeeeeeeeeeeeeeeeeeeeeeeeeeeee73ffffffffffffffffffffffffffffffffffffffff168273ffffffffffffffffffffffffffffffffffffffff161415610588578373ffffffffffffffffffffffffffffffffffffffff16319050610633565b60008290508073ffffffffffffffffffffffffffffffffffffffff166370a08231866040518263ffffffff1660e01b8152600401808273ffffffffffffffffffffffffffffffffffffffff16815260200191505060206040518083038186803b1580156105f457600080fd5b505afa158015610608573d6000803e3d6000fd5b505050506040513d602081101561061e57600080fd5b81019080805190602001909291905050509150505b8673ffffffffffffffffffffffffffffffffffffffff166323b872dd60008054906101000a900473ffffffffffffffffffffffffffffffffffffffff1686866040518463ffffffff1660e01b8152600401808473ffffffffffffffffffffffffffffffffffffffff1681526020018373ffffffffffffffffffffffffffffffffffffffff1681526020018281526020019350505050602060405180830381600087803b1580156106e257600080fd5b505af11580156106f6573d6000803e3d6000fd5b505050506040513d602081101561070c57600080fd5b8101908080519060200190929190505050508673ffffffffffffffffffffffffffffffffffffffff1663db006a75846040518263ffffffff1660e01b815260040180828152602001915050600060405180830381600087803b15801561077157600080fd5b505af1158015610785573d6000803e3d6000fd5b5050505073eeeeeeeeeeeeeeeeeeeeeeeeeeeeeeeeeeeeeeee73ffffffffffffffffffffffffffffffffffffffff168273ffffffffffffffffffffffffffffffffffffffff161415610a35576000600260009054906101000a900473ffffffffffffffffffffffffffffffffffffffff1690506000610824838773ffffffffffffffffffffffffffffffffffffffff16316119fb90919063ffffffff16565b90508173ffffffffffffffffffffffffffffffffffffffff166394f2241282876040518363ffffffff1660e01b8152600401808281526020019150506000604051808303818588803b15801561087957600080fd5b505af115801561088d573d6000803e3d6000fd5b505050505060008273ffffffffffffffffffffffffffffffffffffffff166370a08231886040518263ffffffff1660e01b8152600401808273ffffffffffffffffffffffffffffffffffffffff16815260200191505060206040518083038186803b1580156108fb57600080fd5b505afa15801561090f573d6000803e3d6000fd5b505050506040513d602081101561092557600080fd5b810190808051906020019092919050505090508273ffffffffffffffffffffffffffffffffffffffff166323b872dd8860008054906101000a900473ffffffffffffffffffffffffffffffffffffffff16846040518463ffffffff1660e01b8152600401808473ffffffffffffffffffffffffffffffffffffffff1681526020018373ffffffffffffffffffffffffffffffffffffffff1681526020018281526020019350505050602060405180830381600087803b1580156109e757600080fd5b505af11580156109fb573d6000803e3d6000fd5b505050506040513d6020811015610a1157600080fd5b81019080805190602001909291905050505082819850985050505050505050610e9c565b6000600260009054906101000a900473ffffffffffffffffffffffffffffffffffffffff1690508073ffffffffffffffffffffffffffffffffffffffff16636f307dc36040518163ffffffff1660e01b815260040160206040518083038186803b158015610aa257600080fd5b505afa158015610ab6573d6000803e3d6000fd5b505050506040513d6020811015610acc57600080fd5b810190808051906020019092919050505073ffffffffffffffffffffffffffffffffffffffff168373ffffffffffffffffffffffffffffffffffffffff1614610b7d576040517f08c379a00000000000000000000000000000000000000000000000000000000081526004018080602001828103825260098152602001807f6e6f74206d61746368000000000000000000000000000000000000000000000081525060200191505060405180910390fd5b60008390506000610c38848373ffffffffffffffffffffffffffffffffffffffff166370a082318a6040518263ffffffff1660e01b8152600401808273ffffffffffffffffffffffffffffffffffffffff16815260200191505060206040518083038186803b158015610bef57600080fd5b505afa158015610c03573d6000803e3d6000fd5b505050506040513d6020811015610c1957600080fd5b81019080805190602001909291905050506119fb90919063ffffffff16565b9050610c6583828473ffffffffffffffffffffffffffffffffffffffff16611a459092919063ffffffff16565b8273ffffffffffffffffffffffffffffffffffffffff1663791d891582886040518363ffffffff1660e01b81526004018083815260200182815260200192505050602060405180830381600087803b158015610cc057600080fd5b505af1158015610cd4573d6000803e3d6000fd5b505050506040513d6020811015610cea57600080fd5b81019080805190602001909291905050505060008373ffffffffffffffffffffffffffffffffffffffff166370a08231896040518263ffffffff1660e01b8152600401808273ffffffffffffffffffffffffffffffffffffffff16815260200191505060206040518083038186803b158015610d6557600080fd5b505afa158015610d79573d6000803e3d6000fd5b505050506040513d6020811015610d8f57600080fd5b810190808051906020019092919050505090508373ffffffffffffffffffffffffffffffffffffffff166323b872dd8960008054906101000a900473ffffffffffffffffffffffffffffffffffffffff16846040518463ffffffff1660e01b8152600401808473ffffffffffffffffffffffffffffffffffffffff1681526020018373ffffffffffffffffffffffffffffffffffffffff1681526020018281526020019350505050602060405180830381600087803b158015610e5157600080fd5b505af1158015610e65573d6000803e3d6000fd5b505050506040513d6020811015610e7b57600080fd5b81019080805190602001909291905050505083819950995050505050505050505b915091565b60008054906101000a900473ffffffffffffffffffffffffffffffffffffffff1681565b60008060008054906101000a900473ffffffffffffffffffffffffffffffffffffffff1673ffffffffffffffffffffffffffffffffffffffff163373ffffffffffffffffffffffffffffffffffffffff1614610f89576040517f08c379a00000000000000000000000000000000000000000000000000000000081526004018080602001828103825260108152602001807f6e6f742066726f6d20627265656465720000000000000000000000000000000081525060200191505060405180910390fd5b600154431015611001576040517f08c379a00000000000000000000000000000000000000000000000000000000081526004018080602001828103825260148152602001807f746f6f206561726c7920746f206d69677261746500000000000000000000000081525060200191505060405180910390fd5b600030905060008473ffffffffffffffffffffffffffffffffffffffff166370a0823160008054906101000a900473ffffffffffffffffffffffffffffffffffffffff166040518263ffffffff1660e01b8152600401808273ffffffffffffffffffffffffffffffffffffffff16815260200191505060206040518083038186803b15801561108f57600080fd5b505afa1580156110a3573d6000803e3d6000fd5b505050506040513d60208110156110b957600080fd5b8101908080519060200190929190505050905060008111611142576040517f08c379a000000000000000000000000000000000000000000000000000000000815260040180806020018281038252601a8152602001807f62616c616e6365206d75737420626967676572207468616e203000000000000081525060200191505060405180910390fd5b8473ffffffffffffffffffffffffffffffffffffffff166323b872dd60008054906101000a900473ffffffffffffffffffffffffffffffffffffffff1684846040518463ffffffff1660e01b8152600401808473ffffffffffffffffffffffffffffffffffffffff1681526020018373ffffffffffffffffffffffffffffffffffffffff1681526020018281526020019350505050602060405180830381600087803b1580156111f157600080fd5b505af1158015611205573d6000803e3d6000fd5b505050506040513d602081101561121b57600080fd5b8101908080519060200190929190505050508473ffffffffffffffffffffffffffffffffffffffff1663db006a75826040518263ffffffff1660e01b815260040180828152602001915050600060405180830381600087803b15801561128057600080fd5b505af1158015611294573d6000803e3d6000fd5b5050505060008573ffffffffffffffffffffffffffffffffffffffff166389d1a0fc6040518163ffffffff1660e01b815260040160206040518083038186803b1580156112e057600080fd5b505afa1580156112f4573d6000803e3d6000fd5b505050506040513d602081101561130a57600080fd5b8101908080519060200190929190505050905073eeeeeeeeeeeeeeeeeeeeeeeeeeeeeeeeeeeeeeee73ffffffffffffffffffffffffffffffffffffffff168173ffffffffffffffffffffffffffffffffffffffff1614156115ab576000600260009054906101000a900473ffffffffffffffffffffffffffffffffffffffff16905060008473ffffffffffffffffffffffffffffffffffffffff163190508173ffffffffffffffffffffffffffffffffffffffff16631249c58b826040518263ffffffff1660e01b81526004016000604051808303818588803b1580156113f057600080fd5b505af1158015611404573d6000803e3d6000fd5b505050505060008273ffffffffffffffffffffffffffffffffffffffff166370a08231876040518263ffffffff1660e01b8152600401808273ffffffffffffffffffffffffffffffffffffffff16815260200191505060206040518083038186803b15801561147257600080fd5b505afa158015611486573d6000803e3d6000fd5b505050506040513d602081101561149c57600080fd5b810190808051906020019092919050505090508273ffffffffffffffffffffffffffffffffffffffff166323b872dd8760008054906101000a900473ffffffffffffffffffffffffffffffffffffffff16846040518463ffffffff1660e01b8152600401808473ffffffffffffffffffffffffffffffffffffffff1681526020018373ffffffffffffffffffffffffffffffffffffffff1681526020018281526020019350505050602060405180830381600087803b15801561155e57600080fd5b505af1158015611572573d6000803e3d6000fd5b505050506040513d602081101561158857600080fd5b8101908080519060200190929190505050508281975097505050505050506119f6565b6000600260009054906101000a900473ffffffffffffffffffffffffffffffffffffffff1690508073ffffffffffffffffffffffffffffffffffffffff16636f307dc36040518163ffffffff1660e01b815260040160206040518083038186803b15801561161857600080fd5b505afa15801561162c573d6000803e3d6000fd5b505050506040513d602081101561164257600080fd5b810190808051906020019092919050505073ffffffffffffffffffffffffffffffffffffffff168273ffffffffffffffffffffffffffffffffffffffff16146116f3576040517f08c379a00000000000000000000000000000000000000000000000000000000081526004018080602001828103825260098152602001807f6e6f74206d61746368000000000000000000000000000000000000000000000081525060200191505060405180910390fd5b6000808390508073ffffffffffffffffffffffffffffffffffffffff166370a08231876040518263ffffffff1660e01b8152600401808273ffffffffffffffffffffffffffffffffffffffff16815260200191505060206040518083038186803b15801561176057600080fd5b505afa158015611774573d6000803e3d6000fd5b505050506040513d602081101561178a57600080fd5b810190808051906020019092919050505091506117c883838373ffffffffffffffffffffffffffffffffffffffff16611a459092919063ffffffff16565b8273ffffffffffffffffffffffffffffffffffffffff1663a0712d68836040518263ffffffff1660e01b815260040180828152602001915050602060405180830381600087803b15801561181b57600080fd5b505af115801561182f573d6000803e3d6000fd5b505050506040513d602081101561184557600080fd5b81019080805190602001909291905050505060008373ffffffffffffffffffffffffffffffffffffffff166370a08231886040518263ffffffff1660e01b8152600401808273ffffffffffffffffffffffffffffffffffffffff16815260200191505060206040518083038186803b1580156118c057600080fd5b505afa1580156118d4573d6000803e3d6000fd5b505050506040513d60208110156118ea57600080fd5b810190808051906020019092919050505090508373ffffffffffffffffffffffffffffffffffffffff166323b872dd8860008054906101000a900473ffffffffffffffffffffffffffffffffffffffff16846040518463ffffffff1660e01b8152600401808473ffffffffffffffffffffffffffffffffffffffff1681526020018373ffffffffffffffffffffffffffffffffffffffff1681526020018281526020019350505050602060405180830381600087803b1580156119ac57600080fd5b505af11580156119c0573d6000803e3d6000fd5b505050506040513d60208110156119d657600080fd5b810190808051906020019092919050505050838198509850505050505050505b915091565b6000611a3d83836040518060400160405280601e81526020017f536166654d6174683a207375627472616374696f6e206f766572666c6f770000815250611c0a565b905092915050565b6000811480611b13575060008373ffffffffffffffffffffffffffffffffffffffff1663dd62ed3e30856040518363ffffffff1660e01b8152600401808373ffffffffffffffffffffffffffffffffffffffff1681526020018273ffffffffffffffffffffffffffffffffffffffff1681526020019250505060206040518083038186803b158015611ad657600080fd5b505afa158015611aea573d6000803e3d6000fd5b505050506040513d6020811015611b0057600080fd5b8101908080519060200190929190505050145b611b68576040517f08c379a00000000000000000000000000000000000000000000000000000000081526004018080602001828103825260368152602001806120aa6036913960400191505060405180910390fd5b611c058363095ea7b360e01b8484604051602401808373ffffffffffffffffffffffffffffffffffffffff16815260200182815260200192505050604051602081830303815290604052907bffffffffffffffffffffffffffffffffffffffffffffffffffffffff19166020820180517bffffffffffffffffffffffffffffffffffffffffffffffffffffffff8381831617835250505050611cca565b505050565b6000838311158290611cb7576040517f08c379a00000000000000000000000000000000000000000000000000000000081526004018080602001828103825283818151815260200191508051906020019080838360005b83811015611c7c578082015181840152602081019050611c61565b50505050905090810190601f168015611ca95780820380516001836020036101000a031916815260200191505b509250505060405180910390fd5b5060008385039050809150509392505050565b6060611d2c826040518060400160405280602081526020017f5361666545524332303a206c6f772d6c6576656c2063616c6c206661696c65648152508573ffffffffffffffffffffffffffffffffffffffff16611db99092919063ffffffff16565b9050600081511115611db457808060200190516020811015611d4d57600080fd5b8101908080519060200190929190505050611db3576040517f08c379a000000000000000000000000000000000000000000000000000000000815260040180806020018281038252602a815260200180612080602a913960400191505060405180910390fd5b5b505050565b6060611dc88484600085611dd1565b90509392505050565b606082471015611e2c576040517f08c379a000000000000000000000000000000000000000000000000000000000815260040180806020018281038252602681526020018061205a6026913960400191505060405180910390fd5b611e3585611f7a565b611ea7576040517f08c379a000000000000000000000000000000000000000000000000000000000815260040180806020018281038252601d8152602001807f416464726573733a2063616c6c20746f206e6f6e2d636f6e747261637400000081525060200191505060405180910390fd5b600060608673ffffffffffffffffffffffffffffffffffffffff1685876040518082805190602001908083835b60208310611ef75780518252602082019150602081019050602083039250611ed4565b6001836020036101000a03801982511681845116808217855250505050505090500191505060006040518083038185875af1925050503d8060008114611f59576040519150601f19603f3d011682016040523d82523d6000602084013e611f5e565b606091505b5091509150611f6e828286611f8d565b92505050949350505050565b600080823b905060008111915050919050565b60608315611f9d57829050612052565b600083511115611fb05782518084602001fd5b816040517f08c379a00000000000000000000000000000000000000000000000000000000081526004018080602001828103825283818151815260200191508051906020019080838360005b83811015612017578082015181840152602081019050611ffc565b50505050905090810190601f1680156120445780820380516001836020036101000a031916815260200191505b509250505060405180910390fd5b939250505056fe416464726573733a20696e73756666696369656e742062616c616e636520666f722063616c6c5361666545524332303a204552433230206f7065726174696f6e20646964206e6f7420737563636565645361666545524332303a20617070726f76652066726f6d206e6f6e2d7a65726f20746f206e6f6e2d7a65726f20616c6c6f77616e6365a26469706673582212206bc1e304c0a6dd0e652eeafb82ce9811f6fb8dc74382607cf9f8966408856d1964736f6c634300060c0033",
  "compiler": {
    "name": "solc",
    "version": "0.6.12+commit.27d51765.Emscripten.clang",
    "optimizer": {
      "enabled": false,
      "runs": 200
    },
    "evmVersion": "istanbul"
  }
}