{
  "fileName": "BaseJumpRateModel.sol",
  "contractName": "BaseJumpRateModel",
  "source": "// COPIED FROM https://github.com/compound-finance/compound-protocol/blob/master/contracts/BaseJumpRateModelV2.sol\n//Copyright 2020 Compound Labs, Inc.\n//Redistribution and use in source and binary forms, with or without modification, are permitted provided that the following conditions are met:\n//1. Redistributions of source code must retain the above copyright notice, this list of conditions and the following disclaimer.\n//2. Redistributions in binary form must reproduce the above copyright notice, this list of conditions and the following disclaimer in the documentation and/or other materials provided with the distribution.\n//3. Neither the name of the copyright holder nor the names of its contributors may be used to endorse or promote products derived from this software without specific prior written permission.\n//THIS SOFTWARE IS PROVIDED BY THE COPYRIGHT HOLDERS AND CONTRIBUTORS \"AS IS\" AND ANY EXPRESS OR IMPLIED WARRANTIES, INCLUDING, BUT NOT LIMITED TO, THE IMPLIED WARRANTIES OF MERCHANTABILITY AND FITNESS FOR A PARTICULAR PURPOSE ARE DISCLAIMED. IN NO EVENT SHALL THE COPYRIGHT HOLDER OR CONTRIBUTORS BE LIABLE FOR ANY DIRECT, INDIRECT, INCIDENTAL, SPECIAL, EXEMPLARY, OR CONSEQUENTIAL DAMAGES (INCLUDING, BUT NOT LIMITED TO, PROCUREMENT OF SUBSTITUTE GOODS OR SERVICES; LOSS OF USE, DATA, OR PROFITS; OR BUSINESS INTERRUPTION) HOWEVER CAUSED AND ON ANY THEORY OF LIABILITY, WHETHER IN CONTRACT, STRICT LIABILITY, OR TORT (INCLUDING NEGLIGENCE OR OTHERWISE) ARISING IN ANY WAY OUT OF THE USE OF THIS SOFTWARE, EVEN IF ADVISED OF THE POSSIBILITY OF SUCH DAMAGE.\n\n// SPDX-License-Identifier: MIT\npragma solidity ^0.6.0;\n\nimport \"@openzeppelin/contracts-ethereum-package/contracts/math/SafeMath.sol\";\nimport \"@openzeppelin/contracts-ethereum-package/contracts/access/Ownable.sol\";\nimport \"./IInterestRateModel.sol\";\n\n/**\n  * @title Logic for Compound's JumpRateModel Contract V2.\n  * @author Compound (modified by Dharma Labs, refactored by Arr00)\n  * @notice Version 2 modifies Version 1 by enabling updateable parameters.\n  */\ncontract BaseJumpRateModel is IInterestRateModel, OwnableUpgradeSafe {\n    using SafeMath for uint;\n\n    event NewInterestParams(uint baseRatePerBlock, uint multiplierPerBlock, uint jumpMultiplierPerBlock, uint kink);\n\n    /**\n     * @notice The approximate number of blocks per year that is assumed by the interest rate model\n     */\n    uint public constant blocksPerYear = 2102400;\n\n    /**\n     * @notice The multiplier of utilization rate that gives the slope of the interest rate\n     */\n    uint public multiplierPerBlock;\n\n    /**\n     * @notice The base interest rate which is the y-intercept when utilization rate is 0\n     */\n    uint public baseRatePerBlock;\n\n    /**\n     * @notice The multiplierPerBlock after hitting a specified utilization point\n     */\n    uint public jumpMultiplierPerBlock;\n\n    /**\n     * @notice The utilization point at which the jump multiplier is applied\n     */\n    uint public kink;\n\n    /**\n     * @notice Update the parameters of the interest rate model (only callable by owner, i.e. Timelock)\n     * @param baseRatePerYear The approximate target base APR, as a mantissa (scaled by 1e18)\n     * @param multiplierPerYear The rate of increase in interest rate wrt utilization (scaled by 1e18)\n     * @param jumpMultiplierPerYear The multiplierPerBlock after hitting a specified utilization point\n     * @param kink_ The utilization point at which the jump multiplier is applied\n     */\n    function updateJumpRateModel(uint baseRatePerYear, uint multiplierPerYear, uint jumpMultiplierPerYear, uint kink_) external {\n        updateJumpRateModelInternal(baseRatePerYear, multiplierPerYear, jumpMultiplierPerYear, kink_);\n    }\n\n    /**\n     * @notice Calculates the utilization rate of the market: `borrows / (cash + borrows - reserves)`\n     * @param cash The amount of cash in the market\n     * @param borrows The amount of borrows in the market\n     * @param reserves The amount of reserves in the market (currently unused)\n     * @return The utilization rate as a mantissa between [0, 1e18]\n     */\n    function utilizationRate(uint cash, uint borrows, uint reserves) public pure returns (uint) {\n        // Utilization rate is 0 when there are no borrows\n        if (borrows == 0) {\n            return 0;\n        }\n\n        return borrows.mul(1e18).div(cash.add(borrows).sub(reserves));\n    }\n\n    /**\n     * @notice Calculates the current borrow rate per block, with the error code expected by the market\n     * @param cash The amount of cash in the market\n     * @param borrows The amount of borrows in the market\n     * @param reserves The amount of reserves in the market\n     * @return The borrow rate percentage per block as a mantissa (scaled by 1e18)\n     */\n    function getBorrowRateInternal(uint cash, uint borrows, uint reserves) internal view returns (uint) {\n        uint util = utilizationRate(cash, borrows, reserves);\n\n        if (util <= kink) {\n            return util.mul(multiplierPerBlock).div(1e18).add(baseRatePerBlock);\n        } else {\n            uint normalRate = kink.mul(multiplierPerBlock).div(1e18).add(baseRatePerBlock);\n            uint excessUtil = util.sub(kink);\n            return excessUtil.mul(jumpMultiplierPerBlock).div(1e18).add(normalRate);\n        }\n    }\n\n    /**\n     * @notice Calculates the current borrow rate per block\n     * @param cash The amount of cash in the market\n     * @param borrows The amount of borrows in the market\n     * @param reserves The amount of reserves in the market\n     * @return The borrow rate percentage per block as a mantissa (scaled by 1e18)\n     */\n    function getBorrowRate(uint cash, uint borrows, uint reserves) external virtual override view returns (uint) {\n        return getBorrowRateInternal(cash, borrows, reserves);\n    }\n\n\n    function getSupplyRateInternal(uint cash, uint borrows, uint reserves, uint reserveFactorMantissa) internal view returns (uint) {\n        uint oneMinusReserveFactor = uint(1e18).sub(reserveFactorMantissa);\n        uint borrowRate = getBorrowRateInternal(cash, borrows, reserves);\n        uint rateToPool = borrowRate.mul(oneMinusReserveFactor).div(1e18);\n        return utilizationRate(cash, borrows, reserves).mul(rateToPool).div(1e18);\n    }\n    /**\n     * @notice Calculates the current supply rate per block\n     * @param cash The amount of cash in the market\n     * @param borrows The amount of borrows in the market\n     * @param reserves The amount of reserves in the market\n     * @param reserveFactorMantissa The current reserve factor for the market\n     * @return The supply rate percentage per block as a mantissa (scaled by 1e18)\n     */\n    function getSupplyRate(uint cash, uint borrows, uint reserves, uint reserveFactorMantissa) external virtual override view returns (uint) {\n        return getSupplyRateInternal(cash, borrows, reserves, reserveFactorMantissa);\n    }\n\n    /**\n     * @notice Internal function to update the parameters of the interest rate model\n     * @param baseRatePerYear The approximate target base APR, as a mantissa (scaled by 1e18)\n     * @param multiplierPerYear The rate of increase in interest rate wrt utilization (scaled by 1e18)\n     * @param jumpMultiplierPerYear The multiplierPerBlock after hitting a specified utilization point\n     * @param kink_ The utilization point at which the jump multiplier is applied\n     */\n    function updateJumpRateModelInternal(uint baseRatePerYear, uint multiplierPerYear, uint jumpMultiplierPerYear, uint kink_) internal onlyOwner {\n        baseRatePerBlock = baseRatePerYear.div(blocksPerYear);\n        multiplierPerBlock = (multiplierPerYear.mul(1e18)).div(blocksPerYear.mul(kink_));\n        jumpMultiplierPerBlock = jumpMultiplierPerYear.div(blocksPerYear);\n        kink = kink_;\n\n        emit NewInterestParams(baseRatePerBlock, multiplierPerBlock, jumpMultiplierPerBlock, kink);\n    }\n}\n",
  "sourcePath": "contracts/rate/BaseJumpRateModel.sol",
  "abi": [
    {
      "anonymous": false,
      "inputs": [
        {
          "indexed": false,
          "internalType": "uint256",
          "name": "baseRatePerBlock",
          "type": "uint256"
        },
        {
          "indexed": false,
          "internalType": "uint256",
          "name": "multiplierPerBlock",
          "type": "uint256"
        },
        {
          "indexed": false,
          "internalType": "uint256",
          "name": "jumpMultiplierPerBlock",
          "type": "uint256"
        },
        {
          "indexed": false,
          "internalType": "uint256",
          "name": "kink",
          "type": "uint256"
        }
      ],
      "name": "NewInterestParams",
      "type": "event"
    },
    {
      "anonymous": false,
      "inputs": [
        {
          "indexed": true,
          "internalType": "address",
          "name": "previousOwner",
          "type": "address"
        },
        {
          "indexed": true,
          "internalType": "address",
          "name": "newOwner",
          "type": "address"
        }
      ],
      "name": "OwnershipTransferred",
      "type": "event"
    },
    {
      "inputs": [],
      "name": "baseRatePerBlock",
      "outputs": [
        {
          "internalType": "uint256",
          "name": "",
          "type": "uint256"
        }
      ],
      "stateMutability": "view",
      "type": "function"
    },
    {
      "inputs": [],
      "name": "blocksPerYear",
      "outputs": [
        {
          "internalType": "uint256",
          "name": "",
          "type": "uint256"
        }
      ],
      "stateMutability": "view",
      "type": "function"
    },
    {
      "inputs": [
        {
          "internalType": "uint256",
          "name": "cash",
          "type": "uint256"
        },
        {
          "internalType": "uint256",
          "name": "borrows",
          "type": "uint256"
        },
        {
          "internalType": "uint256",
          "name": "reserves",
          "type": "uint256"
        }
      ],
      "name": "getBorrowRate",
      "outputs": [
        {
          "internalType": "uint256",
          "name": "",
          "type": "uint256"
        }
      ],
      "stateMutability": "view",
      "type": "function"
    },
    {
      "inputs": [
        {
          "internalType": "uint256",
          "name": "cash",
          "type": "uint256"
        },
        {
          "internalType": "uint256",
          "name": "borrows",
          "type": "uint256"
        },
        {
          "internalType": "uint256",
          "name": "reserves",
          "type": "uint256"
        },
        {
          "internalType": "uint256",
          "name": "reserveFactorMantissa",
          "type": "uint256"
        }
      ],
      "name": "getSupplyRate",
      "outputs": [
        {
          "internalType": "uint256",
          "name": "",
          "type": "uint256"
        }
      ],
      "stateMutability": "view",
      "type": "function"
    },
    {
      "inputs": [],
      "name": "jumpMultiplierPerBlock",
      "outputs": [
        {
          "internalType": "uint256",
          "name": "",
          "type": "uint256"
        }
      ],
      "stateMutability": "view",
      "type": "function"
    },
    {
      "inputs": [],
      "name": "kink",
      "outputs": [
        {
          "internalType": "uint256",
          "name": "",
          "type": "uint256"
        }
      ],
      "stateMutability": "view",
      "type": "function"
    },
    {
      "inputs": [],
      "name": "multiplierPerBlock",
      "outputs": [
        {
          "internalType": "uint256",
          "name": "",
          "type": "uint256"
        }
      ],
      "stateMutability": "view",
      "type": "function"
    },
    {
      "inputs": [],
      "name": "owner",
      "outputs": [
        {
          "internalType": "address",
          "name": "",
          "type": "address"
        }
      ],
      "stateMutability": "view",
      "type": "function"
    },
    {
      "inputs": [],
      "name": "renounceOwnership",
      "outputs": [],
      "stateMutability": "nonpayable",
      "type": "function"
    },
    {
      "inputs": [
        {
          "internalType": "address",
          "name": "newOwner",
          "type": "address"
        }
      ],
      "name": "transferOwnership",
      "outputs": [],
      "stateMutability": "nonpayable",
      "type": "function"
    },
    {
      "inputs": [
        {
          "internalType": "uint256",
          "name": "baseRatePerYear",
          "type": "uint256"
        },
        {
          "internalType": "uint256",
          "name": "multiplierPerYear",
          "type": "uint256"
        },
        {
          "internalType": "uint256",
          "name": "jumpMultiplierPerYear",
          "type": "uint256"
        },
        {
          "internalType": "uint256",
          "name": "kink_",
          "type": "uint256"
        }
      ],
      "name": "updateJumpRateModel",
      "outputs": [],
      "stateMutability": "nonpayable",
      "type": "function"
    },
    {
      "inputs": [
        {
          "internalType": "uint256",
          "name": "cash",
          "type": "uint256"
        },
        {
          "internalType": "uint256",
          "name": "borrows",
          "type": "uint256"
        },
        {
          "internalType": "uint256",
          "name": "reserves",
          "type": "uint256"
        }
      ],
      "name": "utilizationRate",
      "outputs": [
        {
          "internalType": "uint256",
          "name": "",
          "type": "uint256"
        }
      ],
      "stateMutability": "pure",
      "type": "function"
    }
  ],
  "bytecode": "0x608060405234801561001057600080fd5b50610ece806100206000396000f3fe608060405234801561001057600080fd5b50600436106100b45760003560e01c8063a385fb9611610071578063a385fb961461020d578063b81688161461022b578063b9f9850a1461028b578063f14039de146102a9578063f2fde38b146102c7578063fd2da3391461030b576100b4565b806315f24053146100b95780632037f3e71461010f5780636e71e2d81461015b578063715018a6146101b15780638726bb89146101bb5780638da5cb5b146101d9575b600080fd5b6100f9600480360360608110156100cf57600080fd5b81019080803590602001909291908035906020019092919080359060200190929190505050610329565b6040518082815260200191505060405180910390f35b6101596004803603608081101561012557600080fd5b810190808035906020019092919080359060200190929190803590602001909291908035906020019092919050505061033f565b005b61019b6004803603606081101561017157600080fd5b81019080803590602001909291908035906020019092919080359060200190929190505050610351565b6040518082815260200191505060405180910390f35b6101b96103bf565b005b6101c361054a565b6040518082815260200191505060405180910390f35b6101e1610550565b604051808273ffffffffffffffffffffffffffffffffffffffff16815260200191505060405180910390f35b61021561057a565b6040518082815260200191505060405180910390f35b6102756004803603608081101561024157600080fd5b8101908080359060200190929190803590602001909291908035906020019092919080359060200190929190505050610581565b6040518082815260200191505060405180910390f35b610293610599565b6040518082815260200191505060405180910390f35b6102b161059f565b6040518082815260200191505060405180910390f35b610309600480360360208110156102dd57600080fd5b81019080803573ffffffffffffffffffffffffffffffffffffffff1690602001909291905050506105a5565b005b6103136107b5565b6040518082815260200191505060405180910390f35b60006103368484846107bb565b90509392505050565b61034b848484846108cf565b50505050565b60008083141561036457600090506103b8565b6103b561038c8361037e8688610a7d90919063ffffffff16565b610b0590919063ffffffff16565b6103a7670de0b6b3a764000086610b4f90919063ffffffff16565b610bd590919063ffffffff16565b90505b9392505050565b6103c7610c1f565b73ffffffffffffffffffffffffffffffffffffffff16606560009054906101000a900473ffffffffffffffffffffffffffffffffffffffff1673ffffffffffffffffffffffffffffffffffffffff1614610489576040517f08c379a00000000000000000000000000000000000000000000000000000000081526004018080602001828103825260208152602001807f4f776e61626c653a2063616c6c6572206973206e6f7420746865206f776e657281525060200191505060405180910390fd5b600073ffffffffffffffffffffffffffffffffffffffff16606560009054906101000a900473ffffffffffffffffffffffffffffffffffffffff1673ffffffffffffffffffffffffffffffffffffffff167f8be0079c531659141344cd1fd0a4f28419497f9722a3daafe3b4186f6b6457e060405160405180910390a36000606560006101000a81548173ffffffffffffffffffffffffffffffffffffffff021916908373ffffffffffffffffffffffffffffffffffffffff160217905550565b60975481565b6000606560009054906101000a900473ffffffffffffffffffffffffffffffffffffffff16905090565b6220148081565b600061058f85858585610c27565b9050949350505050565b60995481565b60985481565b6105ad610c1f565b73ffffffffffffffffffffffffffffffffffffffff16606560009054906101000a900473ffffffffffffffffffffffffffffffffffffffff1673ffffffffffffffffffffffffffffffffffffffff161461066f576040517f08c379a00000000000000000000000000000000000000000000000000000000081526004018080602001828103825260208152602001807f4f776e61626c653a2063616c6c6572206973206e6f7420746865206f776e657281525060200191505060405180910390fd5b600073ffffffffffffffffffffffffffffffffffffffff168173ffffffffffffffffffffffffffffffffffffffff1614156106f5576040517f08c379a0000000000000000000000000000000000000000000000000000000008152600401808060200182810382526026815260200180610e526026913960400191505060405180910390fd5b8073ffffffffffffffffffffffffffffffffffffffff16606560009054906101000a900473ffffffffffffffffffffffffffffffffffffffff1673ffffffffffffffffffffffffffffffffffffffff167f8be0079c531659141344cd1fd0a4f28419497f9722a3daafe3b4186f6b6457e060405160405180910390a380606560006101000a81548173ffffffffffffffffffffffffffffffffffffffff021916908373ffffffffffffffffffffffffffffffffffffffff16021790555050565b609a5481565b6000806107c9858585610351565b9050609a54811161081f57610817609854610809670de0b6b3a76400006107fb60975486610b4f90919063ffffffff16565b610bd590919063ffffffff16565b610a7d90919063ffffffff16565b9150506108c8565b6000610866609854610858670de0b6b3a764000061084a609754609a54610b4f90919063ffffffff16565b610bd590919063ffffffff16565b610a7d90919063ffffffff16565b9050600061087f609a5484610b0590919063ffffffff16565b90506108c2826108b4670de0b6b3a76400006108a660995486610b4f90919063ffffffff16565b610bd590919063ffffffff16565b610a7d90919063ffffffff16565b93505050505b9392505050565b6108d7610c1f565b73ffffffffffffffffffffffffffffffffffffffff16606560009054906101000a900473ffffffffffffffffffffffffffffffffffffffff1673ffffffffffffffffffffffffffffffffffffffff1614610999576040517f08c379a00000000000000000000000000000000000000000000000000000000081526004018080602001828103825260208152602001807f4f776e61626c653a2063616c6c6572206973206e6f7420746865206f776e657281525060200191505060405180910390fd5b6109af6220148085610bd590919063ffffffff16565b6098819055506109f76109ce8262201480610b4f90919063ffffffff16565b6109e9670de0b6b3a764000086610b4f90919063ffffffff16565b610bd590919063ffffffff16565b609781905550610a136220148083610bd590919063ffffffff16565b60998190555080609a819055507f6960ab234c7ef4b0c9197100f5393cfcde7c453ac910a27bd2000aa1dd4c068d609854609754609954609a546040518085815260200184815260200183815260200182815260200194505050505060405180910390a150505050565b600080828401905083811015610afb576040517f08c379a000000000000000000000000000000000000000000000000000000000815260040180806020018281038252601b8152602001807f536166654d6174683a206164646974696f6e206f766572666c6f77000000000081525060200191505060405180910390fd5b8091505092915050565b6000610b4783836040518060400160405280601e81526020017f536166654d6174683a207375627472616374696f6e206f766572666c6f770000815250610ccb565b905092915050565b600080831415610b625760009050610bcf565b6000828402905082848281610b7357fe5b0414610bca576040517f08c379a0000000000000000000000000000000000000000000000000000000008152600401808060200182810382526021815260200180610e786021913960400191505060405180910390fd5b809150505b92915050565b6000610c1783836040518060400160405280601a81526020017f536166654d6174683a206469766973696f6e206279207a65726f000000000000815250610d8b565b905092915050565b600033905090565b600080610c4583670de0b6b3a7640000610b0590919063ffffffff16565b90506000610c548787876107bb565b90506000610c85670de0b6b3a7640000610c778585610b4f90919063ffffffff16565b610bd590919063ffffffff16565b9050610cbe670de0b6b3a7640000610cb083610ca28c8c8c610351565b610b4f90919063ffffffff16565b610bd590919063ffffffff16565b9350505050949350505050565b6000838311158290610d78576040517f08c379a00000000000000000000000000000000000000000000000000000000081526004018080602001828103825283818151815260200191508051906020019080838360005b83811015610d3d578082015181840152602081019050610d22565b50505050905090810190601f168015610d6a5780820380516001836020036101000a031916815260200191505b509250505060405180910390fd5b5060008385039050809150509392505050565b60008083118290610e37576040517f08c379a00000000000000000000000000000000000000000000000000000000081526004018080602001828103825283818151815260200191508051906020019080838360005b83811015610dfc578082015181840152602081019050610de1565b50505050905090810190601f168015610e295780820380516001836020036101000a031916815260200191505b509250505060405180910390fd5b506000838581610e4357fe5b04905080915050939250505056fe4f776e61626c653a206e6577206f776e657220697320746865207a65726f2061646472657373536166654d6174683a206d756c7469706c69636174696f6e206f766572666c6f77a2646970667358221220625ec188542ae1356683ddf802b341fd62827c54281dab0dd87b8a18d099152e64736f6c634300060c0033",
  "compiler": {
    "name": "solc",
    "version": "0.6.12+commit.27d51765.Emscripten.clang",
    "optimizer": {
      "enabled": false,
      "runs": 200
    },
    "evmVersion": "istanbul"
  }
}