{
  "fileName": "CErc20Migrator.sol",
  "contractName": "CErc20Migrator",
  "source": "// SPDX-License-Identifier: MIT\npragma solidity 0.6.12;\n\nimport \"@openzeppelin/contracts/token/ERC20/IERC20.sol\";\nimport \"@openzeppelin/contracts/token/ERC20/SafeERC20.sol\";\nimport \"./CTokenInterface.sol\";\nimport \"../../token/PERC20.sol\";\nimport \"./ComptrollerInterface.sol\";\n\n//第一次进行cERC20迁移\ncontract CErc20Migrator {\n\n    using SafeERC20 for IERC20;\n\n    address public breeder;\n    uint256 public notBeforeBlock;\n    address public targetToken;\n    ComptrollerInterface comptroller;\n\n\n    constructor(address _breeder, uint256 _notBeforeBlock, address _targetToken, address _comptroller) public {\n        breeder = _breeder;\n        notBeforeBlock = _notBeforeBlock;\n        targetToken = _targetToken;\n\n        comptroller = ComptrollerInterface(_comptroller);\n    }\n\n    function replaceMigrate(CTokenInterface oldLpToken) external returns (PERC20, uint){\n\n        require(msg.sender == breeder, \"not from breeder\");\n        require(block.number >= notBeforeBlock, \"too early to migrate\");\n\n        PERC20 newLpToken = PERC20(targetToken);\n        require(oldLpToken.underlying() == newLpToken.underlying(), \"not match\");\n\n        address sender = msg.sender;\n        uint256 lp = oldLpToken.balanceOf(sender);\n\n        if (lp == 0) {\n            return (newLpToken, 0);\n        }\n\n        address[] memory cTokens = new address[](1);\n        cTokens[0] = address(oldLpToken);\n        comptroller.enterMarkets(cTokens);\n\n        // 从cToken中赎回相应的代币\n        oldLpToken.transferFrom(sender, address(this), lp);\n        oldLpToken.redeem(lp);\n\n        //获得赎回了多少代币\n        uint redeemBal = 0;\n        address underlying = oldLpToken.underlying();\n\n        IERC20 token = IERC20(underlying);\n        redeemBal = token.balanceOf(address(this));\n\n        // 将赎回的代币，抵押到wePiggy中，生成pToken\n        token.safeApprove(address(newLpToken), redeemBal);\n        newLpToken.mintForMigrate(redeemBal, lp);\n\n        // 获得抵押生成的pToken有多少\n        uint mintBal = newLpToken.balanceOf(address(this));\n\n        //将余额转到挖矿合约\n        newLpToken.transferFrom(address(this), sender, mintBal);\n\n        //返回占比\n        return (newLpToken, mintBal);\n    }\n\n    function migrate(CTokenInterface oldLpToken) external returns (PERC20, uint){\n\n        require(msg.sender == breeder, \"not from breeder\");\n        require(block.number >= notBeforeBlock, \"too early to migrate\");\n\n        PERC20 newLpToken = PERC20(targetToken);\n        require(oldLpToken.underlying() == newLpToken.underlying(), \"not match\");\n\n        address sender = msg.sender;\n        uint256 lp = oldLpToken.balanceOf(sender);\n\n        if (lp == 0) {\n            return (newLpToken, 0);\n        }\n\n        address[] memory cTokens = new address[](1);\n        cTokens[0] = address(oldLpToken);\n        comptroller.enterMarkets(cTokens);\n\n        // 从cToken中赎回相应的代币\n        oldLpToken.transferFrom(sender, address(this), lp);\n        oldLpToken.redeem(lp);\n\n        //获得赎回了多少代币\n        uint redeemBal = 0;\n        address underlying = oldLpToken.underlying();\n\n        IERC20 token = IERC20(underlying);\n        redeemBal = token.balanceOf(address(this));\n\n        // 将赎回的代币，抵押到wePiggy中，生成pToken\n        token.approve(address(newLpToken), redeemBal);\n        newLpToken.mint(redeemBal);\n\n        // 获得抵押生成的pToken有多少\n        uint mintBal = newLpToken.balanceOf(address(this));\n\n        //将余额转到挖矿合约\n        newLpToken.transferFrom(address(this), sender, mintBal);\n\n        //返回占比\n        return (newLpToken, mintBal);\n    }\n}\n\n\n\n",
  "sourcePath": "contracts/farm/migrator/CErc20Migrator.sol",
  "abi": [
    {
      "inputs": [
        {
          "internalType": "address",
          "name": "_breeder",
          "type": "address"
        },
        {
          "internalType": "uint256",
          "name": "_notBeforeBlock",
          "type": "uint256"
        },
        {
          "internalType": "address",
          "name": "_targetToken",
          "type": "address"
        },
        {
          "internalType": "address",
          "name": "_comptroller",
          "type": "address"
        }
      ],
      "stateMutability": "nonpayable",
      "type": "constructor"
    },
    {
      "inputs": [],
      "name": "breeder",
      "outputs": [
        {
          "internalType": "address",
          "name": "",
          "type": "address"
        }
      ],
      "stateMutability": "view",
      "type": "function"
    },
    {
      "inputs": [
        {
          "internalType": "contract CTokenInterface",
          "name": "oldLpToken",
          "type": "address"
        }
      ],
      "name": "migrate",
      "outputs": [
        {
          "internalType": "contract PERC20",
          "name": "",
          "type": "address"
        },
        {
          "internalType": "uint256",
          "name": "",
          "type": "uint256"
        }
      ],
      "stateMutability": "nonpayable",
      "type": "function"
    },
    {
      "inputs": [],
      "name": "notBeforeBlock",
      "outputs": [
        {
          "internalType": "uint256",
          "name": "",
          "type": "uint256"
        }
      ],
      "stateMutability": "view",
      "type": "function"
    },
    {
      "inputs": [
        {
          "internalType": "contract CTokenInterface",
          "name": "oldLpToken",
          "type": "address"
        }
      ],
      "name": "replaceMigrate",
      "outputs": [
        {
          "internalType": "contract PERC20",
          "name": "",
          "type": "address"
        },
        {
          "internalType": "uint256",
          "name": "",
          "type": "uint256"
        }
      ],
      "stateMutability": "nonpayable",
      "type": "function"
    },
    {
      "inputs": [],
      "name": "targetToken",
      "outputs": [
        {
          "internalType": "address",
          "name": "",
          "type": "address"
        }
      ],
      "stateMutability": "view",
      "type": "function"
    }
  ],
  "bytecode": "0x608060405234801561001057600080fd5b50604051611f52380380611f528339818101604052608081101561003357600080fd5b8101908080519060200190929190805190602001909291908051906020019092919080519060200190929190505050836000806101000a81548173ffffffffffffffffffffffffffffffffffffffff021916908373ffffffffffffffffffffffffffffffffffffffff1602179055508260018190555081600260006101000a81548173ffffffffffffffffffffffffffffffffffffffff021916908373ffffffffffffffffffffffffffffffffffffffff16021790555080600360006101000a81548173ffffffffffffffffffffffffffffffffffffffff021916908373ffffffffffffffffffffffffffffffffffffffff16021790555050505050611e148061013e6000396000f3fe608060405234801561001057600080fd5b50600436106100575760003560e01c8063052931371461005c578063327107f71461007a5780636336cc61146100ae578063ae9dfc4d14610123578063ce5494bb14610157575b600080fd5b6100646101cc565b6040518082815260200191505060405180910390f35b6100826101d2565b604051808273ffffffffffffffffffffffffffffffffffffffff16815260200191505060405180910390f35b6100f0600480360360208110156100c457600080fd5b81019080803573ffffffffffffffffffffffffffffffffffffffff1690602001909291905050506101f8565b604051808373ffffffffffffffffffffffffffffffffffffffff1681526020018281526020019250505060405180910390f35b61012b610caf565b604051808273ffffffffffffffffffffffffffffffffffffffff16815260200191505060405180910390f35b6101996004803603602081101561016d57600080fd5b81019080803573ffffffffffffffffffffffffffffffffffffffff169060200190929190505050610cd3565b604051808373ffffffffffffffffffffffffffffffffffffffff1681526020018281526020019250505060405180910390f35b60015481565b600260009054906101000a900473ffffffffffffffffffffffffffffffffffffffff1681565b60008060008054906101000a900473ffffffffffffffffffffffffffffffffffffffff1673ffffffffffffffffffffffffffffffffffffffff163373ffffffffffffffffffffffffffffffffffffffff16146102bc576040517f08c379a00000000000000000000000000000000000000000000000000000000081526004018080602001828103825260108152602001807f6e6f742066726f6d20627265656465720000000000000000000000000000000081525060200191505060405180910390fd5b600154431015610334576040517f08c379a00000000000000000000000000000000000000000000000000000000081526004018080602001828103825260148152602001807f746f6f206561726c7920746f206d69677261746500000000000000000000000081525060200191505060405180910390fd5b6000600260009054906101000a900473ffffffffffffffffffffffffffffffffffffffff1690508073ffffffffffffffffffffffffffffffffffffffff16636f307dc36040518163ffffffff1660e01b815260040160206040518083038186803b1580156103a157600080fd5b505afa1580156103b5573d6000803e3d6000fd5b505050506040513d60208110156103cb57600080fd5b810190808051906020019092919050505073ffffffffffffffffffffffffffffffffffffffff168473ffffffffffffffffffffffffffffffffffffffff16636f307dc36040518163ffffffff1660e01b815260040160206040518083038186803b15801561043857600080fd5b505afa15801561044c573d6000803e3d6000fd5b505050506040513d602081101561046257600080fd5b810190808051906020019092919050505073ffffffffffffffffffffffffffffffffffffffff16146104fc576040517f08c379a00000000000000000000000000000000000000000000000000000000081526004018080602001828103825260098152602001807f6e6f74206d61746368000000000000000000000000000000000000000000000081525060200191505060405180910390fd5b600033905060008573ffffffffffffffffffffffffffffffffffffffff166370a08231836040518263ffffffff1660e01b8152600401808273ffffffffffffffffffffffffffffffffffffffff16815260200191505060206040518083038186803b15801561056a57600080fd5b505afa15801561057e573d6000803e3d6000fd5b505050506040513d602081101561059457600080fd5b8101908080519060200190929190505050905060008114156105bf5782600094509450505050610caa565b6060600167ffffffffffffffff811180156105d957600080fd5b506040519080825280602002602001820160405280156106085781602001602082028036833780820191505090505b509050868160008151811061061957fe5b602002602001019073ffffffffffffffffffffffffffffffffffffffff16908173ffffffffffffffffffffffffffffffffffffffff1681525050600360009054906101000a900473ffffffffffffffffffffffffffffffffffffffff1673ffffffffffffffffffffffffffffffffffffffff1663c2998238826040518263ffffffff1660e01b81526004018080602001828103825283818151815260200191508051906020019060200280838360005b838110156106e45780820151818401526020810190506106c9565b5050505090500192505050600060405180830381600087803b15801561070957600080fd5b505af115801561071d573d6000803e3d6000fd5b505050506040513d6000823e3d601f19601f82011682018060405250602081101561074757600080fd5b810190808051604051939291908464010000000082111561076757600080fd5b8382019150602082018581111561077d57600080fd5b825186602082028301116401000000008211171561079a57600080fd5b8083526020830192505050908051906020019060200280838360005b838110156107d15780820151818401526020810190506107b6565b50505050905001604052505050508673ffffffffffffffffffffffffffffffffffffffff166323b872dd8430856040518463ffffffff1660e01b8152600401808473ffffffffffffffffffffffffffffffffffffffff1681526020018373ffffffffffffffffffffffffffffffffffffffff1681526020018281526020019350505050602060405180830381600087803b15801561086e57600080fd5b505af1158015610882573d6000803e3d6000fd5b505050506040513d602081101561089857600080fd5b8101908080519060200190929190505050508673ffffffffffffffffffffffffffffffffffffffff1663db006a75836040518263ffffffff1660e01b815260040180828152602001915050602060405180830381600087803b1580156108fd57600080fd5b505af1158015610911573d6000803e3d6000fd5b505050506040513d602081101561092757600080fd5b8101908080519060200190929190505050506000808873ffffffffffffffffffffffffffffffffffffffff16636f307dc36040518163ffffffff1660e01b815260040160206040518083038186803b15801561098257600080fd5b505afa158015610996573d6000803e3d6000fd5b505050506040513d60208110156109ac57600080fd5b8101908080519060200190929190505050905060008190508073ffffffffffffffffffffffffffffffffffffffff166370a08231306040518263ffffffff1660e01b8152600401808273ffffffffffffffffffffffffffffffffffffffff16815260200191505060206040518083038186803b158015610a2b57600080fd5b505afa158015610a3f573d6000803e3d6000fd5b505050506040513d6020811015610a5557600080fd5b81019080805190602001909291905050509250610a9387848373ffffffffffffffffffffffffffffffffffffffff166118049092919063ffffffff16565b8673ffffffffffffffffffffffffffffffffffffffff1663791d891584876040518363ffffffff1660e01b81526004018083815260200182815260200192505050602060405180830381600087803b158015610aee57600080fd5b505af1158015610b02573d6000803e3d6000fd5b505050506040513d6020811015610b1857600080fd5b81019080805190602001909291905050505060008773ffffffffffffffffffffffffffffffffffffffff166370a08231306040518263ffffffff1660e01b8152600401808273ffffffffffffffffffffffffffffffffffffffff16815260200191505060206040518083038186803b158015610b9357600080fd5b505afa158015610ba7573d6000803e3d6000fd5b505050506040513d6020811015610bbd57600080fd5b810190808051906020019092919050505090508773ffffffffffffffffffffffffffffffffffffffff166323b872dd3089846040518463ffffffff1660e01b8152600401808473ffffffffffffffffffffffffffffffffffffffff1681526020018373ffffffffffffffffffffffffffffffffffffffff1681526020018281526020019350505050602060405180830381600087803b158015610c5f57600080fd5b505af1158015610c73573d6000803e3d6000fd5b505050506040513d6020811015610c8957600080fd5b81019080805190602001909291905050505087819950995050505050505050505b915091565b60008054906101000a900473ffffffffffffffffffffffffffffffffffffffff1681565b60008060008054906101000a900473ffffffffffffffffffffffffffffffffffffffff1673ffffffffffffffffffffffffffffffffffffffff163373ffffffffffffffffffffffffffffffffffffffff1614610d97576040517f08c379a00000000000000000000000000000000000000000000000000000000081526004018080602001828103825260108152602001807f6e6f742066726f6d20627265656465720000000000000000000000000000000081525060200191505060405180910390fd5b600154431015610e0f576040517f08c379a00000000000000000000000000000000000000000000000000000000081526004018080602001828103825260148152602001807f746f6f206561726c7920746f206d69677261746500000000000000000000000081525060200191505060405180910390fd5b6000600260009054906101000a900473ffffffffffffffffffffffffffffffffffffffff1690508073ffffffffffffffffffffffffffffffffffffffff16636f307dc36040518163ffffffff1660e01b815260040160206040518083038186803b158015610e7c57600080fd5b505afa158015610e90573d6000803e3d6000fd5b505050506040513d6020811015610ea657600080fd5b810190808051906020019092919050505073ffffffffffffffffffffffffffffffffffffffff168473ffffffffffffffffffffffffffffffffffffffff16636f307dc36040518163ffffffff1660e01b815260040160206040518083038186803b158015610f1357600080fd5b505afa158015610f27573d6000803e3d6000fd5b505050506040513d6020811015610f3d57600080fd5b810190808051906020019092919050505073ffffffffffffffffffffffffffffffffffffffff1614610fd7576040517f08c379a00000000000000000000000000000000000000000000000000000000081526004018080602001828103825260098152602001807f6e6f74206d61746368000000000000000000000000000000000000000000000081525060200191505060405180910390fd5b600033905060008573ffffffffffffffffffffffffffffffffffffffff166370a08231836040518263ffffffff1660e01b8152600401808273ffffffffffffffffffffffffffffffffffffffff16815260200191505060206040518083038186803b15801561104557600080fd5b505afa158015611059573d6000803e3d6000fd5b505050506040513d602081101561106f57600080fd5b81019080805190602001909291905050509050600081141561109a57826000945094505050506117ff565b6060600167ffffffffffffffff811180156110b457600080fd5b506040519080825280602002602001820160405280156110e35781602001602082028036833780820191505090505b50905086816000815181106110f457fe5b602002602001019073ffffffffffffffffffffffffffffffffffffffff16908173ffffffffffffffffffffffffffffffffffffffff1681525050600360009054906101000a900473ffffffffffffffffffffffffffffffffffffffff1673ffffffffffffffffffffffffffffffffffffffff1663c2998238826040518263ffffffff1660e01b81526004018080602001828103825283818151815260200191508051906020019060200280838360005b838110156111bf5780820151818401526020810190506111a4565b5050505090500192505050600060405180830381600087803b1580156111e457600080fd5b505af11580156111f8573d6000803e3d6000fd5b505050506040513d6000823e3d601f19601f82011682018060405250602081101561122257600080fd5b810190808051604051939291908464010000000082111561124257600080fd5b8382019150602082018581111561125857600080fd5b825186602082028301116401000000008211171561127557600080fd5b8083526020830192505050908051906020019060200280838360005b838110156112ac578082015181840152602081019050611291565b50505050905001604052505050508673ffffffffffffffffffffffffffffffffffffffff166323b872dd8430856040518463ffffffff1660e01b8152600401808473ffffffffffffffffffffffffffffffffffffffff1681526020018373ffffffffffffffffffffffffffffffffffffffff1681526020018281526020019350505050602060405180830381600087803b15801561134957600080fd5b505af115801561135d573d6000803e3d6000fd5b505050506040513d602081101561137357600080fd5b8101908080519060200190929190505050508673ffffffffffffffffffffffffffffffffffffffff1663db006a75836040518263ffffffff1660e01b815260040180828152602001915050602060405180830381600087803b1580156113d857600080fd5b505af11580156113ec573d6000803e3d6000fd5b505050506040513d602081101561140257600080fd5b8101908080519060200190929190505050506000808873ffffffffffffffffffffffffffffffffffffffff16636f307dc36040518163ffffffff1660e01b815260040160206040518083038186803b15801561145d57600080fd5b505afa158015611471573d6000803e3d6000fd5b505050506040513d602081101561148757600080fd5b8101908080519060200190929190505050905060008190508073ffffffffffffffffffffffffffffffffffffffff166370a08231306040518263ffffffff1660e01b8152600401808273ffffffffffffffffffffffffffffffffffffffff16815260200191505060206040518083038186803b15801561150657600080fd5b505afa15801561151a573d6000803e3d6000fd5b505050506040513d602081101561153057600080fd5b810190808051906020019092919050505092508073ffffffffffffffffffffffffffffffffffffffff1663095ea7b388856040518363ffffffff1660e01b8152600401808373ffffffffffffffffffffffffffffffffffffffff16815260200182815260200192505050602060405180830381600087803b1580156115b457600080fd5b505af11580156115c8573d6000803e3d6000fd5b505050506040513d60208110156115de57600080fd5b8101908080519060200190929190505050508673ffffffffffffffffffffffffffffffffffffffff1663a0712d68846040518263ffffffff1660e01b815260040180828152602001915050602060405180830381600087803b15801561164357600080fd5b505af1158015611657573d6000803e3d6000fd5b505050506040513d602081101561166d57600080fd5b81019080805190602001909291905050505060008773ffffffffffffffffffffffffffffffffffffffff166370a08231306040518263ffffffff1660e01b8152600401808273ffffffffffffffffffffffffffffffffffffffff16815260200191505060206040518083038186803b1580156116e857600080fd5b505afa1580156116fc573d6000803e3d6000fd5b505050506040513d602081101561171257600080fd5b810190808051906020019092919050505090508773ffffffffffffffffffffffffffffffffffffffff166323b872dd3089846040518463ffffffff1660e01b8152600401808473ffffffffffffffffffffffffffffffffffffffff1681526020018373ffffffffffffffffffffffffffffffffffffffff1681526020018281526020019350505050602060405180830381600087803b1580156117b457600080fd5b505af11580156117c8573d6000803e3d6000fd5b505050506040513d60208110156117de57600080fd5b81019080805190602001909291905050505087819950995050505050505050505b915091565b60008114806118d2575060008373ffffffffffffffffffffffffffffffffffffffff1663dd62ed3e30856040518363ffffffff1660e01b8152600401808373ffffffffffffffffffffffffffffffffffffffff1681526020018273ffffffffffffffffffffffffffffffffffffffff1681526020019250505060206040518083038186803b15801561189557600080fd5b505afa1580156118a9573d6000803e3d6000fd5b505050506040513d60208110156118bf57600080fd5b8101908080519060200190929190505050145b611927576040517f08c379a0000000000000000000000000000000000000000000000000000000008152600401808060200182810382526036815260200180611da96036913960400191505060405180910390fd5b6119c48363095ea7b360e01b8484604051602401808373ffffffffffffffffffffffffffffffffffffffff16815260200182815260200192505050604051602081830303815290604052907bffffffffffffffffffffffffffffffffffffffffffffffffffffffff19166020820180517bffffffffffffffffffffffffffffffffffffffffffffffffffffffff83818316178352505050506119c9565b505050565b6060611a2b826040518060400160405280602081526020017f5361666545524332303a206c6f772d6c6576656c2063616c6c206661696c65648152508573ffffffffffffffffffffffffffffffffffffffff16611ab89092919063ffffffff16565b9050600081511115611ab357808060200190516020811015611a4c57600080fd5b8101908080519060200190929190505050611ab2576040517f08c379a000000000000000000000000000000000000000000000000000000000815260040180806020018281038252602a815260200180611d7f602a913960400191505060405180910390fd5b5b505050565b6060611ac78484600085611ad0565b90509392505050565b606082471015611b2b576040517f08c379a0000000000000000000000000000000000000000000000000000000008152600401808060200182810382526026815260200180611d596026913960400191505060405180910390fd5b611b3485611c79565b611ba6576040517f08c379a000000000000000000000000000000000000000000000000000000000815260040180806020018281038252601d8152602001807f416464726573733a2063616c6c20746f206e6f6e2d636f6e747261637400000081525060200191505060405180910390fd5b600060608673ffffffffffffffffffffffffffffffffffffffff1685876040518082805190602001908083835b60208310611bf65780518252602082019150602081019050602083039250611bd3565b6001836020036101000a03801982511681845116808217855250505050505090500191505060006040518083038185875af1925050503d8060008114611c58576040519150601f19603f3d011682016040523d82523d6000602084013e611c5d565b606091505b5091509150611c6d828286611c8c565b92505050949350505050565b600080823b905060008111915050919050565b60608315611c9c57829050611d51565b600083511115611caf5782518084602001fd5b816040517f08c379a00000000000000000000000000000000000000000000000000000000081526004018080602001828103825283818151815260200191508051906020019080838360005b83811015611d16578082015181840152602081019050611cfb565b50505050905090810190601f168015611d435780820380516001836020036101000a031916815260200191505b509250505060405180910390fd5b939250505056fe416464726573733a20696e73756666696369656e742062616c616e636520666f722063616c6c5361666545524332303a204552433230206f7065726174696f6e20646964206e6f7420737563636565645361666545524332303a20617070726f76652066726f6d206e6f6e2d7a65726f20746f206e6f6e2d7a65726f20616c6c6f77616e6365a264697066735822122089f965015fb90e7b1b6b2a17e9ae634ee0b97a645c189f23a1875d61d122d59064736f6c634300060c0033",
  "compiler": {
    "name": "solc",
    "version": "0.6.12+commit.27d51765.Emscripten.clang",
    "optimizer": {
      "enabled": false,
      "runs": 200
    },
    "evmVersion": "istanbul"
  }
}