{
  "fileName": "Comptroller.sol",
  "contractName": "Comptroller",
  "source": "// COPIED FROM https://github.com/compound-finance/compound-protocol/blob/master/contracts/Comptroller.sol\n//Copyright 2020 Compound Labs, Inc.\n//Redistribution and use in source and binary forms, with or without modification, are permitted provided that the following conditions are met:\n//1. Redistributions of source code must retain the above copyright notice, this list of conditions and the following disclaimer.\n//2. Redistributions in binary form must reproduce the above copyright notice, this list of conditions and the following disclaimer in the documentation and/or other materials provided with the distribution.\n//3. Neither the name of the copyright holder nor the names of its contributors may be used to endorse or promote products derived from this software without specific prior written permission.\n//THIS SOFTWARE IS PROVIDED BY THE COPYRIGHT HOLDERS AND CONTRIBUTORS \"AS IS\" AND ANY EXPRESS OR IMPLIED WARRANTIES, INCLUDING, BUT NOT LIMITED TO, THE IMPLIED WARRANTIES OF MERCHANTABILITY AND FITNESS FOR A PARTICULAR PURPOSE ARE DISCLAIMED. IN NO EVENT SHALL THE COPYRIGHT HOLDER OR CONTRIBUTORS BE LIABLE FOR ANY DIRECT, INDIRECT, INCIDENTAL, SPECIAL, EXEMPLARY, OR CONSEQUENTIAL DAMAGES (INCLUDING, BUT NOT LIMITED TO, PROCUREMENT OF SUBSTITUTE GOODS OR SERVICES; LOSS OF USE, DATA, OR PROFITS; OR BUSINESS INTERRUPTION) HOWEVER CAUSED AND ON ANY THEORY OF LIABILITY, WHETHER IN CONTRACT, STRICT LIABILITY, OR TORT (INCLUDING NEGLIGENCE OR OTHERWISE) ARISING IN ANY WAY OUT OF THE USE OF THIS SOFTWARE, EVEN IF ADVISED OF THE POSSIBILITY OF SUCH DAMAGE.\n\n// SPDX-License-Identifier: MIT\npragma solidity 0.6.12;\n\nimport \"./ComptrollerStorage.sol\";\nimport \"./IComptroller.sol\";\nimport \"../libs/ErrorReporter.sol\";\nimport \"../libs/Exponential.sol\";\nimport \"../token/PToken.sol\";\nimport \"@openzeppelin/contracts-ethereum-package/contracts/access/Ownable.sol\";\nimport \"../farm/PiggyDistribution.sol\";\n\n//PIGGY-MODIFY: Modified some methods and fields according to WePiggy's business logic\ncontract Comptroller is ComptrollerStorage, IComptroller, ComptrollerErrorReporter, Exponential, OwnableUpgradeSafe {\n\n    // @notice Emitted when an admin supports a market\n    event MarketListed(PToken pToken);\n\n    // @notice Emitted when an account enters a market\n    event MarketEntered(PToken pToken, address account);\n\n    // @notice Emitted when an account exits a market\n    event MarketExited(PToken pToken, address account);\n\n    // @notice Emitted when close factor is changed by admin\n    event NewCloseFactor(uint oldCloseFactorMantissa, uint newCloseFactorMantissa);\n\n    // @notice Emitted when a collateral factor is changed by admin\n    event NewCollateralFactor(PToken pToken, uint oldCollateralFactorMantissa, uint newCollateralFactorMantissa);\n\n    // @notice Emitted when liquidation incentive is changed by admin\n    event NewLiquidationIncentive(uint oldLiquidationIncentiveMantissa, uint newLiquidationIncentiveMantissa);\n\n    // @notice Emitted when maxAssets is changed by admin\n    event NewMaxAssets(uint oldMaxAssets, uint newMaxAssets);\n\n    // @notice Emitted when price oracle is changed\n    event NewPriceOracle(IPriceOracle oldPriceOracle, IPriceOracle newPriceOracle);\n\n    // @notice Emitted when pause guardian is changed\n    event NewPauseGuardian(address oldPauseGuardian, address newPauseGuardian);\n\n    // @notice Emitted when an action is paused globally\n    event ActionPaused(string action, bool pauseState);\n\n    // @notice Emitted when an action is paused on a market\n    event ActionPaused(PToken pToken, string action, bool pauseState);\n\n    /// @notice Emitted when borrow cap for a pToken is changed\n    event NewBorrowCap(PToken indexed pToken, uint newBorrowCap);\n\n    /// @notice Emitted when borrow cap guardian is changed\n    event NewBorrowCapGuardian(address oldBorrowCapGuardian, address newBorrowCapGuardian);\n\n    event NewPiggyDistribution(IPiggyDistribution oldPiggyDistribution, IPiggyDistribution newPiggyDistribution);\n\n    /// @notice Emitted when mint cap for a pToken is changed\n    event NewMintCap(PToken indexed pToken, uint newMintCap);\n\n    // closeFactorMantissa must be strictly greater than this value\n    uint internal constant closeFactorMinMantissa = 0.05e18;\n\n    // closeFactorMantissa must not exceed this value\n    uint internal constant closeFactorMaxMantissa = 0.9e18;\n\n    // No collateralFactorMantissa may exceed this value\n    uint internal constant collateralFactorMaxMantissa = 0.9e18;\n\n    // liquidationIncentiveMantissa must be no less than this value\n    uint internal constant liquidationIncentiveMinMantissa = 1.0e18;\n\n    // liquidationIncentiveMantissa must be no greater than this value\n    uint internal constant liquidationIncentiveMaxMantissa = 1.5e18;\n\n    // for distribute wpc\n    IPiggyDistribution piggyDistribution;\n\n    mapping(address => uint256) public mintCaps;\n\n    function initialize() public initializer {\n\n        //setting the msg.sender as the initial owner.\n        super.__Ownable_init();\n    }\n\n\n    /*** Assets You Are In ***/\n\n    function enterMarkets(address[] memory pTokens) public override(IComptroller) returns (uint[] memory)  {\n        uint len = pTokens.length;\n\n        uint[] memory results = new uint[](len);\n        for (uint i = 0; i < len; i++) {\n            PToken pToken = PToken(pTokens[i]);\n            results[i] = uint(addToMarketInternal(pToken, msg.sender));\n        }\n\n        return results;\n    }\n\n    /**\n     * @notice Add the market to the borrower's \"assets in\" for liquidity calculations\n     * @param pToken The market to enter\n     * @param borrower The address of the account to modify\n     * @return Success indicator for whether the market was entered\n     */\n    function addToMarketInternal(PToken pToken, address borrower) internal returns (Error) {\n        Market storage marketToJoin = markets[address(pToken)];\n\n        // market is not listed, cannot join\n        if (!marketToJoin.isListed) {\n            return Error.MARKET_NOT_LISTED;\n        }\n\n        // already joined\n        if (marketToJoin.accountMembership[borrower] == true) {\n            return Error.NO_ERROR;\n        }\n\n        // no space, cannot join\n        if (accountAssets[borrower].length >= maxAssets) {\n            return Error.TOO_MANY_ASSETS;\n        }\n\n        marketToJoin.accountMembership[borrower] = true;\n        accountAssets[borrower].push(pToken);\n\n        emit MarketEntered(pToken, borrower);\n\n        return Error.NO_ERROR;\n    }\n\n    function exitMarket(address pTokenAddress) external override(IComptroller) returns (uint) {\n        PToken pToken = PToken(pTokenAddress);\n\n        // Get sender tokensHeld and amountOwed underlying from the pToken\n        (uint oErr, uint tokensHeld, uint amountOwed,) = pToken.getAccountSnapshot(msg.sender);\n        require(oErr == 0, \"exitMarket: getAccountSnapshot failed\");\n\n        // Fail if the sender has a borrow balance\n        if (amountOwed != 0) {\n            return fail(Error.NONZERO_BORROW_BALANCE, FailureInfo.EXIT_MARKET_BALANCE_OWED);\n        }\n\n        // Fail if the sender is not permitted to redeem all of their tokens\n        uint allowed = redeemAllowedInternal(pTokenAddress, msg.sender, tokensHeld);\n        if (allowed != 0) {\n            return failOpaque(Error.REJECTION, FailureInfo.EXIT_MARKET_REJECTION, allowed);\n        }\n\n        Market storage marketToExit = markets[address(pToken)];\n\n        // Return true if the sender is not already ‘in’ the market\n        if (!marketToExit.accountMembership[msg.sender]) {\n            return uint(Error.NO_ERROR);\n        }\n\n        // Set pToken account membership to false\n        delete marketToExit.accountMembership[msg.sender];\n\n        // Delete pToken from the account’s list of assets\n        // load into memory for faster iteration\n        PToken[] memory userAssetList = accountAssets[msg.sender];\n        uint len = userAssetList.length;\n        uint assetIndex = len;\n        for (uint i = 0; i < len; i++) {\n            if (userAssetList[i] == pToken) {\n                assetIndex = i;\n                break;\n            }\n        }\n\n        // We *must* have found the asset in the list or our redundant data structure is broken\n        assert(assetIndex < len);\n\n        // copy last item in list to location of item to be removed, reduce length by 1\n        PToken[] storage storedList = accountAssets[msg.sender];\n        storedList[assetIndex] = storedList[storedList.length - 1];\n        storedList.pop();\n\n        emit MarketExited(pToken, msg.sender);\n\n        return uint(Error.NO_ERROR);\n    }\n\n\n    /**\n    * @notice Returns the assets an account has entered\n    * @param account The address of the account to pull assets for\n    * @return A dynamic list with the assets the account has entered\n    */\n    function getAssetsIn(address account) external view returns (PToken[] memory) {\n        PToken[] memory assetsIn = accountAssets[account];\n        return assetsIn;\n    }\n\n    /**\n     * @notice Returns whether the given account is entered in the given asset\n     * @param account The address of the account to check\n     * @param pToken The pToken to check\n     * @return True if the account is in the asset, otherwise false.\n     */\n    function checkMembership(address account, PToken pToken) external view returns (bool) {\n        return markets[address(pToken)].accountMembership[account];\n    }\n\n    /*** Policy Hooks ***/\n\n    function mintAllowed(address pToken, address minter, uint mintAmount) external override(IComptroller) returns (uint){\n\n        // Pausing is a very serious situation - we revert to sound the alarms\n        require(!pTokenMintGuardianPaused[pToken], \"mint is paused\");\n\n        //Shh - currently unused. It's written here to eliminate compile-time alarms.\n        minter;\n        mintAmount;\n\n        if (!markets[pToken].isListed) {\n            return uint(Error.MARKET_NOT_LISTED);\n        }\n\n        uint mintCap = mintCaps[pToken];\n        if (mintCap != 0) {\n            uint totalSupply = PToken(pToken).totalSupply();\n            uint exchangeRate = PToken(pToken).exchangeRateStored();\n            (MathError mErr, uint balance) = mulScalarTruncate(Exp({mantissa : exchangeRate}), totalSupply);\n            require(mErr == MathError.NO_ERROR, \"balance could not be calculated\");\n            (MathError mathErr, uint nextTotalMints) = addUInt(balance, mintAmount);\n            require(mathErr == MathError.NO_ERROR, \"total mint amount overflow\");\n            require(nextTotalMints < mintCap, \"market mint cap reached\");\n        }\n\n        if (distributeWpcPaused == false) {\n            piggyDistribution.distributeMintWpc(pToken, minter, false);\n        }\n\n        return uint(Error.NO_ERROR);\n    }\n\n    function mintVerify(address pToken, address minter, uint mintAmount, uint mintTokens) external override(IComptroller) {\n\n        //Shh - currently unused. It's written here to eliminate compile-time alarms.\n        pToken;\n        minter;\n        mintAmount;\n        mintTokens;\n\n    }\n\n    function redeemAllowed(address pToken, address redeemer, uint redeemTokens) external override(IComptroller) returns (uint){\n\n        uint allowed = redeemAllowedInternal(pToken, redeemer, redeemTokens);\n        if (allowed != uint(Error.NO_ERROR)) {\n            return allowed;\n        }\n\n        if (distributeWpcPaused == false) {\n            piggyDistribution.distributeRedeemWpc(pToken, redeemer, false);\n        }\n\n        return uint(Error.NO_ERROR);\n    }\n\n    /**\n    * PIGGY-MODIFY:\n    * @notice Checks if the account should be allowed to redeem tokens in the given market\n    * @param pToken The market to verify the redeem against\n    * @param redeemer The account which would redeem the tokens\n    * @param redeemTokens The number of pTokens to exchange for the underlying asset in the market\n    * @return 0 if the redeem is allowed, otherwise a semi-opaque error code (See ErrorReporter.sol)\n    */\n    function redeemAllowedInternal(address pToken, address redeemer, uint redeemTokens) internal view returns (uint) {\n        if (!markets[pToken].isListed) {\n            return uint(Error.MARKET_NOT_LISTED);\n        }\n\n        /* If the redeemer is not 'in' the market, then we can bypass the liquidity check */\n        if (!markets[pToken].accountMembership[redeemer]) {\n            return uint(Error.NO_ERROR);\n        }\n\n        /* Otherwise, perform a hypothetical liquidity check to guard against shortfall */\n        (Error err, , uint shortfall) = getHypotheticalAccountLiquidityInternal(redeemer, PToken(pToken), redeemTokens, 0);\n        if (err != Error.NO_ERROR) {\n            return uint(err);\n        }\n        if (shortfall > 0) {\n            return uint(Error.INSUFFICIENT_LIQUIDITY);\n        }\n\n        return uint(Error.NO_ERROR);\n    }\n\n    function redeemVerify(address pToken, address redeemer, uint redeemAmount, uint redeemTokens) external override(IComptroller) {\n        //Shh - currently unused. It's written here to eliminate compile-time alarms.\n        pToken;\n        redeemer;\n        redeemAmount;\n        redeemTokens;\n    }\n\n    function borrowAllowed(address pToken, address borrower, uint borrowAmount) external override(IComptroller) returns (uint) {\n\n        // Pausing is a very serious situation - we revert to sound the alarms\n        require(!pTokenBorrowGuardianPaused[pToken], \"borrow is paused\");\n\n        if (!markets[pToken].isListed) {\n            return uint(Error.MARKET_NOT_LISTED);\n        }\n\n        if (!markets[pToken].accountMembership[borrower]) {\n\n            // only pTokens may call borrowAllowed if borrower not in market\n            require(msg.sender == pToken, \"sender must be pToken\");\n\n            // attempt to add borrower to the market\n            Error err = addToMarketInternal(PToken(msg.sender), borrower);\n            if (err != Error.NO_ERROR) {\n                return uint(err);\n            }\n\n            // it should be impossible to break the important invariant\n            assert(markets[pToken].accountMembership[borrower]);\n        }\n\n        if (oracle.getUnderlyingPrice(PToken(pToken)) == 0) {\n            return uint(Error.PRICE_ERROR);\n        }\n\n        uint borrowCap = borrowCaps[pToken];\n        // Borrow cap of 0 corresponds to unlimited borrowing\n        if (borrowCap != 0) {\n            uint totalBorrows = PToken(pToken).totalBorrows();\n            (MathError mathErr, uint nextTotalBorrows) = addUInt(totalBorrows, borrowAmount);\n            require(mathErr == MathError.NO_ERROR, \"total borrows overflow\");\n            require(nextTotalBorrows < borrowCap, \"market borrow cap reached\");\n        }\n\n        (Error err, , uint shortfall) = getHypotheticalAccountLiquidityInternal(borrower, PToken(pToken), 0, borrowAmount);\n        if (err != Error.NO_ERROR) {\n            return uint(err);\n        }\n        if (shortfall > 0) {\n            return uint(Error.INSUFFICIENT_LIQUIDITY);\n        }\n\n        //distribute wpc\n        if (distributeWpcPaused == false) {\n            piggyDistribution.distributeBorrowWpc(pToken, borrower, false);\n        }\n\n        return uint(Error.NO_ERROR);\n\n    }\n\n    function borrowVerify(address pToken, address borrower, uint borrowAmount) external override(IComptroller) {\n        //Shh - currently unused. It's written here to eliminate compile-time alarms.\n        pToken;\n        borrower;\n        borrowAmount;\n    }\n\n    function repayBorrowAllowed(address pToken, address payer, address borrower, uint repayAmount) external override(IComptroller) returns (uint) {\n\n        if (!markets[pToken].isListed) {\n            return uint(Error.MARKET_NOT_LISTED);\n        }\n\n        // Shh - currently unused. It's written here to eliminate compile-time alarms.\n        payer;\n        borrower;\n        repayAmount;\n\n        //distribute wpc\n        if (distributeWpcPaused == false) {\n            piggyDistribution.distributeRepayBorrowWpc(pToken, borrower, false);\n        }\n\n        return uint(Error.NO_ERROR);\n    }\n\n    function repayBorrowVerify(address pToken, address payer, address borrower, uint repayAmount, uint borrowerIndex) external override(IComptroller) {\n\n        // Shh - currently unused. It's written here to eliminate compile-time alarms.\n        pToken;\n        payer;\n        borrower;\n        repayAmount;\n        borrowerIndex;\n    }\n\n    function liquidateBorrowAllowed(\n        address pTokenBorrowed,\n        address pTokenCollateral,\n        address liquidator,\n        address borrower,\n        uint repayAmount\n    ) external override(IComptroller) returns (uint){\n\n        // Shh - currently unused. It's written here to eliminate compile-time alarms.\n        liquidator;\n\n        if (!markets[pTokenBorrowed].isListed || !markets[pTokenCollateral].isListed) {\n            return uint(Error.MARKET_NOT_LISTED);\n        }\n\n        /* The borrower must have shortfall in order to be liquidatable */\n        (Error err, , uint shortfall) = getAccountLiquidityInternal(borrower);\n        if (err != Error.NO_ERROR) {\n            return uint(err);\n        }\n        if (shortfall == 0) {\n            return uint(Error.INSUFFICIENT_SHORTFALL);\n        }\n\n        /* The liquidator may not repay more than what is allowed by the closeFactor */\n        uint borrowBalance = PToken(pTokenBorrowed).borrowBalanceStored(borrower);\n        (MathError mathErr, uint maxClose) = mulScalarTruncate(Exp({mantissa : closeFactorMantissa}), borrowBalance);\n        if (mathErr != MathError.NO_ERROR) {\n            return uint(Error.MATH_ERROR);\n        }\n        if (repayAmount > maxClose) {\n            return uint(Error.TOO_MUCH_REPAY);\n        }\n\n        return uint(Error.NO_ERROR);\n    }\n\n    function liquidateBorrowVerify(\n        address pTokenBorrowed,\n        address pTokenCollateral,\n        address liquidator,\n        address borrower,\n        uint repayAmount,\n        uint seizeTokens\n    ) external override(IComptroller) {\n\n        // Shh - currently unused. It's written here to eliminate compile-time alarms.\n        pTokenBorrowed;\n        pTokenCollateral;\n        liquidator;\n        borrower;\n        repayAmount;\n        seizeTokens;\n\n    }\n\n    function seizeAllowed(\n        address pTokenCollateral,\n        address pTokenBorrowed,\n        address liquidator,\n        address borrower,\n        uint seizeTokens\n    ) external override(IComptroller) returns (uint){\n        // Pausing is a very serious situation - we revert to sound the alarms\n        require(!seizeGuardianPaused, \"seize is paused\");\n\n        // Shh - currently unused. It's written here to eliminate compile-time alarms.\n        seizeTokens;\n\n        if (!markets[pTokenCollateral].isListed || !markets[pTokenBorrowed].isListed) {\n            return uint(Error.MARKET_NOT_LISTED);\n        }\n\n        if (PToken(pTokenCollateral).comptroller() != PToken(pTokenBorrowed).comptroller()) {\n            return uint(Error.COMPTROLLER_MISMATCH);\n        }\n\n        //distribute wpc\n        if (distributeWpcPaused == false) {\n            piggyDistribution.distributeSeizeWpc(pTokenCollateral, borrower, liquidator, false);\n        }\n\n        return uint(Error.NO_ERROR);\n    }\n\n    function seizeVerify(\n        address pTokenCollateral,\n        address pTokenBorrowed,\n        address liquidator,\n        address borrower,\n        uint seizeTokens\n    ) external override(IComptroller) {\n\n        // Shh - currently unused. It's written here to eliminate compile-time alarms.\n        pTokenCollateral;\n        pTokenBorrowed;\n        liquidator;\n        borrower;\n        seizeTokens;\n    }\n\n    function transferAllowed(\n        address pToken,\n        address src,\n        address dst,\n        uint transferTokens\n    ) external override(IComptroller) returns (uint){\n        // Pausing is a very serious situation - we revert to sound the alarms\n        require(!transferGuardianPaused, \"transfer is paused\");\n\n        // Currently the only consideration is whether or not\n        //  the src is allowed to redeem this many tokens\n        uint allowed = redeemAllowedInternal(pToken, src, transferTokens);\n        if (allowed != uint(Error.NO_ERROR)) {\n            return allowed;\n        }\n\n        //distribute wpc\n        if (distributeWpcPaused == false) {\n            piggyDistribution.distributeTransferWpc(pToken, src, dst, false);\n        }\n\n        return uint(Error.NO_ERROR);\n    }\n\n    function transferVerify(\n        address pToken,\n        address src,\n        address dst,\n        uint transferTokens\n    ) external override(IComptroller) {\n        // Shh - currently unused. It's written here to eliminate compile-time alarms.\n        pToken;\n        src;\n        dst;\n        transferTokens;\n    }\n\n    /*** Liquidity/Liquidation Calculations ***/\n\n    /**\n     * @dev Local vars for avoiding stack-depth limits in calculating account liquidity.\n     *  Note that `pTokenBalance` is the number of pTokens the account owns in the market,\n     *  whereas `borrowBalance` is the amount of underlying that the account has borrowed.\n     */\n    struct AccountLiquidityLocalVars {\n        uint sumCollateral;\n        uint sumBorrowPlusEffects;\n        uint pTokenBalance;\n        uint borrowBalance;\n        uint exchangeRateMantissa;\n        uint oraclePriceMantissa;\n        Exp collateralFactor;\n        Exp exchangeRate;\n        Exp oraclePrice;\n        Exp tokensToDenom;\n    }\n\n    /**\n     * @notice Determine the current account liquidity wrt collateral requirements\n     * @return (possible error code (semi-opaque),\n                account liquidity in excess of collateral requirements,\n     *          account shortfall below collateral requirements)\n     */\n    function getAccountLiquidity(address account) public view returns (uint, uint, uint) {\n        (Error err, uint liquidity, uint shortfall) = getHypotheticalAccountLiquidityInternal(account, PToken(0), 0, 0);\n        return (uint(err), liquidity, shortfall);\n    }\n\n\n    /**\n     * @notice Determine the current account liquidity wrt collateral requirements\n     * @return (possible error code,\n                account liquidity in excess of collateral requirements,\n     *          account shortfall below collateral requirements)\n     */\n    function getAccountLiquidityInternal(address account) internal view returns (Error, uint, uint) {\n        return getHypotheticalAccountLiquidityInternal(account, PToken(0), 0, 0);\n    }\n\n    /**\n     * @notice Determine what the account liquidity would be if the given amounts were redeemed/borrowed\n     * @param pTokenModify The market to hypothetically redeem/borrow in\n     * @param account The account to determine liquidity for\n     * @param redeemTokens The number of tokens to hypothetically redeem\n     * @param borrowAmount The amount of underlying to hypothetically borrow\n     * @return (possible error code (semi-opaque),\n                hypothetical account liquidity in excess of collateral requirements,\n     *          hypothetical account shortfall below collateral requirements)\n     */\n    function getHypotheticalAccountLiquidity(\n        address account,\n        address pTokenModify,\n        uint redeemTokens,\n        uint borrowAmount) public view returns (uint, uint, uint) {\n        (Error err, uint liquidity, uint shortfall) = getHypotheticalAccountLiquidityInternal(account, PToken(pTokenModify), redeemTokens, borrowAmount);\n        return (uint(err), liquidity, shortfall);\n    }\n\n\n    /**\n     * @notice Determine what the account liquidity would be if the given amounts were redeemed/borrowed\n     * @param account The account to determine liquidity for\n     * @param pTokenModify The market to hypothetically redeem/borrow in\n     * @param redeemTokens The number of tokens to hypothetically redeem\n     * @param borrowAmount The amount of underlying to hypothetically borrow\n     * @dev Note that we calculate the exchangeRateStored for each collateral pToken using stored data,\n     *  without calculating accumulated interest.\n     * @return (possible error code,\n                hypothetical account liquidity in excess of collateral requirements,\n     *          hypothetical account shortfall below collateral requirements)\n     */\n    function getHypotheticalAccountLiquidityInternal(\n        address account,\n        PToken pTokenModify,\n        uint redeemTokens,\n        uint borrowAmount) internal view returns (Error, uint, uint) {\n\n        AccountLiquidityLocalVars memory vars;\n        uint oErr;\n        MathError mErr;\n\n        // For each asset the account is in\n        PToken[] memory assets = accountAssets[account];\n        for (uint i = 0; i < assets.length; i++) {\n            PToken asset = assets[i];\n\n            // Read the balances and exchange rate from the pToken\n            (oErr, vars.pTokenBalance, vars.borrowBalance, vars.exchangeRateMantissa) = asset.getAccountSnapshot(account);\n            if (oErr != 0) {// semi-opaque error code, we assume NO_ERROR == 0 is invariant between upgrades\n                return (Error.SNAPSHOT_ERROR, 0, 0);\n            }\n            vars.collateralFactor = Exp({mantissa : markets[address(asset)].collateralFactorMantissa});\n            vars.exchangeRate = Exp({mantissa : vars.exchangeRateMantissa});\n\n            // Get the normalized price of the asset\n            vars.oraclePriceMantissa = oracle.getUnderlyingPrice(asset);\n            if (vars.oraclePriceMantissa == 0) {\n                return (Error.PRICE_ERROR, 0, 0);\n            }\n            vars.oraclePrice = Exp({mantissa : vars.oraclePriceMantissa});\n\n            // Pre-compute a conversion factor from tokens -> usd (normalized price value)\n            // pTokenPrice = oraclePrice * exchangeRate\n            (mErr, vars.tokensToDenom) = mulExp3(vars.collateralFactor, vars.exchangeRate, vars.oraclePrice);\n            if (mErr != MathError.NO_ERROR) {\n                return (Error.MATH_ERROR, 0, 0);\n            }\n\n            // sumCollateral += tokensToDenom * pTokenBalance\n            (mErr, vars.sumCollateral) = mulScalarTruncateAddUInt(vars.tokensToDenom, vars.pTokenBalance, vars.sumCollateral);\n            if (mErr != MathError.NO_ERROR) {\n                return (Error.MATH_ERROR, 0, 0);\n            }\n\n            // sumBorrowPlusEffects += oraclePrice * borrowBalance\n            (mErr, vars.sumBorrowPlusEffects) = mulScalarTruncateAddUInt(vars.oraclePrice, vars.borrowBalance, vars.sumBorrowPlusEffects);\n            if (mErr != MathError.NO_ERROR) {\n                return (Error.MATH_ERROR, 0, 0);\n            }\n\n            // Calculate effects of interacting with pTokenModify\n            if (asset == pTokenModify) {\n                // redeem effect\n                // sumBorrowPlusEffects += tokensToDenom * redeemTokens\n                (mErr, vars.sumBorrowPlusEffects) = mulScalarTruncateAddUInt(vars.tokensToDenom, redeemTokens, vars.sumBorrowPlusEffects);\n                if (mErr != MathError.NO_ERROR) {\n                    return (Error.MATH_ERROR, 0, 0);\n                }\n\n                // borrow effect\n                // sumBorrowPlusEffects += oraclePrice * borrowAmount\n                (mErr, vars.sumBorrowPlusEffects) = mulScalarTruncateAddUInt(vars.oraclePrice, borrowAmount, vars.sumBorrowPlusEffects);\n                if (mErr != MathError.NO_ERROR) {\n                    return (Error.MATH_ERROR, 0, 0);\n                }\n            }\n        }\n\n        // These are safe, as the underflow condition is checked first\n        if (vars.sumCollateral > vars.sumBorrowPlusEffects) {\n            return (Error.NO_ERROR, vars.sumCollateral - vars.sumBorrowPlusEffects, 0);\n        } else {\n            return (Error.NO_ERROR, 0, vars.sumBorrowPlusEffects - vars.sumCollateral);\n        }\n    }\n\n    function liquidateCalculateSeizeTokens(\n        address pTokenBorrowed,\n        address pTokenCollateral,\n        uint actualRepayAmount\n    ) external override(IComptroller) view returns (uint, uint) {\n        /* Read oracle prices for borrowed and collateral markets */\n        uint priceBorrowedMantissa = oracle.getUnderlyingPrice(PToken(pTokenBorrowed));\n        uint priceCollateralMantissa = oracle.getUnderlyingPrice(PToken(pTokenCollateral));\n        if (priceBorrowedMantissa == 0 || priceCollateralMantissa == 0) {\n            return (uint(Error.PRICE_ERROR), 0);\n        }\n\n        /*\n        * Get the exchange rate and calculate the number of collateral tokens to seize:\n        *  seizeAmount = actualRepayAmount * liquidationIncentive * priceBorrowed / priceCollateral\n        *  seizeTokens = seizeAmount / exchangeRate\n        *   = actualRepayAmount * (liquidationIncentive * priceBorrowed) / (priceCollateral * exchangeRate)\n        *\n        * Note: reverts on error\n        */\n        uint exchangeRateMantissa = PToken(pTokenCollateral).exchangeRateStored();\n\n        uint seizeTokens;\n        Exp memory numerator;\n        Exp memory denominator;\n        Exp memory ratio;\n        MathError mathErr;\n\n        (mathErr, numerator) = mulExp(liquidationIncentiveMantissa, priceBorrowedMantissa);\n        if (mathErr != MathError.NO_ERROR) {\n            return (uint(Error.MATH_ERROR), 0);\n        }\n\n        (mathErr, denominator) = mulExp(priceCollateralMantissa, exchangeRateMantissa);\n        if (mathErr != MathError.NO_ERROR) {\n            return (uint(Error.MATH_ERROR), 0);\n        }\n\n        (mathErr, ratio) = divExp(numerator, denominator);\n        if (mathErr != MathError.NO_ERROR) {\n            return (uint(Error.MATH_ERROR), 0);\n        }\n\n        (mathErr, seizeTokens) = mulScalarTruncate(ratio, actualRepayAmount);\n        if (mathErr != MathError.NO_ERROR) {\n            return (uint(Error.MATH_ERROR), 0);\n        }\n\n        return (uint(Error.NO_ERROR), seizeTokens);\n\n    }\n\n    /*** Admin Functions ***/\n\n    /**\n      * @notice Sets a new price oracle for the comptroller\n      * @dev Admin function to set a new price oracle\n      * @return uint 0=success, otherwise a failure (see ErrorReporter.sol for details)\n      */\n    function _setPriceOracle(IPriceOracle newOracle) public onlyOwner returns (uint) {\n\n        // Track the old oracle for the comptroller\n        IPriceOracle oldOracle = oracle;\n\n        // Set comptroller's oracle to newOracle\n        oracle = newOracle;\n\n        // Emit NewPriceOracle(oldOracle, newOracle)\n        emit NewPriceOracle(oldOracle, newOracle);\n\n        return uint(Error.NO_ERROR);\n    }\n\n    /**\n      * @notice Sets the closeFactor used when liquidating borrows\n      * @dev Admin function to set closeFactor\n      * @param newCloseFactorMantissa New close factor, scaled by 1e18\n      * @return uint 0=success, otherwise a failure. (See ErrorReporter for details)\n      */\n    function _setCloseFactor(uint newCloseFactorMantissa) external onlyOwner returns (uint) {\n\n        Exp memory newCloseFactorExp = Exp({mantissa : newCloseFactorMantissa});\n        Exp memory lowLimit = Exp({mantissa : closeFactorMinMantissa});\n        if (lessThanOrEqualExp(newCloseFactorExp, lowLimit)) {\n            return fail(Error.INVALID_CLOSE_FACTOR, FailureInfo.SET_CLOSE_FACTOR_VALIDATION);\n        }\n\n        Exp memory highLimit = Exp({mantissa : closeFactorMaxMantissa});\n        if (lessThanExp(highLimit, newCloseFactorExp)) {\n            return fail(Error.INVALID_CLOSE_FACTOR, FailureInfo.SET_CLOSE_FACTOR_VALIDATION);\n        }\n\n        uint oldCloseFactorMantissa = closeFactorMantissa;\n        closeFactorMantissa = newCloseFactorMantissa;\n        emit NewCloseFactor(oldCloseFactorMantissa, closeFactorMantissa);\n\n        return uint(Error.NO_ERROR);\n    }\n\n    /**\n      * @notice Sets the collateralFactor for a market\n      * @dev Admin function to set per-market collateralFactor\n      * @param pToken The market to set the factor on\n      * @param newCollateralFactorMantissa The new collateral factor, scaled by 1e18\n      * @return uint 0=success, otherwise a failure. (See ErrorReporter for details)\n      */\n    function _setCollateralFactor(PToken pToken, uint newCollateralFactorMantissa) external onlyOwner returns (uint) {\n\n        // Verify market is listed\n        Market storage market = markets[address(pToken)];\n        if (!market.isListed) {\n            return fail(Error.MARKET_NOT_LISTED, FailureInfo.SET_COLLATERAL_FACTOR_NO_EXISTS);\n        }\n\n        Exp memory newCollateralFactorExp = Exp({mantissa : newCollateralFactorMantissa});\n\n        // Check collateral factor <= 0.9\n        Exp memory highLimit = Exp({mantissa : collateralFactorMaxMantissa});\n        if (lessThanExp(highLimit, newCollateralFactorExp)) {\n            return fail(Error.INVALID_COLLATERAL_FACTOR, FailureInfo.SET_COLLATERAL_FACTOR_VALIDATION);\n        }\n\n        // If collateral factor != 0, fail if price == 0\n        if (newCollateralFactorMantissa != 0 && oracle.getUnderlyingPrice(pToken) == 0) {\n            return fail(Error.PRICE_ERROR, FailureInfo.SET_COLLATERAL_FACTOR_WITHOUT_PRICE);\n        }\n\n        // Set market's collateral factor to new collateral factor, remember old value\n        uint oldCollateralFactorMantissa = market.collateralFactorMantissa;\n        market.collateralFactorMantissa = newCollateralFactorMantissa;\n\n        // Emit event with asset, old collateral factor, and new collateral factor\n        emit NewCollateralFactor(pToken, oldCollateralFactorMantissa, newCollateralFactorMantissa);\n\n        return uint(Error.NO_ERROR);\n    }\n\n    /**\n      * @notice Sets maxAssets which controls how many markets can be entered\n      * @dev Admin function to set maxAssets\n      * @param newMaxAssets New max assets\n      * @return uint 0=success, otherwise a failure. (See ErrorReporter for details)\n      */\n    function _setMaxAssets(uint newMaxAssets) external onlyOwner returns (uint) {\n\n        uint oldMaxAssets = maxAssets;\n        maxAssets = newMaxAssets;\n        emit NewMaxAssets(oldMaxAssets, newMaxAssets);\n\n        return uint(Error.NO_ERROR);\n    }\n\n    /**\n      * @notice Sets liquidationIncentive\n      * @dev Admin function to set liquidationIncentive\n      * @param newLiquidationIncentiveMantissa New liquidationIncentive scaled by 1e18\n      * @return uint 0=success, otherwise a failure. (See ErrorReporter for details)\n      */\n    function _setLiquidationIncentive(uint newLiquidationIncentiveMantissa) external onlyOwner returns (uint) {\n\n        // Check de-scaled min <= newLiquidationIncentive <= max\n        Exp memory newLiquidationIncentive = Exp({mantissa : newLiquidationIncentiveMantissa});\n        Exp memory minLiquidationIncentive = Exp({mantissa : liquidationIncentiveMinMantissa});\n        if (lessThanExp(newLiquidationIncentive, minLiquidationIncentive)) {\n            return fail(Error.INVALID_LIQUIDATION_INCENTIVE, FailureInfo.SET_LIQUIDATION_INCENTIVE_VALIDATION);\n        }\n\n        Exp memory maxLiquidationIncentive = Exp({mantissa : liquidationIncentiveMaxMantissa});\n        if (lessThanExp(maxLiquidationIncentive, newLiquidationIncentive)) {\n            return fail(Error.INVALID_LIQUIDATION_INCENTIVE, FailureInfo.SET_LIQUIDATION_INCENTIVE_VALIDATION);\n        }\n\n        // Save current value for use in log\n        uint oldLiquidationIncentiveMantissa = liquidationIncentiveMantissa;\n\n        // Set liquidation incentive to new incentive\n        liquidationIncentiveMantissa = newLiquidationIncentiveMantissa;\n\n        // Emit event with old incentive, new incentive\n        emit NewLiquidationIncentive(oldLiquidationIncentiveMantissa, newLiquidationIncentiveMantissa);\n\n        return uint(Error.NO_ERROR);\n    }\n\n    /**\n      * @notice Add the market to the markets mapping and set it as listed\n      * @dev Admin function to set isListed and add support for the market\n      * @param pToken The address of the market (token) to list\n      * @return uint 0=success, otherwise a failure. (See enum Error for details)\n      */\n    function _supportMarket(PToken pToken) external onlyOwner returns (uint) {\n\n        if (markets[address(pToken)].isListed) {\n            return fail(Error.MARKET_ALREADY_LISTED, FailureInfo.SUPPORT_MARKET_EXISTS);\n        }\n\n        markets[address(pToken)] = Market({isListed : true, isMinted : false, collateralFactorMantissa : 0});\n\n        _addMarketInternal(address(pToken));\n\n        emit MarketListed(pToken);\n\n        return uint(Error.NO_ERROR);\n    }\n\n    function _addMarketInternal(address pToken) internal onlyOwner {\n        for (uint i = 0; i < allMarkets.length; i ++) {\n            require(allMarkets[i] != PToken(pToken), \"market already added\");\n        }\n        allMarkets.push(PToken(pToken));\n    }\n\n    /**\n      * @notice Set the given borrow caps for the given pToken markets. Borrowing that brings total borrows to or above borrow cap will revert.\n      * @dev Admin or borrowCapGuardian function to set the borrow caps. A borrow cap of 0 corresponds to unlimited borrowing.\n      * @param pTokens The addresses of the markets (tokens) to change the borrow caps for\n      * @param newBorrowCaps The new borrow cap values in underlying to be set. A value of 0 corresponds to unlimited borrowing.\n      */\n    function _setMarketBorrowCaps(PToken[] calldata pTokens, uint[] calldata newBorrowCaps) external {\n        require(msg.sender == owner() || msg.sender == borrowCapGuardian, \"only owner or borrow cap guardian can set borrow caps\");\n\n        uint numMarkets = pTokens.length;\n        uint numBorrowCaps = newBorrowCaps.length;\n\n        require(numMarkets != 0 && numMarkets == numBorrowCaps, \"invalid input\");\n\n        for (uint i = 0; i < numMarkets; i++) {\n            borrowCaps[address(pTokens[i])] = newBorrowCaps[i];\n            emit NewBorrowCap(pTokens[i], newBorrowCaps[i]);\n        }\n    }\n\n    /**\n     * @notice Admin function to change the Borrow Cap Guardian\n     * @param newBorrowCapGuardian The address of the new Borrow Cap Guardian\n     */\n    function _setBorrowCapGuardian(address newBorrowCapGuardian) external onlyOwner {\n\n        // Save current value for inclusion in log\n        address oldBorrowCapGuardian = borrowCapGuardian;\n\n        // Store borrowCapGuardian with value newBorrowCapGuardian\n        borrowCapGuardian = newBorrowCapGuardian;\n\n        // Emit NewBorrowCapGuardian(OldBorrowCapGuardian, NewBorrowCapGuardian)\n        emit NewBorrowCapGuardian(oldBorrowCapGuardian, newBorrowCapGuardian);\n    }\n\n    /**\n     * @notice Admin function to change the Pause Guardian\n     * @param newPauseGuardian The address of the new Pause Guardian\n     * @return uint 0=success, otherwise a failure. (See enum Error for details)\n     */\n    function _setPauseGuardian(address newPauseGuardian) public onlyOwner returns (uint) {\n\n        // Save current value for inclusion in log\n        address oldPauseGuardian = pauseGuardian;\n\n        // Store pauseGuardian with value newPauseGuardian\n        pauseGuardian = newPauseGuardian;\n\n        // Emit NewPauseGuardian(OldPauseGuardian, NewPauseGuardian)\n        emit NewPauseGuardian(oldPauseGuardian, pauseGuardian);\n\n        return uint(Error.NO_ERROR);\n    }\n\n    function _setMintPaused(PToken pToken, bool state) public returns (bool) {\n        require(markets[address(pToken)].isListed, \"cannot pause a market that is not listed\");\n        require(msg.sender == pauseGuardian || msg.sender == owner(), \"only pause guardian and owner can pause\");\n        require(msg.sender == owner() || state == true, \"only owner can unpause\");\n\n        pTokenMintGuardianPaused[address(pToken)] = state;\n        emit ActionPaused(pToken, \"Mint\", state);\n        return state;\n    }\n\n    function _setBorrowPaused(PToken pToken, bool state) public returns (bool) {\n        require(markets[address(pToken)].isListed, \"cannot pause a market that is not listed\");\n        require(msg.sender == pauseGuardian || msg.sender == owner(), \"only pause guardian and owner can pause\");\n        require(msg.sender == owner() || state == true, \"only owner can unpause\");\n\n        pTokenBorrowGuardianPaused[address(pToken)] = state;\n        emit ActionPaused(pToken, \"Borrow\", state);\n        return state;\n    }\n\n    function _setTransferPaused(bool state) public returns (bool) {\n        require(msg.sender == pauseGuardian || msg.sender == owner(), \"only pause guardian and owner can pause\");\n        require(msg.sender == owner() || state == true, \"only owner can unpause\");\n\n        transferGuardianPaused = state;\n        emit ActionPaused(\"Transfer\", state);\n        return state;\n    }\n\n    function _setSeizePaused(bool state) public returns (bool) {\n        require(msg.sender == pauseGuardian || msg.sender == owner(), \"only pause guardian and owner can pause\");\n        require(msg.sender == owner() || state == true, \"only owner can unpause\");\n\n        seizeGuardianPaused = state;\n        emit ActionPaused(\"Seize\", state);\n        return state;\n    }\n\n    function _setDistributeWpcPaused(bool state) public returns (bool) {\n        require(msg.sender == pauseGuardian || msg.sender == owner(), \"only pause guardian and owner can pause\");\n        require(msg.sender == owner() || state == true, \"only owner can unpause\");\n\n        distributeWpcPaused = state;\n        emit ActionPaused(\"DistributeWpc\", state);\n        return state;\n    }\n\n    /**\n     * @notice Sets a new price piggyDistribution for the comptroller\n     * @dev Admin function to set a new piggy distribution\n     * @return uint 0=success, otherwise a failure (see ErrorReporter.sol for details)\n     */\n    function _setPiggyDistribution(IPiggyDistribution newPiggyDistribution) public onlyOwner returns (uint) {\n\n        IPiggyDistribution oldPiggyDistribution = piggyDistribution;\n\n        piggyDistribution = newPiggyDistribution;\n\n        emit NewPiggyDistribution(oldPiggyDistribution, newPiggyDistribution);\n\n        return uint(Error.NO_ERROR);\n    }\n\n    function getAllMarkets() public view returns (PToken[] memory){\n        return allMarkets;\n    }\n\n    function isMarketMinted(address pToken) public view returns (bool){\n        return markets[pToken].isMinted;\n    }\n\n    function isMarketListed(address pToken) public view returns (bool){\n        return markets[pToken].isListed;\n    }\n\n    function _setMarketMinted(address pToken, bool status) public {\n\n        require(msg.sender == address(piggyDistribution) || msg.sender == owner(), \"only PiggyDistribution or owner can update\");\n\n        markets[pToken].isMinted = status;\n    }\n\n    function _setMarketMintCaps(PToken[] calldata pTokens, uint[] calldata newMintCaps) external onlyOwner {\n\n        uint numMarkets = pTokens.length;\n        uint numMintCaps = newMintCaps.length;\n\n        require(numMarkets != 0 && numMarkets == numMintCaps, \"invalid input\");\n\n        for (uint i = 0; i < numMarkets; i++) {\n            mintCaps[address(pTokens[i])] = newMintCaps[i];\n            emit NewBorrowCap(pTokens[i], newMintCaps[i]);\n        }\n    }\n\n\n}\n",
  "sourcePath": "contracts/comptroller/Comptroller.sol",
  "abi": [
    {
      "anonymous": false,
      "inputs": [
        {
          "indexed": false,
          "internalType": "string",
          "name": "action",
          "type": "string"
        },
        {
          "indexed": false,
          "internalType": "bool",
          "name": "pauseState",
          "type": "bool"
        }
      ],
      "name": "ActionPaused",
      "type": "event"
    },
    {
      "anonymous": false,
      "inputs": [
        {
          "indexed": false,
          "internalType": "contract PToken",
          "name": "pToken",
          "type": "address"
        },
        {
          "indexed": false,
          "internalType": "string",
          "name": "action",
          "type": "string"
        },
        {
          "indexed": false,
          "internalType": "bool",
          "name": "pauseState",
          "type": "bool"
        }
      ],
      "name": "ActionPaused",
      "type": "event"
    },
    {
      "anonymous": false,
      "inputs": [
        {
          "indexed": false,
          "internalType": "uint256",
          "name": "error",
          "type": "uint256"
        },
        {
          "indexed": false,
          "internalType": "uint256",
          "name": "info",
          "type": "uint256"
        },
        {
          "indexed": false,
          "internalType": "uint256",
          "name": "detail",
          "type": "uint256"
        }
      ],
      "name": "Failure",
      "type": "event"
    },
    {
      "anonymous": false,
      "inputs": [
        {
          "indexed": false,
          "internalType": "contract PToken",
          "name": "pToken",
          "type": "address"
        },
        {
          "indexed": false,
          "internalType": "address",
          "name": "account",
          "type": "address"
        }
      ],
      "name": "MarketEntered",
      "type": "event"
    },
    {
      "anonymous": false,
      "inputs": [
        {
          "indexed": false,
          "internalType": "contract PToken",
          "name": "pToken",
          "type": "address"
        },
        {
          "indexed": false,
          "internalType": "address",
          "name": "account",
          "type": "address"
        }
      ],
      "name": "MarketExited",
      "type": "event"
    },
    {
      "anonymous": false,
      "inputs": [
        {
          "indexed": false,
          "internalType": "contract PToken",
          "name": "pToken",
          "type": "address"
        }
      ],
      "name": "MarketListed",
      "type": "event"
    },
    {
      "anonymous": false,
      "inputs": [
        {
          "indexed": true,
          "internalType": "contract PToken",
          "name": "pToken",
          "type": "address"
        },
        {
          "indexed": false,
          "internalType": "uint256",
          "name": "newBorrowCap",
          "type": "uint256"
        }
      ],
      "name": "NewBorrowCap",
      "type": "event"
    },
    {
      "anonymous": false,
      "inputs": [
        {
          "indexed": false,
          "internalType": "address",
          "name": "oldBorrowCapGuardian",
          "type": "address"
        },
        {
          "indexed": false,
          "internalType": "address",
          "name": "newBorrowCapGuardian",
          "type": "address"
        }
      ],
      "name": "NewBorrowCapGuardian",
      "type": "event"
    },
    {
      "anonymous": false,
      "inputs": [
        {
          "indexed": false,
          "internalType": "uint256",
          "name": "oldCloseFactorMantissa",
          "type": "uint256"
        },
        {
          "indexed": false,
          "internalType": "uint256",
          "name": "newCloseFactorMantissa",
          "type": "uint256"
        }
      ],
      "name": "NewCloseFactor",
      "type": "event"
    },
    {
      "anonymous": false,
      "inputs": [
        {
          "indexed": false,
          "internalType": "contract PToken",
          "name": "pToken",
          "type": "address"
        },
        {
          "indexed": false,
          "internalType": "uint256",
          "name": "oldCollateralFactorMantissa",
          "type": "uint256"
        },
        {
          "indexed": false,
          "internalType": "uint256",
          "name": "newCollateralFactorMantissa",
          "type": "uint256"
        }
      ],
      "name": "NewCollateralFactor",
      "type": "event"
    },
    {
      "anonymous": false,
      "inputs": [
        {
          "indexed": false,
          "internalType": "uint256",
          "name": "oldLiquidationIncentiveMantissa",
          "type": "uint256"
        },
        {
          "indexed": false,
          "internalType": "uint256",
          "name": "newLiquidationIncentiveMantissa",
          "type": "uint256"
        }
      ],
      "name": "NewLiquidationIncentive",
      "type": "event"
    },
    {
      "anonymous": false,
      "inputs": [
        {
          "indexed": false,
          "internalType": "uint256",
          "name": "oldMaxAssets",
          "type": "uint256"
        },
        {
          "indexed": false,
          "internalType": "uint256",
          "name": "newMaxAssets",
          "type": "uint256"
        }
      ],
      "name": "NewMaxAssets",
      "type": "event"
    },
    {
      "anonymous": false,
      "inputs": [
        {
          "indexed": true,
          "internalType": "contract PToken",
          "name": "pToken",
          "type": "address"
        },
        {
          "indexed": false,
          "internalType": "uint256",
          "name": "newMintCap",
          "type": "uint256"
        }
      ],
      "name": "NewMintCap",
      "type": "event"
    },
    {
      "anonymous": false,
      "inputs": [
        {
          "indexed": false,
          "internalType": "address",
          "name": "oldPauseGuardian",
          "type": "address"
        },
        {
          "indexed": false,
          "internalType": "address",
          "name": "newPauseGuardian",
          "type": "address"
        }
      ],
      "name": "NewPauseGuardian",
      "type": "event"
    },
    {
      "anonymous": false,
      "inputs": [
        {
          "indexed": false,
          "internalType": "contract IPiggyDistribution",
          "name": "oldPiggyDistribution",
          "type": "address"
        },
        {
          "indexed": false,
          "internalType": "contract IPiggyDistribution",
          "name": "newPiggyDistribution",
          "type": "address"
        }
      ],
      "name": "NewPiggyDistribution",
      "type": "event"
    },
    {
      "anonymous": false,
      "inputs": [
        {
          "indexed": false,
          "internalType": "contract IPriceOracle",
          "name": "oldPriceOracle",
          "type": "address"
        },
        {
          "indexed": false,
          "internalType": "contract IPriceOracle",
          "name": "newPriceOracle",
          "type": "address"
        }
      ],
      "name": "NewPriceOracle",
      "type": "event"
    },
    {
      "anonymous": false,
      "inputs": [
        {
          "indexed": true,
          "internalType": "address",
          "name": "previousOwner",
          "type": "address"
        },
        {
          "indexed": true,
          "internalType": "address",
          "name": "newOwner",
          "type": "address"
        }
      ],
      "name": "OwnershipTransferred",
      "type": "event"
    },
    {
      "inputs": [],
      "name": "_borrowGuardianPaused",
      "outputs": [
        {
          "internalType": "bool",
          "name": "",
          "type": "bool"
        }
      ],
      "stateMutability": "view",
      "type": "function"
    },
    {
      "inputs": [],
      "name": "_mintGuardianPaused",
      "outputs": [
        {
          "internalType": "bool",
          "name": "",
          "type": "bool"
        }
      ],
      "stateMutability": "view",
      "type": "function"
    },
    {
      "inputs": [
        {
          "internalType": "address",
          "name": "newBorrowCapGuardian",
          "type": "address"
        }
      ],
      "name": "_setBorrowCapGuardian",
      "outputs": [],
      "stateMutability": "nonpayable",
      "type": "function"
    },
    {
      "inputs": [
        {
          "internalType": "contract PToken",
          "name": "pToken",
          "type": "address"
        },
        {
          "internalType": "bool",
          "name": "state",
          "type": "bool"
        }
      ],
      "name": "_setBorrowPaused",
      "outputs": [
        {
          "internalType": "bool",
          "name": "",
          "type": "bool"
        }
      ],
      "stateMutability": "nonpayable",
      "type": "function"
    },
    {
      "inputs": [
        {
          "internalType": "uint256",
          "name": "newCloseFactorMantissa",
          "type": "uint256"
        }
      ],
      "name": "_setCloseFactor",
      "outputs": [
        {
          "internalType": "uint256",
          "name": "",
          "type": "uint256"
        }
      ],
      "stateMutability": "nonpayable",
      "type": "function"
    },
    {
      "inputs": [
        {
          "internalType": "contract PToken",
          "name": "pToken",
          "type": "address"
        },
        {
          "internalType": "uint256",
          "name": "newCollateralFactorMantissa",
          "type": "uint256"
        }
      ],
      "name": "_setCollateralFactor",
      "outputs": [
        {
          "internalType": "uint256",
          "name": "",
          "type": "uint256"
        }
      ],
      "stateMutability": "nonpayable",
      "type": "function"
    },
    {
      "inputs": [
        {
          "internalType": "bool",
          "name": "state",
          "type": "bool"
        }
      ],
      "name": "_setDistributeWpcPaused",
      "outputs": [
        {
          "internalType": "bool",
          "name": "",
          "type": "bool"
        }
      ],
      "stateMutability": "nonpayable",
      "type": "function"
    },
    {
      "inputs": [
        {
          "internalType": "uint256",
          "name": "newLiquidationIncentiveMantissa",
          "type": "uint256"
        }
      ],
      "name": "_setLiquidationIncentive",
      "outputs": [
        {
          "internalType": "uint256",
          "name": "",
          "type": "uint256"
        }
      ],
      "stateMutability": "nonpayable",
      "type": "function"
    },
    {
      "inputs": [
        {
          "internalType": "contract PToken[]",
          "name": "pTokens",
          "type": "address[]"
        },
        {
          "internalType": "uint256[]",
          "name": "newBorrowCaps",
          "type": "uint256[]"
        }
      ],
      "name": "_setMarketBorrowCaps",
      "outputs": [],
      "stateMutability": "nonpayable",
      "type": "function"
    },
    {
      "inputs": [
        {
          "internalType": "contract PToken[]",
          "name": "pTokens",
          "type": "address[]"
        },
        {
          "internalType": "uint256[]",
          "name": "newMintCaps",
          "type": "uint256[]"
        }
      ],
      "name": "_setMarketMintCaps",
      "outputs": [],
      "stateMutability": "nonpayable",
      "type": "function"
    },
    {
      "inputs": [
        {
          "internalType": "address",
          "name": "pToken",
          "type": "address"
        },
        {
          "internalType": "bool",
          "name": "status",
          "type": "bool"
        }
      ],
      "name": "_setMarketMinted",
      "outputs": [],
      "stateMutability": "nonpayable",
      "type": "function"
    },
    {
      "inputs": [
        {
          "internalType": "uint256",
          "name": "newMaxAssets",
          "type": "uint256"
        }
      ],
      "name": "_setMaxAssets",
      "outputs": [
        {
          "internalType": "uint256",
          "name": "",
          "type": "uint256"
        }
      ],
      "stateMutability": "nonpayable",
      "type": "function"
    },
    {
      "inputs": [
        {
          "internalType": "contract PToken",
          "name": "pToken",
          "type": "address"
        },
        {
          "internalType": "bool",
          "name": "state",
          "type": "bool"
        }
      ],
      "name": "_setMintPaused",
      "outputs": [
        {
          "internalType": "bool",
          "name": "",
          "type": "bool"
        }
      ],
      "stateMutability": "nonpayable",
      "type": "function"
    },
    {
      "inputs": [
        {
          "internalType": "address",
          "name": "newPauseGuardian",
          "type": "address"
        }
      ],
      "name": "_setPauseGuardian",
      "outputs": [
        {
          "internalType": "uint256",
          "name": "",
          "type": "uint256"
        }
      ],
      "stateMutability": "nonpayable",
      "type": "function"
    },
    {
      "inputs": [
        {
          "internalType": "contract IPiggyDistribution",
          "name": "newPiggyDistribution",
          "type": "address"
        }
      ],
      "name": "_setPiggyDistribution",
      "outputs": [
        {
          "internalType": "uint256",
          "name": "",
          "type": "uint256"
        }
      ],
      "stateMutability": "nonpayable",
      "type": "function"
    },
    {
      "inputs": [
        {
          "internalType": "contract IPriceOracle",
          "name": "newOracle",
          "type": "address"
        }
      ],
      "name": "_setPriceOracle",
      "outputs": [
        {
          "internalType": "uint256",
          "name": "",
          "type": "uint256"
        }
      ],
      "stateMutability": "nonpayable",
      "type": "function"
    },
    {
      "inputs": [
        {
          "internalType": "bool",
          "name": "state",
          "type": "bool"
        }
      ],
      "name": "_setSeizePaused",
      "outputs": [
        {
          "internalType": "bool",
          "name": "",
          "type": "bool"
        }
      ],
      "stateMutability": "nonpayable",
      "type": "function"
    },
    {
      "inputs": [
        {
          "internalType": "bool",
          "name": "state",
          "type": "bool"
        }
      ],
      "name": "_setTransferPaused",
      "outputs": [
        {
          "internalType": "bool",
          "name": "",
          "type": "bool"
        }
      ],
      "stateMutability": "nonpayable",
      "type": "function"
    },
    {
      "inputs": [
        {
          "internalType": "contract PToken",
          "name": "pToken",
          "type": "address"
        }
      ],
      "name": "_supportMarket",
      "outputs": [
        {
          "internalType": "uint256",
          "name": "",
          "type": "uint256"
        }
      ],
      "stateMutability": "nonpayable",
      "type": "function"
    },
    {
      "inputs": [
        {
          "internalType": "address",
          "name": "",
          "type": "address"
        },
        {
          "internalType": "uint256",
          "name": "",
          "type": "uint256"
        }
      ],
      "name": "accountAssets",
      "outputs": [
        {
          "internalType": "contract PToken",
          "name": "",
          "type": "address"
        }
      ],
      "stateMutability": "view",
      "type": "function"
    },
    {
      "inputs": [
        {
          "internalType": "uint256",
          "name": "",
          "type": "uint256"
        }
      ],
      "name": "allMarkets",
      "outputs": [
        {
          "internalType": "contract PToken",
          "name": "",
          "type": "address"
        }
      ],
      "stateMutability": "view",
      "type": "function"
    },
    {
      "inputs": [
        {
          "internalType": "address",
          "name": "pToken",
          "type": "address"
        },
        {
          "internalType": "address",
          "name": "borrower",
          "type": "address"
        },
        {
          "internalType": "uint256",
          "name": "borrowAmount",
          "type": "uint256"
        }
      ],
      "name": "borrowAllowed",
      "outputs": [
        {
          "internalType": "uint256",
          "name": "",
          "type": "uint256"
        }
      ],
      "stateMutability": "nonpayable",
      "type": "function"
    },
    {
      "inputs": [],
      "name": "borrowCapGuardian",
      "outputs": [
        {
          "internalType": "address",
          "name": "",
          "type": "address"
        }
      ],
      "stateMutability": "view",
      "type": "function"
    },
    {
      "inputs": [
        {
          "internalType": "address",
          "name": "",
          "type": "address"
        }
      ],
      "name": "borrowCaps",
      "outputs": [
        {
          "internalType": "uint256",
          "name": "",
          "type": "uint256"
        }
      ],
      "stateMutability": "view",
      "type": "function"
    },
    {
      "inputs": [
        {
          "internalType": "address",
          "name": "pToken",
          "type": "address"
        },
        {
          "internalType": "address",
          "name": "borrower",
          "type": "address"
        },
        {
          "internalType": "uint256",
          "name": "borrowAmount",
          "type": "uint256"
        }
      ],
      "name": "borrowVerify",
      "outputs": [],
      "stateMutability": "nonpayable",
      "type": "function"
    },
    {
      "inputs": [
        {
          "internalType": "address",
          "name": "account",
          "type": "address"
        },
        {
          "internalType": "contract PToken",
          "name": "pToken",
          "type": "address"
        }
      ],
      "name": "checkMembership",
      "outputs": [
        {
          "internalType": "bool",
          "name": "",
          "type": "bool"
        }
      ],
      "stateMutability": "view",
      "type": "function"
    },
    {
      "inputs": [],
      "name": "closeFactorMantissa",
      "outputs": [
        {
          "internalType": "uint256",
          "name": "",
          "type": "uint256"
        }
      ],
      "stateMutability": "view",
      "type": "function"
    },
    {
      "inputs": [],
      "name": "distributeWpcPaused",
      "outputs": [
        {
          "internalType": "bool",
          "name": "",
          "type": "bool"
        }
      ],
      "stateMutability": "view",
      "type": "function"
    },
    {
      "inputs": [
        {
          "internalType": "address[]",
          "name": "pTokens",
          "type": "address[]"
        }
      ],
      "name": "enterMarkets",
      "outputs": [
        {
          "internalType": "uint256[]",
          "name": "",
          "type": "uint256[]"
        }
      ],
      "stateMutability": "nonpayable",
      "type": "function"
    },
    {
      "inputs": [
        {
          "internalType": "address",
          "name": "pTokenAddress",
          "type": "address"
        }
      ],
      "name": "exitMarket",
      "outputs": [
        {
          "internalType": "uint256",
          "name": "",
          "type": "uint256"
        }
      ],
      "stateMutability": "nonpayable",
      "type": "function"
    },
    {
      "inputs": [
        {
          "internalType": "address",
          "name": "account",
          "type": "address"
        }
      ],
      "name": "getAccountLiquidity",
      "outputs": [
        {
          "internalType": "uint256",
          "name": "",
          "type": "uint256"
        },
        {
          "internalType": "uint256",
          "name": "",
          "type": "uint256"
        },
        {
          "internalType": "uint256",
          "name": "",
          "type": "uint256"
        }
      ],
      "stateMutability": "view",
      "type": "function"
    },
    {
      "inputs": [],
      "name": "getAllMarkets",
      "outputs": [
        {
          "internalType": "contract PToken[]",
          "name": "",
          "type": "address[]"
        }
      ],
      "stateMutability": "view",
      "type": "function"
    },
    {
      "inputs": [
        {
          "internalType": "address",
          "name": "account",
          "type": "address"
        }
      ],
      "name": "getAssetsIn",
      "outputs": [
        {
          "internalType": "contract PToken[]",
          "name": "",
          "type": "address[]"
        }
      ],
      "stateMutability": "view",
      "type": "function"
    },
    {
      "inputs": [
        {
          "internalType": "address",
          "name": "account",
          "type": "address"
        },
        {
          "internalType": "address",
          "name": "pTokenModify",
          "type": "address"
        },
        {
          "internalType": "uint256",
          "name": "redeemTokens",
          "type": "uint256"
        },
        {
          "internalType": "uint256",
          "name": "borrowAmount",
          "type": "uint256"
        }
      ],
      "name": "getHypotheticalAccountLiquidity",
      "outputs": [
        {
          "internalType": "uint256",
          "name": "",
          "type": "uint256"
        },
        {
          "internalType": "uint256",
          "name": "",
          "type": "uint256"
        },
        {
          "internalType": "uint256",
          "name": "",
          "type": "uint256"
        }
      ],
      "stateMutability": "view",
      "type": "function"
    },
    {
      "inputs": [],
      "name": "initialize",
      "outputs": [],
      "stateMutability": "nonpayable",
      "type": "function"
    },
    {
      "inputs": [
        {
          "internalType": "address",
          "name": "pToken",
          "type": "address"
        }
      ],
      "name": "isMarketListed",
      "outputs": [
        {
          "internalType": "bool",
          "name": "",
          "type": "bool"
        }
      ],
      "stateMutability": "view",
      "type": "function"
    },
    {
      "inputs": [
        {
          "internalType": "address",
          "name": "pToken",
          "type": "address"
        }
      ],
      "name": "isMarketMinted",
      "outputs": [
        {
          "internalType": "bool",
          "name": "",
          "type": "bool"
        }
      ],
      "stateMutability": "view",
      "type": "function"
    },
    {
      "inputs": [
        {
          "internalType": "address",
          "name": "pTokenBorrowed",
          "type": "address"
        },
        {
          "internalType": "address",
          "name": "pTokenCollateral",
          "type": "address"
        },
        {
          "internalType": "address",
          "name": "liquidator",
          "type": "address"
        },
        {
          "internalType": "address",
          "name": "borrower",
          "type": "address"
        },
        {
          "internalType": "uint256",
          "name": "repayAmount",
          "type": "uint256"
        }
      ],
      "name": "liquidateBorrowAllowed",
      "outputs": [
        {
          "internalType": "uint256",
          "name": "",
          "type": "uint256"
        }
      ],
      "stateMutability": "nonpayable",
      "type": "function"
    },
    {
      "inputs": [
        {
          "internalType": "address",
          "name": "pTokenBorrowed",
          "type": "address"
        },
        {
          "internalType": "address",
          "name": "pTokenCollateral",
          "type": "address"
        },
        {
          "internalType": "address",
          "name": "liquidator",
          "type": "address"
        },
        {
          "internalType": "address",
          "name": "borrower",
          "type": "address"
        },
        {
          "internalType": "uint256",
          "name": "repayAmount",
          "type": "uint256"
        },
        {
          "internalType": "uint256",
          "name": "seizeTokens",
          "type": "uint256"
        }
      ],
      "name": "liquidateBorrowVerify",
      "outputs": [],
      "stateMutability": "nonpayable",
      "type": "function"
    },
    {
      "inputs": [
        {
          "internalType": "address",
          "name": "pTokenBorrowed",
          "type": "address"
        },
        {
          "internalType": "address",
          "name": "pTokenCollateral",
          "type": "address"
        },
        {
          "internalType": "uint256",
          "name": "actualRepayAmount",
          "type": "uint256"
        }
      ],
      "name": "liquidateCalculateSeizeTokens",
      "outputs": [
        {
          "internalType": "uint256",
          "name": "",
          "type": "uint256"
        },
        {
          "internalType": "uint256",
          "name": "",
          "type": "uint256"
        }
      ],
      "stateMutability": "view",
      "type": "function"
    },
    {
      "inputs": [],
      "name": "liquidationIncentiveMantissa",
      "outputs": [
        {
          "internalType": "uint256",
          "name": "",
          "type": "uint256"
        }
      ],
      "stateMutability": "view",
      "type": "function"
    },
    {
      "inputs": [
        {
          "internalType": "address",
          "name": "",
          "type": "address"
        }
      ],
      "name": "markets",
      "outputs": [
        {
          "internalType": "bool",
          "name": "isListed",
          "type": "bool"
        },
        {
          "internalType": "uint256",
          "name": "collateralFactorMantissa",
          "type": "uint256"
        },
        {
          "internalType": "bool",
          "name": "isMinted",
          "type": "bool"
        }
      ],
      "stateMutability": "view",
      "type": "function"
    },
    {
      "inputs": [],
      "name": "maxAssets",
      "outputs": [
        {
          "internalType": "uint256",
          "name": "",
          "type": "uint256"
        }
      ],
      "stateMutability": "view",
      "type": "function"
    },
    {
      "inputs": [
        {
          "internalType": "address",
          "name": "pToken",
          "type": "address"
        },
        {
          "internalType": "address",
          "name": "minter",
          "type": "address"
        },
        {
          "internalType": "uint256",
          "name": "mintAmount",
          "type": "uint256"
        }
      ],
      "name": "mintAllowed",
      "outputs": [
        {
          "internalType": "uint256",
          "name": "",
          "type": "uint256"
        }
      ],
      "stateMutability": "nonpayable",
      "type": "function"
    },
    {
      "inputs": [
        {
          "internalType": "address",
          "name": "",
          "type": "address"
        }
      ],
      "name": "mintCaps",
      "outputs": [
        {
          "internalType": "uint256",
          "name": "",
          "type": "uint256"
        }
      ],
      "stateMutability": "view",
      "type": "function"
    },
    {
      "inputs": [
        {
          "internalType": "address",
          "name": "pToken",
          "type": "address"
        },
        {
          "internalType": "address",
          "name": "minter",
          "type": "address"
        },
        {
          "internalType": "uint256",
          "name": "mintAmount",
          "type": "uint256"
        },
        {
          "internalType": "uint256",
          "name": "mintTokens",
          "type": "uint256"
        }
      ],
      "name": "mintVerify",
      "outputs": [],
      "stateMutability": "nonpayable",
      "type": "function"
    },
    {
      "inputs": [],
      "name": "oracle",
      "outputs": [
        {
          "internalType": "contract IPriceOracle",
          "name": "",
          "type": "address"
        }
      ],
      "stateMutability": "view",
      "type": "function"
    },
    {
      "inputs": [],
      "name": "owner",
      "outputs": [
        {
          "internalType": "address",
          "name": "",
          "type": "address"
        }
      ],
      "stateMutability": "view",
      "type": "function"
    },
    {
      "inputs": [
        {
          "internalType": "address",
          "name": "",
          "type": "address"
        }
      ],
      "name": "pTokenBorrowGuardianPaused",
      "outputs": [
        {
          "internalType": "bool",
          "name": "",
          "type": "bool"
        }
      ],
      "stateMutability": "view",
      "type": "function"
    },
    {
      "inputs": [
        {
          "internalType": "address",
          "name": "",
          "type": "address"
        }
      ],
      "name": "pTokenMintGuardianPaused",
      "outputs": [
        {
          "internalType": "bool",
          "name": "",
          "type": "bool"
        }
      ],
      "stateMutability": "view",
      "type": "function"
    },
    {
      "inputs": [],
      "name": "pauseGuardian",
      "outputs": [
        {
          "internalType": "address",
          "name": "",
          "type": "address"
        }
      ],
      "stateMutability": "view",
      "type": "function"
    },
    {
      "inputs": [
        {
          "internalType": "address",
          "name": "pToken",
          "type": "address"
        },
        {
          "internalType": "address",
          "name": "redeemer",
          "type": "address"
        },
        {
          "internalType": "uint256",
          "name": "redeemTokens",
          "type": "uint256"
        }
      ],
      "name": "redeemAllowed",
      "outputs": [
        {
          "internalType": "uint256",
          "name": "",
          "type": "uint256"
        }
      ],
      "stateMutability": "nonpayable",
      "type": "function"
    },
    {
      "inputs": [
        {
          "internalType": "address",
          "name": "pToken",
          "type": "address"
        },
        {
          "internalType": "address",
          "name": "redeemer",
          "type": "address"
        },
        {
          "internalType": "uint256",
          "name": "redeemAmount",
          "type": "uint256"
        },
        {
          "internalType": "uint256",
          "name": "redeemTokens",
          "type": "uint256"
        }
      ],
      "name": "redeemVerify",
      "outputs": [],
      "stateMutability": "nonpayable",
      "type": "function"
    },
    {
      "inputs": [],
      "name": "renounceOwnership",
      "outputs": [],
      "stateMutability": "nonpayable",
      "type": "function"
    },
    {
      "inputs": [
        {
          "internalType": "address",
          "name": "pToken",
          "type": "address"
        },
        {
          "internalType": "address",
          "name": "payer",
          "type": "address"
        },
        {
          "internalType": "address",
          "name": "borrower",
          "type": "address"
        },
        {
          "internalType": "uint256",
          "name": "repayAmount",
          "type": "uint256"
        }
      ],
      "name": "repayBorrowAllowed",
      "outputs": [
        {
          "internalType": "uint256",
          "name": "",
          "type": "uint256"
        }
      ],
      "stateMutability": "nonpayable",
      "type": "function"
    },
    {
      "inputs": [
        {
          "internalType": "address",
          "name": "pToken",
          "type": "address"
        },
        {
          "internalType": "address",
          "name": "payer",
          "type": "address"
        },
        {
          "internalType": "address",
          "name": "borrower",
          "type": "address"
        },
        {
          "internalType": "uint256",
          "name": "repayAmount",
          "type": "uint256"
        },
        {
          "internalType": "uint256",
          "name": "borrowerIndex",
          "type": "uint256"
        }
      ],
      "name": "repayBorrowVerify",
      "outputs": [],
      "stateMutability": "nonpayable",
      "type": "function"
    },
    {
      "inputs": [
        {
          "internalType": "address",
          "name": "pTokenCollateral",
          "type": "address"
        },
        {
          "internalType": "address",
          "name": "pTokenBorrowed",
          "type": "address"
        },
        {
          "internalType": "address",
          "name": "liquidator",
          "type": "address"
        },
        {
          "internalType": "address",
          "name": "borrower",
          "type": "address"
        },
        {
          "internalType": "uint256",
          "name": "seizeTokens",
          "type": "uint256"
        }
      ],
      "name": "seizeAllowed",
      "outputs": [
        {
          "internalType": "uint256",
          "name": "",
          "type": "uint256"
        }
      ],
      "stateMutability": "nonpayable",
      "type": "function"
    },
    {
      "inputs": [],
      "name": "seizeGuardianPaused",
      "outputs": [
        {
          "internalType": "bool",
          "name": "",
          "type": "bool"
        }
      ],
      "stateMutability": "view",
      "type": "function"
    },
    {
      "inputs": [
        {
          "internalType": "address",
          "name": "pTokenCollateral",
          "type": "address"
        },
        {
          "internalType": "address",
          "name": "pTokenBorrowed",
          "type": "address"
        },
        {
          "internalType": "address",
          "name": "liquidator",
          "type": "address"
        },
        {
          "internalType": "address",
          "name": "borrower",
          "type": "address"
        },
        {
          "internalType": "uint256",
          "name": "seizeTokens",
          "type": "uint256"
        }
      ],
      "name": "seizeVerify",
      "outputs": [],
      "stateMutability": "nonpayable",
      "type": "function"
    },
    {
      "inputs": [
        {
          "internalType": "address",
          "name": "pToken",
          "type": "address"
        },
        {
          "internalType": "address",
          "name": "src",
          "type": "address"
        },
        {
          "internalType": "address",
          "name": "dst",
          "type": "address"
        },
        {
          "internalType": "uint256",
          "name": "transferTokens",
          "type": "uint256"
        }
      ],
      "name": "transferAllowed",
      "outputs": [
        {
          "internalType": "uint256",
          "name": "",
          "type": "uint256"
        }
      ],
      "stateMutability": "nonpayable",
      "type": "function"
    },
    {
      "inputs": [],
      "name": "transferGuardianPaused",
      "outputs": [
        {
          "internalType": "bool",
          "name": "",
          "type": "bool"
        }
      ],
      "stateMutability": "view",
      "type": "function"
    },
    {
      "inputs": [
        {
          "internalType": "address",
          "name": "newOwner",
          "type": "address"
        }
      ],
      "name": "transferOwnership",
      "outputs": [],
      "stateMutability": "nonpayable",
      "type": "function"
    },
    {
      "inputs": [
        {
          "internalType": "address",
          "name": "pToken",
          "type": "address"
        },
        {
          "internalType": "address",
          "name": "src",
          "type": "address"
        },
        {
          "internalType": "address",
          "name": "dst",
          "type": "address"
        },
        {
          "internalType": "uint256",
          "name": "transferTokens",
          "type": "uint256"
        }
      ],
      "name": "transferVerify",
      "outputs": [],
      "stateMutability": "nonpayable",
      "type": "function"
    }
  ],
  "bytecode": "0x60806040523480156200001157600080fd5b5061837480620000226000396000f3fe608060405234801561001057600080fd5b50600436106103c55760003560e01c80636caca4a7116101ff578063ac0b0bb71161011a578063da3d454c116100ad578063e87554461161007c578063e875544614611af0578063eabe7d9114611b0e578063ede4edd014611b90578063f2fde38b14611be8576103c5565b8063da3d454c14611974578063dce15449146119f6578063e4028eee14611a6e578063e6653f3d14611ad0576103c5565b8063c2998238116100e9578063c2998238146116da578063c488847b146117e7578063d02f735114611870578063d9226ced14611932576103c5565b8063ac0b0bb71461155f578063b0772d0b1461157f578063b41dcb58146115de578063bdcdc25814611638576103c5565b80638da5cb5b11610192578063929fe9a111610161578063929fe9a1146113d657806394b2294b14611450578063a76b3fda1461146e578063abfceffc146114c6576103c5565b80638da5cb5b146112985780638e8f294b146112cc5780638ebf63641461133657806390ba83071461137c576103c5565b80637a617e26116101ce5780637a617e26146111e05780637dc0d1d01461123a5780638129fc1c1461126e57806387f7630314611278576103c5565b80636caca4a7146110b05780636d35bf91146110d05780636e80240a1461117e578063715018a6146111d6576103c5565b8063478e3568116102ef57806352d84d1e116102825780635f5af1aa116102515780635f5af1aa14610e3a5780635fc7e71e14610e92578063607ef6c114610f545780636a56947e14611022576103c5565b806352d84d1e14610cb657806355ee1fe114610d0e5780635c77860514610d665780635ec88c7914610dd4576103c5565b80634e79238f116102be5780634e79238f14610ae05780634ef4c3e114610b7a5780634fd42e1714610bfc57806351dff98914610c3e576103c5565b8063478e35681461096257806347ef3b3b146109b25780634a58443214610a6a5780634ada90af14610ac2576103c5565b80632d31f6cf116103675780633bcf7ec1116103365780633bcf7ec11461080a5780633c94786f146108705780633d98a1e51461089057806341c728b9146108ea576103c5565b80632d31f6cf146106e65780632d70db781461073e578063317b0b7714610784578063391957d7146107c6576103c5565b80631ededc91116103a35780631ededc911461054457806321af4569146105dc57806324008a621461061057806324a3d622146106b2576103c5565b8063128aec6e146103ca578063175831041461041057806318c882a5146104de575b600080fd5b6103f8600480360360208110156103e057600080fd5b81019080803515159060200190929190505050611c2c565b60405180821515815260200191505060405180910390f35b6104dc6004803603604081101561042657600080fd5b810190808035906020019064010000000081111561044357600080fd5b82018360208201111561045557600080fd5b8035906020019184602083028401116401000000008311171561047757600080fd5b90919293919293908035906020019064010000000081111561049857600080fd5b8201836020820111156104aa57600080fd5b803590602001918460208302840111640100000000831117156104cc57600080fd5b9091929391929390505050611e5c565b005b61052c600480360360408110156104f457600080fd5b81019080803573ffffffffffffffffffffffffffffffffffffffff1690602001909291908035151590602001909291905050506120df565b60405180821515815260200191505060405180910390f35b6105da600480360360a081101561055a57600080fd5b81019080803573ffffffffffffffffffffffffffffffffffffffff169060200190929190803573ffffffffffffffffffffffffffffffffffffffff169060200190929190803573ffffffffffffffffffffffffffffffffffffffff1690602001909291908035906020019092919080359060200190929190505050612410565b005b6105e4612417565b604051808273ffffffffffffffffffffffffffffffffffffffff16815260200191505060405180910390f35b61069c6004803603608081101561062657600080fd5b81019080803573ffffffffffffffffffffffffffffffffffffffff169060200190929190803573ffffffffffffffffffffffffffffffffffffffff169060200190929190803573ffffffffffffffffffffffffffffffffffffffff1690602001909291908035906020019092919050505061243d565b6040518082815260200191505060405180910390f35b6106ba6125a8565b604051808273ffffffffffffffffffffffffffffffffffffffff16815260200191505060405180910390f35b610728600480360360208110156106fc57600080fd5b81019080803573ffffffffffffffffffffffffffffffffffffffff1690602001909291905050506125ce565b6040518082815260200191505060405180910390f35b61076c6004803603602081101561075457600080fd5b810190808035151590602001909291905050506125e6565b60405180821515815260200191505060405180910390f35b6107b06004803603602081101561079a57600080fd5b8101908080359060200190929190505050612816565b6040518082815260200191505060405180910390f35b610808600480360360208110156107dc57600080fd5b81019080803573ffffffffffffffffffffffffffffffffffffffff1690602001909291905050506129eb565b005b6108586004803603604081101561082057600080fd5b81019080803573ffffffffffffffffffffffffffffffffffffffff169060200190929190803515159060200190929190505050612b8c565b60405180821515815260200191505060405180910390f35b610878612ebd565b60405180821515815260200191505060405180910390f35b6108d2600480360360208110156108a657600080fd5b81019080803573ffffffffffffffffffffffffffffffffffffffff169060200190929190505050612ed0565b60405180821515815260200191505060405180910390f35b6109606004803603608081101561090057600080fd5b81019080803573ffffffffffffffffffffffffffffffffffffffff169060200190929190803573ffffffffffffffffffffffffffffffffffffffff1690602001909291908035906020019092919080359060200190929190505050612f29565b005b6109b06004803603604081101561097857600080fd5b81019080803573ffffffffffffffffffffffffffffffffffffffff169060200190929190803515159060200190929190505050612f2f565b005b610a68600480360360c08110156109c857600080fd5b81019080803573ffffffffffffffffffffffffffffffffffffffff169060200190929190803573ffffffffffffffffffffffffffffffffffffffff169060200190929190803573ffffffffffffffffffffffffffffffffffffffff169060200190929190803573ffffffffffffffffffffffffffffffffffffffff1690602001909291908035906020019092919080359060200190929190505050613070565b005b610aac60048036036020811015610a8057600080fd5b81019080803573ffffffffffffffffffffffffffffffffffffffff169060200190929190505050613078565b6040518082815260200191505060405180910390f35b610aca613090565b6040518082815260200191505060405180910390f35b610b5660048036036080811015610af657600080fd5b81019080803573ffffffffffffffffffffffffffffffffffffffff169060200190929190803573ffffffffffffffffffffffffffffffffffffffff1690602001909291908035906020019092919080359060200190929190505050613096565b60405180848152602001838152602001828152602001935050505060405180910390f35b610be660048036036060811015610b9057600080fd5b81019080803573ffffffffffffffffffffffffffffffffffffffff169060200190929190803573ffffffffffffffffffffffffffffffffffffffff169060200190929190803590602001909291905050506130d2565b6040518082815260200191505060405180910390f35b610c2860048036036020811015610c1257600080fd5b8101908080359060200190929190505050613617565b6040518082815260200191505060405180910390f35b610cb460048036036080811015610c5457600080fd5b81019080803573ffffffffffffffffffffffffffffffffffffffff169060200190929190803573ffffffffffffffffffffffffffffffffffffffff16906020019092919080359060200190929190803590602001909291905050506137ed565b005b610ce260048036036020811015610ccc57600080fd5b81019080803590602001909291905050506137f3565b604051808273ffffffffffffffffffffffffffffffffffffffff16815260200191505060405180910390f35b610d5060048036036020811015610d2457600080fd5b81019080803573ffffffffffffffffffffffffffffffffffffffff16906020019092919050505061382f565b6040518082815260200191505060405180910390f35b610dd260048036036060811015610d7c57600080fd5b81019080803573ffffffffffffffffffffffffffffffffffffffff169060200190929190803573ffffffffffffffffffffffffffffffffffffffff169060200190929190803590602001909291905050506139e1565b005b610e1660048036036020811015610dea57600080fd5b81019080803573ffffffffffffffffffffffffffffffffffffffff1690602001909291905050506139e6565b60405180848152602001838152602001828152602001935050505060405180910390f35b610e7c60048036036020811015610e5057600080fd5b81019080803573ffffffffffffffffffffffffffffffffffffffff169060200190929190505050613a21565b6040518082815260200191505060405180910390f35b610f3e600480360360a0811015610ea857600080fd5b81019080803573ffffffffffffffffffffffffffffffffffffffff169060200190929190803573ffffffffffffffffffffffffffffffffffffffff169060200190929190803573ffffffffffffffffffffffffffffffffffffffff169060200190929190803573ffffffffffffffffffffffffffffffffffffffff16906020019092919080359060200190929190505050613bf7565b6040518082815260200191505060405180910390f35b61102060048036036040811015610f6a57600080fd5b8101908080359060200190640100000000811115610f8757600080fd5b820183602082011115610f9957600080fd5b80359060200191846020830284011164010000000083111715610fbb57600080fd5b909192939192939080359060200190640100000000811115610fdc57600080fd5b820183602082011115610fee57600080fd5b8035906020019184602083028401116401000000008311171561101057600080fd5b9091929391929390505050613e5a565b005b6110ae6004803603608081101561103857600080fd5b81019080803573ffffffffffffffffffffffffffffffffffffffff169060200190929190803573ffffffffffffffffffffffffffffffffffffffff169060200190929190803573ffffffffffffffffffffffffffffffffffffffff169060200190929190803590602001909291905050506140f6565b005b6110b86140fc565b60405180821515815260200191505060405180910390f35b61117c600480360360a08110156110e657600080fd5b81019080803573ffffffffffffffffffffffffffffffffffffffff169060200190929190803573ffffffffffffffffffffffffffffffffffffffff169060200190929190803573ffffffffffffffffffffffffffffffffffffffff169060200190929190803573ffffffffffffffffffffffffffffffffffffffff1690602001909291908035906020019092919050505061410f565b005b6111c06004803603602081101561119457600080fd5b81019080803573ffffffffffffffffffffffffffffffffffffffff169060200190929190505050614116565b6040518082815260200191505060405180910390f35b6111de6142ca565b005b611222600480360360208110156111f657600080fd5b81019080803573ffffffffffffffffffffffffffffffffffffffff169060200190929190505050614455565b60405180821515815260200191505060405180910390f35b611242614475565b604051808273ffffffffffffffffffffffffffffffffffffffff16815260200191505060405180910390f35b611276614499565b005b6112806145a4565b60405180821515815260200191505060405180910390f35b6112a06145b7565b604051808273ffffffffffffffffffffffffffffffffffffffff16815260200191505060405180910390f35b61130e600480360360208110156112e257600080fd5b81019080803573ffffffffffffffffffffffffffffffffffffffff1690602001909291905050506145e1565b6040518084151581526020018381526020018215158152602001935050505060405180910390f35b6113646004803603602081101561134c57600080fd5b81019080803515159060200190929190505050614625565b60405180821515815260200191505060405180910390f35b6113be6004803603602081101561139257600080fd5b81019080803573ffffffffffffffffffffffffffffffffffffffff169060200190929190505050614855565b60405180821515815260200191505060405180910390f35b611438600480360360408110156113ec57600080fd5b81019080803573ffffffffffffffffffffffffffffffffffffffff169060200190929190803573ffffffffffffffffffffffffffffffffffffffff1690602001909291905050506148ae565b60405180821515815260200191505060405180910390f35b611458614945565b6040518082815260200191505060405180910390f35b6114b06004803603602081101561148457600080fd5b81019080803573ffffffffffffffffffffffffffffffffffffffff16906020019092919050505061494b565b6040518082815260200191505060405180910390f35b611508600480360360208110156114dc57600080fd5b81019080803573ffffffffffffffffffffffffffffffffffffffff169060200190929190505050614b98565b6040518080602001828103825283818151815260200191508051906020019060200280838360005b8381101561154b578082015181840152602081019050611530565b505050509050019250505060405180910390f35b611567614c6a565b60405180821515815260200191505060405180910390f35b611587614c7d565b6040518080602001828103825283818151815260200191508051906020019060200280838360005b838110156115ca5780820151818401526020810190506115af565b505050509050019250505060405180910390f35b611620600480360360208110156115f457600080fd5b81019080803573ffffffffffffffffffffffffffffffffffffffff169060200190929190505050614d0b565b60405180821515815260200191505060405180910390f35b6116c46004803603608081101561164e57600080fd5b81019080803573ffffffffffffffffffffffffffffffffffffffff169060200190929190803573ffffffffffffffffffffffffffffffffffffffff169060200190929190803573ffffffffffffffffffffffffffffffffffffffff16906020019092919080359060200190929190505050614d2b565b6040518082815260200191505060405180910390f35b611790600480360360208110156116f057600080fd5b810190808035906020019064010000000081111561170d57600080fd5b82018360208201111561171f57600080fd5b8035906020019184602083028401116401000000008311171561174157600080fd5b919080806020026020016040519081016040528093929190818152602001838360200280828437600081840152601f19601f820116905080830192505050505050509192919290505050614efb565b6040518080602001828103825283818151815260200191508051906020019060200280838360005b838110156117d35780820151818401526020810190506117b8565b505050509050019250505060405180910390f35b611853600480360360608110156117fd57600080fd5b81019080803573ffffffffffffffffffffffffffffffffffffffff169060200190929190803573ffffffffffffffffffffffffffffffffffffffff16906020019092919080359060200190929190505050614fb7565b604051808381526020018281526020019250505060405180910390f35b61191c600480360360a081101561188657600080fd5b81019080803573ffffffffffffffffffffffffffffffffffffffff169060200190929190803573ffffffffffffffffffffffffffffffffffffffff169060200190929190803573ffffffffffffffffffffffffffffffffffffffff169060200190929190803573ffffffffffffffffffffffffffffffffffffffff1690602001909291908035906020019092919050505061537c565b6040518082815260200191505060405180910390f35b61195e6004803603602081101561194857600080fd5b810190808035906020019092919050505061572a565b6040518082815260200191505060405180910390f35b6119e06004803603606081101561198a57600080fd5b81019080803573ffffffffffffffffffffffffffffffffffffffff169060200190929190803573ffffffffffffffffffffffffffffffffffffffff16906020019092919080359060200190929190505050615858565b6040518082815260200191505060405180910390f35b611a4260048036036040811015611a0c57600080fd5b81019080803573ffffffffffffffffffffffffffffffffffffffff16906020019092919080359060200190929190505050615fbb565b604051808273ffffffffffffffffffffffffffffffffffffffff16815260200191505060405180910390f35b611aba60048036036040811015611a8457600080fd5b81019080803573ffffffffffffffffffffffffffffffffffffffff16906020019092919080359060200190929190505050616006565b6040518082815260200191505060405180910390f35b611ad8616315565b60405180821515815260200191505060405180910390f35b611af8616328565b6040518082815260200191505060405180910390f35b611b7a60048036036060811015611b2457600080fd5b81019080803573ffffffffffffffffffffffffffffffffffffffff169060200190929190803573ffffffffffffffffffffffffffffffffffffffff1690602001909291908035906020019092919050505061632e565b6040518082815260200191505060405180910390f35b611bd260048036036020811015611ba657600080fd5b81019080803573ffffffffffffffffffffffffffffffffffffffff16906020019092919050505061645b565b6040518082815260200191505060405180910390f35b611c2a60048036036020811015611bfe57600080fd5b81019080803573ffffffffffffffffffffffffffffffffffffffff1690602001909291905050506169b8565b005b6000600660009054906101000a900473ffffffffffffffffffffffffffffffffffffffff1673ffffffffffffffffffffffffffffffffffffffff163373ffffffffffffffffffffffffffffffffffffffff161480611cbc5750611c8d6145b7565b73ffffffffffffffffffffffffffffffffffffffff163373ffffffffffffffffffffffffffffffffffffffff16145b611d11576040517f08c379a00000000000000000000000000000000000000000000000000000000081526004018080602001828103825260278152602001806182906027913960400191505060405180910390fd5b611d196145b7565b73ffffffffffffffffffffffffffffffffffffffff163373ffffffffffffffffffffffffffffffffffffffff161480611d56575060011515821515145b611dc8576040517f08c379a00000000000000000000000000000000000000000000000000000000081526004018080602001828103825260168152602001807f6f6e6c79206f776e65722063616e20756e70617573650000000000000000000081525060200191505060405180910390fd5b81600960006101000a81548160ff0219169083151502179055507fef159d9a32b2472e32b098f954f3ce62d232939f1c207070b584df1814de2de082604051808060200183151581526020018281038252600d8152602001807f44697374726962757465577063000000000000000000000000000000000000008152506020019250505060405180910390a1819050919050565b611e64616bc8565b73ffffffffffffffffffffffffffffffffffffffff16607160009054906101000a900473ffffffffffffffffffffffffffffffffffffffff1673ffffffffffffffffffffffffffffffffffffffff1614611f26576040517f08c379a00000000000000000000000000000000000000000000000000000000081526004018080602001828103825260208152602001807f4f776e61626c653a2063616c6c6572206973206e6f7420746865206f776e657281525060200191505060405180910390fd5b6000848490509050600083839050905060008214158015611f4657508082145b611fb8576040517f08c379a000000000000000000000000000000000000000000000000000000000815260040180806020018281038252600d8152602001807f696e76616c696420696e7075740000000000000000000000000000000000000081525060200191505060405180910390fd5b60005b828110156120d657848482818110611fcf57fe5b9050602002013560a46000898985818110611fe657fe5b9050602002013573ffffffffffffffffffffffffffffffffffffffff1673ffffffffffffffffffffffffffffffffffffffff1673ffffffffffffffffffffffffffffffffffffffff1681526020019081526020016000208190555086868281811061204d57fe5b9050602002013573ffffffffffffffffffffffffffffffffffffffff1673ffffffffffffffffffffffffffffffffffffffff167f6f1951b2aad10f3fc81b86d91105b413a5b3f847a34bbc5ce1904201b14438f68686848181106120ad57fe5b905060200201356040518082815260200191505060405180910390a28080600101915050611fbb565b50505050505050565b6000600560008473ffffffffffffffffffffffffffffffffffffffff1673ffffffffffffffffffffffffffffffffffffffff16815260200190815260200160002060000160009054906101000a900460ff16612186576040517f08c379a00000000000000000000000000000000000000000000000000000000081526004018080602001828103825260288152602001806182186028913960400191505060405180910390fd5b600660009054906101000a900473ffffffffffffffffffffffffffffffffffffffff1673ffffffffffffffffffffffffffffffffffffffff163373ffffffffffffffffffffffffffffffffffffffff16148061221457506121e56145b7565b73ffffffffffffffffffffffffffffffffffffffff163373ffffffffffffffffffffffffffffffffffffffff16145b612269576040517f08c379a00000000000000000000000000000000000000000000000000000000081526004018080602001828103825260278152602001806182906027913960400191505060405180910390fd5b6122716145b7565b73ffffffffffffffffffffffffffffffffffffffff163373ffffffffffffffffffffffffffffffffffffffff1614806122ae575060011515821515145b612320576040517f08c379a00000000000000000000000000000000000000000000000000000000081526004018080602001828103825260168152602001807f6f6e6c79206f776e65722063616e20756e70617573650000000000000000000081525060200191505060405180910390fd5b81600860008573ffffffffffffffffffffffffffffffffffffffff1673ffffffffffffffffffffffffffffffffffffffff16815260200190815260200160002060006101000a81548160ff0219169083151502179055507f71aec636243f9709bb0007ae15e9afb8150ab01716d75fd7573be5cc096e03b08383604051808373ffffffffffffffffffffffffffffffffffffffff168152602001806020018315158152602001828103825260068152602001807f426f72726f770000000000000000000000000000000000000000000000000000815250602001935050505060405180910390a181905092915050565b5050505050565b600960019054906101000a900473ffffffffffffffffffffffffffffffffffffffff1681565b6000600560008673ffffffffffffffffffffffffffffffffffffffff1673ffffffffffffffffffffffffffffffffffffffff16815260200190815260200160002060000160009054906101000a900460ff166124a757600960118111156124a057fe5b90506125a0565b60001515600960009054906101000a900460ff16151514156125905760a360009054906101000a900473ffffffffffffffffffffffffffffffffffffffff1673ffffffffffffffffffffffffffffffffffffffff166392e1a295868560006040518463ffffffff1660e01b8152600401808473ffffffffffffffffffffffffffffffffffffffff1681526020018373ffffffffffffffffffffffffffffffffffffffff16815260200182151581526020019350505050600060405180830381600087803b15801561257757600080fd5b505af115801561258b573d6000803e3d6000fd5b505050505b6000601181111561259d57fe5b90505b949350505050565b600660009054906101000a900473ffffffffffffffffffffffffffffffffffffffff1681565b60a46020528060005260406000206000915090505481565b6000600660009054906101000a900473ffffffffffffffffffffffffffffffffffffffff1673ffffffffffffffffffffffffffffffffffffffff163373ffffffffffffffffffffffffffffffffffffffff16148061267657506126476145b7565b73ffffffffffffffffffffffffffffffffffffffff163373ffffffffffffffffffffffffffffffffffffffff16145b6126cb576040517f08c379a00000000000000000000000000000000000000000000000000000000081526004018080602001828103825260278152602001806182906027913960400191505060405180910390fd5b6126d36145b7565b73ffffffffffffffffffffffffffffffffffffffff163373ffffffffffffffffffffffffffffffffffffffff161480612710575060011515821515145b612782576040517f08c379a00000000000000000000000000000000000000000000000000000000081526004018080602001828103825260168152602001807f6f6e6c79206f776e65722063616e20756e70617573650000000000000000000081525060200191505060405180910390fd5b81600660176101000a81548160ff0219169083151502179055507fef159d9a32b2472e32b098f954f3ce62d232939f1c207070b584df1814de2de08260405180806020018315158152602001828103825260058152602001807f5365697a650000000000000000000000000000000000000000000000000000008152506020019250505060405180910390a1819050919050565b6000612820616bc8565b73ffffffffffffffffffffffffffffffffffffffff16607160009054906101000a900473ffffffffffffffffffffffffffffffffffffffff1673ffffffffffffffffffffffffffffffffffffffff16146128e2576040517f08c379a00000000000000000000000000000000000000000000000000000000081526004018080602001828103825260208152602001807f4f776e61626c653a2063616c6c6572206973206e6f7420746865206f776e657281525060200191505060405180910390fd5b6128ea618199565b6040518060200160405280848152509050612903618199565b604051806020016040528066b1a2bc2ec5000081525090506129258282616bd0565b1561293e57612935600580616be6565b925050506129e6565b612946618199565b6040518060200160405280670c7d713b49da000081525090506129698184616c5a565b1561298357612979600580616be6565b93505050506129e6565b60006001549050856001819055507f3b9670cf975d26958e754b57098eaa2ac914d8d2a31b83257997b9f346110fd981600154604051808381526020018281526020019250505060405180910390a1600060118111156129df57fe5b9450505050505b919050565b6129f3616bc8565b73ffffffffffffffffffffffffffffffffffffffff16607160009054906101000a900473ffffffffffffffffffffffffffffffffffffffff1673ffffffffffffffffffffffffffffffffffffffff1614612ab5576040517f08c379a00000000000000000000000000000000000000000000000000000000081526004018080602001828103825260208152602001807f4f776e61626c653a2063616c6c6572206973206e6f7420746865206f776e657281525060200191505060405180910390fd5b6000600960019054906101000a900473ffffffffffffffffffffffffffffffffffffffff16905081600960016101000a81548173ffffffffffffffffffffffffffffffffffffffff021916908373ffffffffffffffffffffffffffffffffffffffff1602179055507feda98690e518e9a05f8ec6837663e188211b2da8f4906648b323f2c1d4434e298183604051808373ffffffffffffffffffffffffffffffffffffffff1681526020018273ffffffffffffffffffffffffffffffffffffffff1681526020019250505060405180910390a15050565b6000600560008473ffffffffffffffffffffffffffffffffffffffff1673ffffffffffffffffffffffffffffffffffffffff16815260200190815260200160002060000160009054906101000a900460ff16612c33576040517f08c379a00000000000000000000000000000000000000000000000000000000081526004018080602001828103825260288152602001806182186028913960400191505060405180910390fd5b600660009054906101000a900473ffffffffffffffffffffffffffffffffffffffff1673ffffffffffffffffffffffffffffffffffffffff163373ffffffffffffffffffffffffffffffffffffffff161480612cc15750612c926145b7565b73ffffffffffffffffffffffffffffffffffffffff163373ffffffffffffffffffffffffffffffffffffffff16145b612d16576040517f08c379a00000000000000000000000000000000000000000000000000000000081526004018080602001828103825260278152602001806182906027913960400191505060405180910390fd5b612d1e6145b7565b73ffffffffffffffffffffffffffffffffffffffff163373ffffffffffffffffffffffffffffffffffffffff161480612d5b575060011515821515145b612dcd576040517f08c379a00000000000000000000000000000000000000000000000000000000081526004018080602001828103825260168152602001807f6f6e6c79206f776e65722063616e20756e70617573650000000000000000000081525060200191505060405180910390fd5b81600760008573ffffffffffffffffffffffffffffffffffffffff1673ffffffffffffffffffffffffffffffffffffffff16815260200190815260200160002060006101000a81548160ff0219169083151502179055507f71aec636243f9709bb0007ae15e9afb8150ab01716d75fd7573be5cc096e03b08383604051808373ffffffffffffffffffffffffffffffffffffffff168152602001806020018315158152602001828103825260048152602001807f4d696e7400000000000000000000000000000000000000000000000000000000815250602001935050505060405180910390a181905092915050565b600660149054906101000a900460ff1681565b6000600560008373ffffffffffffffffffffffffffffffffffffffff1673ffffffffffffffffffffffffffffffffffffffff16815260200190815260200160002060000160009054906101000a900460ff169050919050565b50505050565b60a360009054906101000a900473ffffffffffffffffffffffffffffffffffffffff1673ffffffffffffffffffffffffffffffffffffffff163373ffffffffffffffffffffffffffffffffffffffff161480612fbd5750612f8e6145b7565b73ffffffffffffffffffffffffffffffffffffffff163373ffffffffffffffffffffffffffffffffffffffff16145b613012576040517f08c379a000000000000000000000000000000000000000000000000000000000815260040180806020018281038252602a815260200180618266602a913960400191505060405180910390fd5b80600560008473ffffffffffffffffffffffffffffffffffffffff1673ffffffffffffffffffffffffffffffffffffffff16815260200190815260200160002060030160006101000a81548160ff0219169083151502179055505050565b505050505050565b600a6020528060005260406000206000915090505481565b60025481565b6000806000806000806130ab8a8a8a8a616c6f565b9250925092508260118111156130bd57fe5b82829550955095505050509450945094915050565b6000600760008573ffffffffffffffffffffffffffffffffffffffff1673ffffffffffffffffffffffffffffffffffffffff16815260200190815260200160002060009054906101000a900460ff1615613194576040517f08c379a000000000000000000000000000000000000000000000000000000000815260040180806020018281038252600e8152602001807f6d696e742069732070617573656400000000000000000000000000000000000081525060200191505060405180910390fd5b600560008573ffffffffffffffffffffffffffffffffffffffff1673ffffffffffffffffffffffffffffffffffffffff16815260200190815260200160002060000160009054906101000a900460ff166131fc57600960118111156131f557fe5b9050613610565b600060a460008673ffffffffffffffffffffffffffffffffffffffff1673ffffffffffffffffffffffffffffffffffffffff168152602001908152602001600020549050600081146135165760008573ffffffffffffffffffffffffffffffffffffffff166318160ddd6040518163ffffffff1660e01b815260040160206040518083038186803b15801561329057600080fd5b505afa1580156132a4573d6000803e3d6000fd5b505050506040513d60208110156132ba57600080fd5b8101908080519060200190929190505050905060008673ffffffffffffffffffffffffffffffffffffffff1663182df0f56040518163ffffffff1660e01b815260040160206040518083038186803b15801561331557600080fd5b505afa158015613329573d6000803e3d6000fd5b505050506040513d602081101561333f57600080fd5b8101908080519060200190929190505050905060008061336d60405180602001604052808581525085617230565b915091506000600381111561337e57fe5b82600381111561338a57fe5b146133fd576040517f08c379a000000000000000000000000000000000000000000000000000000000815260040180806020018281038252601f8152602001807f62616c616e636520636f756c64206e6f742062652063616c63756c617465640081525060200191505060405180910390fd5b60008061340a838a617290565b915091506000600381111561341b57fe5b82600381111561342757fe5b1461349a576040517f08c379a000000000000000000000000000000000000000000000000000000000815260040180806020018281038252601a8152602001807f746f74616c206d696e7420616d6f756e74206f766572666c6f7700000000000081525060200191505060405180910390fd5b86811061350f576040517f08c379a00000000000000000000000000000000000000000000000000000000081526004018080602001828103825260178152602001807f6d61726b6574206d696e7420636170207265616368656400000000000000000081525060200191505060405180910390fd5b5050505050505b60001515600960009054906101000a900460ff16151514156135ff5760a360009054906101000a900473ffffffffffffffffffffffffffffffffffffffff1673ffffffffffffffffffffffffffffffffffffffff16632f7d336a868660006040518463ffffffff1660e01b8152600401808473ffffffffffffffffffffffffffffffffffffffff1681526020018373ffffffffffffffffffffffffffffffffffffffff16815260200182151581526020019350505050600060405180830381600087803b1580156135e657600080fd5b505af11580156135fa573d6000803e3d6000fd5b505050505b6000601181111561360c57fe5b9150505b9392505050565b6000613621616bc8565b73ffffffffffffffffffffffffffffffffffffffff16607160009054906101000a900473ffffffffffffffffffffffffffffffffffffffff1673ffffffffffffffffffffffffffffffffffffffff16146136e3576040517f08c379a00000000000000000000000000000000000000000000000000000000081526004018080602001828103825260208152602001807f4f776e61626c653a2063616c6c6572206973206e6f7420746865206f776e657281525060200191505060405180910390fd5b6136eb618199565b6040518060200160405280848152509050613704618199565b6040518060200160405280670de0b6b3a764000081525090506137278282616c5a565b15613741576137386007600c616be6565b925050506137e8565b613749618199565b60405180602001604052806714d1120d7b160000815250905061376c8184616c5a565b156137875761377d6007600c616be6565b93505050506137e8565b60006002549050856002819055507faeba5a6c40a8ac138134bff1aaa65debf25971188a58804bad717f82f0ec13168187604051808381526020018281526020019250505060405180910390a1600060118111156137e157fe5b9450505050505b919050565b50505050565b600b818154811061380057fe5b906000526020600020016000915054906101000a900473ffffffffffffffffffffffffffffffffffffffff1681565b6000613839616bc8565b73ffffffffffffffffffffffffffffffffffffffff16607160009054906101000a900473ffffffffffffffffffffffffffffffffffffffff1673ffffffffffffffffffffffffffffffffffffffff16146138fb576040517f08c379a00000000000000000000000000000000000000000000000000000000081526004018080602001828103825260208152602001807f4f776e61626c653a2063616c6c6572206973206e6f7420746865206f776e657281525060200191505060405180910390fd5b60008060009054906101000a900473ffffffffffffffffffffffffffffffffffffffff169050826000806101000a81548173ffffffffffffffffffffffffffffffffffffffff021916908373ffffffffffffffffffffffffffffffffffffffff1602179055507fd52b2b9b7e9ee655fcb95d2e5b9e0c9f69e7ef2b8e9d2d0ea78402d576d22e228184604051808373ffffffffffffffffffffffffffffffffffffffff1681526020018273ffffffffffffffffffffffffffffffffffffffff1681526020019250505060405180910390a1600060118111156139d957fe5b915050919050565b505050565b6000806000806000806139fd876000806000616c6f565b925092509250826011811115613a0f57fe5b82829550955095505050509193909250565b6000613a2b616bc8565b73ffffffffffffffffffffffffffffffffffffffff16607160009054906101000a900473ffffffffffffffffffffffffffffffffffffffff1673ffffffffffffffffffffffffffffffffffffffff1614613aed576040517f08c379a00000000000000000000000000000000000000000000000000000000081526004018080602001828103825260208152602001807f4f776e61626c653a2063616c6c6572206973206e6f7420746865206f776e657281525060200191505060405180910390fd5b6000600660009054906101000a900473ffffffffffffffffffffffffffffffffffffffff16905082600660006101000a81548173ffffffffffffffffffffffffffffffffffffffff021916908373ffffffffffffffffffffffffffffffffffffffff1602179055507f0613b6ee6a04f0d09f390e4d9318894b9f6ac7fd83897cd8d18896ba579c401e81600660009054906101000a900473ffffffffffffffffffffffffffffffffffffffff16604051808373ffffffffffffffffffffffffffffffffffffffff1681526020018273ffffffffffffffffffffffffffffffffffffffff1681526020019250505060405180910390a160006011811115613bef57fe5b915050919050565b6000600560008773ffffffffffffffffffffffffffffffffffffffff1673ffffffffffffffffffffffffffffffffffffffff16815260200190815260200160002060000160009054906101000a900460ff161580613ca25750600560008673ffffffffffffffffffffffffffffffffffffffff1673ffffffffffffffffffffffffffffffffffffffff16815260200190815260200160002060000160009054906101000a900460ff16155b15613cbb5760096011811115613cb457fe5b9050613e51565b600080613cc7856172bf565b925050915060006011811115613cd957fe5b826011811115613ce557fe5b14613cff57816011811115613cf657fe5b92505050613e51565b6000811415613d1e5760036011811115613d1557fe5b92505050613e51565b60008873ffffffffffffffffffffffffffffffffffffffff166395dd9193876040518263ffffffff1660e01b8152600401808273ffffffffffffffffffffffffffffffffffffffff16815260200191505060206040518083038186803b158015613d8757600080fd5b505afa158015613d9b573d6000803e3d6000fd5b505050506040513d6020811015613db157600080fd5b81019080805190602001909291905050509050600080613de1604051806020016040528060015481525084617230565b9150915060006003811115613df257fe5b826003811115613dfe57fe5b14613e1c57600b6011811115613e1057fe5b95505050505050613e51565b80871115613e3c57601180811115613e3057fe5b95505050505050613e51565b60006011811115613e4957fe5b955050505050505b95945050505050565b613e626145b7565b73ffffffffffffffffffffffffffffffffffffffff163373ffffffffffffffffffffffffffffffffffffffff161480613ee85750600960019054906101000a900473ffffffffffffffffffffffffffffffffffffffff1673ffffffffffffffffffffffffffffffffffffffff163373ffffffffffffffffffffffffffffffffffffffff16145b613f3d576040517f08c379a00000000000000000000000000000000000000000000000000000000081526004018080602001828103825260358152602001806182e56035913960400191505060405180910390fd5b6000848490509050600083839050905060008214158015613f5d57508082145b613fcf576040517f08c379a000000000000000000000000000000000000000000000000000000000815260040180806020018281038252600d8152602001807f696e76616c696420696e7075740000000000000000000000000000000000000081525060200191505060405180910390fd5b60005b828110156140ed57848482818110613fe657fe5b90506020020135600a6000898985818110613ffd57fe5b9050602002013573ffffffffffffffffffffffffffffffffffffffff1673ffffffffffffffffffffffffffffffffffffffff1673ffffffffffffffffffffffffffffffffffffffff1681526020019081526020016000208190555086868281811061406457fe5b9050602002013573ffffffffffffffffffffffffffffffffffffffff1673ffffffffffffffffffffffffffffffffffffffff167f6f1951b2aad10f3fc81b86d91105b413a5b3f847a34bbc5ce1904201b14438f68686848181106140c457fe5b905060200201356040518082815260200191505060405180910390a28080600101915050613fd2565b50505050505050565b50505050565b600960009054906101000a900460ff1681565b5050505050565b6000614120616bc8565b73ffffffffffffffffffffffffffffffffffffffff16607160009054906101000a900473ffffffffffffffffffffffffffffffffffffffff1673ffffffffffffffffffffffffffffffffffffffff16146141e2576040517f08c379a00000000000000000000000000000000000000000000000000000000081526004018080602001828103825260208152602001807f4f776e61626c653a2063616c6c6572206973206e6f7420746865206f776e657281525060200191505060405180910390fd5b600060a360009054906101000a900473ffffffffffffffffffffffffffffffffffffffff1690508260a360006101000a81548173ffffffffffffffffffffffffffffffffffffffff021916908373ffffffffffffffffffffffffffffffffffffffff1602179055507f49bc9b2543c3ca3ee52cef393ce2ebfd201ed081bfc931f8d6ee2121c99f83c88184604051808373ffffffffffffffffffffffffffffffffffffffff1681526020018273ffffffffffffffffffffffffffffffffffffffff1681526020019250505060405180910390a1600060118111156142c257fe5b915050919050565b6142d2616bc8565b73ffffffffffffffffffffffffffffffffffffffff16607160009054906101000a900473ffffffffffffffffffffffffffffffffffffffff1673ffffffffffffffffffffffffffffffffffffffff1614614394576040517f08c379a00000000000000000000000000000000000000000000000000000000081526004018080602001828103825260208152602001807f4f776e61626c653a2063616c6c6572206973206e6f7420746865206f776e657281525060200191505060405180910390fd5b600073ffffffffffffffffffffffffffffffffffffffff16607160009054906101000a900473ffffffffffffffffffffffffffffffffffffffff1673ffffffffffffffffffffffffffffffffffffffff167f8be0079c531659141344cd1fd0a4f28419497f9722a3daafe3b4186f6b6457e060405160405180910390a36000607160006101000a81548173ffffffffffffffffffffffffffffffffffffffff021916908373ffffffffffffffffffffffffffffffffffffffff160217905550565b60076020528060005260406000206000915054906101000a900460ff1681565b60008054906101000a900473ffffffffffffffffffffffffffffffffffffffff1681565b600c60019054906101000a900460ff16806144b857506144b76172df565b5b806144d05750600c60009054906101000a900460ff16155b614525576040517f08c379a000000000000000000000000000000000000000000000000000000000815260040180806020018281038252602e8152602001806182b7602e913960400191505060405180910390fd5b6000600c60019054906101000a900460ff161590508015614577576001600c60016101000a81548160ff0219169083151502179055506001600c60006101000a81548160ff0219169083151502179055505b61457f6172f6565b80156145a1576000600c60016101000a81548160ff0219169083151502179055505b50565b600660169054906101000a900460ff1681565b6000607160009054906101000a900473ffffffffffffffffffffffffffffffffffffffff16905090565b60056020528060005260406000206000915090508060000160009054906101000a900460ff16908060010154908060030160009054906101000a900460ff16905083565b6000600660009054906101000a900473ffffffffffffffffffffffffffffffffffffffff1673ffffffffffffffffffffffffffffffffffffffff163373ffffffffffffffffffffffffffffffffffffffff1614806146b557506146866145b7565b73ffffffffffffffffffffffffffffffffffffffff163373ffffffffffffffffffffffffffffffffffffffff16145b61470a576040517f08c379a00000000000000000000000000000000000000000000000000000000081526004018080602001828103825260278152602001806182906027913960400191505060405180910390fd5b6147126145b7565b73ffffffffffffffffffffffffffffffffffffffff163373ffffffffffffffffffffffffffffffffffffffff16148061474f575060011515821515145b6147c1576040517f08c379a00000000000000000000000000000000000000000000000000000000081526004018080602001828103825260168152602001807f6f6e6c79206f776e65722063616e20756e70617573650000000000000000000081525060200191505060405180910390fd5b81600660166101000a81548160ff0219169083151502179055507fef159d9a32b2472e32b098f954f3ce62d232939f1c207070b584df1814de2de08260405180806020018315158152602001828103825260088152602001807f5472616e736665720000000000000000000000000000000000000000000000008152506020019250505060405180910390a1819050919050565b6000600560008373ffffffffffffffffffffffffffffffffffffffff1673ffffffffffffffffffffffffffffffffffffffff16815260200190815260200160002060030160009054906101000a900460ff169050919050565b6000600560008373ffffffffffffffffffffffffffffffffffffffff1673ffffffffffffffffffffffffffffffffffffffff16815260200190815260200160002060020160008473ffffffffffffffffffffffffffffffffffffffff1673ffffffffffffffffffffffffffffffffffffffff16815260200190815260200160002060009054906101000a900460ff16905092915050565b60035481565b6000614955616bc8565b73ffffffffffffffffffffffffffffffffffffffff16607160009054906101000a900473ffffffffffffffffffffffffffffffffffffffff1673ffffffffffffffffffffffffffffffffffffffff1614614a17576040517f08c379a00000000000000000000000000000000000000000000000000000000081526004018080602001828103825260208152602001807f4f776e61626c653a2063616c6c6572206973206e6f7420746865206f776e657281525060200191505060405180910390fd5b600560008373ffffffffffffffffffffffffffffffffffffffff1673ffffffffffffffffffffffffffffffffffffffff16815260200190815260200160002060000160009054906101000a900460ff1615614a7f57614a78600a6011616be6565b9050614b93565b60405180606001604052806001151581526020016000815260200160001515815250600560008473ffffffffffffffffffffffffffffffffffffffff1673ffffffffffffffffffffffffffffffffffffffff16815260200190815260200160002060008201518160000160006101000a81548160ff0219169083151502179055506020820151816001015560408201518160030160006101000a81548160ff021916908315150217905550905050614b3682617409565b7fcf583bb0c569eb967f806b11601c4cb93c10310485c67add5f8362c2f212321f82604051808273ffffffffffffffffffffffffffffffffffffffff16815260200191505060405180910390a160006011811115614b9057fe5b90505b919050565b606080600460008473ffffffffffffffffffffffffffffffffffffffff1673ffffffffffffffffffffffffffffffffffffffff168152602001908152602001600020805480602002602001604051908101604052809291908181526020018280548015614c5a57602002820191906000526020600020905b8160009054906101000a900473ffffffffffffffffffffffffffffffffffffffff1673ffffffffffffffffffffffffffffffffffffffff1681526020019060010190808311614c10575b5050505050905080915050919050565b600660179054906101000a900460ff1681565b6060600b805480602002602001604051908101604052809291908181526020018280548015614d0157602002820191906000526020600020905b8160009054906101000a900473ffffffffffffffffffffffffffffffffffffffff1673ffffffffffffffffffffffffffffffffffffffff1681526020019060010190808311614cb7575b5050505050905090565b60086020528060005260406000206000915054906101000a900460ff1681565b6000600660169054906101000a900460ff1615614db0576040517f08c379a00000000000000000000000000000000000000000000000000000000081526004018080602001828103825260128152602001807f7472616e7366657220697320706175736564000000000000000000000000000081525060200191505060405180910390fd5b6000614dbd868685617630565b905060006011811115614dcc57fe5b8114614ddb5780915050614ef3565b60001515600960009054906101000a900460ff1615151415614ee25760a360009054906101000a900473ffffffffffffffffffffffffffffffffffffffff1673ffffffffffffffffffffffffffffffffffffffff16634cd54b7a87878760006040518563ffffffff1660e01b8152600401808573ffffffffffffffffffffffffffffffffffffffff1681526020018473ffffffffffffffffffffffffffffffffffffffff1681526020018373ffffffffffffffffffffffffffffffffffffffff1681526020018215158152602001945050505050600060405180830381600087803b158015614ec957600080fd5b505af1158015614edd573d6000803e3d6000fd5b505050505b60006011811115614eef57fe5b9150505b949350505050565b606060008251905060608167ffffffffffffffff81118015614f1c57600080fd5b50604051908082528060200260200182016040528015614f4b5781602001602082028036833780820191505090505b50905060005b82811015614fac576000858281518110614f6757fe5b60200260200101519050614f7b81336177bf565b6011811115614f8657fe5b838381518110614f9257fe5b602002602001018181525050508080600101915050614f51565b508092505050919050565b60008060008060009054906101000a900473ffffffffffffffffffffffffffffffffffffffff1673ffffffffffffffffffffffffffffffffffffffff1663fc57d4df876040518263ffffffff1660e01b8152600401808273ffffffffffffffffffffffffffffffffffffffff16815260200191505060206040518083038186803b15801561504457600080fd5b505afa158015615058573d6000803e3d6000fd5b505050506040513d602081101561506e57600080fd5b8101908080519060200190929190505050905060008060009054906101000a900473ffffffffffffffffffffffffffffffffffffffff1673ffffffffffffffffffffffffffffffffffffffff1663fc57d4df876040518263ffffffff1660e01b8152600401808273ffffffffffffffffffffffffffffffffffffffff16815260200191505060206040518083038186803b15801561510b57600080fd5b505afa15801561511f573d6000803e3d6000fd5b505050506040513d602081101561513557600080fd5b8101908080519060200190929190505050905060008214806151575750600081145b1561517657600d601181111561516957fe5b6000935093505050615374565b60008673ffffffffffffffffffffffffffffffffffffffff1663182df0f56040518163ffffffff1660e01b815260040160206040518083038186803b1580156151be57600080fd5b505afa1580156151d2573d6000803e3d6000fd5b505050506040513d60208110156151e857600080fd5b810190808051906020019092919050505090506000615205618199565b61520d618199565b615215618199565b600061522360025489617a4e565b80955081925050506000600381111561523857fe5b81600381111561524457fe5b1461526957600b601181111561525657fe5b6000995099505050505050505050615374565b6152738787617a4e565b80945081925050506000600381111561528857fe5b81600381111561529457fe5b146152b957600b60118111156152a657fe5b6000995099505050505050505050615374565b6152c38484617a89565b8093508192505050600060038111156152d857fe5b8160038111156152e457fe5b1461530957600b60118111156152f657fe5b6000995099505050505050505050615374565b615313828c617230565b80965081925050506000600381111561532857fe5b81600381111561533457fe5b1461535957600b601181111561534657fe5b6000995099505050505050505050615374565b6000601181111561536657fe5b859950995050505050505050505b935093915050565b6000600660179054906101000a900460ff1615615401576040517f08c379a000000000000000000000000000000000000000000000000000000000815260040180806020018281038252600f8152602001807f7365697a6520697320706175736564000000000000000000000000000000000081525060200191505060405180910390fd5b600560008773ffffffffffffffffffffffffffffffffffffffff1673ffffffffffffffffffffffffffffffffffffffff16815260200190815260200160002060000160009054906101000a900460ff1615806154aa5750600560008673ffffffffffffffffffffffffffffffffffffffff1673ffffffffffffffffffffffffffffffffffffffff16815260200190815260200160002060000160009054906101000a900460ff16155b156154c357600960118111156154bc57fe5b9050615721565b8473ffffffffffffffffffffffffffffffffffffffff16635fe3b5676040518163ffffffff1660e01b815260040160206040518083038186803b15801561550957600080fd5b505afa15801561551d573d6000803e3d6000fd5b505050506040513d602081101561553357600080fd5b810190808051906020019092919050505073ffffffffffffffffffffffffffffffffffffffff168673ffffffffffffffffffffffffffffffffffffffff16635fe3b5676040518163ffffffff1660e01b815260040160206040518083038186803b1580156155a057600080fd5b505afa1580156155b4573d6000803e3d6000fd5b505050506040513d60208110156155ca57600080fd5b810190808051906020019092919050505073ffffffffffffffffffffffffffffffffffffffff161461560a576002601181111561560357fe5b9050615721565b60001515600960009054906101000a900460ff16151514156157115760a360009054906101000a900473ffffffffffffffffffffffffffffffffffffffff1673ffffffffffffffffffffffffffffffffffffffff16639b52edb887858760006040518563ffffffff1660e01b8152600401808573ffffffffffffffffffffffffffffffffffffffff1681526020018473ffffffffffffffffffffffffffffffffffffffff1681526020018373ffffffffffffffffffffffffffffffffffffffff1681526020018215158152602001945050505050600060405180830381600087803b1580156156f857600080fd5b505af115801561570c573d6000803e3d6000fd5b505050505b6000601181111561571e57fe5b90505b95945050505050565b6000615734616bc8565b73ffffffffffffffffffffffffffffffffffffffff16607160009054906101000a900473ffffffffffffffffffffffffffffffffffffffff1673ffffffffffffffffffffffffffffffffffffffff16146157f6576040517f08c379a00000000000000000000000000000000000000000000000000000000081526004018080602001828103825260208152602001807f4f776e61626c653a2063616c6c6572206973206e6f7420746865206f776e657281525060200191505060405180910390fd5b60006003549050826003819055507f7093cf1eb653f749c3ff531d6df7f92764536a7fa0d13530cd26e070780c32ea8184604051808381526020018281526020019250505060405180910390a16000601181111561585057fe5b915050919050565b6000600860008573ffffffffffffffffffffffffffffffffffffffff1673ffffffffffffffffffffffffffffffffffffffff16815260200190815260200160002060009054906101000a900460ff161561591a576040517f08c379a00000000000000000000000000000000000000000000000000000000081526004018080602001828103825260108152602001807f626f72726f77206973207061757365640000000000000000000000000000000081525060200191505060405180910390fd5b600560008573ffffffffffffffffffffffffffffffffffffffff1673ffffffffffffffffffffffffffffffffffffffff16815260200190815260200160002060000160009054906101000a900460ff16615982576009601181111561597b57fe5b9050615fb4565b600560008573ffffffffffffffffffffffffffffffffffffffff1673ffffffffffffffffffffffffffffffffffffffff16815260200190815260200160002060020160008473ffffffffffffffffffffffffffffffffffffffff1673ffffffffffffffffffffffffffffffffffffffff16815260200190815260200160002060009054906101000a900460ff16615b89578373ffffffffffffffffffffffffffffffffffffffff163373ffffffffffffffffffffffffffffffffffffffff1614615ab4576040517f08c379a00000000000000000000000000000000000000000000000000000000081526004018080602001828103825260158152602001807f73656e646572206d7573742062652070546f6b656e000000000000000000000081525060200191505060405180910390fd5b6000615ac033856177bf565b905060006011811115615acf57fe5b816011811115615adb57fe5b14615af457806011811115615aec57fe5b915050615fb4565b600560008673ffffffffffffffffffffffffffffffffffffffff1673ffffffffffffffffffffffffffffffffffffffff16815260200190815260200160002060020160008573ffffffffffffffffffffffffffffffffffffffff1673ffffffffffffffffffffffffffffffffffffffff16815260200190815260200160002060009054906101000a900460ff16615b8757fe5b505b60008060009054906101000a900473ffffffffffffffffffffffffffffffffffffffff1673ffffffffffffffffffffffffffffffffffffffff1663fc57d4df866040518263ffffffff1660e01b8152600401808273ffffffffffffffffffffffffffffffffffffffff16815260200191505060206040518083038186803b158015615c1357600080fd5b505afa158015615c27573d6000803e3d6000fd5b505050506040513d6020811015615c3d57600080fd5b81019080805190602001909291905050501415615c6857600d6011811115615c6157fe5b9050615fb4565b6000600a60008673ffffffffffffffffffffffffffffffffffffffff1673ffffffffffffffffffffffffffffffffffffffff16815260200190815260200160002054905060008114615e4f5760008573ffffffffffffffffffffffffffffffffffffffff166347bd37186040518163ffffffff1660e01b815260040160206040518083038186803b158015615cfc57600080fd5b505afa158015615d10573d6000803e3d6000fd5b505050506040513d6020811015615d2657600080fd5b81019080805190602001909291905050509050600080615d468387617290565b9150915060006003811115615d5757fe5b826003811115615d6357fe5b14615dd6576040517f08c379a00000000000000000000000000000000000000000000000000000000081526004018080602001828103825260168152602001807f746f74616c20626f72726f7773206f766572666c6f770000000000000000000081525060200191505060405180910390fd5b838110615e4b576040517f08c379a00000000000000000000000000000000000000000000000000000000081526004018080602001828103825260198152602001807f6d61726b657420626f72726f772063617020726561636865640000000000000081525060200191505060405180910390fd5b5050505b600080615e5f8688600088616c6f565b925050915060006011811115615e7157fe5b826011811115615e7d57fe5b14615e9857816011811115615e8e57fe5b9350505050615fb4565b6000811115615eb85760046011811115615eae57fe5b9350505050615fb4565b60001515600960009054906101000a900460ff1615151415615fa15760a360009054906101000a900473ffffffffffffffffffffffffffffffffffffffff1673ffffffffffffffffffffffffffffffffffffffff1663f3a87196888860006040518463ffffffff1660e01b8152600401808473ffffffffffffffffffffffffffffffffffffffff1681526020018373ffffffffffffffffffffffffffffffffffffffff16815260200182151581526020019350505050600060405180830381600087803b158015615f8857600080fd5b505af1158015615f9c573d6000803e3d6000fd5b505050505b60006011811115615fae57fe5b93505050505b9392505050565b60046020528160005260406000208181548110615fd457fe5b906000526020600020016000915091509054906101000a900473ffffffffffffffffffffffffffffffffffffffff1681565b6000616010616bc8565b73ffffffffffffffffffffffffffffffffffffffff16607160009054906101000a900473ffffffffffffffffffffffffffffffffffffffff1673ffffffffffffffffffffffffffffffffffffffff16146160d2576040517f08c379a00000000000000000000000000000000000000000000000000000000081526004018080602001828103825260208152602001807f4f776e61626c653a2063616c6c6572206973206e6f7420746865206f776e657281525060200191505060405180910390fd5b6000600560008573ffffffffffffffffffffffffffffffffffffffff1673ffffffffffffffffffffffffffffffffffffffff16815260200190815260200160002090508060000160009054906101000a900460ff1661613f5761613760096007616be6565b91505061630f565b616147618199565b6040518060200160405280858152509050616160618199565b6040518060200160405280670c7d713b49da000081525090506161838183616c5a565b1561619e5761619460066008616be6565b935050505061630f565b60008514158015616271575060008060009054906101000a900473ffffffffffffffffffffffffffffffffffffffff1673ffffffffffffffffffffffffffffffffffffffff1663fc57d4df886040518263ffffffff1660e01b8152600401808273ffffffffffffffffffffffffffffffffffffffff16815260200191505060206040518083038186803b15801561623457600080fd5b505afa158015616248573d6000803e3d6000fd5b505050506040513d602081101561625e57600080fd5b8101908080519060200190929190505050145b1561628c57616282600d6009616be6565b935050505061630f565b6000836001015490508584600101819055507f70483e6592cd5182d45ac970e05bc62cdcc90e9d8ef2c2dbe686cf383bcd7fc5878288604051808473ffffffffffffffffffffffffffffffffffffffff168152602001838152602001828152602001935050505060405180910390a16000601181111561630857fe5b9450505050505b92915050565b600660159054906101000a900460ff1681565b60015481565b60008061633c858585617630565b90506000601181111561634b57fe5b811461635a5780915050616454565b60001515600960009054906101000a900460ff16151514156164435760a360009054906101000a900473ffffffffffffffffffffffffffffffffffffffff1673ffffffffffffffffffffffffffffffffffffffff1663f774351e868660006040518463ffffffff1660e01b8152600401808473ffffffffffffffffffffffffffffffffffffffff1681526020018373ffffffffffffffffffffffffffffffffffffffff16815260200182151581526020019350505050600060405180830381600087803b15801561642a57600080fd5b505af115801561643e573d6000803e3d6000fd5b505050505b6000601181111561645057fe5b9150505b9392505050565b60008082905060008060008373ffffffffffffffffffffffffffffffffffffffff1663c37f68e2336040518263ffffffff1660e01b8152600401808273ffffffffffffffffffffffffffffffffffffffff16815260200191505060806040518083038186803b1580156164cd57600080fd5b505afa1580156164e1573d6000803e3d6000fd5b505050506040513d60808110156164f757600080fd5b81019080805190602001909291908051906020019092919080519060200190929190805190602001909291905050505092509250925060008314616586576040517f08c379a000000000000000000000000000000000000000000000000000000000815260040180806020018281038252602581526020018061831a6025913960400191505060405180910390fd5b600081146165a55761659a600c6002616be6565b9450505050506169b3565b60006165b2873385617630565b9050600081146165d5576165c9600e600383617ab0565b955050505050506169b3565b6000600560008773ffffffffffffffffffffffffffffffffffffffff1673ffffffffffffffffffffffffffffffffffffffff16815260200190815260200160002090508060020160003373ffffffffffffffffffffffffffffffffffffffff1673ffffffffffffffffffffffffffffffffffffffff16815260200190815260200160002060009054906101000a900460ff16616685576000601181111561667857fe5b96505050505050506169b3565b8060020160003373ffffffffffffffffffffffffffffffffffffffff1673ffffffffffffffffffffffffffffffffffffffff16815260200190815260200160002060006101000a81549060ff02191690556060600460003373ffffffffffffffffffffffffffffffffffffffff1673ffffffffffffffffffffffffffffffffffffffff16815260200190815260200160002080548060200260200160405190810160405280929190818152602001828054801561679757602002820191906000526020600020905b8160009054906101000a900473ffffffffffffffffffffffffffffffffffffffff1673ffffffffffffffffffffffffffffffffffffffff168152602001906001019080831161674d575b50505050509050600081519050600081905060005b82811015616810578973ffffffffffffffffffffffffffffffffffffffff168482815181106167d757fe5b602002602001015173ffffffffffffffffffffffffffffffffffffffff16141561680357809150616810565b80806001019150506167ac565b5081811061681a57fe5b6000600460003373ffffffffffffffffffffffffffffffffffffffff1673ffffffffffffffffffffffffffffffffffffffff16815260200190815260200160002090508060018280549050038154811061687057fe5b9060005260206000200160009054906101000a900473ffffffffffffffffffffffffffffffffffffffff168183815481106168a757fe5b9060005260206000200160006101000a81548173ffffffffffffffffffffffffffffffffffffffff021916908373ffffffffffffffffffffffffffffffffffffffff160217905550808054806168f957fe5b6001900381819060005260206000200160006101000a81549073ffffffffffffffffffffffffffffffffffffffff021916905590557fe699a64c18b07ac5b7301aa273f36a2287239eb9501d81950672794afba29a0d8a33604051808373ffffffffffffffffffffffffffffffffffffffff1681526020018273ffffffffffffffffffffffffffffffffffffffff1681526020019250505060405180910390a1600060118111156169a657fe5b9a50505050505050505050505b919050565b6169c0616bc8565b73ffffffffffffffffffffffffffffffffffffffff16607160009054906101000a900473ffffffffffffffffffffffffffffffffffffffff1673ffffffffffffffffffffffffffffffffffffffff1614616a82576040517f08c379a00000000000000000000000000000000000000000000000000000000081526004018080602001828103825260208152602001807f4f776e61626c653a2063616c6c6572206973206e6f7420746865206f776e657281525060200191505060405180910390fd5b600073ffffffffffffffffffffffffffffffffffffffff168173ffffffffffffffffffffffffffffffffffffffff161415616b08576040517f08c379a00000000000000000000000000000000000000000000000000000000081526004018080602001828103825260268152602001806182406026913960400191505060405180910390fd5b8073ffffffffffffffffffffffffffffffffffffffff16607160009054906101000a900473ffffffffffffffffffffffffffffffffffffffff1673ffffffffffffffffffffffffffffffffffffffff167f8be0079c531659141344cd1fd0a4f28419497f9722a3daafe3b4186f6b6457e060405160405180910390a380607160006101000a81548173ffffffffffffffffffffffffffffffffffffffff021916908373ffffffffffffffffffffffffffffffffffffffff16021790555050565b600033905090565b6000816000015183600001511115905092915050565b60007f45b96fe442630264581b197e84bbada861235052c5a1aadfff9ea4e40a969aa0836011811115616c1557fe5b836013811115616c2157fe5b600060405180848152602001838152602001828152602001935050505060405180910390a1826011811115616c5257fe5b905092915050565b60008160000151836000015110905092915050565b6000806000616c7c6181ac565b6000806060600460008c73ffffffffffffffffffffffffffffffffffffffff1673ffffffffffffffffffffffffffffffffffffffff168152602001908152602001600020805480602002602001604051908101604052809291908181526020018280548015616d4057602002820191906000526020600020905b8160009054906101000a900473ffffffffffffffffffffffffffffffffffffffff1673ffffffffffffffffffffffffffffffffffffffff1681526020019060010190808311616cf6575b5050505050905060005b81518110156171de576000828281518110616d6157fe5b602002602001015190508073ffffffffffffffffffffffffffffffffffffffff1663c37f68e28e6040518263ffffffff1660e01b8152600401808273ffffffffffffffffffffffffffffffffffffffff16815260200191505060806040518083038186803b158015616dd257600080fd5b505afa158015616de6573d6000803e3d6000fd5b505050506040513d6080811015616dfc57600080fd5b8101908080519060200190929190805190602001909291908051906020019092919080519060200190929190505050896040018a6060018b6080018381525083815250838152508398505050505060008514616e6857600f600080985098509850505050505050617226565b6040518060200160405280600560008473ffffffffffffffffffffffffffffffffffffffff1673ffffffffffffffffffffffffffffffffffffffff168152602001908152602001600020600101548152508660c00181905250604051806020016040528087608001518152508660e0018190525060008054906101000a900473ffffffffffffffffffffffffffffffffffffffff1673ffffffffffffffffffffffffffffffffffffffff1663fc57d4df826040518263ffffffff1660e01b8152600401808273ffffffffffffffffffffffffffffffffffffffff16815260200191505060206040518083038186803b158015616f6357600080fd5b505afa158015616f77573d6000803e3d6000fd5b505050506040513d6020811015616f8d57600080fd5b81019080805190602001909291905050508660a001818152505060008660a001511415616fca57600d600080985098509850505050505050617226565b60405180602001604052808760a00151815250866101000181905250616ffe8660c001518760e00151886101000151617b24565b876101200181905281955050506000600381111561701857fe5b84600381111561702457fe5b1461703f57600b600080985098509850505050505050617226565b61705786610120015187604001518860000151617b8a565b876000018181525081955050506000600381111561707157fe5b84600381111561707d57fe5b1461709857600b600080985098509850505050505050617226565b6170b086610100015187606001518860200151617b8a565b87602001818152508195505050600060038111156170ca57fe5b8460038111156170d657fe5b146170f157600b600080985098509850505050505050617226565b8b73ffffffffffffffffffffffffffffffffffffffff168173ffffffffffffffffffffffffffffffffffffffff1614156171d0576171398661012001518c8860200151617b8a565b876020018181525081955050506000600381111561715357fe5b84600381111561715f57fe5b1461717a57600b600080985098509850505050505050617226565b61718e8661010001518b8860200151617b8a565b87602001818152508195505050600060038111156171a857fe5b8460038111156171b457fe5b146171cf57600b600080985098509850505050505050617226565b5b508080600101915050616d4a565b5083602001518460000151111561720d5760008460200151856000015103600096509650965050505050617226565b6000808560000151866020015103965096509650505050505b9450945094915050565b600080600061723d618199565b6172478686617bf2565b915091506000600381111561725857fe5b82600381111561726457fe5b1461727757816000935093505050617289565b600061728282617c6a565b9350935050505b9250929050565b600080600083850190508481106172ae5760008192509250506172b8565b6002600092509250505b9250929050565b60008060006172d2846000806000616c6f565b9250925092509193909250565b6000803090506000813b9050600081149250505090565b600c60019054906101000a900460ff168061731557506173146172df565b5b8061732d5750600c60009054906101000a900460ff16155b617382576040517f08c379a000000000000000000000000000000000000000000000000000000000815260040180806020018281038252602e8152602001806182b7602e913960400191505060405180910390fd5b6000600c60019054906101000a900460ff1615905080156173d4576001600c60016101000a81548160ff0219169083151502179055506001600c60006101000a81548160ff0219169083151502179055505b6173dc617c89565b6173e4617d8c565b8015617406576000600c60016101000a81548160ff0219169083151502179055505b50565b617411616bc8565b73ffffffffffffffffffffffffffffffffffffffff16607160009054906101000a900473ffffffffffffffffffffffffffffffffffffffff1673ffffffffffffffffffffffffffffffffffffffff16146174d3576040517f08c379a00000000000000000000000000000000000000000000000000000000081526004018080602001828103825260208152602001807f4f776e61626c653a2063616c6c6572206973206e6f7420746865206f776e657281525060200191505060405180910390fd5b60005b600b805490508110156175c9578173ffffffffffffffffffffffffffffffffffffffff16600b828154811061750757fe5b9060005260206000200160009054906101000a900473ffffffffffffffffffffffffffffffffffffffff1673ffffffffffffffffffffffffffffffffffffffff1614156175bc576040517f08c379a00000000000000000000000000000000000000000000000000000000081526004018080602001828103825260148152602001807f6d61726b657420616c726561647920616464656400000000000000000000000081525060200191505060405180910390fd5b80806001019150506174d6565b50600b819080600181540180825580915050600190039060005260206000200160009091909190916101000a81548173ffffffffffffffffffffffffffffffffffffffff021916908373ffffffffffffffffffffffffffffffffffffffff16021790555050565b6000600560008573ffffffffffffffffffffffffffffffffffffffff1673ffffffffffffffffffffffffffffffffffffffff16815260200190815260200160002060000160009054906101000a900460ff1661769a576009601181111561769357fe5b90506177b8565b600560008573ffffffffffffffffffffffffffffffffffffffff1673ffffffffffffffffffffffffffffffffffffffff16815260200190815260200160002060020160008473ffffffffffffffffffffffffffffffffffffffff1673ffffffffffffffffffffffffffffffffffffffff16815260200190815260200160002060009054906101000a900460ff1661773f576000601181111561773857fe5b90506177b8565b60008061774f8587866000616c6f565b92505091506000601181111561776157fe5b82601181111561776d57fe5b146177875781601181111561777e57fe5b925050506177b8565b60008111156177a6576004601181111561779d57fe5b925050506177b8565b600060118111156177b357fe5b925050505b9392505050565b600080600560008573ffffffffffffffffffffffffffffffffffffffff1673ffffffffffffffffffffffffffffffffffffffff16815260200190815260200160002090508060000160009054906101000a900460ff16617823576009915050617a48565b600115158160020160008573ffffffffffffffffffffffffffffffffffffffff1673ffffffffffffffffffffffffffffffffffffffff16815260200190815260200160002060009054906101000a900460ff1615151415617888576000915050617a48565b600354600460008573ffffffffffffffffffffffffffffffffffffffff1673ffffffffffffffffffffffffffffffffffffffff16815260200190815260200160002080549050106178dd576010915050617a48565b60018160020160008573ffffffffffffffffffffffffffffffffffffffff1673ffffffffffffffffffffffffffffffffffffffff16815260200190815260200160002060006101000a81548160ff021916908315150217905550600460008473ffffffffffffffffffffffffffffffffffffffff1673ffffffffffffffffffffffffffffffffffffffff168152602001908152602001600020849080600181540180825580915050600190039060005260206000200160009091909190916101000a81548173ffffffffffffffffffffffffffffffffffffffff021916908373ffffffffffffffffffffffffffffffffffffffff1602179055507f3ab23ab0d51cccc0c3085aec51f99228625aa1a922b3a8ca89a26b0f2027a1a58484604051808373ffffffffffffffffffffffffffffffffffffffff1681526020018273ffffffffffffffffffffffffffffffffffffffff1681526020019250505060405180910390a160009150505b92915050565b6000617a58618199565b617a7e604051806020016040528086815250604051806020016040528086815250617f38565b915091509250929050565b6000617a93618199565b617aa584600001518460000151618050565b915091509250929050565b60007f45b96fe442630264581b197e84bbada861235052c5a1aadfff9ea4e40a969aa0846011811115617adf57fe5b846013811115617aeb57fe5b8460405180848152602001838152602001828152602001935050505060405180910390a1836011811115617b1b57fe5b90509392505050565b6000617b2e618199565b6000617b38618199565b617b428787617f38565b9150915060006003811115617b5357fe5b826003811115617b5f57fe5b14617b71578181935093505050617b82565b617b7b8186617f38565b9350935050505b935093915050565b6000806000617b97618199565b617ba18787617bf2565b9150915060006003811115617bb257fe5b826003811115617bbe57fe5b14617bd157816000935093505050617bea565b617be3617bdd82617c6a565b86617290565b9350935050505b935093915050565b6000617bfc618199565b600080617c0d86600001518661811b565b9150915060006003811115617c1e57fe5b826003811115617c2a57fe5b14617c4b578160405180602001604052806000815250935093505050617c63565b60006040518060200160405280838152509350935050505b9250929050565b6000670de0b6b3a7640000826000015181617c8157fe5b049050919050565b600c60019054906101000a900460ff1680617ca85750617ca76172df565b5b80617cc05750600c60009054906101000a900460ff16155b617d15576040517f08c379a000000000000000000000000000000000000000000000000000000000815260040180806020018281038252602e8152602001806182b7602e913960400191505060405180910390fd5b6000600c60019054906101000a900460ff161590508015617d67576001600c60016101000a81548160ff0219169083151502179055506001600c60006101000a81548160ff0219169083151502179055505b8015617d89576000600c60016101000a81548160ff0219169083151502179055505b50565b600c60019054906101000a900460ff1680617dab5750617daa6172df565b5b80617dc35750600c60009054906101000a900460ff16155b617e18576040517f08c379a000000000000000000000000000000000000000000000000000000000815260040180806020018281038252602e8152602001806182b7602e913960400191505060405180910390fd5b6000600c60019054906101000a900460ff161590508015617e6a576001600c60016101000a81548160ff0219169083151502179055506001600c60006101000a81548160ff0219169083151502179055505b6000617e74616bc8565b905080607160006101000a81548173ffffffffffffffffffffffffffffffffffffffff021916908373ffffffffffffffffffffffffffffffffffffffff1602179055508073ffffffffffffffffffffffffffffffffffffffff16600073ffffffffffffffffffffffffffffffffffffffff167f8be0079c531659141344cd1fd0a4f28419497f9722a3daafe3b4186f6b6457e060405160405180910390a3508015617f35576000600c60016101000a81548160ff0219169083151502179055505b50565b6000617f42618199565b600080617f578660000151866000015161811b565b9150915060006003811115617f6857fe5b826003811115617f7457fe5b14617f95578160405180602001604052806000815250935093505050618049565b600080617fb46002670de0b6b3a764000081617fad57fe5b0484617290565b9150915060006003811115617fc557fe5b826003811115617fd157fe5b14617ff45781604051806020016040528060008152509550955050505050618049565b60008061800983670de0b6b3a7640000618168565b915091506000600381111561801a57fe5b82600381111561802657fe5b1461802d57fe5b6000604051806020016040528083815250975097505050505050505b9250929050565b600061805a618199565b60008061806f86670de0b6b3a764000061811b565b915091506000600381111561808057fe5b82600381111561808c57fe5b146180ad578160405180602001604052806000815250935093505050618114565b6000806180ba8388618168565b91509150600060038111156180cb57fe5b8260038111156180d757fe5b146180fa5781604051806020016040528060008152509550955050505050618114565b600060405180602001604052808381525095509550505050505b9250929050565b60008060008414156181335760008091509150618161565b600083850290508385828161814457fe5b041461815857600260009250925050618161565b60008192509250505b9250929050565b6000806000831415618181576001600091509150618192565b600083858161818c57fe5b04915091505b9250929050565b6040518060200160405280600081525090565b6040518061014001604052806000815260200160008152602001600081526020016000815260200160008152602001600081526020016181ea618199565b81526020016181f7618199565b8152602001618204618199565b8152602001618211618199565b8152509056fe63616e6e6f742070617573652061206d61726b65742074686174206973206e6f74206c69737465644f776e61626c653a206e6577206f776e657220697320746865207a65726f20616464726573736f6e6c79205069676779446973747269627574696f6e206f72206f776e65722063616e207570646174656f6e6c7920706175736520677561726469616e20616e64206f776e65722063616e207061757365436f6e747261637420696e7374616e63652068617320616c7265616479206265656e20696e697469616c697a65646f6e6c79206f776e6572206f7220626f72726f772063617020677561726469616e2063616e2073657420626f72726f772063617073657869744d61726b65743a206765744163636f756e74536e617073686f74206661696c6564a264697066735822122047dcc4c2ad1e824fbb1c45a6383253e5760b7a76e1b8c0f51c4378f3d4392fc264736f6c634300060c0033",
  "compiler": {
    "name": "solc",
    "version": "0.6.12+commit.27d51765.Emscripten.clang",
    "optimizer": {
      "enabled": false,
      "runs": 200
    },
    "evmVersion": "istanbul"
  }
}