{
  "fileName": "DAIInterestRateModel.sol",
  "contractName": "DAIInterestRateModel",
  "source": "// COPIED FROM https://github.com/compound-finance/compound-protocol/blob/master/contracts/DAIInterestRateModelV3.sol\n//Copyright 2020 Compound Labs, Inc.\n//Redistribution and use in source and binary forms, with or without modification, are permitted provided that the following conditions are met:\n//1. Redistributions of source code must retain the above copyright notice, this list of conditions and the following disclaimer.\n//2. Redistributions in binary form must reproduce the above copyright notice, this list of conditions and the following disclaimer in the documentation and/or other materials provided with the distribution.\n//3. Neither the name of the copyright holder nor the names of its contributors may be used to endorse or promote products derived from this software without specific prior written permission.\n//THIS SOFTWARE IS PROVIDED BY THE COPYRIGHT HOLDERS AND CONTRIBUTORS \"AS IS\" AND ANY EXPRESS OR IMPLIED WARRANTIES, INCLUDING, BUT NOT LIMITED TO, THE IMPLIED WARRANTIES OF MERCHANTABILITY AND FITNESS FOR A PARTICULAR PURPOSE ARE DISCLAIMED. IN NO EVENT SHALL THE COPYRIGHT HOLDER OR CONTRIBUTORS BE LIABLE FOR ANY DIRECT, INDIRECT, INCIDENTAL, SPECIAL, EXEMPLARY, OR CONSEQUENTIAL DAMAGES (INCLUDING, BUT NOT LIMITED TO, PROCUREMENT OF SUBSTITUTE GOODS OR SERVICES; LOSS OF USE, DATA, OR PROFITS; OR BUSINESS INTERRUPTION) HOWEVER CAUSED AND ON ANY THEORY OF LIABILITY, WHETHER IN CONTRACT, STRICT LIABILITY, OR TORT (INCLUDING NEGLIGENCE OR OTHERWISE) ARISING IN ANY WAY OUT OF THE USE OF THIS SOFTWARE, EVEN IF ADVISED OF THE POSSIBILITY OF SUCH DAMAGE.\n\n// SPDX-License-Identifier: MIT\npragma solidity ^0.6.0;\n\nimport \"./BaseJumpRateModel.sol\";\nimport \"@openzeppelin/contracts-ethereum-package/contracts/math/SafeMath.sol\";\n\n/**\n  * @title Compound's DAIInterestRateModel Contract (version 3)\n  * @author Compound (modified by Dharma Labs)\n  * @notice The parameterized model described in section 2.4 of the original Compound Protocol whitepaper.\n  * Version 3 modifies the interest rate model in Version 2 by increasing the initial \"gap\" or slope of\n  * the model prior to the \"kink\" from 2% to 4%, and enabling updateable parameters.\n  */\ncontract DAIInterestRateModel is BaseJumpRateModel {\n    using SafeMath for uint;\n\n    /**\n     * @notice The additional margin per block separating the base borrow rate from the roof.\n     */\n    uint public gapPerBlock;\n\n    /**\n     * @notice The assumed (1 - reserve factor) used to calculate the minimum borrow rate (reserve factor = 0.05)\n     */\n    uint public constant assumedOneMinusReserveFactorMantissa = 0.95e18;\n\n    PotLike pot;\n    JugLike jug;\n\n    /**\n     * @notice Construct an interest rate model\n     * @param jumpMultiplierPerYear The multiplierPerBlock after hitting a specified utilization point\n     * @param kink_ The utilization point at which the jump multiplier is applied\n     * @param pot_ The address of the Dai pot (where DSR is earned)\n     * @param jug_ The address of the Dai jug (where SF is kept)\n     */\n    function initialize(uint jumpMultiplierPerYear, uint kink_, address pot_, address jug_) public initializer {\n        super.__Ownable_init();\n        super.updateJumpRateModelInternal(0, 0, jumpMultiplierPerYear, kink_);\n        gapPerBlock = 4e16 / blocksPerYear;\n        pot = PotLike(pot_);\n        jug = JugLike(jug_);\n        poke();\n    }\n\n    /**\n     * @notice External function to update the parameters of the interest rate model\n     * @param gapPerYear The Additional margin per year separating the base borrow rate from the roof. (scaled by 1e18)\n     * @param jumpMultiplierPerYear The jumpMultiplierPerYear after hitting a specified utilization point\n     * @param kink_ The utilization point at which the jump multiplier is applied\n     */\n    function updateDAIJumpRateModel(uint gapPerYear, uint jumpMultiplierPerYear, uint kink_) external {\n        gapPerBlock = gapPerYear / blocksPerYear;\n        updateJumpRateModelInternal(0, 0, jumpMultiplierPerYear, kink_);\n        poke();\n    }\n\n    /**\n     * @notice Calculates the current supply interest rate per block including the Dai savings rate\n     * @param cash The total amount of cash the market has\n     * @param borrows The total amount of borrows the market has outstanding\n     * @param reserves The total amnount of reserves the market has\n     * @param reserveFactorMantissa The current reserve factor the market has\n     * @return The supply rate per block (as a percentage, and scaled by 1e18)\n     */\n    function getSupplyRate(uint cash, uint borrows, uint reserves, uint reserveFactorMantissa) external override view returns (uint) {\n        uint protocolRate = getSupplyRateInternal(cash, borrows, reserves, reserveFactorMantissa);\n\n        uint underlying = cash.add(borrows).sub(reserves);\n        if (underlying == 0) {\n            return protocolRate;\n        } else {\n            uint cashRate = cash.mul(dsrPerBlock()).div(underlying);\n            return cashRate.add(protocolRate);\n        }\n    }\n\n    /**\n     * @notice Calculates the Dai savings rate per block\n     * @return The Dai savings rate per block (as a percentage, and scaled by 1e18)\n     */\n    function dsrPerBlock() public view returns (uint) {\n        return pot\n        .dsr().sub(1e27)  // scaled 1e27 aka RAY, and includes an extra \"ONE\" before subraction\n        .div(1e9) // descale to 1e18\n        .mul(15);\n        // 15 seconds per block\n    }\n\n    /**\n     * @notice Resets the baseRate and multiplier per block based on the stability fee and Dai savings rate\n     */\n    function poke() public {\n        (uint duty,) = jug.ilks(\"ETH-A\");\n        uint stabilityFeePerBlock = duty.add(jug.base()).sub(1e27).mul(1e18).div(1e27).mul(15);\n\n        // We ensure the minimum borrow rate >= DSR / (1 - reserve factor)\n        baseRatePerBlock = dsrPerBlock().mul(1e18).div(assumedOneMinusReserveFactorMantissa);\n\n        // The roof borrow rate is max(base rate, stability fee) + gap, from which we derive the slope\n        if (baseRatePerBlock < stabilityFeePerBlock) {\n            multiplierPerBlock = stabilityFeePerBlock.sub(baseRatePerBlock).add(gapPerBlock).mul(1e18).div(kink);\n        } else {\n            multiplierPerBlock = gapPerBlock.mul(1e18).div(kink);\n        }\n\n        emit NewInterestParams(baseRatePerBlock, multiplierPerBlock, jumpMultiplierPerBlock, kink);\n    }\n}\n\n\n/*** Maker Interfaces ***/\n\ninterface PotLike {\n    function chi() external view returns (uint);\n\n    function dsr() external view returns (uint);\n\n    function rho() external view returns (uint);\n\n    function pie(address) external view returns (uint);\n\n    function drip() external returns (uint);\n\n    function join(uint) external;\n\n    function exit(uint) external;\n}\n\ncontract JugLike {\n    // --- Data ---\n    struct Ilk {\n        uint256 duty;\n        uint256 rho;\n    }\n\n    mapping(bytes32 => Ilk) public ilks;\n    uint256 public base;\n}\n",
  "sourcePath": "contracts/rate/DAIInterestRateModel.sol",
  "abi": [
    {
      "anonymous": false,
      "inputs": [
        {
          "indexed": false,
          "internalType": "uint256",
          "name": "baseRatePerBlock",
          "type": "uint256"
        },
        {
          "indexed": false,
          "internalType": "uint256",
          "name": "multiplierPerBlock",
          "type": "uint256"
        },
        {
          "indexed": false,
          "internalType": "uint256",
          "name": "jumpMultiplierPerBlock",
          "type": "uint256"
        },
        {
          "indexed": false,
          "internalType": "uint256",
          "name": "kink",
          "type": "uint256"
        }
      ],
      "name": "NewInterestParams",
      "type": "event"
    },
    {
      "anonymous": false,
      "inputs": [
        {
          "indexed": true,
          "internalType": "address",
          "name": "previousOwner",
          "type": "address"
        },
        {
          "indexed": true,
          "internalType": "address",
          "name": "newOwner",
          "type": "address"
        }
      ],
      "name": "OwnershipTransferred",
      "type": "event"
    },
    {
      "inputs": [],
      "name": "assumedOneMinusReserveFactorMantissa",
      "outputs": [
        {
          "internalType": "uint256",
          "name": "",
          "type": "uint256"
        }
      ],
      "stateMutability": "view",
      "type": "function"
    },
    {
      "inputs": [],
      "name": "baseRatePerBlock",
      "outputs": [
        {
          "internalType": "uint256",
          "name": "",
          "type": "uint256"
        }
      ],
      "stateMutability": "view",
      "type": "function"
    },
    {
      "inputs": [],
      "name": "blocksPerYear",
      "outputs": [
        {
          "internalType": "uint256",
          "name": "",
          "type": "uint256"
        }
      ],
      "stateMutability": "view",
      "type": "function"
    },
    {
      "inputs": [],
      "name": "dsrPerBlock",
      "outputs": [
        {
          "internalType": "uint256",
          "name": "",
          "type": "uint256"
        }
      ],
      "stateMutability": "view",
      "type": "function"
    },
    {
      "inputs": [],
      "name": "gapPerBlock",
      "outputs": [
        {
          "internalType": "uint256",
          "name": "",
          "type": "uint256"
        }
      ],
      "stateMutability": "view",
      "type": "function"
    },
    {
      "inputs": [
        {
          "internalType": "uint256",
          "name": "cash",
          "type": "uint256"
        },
        {
          "internalType": "uint256",
          "name": "borrows",
          "type": "uint256"
        },
        {
          "internalType": "uint256",
          "name": "reserves",
          "type": "uint256"
        }
      ],
      "name": "getBorrowRate",
      "outputs": [
        {
          "internalType": "uint256",
          "name": "",
          "type": "uint256"
        }
      ],
      "stateMutability": "view",
      "type": "function"
    },
    {
      "inputs": [
        {
          "internalType": "uint256",
          "name": "cash",
          "type": "uint256"
        },
        {
          "internalType": "uint256",
          "name": "borrows",
          "type": "uint256"
        },
        {
          "internalType": "uint256",
          "name": "reserves",
          "type": "uint256"
        },
        {
          "internalType": "uint256",
          "name": "reserveFactorMantissa",
          "type": "uint256"
        }
      ],
      "name": "getSupplyRate",
      "outputs": [
        {
          "internalType": "uint256",
          "name": "",
          "type": "uint256"
        }
      ],
      "stateMutability": "view",
      "type": "function"
    },
    {
      "inputs": [
        {
          "internalType": "uint256",
          "name": "jumpMultiplierPerYear",
          "type": "uint256"
        },
        {
          "internalType": "uint256",
          "name": "kink_",
          "type": "uint256"
        },
        {
          "internalType": "address",
          "name": "pot_",
          "type": "address"
        },
        {
          "internalType": "address",
          "name": "jug_",
          "type": "address"
        }
      ],
      "name": "initialize",
      "outputs": [],
      "stateMutability": "nonpayable",
      "type": "function"
    },
    {
      "inputs": [],
      "name": "jumpMultiplierPerBlock",
      "outputs": [
        {
          "internalType": "uint256",
          "name": "",
          "type": "uint256"
        }
      ],
      "stateMutability": "view",
      "type": "function"
    },
    {
      "inputs": [],
      "name": "kink",
      "outputs": [
        {
          "internalType": "uint256",
          "name": "",
          "type": "uint256"
        }
      ],
      "stateMutability": "view",
      "type": "function"
    },
    {
      "inputs": [],
      "name": "multiplierPerBlock",
      "outputs": [
        {
          "internalType": "uint256",
          "name": "",
          "type": "uint256"
        }
      ],
      "stateMutability": "view",
      "type": "function"
    },
    {
      "inputs": [],
      "name": "owner",
      "outputs": [
        {
          "internalType": "address",
          "name": "",
          "type": "address"
        }
      ],
      "stateMutability": "view",
      "type": "function"
    },
    {
      "inputs": [],
      "name": "poke",
      "outputs": [],
      "stateMutability": "nonpayable",
      "type": "function"
    },
    {
      "inputs": [],
      "name": "renounceOwnership",
      "outputs": [],
      "stateMutability": "nonpayable",
      "type": "function"
    },
    {
      "inputs": [
        {
          "internalType": "address",
          "name": "newOwner",
          "type": "address"
        }
      ],
      "name": "transferOwnership",
      "outputs": [],
      "stateMutability": "nonpayable",
      "type": "function"
    },
    {
      "inputs": [
        {
          "internalType": "uint256",
          "name": "gapPerYear",
          "type": "uint256"
        },
        {
          "internalType": "uint256",
          "name": "jumpMultiplierPerYear",
          "type": "uint256"
        },
        {
          "internalType": "uint256",
          "name": "kink_",
          "type": "uint256"
        }
      ],
      "name": "updateDAIJumpRateModel",
      "outputs": [],
      "stateMutability": "nonpayable",
      "type": "function"
    },
    {
      "inputs": [
        {
          "internalType": "uint256",
          "name": "baseRatePerYear",
          "type": "uint256"
        },
        {
          "internalType": "uint256",
          "name": "multiplierPerYear",
          "type": "uint256"
        },
        {
          "internalType": "uint256",
          "name": "jumpMultiplierPerYear",
          "type": "uint256"
        },
        {
          "internalType": "uint256",
          "name": "kink_",
          "type": "uint256"
        }
      ],
      "name": "updateJumpRateModel",
      "outputs": [],
      "stateMutability": "nonpayable",
      "type": "function"
    },
    {
      "inputs": [
        {
          "internalType": "uint256",
          "name": "cash",
          "type": "uint256"
        },
        {
          "internalType": "uint256",
          "name": "borrows",
          "type": "uint256"
        },
        {
          "internalType": "uint256",
          "name": "reserves",
          "type": "uint256"
        }
      ],
      "name": "utilizationRate",
      "outputs": [
        {
          "internalType": "uint256",
          "name": "",
          "type": "uint256"
        }
      ],
      "stateMutability": "pure",
      "type": "function"
    }
  ],
  "bytecode": "0x608060405234801561001057600080fd5b50611af6806100206000396000f3fe608060405234801561001057600080fd5b50600436106101165760003560e01c806396456c5c116100a2578063d0353b7611610071578063d0353b76146103c9578063f14039de1461040b578063f2fde38b14610429578063f52d21f31461046d578063fd2da3391461048b57610116565b806396456c5c1461030f578063a385fb961461032d578063b81688161461034b578063b9f9850a146103ab57610116565b80636dac7cd5116100e95780636dac7cd51461023f5780636e71e2d81461025d578063715018a6146102b35780638726bb89146102bd5780638da5cb5b146102db57610116565b8063019e27291461011b57806315f240531461019357806318178358146101e95780632037f3e7146101f3575b600080fd5b6101916004803603608081101561013157600080fd5b810190808035906020019092919080359060200190929190803573ffffffffffffffffffffffffffffffffffffffff169060200190929190803573ffffffffffffffffffffffffffffffffffffffff1690602001909291905050506104a9565b005b6101d3600480360360608110156101a957600080fd5b81019080803590602001909291908035906020019092919080359060200190929190505050610664565b6040518082815260200191505060405180910390f35b6101f161067a565b005b61023d6004803603608081101561020957600080fd5b81019080803590602001909291908035906020019092919080359060200190929190803590602001909291905050506109b9565b005b6102476109cb565b6040518082815260200191505060405180910390f35b61029d6004803603606081101561027357600080fd5b810190808035906020019092919080359060200190929190803590602001909291905050506109d7565b6040518082815260200191505060405180910390f35b6102bb610a45565b005b6102c5610bd0565b6040518082815260200191505060405180910390f35b6102e3610bd6565b604051808273ffffffffffffffffffffffffffffffffffffffff16815260200191505060405180910390f35b610317610c00565b6040518082815260200191505060405180910390f35b610335610cf1565b6040518082815260200191505060405180910390f35b6103956004803603608081101561036157600080fd5b8101908080359060200190929190803590602001909291908035906020019092919080359060200190929190505050610cf8565b6040518082815260200191505060405180910390f35b6103b3610d96565b6040518082815260200191505060405180910390f35b610409600480360360608110156103df57600080fd5b81019080803590602001909291908035906020019092919080359060200190929190505050610d9c565b005b610413610dc9565b6040518082815260200191505060405180910390f35b61046b6004803603602081101561043f57600080fd5b81019080803573ffffffffffffffffffffffffffffffffffffffff169060200190929190505050610dcf565b005b610475610fdf565b6040518082815260200191505060405180910390f35b610493610fe5565b6040518082815260200191505060405180910390f35b600060019054906101000a900460ff16806104c857506104c7610feb565b5b806104de575060008054906101000a900460ff16155b610533576040517f08c379a000000000000000000000000000000000000000000000000000000000815260040180806020018281038252602e815260200180611a93602e913960400191505060405180910390fd5b60008060019054906101000a900460ff161590508015610583576001600060016101000a81548160ff02191690831515021790555060016000806101000a81548160ff0219169083151502179055505b61058b611002565b6105986000808787611110565b62201480668e1bc9bf040000816105ab57fe5b04609b8190555082609c60006101000a81548173ffffffffffffffffffffffffffffffffffffffff021916908373ffffffffffffffffffffffffffffffffffffffff16021790555081609d60006101000a81548173ffffffffffffffffffffffffffffffffffffffff021916908373ffffffffffffffffffffffffffffffffffffffff16021790555061063c61067a565b801561065d5760008060016101000a81548160ff0219169083151502179055505b5050505050565b60006106718484846112be565b90509392505050565b6000609d60009054906101000a900473ffffffffffffffffffffffffffffffffffffffff1673ffffffffffffffffffffffffffffffffffffffff1663d9638d366040518163ffffffff1660e01b815260040180807f4554482d410000000000000000000000000000000000000000000000000000008152506020019050604080518083038186803b15801561070e57600080fd5b505afa158015610722573d6000803e3d6000fd5b505050506040513d604081101561073857600080fd5b8101908080519060200190929190805190602001909291905050505090506000610876600f6108686b033b2e3c9fd0803ce800000061085a670de0b6b3a764000061084c6b033b2e3c9fd0803ce800000061083e609d60009054906101000a900473ffffffffffffffffffffffffffffffffffffffff1673ffffffffffffffffffffffffffffffffffffffff16635001f3b56040518163ffffffff1660e01b815260040160206040518083038186803b1580156107f457600080fd5b505afa158015610808573d6000803e3d6000fd5b505050506040513d602081101561081e57600080fd5b81019080805190602001909291905050508b6113d290919063ffffffff16565b61145a90919063ffffffff16565b6114a490919063ffffffff16565b61152a90919063ffffffff16565b6114a490919063ffffffff16565b90506108b4670d2f13f7789f00006108a6670de0b6b3a7640000610898610c00565b6114a490919063ffffffff16565b61152a90919063ffffffff16565b6098819055508060985410156109265761091b609a5461090d670de0b6b3a76400006108ff609b546108f16098548861145a90919063ffffffff16565b6113d290919063ffffffff16565b6114a490919063ffffffff16565b61152a90919063ffffffff16565b60978190555061095e565b610957609a54610949670de0b6b3a7640000609b546114a490919063ffffffff16565b61152a90919063ffffffff16565b6097819055505b7f6960ab234c7ef4b0c9197100f5393cfcde7c453ac910a27bd2000aa1dd4c068d609854609754609954609a546040518085815260200184815260200183815260200182815260200194505050505060405180910390a15050565b6109c584848484611110565b50505050565b670d2f13f7789f000081565b6000808314156109ea5760009050610a3e565b610a3b610a1283610a0486886113d290919063ffffffff16565b61145a90919063ffffffff16565b610a2d670de0b6b3a7640000866114a490919063ffffffff16565b61152a90919063ffffffff16565b90505b9392505050565b610a4d611574565b73ffffffffffffffffffffffffffffffffffffffff16606560009054906101000a900473ffffffffffffffffffffffffffffffffffffffff1673ffffffffffffffffffffffffffffffffffffffff1614610b0f576040517f08c379a00000000000000000000000000000000000000000000000000000000081526004018080602001828103825260208152602001807f4f776e61626c653a2063616c6c6572206973206e6f7420746865206f776e657281525060200191505060405180910390fd5b600073ffffffffffffffffffffffffffffffffffffffff16606560009054906101000a900473ffffffffffffffffffffffffffffffffffffffff1673ffffffffffffffffffffffffffffffffffffffff167f8be0079c531659141344cd1fd0a4f28419497f9722a3daafe3b4186f6b6457e060405160405180910390a36000606560006101000a81548173ffffffffffffffffffffffffffffffffffffffff021916908373ffffffffffffffffffffffffffffffffffffffff160217905550565b60975481565b6000606560009054906101000a900473ffffffffffffffffffffffffffffffffffffffff16905090565b6000610cec600f610cde633b9aca00610cd06b033b2e3c9fd0803ce8000000609c60009054906101000a900473ffffffffffffffffffffffffffffffffffffffff1673ffffffffffffffffffffffffffffffffffffffff1663487bf0826040518163ffffffff1660e01b815260040160206040518083038186803b158015610c8757600080fd5b505afa158015610c9b573d6000803e3d6000fd5b505050506040513d6020811015610cb157600080fd5b810190808051906020019092919050505061145a90919063ffffffff16565b61152a90919063ffffffff16565b6114a490919063ffffffff16565b905090565b6220148081565b600080610d078686868661157c565b90506000610d3085610d22888a6113d290919063ffffffff16565b61145a90919063ffffffff16565b90506000811415610d45578192505050610d8e565b6000610d7382610d65610d56610c00565b8b6114a490919063ffffffff16565b61152a90919063ffffffff16565b9050610d8883826113d290919063ffffffff16565b93505050505b949350505050565b60995481565b622014808381610da857fe5b04609b81905550610dbc6000808484611110565b610dc461067a565b505050565b60985481565b610dd7611574565b73ffffffffffffffffffffffffffffffffffffffff16606560009054906101000a900473ffffffffffffffffffffffffffffffffffffffff1673ffffffffffffffffffffffffffffffffffffffff1614610e99576040517f08c379a00000000000000000000000000000000000000000000000000000000081526004018080602001828103825260208152602001807f4f776e61626c653a2063616c6c6572206973206e6f7420746865206f776e657281525060200191505060405180910390fd5b600073ffffffffffffffffffffffffffffffffffffffff168173ffffffffffffffffffffffffffffffffffffffff161415610f1f576040517f08c379a0000000000000000000000000000000000000000000000000000000008152600401808060200182810382526026815260200180611a4c6026913960400191505060405180910390fd5b8073ffffffffffffffffffffffffffffffffffffffff16606560009054906101000a900473ffffffffffffffffffffffffffffffffffffffff1673ffffffffffffffffffffffffffffffffffffffff167f8be0079c531659141344cd1fd0a4f28419497f9722a3daafe3b4186f6b6457e060405160405180910390a380606560006101000a81548173ffffffffffffffffffffffffffffffffffffffff021916908373ffffffffffffffffffffffffffffffffffffffff16021790555050565b609b5481565b609a5481565b6000803090506000813b9050600081149250505090565b600060019054906101000a900460ff16806110215750611020610feb565b5b80611037575060008054906101000a900460ff16155b61108c576040517f08c379a000000000000000000000000000000000000000000000000000000000815260040180806020018281038252602e815260200180611a93602e913960400191505060405180910390fd5b60008060019054906101000a900460ff1615905080156110dc576001600060016101000a81548160ff02191690831515021790555060016000806101000a81548160ff0219169083151502179055505b6110e4611620565b6110ec61171e565b801561110d5760008060016101000a81548160ff0219169083151502179055505b50565b611118611574565b73ffffffffffffffffffffffffffffffffffffffff16606560009054906101000a900473ffffffffffffffffffffffffffffffffffffffff1673ffffffffffffffffffffffffffffffffffffffff16146111da576040517f08c379a00000000000000000000000000000000000000000000000000000000081526004018080602001828103825260208152602001807f4f776e61626c653a2063616c6c6572206973206e6f7420746865206f776e657281525060200191505060405180910390fd5b6111f0622014808561152a90919063ffffffff16565b60988190555061123861120f82622014806114a490919063ffffffff16565b61122a670de0b6b3a7640000866114a490919063ffffffff16565b61152a90919063ffffffff16565b609781905550611254622014808361152a90919063ffffffff16565b60998190555080609a819055507f6960ab234c7ef4b0c9197100f5393cfcde7c453ac910a27bd2000aa1dd4c068d609854609754609954609a546040518085815260200184815260200183815260200182815260200194505050505060405180910390a150505050565b6000806112cc8585856109d7565b9050609a5481116113225761131a60985461130c670de0b6b3a76400006112fe609754866114a490919063ffffffff16565b61152a90919063ffffffff16565b6113d290919063ffffffff16565b9150506113cb565b600061136960985461135b670de0b6b3a764000061134d609754609a546114a490919063ffffffff16565b61152a90919063ffffffff16565b6113d290919063ffffffff16565b90506000611382609a548461145a90919063ffffffff16565b90506113c5826113b7670de0b6b3a76400006113a9609954866114a490919063ffffffff16565b61152a90919063ffffffff16565b6113d290919063ffffffff16565b93505050505b9392505050565b600080828401905083811015611450576040517f08c379a000000000000000000000000000000000000000000000000000000000815260040180806020018281038252601b8152602001807f536166654d6174683a206164646974696f6e206f766572666c6f77000000000081525060200191505060405180910390fd5b8091505092915050565b600061149c83836040518060400160405280601e81526020017f536166654d6174683a207375627472616374696f6e206f766572666c6f7700008152506118c5565b905092915050565b6000808314156114b75760009050611524565b60008284029050828482816114c857fe5b041461151f576040517f08c379a0000000000000000000000000000000000000000000000000000000008152600401808060200182810382526021815260200180611a726021913960400191505060405180910390fd5b809150505b92915050565b600061156c83836040518060400160405280601a81526020017f536166654d6174683a206469766973696f6e206279207a65726f000000000000815250611985565b905092915050565b600033905090565b60008061159a83670de0b6b3a764000061145a90919063ffffffff16565b905060006115a98787876112be565b905060006115da670de0b6b3a76400006115cc85856114a490919063ffffffff16565b61152a90919063ffffffff16565b9050611613670de0b6b3a7640000611605836115f78c8c8c6109d7565b6114a490919063ffffffff16565b61152a90919063ffffffff16565b9350505050949350505050565b600060019054906101000a900460ff168061163f575061163e610feb565b5b80611655575060008054906101000a900460ff16155b6116aa576040517f08c379a000000000000000000000000000000000000000000000000000000000815260040180806020018281038252602e815260200180611a93602e913960400191505060405180910390fd5b60008060019054906101000a900460ff1615905080156116fa576001600060016101000a81548160ff02191690831515021790555060016000806101000a81548160ff0219169083151502179055505b801561171b5760008060016101000a81548160ff0219169083151502179055505b50565b600060019054906101000a900460ff168061173d575061173c610feb565b5b80611753575060008054906101000a900460ff16155b6117a8576040517f08c379a000000000000000000000000000000000000000000000000000000000815260040180806020018281038252602e815260200180611a93602e913960400191505060405180910390fd5b60008060019054906101000a900460ff1615905080156117f8576001600060016101000a81548160ff02191690831515021790555060016000806101000a81548160ff0219169083151502179055505b6000611802611574565b905080606560006101000a81548173ffffffffffffffffffffffffffffffffffffffff021916908373ffffffffffffffffffffffffffffffffffffffff1602179055508073ffffffffffffffffffffffffffffffffffffffff16600073ffffffffffffffffffffffffffffffffffffffff167f8be0079c531659141344cd1fd0a4f28419497f9722a3daafe3b4186f6b6457e060405160405180910390a35080156118c25760008060016101000a81548160ff0219169083151502179055505b50565b6000838311158290611972576040517f08c379a00000000000000000000000000000000000000000000000000000000081526004018080602001828103825283818151815260200191508051906020019080838360005b8381101561193757808201518184015260208101905061191c565b50505050905090810190601f1680156119645780820380516001836020036101000a031916815260200191505b509250505060405180910390fd5b5060008385039050809150509392505050565b60008083118290611a31576040517f08c379a00000000000000000000000000000000000000000000000000000000081526004018080602001828103825283818151815260200191508051906020019080838360005b838110156119f65780820151818401526020810190506119db565b50505050905090810190601f168015611a235780820380516001836020036101000a031916815260200191505b509250505060405180910390fd5b506000838581611a3d57fe5b04905080915050939250505056fe4f776e61626c653a206e6577206f776e657220697320746865207a65726f2061646472657373536166654d6174683a206d756c7469706c69636174696f6e206f766572666c6f77436f6e747261637420696e7374616e63652068617320616c7265616479206265656e20696e697469616c697a6564a26469706673582212204934a603b89c90e81086c8351352a92a2161a747747cbd71ef05ba0cbf35211364736f6c634300060c0033",
  "compiler": {
    "name": "solc",
    "version": "0.6.12+commit.27d51765.Emscripten.clang",
    "optimizer": {
      "enabled": false,
      "runs": 200
    },
    "evmVersion": "istanbul"
  }
}