{
  "fileName": "Flashloan.sol",
  "contractName": "Flashloan",
  "source": "pragma solidity ^0.6.0;\n\nimport \"./IFlashLoanReceiver.sol\";\nimport \"./IFlashloan.sol\";\nimport \"../token/IPToken.sol\";\nimport \"@openzeppelin/contracts-ethereum-package/contracts/math/SafeMath.sol\";\nimport \"@openzeppelin/contracts-ethereum-package/contracts/access/Ownable.sol\";\nimport \"@openzeppelin/contracts-ethereum-package/contracts/token/ERC20/IERC20.sol\";\nimport \"@openzeppelin/contracts-ethereum-package/contracts/token/ERC20/SafeERC20.sol\";\n\ncontract Flashloan is IFlashloan, OwnableUpgradeSafe {\n\n    using SafeMath for uint256;\n    using SafeERC20 for IERC20;\n\n    address public constant ethAddress = address(0xEeeeeEeeeEeEeeEeEeEeeEEEeeeeEeeeeeeeEEeE);\n\n    mapping(address => bool) public activeCaller;\n    mapping(address => bool) public activeReceiver;\n\n    event FlashLoan(address _receiver, address _reserve, uint256 _amount, uint256 amountFee, uint256 timestamp);\n    event Action(string action, address[] addresses);\n\n    function initialize() public initializer {\n        super.__Ownable_init();\n    }\n\n    function registerActiveCaller(address[] memory callers) public onlyOwner {\n        for (uint i = 0; i < callers.length; i++) {\n            address caller = callers[i];\n            activeCaller[caller] = true;\n        }\n        emit Action(\"registerActiveCaller\", callers);\n    }\n\n    function unRegisterActiveCaller(address[] memory callers) public onlyOwner {\n        for (uint i = 0; i < callers.length; i++) {\n            address caller = callers[i];\n            activeCaller[caller] = false;\n        }\n        emit Action(\"unRegisterActiveCaller\", callers);\n    }\n\n    function registerActiveReceiver(address[] memory receivers) public onlyOwner {\n        for (uint i = 0; i < receivers.length; i++) {\n            address receiver = receivers[i];\n            activeReceiver[receiver] = true;\n        }\n        emit Action(\"registerActiveReceiver\", receivers);\n    }\n\n    function unRegisterActiveReceiver(address[] memory receivers) public onlyOwner {\n        for (uint i = 0; i < receivers.length; i++) {\n            address receiver = receivers[i];\n            activeReceiver[receiver] = false;\n        }\n        emit Action(\"unRegisterActiveReceiver\", receivers);\n    }\n\n    function transfer(address payable _destination, address _reserve, uint256 _amount) public onlyOwner {\n        transferInternal(_destination, _reserve, _amount);\n    }\n\n    function flashloan(address _pToken, address _receiver, address _reserve, uint256 _amount, bytes memory _params) external override {\n\n        address payable caller = msg.sender;\n        require(activeCaller[caller], \"Action require an active caller\");\n        require(_amount > 0, \"amount must bigger than zero\");\n        require(activeReceiver[_receiver], \"require an active receiver\");\n\n        uint256 availableLiquidityBefore = getBalanceInternal(address(this), _reserve);\n        require(availableLiquidityBefore >= _amount, \"There is not enough liquidity available to borrow\");\n\n        uint256 amountFee = getAmountFee(_reserve, _amount);\n\n        //get the FlashLoanReceiver instance\n        IFlashLoanReceiver receiver = IFlashLoanReceiver(_receiver);\n\n        address payable userPayable = address(uint160(_receiver));\n\n        transferInternal(userPayable, _reserve, _amount);\n\n        //execute action of the receiver\n        receiver.executeOperation(_reserve, _amount, amountFee, _params);\n\n        //check that the actual balance of the core contract includes the returned amount\n        uint availableLiquidityAfter = getBalanceInternal(address(this), _reserve);\n        uint difference = availableLiquidityAfter.sub(availableLiquidityBefore);\n        require(difference >= amountFee, \"The actual balance of the protocol is inconsistent\");\n\n        transferInternal(caller, _reserve, _amount);\n\n        IPToken pToken = IPToken(_pToken);\n        updateStateOnFlashLoan(pToken, _reserve, availableLiquidityBefore, amountFee);\n\n        emit FlashLoan(_receiver, _reserve, _amount, amountFee, block.timestamp);\n\n    }\n\n    function getAmountFee(address _reserve, uint256 _amount) internal returns (uint256){\n        return 0;\n    }\n\n    function updateStateOnFlashLoan(IPToken pToken, address _reserve, uint256 availableLiquidityBefore, uint256 amountFee) internal {\n    }\n\n    function transferInternal(address payable _destination, address _reserve, uint256 _amount) internal {\n        if (_reserve == ethAddress) {\n            _destination.transfer(_amount);\n            return;\n        }\n        IERC20(_reserve).safeTransfer(_destination, _amount);\n    }\n\n    function getBalanceInternal(address _target, address _reserve) internal view returns (uint256) {\n        if (_reserve == ethAddress) {\n            return _target.balance;\n        }\n        return IERC20(_reserve).balanceOf(_target);\n    }\n\n    receive() external payable {\n    }\n\n\n}\n",
  "sourcePath": "contracts/flashloan/Flashloan.sol",
  "abi": [
    {
      "anonymous": false,
      "inputs": [
        {
          "indexed": false,
          "internalType": "string",
          "name": "action",
          "type": "string"
        },
        {
          "indexed": false,
          "internalType": "address[]",
          "name": "addresses",
          "type": "address[]"
        }
      ],
      "name": "Action",
      "type": "event"
    },
    {
      "anonymous": false,
      "inputs": [
        {
          "indexed": false,
          "internalType": "address",
          "name": "_receiver",
          "type": "address"
        },
        {
          "indexed": false,
          "internalType": "address",
          "name": "_reserve",
          "type": "address"
        },
        {
          "indexed": false,
          "internalType": "uint256",
          "name": "_amount",
          "type": "uint256"
        },
        {
          "indexed": false,
          "internalType": "uint256",
          "name": "amountFee",
          "type": "uint256"
        },
        {
          "indexed": false,
          "internalType": "uint256",
          "name": "timestamp",
          "type": "uint256"
        }
      ],
      "name": "FlashLoan",
      "type": "event"
    },
    {
      "anonymous": false,
      "inputs": [
        {
          "indexed": true,
          "internalType": "address",
          "name": "previousOwner",
          "type": "address"
        },
        {
          "indexed": true,
          "internalType": "address",
          "name": "newOwner",
          "type": "address"
        }
      ],
      "name": "OwnershipTransferred",
      "type": "event"
    },
    {
      "inputs": [
        {
          "internalType": "address",
          "name": "",
          "type": "address"
        }
      ],
      "name": "activeCaller",
      "outputs": [
        {
          "internalType": "bool",
          "name": "",
          "type": "bool"
        }
      ],
      "stateMutability": "view",
      "type": "function"
    },
    {
      "inputs": [
        {
          "internalType": "address",
          "name": "",
          "type": "address"
        }
      ],
      "name": "activeReceiver",
      "outputs": [
        {
          "internalType": "bool",
          "name": "",
          "type": "bool"
        }
      ],
      "stateMutability": "view",
      "type": "function"
    },
    {
      "inputs": [],
      "name": "ethAddress",
      "outputs": [
        {
          "internalType": "address",
          "name": "",
          "type": "address"
        }
      ],
      "stateMutability": "view",
      "type": "function"
    },
    {
      "inputs": [
        {
          "internalType": "address",
          "name": "_pToken",
          "type": "address"
        },
        {
          "internalType": "address",
          "name": "_receiver",
          "type": "address"
        },
        {
          "internalType": "address",
          "name": "_reserve",
          "type": "address"
        },
        {
          "internalType": "uint256",
          "name": "_amount",
          "type": "uint256"
        },
        {
          "internalType": "bytes",
          "name": "_params",
          "type": "bytes"
        }
      ],
      "name": "flashloan",
      "outputs": [],
      "stateMutability": "nonpayable",
      "type": "function"
    },
    {
      "inputs": [],
      "name": "initialize",
      "outputs": [],
      "stateMutability": "nonpayable",
      "type": "function"
    },
    {
      "inputs": [],
      "name": "owner",
      "outputs": [
        {
          "internalType": "address",
          "name": "",
          "type": "address"
        }
      ],
      "stateMutability": "view",
      "type": "function"
    },
    {
      "inputs": [
        {
          "internalType": "address[]",
          "name": "callers",
          "type": "address[]"
        }
      ],
      "name": "registerActiveCaller",
      "outputs": [],
      "stateMutability": "nonpayable",
      "type": "function"
    },
    {
      "inputs": [
        {
          "internalType": "address[]",
          "name": "receivers",
          "type": "address[]"
        }
      ],
      "name": "registerActiveReceiver",
      "outputs": [],
      "stateMutability": "nonpayable",
      "type": "function"
    },
    {
      "inputs": [],
      "name": "renounceOwnership",
      "outputs": [],
      "stateMutability": "nonpayable",
      "type": "function"
    },
    {
      "inputs": [
        {
          "internalType": "address payable",
          "name": "_destination",
          "type": "address"
        },
        {
          "internalType": "address",
          "name": "_reserve",
          "type": "address"
        },
        {
          "internalType": "uint256",
          "name": "_amount",
          "type": "uint256"
        }
      ],
      "name": "transfer",
      "outputs": [],
      "stateMutability": "nonpayable",
      "type": "function"
    },
    {
      "inputs": [
        {
          "internalType": "address",
          "name": "newOwner",
          "type": "address"
        }
      ],
      "name": "transferOwnership",
      "outputs": [],
      "stateMutability": "nonpayable",
      "type": "function"
    },
    {
      "inputs": [
        {
          "internalType": "address[]",
          "name": "callers",
          "type": "address[]"
        }
      ],
      "name": "unRegisterActiveCaller",
      "outputs": [],
      "stateMutability": "nonpayable",
      "type": "function"
    },
    {
      "inputs": [
        {
          "internalType": "address[]",
          "name": "receivers",
          "type": "address[]"
        }
      ],
      "name": "unRegisterActiveReceiver",
      "outputs": [],
      "stateMutability": "nonpayable",
      "type": "function"
    },
    {
      "stateMutability": "payable",
      "type": "receive"
    }
  ],
  "bytecode": "0x608060405234801561001057600080fd5b50612542806100206000396000f3fe6080604052600436106100c65760003560e01c80638129fc1c1161007f578063beabacc811610059578063beabacc81461056a578063befdd1e8146105e5578063e73396af146106aa578063f2fde38b14610711576100cd565b80638129fc1c1461044d5780638bca6559146104645780638da5cb5b14610529576100cd565b80632ee0e4fd146100d2578063322042f21461013957806341398b151461026b578063715018a6146102ac578063726707fa146102c357806372d998c814610388576100cd565b366100cd57005b600080fd5b3480156100de57600080fd5b50610121600480360360208110156100f557600080fd5b81019080803573ffffffffffffffffffffffffffffffffffffffff169060200190929190505050610762565b60405180821515815260200191505060405180910390f35b34801561014557600080fd5b50610269600480360360a081101561015c57600080fd5b81019080803573ffffffffffffffffffffffffffffffffffffffff169060200190929190803573ffffffffffffffffffffffffffffffffffffffff169060200190929190803573ffffffffffffffffffffffffffffffffffffffff16906020019092919080359060200190929190803590602001906401000000008111156101e357600080fd5b8201836020820111156101f557600080fd5b8035906020019184600183028401116401000000008311171561021757600080fd5b91908080601f016020809104026020016040519081016040528093929190818152602001838380828437600081840152601f19601f820116905080830192505050505050509192919290505050610782565b005b34801561027757600080fd5b50610280610c2f565b604051808273ffffffffffffffffffffffffffffffffffffffff16815260200191505060405180910390f35b3480156102b857600080fd5b506102c1610c47565b005b3480156102cf57600080fd5b50610386600480360360208110156102e657600080fd5b810190808035906020019064010000000081111561030357600080fd5b82018360208201111561031557600080fd5b8035906020019184602083028401116401000000008311171561033757600080fd5b919080806020026020016040519081016040528093929190818152602001838360200280828437600081840152601f19601f820116905080830192505050505050509192919290505050610dd2565b005b34801561039457600080fd5b5061044b600480360360208110156103ab57600080fd5b81019080803590602001906401000000008111156103c857600080fd5b8201836020820111156103da57600080fd5b803590602001918460208302840111640100000000831117156103fc57600080fd5b919080806020026020016040519081016040528093929190818152602001838360200280828437600081840152601f19601f820116905080830192505050505050509192919290505050610fdb565b005b34801561045957600080fd5b506104626111e4565b005b34801561047057600080fd5b506105276004803603602081101561048757600080fd5b81019080803590602001906401000000008111156104a457600080fd5b8201836020820111156104b657600080fd5b803590602001918460208302840111640100000000831117156104d857600080fd5b919080806020026020016040519081016040528093929190818152602001838360200280828437600081840152601f19601f8201169050808301925050505050505091929192905050506112ea565b005b34801561053557600080fd5b5061053e6114f3565b604051808273ffffffffffffffffffffffffffffffffffffffff16815260200191505060405180910390f35b34801561057657600080fd5b506105e36004803603606081101561058d57600080fd5b81019080803573ffffffffffffffffffffffffffffffffffffffff169060200190929190803573ffffffffffffffffffffffffffffffffffffffff1690602001909291908035906020019092919050505061151d565b005b3480156105f157600080fd5b506106a86004803603602081101561060857600080fd5b810190808035906020019064010000000081111561062557600080fd5b82018360208201111561063757600080fd5b8035906020019184602083028401116401000000008311171561065957600080fd5b919080806020026020016040519081016040528093929190818152602001838360200280828437600081840152601f19601f8201169050808301925050505050505091929192905050506115f7565b005b3480156106b657600080fd5b506106f9600480360360208110156106cd57600080fd5b81019080803573ffffffffffffffffffffffffffffffffffffffff169060200190929190505050611800565b60405180821515815260200191505060405180910390f35b34801561071d57600080fd5b506107606004803603602081101561073457600080fd5b81019080803573ffffffffffffffffffffffffffffffffffffffff169060200190929190505050611820565b005b60976020528060005260406000206000915054906101000a900460ff1681565b6000339050609760008273ffffffffffffffffffffffffffffffffffffffff1673ffffffffffffffffffffffffffffffffffffffff16815260200190815260200160002060009054906101000a900460ff16610846576040517f08c379a000000000000000000000000000000000000000000000000000000000815260040180806020018281038252601f8152602001807f416374696f6e207265717569726520616e206163746976652063616c6c65720081525060200191505060405180910390fd5b600083116108bc576040517f08c379a000000000000000000000000000000000000000000000000000000000815260040180806020018281038252601c8152602001807f616d6f756e74206d75737420626967676572207468616e207a65726f0000000081525060200191505060405180910390fd5b609860008673ffffffffffffffffffffffffffffffffffffffff1673ffffffffffffffffffffffffffffffffffffffff16815260200190815260200160002060009054906101000a900460ff1661097b576040517f08c379a000000000000000000000000000000000000000000000000000000000815260040180806020018281038252601a8152602001807f7265717569726520616e2061637469766520726563656976657200000000000081525060200191505060405180910390fd5b60006109873086611a30565b9050838110156109e2576040517f08c379a000000000000000000000000000000000000000000000000000000000815260040180806020018281038252603181526020018061242c6031913960400191505060405180910390fd5b60006109ee8686611b44565b905060008790506000889050610a05818989611b4c565b8173ffffffffffffffffffffffffffffffffffffffff1663ee8725588989868a6040518563ffffffff1660e01b8152600401808573ffffffffffffffffffffffffffffffffffffffff16815260200184815260200183815260200180602001828103825283818151815260200191508051906020019080838360005b83811015610a9c578082015181840152602081019050610a81565b50505050905090810190601f168015610ac95780820380516001836020036101000a031916815260200191505b5095505050505050600060405180830381600087803b158015610aeb57600080fd5b505af1158015610aff573d6000803e3d6000fd5b505050506000610b0f308a611a30565b90506000610b268683611c1190919063ffffffff16565b905084811015610b81576040517f08c379a00000000000000000000000000000000000000000000000000000000081526004018080602001828103825260328152602001806124836032913960400191505060405180910390fd5b610b8c878b8b611b4c565b60008c9050610b9d818c8989611c5b565b7fea9aac78e0e48af4897630506e75b1ddba28503b58e70fe7bd92bce4f6efde7c8c8c8c8942604051808673ffffffffffffffffffffffffffffffffffffffff1681526020018573ffffffffffffffffffffffffffffffffffffffff1681526020018481526020018381526020018281526020019550505050505060405180910390a150505050505050505050505050565b73eeeeeeeeeeeeeeeeeeeeeeeeeeeeeeeeeeeeeeee81565b610c4f611c61565b73ffffffffffffffffffffffffffffffffffffffff16606560009054906101000a900473ffffffffffffffffffffffffffffffffffffffff1673ffffffffffffffffffffffffffffffffffffffff1614610d11576040517f08c379a00000000000000000000000000000000000000000000000000000000081526004018080602001828103825260208152602001807f4f776e61626c653a2063616c6c6572206973206e6f7420746865206f776e657281525060200191505060405180910390fd5b600073ffffffffffffffffffffffffffffffffffffffff16606560009054906101000a900473ffffffffffffffffffffffffffffffffffffffff1673ffffffffffffffffffffffffffffffffffffffff167f8be0079c531659141344cd1fd0a4f28419497f9722a3daafe3b4186f6b6457e060405160405180910390a36000606560006101000a81548173ffffffffffffffffffffffffffffffffffffffff021916908373ffffffffffffffffffffffffffffffffffffffff160217905550565b610dda611c61565b73ffffffffffffffffffffffffffffffffffffffff16606560009054906101000a900473ffffffffffffffffffffffffffffffffffffffff1673ffffffffffffffffffffffffffffffffffffffff1614610e9c576040517f08c379a00000000000000000000000000000000000000000000000000000000081526004018080602001828103825260208152602001807f4f776e61626c653a2063616c6c6572206973206e6f7420746865206f776e657281525060200191505060405180910390fd5b60005b8151811015610f26576000828281518110610eb657fe5b602002602001015190506000609760008373ffffffffffffffffffffffffffffffffffffffff1673ffffffffffffffffffffffffffffffffffffffff16815260200190815260200160002060006101000a81548160ff021916908315150217905550508080600101915050610e9f565b507f2f8d6363bfbcd5d3290cd5be86d5f11e49adf8133a989b3ba36f350da139b7ba81604051808060200180602001838103835260168152602001807f756e526567697374657241637469766543616c6c657200000000000000000000815250602001838103825284818151815260200191508051906020019060200280838360005b83811015610fc4578082015181840152602081019050610fa9565b50505050905001935050505060405180910390a150565b610fe3611c61565b73ffffffffffffffffffffffffffffffffffffffff16606560009054906101000a900473ffffffffffffffffffffffffffffffffffffffff1673ffffffffffffffffffffffffffffffffffffffff16146110a5576040517f08c379a00000000000000000000000000000000000000000000000000000000081526004018080602001828103825260208152602001807f4f776e61626c653a2063616c6c6572206973206e6f7420746865206f776e657281525060200191505060405180910390fd5b60005b815181101561112f5760008282815181106110bf57fe5b602002602001015190506001609860008373ffffffffffffffffffffffffffffffffffffffff1673ffffffffffffffffffffffffffffffffffffffff16815260200190815260200160002060006101000a81548160ff0219169083151502179055505080806001019150506110a8565b507f2f8d6363bfbcd5d3290cd5be86d5f11e49adf8133a989b3ba36f350da139b7ba81604051808060200180602001838103835260168152602001807f7265676973746572416374697665526563656976657200000000000000000000815250602001838103825284818151815260200191508051906020019060200280838360005b838110156111cd5780820151818401526020810190506111b2565b50505050905001935050505060405180910390a150565b600060019054906101000a900460ff16806112035750611202611c69565b5b80611219575060008054906101000a900460ff16155b61126e576040517f08c379a000000000000000000000000000000000000000000000000000000000815260040180806020018281038252602e8152602001806124b5602e913960400191505060405180910390fd5b60008060019054906101000a900460ff1615905080156112be576001600060016101000a81548160ff02191690831515021790555060016000806101000a81548160ff0219169083151502179055505b6112c6611c80565b80156112e75760008060016101000a81548160ff0219169083151502179055505b50565b6112f2611c61565b73ffffffffffffffffffffffffffffffffffffffff16606560009054906101000a900473ffffffffffffffffffffffffffffffffffffffff1673ffffffffffffffffffffffffffffffffffffffff16146113b4576040517f08c379a00000000000000000000000000000000000000000000000000000000081526004018080602001828103825260208152602001807f4f776e61626c653a2063616c6c6572206973206e6f7420746865206f776e657281525060200191505060405180910390fd5b60005b815181101561143e5760008282815181106113ce57fe5b602002602001015190506001609760008373ffffffffffffffffffffffffffffffffffffffff1673ffffffffffffffffffffffffffffffffffffffff16815260200190815260200160002060006101000a81548160ff0219169083151502179055505080806001019150506113b7565b507f2f8d6363bfbcd5d3290cd5be86d5f11e49adf8133a989b3ba36f350da139b7ba81604051808060200180602001838103835260148152602001807f726567697374657241637469766543616c6c6572000000000000000000000000815250602001838103825284818151815260200191508051906020019060200280838360005b838110156114dc5780820151818401526020810190506114c1565b50505050905001935050505060405180910390a150565b6000606560009054906101000a900473ffffffffffffffffffffffffffffffffffffffff16905090565b611525611c61565b73ffffffffffffffffffffffffffffffffffffffff16606560009054906101000a900473ffffffffffffffffffffffffffffffffffffffff1673ffffffffffffffffffffffffffffffffffffffff16146115e7576040517f08c379a00000000000000000000000000000000000000000000000000000000081526004018080602001828103825260208152602001807f4f776e61626c653a2063616c6c6572206973206e6f7420746865206f776e657281525060200191505060405180910390fd5b6115f2838383611b4c565b505050565b6115ff611c61565b73ffffffffffffffffffffffffffffffffffffffff16606560009054906101000a900473ffffffffffffffffffffffffffffffffffffffff1673ffffffffffffffffffffffffffffffffffffffff16146116c1576040517f08c379a00000000000000000000000000000000000000000000000000000000081526004018080602001828103825260208152602001807f4f776e61626c653a2063616c6c6572206973206e6f7420746865206f776e657281525060200191505060405180910390fd5b60005b815181101561174b5760008282815181106116db57fe5b602002602001015190506000609860008373ffffffffffffffffffffffffffffffffffffffff1673ffffffffffffffffffffffffffffffffffffffff16815260200190815260200160002060006101000a81548160ff0219169083151502179055505080806001019150506116c4565b507f2f8d6363bfbcd5d3290cd5be86d5f11e49adf8133a989b3ba36f350da139b7ba81604051808060200180602001838103835260188152602001807f756e526567697374657241637469766552656365697665720000000000000000815250602001838103825284818151815260200191508051906020019060200280838360005b838110156117e95780820151818401526020810190506117ce565b50505050905001935050505060405180910390a150565b60986020528060005260406000206000915054906101000a900460ff1681565b611828611c61565b73ffffffffffffffffffffffffffffffffffffffff16606560009054906101000a900473ffffffffffffffffffffffffffffffffffffffff1673ffffffffffffffffffffffffffffffffffffffff16146118ea576040517f08c379a00000000000000000000000000000000000000000000000000000000081526004018080602001828103825260208152602001807f4f776e61626c653a2063616c6c6572206973206e6f7420746865206f776e657281525060200191505060405180910390fd5b600073ffffffffffffffffffffffffffffffffffffffff168173ffffffffffffffffffffffffffffffffffffffff161415611970576040517f08c379a000000000000000000000000000000000000000000000000000000000815260040180806020018281038252602681526020018061245d6026913960400191505060405180910390fd5b8073ffffffffffffffffffffffffffffffffffffffff16606560009054906101000a900473ffffffffffffffffffffffffffffffffffffffff1673ffffffffffffffffffffffffffffffffffffffff167f8be0079c531659141344cd1fd0a4f28419497f9722a3daafe3b4186f6b6457e060405160405180910390a380606560006101000a81548173ffffffffffffffffffffffffffffffffffffffff021916908373ffffffffffffffffffffffffffffffffffffffff16021790555050565b600073eeeeeeeeeeeeeeeeeeeeeeeeeeeeeeeeeeeeeeee73ffffffffffffffffffffffffffffffffffffffff168273ffffffffffffffffffffffffffffffffffffffff161415611a99578273ffffffffffffffffffffffffffffffffffffffff16319050611b3e565b8173ffffffffffffffffffffffffffffffffffffffff166370a08231846040518263ffffffff1660e01b8152600401808273ffffffffffffffffffffffffffffffffffffffff16815260200191505060206040518083038186803b158015611b0057600080fd5b505afa158015611b14573d6000803e3d6000fd5b505050506040513d6020811015611b2a57600080fd5b810190808051906020019092919050505090505b92915050565b600092915050565b73eeeeeeeeeeeeeeeeeeeeeeeeeeeeeeeeeeeeeeee73ffffffffffffffffffffffffffffffffffffffff168273ffffffffffffffffffffffffffffffffffffffff161415611be0578273ffffffffffffffffffffffffffffffffffffffff166108fc829081150290604051600060405180830381858888f19350505050158015611bda573d6000803e3d6000fd5b50611c0c565b611c0b83828473ffffffffffffffffffffffffffffffffffffffff16611d8e9092919063ffffffff16565b5b505050565b6000611c5383836040518060400160405280601e81526020017f536166654d6174683a207375627472616374696f6e206f766572666c6f770000815250611e30565b905092915050565b50505050565b600033905090565b6000803090506000813b9050600081149250505090565b600060019054906101000a900460ff1680611c9f5750611c9e611c69565b5b80611cb5575060008054906101000a900460ff16155b611d0a576040517f08c379a000000000000000000000000000000000000000000000000000000000815260040180806020018281038252602e8152602001806124b5602e913960400191505060405180910390fd5b60008060019054906101000a900460ff161590508015611d5a576001600060016101000a81548160ff02191690831515021790555060016000806101000a81548160ff0219169083151502179055505b611d62611ef0565b611d6a611fee565b8015611d8b5760008060016101000a81548160ff0219169083151502179055505b50565b611e2b8363a9059cbb60e01b8484604051602401808373ffffffffffffffffffffffffffffffffffffffff16815260200182815260200192505050604051602081830303815290604052907bffffffffffffffffffffffffffffffffffffffffffffffffffffffff19166020820180517bffffffffffffffffffffffffffffffffffffffffffffffffffffffff8381831617835250505050612195565b505050565b6000838311158290611edd576040517f08c379a00000000000000000000000000000000000000000000000000000000081526004018080602001828103825283818151815260200191508051906020019080838360005b83811015611ea2578082015181840152602081019050611e87565b50505050905090810190601f168015611ecf5780820380516001836020036101000a031916815260200191505b509250505060405180910390fd5b5060008385039050809150509392505050565b600060019054906101000a900460ff1680611f0f5750611f0e611c69565b5b80611f25575060008054906101000a900460ff16155b611f7a576040517f08c379a000000000000000000000000000000000000000000000000000000000815260040180806020018281038252602e8152602001806124b5602e913960400191505060405180910390fd5b60008060019054906101000a900460ff161590508015611fca576001600060016101000a81548160ff02191690831515021790555060016000806101000a81548160ff0219169083151502179055505b8015611feb5760008060016101000a81548160ff0219169083151502179055505b50565b600060019054906101000a900460ff168061200d575061200c611c69565b5b80612023575060008054906101000a900460ff16155b612078576040517f08c379a000000000000000000000000000000000000000000000000000000000815260040180806020018281038252602e8152602001806124b5602e913960400191505060405180910390fd5b60008060019054906101000a900460ff1615905080156120c8576001600060016101000a81548160ff02191690831515021790555060016000806101000a81548160ff0219169083151502179055505b60006120d2611c61565b905080606560006101000a81548173ffffffffffffffffffffffffffffffffffffffff021916908373ffffffffffffffffffffffffffffffffffffffff1602179055508073ffffffffffffffffffffffffffffffffffffffff16600073ffffffffffffffffffffffffffffffffffffffff167f8be0079c531659141344cd1fd0a4f28419497f9722a3daafe3b4186f6b6457e060405160405180910390a35080156121925760008060016101000a81548160ff0219169083151502179055505b50565b6121b48273ffffffffffffffffffffffffffffffffffffffff166123e0565b612226576040517f08c379a000000000000000000000000000000000000000000000000000000000815260040180806020018281038252601f8152602001807f5361666545524332303a2063616c6c20746f206e6f6e2d636f6e74726163740081525060200191505060405180910390fd5b600060608373ffffffffffffffffffffffffffffffffffffffff16836040518082805190602001908083835b602083106122755780518252602082019150602081019050602083039250612252565b6001836020036101000a0380198251168184511680821785525050505050509050019150506000604051808303816000865af19150503d80600081146122d7576040519150601f19603f3d011682016040523d82523d6000602084013e6122dc565b606091505b509150915081612354576040517f08c379a00000000000000000000000000000000000000000000000000000000081526004018080602001828103825260208152602001807f5361666545524332303a206c6f772d6c6576656c2063616c6c206661696c656481525060200191505060405180910390fd5b6000815111156123da5780806020019051602081101561237357600080fd5b81019080805190602001909291905050506123d9576040517f08c379a000000000000000000000000000000000000000000000000000000000815260040180806020018281038252602a8152602001806124e3602a913960400191505060405180910390fd5b5b50505050565b60008060007fc5d2460186f7233c927e7db2dcc703c0e500b653ca82273b7bfad8045d85a47060001b9050833f915080821415801561242257506000801b8214155b9250505091905056fe5468657265206973206e6f7420656e6f756768206c697175696469747920617661696c61626c6520746f20626f72726f774f776e61626c653a206e6577206f776e657220697320746865207a65726f20616464726573735468652061637475616c2062616c616e6365206f66207468652070726f746f636f6c20697320696e636f6e73697374656e74436f6e747261637420696e7374616e63652068617320616c7265616479206265656e20696e697469616c697a65645361666545524332303a204552433230206f7065726174696f6e20646964206e6f742073756363656564a26469706673582212204111bf95de8fdfb0e3f8a10344c92bf8993dcbc3e2b0207d597797766ad4444c64736f6c634300060c0033",
  "compiler": {
    "name": "solc",
    "version": "0.6.12+commit.27d51765.Emscripten.clang",
    "optimizer": {
      "enabled": false,
      "runs": 200
    },
    "evmVersion": "istanbul"
  }
}