{
  "fileName": "FundingManager.sol",
  "contractName": "FundingManager",
  "source": "// SPDX-License-Identifier: MIT\npragma solidity 0.6.12;\n\nimport \"@openzeppelin/contracts/math/SafeMath.sol\";\nimport \"@openzeppelin/contracts/access/Ownable.sol\";\nimport \"../token/WePiggyToken.sol\";\n\ncontract FundingManager is Ownable {\n\n    using SafeMath for uint256;\n\n    struct FundingHolderInfo {\n        uint256 ratio;\n        string name;\n        address addr;\n    }\n\n    // The WePiggyToken !\n    WePiggyToken public piggy;\n\n    // Info of each funding.\n    FundingHolderInfo[] public fundingHolders;\n\n    constructor(WePiggyToken _piggy) public {\n        piggy = _piggy;\n    }\n\n\n    // Safe piggy transfer function, just in case if rounding error causes pool to not have enough PiggyToken.\n    function safePiggyTransfer(address _to, uint256 _amount) internal {\n        uint256 piggyBal = piggy.balanceOf(address(this));\n        if (_amount > piggyBal) {\n            piggy.transfer(_to, piggyBal);\n        } else {\n            piggy.transfer(_to, _amount);\n        }\n    }\n\n    //Update funding pool\n    function addFunding(string memory _name, address _addr, uint256 _ratio) public onlyOwner {\n\n        fundingHolders.push(FundingHolderInfo({\n        name : _name,\n        addr : _addr,\n        ratio : _ratio\n        }));\n\n    }\n\n    //Update funding pool\n    function setFunding(uint256 pid, string memory _name, address _addr, uint256 _ratio) public onlyOwner {\n\n        FundingHolderInfo storage fhi = fundingHolders[pid];\n\n        fhi.name = _name;\n        fhi.addr = _addr;\n        fhi.ratio = _ratio;\n    }\n\n    // Return the pool pending balance.\n    function getPendingBalance(uint256 pid) public view returns (uint256){\n        FundingHolderInfo storage fhi = fundingHolders[pid];\n        uint256 piggyBal = piggy.balanceOf(address(this));\n        uint _amount = piggyBal.mul(fhi.ratio).div(100);\n        return _amount;\n    }\n\n    //claim wpc. every can call this function, but transfer token to\n    function claim() public {\n        uint256 piggyBal = piggy.balanceOf(address(this));\n        for (uint256 i = 0; i < fundingHolders.length; i++) {\n            FundingHolderInfo storage fhi = fundingHolders[i];\n            uint _amount = piggyBal.mul(fhi.ratio).div(100);\n            safePiggyTransfer(fhi.addr, _amount);\n        }\n\n    }\n\n}",
  "sourcePath": "contracts/governance/FundingManager.sol",
  "abi": [
    {
      "inputs": [
        {
          "internalType": "contract WePiggyToken",
          "name": "_piggy",
          "type": "address"
        }
      ],
      "stateMutability": "nonpayable",
      "type": "constructor"
    },
    {
      "anonymous": false,
      "inputs": [
        {
          "indexed": true,
          "internalType": "address",
          "name": "previousOwner",
          "type": "address"
        },
        {
          "indexed": true,
          "internalType": "address",
          "name": "newOwner",
          "type": "address"
        }
      ],
      "name": "OwnershipTransferred",
      "type": "event"
    },
    {
      "inputs": [
        {
          "internalType": "string",
          "name": "_name",
          "type": "string"
        },
        {
          "internalType": "address",
          "name": "_addr",
          "type": "address"
        },
        {
          "internalType": "uint256",
          "name": "_ratio",
          "type": "uint256"
        }
      ],
      "name": "addFunding",
      "outputs": [],
      "stateMutability": "nonpayable",
      "type": "function"
    },
    {
      "inputs": [],
      "name": "claim",
      "outputs": [],
      "stateMutability": "nonpayable",
      "type": "function"
    },
    {
      "inputs": [
        {
          "internalType": "uint256",
          "name": "",
          "type": "uint256"
        }
      ],
      "name": "fundingHolders",
      "outputs": [
        {
          "internalType": "uint256",
          "name": "ratio",
          "type": "uint256"
        },
        {
          "internalType": "string",
          "name": "name",
          "type": "string"
        },
        {
          "internalType": "address",
          "name": "addr",
          "type": "address"
        }
      ],
      "stateMutability": "view",
      "type": "function"
    },
    {
      "inputs": [
        {
          "internalType": "uint256",
          "name": "pid",
          "type": "uint256"
        }
      ],
      "name": "getPendingBalance",
      "outputs": [
        {
          "internalType": "uint256",
          "name": "",
          "type": "uint256"
        }
      ],
      "stateMutability": "view",
      "type": "function"
    },
    {
      "inputs": [],
      "name": "owner",
      "outputs": [
        {
          "internalType": "address",
          "name": "",
          "type": "address"
        }
      ],
      "stateMutability": "view",
      "type": "function"
    },
    {
      "inputs": [],
      "name": "piggy",
      "outputs": [
        {
          "internalType": "contract WePiggyToken",
          "name": "",
          "type": "address"
        }
      ],
      "stateMutability": "view",
      "type": "function"
    },
    {
      "inputs": [],
      "name": "renounceOwnership",
      "outputs": [],
      "stateMutability": "nonpayable",
      "type": "function"
    },
    {
      "inputs": [
        {
          "internalType": "uint256",
          "name": "pid",
          "type": "uint256"
        },
        {
          "internalType": "string",
          "name": "_name",
          "type": "string"
        },
        {
          "internalType": "address",
          "name": "_addr",
          "type": "address"
        },
        {
          "internalType": "uint256",
          "name": "_ratio",
          "type": "uint256"
        }
      ],
      "name": "setFunding",
      "outputs": [],
      "stateMutability": "nonpayable",
      "type": "function"
    },
    {
      "inputs": [
        {
          "internalType": "address",
          "name": "newOwner",
          "type": "address"
        }
      ],
      "name": "transferOwnership",
      "outputs": [],
      "stateMutability": "nonpayable",
      "type": "function"
    }
  ],
  "bytecode": "0x608060405234801561001057600080fd5b506040516114fc3803806114fc8339818101604052602081101561003357600080fd5b8101908080519060200190929190505050600061005461013960201b60201c565b9050806000806101000a81548173ffffffffffffffffffffffffffffffffffffffff021916908373ffffffffffffffffffffffffffffffffffffffff1602179055508073ffffffffffffffffffffffffffffffffffffffff16600073ffffffffffffffffffffffffffffffffffffffff167f8be0079c531659141344cd1fd0a4f28419497f9722a3daafe3b4186f6b6457e060405160405180910390a35080600160006101000a81548173ffffffffffffffffffffffffffffffffffffffff021916908373ffffffffffffffffffffffffffffffffffffffff16021790555050610141565b600033905090565b6113ac806101506000396000f3fe608060405234801561001057600080fd5b50600436106100935760003560e01c80638da5cb5b116100665780638da5cb5b146101b95780638ee7fa92146101ed578063b5fdf28e146102d2578063c58804cf14610306578063f2fde38b146103f557610093565b8063024dd44a146100985780634e71d92d1461016357806363a1b18c1461016d578063715018a6146101af575b600080fd5b6100c4600480360360208110156100ae57600080fd5b8101908080359060200190929190505050610439565b60405180848152602001806020018373ffffffffffffffffffffffffffffffffffffffff168152602001828103825284818151815260200191508051906020019080838360005b8381101561012657808201518184015260208101905061010b565b50505050905090810190601f1680156101535780820380516001836020036101000a031916815260200191505b5094505050505060405180910390f35b61016b610528565b005b6101996004803603602081101561018357600080fd5b810190808035906020019092919050505061068e565b6040518082815260200191505060405180910390f35b6101b76107af565b005b6101c1610935565b604051808273ffffffffffffffffffffffffffffffffffffffff16815260200191505060405180910390f35b6102d06004803603606081101561020357600080fd5b810190808035906020019064010000000081111561022057600080fd5b82018360208201111561023257600080fd5b8035906020019184600183028401116401000000008311171561025457600080fd5b91908080601f016020809104026020016040519081016040528093929190818152602001838380828437600081840152601f19601f820116905080830192505050505050509192919290803573ffffffffffffffffffffffffffffffffffffffff1690602001909291908035906020019092919050505061095e565b005b6102da610af7565b604051808273ffffffffffffffffffffffffffffffffffffffff16815260200191505060405180910390f35b6103f36004803603608081101561031c57600080fd5b81019080803590602001909291908035906020019064010000000081111561034357600080fd5b82018360208201111561035557600080fd5b8035906020019184600183028401116401000000008311171561037757600080fd5b91908080601f016020809104026020016040519081016040528093929190818152602001838380828437600081840152601f19601f820116905080830192505050505050509192919290803573ffffffffffffffffffffffffffffffffffffffff16906020019092919080359060200190929190505050610b1d565b005b6104376004803603602081101561040b57600080fd5b81019080803573ffffffffffffffffffffffffffffffffffffffff169060200190929190505050610c70565b005b6002818154811061044657fe5b9060005260206000209060030201600091509050806000015490806001018054600181600116156101000203166002900480601f0160208091040260200160405190810160405280929190818152602001828054600181600116156101000203166002900480156104f85780601f106104cd576101008083540402835291602001916104f8565b820191906000526020600020905b8154815290600101906020018083116104db57829003601f168201915b5050505050908060020160009054906101000a900473ffffffffffffffffffffffffffffffffffffffff16905083565b6000600160009054906101000a900473ffffffffffffffffffffffffffffffffffffffff1673ffffffffffffffffffffffffffffffffffffffff166370a08231306040518263ffffffff1660e01b8152600401808273ffffffffffffffffffffffffffffffffffffffff16815260200191505060206040518083038186803b1580156105b357600080fd5b505afa1580156105c7573d6000803e3d6000fd5b505050506040513d60208110156105dd57600080fd5b8101908080519060200190929190505050905060005b60028054905081101561068a5760006002828154811061060f57fe5b90600052602060002090600302019050600061064b606461063d846000015487610e7b90919063ffffffff16565b610f0190919063ffffffff16565b905061067b8260020160009054906101000a900473ffffffffffffffffffffffffffffffffffffffff1682610f4b565b505080806001019150506105f3565b5050565b6000806002838154811061069e57fe5b906000526020600020906003020190506000600160009054906101000a900473ffffffffffffffffffffffffffffffffffffffff1673ffffffffffffffffffffffffffffffffffffffff166370a08231306040518263ffffffff1660e01b8152600401808273ffffffffffffffffffffffffffffffffffffffff16815260200191505060206040518083038186803b15801561073957600080fd5b505afa15801561074d573d6000803e3d6000fd5b505050506040513d602081101561076357600080fd5b8101908080519060200190929190505050905060006107a26064610794856000015485610e7b90919063ffffffff16565b610f0190919063ffffffff16565b9050809350505050919050565b6107b76111c4565b73ffffffffffffffffffffffffffffffffffffffff1660008054906101000a900473ffffffffffffffffffffffffffffffffffffffff1673ffffffffffffffffffffffffffffffffffffffff1614610877576040517f08c379a00000000000000000000000000000000000000000000000000000000081526004018080602001828103825260208152602001807f4f776e61626c653a2063616c6c6572206973206e6f7420746865206f776e657281525060200191505060405180910390fd5b600073ffffffffffffffffffffffffffffffffffffffff1660008054906101000a900473ffffffffffffffffffffffffffffffffffffffff1673ffffffffffffffffffffffffffffffffffffffff167f8be0079c531659141344cd1fd0a4f28419497f9722a3daafe3b4186f6b6457e060405160405180910390a360008060006101000a81548173ffffffffffffffffffffffffffffffffffffffff021916908373ffffffffffffffffffffffffffffffffffffffff160217905550565b60008060009054906101000a900473ffffffffffffffffffffffffffffffffffffffff16905090565b6109666111c4565b73ffffffffffffffffffffffffffffffffffffffff1660008054906101000a900473ffffffffffffffffffffffffffffffffffffffff1673ffffffffffffffffffffffffffffffffffffffff1614610a26576040517f08c379a00000000000000000000000000000000000000000000000000000000081526004018080602001828103825260208152602001807f4f776e61626c653a2063616c6c6572206973206e6f7420746865206f776e657281525060200191505060405180910390fd5b600260405180606001604052808381526020018581526020018473ffffffffffffffffffffffffffffffffffffffff168152509080600181540180825580915050600190039060005260206000209060030201600090919091909150600082015181600001556020820151816001019080519060200190610aa8929190611292565b5060408201518160020160006101000a81548173ffffffffffffffffffffffffffffffffffffffff021916908373ffffffffffffffffffffffffffffffffffffffff1602179055505050505050565b600160009054906101000a900473ffffffffffffffffffffffffffffffffffffffff1681565b610b256111c4565b73ffffffffffffffffffffffffffffffffffffffff1660008054906101000a900473ffffffffffffffffffffffffffffffffffffffff1673ffffffffffffffffffffffffffffffffffffffff1614610be5576040517f08c379a00000000000000000000000000000000000000000000000000000000081526004018080602001828103825260208152602001807f4f776e61626c653a2063616c6c6572206973206e6f7420746865206f776e657281525060200191505060405180910390fd5b600060028581548110610bf457fe5b9060005260206000209060030201905083816001019080519060200190610c1c929190611292565b50828160020160006101000a81548173ffffffffffffffffffffffffffffffffffffffff021916908373ffffffffffffffffffffffffffffffffffffffff1602179055508181600001819055505050505050565b610c786111c4565b73ffffffffffffffffffffffffffffffffffffffff1660008054906101000a900473ffffffffffffffffffffffffffffffffffffffff1673ffffffffffffffffffffffffffffffffffffffff1614610d38576040517f08c379a00000000000000000000000000000000000000000000000000000000081526004018080602001828103825260208152602001807f4f776e61626c653a2063616c6c6572206973206e6f7420746865206f776e657281525060200191505060405180910390fd5b600073ffffffffffffffffffffffffffffffffffffffff168173ffffffffffffffffffffffffffffffffffffffff161415610dbe576040517f08c379a00000000000000000000000000000000000000000000000000000000081526004018080602001828103825260268152602001806113306026913960400191505060405180910390fd5b8073ffffffffffffffffffffffffffffffffffffffff1660008054906101000a900473ffffffffffffffffffffffffffffffffffffffff1673ffffffffffffffffffffffffffffffffffffffff167f8be0079c531659141344cd1fd0a4f28419497f9722a3daafe3b4186f6b6457e060405160405180910390a3806000806101000a81548173ffffffffffffffffffffffffffffffffffffffff021916908373ffffffffffffffffffffffffffffffffffffffff16021790555050565b600080831415610e8e5760009050610efb565b6000828402905082848281610e9f57fe5b0414610ef6576040517f08c379a00000000000000000000000000000000000000000000000000000000081526004018080602001828103825260218152602001806113566021913960400191505060405180910390fd5b809150505b92915050565b6000610f4383836040518060400160405280601a81526020017f536166654d6174683a206469766973696f6e206279207a65726f0000000000008152506111cc565b905092915050565b6000600160009054906101000a900473ffffffffffffffffffffffffffffffffffffffff1673ffffffffffffffffffffffffffffffffffffffff166370a08231306040518263ffffffff1660e01b8152600401808273ffffffffffffffffffffffffffffffffffffffff16815260200191505060206040518083038186803b158015610fd657600080fd5b505afa158015610fea573d6000803e3d6000fd5b505050506040513d602081101561100057600080fd5b81019080805190602001909291905050509050808211156110ef57600160009054906101000a900473ffffffffffffffffffffffffffffffffffffffff1673ffffffffffffffffffffffffffffffffffffffff1663a9059cbb84836040518363ffffffff1660e01b8152600401808373ffffffffffffffffffffffffffffffffffffffff16815260200182815260200192505050602060405180830381600087803b1580156110ae57600080fd5b505af11580156110c2573d6000803e3d6000fd5b505050506040513d60208110156110d857600080fd5b8101908080519060200190929190505050506111bf565b600160009054906101000a900473ffffffffffffffffffffffffffffffffffffffff1673ffffffffffffffffffffffffffffffffffffffff1663a9059cbb84846040518363ffffffff1660e01b8152600401808373ffffffffffffffffffffffffffffffffffffffff16815260200182815260200192505050602060405180830381600087803b15801561118257600080fd5b505af1158015611196573d6000803e3d6000fd5b505050506040513d60208110156111ac57600080fd5b8101908080519060200190929190505050505b505050565b600033905090565b60008083118290611278576040517f08c379a00000000000000000000000000000000000000000000000000000000081526004018080602001828103825283818151815260200191508051906020019080838360005b8381101561123d578082015181840152602081019050611222565b50505050905090810190601f16801561126a5780820380516001836020036101000a031916815260200191505b509250505060405180910390fd5b50600083858161128457fe5b049050809150509392505050565b828054600181600116156101000203166002900490600052602060002090601f016020900481019282601f106112d357805160ff1916838001178555611301565b82800160010185558215611301579182015b828111156113005782518255916020019190600101906112e5565b5b50905061130e9190611312565b5090565b5b8082111561132b576000816000905550600101611313565b509056fe4f776e61626c653a206e6577206f776e657220697320746865207a65726f2061646472657373536166654d6174683a206d756c7469706c69636174696f6e206f766572666c6f77a26469706673582212204a89df7bddb81f9ed96ca45640e057543cc62372e8f8baae9483a4dfd330f46464736f6c634300060c0033",
  "compiler": {
    "name": "solc",
    "version": "0.6.12+commit.27d51765.Emscripten.clang",
    "optimizer": {
      "enabled": false,
      "runs": 200
    },
    "evmVersion": "istanbul"
  }
}