{
  "fileName": "JumpRateModel.sol",
  "contractName": "JumpRateModel",
  "source": "// SPDX-License-Identifier: MIT\npragma solidity ^0.6.0;\n\nimport \"./BaseJumpRateModel.sol\";\n\n\n/**\n  * @title Compound's JumpRateModel Contract V2 for V2 cTokens\n  * @author Arr00\n  * @notice Supports only for V2 cTokens\n  */\ncontract JumpRateModel is BaseJumpRateModel {\n\n    function initialize(uint baseRatePerYear, uint multiplierPerYear, uint jumpMultiplierPerYear, uint kink_) public initializer {\n        super.__Ownable_init();\n        super.updateJumpRateModelInternal(baseRatePerYear, multiplierPerYear, jumpMultiplierPerYear, kink_);\n    }\n}\n",
  "sourcePath": "contracts/rate/JumpRateModel.sol",
  "abi": [
    {
      "anonymous": false,
      "inputs": [
        {
          "indexed": false,
          "internalType": "uint256",
          "name": "baseRatePerBlock",
          "type": "uint256"
        },
        {
          "indexed": false,
          "internalType": "uint256",
          "name": "multiplierPerBlock",
          "type": "uint256"
        },
        {
          "indexed": false,
          "internalType": "uint256",
          "name": "jumpMultiplierPerBlock",
          "type": "uint256"
        },
        {
          "indexed": false,
          "internalType": "uint256",
          "name": "kink",
          "type": "uint256"
        }
      ],
      "name": "NewInterestParams",
      "type": "event"
    },
    {
      "anonymous": false,
      "inputs": [
        {
          "indexed": true,
          "internalType": "address",
          "name": "previousOwner",
          "type": "address"
        },
        {
          "indexed": true,
          "internalType": "address",
          "name": "newOwner",
          "type": "address"
        }
      ],
      "name": "OwnershipTransferred",
      "type": "event"
    },
    {
      "inputs": [],
      "name": "baseRatePerBlock",
      "outputs": [
        {
          "internalType": "uint256",
          "name": "",
          "type": "uint256"
        }
      ],
      "stateMutability": "view",
      "type": "function"
    },
    {
      "inputs": [],
      "name": "blocksPerYear",
      "outputs": [
        {
          "internalType": "uint256",
          "name": "",
          "type": "uint256"
        }
      ],
      "stateMutability": "view",
      "type": "function"
    },
    {
      "inputs": [
        {
          "internalType": "uint256",
          "name": "cash",
          "type": "uint256"
        },
        {
          "internalType": "uint256",
          "name": "borrows",
          "type": "uint256"
        },
        {
          "internalType": "uint256",
          "name": "reserves",
          "type": "uint256"
        }
      ],
      "name": "getBorrowRate",
      "outputs": [
        {
          "internalType": "uint256",
          "name": "",
          "type": "uint256"
        }
      ],
      "stateMutability": "view",
      "type": "function"
    },
    {
      "inputs": [
        {
          "internalType": "uint256",
          "name": "cash",
          "type": "uint256"
        },
        {
          "internalType": "uint256",
          "name": "borrows",
          "type": "uint256"
        },
        {
          "internalType": "uint256",
          "name": "reserves",
          "type": "uint256"
        },
        {
          "internalType": "uint256",
          "name": "reserveFactorMantissa",
          "type": "uint256"
        }
      ],
      "name": "getSupplyRate",
      "outputs": [
        {
          "internalType": "uint256",
          "name": "",
          "type": "uint256"
        }
      ],
      "stateMutability": "view",
      "type": "function"
    },
    {
      "inputs": [
        {
          "internalType": "uint256",
          "name": "baseRatePerYear",
          "type": "uint256"
        },
        {
          "internalType": "uint256",
          "name": "multiplierPerYear",
          "type": "uint256"
        },
        {
          "internalType": "uint256",
          "name": "jumpMultiplierPerYear",
          "type": "uint256"
        },
        {
          "internalType": "uint256",
          "name": "kink_",
          "type": "uint256"
        }
      ],
      "name": "initialize",
      "outputs": [],
      "stateMutability": "nonpayable",
      "type": "function"
    },
    {
      "inputs": [],
      "name": "jumpMultiplierPerBlock",
      "outputs": [
        {
          "internalType": "uint256",
          "name": "",
          "type": "uint256"
        }
      ],
      "stateMutability": "view",
      "type": "function"
    },
    {
      "inputs": [],
      "name": "kink",
      "outputs": [
        {
          "internalType": "uint256",
          "name": "",
          "type": "uint256"
        }
      ],
      "stateMutability": "view",
      "type": "function"
    },
    {
      "inputs": [],
      "name": "multiplierPerBlock",
      "outputs": [
        {
          "internalType": "uint256",
          "name": "",
          "type": "uint256"
        }
      ],
      "stateMutability": "view",
      "type": "function"
    },
    {
      "inputs": [],
      "name": "owner",
      "outputs": [
        {
          "internalType": "address",
          "name": "",
          "type": "address"
        }
      ],
      "stateMutability": "view",
      "type": "function"
    },
    {
      "inputs": [],
      "name": "renounceOwnership",
      "outputs": [],
      "stateMutability": "nonpayable",
      "type": "function"
    },
    {
      "inputs": [
        {
          "internalType": "address",
          "name": "newOwner",
          "type": "address"
        }
      ],
      "name": "transferOwnership",
      "outputs": [],
      "stateMutability": "nonpayable",
      "type": "function"
    },
    {
      "inputs": [
        {
          "internalType": "uint256",
          "name": "baseRatePerYear",
          "type": "uint256"
        },
        {
          "internalType": "uint256",
          "name": "multiplierPerYear",
          "type": "uint256"
        },
        {
          "internalType": "uint256",
          "name": "jumpMultiplierPerYear",
          "type": "uint256"
        },
        {
          "internalType": "uint256",
          "name": "kink_",
          "type": "uint256"
        }
      ],
      "name": "updateJumpRateModel",
      "outputs": [],
      "stateMutability": "nonpayable",
      "type": "function"
    },
    {
      "inputs": [
        {
          "internalType": "uint256",
          "name": "cash",
          "type": "uint256"
        },
        {
          "internalType": "uint256",
          "name": "borrows",
          "type": "uint256"
        },
        {
          "internalType": "uint256",
          "name": "reserves",
          "type": "uint256"
        }
      ],
      "name": "utilizationRate",
      "outputs": [
        {
          "internalType": "uint256",
          "name": "",
          "type": "uint256"
        }
      ],
      "stateMutability": "pure",
      "type": "function"
    }
  ],
  "bytecode": "0x608060405234801561001057600080fd5b50611443806100206000396000f3fe608060405234801561001057600080fd5b50600436106100cf5760003560e01c80638da5cb5b1161008c578063b9f9850a11610066578063b9f9850a146102f2578063f14039de14610310578063f2fde38b1461032e578063fd2da33914610372576100cf565b80638da5cb5b14610240578063a385fb9614610274578063b816881614610292576100cf565b806315f24053146100d45780632037f3e71461012a57806360a2da44146101765780636e71e2d8146101c2578063715018a6146102185780638726bb8914610222575b600080fd5b610114600480360360608110156100ea57600080fd5b81019080803590602001909291908035906020019092919080359060200190929190505050610390565b6040518082815260200191505060405180910390f35b6101746004803603608081101561014057600080fd5b81019080803590602001909291908035906020019092919080359060200190929190803590602001909291905050506103a6565b005b6101c06004803603608081101561018c57600080fd5b81019080803590602001909291908035906020019092919080359060200190929190803590602001909291905050506103b8565b005b610202600480360360608110156101d857600080fd5b810190808035906020019092919080359060200190929190803590602001909291905050506104ce565b6040518082815260200191505060405180910390f35b61022061053c565b005b61022a6106c7565b6040518082815260200191505060405180910390f35b6102486106cd565b604051808273ffffffffffffffffffffffffffffffffffffffff16815260200191505060405180910390f35b61027c6106f7565b6040518082815260200191505060405180910390f35b6102dc600480360360808110156102a857600080fd5b81019080803590602001909291908035906020019092919080359060200190929190803590602001909291905050506106fe565b6040518082815260200191505060405180910390f35b6102fa610716565b6040518082815260200191505060405180910390f35b61031861071c565b6040518082815260200191505060405180910390f35b6103706004803603602081101561034457600080fd5b81019080803573ffffffffffffffffffffffffffffffffffffffff169060200190929190505050610722565b005b61037a610932565b6040518082815260200191505060405180910390f35b600061039d848484610938565b90509392505050565b6103b284848484610a4c565b50505050565b600060019054906101000a900460ff16806103d757506103d6610bfa565b5b806103ed575060008054906101000a900460ff16155b610442576040517f08c379a000000000000000000000000000000000000000000000000000000000815260040180806020018281038252602e8152602001806113e0602e913960400191505060405180910390fd5b60008060019054906101000a900460ff161590508015610492576001600060016101000a81548160ff02191690831515021790555060016000806101000a81548160ff0219169083151502179055505b61049a610c11565b6104a685858585610a4c565b80156104c75760008060016101000a81548160ff0219169083151502179055505b5050505050565b6000808314156104e15760009050610535565b610532610509836104fb8688610d1f90919063ffffffff16565b610da790919063ffffffff16565b610524670de0b6b3a764000086610df190919063ffffffff16565b610e7790919063ffffffff16565b90505b9392505050565b610544610ec1565b73ffffffffffffffffffffffffffffffffffffffff16606560009054906101000a900473ffffffffffffffffffffffffffffffffffffffff1673ffffffffffffffffffffffffffffffffffffffff1614610606576040517f08c379a00000000000000000000000000000000000000000000000000000000081526004018080602001828103825260208152602001807f4f776e61626c653a2063616c6c6572206973206e6f7420746865206f776e657281525060200191505060405180910390fd5b600073ffffffffffffffffffffffffffffffffffffffff16606560009054906101000a900473ffffffffffffffffffffffffffffffffffffffff1673ffffffffffffffffffffffffffffffffffffffff167f8be0079c531659141344cd1fd0a4f28419497f9722a3daafe3b4186f6b6457e060405160405180910390a36000606560006101000a81548173ffffffffffffffffffffffffffffffffffffffff021916908373ffffffffffffffffffffffffffffffffffffffff160217905550565b60975481565b6000606560009054906101000a900473ffffffffffffffffffffffffffffffffffffffff16905090565b6220148081565b600061070c85858585610ec9565b9050949350505050565b60995481565b60985481565b61072a610ec1565b73ffffffffffffffffffffffffffffffffffffffff16606560009054906101000a900473ffffffffffffffffffffffffffffffffffffffff1673ffffffffffffffffffffffffffffffffffffffff16146107ec576040517f08c379a00000000000000000000000000000000000000000000000000000000081526004018080602001828103825260208152602001807f4f776e61626c653a2063616c6c6572206973206e6f7420746865206f776e657281525060200191505060405180910390fd5b600073ffffffffffffffffffffffffffffffffffffffff168173ffffffffffffffffffffffffffffffffffffffff161415610872576040517f08c379a00000000000000000000000000000000000000000000000000000000081526004018080602001828103825260268152602001806113996026913960400191505060405180910390fd5b8073ffffffffffffffffffffffffffffffffffffffff16606560009054906101000a900473ffffffffffffffffffffffffffffffffffffffff1673ffffffffffffffffffffffffffffffffffffffff167f8be0079c531659141344cd1fd0a4f28419497f9722a3daafe3b4186f6b6457e060405160405180910390a380606560006101000a81548173ffffffffffffffffffffffffffffffffffffffff021916908373ffffffffffffffffffffffffffffffffffffffff16021790555050565b609a5481565b6000806109468585856104ce565b9050609a54811161099c57610994609854610986670de0b6b3a764000061097860975486610df190919063ffffffff16565b610e7790919063ffffffff16565b610d1f90919063ffffffff16565b915050610a45565b60006109e36098546109d5670de0b6b3a76400006109c7609754609a54610df190919063ffffffff16565b610e7790919063ffffffff16565b610d1f90919063ffffffff16565b905060006109fc609a5484610da790919063ffffffff16565b9050610a3f82610a31670de0b6b3a7640000610a2360995486610df190919063ffffffff16565b610e7790919063ffffffff16565b610d1f90919063ffffffff16565b93505050505b9392505050565b610a54610ec1565b73ffffffffffffffffffffffffffffffffffffffff16606560009054906101000a900473ffffffffffffffffffffffffffffffffffffffff1673ffffffffffffffffffffffffffffffffffffffff1614610b16576040517f08c379a00000000000000000000000000000000000000000000000000000000081526004018080602001828103825260208152602001807f4f776e61626c653a2063616c6c6572206973206e6f7420746865206f776e657281525060200191505060405180910390fd5b610b2c6220148085610e7790919063ffffffff16565b609881905550610b74610b4b8262201480610df190919063ffffffff16565b610b66670de0b6b3a764000086610df190919063ffffffff16565b610e7790919063ffffffff16565b609781905550610b906220148083610e7790919063ffffffff16565b60998190555080609a819055507f6960ab234c7ef4b0c9197100f5393cfcde7c453ac910a27bd2000aa1dd4c068d609854609754609954609a546040518085815260200184815260200183815260200182815260200194505050505060405180910390a150505050565b6000803090506000813b9050600081149250505090565b600060019054906101000a900460ff1680610c305750610c2f610bfa565b5b80610c46575060008054906101000a900460ff16155b610c9b576040517f08c379a000000000000000000000000000000000000000000000000000000000815260040180806020018281038252602e8152602001806113e0602e913960400191505060405180910390fd5b60008060019054906101000a900460ff161590508015610ceb576001600060016101000a81548160ff02191690831515021790555060016000806101000a81548160ff0219169083151502179055505b610cf3610f6d565b610cfb61106b565b8015610d1c5760008060016101000a81548160ff0219169083151502179055505b50565b600080828401905083811015610d9d576040517f08c379a000000000000000000000000000000000000000000000000000000000815260040180806020018281038252601b8152602001807f536166654d6174683a206164646974696f6e206f766572666c6f77000000000081525060200191505060405180910390fd5b8091505092915050565b6000610de983836040518060400160405280601e81526020017f536166654d6174683a207375627472616374696f6e206f766572666c6f770000815250611212565b905092915050565b600080831415610e045760009050610e71565b6000828402905082848281610e1557fe5b0414610e6c576040517f08c379a00000000000000000000000000000000000000000000000000000000081526004018080602001828103825260218152602001806113bf6021913960400191505060405180910390fd5b809150505b92915050565b6000610eb983836040518060400160405280601a81526020017f536166654d6174683a206469766973696f6e206279207a65726f0000000000008152506112d2565b905092915050565b600033905090565b600080610ee783670de0b6b3a7640000610da790919063ffffffff16565b90506000610ef6878787610938565b90506000610f27670de0b6b3a7640000610f198585610df190919063ffffffff16565b610e7790919063ffffffff16565b9050610f60670de0b6b3a7640000610f5283610f448c8c8c6104ce565b610df190919063ffffffff16565b610e7790919063ffffffff16565b9350505050949350505050565b600060019054906101000a900460ff1680610f8c5750610f8b610bfa565b5b80610fa2575060008054906101000a900460ff16155b610ff7576040517f08c379a000000000000000000000000000000000000000000000000000000000815260040180806020018281038252602e8152602001806113e0602e913960400191505060405180910390fd5b60008060019054906101000a900460ff161590508015611047576001600060016101000a81548160ff02191690831515021790555060016000806101000a81548160ff0219169083151502179055505b80156110685760008060016101000a81548160ff0219169083151502179055505b50565b600060019054906101000a900460ff168061108a5750611089610bfa565b5b806110a0575060008054906101000a900460ff16155b6110f5576040517f08c379a000000000000000000000000000000000000000000000000000000000815260040180806020018281038252602e8152602001806113e0602e913960400191505060405180910390fd5b60008060019054906101000a900460ff161590508015611145576001600060016101000a81548160ff02191690831515021790555060016000806101000a81548160ff0219169083151502179055505b600061114f610ec1565b905080606560006101000a81548173ffffffffffffffffffffffffffffffffffffffff021916908373ffffffffffffffffffffffffffffffffffffffff1602179055508073ffffffffffffffffffffffffffffffffffffffff16600073ffffffffffffffffffffffffffffffffffffffff167f8be0079c531659141344cd1fd0a4f28419497f9722a3daafe3b4186f6b6457e060405160405180910390a350801561120f5760008060016101000a81548160ff0219169083151502179055505b50565b60008383111582906112bf576040517f08c379a00000000000000000000000000000000000000000000000000000000081526004018080602001828103825283818151815260200191508051906020019080838360005b83811015611284578082015181840152602081019050611269565b50505050905090810190601f1680156112b15780820380516001836020036101000a031916815260200191505b509250505060405180910390fd5b5060008385039050809150509392505050565b6000808311829061137e576040517f08c379a00000000000000000000000000000000000000000000000000000000081526004018080602001828103825283818151815260200191508051906020019080838360005b83811015611343578082015181840152602081019050611328565b50505050905090810190601f1680156113705780820380516001836020036101000a031916815260200191505b509250505060405180910390fd5b50600083858161138a57fe5b04905080915050939250505056fe4f776e61626c653a206e6577206f776e657220697320746865207a65726f2061646472657373536166654d6174683a206d756c7469706c69636174696f6e206f766572666c6f77436f6e747261637420696e7374616e63652068617320616c7265616479206265656e20696e697469616c697a6564a2646970667358221220a6531130a46cdcfff6b752c4b3f8f1a825859fc6456462494380445b346e5b2064736f6c634300060c0033",
  "compiler": {
    "name": "solc",
    "version": "0.6.12+commit.27d51765.Emscripten.clang",
    "optimizer": {
      "enabled": false,
      "runs": 200
    },
    "evmVersion": "istanbul"
  }
}