{
  "fileName": "Maximillion.sol",
  "contractName": "Maximillion",
  "source": "pragma solidity 0.6.12;\n\nimport \"./PEther.sol\";\n\n/**\n * @title Compound's Maximillion Contract\n * @author Compound\n */\ncontract Maximillion {\n    /**\n     * @notice The default cEther market to repay in\n     */\n    PEther public pEther;\n\n    /**\n     * @notice Construct a Maximillion to repay max in a CEther market\n     */\n    constructor(PEther pEther_) public {\n        pEther = pEther_;\n    }\n\n    /**\n     * @notice msg.sender sends Ether to repay an account's borrow in the cEther market\n     * @dev The provided Ether is applied towards the borrow balance, any excess is refunded\n     * @param borrower The address of the borrower account to repay on behalf of\n     */\n    function repayBehalf(address borrower) public payable {\n        repayBehalfExplicit(borrower, pEther);\n    }\n\n    /**\n     * @notice msg.sender sends Ether to repay an account's borrow in a cEther market\n     * @dev The provided Ether is applied towards the borrow balance, any excess is refunded\n     * @param borrower The address of the borrower account to repay on behalf of\n     * @param pEther_ The address of the cEther contract to repay in\n     */\n    function repayBehalfExplicit(address borrower, PEther pEther_) public payable {\n        uint received = msg.value;\n        uint borrows = pEther_.borrowBalanceCurrent(borrower);\n        if (received > borrows) {\n            pEther_.repayBorrowBehalf.value(borrows)(borrower);\n            msg.sender.transfer(received - borrows);\n        } else {\n            pEther_.repayBorrowBehalf.value(received)(borrower);\n        }\n    }\n}\n",
  "sourcePath": "contracts/token/Maximillion.sol",
  "abi": [
    {
      "inputs": [
        {
          "internalType": "contract PEther",
          "name": "pEther_",
          "type": "address"
        }
      ],
      "stateMutability": "nonpayable",
      "type": "constructor"
    },
    {
      "inputs": [],
      "name": "pEther",
      "outputs": [
        {
          "internalType": "contract PEther",
          "name": "",
          "type": "address"
        }
      ],
      "stateMutability": "view",
      "type": "function"
    },
    {
      "inputs": [
        {
          "internalType": "address",
          "name": "borrower",
          "type": "address"
        }
      ],
      "name": "repayBehalf",
      "outputs": [],
      "stateMutability": "payable",
      "type": "function"
    },
    {
      "inputs": [
        {
          "internalType": "address",
          "name": "borrower",
          "type": "address"
        },
        {
          "internalType": "contract PEther",
          "name": "pEther_",
          "type": "address"
        }
      ],
      "name": "repayBehalfExplicit",
      "outputs": [],
      "stateMutability": "payable",
      "type": "function"
    }
  ],
  "bytecode": "0x608060405234801561001057600080fd5b5060405161044b38038061044b8339818101604052602081101561003357600080fd5b8101908080519060200190929190505050806000806101000a81548173ffffffffffffffffffffffffffffffffffffffff021916908373ffffffffffffffffffffffffffffffffffffffff160217905550506103b7806100946000396000f3fe6080604052600436106100345760003560e01c8063367b7f05146100395780637af42ed81461009d5780639f35c3d5146100de575b600080fd5b61009b6004803603604081101561004f57600080fd5b81019080803573ffffffffffffffffffffffffffffffffffffffff169060200190929190803573ffffffffffffffffffffffffffffffffffffffff169060200190929190505050610122565b005b3480156100a957600080fd5b506100b2610330565b604051808273ffffffffffffffffffffffffffffffffffffffff16815260200191505060405180910390f35b610120600480360360208110156100f457600080fd5b81019080803573ffffffffffffffffffffffffffffffffffffffff169060200190929190505050610354565b005b600034905060008273ffffffffffffffffffffffffffffffffffffffff166317bfdfbc856040518263ffffffff1660e01b8152600401808273ffffffffffffffffffffffffffffffffffffffff168152602001915050602060405180830381600087803b15801561019257600080fd5b505af11580156101a6573d6000803e3d6000fd5b505050506040513d60208110156101bc57600080fd5b81019080805190602001909291905050509050808211156102a7578273ffffffffffffffffffffffffffffffffffffffff1663e597461982866040518363ffffffff1660e01b8152600401808273ffffffffffffffffffffffffffffffffffffffff1681526020019150506000604051808303818588803b15801561024057600080fd5b505af1158015610254573d6000803e3d6000fd5b50505050503373ffffffffffffffffffffffffffffffffffffffff166108fc8284039081150290604051600060405180830381858888f193505050501580156102a1573d6000803e3d6000fd5b5061032a565b8273ffffffffffffffffffffffffffffffffffffffff1663e597461983866040518363ffffffff1660e01b8152600401808273ffffffffffffffffffffffffffffffffffffffff1681526020019150506000604051808303818588803b15801561031057600080fd5b505af1158015610324573d6000803e3d6000fd5b50505050505b50505050565b60008054906101000a900473ffffffffffffffffffffffffffffffffffffffff1681565b61037e8160008054906101000a900473ffffffffffffffffffffffffffffffffffffffff16610122565b5056fea26469706673582212209896e90fcea5dc63e3010b84c35b8a5dcc5b2879d25bb667a3d1318db638386c64736f6c634300060c0033",
  "compiler": {
    "name": "solc",
    "version": "0.6.12+commit.27d51765.Emscripten.clang",
    "optimizer": {
      "enabled": false,
      "runs": 200
    },
    "evmVersion": "istanbul"
  }
}