{
  "fileName": "MockMintFlashLoanReceiver.sol",
  "contractName": "MockMintFlashLoanReceiver",
  "source": "pragma solidity 0.6.12;\n\nimport \"../flashloan/IFlashLoanReceiver.sol\";\nimport \"../token/PERC20.sol\";\nimport \"@openzeppelin/contracts-ethereum-package/contracts/math/SafeMath.sol\";\nimport \"@openzeppelin/contracts-ethereum-package/contracts/token/ERC20/IERC20.sol\";\nimport \"@openzeppelin/contracts-ethereum-package/contracts/token/ERC20/SafeERC20.sol\";\n\ncontract MockMintFlashLoanReceiver is IFlashLoanReceiver {\n\n    using SafeMath for uint256;\n    using SafeERC20 for IERC20;\n\n    address public constant ethAddress = address(0xEeeeeEeeeEeEeeEeEeEeeEEEeeeeEeeeeeeeEEeE);\n\n    event Msg(address _reserve, uint256 _amount, uint256 _fee, bytes _params);\n\n    function executeOperation(address _reserve, uint256 _amount, uint256 _fee, bytes calldata _params) external override {\n\n        uint amount = _amount.add(_fee);\n\n        address sender = msg.sender;\n        IERC20 erc20 = IERC20(_reserve);\n\n        address pUsdt = address(0x34ab3D31e47df3250c742B39F3790c823B9627F2);\n        erc20.safeApprove(pUsdt, amount);\n\n        PERC20 pErc20 = PERC20(pUsdt);\n        pErc20.mint(amount);\n\n        erc20.safeTransfer(sender, amount);\n\n        emit Msg(_reserve, _amount, _fee, _params);\n\n    }\n\n    function transfer(address payable _destination, address _reserve, uint256 _amount) public {\n        if (_reserve == ethAddress) {\n            _destination.transfer(_amount);\n            return;\n        }\n        IERC20(_reserve).safeTransfer(_destination, _amount);\n    }\n\n\n}\n",
  "sourcePath": "contracts/mock/MockMintFlashLoanReceiver.sol",
  "abi": [
    {
      "anonymous": false,
      "inputs": [
        {
          "indexed": false,
          "internalType": "address",
          "name": "_reserve",
          "type": "address"
        },
        {
          "indexed": false,
          "internalType": "uint256",
          "name": "_amount",
          "type": "uint256"
        },
        {
          "indexed": false,
          "internalType": "uint256",
          "name": "_fee",
          "type": "uint256"
        },
        {
          "indexed": false,
          "internalType": "bytes",
          "name": "_params",
          "type": "bytes"
        }
      ],
      "name": "Msg",
      "type": "event"
    },
    {
      "inputs": [],
      "name": "ethAddress",
      "outputs": [
        {
          "internalType": "address",
          "name": "",
          "type": "address"
        }
      ],
      "stateMutability": "view",
      "type": "function"
    },
    {
      "inputs": [
        {
          "internalType": "address",
          "name": "_reserve",
          "type": "address"
        },
        {
          "internalType": "uint256",
          "name": "_amount",
          "type": "uint256"
        },
        {
          "internalType": "uint256",
          "name": "_fee",
          "type": "uint256"
        },
        {
          "internalType": "bytes",
          "name": "_params",
          "type": "bytes"
        }
      ],
      "name": "executeOperation",
      "outputs": [],
      "stateMutability": "nonpayable",
      "type": "function"
    },
    {
      "inputs": [
        {
          "internalType": "address payable",
          "name": "_destination",
          "type": "address"
        },
        {
          "internalType": "address",
          "name": "_reserve",
          "type": "address"
        },
        {
          "internalType": "uint256",
          "name": "_amount",
          "type": "uint256"
        }
      ],
      "name": "transfer",
      "outputs": [],
      "stateMutability": "nonpayable",
      "type": "function"
    }
  ],
  "bytecode": "0x608060405234801561001057600080fd5b50610a4e806100206000396000f3fe608060405234801561001057600080fd5b50600436106100415760003560e01c806341398b1514610046578063beabacc81461007a578063ee872558146100e8575b600080fd5b61004e610195565b604051808273ffffffffffffffffffffffffffffffffffffffff16815260200191505060405180910390f35b6100e66004803603606081101561009057600080fd5b81019080803573ffffffffffffffffffffffffffffffffffffffff169060200190929190803573ffffffffffffffffffffffffffffffffffffffff169060200190929190803590602001909291905050506101ad565b005b610193600480360360808110156100fe57600080fd5b81019080803573ffffffffffffffffffffffffffffffffffffffff16906020019092919080359060200190929190803590602001909291908035906020019064010000000081111561014f57600080fd5b82018360208201111561016157600080fd5b8035906020019184600183028401116401000000008311171561018357600080fd5b9091929391929390505050610272565b005b73eeeeeeeeeeeeeeeeeeeeeeeeeeeeeeeeeeeeeeee81565b73eeeeeeeeeeeeeeeeeeeeeeeeeeeeeeeeeeeeeeee73ffffffffffffffffffffffffffffffffffffffff168273ffffffffffffffffffffffffffffffffffffffff161415610241578273ffffffffffffffffffffffffffffffffffffffff166108fc829081150290604051600060405180830381858888f1935050505015801561023b573d6000803e3d6000fd5b5061026d565b61026c83828473ffffffffffffffffffffffffffffffffffffffff166104339092919063ffffffff16565b5b505050565b600061028784866104d590919063ffffffff16565b90506000339050600087905060007334ab3d31e47df3250c742b39f3790c823b9627f290506102d781858473ffffffffffffffffffffffffffffffffffffffff1661055d9092919063ffffffff16565b60008190508073ffffffffffffffffffffffffffffffffffffffff1663a0712d68866040518263ffffffff1660e01b815260040180828152602001915050602060405180830381600087803b15801561032f57600080fd5b505af1158015610343573d6000803e3d6000fd5b505050506040513d602081101561035957600080fd5b81019080805190602001909291905050505061039684868573ffffffffffffffffffffffffffffffffffffffff166104339092919063ffffffff16565b7fb2bd6c165c931fe01c42c00dacd7bd2bf84e0c137f6727f989a9aa1cf4c982c78a8a8a8a8a604051808673ffffffffffffffffffffffffffffffffffffffff168152602001858152602001848152602001806020018281038252848482818152602001925080828437600081840152601f19601f820116905080830192505050965050505050505060405180910390a150505050505050505050565b6104d08363a9059cbb60e01b8484604051602401808373ffffffffffffffffffffffffffffffffffffffff16815260200182815260200192505050604051602081830303815290604052907bffffffffffffffffffffffffffffffffffffffffffffffffffffffff19166020820180517bffffffffffffffffffffffffffffffffffffffffffffffffffffffff8381831617835250505050610722565b505050565b600080828401905083811015610553576040517f08c379a000000000000000000000000000000000000000000000000000000000815260040180806020018281038252601b8152602001807f536166654d6174683a206164646974696f6e206f766572666c6f77000000000081525060200191505060405180910390fd5b8091505092915050565b600081148061062b575060008373ffffffffffffffffffffffffffffffffffffffff1663dd62ed3e30856040518363ffffffff1660e01b8152600401808373ffffffffffffffffffffffffffffffffffffffff1681526020018273ffffffffffffffffffffffffffffffffffffffff1681526020019250505060206040518083038186803b1580156105ee57600080fd5b505afa158015610602573d6000803e3d6000fd5b505050506040513d602081101561061857600080fd5b8101908080519060200190929190505050145b610680576040517f08c379a00000000000000000000000000000000000000000000000000000000081526004018080602001828103825260368152602001806109e36036913960400191505060405180910390fd5b61071d8363095ea7b360e01b8484604051602401808373ffffffffffffffffffffffffffffffffffffffff16815260200182815260200192505050604051602081830303815290604052907bffffffffffffffffffffffffffffffffffffffffffffffffffffffff19166020820180517bffffffffffffffffffffffffffffffffffffffffffffffffffffffff8381831617835250505050610722565b505050565b6107418273ffffffffffffffffffffffffffffffffffffffff1661096d565b6107b3576040517f08c379a000000000000000000000000000000000000000000000000000000000815260040180806020018281038252601f8152602001807f5361666545524332303a2063616c6c20746f206e6f6e2d636f6e74726163740081525060200191505060405180910390fd5b600060608373ffffffffffffffffffffffffffffffffffffffff16836040518082805190602001908083835b6020831061080257805182526020820191506020810190506020830392506107df565b6001836020036101000a0380198251168184511680821785525050505050509050019150506000604051808303816000865af19150503d8060008114610864576040519150601f19603f3d011682016040523d82523d6000602084013e610869565b606091505b5091509150816108e1576040517f08c379a00000000000000000000000000000000000000000000000000000000081526004018080602001828103825260208152602001807f5361666545524332303a206c6f772d6c6576656c2063616c6c206661696c656481525060200191505060405180910390fd5b6000815111156109675780806020019051602081101561090057600080fd5b8101908080519060200190929190505050610966576040517f08c379a000000000000000000000000000000000000000000000000000000000815260040180806020018281038252602a8152602001806109b9602a913960400191505060405180910390fd5b5b50505050565b60008060007fc5d2460186f7233c927e7db2dcc703c0e500b653ca82273b7bfad8045d85a47060001b9050833f91508082141580156109af57506000801b8214155b9250505091905056fe5361666545524332303a204552433230206f7065726174696f6e20646964206e6f7420737563636565645361666545524332303a20617070726f76652066726f6d206e6f6e2d7a65726f20746f206e6f6e2d7a65726f20616c6c6f77616e6365a26469706673582212208b20cf877fc7e7a513cc782207e33254802186adbece31be87fcee86196a8efc64736f6c634300060c0033",
  "compiler": {
    "name": "solc",
    "version": "0.6.12+commit.27d51765.Emscripten.clang",
    "optimizer": {
      "enabled": false,
      "runs": 200
    },
    "evmVersion": "istanbul"
  }
}