{
  "fileName": "PERC20.sol",
  "contractName": "PERC20",
  "source": "// SPDX-License-Identifier: MIT\npragma solidity ^0.6.0;\n\nimport \"./PToken.sol\";\nimport \"./IPERC20.sol\";\nimport \"./ERC20Interface.sol\";\nimport \"./PERC20Storage.sol\";\nimport \"../flashloan/IFlashloan.sol\";\n\ncontract PERC20 is PToken, IPERC20, PERC20Storage {\n\n    IFlashloan public flashloanInstance;\n\n    /**\n     * @notice Initialize the new money market\n     * @param underlying_ The address of the underlying asset\n     * @param comptroller_ The address of the Comptroller\n     * @param interestRateModel_ The address of the interest rate model\n     * @param initialExchangeRateMantissa_ The initial exchange rate, scaled by 1e18\n     * @param name_ ERC-20 name of this token\n     * @param symbol_ ERC-20 symbol of this token\n     * @param decimals_ ERC-20 decimal precision of this token\n     */\n    function initialize(address underlying_,\n        IComptroller comptroller_,\n        IInterestRateModel interestRateModel_,\n        uint initialExchangeRateMantissa_,\n        string memory name_,\n        string memory symbol_,\n        uint8 decimals_) public initializer {\n\n        super.__Ownable_init();\n\n        // PToken initialize does the bulk of the work\n        super.init(comptroller_, interestRateModel_, initialExchangeRateMantissa_, name_, symbol_, decimals_);\n\n        // Set underlying and sanity check it\n        underlying = underlying_;\n        IEIP20(underlying).totalSupply();\n    }\n\n    /*** User Interface ***/\n\n    /**\n     * @notice Sender supplies assets into the market and receives cTokens in exchange\n     * @dev Accrues interest whether or not the operation succeeds, unless reverted\n     * @param mintAmount The amount of the underlying asset to supply\n     * @return uint 0=success, otherwise a failure (see ErrorReporter.sol for details)\n     */\n    function mint(uint mintAmount) external override returns (uint) {\n        (uint err,) = mintInternal(mintAmount);\n        return err;\n    }\n\n    function mintForMigrate(uint mintAmount, uint mintTokens) external returns (uint) {\n        (uint err,) = mintInternalForMigrate(mintAmount, mintTokens);\n        return err;\n    }\n\n    /**\n     * @notice Sender redeems cTokens in exchange for the underlying asset\n     * @dev Accrues interest whether or not the operation succeeds, unless reverted\n     * @param redeemTokens The number of cTokens to redeem into underlying\n     * @return uint 0=success, otherwise a failure (see ErrorReporter.sol for details)\n     */\n    function redeem(uint redeemTokens) external override returns (uint) {\n        return redeemInternal(redeemTokens);\n    }\n\n    /**\n     * @notice Sender redeems cTokens in exchange for a specified amount of underlying asset\n     * @dev Accrues interest whether or not the operation succeeds, unless reverted\n     * @param redeemAmount The amount of underlying to redeem\n     * @return uint 0=success, otherwise a failure (see ErrorReporter.sol for details)\n     */\n    function redeemUnderlying(uint redeemAmount) external override returns (uint) {\n        return redeemUnderlyingInternal(redeemAmount);\n    }\n\n    /**\n      * @notice Sender borrows assets from the protocol to their own address\n      * @param borrowAmount The amount of the underlying asset to borrow\n      * @return uint 0=success, otherwise a failure (see ErrorReporter.sol for details)\n      */\n    function borrow(uint borrowAmount) external override returns (uint) {\n        return borrowInternal(borrowAmount);\n    }\n\n    /**\n     * @notice Sender repays their own borrow\n     * @param repayAmount The amount to repay\n     * @return uint 0=success, otherwise a failure (see ErrorReporter.sol for details)\n     */\n    function repayBorrow(uint repayAmount) external override returns (uint) {\n        (uint err,) = repayBorrowInternal(repayAmount);\n        return err;\n    }\n\n    /**\n     * @notice Sender repays a borrow belonging to borrower\n     * @param borrower the account with the debt being payed off\n     * @param repayAmount The amount to repay\n     * @return uint 0=success, otherwise a failure (see ErrorReporter.sol for details)\n     */\n    function repayBorrowBehalf(address borrower, uint repayAmount) external override returns (uint) {\n        (uint err,) = repayBorrowBehalfInternal(borrower, repayAmount);\n        return err;\n    }\n\n    /**\n     * @notice The sender liquidates the borrowers collateral.\n     *  The collateral seized is transferred to the liquidator.\n     * @param borrower The borrower of this cToken to be liquidated\n     * @param repayAmount The amount of the underlying borrowed asset to repay\n     * @param cTokenCollateral The market in which to seize collateral from the borrower\n     * @return uint 0=success, otherwise a failure (see ErrorReporter.sol for details)\n     */\n    function liquidateBorrow(address borrower, uint repayAmount, IPToken cTokenCollateral) external override returns (uint) {\n        (uint err,) = liquidateBorrowInternal(borrower, repayAmount, cTokenCollateral);\n        return err;\n    }\n\n    /**\n     * @notice The sender adds to reserves.\n     * @param addAmount The amount fo underlying token to add as reserves\n     * @return uint 0=success, otherwise a failure (see ErrorReporter.sol for details)\n     */\n    function _addReserves(uint addAmount) external override returns (uint) {\n        return _addReservesInternal(addAmount);\n    }\n\n    /*** Safe Token ***/\n\n    /**\n     * @notice Gets balance of this contract in terms of the underlying\n     * @dev This excludes the value of the current message, if any\n     * @return The quantity of underlying tokens owned by this contract\n     */\n    function getCashPrior() internal override view returns (uint) {\n        IEIP20 token = IEIP20(underlying);\n        return token.balanceOf(address(this));\n    }\n\n    /**\n     * @dev Similar to EIP20 transfer, except it handles a False result from `transferFrom` and reverts in that case.\n     *      This will revert due to insufficient balance or insufficient allowance.\n     *      This function returns the actual amount received,\n     *      which may be less than `amount` if there is a fee attached to the transfer.\n     *\n     *      Note: This wrapper safely handles non-standard ERC-20 tokens that do not return a value.\n     *            See here: https://medium.com/coinmonks/missing-return-value-bug-at-least-130-tokens-affected-d67bf08521ca\n     */\n    function doTransferIn(address from, uint amount) internal override returns (uint) {\n        IEIP20NonStandard token = IEIP20NonStandard(underlying);\n        uint balanceBefore = IEIP20(underlying).balanceOf(address(this));\n        token.transferFrom(from, address(this), amount);\n\n        bool success;\n        assembly {\n            switch returndatasize()\n            case 0 {// This is a non-standard ERC-20\n                success := not(0)          // set success to true\n            }\n            case 32 {// This is a compliant ERC-20\n                returndatacopy(0, 0, 32)\n                success := mload(0)        // Set `success = returndata` of external call\n            }\n            default {// This is an excessively non-compliant ERC-20, revert.\n                revert(0, 0)\n            }\n        }\n        require(success, \"TOKEN_TRANSFER_IN_FAILED\");\n\n        // Calculate the amount that was *actually* transferred\n        uint balanceAfter = IEIP20(underlying).balanceOf(address(this));\n        require(balanceAfter >= balanceBefore, \"TOKEN_TRANSFER_IN_OVERFLOW\");\n        return balanceAfter - balanceBefore;\n        // underflow already checked above, just subtract\n    }\n\n    /**\n     * @dev Similar to EIP20 transfer, except it handles a False success from `transfer` and returns an explanatory\n     *      error code rather than reverting. If caller has not called checked protocol's balance, this may revert due to\n     *      insufficient cash held in this contract. If caller has checked protocol's balance prior to this call, and verified\n     *      it is >= amount, this should not revert in normal conditions.\n     *\n     *      Note: This wrapper safely handles non-standard ERC-20 tokens that do not return a value.\n     *            See here: https://medium.com/coinmonks/missing-return-value-bug-at-least-130-tokens-affected-d67bf08521ca\n     */\n    function doTransferOut(address payable to, uint amount) internal override {\n        IEIP20NonStandard token = IEIP20NonStandard(underlying);\n        token.transfer(to, amount);\n\n        bool success;\n        assembly {\n            switch returndatasize()\n            case 0 {// This is a non-standard ERC-20\n                success := not(0)          // set success to true\n            }\n            case 32 {// This is a complaint ERC-20\n                returndatacopy(0, 0, 32)\n                success := mload(0)        // Set `success = returndata` of external call\n            }\n            default {// This is an excessively non-compliant ERC-20, revert.\n                revert(0, 0)\n            }\n        }\n        require(success, \"TOKEN_TRANSFER_OUT_FAILED\");\n    }\n\n    function flashloan(address _receiver, uint256 _amount, bytes memory _params) nonReentrant external {\n\n        uint256 availableLiquidityBefore = getCashPrior();\n\n        address payable fl = address(uint160(address(flashloanInstance)));\n        doTransferOut(fl, _amount);\n        flashloanInstance.flashloan(address(this), _receiver, underlying, _amount, _params);\n\n        uint availableLiquidityAfter = getCashPrior();\n        require(availableLiquidityAfter >= availableLiquidityBefore, \"The actual balance of the protocol is inconsistent\");\n\n        accrueInterest();\n    }\n\n    function _setFlashloan(address _flashloan) public onlyOwner {\n        flashloanInstance = IFlashloan(_flashloan);\n    }\n\n}\n",
  "sourcePath": "contracts/token/PERC20.sol",
  "abi": [
    {
      "anonymous": false,
      "inputs": [
        {
          "indexed": false,
          "internalType": "uint256",
          "name": "cashPrior",
          "type": "uint256"
        },
        {
          "indexed": false,
          "internalType": "uint256",
          "name": "interestAccumulated",
          "type": "uint256"
        },
        {
          "indexed": false,
          "internalType": "uint256",
          "name": "borrowIndex",
          "type": "uint256"
        },
        {
          "indexed": false,
          "internalType": "uint256",
          "name": "totalBorrows",
          "type": "uint256"
        },
        {
          "indexed": false,
          "internalType": "uint256",
          "name": "totalReserves",
          "type": "uint256"
        }
      ],
      "name": "AccrueInterest",
      "type": "event"
    },
    {
      "anonymous": false,
      "inputs": [
        {
          "indexed": true,
          "internalType": "address",
          "name": "owner",
          "type": "address"
        },
        {
          "indexed": true,
          "internalType": "address",
          "name": "spender",
          "type": "address"
        },
        {
          "indexed": false,
          "internalType": "uint256",
          "name": "amount",
          "type": "uint256"
        }
      ],
      "name": "Approval",
      "type": "event"
    },
    {
      "anonymous": false,
      "inputs": [
        {
          "indexed": false,
          "internalType": "address",
          "name": "borrower",
          "type": "address"
        },
        {
          "indexed": false,
          "internalType": "uint256",
          "name": "borrowAmount",
          "type": "uint256"
        },
        {
          "indexed": false,
          "internalType": "uint256",
          "name": "accountBorrows",
          "type": "uint256"
        },
        {
          "indexed": false,
          "internalType": "uint256",
          "name": "totalBorrows",
          "type": "uint256"
        },
        {
          "indexed": false,
          "internalType": "uint256",
          "name": "interestBalancePrior",
          "type": "uint256"
        }
      ],
      "name": "Borrow",
      "type": "event"
    },
    {
      "anonymous": false,
      "inputs": [
        {
          "indexed": false,
          "internalType": "uint256",
          "name": "error",
          "type": "uint256"
        },
        {
          "indexed": false,
          "internalType": "uint256",
          "name": "info",
          "type": "uint256"
        },
        {
          "indexed": false,
          "internalType": "uint256",
          "name": "detail",
          "type": "uint256"
        }
      ],
      "name": "Failure",
      "type": "event"
    },
    {
      "anonymous": false,
      "inputs": [
        {
          "indexed": false,
          "internalType": "address",
          "name": "liquidator",
          "type": "address"
        },
        {
          "indexed": false,
          "internalType": "address",
          "name": "borrower",
          "type": "address"
        },
        {
          "indexed": false,
          "internalType": "uint256",
          "name": "repayAmount",
          "type": "uint256"
        },
        {
          "indexed": false,
          "internalType": "address",
          "name": "pTokenCollateral",
          "type": "address"
        },
        {
          "indexed": false,
          "internalType": "uint256",
          "name": "seizeTokens",
          "type": "uint256"
        }
      ],
      "name": "LiquidateBorrow",
      "type": "event"
    },
    {
      "anonymous": false,
      "inputs": [
        {
          "indexed": false,
          "internalType": "address",
          "name": "minter",
          "type": "address"
        },
        {
          "indexed": false,
          "internalType": "uint256",
          "name": "mintAmount",
          "type": "uint256"
        },
        {
          "indexed": false,
          "internalType": "uint256",
          "name": "mintTokens",
          "type": "uint256"
        },
        {
          "indexed": false,
          "internalType": "uint256",
          "name": "totalSupply",
          "type": "uint256"
        },
        {
          "indexed": false,
          "internalType": "uint256",
          "name": "accountTokens",
          "type": "uint256"
        }
      ],
      "name": "Mint",
      "type": "event"
    },
    {
      "anonymous": false,
      "inputs": [
        {
          "indexed": false,
          "internalType": "contract IComptroller",
          "name": "oldComptroller",
          "type": "address"
        },
        {
          "indexed": false,
          "internalType": "contract IComptroller",
          "name": "newComptroller",
          "type": "address"
        }
      ],
      "name": "NewComptroller",
      "type": "event"
    },
    {
      "anonymous": false,
      "inputs": [
        {
          "indexed": false,
          "internalType": "contract IInterestRateModel",
          "name": "oldInterestRateModel",
          "type": "address"
        },
        {
          "indexed": false,
          "internalType": "contract IInterestRateModel",
          "name": "newInterestRateModel",
          "type": "address"
        }
      ],
      "name": "NewMarketInterestRateModel",
      "type": "event"
    },
    {
      "anonymous": false,
      "inputs": [
        {
          "indexed": false,
          "internalType": "address",
          "name": "oldMigrator",
          "type": "address"
        },
        {
          "indexed": false,
          "internalType": "address",
          "name": "newMigrator",
          "type": "address"
        }
      ],
      "name": "NewMigrator",
      "type": "event"
    },
    {
      "anonymous": false,
      "inputs": [
        {
          "indexed": false,
          "internalType": "uint256",
          "name": "oldMinInterestAccumulated",
          "type": "uint256"
        },
        {
          "indexed": false,
          "internalType": "uint256",
          "name": "newMinInterestAccumulated",
          "type": "uint256"
        }
      ],
      "name": "NewMinInterestAccumulated",
      "type": "event"
    },
    {
      "anonymous": false,
      "inputs": [
        {
          "indexed": false,
          "internalType": "uint256",
          "name": "oldReserveFactorMantissa",
          "type": "uint256"
        },
        {
          "indexed": false,
          "internalType": "uint256",
          "name": "newReserveFactorMantissa",
          "type": "uint256"
        }
      ],
      "name": "NewReserveFactor",
      "type": "event"
    },
    {
      "anonymous": false,
      "inputs": [
        {
          "indexed": true,
          "internalType": "address",
          "name": "previousOwner",
          "type": "address"
        },
        {
          "indexed": true,
          "internalType": "address",
          "name": "newOwner",
          "type": "address"
        }
      ],
      "name": "OwnershipTransferred",
      "type": "event"
    },
    {
      "anonymous": false,
      "inputs": [
        {
          "indexed": false,
          "internalType": "address",
          "name": "redeemer",
          "type": "address"
        },
        {
          "indexed": false,
          "internalType": "uint256",
          "name": "redeemAmount",
          "type": "uint256"
        },
        {
          "indexed": false,
          "internalType": "uint256",
          "name": "redeemTokens",
          "type": "uint256"
        },
        {
          "indexed": false,
          "internalType": "uint256",
          "name": "totalSupply",
          "type": "uint256"
        },
        {
          "indexed": false,
          "internalType": "uint256",
          "name": "accountTokens",
          "type": "uint256"
        }
      ],
      "name": "Redeem",
      "type": "event"
    },
    {
      "anonymous": false,
      "inputs": [
        {
          "indexed": false,
          "internalType": "address",
          "name": "payer",
          "type": "address"
        },
        {
          "indexed": false,
          "internalType": "address",
          "name": "borrower",
          "type": "address"
        },
        {
          "indexed": false,
          "internalType": "uint256",
          "name": "repayAmount",
          "type": "uint256"
        },
        {
          "indexed": false,
          "internalType": "uint256",
          "name": "accountBorrows",
          "type": "uint256"
        },
        {
          "indexed": false,
          "internalType": "uint256",
          "name": "totalBorrows",
          "type": "uint256"
        },
        {
          "indexed": false,
          "internalType": "uint256",
          "name": "interestBalancePrior",
          "type": "uint256"
        }
      ],
      "name": "RepayBorrow",
      "type": "event"
    },
    {
      "anonymous": false,
      "inputs": [
        {
          "indexed": false,
          "internalType": "address",
          "name": "benefactor",
          "type": "address"
        },
        {
          "indexed": false,
          "internalType": "uint256",
          "name": "addAmount",
          "type": "uint256"
        },
        {
          "indexed": false,
          "internalType": "uint256",
          "name": "newTotalReserves",
          "type": "uint256"
        }
      ],
      "name": "ReservesAdded",
      "type": "event"
    },
    {
      "anonymous": false,
      "inputs": [
        {
          "indexed": false,
          "internalType": "address",
          "name": "admin",
          "type": "address"
        },
        {
          "indexed": false,
          "internalType": "uint256",
          "name": "reduceAmount",
          "type": "uint256"
        },
        {
          "indexed": false,
          "internalType": "uint256",
          "name": "newTotalReserves",
          "type": "uint256"
        }
      ],
      "name": "ReservesReduced",
      "type": "event"
    },
    {
      "anonymous": false,
      "inputs": [
        {
          "indexed": true,
          "internalType": "address",
          "name": "from",
          "type": "address"
        },
        {
          "indexed": true,
          "internalType": "address",
          "name": "to",
          "type": "address"
        },
        {
          "indexed": false,
          "internalType": "uint256",
          "name": "amount",
          "type": "uint256"
        }
      ],
      "name": "Transfer",
      "type": "event"
    },
    {
      "inputs": [
        {
          "internalType": "uint256",
          "name": "addAmount",
          "type": "uint256"
        }
      ],
      "name": "_addReserves",
      "outputs": [
        {
          "internalType": "uint256",
          "name": "",
          "type": "uint256"
        }
      ],
      "stateMutability": "nonpayable",
      "type": "function"
    },
    {
      "inputs": [
        {
          "internalType": "uint256",
          "name": "reduceAmount",
          "type": "uint256"
        }
      ],
      "name": "_reduceReserves",
      "outputs": [
        {
          "internalType": "uint256",
          "name": "",
          "type": "uint256"
        }
      ],
      "stateMutability": "nonpayable",
      "type": "function"
    },
    {
      "inputs": [
        {
          "internalType": "contract IComptroller",
          "name": "newComptroller",
          "type": "address"
        }
      ],
      "name": "_setComptroller",
      "outputs": [
        {
          "internalType": "uint256",
          "name": "",
          "type": "uint256"
        }
      ],
      "stateMutability": "nonpayable",
      "type": "function"
    },
    {
      "inputs": [
        {
          "internalType": "address",
          "name": "_flashloan",
          "type": "address"
        }
      ],
      "name": "_setFlashloan",
      "outputs": [],
      "stateMutability": "nonpayable",
      "type": "function"
    },
    {
      "inputs": [
        {
          "internalType": "contract IInterestRateModel",
          "name": "newInterestRateModel",
          "type": "address"
        }
      ],
      "name": "_setInterestRateModel",
      "outputs": [
        {
          "internalType": "uint256",
          "name": "",
          "type": "uint256"
        }
      ],
      "stateMutability": "nonpayable",
      "type": "function"
    },
    {
      "inputs": [
        {
          "internalType": "address",
          "name": "newMigrator",
          "type": "address"
        }
      ],
      "name": "_setMigrator",
      "outputs": [
        {
          "internalType": "uint256",
          "name": "",
          "type": "uint256"
        }
      ],
      "stateMutability": "nonpayable",
      "type": "function"
    },
    {
      "inputs": [
        {
          "internalType": "uint256",
          "name": "_minInterestAccumulated",
          "type": "uint256"
        }
      ],
      "name": "_setMinInterestAccumulated",
      "outputs": [
        {
          "internalType": "uint256",
          "name": "",
          "type": "uint256"
        }
      ],
      "stateMutability": "nonpayable",
      "type": "function"
    },
    {
      "inputs": [
        {
          "internalType": "uint256",
          "name": "newReserveFactorMantissa",
          "type": "uint256"
        }
      ],
      "name": "_setReserveFactor",
      "outputs": [
        {
          "internalType": "uint256",
          "name": "",
          "type": "uint256"
        }
      ],
      "stateMutability": "nonpayable",
      "type": "function"
    },
    {
      "inputs": [],
      "name": "accrualBlockNumber",
      "outputs": [
        {
          "internalType": "uint256",
          "name": "",
          "type": "uint256"
        }
      ],
      "stateMutability": "view",
      "type": "function"
    },
    {
      "inputs": [],
      "name": "accrueInterest",
      "outputs": [
        {
          "internalType": "uint256",
          "name": "",
          "type": "uint256"
        }
      ],
      "stateMutability": "nonpayable",
      "type": "function"
    },
    {
      "inputs": [],
      "name": "accrueInterestSnapshot",
      "outputs": [
        {
          "internalType": "uint256[]",
          "name": "",
          "type": "uint256[]"
        }
      ],
      "stateMutability": "view",
      "type": "function"
    },
    {
      "inputs": [
        {
          "internalType": "address",
          "name": "owner",
          "type": "address"
        },
        {
          "internalType": "address",
          "name": "spender",
          "type": "address"
        }
      ],
      "name": "allowance",
      "outputs": [
        {
          "internalType": "uint256",
          "name": "",
          "type": "uint256"
        }
      ],
      "stateMutability": "view",
      "type": "function"
    },
    {
      "inputs": [
        {
          "internalType": "address",
          "name": "spender",
          "type": "address"
        },
        {
          "internalType": "uint256",
          "name": "amount",
          "type": "uint256"
        }
      ],
      "name": "approve",
      "outputs": [
        {
          "internalType": "bool",
          "name": "",
          "type": "bool"
        }
      ],
      "stateMutability": "nonpayable",
      "type": "function"
    },
    {
      "inputs": [
        {
          "internalType": "address",
          "name": "owner",
          "type": "address"
        }
      ],
      "name": "balanceOf",
      "outputs": [
        {
          "internalType": "uint256",
          "name": "",
          "type": "uint256"
        }
      ],
      "stateMutability": "view",
      "type": "function"
    },
    {
      "inputs": [
        {
          "internalType": "address",
          "name": "owner",
          "type": "address"
        }
      ],
      "name": "balanceOfUnderlying",
      "outputs": [
        {
          "internalType": "uint256",
          "name": "",
          "type": "uint256"
        }
      ],
      "stateMutability": "nonpayable",
      "type": "function"
    },
    {
      "inputs": [
        {
          "internalType": "uint256",
          "name": "borrowAmount",
          "type": "uint256"
        }
      ],
      "name": "borrow",
      "outputs": [
        {
          "internalType": "uint256",
          "name": "",
          "type": "uint256"
        }
      ],
      "stateMutability": "nonpayable",
      "type": "function"
    },
    {
      "inputs": [
        {
          "internalType": "address",
          "name": "account",
          "type": "address"
        }
      ],
      "name": "borrowBalanceCurrent",
      "outputs": [
        {
          "internalType": "uint256",
          "name": "",
          "type": "uint256"
        }
      ],
      "stateMutability": "nonpayable",
      "type": "function"
    },
    {
      "inputs": [
        {
          "internalType": "address",
          "name": "account",
          "type": "address"
        }
      ],
      "name": "borrowBalanceStored",
      "outputs": [
        {
          "internalType": "uint256",
          "name": "",
          "type": "uint256"
        }
      ],
      "stateMutability": "view",
      "type": "function"
    },
    {
      "inputs": [],
      "name": "borrowIndex",
      "outputs": [
        {
          "internalType": "uint256",
          "name": "",
          "type": "uint256"
        }
      ],
      "stateMutability": "view",
      "type": "function"
    },
    {
      "inputs": [],
      "name": "borrowRatePerBlock",
      "outputs": [
        {
          "internalType": "uint256",
          "name": "",
          "type": "uint256"
        }
      ],
      "stateMutability": "view",
      "type": "function"
    },
    {
      "inputs": [],
      "name": "comptroller",
      "outputs": [
        {
          "internalType": "contract IComptroller",
          "name": "",
          "type": "address"
        }
      ],
      "stateMutability": "view",
      "type": "function"
    },
    {
      "inputs": [],
      "name": "decimals",
      "outputs": [
        {
          "internalType": "uint8",
          "name": "",
          "type": "uint8"
        }
      ],
      "stateMutability": "view",
      "type": "function"
    },
    {
      "inputs": [],
      "name": "exchangeRateCurrent",
      "outputs": [
        {
          "internalType": "uint256",
          "name": "",
          "type": "uint256"
        }
      ],
      "stateMutability": "nonpayable",
      "type": "function"
    },
    {
      "inputs": [],
      "name": "exchangeRateStored",
      "outputs": [
        {
          "internalType": "uint256",
          "name": "",
          "type": "uint256"
        }
      ],
      "stateMutability": "view",
      "type": "function"
    },
    {
      "inputs": [
        {
          "internalType": "address",
          "name": "_receiver",
          "type": "address"
        },
        {
          "internalType": "uint256",
          "name": "_amount",
          "type": "uint256"
        },
        {
          "internalType": "bytes",
          "name": "_params",
          "type": "bytes"
        }
      ],
      "name": "flashloan",
      "outputs": [],
      "stateMutability": "nonpayable",
      "type": "function"
    },
    {
      "inputs": [],
      "name": "flashloanInstance",
      "outputs": [
        {
          "internalType": "contract IFlashloan",
          "name": "",
          "type": "address"
        }
      ],
      "stateMutability": "view",
      "type": "function"
    },
    {
      "inputs": [
        {
          "internalType": "address",
          "name": "account",
          "type": "address"
        }
      ],
      "name": "getAccountSnapshot",
      "outputs": [
        {
          "internalType": "uint256",
          "name": "",
          "type": "uint256"
        },
        {
          "internalType": "uint256",
          "name": "",
          "type": "uint256"
        },
        {
          "internalType": "uint256",
          "name": "",
          "type": "uint256"
        },
        {
          "internalType": "uint256",
          "name": "",
          "type": "uint256"
        }
      ],
      "stateMutability": "view",
      "type": "function"
    },
    {
      "inputs": [],
      "name": "getCash",
      "outputs": [
        {
          "internalType": "uint256",
          "name": "",
          "type": "uint256"
        }
      ],
      "stateMutability": "view",
      "type": "function"
    },
    {
      "inputs": [
        {
          "internalType": "contract IComptroller",
          "name": "comptroller_",
          "type": "address"
        },
        {
          "internalType": "contract IInterestRateModel",
          "name": "interestRateModel_",
          "type": "address"
        },
        {
          "internalType": "uint256",
          "name": "initialExchangeRateMantissa_",
          "type": "uint256"
        },
        {
          "internalType": "string",
          "name": "name_",
          "type": "string"
        },
        {
          "internalType": "string",
          "name": "symbol_",
          "type": "string"
        },
        {
          "internalType": "uint8",
          "name": "decimals_",
          "type": "uint8"
        }
      ],
      "name": "init",
      "outputs": [],
      "stateMutability": "nonpayable",
      "type": "function"
    },
    {
      "inputs": [
        {
          "internalType": "address",
          "name": "underlying_",
          "type": "address"
        },
        {
          "internalType": "contract IComptroller",
          "name": "comptroller_",
          "type": "address"
        },
        {
          "internalType": "contract IInterestRateModel",
          "name": "interestRateModel_",
          "type": "address"
        },
        {
          "internalType": "uint256",
          "name": "initialExchangeRateMantissa_",
          "type": "uint256"
        },
        {
          "internalType": "string",
          "name": "name_",
          "type": "string"
        },
        {
          "internalType": "string",
          "name": "symbol_",
          "type": "string"
        },
        {
          "internalType": "uint8",
          "name": "decimals_",
          "type": "uint8"
        }
      ],
      "name": "initialize",
      "outputs": [],
      "stateMutability": "nonpayable",
      "type": "function"
    },
    {
      "inputs": [],
      "name": "interestRateModel",
      "outputs": [
        {
          "internalType": "contract IInterestRateModel",
          "name": "",
          "type": "address"
        }
      ],
      "stateMutability": "view",
      "type": "function"
    },
    {
      "inputs": [],
      "name": "isPToken",
      "outputs": [
        {
          "internalType": "bool",
          "name": "",
          "type": "bool"
        }
      ],
      "stateMutability": "view",
      "type": "function"
    },
    {
      "inputs": [
        {
          "internalType": "address",
          "name": "borrower",
          "type": "address"
        },
        {
          "internalType": "uint256",
          "name": "repayAmount",
          "type": "uint256"
        },
        {
          "internalType": "contract IPToken",
          "name": "cTokenCollateral",
          "type": "address"
        }
      ],
      "name": "liquidateBorrow",
      "outputs": [
        {
          "internalType": "uint256",
          "name": "",
          "type": "uint256"
        }
      ],
      "stateMutability": "nonpayable",
      "type": "function"
    },
    {
      "inputs": [],
      "name": "migrator",
      "outputs": [
        {
          "internalType": "address",
          "name": "",
          "type": "address"
        }
      ],
      "stateMutability": "view",
      "type": "function"
    },
    {
      "inputs": [],
      "name": "minInterestAccumulated",
      "outputs": [
        {
          "internalType": "uint256",
          "name": "",
          "type": "uint256"
        }
      ],
      "stateMutability": "view",
      "type": "function"
    },
    {
      "inputs": [
        {
          "internalType": "uint256",
          "name": "mintAmount",
          "type": "uint256"
        }
      ],
      "name": "mint",
      "outputs": [
        {
          "internalType": "uint256",
          "name": "",
          "type": "uint256"
        }
      ],
      "stateMutability": "nonpayable",
      "type": "function"
    },
    {
      "inputs": [
        {
          "internalType": "uint256",
          "name": "mintAmount",
          "type": "uint256"
        },
        {
          "internalType": "uint256",
          "name": "mintTokens",
          "type": "uint256"
        }
      ],
      "name": "mintForMigrate",
      "outputs": [
        {
          "internalType": "uint256",
          "name": "",
          "type": "uint256"
        }
      ],
      "stateMutability": "nonpayable",
      "type": "function"
    },
    {
      "inputs": [],
      "name": "name",
      "outputs": [
        {
          "internalType": "string",
          "name": "",
          "type": "string"
        }
      ],
      "stateMutability": "view",
      "type": "function"
    },
    {
      "inputs": [],
      "name": "owner",
      "outputs": [
        {
          "internalType": "address",
          "name": "",
          "type": "address"
        }
      ],
      "stateMutability": "view",
      "type": "function"
    },
    {
      "inputs": [
        {
          "internalType": "uint256",
          "name": "redeemTokens",
          "type": "uint256"
        }
      ],
      "name": "redeem",
      "outputs": [
        {
          "internalType": "uint256",
          "name": "",
          "type": "uint256"
        }
      ],
      "stateMutability": "nonpayable",
      "type": "function"
    },
    {
      "inputs": [
        {
          "internalType": "uint256",
          "name": "redeemAmount",
          "type": "uint256"
        }
      ],
      "name": "redeemUnderlying",
      "outputs": [
        {
          "internalType": "uint256",
          "name": "",
          "type": "uint256"
        }
      ],
      "stateMutability": "nonpayable",
      "type": "function"
    },
    {
      "inputs": [],
      "name": "renounceOwnership",
      "outputs": [],
      "stateMutability": "nonpayable",
      "type": "function"
    },
    {
      "inputs": [
        {
          "internalType": "uint256",
          "name": "repayAmount",
          "type": "uint256"
        }
      ],
      "name": "repayBorrow",
      "outputs": [
        {
          "internalType": "uint256",
          "name": "",
          "type": "uint256"
        }
      ],
      "stateMutability": "nonpayable",
      "type": "function"
    },
    {
      "inputs": [
        {
          "internalType": "address",
          "name": "borrower",
          "type": "address"
        },
        {
          "internalType": "uint256",
          "name": "repayAmount",
          "type": "uint256"
        }
      ],
      "name": "repayBorrowBehalf",
      "outputs": [
        {
          "internalType": "uint256",
          "name": "",
          "type": "uint256"
        }
      ],
      "stateMutability": "nonpayable",
      "type": "function"
    },
    {
      "inputs": [],
      "name": "reserveFactorMantissa",
      "outputs": [
        {
          "internalType": "uint256",
          "name": "",
          "type": "uint256"
        }
      ],
      "stateMutability": "view",
      "type": "function"
    },
    {
      "inputs": [
        {
          "internalType": "address",
          "name": "liquidator",
          "type": "address"
        },
        {
          "internalType": "address",
          "name": "borrower",
          "type": "address"
        },
        {
          "internalType": "uint256",
          "name": "seizeTokens",
          "type": "uint256"
        }
      ],
      "name": "seize",
      "outputs": [
        {
          "internalType": "uint256",
          "name": "",
          "type": "uint256"
        }
      ],
      "stateMutability": "nonpayable",
      "type": "function"
    },
    {
      "inputs": [],
      "name": "supplyRatePerBlock",
      "outputs": [
        {
          "internalType": "uint256",
          "name": "",
          "type": "uint256"
        }
      ],
      "stateMutability": "view",
      "type": "function"
    },
    {
      "inputs": [],
      "name": "symbol",
      "outputs": [
        {
          "internalType": "string",
          "name": "",
          "type": "string"
        }
      ],
      "stateMutability": "view",
      "type": "function"
    },
    {
      "inputs": [],
      "name": "totalBorrows",
      "outputs": [
        {
          "internalType": "uint256",
          "name": "",
          "type": "uint256"
        }
      ],
      "stateMutability": "view",
      "type": "function"
    },
    {
      "inputs": [],
      "name": "totalBorrowsCurrent",
      "outputs": [
        {
          "internalType": "uint256",
          "name": "",
          "type": "uint256"
        }
      ],
      "stateMutability": "nonpayable",
      "type": "function"
    },
    {
      "inputs": [],
      "name": "totalReserves",
      "outputs": [
        {
          "internalType": "uint256",
          "name": "",
          "type": "uint256"
        }
      ],
      "stateMutability": "view",
      "type": "function"
    },
    {
      "inputs": [],
      "name": "totalSupply",
      "outputs": [
        {
          "internalType": "uint256",
          "name": "",
          "type": "uint256"
        }
      ],
      "stateMutability": "view",
      "type": "function"
    },
    {
      "inputs": [
        {
          "internalType": "address",
          "name": "dst",
          "type": "address"
        },
        {
          "internalType": "uint256",
          "name": "amount",
          "type": "uint256"
        }
      ],
      "name": "transfer",
      "outputs": [
        {
          "internalType": "bool",
          "name": "",
          "type": "bool"
        }
      ],
      "stateMutability": "nonpayable",
      "type": "function"
    },
    {
      "inputs": [
        {
          "internalType": "address",
          "name": "src",
          "type": "address"
        },
        {
          "internalType": "address",
          "name": "dst",
          "type": "address"
        },
        {
          "internalType": "uint256",
          "name": "amount",
          "type": "uint256"
        }
      ],
      "name": "transferFrom",
      "outputs": [
        {
          "internalType": "bool",
          "name": "",
          "type": "bool"
        }
      ],
      "stateMutability": "nonpayable",
      "type": "function"
    },
    {
      "inputs": [
        {
          "internalType": "address",
          "name": "newOwner",
          "type": "address"
        }
      ],
      "name": "transferOwnership",
      "outputs": [],
      "stateMutability": "nonpayable",
      "type": "function"
    },
    {
      "inputs": [],
      "name": "underlying",
      "outputs": [
        {
          "internalType": "address",
          "name": "",
          "type": "address"
        }
      ],
      "stateMutability": "view",
      "type": "function"
    }
  ],
  "bytecode": "0x60806040523480156200001157600080fd5b506198ed80620000226000396000f3fe608060405234801561001057600080fd5b50600436106103785760003560e01c80637cd07e47116101d3578063c23d91bd11610104578063f2fde38b116100a2578063f71e6e921161007c578063f71e6e92146114af578063f8f9da28146114e3578063fca7820b14611501578063fe17b28f1461154357610378565b8063f2fde38b146113b5578063f3fdb15a146113f9578063f5e3c4621461142d57610378565b8063db006a75116100de578063db006a7514611285578063dd62ed3e146112c7578063e228bb431461133f578063f2b3abbd1461135d57610378565b8063c23d91bd14611177578063c37f68e2146111d6578063c5ebeaec1461124357610378565b8063a0712d6811610171578063aa5af0fd1161014b578063aa5af0fd1461109b578063ae9d70b0146110b9578063b2a02ff1146110d7578063bd6d894d1461115957610378565b8063a0712d6814610fd7578063a6afed9514611019578063a9059cbb1461103757610378565b80638f840ddd116101ad5780638f840ddd14610d3557806394d6c57414610d5357806395d89b4114610efc57806395dd919314610f7f57610378565b80637cd07e4714610c8b578063852a12e314610cbf5780638da5cb5b14610d0157610378565b80633b1d21a2116102ad578063601a0bf11161024b57806370a082311161022557806370a0823114610bbf578063715018a614610c1757806373acee9814610c21578063791d891514610c3f57610378565b8063601a0bf114610b2b5780636c540baf14610b6d5780636f307dc314610b8b57610378565b806347bd37181161028757806347bd371814610a6157806347dfe70d14610a7f5780635a890c0e14610ad75780635fe3b56714610af757610378565b80633b1d21a2146109a95780633e941010146109c75780634576b5db14610a0957610378565b8063182df0f51161031a5780632608f818116102f45780632608f8181461088a578063313ce567146108ec578063370501171461090d5780633af9e6691461095157610378565b8063182df0f51461061f5780631a31d4651461063d57806323b872dd1461080657610378565b80630e752702116103565780630e75270214610549578063173b99041461058b57806317bfdfbc146105a957806318160ddd1461060157610378565b806306fdde031461037d578063095ea7b3146104005780630c5c9fa814610464575b600080fd5b610385611585565b6040518080602001828103825283818151815260200191508051906020019080838360005b838110156103c55780820151818401526020810190506103aa565b50505050905090810190601f1680156103f25780820380516001836020036101000a031916815260200191505b509250505060405180910390f35b61044c6004803603604081101561041657600080fd5b81019080803573ffffffffffffffffffffffffffffffffffffffff16906020019092919080359060200190929190505050611623565b60405180821515815260200191505060405180910390f35b6105476004803603606081101561047a57600080fd5b81019080803573ffffffffffffffffffffffffffffffffffffffff16906020019092919080359060200190929190803590602001906401000000008111156104c157600080fd5b8201836020820111156104d357600080fd5b803590602001918460018302840111640100000000831117156104f557600080fd5b91908080601f016020809104026020016040519081016040528093929190818152602001838380828437600081840152601f19601f82011690508083019250505050505050919291929050505061171a565b005b6105756004803603602081101561055f57600080fd5b81019080803590602001909291905050506119f7565b6040518082815260200191505060405180910390f35b610593611a0f565b6040518082815260200191505060405180910390f35b6105eb600480360360208110156105bf57600080fd5b81019080803573ffffffffffffffffffffffffffffffffffffffff169060200190929190505050611a15565b6040518082815260200191505060405180910390f35b610609611b64565b6040518082815260200191505060405180910390f35b610627611b6a565b6040518082815260200191505060405180910390f35b610804600480360360e081101561065357600080fd5b81019080803573ffffffffffffffffffffffffffffffffffffffff169060200190929190803573ffffffffffffffffffffffffffffffffffffffff169060200190929190803573ffffffffffffffffffffffffffffffffffffffff16906020019092919080359060200190929190803590602001906401000000008111156106da57600080fd5b8201836020820111156106ec57600080fd5b8035906020019184600183028401116401000000008311171561070e57600080fd5b91908080601f016020809104026020016040519081016040528093929190818152602001838380828437600081840152601f19601f8201169050808301925050505050505091929192908035906020019064010000000081111561077157600080fd5b82018360208201111561078357600080fd5b803590602001918460018302840111640100000000831117156107a557600080fd5b91908080601f016020809104026020016040519081016040528093929190818152602001838380828437600081840152601f19601f820116905080830192505050505050509192919290803560ff169060200190929190505050611bf2565b005b6108726004803603606081101561081c57600080fd5b81019080803573ffffffffffffffffffffffffffffffffffffffff169060200190929190803573ffffffffffffffffffffffffffffffffffffffff16906020019092919080359060200190929190505050611df7565b60405180821515815260200191505060405180910390f35b6108d6600480360360408110156108a057600080fd5b81019080803573ffffffffffffffffffffffffffffffffffffffff16906020019092919080359060200190929190505050611ed1565b6040518082815260200191505060405180910390f35b6108f4611eeb565b604051808260ff16815260200191505060405180910390f35b61094f6004803603602081101561092357600080fd5b81019080803573ffffffffffffffffffffffffffffffffffffffff169060200190929190505050611efe565b005b6109936004803603602081101561096757600080fd5b81019080803573ffffffffffffffffffffffffffffffffffffffff16906020019092919050505061200c565b6040518082815260200191505060405180910390f35b6109b1612115565b6040518082815260200191505060405180910390f35b6109f3600480360360208110156109dd57600080fd5b8101908080359060200190929190505050612124565b6040518082815260200191505060405180910390f35b610a4b60048036036020811015610a1f57600080fd5b81019080803573ffffffffffffffffffffffffffffffffffffffff169060200190929190505050612136565b6040518082815260200191505060405180910390f35b610a696122ea565b6040518082815260200191505060405180910390f35b610ac160048036036020811015610a9557600080fd5b81019080803573ffffffffffffffffffffffffffffffffffffffff1690602001909291905050506122f0565b6040518082815260200191505060405180910390f35b610adf6124a4565b60405180821515815260200191505060405180910390f35b610aff6124a9565b604051808273ffffffffffffffffffffffffffffffffffffffff16815260200191505060405180910390f35b610b5760048036036020811015610b4157600080fd5b81019080803590602001909291905050506124cf565b6040518082815260200191505060405180910390f35b610b756125d5565b6040518082815260200191505060405180910390f35b610b936125db565b604051808273ffffffffffffffffffffffffffffffffffffffff16815260200191505060405180910390f35b610c0160048036036020811015610bd557600080fd5b81019080803573ffffffffffffffffffffffffffffffffffffffff169060200190929190505050612601565b6040518082815260200191505060405180910390f35b610c1f61264a565b005b610c296127d5565b6040518082815260200191505060405180910390f35b610c7560048036036040811015610c5557600080fd5b81019080803590602001909291908035906020019092919050505061291c565b6040518082815260200191505060405180910390f35b610c93612936565b604051808273ffffffffffffffffffffffffffffffffffffffff16815260200191505060405180910390f35b610ceb60048036036020811015610cd557600080fd5b810190808035906020019092919050505061295c565b6040518082815260200191505060405180910390f35b610d0961296e565b604051808273ffffffffffffffffffffffffffffffffffffffff16815260200191505060405180910390f35b610d3d612998565b6040518082815260200191505060405180910390f35b610efa600480360360c0811015610d6957600080fd5b81019080803573ffffffffffffffffffffffffffffffffffffffff169060200190929190803573ffffffffffffffffffffffffffffffffffffffff1690602001909291908035906020019092919080359060200190640100000000811115610dd057600080fd5b820183602082011115610de257600080fd5b80359060200191846001830284011164010000000083111715610e0457600080fd5b91908080601f016020809104026020016040519081016040528093929190818152602001838380828437600081840152601f19601f82011690508083019250505050505050919291929080359060200190640100000000811115610e6757600080fd5b820183602082011115610e7957600080fd5b80359060200191846001830284011164010000000083111715610e9b57600080fd5b91908080601f016020809104026020016040519081016040528093929190818152602001838380828437600081840152601f19601f820116905080830192505050505050509192919290803560ff16906020019092919050505061299e565b005b610f04612cb9565b6040518080602001828103825283818151815260200191508051906020019080838360005b83811015610f44578082015181840152602081019050610f29565b50505050905090810190601f168015610f715780820380516001836020036101000a031916815260200191505b509250505060405180910390f35b610fc160048036036020811015610f9557600080fd5b81019080803573ffffffffffffffffffffffffffffffffffffffff169060200190929190505050612d57565b6040518082815260200191505060405180910390f35b61100360048036036020811015610fed57600080fd5b8101908080359060200190929190505050612de2565b6040518082815260200191505060405180910390f35b611021612dfa565b6040518082815260200191505060405180910390f35b6110836004803603604081101561104d57600080fd5b81019080803573ffffffffffffffffffffffffffffffffffffffff169060200190929190803590602001909291905050506132f0565b60405180821515815260200191505060405180910390f35b6110a36133c9565b6040518082815260200191505060405180910390f35b6110c16133cf565b6040518082815260200191505060405180910390f35b611143600480360360608110156110ed57600080fd5b81019080803573ffffffffffffffffffffffffffffffffffffffff169060200190929190803573ffffffffffffffffffffffffffffffffffffffff169060200190929190803590602001909291905050506134a9565b6040518082815260200191505060405180910390f35b611161613575565b6040518082815260200191505060405180910390f35b61117f6136c1565b6040518080602001828103825283818151815260200191508051906020019060200280838360005b838110156111c25780820151818401526020810190506111a7565b505050509050019250505060405180910390f35b611218600480360360208110156111ec57600080fd5b81019080803573ffffffffffffffffffffffffffffffffffffffff169060200190929190505050613b61565b6040518085815260200184815260200183815260200182815260200194505050505060405180910390f35b61126f6004803603602081101561125957600080fd5b8101908080359060200190929190505050613c77565b6040518082815260200191505060405180910390f35b6112b16004803603602081101561129b57600080fd5b8101908080359060200190929190505050613c89565b6040518082815260200191505060405180910390f35b611329600480360360408110156112dd57600080fd5b81019080803573ffffffffffffffffffffffffffffffffffffffff169060200190929190803573ffffffffffffffffffffffffffffffffffffffff169060200190929190505050613c9b565b6040518082815260200191505060405180910390f35b611347613d22565b6040518082815260200191505060405180910390f35b61139f6004803603602081101561137357600080fd5b81019080803573ffffffffffffffffffffffffffffffffffffffff169060200190929190505050613d28565b6040518082815260200191505060405180910390f35b6113f7600480360360208110156113cb57600080fd5b81019080803573ffffffffffffffffffffffffffffffffffffffff169060200190929190505050613d78565b005b611401613f88565b604051808273ffffffffffffffffffffffffffffffffffffffff16815260200191505060405180910390f35b6114996004803603606081101561144357600080fd5b81019080803573ffffffffffffffffffffffffffffffffffffffff16906020019092919080359060200190929190803573ffffffffffffffffffffffffffffffffffffffff169060200190929190505050613fae565b6040518082815260200191505060405180910390f35b6114b7613fca565b604051808273ffffffffffffffffffffffffffffffffffffffff16815260200191505060405180910390f35b6114eb613ff0565b6040518082815260200191505060405180910390f35b61152d6004803603602081101561151757600080fd5b81019080803590602001909291905050506140c0565b6040518082815260200191505060405180910390f35b61156f6004803603602081101561155957600080fd5b81019080803590602001909291905050506141c6565b6040518082815260200191505060405180910390f35b60018054600181600116156101000203166002900480601f01602080910402602001604051908101604052809291908181526020018280546001816001161561010002031660029004801561161b5780601f106115f05761010080835404028352916020019161161b565b820191906000526020600020905b8154815290600101906020018083116115fe57829003601f168201915b505050505081565b60008033905082600d60008373ffffffffffffffffffffffffffffffffffffffff1673ffffffffffffffffffffffffffffffffffffffff16815260200190815260200160002060008673ffffffffffffffffffffffffffffffffffffffff1673ffffffffffffffffffffffffffffffffffffffff168152602001908152602001600020819055508373ffffffffffffffffffffffffffffffffffffffff168173ffffffffffffffffffffffffffffffffffffffff167f8c5be1e5ebec7d5bd14f71427d1e84f3dd0314c0f7b2291e5b200ac8c7c3b925856040518082815260200191505060405180910390a3600191505092915050565b60008054906101000a900460ff1661179a576040517f08c379a000000000000000000000000000000000000000000000000000000000815260040180806020018281038252600a8152602001807f72652d656e74657265640000000000000000000000000000000000000000000081525060200191505060405180910390fd5b60008060006101000a81548160ff02191690831515021790555060006117be6142f4565b9050600060a960009054906101000a900473ffffffffffffffffffffffffffffffffffffffff1690506117f181856143c4565b60a960009054906101000a900473ffffffffffffffffffffffffffffffffffffffff1673ffffffffffffffffffffffffffffffffffffffff1663322042f2308760a860009054906101000a900473ffffffffffffffffffffffffffffffffffffffff1688886040518663ffffffff1660e01b8152600401808673ffffffffffffffffffffffffffffffffffffffff1681526020018573ffffffffffffffffffffffffffffffffffffffff1681526020018473ffffffffffffffffffffffffffffffffffffffff16815260200183815260200180602001828103825283818151815260200191508051906020019080838360005b838110156118ff5780820151818401526020810190506118e4565b50505050905090810190601f16801561192c5780820380516001836020036101000a031916815260200191505b509650505050505050600060405180830381600087803b15801561194f57600080fd5b505af1158015611963573d6000803e3d6000fd5b5050505060006119716142f4565b9050828110156119cc576040517f08c379a00000000000000000000000000000000000000000000000000000000081526004018080602001828103825260328152602001806196a36032913960400191505060405180910390fd5b6119d4612dfa565b5050505060016000806101000a81548160ff021916908315150217905550505050565b600080611a038361451c565b50905080915050919050565b60065481565b60008060009054906101000a900460ff16611a98576040517f08c379a000000000000000000000000000000000000000000000000000000000815260040180806020018281038252600a8152602001807f72652d656e74657265640000000000000000000000000000000000000000000081525060200191505060405180910390fd5b60008060006101000a81548160ff02191690831515021790555060006010811115611abf57fe5b611ac7612dfa565b14611b3a576040517f08c379a00000000000000000000000000000000000000000000000000000000081526004018080602001828103825260168152602001807f61636372756520696e746572657374206661696c65640000000000000000000081525060200191505060405180910390fd5b611b4382612d57565b905060016000806101000a81548160ff021916908315150217905550919050565b600b5481565b6000806000611b7761462a565b9150915060006003811115611b8857fe5b826003811115611b9457fe5b14611bea576040517f08c379a00000000000000000000000000000000000000000000000000000000081526004018080602001828103825260358152602001806198036035913960400191505060405180910390fd5b809250505090565b601160019054906101000a900460ff1680611c115750611c10614700565b5b80611c295750601160009054906101000a900460ff16155b611c7e576040517f08c379a000000000000000000000000000000000000000000000000000000000815260040180806020018281038252602e815260200180619771602e913960400191505060405180910390fd5b6000601160019054906101000a900460ff161590508015611cd0576001601160016101000a81548160ff0219169083151502179055506001601160006101000a81548160ff0219169083151502179055505b611cd8614717565b611ce687878787878761299e565b8760a860006101000a81548173ffffffffffffffffffffffffffffffffffffffff021916908373ffffffffffffffffffffffffffffffffffffffff16021790555060a860009054906101000a900473ffffffffffffffffffffffffffffffffffffffff1673ffffffffffffffffffffffffffffffffffffffff166318160ddd6040518163ffffffff1660e01b815260040160206040518083038186803b158015611d8f57600080fd5b505afa158015611da3573d6000803e3d6000fd5b505050506040513d6020811015611db957600080fd5b8101908080519060200190929190505050508015611ded576000601160016101000a81548160ff0219169083151502179055505b5050505050505050565b60008060009054906101000a900460ff16611e7a576040517f08c379a000000000000000000000000000000000000000000000000000000000815260040180806020018281038252600a8152602001807f72652d656e74657265640000000000000000000000000000000000000000000081525060200191505060405180910390fd5b60008060006101000a81548160ff02191690831515021790555060006010811115611ea157fe5b611ead3386868661482a565b14905060016000806101000a81548160ff0219169083151502179055509392505050565b600080611ede8484614e76565b5090508091505092915050565b600360009054906101000a900460ff1681565b611f06614f86565b73ffffffffffffffffffffffffffffffffffffffff16607660009054906101000a900473ffffffffffffffffffffffffffffffffffffffff1673ffffffffffffffffffffffffffffffffffffffff1614611fc8576040517f08c379a00000000000000000000000000000000000000000000000000000000081526004018080602001828103825260208152602001807f4f776e61626c653a2063616c6c6572206973206e6f7420746865206f776e657281525060200191505060405180910390fd5b8060a960006101000a81548173ffffffffffffffffffffffffffffffffffffffff021916908373ffffffffffffffffffffffffffffffffffffffff16021790555050565b60006120166193e3565b6040518060200160405280612029613575565b815250905060008061207a83600c60008873ffffffffffffffffffffffffffffffffffffffff1673ffffffffffffffffffffffffffffffffffffffff16815260200190815260200160002054614f8e565b915091506000600381111561208b57fe5b82600381111561209757fe5b1461210a576040517f08c379a000000000000000000000000000000000000000000000000000000000815260040180806020018281038252601f8152602001807f62616c616e636520636f756c64206e6f742062652063616c63756c617465640081525060200191505060405180910390fd5b809350505050919050565b600061211f6142f4565b905090565b600061212f82614fee565b9050919050565b6000612140614f86565b73ffffffffffffffffffffffffffffffffffffffff16607660009054906101000a900473ffffffffffffffffffffffffffffffffffffffff1673ffffffffffffffffffffffffffffffffffffffff1614612202576040517f08c379a00000000000000000000000000000000000000000000000000000000081526004018080602001828103825260208152602001807f4f776e61626c653a2063616c6c6572206973206e6f7420746865206f776e657281525060200191505060405180910390fd5b6000600360019054906101000a900473ffffffffffffffffffffffffffffffffffffffff16905082600360016101000a81548173ffffffffffffffffffffffffffffffffffffffff021916908373ffffffffffffffffffffffffffffffffffffffff1602179055507f7ac369dbd14fa5ea3f473ed67cc9d598964a77501540ba6751eb0b3decf5870d8184604051808373ffffffffffffffffffffffffffffffffffffffff1681526020018273ffffffffffffffffffffffffffffffffffffffff1681526020019250505060405180910390a1600060108111156122e257fe5b915050919050565b60095481565b60006122fa614f86565b73ffffffffffffffffffffffffffffffffffffffff16607660009054906101000a900473ffffffffffffffffffffffffffffffffffffffff1673ffffffffffffffffffffffffffffffffffffffff16146123bc576040517f08c379a00000000000000000000000000000000000000000000000000000000081526004018080602001828103825260208152602001807f4f776e61626c653a2063616c6c6572206973206e6f7420746865206f776e657281525060200191505060405180910390fd5b6000600f60009054906101000a900473ffffffffffffffffffffffffffffffffffffffff16905082600f60006101000a81548173ffffffffffffffffffffffffffffffffffffffff021916908373ffffffffffffffffffffffffffffffffffffffff1602179055507f99b2b7456799067566d467831e63363500739eac62c12ccb8cf9745078f06d2a8184604051808373ffffffffffffffffffffffffffffffffffffffff1681526020018273ffffffffffffffffffffffffffffffffffffffff1681526020019250505060405180910390a16000601081111561249c57fe5b915050919050565b600181565b600360019054906101000a900473ffffffffffffffffffffffffffffffffffffffff1681565b60008060009054906101000a900460ff16612552576040517f08c379a000000000000000000000000000000000000000000000000000000000815260040180806020018281038252600a8152602001807f72652d656e74657265640000000000000000000000000000000000000000000081525060200191505060405180910390fd5b60008060006101000a81548160ff0219169083151502179055506000612576612dfa565b90506000601081111561258557fe5b81146125a9576125a181601081111561259a57fe5b60316150fa565b9150506125b6565b6125b28361516e565b9150505b60016000806101000a81548160ff021916908315150217905550919050565b60075481565b60a860009054906101000a900473ffffffffffffffffffffffffffffffffffffffff1681565b6000600c60008373ffffffffffffffffffffffffffffffffffffffff1673ffffffffffffffffffffffffffffffffffffffff168152602001908152602001600020549050919050565b612652614f86565b73ffffffffffffffffffffffffffffffffffffffff16607660009054906101000a900473ffffffffffffffffffffffffffffffffffffffff1673ffffffffffffffffffffffffffffffffffffffff1614612714576040517f08c379a00000000000000000000000000000000000000000000000000000000081526004018080602001828103825260208152602001807f4f776e61626c653a2063616c6c6572206973206e6f7420746865206f776e657281525060200191505060405180910390fd5b600073ffffffffffffffffffffffffffffffffffffffff16607660009054906101000a900473ffffffffffffffffffffffffffffffffffffffff1673ffffffffffffffffffffffffffffffffffffffff167f8be0079c531659141344cd1fd0a4f28419497f9722a3daafe3b4186f6b6457e060405160405180910390a36000607660006101000a81548173ffffffffffffffffffffffffffffffffffffffff021916908373ffffffffffffffffffffffffffffffffffffffff160217905550565b60008060009054906101000a900460ff16612858576040517f08c379a000000000000000000000000000000000000000000000000000000000815260040180806020018281038252600a8152602001807f72652d656e74657265640000000000000000000000000000000000000000000081525060200191505060405180910390fd5b60008060006101000a81548160ff0219169083151502179055506000601081111561287f57fe5b612887612dfa565b146128fa576040517f08c379a00000000000000000000000000000000000000000000000000000000081526004018080602001828103825260168152602001807f61636372756520696e746572657374206661696c65640000000000000000000081525060200191505060405180910390fd5b600954905060016000806101000a81548160ff02191690831515021790555090565b6000806129298484615395565b5090508091505092915050565b600f60009054906101000a900473ffffffffffffffffffffffffffffffffffffffff1681565b60006129678261554b565b9050919050565b6000607660009054906101000a900473ffffffffffffffffffffffffffffffffffffffff16905090565b600a5481565b6129a6614f86565b73ffffffffffffffffffffffffffffffffffffffff16607660009054906101000a900473ffffffffffffffffffffffffffffffffffffffff1673ffffffffffffffffffffffffffffffffffffffff1614612a68576040517f08c379a00000000000000000000000000000000000000000000000000000000081526004018080602001828103825260208152602001807f4f776e61626c653a2063616c6c6572206973206e6f7420746865206f776e657281525060200191505060405180910390fd5b6000600754148015612a7c57506000600854145b612ad1576040517f08c379a00000000000000000000000000000000000000000000000000000000081526004018080602001828103825260238152602001806195d66023913960400191505060405180910390fd5b83600581905550600060055411612b33576040517f08c379a00000000000000000000000000000000000000000000000000000000081526004018080602001828103825260308152602001806196516030913960400191505060405180910390fd5b6000612b3e87612136565b905060006010811115612b4d57fe5b8114612bc1576040517f08c379a000000000000000000000000000000000000000000000000000000000815260040180806020018281038252601a8152602001807f73657474696e6720636f6d7074726f6c6c6572206661696c656400000000000081525060200191505060405180910390fd5b612bc9615654565b600781905550670de0b6b3a7640000600881905550612be78661565c565b905060006010811115612bf657fe5b8114612c4d576040517f08c379a00000000000000000000000000000000000000000000000000000000081526004018080602001828103825260228152602001806196816022913960400191505060405180910390fd5b8360019080519060200190612c639291906193f6565b508260029080519060200190612c7a9291906193f6565b5081600360006101000a81548160ff021916908360ff16021790555060016000806101000a81548160ff02191690831515021790555050505050505050565b60028054600181600116156101000203166002900480601f016020809104026020016040519081016040528092919081815260200182805460018160011615610100020316600290048015612d4f5780601f10612d2457610100808354040283529160200191612d4f565b820191906000526020600020905b815481529060010190602001808311612d3257829003601f168201915b505050505081565b6000806000612d6584615835565b9150915060006003811115612d7657fe5b826003811115612d8257fe5b14612dd8576040517f08c379a00000000000000000000000000000000000000000000000000000000081526004018080602001828103825260378152602001806197006037913960400191505060405180910390fd5b8092505050919050565b600080612dee83615937565b50905080915050919050565b600080612e05615654565b90506000600754905081811415612e2c5760006010811115612e2357fe5b925050506132ed565b6000612e366142f4565b9050600060095490506000600a549050600060085490506000600460009054906101000a900473ffffffffffffffffffffffffffffffffffffffff1673ffffffffffffffffffffffffffffffffffffffff166315f240538686866040518463ffffffff1660e01b815260040180848152602001838152602001828152602001935050505060206040518083038186803b158015612ed257600080fd5b505afa158015612ee6573d6000803e3d6000fd5b505050506040513d6020811015612efc57600080fd5b8101908080519060200190929190505050905065048c27395000811115612f8b576040517f08c379a000000000000000000000000000000000000000000000000000000000815260040180806020018281038252601c8152602001807f626f72726f772072617465206973206162737572646c7920686967680000000081525060200191505060405180910390fd5b600080612f988989615a46565b9150915060006003811115612fa957fe5b826003811115612fb557fe5b14613028576040517f08c379a000000000000000000000000000000000000000000000000000000000815260040180806020018281038252601f8152602001807f636f756c64206e6f742063616c63756c61746520626c6f636b2064656c74610081525060200191505060405180910390fd5b6130306193e3565b60008060008061304e60405180602001604052808a81525087615a6e565b80965081985050506000600381111561306357fe5b87600381111561306f57fe5b146130a15761308c6009600689600381111561308757fe5b615ae6565b9e5050505050505050505050505050506132ed565b6130ab858c614f8e565b8095508198505050600060038111156130c057fe5b8760038111156130cc57fe5b146130fe576130e9600960018960038111156130e457fe5b615ae6565b9e5050505050505050505050505050506132ed565b61310a84601054615a46565b50809750506000600381111561311c57fe5b87600381111561312857fe5b146131335760105493505b61313d848c615b5a565b80945081985050506000600381111561315257fe5b87600381111561315e57fe5b146131905761317b6009600489600381111561317657fe5b615ae6565b9e5050505050505050505050505050506132ed565b6131ab6040518060200160405280600654815250858c615b89565b8093508198505050600060038111156131c057fe5b8760038111156131cc57fe5b146131fe576131e9600960058960038111156131e457fe5b615ae6565b9e5050505050505050505050505050506132ed565b613209858a8b615b89565b80925081985050506000600381111561321e57fe5b87600381111561322a57fe5b1461325c576132476009600389600381111561324257fe5b615ae6565b9e5050505050505050505050505050506132ed565b8d600781905550806008819055508260098190555081600a819055507f717fee053884ab1935ba6d0140f6ed225371439611d9674ff445419d6a0fa1b78c85838686604051808681526020018581526020018481526020018381526020018281526020019550505050505060405180910390a1600060108111156132dc57fe5b9e5050505050505050505050505050505b90565b60008060009054906101000a900460ff16613373576040517f08c379a000000000000000000000000000000000000000000000000000000000815260040180806020018281038252600a8152602001807f72652d656e74657265640000000000000000000000000000000000000000000081525060200191505060405180910390fd5b60008060006101000a81548160ff0219169083151502179055506000601081111561339a57fe5b6133a63333868661482a565b14905060016000806101000a81548160ff02191690831515021790555092915050565b60085481565b6000600460009054906101000a900473ffffffffffffffffffffffffffffffffffffffff1673ffffffffffffffffffffffffffffffffffffffff1663b81688166134176142f4565b600954600a546006546040518563ffffffff1660e01b81526004018085815260200184815260200183815260200182815260200194505050505060206040518083038186803b15801561346957600080fd5b505afa15801561347d573d6000803e3d6000fd5b505050506040513d602081101561349357600080fd5b8101908080519060200190929190505050905090565b60008060009054906101000a900460ff1661352c576040517f08c379a000000000000000000000000000000000000000000000000000000000815260040180806020018281038252600a8152602001807f72652d656e74657265640000000000000000000000000000000000000000000081525060200191505060405180910390fd5b60008060006101000a81548160ff02191690831515021790555061355233858585615bf1565b905060016000806101000a81548160ff0219169083151502179055509392505050565b60008060009054906101000a900460ff166135f8576040517f08c379a000000000000000000000000000000000000000000000000000000000815260040180806020018281038252600a8152602001807f72652d656e74657265640000000000000000000000000000000000000000000081525060200191505060405180910390fd5b60008060006101000a81548160ff0219169083151502179055506000601081111561361f57fe5b613627612dfa565b1461369a576040517f08c379a00000000000000000000000000000000000000000000000000000000081526004018080602001828103825260168152602001807f61636372756520696e746572657374206661696c65640000000000000000000081525060200191505060405180910390fd5b6136a2611b6a565b905060016000806101000a81548160ff02191690831515021790555090565b606060006136cd615654565b90506000600754905060006136e06142f4565b9050600060095490506000600a549050600060085490506000600460009054906101000a900473ffffffffffffffffffffffffffffffffffffffff1673ffffffffffffffffffffffffffffffffffffffff166315f240538686866040518463ffffffff1660e01b815260040180848152602001838152602001828152602001935050505060206040518083038186803b15801561377c57600080fd5b505afa158015613790573d6000803e3d6000fd5b505050506040513d60208110156137a657600080fd5b8101908080519060200190929190505050905065048c27395000811115613835576040517f08c379a000000000000000000000000000000000000000000000000000000000815260040180806020018281038252601c8152602001807f626f72726f772072617465206973206162737572646c7920686967680000000081525060200191505060405180910390fd5b6000806138428989615a46565b915091506000600381111561385357fe5b82600381111561385f57fe5b146138d2576040517f08c379a000000000000000000000000000000000000000000000000000000000815260040180806020018281038252601f8152602001807f636f756c64206e6f742063616c63756c61746520626c6f636b2064656c74610081525060200191505060405180910390fd5b6138da6193e3565b6000806000806060600667ffffffffffffffff811180156138fa57600080fd5b506040519080825280602002602001820160405280156139295781602001602082028036833780820191505090505b50905061394460405180602001604052808b81525088615a6e565b80975081995050506000600381111561395957fe5b88600381111561396557fe5b1461398157809f50505050505050505050505050505050613b5e565b61398b868d614f8e565b8096508199505050600060038111156139a057fe5b8860038111156139ac57fe5b146139c857809f50505050505050505050505050505050613b5e565b6139d2858d615b5a565b8095508199505050600060038111156139e757fe5b8860038111156139f357fe5b14613a0f57809f50505050505050505050505050505050613b5e565b613a2a6040518060200160405280600654815250868d615b89565b809450819950505060006003811115613a3f57fe5b886003811115613a4b57fe5b14613a6757809f50505050505050505050505050505050613b5e565b613a72868b8c615b89565b809350819950505060006003811115613a8757fe5b886003811115613a9357fe5b14613aaf57809f50505050505050505050505050505050613b5e565b8e81600081518110613abd57fe5b6020026020010181815250508c81600181518110613ad757fe5b6020026020010181815250508481600281518110613af157fe5b6020026020010181815250508381600381518110613b0b57fe5b6020026020010181815250508281600481518110613b2557fe5b6020026020010181815250508181600581518110613b3f57fe5b602002602001018181525050809f505050505050505050505050505050505b90565b6000806000806000600c60008773ffffffffffffffffffffffffffffffffffffffff1673ffffffffffffffffffffffffffffffffffffffff1681526020019081526020016000205490506000806000613bb989615835565b809450819250505060006003811115613bce57fe5b816003811115613bda57fe5b14613c025760096010811115613bec57fe5b6000806000975097509750975050505050613c70565b613c0a61462a565b809350819250505060006003811115613c1f57fe5b816003811115613c2b57fe5b14613c535760096010811115613c3d57fe5b6000806000975097509750975050505050613c70565b60006010811115613c6057fe5b8484849750975097509750505050505b9193509193565b6000613c82826160ba565b9050919050565b6000613c94826161c1565b9050919050565b6000600d60008473ffffffffffffffffffffffffffffffffffffffff1673ffffffffffffffffffffffffffffffffffffffff16815260200190815260200160002060008373ffffffffffffffffffffffffffffffffffffffff1673ffffffffffffffffffffffffffffffffffffffff16815260200190815260200160002054905092915050565b60105481565b600080613d33612dfa565b905060006010811115613d4257fe5b8114613d6657613d5e816010811115613d5757fe5b60426150fa565b915050613d73565b613d6f8361565c565b9150505b919050565b613d80614f86565b73ffffffffffffffffffffffffffffffffffffffff16607660009054906101000a900473ffffffffffffffffffffffffffffffffffffffff1673ffffffffffffffffffffffffffffffffffffffff1614613e42576040517f08c379a00000000000000000000000000000000000000000000000000000000081526004018080602001828103825260208152602001807f4f776e61626c653a2063616c6c6572206973206e6f7420746865206f776e657281525060200191505060405180910390fd5b600073ffffffffffffffffffffffffffffffffffffffff168173ffffffffffffffffffffffffffffffffffffffff161415613ec8576040517f08c379a00000000000000000000000000000000000000000000000000000000081526004018080602001828103825260268152602001806195f96026913960400191505060405180910390fd5b8073ffffffffffffffffffffffffffffffffffffffff16607660009054906101000a900473ffffffffffffffffffffffffffffffffffffffff1673ffffffffffffffffffffffffffffffffffffffff167f8be0079c531659141344cd1fd0a4f28419497f9722a3daafe3b4186f6b6457e060405160405180910390a380607660006101000a81548173ffffffffffffffffffffffffffffffffffffffff021916908373ffffffffffffffffffffffffffffffffffffffff16021790555050565b600460009054906101000a900473ffffffffffffffffffffffffffffffffffffffff1681565b600080613fbc8585856162ca565b509050809150509392505050565b60a960009054906101000a900473ffffffffffffffffffffffffffffffffffffffff1681565b6000600460009054906101000a900473ffffffffffffffffffffffffffffffffffffffff1673ffffffffffffffffffffffffffffffffffffffff166315f240536140386142f4565b600954600a546040518463ffffffff1660e01b815260040180848152602001838152602001828152602001935050505060206040518083038186803b15801561408057600080fd5b505afa158015614094573d6000803e3d6000fd5b505050506040513d60208110156140aa57600080fd5b8101908080519060200190929190505050905090565b60008060009054906101000a900460ff16614143576040517f08c379a000000000000000000000000000000000000000000000000000000000815260040180806020018281038252600a8152602001807f72652d656e74657265640000000000000000000000000000000000000000000081525060200191505060405180910390fd5b60008060006101000a81548160ff0219169083151502179055506000614167612dfa565b90506000601081111561417657fe5b811461419a5761419281601081111561418b57fe5b60486150fa565b9150506141a7565b6141a383616496565b9150505b60016000806101000a81548160ff021916908315150217905550919050565b60006141d0614f86565b73ffffffffffffffffffffffffffffffffffffffff16607660009054906101000a900473ffffffffffffffffffffffffffffffffffffffff1673ffffffffffffffffffffffffffffffffffffffff1614614292576040517f08c379a00000000000000000000000000000000000000000000000000000000081526004018080602001828103825260208152602001807f4f776e61626c653a2063616c6c6572206973206e6f7420746865206f776e657281525060200191505060405180910390fd5b60006010549050826010819055507f0fef09b67597ccf3dbb342dd705d9a10d14b4813c09c55e010cd5f4bf219ddaa8184604051808381526020018281526020019250505060405180910390a1600060108111156142ec57fe5b915050919050565b60008060a860009054906101000a900473ffffffffffffffffffffffffffffffffffffffff1690508073ffffffffffffffffffffffffffffffffffffffff166370a08231306040518263ffffffff1660e01b8152600401808273ffffffffffffffffffffffffffffffffffffffff16815260200191505060206040518083038186803b15801561438357600080fd5b505afa158015614397573d6000803e3d6000fd5b505050506040513d60208110156143ad57600080fd5b810190808051906020019092919050505091505090565b600060a860009054906101000a900473ffffffffffffffffffffffffffffffffffffffff1690508073ffffffffffffffffffffffffffffffffffffffff1663a9059cbb84846040518363ffffffff1660e01b8152600401808373ffffffffffffffffffffffffffffffffffffffff16815260200182815260200192505050600060405180830381600087803b15801561445c57600080fd5b505af1158015614470573d6000803e3d6000fd5b5050505060003d6000811461448c576020811461449657600080fd5b60001991506144a2565b60206000803e60005191505b5080614516576040517f08c379a00000000000000000000000000000000000000000000000000000000081526004018080602001828103825260198152602001807f544f4b454e5f5452414e534645525f4f55545f4641494c45440000000000000081525060200191505060405180910390fd5b50505050565b60008060008054906101000a900460ff1661459f576040517f08c379a000000000000000000000000000000000000000000000000000000000815260040180806020018281038252600a8152602001807f72652d656e74657265640000000000000000000000000000000000000000000081525060200191505060405180910390fd5b60008060006101000a81548160ff02191690831515021790555060006145c3612dfa565b9050600060108111156145d257fe5b81146145fa576145ee8160108111156145e757fe5b60376150fa565b6000925092505061460b565b61460533338661660b565b92509250505b60016000806101000a81548160ff021916908315150217905550915091565b6000806000600b549050600081141561464c57600060055492509250506146fc565b60006146566142f4565b905060006146626193e3565b600061467384600954600a54616cba565b80945081925050506000600381111561468857fe5b81600381111561469457fe5b146146aa578060009650965050505050506146fc565b6146b48386616d13565b8093508192505050600060038111156146c957fe5b8160038111156146d557fe5b146146eb578060009650965050505050506146fc565b600082600001519650965050505050505b9091565b6000803090506000813b9050600081149250505090565b601160019054906101000a900460ff16806147365750614735614700565b5b8061474e5750601160009054906101000a900460ff16155b6147a3576040517f08c379a000000000000000000000000000000000000000000000000000000000815260040180806020018281038252602e815260200180619771602e913960400191505060405180910390fd5b6000601160019054906101000a900460ff1615905080156147f5576001601160016101000a81548160ff0219169083151502179055506001601160006101000a81548160ff0219169083151502179055505b6147fd616dde565b614805616ee1565b8015614827576000601160016101000a81548160ff0219169083151502179055505b50565b600080600360019054906101000a900473ffffffffffffffffffffffffffffffffffffffff1673ffffffffffffffffffffffffffffffffffffffff1663bdcdc258308787876040518563ffffffff1660e01b8152600401808573ffffffffffffffffffffffffffffffffffffffff1681526020018473ffffffffffffffffffffffffffffffffffffffff1681526020018373ffffffffffffffffffffffffffffffffffffffff168152602001828152602001945050505050602060405180830381600087803b1580156148fc57600080fd5b505af1158015614910573d6000803e3d6000fd5b505050506040513d602081101561492657600080fd5b81019080805190602001909291905050509050600081146149565761494e6003604c83615ae6565b915050614e6e565b8373ffffffffffffffffffffffffffffffffffffffff168573ffffffffffffffffffffffffffffffffffffffff16141561499e576149966002604d6150fa565b915050614e6e565b60008573ffffffffffffffffffffffffffffffffffffffff168773ffffffffffffffffffffffffffffffffffffffff1614156149fc577fffffffffffffffffffffffffffffffffffffffffffffffffffffffffffffffff9050614a7c565b600d60008773ffffffffffffffffffffffffffffffffffffffff1673ffffffffffffffffffffffffffffffffffffffff16815260200190815260200160002060008873ffffffffffffffffffffffffffffffffffffffff1673ffffffffffffffffffffffffffffffffffffffff1681526020019081526020016000205490505b600080600080614a8c8589615a46565b809450819550505060006003811115614aa157fe5b846003811115614aad57fe5b14614acb57614abe6009604d6150fa565b9650505050505050614e6e565b614b14600c60008c73ffffffffffffffffffffffffffffffffffffffff1673ffffffffffffffffffffffffffffffffffffffff1681526020019081526020016000205489615a46565b809350819550505060006003811115614b2957fe5b846003811115614b3557fe5b14614b5357614b466009604e6150fa565b9650505050505050614e6e565b614b9c600c60008b73ffffffffffffffffffffffffffffffffffffffff1673ffffffffffffffffffffffffffffffffffffffff1681526020019081526020016000205489615b5a565b809250819550505060006003811115614bb157fe5b846003811115614bbd57fe5b14614bdb57614bce6009604f6150fa565b9650505050505050614e6e565b81600c60008c73ffffffffffffffffffffffffffffffffffffffff1673ffffffffffffffffffffffffffffffffffffffff1681526020019081526020016000208190555080600c60008b73ffffffffffffffffffffffffffffffffffffffff1673ffffffffffffffffffffffffffffffffffffffff168152602001908152602001600020819055507fffffffffffffffffffffffffffffffffffffffffffffffffffffffffffffffff8514614d0c5782600d60008c73ffffffffffffffffffffffffffffffffffffffff1673ffffffffffffffffffffffffffffffffffffffff16815260200190815260200160002060008d73ffffffffffffffffffffffffffffffffffffffff1673ffffffffffffffffffffffffffffffffffffffff168152602001908152602001600020819055505b8873ffffffffffffffffffffffffffffffffffffffff168a73ffffffffffffffffffffffffffffffffffffffff167fddf252ad1be2c89b69c2b068fc378daa952ba7f163c4a11628f55a4df523b3ef8a6040518082815260200191505060405180910390a3600360019054906101000a900473ffffffffffffffffffffffffffffffffffffffff1673ffffffffffffffffffffffffffffffffffffffff16636a56947e308c8c8c6040518563ffffffff1660e01b8152600401808573ffffffffffffffffffffffffffffffffffffffff1681526020018473ffffffffffffffffffffffffffffffffffffffff1681526020018373ffffffffffffffffffffffffffffffffffffffff168152602001828152602001945050505050600060405180830381600087803b158015614e4057600080fd5b505af1158015614e54573d6000803e3d6000fd5b5050505060006010811115614e6557fe5b96505050505050505b949350505050565b60008060008054906101000a900460ff16614ef9576040517f08c379a000000000000000000000000000000000000000000000000000000000815260040180806020018281038252600a8152602001807f72652d656e74657265640000000000000000000000000000000000000000000081525060200191505060405180910390fd5b60008060006101000a81548160ff0219169083151502179055506000614f1d612dfa565b905060006010811115614f2c57fe5b8114614f5457614f48816010811115614f4157fe5b60366150fa565b60009250925050614f65565b614f5f33868661660b565b92509250505b60016000806101000a81548160ff0219169083151502179055509250929050565b600033905090565b6000806000614f9b6193e3565b614fa58686615a6e565b9150915060006003811115614fb657fe5b826003811115614fc257fe5b14614fd557816000935093505050614fe7565b6000614fe08261708d565b9350935050505b9250929050565b60008060009054906101000a900460ff16615071576040517f08c379a000000000000000000000000000000000000000000000000000000000815260040180806020018281038252600a8152602001807f72652d656e74657265640000000000000000000000000000000000000000000081525060200191505060405180910390fd5b60008060006101000a81548160ff0219169083151502179055506000615095612dfa565b9050600060108111156150a457fe5b81146150c8576150c08160108111156150b957fe5b60506150fa565b9150506150db565b6150d1836170ac565b5080915050809150505b60016000806101000a81548160ff021916908315150217905550919050565b60007f45b96fe442630264581b197e84bbada861235052c5a1aadfff9ea4e40a969aa083601081111561512957fe5b83605281111561513557fe5b600060405180848152602001838152602001828152602001935050505060405180910390a182601081111561516657fe5b905092915050565b6000615178614f86565b73ffffffffffffffffffffffffffffffffffffffff16607660009054906101000a900473ffffffffffffffffffffffffffffffffffffffff1673ffffffffffffffffffffffffffffffffffffffff161461523a576040517f08c379a00000000000000000000000000000000000000000000000000000000081526004018080602001828103825260208152602001807f4f776e61626c653a2063616c6c6572206973206e6f7420746865206f776e657281525060200191505060405180910390fd5b6000615244615654565b6007541461526057615258600a60346150fa565b915050615390565b826152696142f4565b10156152835761527b600e60336150fa565b915050615390565b600a548311156152a157615299600260356150fa565b915050615390565b82600a54039050600a54811115615303576040517f08c379a00000000000000000000000000000000000000000000000000000000081526004018080602001828103825260248152602001806198946024913960400191505060405180910390fd5b80600a8190555061531b61531561296e565b846143c4565b7f3bad0c59cf2f06e7314077049f48a93578cd16f5ef92329f1dab1420a99c177e61534461296e565b8483604051808473ffffffffffffffffffffffffffffffffffffffff168152602001838152602001828152602001935050505060405180910390a16000601081111561538c57fe5b9150505b919050565b60008060008054906101000a900460ff16615418576040517f08c379a000000000000000000000000000000000000000000000000000000000815260040180806020018281038252600a8152602001807f72652d656e74657265640000000000000000000000000000000000000000000081525060200191505060405180910390fd5b60008060006101000a81548160ff021916908315150217905550600f60009054906101000a900473ffffffffffffffffffffffffffffffffffffffff1673ffffffffffffffffffffffffffffffffffffffff163373ffffffffffffffffffffffffffffffffffffffff16146154d8576040517f08c379a000000000000000000000000000000000000000000000000000000000815260040180806020018281038252603281526020018061961f6032913960400191505060405180910390fd5b60006154e2612dfa565b9050600060108111156154f157fe5b81146155195761550d81601081111561550657fe5b601f6150fa565b6000925092505061552a565b6155243386866171e3565b92509250505b60016000806101000a81548160ff0219169083151502179055509250929050565b60008060009054906101000a900460ff166155ce576040517f08c379a000000000000000000000000000000000000000000000000000000000815260040180806020018281038252600a8152602001807f72652d656e74657265640000000000000000000000000000000000000000000081525060200191505060405180910390fd5b60008060006101000a81548160ff02191690831515021790555060006155f2612dfa565b90506000601081111561560157fe5b81146156255761561d81601081111561561657fe5b60286150fa565b915050615635565b6156313360008561787e565b9150505b60016000806101000a81548160ff021916908315150217905550919050565b600043905090565b6000615666614f86565b73ffffffffffffffffffffffffffffffffffffffff16607660009054906101000a900473ffffffffffffffffffffffffffffffffffffffff1673ffffffffffffffffffffffffffffffffffffffff1614615728576040517f08c379a00000000000000000000000000000000000000000000000000000000081526004018080602001828103825260208152602001807f4f776e61626c653a2063616c6c6572206973206e6f7420746865206f776e657281525060200191505060405180910390fd5b6000615732615654565b6007541461574e57615746600a60436150fa565b915050615830565b600460009054906101000a900473ffffffffffffffffffffffffffffffffffffffff16905082600460006101000a81548173ffffffffffffffffffffffffffffffffffffffff021916908373ffffffffffffffffffffffffffffffffffffffff1602179055507fedffc32e068c7c95dfd4bdfd5c4d939a084d6b11c4199eac8436ed234d72f9268184604051808373ffffffffffffffffffffffffffffffffffffffff1681526020018273ffffffffffffffffffffffffffffffffffffffff1681526020019250505060405180910390a16000601081111561582c57fe5b9150505b919050565b600080600080600080600e60008873ffffffffffffffffffffffffffffffffffffffff1673ffffffffffffffffffffffffffffffffffffffff168152602001908152602001600020905060008160000154141561589c576000809550955050505050615932565b6158ac8160000154600854617f6b565b8094508195505050600060038111156158c157fe5b8460038111156158cd57fe5b146158e2578360009550955050505050615932565b6158f0838260010154617fb8565b80935081955050506000600381111561590557fe5b84600381111561591157fe5b14615926578360009550955050505050615932565b60008295509550505050505b915091565b60008060008054906101000a900460ff166159ba576040517f08c379a000000000000000000000000000000000000000000000000000000000815260040180806020018281038252600a8152602001807f72652d656e74657265640000000000000000000000000000000000000000000081525060200191505060405180910390fd5b60008060006101000a81548160ff02191690831515021790555060006159de612dfa565b9050600060108111156159ed57fe5b8114615a1557615a09816010811115615a0257fe5b601f6150fa565b60009250925050615a27565b615a21338560006171e3565b92509250505b60016000806101000a81548160ff021916908315150217905550915091565b600080838311615a5e57600083850391509150615a67565b60036000915091505b9250929050565b6000615a786193e3565b600080615a89866000015186617f6b565b9150915060006003811115615a9a57fe5b826003811115615aa657fe5b14615ac7578160405180602001604052806000815250935093505050615adf565b60006040518060200160405280838152509350935050505b9250929050565b60007f45b96fe442630264581b197e84bbada861235052c5a1aadfff9ea4e40a969aa0846010811115615b1557fe5b846052811115615b2157fe5b8460405180848152602001838152602001828152602001935050505060405180910390a1836010811115615b5157fe5b90509392505050565b60008060008385019050848110615b78576000819250925050615b82565b6002600092509250505b9250929050565b6000806000615b966193e3565b615ba08787615a6e565b9150915060006003811115615bb157fe5b826003811115615bbd57fe5b14615bd057816000935093505050615be9565b615be2615bdc8261708d565b86615b5a565b9350935050505b935093915050565b600080600360019054906101000a900473ffffffffffffffffffffffffffffffffffffffff1673ffffffffffffffffffffffffffffffffffffffff1663d02f735130888888886040518663ffffffff1660e01b8152600401808673ffffffffffffffffffffffffffffffffffffffff1681526020018573ffffffffffffffffffffffffffffffffffffffff1681526020018473ffffffffffffffffffffffffffffffffffffffff1681526020018373ffffffffffffffffffffffffffffffffffffffff16815260200182815260200195505050505050602060405180830381600087803b158015615ce157600080fd5b505af1158015615cf5573d6000803e3d6000fd5b505050506040513d6020811015615d0b57600080fd5b8101908080519060200190929190505050905060008114615d3b57615d336003601c83615ae6565b9150506160b2565b8473ffffffffffffffffffffffffffffffffffffffff168473ffffffffffffffffffffffffffffffffffffffff161415615d8357615d7b6006601d6150fa565b9150506160b2565b6000806000615dd1600c60008973ffffffffffffffffffffffffffffffffffffffff1673ffffffffffffffffffffffffffffffffffffffff1681526020019081526020016000205487615a46565b809350819450505060006003811115615de657fe5b836003811115615df257fe5b14615e1a57615e0f6009601b856003811115615e0a57fe5b615ae6565b9450505050506160b2565b615e63600c60008a73ffffffffffffffffffffffffffffffffffffffff1673ffffffffffffffffffffffffffffffffffffffff1681526020019081526020016000205487615b5a565b809250819450505060006003811115615e7857fe5b836003811115615e8457fe5b14615eac57615ea16009601a856003811115615e9c57fe5b615ae6565b9450505050506160b2565b81600c60008973ffffffffffffffffffffffffffffffffffffffff1673ffffffffffffffffffffffffffffffffffffffff1681526020019081526020016000208190555080600c60008a73ffffffffffffffffffffffffffffffffffffffff1673ffffffffffffffffffffffffffffffffffffffff168152602001908152602001600020819055508773ffffffffffffffffffffffffffffffffffffffff168773ffffffffffffffffffffffffffffffffffffffff167fddf252ad1be2c89b69c2b068fc378daa952ba7f163c4a11628f55a4df523b3ef886040518082815260200191505060405180910390a3600360019054906101000a900473ffffffffffffffffffffffffffffffffffffffff1673ffffffffffffffffffffffffffffffffffffffff16636d35bf91308b8b8b8b6040518663ffffffff1660e01b8152600401808673ffffffffffffffffffffffffffffffffffffffff1681526020018573ffffffffffffffffffffffffffffffffffffffff1681526020018473ffffffffffffffffffffffffffffffffffffffff1681526020018373ffffffffffffffffffffffffffffffffffffffff16815260200182815260200195505050505050600060405180830381600087803b15801561608657600080fd5b505af115801561609a573d6000803e3d6000fd5b50505050600060108111156160ab57fe5b9450505050505b949350505050565b60008060009054906101000a900460ff1661613d576040517f08c379a000000000000000000000000000000000000000000000000000000000815260040180806020018281038252600a8152602001807f72652d656e74657265640000000000000000000000000000000000000000000081525060200191505060405180910390fd5b60008060006101000a81548160ff0219169083151502179055506000616161612dfa565b90506000601081111561617057fe5b81146161945761618c81601081111561618557fe5b60096150fa565b9150506161a2565b61619e3384617fe9565b9150505b60016000806101000a81548160ff021916908315150217905550919050565b60008060009054906101000a900460ff16616244576040517f08c379a000000000000000000000000000000000000000000000000000000000815260040180806020018281038252600a8152602001807f72652d656e74657265640000000000000000000000000000000000000000000081525060200191505060405180910390fd5b60008060006101000a81548160ff0219169083151502179055506000616268612dfa565b90506000601081111561627757fe5b811461629b5761629381601081111561628c57fe5b60286150fa565b9150506162ab565b6162a73384600061787e565b9150505b60016000806101000a81548160ff021916908315150217905550919050565b60008060008054906101000a900460ff1661634d576040517f08c379a000000000000000000000000000000000000000000000000000000000815260040180806020018281038252600a8152602001807f72652d656e74657265640000000000000000000000000000000000000000000081525060200191505060405180910390fd5b60008060006101000a81548160ff0219169083151502179055506000616371612dfa565b90506000601081111561638057fe5b81146163a85761639c81601081111561639557fe5b60106150fa565b60009250925050616474565b8373ffffffffffffffffffffffffffffffffffffffff1663a6afed956040518163ffffffff1660e01b8152600401602060405180830381600087803b1580156163f057600080fd5b505af1158015616404573d6000803e3d6000fd5b505050506040513d602081101561641a57600080fd5b810190808051906020019092919050505090506000601081111561643a57fe5b81146164625761645681601081111561644f57fe5b60116150fa565b60009250925050616474565b61646e33878787618531565b92509250505b60016000806101000a81548160ff021916908315150217905550935093915050565b60006164a0614f86565b73ffffffffffffffffffffffffffffffffffffffff16607660009054906101000a900473ffffffffffffffffffffffffffffffffffffffff1673ffffffffffffffffffffffffffffffffffffffff1614616562576040517f08c379a00000000000000000000000000000000000000000000000000000000081526004018080602001828103825260208152602001807f4f776e61626c653a2063616c6c6572206973206e6f7420746865206f776e657281525060200191505060405180910390fd5b61656a615654565b600754146165855761657e600a604a6150fa565b9050616606565b670de0b6b3a76400008211156165a8576165a16002604b6150fa565b9050616606565b60006006549050826006819055507faaa68312e2ea9d50e16af5068410ab56e1a1fd06037b1a35664812c30f8214608184604051808381526020018281526020019250505060405180910390a16000601081111561660257fe5b9150505b919050565b6000806000600360019054906101000a900473ffffffffffffffffffffffffffffffffffffffff1673ffffffffffffffffffffffffffffffffffffffff166324008a62308888886040518563ffffffff1660e01b8152600401808573ffffffffffffffffffffffffffffffffffffffff1681526020018473ffffffffffffffffffffffffffffffffffffffff1681526020018373ffffffffffffffffffffffffffffffffffffffff168152602001828152602001945050505050602060405180830381600087803b1580156166df57600080fd5b505af11580156166f3573d6000803e3d6000fd5b505050506040513d602081101561670957600080fd5b810190808051906020019092919050505090506000811461673d576167316003603a83615ae6565b60009250925050616cb2565b616745615654565b6007541461676557616759600a603b6150fa565b60009250925050616cb2565b61676d619476565b600e60008773ffffffffffffffffffffffffffffffffffffffff1673ffffffffffffffffffffffffffffffffffffffff168152602001908152602001600020600101548160600181815250506167c286618e19565b826020018361010001828152508260038111156167db57fe5b60038111156167e657fe5b8152505050600060038111156167f857fe5b8160200151600381111561680857fe5b1461683657616829600960388360200151600381111561682457fe5b615ae6565b6000935093505050616cb2565b61683f86615835565b82602001836080018281525082600381111561685757fe5b600381111561686257fe5b81525050506000600381111561687457fe5b8160200151600381111561688457fe5b146168b2576168a560096039836020015160038111156168a057fe5b615ae6565b6000935093505050616cb2565b7fffffffffffffffffffffffffffffffffffffffffffffffffffffffffffffffff8514156168ed5780608001518160400181815250506168f8565b848160400181815250505b616906878260400151618f84565b8160e001818152505061692181608001518260e00151615a46565b826020018360a0018281525082600381111561693957fe5b600381111561694457fe5b81525050506000600381111561695657fe5b8160200151600381111561696657fe5b146169bc576040517f08c379a000000000000000000000000000000000000000000000000000000000815260040180806020018281038252603a815260200180619737603a913960400191505060405180910390fd5b6169cc6009548260e00151615a46565b826020018360c001828152508260038111156169e457fe5b60038111156169ef57fe5b815250505060006003811115616a0157fe5b81602001516003811115616a1157fe5b14616a67576040517f08c379a000000000000000000000000000000000000000000000000000000000815260040180806020018281038252603181526020018061979f6031913960400191505060405180910390fd5b8060a00151600e60008873ffffffffffffffffffffffffffffffffffffffff1673ffffffffffffffffffffffffffffffffffffffff16815260200190815260200160002060000181905550600854600e60008873ffffffffffffffffffffffffffffffffffffffff1673ffffffffffffffffffffffffffffffffffffffff168152602001908152602001600020600101819055508060c001516009819055507f6fadbf7329d21f278e724fa0d4511001a158f2a97ee35c5bc4cf8b64417399ef87878360e001518460a001518560c00151866101000151604051808773ffffffffffffffffffffffffffffffffffffffff1681526020018673ffffffffffffffffffffffffffffffffffffffff168152602001858152602001848152602001838152602001828152602001965050505050505060405180910390a1600360019054906101000a900473ffffffffffffffffffffffffffffffffffffffff1673ffffffffffffffffffffffffffffffffffffffff16631ededc913089898560e0015186606001516040518663ffffffff1660e01b8152600401808673ffffffffffffffffffffffffffffffffffffffff1681526020018573ffffffffffffffffffffffffffffffffffffffff1681526020018473ffffffffffffffffffffffffffffffffffffffff16815260200183815260200182815260200195505050505050600060405180830381600087803b158015616c8157600080fd5b505af1158015616c95573d6000803e3d6000fd5b5050505060006010811115616ca657fe5b8160e001519350935050505b935093915050565b600080600080616cca8787615b5a565b9150915060006003811115616cdb57fe5b826003811115616ce757fe5b14616cfa57816000935093505050616d0b565b616d048186615a46565b9350935050505b935093915050565b6000616d1d6193e3565b600080616d3286670de0b6b3a7640000617f6b565b9150915060006003811115616d4357fe5b826003811115616d4f57fe5b14616d70578160405180602001604052806000815250935093505050616dd7565b600080616d7d8388617fb8565b9150915060006003811115616d8e57fe5b826003811115616d9a57fe5b14616dbd5781604051806020016040528060008152509550955050505050616dd7565b600060405180602001604052808381525095509550505050505b9250929050565b601160019054906101000a900460ff1680616dfd5750616dfc614700565b5b80616e155750601160009054906101000a900460ff16155b616e6a576040517f08c379a000000000000000000000000000000000000000000000000000000000815260040180806020018281038252602e815260200180619771602e913960400191505060405180910390fd5b6000601160019054906101000a900460ff161590508015616ebc576001601160016101000a81548160ff0219169083151502179055506001601160006101000a81548160ff0219169083151502179055505b8015616ede576000601160016101000a81548160ff0219169083151502179055505b50565b601160019054906101000a900460ff1680616f005750616eff614700565b5b80616f185750601160009054906101000a900460ff16155b616f6d576040517f08c379a000000000000000000000000000000000000000000000000000000000815260040180806020018281038252602e815260200180619771602e913960400191505060405180910390fd5b6000601160019054906101000a900460ff161590508015616fbf576001601160016101000a81548160ff0219169083151502179055506001601160006101000a81548160ff0219169083151502179055505b6000616fc9614f86565b905080607660006101000a81548173ffffffffffffffffffffffffffffffffffffffff021916908373ffffffffffffffffffffffffffffffffffffffff1602179055508073ffffffffffffffffffffffffffffffffffffffff16600073ffffffffffffffffffffffffffffffffffffffff167f8be0079c531659141344cd1fd0a4f28419497f9722a3daafe3b4186f6b6457e060405160405180910390a350801561708a576000601160016101000a81548160ff0219169083151502179055505b50565b6000670de0b6b3a76400008260000151816170a457fe5b049050919050565b6000806000806170ba615654565b600754146170da576170ce600a60516150fa565b819350935050506171de565b6170e43386618f84565b905080600a54019150600a54821015617165576040517f08c379a00000000000000000000000000000000000000000000000000000000081526004018080602001828103825260208152602001807f61646420726573657276657320756e6578706563746564206f766572666c6f7781525060200191505060405180910390fd5b81600a819055507fa91e67c5ea634cd43a12c5a482724b03de01e85ca68702a53d0c2f45cb7c1dc5338284604051808473ffffffffffffffffffffffffffffffffffffffff168152602001838152602001828152602001935050505060405180910390a1600060108111156171d657fe5b819350935050505b915091565b6000806000831415617302576000600360019054906101000a900473ffffffffffffffffffffffffffffffffffffffff1673ffffffffffffffffffffffffffffffffffffffff16634ef4c3e13088886040518463ffffffff1660e01b8152600401808473ffffffffffffffffffffffffffffffffffffffff1681526020018373ffffffffffffffffffffffffffffffffffffffff1681526020018281526020019350505050602060405180830381600087803b1580156172a257600080fd5b505af11580156172b6573d6000803e3d6000fd5b505050506040513d60208110156172cc57600080fd5b8101908080519060200190929190505050905060008114617300576172f46003602083615ae6565b60009250925050617876565b505b61730a615654565b600754146173295761731e600a60236150fa565b600091509150617876565b6173316194d8565b60008414156173b55761734261462a565b82602001836040018281525082600381111561735a57fe5b600381111561736557fe5b81525050506000600381111561737757fe5b8160200151600381111561738757fe5b146173b4576173a860096022836020015160038111156173a357fe5b615ae6565b60009250925050617876565b5b6173bf8686618f84565b8160c001818152505060008414156174ae576173f18160c001516040518060200160405280846040015181525061930a565b82602001836060018281525082600381111561740957fe5b600381111561741457fe5b81525050506000600381111561742657fe5b8160200151600381111561743657fe5b146174a9576040517f08c379a00000000000000000000000000000000000000000000000000000000081526004018080602001828103825260208152602001807f4d494e545f45584348414e47455f43414c43554c4154494f4e5f4641494c454481525060200191505060405180910390fd5b6174b9565b838160600181815250505b6174c9600b548260600151615b5a565b8260200183608001828152508260038111156174e157fe5b60038111156174ec57fe5b8152505050600060038111156174fe57fe5b8160200151600381111561750e57fe5b14617564576040517f08c379a00000000000000000000000000000000000000000000000000000000081526004018080602001828103825260288152602001806198386028913960400191505060405180910390fd5b6175b1600c60008873ffffffffffffffffffffffffffffffffffffffff1673ffffffffffffffffffffffffffffffffffffffff168152602001908152602001600020548260600151615b5a565b826020018360a001828152508260038111156175c957fe5b60038111156175d457fe5b8152505050600060038111156175e657fe5b816020015160038111156175f657fe5b1461764c576040517f08c379a000000000000000000000000000000000000000000000000000000000815260040180806020018281038252602b8152602001806196d5602b913960400191505060405180910390fd5b8060800151600b819055508060a00151600c60008873ffffffffffffffffffffffffffffffffffffffff1673ffffffffffffffffffffffffffffffffffffffff168152602001908152602001600020819055507f94c792774c59479f7bd68442f3af3691c02123a5aabee8b6f9116d8af8aa6669868260c00151836060015184608001518560a00151604051808673ffffffffffffffffffffffffffffffffffffffff1681526020018581526020018481526020018381526020018281526020019550505050505060405180910390a18573ffffffffffffffffffffffffffffffffffffffff163073ffffffffffffffffffffffffffffffffffffffff167fddf252ad1be2c89b69c2b068fc378daa952ba7f163c4a11628f55a4df523b3ef83606001516040518082815260200191505060405180910390a3600360019054906101000a900473ffffffffffffffffffffffffffffffffffffffff1673ffffffffffffffffffffffffffffffffffffffff166341c728b930888460c0015185606001516040518563ffffffff1660e01b8152600401808573ffffffffffffffffffffffffffffffffffffffff1681526020018473ffffffffffffffffffffffffffffffffffffffff168152602001838152602001828152602001945050505050600060405180830381600087803b15801561784657600080fd5b505af115801561785a573d6000803e3d6000fd5b505050506000601081111561786b57fe5b8160c0015192509250505b935093915050565b60008083148061788e5750600082145b6178e3576040517f08c379a00000000000000000000000000000000000000000000000000000000081526004018080602001828103825260348152602001806198606034913960400191505060405180910390fd5b6178eb61952b565b6178f361462a565b82602001836040018281525082600381111561790b57fe5b600381111561791657fe5b81525050506000600381111561792857fe5b8160200151600381111561793857fe5b14617961576179596009602c8360200151600381111561795457fe5b615ae6565b915050617f64565b6000841115617a0357838160600181815250506179906040518060200160405280836040015181525085614f8e565b8260200183608001828152508260038111156179a857fe5b60038111156179b357fe5b8152505050600060038111156179c557fe5b816020015160038111156179d557fe5b146179fe576179f66009602a836020015160038111156179f157fe5b615ae6565b915050617f64565b617a98565b617a1f836040518060200160405280846040015181525061930a565b826020018360600182815250826003811115617a3757fe5b6003811115617a4257fe5b815250505060006003811115617a5457fe5b81602001516003811115617a6457fe5b14617a8d57617a856009602b83602001516003811115617a8057fe5b615ae6565b915050617f64565b828160800181815250505b6000600360019054906101000a900473ffffffffffffffffffffffffffffffffffffffff1673ffffffffffffffffffffffffffffffffffffffff1663eabe7d91308885606001516040518463ffffffff1660e01b8152600401808473ffffffffffffffffffffffffffffffffffffffff1681526020018373ffffffffffffffffffffffffffffffffffffffff1681526020018281526020019350505050602060405180830381600087803b158015617b4f57600080fd5b505af1158015617b63573d6000803e3d6000fd5b505050506040513d6020811015617b7957600080fd5b8101908080519060200190929190505050905060008114617baa57617ba16003602983615ae6565b92505050617f64565b617bb2615654565b60075414617bcf57617bc6600a602d6150fa565b92505050617f64565b617bdf600b548360600151615a46565b836020018460a00182815250826003811115617bf757fe5b6003811115617c0257fe5b815250505060006003811115617c1457fe5b82602001516003811115617c2457fe5b14617c4e57617c456009602f84602001516003811115617c4057fe5b615ae6565b92505050617f64565b617c9b600c60008873ffffffffffffffffffffffffffffffffffffffff1673ffffffffffffffffffffffffffffffffffffffff168152602001908152602001600020548360600151615a46565b836020018460c00182815250826003811115617cb357fe5b6003811115617cbe57fe5b815250505060006003811115617cd057fe5b82602001516003811115617ce057fe5b14617d0a57617d016009602e84602001516003811115617cfc57fe5b615ae6565b92505050617f64565b8160800151617d176142f4565b1015617d3257617d29600e60306150fa565b92505050617f64565b617d408683608001516143c4565b8160a00151600b819055508160c00151600c60008873ffffffffffffffffffffffffffffffffffffffff1673ffffffffffffffffffffffffffffffffffffffff168152602001908152602001600020819055503073ffffffffffffffffffffffffffffffffffffffff168673ffffffffffffffffffffffffffffffffffffffff167fddf252ad1be2c89b69c2b068fc378daa952ba7f163c4a11628f55a4df523b3ef84606001516040518082815260200191505060405180910390a37fe02f6383e19e87c24e0c03e2cd5dbd05156cb29a1b0f3dbca1fa3430e444f63d86836080015184606001518560a001518660c00151604051808673ffffffffffffffffffffffffffffffffffffffff1681526020018581526020018481526020018381526020018281526020019550505050505060405180910390a1600360019054906101000a900473ffffffffffffffffffffffffffffffffffffffff1673ffffffffffffffffffffffffffffffffffffffff166351dff9893088856080015186606001516040518563ffffffff1660e01b8152600401808573ffffffffffffffffffffffffffffffffffffffff1681526020018473ffffffffffffffffffffffffffffffffffffffff168152602001838152602001828152602001945050505050600060405180830381600087803b158015617f3a57600080fd5b505af1158015617f4e573d6000803e3d6000fd5b5050505060006010811115617f5f57fe5b925050505b9392505050565b6000806000841415617f835760008091509150617fb1565b6000838502905083858281617f9457fe5b0414617fa857600260009250925050617fb1565b60008192509250505b9250929050565b6000806000831415617fd1576001600091509150617fe2565b6000838581617fdc57fe5b04915091505b9250929050565b600080600360019054906101000a900473ffffffffffffffffffffffffffffffffffffffff1673ffffffffffffffffffffffffffffffffffffffff1663da3d454c3086866040518463ffffffff1660e01b8152600401808473ffffffffffffffffffffffffffffffffffffffff1681526020018373ffffffffffffffffffffffffffffffffffffffff1681526020018281526020019350505050602060405180830381600087803b15801561809d57600080fd5b505af11580156180b1573d6000803e3d6000fd5b505050506040513d60208110156180c757600080fd5b81019080805190602001909291905050509050600081146180f7576180ef6003600f83615ae6565b91505061852b565b6180ff615654565b6007541461811b57618113600a600b6150fa565b91505061852b565b826181246142f4565b101561813e57618136600e600a6150fa565b91505061852b565b61814661957e565b61814f85618e19565b82600001836080018281525082600381111561816757fe5b600381111561817257fe5b81525050506000600381111561818457fe5b8160000151600381111561819457fe5b146181be576181b560096007836000015160038111156181b057fe5b615ae6565b9250505061852b565b6181c785615835565b8260000183602001828152508260038111156181df57fe5b60038111156181ea57fe5b8152505050600060038111156181fc57fe5b8160000151600381111561820c57fe5b146182365761822d600960088360000151600381111561822857fe5b615ae6565b9250505061852b565b618244816020015185615b5a565b82600001836040018281525082600381111561825c57fe5b600381111561826757fe5b81525050506000600381111561827957fe5b8160000151600381111561828957fe5b146182b3576182aa6009600d836000015160038111156182a557fe5b615ae6565b9250505061852b565b6182bf60095485615b5a565b8260000183606001828152508260038111156182d757fe5b60038111156182e257fe5b8152505050600060038111156182f457fe5b8160000151600381111561830457fe5b1461832e576183256009600c8360000151600381111561832057fe5b615ae6565b9250505061852b565b61833885856143c4565b8060400151600e60008773ffffffffffffffffffffffffffffffffffffffff1673ffffffffffffffffffffffffffffffffffffffff16815260200190815260200160002060000181905550600854600e60008773ffffffffffffffffffffffffffffffffffffffff1673ffffffffffffffffffffffffffffffffffffffff1681526020019081526020016000206001018190555080606001516009819055507f2dd79f4fccfd18c360ce7f9132f3621bf05eee18f995224badb32d17f172df738585836040015184606001518560800151604051808673ffffffffffffffffffffffffffffffffffffffff1681526020018581526020018481526020018381526020018281526020019550505050505060405180910390a1600360019054906101000a900473ffffffffffffffffffffffffffffffffffffffff1673ffffffffffffffffffffffffffffffffffffffff16635c7786053087876040518463ffffffff1660e01b8152600401808473ffffffffffffffffffffffffffffffffffffffff1681526020018373ffffffffffffffffffffffffffffffffffffffff1681526020018281526020019350505050600060405180830381600087803b15801561850157600080fd5b505af1158015618515573d6000803e3d6000fd5b505050506000601081111561852657fe5b925050505b92915050565b6000806000600360019054906101000a900473ffffffffffffffffffffffffffffffffffffffff1673ffffffffffffffffffffffffffffffffffffffff16635fc7e71e30868a8a8a6040518663ffffffff1660e01b8152600401808673ffffffffffffffffffffffffffffffffffffffff1681526020018573ffffffffffffffffffffffffffffffffffffffff1681526020018473ffffffffffffffffffffffffffffffffffffffff1681526020018373ffffffffffffffffffffffffffffffffffffffff16815260200182815260200195505050505050602060405180830381600087803b15801561862357600080fd5b505af1158015618637573d6000803e3d6000fd5b505050506040513d602081101561864d57600080fd5b8101908080519060200190929190505050905060008114618681576186756003601383615ae6565b60009250925050618e10565b618689615654565b600754146186a95761869d600a60176150fa565b60009250925050618e10565b6186b1615654565b8473ffffffffffffffffffffffffffffffffffffffff16636c540baf6040518163ffffffff1660e01b815260040160206040518083038186803b1580156186f757600080fd5b505afa15801561870b573d6000803e3d6000fd5b505050506040513d602081101561872157600080fd5b81019080805190602001909291905050501461874f57618743600a60126150fa565b60009250925050618e10565b8673ffffffffffffffffffffffffffffffffffffffff168673ffffffffffffffffffffffffffffffffffffffff16141561879b5761878f600660186150fa565b60009250925050618e10565b60008514156187bc576187b0600760166150fa565b60009250925050618e10565b7fffffffffffffffffffffffffffffffffffffffffffffffffffffffffffffffff8514156187fc576187f0600760156150fa565b60009250925050618e10565b60008061880a89898961660b565b915091506000601081111561881b57fe5b82146188455761883782601081111561883057fe5b60196150fa565b600094509450505050618e10565b600080600360019054906101000a900473ffffffffffffffffffffffffffffffffffffffff1673ffffffffffffffffffffffffffffffffffffffff1663c488847b308a866040518463ffffffff1660e01b8152600401808473ffffffffffffffffffffffffffffffffffffffff1681526020018373ffffffffffffffffffffffffffffffffffffffff1681526020018281526020019350505050604080518083038186803b1580156188f657600080fd5b505afa15801561890a573d6000803e3d6000fd5b505050506040513d604081101561892057600080fd5b810190808051906020019092919080519060200190929190505050915091506000601081111561894c57fe5b82146189a3576040517f08c379a00000000000000000000000000000000000000000000000000000000081526004018080602001828103825260338152602001806197d06033913960400191505060405180910390fd5b808873ffffffffffffffffffffffffffffffffffffffff166370a082318c6040518263ffffffff1660e01b8152600401808273ffffffffffffffffffffffffffffffffffffffff16815260200191505060206040518083038186803b158015618a0b57600080fd5b505afa158015618a1f573d6000803e3d6000fd5b505050506040513d6020811015618a3557600080fd5b81019080805190602001909291905050501015618aba576040517f08c379a00000000000000000000000000000000000000000000000000000000081526004018080602001828103825260188152602001807f4c49515549444154455f5345495a455f544f4f5f4d554348000000000000000081525060200191505060405180910390fd5b60003073ffffffffffffffffffffffffffffffffffffffff168973ffffffffffffffffffffffffffffffffffffffff161415618b0357618afc308d8d85615bf1565b9050618bd0565b8873ffffffffffffffffffffffffffffffffffffffff1663b2a02ff18d8d856040518463ffffffff1660e01b8152600401808473ffffffffffffffffffffffffffffffffffffffff1681526020018373ffffffffffffffffffffffffffffffffffffffff1681526020018281526020019350505050602060405180830381600087803b158015618b9257600080fd5b505af1158015618ba6573d6000803e3d6000fd5b505050506040513d6020811015618bbc57600080fd5b810190808051906020019092919050505090505b60006010811115618bdd57fe5b8114618c51576040517f08c379a00000000000000000000000000000000000000000000000000000000081526004018080602001828103825260148152602001807f746f6b656e207365697a757265206661696c656400000000000000000000000081525060200191505060405180910390fd5b7f298637f684da70674f26509b10f07ec2fbc77a335ab1e7d6215a4b2484d8bb528c8c868c86604051808673ffffffffffffffffffffffffffffffffffffffff1681526020018573ffffffffffffffffffffffffffffffffffffffff1681526020018481526020018373ffffffffffffffffffffffffffffffffffffffff1681526020018281526020019550505050505060405180910390a1600360019054906101000a900473ffffffffffffffffffffffffffffffffffffffff1673ffffffffffffffffffffffffffffffffffffffff166347ef3b3b308b8f8f89886040518763ffffffff1660e01b8152600401808773ffffffffffffffffffffffffffffffffffffffff1681526020018673ffffffffffffffffffffffffffffffffffffffff1681526020018573ffffffffffffffffffffffffffffffffffffffff1681526020018473ffffffffffffffffffffffffffffffffffffffff1681526020018381526020018281526020019650505050505050600060405180830381600087803b158015618ddf57600080fd5b505af1158015618df3573d6000803e3d6000fd5b5050505060006010811115618e0457fe5b84975097505050505050505b94509492505050565b6000806000806000806000600e60008973ffffffffffffffffffffffffffffffffffffffff1673ffffffffffffffffffffffffffffffffffffffff1681526020019081526020016000209050600081600001541415618e8357600080965096505050505050618f7f565b618e938160000154600854617f6b565b809550819650505060006003811115618ea857fe5b856003811115618eb457fe5b14618eca57846000965096505050505050618f7f565b600081600101541415618ee857600080965096505050505050618f7f565b618ef6848260010154617fb8565b809450819650505060006003811115618f0b57fe5b856003811115618f1757fe5b14618f2d57846000965096505050505050618f7f565b618f3b838260000154615a46565b809350819650505060006003811115618f5057fe5b856003811115618f5c57fe5b14618f7257846000965096505050505050618f7f565b6000829650965050505050505b915091565b60008060a860009054906101000a900473ffffffffffffffffffffffffffffffffffffffff169050600060a860009054906101000a900473ffffffffffffffffffffffffffffffffffffffff1673ffffffffffffffffffffffffffffffffffffffff166370a08231306040518263ffffffff1660e01b8152600401808273ffffffffffffffffffffffffffffffffffffffff16815260200191505060206040518083038186803b15801561903757600080fd5b505afa15801561904b573d6000803e3d6000fd5b505050506040513d602081101561906157600080fd5b810190808051906020019092919050505090508173ffffffffffffffffffffffffffffffffffffffff166323b872dd8630876040518463ffffffff1660e01b8152600401808473ffffffffffffffffffffffffffffffffffffffff1681526020018373ffffffffffffffffffffffffffffffffffffffff1681526020018281526020019350505050600060405180830381600087803b15801561910357600080fd5b505af1158015619117573d6000803e3d6000fd5b5050505060003d60008114619133576020811461913d57600080fd5b6000199150619149565b60206000803e60005191505b50806191bd576040517f08c379a00000000000000000000000000000000000000000000000000000000081526004018080602001828103825260188152602001807f544f4b454e5f5452414e534645525f494e5f4641494c4544000000000000000081525060200191505060405180910390fd5b600060a860009054906101000a900473ffffffffffffffffffffffffffffffffffffffff1673ffffffffffffffffffffffffffffffffffffffff166370a08231306040518263ffffffff1660e01b8152600401808273ffffffffffffffffffffffffffffffffffffffff16815260200191505060206040518083038186803b15801561924857600080fd5b505afa15801561925c573d6000803e3d6000fd5b505050506040513d602081101561927257600080fd5b81019080805190602001909291905050509050828110156192fb576040517f08c379a000000000000000000000000000000000000000000000000000000000815260040180806020018281038252601a8152602001807f544f4b454e5f5452414e534645525f494e5f4f564552464c4f5700000000000081525060200191505060405180910390fd5b82810394505050505092915050565b60008060006193176193e3565b619321868661936a565b915091506000600381111561933257fe5b82600381111561933e57fe5b1461935157816000935093505050619363565b600061935c8261708d565b9350935050505b9250929050565b60006193746193e3565b600080619389670de0b6b3a764000087617f6b565b915091506000600381111561939a57fe5b8260038111156193a657fe5b146193c75781604051806020016040528060008152509350935050506193dc565b6193d5818660000151616d13565b9350935050505b9250929050565b6040518060200160405280600081525090565b828054600181600116156101000203166002900490600052602060002090601f016020900481019282601f1061943757805160ff1916838001178555619465565b82800160010185558215619465579182015b82811115619464578251825591602001919060010190619449565b5b50905061947291906195b8565b5090565b6040518061012001604052806000601081111561948f57fe5b8152602001600060038111156194a157fe5b8152602001600081526020016000815260200160008152602001600081526020016000815260200160008152602001600081525090565b6040518060e00160405280600060108111156194f057fe5b81526020016000600381111561950257fe5b815260200160008152602001600081526020016000815260200160008152602001600081525090565b6040518060e001604052806000601081111561954357fe5b81526020016000600381111561955557fe5b815260200160008152602001600081526020016000815260200160008152602001600081525090565b6040518060a001604052806000600381111561959657fe5b8152602001600081526020016000815260200160008152602001600081525090565b5b808211156195d15760008160009055506001016195b9565b509056fe6d61726b6574206d6179206f6e6c7920626520696e697469616c697a6564206f6e63654f776e61626c653a206e6577206f776e657220697320746865207a65726f20616464726573736d696e74496e7465726e616c466f724d6967726174653a2063616c6c6572206973206e6f7420746865206d69677261746f72696e697469616c2065786368616e67652072617465206d7573742062652067726561746572207468616e207a65726f2e73657474696e6720696e7465726573742072617465206d6f64656c206661696c65645468652061637475616c2062616c616e6365206f66207468652070726f746f636f6c20697320696e636f6e73697374656e744d494e545f4e45575f4143434f554e545f42414c414e43455f43414c43554c4154494f4e5f4641494c4544626f72726f7742616c616e636553746f7265643a20626f72726f7742616c616e636553746f726564496e7465726e616c206661696c656452455041595f424f52524f575f4e45575f4143434f554e545f424f52524f575f42414c414e43455f43414c43554c4154494f4e5f4641494c4544436f6e747261637420696e7374616e63652068617320616c7265616479206265656e20696e697469616c697a656452455041595f424f52524f575f4e45575f544f54414c5f42414c414e43455f43414c43554c4154494f4e5f4641494c45444c49515549444154455f434f4d5054524f4c4c45525f43414c43554c4154455f414d4f554e545f5345495a455f4641494c454465786368616e67655261746553746f7265643a2065786368616e67655261746553746f726564496e7465726e616c206661696c65644d494e545f4e45575f544f54414c5f535550504c595f43414c43554c4154494f4e5f4641494c45446f6e65206f662072656465656d546f6b656e73496e206f722072656465656d416d6f756e74496e206d757374206265207a65726f72656475636520726573657276657320756e657870656374656420756e646572666c6f77a2646970667358221220ccc32f85a54b427431d89b8dc569dcfd26f95ef6d983b9c17594eb5c858a51e564736f6c634300060c0033",
  "compiler": {
    "name": "solc",
    "version": "0.6.12+commit.27d51765.Emscripten.clang",
    "optimizer": {
      "enabled": false,
      "runs": 200
    },
    "evmVersion": "istanbul"
  }
}