{
  "fileName": "PEther.sol",
  "contractName": "PEther",
  "source": "// SPDX-License-Identifier: MIT\npragma solidity 0.6.12;\n\nimport \"./PToken.sol\";\nimport \"../flashloan/IFlashloan.sol\";\n\ncontract PEther is PToken {\n\n    IFlashloan public flashloanInstance;\n\n    function initialize(IComptroller comptroller_,\n        IInterestRateModel interestRateModel_,\n        uint initialExchangeRateMantissa_,\n        string memory name_,\n        string memory symbol_,\n        uint8 decimals_) public initializer {\n        super.__Ownable_init();\n        super.init(comptroller_, interestRateModel_, initialExchangeRateMantissa_, name_, symbol_, decimals_);\n    }\n\n    function mint() external payable {\n        (uint err,) = mintInternal(msg.value);\n        requireNoError(err, \"mint failed\");\n    }\n\n    function mintForMigrate(uint mintTokens) external payable {\n        (uint err,) = mintInternalForMigrate(msg.value, mintTokens);\n        requireNoError(err, \"mint failed\");\n    }\n\n    function redeem(uint redeemTokens) external returns (uint) {\n        return redeemInternal(redeemTokens);\n    }\n\n    function redeemUnderlying(uint redeemAmount) external returns (uint) {\n        return redeemUnderlyingInternal(redeemAmount);\n    }\n\n    function borrow(uint borrowAmount) external returns (uint) {\n        return borrowInternal(borrowAmount);\n    }\n\n    function repayBorrow() external payable {\n        (uint err,) = repayBorrowInternal(msg.value);\n        requireNoError(err, \"repayBorrow failed\");\n    }\n\n    function repayBorrowBehalf(address borrower) external payable {\n        (uint err,) = repayBorrowBehalfInternal(borrower, msg.value);\n        requireNoError(err, \"repayBorrowBehalf failed\");\n    }\n\n    function liquidateBorrow(address borrower, PToken pTokenCollateral) external payable {\n        (uint err,) = liquidateBorrowInternal(borrower, msg.value, pTokenCollateral);\n        requireNoError(err, \"liquidateBorrow failed\");\n    }\n\n    receive() external payable {\n    }\n\n    function getCashPrior() internal override view returns (uint) {\n        (MathError err, uint startingBalance) = subUInt(address(this).balance, msg.value);\n        require(err == MathError.NO_ERROR);\n        return startingBalance;\n    }\n\n    function doTransferIn(address from, uint amount) internal override returns (uint) {\n        require(msg.sender == from, \"sender mismatch\");\n        require(msg.value == amount, \"value mismatch\");\n        return amount;\n    }\n\n    function doTransferOut(address payable to, uint amount) internal override {\n        to.transfer(amount);\n    }\n\n    function requireNoError(uint errCode, string memory message) internal pure {\n        if (errCode == uint(Error.NO_ERROR)) {\n            return;\n        }\n        bytes memory fullMessage = new bytes(bytes(message).length + 5);\n        uint i;\n        for (i = 0; i < bytes(message).length; i++) {\n            fullMessage[i] = bytes(message)[i];\n        }\n        fullMessage[i + 0] = byte(uint8(32));\n        fullMessage[i + 1] = byte(uint8(40));\n        fullMessage[i + 2] = byte(uint8(48 + (errCode / 10)));\n        fullMessage[i + 3] = byte(uint8(48 + (errCode % 10)));\n        fullMessage[i + 4] = byte(uint8(41));\n        require(errCode == uint(Error.NO_ERROR), string(fullMessage));\n    }\n\n    function flashloan(address _receiver, uint256 _amount, bytes memory _params) nonReentrant external {\n        uint256 cashBefore = getCashPrior();\n        doTransferOut(address(uint160(address(flashloanInstance))), _amount);\n        flashloanInstance.flashloan(address(this), _receiver, address(0xEeeeeEeeeEeEeeEeEeEeeEEEeeeeEeeeeeeeEEeE), _amount, _params);\n        require(getCashPrior() >= cashBefore, \"The actual balance is inconsistent\");\n        accrueInterest();\n    }\n\n    function _setFlashloan(address _flashloan) public onlyOwner {\n        flashloanInstance = IFlashloan(_flashloan);\n    }\n\n}\n",
  "sourcePath": "contracts/token/PEther.sol",
  "abi": [
    {
      "anonymous": false,
      "inputs": [
        {
          "indexed": false,
          "internalType": "uint256",
          "name": "cashPrior",
          "type": "uint256"
        },
        {
          "indexed": false,
          "internalType": "uint256",
          "name": "interestAccumulated",
          "type": "uint256"
        },
        {
          "indexed": false,
          "internalType": "uint256",
          "name": "borrowIndex",
          "type": "uint256"
        },
        {
          "indexed": false,
          "internalType": "uint256",
          "name": "totalBorrows",
          "type": "uint256"
        },
        {
          "indexed": false,
          "internalType": "uint256",
          "name": "totalReserves",
          "type": "uint256"
        }
      ],
      "name": "AccrueInterest",
      "type": "event"
    },
    {
      "anonymous": false,
      "inputs": [
        {
          "indexed": true,
          "internalType": "address",
          "name": "owner",
          "type": "address"
        },
        {
          "indexed": true,
          "internalType": "address",
          "name": "spender",
          "type": "address"
        },
        {
          "indexed": false,
          "internalType": "uint256",
          "name": "amount",
          "type": "uint256"
        }
      ],
      "name": "Approval",
      "type": "event"
    },
    {
      "anonymous": false,
      "inputs": [
        {
          "indexed": false,
          "internalType": "address",
          "name": "borrower",
          "type": "address"
        },
        {
          "indexed": false,
          "internalType": "uint256",
          "name": "borrowAmount",
          "type": "uint256"
        },
        {
          "indexed": false,
          "internalType": "uint256",
          "name": "accountBorrows",
          "type": "uint256"
        },
        {
          "indexed": false,
          "internalType": "uint256",
          "name": "totalBorrows",
          "type": "uint256"
        },
        {
          "indexed": false,
          "internalType": "uint256",
          "name": "interestBalancePrior",
          "type": "uint256"
        }
      ],
      "name": "Borrow",
      "type": "event"
    },
    {
      "anonymous": false,
      "inputs": [
        {
          "indexed": false,
          "internalType": "uint256",
          "name": "error",
          "type": "uint256"
        },
        {
          "indexed": false,
          "internalType": "uint256",
          "name": "info",
          "type": "uint256"
        },
        {
          "indexed": false,
          "internalType": "uint256",
          "name": "detail",
          "type": "uint256"
        }
      ],
      "name": "Failure",
      "type": "event"
    },
    {
      "anonymous": false,
      "inputs": [
        {
          "indexed": false,
          "internalType": "address",
          "name": "liquidator",
          "type": "address"
        },
        {
          "indexed": false,
          "internalType": "address",
          "name": "borrower",
          "type": "address"
        },
        {
          "indexed": false,
          "internalType": "uint256",
          "name": "repayAmount",
          "type": "uint256"
        },
        {
          "indexed": false,
          "internalType": "address",
          "name": "pTokenCollateral",
          "type": "address"
        },
        {
          "indexed": false,
          "internalType": "uint256",
          "name": "seizeTokens",
          "type": "uint256"
        }
      ],
      "name": "LiquidateBorrow",
      "type": "event"
    },
    {
      "anonymous": false,
      "inputs": [
        {
          "indexed": false,
          "internalType": "address",
          "name": "minter",
          "type": "address"
        },
        {
          "indexed": false,
          "internalType": "uint256",
          "name": "mintAmount",
          "type": "uint256"
        },
        {
          "indexed": false,
          "internalType": "uint256",
          "name": "mintTokens",
          "type": "uint256"
        },
        {
          "indexed": false,
          "internalType": "uint256",
          "name": "totalSupply",
          "type": "uint256"
        },
        {
          "indexed": false,
          "internalType": "uint256",
          "name": "accountTokens",
          "type": "uint256"
        }
      ],
      "name": "Mint",
      "type": "event"
    },
    {
      "anonymous": false,
      "inputs": [
        {
          "indexed": false,
          "internalType": "contract IComptroller",
          "name": "oldComptroller",
          "type": "address"
        },
        {
          "indexed": false,
          "internalType": "contract IComptroller",
          "name": "newComptroller",
          "type": "address"
        }
      ],
      "name": "NewComptroller",
      "type": "event"
    },
    {
      "anonymous": false,
      "inputs": [
        {
          "indexed": false,
          "internalType": "contract IInterestRateModel",
          "name": "oldInterestRateModel",
          "type": "address"
        },
        {
          "indexed": false,
          "internalType": "contract IInterestRateModel",
          "name": "newInterestRateModel",
          "type": "address"
        }
      ],
      "name": "NewMarketInterestRateModel",
      "type": "event"
    },
    {
      "anonymous": false,
      "inputs": [
        {
          "indexed": false,
          "internalType": "address",
          "name": "oldMigrator",
          "type": "address"
        },
        {
          "indexed": false,
          "internalType": "address",
          "name": "newMigrator",
          "type": "address"
        }
      ],
      "name": "NewMigrator",
      "type": "event"
    },
    {
      "anonymous": false,
      "inputs": [
        {
          "indexed": false,
          "internalType": "uint256",
          "name": "oldMinInterestAccumulated",
          "type": "uint256"
        },
        {
          "indexed": false,
          "internalType": "uint256",
          "name": "newMinInterestAccumulated",
          "type": "uint256"
        }
      ],
      "name": "NewMinInterestAccumulated",
      "type": "event"
    },
    {
      "anonymous": false,
      "inputs": [
        {
          "indexed": false,
          "internalType": "uint256",
          "name": "oldReserveFactorMantissa",
          "type": "uint256"
        },
        {
          "indexed": false,
          "internalType": "uint256",
          "name": "newReserveFactorMantissa",
          "type": "uint256"
        }
      ],
      "name": "NewReserveFactor",
      "type": "event"
    },
    {
      "anonymous": false,
      "inputs": [
        {
          "indexed": true,
          "internalType": "address",
          "name": "previousOwner",
          "type": "address"
        },
        {
          "indexed": true,
          "internalType": "address",
          "name": "newOwner",
          "type": "address"
        }
      ],
      "name": "OwnershipTransferred",
      "type": "event"
    },
    {
      "anonymous": false,
      "inputs": [
        {
          "indexed": false,
          "internalType": "address",
          "name": "redeemer",
          "type": "address"
        },
        {
          "indexed": false,
          "internalType": "uint256",
          "name": "redeemAmount",
          "type": "uint256"
        },
        {
          "indexed": false,
          "internalType": "uint256",
          "name": "redeemTokens",
          "type": "uint256"
        },
        {
          "indexed": false,
          "internalType": "uint256",
          "name": "totalSupply",
          "type": "uint256"
        },
        {
          "indexed": false,
          "internalType": "uint256",
          "name": "accountTokens",
          "type": "uint256"
        }
      ],
      "name": "Redeem",
      "type": "event"
    },
    {
      "anonymous": false,
      "inputs": [
        {
          "indexed": false,
          "internalType": "address",
          "name": "payer",
          "type": "address"
        },
        {
          "indexed": false,
          "internalType": "address",
          "name": "borrower",
          "type": "address"
        },
        {
          "indexed": false,
          "internalType": "uint256",
          "name": "repayAmount",
          "type": "uint256"
        },
        {
          "indexed": false,
          "internalType": "uint256",
          "name": "accountBorrows",
          "type": "uint256"
        },
        {
          "indexed": false,
          "internalType": "uint256",
          "name": "totalBorrows",
          "type": "uint256"
        },
        {
          "indexed": false,
          "internalType": "uint256",
          "name": "interestBalancePrior",
          "type": "uint256"
        }
      ],
      "name": "RepayBorrow",
      "type": "event"
    },
    {
      "anonymous": false,
      "inputs": [
        {
          "indexed": false,
          "internalType": "address",
          "name": "benefactor",
          "type": "address"
        },
        {
          "indexed": false,
          "internalType": "uint256",
          "name": "addAmount",
          "type": "uint256"
        },
        {
          "indexed": false,
          "internalType": "uint256",
          "name": "newTotalReserves",
          "type": "uint256"
        }
      ],
      "name": "ReservesAdded",
      "type": "event"
    },
    {
      "anonymous": false,
      "inputs": [
        {
          "indexed": false,
          "internalType": "address",
          "name": "admin",
          "type": "address"
        },
        {
          "indexed": false,
          "internalType": "uint256",
          "name": "reduceAmount",
          "type": "uint256"
        },
        {
          "indexed": false,
          "internalType": "uint256",
          "name": "newTotalReserves",
          "type": "uint256"
        }
      ],
      "name": "ReservesReduced",
      "type": "event"
    },
    {
      "anonymous": false,
      "inputs": [
        {
          "indexed": true,
          "internalType": "address",
          "name": "from",
          "type": "address"
        },
        {
          "indexed": true,
          "internalType": "address",
          "name": "to",
          "type": "address"
        },
        {
          "indexed": false,
          "internalType": "uint256",
          "name": "amount",
          "type": "uint256"
        }
      ],
      "name": "Transfer",
      "type": "event"
    },
    {
      "inputs": [
        {
          "internalType": "uint256",
          "name": "reduceAmount",
          "type": "uint256"
        }
      ],
      "name": "_reduceReserves",
      "outputs": [
        {
          "internalType": "uint256",
          "name": "",
          "type": "uint256"
        }
      ],
      "stateMutability": "nonpayable",
      "type": "function"
    },
    {
      "inputs": [
        {
          "internalType": "contract IComptroller",
          "name": "newComptroller",
          "type": "address"
        }
      ],
      "name": "_setComptroller",
      "outputs": [
        {
          "internalType": "uint256",
          "name": "",
          "type": "uint256"
        }
      ],
      "stateMutability": "nonpayable",
      "type": "function"
    },
    {
      "inputs": [
        {
          "internalType": "address",
          "name": "_flashloan",
          "type": "address"
        }
      ],
      "name": "_setFlashloan",
      "outputs": [],
      "stateMutability": "nonpayable",
      "type": "function"
    },
    {
      "inputs": [
        {
          "internalType": "contract IInterestRateModel",
          "name": "newInterestRateModel",
          "type": "address"
        }
      ],
      "name": "_setInterestRateModel",
      "outputs": [
        {
          "internalType": "uint256",
          "name": "",
          "type": "uint256"
        }
      ],
      "stateMutability": "nonpayable",
      "type": "function"
    },
    {
      "inputs": [
        {
          "internalType": "address",
          "name": "newMigrator",
          "type": "address"
        }
      ],
      "name": "_setMigrator",
      "outputs": [
        {
          "internalType": "uint256",
          "name": "",
          "type": "uint256"
        }
      ],
      "stateMutability": "nonpayable",
      "type": "function"
    },
    {
      "inputs": [
        {
          "internalType": "uint256",
          "name": "_minInterestAccumulated",
          "type": "uint256"
        }
      ],
      "name": "_setMinInterestAccumulated",
      "outputs": [
        {
          "internalType": "uint256",
          "name": "",
          "type": "uint256"
        }
      ],
      "stateMutability": "nonpayable",
      "type": "function"
    },
    {
      "inputs": [
        {
          "internalType": "uint256",
          "name": "newReserveFactorMantissa",
          "type": "uint256"
        }
      ],
      "name": "_setReserveFactor",
      "outputs": [
        {
          "internalType": "uint256",
          "name": "",
          "type": "uint256"
        }
      ],
      "stateMutability": "nonpayable",
      "type": "function"
    },
    {
      "inputs": [],
      "name": "accrualBlockNumber",
      "outputs": [
        {
          "internalType": "uint256",
          "name": "",
          "type": "uint256"
        }
      ],
      "stateMutability": "view",
      "type": "function"
    },
    {
      "inputs": [],
      "name": "accrueInterest",
      "outputs": [
        {
          "internalType": "uint256",
          "name": "",
          "type": "uint256"
        }
      ],
      "stateMutability": "nonpayable",
      "type": "function"
    },
    {
      "inputs": [],
      "name": "accrueInterestSnapshot",
      "outputs": [
        {
          "internalType": "uint256[]",
          "name": "",
          "type": "uint256[]"
        }
      ],
      "stateMutability": "view",
      "type": "function"
    },
    {
      "inputs": [
        {
          "internalType": "address",
          "name": "owner",
          "type": "address"
        },
        {
          "internalType": "address",
          "name": "spender",
          "type": "address"
        }
      ],
      "name": "allowance",
      "outputs": [
        {
          "internalType": "uint256",
          "name": "",
          "type": "uint256"
        }
      ],
      "stateMutability": "view",
      "type": "function"
    },
    {
      "inputs": [
        {
          "internalType": "address",
          "name": "spender",
          "type": "address"
        },
        {
          "internalType": "uint256",
          "name": "amount",
          "type": "uint256"
        }
      ],
      "name": "approve",
      "outputs": [
        {
          "internalType": "bool",
          "name": "",
          "type": "bool"
        }
      ],
      "stateMutability": "nonpayable",
      "type": "function"
    },
    {
      "inputs": [
        {
          "internalType": "address",
          "name": "owner",
          "type": "address"
        }
      ],
      "name": "balanceOf",
      "outputs": [
        {
          "internalType": "uint256",
          "name": "",
          "type": "uint256"
        }
      ],
      "stateMutability": "view",
      "type": "function"
    },
    {
      "inputs": [
        {
          "internalType": "address",
          "name": "owner",
          "type": "address"
        }
      ],
      "name": "balanceOfUnderlying",
      "outputs": [
        {
          "internalType": "uint256",
          "name": "",
          "type": "uint256"
        }
      ],
      "stateMutability": "nonpayable",
      "type": "function"
    },
    {
      "inputs": [
        {
          "internalType": "uint256",
          "name": "borrowAmount",
          "type": "uint256"
        }
      ],
      "name": "borrow",
      "outputs": [
        {
          "internalType": "uint256",
          "name": "",
          "type": "uint256"
        }
      ],
      "stateMutability": "nonpayable",
      "type": "function"
    },
    {
      "inputs": [
        {
          "internalType": "address",
          "name": "account",
          "type": "address"
        }
      ],
      "name": "borrowBalanceCurrent",
      "outputs": [
        {
          "internalType": "uint256",
          "name": "",
          "type": "uint256"
        }
      ],
      "stateMutability": "nonpayable",
      "type": "function"
    },
    {
      "inputs": [
        {
          "internalType": "address",
          "name": "account",
          "type": "address"
        }
      ],
      "name": "borrowBalanceStored",
      "outputs": [
        {
          "internalType": "uint256",
          "name": "",
          "type": "uint256"
        }
      ],
      "stateMutability": "view",
      "type": "function"
    },
    {
      "inputs": [],
      "name": "borrowIndex",
      "outputs": [
        {
          "internalType": "uint256",
          "name": "",
          "type": "uint256"
        }
      ],
      "stateMutability": "view",
      "type": "function"
    },
    {
      "inputs": [],
      "name": "borrowRatePerBlock",
      "outputs": [
        {
          "internalType": "uint256",
          "name": "",
          "type": "uint256"
        }
      ],
      "stateMutability": "view",
      "type": "function"
    },
    {
      "inputs": [],
      "name": "comptroller",
      "outputs": [
        {
          "internalType": "contract IComptroller",
          "name": "",
          "type": "address"
        }
      ],
      "stateMutability": "view",
      "type": "function"
    },
    {
      "inputs": [],
      "name": "decimals",
      "outputs": [
        {
          "internalType": "uint8",
          "name": "",
          "type": "uint8"
        }
      ],
      "stateMutability": "view",
      "type": "function"
    },
    {
      "inputs": [],
      "name": "exchangeRateCurrent",
      "outputs": [
        {
          "internalType": "uint256",
          "name": "",
          "type": "uint256"
        }
      ],
      "stateMutability": "nonpayable",
      "type": "function"
    },
    {
      "inputs": [],
      "name": "exchangeRateStored",
      "outputs": [
        {
          "internalType": "uint256",
          "name": "",
          "type": "uint256"
        }
      ],
      "stateMutability": "view",
      "type": "function"
    },
    {
      "inputs": [
        {
          "internalType": "address",
          "name": "_receiver",
          "type": "address"
        },
        {
          "internalType": "uint256",
          "name": "_amount",
          "type": "uint256"
        },
        {
          "internalType": "bytes",
          "name": "_params",
          "type": "bytes"
        }
      ],
      "name": "flashloan",
      "outputs": [],
      "stateMutability": "nonpayable",
      "type": "function"
    },
    {
      "inputs": [],
      "name": "flashloanInstance",
      "outputs": [
        {
          "internalType": "contract IFlashloan",
          "name": "",
          "type": "address"
        }
      ],
      "stateMutability": "view",
      "type": "function"
    },
    {
      "inputs": [
        {
          "internalType": "address",
          "name": "account",
          "type": "address"
        }
      ],
      "name": "getAccountSnapshot",
      "outputs": [
        {
          "internalType": "uint256",
          "name": "",
          "type": "uint256"
        },
        {
          "internalType": "uint256",
          "name": "",
          "type": "uint256"
        },
        {
          "internalType": "uint256",
          "name": "",
          "type": "uint256"
        },
        {
          "internalType": "uint256",
          "name": "",
          "type": "uint256"
        }
      ],
      "stateMutability": "view",
      "type": "function"
    },
    {
      "inputs": [],
      "name": "getCash",
      "outputs": [
        {
          "internalType": "uint256",
          "name": "",
          "type": "uint256"
        }
      ],
      "stateMutability": "view",
      "type": "function"
    },
    {
      "inputs": [
        {
          "internalType": "contract IComptroller",
          "name": "comptroller_",
          "type": "address"
        },
        {
          "internalType": "contract IInterestRateModel",
          "name": "interestRateModel_",
          "type": "address"
        },
        {
          "internalType": "uint256",
          "name": "initialExchangeRateMantissa_",
          "type": "uint256"
        },
        {
          "internalType": "string",
          "name": "name_",
          "type": "string"
        },
        {
          "internalType": "string",
          "name": "symbol_",
          "type": "string"
        },
        {
          "internalType": "uint8",
          "name": "decimals_",
          "type": "uint8"
        }
      ],
      "name": "init",
      "outputs": [],
      "stateMutability": "nonpayable",
      "type": "function"
    },
    {
      "inputs": [
        {
          "internalType": "contract IComptroller",
          "name": "comptroller_",
          "type": "address"
        },
        {
          "internalType": "contract IInterestRateModel",
          "name": "interestRateModel_",
          "type": "address"
        },
        {
          "internalType": "uint256",
          "name": "initialExchangeRateMantissa_",
          "type": "uint256"
        },
        {
          "internalType": "string",
          "name": "name_",
          "type": "string"
        },
        {
          "internalType": "string",
          "name": "symbol_",
          "type": "string"
        },
        {
          "internalType": "uint8",
          "name": "decimals_",
          "type": "uint8"
        }
      ],
      "name": "initialize",
      "outputs": [],
      "stateMutability": "nonpayable",
      "type": "function"
    },
    {
      "inputs": [],
      "name": "interestRateModel",
      "outputs": [
        {
          "internalType": "contract IInterestRateModel",
          "name": "",
          "type": "address"
        }
      ],
      "stateMutability": "view",
      "type": "function"
    },
    {
      "inputs": [],
      "name": "isPToken",
      "outputs": [
        {
          "internalType": "bool",
          "name": "",
          "type": "bool"
        }
      ],
      "stateMutability": "view",
      "type": "function"
    },
    {
      "inputs": [
        {
          "internalType": "address",
          "name": "borrower",
          "type": "address"
        },
        {
          "internalType": "contract PToken",
          "name": "pTokenCollateral",
          "type": "address"
        }
      ],
      "name": "liquidateBorrow",
      "outputs": [],
      "stateMutability": "payable",
      "type": "function"
    },
    {
      "inputs": [],
      "name": "migrator",
      "outputs": [
        {
          "internalType": "address",
          "name": "",
          "type": "address"
        }
      ],
      "stateMutability": "view",
      "type": "function"
    },
    {
      "inputs": [],
      "name": "minInterestAccumulated",
      "outputs": [
        {
          "internalType": "uint256",
          "name": "",
          "type": "uint256"
        }
      ],
      "stateMutability": "view",
      "type": "function"
    },
    {
      "inputs": [],
      "name": "mint",
      "outputs": [],
      "stateMutability": "payable",
      "type": "function"
    },
    {
      "inputs": [
        {
          "internalType": "uint256",
          "name": "mintTokens",
          "type": "uint256"
        }
      ],
      "name": "mintForMigrate",
      "outputs": [],
      "stateMutability": "payable",
      "type": "function"
    },
    {
      "inputs": [],
      "name": "name",
      "outputs": [
        {
          "internalType": "string",
          "name": "",
          "type": "string"
        }
      ],
      "stateMutability": "view",
      "type": "function"
    },
    {
      "inputs": [],
      "name": "owner",
      "outputs": [
        {
          "internalType": "address",
          "name": "",
          "type": "address"
        }
      ],
      "stateMutability": "view",
      "type": "function"
    },
    {
      "inputs": [
        {
          "internalType": "uint256",
          "name": "redeemTokens",
          "type": "uint256"
        }
      ],
      "name": "redeem",
      "outputs": [
        {
          "internalType": "uint256",
          "name": "",
          "type": "uint256"
        }
      ],
      "stateMutability": "nonpayable",
      "type": "function"
    },
    {
      "inputs": [
        {
          "internalType": "uint256",
          "name": "redeemAmount",
          "type": "uint256"
        }
      ],
      "name": "redeemUnderlying",
      "outputs": [
        {
          "internalType": "uint256",
          "name": "",
          "type": "uint256"
        }
      ],
      "stateMutability": "nonpayable",
      "type": "function"
    },
    {
      "inputs": [],
      "name": "renounceOwnership",
      "outputs": [],
      "stateMutability": "nonpayable",
      "type": "function"
    },
    {
      "inputs": [],
      "name": "repayBorrow",
      "outputs": [],
      "stateMutability": "payable",
      "type": "function"
    },
    {
      "inputs": [
        {
          "internalType": "address",
          "name": "borrower",
          "type": "address"
        }
      ],
      "name": "repayBorrowBehalf",
      "outputs": [],
      "stateMutability": "payable",
      "type": "function"
    },
    {
      "inputs": [],
      "name": "reserveFactorMantissa",
      "outputs": [
        {
          "internalType": "uint256",
          "name": "",
          "type": "uint256"
        }
      ],
      "stateMutability": "view",
      "type": "function"
    },
    {
      "inputs": [
        {
          "internalType": "address",
          "name": "liquidator",
          "type": "address"
        },
        {
          "internalType": "address",
          "name": "borrower",
          "type": "address"
        },
        {
          "internalType": "uint256",
          "name": "seizeTokens",
          "type": "uint256"
        }
      ],
      "name": "seize",
      "outputs": [
        {
          "internalType": "uint256",
          "name": "",
          "type": "uint256"
        }
      ],
      "stateMutability": "nonpayable",
      "type": "function"
    },
    {
      "inputs": [],
      "name": "supplyRatePerBlock",
      "outputs": [
        {
          "internalType": "uint256",
          "name": "",
          "type": "uint256"
        }
      ],
      "stateMutability": "view",
      "type": "function"
    },
    {
      "inputs": [],
      "name": "symbol",
      "outputs": [
        {
          "internalType": "string",
          "name": "",
          "type": "string"
        }
      ],
      "stateMutability": "view",
      "type": "function"
    },
    {
      "inputs": [],
      "name": "totalBorrows",
      "outputs": [
        {
          "internalType": "uint256",
          "name": "",
          "type": "uint256"
        }
      ],
      "stateMutability": "view",
      "type": "function"
    },
    {
      "inputs": [],
      "name": "totalBorrowsCurrent",
      "outputs": [
        {
          "internalType": "uint256",
          "name": "",
          "type": "uint256"
        }
      ],
      "stateMutability": "nonpayable",
      "type": "function"
    },
    {
      "inputs": [],
      "name": "totalReserves",
      "outputs": [
        {
          "internalType": "uint256",
          "name": "",
          "type": "uint256"
        }
      ],
      "stateMutability": "view",
      "type": "function"
    },
    {
      "inputs": [],
      "name": "totalSupply",
      "outputs": [
        {
          "internalType": "uint256",
          "name": "",
          "type": "uint256"
        }
      ],
      "stateMutability": "view",
      "type": "function"
    },
    {
      "inputs": [
        {
          "internalType": "address",
          "name": "dst",
          "type": "address"
        },
        {
          "internalType": "uint256",
          "name": "amount",
          "type": "uint256"
        }
      ],
      "name": "transfer",
      "outputs": [
        {
          "internalType": "bool",
          "name": "",
          "type": "bool"
        }
      ],
      "stateMutability": "nonpayable",
      "type": "function"
    },
    {
      "inputs": [
        {
          "internalType": "address",
          "name": "src",
          "type": "address"
        },
        {
          "internalType": "address",
          "name": "dst",
          "type": "address"
        },
        {
          "internalType": "uint256",
          "name": "amount",
          "type": "uint256"
        }
      ],
      "name": "transferFrom",
      "outputs": [
        {
          "internalType": "bool",
          "name": "",
          "type": "bool"
        }
      ],
      "stateMutability": "nonpayable",
      "type": "function"
    },
    {
      "inputs": [
        {
          "internalType": "address",
          "name": "newOwner",
          "type": "address"
        }
      ],
      "name": "transferOwnership",
      "outputs": [],
      "stateMutability": "nonpayable",
      "type": "function"
    },
    {
      "stateMutability": "payable",
      "type": "receive"
    }
  ],
  "bytecode": "0x60806040523480156200001157600080fd5b5061965780620000226000396000f3fe6080604052600436106103395760003560e01c80638f840ddd116101ab578063c23d91bd116100f7578063f2b3abbd11610095578063f71e6e921161006f578063f71e6e9214611560578063f8f9da28146115a1578063fca7820b146115cc578063fe17b28f1461161b57610340565b8063f2b3abbd14611469578063f2fde38b146114ce578063f3fdb15a1461151f57610340565b8063db006a75116100d1578063db006a7514611326578063dd62ed3e14611375578063e228bb43146113fa578063e59746191461142557610340565b8063c23d91bd146111f1578063c37f68e21461125d578063c5ebeaec146112d757610340565b8063a6afed9511610164578063aae40a2a1161013e578063aae40a2a146110a8578063ae9d70b01461110c578063b2a02ff114611137578063bd6d894d146111c657610340565b8063a6afed9514610fe1578063a9059cbb1461100c578063aa5af0fd1461107d57610340565b80638f840ddd14610b2757806394d6c57414610b5257806394f2241214610d0857806395d89b4114610d3657806395dd919314610dc657806399d8c1b414610e2b57610340565b80634576b5db116102855780636c540baf1161022357806373acee98116101fd57806373acee9814610a2b5780637cd07e4714610a56578063852a12e314610a975780638da5cb5b14610ae657610340565b80636c540baf1461098457806370a08231146109af578063715018a614610a1457610340565b80634e4d9fea1161025f5780634e4d9fea146108bd5780635a890c0e146108c75780635fe3b567146108f4578063601a0bf11461093557610340565b80634576b5db146107c857806347bd37181461082d57806347dfe70d1461085857610340565b806318160ddd116102f2578063313ce567116102cc578063313ce567146106b957806337050117146106e75780633af9e669146107385780633b1d21a21461079d57610340565b806318160ddd146105d2578063182df0f5146105fd57806323b872dd1461062857610340565b806306fdde0314610345578063095ea7b3146103d55780630c5c9fa8146104465780631249c58b14610538578063173b99041461054257806317bfdfbc1461056d57610340565b3661034057005b600080fd5b34801561035157600080fd5b5061035a61166a565b6040518080602001828103825283818151815260200191508051906020019080838360005b8381101561039a57808201518184015260208101905061037f565b50505050905090810190601f1680156103c75780820380516001836020036101000a031916815260200191505b509250505060405180910390f35b3480156103e157600080fd5b5061042e600480360360408110156103f857600080fd5b81019080803573ffffffffffffffffffffffffffffffffffffffff16906020019092919080359060200190929190505050611708565b60405180821515815260200191505060405180910390f35b34801561045257600080fd5b506105366004803603606081101561046957600080fd5b81019080803573ffffffffffffffffffffffffffffffffffffffff16906020019092919080359060200190929190803590602001906401000000008111156104b057600080fd5b8201836020820111156104c257600080fd5b803590602001918460018302840111640100000000831117156104e457600080fd5b91908080601f016020809104026020016040519081016040528093929190818152602001838380828437600081840152601f19601f8201169050808301925050505050505091929192905050506117ff565b005b610540611ac2565b005b34801561054e57600080fd5b50610557611b12565b6040518082815260200191505060405180910390f35b34801561057957600080fd5b506105bc6004803603602081101561059057600080fd5b81019080803573ffffffffffffffffffffffffffffffffffffffff169060200190929190505050611b18565b6040518082815260200191505060405180910390f35b3480156105de57600080fd5b506105e7611c67565b6040518082815260200191505060405180910390f35b34801561060957600080fd5b50610612611c6d565b6040518082815260200191505060405180910390f35b34801561063457600080fd5b506106a16004803603606081101561064b57600080fd5b81019080803573ffffffffffffffffffffffffffffffffffffffff169060200190929190803573ffffffffffffffffffffffffffffffffffffffff16906020019092919080359060200190929190505050611cf5565b60405180821515815260200191505060405180910390f35b3480156106c557600080fd5b506106ce611dcf565b604051808260ff16815260200191505060405180910390f35b3480156106f357600080fd5b506107366004803603602081101561070a57600080fd5b81019080803573ffffffffffffffffffffffffffffffffffffffff169060200190929190505050611de2565b005b34801561074457600080fd5b506107876004803603602081101561075b57600080fd5b81019080803573ffffffffffffffffffffffffffffffffffffffff169060200190929190505050611ef0565b6040518082815260200191505060405180910390f35b3480156107a957600080fd5b506107b2611ff9565b6040518082815260200191505060405180910390f35b3480156107d457600080fd5b50610817600480360360208110156107eb57600080fd5b81019080803573ffffffffffffffffffffffffffffffffffffffff169060200190929190505050612008565b6040518082815260200191505060405180910390f35b34801561083957600080fd5b506108426121bc565b6040518082815260200191505060405180910390f35b34801561086457600080fd5b506108a76004803603602081101561087b57600080fd5b81019080803573ffffffffffffffffffffffffffffffffffffffff1690602001909291905050506121c2565b6040518082815260200191505060405180910390f35b6108c5612376565b005b3480156108d357600080fd5b506108dc6123c6565b60405180821515815260200191505060405180910390f35b34801561090057600080fd5b506109096123cb565b604051808273ffffffffffffffffffffffffffffffffffffffff16815260200191505060405180910390f35b34801561094157600080fd5b5061096e6004803603602081101561095857600080fd5b81019080803590602001909291905050506123f1565b6040518082815260200191505060405180910390f35b34801561099057600080fd5b506109996124f7565b6040518082815260200191505060405180910390f35b3480156109bb57600080fd5b506109fe600480360360208110156109d257600080fd5b81019080803573ffffffffffffffffffffffffffffffffffffffff1690602001909291905050506124fd565b6040518082815260200191505060405180910390f35b348015610a2057600080fd5b50610a29612546565b005b348015610a3757600080fd5b50610a406126d1565b6040518082815260200191505060405180910390f35b348015610a6257600080fd5b50610a6b612818565b604051808273ffffffffffffffffffffffffffffffffffffffff16815260200191505060405180910390f35b348015610aa357600080fd5b50610ad060048036036020811015610aba57600080fd5b810190808035906020019092919050505061283e565b6040518082815260200191505060405180910390f35b348015610af257600080fd5b50610afb612850565b604051808273ffffffffffffffffffffffffffffffffffffffff16815260200191505060405180910390f35b348015610b3357600080fd5b50610b3c61287a565b6040518082815260200191505060405180910390f35b348015610b5e57600080fd5b50610d06600480360360c0811015610b7557600080fd5b81019080803573ffffffffffffffffffffffffffffffffffffffff169060200190929190803573ffffffffffffffffffffffffffffffffffffffff1690602001909291908035906020019092919080359060200190640100000000811115610bdc57600080fd5b820183602082011115610bee57600080fd5b80359060200191846001830284011164010000000083111715610c1057600080fd5b91908080601f016020809104026020016040519081016040528093929190818152602001838380828437600081840152601f19601f82011690508083019250505050505050919291929080359060200190640100000000811115610c7357600080fd5b820183602082011115610c8557600080fd5b80359060200191846001830284011164010000000083111715610ca757600080fd5b91908080601f016020809104026020016040519081016040528093929190818152602001838380828437600081840152601f19601f820116905080830192505050505050509192919290803560ff169060200190929190505050612880565b005b610d3460048036036020811015610d1e57600080fd5b8101908080359060200190929190505050612b9b565b005b348015610d4257600080fd5b50610d4b612bed565b6040518080602001828103825283818151815260200191508051906020019080838360005b83811015610d8b578082015181840152602081019050610d70565b50505050905090810190601f168015610db85780820380516001836020036101000a031916815260200191505b509250505060405180910390f35b348015610dd257600080fd5b50610e1560048036036020811015610de957600080fd5b81019080803573ffffffffffffffffffffffffffffffffffffffff169060200190929190505050612c8b565b6040518082815260200191505060405180910390f35b348015610e3757600080fd5b50610fdf600480360360c0811015610e4e57600080fd5b81019080803573ffffffffffffffffffffffffffffffffffffffff169060200190929190803573ffffffffffffffffffffffffffffffffffffffff1690602001909291908035906020019092919080359060200190640100000000811115610eb557600080fd5b820183602082011115610ec757600080fd5b80359060200191846001830284011164010000000083111715610ee957600080fd5b91908080601f016020809104026020016040519081016040528093929190818152602001838380828437600081840152601f19601f82011690508083019250505050505050919291929080359060200190640100000000811115610f4c57600080fd5b820183602082011115610f5e57600080fd5b80359060200191846001830284011164010000000083111715610f8057600080fd5b91908080601f016020809104026020016040519081016040528093929190818152602001838380828437600081840152601f19601f820116905080830192505050505050509192919290803560ff169060200190929190505050612d16565b005b348015610fed57600080fd5b50610ff6612e35565b6040518082815260200191505060405180910390f35b34801561101857600080fd5b506110656004803603604081101561102f57600080fd5b81019080803573ffffffffffffffffffffffffffffffffffffffff1690602001909291908035906020019092919050505061332b565b60405180821515815260200191505060405180910390f35b34801561108957600080fd5b50611092613404565b6040518082815260200191505060405180910390f35b61110a600480360360408110156110be57600080fd5b81019080803573ffffffffffffffffffffffffffffffffffffffff169060200190929190803573ffffffffffffffffffffffffffffffffffffffff16906020019092919050505061340a565b005b34801561111857600080fd5b5061112161345e565b6040518082815260200191505060405180910390f35b34801561114357600080fd5b506111b06004803603606081101561115a57600080fd5b81019080803573ffffffffffffffffffffffffffffffffffffffff169060200190929190803573ffffffffffffffffffffffffffffffffffffffff16906020019092919080359060200190929190505050613538565b6040518082815260200191505060405180910390f35b3480156111d257600080fd5b506111db613604565b6040518082815260200191505060405180910390f35b3480156111fd57600080fd5b50611206613750565b6040518080602001828103825283818151815260200191508051906020019060200280838360005b8381101561124957808201518184015260208101905061122e565b505050509050019250505060405180910390f35b34801561126957600080fd5b506112ac6004803603602081101561128057600080fd5b81019080803573ffffffffffffffffffffffffffffffffffffffff169060200190929190505050613bf0565b6040518085815260200184815260200183815260200182815260200194505050505060405180910390f35b3480156112e357600080fd5b50611310600480360360208110156112fa57600080fd5b8101908080359060200190929190505050613d06565b6040518082815260200191505060405180910390f35b34801561133257600080fd5b5061135f6004803603602081101561134957600080fd5b8101908080359060200190929190505050613d18565b6040518082815260200191505060405180910390f35b34801561138157600080fd5b506113e46004803603604081101561139857600080fd5b81019080803573ffffffffffffffffffffffffffffffffffffffff169060200190929190803573ffffffffffffffffffffffffffffffffffffffff169060200190929190505050613d2a565b6040518082815260200191505060405180910390f35b34801561140657600080fd5b5061140f613db1565b6040518082815260200191505060405180910390f35b6114676004803603602081101561143b57600080fd5b81019080803573ffffffffffffffffffffffffffffffffffffffff169060200190929190505050613db7565b005b34801561147557600080fd5b506114b86004803603602081101561148c57600080fd5b81019080803573ffffffffffffffffffffffffffffffffffffffff169060200190929190505050613e09565b6040518082815260200191505060405180910390f35b3480156114da57600080fd5b5061151d600480360360208110156114f157600080fd5b81019080803573ffffffffffffffffffffffffffffffffffffffff169060200190929190505050613e59565b005b34801561152b57600080fd5b50611534614069565b604051808273ffffffffffffffffffffffffffffffffffffffff16815260200191505060405180910390f35b34801561156c57600080fd5b5061157561408f565b604051808273ffffffffffffffffffffffffffffffffffffffff16815260200191505060405180910390f35b3480156115ad57600080fd5b506115b66140b5565b6040518082815260200191505060405180910390f35b3480156115d857600080fd5b50611605600480360360208110156115ef57600080fd5b8101908080359060200190929190505050614185565b6040518082815260200191505060405180910390f35b34801561162757600080fd5b506116546004803603602081101561163e57600080fd5b810190808035906020019092919050505061428b565b6040518082815260200191505060405180910390f35b60018054600181600116156101000203166002900480601f0160208091040260200160405190810160405280929190818152602001828054600181600116156101000203166002900480156117005780601f106116d557610100808354040283529160200191611700565b820191906000526020600020905b8154815290600101906020018083116116e357829003601f168201915b505050505081565b60008033905082600d60008373ffffffffffffffffffffffffffffffffffffffff1673ffffffffffffffffffffffffffffffffffffffff16815260200190815260200160002060008673ffffffffffffffffffffffffffffffffffffffff1673ffffffffffffffffffffffffffffffffffffffff168152602001908152602001600020819055508373ffffffffffffffffffffffffffffffffffffffff168173ffffffffffffffffffffffffffffffffffffffff167f8c5be1e5ebec7d5bd14f71427d1e84f3dd0314c0f7b2291e5b200ac8c7c3b925856040518082815260200191505060405180910390a3600191505092915050565b60008054906101000a900460ff1661187f576040517f08c379a000000000000000000000000000000000000000000000000000000000815260040180806020018281038252600a8152602001807f72652d656e74657265640000000000000000000000000000000000000000000081525060200191505060405180910390fd5b60008060006101000a81548160ff02191690831515021790555060006118a36143b9565b90506118d160a860009054906101000a900473ffffffffffffffffffffffffffffffffffffffff16846143f7565b60a860009054906101000a900473ffffffffffffffffffffffffffffffffffffffff1673ffffffffffffffffffffffffffffffffffffffff1663322042f2308673eeeeeeeeeeeeeeeeeeeeeeeeeeeeeeeeeeeeeeee87876040518663ffffffff1660e01b8152600401808673ffffffffffffffffffffffffffffffffffffffff1681526020018573ffffffffffffffffffffffffffffffffffffffff1681526020018473ffffffffffffffffffffffffffffffffffffffff16815260200183815260200180602001828103825283818151815260200191508051906020019080838360005b838110156119d15780820151818401526020810190506119b6565b50505050905090810190601f1680156119fe5780820380516001836020036101000a031916815260200191505b509650505050505050600060405180830381600087803b158015611a2157600080fd5b505af1158015611a35573d6000803e3d6000fd5b5050505080611a426143b9565b1015611a99576040517f08c379a00000000000000000000000000000000000000000000000000000000081526004018080602001828103825260228152602001806193996022913960400191505060405180910390fd5b611aa1612e35565b505060016000806101000a81548160ff021916908315150217905550505050565b6000611acd34614442565b509050611b0f816040518060400160405280600b81526020017f6d696e74206661696c6564000000000000000000000000000000000000000000815250614551565b50565b60065481565b60008060009054906101000a900460ff16611b9b576040517f08c379a000000000000000000000000000000000000000000000000000000000815260040180806020018281038252600a8152602001807f72652d656e74657265640000000000000000000000000000000000000000000081525060200191505060405180910390fd5b60008060006101000a81548160ff02191690831515021790555060006010811115611bc257fe5b611bca612e35565b14611c3d576040517f08c379a00000000000000000000000000000000000000000000000000000000081526004018080602001828103825260168152602001807f61636372756520696e746572657374206661696c65640000000000000000000081525060200191505060405180910390fd5b611c4682612c8b565b905060016000806101000a81548160ff021916908315150217905550919050565b600b5481565b6000806000611c7a61484d565b9150915060006003811115611c8b57fe5b826003811115611c9757fe5b14611ced576040517f08c379a000000000000000000000000000000000000000000000000000000000815260040180806020018281038252603581526020018061956d6035913960400191505060405180910390fd5b809250505090565b60008060009054906101000a900460ff16611d78576040517f08c379a000000000000000000000000000000000000000000000000000000000815260040180806020018281038252600a8152602001807f72652d656e74657265640000000000000000000000000000000000000000000081525060200191505060405180910390fd5b60008060006101000a81548160ff02191690831515021790555060006010811115611d9f57fe5b611dab33868686614923565b14905060016000806101000a81548160ff0219169083151502179055509392505050565b600360009054906101000a900460ff1681565b611dea614f6f565b73ffffffffffffffffffffffffffffffffffffffff16607660009054906101000a900473ffffffffffffffffffffffffffffffffffffffff1673ffffffffffffffffffffffffffffffffffffffff1614611eac576040517f08c379a00000000000000000000000000000000000000000000000000000000081526004018080602001828103825260208152602001807f4f776e61626c653a2063616c6c6572206973206e6f7420746865206f776e657281525060200191505060405180910390fd5b8060a860006101000a81548173ffffffffffffffffffffffffffffffffffffffff021916908373ffffffffffffffffffffffffffffffffffffffff16021790555050565b6000611efa61915d565b6040518060200160405280611f0d613604565b8152509050600080611f5e83600c60008873ffffffffffffffffffffffffffffffffffffffff1673ffffffffffffffffffffffffffffffffffffffff16815260200190815260200160002054614f77565b9150915060006003811115611f6f57fe5b826003811115611f7b57fe5b14611fee576040517f08c379a000000000000000000000000000000000000000000000000000000000815260040180806020018281038252601f8152602001807f62616c616e636520636f756c64206e6f742062652063616c63756c617465640081525060200191505060405180910390fd5b809350505050919050565b60006120036143b9565b905090565b6000612012614f6f565b73ffffffffffffffffffffffffffffffffffffffff16607660009054906101000a900473ffffffffffffffffffffffffffffffffffffffff1673ffffffffffffffffffffffffffffffffffffffff16146120d4576040517f08c379a00000000000000000000000000000000000000000000000000000000081526004018080602001828103825260208152602001807f4f776e61626c653a2063616c6c6572206973206e6f7420746865206f776e657281525060200191505060405180910390fd5b6000600360019054906101000a900473ffffffffffffffffffffffffffffffffffffffff16905082600360016101000a81548173ffffffffffffffffffffffffffffffffffffffff021916908373ffffffffffffffffffffffffffffffffffffffff1602179055507f7ac369dbd14fa5ea3f473ed67cc9d598964a77501540ba6751eb0b3decf5870d8184604051808373ffffffffffffffffffffffffffffffffffffffff1681526020018273ffffffffffffffffffffffffffffffffffffffff1681526020019250505060405180910390a1600060108111156121b457fe5b915050919050565b60095481565b60006121cc614f6f565b73ffffffffffffffffffffffffffffffffffffffff16607660009054906101000a900473ffffffffffffffffffffffffffffffffffffffff1673ffffffffffffffffffffffffffffffffffffffff161461228e576040517f08c379a00000000000000000000000000000000000000000000000000000000081526004018080602001828103825260208152602001807f4f776e61626c653a2063616c6c6572206973206e6f7420746865206f776e657281525060200191505060405180910390fd5b6000600f60009054906101000a900473ffffffffffffffffffffffffffffffffffffffff16905082600f60006101000a81548173ffffffffffffffffffffffffffffffffffffffff021916908373ffffffffffffffffffffffffffffffffffffffff1602179055507f99b2b7456799067566d467831e63363500739eac62c12ccb8cf9745078f06d2a8184604051808373ffffffffffffffffffffffffffffffffffffffff1681526020018273ffffffffffffffffffffffffffffffffffffffff1681526020019250505060405180910390a16000601081111561236e57fe5b915050919050565b600061238134614fd7565b5090506123c3816040518060400160405280601281526020017f7265706179426f72726f77206661696c65640000000000000000000000000000815250614551565b50565b600181565b600360019054906101000a900473ffffffffffffffffffffffffffffffffffffffff1681565b60008060009054906101000a900460ff16612474576040517f08c379a000000000000000000000000000000000000000000000000000000000815260040180806020018281038252600a8152602001807f72652d656e74657265640000000000000000000000000000000000000000000081525060200191505060405180910390fd5b60008060006101000a81548160ff0219169083151502179055506000612498612e35565b9050600060108111156124a757fe5b81146124cb576124c38160108111156124bc57fe5b60316150e5565b9150506124d8565b6124d483615159565b9150505b60016000806101000a81548160ff021916908315150217905550919050565b60075481565b6000600c60008373ffffffffffffffffffffffffffffffffffffffff1673ffffffffffffffffffffffffffffffffffffffff168152602001908152602001600020549050919050565b61254e614f6f565b73ffffffffffffffffffffffffffffffffffffffff16607660009054906101000a900473ffffffffffffffffffffffffffffffffffffffff1673ffffffffffffffffffffffffffffffffffffffff1614612610576040517f08c379a00000000000000000000000000000000000000000000000000000000081526004018080602001828103825260208152602001807f4f776e61626c653a2063616c6c6572206973206e6f7420746865206f776e657281525060200191505060405180910390fd5b600073ffffffffffffffffffffffffffffffffffffffff16607660009054906101000a900473ffffffffffffffffffffffffffffffffffffffff1673ffffffffffffffffffffffffffffffffffffffff167f8be0079c531659141344cd1fd0a4f28419497f9722a3daafe3b4186f6b6457e060405160405180910390a36000607660006101000a81548173ffffffffffffffffffffffffffffffffffffffff021916908373ffffffffffffffffffffffffffffffffffffffff160217905550565b60008060009054906101000a900460ff16612754576040517f08c379a000000000000000000000000000000000000000000000000000000000815260040180806020018281038252600a8152602001807f72652d656e74657265640000000000000000000000000000000000000000000081525060200191505060405180910390fd5b60008060006101000a81548160ff0219169083151502179055506000601081111561277b57fe5b612783612e35565b146127f6576040517f08c379a00000000000000000000000000000000000000000000000000000000081526004018080602001828103825260168152602001807f61636372756520696e746572657374206661696c65640000000000000000000081525060200191505060405180910390fd5b600954905060016000806101000a81548160ff02191690831515021790555090565b600f60009054906101000a900473ffffffffffffffffffffffffffffffffffffffff1681565b600061284982615380565b9050919050565b6000607660009054906101000a900473ffffffffffffffffffffffffffffffffffffffff16905090565b600a5481565b612888614f6f565b73ffffffffffffffffffffffffffffffffffffffff16607660009054906101000a900473ffffffffffffffffffffffffffffffffffffffff1673ffffffffffffffffffffffffffffffffffffffff161461294a576040517f08c379a00000000000000000000000000000000000000000000000000000000081526004018080602001828103825260208152602001807f4f776e61626c653a2063616c6c6572206973206e6f7420746865206f776e657281525060200191505060405180910390fd5b600060075414801561295e57506000600854145b6129b3576040517f08c379a00000000000000000000000000000000000000000000000000000000081526004018080602001828103825260238152602001806193506023913960400191505060405180910390fd5b83600581905550600060055411612a15576040517f08c379a00000000000000000000000000000000000000000000000000000000081526004018080602001828103825260308152602001806193ed6030913960400191505060405180910390fd5b6000612a2087612008565b905060006010811115612a2f57fe5b8114612aa3576040517f08c379a000000000000000000000000000000000000000000000000000000000815260040180806020018281038252601a8152602001807f73657474696e6720636f6d7074726f6c6c6572206661696c656400000000000081525060200191505060405180910390fd5b612aab615489565b600781905550670de0b6b3a7640000600881905550612ac986615491565b905060006010811115612ad857fe5b8114612b2f576040517f08c379a000000000000000000000000000000000000000000000000000000000815260040180806020018281038252602281526020018061941d6022913960400191505060405180910390fd5b8360019080519060200190612b45929190619170565b508260029080519060200190612b5c929190619170565b5081600360006101000a81548160ff021916908360ff16021790555060016000806101000a81548160ff02191690831515021790555050505050505050565b6000612ba7348361566a565b509050612be9816040518060400160405280600b81526020017f6d696e74206661696c6564000000000000000000000000000000000000000000815250614551565b5050565b60028054600181600116156101000203166002900480601f016020809104026020016040519081016040528092919081815260200182805460018160011615610100020316600290048015612c835780601f10612c5857610100808354040283529160200191612c83565b820191906000526020600020905b815481529060010190602001808311612c6657829003601f168201915b505050505081565b6000806000612c9984615820565b9150915060006003811115612caa57fe5b826003811115612cb657fe5b14612d0c576040517f08c379a000000000000000000000000000000000000000000000000000000000815260040180806020018281038252603781526020018061946a6037913960400191505060405180910390fd5b8092505050919050565b601160019054906101000a900460ff1680612d355750612d34615922565b5b80612d4d5750601160009054906101000a900460ff16155b612da2576040517f08c379a000000000000000000000000000000000000000000000000000000000815260040180806020018281038252602e8152602001806194db602e913960400191505060405180910390fd5b6000601160019054906101000a900460ff161590508015612df4576001601160016101000a81548160ff0219169083151502179055506001601160006101000a81548160ff0219169083151502179055505b612dfc615939565b612e0a878787878787612880565b8015612e2c576000601160016101000a81548160ff0219169083151502179055505b50505050505050565b600080612e40615489565b90506000600754905081811415612e675760006010811115612e5e57fe5b92505050613328565b6000612e716143b9565b9050600060095490506000600a549050600060085490506000600460009054906101000a900473ffffffffffffffffffffffffffffffffffffffff1673ffffffffffffffffffffffffffffffffffffffff166315f240538686866040518463ffffffff1660e01b815260040180848152602001838152602001828152602001935050505060206040518083038186803b158015612f0d57600080fd5b505afa158015612f21573d6000803e3d6000fd5b505050506040513d6020811015612f3757600080fd5b8101908080519060200190929190505050905065048c27395000811115612fc6576040517f08c379a000000000000000000000000000000000000000000000000000000000815260040180806020018281038252601c8152602001807f626f72726f772072617465206973206162737572646c7920686967680000000081525060200191505060405180910390fd5b600080612fd38989615a4c565b9150915060006003811115612fe457fe5b826003811115612ff057fe5b14613063576040517f08c379a000000000000000000000000000000000000000000000000000000000815260040180806020018281038252601f8152602001807f636f756c64206e6f742063616c63756c61746520626c6f636b2064656c74610081525060200191505060405180910390fd5b61306b61915d565b60008060008061308960405180602001604052808a81525087615a74565b80965081985050506000600381111561309e57fe5b8760038111156130aa57fe5b146130dc576130c7600960068960038111156130c257fe5b615aec565b9e505050505050505050505050505050613328565b6130e6858c614f77565b8095508198505050600060038111156130fb57fe5b87600381111561310757fe5b14613139576131246009600189600381111561311f57fe5b615aec565b9e505050505050505050505050505050613328565b61314584601054615a4c565b50809750506000600381111561315757fe5b87600381111561316357fe5b1461316e5760105493505b613178848c615b60565b80945081985050506000600381111561318d57fe5b87600381111561319957fe5b146131cb576131b6600960048960038111156131b157fe5b615aec565b9e505050505050505050505050505050613328565b6131e66040518060200160405280600654815250858c615b8f565b8093508198505050600060038111156131fb57fe5b87600381111561320757fe5b14613239576132246009600589600381111561321f57fe5b615aec565b9e505050505050505050505050505050613328565b613244858a8b615b8f565b80925081985050506000600381111561325957fe5b87600381111561326557fe5b14613297576132826009600389600381111561327d57fe5b615aec565b9e505050505050505050505050505050613328565b8d600781905550806008819055508260098190555081600a819055507f717fee053884ab1935ba6d0140f6ed225371439611d9674ff445419d6a0fa1b78c85838686604051808681526020018581526020018481526020018381526020018281526020019550505050505060405180910390a16000601081111561331757fe5b9e5050505050505050505050505050505b90565b60008060009054906101000a900460ff166133ae576040517f08c379a000000000000000000000000000000000000000000000000000000000815260040180806020018281038252600a8152602001807f72652d656e74657265640000000000000000000000000000000000000000000081525060200191505060405180910390fd5b60008060006101000a81548160ff021916908315150217905550600060108111156133d557fe5b6133e133338686614923565b14905060016000806101000a81548160ff02191690831515021790555092915050565b60085481565b6000613417833484615bf7565b509050613459816040518060400160405280601681526020017f6c6971756964617465426f72726f77206661696c656400000000000000000000815250614551565b505050565b6000600460009054906101000a900473ffffffffffffffffffffffffffffffffffffffff1673ffffffffffffffffffffffffffffffffffffffff1663b81688166134a66143b9565b600954600a546006546040518563ffffffff1660e01b81526004018085815260200184815260200183815260200182815260200194505050505060206040518083038186803b1580156134f857600080fd5b505afa15801561350c573d6000803e3d6000fd5b505050506040513d602081101561352257600080fd5b8101908080519060200190929190505050905090565b60008060009054906101000a900460ff166135bb576040517f08c379a000000000000000000000000000000000000000000000000000000000815260040180806020018281038252600a8152602001807f72652d656e74657265640000000000000000000000000000000000000000000081525060200191505060405180910390fd5b60008060006101000a81548160ff0219169083151502179055506135e133858585615dc3565b905060016000806101000a81548160ff0219169083151502179055509392505050565b60008060009054906101000a900460ff16613687576040517f08c379a000000000000000000000000000000000000000000000000000000000815260040180806020018281038252600a8152602001807f72652d656e74657265640000000000000000000000000000000000000000000081525060200191505060405180910390fd5b60008060006101000a81548160ff021916908315150217905550600060108111156136ae57fe5b6136b6612e35565b14613729576040517f08c379a00000000000000000000000000000000000000000000000000000000081526004018080602001828103825260168152602001807f61636372756520696e746572657374206661696c65640000000000000000000081525060200191505060405180910390fd5b613731611c6d565b905060016000806101000a81548160ff02191690831515021790555090565b6060600061375c615489565b905060006007549050600061376f6143b9565b9050600060095490506000600a549050600060085490506000600460009054906101000a900473ffffffffffffffffffffffffffffffffffffffff1673ffffffffffffffffffffffffffffffffffffffff166315f240538686866040518463ffffffff1660e01b815260040180848152602001838152602001828152602001935050505060206040518083038186803b15801561380b57600080fd5b505afa15801561381f573d6000803e3d6000fd5b505050506040513d602081101561383557600080fd5b8101908080519060200190929190505050905065048c273950008111156138c4576040517f08c379a000000000000000000000000000000000000000000000000000000000815260040180806020018281038252601c8152602001807f626f72726f772072617465206973206162737572646c7920686967680000000081525060200191505060405180910390fd5b6000806138d18989615a4c565b91509150600060038111156138e257fe5b8260038111156138ee57fe5b14613961576040517f08c379a000000000000000000000000000000000000000000000000000000000815260040180806020018281038252601f8152602001807f636f756c64206e6f742063616c63756c61746520626c6f636b2064656c74610081525060200191505060405180910390fd5b61396961915d565b6000806000806060600667ffffffffffffffff8111801561398957600080fd5b506040519080825280602002602001820160405280156139b85781602001602082028036833780820191505090505b5090506139d360405180602001604052808b81525088615a74565b8097508199505050600060038111156139e857fe5b8860038111156139f457fe5b14613a1057809f50505050505050505050505050505050613bed565b613a1a868d614f77565b809650819950505060006003811115613a2f57fe5b886003811115613a3b57fe5b14613a5757809f50505050505050505050505050505050613bed565b613a61858d615b60565b809550819950505060006003811115613a7657fe5b886003811115613a8257fe5b14613a9e57809f50505050505050505050505050505050613bed565b613ab96040518060200160405280600654815250868d615b8f565b809450819950505060006003811115613ace57fe5b886003811115613ada57fe5b14613af657809f50505050505050505050505050505050613bed565b613b01868b8c615b8f565b809350819950505060006003811115613b1657fe5b886003811115613b2257fe5b14613b3e57809f50505050505050505050505050505050613bed565b8e81600081518110613b4c57fe5b6020026020010181815250508c81600181518110613b6657fe5b6020026020010181815250508481600281518110613b8057fe5b6020026020010181815250508381600381518110613b9a57fe5b6020026020010181815250508281600481518110613bb457fe5b6020026020010181815250508181600581518110613bce57fe5b602002602001018181525050809f505050505050505050505050505050505b90565b6000806000806000600c60008773ffffffffffffffffffffffffffffffffffffffff1673ffffffffffffffffffffffffffffffffffffffff1681526020019081526020016000205490506000806000613c4889615820565b809450819250505060006003811115613c5d57fe5b816003811115613c6957fe5b14613c915760096010811115613c7b57fe5b6000806000975097509750975050505050613cff565b613c9961484d565b809350819250505060006003811115613cae57fe5b816003811115613cba57fe5b14613ce25760096010811115613ccc57fe5b6000806000975097509750975050505050613cff565b60006010811115613cef57fe5b8484849750975097509750505050505b9193509193565b6000613d118261628c565b9050919050565b6000613d2382616393565b9050919050565b6000600d60008473ffffffffffffffffffffffffffffffffffffffff1673ffffffffffffffffffffffffffffffffffffffff16815260200190815260200160002060008373ffffffffffffffffffffffffffffffffffffffff1673ffffffffffffffffffffffffffffffffffffffff16815260200190815260200160002054905092915050565b60105481565b6000613dc3823461649c565b509050613e05816040518060400160405280601881526020017f7265706179426f72726f77426568616c66206661696c65640000000000000000815250614551565b5050565b600080613e14612e35565b905060006010811115613e2357fe5b8114613e4757613e3f816010811115613e3857fe5b60426150e5565b915050613e54565b613e5083615491565b9150505b919050565b613e61614f6f565b73ffffffffffffffffffffffffffffffffffffffff16607660009054906101000a900473ffffffffffffffffffffffffffffffffffffffff1673ffffffffffffffffffffffffffffffffffffffff1614613f23576040517f08c379a00000000000000000000000000000000000000000000000000000000081526004018080602001828103825260208152602001807f4f776e61626c653a2063616c6c6572206973206e6f7420746865206f776e657281525060200191505060405180910390fd5b600073ffffffffffffffffffffffffffffffffffffffff168173ffffffffffffffffffffffffffffffffffffffff161415613fa9576040517f08c379a00000000000000000000000000000000000000000000000000000000081526004018080602001828103825260268152602001806193736026913960400191505060405180910390fd5b8073ffffffffffffffffffffffffffffffffffffffff16607660009054906101000a900473ffffffffffffffffffffffffffffffffffffffff1673ffffffffffffffffffffffffffffffffffffffff167f8be0079c531659141344cd1fd0a4f28419497f9722a3daafe3b4186f6b6457e060405160405180910390a380607660006101000a81548173ffffffffffffffffffffffffffffffffffffffff021916908373ffffffffffffffffffffffffffffffffffffffff16021790555050565b600460009054906101000a900473ffffffffffffffffffffffffffffffffffffffff1681565b60a860009054906101000a900473ffffffffffffffffffffffffffffffffffffffff1681565b6000600460009054906101000a900473ffffffffffffffffffffffffffffffffffffffff1673ffffffffffffffffffffffffffffffffffffffff166315f240536140fd6143b9565b600954600a546040518463ffffffff1660e01b815260040180848152602001838152602001828152602001935050505060206040518083038186803b15801561414557600080fd5b505afa158015614159573d6000803e3d6000fd5b505050506040513d602081101561416f57600080fd5b8101908080519060200190929190505050905090565b60008060009054906101000a900460ff16614208576040517f08c379a000000000000000000000000000000000000000000000000000000000815260040180806020018281038252600a8152602001807f72652d656e74657265640000000000000000000000000000000000000000000081525060200191505060405180910390fd5b60008060006101000a81548160ff021916908315150217905550600061422c612e35565b90506000601081111561423b57fe5b811461425f5761425781601081111561425057fe5b60486150e5565b91505061426c565b614268836165ac565b9150505b60016000806101000a81548160ff021916908315150217905550919050565b6000614295614f6f565b73ffffffffffffffffffffffffffffffffffffffff16607660009054906101000a900473ffffffffffffffffffffffffffffffffffffffff1673ffffffffffffffffffffffffffffffffffffffff1614614357576040517f08c379a00000000000000000000000000000000000000000000000000000000081526004018080602001828103825260208152602001807f4f776e61626c653a2063616c6c6572206973206e6f7420746865206f776e657281525060200191505060405180910390fd5b60006010549050826010819055507f0fef09b67597ccf3dbb342dd705d9a10d14b4813c09c55e010cd5f4bf219ddaa8184604051808381526020018281526020019250505060405180910390a1600060108111156143b157fe5b915050919050565b60008060006143c84734615a4c565b91509150600060038111156143d957fe5b8260038111156143e557fe5b146143ef57600080fd5b809250505090565b8173ffffffffffffffffffffffffffffffffffffffff166108fc829081150290604051600060405180830381858888f1935050505015801561443d573d6000803e3d6000fd5b505050565b60008060008054906101000a900460ff166144c5576040517f08c379a000000000000000000000000000000000000000000000000000000000815260040180806020018281038252600a8152602001807f72652d656e74657265640000000000000000000000000000000000000000000081525060200191505060405180910390fd5b60008060006101000a81548160ff02191690831515021790555060006144e9612e35565b9050600060108111156144f857fe5b81146145205761451481601081111561450d57fe5b601f6150e5565b60009250925050614532565b61452c33856000616721565b92509250505b60016000806101000a81548160ff021916908315150217905550915091565b6000601081111561455e57fe5b82141561456a57614849565b6060600582510167ffffffffffffffff8111801561458757600080fd5b506040519080825280601f01601f1916602001820160405280156145ba5781602001600182028036833780820191505090505b50905060005b8251811015614628578281815181106145d557fe5b602001015160f81c60f81b8282815181106145ec57fe5b60200101907effffffffffffffffffffffffffffffffffffffffffffffffffffffffffffff1916908160001a90535080806001019150506145c0565b602060f81b82600083018151811061463c57fe5b60200101907effffffffffffffffffffffffffffffffffffffffffffffffffffffffffffff1916908160001a905350602860f81b82600183018151811061467f57fe5b60200101907effffffffffffffffffffffffffffffffffffffffffffffffffffffffffffff1916908160001a905350600a84816146b857fe5b0460300160f81b8260028301815181106146ce57fe5b60200101907effffffffffffffffffffffffffffffffffffffffffffffffffffffffffffff1916908160001a905350600a848161470757fe5b0660300160f81b82600383018151811061471d57fe5b60200101907effffffffffffffffffffffffffffffffffffffffffffffffffffffffffffff1916908160001a905350602960f81b82600483018151811061476057fe5b60200101907effffffffffffffffffffffffffffffffffffffffffffffffffffffffffffff1916908160001a9053506000601081111561479c57fe5b84148290614845576040517f08c379a00000000000000000000000000000000000000000000000000000000081526004018080602001828103825283818151815260200191508051906020019080838360005b8381101561480a5780820151818401526020810190506147ef565b50505050905090810190601f1680156148375780820380516001836020036101000a031916815260200191505b509250505060405180910390fd5b5050505b5050565b6000806000600b549050600081141561486f576000600554925092505061491f565b60006148796143b9565b9050600061488561915d565b600061489684600954600a54616dbc565b8094508192505050600060038111156148ab57fe5b8160038111156148b757fe5b146148cd5780600096509650505050505061491f565b6148d78386616e15565b8093508192505050600060038111156148ec57fe5b8160038111156148f857fe5b1461490e5780600096509650505050505061491f565b600082600001519650965050505050505b9091565b600080600360019054906101000a900473ffffffffffffffffffffffffffffffffffffffff1673ffffffffffffffffffffffffffffffffffffffff1663bdcdc258308787876040518563ffffffff1660e01b8152600401808573ffffffffffffffffffffffffffffffffffffffff1681526020018473ffffffffffffffffffffffffffffffffffffffff1681526020018373ffffffffffffffffffffffffffffffffffffffff168152602001828152602001945050505050602060405180830381600087803b1580156149f557600080fd5b505af1158015614a09573d6000803e3d6000fd5b505050506040513d6020811015614a1f57600080fd5b8101908080519060200190929190505050905060008114614a4f57614a476003604c83615aec565b915050614f67565b8373ffffffffffffffffffffffffffffffffffffffff168573ffffffffffffffffffffffffffffffffffffffff161415614a9757614a8f6002604d6150e5565b915050614f67565b60008573ffffffffffffffffffffffffffffffffffffffff168773ffffffffffffffffffffffffffffffffffffffff161415614af5577fffffffffffffffffffffffffffffffffffffffffffffffffffffffffffffffff9050614b75565b600d60008773ffffffffffffffffffffffffffffffffffffffff1673ffffffffffffffffffffffffffffffffffffffff16815260200190815260200160002060008873ffffffffffffffffffffffffffffffffffffffff1673ffffffffffffffffffffffffffffffffffffffff1681526020019081526020016000205490505b600080600080614b858589615a4c565b809450819550505060006003811115614b9a57fe5b846003811115614ba657fe5b14614bc457614bb76009604d6150e5565b9650505050505050614f67565b614c0d600c60008c73ffffffffffffffffffffffffffffffffffffffff1673ffffffffffffffffffffffffffffffffffffffff1681526020019081526020016000205489615a4c565b809350819550505060006003811115614c2257fe5b846003811115614c2e57fe5b14614c4c57614c3f6009604e6150e5565b9650505050505050614f67565b614c95600c60008b73ffffffffffffffffffffffffffffffffffffffff1673ffffffffffffffffffffffffffffffffffffffff1681526020019081526020016000205489615b60565b809250819550505060006003811115614caa57fe5b846003811115614cb657fe5b14614cd457614cc76009604f6150e5565b9650505050505050614f67565b81600c60008c73ffffffffffffffffffffffffffffffffffffffff1673ffffffffffffffffffffffffffffffffffffffff1681526020019081526020016000208190555080600c60008b73ffffffffffffffffffffffffffffffffffffffff1673ffffffffffffffffffffffffffffffffffffffff168152602001908152602001600020819055507fffffffffffffffffffffffffffffffffffffffffffffffffffffffffffffffff8514614e055782600d60008c73ffffffffffffffffffffffffffffffffffffffff1673ffffffffffffffffffffffffffffffffffffffff16815260200190815260200160002060008d73ffffffffffffffffffffffffffffffffffffffff1673ffffffffffffffffffffffffffffffffffffffff168152602001908152602001600020819055505b8873ffffffffffffffffffffffffffffffffffffffff168a73ffffffffffffffffffffffffffffffffffffffff167fddf252ad1be2c89b69c2b068fc378daa952ba7f163c4a11628f55a4df523b3ef8a6040518082815260200191505060405180910390a3600360019054906101000a900473ffffffffffffffffffffffffffffffffffffffff1673ffffffffffffffffffffffffffffffffffffffff16636a56947e308c8c8c6040518563ffffffff1660e01b8152600401808573ffffffffffffffffffffffffffffffffffffffff1681526020018473ffffffffffffffffffffffffffffffffffffffff1681526020018373ffffffffffffffffffffffffffffffffffffffff168152602001828152602001945050505050600060405180830381600087803b158015614f3957600080fd5b505af1158015614f4d573d6000803e3d6000fd5b5050505060006010811115614f5e57fe5b96505050505050505b949350505050565b600033905090565b6000806000614f8461915d565b614f8e8686615a74565b9150915060006003811115614f9f57fe5b826003811115614fab57fe5b14614fbe57816000935093505050614fd0565b6000614fc982616ee0565b9350935050505b9250929050565b60008060008054906101000a900460ff1661505a576040517f08c379a000000000000000000000000000000000000000000000000000000000815260040180806020018281038252600a8152602001807f72652d656e74657265640000000000000000000000000000000000000000000081525060200191505060405180910390fd5b60008060006101000a81548160ff021916908315150217905550600061507e612e35565b90506000601081111561508d57fe5b81146150b5576150a98160108111156150a257fe5b60376150e5565b600092509250506150c6565b6150c0333386616eff565b92509250505b60016000806101000a81548160ff021916908315150217905550915091565b60007f45b96fe442630264581b197e84bbada861235052c5a1aadfff9ea4e40a969aa083601081111561511457fe5b83605281111561512057fe5b600060405180848152602001838152602001828152602001935050505060405180910390a182601081111561515157fe5b905092915050565b6000615163614f6f565b73ffffffffffffffffffffffffffffffffffffffff16607660009054906101000a900473ffffffffffffffffffffffffffffffffffffffff1673ffffffffffffffffffffffffffffffffffffffff1614615225576040517f08c379a00000000000000000000000000000000000000000000000000000000081526004018080602001828103825260208152602001807f4f776e61626c653a2063616c6c6572206973206e6f7420746865206f776e657281525060200191505060405180910390fd5b600061522f615489565b6007541461524b57615243600a60346150e5565b91505061537b565b826152546143b9565b101561526e57615266600e60336150e5565b91505061537b565b600a5483111561528c57615284600260356150e5565b91505061537b565b82600a54039050600a548111156152ee576040517f08c379a00000000000000000000000000000000000000000000000000000000081526004018080602001828103825260248152602001806195fe6024913960400191505060405180910390fd5b80600a81905550615306615300612850565b846143f7565b7f3bad0c59cf2f06e7314077049f48a93578cd16f5ef92329f1dab1420a99c177e61532f612850565b8483604051808473ffffffffffffffffffffffffffffffffffffffff168152602001838152602001828152602001935050505060405180910390a16000601081111561537757fe5b9150505b919050565b60008060009054906101000a900460ff16615403576040517f08c379a000000000000000000000000000000000000000000000000000000000815260040180806020018281038252600a8152602001807f72652d656e74657265640000000000000000000000000000000000000000000081525060200191505060405180910390fd5b60008060006101000a81548160ff0219169083151502179055506000615427612e35565b90506000601081111561543657fe5b811461545a5761545281601081111561544b57fe5b60286150e5565b91505061546a565b615466336000856175ae565b9150505b60016000806101000a81548160ff021916908315150217905550919050565b600043905090565b600061549b614f6f565b73ffffffffffffffffffffffffffffffffffffffff16607660009054906101000a900473ffffffffffffffffffffffffffffffffffffffff1673ffffffffffffffffffffffffffffffffffffffff161461555d576040517f08c379a00000000000000000000000000000000000000000000000000000000081526004018080602001828103825260208152602001807f4f776e61626c653a2063616c6c6572206973206e6f7420746865206f776e657281525060200191505060405180910390fd5b6000615567615489565b600754146155835761557b600a60436150e5565b915050615665565b600460009054906101000a900473ffffffffffffffffffffffffffffffffffffffff16905082600460006101000a81548173ffffffffffffffffffffffffffffffffffffffff021916908373ffffffffffffffffffffffffffffffffffffffff1602179055507fedffc32e068c7c95dfd4bdfd5c4d939a084d6b11c4199eac8436ed234d72f9268184604051808373ffffffffffffffffffffffffffffffffffffffff1681526020018273ffffffffffffffffffffffffffffffffffffffff1681526020019250505060405180910390a16000601081111561566157fe5b9150505b919050565b60008060008054906101000a900460ff166156ed576040517f08c379a000000000000000000000000000000000000000000000000000000000815260040180806020018281038252600a8152602001807f72652d656e74657265640000000000000000000000000000000000000000000081525060200191505060405180910390fd5b60008060006101000a81548160ff021916908315150217905550600f60009054906101000a900473ffffffffffffffffffffffffffffffffffffffff1673ffffffffffffffffffffffffffffffffffffffff163373ffffffffffffffffffffffffffffffffffffffff16146157ad576040517f08c379a00000000000000000000000000000000000000000000000000000000081526004018080602001828103825260328152602001806193bb6032913960400191505060405180910390fd5b60006157b7612e35565b9050600060108111156157c657fe5b81146157ee576157e28160108111156157db57fe5b601f6150e5565b600092509250506157ff565b6157f9338686616721565b92509250505b60016000806101000a81548160ff0219169083151502179055509250929050565b600080600080600080600e60008873ffffffffffffffffffffffffffffffffffffffff1673ffffffffffffffffffffffffffffffffffffffff168152602001908152602001600020905060008160000154141561588757600080955095505050505061591d565b6158978160000154600854617c9b565b8094508195505050600060038111156158ac57fe5b8460038111156158b857fe5b146158cd57836000955095505050505061591d565b6158db838260010154617ce8565b8093508195505050600060038111156158f057fe5b8460038111156158fc57fe5b1461591157836000955095505050505061591d565b60008295509550505050505b915091565b6000803090506000813b9050600081149250505090565b601160019054906101000a900460ff16806159585750615957615922565b5b806159705750601160009054906101000a900460ff16155b6159c5576040517f08c379a000000000000000000000000000000000000000000000000000000000815260040180806020018281038252602e8152602001806194db602e913960400191505060405180910390fd5b6000601160019054906101000a900460ff161590508015615a17576001601160016101000a81548160ff0219169083151502179055506001601160006101000a81548160ff0219169083151502179055505b615a1f617d19565b615a27617e1c565b8015615a49576000601160016101000a81548160ff0219169083151502179055505b50565b600080838311615a6457600083850391509150615a6d565b60036000915091505b9250929050565b6000615a7e61915d565b600080615a8f866000015186617c9b565b9150915060006003811115615aa057fe5b826003811115615aac57fe5b14615acd578160405180602001604052806000815250935093505050615ae5565b60006040518060200160405280838152509350935050505b9250929050565b60007f45b96fe442630264581b197e84bbada861235052c5a1aadfff9ea4e40a969aa0846010811115615b1b57fe5b846052811115615b2757fe5b8460405180848152602001838152602001828152602001935050505060405180910390a1836010811115615b5757fe5b90509392505050565b60008060008385019050848110615b7e576000819250925050615b88565b6002600092509250505b9250929050565b6000806000615b9c61915d565b615ba68787615a74565b9150915060006003811115615bb757fe5b826003811115615bc357fe5b14615bd657816000935093505050615bef565b615be8615be282616ee0565b86615b60565b9350935050505b935093915050565b60008060008054906101000a900460ff16615c7a576040517f08c379a000000000000000000000000000000000000000000000000000000000815260040180806020018281038252600a8152602001807f72652d656e74657265640000000000000000000000000000000000000000000081525060200191505060405180910390fd5b60008060006101000a81548160ff0219169083151502179055506000615c9e612e35565b905060006010811115615cad57fe5b8114615cd557615cc9816010811115615cc257fe5b60106150e5565b60009250925050615da1565b8373ffffffffffffffffffffffffffffffffffffffff1663a6afed956040518163ffffffff1660e01b8152600401602060405180830381600087803b158015615d1d57600080fd5b505af1158015615d31573d6000803e3d6000fd5b505050506040513d6020811015615d4757600080fd5b8101908080519060200190929190505050905060006010811115615d6757fe5b8114615d8f57615d83816010811115615d7c57fe5b60116150e5565b60009250925050615da1565b615d9b33878787617fc8565b92509250505b60016000806101000a81548160ff021916908315150217905550935093915050565b600080600360019054906101000a900473ffffffffffffffffffffffffffffffffffffffff1673ffffffffffffffffffffffffffffffffffffffff1663d02f735130888888886040518663ffffffff1660e01b8152600401808673ffffffffffffffffffffffffffffffffffffffff1681526020018573ffffffffffffffffffffffffffffffffffffffff1681526020018473ffffffffffffffffffffffffffffffffffffffff1681526020018373ffffffffffffffffffffffffffffffffffffffff16815260200182815260200195505050505050602060405180830381600087803b158015615eb357600080fd5b505af1158015615ec7573d6000803e3d6000fd5b505050506040513d6020811015615edd57600080fd5b8101908080519060200190929190505050905060008114615f0d57615f056003601c83615aec565b915050616284565b8473ffffffffffffffffffffffffffffffffffffffff168473ffffffffffffffffffffffffffffffffffffffff161415615f5557615f4d6006601d6150e5565b915050616284565b6000806000615fa3600c60008973ffffffffffffffffffffffffffffffffffffffff1673ffffffffffffffffffffffffffffffffffffffff1681526020019081526020016000205487615a4c565b809350819450505060006003811115615fb857fe5b836003811115615fc457fe5b14615fec57615fe16009601b856003811115615fdc57fe5b615aec565b945050505050616284565b616035600c60008a73ffffffffffffffffffffffffffffffffffffffff1673ffffffffffffffffffffffffffffffffffffffff1681526020019081526020016000205487615b60565b80925081945050506000600381111561604a57fe5b83600381111561605657fe5b1461607e576160736009601a85600381111561606e57fe5b615aec565b945050505050616284565b81600c60008973ffffffffffffffffffffffffffffffffffffffff1673ffffffffffffffffffffffffffffffffffffffff1681526020019081526020016000208190555080600c60008a73ffffffffffffffffffffffffffffffffffffffff1673ffffffffffffffffffffffffffffffffffffffff168152602001908152602001600020819055508773ffffffffffffffffffffffffffffffffffffffff168773ffffffffffffffffffffffffffffffffffffffff167fddf252ad1be2c89b69c2b068fc378daa952ba7f163c4a11628f55a4df523b3ef886040518082815260200191505060405180910390a3600360019054906101000a900473ffffffffffffffffffffffffffffffffffffffff1673ffffffffffffffffffffffffffffffffffffffff16636d35bf91308b8b8b8b6040518663ffffffff1660e01b8152600401808673ffffffffffffffffffffffffffffffffffffffff1681526020018573ffffffffffffffffffffffffffffffffffffffff1681526020018473ffffffffffffffffffffffffffffffffffffffff1681526020018373ffffffffffffffffffffffffffffffffffffffff16815260200182815260200195505050505050600060405180830381600087803b15801561625857600080fd5b505af115801561626c573d6000803e3d6000fd5b505050506000601081111561627d57fe5b9450505050505b949350505050565b60008060009054906101000a900460ff1661630f576040517f08c379a000000000000000000000000000000000000000000000000000000000815260040180806020018281038252600a8152602001807f72652d656e74657265640000000000000000000000000000000000000000000081525060200191505060405180910390fd5b60008060006101000a81548160ff0219169083151502179055506000616333612e35565b90506000601081111561634257fe5b81146163665761635e81601081111561635757fe5b60096150e5565b915050616374565b61637033846188b0565b9150505b60016000806101000a81548160ff021916908315150217905550919050565b60008060009054906101000a900460ff16616416576040517f08c379a000000000000000000000000000000000000000000000000000000000815260040180806020018281038252600a8152602001807f72652d656e74657265640000000000000000000000000000000000000000000081525060200191505060405180910390fd5b60008060006101000a81548160ff021916908315150217905550600061643a612e35565b90506000601081111561644957fe5b811461646d5761646581601081111561645e57fe5b60286150e5565b91505061647d565b616479338460006175ae565b9150505b60016000806101000a81548160ff021916908315150217905550919050565b60008060008054906101000a900460ff1661651f576040517f08c379a000000000000000000000000000000000000000000000000000000000815260040180806020018281038252600a8152602001807f72652d656e74657265640000000000000000000000000000000000000000000081525060200191505060405180910390fd5b60008060006101000a81548160ff0219169083151502179055506000616543612e35565b90506000601081111561655257fe5b811461657a5761656e81601081111561656757fe5b60366150e5565b6000925092505061658b565b616585338686616eff565b92509250505b60016000806101000a81548160ff0219169083151502179055509250929050565b60006165b6614f6f565b73ffffffffffffffffffffffffffffffffffffffff16607660009054906101000a900473ffffffffffffffffffffffffffffffffffffffff1673ffffffffffffffffffffffffffffffffffffffff1614616678576040517f08c379a00000000000000000000000000000000000000000000000000000000081526004018080602001828103825260208152602001807f4f776e61626c653a2063616c6c6572206973206e6f7420746865206f776e657281525060200191505060405180910390fd5b616680615489565b6007541461669b57616694600a604a6150e5565b905061671c565b670de0b6b3a76400008211156166be576166b76002604b6150e5565b905061671c565b60006006549050826006819055507faaa68312e2ea9d50e16af5068410ab56e1a1fd06037b1a35664812c30f8214608184604051808381526020018281526020019250505060405180910390a16000601081111561671857fe5b9150505b919050565b6000806000831415616840576000600360019054906101000a900473ffffffffffffffffffffffffffffffffffffffff1673ffffffffffffffffffffffffffffffffffffffff16634ef4c3e13088886040518463ffffffff1660e01b8152600401808473ffffffffffffffffffffffffffffffffffffffff1681526020018373ffffffffffffffffffffffffffffffffffffffff1681526020018281526020019350505050602060405180830381600087803b1580156167e057600080fd5b505af11580156167f4573d6000803e3d6000fd5b505050506040513d602081101561680a57600080fd5b810190808051906020019092919050505090506000811461683e576168326003602083615aec565b60009250925050616db4565b505b616848615489565b600754146168675761685c600a60236150e5565b600091509150616db4565b61686f6191f0565b60008414156168f35761688061484d565b82602001836040018281525082600381111561689857fe5b60038111156168a357fe5b8152505050600060038111156168b557fe5b816020015160038111156168c557fe5b146168f2576168e660096022836020015160038111156168e157fe5b615aec565b60009250925050616db4565b5b6168fd8686618df8565b8160c001818152505060008414156169ec5761692f8160c0015160405180602001604052808460400151815250618f19565b82602001836060018281525082600381111561694757fe5b600381111561695257fe5b81525050506000600381111561696457fe5b8160200151600381111561697457fe5b146169e7576040517f08c379a00000000000000000000000000000000000000000000000000000000081526004018080602001828103825260208152602001807f4d494e545f45584348414e47455f43414c43554c4154494f4e5f4641494c454481525060200191505060405180910390fd5b6169f7565b838160600181815250505b616a07600b548260600151615b60565b826020018360800182815250826003811115616a1f57fe5b6003811115616a2a57fe5b815250505060006003811115616a3c57fe5b81602001516003811115616a4c57fe5b14616aa2576040517f08c379a00000000000000000000000000000000000000000000000000000000081526004018080602001828103825260288152602001806195a26028913960400191505060405180910390fd5b616aef600c60008873ffffffffffffffffffffffffffffffffffffffff1673ffffffffffffffffffffffffffffffffffffffff168152602001908152602001600020548260600151615b60565b826020018360a00182815250826003811115616b0757fe5b6003811115616b1257fe5b815250505060006003811115616b2457fe5b81602001516003811115616b3457fe5b14616b8a576040517f08c379a000000000000000000000000000000000000000000000000000000000815260040180806020018281038252602b81526020018061943f602b913960400191505060405180910390fd5b8060800151600b819055508060a00151600c60008873ffffffffffffffffffffffffffffffffffffffff1673ffffffffffffffffffffffffffffffffffffffff168152602001908152602001600020819055507f94c792774c59479f7bd68442f3af3691c02123a5aabee8b6f9116d8af8aa6669868260c00151836060015184608001518560a00151604051808673ffffffffffffffffffffffffffffffffffffffff1681526020018581526020018481526020018381526020018281526020019550505050505060405180910390a18573ffffffffffffffffffffffffffffffffffffffff163073ffffffffffffffffffffffffffffffffffffffff167fddf252ad1be2c89b69c2b068fc378daa952ba7f163c4a11628f55a4df523b3ef83606001516040518082815260200191505060405180910390a3600360019054906101000a900473ffffffffffffffffffffffffffffffffffffffff1673ffffffffffffffffffffffffffffffffffffffff166341c728b930888460c0015185606001516040518563ffffffff1660e01b8152600401808573ffffffffffffffffffffffffffffffffffffffff1681526020018473ffffffffffffffffffffffffffffffffffffffff168152602001838152602001828152602001945050505050600060405180830381600087803b158015616d8457600080fd5b505af1158015616d98573d6000803e3d6000fd5b5050505060006010811115616da957fe5b8160c0015192509250505b935093915050565b600080600080616dcc8787615b60565b9150915060006003811115616ddd57fe5b826003811115616de957fe5b14616dfc57816000935093505050616e0d565b616e068186615a4c565b9350935050505b935093915050565b6000616e1f61915d565b600080616e3486670de0b6b3a7640000617c9b565b9150915060006003811115616e4557fe5b826003811115616e5157fe5b14616e72578160405180602001604052806000815250935093505050616ed9565b600080616e7f8388617ce8565b9150915060006003811115616e9057fe5b826003811115616e9c57fe5b14616ebf5781604051806020016040528060008152509550955050505050616ed9565b600060405180602001604052808381525095509550505050505b9250929050565b6000670de0b6b3a7640000826000015181616ef757fe5b049050919050565b6000806000600360019054906101000a900473ffffffffffffffffffffffffffffffffffffffff1673ffffffffffffffffffffffffffffffffffffffff166324008a62308888886040518563ffffffff1660e01b8152600401808573ffffffffffffffffffffffffffffffffffffffff1681526020018473ffffffffffffffffffffffffffffffffffffffff1681526020018373ffffffffffffffffffffffffffffffffffffffff168152602001828152602001945050505050602060405180830381600087803b158015616fd357600080fd5b505af1158015616fe7573d6000803e3d6000fd5b505050506040513d6020811015616ffd57600080fd5b8101908080519060200190929190505050905060008114617031576170256003603a83615aec565b600092509250506175a6565b617039615489565b600754146170595761704d600a603b6150e5565b600092509250506175a6565b617061619243565b600e60008773ffffffffffffffffffffffffffffffffffffffff1673ffffffffffffffffffffffffffffffffffffffff168152602001908152602001600020600101548160600181815250506170b686618f79565b826020018361010001828152508260038111156170cf57fe5b60038111156170da57fe5b8152505050600060038111156170ec57fe5b816020015160038111156170fc57fe5b1461712a5761711d600960388360200151600381111561711857fe5b615aec565b60009350935050506175a6565b61713386615820565b82602001836080018281525082600381111561714b57fe5b600381111561715657fe5b81525050506000600381111561716857fe5b8160200151600381111561717857fe5b146171a657617199600960398360200151600381111561719457fe5b615aec565b60009350935050506175a6565b7fffffffffffffffffffffffffffffffffffffffffffffffffffffffffffffffff8514156171e15780608001518160400181815250506171ec565b848160400181815250505b6171fa878260400151618df8565b8160e001818152505061721581608001518260e00151615a4c565b826020018360a0018281525082600381111561722d57fe5b600381111561723857fe5b81525050506000600381111561724a57fe5b8160200151600381111561725a57fe5b146172b0576040517f08c379a000000000000000000000000000000000000000000000000000000000815260040180806020018281038252603a8152602001806194a1603a913960400191505060405180910390fd5b6172c06009548260e00151615a4c565b826020018360c001828152508260038111156172d857fe5b60038111156172e357fe5b8152505050600060038111156172f557fe5b8160200151600381111561730557fe5b1461735b576040517f08c379a00000000000000000000000000000000000000000000000000000000081526004018080602001828103825260318152602001806195096031913960400191505060405180910390fd5b8060a00151600e60008873ffffffffffffffffffffffffffffffffffffffff1673ffffffffffffffffffffffffffffffffffffffff16815260200190815260200160002060000181905550600854600e60008873ffffffffffffffffffffffffffffffffffffffff1673ffffffffffffffffffffffffffffffffffffffff168152602001908152602001600020600101819055508060c001516009819055507f6fadbf7329d21f278e724fa0d4511001a158f2a97ee35c5bc4cf8b64417399ef87878360e001518460a001518560c00151866101000151604051808773ffffffffffffffffffffffffffffffffffffffff1681526020018673ffffffffffffffffffffffffffffffffffffffff168152602001858152602001848152602001838152602001828152602001965050505050505060405180910390a1600360019054906101000a900473ffffffffffffffffffffffffffffffffffffffff1673ffffffffffffffffffffffffffffffffffffffff16631ededc913089898560e0015186606001516040518663ffffffff1660e01b8152600401808673ffffffffffffffffffffffffffffffffffffffff1681526020018573ffffffffffffffffffffffffffffffffffffffff1681526020018473ffffffffffffffffffffffffffffffffffffffff16815260200183815260200182815260200195505050505050600060405180830381600087803b15801561757557600080fd5b505af1158015617589573d6000803e3d6000fd5b505050506000601081111561759a57fe5b8160e001519350935050505b935093915050565b6000808314806175be5750600082145b617613576040517f08c379a00000000000000000000000000000000000000000000000000000000081526004018080602001828103825260348152602001806195ca6034913960400191505060405180910390fd5b61761b6192a5565b61762361484d565b82602001836040018281525082600381111561763b57fe5b600381111561764657fe5b81525050506000600381111561765857fe5b8160200151600381111561766857fe5b14617691576176896009602c8360200151600381111561768457fe5b615aec565b915050617c94565b600084111561773357838160600181815250506176c06040518060200160405280836040015181525085614f77565b8260200183608001828152508260038111156176d857fe5b60038111156176e357fe5b8152505050600060038111156176f557fe5b8160200151600381111561770557fe5b1461772e576177266009602a8360200151600381111561772157fe5b615aec565b915050617c94565b6177c8565b61774f8360405180602001604052808460400151815250618f19565b82602001836060018281525082600381111561776757fe5b600381111561777257fe5b81525050506000600381111561778457fe5b8160200151600381111561779457fe5b146177bd576177b56009602b836020015160038111156177b057fe5b615aec565b915050617c94565b828160800181815250505b6000600360019054906101000a900473ffffffffffffffffffffffffffffffffffffffff1673ffffffffffffffffffffffffffffffffffffffff1663eabe7d91308885606001516040518463ffffffff1660e01b8152600401808473ffffffffffffffffffffffffffffffffffffffff1681526020018373ffffffffffffffffffffffffffffffffffffffff1681526020018281526020019350505050602060405180830381600087803b15801561787f57600080fd5b505af1158015617893573d6000803e3d6000fd5b505050506040513d60208110156178a957600080fd5b81019080805190602001909291905050509050600081146178da576178d16003602983615aec565b92505050617c94565b6178e2615489565b600754146178ff576178f6600a602d6150e5565b92505050617c94565b61790f600b548360600151615a4c565b836020018460a0018281525082600381111561792757fe5b600381111561793257fe5b81525050506000600381111561794457fe5b8260200151600381111561795457fe5b1461797e576179756009602f8460200151600381111561797057fe5b615aec565b92505050617c94565b6179cb600c60008873ffffffffffffffffffffffffffffffffffffffff1673ffffffffffffffffffffffffffffffffffffffff168152602001908152602001600020548360600151615a4c565b836020018460c001828152508260038111156179e357fe5b60038111156179ee57fe5b815250505060006003811115617a0057fe5b82602001516003811115617a1057fe5b14617a3a57617a316009602e84602001516003811115617a2c57fe5b615aec565b92505050617c94565b8160800151617a476143b9565b1015617a6257617a59600e60306150e5565b92505050617c94565b617a708683608001516143f7565b8160a00151600b819055508160c00151600c60008873ffffffffffffffffffffffffffffffffffffffff1673ffffffffffffffffffffffffffffffffffffffff168152602001908152602001600020819055503073ffffffffffffffffffffffffffffffffffffffff168673ffffffffffffffffffffffffffffffffffffffff167fddf252ad1be2c89b69c2b068fc378daa952ba7f163c4a11628f55a4df523b3ef84606001516040518082815260200191505060405180910390a37fe02f6383e19e87c24e0c03e2cd5dbd05156cb29a1b0f3dbca1fa3430e444f63d86836080015184606001518560a001518660c00151604051808673ffffffffffffffffffffffffffffffffffffffff1681526020018581526020018481526020018381526020018281526020019550505050505060405180910390a1600360019054906101000a900473ffffffffffffffffffffffffffffffffffffffff1673ffffffffffffffffffffffffffffffffffffffff166351dff9893088856080015186606001516040518563ffffffff1660e01b8152600401808573ffffffffffffffffffffffffffffffffffffffff1681526020018473ffffffffffffffffffffffffffffffffffffffff168152602001838152602001828152602001945050505050600060405180830381600087803b158015617c6a57600080fd5b505af1158015617c7e573d6000803e3d6000fd5b5050505060006010811115617c8f57fe5b925050505b9392505050565b6000806000841415617cb35760008091509150617ce1565b6000838502905083858281617cc457fe5b0414617cd857600260009250925050617ce1565b60008192509250505b9250929050565b6000806000831415617d01576001600091509150617d12565b6000838581617d0c57fe5b04915091505b9250929050565b601160019054906101000a900460ff1680617d385750617d37615922565b5b80617d505750601160009054906101000a900460ff16155b617da5576040517f08c379a000000000000000000000000000000000000000000000000000000000815260040180806020018281038252602e8152602001806194db602e913960400191505060405180910390fd5b6000601160019054906101000a900460ff161590508015617df7576001601160016101000a81548160ff0219169083151502179055506001601160006101000a81548160ff0219169083151502179055505b8015617e19576000601160016101000a81548160ff0219169083151502179055505b50565b601160019054906101000a900460ff1680617e3b5750617e3a615922565b5b80617e535750601160009054906101000a900460ff16155b617ea8576040517f08c379a000000000000000000000000000000000000000000000000000000000815260040180806020018281038252602e8152602001806194db602e913960400191505060405180910390fd5b6000601160019054906101000a900460ff161590508015617efa576001601160016101000a81548160ff0219169083151502179055506001601160006101000a81548160ff0219169083151502179055505b6000617f04614f6f565b905080607660006101000a81548173ffffffffffffffffffffffffffffffffffffffff021916908373ffffffffffffffffffffffffffffffffffffffff1602179055508073ffffffffffffffffffffffffffffffffffffffff16600073ffffffffffffffffffffffffffffffffffffffff167f8be0079c531659141344cd1fd0a4f28419497f9722a3daafe3b4186f6b6457e060405160405180910390a3508015617fc5576000601160016101000a81548160ff0219169083151502179055505b50565b6000806000600360019054906101000a900473ffffffffffffffffffffffffffffffffffffffff1673ffffffffffffffffffffffffffffffffffffffff16635fc7e71e30868a8a8a6040518663ffffffff1660e01b8152600401808673ffffffffffffffffffffffffffffffffffffffff1681526020018573ffffffffffffffffffffffffffffffffffffffff1681526020018473ffffffffffffffffffffffffffffffffffffffff1681526020018373ffffffffffffffffffffffffffffffffffffffff16815260200182815260200195505050505050602060405180830381600087803b1580156180ba57600080fd5b505af11580156180ce573d6000803e3d6000fd5b505050506040513d60208110156180e457600080fd5b81019080805190602001909291905050509050600081146181185761810c6003601383615aec565b600092509250506188a7565b618120615489565b6007541461814057618134600a60176150e5565b600092509250506188a7565b618148615489565b8473ffffffffffffffffffffffffffffffffffffffff16636c540baf6040518163ffffffff1660e01b815260040160206040518083038186803b15801561818e57600080fd5b505afa1580156181a2573d6000803e3d6000fd5b505050506040513d60208110156181b857600080fd5b8101908080519060200190929190505050146181e6576181da600a60126150e5565b600092509250506188a7565b8673ffffffffffffffffffffffffffffffffffffffff168673ffffffffffffffffffffffffffffffffffffffff16141561823257618226600660186150e5565b600092509250506188a7565b600085141561825357618247600760166150e5565b600092509250506188a7565b7fffffffffffffffffffffffffffffffffffffffffffffffffffffffffffffffff85141561829357618287600760156150e5565b600092509250506188a7565b6000806182a1898989616eff565b91509150600060108111156182b257fe5b82146182dc576182ce8260108111156182c757fe5b60196150e5565b6000945094505050506188a7565b600080600360019054906101000a900473ffffffffffffffffffffffffffffffffffffffff1673ffffffffffffffffffffffffffffffffffffffff1663c488847b308a866040518463ffffffff1660e01b8152600401808473ffffffffffffffffffffffffffffffffffffffff1681526020018373ffffffffffffffffffffffffffffffffffffffff1681526020018281526020019350505050604080518083038186803b15801561838d57600080fd5b505afa1580156183a1573d6000803e3d6000fd5b505050506040513d60408110156183b757600080fd5b81019080805190602001909291908051906020019092919050505091509150600060108111156183e357fe5b821461843a576040517f08c379a000000000000000000000000000000000000000000000000000000000815260040180806020018281038252603381526020018061953a6033913960400191505060405180910390fd5b808873ffffffffffffffffffffffffffffffffffffffff166370a082318c6040518263ffffffff1660e01b8152600401808273ffffffffffffffffffffffffffffffffffffffff16815260200191505060206040518083038186803b1580156184a257600080fd5b505afa1580156184b6573d6000803e3d6000fd5b505050506040513d60208110156184cc57600080fd5b81019080805190602001909291905050501015618551576040517f08c379a00000000000000000000000000000000000000000000000000000000081526004018080602001828103825260188152602001807f4c49515549444154455f5345495a455f544f4f5f4d554348000000000000000081525060200191505060405180910390fd5b60003073ffffffffffffffffffffffffffffffffffffffff168973ffffffffffffffffffffffffffffffffffffffff16141561859a57618593308d8d85615dc3565b9050618667565b8873ffffffffffffffffffffffffffffffffffffffff1663b2a02ff18d8d856040518463ffffffff1660e01b8152600401808473ffffffffffffffffffffffffffffffffffffffff1681526020018373ffffffffffffffffffffffffffffffffffffffff1681526020018281526020019350505050602060405180830381600087803b15801561862957600080fd5b505af115801561863d573d6000803e3d6000fd5b505050506040513d602081101561865357600080fd5b810190808051906020019092919050505090505b6000601081111561867457fe5b81146186e8576040517f08c379a00000000000000000000000000000000000000000000000000000000081526004018080602001828103825260148152602001807f746f6b656e207365697a757265206661696c656400000000000000000000000081525060200191505060405180910390fd5b7f298637f684da70674f26509b10f07ec2fbc77a335ab1e7d6215a4b2484d8bb528c8c868c86604051808673ffffffffffffffffffffffffffffffffffffffff1681526020018573ffffffffffffffffffffffffffffffffffffffff1681526020018481526020018373ffffffffffffffffffffffffffffffffffffffff1681526020018281526020019550505050505060405180910390a1600360019054906101000a900473ffffffffffffffffffffffffffffffffffffffff1673ffffffffffffffffffffffffffffffffffffffff166347ef3b3b308b8f8f89886040518763ffffffff1660e01b8152600401808773ffffffffffffffffffffffffffffffffffffffff1681526020018673ffffffffffffffffffffffffffffffffffffffff1681526020018573ffffffffffffffffffffffffffffffffffffffff1681526020018473ffffffffffffffffffffffffffffffffffffffff1681526020018381526020018281526020019650505050505050600060405180830381600087803b15801561887657600080fd5b505af115801561888a573d6000803e3d6000fd5b505050506000601081111561889b57fe5b84975097505050505050505b94509492505050565b600080600360019054906101000a900473ffffffffffffffffffffffffffffffffffffffff1673ffffffffffffffffffffffffffffffffffffffff1663da3d454c3086866040518463ffffffff1660e01b8152600401808473ffffffffffffffffffffffffffffffffffffffff1681526020018373ffffffffffffffffffffffffffffffffffffffff1681526020018281526020019350505050602060405180830381600087803b15801561896457600080fd5b505af1158015618978573d6000803e3d6000fd5b505050506040513d602081101561898e57600080fd5b81019080805190602001909291905050509050600081146189be576189b66003600f83615aec565b915050618df2565b6189c6615489565b600754146189e2576189da600a600b6150e5565b915050618df2565b826189eb6143b9565b1015618a05576189fd600e600a6150e5565b915050618df2565b618a0d6192f8565b618a1685618f79565b826000018360800182815250826003811115618a2e57fe5b6003811115618a3957fe5b815250505060006003811115618a4b57fe5b81600001516003811115618a5b57fe5b14618a8557618a7c6009600783600001516003811115618a7757fe5b615aec565b92505050618df2565b618a8e85615820565b826000018360200182815250826003811115618aa657fe5b6003811115618ab157fe5b815250505060006003811115618ac357fe5b81600001516003811115618ad357fe5b14618afd57618af46009600883600001516003811115618aef57fe5b615aec565b92505050618df2565b618b0b816020015185615b60565b826000018360400182815250826003811115618b2357fe5b6003811115618b2e57fe5b815250505060006003811115618b4057fe5b81600001516003811115618b5057fe5b14618b7a57618b716009600d83600001516003811115618b6c57fe5b615aec565b92505050618df2565b618b8660095485615b60565b826000018360600182815250826003811115618b9e57fe5b6003811115618ba957fe5b815250505060006003811115618bbb57fe5b81600001516003811115618bcb57fe5b14618bf557618bec6009600c83600001516003811115618be757fe5b615aec565b92505050618df2565b618bff85856143f7565b8060400151600e60008773ffffffffffffffffffffffffffffffffffffffff1673ffffffffffffffffffffffffffffffffffffffff16815260200190815260200160002060000181905550600854600e60008773ffffffffffffffffffffffffffffffffffffffff1673ffffffffffffffffffffffffffffffffffffffff1681526020019081526020016000206001018190555080606001516009819055507f2dd79f4fccfd18c360ce7f9132f3621bf05eee18f995224badb32d17f172df738585836040015184606001518560800151604051808673ffffffffffffffffffffffffffffffffffffffff1681526020018581526020018481526020018381526020018281526020019550505050505060405180910390a1600360019054906101000a900473ffffffffffffffffffffffffffffffffffffffff1673ffffffffffffffffffffffffffffffffffffffff16635c7786053087876040518463ffffffff1660e01b8152600401808473ffffffffffffffffffffffffffffffffffffffff1681526020018373ffffffffffffffffffffffffffffffffffffffff1681526020018281526020019350505050600060405180830381600087803b158015618dc857600080fd5b505af1158015618ddc573d6000803e3d6000fd5b5050505060006010811115618ded57fe5b925050505b92915050565b60008273ffffffffffffffffffffffffffffffffffffffff163373ffffffffffffffffffffffffffffffffffffffff1614618e9b576040517f08c379a000000000000000000000000000000000000000000000000000000000815260040180806020018281038252600f8152602001807f73656e646572206d69736d61746368000000000000000000000000000000000081525060200191505060405180910390fd5b813414618f10576040517f08c379a000000000000000000000000000000000000000000000000000000000815260040180806020018281038252600e8152602001807f76616c7565206d69736d6174636800000000000000000000000000000000000081525060200191505060405180910390fd5b81905092915050565b6000806000618f2661915d565b618f3086866190e4565b9150915060006003811115618f4157fe5b826003811115618f4d57fe5b14618f6057816000935093505050618f72565b6000618f6b82616ee0565b9350935050505b9250929050565b6000806000806000806000600e60008973ffffffffffffffffffffffffffffffffffffffff1673ffffffffffffffffffffffffffffffffffffffff1681526020019081526020016000209050600081600001541415618fe3576000809650965050505050506190df565b618ff38160000154600854617c9b565b80955081965050506000600381111561900857fe5b85600381111561901457fe5b1461902a578460009650965050505050506190df565b600081600101541415619048576000809650965050505050506190df565b619056848260010154617ce8565b80945081965050506000600381111561906b57fe5b85600381111561907757fe5b1461908d578460009650965050505050506190df565b61909b838260000154615a4c565b8093508196505050600060038111156190b057fe5b8560038111156190bc57fe5b146190d2578460009650965050505050506190df565b6000829650965050505050505b915091565b60006190ee61915d565b600080619103670de0b6b3a764000087617c9b565b915091506000600381111561911457fe5b82600381111561912057fe5b14619141578160405180602001604052806000815250935093505050619156565b61914f818660000151616e15565b9350935050505b9250929050565b6040518060200160405280600081525090565b828054600181600116156101000203166002900490600052602060002090601f016020900481019282601f106191b157805160ff19168380011785556191df565b828001600101855582156191df579182015b828111156191de5782518255916020019190600101906191c3565b5b5090506191ec9190619332565b5090565b6040518060e001604052806000601081111561920857fe5b81526020016000600381111561921a57fe5b815260200160008152602001600081526020016000815260200160008152602001600081525090565b6040518061012001604052806000601081111561925c57fe5b81526020016000600381111561926e57fe5b8152602001600081526020016000815260200160008152602001600081526020016000815260200160008152602001600081525090565b6040518060e00160405280600060108111156192bd57fe5b8152602001600060038111156192cf57fe5b815260200160008152602001600081526020016000815260200160008152602001600081525090565b6040518060a001604052806000600381111561931057fe5b8152602001600081526020016000815260200160008152602001600081525090565b5b8082111561934b576000816000905550600101619333565b509056fe6d61726b6574206d6179206f6e6c7920626520696e697469616c697a6564206f6e63654f776e61626c653a206e6577206f776e657220697320746865207a65726f20616464726573735468652061637475616c2062616c616e636520697320696e636f6e73697374656e746d696e74496e7465726e616c466f724d6967726174653a2063616c6c6572206973206e6f7420746865206d69677261746f72696e697469616c2065786368616e67652072617465206d7573742062652067726561746572207468616e207a65726f2e73657474696e6720696e7465726573742072617465206d6f64656c206661696c65644d494e545f4e45575f4143434f554e545f42414c414e43455f43414c43554c4154494f4e5f4641494c4544626f72726f7742616c616e636553746f7265643a20626f72726f7742616c616e636553746f726564496e7465726e616c206661696c656452455041595f424f52524f575f4e45575f4143434f554e545f424f52524f575f42414c414e43455f43414c43554c4154494f4e5f4641494c4544436f6e747261637420696e7374616e63652068617320616c7265616479206265656e20696e697469616c697a656452455041595f424f52524f575f4e45575f544f54414c5f42414c414e43455f43414c43554c4154494f4e5f4641494c45444c49515549444154455f434f4d5054524f4c4c45525f43414c43554c4154455f414d4f554e545f5345495a455f4641494c454465786368616e67655261746553746f7265643a2065786368616e67655261746553746f726564496e7465726e616c206661696c65644d494e545f4e45575f544f54414c5f535550504c595f43414c43554c4154494f4e5f4641494c45446f6e65206f662072656465656d546f6b656e73496e206f722072656465656d416d6f756e74496e206d757374206265207a65726f72656475636520726573657276657320756e657870656374656420756e646572666c6f77a264697066735822122082914a3a160bcfac61da33208beb69aac6044785bf36d931c3e38895df24aed364736f6c634300060c0033",
  "compiler": {
    "name": "solc",
    "version": "0.6.12+commit.27d51765.Emscripten.clang",
    "optimizer": {
      "enabled": false,
      "runs": 200
    },
    "evmVersion": "istanbul"
  }
}