{
  "fileName": "PiggyDistribution.sol",
  "contractName": "PiggyDistribution",
  "source": "pragma solidity 0.6.12;\n\nimport \"../libs/Exponential.sol\";\nimport \"../token/PToken.sol\";\nimport \"@openzeppelin/contracts-ethereum-package/contracts/token/ERC20/IERC20.sol\";\nimport \"@openzeppelin/contracts-ethereum-package/contracts/access/Ownable.sol\";\nimport \"../comptroller/ComptrollerStorage.sol\";\nimport \"../comptroller/Comptroller.sol\";\nimport \"../comptroller/ComptrollerStorage.sol\";\n\ninterface IPiggyDistribution {\n\n    function distributeMintWpc(address pToken, address minter, bool distributeAll) external;\n\n    function distributeRedeemWpc(address pToken, address redeemer, bool distributeAll) external;\n\n    function distributeBorrowWpc(address pToken, address borrower, bool distributeAll) external;\n\n    function distributeRepayBorrowWpc(address pToken, address borrower, bool distributeAll) external;\n\n    function distributeSeizeWpc(address pTokenCollateral, address borrower, address liquidator, bool distributeAll) external;\n\n    function distributeTransferWpc(address pToken, address src, address dst, bool distributeAll) external;\n\n}\n\ninterface IPiggyBreeder {\n    function stake(uint256 _pid, uint256 _amount) external;\n\n    function unStake(uint256 _pid, uint256 _amount) external;\n\n    function claim(uint256 _pid) external;\n\n    function emergencyWithdraw(uint256 _pid) external;\n}\n\ncontract PiggyDistribution is IPiggyDistribution, Exponential, OwnableUpgradeSafe {\n\n    IERC20 public piggy;\n\n    IPiggyBreeder public piggyBreeder;\n\n    Comptroller public comptroller;\n\n    //PIGGY-MODIFY: Copy and modify from ComptrollerV3Storage\n\n    struct WpcMarketState {\n        /// @notice The market's last updated compBorrowIndex or compSupplyIndex\n        uint224 index;\n\n        /// @notice The block number the index was last updated at\n        uint32 block;\n    }\n\n    /// @notice The portion of compRate that each market currently receives\n    mapping(address => uint) public wpcSpeeds;\n\n    /// @notice The WPC market supply state for each market\n    mapping(address => WpcMarketState) public wpcSupplyState;\n\n    /// @notice The WPC market borrow state for each market\n    mapping(address => WpcMarketState) public wpcBorrowState;\n\n    /// @notice The WPC borrow index for each market for each supplier as of the last time they accrued WPC\n    mapping(address => mapping(address => uint)) public wpcSupplierIndex;\n\n    /// @notice The WPC borrow index for each market for each borrower as of the last time they accrued WPC\n    mapping(address => mapping(address => uint)) public wpcBorrowerIndex;\n\n    /// @notice The WPC accrued but not yet transferred to each user\n    mapping(address => uint) public wpcAccrued;\n\n    /// @notice The threshold above which the flywheel transfers WPC, in wei\n    uint public constant wpcClaimThreshold = 0.001e18;\n\n    /// @notice The initial WPC index for a market\n    uint224 public constant wpcInitialIndex = 1e36;\n\n    bool public enableWpcClaim;\n    bool public enableDistributeMintWpc;\n    bool public enableDistributeRedeemWpc;\n    bool public enableDistributeBorrowWpc;\n    bool public enableDistributeRepayBorrowWpc;\n    bool public enableDistributeSeizeWpc;\n    bool public enableDistributeTransferWpc;\n\n\n    /// @notice Emitted when a new WPC speed is calculated for a market\n    event WpcSpeedUpdated(PToken indexed pToken, uint newSpeed);\n\n    /// @notice Emitted when WPC is distributed to a supplier\n    event DistributedSupplierWpc(PToken indexed pToken, address indexed supplier, uint wpcDelta, uint wpcSupplyIndex);\n\n    /// @notice Emitted when WPC is distributed to a borrower\n    event DistributedBorrowerWpc(PToken indexed pToken, address indexed borrower, uint wpcDelta, uint wpcBorrowIndex);\n\n    event StakeTokenToPiggyBreeder(IERC20 token, uint pid, uint amount);\n\n    event ClaimWpcFromPiggyBreeder(uint pid);\n\n    event EnableState(string action, bool state);\n\n    function initialize(IERC20 _piggy, IPiggyBreeder _piggyBreeder, Comptroller _comptroller) public initializer {\n\n        piggy = _piggy;\n        piggyBreeder = _piggyBreeder;\n        comptroller = _comptroller;\n\n        enableWpcClaim = false;\n        enableDistributeMintWpc = false;\n        enableDistributeRedeemWpc = false;\n        enableDistributeBorrowWpc = false;\n        enableDistributeRepayBorrowWpc = false;\n        enableDistributeSeizeWpc = false;\n        enableDistributeTransferWpc = false;\n\n        super.__Ownable_init();\n    }\n\n    function distributeMintWpc(address pToken, address minter, bool distributeAll) public override(IPiggyDistribution) {\n        require(msg.sender == address(comptroller) || msg.sender == owner(), \"only comptroller or owner\");\n        if (enableDistributeMintWpc) {\n            updateWpcSupplyIndex(pToken);\n            distributeSupplierWpc(pToken, minter, distributeAll);\n        }\n    }\n\n    function distributeRedeemWpc(address pToken, address redeemer, bool distributeAll) public override(IPiggyDistribution) {\n        require(msg.sender == address(comptroller) || msg.sender == owner(), \"only comptroller or owner\");\n        if (enableDistributeRedeemWpc) {\n            updateWpcSupplyIndex(pToken);\n            distributeSupplierWpc(pToken, redeemer, distributeAll);\n        }\n    }\n\n    function distributeBorrowWpc(address pToken, address borrower, bool distributeAll) public override(IPiggyDistribution) {\n\n        require(msg.sender == address(comptroller) || msg.sender == owner(), \"only comptroller or owner\");\n\n        if (enableDistributeBorrowWpc) {\n            Exp memory borrowIndex = Exp({mantissa : PToken(pToken).borrowIndex()});\n            updateWpcBorrowIndex(pToken, borrowIndex);\n            distributeBorrowerWpc(pToken, borrower, borrowIndex, distributeAll);\n        }\n\n\n    }\n\n    function distributeRepayBorrowWpc(address pToken, address borrower, bool distributeAll) public override(IPiggyDistribution) {\n\n        require(msg.sender == address(comptroller) || msg.sender == owner(), \"only comptroller or owner\");\n\n        if (enableDistributeRepayBorrowWpc) {\n            Exp memory borrowIndex = Exp({mantissa : PToken(pToken).borrowIndex()});\n            updateWpcBorrowIndex(pToken, borrowIndex);\n            distributeBorrowerWpc(pToken, borrower, borrowIndex, distributeAll);\n        }\n\n    }\n\n    function distributeSeizeWpc(address pTokenCollateral, address borrower, address liquidator, bool distributeAll) public override(IPiggyDistribution) {\n\n        require(msg.sender == address(comptroller) || msg.sender == owner(), \"only comptroller or owner\");\n\n        if (enableDistributeSeizeWpc) {\n            updateWpcSupplyIndex(pTokenCollateral);\n            distributeSupplierWpc(pTokenCollateral, borrower, distributeAll);\n            distributeSupplierWpc(pTokenCollateral, liquidator, distributeAll);\n        }\n\n    }\n\n    function distributeTransferWpc(address pToken, address src, address dst, bool distributeAll) public override(IPiggyDistribution) {\n\n        require(msg.sender == address(comptroller) || msg.sender == owner(), \"only comptroller or owner\");\n\n        if (enableDistributeTransferWpc) {\n            updateWpcSupplyIndex(pToken);\n            distributeSupplierWpc(pToken, src, distributeAll);\n            distributeSupplierWpc(pToken, dst, distributeAll);\n        }\n\n    }\n\n    function _stakeTokenToPiggyBreeder(IERC20 token, uint pid) public onlyOwner {\n        uint amount = token.balanceOf(address(this));\n        token.approve(address(piggyBreeder), amount);\n        piggyBreeder.stake(pid, amount);\n        emit StakeTokenToPiggyBreeder(token, pid, amount);\n    }\n\n    function _claimWpcFromPiggyBreeder(uint pid) public onlyOwner {\n        piggyBreeder.claim(pid);\n        emit ClaimWpcFromPiggyBreeder(pid);\n    }\n\n    function setWpcSpeedInternal(PToken pToken, uint wpcSpeed) internal {\n        uint currentWpcSpeed = wpcSpeeds[address(pToken)];\n        if (currentWpcSpeed != 0) {\n            // note that WPC speed could be set to 0 to halt liquidity rewards for a market\n            Exp memory borrowIndex = Exp({mantissa : pToken.borrowIndex()});\n            updateWpcSupplyIndex(address(pToken));\n            updateWpcBorrowIndex(address(pToken), borrowIndex);\n        } else if (wpcSpeed != 0) {\n\n            require(comptroller.isMarketListed(address(pToken)), \"wpc market is not listed\");\n\n            if (comptroller.isMarketMinted(address(pToken)) == false) {\n                comptroller._setMarketMinted(address(pToken), true);\n            }\n\n            if (wpcSupplyState[address(pToken)].index == 0 && wpcSupplyState[address(pToken)].block == 0) {\n                wpcSupplyState[address(pToken)] = WpcMarketState({\n                index : wpcInitialIndex,\n                block : safe32(block.number, \"block number exceeds 32 bits\")\n                });\n            }\n\n            if (wpcBorrowState[address(pToken)].index == 0 && wpcBorrowState[address(pToken)].block == 0) {\n                wpcBorrowState[address(pToken)] = WpcMarketState({\n                index : wpcInitialIndex,\n                block : safe32(block.number, \"block number exceeds 32 bits\")\n                });\n            }\n\n        }\n\n        if (currentWpcSpeed != wpcSpeed) {\n            wpcSpeeds[address(pToken)] = wpcSpeed;\n            emit WpcSpeedUpdated(pToken, wpcSpeed);\n        }\n\n    }\n\n    /**\n     * @notice Accrue WPC to the market by updating the supply index\n     * @param pToken The market whose supply index to update\n     */\n    function updateWpcSupplyIndex(address pToken) internal {\n        WpcMarketState storage supplyState = wpcSupplyState[pToken];\n        uint supplySpeed = wpcSpeeds[pToken];\n        uint blockNumber = block.number;\n        uint deltaBlocks = sub_(blockNumber, uint(supplyState.block));\n        if (deltaBlocks > 0 && supplySpeed > 0) {\n            uint supplyTokens = PToken(pToken).totalSupply();\n            uint wpcAccrued = mul_(deltaBlocks, supplySpeed);\n            Double memory ratio = supplyTokens > 0 ? fraction(wpcAccrued, supplyTokens) : Double({mantissa : 0});\n            Double memory index = add_(Double({mantissa : supplyState.index}), ratio);\n            wpcSupplyState[pToken] = WpcMarketState({\n            index : safe224(index.mantissa, \"new index exceeds 224 bits\"),\n            block : safe32(blockNumber, \"block number exceeds 32 bits\")\n            });\n        } else if (deltaBlocks > 0) {\n            supplyState.block = safe32(blockNumber, \"block number exceeds 32 bits\");\n        }\n    }\n\n    /**\n     * @notice Accrue WPC to the market by updating the borrow index\n     * @param pToken The market whose borrow index to update\n     */\n    function updateWpcBorrowIndex(address pToken, Exp memory marketBorrowIndex) internal {\n        WpcMarketState storage borrowState = wpcBorrowState[pToken];\n        uint borrowSpeed = wpcSpeeds[pToken];\n        uint blockNumber = block.number;\n        uint deltaBlocks = sub_(blockNumber, uint(borrowState.block));\n        if (deltaBlocks > 0 && borrowSpeed > 0) {\n            uint borrowAmount = div_(PToken(pToken).totalBorrows(), marketBorrowIndex);\n            uint wpcAccrued = mul_(deltaBlocks, borrowSpeed);\n            Double memory ratio = borrowAmount > 0 ? fraction(wpcAccrued, borrowAmount) : Double({mantissa : 0});\n            Double memory index = add_(Double({mantissa : borrowState.index}), ratio);\n            wpcBorrowState[pToken] = WpcMarketState({\n            index : safe224(index.mantissa, \"new index exceeds 224 bits\"),\n            block : safe32(blockNumber, \"block number exceeds 32 bits\")\n            });\n        } else if (deltaBlocks > 0) {\n            borrowState.block = safe32(blockNumber, \"block number exceeds 32 bits\");\n        }\n    }\n\n    /**\n     * @notice Calculate WPC accrued by a supplier and possibly transfer it to them\n     * @param pToken The market in which the supplier is interacting\n     * @param supplier The address of the supplier to distribute WPC to\n     */\n    function distributeSupplierWpc(address pToken, address supplier, bool distributeAll) internal {\n        WpcMarketState storage supplyState = wpcSupplyState[pToken];\n        Double memory supplyIndex = Double({mantissa : supplyState.index});\n        Double memory supplierIndex = Double({mantissa : wpcSupplierIndex[pToken][supplier]});\n        wpcSupplierIndex[pToken][supplier] = supplyIndex.mantissa;\n\n        if (supplierIndex.mantissa == 0 && supplyIndex.mantissa > 0) {\n            supplierIndex.mantissa = wpcInitialIndex;\n        }\n\n        Double memory deltaIndex = sub_(supplyIndex, supplierIndex);\n        uint supplierTokens = PToken(pToken).balanceOf(supplier);\n        uint supplierDelta = mul_(supplierTokens, deltaIndex);\n        uint supplierAccrued = add_(wpcAccrued[supplier], supplierDelta);\n        wpcAccrued[supplier] = grantWpcInternal(supplier, supplierAccrued, distributeAll ? 0 : wpcClaimThreshold);\n        emit DistributedSupplierWpc(PToken(pToken), supplier, supplierDelta, supplyIndex.mantissa);\n    }\n\n\n    /**\n     * @notice Calculate WPC accrued by a borrower and possibly transfer it to them\n     * @dev Borrowers will not begin to accrue until after the first interaction with the protocol.\n     * @param pToken The market in which the borrower is interacting\n     * @param borrower The address of the borrower to distribute WPC to\n     */\n    function distributeBorrowerWpc(address pToken, address borrower, Exp memory marketBorrowIndex, bool distributeAll) internal {\n        WpcMarketState storage borrowState = wpcBorrowState[pToken];\n        Double memory borrowIndex = Double({mantissa : borrowState.index});\n        Double memory borrowerIndex = Double({mantissa : wpcBorrowerIndex[pToken][borrower]});\n        wpcBorrowerIndex[pToken][borrower] = borrowIndex.mantissa;\n\n        if (borrowerIndex.mantissa > 0) {\n            Double memory deltaIndex = sub_(borrowIndex, borrowerIndex);\n            uint borrowerAmount = div_(PToken(pToken).borrowBalanceStored(borrower), marketBorrowIndex);\n            uint borrowerDelta = mul_(borrowerAmount, deltaIndex);\n            uint borrowerAccrued = add_(wpcAccrued[borrower], borrowerDelta);\n            wpcAccrued[borrower] = grantWpcInternal(borrower, borrowerAccrued, distributeAll ? 0 : wpcClaimThreshold);\n            emit DistributedBorrowerWpc(PToken(pToken), borrower, borrowerDelta, borrowIndex.mantissa);\n        }\n    }\n\n\n    /**\n     * @notice Transfer WPC to the user, if they are above the threshold\n     * @dev Note: If there is not enough WPC, we do not perform the transfer all.\n     * @param user The address of the user to transfer WPC to\n     * @param userAccrued The amount of WPC to (possibly) transfer\n     * @return The amount of WPC which was NOT transferred to the user\n     */\n    function grantWpcInternal(address user, uint userAccrued, uint threshold) internal returns (uint) {\n\n        if (userAccrued >= threshold && userAccrued > 0) {\n            uint wpcRemaining = piggy.balanceOf(address(this));\n            if (userAccrued <= wpcRemaining) {\n                piggy.transfer(user, userAccrued);\n                return 0;\n            }\n        }\n        return userAccrued;\n    }\n\n    /**\n     * @notice Claim all the wpc accrued by holder in all markets\n     * @param holder The address to claim WPC for\n     */\n    function claimWpc(address holder) public {\n        claimWpc(holder, comptroller.getAllMarkets());\n    }\n\n    /**\n     * @notice Claim all the comp accrued by holder in the specified markets\n     * @param holder The address to claim WPC for\n     * @param pTokens The list of markets to claim WPC in\n     */\n    function claimWpc(address holder, PToken[] memory pTokens) public {\n        address[] memory holders = new address[](1);\n        holders[0] = holder;\n        claimWpc(holders, pTokens, true, false);\n    }\n\n    /**\n     * @notice Claim all wpc accrued by the holders\n     * @param holders The addresses to claim WPC for\n     * @param pTokens The list of markets to claim WPC in\n     * @param borrowers Whether or not to claim WPC earned by borrowing\n     * @param suppliers Whether or not to claim WPC earned by supplying\n     */\n    function claimWpc(address[] memory holders, PToken[] memory pTokens, bool borrowers, bool suppliers) public {\n        require(enableWpcClaim, \"Claim is not enabled\");\n\n        for (uint i = 0; i < pTokens.length; i++) {\n            PToken pToken = pTokens[i];\n            require(comptroller.isMarketListed(address(pToken)), \"market must be listed\");\n            if (borrowers == true) {\n                Exp memory borrowIndex = Exp({mantissa : pToken.borrowIndex()});\n                updateWpcBorrowIndex(address(pToken), borrowIndex);\n                for (uint j = 0; j < holders.length; j++) {\n                    distributeBorrowerWpc(address(pToken), holders[j], borrowIndex, true);\n                }\n            }\n            if (suppliers == true) {\n                updateWpcSupplyIndex(address(pToken));\n                for (uint j = 0; j < holders.length; j++) {\n                    distributeSupplierWpc(address(pToken), holders[j], true);\n                }\n            }\n        }\n\n    }\n\n    /*** WPC Distribution Admin ***/\n\n    function _setWpcSpeed(PToken pToken, uint wpcSpeed) public onlyOwner {\n        setWpcSpeedInternal(pToken, wpcSpeed);\n    }\n\n    function _setEnableWpcClaim(bool state) public onlyOwner {\n        enableWpcClaim = state;\n        emit EnableState(\"enableWpcClaim\", state);\n    }\n\n    function _setEnableDistributeMintWpc(bool state) public onlyOwner {\n        enableDistributeMintWpc = state;\n        emit EnableState(\"enableDistributeMintWpc\", state);\n    }\n\n    function _setEnableDistributeRedeemWpc(bool state) public onlyOwner {\n        enableDistributeRedeemWpc = state;\n        emit EnableState(\"enableDistributeRedeemWpc\", state);\n    }\n\n    function _setEnableDistributeBorrowWpc(bool state) public onlyOwner {\n        enableDistributeBorrowWpc = state;\n        emit EnableState(\"enableDistributeBorrowWpc\", state);\n    }\n\n    function _setEnableDistributeRepayBorrowWpc(bool state) public onlyOwner {\n        enableDistributeRepayBorrowWpc = state;\n        emit EnableState(\"enableDistributeRepayBorrowWpc\", state);\n    }\n\n    function _setEnableDistributeSeizeWpc(bool state) public onlyOwner {\n        enableDistributeSeizeWpc = state;\n        emit EnableState(\"enableDistributeSeizeWpc\", state);\n    }\n\n    function _setEnableDistributeTransferWpc(bool state) public onlyOwner {\n        enableDistributeTransferWpc = state;\n        emit EnableState(\"enableDistributeTransferWpc\", state);\n    }\n\n    function _setEnableAll(bool state) public onlyOwner {\n        _setEnableDistributeMintWpc(state);\n        _setEnableDistributeRedeemWpc(state);\n        _setEnableDistributeBorrowWpc(state);\n        _setEnableDistributeRepayBorrowWpc(state);\n        _setEnableDistributeSeizeWpc(state);\n        _setEnableDistributeTransferWpc(state);\n        _setEnableWpcClaim(state);\n    }\n\n    function _transferWpc(address to, uint amount) public onlyOwner {\n        _transferToken(address(piggy), to, amount);\n    }\n\n    function _transferToken(address token, address to, uint amount) public onlyOwner {\n        IERC20 erc20 = IERC20(token);\n\n        uint balance = erc20.balanceOf(address(this));\n        if (balance < amount) {\n            amount = balance;\n        }\n\n        erc20.transfer(to, amount);\n    }\n\n    function pendingWpcAccrued(address holder, bool borrowers, bool suppliers) public view returns (uint256){\n        return pendingWpcInternal(holder, borrowers, suppliers);\n    }\n\n    function pendingWpcInternal(address holder, bool borrowers, bool suppliers) internal view returns (uint256){\n\n        uint256 pendingWpc = wpcAccrued[holder];\n\n        PToken[] memory pTokens = comptroller.getAllMarkets();\n        for (uint i = 0; i < pTokens.length; i++) {\n            address pToken = address(pTokens[i]);\n            uint tmp = 0;\n            if (borrowers == true) {\n                tmp = pendingWpcBorrowInternal(holder, pToken);\n                pendingWpc = add_(pendingWpc, tmp);\n            }\n            if (suppliers == true) {\n                tmp = pendingWpcSupplyInternal(holder, pToken);\n                pendingWpc = add_(pendingWpc, tmp);\n            }\n        }\n\n        return pendingWpc;\n    }\n\n    function pendingWpcBorrowInternal(address borrower, address pToken) internal view returns (uint256){\n        if (enableDistributeBorrowWpc && enableDistributeRepayBorrowWpc) {\n            Exp memory marketBorrowIndex = Exp({mantissa : PToken(pToken).borrowIndex()});\n            WpcMarketState memory borrowState = pendingWpcBorrowIndex(pToken, marketBorrowIndex);\n\n            Double memory borrowIndex = Double({mantissa : borrowState.index});\n            Double memory borrowerIndex = Double({mantissa : wpcBorrowerIndex[pToken][borrower]});\n            if (borrowerIndex.mantissa > 0) {\n                Double memory deltaIndex = sub_(borrowIndex, borrowerIndex);\n                uint borrowerAmount = div_(PToken(pToken).borrowBalanceStored(borrower), marketBorrowIndex);\n                uint borrowerDelta = mul_(borrowerAmount, deltaIndex);\n                return borrowerDelta;\n            }\n        }\n        return 0;\n    }\n\n    function pendingWpcBorrowIndex(address pToken, Exp memory marketBorrowIndex) internal view returns (WpcMarketState memory){\n        WpcMarketState memory borrowState = wpcBorrowState[pToken];\n        uint borrowSpeed = wpcSpeeds[pToken];\n        uint blockNumber = block.number;\n        uint deltaBlocks = sub_(blockNumber, uint(borrowState.block));\n        if (deltaBlocks > 0 && borrowSpeed > 0) {\n            uint borrowAmount = div_(PToken(pToken).totalBorrows(), marketBorrowIndex);\n            uint wpcAccrued = mul_(deltaBlocks, borrowSpeed);\n            Double memory ratio = borrowAmount > 0 ? fraction(wpcAccrued, borrowAmount) : Double({mantissa : 0});\n            Double memory index = add_(Double({mantissa : borrowState.index}), ratio);\n            borrowState = WpcMarketState({\n            index : safe224(index.mantissa, \"new index exceeds 224 bits\"),\n            block : safe32(blockNumber, \"block number exceeds 32 bits\")\n            });\n        } else if (deltaBlocks > 0) {\n            borrowState = WpcMarketState({\n            index : borrowState.index,\n            block : safe32(blockNumber, \"block number exceeds 32 bits\")\n            });\n        }\n        return borrowState;\n    }\n\n    function pendingWpcSupplyInternal(address supplier, address pToken) internal view returns (uint256){\n        if (enableDistributeMintWpc && enableDistributeRedeemWpc) {\n            WpcMarketState memory supplyState = pendingWpcSupplyIndex(pToken);\n            Double memory supplyIndex = Double({mantissa : supplyState.index});\n            Double memory supplierIndex = Double({mantissa : wpcSupplierIndex[pToken][supplier]});\n            if (supplierIndex.mantissa == 0 && supplyIndex.mantissa > 0) {\n                supplierIndex.mantissa = wpcInitialIndex;\n            }\n            Double memory deltaIndex = sub_(supplyIndex, supplierIndex);\n            uint supplierTokens = PToken(pToken).balanceOf(supplier);\n            uint supplierDelta = mul_(supplierTokens, deltaIndex);\n            return supplierDelta;\n        }\n        return 0;\n    }\n\n    function pendingWpcSupplyIndex(address pToken) internal view returns (WpcMarketState memory){\n        WpcMarketState memory supplyState = wpcSupplyState[pToken];\n        uint supplySpeed = wpcSpeeds[pToken];\n        uint blockNumber = block.number;\n        uint deltaBlocks = sub_(blockNumber, uint(supplyState.block));\n\n        if (deltaBlocks > 0 && supplySpeed > 0) {\n            uint supplyTokens = PToken(pToken).totalSupply();\n            uint wpcAccrued = mul_(deltaBlocks, supplySpeed);\n            Double memory ratio = supplyTokens > 0 ? fraction(wpcAccrued, supplyTokens) : Double({mantissa : 0});\n            Double memory index = add_(Double({mantissa : supplyState.index}), ratio);\n            supplyState = WpcMarketState({\n            index : safe224(index.mantissa, \"new index exceeds 224 bits\"),\n            block : safe32(blockNumber, \"block number exceeds 32 bits\")\n            });\n        } else if (deltaBlocks > 0) {\n            supplyState = WpcMarketState({\n            index : supplyState.index,\n            block : safe32(blockNumber, \"block number exceeds 32 bits\")\n            });\n        }\n        return supplyState;\n    }\n\n}",
  "sourcePath": "contracts/farm/PiggyDistribution.sol",
  "abi": [
    {
      "anonymous": false,
      "inputs": [
        {
          "indexed": false,
          "internalType": "uint256",
          "name": "pid",
          "type": "uint256"
        }
      ],
      "name": "ClaimWpcFromPiggyBreeder",
      "type": "event"
    },
    {
      "anonymous": false,
      "inputs": [
        {
          "indexed": true,
          "internalType": "contract PToken",
          "name": "pToken",
          "type": "address"
        },
        {
          "indexed": true,
          "internalType": "address",
          "name": "borrower",
          "type": "address"
        },
        {
          "indexed": false,
          "internalType": "uint256",
          "name": "wpcDelta",
          "type": "uint256"
        },
        {
          "indexed": false,
          "internalType": "uint256",
          "name": "wpcBorrowIndex",
          "type": "uint256"
        }
      ],
      "name": "DistributedBorrowerWpc",
      "type": "event"
    },
    {
      "anonymous": false,
      "inputs": [
        {
          "indexed": true,
          "internalType": "contract PToken",
          "name": "pToken",
          "type": "address"
        },
        {
          "indexed": true,
          "internalType": "address",
          "name": "supplier",
          "type": "address"
        },
        {
          "indexed": false,
          "internalType": "uint256",
          "name": "wpcDelta",
          "type": "uint256"
        },
        {
          "indexed": false,
          "internalType": "uint256",
          "name": "wpcSupplyIndex",
          "type": "uint256"
        }
      ],
      "name": "DistributedSupplierWpc",
      "type": "event"
    },
    {
      "anonymous": false,
      "inputs": [
        {
          "indexed": false,
          "internalType": "string",
          "name": "action",
          "type": "string"
        },
        {
          "indexed": false,
          "internalType": "bool",
          "name": "state",
          "type": "bool"
        }
      ],
      "name": "EnableState",
      "type": "event"
    },
    {
      "anonymous": false,
      "inputs": [
        {
          "indexed": true,
          "internalType": "address",
          "name": "previousOwner",
          "type": "address"
        },
        {
          "indexed": true,
          "internalType": "address",
          "name": "newOwner",
          "type": "address"
        }
      ],
      "name": "OwnershipTransferred",
      "type": "event"
    },
    {
      "anonymous": false,
      "inputs": [
        {
          "indexed": false,
          "internalType": "contract IERC20",
          "name": "token",
          "type": "address"
        },
        {
          "indexed": false,
          "internalType": "uint256",
          "name": "pid",
          "type": "uint256"
        },
        {
          "indexed": false,
          "internalType": "uint256",
          "name": "amount",
          "type": "uint256"
        }
      ],
      "name": "StakeTokenToPiggyBreeder",
      "type": "event"
    },
    {
      "anonymous": false,
      "inputs": [
        {
          "indexed": true,
          "internalType": "contract PToken",
          "name": "pToken",
          "type": "address"
        },
        {
          "indexed": false,
          "internalType": "uint256",
          "name": "newSpeed",
          "type": "uint256"
        }
      ],
      "name": "WpcSpeedUpdated",
      "type": "event"
    },
    {
      "inputs": [
        {
          "internalType": "uint256",
          "name": "pid",
          "type": "uint256"
        }
      ],
      "name": "_claimWpcFromPiggyBreeder",
      "outputs": [],
      "stateMutability": "nonpayable",
      "type": "function"
    },
    {
      "inputs": [
        {
          "internalType": "bool",
          "name": "state",
          "type": "bool"
        }
      ],
      "name": "_setEnableAll",
      "outputs": [],
      "stateMutability": "nonpayable",
      "type": "function"
    },
    {
      "inputs": [
        {
          "internalType": "bool",
          "name": "state",
          "type": "bool"
        }
      ],
      "name": "_setEnableDistributeBorrowWpc",
      "outputs": [],
      "stateMutability": "nonpayable",
      "type": "function"
    },
    {
      "inputs": [
        {
          "internalType": "bool",
          "name": "state",
          "type": "bool"
        }
      ],
      "name": "_setEnableDistributeMintWpc",
      "outputs": [],
      "stateMutability": "nonpayable",
      "type": "function"
    },
    {
      "inputs": [
        {
          "internalType": "bool",
          "name": "state",
          "type": "bool"
        }
      ],
      "name": "_setEnableDistributeRedeemWpc",
      "outputs": [],
      "stateMutability": "nonpayable",
      "type": "function"
    },
    {
      "inputs": [
        {
          "internalType": "bool",
          "name": "state",
          "type": "bool"
        }
      ],
      "name": "_setEnableDistributeRepayBorrowWpc",
      "outputs": [],
      "stateMutability": "nonpayable",
      "type": "function"
    },
    {
      "inputs": [
        {
          "internalType": "bool",
          "name": "state",
          "type": "bool"
        }
      ],
      "name": "_setEnableDistributeSeizeWpc",
      "outputs": [],
      "stateMutability": "nonpayable",
      "type": "function"
    },
    {
      "inputs": [
        {
          "internalType": "bool",
          "name": "state",
          "type": "bool"
        }
      ],
      "name": "_setEnableDistributeTransferWpc",
      "outputs": [],
      "stateMutability": "nonpayable",
      "type": "function"
    },
    {
      "inputs": [
        {
          "internalType": "bool",
          "name": "state",
          "type": "bool"
        }
      ],
      "name": "_setEnableWpcClaim",
      "outputs": [],
      "stateMutability": "nonpayable",
      "type": "function"
    },
    {
      "inputs": [
        {
          "internalType": "contract PToken",
          "name": "pToken",
          "type": "address"
        },
        {
          "internalType": "uint256",
          "name": "wpcSpeed",
          "type": "uint256"
        }
      ],
      "name": "_setWpcSpeed",
      "outputs": [],
      "stateMutability": "nonpayable",
      "type": "function"
    },
    {
      "inputs": [
        {
          "internalType": "contract IERC20",
          "name": "token",
          "type": "address"
        },
        {
          "internalType": "uint256",
          "name": "pid",
          "type": "uint256"
        }
      ],
      "name": "_stakeTokenToPiggyBreeder",
      "outputs": [],
      "stateMutability": "nonpayable",
      "type": "function"
    },
    {
      "inputs": [
        {
          "internalType": "address",
          "name": "token",
          "type": "address"
        },
        {
          "internalType": "address",
          "name": "to",
          "type": "address"
        },
        {
          "internalType": "uint256",
          "name": "amount",
          "type": "uint256"
        }
      ],
      "name": "_transferToken",
      "outputs": [],
      "stateMutability": "nonpayable",
      "type": "function"
    },
    {
      "inputs": [
        {
          "internalType": "address",
          "name": "to",
          "type": "address"
        },
        {
          "internalType": "uint256",
          "name": "amount",
          "type": "uint256"
        }
      ],
      "name": "_transferWpc",
      "outputs": [],
      "stateMutability": "nonpayable",
      "type": "function"
    },
    {
      "inputs": [
        {
          "internalType": "address",
          "name": "holder",
          "type": "address"
        },
        {
          "internalType": "contract PToken[]",
          "name": "pTokens",
          "type": "address[]"
        }
      ],
      "name": "claimWpc",
      "outputs": [],
      "stateMutability": "nonpayable",
      "type": "function"
    },
    {
      "inputs": [
        {
          "internalType": "address[]",
          "name": "holders",
          "type": "address[]"
        },
        {
          "internalType": "contract PToken[]",
          "name": "pTokens",
          "type": "address[]"
        },
        {
          "internalType": "bool",
          "name": "borrowers",
          "type": "bool"
        },
        {
          "internalType": "bool",
          "name": "suppliers",
          "type": "bool"
        }
      ],
      "name": "claimWpc",
      "outputs": [],
      "stateMutability": "nonpayable",
      "type": "function"
    },
    {
      "inputs": [
        {
          "internalType": "address",
          "name": "holder",
          "type": "address"
        }
      ],
      "name": "claimWpc",
      "outputs": [],
      "stateMutability": "nonpayable",
      "type": "function"
    },
    {
      "inputs": [],
      "name": "comptroller",
      "outputs": [
        {
          "internalType": "contract Comptroller",
          "name": "",
          "type": "address"
        }
      ],
      "stateMutability": "view",
      "type": "function"
    },
    {
      "inputs": [
        {
          "internalType": "address",
          "name": "pToken",
          "type": "address"
        },
        {
          "internalType": "address",
          "name": "borrower",
          "type": "address"
        },
        {
          "internalType": "bool",
          "name": "distributeAll",
          "type": "bool"
        }
      ],
      "name": "distributeBorrowWpc",
      "outputs": [],
      "stateMutability": "nonpayable",
      "type": "function"
    },
    {
      "inputs": [
        {
          "internalType": "address",
          "name": "pToken",
          "type": "address"
        },
        {
          "internalType": "address",
          "name": "minter",
          "type": "address"
        },
        {
          "internalType": "bool",
          "name": "distributeAll",
          "type": "bool"
        }
      ],
      "name": "distributeMintWpc",
      "outputs": [],
      "stateMutability": "nonpayable",
      "type": "function"
    },
    {
      "inputs": [
        {
          "internalType": "address",
          "name": "pToken",
          "type": "address"
        },
        {
          "internalType": "address",
          "name": "redeemer",
          "type": "address"
        },
        {
          "internalType": "bool",
          "name": "distributeAll",
          "type": "bool"
        }
      ],
      "name": "distributeRedeemWpc",
      "outputs": [],
      "stateMutability": "nonpayable",
      "type": "function"
    },
    {
      "inputs": [
        {
          "internalType": "address",
          "name": "pToken",
          "type": "address"
        },
        {
          "internalType": "address",
          "name": "borrower",
          "type": "address"
        },
        {
          "internalType": "bool",
          "name": "distributeAll",
          "type": "bool"
        }
      ],
      "name": "distributeRepayBorrowWpc",
      "outputs": [],
      "stateMutability": "nonpayable",
      "type": "function"
    },
    {
      "inputs": [
        {
          "internalType": "address",
          "name": "pTokenCollateral",
          "type": "address"
        },
        {
          "internalType": "address",
          "name": "borrower",
          "type": "address"
        },
        {
          "internalType": "address",
          "name": "liquidator",
          "type": "address"
        },
        {
          "internalType": "bool",
          "name": "distributeAll",
          "type": "bool"
        }
      ],
      "name": "distributeSeizeWpc",
      "outputs": [],
      "stateMutability": "nonpayable",
      "type": "function"
    },
    {
      "inputs": [
        {
          "internalType": "address",
          "name": "pToken",
          "type": "address"
        },
        {
          "internalType": "address",
          "name": "src",
          "type": "address"
        },
        {
          "internalType": "address",
          "name": "dst",
          "type": "address"
        },
        {
          "internalType": "bool",
          "name": "distributeAll",
          "type": "bool"
        }
      ],
      "name": "distributeTransferWpc",
      "outputs": [],
      "stateMutability": "nonpayable",
      "type": "function"
    },
    {
      "inputs": [],
      "name": "enableDistributeBorrowWpc",
      "outputs": [
        {
          "internalType": "bool",
          "name": "",
          "type": "bool"
        }
      ],
      "stateMutability": "view",
      "type": "function"
    },
    {
      "inputs": [],
      "name": "enableDistributeMintWpc",
      "outputs": [
        {
          "internalType": "bool",
          "name": "",
          "type": "bool"
        }
      ],
      "stateMutability": "view",
      "type": "function"
    },
    {
      "inputs": [],
      "name": "enableDistributeRedeemWpc",
      "outputs": [
        {
          "internalType": "bool",
          "name": "",
          "type": "bool"
        }
      ],
      "stateMutability": "view",
      "type": "function"
    },
    {
      "inputs": [],
      "name": "enableDistributeRepayBorrowWpc",
      "outputs": [
        {
          "internalType": "bool",
          "name": "",
          "type": "bool"
        }
      ],
      "stateMutability": "view",
      "type": "function"
    },
    {
      "inputs": [],
      "name": "enableDistributeSeizeWpc",
      "outputs": [
        {
          "internalType": "bool",
          "name": "",
          "type": "bool"
        }
      ],
      "stateMutability": "view",
      "type": "function"
    },
    {
      "inputs": [],
      "name": "enableDistributeTransferWpc",
      "outputs": [
        {
          "internalType": "bool",
          "name": "",
          "type": "bool"
        }
      ],
      "stateMutability": "view",
      "type": "function"
    },
    {
      "inputs": [],
      "name": "enableWpcClaim",
      "outputs": [
        {
          "internalType": "bool",
          "name": "",
          "type": "bool"
        }
      ],
      "stateMutability": "view",
      "type": "function"
    },
    {
      "inputs": [
        {
          "internalType": "contract IERC20",
          "name": "_piggy",
          "type": "address"
        },
        {
          "internalType": "contract IPiggyBreeder",
          "name": "_piggyBreeder",
          "type": "address"
        },
        {
          "internalType": "contract Comptroller",
          "name": "_comptroller",
          "type": "address"
        }
      ],
      "name": "initialize",
      "outputs": [],
      "stateMutability": "nonpayable",
      "type": "function"
    },
    {
      "inputs": [],
      "name": "owner",
      "outputs": [
        {
          "internalType": "address",
          "name": "",
          "type": "address"
        }
      ],
      "stateMutability": "view",
      "type": "function"
    },
    {
      "inputs": [
        {
          "internalType": "address",
          "name": "holder",
          "type": "address"
        },
        {
          "internalType": "bool",
          "name": "borrowers",
          "type": "bool"
        },
        {
          "internalType": "bool",
          "name": "suppliers",
          "type": "bool"
        }
      ],
      "name": "pendingWpcAccrued",
      "outputs": [
        {
          "internalType": "uint256",
          "name": "",
          "type": "uint256"
        }
      ],
      "stateMutability": "view",
      "type": "function"
    },
    {
      "inputs": [],
      "name": "piggy",
      "outputs": [
        {
          "internalType": "contract IERC20",
          "name": "",
          "type": "address"
        }
      ],
      "stateMutability": "view",
      "type": "function"
    },
    {
      "inputs": [],
      "name": "piggyBreeder",
      "outputs": [
        {
          "internalType": "contract IPiggyBreeder",
          "name": "",
          "type": "address"
        }
      ],
      "stateMutability": "view",
      "type": "function"
    },
    {
      "inputs": [],
      "name": "renounceOwnership",
      "outputs": [],
      "stateMutability": "nonpayable",
      "type": "function"
    },
    {
      "inputs": [
        {
          "internalType": "address",
          "name": "newOwner",
          "type": "address"
        }
      ],
      "name": "transferOwnership",
      "outputs": [],
      "stateMutability": "nonpayable",
      "type": "function"
    },
    {
      "inputs": [
        {
          "internalType": "address",
          "name": "",
          "type": "address"
        }
      ],
      "name": "wpcAccrued",
      "outputs": [
        {
          "internalType": "uint256",
          "name": "",
          "type": "uint256"
        }
      ],
      "stateMutability": "view",
      "type": "function"
    },
    {
      "inputs": [
        {
          "internalType": "address",
          "name": "",
          "type": "address"
        }
      ],
      "name": "wpcBorrowState",
      "outputs": [
        {
          "internalType": "uint224",
          "name": "index",
          "type": "uint224"
        },
        {
          "internalType": "uint32",
          "name": "block",
          "type": "uint32"
        }
      ],
      "stateMutability": "view",
      "type": "function"
    },
    {
      "inputs": [
        {
          "internalType": "address",
          "name": "",
          "type": "address"
        },
        {
          "internalType": "address",
          "name": "",
          "type": "address"
        }
      ],
      "name": "wpcBorrowerIndex",
      "outputs": [
        {
          "internalType": "uint256",
          "name": "",
          "type": "uint256"
        }
      ],
      "stateMutability": "view",
      "type": "function"
    },
    {
      "inputs": [],
      "name": "wpcClaimThreshold",
      "outputs": [
        {
          "internalType": "uint256",
          "name": "",
          "type": "uint256"
        }
      ],
      "stateMutability": "view",
      "type": "function"
    },
    {
      "inputs": [],
      "name": "wpcInitialIndex",
      "outputs": [
        {
          "internalType": "uint224",
          "name": "",
          "type": "uint224"
        }
      ],
      "stateMutability": "view",
      "type": "function"
    },
    {
      "inputs": [
        {
          "internalType": "address",
          "name": "",
          "type": "address"
        }
      ],
      "name": "wpcSpeeds",
      "outputs": [
        {
          "internalType": "uint256",
          "name": "",
          "type": "uint256"
        }
      ],
      "stateMutability": "view",
      "type": "function"
    },
    {
      "inputs": [
        {
          "internalType": "address",
          "name": "",
          "type": "address"
        },
        {
          "internalType": "address",
          "name": "",
          "type": "address"
        }
      ],
      "name": "wpcSupplierIndex",
      "outputs": [
        {
          "internalType": "uint256",
          "name": "",
          "type": "uint256"
        }
      ],
      "stateMutability": "view",
      "type": "function"
    },
    {
      "inputs": [
        {
          "internalType": "address",
          "name": "",
          "type": "address"
        }
      ],
      "name": "wpcSupplyState",
      "outputs": [
        {
          "internalType": "uint224",
          "name": "index",
          "type": "uint224"
        },
        {
          "internalType": "uint32",
          "name": "block",
          "type": "uint32"
        }
      ],
      "stateMutability": "view",
      "type": "function"
    }
  ],
  "bytecode": "0x608060405234801561001057600080fd5b50616edf80620000216000396000f3fe608060405234801561001057600080fd5b506004361061027f5760003560e01c80638da5cb5b1161015c578063c48a3940116100ce578063eb4d3c3611610087578063eb4d3c3614610ee5578063efcd0db414610f05578063f2fde38b14610f88578063f3a8719614610fcc578063f774351e1461103c578063f90ec133146110ac5761027f565b8063c48a394014610d65578063c771ea1914610d85578063ce1afbe114610db5578063d0fe041214610e23578063d3ad34cc14610e53578063e54ac46814610ea15761027f565b80639ce393f7116101205780639ce393f714610b43578063a69ed16114610b91578063b5fdf28e14610c09578063b712beef14610c3d578063c0c53b8b14610c71578063c16bb15c14610cf55761027f565b80638da5cb5b1461099757806392068f04146109cb57806392e1a29514610a2357806399329c3314610a935780639b52edb814610ab35761027f565b80634cd54b7a116101f55780635ff132f9116101b95780635ff132f91461083c5780635ff882191461088a578063692c1d44146108aa5780636dd95553146108da57806370d05be41461095d578063715018a61461098d5761027f565b80634cd54b7a1461059e5780635169448b1461062e57806352afdbfe146107925780635e5ce05e146107ea5780635fe3b567146108085761027f565b80631f6c7a41116102475780631f6c7a4114610444578063247092ce1461047457806327190769146104b05780632f7d336a146104d05780633637d974146105405780634485a2861461056e5761027f565b8063011875b51461028457806302c4678b1461035c57806304f6e19c146103d457806304f79da8146103f457806313f7cea114610414575b600080fd5b61035a6004803603604081101561029a57600080fd5b81019080803573ffffffffffffffffffffffffffffffffffffffff169060200190929190803590602001906401000000008111156102d757600080fd5b8201836020820111156102e957600080fd5b8035906020019184602083028401116401000000008311171561030b57600080fd5b919080806020026020016040519081016040528093929190818152602001838360200280828437600081840152601f19601f8201169050808301925050505050505091929192905050506110dc565b005b6103be6004803603604081101561037257600080fd5b81019080803573ffffffffffffffffffffffffffffffffffffffff169060200190929190803573ffffffffffffffffffffffffffffffffffffffff169060200190929190505050611183565b6040518082815260200191505060405180910390f35b6103dc6111a8565b60405180821515815260200191505060405180910390f35b6103fc6111bb565b60405180821515815260200191505060405180910390f35b6104426004803603602081101561042a57600080fd5b810190808035151590602001909291905050506111ce565b005b6104726004803603602081101561045a57600080fd5b81019080803515159060200190929190505050611327565b005b61047c611480565b60405180827bffffffffffffffffffffffffffffffffffffffffffffffffffffffff16815260200191505060405180910390f35b6104b8611493565b60405180821515815260200191505060405180910390f35b61053e600480360360608110156104e657600080fd5b81019080803573ffffffffffffffffffffffffffffffffffffffff169060200190929190803573ffffffffffffffffffffffffffffffffffffffff1690602001909291908035151590602001909291905050506114a6565b005b61056c6004803603602081101561055657600080fd5b81019080803590602001909291905050506115d5565b005b61059c6004803603602081101561058457600080fd5b81019080803515159060200190929190505050611766565b005b61062c600480360360808110156105b457600080fd5b81019080803573ffffffffffffffffffffffffffffffffffffffff169060200190929190803573ffffffffffffffffffffffffffffffffffffffff169060200190929190803573ffffffffffffffffffffffffffffffffffffffff1690602001909291908035151590602001909291905050506118bf565b005b6107906004803603608081101561064457600080fd5b810190808035906020019064010000000081111561066157600080fd5b82018360208201111561067357600080fd5b8035906020019184602083028401116401000000008311171561069557600080fd5b919080806020026020016040519081016040528093929190818152602001838360200280828437600081840152601f19601f820116905080830192505050505050509192919290803590602001906401000000008111156106f557600080fd5b82018360208201111561070757600080fd5b8035906020019184602083028401116401000000008311171561072957600080fd5b919080806020026020016040519081016040528093929190818152602001838360200280828437600081840152601f19601f8201169050808301925050505050505091929192908035151590602001909291908035151590602001909291905050506119fa565b005b6107d4600480360360208110156107a857600080fd5b81019080803573ffffffffffffffffffffffffffffffffffffffff169060200190929190505050611d27565b6040518082815260200191505060405180910390f35b6107f2611d3f565b6040518082815260200191505060405180910390f35b610810611d4a565b604051808273ffffffffffffffffffffffffffffffffffffffff16815260200191505060405180910390f35b6108886004803603604081101561085257600080fd5b81019080803573ffffffffffffffffffffffffffffffffffffffff16906020019092919080359060200190929190505050611d70565b005b6108926120a6565b60405180821515815260200191505060405180910390f35b6108d8600480360360208110156108c057600080fd5b810190808035151590602001909291905050506120b9565b005b61091c600480360360208110156108f057600080fd5b81019080803573ffffffffffffffffffffffffffffffffffffffff1690602001909291905050506121c5565b60405180837bffffffffffffffffffffffffffffffffffffffffffffffffffffffff1681526020018263ffffffff1681526020019250505060405180910390f35b61098b6004803603602081101561097357600080fd5b81019080803515159060200190929190505050612221565b005b61099561237a565b005b61099f612505565b604051808273ffffffffffffffffffffffffffffffffffffffff16815260200191505060405180910390f35b610a0d600480360360208110156109e157600080fd5b81019080803573ffffffffffffffffffffffffffffffffffffffff16906020019092919050505061252f565b6040518082815260200191505060405180910390f35b610a9160048036036060811015610a3957600080fd5b81019080803573ffffffffffffffffffffffffffffffffffffffff169060200190929190803573ffffffffffffffffffffffffffffffffffffffff169060200190929190803515159060200190929190505050612547565b005b610a9b612712565b60405180821515815260200191505060405180910390f35b610b4160048036036080811015610ac957600080fd5b81019080803573ffffffffffffffffffffffffffffffffffffffff169060200190929190803573ffffffffffffffffffffffffffffffffffffffff169060200190929190803573ffffffffffffffffffffffffffffffffffffffff169060200190929190803515159060200190929190505050612725565b005b610b8f60048036036040811015610b5957600080fd5b81019080803573ffffffffffffffffffffffffffffffffffffffff16906020019092919080359060200190929190505050612860565b005b610bf360048036036040811015610ba757600080fd5b81019080803573ffffffffffffffffffffffffffffffffffffffff169060200190929190803573ffffffffffffffffffffffffffffffffffffffff16906020019092919050505061295b565b6040518082815260200191505060405180910390f35b610c11612980565b604051808273ffffffffffffffffffffffffffffffffffffffff16815260200191505060405180910390f35b610c456129a6565b604051808273ffffffffffffffffffffffffffffffffffffffff16815260200191505060405180910390f35b610cf360048036036060811015610c8757600080fd5b81019080803573ffffffffffffffffffffffffffffffffffffffff169060200190929190803573ffffffffffffffffffffffffffffffffffffffff169060200190929190803573ffffffffffffffffffffffffffffffffffffffff1690602001909291905050506129cc565b005b610d4f60048036036060811015610d0b57600080fd5b81019080803573ffffffffffffffffffffffffffffffffffffffff169060200190929190803515159060200190929190803515159060200190929190505050612c55565b6040518082815260200191505060405180910390f35b610d6d612c6b565b60405180821515815260200191505060405180910390f35b610db360048036036020811015610d9b57600080fd5b81019080803515159060200190929190505050612c7e565b005b610e2160048036036060811015610dcb57600080fd5b81019080803573ffffffffffffffffffffffffffffffffffffffff169060200190929190803573ffffffffffffffffffffffffffffffffffffffff16906020019092919080359060200190929190505050612dd7565b005b610e5160048036036020811015610e3957600080fd5b8101908080351515906020019092919050505061300c565b005b610e9f60048036036040811015610e6957600080fd5b81019080803573ffffffffffffffffffffffffffffffffffffffff16906020019092919080359060200190929190505050613165565b005b610ee360048036036020811015610eb757600080fd5b81019080803573ffffffffffffffffffffffffffffffffffffffff16906020019092919050505061323d565b005b610eed613386565b60405180821515815260200191505060405180910390f35b610f4760048036036020811015610f1b57600080fd5b81019080803573ffffffffffffffffffffffffffffffffffffffff169060200190929190505050613399565b60405180837bffffffffffffffffffffffffffffffffffffffffffffffffffffffff1681526020018263ffffffff1681526020019250505060405180910390f35b610fca60048036036020811015610f9e57600080fd5b81019080803573ffffffffffffffffffffffffffffffffffffffff1690602001909291905050506133f5565b005b61103a60048036036060811015610fe257600080fd5b81019080803573ffffffffffffffffffffffffffffffffffffffff169060200190929190803573ffffffffffffffffffffffffffffffffffffffff169060200190929190803515159060200190929190505050613605565b005b6110aa6004803603606081101561105257600080fd5b81019080803573ffffffffffffffffffffffffffffffffffffffff169060200190929190803573ffffffffffffffffffffffffffffffffffffffff1690602001909291908035151590602001909291905050506137d0565b005b6110da600480360360208110156110c257600080fd5b810190808035151590602001909291905050506138ff565b005b6060600167ffffffffffffffff811180156110f657600080fd5b506040519080825280602002602001820160405280156111255781602001602082028036833780820191505090505b509050828160008151811061113657fe5b602002602001019073ffffffffffffffffffffffffffffffffffffffff16908173ffffffffffffffffffffffffffffffffffffffff168152505061117e8183600160006119fa565b505050565b609d602052816000526040600020602052806000526040600020600091509150505481565b60a060049054906101000a900460ff1681565b60a060019054906101000a900460ff1681565b6111d6613a58565b73ffffffffffffffffffffffffffffffffffffffff16606560009054906101000a900473ffffffffffffffffffffffffffffffffffffffff1673ffffffffffffffffffffffffffffffffffffffff1614611298576040517f08c379a00000000000000000000000000000000000000000000000000000000081526004018080602001828103825260208152602001807f4f776e61626c653a2063616c6c6572206973206e6f7420746865206f776e657281525060200191505060405180910390fd5b8060a060016101000a81548160ff0219169083151502179055507f12ad31419ea664a1cf3160aa34e0fddd4ef4471faffbea66015bfc8bd1f7a61d8160405180806020018315158152602001828103825260178152602001807f656e61626c65446973747269627574654d696e745770630000000000000000008152506020019250505060405180910390a150565b61132f613a58565b73ffffffffffffffffffffffffffffffffffffffff16606560009054906101000a900473ffffffffffffffffffffffffffffffffffffffff1673ffffffffffffffffffffffffffffffffffffffff16146113f1576040517f08c379a00000000000000000000000000000000000000000000000000000000081526004018080602001828103825260208152602001807f4f776e61626c653a2063616c6c6572206973206e6f7420746865206f776e657281525060200191505060405180910390fd5b8060a060036101000a81548160ff0219169083151502179055507f12ad31419ea664a1cf3160aa34e0fddd4ef4471faffbea66015bfc8bd1f7a61d8160405180806020018315158152602001828103825260198152602001807f656e61626c6544697374726962757465426f72726f77577063000000000000008152506020019250505060405180910390a150565b6ec097ce7bc90715b34b9f100000000081565b60a060009054906101000a900460ff1681565b609960009054906101000a900473ffffffffffffffffffffffffffffffffffffffff1673ffffffffffffffffffffffffffffffffffffffff163373ffffffffffffffffffffffffffffffffffffffff1614806115345750611505612505565b73ffffffffffffffffffffffffffffffffffffffff163373ffffffffffffffffffffffffffffffffffffffff16145b6115a6576040517f08c379a00000000000000000000000000000000000000000000000000000000081526004018080602001828103825260198152602001807f6f6e6c7920636f6d7074726f6c6c6572206f72206f776e65720000000000000081525060200191505060405180910390fd5b60a060019054906101000a900460ff16156115d0576115c483613a60565b6115cf838383613e4f565b5b505050565b6115dd613a58565b73ffffffffffffffffffffffffffffffffffffffff16606560009054906101000a900473ffffffffffffffffffffffffffffffffffffffff1673ffffffffffffffffffffffffffffffffffffffff161461169f576040517f08c379a00000000000000000000000000000000000000000000000000000000081526004018080602001828103825260208152602001807f4f776e61626c653a2063616c6c6572206973206e6f7420746865206f776e657281525060200191505060405180910390fd5b609860009054906101000a900473ffffffffffffffffffffffffffffffffffffffff1673ffffffffffffffffffffffffffffffffffffffff1663379607f5826040518263ffffffff1660e01b815260040180828152602001915050600060405180830381600087803b15801561171457600080fd5b505af1158015611728573d6000803e3d6000fd5b505050507f44542e73ff1ebfa31eab4e203a32710f1b2be84fe883bc080772cf78b455b32d816040518082815260200191505060405180910390a150565b61176e613a58565b73ffffffffffffffffffffffffffffffffffffffff16606560009054906101000a900473ffffffffffffffffffffffffffffffffffffffff1673ffffffffffffffffffffffffffffffffffffffff1614611830576040517f08c379a00000000000000000000000000000000000000000000000000000000081526004018080602001828103825260208152602001807f4f776e61626c653a2063616c6c6572206973206e6f7420746865206f776e657281525060200191505060405180910390fd5b8060a060066101000a81548160ff0219169083151502179055507f12ad31419ea664a1cf3160aa34e0fddd4ef4471faffbea66015bfc8bd1f7a61d81604051808060200183151581526020018281038252601b8152602001807f656e61626c65446973747269627574655472616e7366657257706300000000008152506020019250505060405180910390a150565b609960009054906101000a900473ffffffffffffffffffffffffffffffffffffffff1673ffffffffffffffffffffffffffffffffffffffff163373ffffffffffffffffffffffffffffffffffffffff16148061194d575061191e612505565b73ffffffffffffffffffffffffffffffffffffffff163373ffffffffffffffffffffffffffffffffffffffff16145b6119bf576040517f08c379a00000000000000000000000000000000000000000000000000000000081526004018080602001828103825260198152602001807f6f6e6c7920636f6d7074726f6c6c6572206f72206f776e65720000000000000081525060200191505060405180910390fd5b60a060069054906101000a900460ff16156119f4576119dd84613a60565b6119e8848483613e4f565b6119f3848383613e4f565b5b50505050565b60a060009054906101000a900460ff16611a7c576040517f08c379a00000000000000000000000000000000000000000000000000000000081526004018080602001828103825260148152602001807f436c61696d206973206e6f7420656e61626c656400000000000000000000000081525060200191505060405180910390fd5b60005b8351811015611d20576000848281518110611a9657fe5b60200260200101519050609960009054906101000a900473ffffffffffffffffffffffffffffffffffffffff1673ffffffffffffffffffffffffffffffffffffffff16633d98a1e5826040518263ffffffff1660e01b8152600401808273ffffffffffffffffffffffffffffffffffffffff16815260200191505060206040518083038186803b158015611b2957600080fd5b505afa158015611b3d573d6000803e3d6000fd5b505050506040513d6020811015611b5357600080fd5b8101908080519060200190929190505050611bd6576040517f08c379a00000000000000000000000000000000000000000000000000000000081526004018080602001828103825260158152602001807f6d61726b6574206d757374206265206c6973746564000000000000000000000081525060200191505060405180910390fd5b600115158415151415611cc257611beb616df1565b60405180602001604052808373ffffffffffffffffffffffffffffffffffffffff1663aa5af0fd6040518163ffffffff1660e01b815260040160206040518083038186803b158015611c3c57600080fd5b505afa158015611c50573d6000803e3d6000fd5b505050506040513d6020811015611c6657600080fd5b81019080805190602001909291905050508152509050611c868282614258565b60005b8751811015611cbf57611cb283898381518110611ca257fe5b6020026020010151846001614651565b8080600101915050611c89565b50505b600115158315151415611d1257611cd881613a60565b60005b8651811015611d1057611d0382888381518110611cf457fe5b60200260200101516001613e4f565b8080600101915050611cdb565b505b508080600101915050611a7f565b5050505050565b609f6020528060005260406000206000915090505481565b66038d7ea4c6800081565b609960009054906101000a900473ffffffffffffffffffffffffffffffffffffffff1681565b611d78613a58565b73ffffffffffffffffffffffffffffffffffffffff16606560009054906101000a900473ffffffffffffffffffffffffffffffffffffffff1673ffffffffffffffffffffffffffffffffffffffff1614611e3a576040517f08c379a00000000000000000000000000000000000000000000000000000000081526004018080602001828103825260208152602001807f4f776e61626c653a2063616c6c6572206973206e6f7420746865206f776e657281525060200191505060405180910390fd5b60008273ffffffffffffffffffffffffffffffffffffffff166370a08231306040518263ffffffff1660e01b8152600401808273ffffffffffffffffffffffffffffffffffffffff16815260200191505060206040518083038186803b158015611ea357600080fd5b505afa158015611eb7573d6000803e3d6000fd5b505050506040513d6020811015611ecd57600080fd5b810190808051906020019092919050505090508273ffffffffffffffffffffffffffffffffffffffff1663095ea7b3609860009054906101000a900473ffffffffffffffffffffffffffffffffffffffff16836040518363ffffffff1660e01b8152600401808373ffffffffffffffffffffffffffffffffffffffff16815260200182815260200192505050602060405180830381600087803b158015611f7357600080fd5b505af1158015611f87573d6000803e3d6000fd5b505050506040513d6020811015611f9d57600080fd5b810190808051906020019092919050505050609860009054906101000a900473ffffffffffffffffffffffffffffffffffffffff1673ffffffffffffffffffffffffffffffffffffffff16637b0472f083836040518363ffffffff1660e01b81526004018083815260200182815260200192505050600060405180830381600087803b15801561202c57600080fd5b505af1158015612040573d6000803e3d6000fd5b505050507f9e607a7395a4b086a7a32e21952e8789eb525dafb3978a5f51a63d7e13b92991838383604051808473ffffffffffffffffffffffffffffffffffffffff168152602001838152602001828152602001935050505060405180910390a1505050565b60a060059054906101000a900460ff1681565b6120c1613a58565b73ffffffffffffffffffffffffffffffffffffffff16606560009054906101000a900473ffffffffffffffffffffffffffffffffffffffff1673ffffffffffffffffffffffffffffffffffffffff1614612183576040517f08c379a00000000000000000000000000000000000000000000000000000000081526004018080602001828103825260208152602001807f4f776e61626c653a2063616c6c6572206973206e6f7420746865206f776e657281525060200191505060405180910390fd5b61218c816111ce565b612195816138ff565b61219e81611327565b6121a781612221565b6121b08161300c565b6121b981611766565b6121c281612c7e565b50565b609c6020528060005260406000206000915090508060000160009054906101000a90047bffffffffffffffffffffffffffffffffffffffffffffffffffffffff169080600001601c9054906101000a900463ffffffff16905082565b612229613a58565b73ffffffffffffffffffffffffffffffffffffffff16606560009054906101000a900473ffffffffffffffffffffffffffffffffffffffff1673ffffffffffffffffffffffffffffffffffffffff16146122eb576040517f08c379a00000000000000000000000000000000000000000000000000000000081526004018080602001828103825260208152602001807f4f776e61626c653a2063616c6c6572206973206e6f7420746865206f776e657281525060200191505060405180910390fd5b8060a060046101000a81548160ff0219169083151502179055507f12ad31419ea664a1cf3160aa34e0fddd4ef4471faffbea66015bfc8bd1f7a61d81604051808060200183151581526020018281038252601e8152602001807f656e61626c65446973747269627574655265706179426f72726f7757706300008152506020019250505060405180910390a150565b612382613a58565b73ffffffffffffffffffffffffffffffffffffffff16606560009054906101000a900473ffffffffffffffffffffffffffffffffffffffff1673ffffffffffffffffffffffffffffffffffffffff1614612444576040517f08c379a00000000000000000000000000000000000000000000000000000000081526004018080602001828103825260208152602001807f4f776e61626c653a2063616c6c6572206973206e6f7420746865206f776e657281525060200191505060405180910390fd5b600073ffffffffffffffffffffffffffffffffffffffff16606560009054906101000a900473ffffffffffffffffffffffffffffffffffffffff1673ffffffffffffffffffffffffffffffffffffffff167f8be0079c531659141344cd1fd0a4f28419497f9722a3daafe3b4186f6b6457e060405160405180910390a36000606560006101000a81548173ffffffffffffffffffffffffffffffffffffffff021916908373ffffffffffffffffffffffffffffffffffffffff160217905550565b6000606560009054906101000a900473ffffffffffffffffffffffffffffffffffffffff16905090565b609a6020528060005260406000206000915090505481565b609960009054906101000a900473ffffffffffffffffffffffffffffffffffffffff1673ffffffffffffffffffffffffffffffffffffffff163373ffffffffffffffffffffffffffffffffffffffff1614806125d557506125a6612505565b73ffffffffffffffffffffffffffffffffffffffff163373ffffffffffffffffffffffffffffffffffffffff16145b612647576040517f08c379a00000000000000000000000000000000000000000000000000000000081526004018080602001828103825260198152602001807f6f6e6c7920636f6d7074726f6c6c6572206f72206f776e65720000000000000081525060200191505060405180910390fd5b60a060049054906101000a900460ff161561270d57612664616df1565b60405180602001604052808573ffffffffffffffffffffffffffffffffffffffff1663aa5af0fd6040518163ffffffff1660e01b815260040160206040518083038186803b1580156126b557600080fd5b505afa1580156126c9573d6000803e3d6000fd5b505050506040513d60208110156126df57600080fd5b810190808051906020019092919050505081525090506126ff8482614258565b61270b84848385614651565b505b505050565b60a060029054906101000a900460ff1681565b609960009054906101000a900473ffffffffffffffffffffffffffffffffffffffff1673ffffffffffffffffffffffffffffffffffffffff163373ffffffffffffffffffffffffffffffffffffffff1614806127b35750612784612505565b73ffffffffffffffffffffffffffffffffffffffff163373ffffffffffffffffffffffffffffffffffffffff16145b612825576040517f08c379a00000000000000000000000000000000000000000000000000000000081526004018080602001828103825260198152602001807f6f6e6c7920636f6d7074726f6c6c6572206f72206f776e65720000000000000081525060200191505060405180910390fd5b60a060059054906101000a900460ff161561285a5761284384613a60565b61284e848483613e4f565b612859848383613e4f565b5b50505050565b612868613a58565b73ffffffffffffffffffffffffffffffffffffffff16606560009054906101000a900473ffffffffffffffffffffffffffffffffffffffff1673ffffffffffffffffffffffffffffffffffffffff161461292a576040517f08c379a00000000000000000000000000000000000000000000000000000000081526004018080602001828103825260208152602001807f4f776e61626c653a2063616c6c6572206973206e6f7420746865206f776e657281525060200191505060405180910390fd5b612957609760009054906101000a900473ffffffffffffffffffffffffffffffffffffffff168383612dd7565b5050565b609e602052816000526040600020602052806000526040600020600091509150505481565b609760009054906101000a900473ffffffffffffffffffffffffffffffffffffffff1681565b609860009054906101000a900473ffffffffffffffffffffffffffffffffffffffff1681565b600060019054906101000a900460ff16806129eb57506129ea614a1d565b5b80612a01575060008054906101000a900460ff16155b612a56576040517f08c379a000000000000000000000000000000000000000000000000000000000815260040180806020018281038252602e815260200180616e7c602e913960400191505060405180910390fd5b60008060019054906101000a900460ff161590508015612aa6576001600060016101000a81548160ff02191690831515021790555060016000806101000a81548160ff0219169083151502179055505b83609760006101000a81548173ffffffffffffffffffffffffffffffffffffffff021916908373ffffffffffffffffffffffffffffffffffffffff16021790555082609860006101000a81548173ffffffffffffffffffffffffffffffffffffffff021916908373ffffffffffffffffffffffffffffffffffffffff16021790555081609960006101000a81548173ffffffffffffffffffffffffffffffffffffffff021916908373ffffffffffffffffffffffffffffffffffffffff160217905550600060a060006101000a81548160ff021916908315150217905550600060a060016101000a81548160ff021916908315150217905550600060a060026101000a81548160ff021916908315150217905550600060a060036101000a81548160ff021916908315150217905550600060a060046101000a81548160ff021916908315150217905550600060a060056101000a81548160ff021916908315150217905550600060a060066101000a81548160ff021916908315150217905550612c2e614a34565b8015612c4f5760008060016101000a81548160ff0219169083151502179055505b50505050565b6000612c62848484614b42565b90509392505050565b60a060069054906101000a900460ff1681565b612c86613a58565b73ffffffffffffffffffffffffffffffffffffffff16606560009054906101000a900473ffffffffffffffffffffffffffffffffffffffff1673ffffffffffffffffffffffffffffffffffffffff1614612d48576040517f08c379a00000000000000000000000000000000000000000000000000000000081526004018080602001828103825260208152602001807f4f776e61626c653a2063616c6c6572206973206e6f7420746865206f776e657281525060200191505060405180910390fd5b8060a060006101000a81548160ff0219169083151502179055507f12ad31419ea664a1cf3160aa34e0fddd4ef4471faffbea66015bfc8bd1f7a61d81604051808060200183151581526020018281038252600e8152602001807f656e61626c65577063436c61696d0000000000000000000000000000000000008152506020019250505060405180910390a150565b612ddf613a58565b73ffffffffffffffffffffffffffffffffffffffff16606560009054906101000a900473ffffffffffffffffffffffffffffffffffffffff1673ffffffffffffffffffffffffffffffffffffffff1614612ea1576040517f08c379a00000000000000000000000000000000000000000000000000000000081526004018080602001828103825260208152602001807f4f776e61626c653a2063616c6c6572206973206e6f7420746865206f776e657281525060200191505060405180910390fd5b600083905060008173ffffffffffffffffffffffffffffffffffffffff166370a08231306040518263ffffffff1660e01b8152600401808273ffffffffffffffffffffffffffffffffffffffff16815260200191505060206040518083038186803b158015612f0f57600080fd5b505afa158015612f23573d6000803e3d6000fd5b505050506040513d6020811015612f3957600080fd5b8101908080519060200190929190505050905082811015612f58578092505b8173ffffffffffffffffffffffffffffffffffffffff1663a9059cbb85856040518363ffffffff1660e01b8152600401808373ffffffffffffffffffffffffffffffffffffffff16815260200182815260200192505050602060405180830381600087803b158015612fc957600080fd5b505af1158015612fdd573d6000803e3d6000fd5b505050506040513d6020811015612ff357600080fd5b8101908080519060200190929190505050505050505050565b613014613a58565b73ffffffffffffffffffffffffffffffffffffffff16606560009054906101000a900473ffffffffffffffffffffffffffffffffffffffff1673ffffffffffffffffffffffffffffffffffffffff16146130d6576040517f08c379a00000000000000000000000000000000000000000000000000000000081526004018080602001828103825260208152602001807f4f776e61626c653a2063616c6c6572206973206e6f7420746865206f776e657281525060200191505060405180910390fd5b8060a060056101000a81548160ff0219169083151502179055507f12ad31419ea664a1cf3160aa34e0fddd4ef4471faffbea66015bfc8bd1f7a61d8160405180806020018315158152602001828103825260188152602001807f656e61626c65446973747269627574655365697a6557706300000000000000008152506020019250505060405180910390a150565b61316d613a58565b73ffffffffffffffffffffffffffffffffffffffff16606560009054906101000a900473ffffffffffffffffffffffffffffffffffffffff1673ffffffffffffffffffffffffffffffffffffffff161461322f576040517f08c379a00000000000000000000000000000000000000000000000000000000081526004018080602001828103825260208152602001807f4f776e61626c653a2063616c6c6572206973206e6f7420746865206f776e657281525060200191505060405180910390fd5b6132398282614d56565b5050565b61338381609960009054906101000a900473ffffffffffffffffffffffffffffffffffffffff1673ffffffffffffffffffffffffffffffffffffffff1663b0772d0b6040518163ffffffff1660e01b815260040160006040518083038186803b1580156132a957600080fd5b505afa1580156132bd573d6000803e3d6000fd5b505050506040513d6000823e3d601f19601f8201168201806040525060208110156132e757600080fd5b810190808051604051939291908464010000000082111561330757600080fd5b8382019150602082018581111561331d57600080fd5b825186602082028301116401000000008211171561333a57600080fd5b8083526020830192505050908051906020019060200280838360005b83811015613371578082015181840152602081019050613356565b505050509050016040525050506110dc565b50565b60a060039054906101000a900460ff1681565b609b6020528060005260406000206000915090508060000160009054906101000a90047bffffffffffffffffffffffffffffffffffffffffffffffffffffffff169080600001601c9054906101000a900463ffffffff16905082565b6133fd613a58565b73ffffffffffffffffffffffffffffffffffffffff16606560009054906101000a900473ffffffffffffffffffffffffffffffffffffffff1673ffffffffffffffffffffffffffffffffffffffff16146134bf576040517f08c379a00000000000000000000000000000000000000000000000000000000081526004018080602001828103825260208152602001807f4f776e61626c653a2063616c6c6572206973206e6f7420746865206f776e657281525060200191505060405180910390fd5b600073ffffffffffffffffffffffffffffffffffffffff168173ffffffffffffffffffffffffffffffffffffffff161415613545576040517f08c379a0000000000000000000000000000000000000000000000000000000008152600401808060200182810382526026815260200180616e566026913960400191505060405180910390fd5b8073ffffffffffffffffffffffffffffffffffffffff16606560009054906101000a900473ffffffffffffffffffffffffffffffffffffffff1673ffffffffffffffffffffffffffffffffffffffff167f8be0079c531659141344cd1fd0a4f28419497f9722a3daafe3b4186f6b6457e060405160405180910390a380606560006101000a81548173ffffffffffffffffffffffffffffffffffffffff021916908373ffffffffffffffffffffffffffffffffffffffff16021790555050565b609960009054906101000a900473ffffffffffffffffffffffffffffffffffffffff1673ffffffffffffffffffffffffffffffffffffffff163373ffffffffffffffffffffffffffffffffffffffff1614806136935750613664612505565b73ffffffffffffffffffffffffffffffffffffffff163373ffffffffffffffffffffffffffffffffffffffff16145b613705576040517f08c379a00000000000000000000000000000000000000000000000000000000081526004018080602001828103825260198152602001807f6f6e6c7920636f6d7074726f6c6c6572206f72206f776e65720000000000000081525060200191505060405180910390fd5b60a060039054906101000a900460ff16156137cb57613722616df1565b60405180602001604052808573ffffffffffffffffffffffffffffffffffffffff1663aa5af0fd6040518163ffffffff1660e01b815260040160206040518083038186803b15801561377357600080fd5b505afa158015613787573d6000803e3d6000fd5b505050506040513d602081101561379d57600080fd5b810190808051906020019092919050505081525090506137bd8482614258565b6137c984848385614651565b505b505050565b609960009054906101000a900473ffffffffffffffffffffffffffffffffffffffff1673ffffffffffffffffffffffffffffffffffffffff163373ffffffffffffffffffffffffffffffffffffffff16148061385e575061382f612505565b73ffffffffffffffffffffffffffffffffffffffff163373ffffffffffffffffffffffffffffffffffffffff16145b6138d0576040517f08c379a00000000000000000000000000000000000000000000000000000000081526004018080602001828103825260198152602001807f6f6e6c7920636f6d7074726f6c6c6572206f72206f776e65720000000000000081525060200191505060405180910390fd5b60a060029054906101000a900460ff16156138fa576138ee83613a60565b6138f9838383613e4f565b5b505050565b613907613a58565b73ffffffffffffffffffffffffffffffffffffffff16606560009054906101000a900473ffffffffffffffffffffffffffffffffffffffff1673ffffffffffffffffffffffffffffffffffffffff16146139c9576040517f08c379a00000000000000000000000000000000000000000000000000000000081526004018080602001828103825260208152602001807f4f776e61626c653a2063616c6c6572206973206e6f7420746865206f776e657281525060200191505060405180910390fd5b8060a060026101000a81548160ff0219169083151502179055507f12ad31419ea664a1cf3160aa34e0fddd4ef4471faffbea66015bfc8bd1f7a61d8160405180806020018315158152602001828103825260198152602001807f656e61626c654469737472696275746552656465656d577063000000000000008152506020019250505060405180910390a150565b600033905090565b6000609b60008373ffffffffffffffffffffffffffffffffffffffff1673ffffffffffffffffffffffffffffffffffffffff16815260200190815260200160002090506000609a60008473ffffffffffffffffffffffffffffffffffffffff1673ffffffffffffffffffffffffffffffffffffffff16815260200190815260200160002054905060004390506000613b128285600001601c9054906101000a900463ffffffff1663ffffffff1661562a565b9050600081118015613b245750600083115b15613ddc5760008573ffffffffffffffffffffffffffffffffffffffff166318160ddd6040518163ffffffff1660e01b815260040160206040518083038186803b158015613b7157600080fd5b505afa158015613b85573d6000803e3d6000fd5b505050506040513d6020811015613b9b57600080fd5b810190808051906020019092919050505090506000613bba8386615674565b9050613bc4616e04565b60008311613be15760405180602001604052806000815250613bec565b613beb82846156be565b5b9050613bf6616e04565b613c5860405180602001604052808a60000160009054906101000a90047bffffffffffffffffffffffffffffffffffffffffffffffffffffffff167bffffffffffffffffffffffffffffffffffffffffffffffffffffffff16815250836156fe565b90506040518060400160405280613ca883600001516040518060400160405280601a81526020017f6e657720696e646578206578636565647320323234206269747300000000000081525061572e565b7bffffffffffffffffffffffffffffffffffffffffffffffffffffffff168152602001613d0a886040518060400160405280601c81526020017f626c6f636b206e756d6265722065786365656473203332206269747300000000815250615801565b63ffffffff16815250609b60008b73ffffffffffffffffffffffffffffffffffffffff1673ffffffffffffffffffffffffffffffffffffffff16815260200190815260200160002060008201518160000160006101000a8154817bffffffffffffffffffffffffffffffffffffffffffffffffffffffff02191690837bffffffffffffffffffffffffffffffffffffffffffffffffffffffff160217905550602082015181600001601c6101000a81548163ffffffff021916908363ffffffff16021790555090505050505050613e48565b6000811115613e4757613e24826040518060400160405280601c81526020017f626c6f636b206e756d6265722065786365656473203332206269747300000000815250615801565b84600001601c6101000a81548163ffffffff021916908363ffffffff1602179055505b5b5050505050565b6000609b60008573ffffffffffffffffffffffffffffffffffffffff1673ffffffffffffffffffffffffffffffffffffffff1681526020019081526020016000209050613e9a616e04565b60405180602001604052808360000160009054906101000a90047bffffffffffffffffffffffffffffffffffffffffffffffffffffffff167bffffffffffffffffffffffffffffffffffffffffffffffffffffffff168152509050613efd616e04565b6040518060200160405280609d60008973ffffffffffffffffffffffffffffffffffffffff1673ffffffffffffffffffffffffffffffffffffffff16815260200190815260200160002060008873ffffffffffffffffffffffffffffffffffffffff1673ffffffffffffffffffffffffffffffffffffffff1681526020019081526020016000205481525090508160000151609d60008873ffffffffffffffffffffffffffffffffffffffff1673ffffffffffffffffffffffffffffffffffffffff16815260200190815260200160002060008773ffffffffffffffffffffffffffffffffffffffff1673ffffffffffffffffffffffffffffffffffffffff1681526020019081526020016000208190555060008160000151148015614027575060008260000151115b15614064576ec097ce7bc90715b34b9f10000000007bffffffffffffffffffffffffffffffffffffffffffffffffffffffff168160000181815250505b61406c616e04565b61407683836158bc565b905060008773ffffffffffffffffffffffffffffffffffffffff166370a08231886040518263ffffffff1660e01b8152600401808273ffffffffffffffffffffffffffffffffffffffff16815260200191505060206040518083038186803b1580156140e157600080fd5b505afa1580156140f5573d6000803e3d6000fd5b505050506040513d602081101561410b57600080fd5b81019080805190602001909291905050509050600061412a82846158ec565b90506000614177609f60008b73ffffffffffffffffffffffffffffffffffffffff1673ffffffffffffffffffffffffffffffffffffffff168152602001908152602001600020548361591c565b905061419889828a6141905766038d7ea4c68000614193565b60005b615966565b609f60008b73ffffffffffffffffffffffffffffffffffffffff1673ffffffffffffffffffffffffffffffffffffffff168152602001908152602001600020819055508873ffffffffffffffffffffffffffffffffffffffff168a73ffffffffffffffffffffffffffffffffffffffff167fbe0c0c96a4998bc3a0d03adf87afe52655ee22c978742a6fd827cbb2a7544a80848960000151604051808381526020018281526020019250505060405180910390a350505050505050505050565b6000609c60008473ffffffffffffffffffffffffffffffffffffffff1673ffffffffffffffffffffffffffffffffffffffff16815260200190815260200160002090506000609a60008573ffffffffffffffffffffffffffffffffffffffff1673ffffffffffffffffffffffffffffffffffffffff1681526020019081526020016000205490506000439050600061430a8285600001601c9054906101000a900463ffffffff1663ffffffff1661562a565b905060008111801561431c5750600083115b156145dd5760006143ad8773ffffffffffffffffffffffffffffffffffffffff166347bd37186040518163ffffffff1660e01b815260040160206040518083038186803b15801561436c57600080fd5b505afa158015614380573d6000803e3d6000fd5b505050506040513d602081101561439657600080fd5b810190808051906020019092919050505087615b32565b905060006143bb8386615674565b90506143c5616e04565b600083116143e257604051806020016040528060008152506143ed565b6143ec82846156be565b5b90506143f7616e04565b61445960405180602001604052808a60000160009054906101000a90047bffffffffffffffffffffffffffffffffffffffffffffffffffffffff167bffffffffffffffffffffffffffffffffffffffffffffffffffffffff16815250836156fe565b905060405180604001604052806144a983600001516040518060400160405280601a81526020017f6e657720696e646578206578636565647320323234206269747300000000000081525061572e565b7bffffffffffffffffffffffffffffffffffffffffffffffffffffffff16815260200161450b886040518060400160405280601c81526020017f626c6f636b206e756d6265722065786365656473203332206269747300000000815250615801565b63ffffffff16815250609c60008c73ffffffffffffffffffffffffffffffffffffffff1673ffffffffffffffffffffffffffffffffffffffff16815260200190815260200160002060008201518160000160006101000a8154817bffffffffffffffffffffffffffffffffffffffffffffffffffffffff02191690837bffffffffffffffffffffffffffffffffffffffffffffffffffffffff160217905550602082015181600001601c6101000a81548163ffffffff021916908363ffffffff16021790555090505050505050614649565b600081111561464857614625826040518060400160405280601c81526020017f626c6f636b206e756d6265722065786365656473203332206269747300000000815250615801565b84600001601c6101000a81548163ffffffff021916908363ffffffff1602179055505b5b505050505050565b6000609c60008673ffffffffffffffffffffffffffffffffffffffff1673ffffffffffffffffffffffffffffffffffffffff168152602001908152602001600020905061469c616e04565b60405180602001604052808360000160009054906101000a90047bffffffffffffffffffffffffffffffffffffffffffffffffffffffff167bffffffffffffffffffffffffffffffffffffffffffffffffffffffff1681525090506146ff616e04565b6040518060200160405280609e60008a73ffffffffffffffffffffffffffffffffffffffff1673ffffffffffffffffffffffffffffffffffffffff16815260200190815260200160002060008973ffffffffffffffffffffffffffffffffffffffff1673ffffffffffffffffffffffffffffffffffffffff1681526020019081526020016000205481525090508160000151609e60008973ffffffffffffffffffffffffffffffffffffffff1673ffffffffffffffffffffffffffffffffffffffff16815260200190815260200160002060008873ffffffffffffffffffffffffffffffffffffffff1673ffffffffffffffffffffffffffffffffffffffff16815260200190815260200160002081905550600081600001511115614a1457614826616e04565b61483083836158bc565b905060006148df8973ffffffffffffffffffffffffffffffffffffffff166395dd91938a6040518263ffffffff1660e01b8152600401808273ffffffffffffffffffffffffffffffffffffffff16815260200191505060206040518083038186803b15801561489e57600080fd5b505afa1580156148b2573d6000803e3d6000fd5b505050506040513d60208110156148c857600080fd5b810190808051906020019092919050505088615b32565b905060006148ed82846158ec565b9050600061493a609f60008c73ffffffffffffffffffffffffffffffffffffffff1673ffffffffffffffffffffffffffffffffffffffff168152602001908152602001600020548361591c565b905061495b8a828a6149535766038d7ea4c68000614956565b60005b615966565b609f60008c73ffffffffffffffffffffffffffffffffffffffff1673ffffffffffffffffffffffffffffffffffffffff168152602001908152602001600020819055508973ffffffffffffffffffffffffffffffffffffffff168b73ffffffffffffffffffffffffffffffffffffffff167f51c85dc0c0081306f30e8294ba3e28ddb525503774c20605841b8b161b39845b848960000151604051808381526020018281526020019250505060405180910390a3505050505b50505050505050565b6000803090506000813b9050600081149250505090565b600060019054906101000a900460ff1680614a535750614a52614a1d565b5b80614a69575060008054906101000a900460ff16155b614abe576040517f08c379a000000000000000000000000000000000000000000000000000000000815260040180806020018281038252602e815260200180616e7c602e913960400191505060405180910390fd5b60008060019054906101000a900460ff161590508015614b0e576001600060016101000a81548160ff02191690831515021790555060016000806101000a81548160ff0219169083151502179055505b614b16615b5b565b614b1e615c59565b8015614b3f5760008060016101000a81548160ff0219169083151502179055505b50565b600080609f60008673ffffffffffffffffffffffffffffffffffffffff1673ffffffffffffffffffffffffffffffffffffffff1681526020019081526020016000205490506060609960009054906101000a900473ffffffffffffffffffffffffffffffffffffffff1673ffffffffffffffffffffffffffffffffffffffff1663b0772d0b6040518163ffffffff1660e01b815260040160006040518083038186803b158015614bf157600080fd5b505afa158015614c05573d6000803e3d6000fd5b505050506040513d6000823e3d601f19601f820116820180604052506020811015614c2f57600080fd5b8101908080516040519392919084640100000000821115614c4f57600080fd5b83820191506020820185811115614c6557600080fd5b8251866020820283011164010000000082111715614c8257600080fd5b8083526020830192505050908051906020019060200280838360005b83811015614cb9578082015181840152602081019050614c9e565b50505050905001604052505050905060005b8151811015614d49576000828281518110614ce257fe5b602002602001015190506000600115158815151415614d1457614d058983615e00565b9050614d11858261591c565b94505b600115158715151415614d3a57614d2b89836160a9565b9050614d37858261591c565b94505b50508080600101915050614ccb565b5081925050509392505050565b6000609a60008473ffffffffffffffffffffffffffffffffffffffff1673ffffffffffffffffffffffffffffffffffffffff16815260200190815260200160002054905060008114614e5457614daa616df1565b60405180602001604052808573ffffffffffffffffffffffffffffffffffffffff1663aa5af0fd6040518163ffffffff1660e01b815260040160206040518083038186803b158015614dfb57600080fd5b505afa158015614e0f573d6000803e3d6000fd5b505050506040513d6020811015614e2557600080fd5b81019080805190602001909291905050508152509050614e4484613a60565b614e4e8482614258565b5061558b565b6000821461558a57609960009054906101000a900473ffffffffffffffffffffffffffffffffffffffff1673ffffffffffffffffffffffffffffffffffffffff16633d98a1e5846040518263ffffffff1660e01b8152600401808273ffffffffffffffffffffffffffffffffffffffff16815260200191505060206040518083038186803b158015614ee557600080fd5b505afa158015614ef9573d6000803e3d6000fd5b505050506040513d6020811015614f0f57600080fd5b8101908080519060200190929190505050614f92576040517f08c379a00000000000000000000000000000000000000000000000000000000081526004018080602001828103825260188152602001807f777063206d61726b6574206973206e6f74206c6973746564000000000000000081525060200191505060405180910390fd5b60001515609960009054906101000a900473ffffffffffffffffffffffffffffffffffffffff1673ffffffffffffffffffffffffffffffffffffffff166390ba8307856040518263ffffffff1660e01b8152600401808273ffffffffffffffffffffffffffffffffffffffff16815260200191505060206040518083038186803b15801561501f57600080fd5b505afa158015615033573d6000803e3d6000fd5b505050506040513d602081101561504957600080fd5b81019080805190602001909291905050501515141561511157609960009054906101000a900473ffffffffffffffffffffffffffffffffffffffff1673ffffffffffffffffffffffffffffffffffffffff1663478e35688460016040518363ffffffff1660e01b8152600401808373ffffffffffffffffffffffffffffffffffffffff168152602001821515815260200192505050600060405180830381600087803b1580156150f857600080fd5b505af115801561510c573d6000803e3d6000fd5b505050505b6000609b60008573ffffffffffffffffffffffffffffffffffffffff1673ffffffffffffffffffffffffffffffffffffffff16815260200190815260200160002060000160009054906101000a90047bffffffffffffffffffffffffffffffffffffffffffffffffffffffff167bffffffffffffffffffffffffffffffffffffffffffffffffffffffff1614801561520157506000609b60008573ffffffffffffffffffffffffffffffffffffffff1673ffffffffffffffffffffffffffffffffffffffff168152602001908152602001600020600001601c9054906101000a900463ffffffff1663ffffffff16145b1561534d5760405180604001604052806ec097ce7bc90715b34b9f10000000007bffffffffffffffffffffffffffffffffffffffffffffffffffffffff168152602001615283436040518060400160405280601c81526020017f626c6f636b206e756d6265722065786365656473203332206269747300000000815250615801565b63ffffffff16815250609b60008573ffffffffffffffffffffffffffffffffffffffff1673ffffffffffffffffffffffffffffffffffffffff16815260200190815260200160002060008201518160000160006101000a8154817bffffffffffffffffffffffffffffffffffffffffffffffffffffffff02191690837bffffffffffffffffffffffffffffffffffffffffffffffffffffffff160217905550602082015181600001601c6101000a81548163ffffffff021916908363ffffffff1602179055509050505b6000609c60008573ffffffffffffffffffffffffffffffffffffffff1673ffffffffffffffffffffffffffffffffffffffff16815260200190815260200160002060000160009054906101000a90047bffffffffffffffffffffffffffffffffffffffffffffffffffffffff167bffffffffffffffffffffffffffffffffffffffffffffffffffffffff1614801561543d57506000609c60008573ffffffffffffffffffffffffffffffffffffffff1673ffffffffffffffffffffffffffffffffffffffff168152602001908152602001600020600001601c9054906101000a900463ffffffff1663ffffffff16145b156155895760405180604001604052806ec097ce7bc90715b34b9f10000000007bffffffffffffffffffffffffffffffffffffffffffffffffffffffff1681526020016154bf436040518060400160405280601c81526020017f626c6f636b206e756d6265722065786365656473203332206269747300000000815250615801565b63ffffffff16815250609c60008573ffffffffffffffffffffffffffffffffffffffff1673ffffffffffffffffffffffffffffffffffffffff16815260200190815260200160002060008201518160000160006101000a8154817bffffffffffffffffffffffffffffffffffffffffffffffffffffffff02191690837bffffffffffffffffffffffffffffffffffffffffffffffffffffffff160217905550602082015181600001601c6101000a81548163ffffffff021916908363ffffffff1602179055509050505b5b5b8181146156255781609a60008573ffffffffffffffffffffffffffffffffffffffff1673ffffffffffffffffffffffffffffffffffffffff168152602001908152602001600020819055508273ffffffffffffffffffffffffffffffffffffffff167fff762c446cf74e816bf5f9eaeadb8596574ad13acd08e7bce6d246991645e328836040518082815260200191505060405180910390a25b505050565b600061566c83836040518060400160405280601581526020017f7375627472616374696f6e20756e646572666c6f7700000000000000000000008152506162f1565b905092915050565b60006156b683836040518060400160405280601781526020017f6d756c7469706c69636174696f6e206f766572666c6f770000000000000000008152506163ab565b905092915050565b6156c6616e04565b60405180602001604052806156f36156ed866ec097ce7bc90715b34b9f1000000000615674565b85616490565b815250905092915050565b615706616e04565b60405180602001604052806157238560000151856000015161591c565b815250905092915050565b60007c0100000000000000000000000000000000000000000000000000000000831082906157f7576040517f08c379a00000000000000000000000000000000000000000000000000000000081526004018080602001828103825283818151815260200191508051906020019080838360005b838110156157bc5780820151818401526020810190506157a1565b50505050905090810190601f1680156157e95780820380516001836020036101000a031916815260200191505b509250505060405180910390fd5b5082905092915050565b6000640100000000831082906158b2576040517f08c379a00000000000000000000000000000000000000000000000000000000081526004018080602001828103825283818151815260200191508051906020019080838360005b8381101561587757808201518184015260208101905061585c565b50505050905090810190601f1680156158a45780820380516001836020036101000a031916815260200191505b509250505060405180910390fd5b5082905092915050565b6158c4616e04565b60405180602001604052806158e18560000151856000015161562a565b815250905092915050565b60006ec097ce7bc90715b34b9f100000000061590c848460000151615674565b8161591357fe5b04905092915050565b600061595e83836040518060400160405280601181526020017f6164646974696f6e206f766572666c6f770000000000000000000000000000008152506164da565b905092915050565b60008183101580156159785750600083115b15615b27576000609760009054906101000a900473ffffffffffffffffffffffffffffffffffffffff1673ffffffffffffffffffffffffffffffffffffffff166370a08231306040518263ffffffff1660e01b8152600401808273ffffffffffffffffffffffffffffffffffffffff16815260200191505060206040518083038186803b158015615a0857600080fd5b505afa158015615a1c573d6000803e3d6000fd5b505050506040513d6020811015615a3257600080fd5b81019080805190602001909291905050509050808411615b2557609760009054906101000a900473ffffffffffffffffffffffffffffffffffffffff1673ffffffffffffffffffffffffffffffffffffffff1663a9059cbb86866040518363ffffffff1660e01b8152600401808373ffffffffffffffffffffffffffffffffffffffff16815260200182815260200192505050602060405180830381600087803b158015615adf57600080fd5b505af1158015615af3573d6000803e3d6000fd5b505050506040513d6020811015615b0957600080fd5b8101908080519060200190929190505050506000915050615b2b565b505b8290505b9392505050565b6000615b53615b4984670de0b6b3a7640000615674565b8360000151616490565b905092915050565b600060019054906101000a900460ff1680615b7a5750615b79614a1d565b5b80615b90575060008054906101000a900460ff16155b615be5576040517f08c379a000000000000000000000000000000000000000000000000000000000815260040180806020018281038252602e815260200180616e7c602e913960400191505060405180910390fd5b60008060019054906101000a900460ff161590508015615c35576001600060016101000a81548160ff02191690831515021790555060016000806101000a81548160ff0219169083151502179055505b8015615c565760008060016101000a81548160ff0219169083151502179055505b50565b600060019054906101000a900460ff1680615c785750615c77614a1d565b5b80615c8e575060008054906101000a900460ff16155b615ce3576040517f08c379a000000000000000000000000000000000000000000000000000000000815260040180806020018281038252602e815260200180616e7c602e913960400191505060405180910390fd5b60008060019054906101000a900460ff161590508015615d33576001600060016101000a81548160ff02191690831515021790555060016000806101000a81548160ff0219169083151502179055505b6000615d3d613a58565b905080606560006101000a81548173ffffffffffffffffffffffffffffffffffffffff021916908373ffffffffffffffffffffffffffffffffffffffff1602179055508073ffffffffffffffffffffffffffffffffffffffff16600073ffffffffffffffffffffffffffffffffffffffff167f8be0079c531659141344cd1fd0a4f28419497f9722a3daafe3b4186f6b6457e060405160405180910390a3508015615dfd5760008060016101000a81548160ff0219169083151502179055505b50565b600060a060039054906101000a900460ff168015615e2a575060a060049054906101000a900460ff165b1561609e57615e37616df1565b60405180602001604052808473ffffffffffffffffffffffffffffffffffffffff1663aa5af0fd6040518163ffffffff1660e01b815260040160206040518083038186803b158015615e8857600080fd5b505afa158015615e9c573d6000803e3d6000fd5b505050506040513d6020811015615eb257600080fd5b81019080805190602001909291905050508152509050615ed0616e17565b615eda8483616599565b9050615ee4616e04565b604051806020016040528083600001517bffffffffffffffffffffffffffffffffffffffffffffffffffffffff168152509050615f1f616e04565b6040518060200160405280609e60008973ffffffffffffffffffffffffffffffffffffffff1673ffffffffffffffffffffffffffffffffffffffff16815260200190815260200160002060008a73ffffffffffffffffffffffffffffffffffffffff1673ffffffffffffffffffffffffffffffffffffffff16815260200190815260200160002054815250905060008160000151111561609957615fc1616e04565b615fcb83836158bc565b9050600061607a8873ffffffffffffffffffffffffffffffffffffffff166395dd91938b6040518263ffffffff1660e01b8152600401808273ffffffffffffffffffffffffffffffffffffffff16815260200191505060206040518083038186803b15801561603957600080fd5b505afa15801561604d573d6000803e3d6000fd5b505050506040513d602081101561606357600080fd5b810190808051906020019092919050505087615b32565b9050600061608882846158ec565b9050809750505050505050506160a3565b505050505b600090505b92915050565b600060a060019054906101000a900460ff1680156160d3575060a060029054906101000a900460ff165b156162e6576160e0616e17565b6160e98361696a565b90506160f3616e04565b604051806020016040528083600001517bffffffffffffffffffffffffffffffffffffffffffffffffffffffff16815250905061612e616e04565b6040518060200160405280609d60008873ffffffffffffffffffffffffffffffffffffffff1673ffffffffffffffffffffffffffffffffffffffff16815260200190815260200160002060008973ffffffffffffffffffffffffffffffffffffffff1673ffffffffffffffffffffffffffffffffffffffff168152602001908152602001600020548152509050600081600001511480156161d3575060008260000151115b15616210576ec097ce7bc90715b34b9f10000000007bffffffffffffffffffffffffffffffffffffffffffffffffffffffff168160000181815250505b616218616e04565b61622283836158bc565b905060008673ffffffffffffffffffffffffffffffffffffffff166370a08231896040518263ffffffff1660e01b8152600401808273ffffffffffffffffffffffffffffffffffffffff16815260200191505060206040518083038186803b15801561628d57600080fd5b505afa1580156162a1573d6000803e3d6000fd5b505050506040513d60208110156162b757600080fd5b8101908080519060200190929190505050905060006162d682846158ec565b90508096505050505050506162eb565b600090505b92915050565b600083831115829061639e576040517f08c379a00000000000000000000000000000000000000000000000000000000081526004018080602001828103825283818151815260200191508051906020019080838360005b83811015616363578082015181840152602081019050616348565b50505050905090810190601f1680156163905780820380516001836020036101000a031916815260200191505b509250505060405180910390fd5b5082840390509392505050565b6000808414806163bb5750600083145b156163c95760009050616489565b60008385029050838582816163da57fe5b04148390616483576040517f08c379a00000000000000000000000000000000000000000000000000000000081526004018080602001828103825283818151815260200191508051906020019080838360005b8381101561644857808201518184015260208101905061642d565b50505050905090810190601f1680156164755780820380516001836020036101000a031916815260200191505b509250505060405180910390fd5b50809150505b9392505050565b60006164d283836040518060400160405280600e81526020017f646976696465206279207a65726f000000000000000000000000000000000000815250616d31565b905092915050565b600080838501905084811015839061658d576040517f08c379a00000000000000000000000000000000000000000000000000000000081526004018080602001828103825283818151815260200191508051906020019080838360005b83811015616552578082015181840152602081019050616537565b50505050905090810190601f16801561657f5780820380516001836020036101000a031916815260200191505b509250505060405180910390fd5b50809150509392505050565b6165a1616e17565b6165a9616e17565b609c60008573ffffffffffffffffffffffffffffffffffffffff1673ffffffffffffffffffffffffffffffffffffffff1681526020019081526020016000206040518060400160405290816000820160009054906101000a90047bffffffffffffffffffffffffffffffffffffffffffffffffffffffff167bffffffffffffffffffffffffffffffffffffffffffffffffffffffff167bffffffffffffffffffffffffffffffffffffffffffffffffffffffff16815260200160008201601c9054906101000a900463ffffffff1663ffffffff1663ffffffff168152505090506000609a60008673ffffffffffffffffffffffffffffffffffffffff1673ffffffffffffffffffffffffffffffffffffffff168152602001908152602001600020549050600043905060006166e882856020015163ffffffff1661562a565b90506000811180156166fa5750600083115b156168d557600061678b8873ffffffffffffffffffffffffffffffffffffffff166347bd37186040518163ffffffff1660e01b815260040160206040518083038186803b15801561674a57600080fd5b505afa15801561675e573d6000803e3d6000fd5b505050506040513d602081101561677457600080fd5b810190808051906020019092919050505088615b32565b905060006167998386615674565b90506167a3616e04565b600083116167c057604051806020016040528060008152506167cb565b6167ca82846156be565b5b90506167d5616e04565b61680f60405180602001604052808a600001517bffffffffffffffffffffffffffffffffffffffffffffffffffffffff16815250836156fe565b9050604051806040016040528061685f83600001516040518060400160405280601a81526020017f6e657720696e646578206578636565647320323234206269747300000000000081525061572e565b7bffffffffffffffffffffffffffffffffffffffffffffffffffffffff1681526020016168c1886040518060400160405280601c81526020017f626c6f636b206e756d6265722065786365656473203332206269747300000000815250615801565b63ffffffff1681525097505050505061695d565b600081111561695c57604051806040016040528085600001517bffffffffffffffffffffffffffffffffffffffffffffffffffffffff168152602001616950846040518060400160405280601c81526020017f626c6f636b206e756d6265722065786365656473203332206269747300000000815250615801565b63ffffffff1681525093505b5b8394505050505092915050565b616972616e17565b61697a616e17565b609b60008473ffffffffffffffffffffffffffffffffffffffff1673ffffffffffffffffffffffffffffffffffffffff1681526020019081526020016000206040518060400160405290816000820160009054906101000a90047bffffffffffffffffffffffffffffffffffffffffffffffffffffffff167bffffffffffffffffffffffffffffffffffffffffffffffffffffffff167bffffffffffffffffffffffffffffffffffffffffffffffffffffffff16815260200160008201601c9054906101000a900463ffffffff1663ffffffff1663ffffffff168152505090506000609a60008573ffffffffffffffffffffffffffffffffffffffff1673ffffffffffffffffffffffffffffffffffffffff16815260200190815260200160002054905060004390506000616ab982856020015163ffffffff1661562a565b9050600081118015616acb5750600083115b15616c9d5760008673ffffffffffffffffffffffffffffffffffffffff166318160ddd6040518163ffffffff1660e01b815260040160206040518083038186803b158015616b1857600080fd5b505afa158015616b2c573d6000803e3d6000fd5b505050506040513d6020811015616b4257600080fd5b810190808051906020019092919050505090506000616b618386615674565b9050616b6b616e04565b60008311616b885760405180602001604052806000815250616b93565b616b9282846156be565b5b9050616b9d616e04565b616bd760405180602001604052808a600001517bffffffffffffffffffffffffffffffffffffffffffffffffffffffff16815250836156fe565b90506040518060400160405280616c2783600001516040518060400160405280601a81526020017f6e657720696e646578206578636565647320323234206269747300000000000081525061572e565b7bffffffffffffffffffffffffffffffffffffffffffffffffffffffff168152602001616c89886040518060400160405280601c81526020017f626c6f636b206e756d6265722065786365656473203332206269747300000000815250615801565b63ffffffff16815250975050505050616d25565b6000811115616d2457604051806040016040528085600001517bffffffffffffffffffffffffffffffffffffffffffffffffffffffff168152602001616d18846040518060400160405280601c81526020017f626c6f636b206e756d6265722065786365656473203332206269747300000000815250615801565b63ffffffff1681525093505b5b83945050505050919050565b60008083118290616ddd576040517f08c379a00000000000000000000000000000000000000000000000000000000081526004018080602001828103825283818151815260200191508051906020019080838360005b83811015616da2578082015181840152602081019050616d87565b50505050905090810190601f168015616dcf5780820380516001836020036101000a031916815260200191505b509250505060405180910390fd5b50828481616de757fe5b0490509392505050565b6040518060200160405280600081525090565b6040518060200160405280600081525090565b604051806040016040528060007bffffffffffffffffffffffffffffffffffffffffffffffffffffffff168152602001600063ffffffff168152509056fe4f776e61626c653a206e6577206f776e657220697320746865207a65726f2061646472657373436f6e747261637420696e7374616e63652068617320616c7265616479206265656e20696e697469616c697a6564a2646970667358221220b7b06f7fb1aa77f5305e5e8347c413928dbf79c07b5e88a8dd6821ffae2ae92764736f6c634300060c0033",
  "compiler": {
    "name": "solc",
    "version": "0.6.12+commit.27d51765.Emscripten.clang",
    "optimizer": {
      "enabled": false,
      "runs": 200
    },
    "evmVersion": "istanbul"
  }
}