{
  "fileName": "PTokenStorage.sol",
  "contractName": "PTokenStorage",
  "source": "// https://github.com/compound-finance/compound-protocol/blob/master/contracts/CTokenInterfaces.sol\n//Copyright 2020 Compound Labs, Inc.\n//Redistribution and use in source and binary forms, with or without modification, are permitted provided that the following conditions are met:\n//1. Redistributions of source code must retain the above copyright notice, this list of conditions and the following disclaimer.\n//2. Redistributions in binary form must reproduce the above copyright notice, this list of conditions and the following disclaimer in the documentation and/or other materials provided with the distribution.\n//3. Neither the name of the copyright holder nor the names of its contributors may be used to endorse or promote products derived from this software without specific prior written permission.\n//THIS SOFTWARE IS PROVIDED BY THE COPYRIGHT HOLDERS AND CONTRIBUTORS \"AS IS\" AND ANY EXPRESS OR IMPLIED WARRANTIES, INCLUDING, BUT NOT LIMITED TO, THE IMPLIED WARRANTIES OF MERCHANTABILITY AND FITNESS FOR A PARTICULAR PURPOSE ARE DISCLAIMED. IN NO EVENT SHALL THE COPYRIGHT HOLDER OR CONTRIBUTORS BE LIABLE FOR ANY DIRECT, INDIRECT, INCIDENTAL, SPECIAL, EXEMPLARY, OR CONSEQUENTIAL DAMAGES (INCLUDING, BUT NOT LIMITED TO, PROCUREMENT OF SUBSTITUTE GOODS OR SERVICES; LOSS OF USE, DATA, OR PROFITS; OR BUSINESS INTERRUPTION) HOWEVER CAUSED AND ON ANY THEORY OF LIABILITY, WHETHER IN CONTRACT, STRICT LIABILITY, OR TORT (INCLUDING NEGLIGENCE OR OTHERWISE) ARISING IN ANY WAY OUT OF THE USE OF THIS SOFTWARE, EVEN IF ADVISED OF THE POSSIBILITY OF SUCH DAMAGE.\n\n// SPDX-License-Identifier: MIT\npragma solidity ^0.6.0;\n\nimport \"../comptroller/IComptroller.sol\";\nimport \"../rate/IInterestRateModel.sol\";\n\ncontract PTokenStorage {\n    /**\n     * @notice Indicator that this is a PToken contract (for inspection)\n     */\n    bool public constant isPToken = true;\n\n    /**\n     * @dev Guard variable for re-entrancy checks\n     */\n    bool internal _notEntered;\n\n    /**\n     * @dev\n     * @notice EIP-20 token name for this token\n     */\n    string public name;\n\n    /**\n     * @dev\n     * @notice EIP-20 token symbol for this token\n     */\n    string public symbol;\n\n    /**\n     * @dev\n     * @notice EIP-20 token decimals for this token\n     */\n    uint8 public decimals;\n\n    /**\n     * @dev\n     * @notice Maximum borrow rate that can ever be applied (.0005% / block)\n     */\n\n    uint256 internal constant borrowRateMaxMantissa = 0.0005e16;\n\n    /**\n     * @dev\n     * @notice Maximum fraction of interest that can be set aside for reserves\n     */\n    uint256 internal constant reserveFactorMaxMantissa = 1e18;\n\n    /**\n     * @dev\n     * @notice Contract which oversees inter-pToken operations\n     */\n    IComptroller public comptroller;\n\n    /**\n     * @dev\n     * @notice Model which tells what the current interest rate should be\n     */\n    IInterestRateModel public interestRateModel;\n\n    /**\n     * @dev\n     * @notice Initial exchange rate used when minting the first PTokens (used when totalSupply = 0)\n     */\n    uint256 internal initialExchangeRateMantissa;\n\n    /**\n     * @dev\n     * @notice Fraction of interest currently set aside for reserves\n     */\n    uint256 public reserveFactorMantissa;\n\n    /**\n     * @dev\n     * @notice Block number that interest was last accrued at\n     */\n    uint256 public accrualBlockNumber;\n\n    /**\n     * @dev\n     * @notice Accumulator of the total earned interest rate since the opening of the market\n     */\n    uint256 public borrowIndex;\n\n    /**\n     * @dev\n     * @notice Total amount of outstanding borrows of the underlying in this market\n     */\n    uint256 public totalBorrows;\n\n    /**\n     * @dev\n     * @notice Total amount of reserves of the underlying held in this market\n     */\n    uint256 public totalReserves;\n\n    /**\n     * @dev\n     * @notice Total number of tokens in circulation\n     */\n    uint256 public totalSupply;\n\n    /**\n     * @dev\n     * @notice Official record of token balances for each account\n     */\n    mapping(address => uint256) internal accountTokens;\n\n    /**\n     * @dev\n     * @notice Approved token transfer amounts on behalf of others\n     */\n    mapping(address => mapping(address => uint256)) internal transferAllowances;\n\n    /**\n     * @notice Container for borrow balance information\n     * @member principal Total balance (with accrued interest), after applying the most recent balance-changing action\n     * @member interestIndex Global borrowIndex as of the most recent balance-changing action\n     */\n    struct BorrowSnapshot {\n        uint256 principal;\n        uint256 interestIndex;\n    }\n\n    /**\n     * @dev\n     * @notice Mapping of account addresses to outstanding borrow balances\n     */\n    mapping(address => BorrowSnapshot) internal accountBorrows;\n\n    address public migrator;\n\n    uint256 public minInterestAccumulated;\n\n}\n",
  "sourcePath": "contracts/token/PTokenStorage.sol",
  "abi": [
    {
      "inputs": [],
      "name": "accrualBlockNumber",
      "outputs": [
        {
          "internalType": "uint256",
          "name": "",
          "type": "uint256"
        }
      ],
      "stateMutability": "view",
      "type": "function"
    },
    {
      "inputs": [],
      "name": "borrowIndex",
      "outputs": [
        {
          "internalType": "uint256",
          "name": "",
          "type": "uint256"
        }
      ],
      "stateMutability": "view",
      "type": "function"
    },
    {
      "inputs": [],
      "name": "comptroller",
      "outputs": [
        {
          "internalType": "contract IComptroller",
          "name": "",
          "type": "address"
        }
      ],
      "stateMutability": "view",
      "type": "function"
    },
    {
      "inputs": [],
      "name": "decimals",
      "outputs": [
        {
          "internalType": "uint8",
          "name": "",
          "type": "uint8"
        }
      ],
      "stateMutability": "view",
      "type": "function"
    },
    {
      "inputs": [],
      "name": "interestRateModel",
      "outputs": [
        {
          "internalType": "contract IInterestRateModel",
          "name": "",
          "type": "address"
        }
      ],
      "stateMutability": "view",
      "type": "function"
    },
    {
      "inputs": [],
      "name": "isPToken",
      "outputs": [
        {
          "internalType": "bool",
          "name": "",
          "type": "bool"
        }
      ],
      "stateMutability": "view",
      "type": "function"
    },
    {
      "inputs": [],
      "name": "migrator",
      "outputs": [
        {
          "internalType": "address",
          "name": "",
          "type": "address"
        }
      ],
      "stateMutability": "view",
      "type": "function"
    },
    {
      "inputs": [],
      "name": "minInterestAccumulated",
      "outputs": [
        {
          "internalType": "uint256",
          "name": "",
          "type": "uint256"
        }
      ],
      "stateMutability": "view",
      "type": "function"
    },
    {
      "inputs": [],
      "name": "name",
      "outputs": [
        {
          "internalType": "string",
          "name": "",
          "type": "string"
        }
      ],
      "stateMutability": "view",
      "type": "function"
    },
    {
      "inputs": [],
      "name": "reserveFactorMantissa",
      "outputs": [
        {
          "internalType": "uint256",
          "name": "",
          "type": "uint256"
        }
      ],
      "stateMutability": "view",
      "type": "function"
    },
    {
      "inputs": [],
      "name": "symbol",
      "outputs": [
        {
          "internalType": "string",
          "name": "",
          "type": "string"
        }
      ],
      "stateMutability": "view",
      "type": "function"
    },
    {
      "inputs": [],
      "name": "totalBorrows",
      "outputs": [
        {
          "internalType": "uint256",
          "name": "",
          "type": "uint256"
        }
      ],
      "stateMutability": "view",
      "type": "function"
    },
    {
      "inputs": [],
      "name": "totalReserves",
      "outputs": [
        {
          "internalType": "uint256",
          "name": "",
          "type": "uint256"
        }
      ],
      "stateMutability": "view",
      "type": "function"
    },
    {
      "inputs": [],
      "name": "totalSupply",
      "outputs": [
        {
          "internalType": "uint256",
          "name": "",
          "type": "uint256"
        }
      ],
      "stateMutability": "view",
      "type": "function"
    }
  ],
  "bytecode": "0x608060405234801561001057600080fd5b506105ca806100206000396000f3fe608060405234801561001057600080fd5b50600436106100ea5760003560e01c80636c540baf1161008c57806395d89b411161006657806395d89b41146102b1578063aa5af0fd14610334578063e228bb4314610352578063f3fdb15a14610370576100ea565b80636c540baf146102415780637cd07e471461025f5780638f840ddd14610293576100ea565b8063313ce567116100c8578063313ce567146101ae57806347bd3718146101cf5780635a890c0e146101ed5780635fe3b5671461020d576100ea565b806306fdde03146100ef578063173b99041461017257806318160ddd14610190575b600080fd5b6100f76103a4565b6040518080602001828103825283818151815260200191508051906020019080838360005b8381101561013757808201518184015260208101905061011c565b50505050905090810190601f1680156101645780820380516001836020036101000a031916815260200191505b509250505060405180910390f35b61017a610442565b6040518082815260200191505060405180910390f35b610198610448565b6040518082815260200191505060405180910390f35b6101b661044e565b604051808260ff16815260200191505060405180910390f35b6101d7610461565b6040518082815260200191505060405180910390f35b6101f5610467565b60405180821515815260200191505060405180910390f35b61021561046c565b604051808273ffffffffffffffffffffffffffffffffffffffff16815260200191505060405180910390f35b610249610492565b6040518082815260200191505060405180910390f35b610267610498565b604051808273ffffffffffffffffffffffffffffffffffffffff16815260200191505060405180910390f35b61029b6104be565b6040518082815260200191505060405180910390f35b6102b96104c4565b6040518080602001828103825283818151815260200191508051906020019080838360005b838110156102f95780820151818401526020810190506102de565b50505050905090810190601f1680156103265780820380516001836020036101000a031916815260200191505b509250505060405180910390f35b61033c610562565b6040518082815260200191505060405180910390f35b61035a610568565b6040518082815260200191505060405180910390f35b61037861056e565b604051808273ffffffffffffffffffffffffffffffffffffffff16815260200191505060405180910390f35b60018054600181600116156101000203166002900480601f01602080910402602001604051908101604052809291908181526020018280546001816001161561010002031660029004801561043a5780601f1061040f5761010080835404028352916020019161043a565b820191906000526020600020905b81548152906001019060200180831161041d57829003601f168201915b505050505081565b60065481565b600b5481565b600360009054906101000a900460ff1681565b60095481565b600181565b600360019054906101000a900473ffffffffffffffffffffffffffffffffffffffff1681565b60075481565b600f60009054906101000a900473ffffffffffffffffffffffffffffffffffffffff1681565b600a5481565b60028054600181600116156101000203166002900480601f01602080910402602001604051908101604052809291908181526020018280546001816001161561010002031660029004801561055a5780601f1061052f5761010080835404028352916020019161055a565b820191906000526020600020905b81548152906001019060200180831161053d57829003601f168201915b505050505081565b60085481565b60105481565b600460009054906101000a900473ffffffffffffffffffffffffffffffffffffffff168156fea2646970667358221220bb14ac9311e65d0b0e1d8ad31c5f99d0eb9c8d5d23ffa7f0327a95e66df7578b64736f6c634300060c0033",
  "compiler": {
    "name": "solc",
    "version": "0.6.12+commit.27d51765.Emscripten.clang",
    "optimizer": {
      "enabled": false,
      "runs": 200
    },
    "evmVersion": "istanbul"
  }
}