{
  "fileName": "WePiggyPriceOracleV1.sol",
  "contractName": "WePiggyPriceOracleV1",
  "source": "pragma solidity 0.6.12;\n\nimport \"./WePiggyPriceOracleInterface.sol\";\nimport \"../token/ERC20Interface.sol\";\nimport \"@openzeppelin/contracts-ethereum-package/contracts/math/SafeMath.sol\";\nimport \"@openzeppelin/contracts-ethereum-package/contracts/access/Ownable.sol\";\n\ncontract WePiggyPriceOracleV1 is WePiggyPriceOracleInterface, OwnableUpgradeSafe {\n\n    using SafeMath for uint256;\n\n    ///@notice The fundamental unit of storage for a reporter source\n    struct Datum {\n        uint256 timestamp;\n        uint256 value;\n    }\n\n    struct TokenConfig {\n        address token;\n        string symbol;\n        uint upperBoundAnchorRatio; //1.2e2\n        uint lowerBoundAnchorRatio; //0.8e2\n    }\n\n    mapping(address => Datum) private data;\n    mapping(address => TokenConfig) public configs;\n    uint internal constant minLowerBoundAnchorRatio = 0.8e2;\n    uint internal constant maxUpperBoundAnchorRatio = 1.2e2;\n\n    bytes32 public constant REPORTER_ROLE = keccak256(\"REPORTER_ROLE\");\n    bytes32 public constant ADMIN_ROLE = keccak256(\"ADMIN_ROLE\");\n\n    /// @notice The event emitted when the stored price is updated\n    event PriceUpdated(address token, uint price);\n    event ConfigUpdated(address token, string symbol, uint upperBoundAnchorRatio, uint lowerBoundAnchorRatio);\n\n    function initialize() public initializer {\n        OwnableUpgradeSafe.__Ownable_init();\n    }\n\n    function getPrice(address token) external override(WePiggyPriceOracleInterface) view returns (uint){\n        Datum storage datum = data[token];\n        return datum.value;\n    }\n\n    function setPrice(address token, uint price, bool force) external override(WePiggyPriceOracleInterface) onlyOwner {\n        _setPrice(token, price, force);\n        emit PriceUpdated(token, price);\n    }\n\n\n    function setPrices(address[] calldata tokens, uint[] calldata prices) external onlyOwner {\n\n        require(tokens.length == prices.length, \"bad params\");\n\n        for (uint i = 0; i < tokens.length; i++) {\n            address token = tokens[i];\n            uint price = prices[i];\n            bool force = false;\n\n            _setPrice(token, price, force);\n            emit PriceUpdated(token, price);\n        }\n\n    }\n\n    function _setPrice(address token, uint price, bool force) internal {\n        Datum storage datum = data[token];\n        if (force) {\n            datum.value = price;\n            datum.timestamp = block.timestamp;\n        } else {\n            TokenConfig storage config = configs[token];\n            require(config.token == token, \"bad params\");\n\n            uint upper = datum.value.mul(config.upperBoundAnchorRatio).div(1e2);\n            uint lower = datum.value.mul(config.lowerBoundAnchorRatio).div(1e2);\n\n            require(price.sub(lower) >= 0, \"the price must greater than the old*lowerBoundAnchorRatio\");\n            require(upper.sub(price) >= 0, \"the price must less than the old*upperBoundAnchorRatio\");\n\n            datum.value = price;\n            datum.timestamp = block.timestamp;\n        }\n    }\n\n    function setTokenConfig(address token, string memory symbol, uint upperBoundAnchorRatio, uint lowerBoundAnchorRatio) public onlyOwner {\n\n        require(minLowerBoundAnchorRatio <= lowerBoundAnchorRatio, \"lowerBoundAnchorRatio must greater or equal to minLowerBoundAnchorRatio\");\n        require(maxUpperBoundAnchorRatio >= upperBoundAnchorRatio, \"upperBoundAnchorRatio must Less than or equal to maxUpperBoundAnchorRatio\");\n\n        TokenConfig storage config = configs[token];\n\n        config.token = token;\n        config.symbol = symbol;\n        config.upperBoundAnchorRatio = upperBoundAnchorRatio;\n        config.lowerBoundAnchorRatio = lowerBoundAnchorRatio;\n\n        emit ConfigUpdated(token, symbol, upperBoundAnchorRatio, lowerBoundAnchorRatio);\n\n    }\n\n}\n",
  "sourcePath": "contracts/oracle/WePiggyPriceOracleV1.sol",
  "abi": [
    {
      "anonymous": false,
      "inputs": [
        {
          "indexed": false,
          "internalType": "address",
          "name": "token",
          "type": "address"
        },
        {
          "indexed": false,
          "internalType": "string",
          "name": "symbol",
          "type": "string"
        },
        {
          "indexed": false,
          "internalType": "uint256",
          "name": "upperBoundAnchorRatio",
          "type": "uint256"
        },
        {
          "indexed": false,
          "internalType": "uint256",
          "name": "lowerBoundAnchorRatio",
          "type": "uint256"
        }
      ],
      "name": "ConfigUpdated",
      "type": "event"
    },
    {
      "anonymous": false,
      "inputs": [
        {
          "indexed": true,
          "internalType": "address",
          "name": "previousOwner",
          "type": "address"
        },
        {
          "indexed": true,
          "internalType": "address",
          "name": "newOwner",
          "type": "address"
        }
      ],
      "name": "OwnershipTransferred",
      "type": "event"
    },
    {
      "anonymous": false,
      "inputs": [
        {
          "indexed": false,
          "internalType": "address",
          "name": "token",
          "type": "address"
        },
        {
          "indexed": false,
          "internalType": "uint256",
          "name": "price",
          "type": "uint256"
        }
      ],
      "name": "PriceUpdated",
      "type": "event"
    },
    {
      "inputs": [],
      "name": "ADMIN_ROLE",
      "outputs": [
        {
          "internalType": "bytes32",
          "name": "",
          "type": "bytes32"
        }
      ],
      "stateMutability": "view",
      "type": "function"
    },
    {
      "inputs": [],
      "name": "REPORTER_ROLE",
      "outputs": [
        {
          "internalType": "bytes32",
          "name": "",
          "type": "bytes32"
        }
      ],
      "stateMutability": "view",
      "type": "function"
    },
    {
      "inputs": [
        {
          "internalType": "address",
          "name": "",
          "type": "address"
        }
      ],
      "name": "configs",
      "outputs": [
        {
          "internalType": "address",
          "name": "token",
          "type": "address"
        },
        {
          "internalType": "string",
          "name": "symbol",
          "type": "string"
        },
        {
          "internalType": "uint256",
          "name": "upperBoundAnchorRatio",
          "type": "uint256"
        },
        {
          "internalType": "uint256",
          "name": "lowerBoundAnchorRatio",
          "type": "uint256"
        }
      ],
      "stateMutability": "view",
      "type": "function"
    },
    {
      "inputs": [
        {
          "internalType": "address",
          "name": "token",
          "type": "address"
        }
      ],
      "name": "getPrice",
      "outputs": [
        {
          "internalType": "uint256",
          "name": "",
          "type": "uint256"
        }
      ],
      "stateMutability": "view",
      "type": "function"
    },
    {
      "inputs": [],
      "name": "initialize",
      "outputs": [],
      "stateMutability": "nonpayable",
      "type": "function"
    },
    {
      "inputs": [],
      "name": "owner",
      "outputs": [
        {
          "internalType": "address",
          "name": "",
          "type": "address"
        }
      ],
      "stateMutability": "view",
      "type": "function"
    },
    {
      "inputs": [],
      "name": "renounceOwnership",
      "outputs": [],
      "stateMutability": "nonpayable",
      "type": "function"
    },
    {
      "inputs": [
        {
          "internalType": "address",
          "name": "token",
          "type": "address"
        },
        {
          "internalType": "uint256",
          "name": "price",
          "type": "uint256"
        },
        {
          "internalType": "bool",
          "name": "force",
          "type": "bool"
        }
      ],
      "name": "setPrice",
      "outputs": [],
      "stateMutability": "nonpayable",
      "type": "function"
    },
    {
      "inputs": [
        {
          "internalType": "address[]",
          "name": "tokens",
          "type": "address[]"
        },
        {
          "internalType": "uint256[]",
          "name": "prices",
          "type": "uint256[]"
        }
      ],
      "name": "setPrices",
      "outputs": [],
      "stateMutability": "nonpayable",
      "type": "function"
    },
    {
      "inputs": [
        {
          "internalType": "address",
          "name": "token",
          "type": "address"
        },
        {
          "internalType": "string",
          "name": "symbol",
          "type": "string"
        },
        {
          "internalType": "uint256",
          "name": "upperBoundAnchorRatio",
          "type": "uint256"
        },
        {
          "internalType": "uint256",
          "name": "lowerBoundAnchorRatio",
          "type": "uint256"
        }
      ],
      "name": "setTokenConfig",
      "outputs": [],
      "stateMutability": "nonpayable",
      "type": "function"
    },
    {
      "inputs": [
        {
          "internalType": "address",
          "name": "newOwner",
          "type": "address"
        }
      ],
      "name": "transferOwnership",
      "outputs": [],
      "stateMutability": "nonpayable",
      "type": "function"
    }
  ],
  "bytecode": "0x608060405234801561001057600080fd5b50611cd1806100206000396000f3fe608060405234801561001057600080fd5b50600436106100a95760003560e01c806375b238fc1161007157806375b238fc146102565780638129fc1c1461027457806382c26dc91461027e5780638da5cb5b1461036d578063f2fde38b146103a1578063fce89878146103e5576100a9565b80632caf02d0146100ae5780633f60d7991461010857806341976e09146101265780634352fa9f1461017e578063715018a61461024c575b600080fd5b610106600480360360608110156100c457600080fd5b81019080803573ffffffffffffffffffffffffffffffffffffffff169060200190929190803590602001909291908035151590602001909291905050506104cd565b005b6101106105fc565b6040518082815260200191505060405180910390f35b6101686004803603602081101561013c57600080fd5b81019080803573ffffffffffffffffffffffffffffffffffffffff169060200190929190505050610620565b6040518082815260200191505060405180910390f35b61024a6004803603604081101561019457600080fd5b81019080803590602001906401000000008111156101b157600080fd5b8201836020820111156101c357600080fd5b803590602001918460208302840111640100000000831117156101e557600080fd5b90919293919293908035906020019064010000000081111561020657600080fd5b82018360208201111561021857600080fd5b8035906020019184602083028401116401000000008311171561023a57600080fd5b9091929391929390505050610671565b005b610254610881565b005b61025e610a0c565b6040518082815260200191505060405180910390f35b61027c610a30565b005b61036b6004803603608081101561029457600080fd5b81019080803573ffffffffffffffffffffffffffffffffffffffff169060200190929190803590602001906401000000008111156102d157600080fd5b8201836020820111156102e357600080fd5b8035906020019184600183028401116401000000008311171561030557600080fd5b91908080601f016020809104026020016040519081016040528093929190818152602001838380828437600081840152601f19601f8201169050808301925050505050505091929192908035906020019092919080359060200190929190505050610b36565b005b610375610e36565b604051808273ffffffffffffffffffffffffffffffffffffffff16815260200191505060405180910390f35b6103e3600480360360208110156103b757600080fd5b81019080803573ffffffffffffffffffffffffffffffffffffffff169060200190929190505050610e60565b005b610427600480360360208110156103fb57600080fd5b81019080803573ffffffffffffffffffffffffffffffffffffffff169060200190929190505050611070565b604051808573ffffffffffffffffffffffffffffffffffffffff16815260200180602001848152602001838152602001828103825285818151815260200191508051906020019080838360005b8381101561048f578082015181840152602081019050610474565b50505050905090810190601f1680156104bc5780820380516001836020036101000a031916815260200191505b509550505050505060405180910390f35b6104d5611158565b73ffffffffffffffffffffffffffffffffffffffff16606560009054906101000a900473ffffffffffffffffffffffffffffffffffffffff1673ffffffffffffffffffffffffffffffffffffffff1614610597576040517f08c379a00000000000000000000000000000000000000000000000000000000081526004018080602001828103825260208152602001807f4f776e61626c653a2063616c6c6572206973206e6f7420746865206f776e657281525060200191505060405180910390fd5b6105a2838383611160565b7f0d86730737b142fc160892fa8a0f2db687a92a0e294d1ad70624cf5acef03b848383604051808373ffffffffffffffffffffffffffffffffffffffff1681526020018281526020019250505060405180910390a1505050565b7f3204c940063673962b481a0395619b3dbbd137589c419e993978c1c71bcf68ec81565b600080609760008473ffffffffffffffffffffffffffffffffffffffff1673ffffffffffffffffffffffffffffffffffffffff16815260200190815260200160002090508060010154915050919050565b610679611158565b73ffffffffffffffffffffffffffffffffffffffff16606560009054906101000a900473ffffffffffffffffffffffffffffffffffffffff1673ffffffffffffffffffffffffffffffffffffffff161461073b576040517f08c379a00000000000000000000000000000000000000000000000000000000081526004018080602001828103825260208152602001807f4f776e61626c653a2063616c6c6572206973206e6f7420746865206f776e657281525060200191505060405180910390fd5b8181905084849050146107b6576040517f08c379a000000000000000000000000000000000000000000000000000000000815260040180806020018281038252600a8152602001807f62616420706172616d730000000000000000000000000000000000000000000081525060200191505060405180910390fd5b60005b8484905081101561087a5760008585838181106107d257fe5b9050602002013573ffffffffffffffffffffffffffffffffffffffff16905060008484848181106107ff57fe5b9050602002013590506000610815838383611160565b7f0d86730737b142fc160892fa8a0f2db687a92a0e294d1ad70624cf5acef03b848383604051808373ffffffffffffffffffffffffffffffffffffffff1681526020018281526020019250505060405180910390a150505080806001019150506107b9565b5050505050565b610889611158565b73ffffffffffffffffffffffffffffffffffffffff16606560009054906101000a900473ffffffffffffffffffffffffffffffffffffffff1673ffffffffffffffffffffffffffffffffffffffff161461094b576040517f08c379a00000000000000000000000000000000000000000000000000000000081526004018080602001828103825260208152602001807f4f776e61626c653a2063616c6c6572206973206e6f7420746865206f776e657281525060200191505060405180910390fd5b600073ffffffffffffffffffffffffffffffffffffffff16606560009054906101000a900473ffffffffffffffffffffffffffffffffffffffff1673ffffffffffffffffffffffffffffffffffffffff167f8be0079c531659141344cd1fd0a4f28419497f9722a3daafe3b4186f6b6457e060405160405180910390a36000606560006101000a81548173ffffffffffffffffffffffffffffffffffffffff021916908373ffffffffffffffffffffffffffffffffffffffff160217905550565b7fa49807205ce4d355092ef5a8a18f56e8913cf4a201fbe287825b095693c2177581565b600060019054906101000a900460ff1680610a4f5750610a4e611420565b5b80610a65575060008054906101000a900460ff16155b610aba576040517f08c379a000000000000000000000000000000000000000000000000000000000815260040180806020018281038252602e815260200180611bb6602e913960400191505060405180910390fd5b60008060019054906101000a900460ff161590508015610b0a576001600060016101000a81548160ff02191690831515021790555060016000806101000a81548160ff0219169083151502179055505b610b12611437565b8015610b335760008060016101000a81548160ff0219169083151502179055505b50565b610b3e611158565b73ffffffffffffffffffffffffffffffffffffffff16606560009054906101000a900473ffffffffffffffffffffffffffffffffffffffff1673ffffffffffffffffffffffffffffffffffffffff1614610c00576040517f08c379a00000000000000000000000000000000000000000000000000000000081526004018080602001828103825260208152602001807f4f776e61626c653a2063616c6c6572206973206e6f7420746865206f776e657281525060200191505060405180910390fd5b8060501115610c5a576040517f08c379a0000000000000000000000000000000000000000000000000000000008152600401808060200182810382526047815260200180611b4e6047913960600191505060405180910390fd5b8160781015610cb4576040517f08c379a0000000000000000000000000000000000000000000000000000000008152600401808060200182810382526049815260200180611c536049913960600191505060405180910390fd5b6000609860008673ffffffffffffffffffffffffffffffffffffffff1673ffffffffffffffffffffffffffffffffffffffff1681526020019081526020016000209050848160000160006101000a81548173ffffffffffffffffffffffffffffffffffffffff021916908373ffffffffffffffffffffffffffffffffffffffff16021790555083816001019080519060200190610d52929190611a8a565b508281600201819055508181600301819055507fc8004015853107e4cb5efa9fdfc530f3530f5f5d8a833a9d67e2efe39717d7f685858585604051808573ffffffffffffffffffffffffffffffffffffffff16815260200180602001848152602001838152602001828103825285818151815260200191508051906020019080838360005b83811015610df2578082015181840152602081019050610dd7565b50505050905090810190601f168015610e1f5780820380516001836020036101000a031916815260200191505b509550505050505060405180910390a15050505050565b6000606560009054906101000a900473ffffffffffffffffffffffffffffffffffffffff16905090565b610e68611158565b73ffffffffffffffffffffffffffffffffffffffff16606560009054906101000a900473ffffffffffffffffffffffffffffffffffffffff1673ffffffffffffffffffffffffffffffffffffffff1614610f2a576040517f08c379a00000000000000000000000000000000000000000000000000000000081526004018080602001828103825260208152602001807f4f776e61626c653a2063616c6c6572206973206e6f7420746865206f776e657281525060200191505060405180910390fd5b600073ffffffffffffffffffffffffffffffffffffffff168173ffffffffffffffffffffffffffffffffffffffff161415610fb0576040517f08c379a0000000000000000000000000000000000000000000000000000000008152600401808060200182810382526026815260200180611b286026913960400191505060405180910390fd5b8073ffffffffffffffffffffffffffffffffffffffff16606560009054906101000a900473ffffffffffffffffffffffffffffffffffffffff1673ffffffffffffffffffffffffffffffffffffffff167f8be0079c531659141344cd1fd0a4f28419497f9722a3daafe3b4186f6b6457e060405160405180910390a380606560006101000a81548173ffffffffffffffffffffffffffffffffffffffff021916908373ffffffffffffffffffffffffffffffffffffffff16021790555050565b60986020528060005260406000206000915090508060000160009054906101000a900473ffffffffffffffffffffffffffffffffffffffff1690806001018054600181600116156101000203166002900480601f0160208091040260200160405190810160405280929190818152602001828054600181600116156101000203166002900480156111425780601f1061111757610100808354040283529160200191611142565b820191906000526020600020905b81548152906001019060200180831161112557829003601f168201915b5050505050908060020154908060030154905084565b600033905090565b6000609760008573ffffffffffffffffffffffffffffffffffffffff1673ffffffffffffffffffffffffffffffffffffffff168152602001908152602001600020905081156111c05782816001018190555042816000018190555061141a565b6000609860008673ffffffffffffffffffffffffffffffffffffffff1673ffffffffffffffffffffffffffffffffffffffff16815260200190815260200160002090508473ffffffffffffffffffffffffffffffffffffffff168160000160009054906101000a900473ffffffffffffffffffffffffffffffffffffffff1673ffffffffffffffffffffffffffffffffffffffff16146112c8576040517f08c379a000000000000000000000000000000000000000000000000000000000815260040180806020018281038252600a8152602001807f62616420706172616d730000000000000000000000000000000000000000000081525060200191505060405180910390fd5b60006112f860646112ea8460020154866001015461154590919063ffffffff16565b6115cb90919063ffffffff16565b9050600061132a606461131c8560030154876001015461154590919063ffffffff16565b6115cb90919063ffffffff16565b90506000611341828861161590919063ffffffff16565b1015611398576040517f08c379a0000000000000000000000000000000000000000000000000000000008152600401808060200182810382526039815260200180611be46039913960400191505060405180910390fd5b60006113ad878461161590919063ffffffff16565b1015611404576040517f08c379a0000000000000000000000000000000000000000000000000000000008152600401808060200182810382526036815260200180611c1d6036913960400191505060405180910390fd5b8584600101819055504284600001819055505050505b50505050565b6000803090506000813b9050600081149250505090565b600060019054906101000a900460ff16806114565750611455611420565b5b8061146c575060008054906101000a900460ff16155b6114c1576040517f08c379a000000000000000000000000000000000000000000000000000000000815260040180806020018281038252602e815260200180611bb6602e913960400191505060405180910390fd5b60008060019054906101000a900460ff161590508015611511576001600060016101000a81548160ff02191690831515021790555060016000806101000a81548160ff0219169083151502179055505b61151961165f565b61152161175d565b80156115425760008060016101000a81548160ff0219169083151502179055505b50565b60008083141561155857600090506115c5565b600082840290508284828161156957fe5b04146115c0576040517f08c379a0000000000000000000000000000000000000000000000000000000008152600401808060200182810382526021815260200180611b956021913960400191505060405180910390fd5b809150505b92915050565b600061160d83836040518060400160405280601a81526020017f536166654d6174683a206469766973696f6e206279207a65726f000000000000815250611904565b905092915050565b600061165783836040518060400160405280601e81526020017f536166654d6174683a207375627472616374696f6e206f766572666c6f7700008152506119ca565b905092915050565b600060019054906101000a900460ff168061167e575061167d611420565b5b80611694575060008054906101000a900460ff16155b6116e9576040517f08c379a000000000000000000000000000000000000000000000000000000000815260040180806020018281038252602e815260200180611bb6602e913960400191505060405180910390fd5b60008060019054906101000a900460ff161590508015611739576001600060016101000a81548160ff02191690831515021790555060016000806101000a81548160ff0219169083151502179055505b801561175a5760008060016101000a81548160ff0219169083151502179055505b50565b600060019054906101000a900460ff168061177c575061177b611420565b5b80611792575060008054906101000a900460ff16155b6117e7576040517f08c379a000000000000000000000000000000000000000000000000000000000815260040180806020018281038252602e815260200180611bb6602e913960400191505060405180910390fd5b60008060019054906101000a900460ff161590508015611837576001600060016101000a81548160ff02191690831515021790555060016000806101000a81548160ff0219169083151502179055505b6000611841611158565b905080606560006101000a81548173ffffffffffffffffffffffffffffffffffffffff021916908373ffffffffffffffffffffffffffffffffffffffff1602179055508073ffffffffffffffffffffffffffffffffffffffff16600073ffffffffffffffffffffffffffffffffffffffff167f8be0079c531659141344cd1fd0a4f28419497f9722a3daafe3b4186f6b6457e060405160405180910390a35080156119015760008060016101000a81548160ff0219169083151502179055505b50565b600080831182906119b0576040517f08c379a00000000000000000000000000000000000000000000000000000000081526004018080602001828103825283818151815260200191508051906020019080838360005b8381101561197557808201518184015260208101905061195a565b50505050905090810190601f1680156119a25780820380516001836020036101000a031916815260200191505b509250505060405180910390fd5b5060008385816119bc57fe5b049050809150509392505050565b6000838311158290611a77576040517f08c379a00000000000000000000000000000000000000000000000000000000081526004018080602001828103825283818151815260200191508051906020019080838360005b83811015611a3c578082015181840152602081019050611a21565b50505050905090810190601f168015611a695780820380516001836020036101000a031916815260200191505b509250505060405180910390fd5b5060008385039050809150509392505050565b828054600181600116156101000203166002900490600052602060002090601f016020900481019282601f10611acb57805160ff1916838001178555611af9565b82800160010185558215611af9579182015b82811115611af8578251825591602001919060010190611add565b5b509050611b069190611b0a565b5090565b5b80821115611b23576000816000905550600101611b0b565b509056fe4f776e61626c653a206e6577206f776e657220697320746865207a65726f20616464726573736c6f776572426f756e64416e63686f72526174696f206d7573742067726561746572206f7220657175616c20746f206d696e4c6f776572426f756e64416e63686f72526174696f536166654d6174683a206d756c7469706c69636174696f6e206f766572666c6f77436f6e747261637420696e7374616e63652068617320616c7265616479206265656e20696e697469616c697a6564746865207072696365206d7573742067726561746572207468616e20746865206f6c642a6c6f776572426f756e64416e63686f72526174696f746865207072696365206d757374206c657373207468616e20746865206f6c642a7570706572426f756e64416e63686f72526174696f7570706572426f756e64416e63686f72526174696f206d757374204c657373207468616e206f7220657175616c20746f206d61785570706572426f756e64416e63686f72526174696fa26469706673582212203d6b12b471da220a9f9573642858f25db1607c9bee1aa72135b1496f2b57927d64736f6c634300060c0033",
  "compiler": {
    "name": "solc",
    "version": "0.6.12+commit.27d51765.Emscripten.clang",
    "optimizer": {
      "enabled": false,
      "runs": 200
    },
    "evmVersion": "istanbul"
  }
}