{
  "fileName": "WePiggyPriceProviderV1.sol",
  "contractName": "WePiggyPriceProviderV1",
  "source": "pragma solidity 0.6.12;\npragma experimental ABIEncoderV2;\n\nimport \"./WePiggyPriceOracleInterface.sol\";\nimport \"@openzeppelin/contracts/math/SafeMath.sol\";\nimport \"@chainlink/contracts/src/v0.6/interfaces/AggregatorV3Interface.sol\";\nimport \"@openzeppelin/contracts/access/Ownable.sol\";\n\ninterface PTokenInterface {\n    function underlying() external view returns (address);\n\n    function symbol() external view returns (string memory);\n}\n\ninterface CompoundPriceOracleInterface {\n    enum PriceSource {\n        FIXED_ETH, /// implies the fixedPrice is a constant multiple of the ETH price (which varies)\n        FIXED_USD, /// implies the fixedPrice is a constant multiple of the USD price (which is 1)\n        REPORTER   /// implies the price is set by the reporter\n    }\n\n    /// @dev Describe how the USD price should be determined for an asset.\n    ///  There should be 1 TokenConfig object for each supported asset, passed in the constructor.\n    struct CTokenConfig {\n        address cToken;\n        address underlying;\n        bytes32 symbolHash;\n        uint256 baseUnit;\n        PriceSource priceSource;\n        uint256 fixedPrice;\n        address uniswapMarket;\n        bool isUniswapReversed;\n    }\n\n    function getUnderlyingPrice(address cToken) external view returns (uint);\n\n    function getTokenConfigByUnderlying(address underlying) external view returns (CTokenConfig memory);\n\n    function getTokenConfigBySymbol(string memory symbol) external view returns (CTokenConfig memory);\n}\n\ncontract WePiggyPriceProviderV1 is Ownable {\n\n    using SafeMath for uint256;\n\n    enum PriceOracleType{\n        ChainLink,\n        Compound,\n        Customer,\n        ChainLinkEthBase\n    }\n\n    struct PriceOracle {\n        address source;\n        PriceOracleType sourceType;\n        bool available;\n    }\n\n    //Config for pToken\n    struct TokenConfig {\n        address pToken;\n        address underlying;\n        string underlyingSymbol; //example: DAI\n        uint256 baseUnit; //example: 1e18\n        bool fixedUsd; //if true,will return 1*e36/baseUnit\n    }\n\n\n    mapping(address => TokenConfig) public tokenConfigs;\n    mapping(address => PriceOracle[]) public oracles;\n    mapping(address => address) public chainLinkTokenEthPriceFeed;\n\n    address public ethUsdPriceFeedAddress;\n\n    event ConfigUpdated(address pToken, address underlying, string underlyingSymbol, uint256 baseUnit, bool fixedUsd);\n    event PriceOracleUpdated(address pToken, PriceOracle[] oracles);\n\n\n    constructor() public {\n    }\n\n\n    function getUnderlyingPrice(address _pToken) external view returns (uint){\n\n        uint256 price = 0;\n        TokenConfig storage tokenConfig = tokenConfigs[_pToken];\n        if (tokenConfig.fixedUsd) {//if true,will return 1*e36/baseUnit\n            price = 1;\n            return price.mul(1e36).div(tokenConfig.baseUnit);\n        }\n\n        PriceOracle[] storage priceOracles = oracles[_pToken];\n        for (uint256 i = 0; i < priceOracles.length; i++) {\n            PriceOracle storage priceOracle = priceOracles[i];\n            if (priceOracle.available == true) {// check the priceOracle is available\n                price = _getUnderlyingPriceInternal(_pToken, tokenConfig, priceOracle);\n                if (price > 0) {\n                    return price;\n                }\n            }\n        }\n\n        // price must bigger than 0\n        require(price > 0, \"price must bigger than zero\");\n\n        return 0;\n    }\n\n    function _getUnderlyingPriceInternal(address _pToken, TokenConfig memory tokenConfig, PriceOracle memory priceOracle) internal view returns (uint){\n\n        address underlying = address(0xEeeeeEeeeEeEeeEeEeEeeEEEeeeeEeeeeeeeEEeE);\n        PTokenInterface pToken = PTokenInterface(_pToken);\n\n        if (!compareStrings(pToken.symbol(), \"pETH\")) {\n            underlying = address(PTokenInterface(_pToken).underlying());\n        }\n\n        PriceOracleType sourceType = priceOracle.sourceType;\n        if (sourceType == PriceOracleType.ChainLink) {\n            return _getChainlinkPriceInternal(priceOracle, tokenConfig);\n        } else if (sourceType == PriceOracleType.Compound) {\n            return _getCompoundPriceInternal(priceOracle, tokenConfig);\n        } else if (sourceType == PriceOracleType.Customer) {\n            return _getCustomerPriceInternal(priceOracle, tokenConfig);\n        } else if (sourceType == PriceOracleType.ChainLinkEthBase) {\n            return _getChainLinkEthBasePriceInternal(priceOracle, tokenConfig);\n        }\n\n        return 0;\n    }\n\n\n    function _getCustomerPriceInternal(PriceOracle memory priceOracle, TokenConfig memory tokenConfig) internal view returns (uint) {\n        address source = priceOracle.source;\n        WePiggyPriceOracleInterface customerPriceOracle = WePiggyPriceOracleInterface(source);\n        uint price = customerPriceOracle.getPrice(tokenConfig.underlying);\n        if (price <= 0) {\n            return 0;\n        } else {//return: (price / 1e8) * (1e36 / baseUnit) ==> price * 1e28 / baseUnit\n            return uint(price).mul(1e28).div(tokenConfig.baseUnit);\n        }\n    }\n\n    // Get price from compound oracle\n    function _getCompoundPriceInternal(PriceOracle memory priceOracle, TokenConfig memory tokenConfig) internal view returns (uint) {\n        address source = priceOracle.source;\n        CompoundPriceOracleInterface compoundPriceOracle = CompoundPriceOracleInterface(source);\n        CompoundPriceOracleInterface.CTokenConfig memory ctc = compoundPriceOracle.getTokenConfigBySymbol(tokenConfig.underlyingSymbol);\n        address cTokenAddress = ctc.cToken;\n        return compoundPriceOracle.getUnderlyingPrice(cTokenAddress);\n    }\n\n\n    // Get price from chainlink oracle\n    function _getChainlinkPriceInternal(PriceOracle memory priceOracle, TokenConfig memory tokenConfig) internal view returns (uint){\n\n        require(tokenConfig.baseUnit > 0, \"baseUnit must be greater than zero\");\n\n        AggregatorV3Interface priceFeed = AggregatorV3Interface(priceOracle.source);\n        (,int price,,,) = priceFeed.latestRoundData();\n\n        if (price <= 0) {\n            return 0;\n        } else {//return: (price / 1e8) * (1e36 / baseUnit) ==> price * 1e28 / baseUnit\n            return uint(price).mul(1e28).div(tokenConfig.baseUnit);\n        }\n\n    }\n\n    // base chainlink: token-ETH-USD\n    function _getChainLinkEthBasePriceInternal(PriceOracle memory priceOracle, TokenConfig memory tokenConfig) internal view returns (uint){\n        require(tokenConfig.baseUnit > 0, \"baseUnit must be greater than zero\");\n\n        address token = tokenConfig.underlying;\n        AggregatorV3Interface tokenEthPriceFeed = AggregatorV3Interface(chainLinkTokenEthPriceFeed[token]);\n        (,int tokenEthPrice,,,) = tokenEthPriceFeed.latestRoundData();\n\n        AggregatorV3Interface ethUsdPriceFeed = AggregatorV3Interface(ethUsdPriceFeedAddress);\n        (,int ethUsdPrice,,,) = ethUsdPriceFeed.latestRoundData();\n\n        if (tokenEthPrice <= 0) {\n            return 0;\n        } else {// tokenEthPrice/1e18 * ethUsdPrice/1e8 * 1e36 / baseUnit\n            return uint(tokenEthPrice).mul(uint(ethUsdPrice)).mul(1e10).div(tokenConfig.baseUnit);\n        }\n    }\n\n    function addTokenConfig(address pToken, address underlying, string memory underlyingSymbol, uint256 baseUnit, bool fixedUsd,\n        address[] memory sources, PriceOracleType[] calldata sourceTypes) public onlyOwner {\n\n        require(sources.length == sourceTypes.length, \"sourceTypes.length must equal than sources.length\");\n\n        // add TokenConfig\n        TokenConfig storage tokenConfig = tokenConfigs[pToken];\n        require(tokenConfig.pToken == address(0), \"bad params\");\n        tokenConfig.pToken = pToken;\n        tokenConfig.underlying = underlying;\n        tokenConfig.underlyingSymbol = underlyingSymbol;\n        tokenConfig.baseUnit = baseUnit;\n        tokenConfig.fixedUsd = fixedUsd;\n\n        // add priceOracles\n        require(oracles[pToken].length < 1, \"bad params\");\n        for (uint i = 0; i < sources.length; i++) {\n            PriceOracle[] storage list = oracles[pToken];\n            list.push(PriceOracle({\n            source : sources[i],\n            sourceType : sourceTypes[i],\n            available : true\n            }));\n        }\n\n        emit ConfigUpdated(pToken, underlying, underlyingSymbol, baseUnit, fixedUsd);\n        emit PriceOracleUpdated(pToken, oracles[pToken]);\n\n    }\n\n    function addOrUpdateTokenConfigSource(address pToken, uint256 index, address source, PriceOracleType _sourceType, bool available) public onlyOwner {\n\n        PriceOracle[] storage list = oracles[pToken];\n\n        if (list.length > index) {//will update\n            PriceOracle storage oracle = list[index];\n            oracle.source = source;\n            oracle.sourceType = _sourceType;\n            oracle.available = available;\n        } else {//will add\n            list.push(PriceOracle({\n            source : source,\n            sourceType : _sourceType,\n            available : available\n            }));\n        }\n\n    }\n\n    function updateTokenConfigBaseUnit(address pToken, uint256 baseUnit) public onlyOwner {\n        TokenConfig storage tokenConfig = tokenConfigs[pToken];\n        require(tokenConfig.pToken != address(0), \"bad params\");\n        tokenConfig.baseUnit = baseUnit;\n\n        emit ConfigUpdated(pToken, tokenConfig.underlying, tokenConfig.underlyingSymbol, baseUnit, tokenConfig.fixedUsd);\n    }\n\n    function updateTokenConfigFixedUsd(address pToken, bool fixedUsd) public onlyOwner {\n        TokenConfig storage tokenConfig = tokenConfigs[pToken];\n        require(tokenConfig.pToken != address(0), \"bad params\");\n        tokenConfig.fixedUsd = fixedUsd;\n\n        emit ConfigUpdated(pToken, tokenConfig.underlying, tokenConfig.underlyingSymbol, tokenConfig.baseUnit, fixedUsd);\n    }\n\n    function setEthUsdPriceFeedAddress(address feedAddress) public onlyOwner {\n        ethUsdPriceFeedAddress = feedAddress;\n    }\n\n    function addOrUpdateChainLinkTokenEthPriceFeed(address[] memory tokens, address[] memory chainLinkTokenEthPriceFeeds) public onlyOwner {\n\n        require(tokens.length == chainLinkTokenEthPriceFeeds.length, \"tokens.length must equal than chainLinkTokenEthPriceFeeds.length\");\n\n        for (uint i = 0; i < tokens.length; i++) {\n            address token = tokens[i];\n            chainLinkTokenEthPriceFeed[token] = chainLinkTokenEthPriceFeeds[i];\n        }\n\n    }\n\n\n    function getOracleSourcePrice(address pToken, uint sourceIndex) public view returns (uint){\n\n        TokenConfig storage tokenConfig = tokenConfigs[pToken];\n        PriceOracle[] storage priceOracles = oracles[pToken];\n\n        return _getUnderlyingPriceInternal(pToken, tokenConfig, priceOracles[sourceIndex]);\n    }\n\n    function compareStrings(string memory a, string memory b) internal pure returns (bool) {\n        return (keccak256(abi.encodePacked((a))) == keccak256(abi.encodePacked((b))));\n    }\n\n    function oracleLength(address pToken) public view returns (uint){\n        PriceOracle[] storage priceOracles = oracles[pToken];\n        return priceOracles.length;\n    }\n\n}",
  "sourcePath": "contracts/oracle/WePiggyPriceProviderV1.sol",
  "abi": [
    {
      "inputs": [],
      "stateMutability": "nonpayable",
      "type": "constructor"
    },
    {
      "anonymous": false,
      "inputs": [
        {
          "indexed": false,
          "internalType": "address",
          "name": "pToken",
          "type": "address"
        },
        {
          "indexed": false,
          "internalType": "address",
          "name": "underlying",
          "type": "address"
        },
        {
          "indexed": false,
          "internalType": "string",
          "name": "underlyingSymbol",
          "type": "string"
        },
        {
          "indexed": false,
          "internalType": "uint256",
          "name": "baseUnit",
          "type": "uint256"
        },
        {
          "indexed": false,
          "internalType": "bool",
          "name": "fixedUsd",
          "type": "bool"
        }
      ],
      "name": "ConfigUpdated",
      "type": "event"
    },
    {
      "anonymous": false,
      "inputs": [
        {
          "indexed": true,
          "internalType": "address",
          "name": "previousOwner",
          "type": "address"
        },
        {
          "indexed": true,
          "internalType": "address",
          "name": "newOwner",
          "type": "address"
        }
      ],
      "name": "OwnershipTransferred",
      "type": "event"
    },
    {
      "anonymous": false,
      "inputs": [
        {
          "indexed": false,
          "internalType": "address",
          "name": "pToken",
          "type": "address"
        },
        {
          "components": [
            {
              "internalType": "address",
              "name": "source",
              "type": "address"
            },
            {
              "internalType": "enum WePiggyPriceProviderV1.PriceOracleType",
              "name": "sourceType",
              "type": "uint8"
            },
            {
              "internalType": "bool",
              "name": "available",
              "type": "bool"
            }
          ],
          "indexed": false,
          "internalType": "struct WePiggyPriceProviderV1.PriceOracle[]",
          "name": "oracles",
          "type": "tuple[]"
        }
      ],
      "name": "PriceOracleUpdated",
      "type": "event"
    },
    {
      "inputs": [
        {
          "internalType": "address[]",
          "name": "tokens",
          "type": "address[]"
        },
        {
          "internalType": "address[]",
          "name": "chainLinkTokenEthPriceFeeds",
          "type": "address[]"
        }
      ],
      "name": "addOrUpdateChainLinkTokenEthPriceFeed",
      "outputs": [],
      "stateMutability": "nonpayable",
      "type": "function"
    },
    {
      "inputs": [
        {
          "internalType": "address",
          "name": "pToken",
          "type": "address"
        },
        {
          "internalType": "uint256",
          "name": "index",
          "type": "uint256"
        },
        {
          "internalType": "address",
          "name": "source",
          "type": "address"
        },
        {
          "internalType": "enum WePiggyPriceProviderV1.PriceOracleType",
          "name": "_sourceType",
          "type": "uint8"
        },
        {
          "internalType": "bool",
          "name": "available",
          "type": "bool"
        }
      ],
      "name": "addOrUpdateTokenConfigSource",
      "outputs": [],
      "stateMutability": "nonpayable",
      "type": "function"
    },
    {
      "inputs": [
        {
          "internalType": "address",
          "name": "pToken",
          "type": "address"
        },
        {
          "internalType": "address",
          "name": "underlying",
          "type": "address"
        },
        {
          "internalType": "string",
          "name": "underlyingSymbol",
          "type": "string"
        },
        {
          "internalType": "uint256",
          "name": "baseUnit",
          "type": "uint256"
        },
        {
          "internalType": "bool",
          "name": "fixedUsd",
          "type": "bool"
        },
        {
          "internalType": "address[]",
          "name": "sources",
          "type": "address[]"
        },
        {
          "internalType": "enum WePiggyPriceProviderV1.PriceOracleType[]",
          "name": "sourceTypes",
          "type": "uint8[]"
        }
      ],
      "name": "addTokenConfig",
      "outputs": [],
      "stateMutability": "nonpayable",
      "type": "function"
    },
    {
      "inputs": [
        {
          "internalType": "address",
          "name": "",
          "type": "address"
        }
      ],
      "name": "chainLinkTokenEthPriceFeed",
      "outputs": [
        {
          "internalType": "address",
          "name": "",
          "type": "address"
        }
      ],
      "stateMutability": "view",
      "type": "function"
    },
    {
      "inputs": [],
      "name": "ethUsdPriceFeedAddress",
      "outputs": [
        {
          "internalType": "address",
          "name": "",
          "type": "address"
        }
      ],
      "stateMutability": "view",
      "type": "function"
    },
    {
      "inputs": [
        {
          "internalType": "address",
          "name": "pToken",
          "type": "address"
        },
        {
          "internalType": "uint256",
          "name": "sourceIndex",
          "type": "uint256"
        }
      ],
      "name": "getOracleSourcePrice",
      "outputs": [
        {
          "internalType": "uint256",
          "name": "",
          "type": "uint256"
        }
      ],
      "stateMutability": "view",
      "type": "function"
    },
    {
      "inputs": [
        {
          "internalType": "address",
          "name": "_pToken",
          "type": "address"
        }
      ],
      "name": "getUnderlyingPrice",
      "outputs": [
        {
          "internalType": "uint256",
          "name": "",
          "type": "uint256"
        }
      ],
      "stateMutability": "view",
      "type": "function"
    },
    {
      "inputs": [
        {
          "internalType": "address",
          "name": "pToken",
          "type": "address"
        }
      ],
      "name": "oracleLength",
      "outputs": [
        {
          "internalType": "uint256",
          "name": "",
          "type": "uint256"
        }
      ],
      "stateMutability": "view",
      "type": "function"
    },
    {
      "inputs": [
        {
          "internalType": "address",
          "name": "",
          "type": "address"
        },
        {
          "internalType": "uint256",
          "name": "",
          "type": "uint256"
        }
      ],
      "name": "oracles",
      "outputs": [
        {
          "internalType": "address",
          "name": "source",
          "type": "address"
        },
        {
          "internalType": "enum WePiggyPriceProviderV1.PriceOracleType",
          "name": "sourceType",
          "type": "uint8"
        },
        {
          "internalType": "bool",
          "name": "available",
          "type": "bool"
        }
      ],
      "stateMutability": "view",
      "type": "function"
    },
    {
      "inputs": [],
      "name": "owner",
      "outputs": [
        {
          "internalType": "address",
          "name": "",
          "type": "address"
        }
      ],
      "stateMutability": "view",
      "type": "function"
    },
    {
      "inputs": [],
      "name": "renounceOwnership",
      "outputs": [],
      "stateMutability": "nonpayable",
      "type": "function"
    },
    {
      "inputs": [
        {
          "internalType": "address",
          "name": "feedAddress",
          "type": "address"
        }
      ],
      "name": "setEthUsdPriceFeedAddress",
      "outputs": [],
      "stateMutability": "nonpayable",
      "type": "function"
    },
    {
      "inputs": [
        {
          "internalType": "address",
          "name": "",
          "type": "address"
        }
      ],
      "name": "tokenConfigs",
      "outputs": [
        {
          "internalType": "address",
          "name": "pToken",
          "type": "address"
        },
        {
          "internalType": "address",
          "name": "underlying",
          "type": "address"
        },
        {
          "internalType": "string",
          "name": "underlyingSymbol",
          "type": "string"
        },
        {
          "internalType": "uint256",
          "name": "baseUnit",
          "type": "uint256"
        },
        {
          "internalType": "bool",
          "name": "fixedUsd",
          "type": "bool"
        }
      ],
      "stateMutability": "view",
      "type": "function"
    },
    {
      "inputs": [
        {
          "internalType": "address",
          "name": "newOwner",
          "type": "address"
        }
      ],
      "name": "transferOwnership",
      "outputs": [],
      "stateMutability": "nonpayable",
      "type": "function"
    },
    {
      "inputs": [
        {
          "internalType": "address",
          "name": "pToken",
          "type": "address"
        },
        {
          "internalType": "uint256",
          "name": "baseUnit",
          "type": "uint256"
        }
      ],
      "name": "updateTokenConfigBaseUnit",
      "outputs": [],
      "stateMutability": "nonpayable",
      "type": "function"
    },
    {
      "inputs": [
        {
          "internalType": "address",
          "name": "pToken",
          "type": "address"
        },
        {
          "internalType": "bool",
          "name": "fixedUsd",
          "type": "bool"
        }
      ],
      "name": "updateTokenConfigFixedUsd",
      "outputs": [],
      "stateMutability": "nonpayable",
      "type": "function"
    }
  ],
  "bytecode": "0x60806040523480156200001157600080fd5b50600062000024620000c860201b60201c565b9050806000806101000a81548173ffffffffffffffffffffffffffffffffffffffff021916908373ffffffffffffffffffffffffffffffffffffffff1602179055508073ffffffffffffffffffffffffffffffffffffffff16600073ffffffffffffffffffffffffffffffffffffffff167f8be0079c531659141344cd1fd0a4f28419497f9722a3daafe3b4186f6b6457e060405160405180910390a350620000d0565b600033905090565b613a1c80620000e06000396000f3fe608060405234801561001057600080fd5b50600436106101005760003560e01c806398ee9a1311610097578063bec69b4f11610066578063bec69b4f146102b1578063e316e297146102cd578063f2fde38b146102e9578063fc57d4df1461030557610100565b806398ee9a13146102155780639e237b1c14610231578063a00a8b2c14610261578063a22e6ee31461029357610100565b8063715018a6116100d3578063715018a6146101a157806371cc09a9146101ab5780638341301a146101c75780638da5cb5b146101f757610100565b80630e4230a0146101055780631b69dc5f1461012157806343f5ae361461015557806349b39fd614610185575b600080fd5b61011f600480360381019061011a9190612bac565b610335565b005b61013b60048036038101906101369190612b5a565b610878565b60405161014c959493929190613443565b60405180910390f35b61016f600480360381019061016a9190612b5a565b610993565b60405161017c9190613680565b60405180910390f35b61019f600480360381019061019a9190612cd2565b6109e4565b005b6101a9610bd5565b005b6101c560048036038101906101c09190612c96565b610d28565b005b6101e160048036038101906101dc9190612b5a565b610f1f565b6040516101ee9190613428565b60405180910390f35b6101ff610f52565b60405161020c9190613428565b60405180910390f35b61022f600480360381019061022a9190612d85565b610f7b565b005b61024b60048036038101906102469190612cd2565b61111c565b6040516102589190613680565b60405180910390f35b61027b60048036038101906102769190612cd2565b6113f4565b60405161028a93929190613527565b60405180910390f35b61029b61146e565b6040516102a89190613428565b60405180910390f35b6102cb60048036038101906102c69190612b5a565b611494565b005b6102e760048036038101906102e29190612d0e565b61156d565b005b61030360048036038101906102fe9190612b5a565b6117f4565b005b61031f600480360381019061031a9190612b5a565b6119b6565b60405161032c9190613680565b60405180910390f35b61033d611d90565b73ffffffffffffffffffffffffffffffffffffffff1660008054906101000a900473ffffffffffffffffffffffffffffffffffffffff1673ffffffffffffffffffffffffffffffffffffffff16146103ca576040517f08c379a00000000000000000000000000000000000000000000000000000000081526004016103c190613640565b60405180910390fd5b81819050835114610410576040517f08c379a000000000000000000000000000000000000000000000000000000000815260040161040790613600565b60405180910390fd5b6000600160008a73ffffffffffffffffffffffffffffffffffffffff1673ffffffffffffffffffffffffffffffffffffffff1681526020019081526020016000209050600073ffffffffffffffffffffffffffffffffffffffff168160000160009054906101000a900473ffffffffffffffffffffffffffffffffffffffff1673ffffffffffffffffffffffffffffffffffffffff16146104e6576040517f08c379a00000000000000000000000000000000000000000000000000000000081526004016104dd906135c0565b60405180910390fd5b888160000160006101000a81548173ffffffffffffffffffffffffffffffffffffffff021916908373ffffffffffffffffffffffffffffffffffffffff160217905550878160010160006101000a81548173ffffffffffffffffffffffffffffffffffffffff021916908373ffffffffffffffffffffffffffffffffffffffff16021790555086816002019080519060200190610584929190612704565b50858160030181905550848160040160006101000a81548160ff0219169083151502179055506001600260008b73ffffffffffffffffffffffffffffffffffffffff1673ffffffffffffffffffffffffffffffffffffffff168152602001908152602001600020805490501061062f576040517f08c379a0000000000000000000000000000000000000000000000000000000008152600401610626906135c0565b60405180910390fd5b60005b84518110156107b6576000600260008c73ffffffffffffffffffffffffffffffffffffffff1673ffffffffffffffffffffffffffffffffffffffff168152602001908152602001600020905080604051806060016040528088858151811061069657fe5b602002602001015173ffffffffffffffffffffffffffffffffffffffff1681526020018787868181106106c557fe5b90506020020160208101906106da9190612df1565b60038111156106e557fe5b8152602001600115158152509080600181540180825580915050600190039060005260206000200160009091909190915060008201518160000160006101000a81548173ffffffffffffffffffffffffffffffffffffffff021916908373ffffffffffffffffffffffffffffffffffffffff16021790555060208201518160000160146101000a81548160ff0219169083600381111561078157fe5b021790555060408201518160000160156101000a81548160ff0219169083151502179055505050508080600101915050610632565b507f7e55bc43e6f0111474264fd86152c4a3e172abc29a15f5474298510ce6ff69ea89898989896040516107ee959493929190613443565b60405180910390a17f3305406be9630a8e3735461ddfb1c43204cdc73f28649e8038cafb44584d14bc89600260008c73ffffffffffffffffffffffffffffffffffffffff1673ffffffffffffffffffffffffffffffffffffffff1681526020019081526020016000206040516108659291906134f7565b60405180910390a1505050505050505050565b60016020528060005260406000206000915090508060000160009054906101000a900473ffffffffffffffffffffffffffffffffffffffff16908060010160009054906101000a900473ffffffffffffffffffffffffffffffffffffffff1690806002018054600181600116156101000203166002900480601f0160208091040260200160405190810160405280929190818152602001828054600181600116156101000203166002900480156109705780601f1061094557610100808354040283529160200191610970565b820191906000526020600020905b81548152906001019060200180831161095357829003601f168201915b5050505050908060030154908060040160009054906101000a900460ff16905085565b600080600260008473ffffffffffffffffffffffffffffffffffffffff1673ffffffffffffffffffffffffffffffffffffffff16815260200190815260200160002090508080549050915050919050565b6109ec611d90565b73ffffffffffffffffffffffffffffffffffffffff1660008054906101000a900473ffffffffffffffffffffffffffffffffffffffff1673ffffffffffffffffffffffffffffffffffffffff1614610a79576040517f08c379a0000000000000000000000000000000000000000000000000000000008152600401610a7090613640565b60405180910390fd5b6000600160008473ffffffffffffffffffffffffffffffffffffffff1673ffffffffffffffffffffffffffffffffffffffff1681526020019081526020016000209050600073ffffffffffffffffffffffffffffffffffffffff168160000160009054906101000a900473ffffffffffffffffffffffffffffffffffffffff1673ffffffffffffffffffffffffffffffffffffffff161415610b50576040517f08c379a0000000000000000000000000000000000000000000000000000000008152600401610b47906135c0565b60405180910390fd5b8181600301819055507f7e55bc43e6f0111474264fd86152c4a3e172abc29a15f5474298510ce6ff69ea838260010160009054906101000a900473ffffffffffffffffffffffffffffffffffffffff1683600201858560040160009054906101000a900460ff16604051610bc895949392919061349d565b60405180910390a1505050565b610bdd611d90565b73ffffffffffffffffffffffffffffffffffffffff1660008054906101000a900473ffffffffffffffffffffffffffffffffffffffff1673ffffffffffffffffffffffffffffffffffffffff1614610c6a576040517f08c379a0000000000000000000000000000000000000000000000000000000008152600401610c6190613640565b60405180910390fd5b600073ffffffffffffffffffffffffffffffffffffffff1660008054906101000a900473ffffffffffffffffffffffffffffffffffffffff1673ffffffffffffffffffffffffffffffffffffffff167f8be0079c531659141344cd1fd0a4f28419497f9722a3daafe3b4186f6b6457e060405160405180910390a360008060006101000a81548173ffffffffffffffffffffffffffffffffffffffff021916908373ffffffffffffffffffffffffffffffffffffffff160217905550565b610d30611d90565b73ffffffffffffffffffffffffffffffffffffffff1660008054906101000a900473ffffffffffffffffffffffffffffffffffffffff1673ffffffffffffffffffffffffffffffffffffffff1614610dbd576040517f08c379a0000000000000000000000000000000000000000000000000000000008152600401610db490613640565b60405180910390fd5b6000600160008473ffffffffffffffffffffffffffffffffffffffff1673ffffffffffffffffffffffffffffffffffffffff1681526020019081526020016000209050600073ffffffffffffffffffffffffffffffffffffffff168160000160009054906101000a900473ffffffffffffffffffffffffffffffffffffffff1673ffffffffffffffffffffffffffffffffffffffff161415610e94576040517f08c379a0000000000000000000000000000000000000000000000000000000008152600401610e8b906135c0565b60405180910390fd5b818160040160006101000a81548160ff0219169083151502179055507f7e55bc43e6f0111474264fd86152c4a3e172abc29a15f5474298510ce6ff69ea838260010160009054906101000a900473ffffffffffffffffffffffffffffffffffffffff1683600201846003015486604051610f1295949392919061349d565b60405180910390a1505050565b60036020528060005260406000206000915054906101000a900473ffffffffffffffffffffffffffffffffffffffff1681565b60008060009054906101000a900473ffffffffffffffffffffffffffffffffffffffff16905090565b610f83611d90565b73ffffffffffffffffffffffffffffffffffffffff1660008054906101000a900473ffffffffffffffffffffffffffffffffffffffff1673ffffffffffffffffffffffffffffffffffffffff1614611010576040517f08c379a000000000000000000000000000000000000000000000000000000000815260040161100790613640565b60405180910390fd5b8051825114611054576040517f08c379a000000000000000000000000000000000000000000000000000000000815260040161104b90613660565b60405180910390fd5b60005b825181101561111757600083828151811061106e57fe5b6020026020010151905082828151811061108457fe5b6020026020010151600360008373ffffffffffffffffffffffffffffffffffffffff1673ffffffffffffffffffffffffffffffffffffffff16815260200190815260200160002060006101000a81548173ffffffffffffffffffffffffffffffffffffffff021916908373ffffffffffffffffffffffffffffffffffffffff160217905550508080600101915050611057565b505050565b600080600160008573ffffffffffffffffffffffffffffffffffffffff1673ffffffffffffffffffffffffffffffffffffffff16815260200190815260200160002090506000600260008673ffffffffffffffffffffffffffffffffffffffff1673ffffffffffffffffffffffffffffffffffffffff16815260200190815260200160002090506113ea85836040518060a00160405290816000820160009054906101000a900473ffffffffffffffffffffffffffffffffffffffff1673ffffffffffffffffffffffffffffffffffffffff1673ffffffffffffffffffffffffffffffffffffffff1681526020016001820160009054906101000a900473ffffffffffffffffffffffffffffffffffffffff1673ffffffffffffffffffffffffffffffffffffffff1673ffffffffffffffffffffffffffffffffffffffff168152602001600282018054600181600116156101000203166002900480601f0160208091040260200160405190810160405280929190818152602001828054600181600116156101000203166002900480156112f85780601f106112cd576101008083540402835291602001916112f8565b820191906000526020600020905b8154815290600101906020018083116112db57829003601f168201915b50505050508152602001600382015481526020016004820160009054906101000a900460ff16151515158152505083878154811061133257fe5b906000526020600020016040518060600160405290816000820160009054906101000a900473ffffffffffffffffffffffffffffffffffffffff1673ffffffffffffffffffffffffffffffffffffffff1673ffffffffffffffffffffffffffffffffffffffff1681526020016000820160149054906101000a900460ff1660038111156113bb57fe5b60038111156113c657fe5b81526020016000820160159054906101000a900460ff161515151581525050611d98565b9250505092915050565b6002602052816000526040600020818154811061140d57fe5b90600052602060002001600091509150508060000160009054906101000a900473ffffffffffffffffffffffffffffffffffffffff16908060000160149054906101000a900460ff16908060000160159054906101000a900460ff16905083565b600460009054906101000a900473ffffffffffffffffffffffffffffffffffffffff1681565b61149c611d90565b73ffffffffffffffffffffffffffffffffffffffff1660008054906101000a900473ffffffffffffffffffffffffffffffffffffffff1673ffffffffffffffffffffffffffffffffffffffff1614611529576040517f08c379a000000000000000000000000000000000000000000000000000000000815260040161152090613640565b60405180910390fd5b80600460006101000a81548173ffffffffffffffffffffffffffffffffffffffff021916908373ffffffffffffffffffffffffffffffffffffffff16021790555050565b611575611d90565b73ffffffffffffffffffffffffffffffffffffffff1660008054906101000a900473ffffffffffffffffffffffffffffffffffffffff1673ffffffffffffffffffffffffffffffffffffffff1614611602576040517f08c379a00000000000000000000000000000000000000000000000000000000081526004016115f990613640565b60405180910390fd5b6000600260008773ffffffffffffffffffffffffffffffffffffffff1673ffffffffffffffffffffffffffffffffffffffff168152602001908152602001600020905084818054905011156116f557600081868154811061165f57fe5b906000526020600020019050848160000160006101000a81548173ffffffffffffffffffffffffffffffffffffffff021916908373ffffffffffffffffffffffffffffffffffffffff160217905550838160000160146101000a81548160ff021916908360038111156116ce57fe5b0217905550828160000160156101000a81548160ff021916908315150217905550506117ec565b8060405180606001604052808673ffffffffffffffffffffffffffffffffffffffff16815260200185600381111561172957fe5b81526020018415158152509080600181540180825580915050600190039060005260206000200160009091909190915060008201518160000160006101000a81548173ffffffffffffffffffffffffffffffffffffffff021916908373ffffffffffffffffffffffffffffffffffffffff16021790555060208201518160000160146101000a81548160ff021916908360038111156117c457fe5b021790555060408201518160000160156101000a81548160ff02191690831515021790555050505b505050505050565b6117fc611d90565b73ffffffffffffffffffffffffffffffffffffffff1660008054906101000a900473ffffffffffffffffffffffffffffffffffffffff1673ffffffffffffffffffffffffffffffffffffffff1614611889576040517f08c379a000000000000000000000000000000000000000000000000000000000815260040161188090613640565b60405180910390fd5b600073ffffffffffffffffffffffffffffffffffffffff168173ffffffffffffffffffffffffffffffffffffffff1614156118f9576040517f08c379a00000000000000000000000000000000000000000000000000000000081526004016118f090613580565b60405180910390fd5b8073ffffffffffffffffffffffffffffffffffffffff1660008054906101000a900473ffffffffffffffffffffffffffffffffffffffff1673ffffffffffffffffffffffffffffffffffffffff167f8be0079c531659141344cd1fd0a4f28419497f9722a3daafe3b4186f6b6457e060405160405180910390a3806000806101000a81548173ffffffffffffffffffffffffffffffffffffffff021916908373ffffffffffffffffffffffffffffffffffffffff16021790555050565b600080600090506000600160008573ffffffffffffffffffffffffffffffffffffffff1673ffffffffffffffffffffffffffffffffffffffff16815260200190815260200160002090508060040160009054906101000a900460ff1615611a5c5760019150611a538160030154611a456ec097ce7bc90715b34b9f100000000085611fe090919063ffffffff16565b61205090919063ffffffff16565b92505050611d8b565b6000600260008673ffffffffffffffffffffffffffffffffffffffff1673ffffffffffffffffffffffffffffffffffffffff168152602001908152602001600020905060005b8180549050811015611d3f576000828281548110611abc57fe5b906000526020600020019050600115158160000160159054906101000a900460ff1615151415611d3157611d1887856040518060a00160405290816000820160009054906101000a900473ffffffffffffffffffffffffffffffffffffffff1673ffffffffffffffffffffffffffffffffffffffff1673ffffffffffffffffffffffffffffffffffffffff1681526020016001820160009054906101000a900473ffffffffffffffffffffffffffffffffffffffff1673ffffffffffffffffffffffffffffffffffffffff1673ffffffffffffffffffffffffffffffffffffffff168152602001600282018054600181600116156101000203166002900480601f016020809104026020016040519081016040528092919081815260200182805460018160011615610100020316600290048015611c3b5780601f10611c1057610100808354040283529160200191611c3b565b820191906000526020600020905b815481529060010190602001808311611c1e57829003601f168201915b50505050508152602001600382015481526020016004820160009054906101000a900460ff161515151581525050836040518060600160405290816000820160009054906101000a900473ffffffffffffffffffffffffffffffffffffffff1673ffffffffffffffffffffffffffffffffffffffff1673ffffffffffffffffffffffffffffffffffffffff1681526020016000820160149054906101000a900460ff166003811115611ce957fe5b6003811115611cf457fe5b81526020016000820160159054906101000a900460ff161515151581525050611d98565b94506000851115611d30578495505050505050611d8b565b5b508080600101915050611aa2565b5060008311611d83576040517f08c379a0000000000000000000000000000000000000000000000000000000008152600401611d7a906135e0565b60405180910390fd5b600093505050505b919050565b600033905090565b60008073eeeeeeeeeeeeeeeeeeeeeeeeeeeeeeeeeeeeeeee90506000859050611e788173ffffffffffffffffffffffffffffffffffffffff166395d89b416040518163ffffffff1660e01b815260040160006040518083038186803b158015611e0057600080fd5b505afa158015611e14573d6000803e3d6000fd5b505050506040513d6000823e3d601f19601f82011682018060405250810190611e3d9190612e1a565b6040518060400160405280600481526020017f704554480000000000000000000000000000000000000000000000000000000081525061209a565b611efd578573ffffffffffffffffffffffffffffffffffffffff16636f307dc36040518163ffffffff1660e01b815260040160206040518083038186803b158015611ec257600080fd5b505afa158015611ed6573d6000803e3d6000fd5b505050506040513d601f19601f82011682018060405250810190611efa9190612b83565b91505b60008460200151905060006003811115611f1357fe5b816003811115611f1f57fe5b1415611f3957611f2f85876120f3565b9350505050611fd9565b60016003811115611f4657fe5b816003811115611f5257fe5b1415611f6c57611f62858761221d565b9350505050611fd9565b60026003811115611f7957fe5b816003811115611f8557fe5b1415611f9f57611f958587612362565b9350505050611fd9565b600380811115611fab57fe5b816003811115611fb757fe5b1415611fd157611fc78587612457565b9350505050611fd9565b600093505050505b9392505050565b600080831415611ff3576000905061204a565b600082840290508284828161200457fe5b0414612045576040517f08c379a000000000000000000000000000000000000000000000000000000000815260040161203c90613620565b60405180910390fd5b809150505b92915050565b600061209283836040518060400160405280601a81526020017f536166654d6174683a206469766973696f6e206279207a65726f0000000000008152506126a3565b905092915050565b6000816040516020016120ad9190613411565b60405160208183030381529060405280519060200120836040516020016120d49190613411565b6040516020818303038152906040528051906020012014905092915050565b60008082606001511161213b576040517f08c379a0000000000000000000000000000000000000000000000000000000008152600401612132906135a0565b60405180910390fd5b60008360000151905060008173ffffffffffffffffffffffffffffffffffffffff1663feaf968c6040518163ffffffff1660e01b815260040160a06040518083038186803b15801561218c57600080fd5b505afa1580156121a0573d6000803e3d6000fd5b505050506040513d601f19601f820116820180604052508101906121c49190612eae565b505050915050600081136121dd57600092505050612217565b61221284606001516122046b204fce5e3e2502611000000084611fe090919063ffffffff16565b61205090919063ffffffff16565b925050505b92915050565b600080836000015190506000819050612234612784565b8173ffffffffffffffffffffffffffffffffffffffff1663276c2cba86604001516040518263ffffffff1660e01b8152600401612271919061355e565b6101006040518083038186803b15801561228a57600080fd5b505afa15801561229e573d6000803e3d6000fd5b505050506040513d601f19601f820116820180604052508101906122c29190612e5b565b90506000816000015190508273ffffffffffffffffffffffffffffffffffffffff1663fc57d4df826040518263ffffffff1660e01b81526004016123069190613428565b60206040518083038186803b15801561231e57600080fd5b505afa158015612332573d6000803e3d6000fd5b505050506040513d601f19601f820116820180604052508101906123569190612e85565b94505050505092915050565b60008083600001519050600081905060008173ffffffffffffffffffffffffffffffffffffffff166341976e0986602001516040518263ffffffff1660e01b81526004016123b09190613428565b60206040518083038186803b1580156123c857600080fd5b505afa1580156123dc573d6000803e3d6000fd5b505050506040513d601f19601f820116820180604052508101906124009190612e85565b9050600081116124165760009350505050612451565b61244b856060015161243d6b204fce5e3e2502611000000084611fe090919063ffffffff16565b61205090919063ffffffff16565b93505050505b92915050565b60008082606001511161249f576040517f08c379a0000000000000000000000000000000000000000000000000000000008152600401612496906135a0565b60405180910390fd5b6000826020015190506000600360008373ffffffffffffffffffffffffffffffffffffffff1673ffffffffffffffffffffffffffffffffffffffff16815260200190815260200160002060009054906101000a900473ffffffffffffffffffffffffffffffffffffffff16905060008173ffffffffffffffffffffffffffffffffffffffff1663feaf968c6040518163ffffffff1660e01b815260040160a06040518083038186803b15801561255457600080fd5b505afa158015612568573d6000803e3d6000fd5b505050506040513d601f19601f8201168201806040525081019061258c9190612eae565b5050509150506000600460009054906101000a900473ffffffffffffffffffffffffffffffffffffffff16905060008173ffffffffffffffffffffffffffffffffffffffff1663feaf968c6040518163ffffffff1660e01b815260040160a06040518083038186803b15801561260157600080fd5b505afa158015612615573d6000803e3d6000fd5b505050506040513d601f19601f820116820180604052508101906126399190612eae565b505050915050600083136126555760009550505050505061269d565b61269587606001516126876402540be4006126798588611fe090919063ffffffff16565b611fe090919063ffffffff16565b61205090919063ffffffff16565b955050505050505b92915050565b600080831182906126ea576040517f08c379a00000000000000000000000000000000000000000000000000000000081526004016126e1919061355e565b60405180910390fd5b5060008385816126f657fe5b049050809150509392505050565b828054600181600116156101000203166002900490600052602060002090601f016020900481019282601f1061274557805160ff1916838001178555612773565b82800160010185558215612773579182015b82811115612772578251825591602001919060010190612757565b5b509050612780919061281b565b5090565b604051806101000160405280600073ffffffffffffffffffffffffffffffffffffffff168152602001600073ffffffffffffffffffffffffffffffffffffffff1681526020016000801916815260200160008152602001600060028111156127e857fe5b815260200160008152602001600073ffffffffffffffffffffffffffffffffffffffff1681526020016000151581525090565b5b8082111561283457600081600090555060010161281c565b5090565b6000813590506128478161393c565b92915050565b60008151905061285c8161393c565b92915050565b600082601f83011261287357600080fd5b8135612886612881826136c8565b61369b565b915081818352602084019350602081019050838560208402820111156128ab57600080fd5b60005b838110156128db57816128c18882612838565b8452602084019350602083019250506001810190506128ae565b5050505092915050565b60008083601f8401126128f757600080fd5b8235905067ffffffffffffffff81111561291057600080fd5b60208301915083602082028301111561292857600080fd5b9250929050565b60008135905061293e81613953565b92915050565b60008151905061295381613953565b92915050565b6000815190506129688161396a565b92915050565b60008135905061297d81613981565b92915050565b60008151905061299281613991565b92915050565b6000815190506129a7816139a1565b92915050565b600082601f8301126129be57600080fd5b81356129d16129cc826136f0565b61369b565b915080825260208301602083018583830111156129ed57600080fd5b6129f8838284613867565b50505092915050565b600082601f830112612a1257600080fd5b8151612a25612a20826136f0565b61369b565b91508082526020830160208301858383011115612a4157600080fd5b612a4c838284613876565b50505092915050565b60006101008284031215612a6857600080fd5b612a7361010061369b565b90506000612a838482850161284d565b6000830152506020612a978482850161284d565b6020830152506040612aab84828501612959565b6040830152506060612abf84828501612b30565b6060830152506080612ad384828501612983565b60808301525060a0612ae784828501612b30565b60a08301525060c0612afb8482850161284d565b60c08301525060e0612b0f84828501612944565b60e08301525092915050565b600081359050612b2a816139b8565b92915050565b600081519050612b3f816139b8565b92915050565b600081519050612b54816139cf565b92915050565b600060208284031215612b6c57600080fd5b6000612b7a84828501612838565b91505092915050565b600060208284031215612b9557600080fd5b6000612ba38482850161284d565b91505092915050565b60008060008060008060008060e0898b031215612bc857600080fd5b6000612bd68b828c01612838565b9850506020612be78b828c01612838565b975050604089013567ffffffffffffffff811115612c0457600080fd5b612c108b828c016129ad565b9650506060612c218b828c01612b1b565b9550506080612c328b828c0161292f565b94505060a089013567ffffffffffffffff811115612c4f57600080fd5b612c5b8b828c01612862565b93505060c089013567ffffffffffffffff811115612c7857600080fd5b612c848b828c016128e5565b92509250509295985092959890939650565b60008060408385031215612ca957600080fd5b6000612cb785828601612838565b9250506020612cc88582860161292f565b9150509250929050565b60008060408385031215612ce557600080fd5b6000612cf385828601612838565b9250506020612d0485828601612b1b565b9150509250929050565b600080600080600060a08688031215612d2657600080fd5b6000612d3488828901612838565b9550506020612d4588828901612b1b565b9450506040612d5688828901612838565b9350506060612d678882890161296e565b9250506080612d788882890161292f565b9150509295509295909350565b60008060408385031215612d9857600080fd5b600083013567ffffffffffffffff811115612db257600080fd5b612dbe85828601612862565b925050602083013567ffffffffffffffff811115612ddb57600080fd5b612de785828601612862565b9150509250929050565b600060208284031215612e0357600080fd5b6000612e118482850161296e565b91505092915050565b600060208284031215612e2c57600080fd5b600082015167ffffffffffffffff811115612e4657600080fd5b612e5284828501612a01565b91505092915050565b60006101008284031215612e6e57600080fd5b6000612e7c84828501612a55565b91505092915050565b600060208284031215612e9757600080fd5b6000612ea584828501612b30565b91505092915050565b600080600080600060a08688031215612ec657600080fd5b6000612ed488828901612b45565b9550506020612ee588828901612998565b9450506040612ef688828901612b30565b9350506060612f0788828901612b30565b9250506080612f1888828901612b45565b9150509295509295909350565b6000612f3183836133ab565b60608301905092915050565b612f46816137d0565b82525050565b612f55816137d0565b82525050565b6000612f6682613746565b612f708185613769565b9350612f7b8361371c565b8060005b83811015612fab5781612f928882612f25565b9750612f9d8361375c565b925050600181019050612f7f565b5085935050505092915050565b612fc1816137e2565b82525050565b612fd0816137e2565b82525050565b612fdf81613855565b82525050565b612fee81613855565b82525050565b6000612fff82613751565b613009818561377a565b9350613019818560208601613876565b613022816138f7565b840191505092915050565b600061303882613751565b613042818561378b565b9350613052818560208601613876565b80840191505092915050565b60008154600181166000811461307b57600181146130a1576130e5565b607f600283041661308c818761377a565b955060ff1983168652602086019350506130e5565b600282046130af818761377a565b95506130ba85613731565b60005b828110156130dc578154818901526001820191506020810190506130bd565b80880195505050505b505092915050565b60006130fa60268361377a565b91507f4f776e61626c653a206e6577206f776e657220697320746865207a65726f206160008301527f64647265737300000000000000000000000000000000000000000000000000006020830152604082019050919050565b600061316060228361377a565b91507f62617365556e6974206d7573742062652067726561746572207468616e207a6560008301527f726f0000000000000000000000000000000000000000000000000000000000006020830152604082019050919050565b60006131c6600a8361377a565b91507f62616420706172616d73000000000000000000000000000000000000000000006000830152602082019050919050565b6000613206601b8361377a565b91507f7072696365206d75737420626967676572207468616e207a65726f00000000006000830152602082019050919050565b600061324660318361377a565b91507f736f7572636554797065732e6c656e677468206d75737420657175616c20746860008301527f616e20736f75726365732e6c656e6774680000000000000000000000000000006020830152604082019050919050565b60006132ac60218361377a565b91507f536166654d6174683a206d756c7469706c69636174696f6e206f766572666c6f60008301527f77000000000000000000000000000000000000000000000000000000000000006020830152604082019050919050565b600061331260208361377a565b91507f4f776e61626c653a2063616c6c6572206973206e6f7420746865206f776e65726000830152602082019050919050565b600061335260408361377a565b91507f746f6b656e732e6c656e677468206d75737420657175616c207468616e20636860008301527f61696e4c696e6b546f6b656e457468507269636546656564732e6c656e6774686020830152604082019050919050565b6060820160008083015490506133c0816138a9565b6133cd6000860182612f3d565b506133d7816138c3565b6133e46020860182612fd6565b506133ee816138dd565b6133fb6040860182612fb8565b5050505050565b61340b81613835565b82525050565b600061341d828461302d565b915081905092915050565b600060208201905061343d6000830184612f4c565b92915050565b600060a0820190506134586000830188612f4c565b6134656020830187612f4c565b81810360408301526134778186612ff4565b90506134866060830185613402565b6134936080830184612fc7565b9695505050505050565b600060a0820190506134b26000830188612f4c565b6134bf6020830187612f4c565b81810360408301526134d1818661305e565b90506134e06060830185613402565b6134ed6080830184612fc7565b9695505050505050565b600060408201905061350c6000830185612f4c565b818103602083015261351e8184612f5b565b90509392505050565b600060608201905061353c6000830186612f4c565b6135496020830185612fe5565b6135566040830184612fc7565b949350505050565b600060208201905081810360008301526135788184612ff4565b905092915050565b60006020820190508181036000830152613599816130ed565b9050919050565b600060208201905081810360008301526135b981613153565b9050919050565b600060208201905081810360008301526135d9816131b9565b9050919050565b600060208201905081810360008301526135f9816131f9565b9050919050565b6000602082019050818103600083015261361981613239565b9050919050565b600060208201905081810360008301526136398161329f565b9050919050565b6000602082019050818103600083015261365981613305565b9050919050565b6000602082019050818103600083015261367981613345565b9050919050565b60006020820190506136956000830184613402565b92915050565b6000604051905081810181811067ffffffffffffffff821117156136be57600080fd5b8060405250919050565b600067ffffffffffffffff8211156136df57600080fd5b602082029050602081019050919050565b600067ffffffffffffffff82111561370757600080fd5b601f19601f8301169050602081019050919050565b60008190508160005260206000209050919050565b60008190508160005260206000209050919050565b600081549050919050565b600081519050919050565b6000600182019050919050565b600082825260208201905092915050565b600082825260208201905092915050565b600081905092915050565b600073ffffffffffffffffffffffffffffffffffffffff82169050919050565b600060ff82169050919050565b600060ff82169050919050565b60006137db82613815565b9050919050565b60008115159050919050565b6000819050919050565b60008190506138068261392f565b919050565b6000819050919050565b600073ffffffffffffffffffffffffffffffffffffffff82169050919050565b6000819050919050565b600069ffffffffffffffffffff82169050919050565b6000613860826137f8565b9050919050565b82818337600083830152505050565b60005b83811015613894578082015181840152602081019050613879565b838111156138a3576000848401525b50505050565b60006138bc6138b783613908565b613796565b9050919050565b60006138d66138d183613915565b6137c3565b9050919050565b60006138f06138eb83613922565b6137b6565b9050919050565b6000601f19601f8301169050919050565b60008160001c9050919050565b60008160a01c9050919050565b60008160a81c9050919050565b6004811061393957fe5b50565b613945816137d0565b811461395057600080fd5b50565b61395c816137e2565b811461396757600080fd5b50565b613973816137ee565b811461397e57600080fd5b50565b6004811061398e57600080fd5b50565b6003811061399e57600080fd5b50565b6139aa8161380b565b81146139b557600080fd5b50565b6139c181613835565b81146139cc57600080fd5b50565b6139d88161383f565b81146139e357600080fd5b5056fea26469706673582212207faff16b3fe3594dbe845ba0185951094fed4a9abcf5abcd44a942fec9ade82464736f6c634300060c0033",
  "compiler": {
    "name": "solc",
    "version": "0.6.12+commit.27d51765.Emscripten.clang",
    "optimizer": {
      "enabled": false,
      "runs": 200
    },
    "evmVersion": "istanbul"
  }
}