{
  "fileName": "WePiggyPriceProviderForArb.sol",
  "contractName": "WePiggyPriceProviderForArb",
  "source": "pragma solidity 0.6.12;\npragma experimental ABIEncoderV2;\n\nimport \"./WePiggyPriceOracleInterface.sol\";\nimport \"@openzeppelin/contracts/math/SafeMath.sol\";\nimport \"@chainlink/contracts/src/v0.6/interfaces/AggregatorV3Interface.sol\";\nimport \"@chainlink/contracts/src/v0.6/interfaces/FlagsInterface.sol\";\nimport \"@openzeppelin/contracts/access/Ownable.sol\";\n\ninterface PTokenInterface {\n    function underlying() external view returns (address);\n\n    function symbol() external view returns (string memory);\n}\n\ninterface CompoundPriceOracleInterface {\n    enum PriceSource {\n        FIXED_ETH, /// implies the fixedPrice is a constant multiple of the ETH price (which varies)\n        FIXED_USD, /// implies the fixedPrice is a constant multiple of the USD price (which is 1)\n        REPORTER   /// implies the price is set by the reporter\n    }\n\n    /// @dev Describe how the USD price should be determined for an asset.\n    ///  There should be 1 TokenConfig object for each supported asset, passed in the constructor.\n    struct CTokenConfig {\n        address cToken;\n        address underlying;\n        bytes32 symbolHash;\n        uint256 baseUnit;\n        PriceSource priceSource;\n        uint256 fixedPrice;\n        address uniswapMarket;\n        bool isUniswapReversed;\n    }\n\n    function getUnderlyingPrice(address cToken) external view returns (uint);\n\n    function getTokenConfigByUnderlying(address underlying) external view returns (CTokenConfig memory);\n\n    function getTokenConfigBySymbol(string memory symbol) external view returns (CTokenConfig memory);\n}\n\ncontract WePiggyPriceProviderForArb is Ownable {\n\n    using SafeMath for uint256;\n\n    enum PriceOracleType{\n        ChainLink,\n        Compound,\n        Customer,\n        ChainLinkEthBase\n    }\n\n    struct PriceOracle {\n        address source;\n        PriceOracleType sourceType;\n        bool available;\n    }\n\n    //Config for pToken\n    struct TokenConfig {\n        address pToken;\n        address underlying;\n        string underlyingSymbol; //example: DAI\n        uint256 baseUnit; //example: 1e18\n        bool fixedUsd; //if true,will return 1*e36/baseUnit\n    }\n\n\n    mapping(address => TokenConfig) public tokenConfigs;\n    mapping(address => PriceOracle[]) public oracles;\n    mapping(address => address) public chainLinkTokenEthPriceFeed;\n\n    address public ethUsdPriceFeedAddress;\n    FlagsInterface public chainlinkFlags;\n    // Identifier of the Sequencer offline flag on the Flags contract\n    address constant public FLAG_ARBITRUM_SEQ_OFFLINE = address(bytes20(bytes32(uint256(keccak256(\"chainlink.flags.arbitrum-seq-offline\")) - 1)));\n\n    event ConfigUpdated(address pToken, address underlying, string underlyingSymbol, uint256 baseUnit, bool fixedUsd);\n    event PriceOracleUpdated(address pToken, PriceOracle[] oracles);\n    event ChainlinkFlagsUpdated(address oldOne, address newOne);\n\n\n    constructor(address _chainlinkFlags) public {\n        chainlinkFlags = FlagsInterface(_chainlinkFlags);\n    }\n\n    function getUnderlyingPrice(address _pToken) external view returns (uint){\n\n        uint256 price = 0;\n        TokenConfig storage tokenConfig = tokenConfigs[_pToken];\n        if (tokenConfig.fixedUsd) {//if true,will return 1*e36/baseUnit\n            price = 1;\n            return price.mul(1e36).div(tokenConfig.baseUnit);\n        }\n\n        PriceOracle[] storage priceOracles = oracles[_pToken];\n        for (uint256 i = 0; i < priceOracles.length; i++) {\n            PriceOracle storage priceOracle = priceOracles[i];\n            if (priceOracle.available == true) {// check the priceOracle is available\n                price = _getUnderlyingPriceInternal(_pToken, tokenConfig, priceOracle);\n                if (price > 0) {\n                    return price;\n                }\n            }\n        }\n\n        // price must bigger than 0\n        require(price > 0, \"price must bigger than zero\");\n\n        return 0;\n    }\n\n    function _getUnderlyingPriceInternal(address _pToken, TokenConfig memory tokenConfig, PriceOracle memory priceOracle) internal view returns (uint){\n\n        address underlying = address(0xEeeeeEeeeEeEeeEeEeEeeEEEeeeeEeeeeeeeEEeE);\n        PTokenInterface pToken = PTokenInterface(_pToken);\n\n        if (!compareStrings(pToken.symbol(), \"pETH\")) {\n            underlying = address(PTokenInterface(_pToken).underlying());\n        }\n\n        PriceOracleType sourceType = priceOracle.sourceType;\n        if (sourceType == PriceOracleType.ChainLink) {\n            return _getChainlinkPriceInternal(priceOracle, tokenConfig);\n        } else if (sourceType == PriceOracleType.Compound) {\n            return _getCompoundPriceInternal(priceOracle, tokenConfig);\n        } else if (sourceType == PriceOracleType.Customer) {\n            return _getCustomerPriceInternal(priceOracle, tokenConfig);\n        } else if (sourceType == PriceOracleType.ChainLinkEthBase) {\n            return _getChainLinkEthBasePriceInternal(priceOracle, tokenConfig);\n        }\n\n        return 0;\n    }\n\n\n    function _getCustomerPriceInternal(PriceOracle memory priceOracle, TokenConfig memory tokenConfig) internal view returns (uint) {\n        address source = priceOracle.source;\n        WePiggyPriceOracleInterface customerPriceOracle = WePiggyPriceOracleInterface(source);\n        uint price = customerPriceOracle.getPrice(tokenConfig.underlying);\n        if (price <= 0) {\n            return 0;\n        } else {//return: (price / 1e8) * (1e36 / baseUnit) ==> price * 1e28 / baseUnit\n            return uint(price).mul(1e28).div(tokenConfig.baseUnit);\n        }\n    }\n\n    // Get price from compound oracle\n    function _getCompoundPriceInternal(PriceOracle memory priceOracle, TokenConfig memory tokenConfig) internal view returns (uint) {\n        address source = priceOracle.source;\n        CompoundPriceOracleInterface compoundPriceOracle = CompoundPriceOracleInterface(source);\n        CompoundPriceOracleInterface.CTokenConfig memory ctc = compoundPriceOracle.getTokenConfigBySymbol(tokenConfig.underlyingSymbol);\n        address cTokenAddress = ctc.cToken;\n        return compoundPriceOracle.getUnderlyingPrice(cTokenAddress);\n    }\n\n\n    // Get price from chainlink oracle\n    function _getChainlinkPriceInternal(PriceOracle memory priceOracle, TokenConfig memory tokenConfig) internal view returns (uint){\n\n        require(tokenConfig.baseUnit > 0, \"baseUnit must be greater than zero\");\n\n        bool isRaised = chainlinkFlags.getFlag(FLAG_ARBITRUM_SEQ_OFFLINE);\n        if (isRaised) {\n            // If flag is raised we shouldn't perform any critical operations\n            revert(\"Chainlink feeds are not being updated\");\n        }\n\n        AggregatorV3Interface priceFeed = AggregatorV3Interface(priceOracle.source);\n        (,int price,,,) = priceFeed.latestRoundData();\n\n        if (price <= 0) {\n            return 0;\n        } else {//return: (price / 1e8) * (1e36 / baseUnit) ==> price * 1e28 / baseUnit\n            return uint(price).mul(1e28).div(tokenConfig.baseUnit);\n        }\n\n    }\n\n    // base chainlink: token-ETH-USD\n    function _getChainLinkEthBasePriceInternal(PriceOracle memory priceOracle, TokenConfig memory tokenConfig) internal view returns (uint){\n        require(tokenConfig.baseUnit > 0, \"baseUnit must be greater than zero\");\n\n        bool isRaised = chainlinkFlags.getFlag(FLAG_ARBITRUM_SEQ_OFFLINE);\n        if (isRaised) {\n            // If flag is raised we shouldn't perform any critical operations\n            revert(\"Chainlink feeds are not being updated\");\n        }\n\n        address token = tokenConfig.underlying;\n        AggregatorV3Interface tokenEthPriceFeed = AggregatorV3Interface(chainLinkTokenEthPriceFeed[token]);\n        (,int tokenEthPrice,,,) = tokenEthPriceFeed.latestRoundData();\n\n        AggregatorV3Interface ethUsdPriceFeed = AggregatorV3Interface(ethUsdPriceFeedAddress);\n        (,int ethUsdPrice,,,) = ethUsdPriceFeed.latestRoundData();\n\n        if (tokenEthPrice <= 0) {\n            return 0;\n        } else {// tokenEthPrice/1e18 * ethUsdPrice/1e8 * 1e36 / baseUnit\n            return uint(tokenEthPrice).mul(uint(ethUsdPrice)).mul(1e10).div(tokenConfig.baseUnit);\n        }\n    }\n\n    function addTokenConfig(address pToken, address underlying, string memory underlyingSymbol, uint256 baseUnit, bool fixedUsd,\n        address[] memory sources, PriceOracleType[] calldata sourceTypes) public onlyOwner {\n\n        require(sources.length == sourceTypes.length, \"sourceTypes.length must equal than sources.length\");\n\n        // add TokenConfig\n        TokenConfig storage tokenConfig = tokenConfigs[pToken];\n        require(tokenConfig.pToken == address(0), \"bad params\");\n        tokenConfig.pToken = pToken;\n        tokenConfig.underlying = underlying;\n        tokenConfig.underlyingSymbol = underlyingSymbol;\n        tokenConfig.baseUnit = baseUnit;\n        tokenConfig.fixedUsd = fixedUsd;\n\n        // add priceOracles\n        require(oracles[pToken].length < 1, \"bad params\");\n        for (uint i = 0; i < sources.length; i++) {\n            PriceOracle[] storage list = oracles[pToken];\n            list.push(PriceOracle({\n            source : sources[i],\n            sourceType : sourceTypes[i],\n            available : true\n            }));\n        }\n\n        emit ConfigUpdated(pToken, underlying, underlyingSymbol, baseUnit, fixedUsd);\n        emit PriceOracleUpdated(pToken, oracles[pToken]);\n\n    }\n\n    function addOrUpdateTokenConfigSource(address pToken, uint256 index, address source, PriceOracleType _sourceType, bool available) public onlyOwner {\n\n        PriceOracle[] storage list = oracles[pToken];\n\n        if (list.length > index) {//will update\n            PriceOracle storage oracle = list[index];\n            oracle.source = source;\n            oracle.sourceType = _sourceType;\n            oracle.available = available;\n        } else {//will add\n            list.push(PriceOracle({\n            source : source,\n            sourceType : _sourceType,\n            available : available\n            }));\n        }\n\n    }\n\n    function updateTokenConfigBaseUnit(address pToken, uint256 baseUnit) public onlyOwner {\n        TokenConfig storage tokenConfig = tokenConfigs[pToken];\n        require(tokenConfig.pToken != address(0), \"bad params\");\n        tokenConfig.baseUnit = baseUnit;\n\n        emit ConfigUpdated(pToken, tokenConfig.underlying, tokenConfig.underlyingSymbol, baseUnit, tokenConfig.fixedUsd);\n    }\n\n    function updateTokenConfigFixedUsd(address pToken, bool fixedUsd) public onlyOwner {\n        TokenConfig storage tokenConfig = tokenConfigs[pToken];\n        require(tokenConfig.pToken != address(0), \"bad params\");\n        tokenConfig.fixedUsd = fixedUsd;\n\n        emit ConfigUpdated(pToken, tokenConfig.underlying, tokenConfig.underlyingSymbol, tokenConfig.baseUnit, fixedUsd);\n    }\n\n    function setEthUsdPriceFeedAddress(address feedAddress) public onlyOwner {\n        ethUsdPriceFeedAddress = feedAddress;\n    }\n\n    function addOrUpdateChainLinkTokenEthPriceFeed(address[] memory tokens, address[] memory chainLinkTokenEthPriceFeeds) public onlyOwner {\n\n        require(tokens.length == chainLinkTokenEthPriceFeeds.length, \"tokens.length must equal than chainLinkTokenEthPriceFeeds.length\");\n\n        for (uint i = 0; i < tokens.length; i++) {\n            address token = tokens[i];\n            chainLinkTokenEthPriceFeed[token] = chainLinkTokenEthPriceFeeds[i];\n        }\n\n    }\n\n    function updateChainlinkFlags(address _chainlinkFlags) public onlyOwner {\n        address old = address(chainlinkFlags);\n        chainlinkFlags = FlagsInterface(_chainlinkFlags);\n        emit ChainlinkFlagsUpdated(old, address(chainlinkFlags));\n    }\n\n\n    function getOracleSourcePrice(address pToken, uint sourceIndex) public view returns (uint){\n\n        TokenConfig storage tokenConfig = tokenConfigs[pToken];\n        PriceOracle[] storage priceOracles = oracles[pToken];\n\n        return _getUnderlyingPriceInternal(pToken, tokenConfig, priceOracles[sourceIndex]);\n    }\n\n    function compareStrings(string memory a, string memory b) internal pure returns (bool) {\n        return (keccak256(abi.encodePacked((a))) == keccak256(abi.encodePacked((b))));\n    }\n\n    function oracleLength(address pToken) public view returns (uint){\n        PriceOracle[] storage priceOracles = oracles[pToken];\n        return priceOracles.length;\n    }\n\n}",
  "sourcePath": "contracts/oracle/WePiggyPriceProviderForArb.sol",
  "abi": [
    {
      "inputs": [
        {
          "internalType": "address",
          "name": "_chainlinkFlags",
          "type": "address"
        }
      ],
      "stateMutability": "nonpayable",
      "type": "constructor"
    },
    {
      "anonymous": false,
      "inputs": [
        {
          "indexed": false,
          "internalType": "address",
          "name": "oldOne",
          "type": "address"
        },
        {
          "indexed": false,
          "internalType": "address",
          "name": "newOne",
          "type": "address"
        }
      ],
      "name": "ChainlinkFlagsUpdated",
      "type": "event"
    },
    {
      "anonymous": false,
      "inputs": [
        {
          "indexed": false,
          "internalType": "address",
          "name": "pToken",
          "type": "address"
        },
        {
          "indexed": false,
          "internalType": "address",
          "name": "underlying",
          "type": "address"
        },
        {
          "indexed": false,
          "internalType": "string",
          "name": "underlyingSymbol",
          "type": "string"
        },
        {
          "indexed": false,
          "internalType": "uint256",
          "name": "baseUnit",
          "type": "uint256"
        },
        {
          "indexed": false,
          "internalType": "bool",
          "name": "fixedUsd",
          "type": "bool"
        }
      ],
      "name": "ConfigUpdated",
      "type": "event"
    },
    {
      "anonymous": false,
      "inputs": [
        {
          "indexed": true,
          "internalType": "address",
          "name": "previousOwner",
          "type": "address"
        },
        {
          "indexed": true,
          "internalType": "address",
          "name": "newOwner",
          "type": "address"
        }
      ],
      "name": "OwnershipTransferred",
      "type": "event"
    },
    {
      "anonymous": false,
      "inputs": [
        {
          "indexed": false,
          "internalType": "address",
          "name": "pToken",
          "type": "address"
        },
        {
          "components": [
            {
              "internalType": "address",
              "name": "source",
              "type": "address"
            },
            {
              "internalType": "enum WePiggyPriceProviderForArb.PriceOracleType",
              "name": "sourceType",
              "type": "uint8"
            },
            {
              "internalType": "bool",
              "name": "available",
              "type": "bool"
            }
          ],
          "indexed": false,
          "internalType": "struct WePiggyPriceProviderForArb.PriceOracle[]",
          "name": "oracles",
          "type": "tuple[]"
        }
      ],
      "name": "PriceOracleUpdated",
      "type": "event"
    },
    {
      "inputs": [],
      "name": "FLAG_ARBITRUM_SEQ_OFFLINE",
      "outputs": [
        {
          "internalType": "address",
          "name": "",
          "type": "address"
        }
      ],
      "stateMutability": "view",
      "type": "function"
    },
    {
      "inputs": [
        {
          "internalType": "address[]",
          "name": "tokens",
          "type": "address[]"
        },
        {
          "internalType": "address[]",
          "name": "chainLinkTokenEthPriceFeeds",
          "type": "address[]"
        }
      ],
      "name": "addOrUpdateChainLinkTokenEthPriceFeed",
      "outputs": [],
      "stateMutability": "nonpayable",
      "type": "function"
    },
    {
      "inputs": [
        {
          "internalType": "address",
          "name": "pToken",
          "type": "address"
        },
        {
          "internalType": "uint256",
          "name": "index",
          "type": "uint256"
        },
        {
          "internalType": "address",
          "name": "source",
          "type": "address"
        },
        {
          "internalType": "enum WePiggyPriceProviderForArb.PriceOracleType",
          "name": "_sourceType",
          "type": "uint8"
        },
        {
          "internalType": "bool",
          "name": "available",
          "type": "bool"
        }
      ],
      "name": "addOrUpdateTokenConfigSource",
      "outputs": [],
      "stateMutability": "nonpayable",
      "type": "function"
    },
    {
      "inputs": [
        {
          "internalType": "address",
          "name": "pToken",
          "type": "address"
        },
        {
          "internalType": "address",
          "name": "underlying",
          "type": "address"
        },
        {
          "internalType": "string",
          "name": "underlyingSymbol",
          "type": "string"
        },
        {
          "internalType": "uint256",
          "name": "baseUnit",
          "type": "uint256"
        },
        {
          "internalType": "bool",
          "name": "fixedUsd",
          "type": "bool"
        },
        {
          "internalType": "address[]",
          "name": "sources",
          "type": "address[]"
        },
        {
          "internalType": "enum WePiggyPriceProviderForArb.PriceOracleType[]",
          "name": "sourceTypes",
          "type": "uint8[]"
        }
      ],
      "name": "addTokenConfig",
      "outputs": [],
      "stateMutability": "nonpayable",
      "type": "function"
    },
    {
      "inputs": [
        {
          "internalType": "address",
          "name": "",
          "type": "address"
        }
      ],
      "name": "chainLinkTokenEthPriceFeed",
      "outputs": [
        {
          "internalType": "address",
          "name": "",
          "type": "address"
        }
      ],
      "stateMutability": "view",
      "type": "function"
    },
    {
      "inputs": [],
      "name": "chainlinkFlags",
      "outputs": [
        {
          "internalType": "contract FlagsInterface",
          "name": "",
          "type": "address"
        }
      ],
      "stateMutability": "view",
      "type": "function"
    },
    {
      "inputs": [],
      "name": "ethUsdPriceFeedAddress",
      "outputs": [
        {
          "internalType": "address",
          "name": "",
          "type": "address"
        }
      ],
      "stateMutability": "view",
      "type": "function"
    },
    {
      "inputs": [
        {
          "internalType": "address",
          "name": "pToken",
          "type": "address"
        },
        {
          "internalType": "uint256",
          "name": "sourceIndex",
          "type": "uint256"
        }
      ],
      "name": "getOracleSourcePrice",
      "outputs": [
        {
          "internalType": "uint256",
          "name": "",
          "type": "uint256"
        }
      ],
      "stateMutability": "view",
      "type": "function"
    },
    {
      "inputs": [
        {
          "internalType": "address",
          "name": "_pToken",
          "type": "address"
        }
      ],
      "name": "getUnderlyingPrice",
      "outputs": [
        {
          "internalType": "uint256",
          "name": "",
          "type": "uint256"
        }
      ],
      "stateMutability": "view",
      "type": "function"
    },
    {
      "inputs": [
        {
          "internalType": "address",
          "name": "pToken",
          "type": "address"
        }
      ],
      "name": "oracleLength",
      "outputs": [
        {
          "internalType": "uint256",
          "name": "",
          "type": "uint256"
        }
      ],
      "stateMutability": "view",
      "type": "function"
    },
    {
      "inputs": [
        {
          "internalType": "address",
          "name": "",
          "type": "address"
        },
        {
          "internalType": "uint256",
          "name": "",
          "type": "uint256"
        }
      ],
      "name": "oracles",
      "outputs": [
        {
          "internalType": "address",
          "name": "source",
          "type": "address"
        },
        {
          "internalType": "enum WePiggyPriceProviderForArb.PriceOracleType",
          "name": "sourceType",
          "type": "uint8"
        },
        {
          "internalType": "bool",
          "name": "available",
          "type": "bool"
        }
      ],
      "stateMutability": "view",
      "type": "function"
    },
    {
      "inputs": [],
      "name": "owner",
      "outputs": [
        {
          "internalType": "address",
          "name": "",
          "type": "address"
        }
      ],
      "stateMutability": "view",
      "type": "function"
    },
    {
      "inputs": [],
      "name": "renounceOwnership",
      "outputs": [],
      "stateMutability": "nonpayable",
      "type": "function"
    },
    {
      "inputs": [
        {
          "internalType": "address",
          "name": "feedAddress",
          "type": "address"
        }
      ],
      "name": "setEthUsdPriceFeedAddress",
      "outputs": [],
      "stateMutability": "nonpayable",
      "type": "function"
    },
    {
      "inputs": [
        {
          "internalType": "address",
          "name": "",
          "type": "address"
        }
      ],
      "name": "tokenConfigs",
      "outputs": [
        {
          "internalType": "address",
          "name": "pToken",
          "type": "address"
        },
        {
          "internalType": "address",
          "name": "underlying",
          "type": "address"
        },
        {
          "internalType": "string",
          "name": "underlyingSymbol",
          "type": "string"
        },
        {
          "internalType": "uint256",
          "name": "baseUnit",
          "type": "uint256"
        },
        {
          "internalType": "bool",
          "name": "fixedUsd",
          "type": "bool"
        }
      ],
      "stateMutability": "view",
      "type": "function"
    },
    {
      "inputs": [
        {
          "internalType": "address",
          "name": "newOwner",
          "type": "address"
        }
      ],
      "name": "transferOwnership",
      "outputs": [],
      "stateMutability": "nonpayable",
      "type": "function"
    },
    {
      "inputs": [
        {
          "internalType": "address",
          "name": "_chainlinkFlags",
          "type": "address"
        }
      ],
      "name": "updateChainlinkFlags",
      "outputs": [],
      "stateMutability": "nonpayable",
      "type": "function"
    },
    {
      "inputs": [
        {
          "internalType": "address",
          "name": "pToken",
          "type": "address"
        },
        {
          "internalType": "uint256",
          "name": "baseUnit",
          "type": "uint256"
        }
      ],
      "name": "updateTokenConfigBaseUnit",
      "outputs": [],
      "stateMutability": "nonpayable",
      "type": "function"
    },
    {
      "inputs": [
        {
          "internalType": "address",
          "name": "pToken",
          "type": "address"
        },
        {
          "internalType": "bool",
          "name": "fixedUsd",
          "type": "bool"
        }
      ],
      "name": "updateTokenConfigFixedUsd",
      "outputs": [],
      "stateMutability": "nonpayable",
      "type": "function"
    }
  ],
  "bytecode": "0x60806040523480156200001157600080fd5b50604051620041813803806200418183398181016040528101906200003791906200014e565b6000620000496200012f60201b60201c565b9050806000806101000a81548173ffffffffffffffffffffffffffffffffffffffff021916908373ffffffffffffffffffffffffffffffffffffffff1602179055508073ffffffffffffffffffffffffffffffffffffffff16600073ffffffffffffffffffffffffffffffffffffffff167f8be0079c531659141344cd1fd0a4f28419497f9722a3daafe3b4186f6b6457e060405160405180910390a35080600560006101000a81548173ffffffffffffffffffffffffffffffffffffffff021916908373ffffffffffffffffffffffffffffffffffffffff16021790555050620001c8565b600033905090565b6000815190506200014881620001ae565b92915050565b6000602082840312156200016157600080fd5b6000620001718482850162000137565b91505092915050565b600062000187826200018e565b9050919050565b600073ffffffffffffffffffffffffffffffffffffffff82169050919050565b620001b9816200017a565b8114620001c557600080fd5b50565b613fa980620001d86000396000f3fe608060405234801561001057600080fd5b50600436106101215760003560e01c80638da5cb5b116100ad578063bec69b4f11610071578063bec69b4f1461030c578063e316e29714610328578063e4440e0214610344578063f2fde38b14610362578063fc57d4df1461037e57610121565b80638da5cb5b1461025257806398ee9a13146102705780639e237b1c1461028c578063a00a8b2c146102bc578063a22e6ee3146102ee57610121565b8063453cb486116100f4578063453cb486146101c457806349b39fd6146101e0578063715018a6146101fc57806371cc09a9146102065780638341301a1461022257610121565b80630e4230a0146101265780631b69dc5f1461014257806331eab8251461017657806343f5ae3614610194575b600080fd5b610140600480360381019061013b9190613013565b6103ae565b005b61015c60048036038101906101579190612fc1565b6108f1565b60405161016d959493929190613971565b60405180910390f35b61017e610a0c565b60405161018b919061392d565b60405180910390f35b6101ae60048036038101906101a99190612fc1565b610a3c565b6040516101bb9190613be9565b60405180910390f35b6101de60048036038101906101d99190612fc1565b610a8d565b005b6101fa60048036038101906101f59190613139565b610be9565b005b610204610dda565b005b610220600480360381019061021b91906130fd565b610f2d565b005b61023c60048036038101906102379190612fc1565b611124565b604051610249919061392d565b60405180910390f35b61025a611157565b604051610267919061392d565b60405180910390f35b61028a600480360381019061028591906131ec565b611180565b005b6102a660048036038101906102a19190613139565b611321565b6040516102b39190613be9565b60405180910390f35b6102d660048036038101906102d19190613139565b6115f9565b6040516102e593929190613a55565b60405180910390f35b6102f6611673565b604051610303919061392d565b60405180910390f35b61032660048036038101906103219190612fc1565b611699565b005b610342600480360381019061033d9190613175565b611772565b005b61034c6119f9565b6040516103599190613a8c565b60405180910390f35b61037c60048036038101906103779190612fc1565b611a1f565b005b61039860048036038101906103939190612fc1565b611be1565b6040516103a59190613be9565b60405180910390f35b6103b6611fbb565b73ffffffffffffffffffffffffffffffffffffffff1660008054906101000a900473ffffffffffffffffffffffffffffffffffffffff1673ffffffffffffffffffffffffffffffffffffffff1614610443576040517f08c379a000000000000000000000000000000000000000000000000000000000815260040161043a90613b89565b60405180910390fd5b81819050835114610489576040517f08c379a000000000000000000000000000000000000000000000000000000000815260040161048090613b49565b60405180910390fd5b6000600160008a73ffffffffffffffffffffffffffffffffffffffff1673ffffffffffffffffffffffffffffffffffffffff1681526020019081526020016000209050600073ffffffffffffffffffffffffffffffffffffffff168160000160009054906101000a900473ffffffffffffffffffffffffffffffffffffffff1673ffffffffffffffffffffffffffffffffffffffff161461055f576040517f08c379a000000000000000000000000000000000000000000000000000000000815260040161055690613b09565b60405180910390fd5b888160000160006101000a81548173ffffffffffffffffffffffffffffffffffffffff021916908373ffffffffffffffffffffffffffffffffffffffff160217905550878160010160006101000a81548173ffffffffffffffffffffffffffffffffffffffff021916908373ffffffffffffffffffffffffffffffffffffffff160217905550868160020190805190602001906105fd929190612b6b565b50858160030181905550848160040160006101000a81548160ff0219169083151502179055506001600260008b73ffffffffffffffffffffffffffffffffffffffff1673ffffffffffffffffffffffffffffffffffffffff16815260200190815260200160002080549050106106a8576040517f08c379a000000000000000000000000000000000000000000000000000000000815260040161069f90613b09565b60405180910390fd5b60005b845181101561082f576000600260008c73ffffffffffffffffffffffffffffffffffffffff1673ffffffffffffffffffffffffffffffffffffffff168152602001908152602001600020905080604051806060016040528088858151811061070f57fe5b602002602001015173ffffffffffffffffffffffffffffffffffffffff16815260200187878681811061073e57fe5b90506020020160208101906107539190613281565b600381111561075e57fe5b8152602001600115158152509080600181540180825580915050600190039060005260206000200160009091909190915060008201518160000160006101000a81548173ffffffffffffffffffffffffffffffffffffffff021916908373ffffffffffffffffffffffffffffffffffffffff16021790555060208201518160000160146101000a81548160ff021916908360038111156107fa57fe5b021790555060408201518160000160156101000a81548160ff02191690831515021790555050505080806001019150506106ab565b507f7e55bc43e6f0111474264fd86152c4a3e172abc29a15f5474298510ce6ff69ea8989898989604051610867959493929190613971565b60405180910390a17f3305406be9630a8e3735461ddfb1c43204cdc73f28649e8038cafb44584d14bc89600260008c73ffffffffffffffffffffffffffffffffffffffff1673ffffffffffffffffffffffffffffffffffffffff1681526020019081526020016000206040516108de929190613a25565b60405180910390a1505050505050505050565b60016020528060005260406000206000915090508060000160009054906101000a900473ffffffffffffffffffffffffffffffffffffffff16908060010160009054906101000a900473ffffffffffffffffffffffffffffffffffffffff1690806002018054600181600116156101000203166002900480601f0160208091040260200160405190810160405280929190818152602001828054600181600116156101000203166002900480156109e95780601f106109be576101008083540402835291602001916109e9565b820191906000526020600020905b8154815290600101906020018083116109cc57829003601f168201915b5050505050908060030154908060040160009054906101000a900460ff16905085565b60017fa438451d6458044c3c8cd2f6f31c91ac882a6d917fa1d50c2bc3074c4524952d60001c0360001b60601c81565b600080600260008473ffffffffffffffffffffffffffffffffffffffff1673ffffffffffffffffffffffffffffffffffffffff16815260200190815260200160002090508080549050915050919050565b610a95611fbb565b73ffffffffffffffffffffffffffffffffffffffff1660008054906101000a900473ffffffffffffffffffffffffffffffffffffffff1673ffffffffffffffffffffffffffffffffffffffff1614610b22576040517f08c379a0000000000000000000000000000000000000000000000000000000008152600401610b1990613b89565b60405180910390fd5b6000600560009054906101000a900473ffffffffffffffffffffffffffffffffffffffff16905081600560006101000a81548173ffffffffffffffffffffffffffffffffffffffff021916908373ffffffffffffffffffffffffffffffffffffffff1602179055507f9a092ee90129df011d2fcd842b1d19899a78a13be7cf181312ce38ea32ddce5581600560009054906101000a900473ffffffffffffffffffffffffffffffffffffffff16604051610bdd929190613948565b60405180910390a15050565b610bf1611fbb565b73ffffffffffffffffffffffffffffffffffffffff1660008054906101000a900473ffffffffffffffffffffffffffffffffffffffff1673ffffffffffffffffffffffffffffffffffffffff1614610c7e576040517f08c379a0000000000000000000000000000000000000000000000000000000008152600401610c7590613b89565b60405180910390fd5b6000600160008473ffffffffffffffffffffffffffffffffffffffff1673ffffffffffffffffffffffffffffffffffffffff1681526020019081526020016000209050600073ffffffffffffffffffffffffffffffffffffffff168160000160009054906101000a900473ffffffffffffffffffffffffffffffffffffffff1673ffffffffffffffffffffffffffffffffffffffff161415610d55576040517f08c379a0000000000000000000000000000000000000000000000000000000008152600401610d4c90613b09565b60405180910390fd5b8181600301819055507f7e55bc43e6f0111474264fd86152c4a3e172abc29a15f5474298510ce6ff69ea838260010160009054906101000a900473ffffffffffffffffffffffffffffffffffffffff1683600201858560040160009054906101000a900460ff16604051610dcd9594939291906139cb565b60405180910390a1505050565b610de2611fbb565b73ffffffffffffffffffffffffffffffffffffffff1660008054906101000a900473ffffffffffffffffffffffffffffffffffffffff1673ffffffffffffffffffffffffffffffffffffffff1614610e6f576040517f08c379a0000000000000000000000000000000000000000000000000000000008152600401610e6690613b89565b60405180910390fd5b600073ffffffffffffffffffffffffffffffffffffffff1660008054906101000a900473ffffffffffffffffffffffffffffffffffffffff1673ffffffffffffffffffffffffffffffffffffffff167f8be0079c531659141344cd1fd0a4f28419497f9722a3daafe3b4186f6b6457e060405160405180910390a360008060006101000a81548173ffffffffffffffffffffffffffffffffffffffff021916908373ffffffffffffffffffffffffffffffffffffffff160217905550565b610f35611fbb565b73ffffffffffffffffffffffffffffffffffffffff1660008054906101000a900473ffffffffffffffffffffffffffffffffffffffff1673ffffffffffffffffffffffffffffffffffffffff1614610fc2576040517f08c379a0000000000000000000000000000000000000000000000000000000008152600401610fb990613b89565b60405180910390fd5b6000600160008473ffffffffffffffffffffffffffffffffffffffff1673ffffffffffffffffffffffffffffffffffffffff1681526020019081526020016000209050600073ffffffffffffffffffffffffffffffffffffffff168160000160009054906101000a900473ffffffffffffffffffffffffffffffffffffffff1673ffffffffffffffffffffffffffffffffffffffff161415611099576040517f08c379a000000000000000000000000000000000000000000000000000000000815260040161109090613b09565b60405180910390fd5b818160040160006101000a81548160ff0219169083151502179055507f7e55bc43e6f0111474264fd86152c4a3e172abc29a15f5474298510ce6ff69ea838260010160009054906101000a900473ffffffffffffffffffffffffffffffffffffffff16836002018460030154866040516111179594939291906139cb565b60405180910390a1505050565b60036020528060005260406000206000915054906101000a900473ffffffffffffffffffffffffffffffffffffffff1681565b60008060009054906101000a900473ffffffffffffffffffffffffffffffffffffffff16905090565b611188611fbb565b73ffffffffffffffffffffffffffffffffffffffff1660008054906101000a900473ffffffffffffffffffffffffffffffffffffffff1673ffffffffffffffffffffffffffffffffffffffff1614611215576040517f08c379a000000000000000000000000000000000000000000000000000000000815260040161120c90613b89565b60405180910390fd5b8051825114611259576040517f08c379a000000000000000000000000000000000000000000000000000000000815260040161125090613bc9565b60405180910390fd5b60005b825181101561131c57600083828151811061127357fe5b6020026020010151905082828151811061128957fe5b6020026020010151600360008373ffffffffffffffffffffffffffffffffffffffff1673ffffffffffffffffffffffffffffffffffffffff16815260200190815260200160002060006101000a81548173ffffffffffffffffffffffffffffffffffffffff021916908373ffffffffffffffffffffffffffffffffffffffff16021790555050808060010191505061125c565b505050565b600080600160008573ffffffffffffffffffffffffffffffffffffffff1673ffffffffffffffffffffffffffffffffffffffff16815260200190815260200160002090506000600260008673ffffffffffffffffffffffffffffffffffffffff1673ffffffffffffffffffffffffffffffffffffffff16815260200190815260200160002090506115ef85836040518060a00160405290816000820160009054906101000a900473ffffffffffffffffffffffffffffffffffffffff1673ffffffffffffffffffffffffffffffffffffffff1673ffffffffffffffffffffffffffffffffffffffff1681526020016001820160009054906101000a900473ffffffffffffffffffffffffffffffffffffffff1673ffffffffffffffffffffffffffffffffffffffff1673ffffffffffffffffffffffffffffffffffffffff168152602001600282018054600181600116156101000203166002900480601f0160208091040260200160405190810160405280929190818152602001828054600181600116156101000203166002900480156114fd5780601f106114d2576101008083540402835291602001916114fd565b820191906000526020600020905b8154815290600101906020018083116114e057829003601f168201915b50505050508152602001600382015481526020016004820160009054906101000a900460ff16151515158152505083878154811061153757fe5b906000526020600020016040518060600160405290816000820160009054906101000a900473ffffffffffffffffffffffffffffffffffffffff1673ffffffffffffffffffffffffffffffffffffffff1673ffffffffffffffffffffffffffffffffffffffff1681526020016000820160149054906101000a900460ff1660038111156115c057fe5b60038111156115cb57fe5b81526020016000820160159054906101000a900460ff161515151581525050611fc3565b9250505092915050565b6002602052816000526040600020818154811061161257fe5b90600052602060002001600091509150508060000160009054906101000a900473ffffffffffffffffffffffffffffffffffffffff16908060000160149054906101000a900460ff16908060000160159054906101000a900460ff16905083565b600460009054906101000a900473ffffffffffffffffffffffffffffffffffffffff1681565b6116a1611fbb565b73ffffffffffffffffffffffffffffffffffffffff1660008054906101000a900473ffffffffffffffffffffffffffffffffffffffff1673ffffffffffffffffffffffffffffffffffffffff161461172e576040517f08c379a000000000000000000000000000000000000000000000000000000000815260040161172590613b89565b60405180910390fd5b80600460006101000a81548173ffffffffffffffffffffffffffffffffffffffff021916908373ffffffffffffffffffffffffffffffffffffffff16021790555050565b61177a611fbb565b73ffffffffffffffffffffffffffffffffffffffff1660008054906101000a900473ffffffffffffffffffffffffffffffffffffffff1673ffffffffffffffffffffffffffffffffffffffff1614611807576040517f08c379a00000000000000000000000000000000000000000000000000000000081526004016117fe90613b89565b60405180910390fd5b6000600260008773ffffffffffffffffffffffffffffffffffffffff1673ffffffffffffffffffffffffffffffffffffffff168152602001908152602001600020905084818054905011156118fa57600081868154811061186457fe5b906000526020600020019050848160000160006101000a81548173ffffffffffffffffffffffffffffffffffffffff021916908373ffffffffffffffffffffffffffffffffffffffff160217905550838160000160146101000a81548160ff021916908360038111156118d357fe5b0217905550828160000160156101000a81548160ff021916908315150217905550506119f1565b8060405180606001604052808673ffffffffffffffffffffffffffffffffffffffff16815260200185600381111561192e57fe5b81526020018415158152509080600181540180825580915050600190039060005260206000200160009091909190915060008201518160000160006101000a81548173ffffffffffffffffffffffffffffffffffffffff021916908373ffffffffffffffffffffffffffffffffffffffff16021790555060208201518160000160146101000a81548160ff021916908360038111156119c957fe5b021790555060408201518160000160156101000a81548160ff02191690831515021790555050505b505050505050565b600560009054906101000a900473ffffffffffffffffffffffffffffffffffffffff1681565b611a27611fbb565b73ffffffffffffffffffffffffffffffffffffffff1660008054906101000a900473ffffffffffffffffffffffffffffffffffffffff1673ffffffffffffffffffffffffffffffffffffffff1614611ab4576040517f08c379a0000000000000000000000000000000000000000000000000000000008152600401611aab90613b89565b60405180910390fd5b600073ffffffffffffffffffffffffffffffffffffffff168173ffffffffffffffffffffffffffffffffffffffff161415611b24576040517f08c379a0000000000000000000000000000000000000000000000000000000008152600401611b1b90613ac9565b60405180910390fd5b8073ffffffffffffffffffffffffffffffffffffffff1660008054906101000a900473ffffffffffffffffffffffffffffffffffffffff1673ffffffffffffffffffffffffffffffffffffffff167f8be0079c531659141344cd1fd0a4f28419497f9722a3daafe3b4186f6b6457e060405160405180910390a3806000806101000a81548173ffffffffffffffffffffffffffffffffffffffff021916908373ffffffffffffffffffffffffffffffffffffffff16021790555050565b600080600090506000600160008573ffffffffffffffffffffffffffffffffffffffff1673ffffffffffffffffffffffffffffffffffffffff16815260200190815260200160002090508060040160009054906101000a900460ff1615611c875760019150611c7e8160030154611c706ec097ce7bc90715b34b9f10000000008561220b90919063ffffffff16565b61227b90919063ffffffff16565b92505050611fb6565b6000600260008673ffffffffffffffffffffffffffffffffffffffff1673ffffffffffffffffffffffffffffffffffffffff168152602001908152602001600020905060005b8180549050811015611f6a576000828281548110611ce757fe5b906000526020600020019050600115158160000160159054906101000a900460ff1615151415611f5c57611f4387856040518060a00160405290816000820160009054906101000a900473ffffffffffffffffffffffffffffffffffffffff1673ffffffffffffffffffffffffffffffffffffffff1673ffffffffffffffffffffffffffffffffffffffff1681526020016001820160009054906101000a900473ffffffffffffffffffffffffffffffffffffffff1673ffffffffffffffffffffffffffffffffffffffff1673ffffffffffffffffffffffffffffffffffffffff168152602001600282018054600181600116156101000203166002900480601f016020809104026020016040519081016040528092919081815260200182805460018160011615610100020316600290048015611e665780601f10611e3b57610100808354040283529160200191611e66565b820191906000526020600020905b815481529060010190602001808311611e4957829003601f168201915b50505050508152602001600382015481526020016004820160009054906101000a900460ff161515151581525050836040518060600160405290816000820160009054906101000a900473ffffffffffffffffffffffffffffffffffffffff1673ffffffffffffffffffffffffffffffffffffffff1673ffffffffffffffffffffffffffffffffffffffff1681526020016000820160149054906101000a900460ff166003811115611f1457fe5b6003811115611f1f57fe5b81526020016000820160159054906101000a900460ff161515151581525050611fc3565b94506000851115611f5b578495505050505050611fb6565b5b508080600101915050611ccd565b5060008311611fae576040517f08c379a0000000000000000000000000000000000000000000000000000000008152600401611fa590613b29565b60405180910390fd5b600093505050505b919050565b600033905090565b60008073eeeeeeeeeeeeeeeeeeeeeeeeeeeeeeeeeeeeeeee905060008590506120a38173ffffffffffffffffffffffffffffffffffffffff166395d89b416040518163ffffffff1660e01b815260040160006040518083038186803b15801561202b57600080fd5b505afa15801561203f573d6000803e3d6000fd5b505050506040513d6000823e3d601f19601f8201168201806040525081019061206891906132aa565b6040518060400160405280600481526020017f70455448000000000000000000000000000000000000000000000000000000008152506122c5565b612128578573ffffffffffffffffffffffffffffffffffffffff16636f307dc36040518163ffffffff1660e01b815260040160206040518083038186803b1580156120ed57600080fd5b505afa158015612101573d6000803e3d6000fd5b505050506040513d601f19601f820116820180604052508101906121259190612fea565b91505b6000846020015190506000600381111561213e57fe5b81600381111561214a57fe5b14156121645761215a858761231e565b9350505050612204565b6001600381111561217157fe5b81600381111561217d57fe5b14156121975761218d8587612566565b9350505050612204565b600260038111156121a457fe5b8160038111156121b057fe5b14156121ca576121c085876126ab565b9350505050612204565b6003808111156121d657fe5b8160038111156121e257fe5b14156121fc576121f285876127a0565b9350505050612204565b600093505050505b9392505050565b60008083141561221e5760009050612275565b600082840290508284828161222f57fe5b0414612270576040517f08c379a000000000000000000000000000000000000000000000000000000000815260040161226790613b69565b60405180910390fd5b809150505b92915050565b60006122bd83836040518060400160405280601a81526020017f536166654d6174683a206469766973696f6e206279207a65726f000000000000815250612b0a565b905092915050565b6000816040516020016122d89190613916565b60405160208183030381529060405280519060200120836040516020016122ff9190613916565b6040516020818303038152906040528051906020012014905092915050565b600080826060015111612366576040517f08c379a000000000000000000000000000000000000000000000000000000000815260040161235d90613ae9565b60405180910390fd5b6000600560009054906101000a900473ffffffffffffffffffffffffffffffffffffffff1673ffffffffffffffffffffffffffffffffffffffff1663357e47fe60017fa438451d6458044c3c8cd2f6f31c91ac882a6d917fa1d50c2bc3074c4524952d60001c0360001b60601c6040518263ffffffff1660e01b81526004016123ef919061392d565b60206040518083038186803b15801561240757600080fd5b505afa15801561241b573d6000803e3d6000fd5b505050506040513d601f19601f8201168201806040525081019061243f9190613258565b90508015612482576040517f08c379a000000000000000000000000000000000000000000000000000000000815260040161247990613ba9565b60405180910390fd5b60008460000151905060008173ffffffffffffffffffffffffffffffffffffffff1663feaf968c6040518163ffffffff1660e01b815260040160a06040518083038186803b1580156124d357600080fd5b505afa1580156124e7573d6000803e3d6000fd5b505050506040513d601f19601f8201168201806040525081019061250b919061333e565b505050915050600081136125255760009350505050612560565b61255a856060015161254c6b204fce5e3e250261100000008461220b90919063ffffffff16565b61227b90919063ffffffff16565b93505050505b92915050565b60008083600001519050600081905061257d612beb565b8173ffffffffffffffffffffffffffffffffffffffff1663276c2cba86604001516040518263ffffffff1660e01b81526004016125ba9190613aa7565b6101006040518083038186803b1580156125d357600080fd5b505afa1580156125e7573d6000803e3d6000fd5b505050506040513d601f19601f8201168201806040525081019061260b91906132eb565b90506000816000015190508273ffffffffffffffffffffffffffffffffffffffff1663fc57d4df826040518263ffffffff1660e01b815260040161264f919061392d565b60206040518083038186803b15801561266757600080fd5b505afa15801561267b573d6000803e3d6000fd5b505050506040513d601f19601f8201168201806040525081019061269f9190613315565b94505050505092915050565b60008083600001519050600081905060008173ffffffffffffffffffffffffffffffffffffffff166341976e0986602001516040518263ffffffff1660e01b81526004016126f9919061392d565b60206040518083038186803b15801561271157600080fd5b505afa158015612725573d6000803e3d6000fd5b505050506040513d601f19601f820116820180604052508101906127499190613315565b90506000811161275f576000935050505061279a565b61279485606001516127866b204fce5e3e250261100000008461220b90919063ffffffff16565b61227b90919063ffffffff16565b93505050505b92915050565b6000808260600151116127e8576040517f08c379a00000000000000000000000000000000000000000000000000000000081526004016127df90613ae9565b60405180910390fd5b6000600560009054906101000a900473ffffffffffffffffffffffffffffffffffffffff1673ffffffffffffffffffffffffffffffffffffffff1663357e47fe60017fa438451d6458044c3c8cd2f6f31c91ac882a6d917fa1d50c2bc3074c4524952d60001c0360001b60601c6040518263ffffffff1660e01b8152600401612871919061392d565b60206040518083038186803b15801561288957600080fd5b505afa15801561289d573d6000803e3d6000fd5b505050506040513d601f19601f820116820180604052508101906128c19190613258565b90508015612904576040517f08c379a00000000000000000000000000000000000000000000000000000000081526004016128fb90613ba9565b60405180910390fd5b6000836020015190506000600360008373ffffffffffffffffffffffffffffffffffffffff1673ffffffffffffffffffffffffffffffffffffffff16815260200190815260200160002060009054906101000a900473ffffffffffffffffffffffffffffffffffffffff16905060008173ffffffffffffffffffffffffffffffffffffffff1663feaf968c6040518163ffffffff1660e01b815260040160a06040518083038186803b1580156129b957600080fd5b505afa1580156129cd573d6000803e3d6000fd5b505050506040513d601f19601f820116820180604052508101906129f1919061333e565b5050509150506000600460009054906101000a900473ffffffffffffffffffffffffffffffffffffffff16905060008173ffffffffffffffffffffffffffffffffffffffff1663feaf968c6040518163ffffffff1660e01b815260040160a06040518083038186803b158015612a6657600080fd5b505afa158015612a7a573d6000803e3d6000fd5b505050506040513d601f19601f82011682018060405250810190612a9e919061333e565b50505091505060008313612abb5760009650505050505050612b04565b612afb8860600151612aed6402540be400612adf858861220b90919063ffffffff16565b61220b90919063ffffffff16565b61227b90919063ffffffff16565b96505050505050505b92915050565b60008083118290612b51576040517f08c379a0000000000000000000000000000000000000000000000000000000008152600401612b489190613aa7565b60405180910390fd5b506000838581612b5d57fe5b049050809150509392505050565b828054600181600116156101000203166002900490600052602060002090601f016020900481019282601f10612bac57805160ff1916838001178555612bda565b82800160010185558215612bda579182015b82811115612bd9578251825591602001919060010190612bbe565b5b509050612be79190612c82565b5090565b604051806101000160405280600073ffffffffffffffffffffffffffffffffffffffff168152602001600073ffffffffffffffffffffffffffffffffffffffff168152602001600080191681526020016000815260200160006002811115612c4f57fe5b815260200160008152602001600073ffffffffffffffffffffffffffffffffffffffff1681526020016000151581525090565b5b80821115612c9b576000816000905550600101612c83565b5090565b600081359050612cae81613ec9565b92915050565b600081519050612cc381613ec9565b92915050565b600082601f830112612cda57600080fd5b8135612ced612ce882613c31565b613c04565b91508181835260208401935060208101905083856020840282011115612d1257600080fd5b60005b83811015612d425781612d288882612c9f565b845260208401935060208301925050600181019050612d15565b5050505092915050565b60008083601f840112612d5e57600080fd5b8235905067ffffffffffffffff811115612d7757600080fd5b602083019150836020820283011115612d8f57600080fd5b9250929050565b600081359050612da581613ee0565b92915050565b600081519050612dba81613ee0565b92915050565b600081519050612dcf81613ef7565b92915050565b600081359050612de481613f0e565b92915050565b600081519050612df981613f1e565b92915050565b600081519050612e0e81613f2e565b92915050565b600082601f830112612e2557600080fd5b8135612e38612e3382613c59565b613c04565b91508082526020830160208301858383011115612e5457600080fd5b612e5f838284613df4565b50505092915050565b600082601f830112612e7957600080fd5b8151612e8c612e8782613c59565b613c04565b91508082526020830160208301858383011115612ea857600080fd5b612eb3838284613e03565b50505092915050565b60006101008284031215612ecf57600080fd5b612eda610100613c04565b90506000612eea84828501612cb4565b6000830152506020612efe84828501612cb4565b6020830152506040612f1284828501612dc0565b6040830152506060612f2684828501612f97565b6060830152506080612f3a84828501612dea565b60808301525060a0612f4e84828501612f97565b60a08301525060c0612f6284828501612cb4565b60c08301525060e0612f7684828501612dab565b60e08301525092915050565b600081359050612f9181613f45565b92915050565b600081519050612fa681613f45565b92915050565b600081519050612fbb81613f5c565b92915050565b600060208284031215612fd357600080fd5b6000612fe184828501612c9f565b91505092915050565b600060208284031215612ffc57600080fd5b600061300a84828501612cb4565b91505092915050565b60008060008060008060008060e0898b03121561302f57600080fd5b600061303d8b828c01612c9f565b985050602061304e8b828c01612c9f565b975050604089013567ffffffffffffffff81111561306b57600080fd5b6130778b828c01612e14565b96505060606130888b828c01612f82565b95505060806130998b828c01612d96565b94505060a089013567ffffffffffffffff8111156130b657600080fd5b6130c28b828c01612cc9565b93505060c089013567ffffffffffffffff8111156130df57600080fd5b6130eb8b828c01612d4c565b92509250509295985092959890939650565b6000806040838503121561311057600080fd5b600061311e85828601612c9f565b925050602061312f85828601612d96565b9150509250929050565b6000806040838503121561314c57600080fd5b600061315a85828601612c9f565b925050602061316b85828601612f82565b9150509250929050565b600080600080600060a0868803121561318d57600080fd5b600061319b88828901612c9f565b95505060206131ac88828901612f82565b94505060406131bd88828901612c9f565b93505060606131ce88828901612dd5565b92505060806131df88828901612d96565b9150509295509295909350565b600080604083850312156131ff57600080fd5b600083013567ffffffffffffffff81111561321957600080fd5b61322585828601612cc9565b925050602083013567ffffffffffffffff81111561324257600080fd5b61324e85828601612cc9565b9150509250929050565b60006020828403121561326a57600080fd5b600061327884828501612dab565b91505092915050565b60006020828403121561329357600080fd5b60006132a184828501612dd5565b91505092915050565b6000602082840312156132bc57600080fd5b600082015167ffffffffffffffff8111156132d657600080fd5b6132e284828501612e68565b91505092915050565b600061010082840312156132fe57600080fd5b600061330c84828501612ebc565b91505092915050565b60006020828403121561332757600080fd5b600061333584828501612f97565b91505092915050565b600080600080600060a0868803121561335657600080fd5b600061336488828901612fac565b955050602061337588828901612dff565b945050604061338688828901612f97565b935050606061339788828901612f97565b92505060806133a888828901612fac565b9150509295509295909350565b60006133c183836138b0565b60608301905092915050565b6133d681613d39565b82525050565b6133e581613d39565b82525050565b60006133f682613caf565b6134008185613cd2565b935061340b83613c85565b8060005b8381101561343b578161342288826133b5565b975061342d83613cc5565b92505060018101905061340f565b5085935050505092915050565b61345181613d4b565b82525050565b61346081613d4b565b82525050565b61346f81613dbe565b82525050565b61347e81613de2565b82525050565b61348d81613de2565b82525050565b600061349e82613cba565b6134a88185613ce3565b93506134b8818560208601613e03565b6134c181613e84565b840191505092915050565b60006134d782613cba565b6134e18185613cf4565b93506134f1818560208601613e03565b80840191505092915050565b60008154600181166000811461351a576001811461354057613584565b607f600283041661352b8187613ce3565b955060ff198316865260208601935050613584565b6002820461354e8187613ce3565b955061355985613c9a565b60005b8281101561357b5781548189015260018201915060208101905061355c565b80880195505050505b505092915050565b6000613599602683613ce3565b91507f4f776e61626c653a206e6577206f776e657220697320746865207a65726f206160008301527f64647265737300000000000000000000000000000000000000000000000000006020830152604082019050919050565b60006135ff602283613ce3565b91507f62617365556e6974206d7573742062652067726561746572207468616e207a6560008301527f726f0000000000000000000000000000000000000000000000000000000000006020830152604082019050919050565b6000613665600a83613ce3565b91507f62616420706172616d73000000000000000000000000000000000000000000006000830152602082019050919050565b60006136a5601b83613ce3565b91507f7072696365206d75737420626967676572207468616e207a65726f00000000006000830152602082019050919050565b60006136e5603183613ce3565b91507f736f7572636554797065732e6c656e677468206d75737420657175616c20746860008301527f616e20736f75726365732e6c656e6774680000000000000000000000000000006020830152604082019050919050565b600061374b602183613ce3565b91507f536166654d6174683a206d756c7469706c69636174696f6e206f766572666c6f60008301527f77000000000000000000000000000000000000000000000000000000000000006020830152604082019050919050565b60006137b1602083613ce3565b91507f4f776e61626c653a2063616c6c6572206973206e6f7420746865206f776e65726000830152602082019050919050565b60006137f1602583613ce3565b91507f436861696e6c696e6b20666565647320617265206e6f74206265696e6720757060008301527f64617465640000000000000000000000000000000000000000000000000000006020830152604082019050919050565b6000613857604083613ce3565b91507f746f6b656e732e6c656e677468206d75737420657175616c207468616e20636860008301527f61696e4c696e6b546f6b656e457468507269636546656564732e6c656e6774686020830152604082019050919050565b6060820160008083015490506138c581613e36565b6138d260008601826133cd565b506138dc81613e50565b6138e96020860182613475565b506138f381613e6a565b6139006040860182613448565b5050505050565b61391081613d9e565b82525050565b600061392282846134cc565b915081905092915050565b600060208201905061394260008301846133dc565b92915050565b600060408201905061395d60008301856133dc565b61396a60208301846133dc565b9392505050565b600060a08201905061398660008301886133dc565b61399360208301876133dc565b81810360408301526139a58186613493565b90506139b46060830185613907565b6139c16080830184613457565b9695505050505050565b600060a0820190506139e060008301886133dc565b6139ed60208301876133dc565b81810360408301526139ff81866134fd565b9050613a0e6060830185613907565b613a1b6080830184613457565b9695505050505050565b6000604082019050613a3a60008301856133dc565b8181036020830152613a4c81846133eb565b90509392505050565b6000606082019050613a6a60008301866133dc565b613a776020830185613484565b613a846040830184613457565b949350505050565b6000602082019050613aa16000830184613466565b92915050565b60006020820190508181036000830152613ac18184613493565b905092915050565b60006020820190508181036000830152613ae28161358c565b9050919050565b60006020820190508181036000830152613b02816135f2565b9050919050565b60006020820190508181036000830152613b2281613658565b9050919050565b60006020820190508181036000830152613b4281613698565b9050919050565b60006020820190508181036000830152613b62816136d8565b9050919050565b60006020820190508181036000830152613b828161373e565b9050919050565b60006020820190508181036000830152613ba2816137a4565b9050919050565b60006020820190508181036000830152613bc2816137e4565b9050919050565b60006020820190508181036000830152613be28161384a565b9050919050565b6000602082019050613bfe6000830184613907565b92915050565b6000604051905081810181811067ffffffffffffffff82111715613c2757600080fd5b8060405250919050565b600067ffffffffffffffff821115613c4857600080fd5b602082029050602081019050919050565b600067ffffffffffffffff821115613c7057600080fd5b601f19601f8301169050602081019050919050565b60008190508160005260206000209050919050565b60008190508160005260206000209050919050565b600081549050919050565b600081519050919050565b6000600182019050919050565b600082825260208201905092915050565b600082825260208201905092915050565b600081905092915050565b600073ffffffffffffffffffffffffffffffffffffffff82169050919050565b600060ff82169050919050565b600060ff82169050919050565b6000613d4482613d7e565b9050919050565b60008115159050919050565b6000819050919050565b6000819050613d6f82613ebc565b919050565b6000819050919050565b600073ffffffffffffffffffffffffffffffffffffffff82169050919050565b6000819050919050565b600069ffffffffffffffffffff82169050919050565b6000613dc982613dd0565b9050919050565b6000613ddb82613d7e565b9050919050565b6000613ded82613d61565b9050919050565b82818337600083830152505050565b60005b83811015613e21578082015181840152602081019050613e06565b83811115613e30576000848401525b50505050565b6000613e49613e4483613e95565b613cff565b9050919050565b6000613e63613e5e83613ea2565b613d2c565b9050919050565b6000613e7d613e7883613eaf565b613d1f565b9050919050565b6000601f19601f8301169050919050565b60008160001c9050919050565b60008160a01c9050919050565b60008160a81c9050919050565b60048110613ec657fe5b50565b613ed281613d39565b8114613edd57600080fd5b50565b613ee981613d4b565b8114613ef457600080fd5b50565b613f0081613d57565b8114613f0b57600080fd5b50565b60048110613f1b57600080fd5b50565b60038110613f2b57600080fd5b50565b613f3781613d74565b8114613f4257600080fd5b50565b613f4e81613d9e565b8114613f5957600080fd5b50565b613f6581613da8565b8114613f7057600080fd5b5056fea26469706673582212207f9da9d306454810fcb3c6e8346da788461e52e4690d4ee4c3ff01b3c80d674164736f6c634300060c0033",
  "compiler": {
    "name": "solc",
    "version": "0.6.12+commit.27d51765.Emscripten.clang",
    "optimizer": {
      "enabled": false,
      "runs": 200
    },
    "evmVersion": "istanbul"
  }
}