{
  "fileName": "WePiggyLens.sol",
  "contractName": "WePiggyLens",
  "source": "pragma solidity 0.6.12;\npragma experimental ABIEncoderV2;\n\nimport \"../oracle/IPriceOracle.sol\";\nimport \"../token/ERC20Interface.sol\";\nimport \"@openzeppelin/contracts/math/SafeMath.sol\";\n\ninterface ComptrollerLensInterface {\n    function markets(address) external view returns (bool, uint);\n\n    function oracle() external view returns (IPriceOracle);\n\n    function getAccountLiquidity(address) external view returns (uint, uint, uint);\n\n    function getAssetsIn(address) external view returns (PTokenLensInterface[] memory);\n}\n\ninterface PTokenLensInterface {\n    function exchangeRateStored() external view returns (uint256);\n\n    function comptroller() external view returns (address);\n\n    function supplyRatePerBlock() external view returns (uint256);\n\n    function borrowRatePerBlock() external view returns (uint256);\n\n    function reserveFactorMantissa() external view returns (uint256);\n\n    function totalBorrows() external view returns (uint256);\n\n    function totalReserves() external view returns (uint256);\n\n    function totalSupply() external view returns (uint256);\n\n    function getCash() external view returns (uint256);\n\n    function underlying() external view returns (address);\n\n    function decimals() external view returns (uint8);\n\n    function name() external view returns (string memory);\n\n    function symbol() external view returns (string memory);\n\n    function allowance(address owner, address spender) external view returns (uint256);\n\n    function balanceOf(address owner) external view returns (uint256);\n\n    function getAccountSnapshot(address account) external virtual view returns (uint256, uint256, uint256, uint256);\n}\n\ninterface PiggyDistributionLensInterface {\n    function pendingWpcAccrued(address holder, bool borrowers, bool suppliers) external view returns (uint256);\n}\n\n\ninterface PiggyBreederLensInterface {\n    function pendingPiggy(uint256 _pid, address _user) external view returns (uint256);\n}\n\ncontract WePiggyLens {\n\n    using SafeMath for uint256;\n\n    struct PTokenMetadata {\n        address pToken;\n        uint exchangeRateCurrent;\n        uint supplyRatePerBlock;\n        uint borrowRatePerBlock;\n        uint reserveFactorMantissa;\n        uint totalBorrows;\n        uint totalReserves;\n        uint totalSupply;\n        uint totalCash;\n        bool isListed;\n        uint collateralFactorMantissa;\n        address underlyingAssetAddress;\n        uint pTokenDecimals;\n        uint underlyingDecimals;\n    }\n\n    function pTokenMetadata(PTokenLensInterface pToken) public view returns (PTokenMetadata memory){\n\n        uint exchangeRateCurrent = pToken.exchangeRateStored();\n        ComptrollerLensInterface comptroller = ComptrollerLensInterface(pToken.comptroller());\n        (bool isListed, uint collateralFactorMantissa) = comptroller.markets(address(pToken));\n\n        address underlyingAssetAddress;\n        uint underlyingDecimals;\n\n        if (compareStrings(pToken.symbol(), \"pETH\")) {\n            underlyingAssetAddress = address(0xEeeeeEeeeEeEeeEeEeEeeEEEeeeeEeeeeeeeEEeE);\n            underlyingDecimals = 18;\n        } else {\n            PTokenLensInterface pErc20 = PTokenLensInterface(address(pToken));\n            underlyingAssetAddress = pErc20.underlying();\n            underlyingDecimals = IEIP20(pErc20.underlying()).decimals();\n        }\n\n        return PTokenMetadata({\n        pToken : address(pToken),\n        exchangeRateCurrent : exchangeRateCurrent,\n        supplyRatePerBlock : pToken.supplyRatePerBlock(),\n        borrowRatePerBlock : pToken.borrowRatePerBlock(),\n        reserveFactorMantissa : pToken.reserveFactorMantissa(),\n        totalBorrows : pToken.totalBorrows(),\n        totalReserves : pToken.totalReserves(),\n        totalSupply : pToken.totalSupply(),\n        totalCash : pToken.getCash(),\n        isListed : isListed,\n        collateralFactorMantissa : collateralFactorMantissa,\n        underlyingAssetAddress : underlyingAssetAddress,\n        pTokenDecimals : pToken.decimals(),\n        underlyingDecimals : underlyingDecimals\n        });\n    }\n\n    function pTokenMetadataAll(PTokenLensInterface[] calldata pTokens) public view returns (PTokenMetadata[] memory) {\n        uint pTokenCount = pTokens.length;\n        PTokenMetadata[] memory res = new PTokenMetadata[](pTokenCount);\n        for (uint i = 0; i < pTokenCount; i++) {\n            res[i] = pTokenMetadata(pTokens[i]);\n        }\n        return res;\n    }\n\n    struct PTokenBalances {\n        address pToken;\n        uint balance;\n        uint borrowBalance; //用户的借款\n        uint exchangeRateMantissa;\n    }\n\n    function pTokenBalances(PTokenLensInterface pToken, address payable account) public view returns (PTokenBalances memory) {\n\n        (,uint tokenBalance,uint borrowBalance,uint exchangeRateMantissa) = pToken.getAccountSnapshot(account);\n\n        return PTokenBalances({\n        pToken : address(pToken),\n        balance : tokenBalance,\n        borrowBalance : borrowBalance,\n        exchangeRateMantissa : exchangeRateMantissa\n        });\n\n    }\n\n    function pTokenBalancesAll(PTokenLensInterface[] calldata pTokens, address payable account) public view returns (PTokenBalances[] memory) {\n        uint pTokenCount = pTokens.length;\n        PTokenBalances[] memory res = new PTokenBalances[](pTokenCount);\n        for (uint i = 0; i < pTokenCount; i++) {\n            res[i] = pTokenBalances(pTokens[i], account);\n        }\n        return res;\n    }\n\n    struct AccountLimits {\n        PTokenLensInterface[] markets;\n        uint liquidity;\n        uint shortfall;\n    }\n\n\n    function getAccountLimits(ComptrollerLensInterface comptroller, address account) public view returns (AccountLimits memory) {\n        (uint errorCode, uint liquidity, uint shortfall) = comptroller.getAccountLiquidity(account);\n        require(errorCode == 0);\n\n        return AccountLimits({\n        markets : comptroller.getAssetsIn(account),\n        liquidity : liquidity,\n        shortfall : shortfall\n        });\n    }\n\n\n    function pendingWpcAccrued(PiggyDistributionLensInterface piggyDistribution, address account, bool borrowers, bool suppliers) public view returns (uint256){\n        return piggyDistribution.pendingWpcAccrued(account, borrowers, suppliers);\n    }\n\n    function pendingPiggy(PiggyBreederLensInterface piggyBreeder, address _user, uint256 _pid) public view returns (uint256){\n        return piggyBreeder.pendingPiggy(_pid, _user);\n    }\n\n    function pendingPiggyAll(PiggyBreederLensInterface piggyBreeder, address _user, uint256[] calldata _pids) public view returns (uint256[] memory){\n        uint count = _pids.length;\n        uint256[] memory res = new uint256[](count);\n        for (uint i = 0; i < count; i++) {\n            res[i] = pendingPiggy(piggyBreeder, _user, _pids[i]);\n        }\n        return res;\n    }\n\n    function compareStrings(string memory a, string memory b) internal pure returns (bool) {\n        return (keccak256(abi.encodePacked((a))) == keccak256(abi.encodePacked((b))));\n    }\n}\n",
  "sourcePath": "contracts/lens/WePiggyLens.sol",
  "abi": [
    {
      "inputs": [
        {
          "internalType": "contract ComptrollerLensInterface",
          "name": "comptroller",
          "type": "address"
        },
        {
          "internalType": "address",
          "name": "account",
          "type": "address"
        }
      ],
      "name": "getAccountLimits",
      "outputs": [
        {
          "components": [
            {
              "internalType": "contract PTokenLensInterface[]",
              "name": "markets",
              "type": "address[]"
            },
            {
              "internalType": "uint256",
              "name": "liquidity",
              "type": "uint256"
            },
            {
              "internalType": "uint256",
              "name": "shortfall",
              "type": "uint256"
            }
          ],
          "internalType": "struct WePiggyLens.AccountLimits",
          "name": "",
          "type": "tuple"
        }
      ],
      "stateMutability": "view",
      "type": "function"
    },
    {
      "inputs": [
        {
          "internalType": "contract PTokenLensInterface",
          "name": "pToken",
          "type": "address"
        },
        {
          "internalType": "address payable",
          "name": "account",
          "type": "address"
        }
      ],
      "name": "pTokenBalances",
      "outputs": [
        {
          "components": [
            {
              "internalType": "address",
              "name": "pToken",
              "type": "address"
            },
            {
              "internalType": "uint256",
              "name": "balance",
              "type": "uint256"
            },
            {
              "internalType": "uint256",
              "name": "borrowBalance",
              "type": "uint256"
            },
            {
              "internalType": "uint256",
              "name": "exchangeRateMantissa",
              "type": "uint256"
            }
          ],
          "internalType": "struct WePiggyLens.PTokenBalances",
          "name": "",
          "type": "tuple"
        }
      ],
      "stateMutability": "view",
      "type": "function"
    },
    {
      "inputs": [
        {
          "internalType": "contract PTokenLensInterface[]",
          "name": "pTokens",
          "type": "address[]"
        },
        {
          "internalType": "address payable",
          "name": "account",
          "type": "address"
        }
      ],
      "name": "pTokenBalancesAll",
      "outputs": [
        {
          "components": [
            {
              "internalType": "address",
              "name": "pToken",
              "type": "address"
            },
            {
              "internalType": "uint256",
              "name": "balance",
              "type": "uint256"
            },
            {
              "internalType": "uint256",
              "name": "borrowBalance",
              "type": "uint256"
            },
            {
              "internalType": "uint256",
              "name": "exchangeRateMantissa",
              "type": "uint256"
            }
          ],
          "internalType": "struct WePiggyLens.PTokenBalances[]",
          "name": "",
          "type": "tuple[]"
        }
      ],
      "stateMutability": "view",
      "type": "function"
    },
    {
      "inputs": [
        {
          "internalType": "contract PTokenLensInterface",
          "name": "pToken",
          "type": "address"
        }
      ],
      "name": "pTokenMetadata",
      "outputs": [
        {
          "components": [
            {
              "internalType": "address",
              "name": "pToken",
              "type": "address"
            },
            {
              "internalType": "uint256",
              "name": "exchangeRateCurrent",
              "type": "uint256"
            },
            {
              "internalType": "uint256",
              "name": "supplyRatePerBlock",
              "type": "uint256"
            },
            {
              "internalType": "uint256",
              "name": "borrowRatePerBlock",
              "type": "uint256"
            },
            {
              "internalType": "uint256",
              "name": "reserveFactorMantissa",
              "type": "uint256"
            },
            {
              "internalType": "uint256",
              "name": "totalBorrows",
              "type": "uint256"
            },
            {
              "internalType": "uint256",
              "name": "totalReserves",
              "type": "uint256"
            },
            {
              "internalType": "uint256",
              "name": "totalSupply",
              "type": "uint256"
            },
            {
              "internalType": "uint256",
              "name": "totalCash",
              "type": "uint256"
            },
            {
              "internalType": "bool",
              "name": "isListed",
              "type": "bool"
            },
            {
              "internalType": "uint256",
              "name": "collateralFactorMantissa",
              "type": "uint256"
            },
            {
              "internalType": "address",
              "name": "underlyingAssetAddress",
              "type": "address"
            },
            {
              "internalType": "uint256",
              "name": "pTokenDecimals",
              "type": "uint256"
            },
            {
              "internalType": "uint256",
              "name": "underlyingDecimals",
              "type": "uint256"
            }
          ],
          "internalType": "struct WePiggyLens.PTokenMetadata",
          "name": "",
          "type": "tuple"
        }
      ],
      "stateMutability": "view",
      "type": "function"
    },
    {
      "inputs": [
        {
          "internalType": "contract PTokenLensInterface[]",
          "name": "pTokens",
          "type": "address[]"
        }
      ],
      "name": "pTokenMetadataAll",
      "outputs": [
        {
          "components": [
            {
              "internalType": "address",
              "name": "pToken",
              "type": "address"
            },
            {
              "internalType": "uint256",
              "name": "exchangeRateCurrent",
              "type": "uint256"
            },
            {
              "internalType": "uint256",
              "name": "supplyRatePerBlock",
              "type": "uint256"
            },
            {
              "internalType": "uint256",
              "name": "borrowRatePerBlock",
              "type": "uint256"
            },
            {
              "internalType": "uint256",
              "name": "reserveFactorMantissa",
              "type": "uint256"
            },
            {
              "internalType": "uint256",
              "name": "totalBorrows",
              "type": "uint256"
            },
            {
              "internalType": "uint256",
              "name": "totalReserves",
              "type": "uint256"
            },
            {
              "internalType": "uint256",
              "name": "totalSupply",
              "type": "uint256"
            },
            {
              "internalType": "uint256",
              "name": "totalCash",
              "type": "uint256"
            },
            {
              "internalType": "bool",
              "name": "isListed",
              "type": "bool"
            },
            {
              "internalType": "uint256",
              "name": "collateralFactorMantissa",
              "type": "uint256"
            },
            {
              "internalType": "address",
              "name": "underlyingAssetAddress",
              "type": "address"
            },
            {
              "internalType": "uint256",
              "name": "pTokenDecimals",
              "type": "uint256"
            },
            {
              "internalType": "uint256",
              "name": "underlyingDecimals",
              "type": "uint256"
            }
          ],
          "internalType": "struct WePiggyLens.PTokenMetadata[]",
          "name": "",
          "type": "tuple[]"
        }
      ],
      "stateMutability": "view",
      "type": "function"
    },
    {
      "inputs": [
        {
          "internalType": "contract PiggyBreederLensInterface",
          "name": "piggyBreeder",
          "type": "address"
        },
        {
          "internalType": "address",
          "name": "_user",
          "type": "address"
        },
        {
          "internalType": "uint256",
          "name": "_pid",
          "type": "uint256"
        }
      ],
      "name": "pendingPiggy",
      "outputs": [
        {
          "internalType": "uint256",
          "name": "",
          "type": "uint256"
        }
      ],
      "stateMutability": "view",
      "type": "function"
    },
    {
      "inputs": [
        {
          "internalType": "contract PiggyBreederLensInterface",
          "name": "piggyBreeder",
          "type": "address"
        },
        {
          "internalType": "address",
          "name": "_user",
          "type": "address"
        },
        {
          "internalType": "uint256[]",
          "name": "_pids",
          "type": "uint256[]"
        }
      ],
      "name": "pendingPiggyAll",
      "outputs": [
        {
          "internalType": "uint256[]",
          "name": "",
          "type": "uint256[]"
        }
      ],
      "stateMutability": "view",
      "type": "function"
    },
    {
      "inputs": [
        {
          "internalType": "contract PiggyDistributionLensInterface",
          "name": "piggyDistribution",
          "type": "address"
        },
        {
          "internalType": "address",
          "name": "account",
          "type": "address"
        },
        {
          "internalType": "bool",
          "name": "borrowers",
          "type": "bool"
        },
        {
          "internalType": "bool",
          "name": "suppliers",
          "type": "bool"
        }
      ],
      "name": "pendingWpcAccrued",
      "outputs": [
        {
          "internalType": "uint256",
          "name": "",
          "type": "uint256"
        }
      ],
      "stateMutability": "view",
      "type": "function"
    }
  ],
  "bytecode": "0x608060405234801561001057600080fd5b50612357806100206000396000f3fe608060405234801561001057600080fd5b50600436106100885760003560e01c80637dd8f6d91161005b5780637dd8f6d91461014d5780639ef3fe921461017d578063bb8fb2d2146101ad578063be0e235d146101dd57610088565b80630632c18a1461008d5780633491e64a146100bd57806357e9ccaf146100ed5780636c7109fc1461011d575b600080fd5b6100a760048036038101906100a291906115b9565b61020d565b6040516100b49190611f20565b60405180910390f35b6100d760048036038101906100d291906115f5565b6102ec565b6040516100e49190611edc565b60405180910390f35b61010760048036038101906101029190611590565b61039c565b6040516101149190611f3b565b60405180910390f35b6101376004803603810190610132919061143a565b610c2b565b6040516101449190611eba565b60405180910390f35b61016760048036038101906101629190611554565b610cef565b6040516101749190611efe565b60405180910390f35b61019760048036038101906101929190611661565b610e4b565b6040516101a49190611f57565b60405180910390f35b6101c760048036038101906101c2919061147f565b610ee1565b6040516101d49190611e98565b60405180910390f35b6101f760048036038101906101f291906116b0565b610fa7565b6040516102049190611f57565b60405180910390f35b610215611099565b60008060008573ffffffffffffffffffffffffffffffffffffffff1663c37f68e2866040518263ffffffff1660e01b81526004016102539190611e46565b60806040518083038186803b15801561026b57600080fd5b505afa15801561027f573d6000803e3d6000fd5b505050506040513d601f19601f820116820180604052508101906102a391906117cc565b9350935093505060405180608001604052808773ffffffffffffffffffffffffffffffffffffffff16815260200184815260200183815260200182815250935050505092915050565b6060600083839050905060608167ffffffffffffffff8111801561030f57600080fd5b5060405190808252806020026020018201604052801561033e5781602001602082028036833780820191505090505b50905060005b8281101561038e57610369888888888581811061035d57fe5b90506020020135610e4b565b82828151811061037557fe5b6020026020010181815250508080600101915050610344565b508092505050949350505050565b6103a46110d7565b60008273ffffffffffffffffffffffffffffffffffffffff1663182df0f56040518163ffffffff1660e01b815260040160206040518083038186803b1580156103ec57600080fd5b505afa158015610400573d6000803e3d6000fd5b505050506040513d601f19601f820116820180604052508101906104249190611754565b905060008373ffffffffffffffffffffffffffffffffffffffff16635fe3b5676040518163ffffffff1660e01b815260040160206040518083038186803b15801561046e57600080fd5b505afa158015610482573d6000803e3d6000fd5b505050506040513d601f19601f820116820180604052508101906104a69190611411565b90506000808273ffffffffffffffffffffffffffffffffffffffff16638e8f294b876040518263ffffffff1660e01b81526004016104e49190611e2b565b604080518083038186803b1580156104fb57600080fd5b505afa15801561050f573d6000803e3d6000fd5b505050506040513d601f19601f820116820180604052508101906105339190611518565b915091506000806105fb8873ffffffffffffffffffffffffffffffffffffffff166395d89b416040518163ffffffff1660e01b815260040160006040518083038186803b15801561058357600080fd5b505afa158015610597573d6000803e3d6000fd5b505050506040513d6000823e3d601f19601f820116820180604052508101906105c09190611713565b6040518060400160405280600481526020017f7045544800000000000000000000000000000000000000000000000000000000815250611040565b156106205773eeeeeeeeeeeeeeeeeeeeeeeeeeeeeeeeeeeeeeee9150601290506107a7565b60008890508073ffffffffffffffffffffffffffffffffffffffff16636f307dc36040518163ffffffff1660e01b815260040160206040518083038186803b15801561066b57600080fd5b505afa15801561067f573d6000803e3d6000fd5b505050506040513d601f19601f820116820180604052508101906106a39190611411565b92508073ffffffffffffffffffffffffffffffffffffffff16636f307dc36040518163ffffffff1660e01b815260040160206040518083038186803b1580156106eb57600080fd5b505afa1580156106ff573d6000803e3d6000fd5b505050506040513d601f19601f820116820180604052508101906107239190611411565b73ffffffffffffffffffffffffffffffffffffffff1663313ce5676040518163ffffffff1660e01b815260040160206040518083038186803b15801561076857600080fd5b505afa15801561077c573d6000803e3d6000fd5b505050506040513d601f19601f820116820180604052508101906107a0919061182f565b60ff169150505b604051806101c001604052808973ffffffffffffffffffffffffffffffffffffffff1681526020018781526020018973ffffffffffffffffffffffffffffffffffffffff1663ae9d70b06040518163ffffffff1660e01b815260040160206040518083038186803b15801561081b57600080fd5b505afa15801561082f573d6000803e3d6000fd5b505050506040513d601f19601f820116820180604052508101906108539190611754565b81526020018973ffffffffffffffffffffffffffffffffffffffff1663f8f9da286040518163ffffffff1660e01b815260040160206040518083038186803b15801561089e57600080fd5b505afa1580156108b2573d6000803e3d6000fd5b505050506040513d601f19601f820116820180604052508101906108d69190611754565b81526020018973ffffffffffffffffffffffffffffffffffffffff1663173b99046040518163ffffffff1660e01b815260040160206040518083038186803b15801561092157600080fd5b505afa158015610935573d6000803e3d6000fd5b505050506040513d601f19601f820116820180604052508101906109599190611754565b81526020018973ffffffffffffffffffffffffffffffffffffffff166347bd37186040518163ffffffff1660e01b815260040160206040518083038186803b1580156109a457600080fd5b505afa1580156109b8573d6000803e3d6000fd5b505050506040513d601f19601f820116820180604052508101906109dc9190611754565b81526020018973ffffffffffffffffffffffffffffffffffffffff16638f840ddd6040518163ffffffff1660e01b815260040160206040518083038186803b158015610a2757600080fd5b505afa158015610a3b573d6000803e3d6000fd5b505050506040513d601f19601f82011682018060405250810190610a5f9190611754565b81526020018973ffffffffffffffffffffffffffffffffffffffff166318160ddd6040518163ffffffff1660e01b815260040160206040518083038186803b158015610aaa57600080fd5b505afa158015610abe573d6000803e3d6000fd5b505050506040513d601f19601f82011682018060405250810190610ae29190611754565b81526020018973ffffffffffffffffffffffffffffffffffffffff16633b1d21a26040518163ffffffff1660e01b815260040160206040518083038186803b158015610b2d57600080fd5b505afa158015610b41573d6000803e3d6000fd5b505050506040513d601f19601f82011682018060405250810190610b659190611754565b815260200185151581526020018481526020018373ffffffffffffffffffffffffffffffffffffffff1681526020018973ffffffffffffffffffffffffffffffffffffffff1663313ce5676040518163ffffffff1660e01b815260040160206040518083038186803b158015610bda57600080fd5b505afa158015610bee573d6000803e3d6000fd5b505050506040513d601f19601f82011682018060405250810190610c12919061182f565b60ff168152602001828152509650505050505050919050565b6060600083839050905060608167ffffffffffffffff81118015610c4e57600080fd5b50604051908082528060200260200182016040528015610c8857816020015b610c756110d7565b815260200190600190039081610c6d5790505b50905060005b82811015610ce357610cbf868683818110610ca557fe5b9050602002016020810190610cba9190611590565b61039c565b828281518110610ccb57fe5b60200260200101819052508080600101915050610c8e565b50809250505092915050565b610cf7611174565b60008060008573ffffffffffffffffffffffffffffffffffffffff16635ec88c79866040518263ffffffff1660e01b8152600401610d359190611e2b565b60606040518083038186803b158015610d4d57600080fd5b505afa158015610d61573d6000803e3d6000fd5b505050506040513d601f19601f82011682018060405250810190610d85919061177d565b92509250925060008314610d9857600080fd5b60405180606001604052808773ffffffffffffffffffffffffffffffffffffffff1663abfceffc886040518263ffffffff1660e01b8152600401610ddc9190611e2b565b60006040518083038186803b158015610df457600080fd5b505afa158015610e08573d6000803e3d6000fd5b505050506040513d6000823e3d601f19601f82011682018060405250810190610e3191906114d7565b815260200183815260200182815250935050505092915050565b60008373ffffffffffffffffffffffffffffffffffffffff1663ae6d858c83856040518363ffffffff1660e01b8152600401610e88929190611f72565b60206040518083038186803b158015610ea057600080fd5b505afa158015610eb4573d6000803e3d6000fd5b505050506040513d601f19601f82011682018060405250810190610ed89190611754565b90509392505050565b6060600084849050905060608167ffffffffffffffff81118015610f0457600080fd5b50604051908082528060200260200182016040528015610f3e57816020015b610f2b611099565b815260200190600190039081610f235790505b50905060005b82811015610f9a57610f76878783818110610f5b57fe5b9050602002016020810190610f709190611590565b8661020d565b828281518110610f8257fe5b60200260200101819052508080600101915050610f44565b5080925050509392505050565b60008473ffffffffffffffffffffffffffffffffffffffff1663c16bb15c8585856040518463ffffffff1660e01b8152600401610fe693929190611e61565b60206040518083038186803b158015610ffe57600080fd5b505afa158015611012573d6000803e3d6000fd5b505050506040513d601f19601f820116820180604052508101906110369190611754565b9050949350505050565b6000816040516020016110539190611e14565b604051602081830303815290604052805190602001208360405160200161107a9190611e14565b6040516020818303038152906040528051906020012014905092915050565b6040518060800160405280600073ffffffffffffffffffffffffffffffffffffffff1681526020016000815260200160008152602001600081525090565b604051806101c00160405280600073ffffffffffffffffffffffffffffffffffffffff168152602001600081526020016000815260200160008152602001600081526020016000815260200160008152602001600081526020016000815260200160001515815260200160008152602001600073ffffffffffffffffffffffffffffffffffffffff16815260200160008152602001600081525090565b60405180606001604052806060815260200160008152602001600081525090565b6000813590506111a481612252565b92915050565b6000815190506111b981612252565b92915050565b6000813590506111ce81612269565b92915050565b60008083601f8401126111e657600080fd5b8235905067ffffffffffffffff8111156111ff57600080fd5b60208301915083602082028301111561121757600080fd5b9250929050565b600082601f83011261122f57600080fd5b815161124261123d82611fc8565b611f9b565b9150818183526020840193506020810190508385602084028201111561126757600080fd5b60005b83811015611297578161127d888261133f565b84526020840193506020830192505060018101905061126a565b5050505092915050565b60008083601f8401126112b357600080fd5b8235905067ffffffffffffffff8111156112cc57600080fd5b6020830191508360208202830111156112e457600080fd5b9250929050565b6000813590506112fa81612280565b92915050565b60008151905061130f81612280565b92915050565b60008135905061132481612297565b92915050565b600081359050611339816122ae565b92915050565b60008151905061134e816122ae565b92915050565b600081359050611363816122c5565b92915050565b600081359050611378816122dc565b92915050565b600082601f83011261138f57600080fd5b81516113a261139d82611ff0565b611f9b565b915080825260208301602083018583830111156113be57600080fd5b6113c983828461221f565b50505092915050565b6000813590506113e1816122f3565b92915050565b6000815190506113f6816122f3565b92915050565b60008151905061140b8161230a565b92915050565b60006020828403121561142357600080fd5b6000611431848285016111aa565b91505092915050565b6000806020838503121561144d57600080fd5b600083013567ffffffffffffffff81111561146757600080fd5b611473858286016111d4565b92509250509250929050565b60008060006040848603121561149457600080fd5b600084013567ffffffffffffffff8111156114ae57600080fd5b6114ba868287016111d4565b935093505060206114cd868287016111bf565b9150509250925092565b6000602082840312156114e957600080fd5b600082015167ffffffffffffffff81111561150357600080fd5b61150f8482850161121e565b91505092915050565b6000806040838503121561152b57600080fd5b600061153985828601611300565b925050602061154a858286016113e7565b9150509250929050565b6000806040838503121561156757600080fd5b600061157585828601611315565b925050602061158685828601611195565b9150509250929050565b6000602082840312156115a257600080fd5b60006115b08482850161132a565b91505092915050565b600080604083850312156115cc57600080fd5b60006115da8582860161132a565b92505060206115eb858286016111bf565b9150509250929050565b6000806000806060858703121561160b57600080fd5b600061161987828801611354565b945050602061162a87828801611195565b935050604085013567ffffffffffffffff81111561164757600080fd5b611653878288016112a1565b925092505092959194509250565b60008060006060848603121561167657600080fd5b600061168486828701611354565b935050602061169586828701611195565b92505060406116a6868287016113d2565b9150509250925092565b600080600080608085870312156116c657600080fd5b60006116d487828801611369565b94505060206116e587828801611195565b93505060406116f6878288016112eb565b9250506060611707878288016112eb565b91505092959194509250565b60006020828403121561172557600080fd5b600082015167ffffffffffffffff81111561173f57600080fd5b61174b8482850161137e565b91505092915050565b60006020828403121561176657600080fd5b6000611774848285016113e7565b91505092915050565b60008060006060848603121561179257600080fd5b60006117a0868287016113e7565b93505060206117b1868287016113e7565b92505060406117c2868287016113e7565b9150509250925092565b600080600080608085870312156117e257600080fd5b60006117f0878288016113e7565b9450506020611801878288016113e7565b9350506040611812878288016113e7565b9250506060611823878288016113e7565b91505092959194509250565b60006020828403121561184157600080fd5b600061184f848285016113fc565b91505092915050565b60006118648383611a7c565b60208301905092915050565b600061187c8383611b0c565b60808301905092915050565b60006118948383611bb6565b6101c08301905092915050565b60006118ad8383611df6565b60208301905092915050565b6118c2816121c5565b82525050565b6118d181612116565b82525050565b6118e081612116565b82525050565b60006118f18261205c565b6118fb81856120c7565b93506119068361201c565b8060005b8381101561193757815161191e8882611858565b975061192983612093565b92505060018101905061190a565b5085935050505092915050565b600061194f82612067565b61195981856120d8565b93506119648361202c565b8060005b8381101561199557815161197c8882611870565b9750611987836120a0565b925050600181019050611968565b5085935050505092915050565b60006119ad82612072565b6119b781856120e9565b93506119c28361203c565b8060005b838110156119f35781516119da8882611888565b97506119e5836120ad565b9250506001810190506119c6565b5085935050505092915050565b6000611a0b8261207d565b611a1581856120fa565b9350611a208361204c565b8060005b83811015611a51578151611a3888826118a1565b9750611a43836120ba565b925050600181019050611a24565b5085935050505092915050565b611a678161213a565b82525050565b611a768161213a565b82525050565b611a85816121d7565b82525050565b6000611a9682612088565b611aa0818561210b565b9350611ab081856020860161221f565b80840191505092915050565b60006060830160008301518482036000860152611ad982826118e6565b9150506020830151611aee6020860182611df6565b506040830151611b016040860182611df6565b508091505092915050565b608082016000820151611b2260008501826118c8565b506020820151611b356020850182611df6565b506040820151611b486040850182611df6565b506060820151611b5b6060850182611df6565b50505050565b608082016000820151611b7760008501826118c8565b506020820151611b8a6020850182611df6565b506040820151611b9d6040850182611df6565b506060820151611bb06060850182611df6565b50505050565b6101c082016000820151611bcd60008501826118c8565b506020820151611be06020850182611df6565b506040820151611bf36040850182611df6565b506060820151611c066060850182611df6565b506080820151611c196080850182611df6565b5060a0820151611c2c60a0850182611df6565b5060c0820151611c3f60c0850182611df6565b5060e0820151611c5260e0850182611df6565b50610100820151611c67610100850182611df6565b50610120820151611c7c610120850182611a5e565b50610140820151611c91610140850182611df6565b50610160820151611ca66101608501826118c8565b50610180820151611cbb610180850182611df6565b506101a0820151611cd06101a0850182611df6565b50505050565b6101c082016000820151611ced60008501826118c8565b506020820151611d006020850182611df6565b506040820151611d136040850182611df6565b506060820151611d266060850182611df6565b506080820151611d396080850182611df6565b5060a0820151611d4c60a0850182611df6565b5060c0820151611d5f60c0850182611df6565b5060e0820151611d7260e0850182611df6565b50610100820151611d87610100850182611df6565b50610120820151611d9c610120850182611a5e565b50610140820151611db1610140850182611df6565b50610160820151611dc66101608501826118c8565b50610180820151611ddb610180850182611df6565b506101a0820151611df06101a0850182611df6565b50505050565b611dff816121ae565b82525050565b611e0e816121ae565b82525050565b6000611e208284611a8b565b915081905092915050565b6000602082019050611e4060008301846118d7565b92915050565b6000602082019050611e5b60008301846118b9565b92915050565b6000606082019050611e7660008301866118d7565b611e836020830185611a6d565b611e906040830184611a6d565b949350505050565b60006020820190508181036000830152611eb28184611944565b905092915050565b60006020820190508181036000830152611ed481846119a2565b905092915050565b60006020820190508181036000830152611ef68184611a00565b905092915050565b60006020820190508181036000830152611f188184611abc565b905092915050565b6000608082019050611f356000830184611b61565b92915050565b60006101c082019050611f516000830184611cd6565b92915050565b6000602082019050611f6c6000830184611e05565b92915050565b6000604082019050611f876000830185611e05565b611f9460208301846118d7565b9392505050565b6000604051905081810181811067ffffffffffffffff82111715611fbe57600080fd5b8060405250919050565b600067ffffffffffffffff821115611fdf57600080fd5b602082029050602081019050919050565b600067ffffffffffffffff82111561200757600080fd5b601f19601f8301169050602081019050919050565b6000819050602082019050919050565b6000819050602082019050919050565b6000819050602082019050919050565b6000819050602082019050919050565b600081519050919050565b600081519050919050565b600081519050919050565b600081519050919050565b600081519050919050565b6000602082019050919050565b6000602082019050919050565b6000602082019050919050565b6000602082019050919050565b600082825260208201905092915050565b600082825260208201905092915050565b600082825260208201905092915050565b600082825260208201905092915050565b600081905092915050565b60006121218261218e565b9050919050565b60006121338261218e565b9050919050565b60008115159050919050565b600061215182612116565b9050919050565b600061216382612116565b9050919050565b600061217582612116565b9050919050565b600061218782612116565b9050919050565b600073ffffffffffffffffffffffffffffffffffffffff82169050919050565b6000819050919050565b600060ff82169050919050565b60006121d0826121fb565b9050919050565b60006121e2826121e9565b9050919050565b60006121f48261218e565b9050919050565b60006122068261220d565b9050919050565b60006122188261218e565b9050919050565b60005b8381101561223d578082015181840152602081019050612222565b8381111561224c576000848401525b50505050565b61225b81612116565b811461226657600080fd5b50565b61227281612128565b811461227d57600080fd5b50565b6122898161213a565b811461229457600080fd5b50565b6122a081612146565b81146122ab57600080fd5b50565b6122b781612158565b81146122c257600080fd5b50565b6122ce8161216a565b81146122d957600080fd5b50565b6122e58161217c565b81146122f057600080fd5b50565b6122fc816121ae565b811461230757600080fd5b50565b612313816121b8565b811461231e57600080fd5b5056fea26469706673582212203ab87eb7bb133de1fcf0fa21b071813849bf6d35460b5d561a0a3fa8b40726cf64736f6c634300060c0033",
  "compiler": {
    "name": "solc",
    "version": "0.6.12+commit.27d51765.Emscripten.clang",
    "optimizer": {
      "enabled": false,
      "runs": 200
    },
    "evmVersion": "istanbul"
  }
}