{
  "fileName": "WpcAirdropFundingManager.sol",
  "contractName": "WpcAirdropFundingManager",
  "source": "// SPDX-License-Identifier: MIT\npragma solidity 0.6.12;\n\nimport \"@openzeppelin/contracts-ethereum-package/contracts/token/ERC20/IERC20.sol\";\nimport \"@openzeppelin/contracts-ethereum-package/contracts/access/Ownable.sol\";\n\ninterface IPiggyBreeder {\n    function stake(uint256 _pid, uint256 _amount) external;\n\n    function unStake(uint256 _pid, uint256 _amount) external;\n\n    function claim(uint256 _pid) external;\n\n    function emergencyWithdraw(uint256 _pid) external;\n}\n\ncontract WpcAirdropFundingManager is OwnableUpgradeSafe {\n\n    IERC20 public piggy;\n    IERC20 public token;\n    IPiggyBreeder public piggyBreeder;\n\n    event StakeTokenToPiggyBreeder(IERC20 token, uint pid, uint amount);\n    event UnStakeTokenFromPiggyBreeder(IERC20 token, uint pid, uint amount);\n    event ClaimWpcFromPiggyBreeder(uint pid);\n\n\n    function initialize(IERC20 _token, IERC20 _piggy, IPiggyBreeder _piggyBreeder) public initializer {\n\n        token = _token;\n        piggy = _piggy;\n        piggyBreeder = _piggyBreeder;\n\n        super.__Ownable_init();\n    }\n\n    function _stakeTokenToPiggyBreeder(uint pid) public onlyOwner {\n        uint amount = token.balanceOf(address(this));\n        token.approve(address(piggyBreeder), amount);\n        piggyBreeder.stake(pid, amount);\n        emit StakeTokenToPiggyBreeder(token, pid, amount);\n    }\n\n    function _unStakeTokenFromPiggyBreeder(uint pid, uint amount) public onlyOwner {\n        piggyBreeder.unStake(pid, amount);\n        emit UnStakeTokenFromPiggyBreeder(token, pid, amount);\n    }\n\n    function _claimWpcFromPiggyBreeder(uint pid) public onlyOwner {\n        piggyBreeder.claim(pid);\n        emit ClaimWpcFromPiggyBreeder(pid);\n    }\n\n    // only owner can call this function.\n    function _transferWpc(address _to, uint256 _amount) public onlyOwner {\n        uint256 piggyBal = piggy.balanceOf(address(this));\n        if (_amount > piggyBal) {\n            piggy.transfer(_to, piggyBal);\n        } else {\n            piggy.transfer(_to, _amount);\n        }\n    }\n\n}\n",
  "sourcePath": "contracts/governance/WpcAirdropFundingManager.sol",
  "abi": [
    {
      "anonymous": false,
      "inputs": [
        {
          "indexed": false,
          "internalType": "uint256",
          "name": "pid",
          "type": "uint256"
        }
      ],
      "name": "ClaimWpcFromPiggyBreeder",
      "type": "event"
    },
    {
      "anonymous": false,
      "inputs": [
        {
          "indexed": true,
          "internalType": "address",
          "name": "previousOwner",
          "type": "address"
        },
        {
          "indexed": true,
          "internalType": "address",
          "name": "newOwner",
          "type": "address"
        }
      ],
      "name": "OwnershipTransferred",
      "type": "event"
    },
    {
      "anonymous": false,
      "inputs": [
        {
          "indexed": false,
          "internalType": "contract IERC20",
          "name": "token",
          "type": "address"
        },
        {
          "indexed": false,
          "internalType": "uint256",
          "name": "pid",
          "type": "uint256"
        },
        {
          "indexed": false,
          "internalType": "uint256",
          "name": "amount",
          "type": "uint256"
        }
      ],
      "name": "StakeTokenToPiggyBreeder",
      "type": "event"
    },
    {
      "anonymous": false,
      "inputs": [
        {
          "indexed": false,
          "internalType": "contract IERC20",
          "name": "token",
          "type": "address"
        },
        {
          "indexed": false,
          "internalType": "uint256",
          "name": "pid",
          "type": "uint256"
        },
        {
          "indexed": false,
          "internalType": "uint256",
          "name": "amount",
          "type": "uint256"
        }
      ],
      "name": "UnStakeTokenFromPiggyBreeder",
      "type": "event"
    },
    {
      "inputs": [
        {
          "internalType": "uint256",
          "name": "pid",
          "type": "uint256"
        }
      ],
      "name": "_claimWpcFromPiggyBreeder",
      "outputs": [],
      "stateMutability": "nonpayable",
      "type": "function"
    },
    {
      "inputs": [
        {
          "internalType": "uint256",
          "name": "pid",
          "type": "uint256"
        }
      ],
      "name": "_stakeTokenToPiggyBreeder",
      "outputs": [],
      "stateMutability": "nonpayable",
      "type": "function"
    },
    {
      "inputs": [
        {
          "internalType": "address",
          "name": "_to",
          "type": "address"
        },
        {
          "internalType": "uint256",
          "name": "_amount",
          "type": "uint256"
        }
      ],
      "name": "_transferWpc",
      "outputs": [],
      "stateMutability": "nonpayable",
      "type": "function"
    },
    {
      "inputs": [
        {
          "internalType": "uint256",
          "name": "pid",
          "type": "uint256"
        },
        {
          "internalType": "uint256",
          "name": "amount",
          "type": "uint256"
        }
      ],
      "name": "_unStakeTokenFromPiggyBreeder",
      "outputs": [],
      "stateMutability": "nonpayable",
      "type": "function"
    },
    {
      "inputs": [
        {
          "internalType": "contract IERC20",
          "name": "_token",
          "type": "address"
        },
        {
          "internalType": "contract IERC20",
          "name": "_piggy",
          "type": "address"
        },
        {
          "internalType": "contract IPiggyBreeder",
          "name": "_piggyBreeder",
          "type": "address"
        }
      ],
      "name": "initialize",
      "outputs": [],
      "stateMutability": "nonpayable",
      "type": "function"
    },
    {
      "inputs": [],
      "name": "owner",
      "outputs": [
        {
          "internalType": "address",
          "name": "",
          "type": "address"
        }
      ],
      "stateMutability": "view",
      "type": "function"
    },
    {
      "inputs": [],
      "name": "piggy",
      "outputs": [
        {
          "internalType": "contract IERC20",
          "name": "",
          "type": "address"
        }
      ],
      "stateMutability": "view",
      "type": "function"
    },
    {
      "inputs": [],
      "name": "piggyBreeder",
      "outputs": [
        {
          "internalType": "contract IPiggyBreeder",
          "name": "",
          "type": "address"
        }
      ],
      "stateMutability": "view",
      "type": "function"
    },
    {
      "inputs": [],
      "name": "renounceOwnership",
      "outputs": [],
      "stateMutability": "nonpayable",
      "type": "function"
    },
    {
      "inputs": [],
      "name": "token",
      "outputs": [
        {
          "internalType": "contract IERC20",
          "name": "",
          "type": "address"
        }
      ],
      "stateMutability": "view",
      "type": "function"
    },
    {
      "inputs": [
        {
          "internalType": "address",
          "name": "newOwner",
          "type": "address"
        }
      ],
      "name": "transferOwnership",
      "outputs": [],
      "stateMutability": "nonpayable",
      "type": "function"
    }
  ],
  "bytecode": "0x608060405234801561001057600080fd5b506117e2806100206000396000f3fe608060405234801561001057600080fd5b50600436106100a95760003560e01c8063b5fdf28e11610071578063b5fdf28e14610196578063b712beef146101ca578063b7ac3b3b146101fe578063c0c53b8b14610236578063f2fde38b146102ba578063fc0c546a146102fe576100a9565b806330d9c3d0146100ae5780633637d974146100dc578063715018a61461010a5780638da5cb5b146101145780639ce393f714610148575b600080fd5b6100da600480360360208110156100c457600080fd5b8101908080359060200190929190505050610332565b005b610108600480360360208110156100f257600080fd5b81019080803590602001909291905050506106cd565b005b61011261085e565b005b61011c6109e9565b604051808273ffffffffffffffffffffffffffffffffffffffff16815260200191505060405180910390f35b6101946004803603604081101561015e57600080fd5b81019080803573ffffffffffffffffffffffffffffffffffffffff16906020019092919080359060200190929190505050610a13565b005b61019e610d56565b604051808273ffffffffffffffffffffffffffffffffffffffff16815260200191505060405180910390f35b6101d2610d7c565b604051808273ffffffffffffffffffffffffffffffffffffffff16815260200191505060405180910390f35b6102346004803603604081101561021457600080fd5b810190808035906020019092919080359060200190929190505050610da2565b005b6102b86004803603606081101561024c57600080fd5b81019080803573ffffffffffffffffffffffffffffffffffffffff169060200190929190803573ffffffffffffffffffffffffffffffffffffffff169060200190929190803573ffffffffffffffffffffffffffffffffffffffff169060200190929190505050610f84565b005b6102fc600480360360208110156102d057600080fd5b81019080803573ffffffffffffffffffffffffffffffffffffffff169060200190929190505050611150565b005b610306611360565b604051808273ffffffffffffffffffffffffffffffffffffffff16815260200191505060405180910390f35b61033a611386565b73ffffffffffffffffffffffffffffffffffffffff16606560009054906101000a900473ffffffffffffffffffffffffffffffffffffffff1673ffffffffffffffffffffffffffffffffffffffff16146103fc576040517f08c379a00000000000000000000000000000000000000000000000000000000081526004018080602001828103825260208152602001807f4f776e61626c653a2063616c6c6572206973206e6f7420746865206f776e657281525060200191505060405180910390fd5b6000609860009054906101000a900473ffffffffffffffffffffffffffffffffffffffff1673ffffffffffffffffffffffffffffffffffffffff166370a08231306040518263ffffffff1660e01b8152600401808273ffffffffffffffffffffffffffffffffffffffff16815260200191505060206040518083038186803b15801561048757600080fd5b505afa15801561049b573d6000803e3d6000fd5b505050506040513d60208110156104b157600080fd5b81019080805190602001909291905050509050609860009054906101000a900473ffffffffffffffffffffffffffffffffffffffff1673ffffffffffffffffffffffffffffffffffffffff1663095ea7b3609960009054906101000a900473ffffffffffffffffffffffffffffffffffffffff16836040518363ffffffff1660e01b8152600401808373ffffffffffffffffffffffffffffffffffffffff16815260200182815260200192505050602060405180830381600087803b15801561057957600080fd5b505af115801561058d573d6000803e3d6000fd5b505050506040513d60208110156105a357600080fd5b810190808051906020019092919050505050609960009054906101000a900473ffffffffffffffffffffffffffffffffffffffff1673ffffffffffffffffffffffffffffffffffffffff16637b0472f083836040518363ffffffff1660e01b81526004018083815260200182815260200192505050600060405180830381600087803b15801561063257600080fd5b505af1158015610646573d6000803e3d6000fd5b505050507f9e607a7395a4b086a7a32e21952e8789eb525dafb3978a5f51a63d7e13b92991609860009054906101000a900473ffffffffffffffffffffffffffffffffffffffff168383604051808473ffffffffffffffffffffffffffffffffffffffff168152602001838152602001828152602001935050505060405180910390a15050565b6106d5611386565b73ffffffffffffffffffffffffffffffffffffffff16606560009054906101000a900473ffffffffffffffffffffffffffffffffffffffff1673ffffffffffffffffffffffffffffffffffffffff1614610797576040517f08c379a00000000000000000000000000000000000000000000000000000000081526004018080602001828103825260208152602001807f4f776e61626c653a2063616c6c6572206973206e6f7420746865206f776e657281525060200191505060405180910390fd5b609960009054906101000a900473ffffffffffffffffffffffffffffffffffffffff1673ffffffffffffffffffffffffffffffffffffffff1663379607f5826040518263ffffffff1660e01b815260040180828152602001915050600060405180830381600087803b15801561080c57600080fd5b505af1158015610820573d6000803e3d6000fd5b505050507f44542e73ff1ebfa31eab4e203a32710f1b2be84fe883bc080772cf78b455b32d816040518082815260200191505060405180910390a150565b610866611386565b73ffffffffffffffffffffffffffffffffffffffff16606560009054906101000a900473ffffffffffffffffffffffffffffffffffffffff1673ffffffffffffffffffffffffffffffffffffffff1614610928576040517f08c379a00000000000000000000000000000000000000000000000000000000081526004018080602001828103825260208152602001807f4f776e61626c653a2063616c6c6572206973206e6f7420746865206f776e657281525060200191505060405180910390fd5b600073ffffffffffffffffffffffffffffffffffffffff16606560009054906101000a900473ffffffffffffffffffffffffffffffffffffffff1673ffffffffffffffffffffffffffffffffffffffff167f8be0079c531659141344cd1fd0a4f28419497f9722a3daafe3b4186f6b6457e060405160405180910390a36000606560006101000a81548173ffffffffffffffffffffffffffffffffffffffff021916908373ffffffffffffffffffffffffffffffffffffffff160217905550565b6000606560009054906101000a900473ffffffffffffffffffffffffffffffffffffffff16905090565b610a1b611386565b73ffffffffffffffffffffffffffffffffffffffff16606560009054906101000a900473ffffffffffffffffffffffffffffffffffffffff1673ffffffffffffffffffffffffffffffffffffffff1614610add576040517f08c379a00000000000000000000000000000000000000000000000000000000081526004018080602001828103825260208152602001807f4f776e61626c653a2063616c6c6572206973206e6f7420746865206f776e657281525060200191505060405180910390fd5b6000609760009054906101000a900473ffffffffffffffffffffffffffffffffffffffff1673ffffffffffffffffffffffffffffffffffffffff166370a08231306040518263ffffffff1660e01b8152600401808273ffffffffffffffffffffffffffffffffffffffff16815260200191505060206040518083038186803b158015610b6857600080fd5b505afa158015610b7c573d6000803e3d6000fd5b505050506040513d6020811015610b9257600080fd5b8101908080519060200190929190505050905080821115610c8157609760009054906101000a900473ffffffffffffffffffffffffffffffffffffffff1673ffffffffffffffffffffffffffffffffffffffff1663a9059cbb84836040518363ffffffff1660e01b8152600401808373ffffffffffffffffffffffffffffffffffffffff16815260200182815260200192505050602060405180830381600087803b158015610c4057600080fd5b505af1158015610c54573d6000803e3d6000fd5b505050506040513d6020811015610c6a57600080fd5b810190808051906020019092919050505050610d51565b609760009054906101000a900473ffffffffffffffffffffffffffffffffffffffff1673ffffffffffffffffffffffffffffffffffffffff1663a9059cbb84846040518363ffffffff1660e01b8152600401808373ffffffffffffffffffffffffffffffffffffffff16815260200182815260200192505050602060405180830381600087803b158015610d1457600080fd5b505af1158015610d28573d6000803e3d6000fd5b505050506040513d6020811015610d3e57600080fd5b8101908080519060200190929190505050505b505050565b609760009054906101000a900473ffffffffffffffffffffffffffffffffffffffff1681565b609960009054906101000a900473ffffffffffffffffffffffffffffffffffffffff1681565b610daa611386565b73ffffffffffffffffffffffffffffffffffffffff16606560009054906101000a900473ffffffffffffffffffffffffffffffffffffffff1673ffffffffffffffffffffffffffffffffffffffff1614610e6c576040517f08c379a00000000000000000000000000000000000000000000000000000000081526004018080602001828103825260208152602001807f4f776e61626c653a2063616c6c6572206973206e6f7420746865206f776e657281525060200191505060405180910390fd5b609960009054906101000a900473ffffffffffffffffffffffffffffffffffffffff1673ffffffffffffffffffffffffffffffffffffffff1663372caeb883836040518363ffffffff1660e01b81526004018083815260200182815260200192505050600060405180830381600087803b158015610ee957600080fd5b505af1158015610efd573d6000803e3d6000fd5b505050507f8259193242da1c520b1a3759f3513fcf762b6116123a45e48a537a6a7f0dc2e3609860009054906101000a900473ffffffffffffffffffffffffffffffffffffffff168383604051808473ffffffffffffffffffffffffffffffffffffffff168152602001838152602001828152602001935050505060405180910390a15050565b600060019054906101000a900460ff1680610fa35750610fa261138e565b5b80610fb9575060008054906101000a900460ff16155b61100e576040517f08c379a000000000000000000000000000000000000000000000000000000000815260040180806020018281038252602e81526020018061177f602e913960400191505060405180910390fd5b60008060019054906101000a900460ff16159050801561105e576001600060016101000a81548160ff02191690831515021790555060016000806101000a81548160ff0219169083151502179055505b83609860006101000a81548173ffffffffffffffffffffffffffffffffffffffff021916908373ffffffffffffffffffffffffffffffffffffffff16021790555082609760006101000a81548173ffffffffffffffffffffffffffffffffffffffff021916908373ffffffffffffffffffffffffffffffffffffffff16021790555081609960006101000a81548173ffffffffffffffffffffffffffffffffffffffff021916908373ffffffffffffffffffffffffffffffffffffffff1602179055506111296113a5565b801561114a5760008060016101000a81548160ff0219169083151502179055505b50505050565b611158611386565b73ffffffffffffffffffffffffffffffffffffffff16606560009054906101000a900473ffffffffffffffffffffffffffffffffffffffff1673ffffffffffffffffffffffffffffffffffffffff161461121a576040517f08c379a00000000000000000000000000000000000000000000000000000000081526004018080602001828103825260208152602001807f4f776e61626c653a2063616c6c6572206973206e6f7420746865206f776e657281525060200191505060405180910390fd5b600073ffffffffffffffffffffffffffffffffffffffff168173ffffffffffffffffffffffffffffffffffffffff1614156112a0576040517f08c379a00000000000000000000000000000000000000000000000000000000081526004018080602001828103825260268152602001806117596026913960400191505060405180910390fd5b8073ffffffffffffffffffffffffffffffffffffffff16606560009054906101000a900473ffffffffffffffffffffffffffffffffffffffff1673ffffffffffffffffffffffffffffffffffffffff167f8be0079c531659141344cd1fd0a4f28419497f9722a3daafe3b4186f6b6457e060405160405180910390a380606560006101000a81548173ffffffffffffffffffffffffffffffffffffffff021916908373ffffffffffffffffffffffffffffffffffffffff16021790555050565b609860009054906101000a900473ffffffffffffffffffffffffffffffffffffffff1681565b600033905090565b6000803090506000813b9050600081149250505090565b600060019054906101000a900460ff16806113c457506113c361138e565b5b806113da575060008054906101000a900460ff16155b61142f576040517f08c379a000000000000000000000000000000000000000000000000000000000815260040180806020018281038252602e81526020018061177f602e913960400191505060405180910390fd5b60008060019054906101000a900460ff16159050801561147f576001600060016101000a81548160ff02191690831515021790555060016000806101000a81548160ff0219169083151502179055505b6114876114b3565b61148f6115b1565b80156114b05760008060016101000a81548160ff0219169083151502179055505b50565b600060019054906101000a900460ff16806114d257506114d161138e565b5b806114e8575060008054906101000a900460ff16155b61153d576040517f08c379a000000000000000000000000000000000000000000000000000000000815260040180806020018281038252602e81526020018061177f602e913960400191505060405180910390fd5b60008060019054906101000a900460ff16159050801561158d576001600060016101000a81548160ff02191690831515021790555060016000806101000a81548160ff0219169083151502179055505b80156115ae5760008060016101000a81548160ff0219169083151502179055505b50565b600060019054906101000a900460ff16806115d057506115cf61138e565b5b806115e6575060008054906101000a900460ff16155b61163b576040517f08c379a000000000000000000000000000000000000000000000000000000000815260040180806020018281038252602e81526020018061177f602e913960400191505060405180910390fd5b60008060019054906101000a900460ff16159050801561168b576001600060016101000a81548160ff02191690831515021790555060016000806101000a81548160ff0219169083151502179055505b6000611695611386565b905080606560006101000a81548173ffffffffffffffffffffffffffffffffffffffff021916908373ffffffffffffffffffffffffffffffffffffffff1602179055508073ffffffffffffffffffffffffffffffffffffffff16600073ffffffffffffffffffffffffffffffffffffffff167f8be0079c531659141344cd1fd0a4f28419497f9722a3daafe3b4186f6b6457e060405160405180910390a35080156117555760008060016101000a81548160ff0219169083151502179055505b5056fe4f776e61626c653a206e6577206f776e657220697320746865207a65726f2061646472657373436f6e747261637420696e7374616e63652068617320616c7265616479206265656e20696e697469616c697a6564a2646970667358221220e3f9b097724eb8b7065fdda86bd400d5453628aada450ad9d287f6621a2a290f64736f6c634300060c0033",
  "compiler": {
    "name": "solc",
    "version": "0.6.12+commit.27d51765.Emscripten.clang",
    "optimizer": {
      "enabled": false,
      "runs": 200
    },
    "evmVersion": "istanbul"
  }
}