{
  "_format": "hh-sol-artifact-1",
  "contractName": "BoolComptroller",
  "sourceName": "contracts/test/ComptrollerHarness.sol",
  "abi": [
    {
      "constant": false,
      "inputs": [
        {
          "internalType": "address",
          "name": "liquidatorContract_",
          "type": "address"
        }
      ],
      "name": "_setLiquidatorContract",
      "outputs": [],
      "payable": false,
      "stateMutability": "nonpayable",
      "type": "function"
    },
    {
      "constant": false,
      "inputs": [
        {
          "internalType": "contract VToken[]",
          "name": "vTokens",
          "type": "address[]"
        },
        {
          "internalType": "uint256[]",
          "name": "newSupplyCaps",
          "type": "uint256[]"
        }
      ],
      "name": "_setMarketSupplyCaps",
      "outputs": [],
      "payable": false,
      "stateMutability": "nonpayable",
      "type": "function"
    },
    {
      "constant": false,
      "inputs": [
        {
          "internalType": "address",
          "name": "_vToken",
          "type": "address"
        },
        {
          "internalType": "address",
          "name": "_borrower",
          "type": "address"
        },
        {
          "internalType": "uint256",
          "name": "_borrowAmount",
          "type": "uint256"
        }
      ],
      "name": "borrowAllowed",
      "outputs": [
        {
          "internalType": "uint256",
          "name": "",
          "type": "uint256"
        }
      ],
      "payable": false,
      "stateMutability": "nonpayable",
      "type": "function"
    },
    {
      "constant": false,
      "inputs": [
        {
          "internalType": "address",
          "name": "_vToken",
          "type": "address"
        },
        {
          "internalType": "address",
          "name": "_borrower",
          "type": "address"
        },
        {
          "internalType": "uint256",
          "name": "_borrowAmount",
          "type": "uint256"
        }
      ],
      "name": "borrowVerify",
      "outputs": [],
      "payable": false,
      "stateMutability": "nonpayable",
      "type": "function"
    },
    {
      "constant": false,
      "inputs": [
        {
          "internalType": "address",
          "name": "",
          "type": "address"
        }
      ],
      "name": "claimVenus",
      "outputs": [],
      "payable": false,
      "stateMutability": "nonpayable",
      "type": "function"
    },
    {
      "constant": false,
      "inputs": [
        {
          "internalType": "address[]",
          "name": "_vTokens",
          "type": "address[]"
        }
      ],
      "name": "enterMarkets",
      "outputs": [
        {
          "internalType": "uint256[]",
          "name": "",
          "type": "uint256[]"
        }
      ],
      "payable": false,
      "stateMutability": "nonpayable",
      "type": "function"
    },
    {
      "constant": false,
      "inputs": [
        {
          "internalType": "address",
          "name": "_vToken",
          "type": "address"
        }
      ],
      "name": "exitMarket",
      "outputs": [
        {
          "internalType": "uint256",
          "name": "",
          "type": "uint256"
        }
      ],
      "payable": false,
      "stateMutability": "nonpayable",
      "type": "function"
    },
    {
      "constant": true,
      "inputs": [
        {
          "internalType": "address",
          "name": "",
          "type": "address"
        }
      ],
      "name": "getAccountLiquidity",
      "outputs": [
        {
          "internalType": "uint256",
          "name": "",
          "type": "uint256"
        },
        {
          "internalType": "uint256",
          "name": "",
          "type": "uint256"
        },
        {
          "internalType": "uint256",
          "name": "",
          "type": "uint256"
        }
      ],
      "payable": false,
      "stateMutability": "view",
      "type": "function"
    },
    {
      "constant": true,
      "inputs": [],
      "name": "getAllMarkets",
      "outputs": [
        {
          "internalType": "contract VToken[]",
          "name": "",
          "type": "address[]"
        }
      ],
      "payable": false,
      "stateMutability": "view",
      "type": "function"
    },
    {
      "constant": true,
      "inputs": [
        {
          "internalType": "address",
          "name": "",
          "type": "address"
        }
      ],
      "name": "getAssetsIn",
      "outputs": [
        {
          "internalType": "contract VToken[]",
          "name": "",
          "type": "address[]"
        }
      ],
      "payable": false,
      "stateMutability": "view",
      "type": "function"
    },
    {
      "constant": false,
      "inputs": [
        {
          "internalType": "address",
          "name": "owner",
          "type": "address"
        },
        {
          "internalType": "uint256",
          "name": "amount",
          "type": "uint256"
        }
      ],
      "name": "harnessSetMintedVAIOf",
      "outputs": [
        {
          "internalType": "uint256",
          "name": "",
          "type": "uint256"
        }
      ],
      "payable": false,
      "stateMutability": "nonpayable",
      "type": "function"
    },
    {
      "constant": true,
      "inputs": [],
      "name": "isComptroller",
      "outputs": [
        {
          "internalType": "bool",
          "name": "",
          "type": "bool"
        }
      ],
      "payable": false,
      "stateMutability": "view",
      "type": "function"
    },
    {
      "constant": false,
      "inputs": [
        {
          "internalType": "address",
          "name": "_vTokenBorrowed",
          "type": "address"
        },
        {
          "internalType": "address",
          "name": "_vTokenCollateral",
          "type": "address"
        },
        {
          "internalType": "address",
          "name": "_liquidator",
          "type": "address"
        },
        {
          "internalType": "address",
          "name": "_borrower",
          "type": "address"
        },
        {
          "internalType": "uint256",
          "name": "_repayAmount",
          "type": "uint256"
        }
      ],
      "name": "liquidateBorrowAllowed",
      "outputs": [
        {
          "internalType": "uint256",
          "name": "",
          "type": "uint256"
        }
      ],
      "payable": false,
      "stateMutability": "nonpayable",
      "type": "function"
    },
    {
      "constant": false,
      "inputs": [
        {
          "internalType": "address",
          "name": "_vTokenBorrowed",
          "type": "address"
        },
        {
          "internalType": "address",
          "name": "_vTokenCollateral",
          "type": "address"
        },
        {
          "internalType": "address",
          "name": "_liquidator",
          "type": "address"
        },
        {
          "internalType": "address",
          "name": "_borrower",
          "type": "address"
        },
        {
          "internalType": "uint256",
          "name": "_repayAmount",
          "type": "uint256"
        },
        {
          "internalType": "uint256",
          "name": "_seizeTokens",
          "type": "uint256"
        }
      ],
      "name": "liquidateBorrowVerify",
      "outputs": [],
      "payable": false,
      "stateMutability": "nonpayable",
      "type": "function"
    },
    {
      "constant": true,
      "inputs": [
        {
          "internalType": "address",
          "name": "_vTokenBorrowed",
          "type": "address"
        },
        {
          "internalType": "address",
          "name": "_vTokenCollateral",
          "type": "address"
        },
        {
          "internalType": "uint256",
          "name": "_repayAmount",
          "type": "uint256"
        }
      ],
      "name": "liquidateCalculateSeizeTokens",
      "outputs": [
        {
          "internalType": "uint256",
          "name": "",
          "type": "uint256"
        },
        {
          "internalType": "uint256",
          "name": "",
          "type": "uint256"
        }
      ],
      "payable": false,
      "stateMutability": "view",
      "type": "function"
    },
    {
      "constant": true,
      "inputs": [
        {
          "internalType": "address",
          "name": "_vTokenCollateral",
          "type": "address"
        },
        {
          "internalType": "uint256",
          "name": "_repayAmount",
          "type": "uint256"
        }
      ],
      "name": "liquidateVAICalculateSeizeTokens",
      "outputs": [
        {
          "internalType": "uint256",
          "name": "",
          "type": "uint256"
        },
        {
          "internalType": "uint256",
          "name": "",
          "type": "uint256"
        }
      ],
      "payable": false,
      "stateMutability": "view",
      "type": "function"
    },
    {
      "constant": true,
      "inputs": [],
      "name": "liquidationIncentiveMantissa",
      "outputs": [
        {
          "internalType": "uint256",
          "name": "",
          "type": "uint256"
        }
      ],
      "payable": false,
      "stateMutability": "view",
      "type": "function"
    },
    {
      "constant": true,
      "inputs": [],
      "name": "liquidatorContract",
      "outputs": [
        {
          "internalType": "address",
          "name": "",
          "type": "address"
        }
      ],
      "payable": false,
      "stateMutability": "view",
      "type": "function"
    },
    {
      "constant": true,
      "inputs": [
        {
          "internalType": "address",
          "name": "",
          "type": "address"
        }
      ],
      "name": "markets",
      "outputs": [
        {
          "internalType": "bool",
          "name": "",
          "type": "bool"
        },
        {
          "internalType": "uint256",
          "name": "",
          "type": "uint256"
        }
      ],
      "payable": false,
      "stateMutability": "view",
      "type": "function"
    },
    {
      "constant": false,
      "inputs": [
        {
          "internalType": "address",
          "name": "_vToken",
          "type": "address"
        },
        {
          "internalType": "address",
          "name": "_minter",
          "type": "address"
        },
        {
          "internalType": "uint256",
          "name": "_mintAmount",
          "type": "uint256"
        }
      ],
      "name": "mintAllowed",
      "outputs": [
        {
          "internalType": "uint256",
          "name": "",
          "type": "uint256"
        }
      ],
      "payable": false,
      "stateMutability": "nonpayable",
      "type": "function"
    },
    {
      "constant": false,
      "inputs": [
        {
          "internalType": "address",
          "name": "_vToken",
          "type": "address"
        },
        {
          "internalType": "address",
          "name": "_minter",
          "type": "address"
        },
        {
          "internalType": "uint256",
          "name": "_mintAmount",
          "type": "uint256"
        },
        {
          "internalType": "uint256",
          "name": "_mintTokens",
          "type": "uint256"
        }
      ],
      "name": "mintVerify",
      "outputs": [],
      "payable": false,
      "stateMutability": "nonpayable",
      "type": "function"
    },
    {
      "constant": true,
      "inputs": [
        {
          "internalType": "address",
          "name": "",
          "type": "address"
        }
      ],
      "name": "mintedVAIs",
      "outputs": [
        {
          "internalType": "uint256",
          "name": "",
          "type": "uint256"
        }
      ],
      "payable": false,
      "stateMutability": "view",
      "type": "function"
    },
    {
      "constant": true,
      "inputs": [],
      "name": "oracle",
      "outputs": [
        {
          "internalType": "contract PriceOracle",
          "name": "",
          "type": "address"
        }
      ],
      "payable": false,
      "stateMutability": "view",
      "type": "function"
    },
    {
      "constant": true,
      "inputs": [],
      "name": "protocolPaused",
      "outputs": [
        {
          "internalType": "bool",
          "name": "",
          "type": "bool"
        }
      ],
      "payable": false,
      "stateMutability": "view",
      "type": "function"
    },
    {
      "constant": false,
      "inputs": [
        {
          "internalType": "address",
          "name": "_vToken",
          "type": "address"
        },
        {
          "internalType": "address",
          "name": "_redeemer",
          "type": "address"
        },
        {
          "internalType": "uint256",
          "name": "_redeemTokens",
          "type": "uint256"
        }
      ],
      "name": "redeemAllowed",
      "outputs": [
        {
          "internalType": "uint256",
          "name": "",
          "type": "uint256"
        }
      ],
      "payable": false,
      "stateMutability": "nonpayable",
      "type": "function"
    },
    {
      "constant": false,
      "inputs": [
        {
          "internalType": "address",
          "name": "_vToken",
          "type": "address"
        },
        {
          "internalType": "address",
          "name": "_redeemer",
          "type": "address"
        },
        {
          "internalType": "uint256",
          "name": "_redeemAmount",
          "type": "uint256"
        },
        {
          "internalType": "uint256",
          "name": "_redeemTokens",
          "type": "uint256"
        }
      ],
      "name": "redeemVerify",
      "outputs": [],
      "payable": false,
      "stateMutability": "nonpayable",
      "type": "function"
    },
    {
      "constant": false,
      "inputs": [
        {
          "internalType": "address",
          "name": "_vToken",
          "type": "address"
        },
        {
          "internalType": "address",
          "name": "_payer",
          "type": "address"
        },
        {
          "internalType": "address",
          "name": "_borrower",
          "type": "address"
        },
        {
          "internalType": "uint256",
          "name": "_repayAmount",
          "type": "uint256"
        }
      ],
      "name": "repayBorrowAllowed",
      "outputs": [
        {
          "internalType": "uint256",
          "name": "",
          "type": "uint256"
        }
      ],
      "payable": false,
      "stateMutability": "nonpayable",
      "type": "function"
    },
    {
      "constant": false,
      "inputs": [
        {
          "internalType": "address",
          "name": "_vToken",
          "type": "address"
        },
        {
          "internalType": "address",
          "name": "_payer",
          "type": "address"
        },
        {
          "internalType": "address",
          "name": "_borrower",
          "type": "address"
        },
        {
          "internalType": "uint256",
          "name": "_repayAmount",
          "type": "uint256"
        },
        {
          "internalType": "uint256",
          "name": "_borrowerIndex",
          "type": "uint256"
        }
      ],
      "name": "repayBorrowVerify",
      "outputs": [],
      "payable": false,
      "stateMutability": "nonpayable",
      "type": "function"
    },
    {
      "constant": false,
      "inputs": [
        {
          "internalType": "address",
          "name": "_vTokenCollateral",
          "type": "address"
        },
        {
          "internalType": "address",
          "name": "_vTokenBorrowed",
          "type": "address"
        },
        {
          "internalType": "address",
          "name": "_borrower",
          "type": "address"
        },
        {
          "internalType": "address",
          "name": "_liquidator",
          "type": "address"
        },
        {
          "internalType": "uint256",
          "name": "_seizeTokens",
          "type": "uint256"
        }
      ],
      "name": "seizeAllowed",
      "outputs": [
        {
          "internalType": "uint256",
          "name": "",
          "type": "uint256"
        }
      ],
      "payable": false,
      "stateMutability": "nonpayable",
      "type": "function"
    },
    {
      "constant": false,
      "inputs": [
        {
          "internalType": "address",
          "name": "_vTokenCollateral",
          "type": "address"
        },
        {
          "internalType": "address",
          "name": "_vTokenBorrowed",
          "type": "address"
        },
        {
          "internalType": "address",
          "name": "_liquidator",
          "type": "address"
        },
        {
          "internalType": "address",
          "name": "_borrower",
          "type": "address"
        },
        {
          "internalType": "uint256",
          "name": "_seizeTokens",
          "type": "uint256"
        }
      ],
      "name": "seizeVerify",
      "outputs": [],
      "payable": false,
      "stateMutability": "nonpayable",
      "type": "function"
    },
    {
      "constant": false,
      "inputs": [
        {
          "internalType": "uint256",
          "name": "mantissa_",
          "type": "uint256"
        }
      ],
      "name": "setAnnouncedLiquidationIncentiveMantissa",
      "outputs": [],
      "payable": false,
      "stateMutability": "nonpayable",
      "type": "function"
    },
    {
      "constant": false,
      "inputs": [
        {
          "internalType": "bool",
          "name": "allowBorrow_",
          "type": "bool"
        }
      ],
      "name": "setBorrowAllowed",
      "outputs": [],
      "payable": false,
      "stateMutability": "nonpayable",
      "type": "function"
    },
    {
      "constant": false,
      "inputs": [
        {
          "internalType": "bool",
          "name": "verifyBorrow_",
          "type": "bool"
        }
      ],
      "name": "setBorrowVerify",
      "outputs": [],
      "payable": false,
      "stateMutability": "nonpayable",
      "type": "function"
    },
    {
      "constant": false,
      "inputs": [
        {
          "internalType": "uint256",
          "name": "seizeTokens_",
          "type": "uint256"
        }
      ],
      "name": "setCalculatedSeizeTokens",
      "outputs": [],
      "payable": false,
      "stateMutability": "nonpayable",
      "type": "function"
    },
    {
      "constant": false,
      "inputs": [
        {
          "internalType": "bool",
          "name": "shouldFail",
          "type": "bool"
        }
      ],
      "name": "setFailCalculateSeizeTokens",
      "outputs": [],
      "payable": false,
      "stateMutability": "nonpayable",
      "type": "function"
    },
    {
      "constant": false,
      "inputs": [
        {
          "internalType": "bool",
          "name": "allowLiquidateBorrow_",
          "type": "bool"
        }
      ],
      "name": "setLiquidateBorrowAllowed",
      "outputs": [],
      "payable": false,
      "stateMutability": "nonpayable",
      "type": "function"
    },
    {
      "constant": false,
      "inputs": [
        {
          "internalType": "bool",
          "name": "verifyLiquidateBorrow_",
          "type": "bool"
        }
      ],
      "name": "setLiquidateBorrowVerify",
      "outputs": [],
      "payable": false,
      "stateMutability": "nonpayable",
      "type": "function"
    },
    {
      "constant": false,
      "inputs": [
        {
          "internalType": "bool",
          "name": "allowMint_",
          "type": "bool"
        }
      ],
      "name": "setMintAllowed",
      "outputs": [],
      "payable": false,
      "stateMutability": "nonpayable",
      "type": "function"
    },
    {
      "constant": false,
      "inputs": [
        {
          "internalType": "bool",
          "name": "verifyMint_",
          "type": "bool"
        }
      ],
      "name": "setMintVerify",
      "outputs": [],
      "payable": false,
      "stateMutability": "nonpayable",
      "type": "function"
    },
    {
      "constant": false,
      "inputs": [
        {
          "internalType": "address",
          "name": "owner",
          "type": "address"
        },
        {
          "internalType": "uint256",
          "name": "amount",
          "type": "uint256"
        }
      ],
      "name": "setMintedVAIOf",
      "outputs": [
        {
          "internalType": "uint256",
          "name": "",
          "type": "uint256"
        }
      ],
      "payable": false,
      "stateMutability": "nonpayable",
      "type": "function"
    },
    {
      "constant": false,
      "inputs": [
        {
          "internalType": "bool",
          "name": "allowRedeem_",
          "type": "bool"
        }
      ],
      "name": "setRedeemAllowed",
      "outputs": [],
      "payable": false,
      "stateMutability": "nonpayable",
      "type": "function"
    },
    {
      "constant": false,
      "inputs": [
        {
          "internalType": "bool",
          "name": "verifyRedeem_",
          "type": "bool"
        }
      ],
      "name": "setRedeemVerify",
      "outputs": [],
      "payable": false,
      "stateMutability": "nonpayable",
      "type": "function"
    },
    {
      "constant": false,
      "inputs": [
        {
          "internalType": "bool",
          "name": "allowRepayBorrow_",
          "type": "bool"
        }
      ],
      "name": "setRepayBorrowAllowed",
      "outputs": [],
      "payable": false,
      "stateMutability": "nonpayable",
      "type": "function"
    },
    {
      "constant": false,
      "inputs": [
        {
          "internalType": "bool",
          "name": "verifyRepayBorrow_",
          "type": "bool"
        }
      ],
      "name": "setRepayBorrowVerify",
      "outputs": [],
      "payable": false,
      "stateMutability": "nonpayable",
      "type": "function"
    },
    {
      "constant": false,
      "inputs": [
        {
          "internalType": "bool",
          "name": "allowSeize_",
          "type": "bool"
        }
      ],
      "name": "setSeizeAllowed",
      "outputs": [],
      "payable": false,
      "stateMutability": "nonpayable",
      "type": "function"
    },
    {
      "constant": false,
      "inputs": [
        {
          "internalType": "bool",
          "name": "verifySeize_",
          "type": "bool"
        }
      ],
      "name": "setSeizeVerify",
      "outputs": [],
      "payable": false,
      "stateMutability": "nonpayable",
      "type": "function"
    },
    {
      "constant": false,
      "inputs": [
        {
          "internalType": "bool",
          "name": "allowTransfer_",
          "type": "bool"
        }
      ],
      "name": "setTransferAllowed",
      "outputs": [],
      "payable": false,
      "stateMutability": "nonpayable",
      "type": "function"
    },
    {
      "constant": false,
      "inputs": [
        {
          "internalType": "bool",
          "name": "verifyTransfer_",
          "type": "bool"
        }
      ],
      "name": "setTransferVerify",
      "outputs": [],
      "payable": false,
      "stateMutability": "nonpayable",
      "type": "function"
    },
    {
      "constant": false,
      "inputs": [
        {
          "internalType": "address",
          "name": "treasuryGuardian_",
          "type": "address"
        },
        {
          "internalType": "address",
          "name": "treasuryAddress_",
          "type": "address"
        },
        {
          "internalType": "uint256",
          "name": "treasuryPercent_",
          "type": "uint256"
        }
      ],
      "name": "setTreasuryData",
      "outputs": [],
      "payable": false,
      "stateMutability": "nonpayable",
      "type": "function"
    },
    {
      "constant": false,
      "inputs": [
        {
          "internalType": "uint256",
          "name": "vaiSeizeTokens_",
          "type": "uint256"
        }
      ],
      "name": "setVAICalculatedSeizeTokens",
      "outputs": [],
      "payable": false,
      "stateMutability": "nonpayable",
      "type": "function"
    },
    {
      "constant": false,
      "inputs": [
        {
          "internalType": "bool",
          "name": "vaiShouldFail",
          "type": "bool"
        }
      ],
      "name": "setVAIFailCalculateSeizeTokens",
      "outputs": [],
      "payable": false,
      "stateMutability": "nonpayable",
      "type": "function"
    },
    {
      "constant": false,
      "inputs": [
        {
          "internalType": "address",
          "name": "_vToken",
          "type": "address"
        },
        {
          "internalType": "address",
          "name": "_src",
          "type": "address"
        },
        {
          "internalType": "address",
          "name": "_dst",
          "type": "address"
        },
        {
          "internalType": "uint256",
          "name": "_transferTokens",
          "type": "uint256"
        }
      ],
      "name": "transferAllowed",
      "outputs": [
        {
          "internalType": "uint256",
          "name": "",
          "type": "uint256"
        }
      ],
      "payable": false,
      "stateMutability": "nonpayable",
      "type": "function"
    },
    {
      "constant": false,
      "inputs": [
        {
          "internalType": "address",
          "name": "_vToken",
          "type": "address"
        },
        {
          "internalType": "address",
          "name": "_src",
          "type": "address"
        },
        {
          "internalType": "address",
          "name": "_dst",
          "type": "address"
        },
        {
          "internalType": "uint256",
          "name": "_transferTokens",
          "type": "uint256"
        }
      ],
      "name": "transferVerify",
      "outputs": [],
      "payable": false,
      "stateMutability": "nonpayable",
      "type": "function"
    },
    {
      "constant": true,
      "inputs": [],
      "name": "treasuryAddress",
      "outputs": [
        {
          "internalType": "address",
          "name": "",
          "type": "address"
        }
      ],
      "payable": false,
      "stateMutability": "view",
      "type": "function"
    },
    {
      "constant": true,
      "inputs": [],
      "name": "treasuryGuardian",
      "outputs": [
        {
          "internalType": "address",
          "name": "",
          "type": "address"
        }
      ],
      "payable": false,
      "stateMutability": "view",
      "type": "function"
    },
    {
      "constant": true,
      "inputs": [],
      "name": "treasuryPercent",
      "outputs": [
        {
          "internalType": "uint256",
          "name": "",
          "type": "uint256"
        }
      ],
      "payable": false,
      "stateMutability": "view",
      "type": "function"
    },
    {
      "constant": true,
      "inputs": [],
      "name": "vaiMintRate",
      "outputs": [
        {
          "internalType": "uint256",
          "name": "",
          "type": "uint256"
        }
      ],
      "payable": false,
      "stateMutability": "pure",
      "type": "function"
    },
    {
      "constant": true,
      "inputs": [
        {
          "internalType": "address",
          "name": "",
          "type": "address"
        }
      ],
      "name": "venusAccrued",
      "outputs": [
        {
          "internalType": "uint256",
          "name": "",
          "type": "uint256"
        }
      ],
      "payable": false,
      "stateMutability": "view",
      "type": "function"
    },
    {
      "constant": true,
      "inputs": [
        {
          "internalType": "address",
          "name": "",
          "type": "address"
        }
      ],
      "name": "venusBorrowState",
      "outputs": [
        {
          "internalType": "uint224",
          "name": "",
          "type": "uint224"
        },
        {
          "internalType": "uint32",
          "name": "",
          "type": "uint32"
        }
      ],
      "payable": false,
      "stateMutability": "view",
      "type": "function"
    },
    {
      "constant": true,
      "inputs": [
        {
          "internalType": "address",
          "name": "",
          "type": "address"
        },
        {
          "internalType": "address",
          "name": "",
          "type": "address"
        }
      ],
      "name": "venusBorrowerIndex",
      "outputs": [
        {
          "internalType": "uint256",
          "name": "",
          "type": "uint256"
        }
      ],
      "payable": false,
      "stateMutability": "view",
      "type": "function"
    },
    {
      "constant": true,
      "inputs": [],
      "name": "venusInitialIndex",
      "outputs": [
        {
          "internalType": "uint224",
          "name": "",
          "type": "uint224"
        }
      ],
      "payable": false,
      "stateMutability": "view",
      "type": "function"
    },
    {
      "constant": true,
      "inputs": [
        {
          "internalType": "address",
          "name": "",
          "type": "address"
        }
      ],
      "name": "venusSpeeds",
      "outputs": [
        {
          "internalType": "uint256",
          "name": "",
          "type": "uint256"
        }
      ],
      "payable": false,
      "stateMutability": "view",
      "type": "function"
    },
    {
      "constant": true,
      "inputs": [
        {
          "internalType": "address",
          "name": "",
          "type": "address"
        },
        {
          "internalType": "address",
          "name": "",
          "type": "address"
        }
      ],
      "name": "venusSupplierIndex",
      "outputs": [
        {
          "internalType": "uint256",
          "name": "",
          "type": "uint256"
        }
      ],
      "payable": false,
      "stateMutability": "view",
      "type": "function"
    },
    {
      "constant": true,
      "inputs": [
        {
          "internalType": "address",
          "name": "",
          "type": "address"
        }
      ],
      "name": "venusSupplyState",
      "outputs": [
        {
          "internalType": "uint224",
          "name": "",
          "type": "uint224"
        },
        {
          "internalType": "uint32",
          "name": "",
          "type": "uint32"
        }
      ],
      "payable": false,
      "stateMutability": "view",
      "type": "function"
    }
  ],
  "bytecode": "0x6080604052600080546d01000000000000000000000000006c010000000000000000000000006b0100000000000000000000006a0100000000000000000000690100000000000000000068010000000000000000670100000000000000660100000000000065010000000000640100000000630100000062010000610100600160ff199e8f16811761ff0019169190911762ff000019169190911763ff00000019169190911760ff60201b19169190911760ff60281b19169190911760ff60301b19169190911760ff60381b19169190911760ff60401b19169190911760ff60481b19169190911760ff60501b19169190911760ff60581b19169190911760ff60601b19169190911760ff60681b1916919091178355670f43fc2c04ee00009055600480549091169055600855600b60095534801561013d57600080fd5b506115f78061014d6000396000f3fe608060405234801561001057600080fd5b50600436106103cf5760003560e01c80639bb27d62116101ff578063c5b4db551161011a578063d43b2ea2116100ad578063ede4edd01161007c578063ede4edd014610e01578063fa1ae08514610e27578063fa529f7214610e46578063fd51a3ad14610e65576103cf565b8063d43b2ea214610d76578063da3d454c14610d95578063e37d4b7914610afb578063eabe7d9114610dcb576103cf565b8063ccb9d45e116100e9578063ccb9d45e14610cc6578063ce76dc9c14610ce5578063d02f735114610d11578063d2d107a914610d57576103cf565b8063c5b4db5514610c47578063c5f956af14610c6b578063c956bfe914610c73578063cbde1c8214610c90576103cf565b8063b2eafc3911610192578063bdcdc25811610161578063bdcdc25814610b5f578063bec04f7214610b9b578063c299823814610ba3578063c488847b14610c11576103cf565b8063b2eafc3914610ad4578063b3942cbd14610adc578063b8324c7c14610afb578063bb85745014610b39576103cf565b8063a78dc775116101ce578063a78dc775146109eb578063abfceffc14610a30578063adcd5fb914610aa6578063b0772d0b14610acc576103cf565b80639bb27d62146109865780639c530f121461098e5780639e646053146109ad578063a1a17a34146109cc576103cf565b80634ada90af116102ef5780635ec88c7911610282578063710915801161025157806371091580146109045780637dc0d1d0146109215780638a7dc165146104785780638e8f294b14610945576103cf565b80635ec88c79146107f85780635fc7e71e1461083c5780636a56947e146108825780636d35bf91146108be576103cf565b806351dff989116102be57806351dff9891461074a57806356cd78231461078657806357217544146107a55780635c778605146107c2576103cf565b80634ada90af1461062f5780634c5c9d8c146106375780634ef4c3e11461065657806351a485e41461068c576103cf565b80632bc7e29e1161036757806341c728b91161033657806341c728b914610580578063425fad58146105bc57806344b53b5b146105c457806347ef3b3b146105e3576103cf565b80632bc7e29e1461051c578063320819f514610542578063373371aa1461056157806341a18d2c1461040a576103cf565b806319a90097116103a357806319a90097146104595780631abcaa77146104785780631ededc911461049e57806324008a62146104e0576103cf565b80627e3dd2146103d457806304ef9d58146103f057806308e0225c1461040a57806312ad88c214610438575b600080fd5b6103dc610e91565b604080519115158252519081900360200190f35b6103f8610e96565b60408051918252519081900360200190f35b6103f86004803603604081101561042057600080fd5b506001600160a01b0381358116916020013516610e9c565b6104576004803603602081101561044e57600080fd5b50351515610ea3565b005b6104576004803603602081101561046f57600080fd5b50351515610ec5565b6103f86004803603602081101561048e57600080fd5b50356001600160a01b0316610e9c565b610457600480360360a08110156104b457600080fd5b506001600160a01b03813581169160208101358216916040820135169060608101359060800135610ed8565b6103f8600480360360808110156104f657600080fd5b506001600160a01b03813581169160208101358216916040820135169060600135610f27565b6103f86004803603602081101561053257600080fd5b50356001600160a01b0316610f4e565b6104576004803603602081101561055857600080fd5b50351515610f60565b6104576004803603602081101561057757600080fd5b50351515610f83565b6104576004803603608081101561059657600080fd5b506001600160a01b03813581169160208101359091169060408101359060600135610f9d565b6103dc611001565b610457600480360360208110156105da57600080fd5b5035151561100a565b610457600480360360c08110156105f957600080fd5b506001600160a01b0381358116916020810135821691604082013581169160608101359091169060808101359060a00135611028565b6103f8611078565b6104576004803603602081101561064d57600080fd5b5035151561107e565b6103f86004803603606081101561066c57600080fd5b506001600160a01b03813581169160208101359091169060400135611091565b610457600480360360408110156106a257600080fd5b810190602081018135600160201b8111156106bc57600080fd5b8201836020820111156106ce57600080fd5b803590602001918460208302840111600160201b831117156106ef57600080fd5b919390929091602081019035600160201b81111561070c57600080fd5b82018360208201111561071e57600080fd5b803590602001918460208302840111600160201b8311171561073f57600080fd5b509092509050610ffb565b6104576004803603608081101561076057600080fd5b506001600160a01b038135811691602081013590911690604081013590606001356110b0565b6104576004803603602081101561079c57600080fd5b5035151561110e565b610457600480360360208110156107bb57600080fd5b503561112d565b610457600480360360608110156107d857600080fd5b506001600160a01b03813581169160208101359091169060400135611132565b61081e6004803603602081101561080e57600080fd5b50356001600160a01b0316611195565b60408051938452602084019290925282820152519081900360600190f35b6103f8600480360360a081101561085257600080fd5b506001600160a01b038135811691602081013582169160408201358116916060810135909116906080013561119f565b6104576004803603608081101561089857600080fd5b506001600160a01b038135811691602081013582169160408201351690606001356111ff565b610457600480360360a08110156108d457600080fd5b506001600160a01b038135811691602081013582169160408201358116916060810135909116906080013561125d565b6104576004803603602081101561091a57600080fd5b50356112bb565b610929610e9c565b604080516001600160a01b039092168252519081900360200190f35b61096b6004803603602081101561095b57600080fd5b50356001600160a01b03166112c0565b60408051921515835260208301919091528051918290030190f35b6109296112c8565b610457600480360360208110156109a457600080fd5b503515156112d7565b610457600480360360208110156109c357600080fd5b503515156112f9565b610457600480360360208110156109e257600080fd5b5035151561130c565b610a1760048036036040811015610a0157600080fd5b506001600160a01b038135169060200135611330565b6040805192835260208301919091528051918290030190f35b610a5660048036036020811015610a4657600080fd5b50356001600160a01b031661135b565b60408051602080825283518183015283519192839290830191858101910280838360005b83811015610a92578181015183820152602001610a7a565b505050509050019250505060405180910390f35b61045760048036036020811015610abc57600080fd5b50356001600160a01b03166103cf565b610a5661135b565b610929611362565b61045760048036036020811015610af257600080fd5b50351515611371565b610b116004803603602081101561095b57600080fd5b604080516001600160e01b03909316835263ffffffff90911660208301528051918290030190f35b61045760048036036020811015610b4f57600080fd5b50356001600160a01b0316611395565b6103f860048036036080811015610b7557600080fd5b506001600160a01b038135811691602081013582169160408201351690606001356113b7565b6103f86113d4565b610a5660048036036020811015610bb957600080fd5b810190602081018135600160201b811115610bd357600080fd5b820183602082011115610be557600080fd5b803590602001918460208302840111600160201b83111715610c0657600080fd5b5090925090506113e0565b610a1760048036036060811015610c2757600080fd5b506001600160a01b038135811691602081013590911690604001356113e8565b610c4f610e9c565b604080516001600160e01b039092168252519081900360200190f35b610929611414565b61045760048036036020811015610c8957600080fd5b5035611423565b61045760048036036060811015610ca657600080fd5b506001600160a01b03813581169160208101359091169060400135611428565b61045760048036036020811015610cdc57600080fd5b5035151561145d565b6103f860048036036040811015610cfb57600080fd5b506001600160a01b03813516906020013561147b565b6103f8600480360360a0811015610d2757600080fd5b506001600160a01b038135811691602081013582169160408201358116916060810135909116906080013561149c565b61045760048036036020811015610d6d57600080fd5b503515156114b8565b61045760048036036020811015610d8c57600080fd5b503515156114d4565b6103f860048036036060811015610dab57600080fd5b506001600160a01b038135811691602081013590911690604001356114f2565b6103f860048036036060811015610de157600080fd5b506001600160a01b0381358116916020810135909116906040013561150b565b6103f860048036036020811015610e1757600080fd5b50356001600160a01b0316611523565b61045760048036036020811015610e3d57600080fd5b5035151561152a565b61045760048036036020811015610e5c57600080fd5b50351515611548565b6103f860048036036040811015610e7b57600080fd5b506001600160a01b038135169060200135611566565b600181565b600c5481565b6000806000fd5b60008054911515650100000000000265ff000000000019909216919091179055565b6006805460ff1916911515919091179055565b600054600160501b900460ff16610f205760405162461bcd60e51b815260040180806020018281038252602681526020018061159d6026913960400191505060405180910390fd5b5050505050565b600080546301000000900460ff16610f4157600954610f45565b6008545b95945050505050565b60056020526000908152604090205481565b60008054911515600160401b0268ff000000000000000019909216919091179055565b600080549115156101000261ff0019909216919091179055565b600054600160381b900460ff16610ffb576040805162461bcd60e51b815260206004820152601860248201527f6d696e745665726966792072656a6563746564206d696e740000000000000000604482015290519081900360640190fd5b50505050565b60045460ff1681565b60008054911515600160581b0260ff60581b19909216919091179055565b600054600160581b900460ff166110705760405162461bcd60e51b815260040180806020018281038252602e81526020018061156f602e913960400191505060405180910390fd5b505050505050565b60015481565b6002805460ff1916911515919091179055565b6000805460ff166110a4576009546110a8565b6008545b949350505050565b600054600160401b900460ff16610ffb576040805162461bcd60e51b815260206004820152601c60248201527f72656465656d5665726966792072656a65637465642072656465656d00000000604482015290519081900360640190fd5b60008054911515600160201b0264ff0000000019909216919091179055565b600355565b600054600160481b900460ff16611190576040805162461bcd60e51b815260206004820152601c60248201527f626f72726f775665726966792072656a656374656420626f72726f7700000000604482015290519081900360640190fd5b505050565b6000806000806000fd5b600d546000906001600160a01b0316158015906111ca5750600d546001600160a01b03858116911614155b156111d85750600954610f45565b600054600160201b900460ff166111f1576009546111f5565b6008545b9695505050505050565b600054600160681b900460ff16610ffb576040805162461bcd60e51b815260206004820181905260248201527f7472616e736665725665726966792072656a6563746564207472616e73666572604482015290519081900360640190fd5b600054600160601b900460ff16610f20576040805162461bcd60e51b815260206004820152601a60248201527f7365697a655665726966792072656a6563746564207365697a65000000000000604482015290519081900360640190fd5b600155565b600080600080fd5b600d546001600160a01b031681565b60008054911515600160381b0267ff0000000000000019909216919091179055565b6000805460ff1916911515919091179055565b60008054911515600160481b0269ff00000000000000000019909216919091179055565b600654600090819060ff1661134a57600854600754611350565b60095460005b915091509250929050565b6060600080fd5b600a546001600160a01b031681565b6000805491151566010000000000000266ff00000000000019909216919091179055565b600d80546001600160a01b0319166001600160a01b0392909216919091179055565b600080546601000000000000900460ff16610f4157600954610f45565b670de0b6b3a764000090565b606092915050565b600254600090819060ff1661140257600854600354611408565b60095460005b91509150935093915050565b600b546001600160a01b031681565b600755565b600a80546001600160a01b039485166001600160a01b031991821617909155600b805493909416921691909117909155600c55565b60008054911515600160681b0260ff60681b19909216919091179055565b6001600160a01b039190911660009081526005602052604090205560085490565b6000805465010000000000900460ff166111f1576009546111f5565b60008054911515620100000262ff000019909216919091179055565b60008054911515600160601b0260ff60601b19909216919091179055565b6000805462010000900460ff166110a4576009546110a8565b60008054610100900460ff166110a4576009546110a8565b5060085490565b60008054911515600160501b0260ff60501b19909216919091179055565b6000805491151563010000000263ff00000019909216919091179055565b50506008549056fe6c6971756964617465426f72726f775665726966792072656a6563746564206c6971756964617465426f72726f777265706179426f72726f775665726966792072656a6563746564207265706179426f72726f77a265627a7a7231582006c1f2ab6e005b0d4becb319b992665df5fee666f56637c95db186fb810663f964736f6c63430005100032",
  "linkReferences": {},
  "deployedLinkReferences": {}
}