{
  "_format": "hh-sol-artifact-1",
  "contractName": "ComptrollerScenarioG1",
  "sourceName": "contracts/test/ComptrollerScenarioG1.sol",
  "abi": [
    {
      "inputs": [],
      "payable": false,
      "stateMutability": "nonpayable",
      "type": "constructor"
    },
    {
      "anonymous": false,
      "inputs": [
        {
          "indexed": false,
          "internalType": "string",
          "name": "action",
          "type": "string"
        },
        {
          "indexed": false,
          "internalType": "bool",
          "name": "pauseState",
          "type": "bool"
        }
      ],
      "name": "ActionPaused",
      "type": "event"
    },
    {
      "anonymous": false,
      "inputs": [
        {
          "indexed": false,
          "internalType": "contract VToken",
          "name": "vToken",
          "type": "address"
        },
        {
          "indexed": false,
          "internalType": "string",
          "name": "action",
          "type": "string"
        },
        {
          "indexed": false,
          "internalType": "bool",
          "name": "pauseState",
          "type": "bool"
        }
      ],
      "name": "ActionPaused",
      "type": "event"
    },
    {
      "anonymous": false,
      "inputs": [
        {
          "indexed": false,
          "internalType": "bool",
          "name": "state",
          "type": "bool"
        }
      ],
      "name": "ActionProtocolPaused",
      "type": "event"
    },
    {
      "anonymous": false,
      "inputs": [
        {
          "indexed": true,
          "internalType": "contract VToken",
          "name": "vToken",
          "type": "address"
        },
        {
          "indexed": true,
          "internalType": "address",
          "name": "borrower",
          "type": "address"
        },
        {
          "indexed": false,
          "internalType": "uint256",
          "name": "venusDelta",
          "type": "uint256"
        },
        {
          "indexed": false,
          "internalType": "uint256",
          "name": "venusBorrowIndex",
          "type": "uint256"
        }
      ],
      "name": "DistributedBorrowerVenus",
      "type": "event"
    },
    {
      "anonymous": false,
      "inputs": [
        {
          "indexed": true,
          "internalType": "contract VToken",
          "name": "vToken",
          "type": "address"
        },
        {
          "indexed": true,
          "internalType": "address",
          "name": "supplier",
          "type": "address"
        },
        {
          "indexed": false,
          "internalType": "uint256",
          "name": "venusDelta",
          "type": "uint256"
        },
        {
          "indexed": false,
          "internalType": "uint256",
          "name": "venusSupplyIndex",
          "type": "uint256"
        }
      ],
      "name": "DistributedSupplierVenus",
      "type": "event"
    },
    {
      "anonymous": false,
      "inputs": [
        {
          "indexed": true,
          "internalType": "address",
          "name": "vaiMinter",
          "type": "address"
        },
        {
          "indexed": false,
          "internalType": "uint256",
          "name": "venusDelta",
          "type": "uint256"
        },
        {
          "indexed": false,
          "internalType": "uint256",
          "name": "venusVAIMintIndex",
          "type": "uint256"
        }
      ],
      "name": "DistributedVAIMinterVenus",
      "type": "event"
    },
    {
      "anonymous": false,
      "inputs": [
        {
          "indexed": false,
          "internalType": "uint256",
          "name": "error",
          "type": "uint256"
        },
        {
          "indexed": false,
          "internalType": "uint256",
          "name": "info",
          "type": "uint256"
        },
        {
          "indexed": false,
          "internalType": "uint256",
          "name": "detail",
          "type": "uint256"
        }
      ],
      "name": "Failure",
      "type": "event"
    },
    {
      "anonymous": false,
      "inputs": [
        {
          "indexed": false,
          "internalType": "contract VToken",
          "name": "vToken",
          "type": "address"
        },
        {
          "indexed": false,
          "internalType": "address",
          "name": "account",
          "type": "address"
        }
      ],
      "name": "MarketEntered",
      "type": "event"
    },
    {
      "anonymous": false,
      "inputs": [
        {
          "indexed": false,
          "internalType": "contract VToken",
          "name": "vToken",
          "type": "address"
        },
        {
          "indexed": false,
          "internalType": "address",
          "name": "account",
          "type": "address"
        }
      ],
      "name": "MarketExited",
      "type": "event"
    },
    {
      "anonymous": false,
      "inputs": [
        {
          "indexed": false,
          "internalType": "contract VToken",
          "name": "vToken",
          "type": "address"
        }
      ],
      "name": "MarketListed",
      "type": "event"
    },
    {
      "anonymous": false,
      "inputs": [
        {
          "indexed": false,
          "internalType": "contract VToken",
          "name": "vToken",
          "type": "address"
        },
        {
          "indexed": false,
          "internalType": "bool",
          "name": "isVenus",
          "type": "bool"
        }
      ],
      "name": "MarketVenus",
      "type": "event"
    },
    {
      "anonymous": false,
      "inputs": [
        {
          "indexed": false,
          "internalType": "uint256",
          "name": "oldCloseFactorMantissa",
          "type": "uint256"
        },
        {
          "indexed": false,
          "internalType": "uint256",
          "name": "newCloseFactorMantissa",
          "type": "uint256"
        }
      ],
      "name": "NewCloseFactor",
      "type": "event"
    },
    {
      "anonymous": false,
      "inputs": [
        {
          "indexed": false,
          "internalType": "contract VToken",
          "name": "vToken",
          "type": "address"
        },
        {
          "indexed": false,
          "internalType": "uint256",
          "name": "oldCollateralFactorMantissa",
          "type": "uint256"
        },
        {
          "indexed": false,
          "internalType": "uint256",
          "name": "newCollateralFactorMantissa",
          "type": "uint256"
        }
      ],
      "name": "NewCollateralFactor",
      "type": "event"
    },
    {
      "anonymous": false,
      "inputs": [
        {
          "indexed": false,
          "internalType": "uint256",
          "name": "oldLiquidationIncentiveMantissa",
          "type": "uint256"
        },
        {
          "indexed": false,
          "internalType": "uint256",
          "name": "newLiquidationIncentiveMantissa",
          "type": "uint256"
        }
      ],
      "name": "NewLiquidationIncentive",
      "type": "event"
    },
    {
      "anonymous": false,
      "inputs": [
        {
          "indexed": false,
          "internalType": "uint256",
          "name": "oldMaxAssets",
          "type": "uint256"
        },
        {
          "indexed": false,
          "internalType": "uint256",
          "name": "newMaxAssets",
          "type": "uint256"
        }
      ],
      "name": "NewMaxAssets",
      "type": "event"
    },
    {
      "anonymous": false,
      "inputs": [
        {
          "indexed": false,
          "internalType": "address",
          "name": "oldPauseGuardian",
          "type": "address"
        },
        {
          "indexed": false,
          "internalType": "address",
          "name": "newPauseGuardian",
          "type": "address"
        }
      ],
      "name": "NewPauseGuardian",
      "type": "event"
    },
    {
      "anonymous": false,
      "inputs": [
        {
          "indexed": false,
          "internalType": "contract PriceOracle",
          "name": "oldPriceOracle",
          "type": "address"
        },
        {
          "indexed": false,
          "internalType": "contract PriceOracle",
          "name": "newPriceOracle",
          "type": "address"
        }
      ],
      "name": "NewPriceOracle",
      "type": "event"
    },
    {
      "anonymous": false,
      "inputs": [
        {
          "indexed": false,
          "internalType": "contract VAIControllerInterface",
          "name": "oldVAIController",
          "type": "address"
        },
        {
          "indexed": false,
          "internalType": "contract VAIControllerInterface",
          "name": "newVAIController",
          "type": "address"
        }
      ],
      "name": "NewVAIController",
      "type": "event"
    },
    {
      "anonymous": false,
      "inputs": [
        {
          "indexed": false,
          "internalType": "uint256",
          "name": "oldVAIMintRate",
          "type": "uint256"
        },
        {
          "indexed": false,
          "internalType": "uint256",
          "name": "newVAIMintRate",
          "type": "uint256"
        }
      ],
      "name": "NewVAIMintRate",
      "type": "event"
    },
    {
      "anonymous": false,
      "inputs": [
        {
          "indexed": false,
          "internalType": "uint256",
          "name": "oldVenusRate",
          "type": "uint256"
        },
        {
          "indexed": false,
          "internalType": "uint256",
          "name": "newVenusRate",
          "type": "uint256"
        }
      ],
      "name": "NewVenusRate",
      "type": "event"
    },
    {
      "anonymous": false,
      "inputs": [
        {
          "indexed": true,
          "internalType": "contract VToken",
          "name": "vToken",
          "type": "address"
        },
        {
          "indexed": false,
          "internalType": "uint256",
          "name": "newSpeed",
          "type": "uint256"
        }
      ],
      "name": "VenusSpeedUpdated",
      "type": "event"
    },
    {
      "constant": false,
      "inputs": [
        {
          "internalType": "address[]",
          "name": "vTokens",
          "type": "address[]"
        }
      ],
      "name": "_addVenusMarkets",
      "outputs": [],
      "payable": false,
      "stateMutability": "nonpayable",
      "type": "function"
    },
    {
      "constant": false,
      "inputs": [
        {
          "internalType": "contract Unitroller",
          "name": "unitroller",
          "type": "address"
        }
      ],
      "name": "_become",
      "outputs": [],
      "payable": false,
      "stateMutability": "nonpayable",
      "type": "function"
    },
    {
      "constant": false,
      "inputs": [
        {
          "internalType": "address",
          "name": "vToken",
          "type": "address"
        }
      ],
      "name": "_dropVenusMarket",
      "outputs": [],
      "payable": false,
      "stateMutability": "nonpayable",
      "type": "function"
    },
    {
      "constant": false,
      "inputs": [
        {
          "internalType": "uint256",
          "name": "blockNumber",
          "type": "uint256"
        }
      ],
      "name": "_initializeVenusVAIState",
      "outputs": [],
      "payable": false,
      "stateMutability": "nonpayable",
      "type": "function"
    },
    {
      "constant": false,
      "inputs": [
        {
          "internalType": "contract VToken",
          "name": "vToken",
          "type": "address"
        },
        {
          "internalType": "bool",
          "name": "state",
          "type": "bool"
        }
      ],
      "name": "_setBorrowPaused",
      "outputs": [
        {
          "internalType": "bool",
          "name": "",
          "type": "bool"
        }
      ],
      "payable": false,
      "stateMutability": "nonpayable",
      "type": "function"
    },
    {
      "constant": false,
      "inputs": [
        {
          "internalType": "uint256",
          "name": "newCloseFactorMantissa",
          "type": "uint256"
        }
      ],
      "name": "_setCloseFactor",
      "outputs": [
        {
          "internalType": "uint256",
          "name": "",
          "type": "uint256"
        }
      ],
      "payable": false,
      "stateMutability": "nonpayable",
      "type": "function"
    },
    {
      "constant": false,
      "inputs": [
        {
          "internalType": "contract VToken",
          "name": "vToken",
          "type": "address"
        },
        {
          "internalType": "uint256",
          "name": "newCollateralFactorMantissa",
          "type": "uint256"
        }
      ],
      "name": "_setCollateralFactor",
      "outputs": [
        {
          "internalType": "uint256",
          "name": "",
          "type": "uint256"
        }
      ],
      "payable": false,
      "stateMutability": "nonpayable",
      "type": "function"
    },
    {
      "constant": false,
      "inputs": [
        {
          "internalType": "uint256",
          "name": "newLiquidationIncentiveMantissa",
          "type": "uint256"
        }
      ],
      "name": "_setLiquidationIncentive",
      "outputs": [
        {
          "internalType": "uint256",
          "name": "",
          "type": "uint256"
        }
      ],
      "payable": false,
      "stateMutability": "nonpayable",
      "type": "function"
    },
    {
      "constant": false,
      "inputs": [
        {
          "internalType": "contract VToken[]",
          "name": "vTokens",
          "type": "address[]"
        },
        {
          "internalType": "uint256[]",
          "name": "newSupplyCaps",
          "type": "uint256[]"
        }
      ],
      "name": "_setMarketSupplyCaps",
      "outputs": [],
      "payable": false,
      "stateMutability": "nonpayable",
      "type": "function"
    },
    {
      "constant": false,
      "inputs": [
        {
          "internalType": "uint256",
          "name": "newMaxAssets",
          "type": "uint256"
        }
      ],
      "name": "_setMaxAssets",
      "outputs": [
        {
          "internalType": "uint256",
          "name": "",
          "type": "uint256"
        }
      ],
      "payable": false,
      "stateMutability": "nonpayable",
      "type": "function"
    },
    {
      "constant": false,
      "inputs": [
        {
          "internalType": "contract VToken",
          "name": "vToken",
          "type": "address"
        },
        {
          "internalType": "bool",
          "name": "state",
          "type": "bool"
        }
      ],
      "name": "_setMintPaused",
      "outputs": [
        {
          "internalType": "bool",
          "name": "",
          "type": "bool"
        }
      ],
      "payable": false,
      "stateMutability": "nonpayable",
      "type": "function"
    },
    {
      "constant": false,
      "inputs": [
        {
          "internalType": "bool",
          "name": "state",
          "type": "bool"
        }
      ],
      "name": "_setMintVAIPaused",
      "outputs": [
        {
          "internalType": "bool",
          "name": "",
          "type": "bool"
        }
      ],
      "payable": false,
      "stateMutability": "nonpayable",
      "type": "function"
    },
    {
      "constant": false,
      "inputs": [
        {
          "internalType": "address",
          "name": "newPauseGuardian",
          "type": "address"
        }
      ],
      "name": "_setPauseGuardian",
      "outputs": [
        {
          "internalType": "uint256",
          "name": "",
          "type": "uint256"
        }
      ],
      "payable": false,
      "stateMutability": "nonpayable",
      "type": "function"
    },
    {
      "constant": false,
      "inputs": [
        {
          "internalType": "contract PriceOracle",
          "name": "newOracle",
          "type": "address"
        }
      ],
      "name": "_setPriceOracle",
      "outputs": [
        {
          "internalType": "uint256",
          "name": "",
          "type": "uint256"
        }
      ],
      "payable": false,
      "stateMutability": "nonpayable",
      "type": "function"
    },
    {
      "constant": false,
      "inputs": [
        {
          "internalType": "bool",
          "name": "state",
          "type": "bool"
        }
      ],
      "name": "_setProtocolPaused",
      "outputs": [
        {
          "internalType": "bool",
          "name": "",
          "type": "bool"
        }
      ],
      "payable": false,
      "stateMutability": "nonpayable",
      "type": "function"
    },
    {
      "constant": false,
      "inputs": [
        {
          "internalType": "bool",
          "name": "state",
          "type": "bool"
        }
      ],
      "name": "_setRepayVAIPaused",
      "outputs": [
        {
          "internalType": "bool",
          "name": "",
          "type": "bool"
        }
      ],
      "payable": false,
      "stateMutability": "nonpayable",
      "type": "function"
    },
    {
      "constant": false,
      "inputs": [
        {
          "internalType": "bool",
          "name": "state",
          "type": "bool"
        }
      ],
      "name": "_setSeizePaused",
      "outputs": [
        {
          "internalType": "bool",
          "name": "",
          "type": "bool"
        }
      ],
      "payable": false,
      "stateMutability": "nonpayable",
      "type": "function"
    },
    {
      "constant": false,
      "inputs": [
        {
          "internalType": "bool",
          "name": "state",
          "type": "bool"
        }
      ],
      "name": "_setTransferPaused",
      "outputs": [
        {
          "internalType": "bool",
          "name": "",
          "type": "bool"
        }
      ],
      "payable": false,
      "stateMutability": "nonpayable",
      "type": "function"
    },
    {
      "constant": false,
      "inputs": [
        {
          "internalType": "contract VAIControllerInterface",
          "name": "vaiController_",
          "type": "address"
        }
      ],
      "name": "_setVAIController",
      "outputs": [
        {
          "internalType": "uint256",
          "name": "",
          "type": "uint256"
        }
      ],
      "payable": false,
      "stateMutability": "nonpayable",
      "type": "function"
    },
    {
      "constant": false,
      "inputs": [
        {
          "internalType": "uint256",
          "name": "newVAIMintRate",
          "type": "uint256"
        }
      ],
      "name": "_setVAIMintRate",
      "outputs": [
        {
          "internalType": "uint256",
          "name": "",
          "type": "uint256"
        }
      ],
      "payable": false,
      "stateMutability": "nonpayable",
      "type": "function"
    },
    {
      "constant": false,
      "inputs": [
        {
          "internalType": "uint256",
          "name": "venusRate_",
          "type": "uint256"
        }
      ],
      "name": "_setVenusRate",
      "outputs": [],
      "payable": false,
      "stateMutability": "nonpayable",
      "type": "function"
    },
    {
      "constant": false,
      "inputs": [
        {
          "internalType": "contract VToken",
          "name": "vToken",
          "type": "address"
        }
      ],
      "name": "_supportMarket",
      "outputs": [
        {
          "internalType": "uint256",
          "name": "",
          "type": "uint256"
        }
      ],
      "payable": false,
      "stateMutability": "nonpayable",
      "type": "function"
    },
    {
      "constant": true,
      "inputs": [
        {
          "internalType": "address",
          "name": "",
          "type": "address"
        },
        {
          "internalType": "uint256",
          "name": "",
          "type": "uint256"
        }
      ],
      "name": "accountAssets",
      "outputs": [
        {
          "internalType": "contract VToken",
          "name": "",
          "type": "address"
        }
      ],
      "payable": false,
      "stateMutability": "view",
      "type": "function"
    },
    {
      "constant": true,
      "inputs": [],
      "name": "admin",
      "outputs": [
        {
          "internalType": "address",
          "name": "",
          "type": "address"
        }
      ],
      "payable": false,
      "stateMutability": "view",
      "type": "function"
    },
    {
      "constant": true,
      "inputs": [
        {
          "internalType": "uint256",
          "name": "",
          "type": "uint256"
        }
      ],
      "name": "allMarkets",
      "outputs": [
        {
          "internalType": "contract VToken",
          "name": "",
          "type": "address"
        }
      ],
      "payable": false,
      "stateMutability": "view",
      "type": "function"
    },
    {
      "constant": true,
      "inputs": [],
      "name": "blockNumber",
      "outputs": [
        {
          "internalType": "uint256",
          "name": "",
          "type": "uint256"
        }
      ],
      "payable": false,
      "stateMutability": "view",
      "type": "function"
    },
    {
      "constant": false,
      "inputs": [
        {
          "internalType": "address",
          "name": "vToken",
          "type": "address"
        },
        {
          "internalType": "address",
          "name": "borrower",
          "type": "address"
        },
        {
          "internalType": "uint256",
          "name": "borrowAmount",
          "type": "uint256"
        }
      ],
      "name": "borrowAllowed",
      "outputs": [
        {
          "internalType": "uint256",
          "name": "",
          "type": "uint256"
        }
      ],
      "payable": false,
      "stateMutability": "nonpayable",
      "type": "function"
    },
    {
      "constant": false,
      "inputs": [
        {
          "internalType": "address",
          "name": "vToken",
          "type": "address"
        },
        {
          "internalType": "address",
          "name": "borrower",
          "type": "address"
        },
        {
          "internalType": "uint256",
          "name": "borrowAmount",
          "type": "uint256"
        }
      ],
      "name": "borrowVerify",
      "outputs": [],
      "payable": false,
      "stateMutability": "nonpayable",
      "type": "function"
    },
    {
      "constant": true,
      "inputs": [
        {
          "internalType": "address",
          "name": "account",
          "type": "address"
        },
        {
          "internalType": "contract VToken",
          "name": "vToken",
          "type": "address"
        }
      ],
      "name": "checkMembership",
      "outputs": [
        {
          "internalType": "bool",
          "name": "",
          "type": "bool"
        }
      ],
      "payable": false,
      "stateMutability": "view",
      "type": "function"
    },
    {
      "constant": false,
      "inputs": [
        {
          "internalType": "address",
          "name": "holder",
          "type": "address"
        },
        {
          "internalType": "contract VToken[]",
          "name": "vTokens",
          "type": "address[]"
        }
      ],
      "name": "claimVenus",
      "outputs": [],
      "payable": false,
      "stateMutability": "nonpayable",
      "type": "function"
    },
    {
      "constant": false,
      "inputs": [
        {
          "internalType": "address",
          "name": "holder",
          "type": "address"
        }
      ],
      "name": "claimVenus",
      "outputs": [],
      "payable": false,
      "stateMutability": "nonpayable",
      "type": "function"
    },
    {
      "constant": false,
      "inputs": [
        {
          "internalType": "address[]",
          "name": "holders",
          "type": "address[]"
        },
        {
          "internalType": "contract VToken[]",
          "name": "vTokens",
          "type": "address[]"
        },
        {
          "internalType": "bool",
          "name": "borrowers",
          "type": "bool"
        },
        {
          "internalType": "bool",
          "name": "suppliers",
          "type": "bool"
        }
      ],
      "name": "claimVenus",
      "outputs": [],
      "payable": false,
      "stateMutability": "nonpayable",
      "type": "function"
    },
    {
      "constant": true,
      "inputs": [],
      "name": "closeFactorMantissa",
      "outputs": [
        {
          "internalType": "uint256",
          "name": "",
          "type": "uint256"
        }
      ],
      "payable": false,
      "stateMutability": "view",
      "type": "function"
    },
    {
      "constant": true,
      "inputs": [],
      "name": "comptrollerImplementation",
      "outputs": [
        {
          "internalType": "address",
          "name": "",
          "type": "address"
        }
      ],
      "payable": false,
      "stateMutability": "view",
      "type": "function"
    },
    {
      "constant": false,
      "inputs": [
        {
          "internalType": "address[]",
          "name": "vTokens",
          "type": "address[]"
        }
      ],
      "name": "enterMarkets",
      "outputs": [
        {
          "internalType": "uint256[]",
          "name": "",
          "type": "uint256[]"
        }
      ],
      "payable": false,
      "stateMutability": "nonpayable",
      "type": "function"
    },
    {
      "constant": false,
      "inputs": [
        {
          "internalType": "address",
          "name": "vTokenAddress",
          "type": "address"
        }
      ],
      "name": "exitMarket",
      "outputs": [
        {
          "internalType": "uint256",
          "name": "",
          "type": "uint256"
        }
      ],
      "payable": false,
      "stateMutability": "nonpayable",
      "type": "function"
    },
    {
      "constant": false,
      "inputs": [
        {
          "internalType": "uint256",
          "name": "blocks",
          "type": "uint256"
        }
      ],
      "name": "fastForward",
      "outputs": [
        {
          "internalType": "uint256",
          "name": "",
          "type": "uint256"
        }
      ],
      "payable": false,
      "stateMutability": "nonpayable",
      "type": "function"
    },
    {
      "constant": true,
      "inputs": [
        {
          "internalType": "address",
          "name": "account",
          "type": "address"
        }
      ],
      "name": "getAccountLiquidity",
      "outputs": [
        {
          "internalType": "uint256",
          "name": "",
          "type": "uint256"
        },
        {
          "internalType": "uint256",
          "name": "",
          "type": "uint256"
        },
        {
          "internalType": "uint256",
          "name": "",
          "type": "uint256"
        }
      ],
      "payable": false,
      "stateMutability": "view",
      "type": "function"
    },
    {
      "constant": true,
      "inputs": [],
      "name": "getAllMarkets",
      "outputs": [
        {
          "internalType": "contract VToken[]",
          "name": "",
          "type": "address[]"
        }
      ],
      "payable": false,
      "stateMutability": "view",
      "type": "function"
    },
    {
      "constant": true,
      "inputs": [
        {
          "internalType": "address",
          "name": "account",
          "type": "address"
        }
      ],
      "name": "getAssetsIn",
      "outputs": [
        {
          "internalType": "contract VToken[]",
          "name": "",
          "type": "address[]"
        }
      ],
      "payable": false,
      "stateMutability": "view",
      "type": "function"
    },
    {
      "constant": true,
      "inputs": [],
      "name": "getBlockNumber",
      "outputs": [
        {
          "internalType": "uint256",
          "name": "",
          "type": "uint256"
        }
      ],
      "payable": false,
      "stateMutability": "view",
      "type": "function"
    },
    {
      "constant": true,
      "inputs": [
        {
          "internalType": "address",
          "name": "account",
          "type": "address"
        },
        {
          "internalType": "address",
          "name": "vTokenModify",
          "type": "address"
        },
        {
          "internalType": "uint256",
          "name": "redeemTokens",
          "type": "uint256"
        },
        {
          "internalType": "uint256",
          "name": "borrowAmount",
          "type": "uint256"
        }
      ],
      "name": "getHypotheticalAccountLiquidity",
      "outputs": [
        {
          "internalType": "uint256",
          "name": "",
          "type": "uint256"
        },
        {
          "internalType": "uint256",
          "name": "",
          "type": "uint256"
        },
        {
          "internalType": "uint256",
          "name": "",
          "type": "uint256"
        }
      ],
      "payable": false,
      "stateMutability": "view",
      "type": "function"
    },
    {
      "constant": true,
      "inputs": [
        {
          "internalType": "address",
          "name": "minter",
          "type": "address"
        }
      ],
      "name": "getMintableVAI",
      "outputs": [
        {
          "internalType": "uint256",
          "name": "",
          "type": "uint256"
        },
        {
          "internalType": "uint256",
          "name": "",
          "type": "uint256"
        }
      ],
      "payable": false,
      "stateMutability": "view",
      "type": "function"
    },
    {
      "constant": true,
      "inputs": [],
      "name": "getVAIAddress",
      "outputs": [
        {
          "internalType": "address",
          "name": "",
          "type": "address"
        }
      ],
      "payable": false,
      "stateMutability": "view",
      "type": "function"
    },
    {
      "constant": true,
      "inputs": [],
      "name": "getVenusMarkets",
      "outputs": [
        {
          "internalType": "address[]",
          "name": "",
          "type": "address[]"
        }
      ],
      "payable": false,
      "stateMutability": "view",
      "type": "function"
    },
    {
      "constant": true,
      "inputs": [],
      "name": "getXVSAddress",
      "outputs": [
        {
          "internalType": "address",
          "name": "",
          "type": "address"
        }
      ],
      "payable": false,
      "stateMutability": "view",
      "type": "function"
    },
    {
      "constant": true,
      "inputs": [],
      "name": "isComptroller",
      "outputs": [
        {
          "internalType": "bool",
          "name": "",
          "type": "bool"
        }
      ],
      "payable": false,
      "stateMutability": "view",
      "type": "function"
    },
    {
      "constant": false,
      "inputs": [
        {
          "internalType": "address",
          "name": "vTokenBorrowed",
          "type": "address"
        },
        {
          "internalType": "address",
          "name": "vTokenCollateral",
          "type": "address"
        },
        {
          "internalType": "address",
          "name": "liquidator",
          "type": "address"
        },
        {
          "internalType": "address",
          "name": "borrower",
          "type": "address"
        },
        {
          "internalType": "uint256",
          "name": "repayAmount",
          "type": "uint256"
        }
      ],
      "name": "liquidateBorrowAllowed",
      "outputs": [
        {
          "internalType": "uint256",
          "name": "",
          "type": "uint256"
        }
      ],
      "payable": false,
      "stateMutability": "nonpayable",
      "type": "function"
    },
    {
      "constant": false,
      "inputs": [
        {
          "internalType": "address",
          "name": "vTokenBorrowed",
          "type": "address"
        },
        {
          "internalType": "address",
          "name": "vTokenCollateral",
          "type": "address"
        },
        {
          "internalType": "address",
          "name": "liquidator",
          "type": "address"
        },
        {
          "internalType": "address",
          "name": "borrower",
          "type": "address"
        },
        {
          "internalType": "uint256",
          "name": "actualRepayAmount",
          "type": "uint256"
        },
        {
          "internalType": "uint256",
          "name": "seizeTokens",
          "type": "uint256"
        }
      ],
      "name": "liquidateBorrowVerify",
      "outputs": [],
      "payable": false,
      "stateMutability": "nonpayable",
      "type": "function"
    },
    {
      "constant": true,
      "inputs": [
        {
          "internalType": "address",
          "name": "vTokenBorrowed",
          "type": "address"
        },
        {
          "internalType": "address",
          "name": "vTokenCollateral",
          "type": "address"
        },
        {
          "internalType": "uint256",
          "name": "actualRepayAmount",
          "type": "uint256"
        }
      ],
      "name": "liquidateCalculateSeizeTokens",
      "outputs": [
        {
          "internalType": "uint256",
          "name": "",
          "type": "uint256"
        },
        {
          "internalType": "uint256",
          "name": "",
          "type": "uint256"
        }
      ],
      "payable": false,
      "stateMutability": "view",
      "type": "function"
    },
    {
      "constant": true,
      "inputs": [],
      "name": "liquidationIncentiveMantissa",
      "outputs": [
        {
          "internalType": "uint256",
          "name": "",
          "type": "uint256"
        }
      ],
      "payable": false,
      "stateMutability": "view",
      "type": "function"
    },
    {
      "constant": true,
      "inputs": [
        {
          "internalType": "address",
          "name": "",
          "type": "address"
        }
      ],
      "name": "markets",
      "outputs": [
        {
          "internalType": "bool",
          "name": "isListed",
          "type": "bool"
        },
        {
          "internalType": "uint256",
          "name": "collateralFactorMantissa",
          "type": "uint256"
        },
        {
          "internalType": "bool",
          "name": "isVenus",
          "type": "bool"
        }
      ],
      "payable": false,
      "stateMutability": "view",
      "type": "function"
    },
    {
      "constant": true,
      "inputs": [],
      "name": "maxAssets",
      "outputs": [
        {
          "internalType": "uint256",
          "name": "",
          "type": "uint256"
        }
      ],
      "payable": false,
      "stateMutability": "view",
      "type": "function"
    },
    {
      "constant": true,
      "inputs": [
        {
          "internalType": "contract VToken",
          "name": "vToken",
          "type": "address"
        }
      ],
      "name": "membershipLength",
      "outputs": [
        {
          "internalType": "uint256",
          "name": "",
          "type": "uint256"
        }
      ],
      "payable": false,
      "stateMutability": "view",
      "type": "function"
    },
    {
      "constant": false,
      "inputs": [
        {
          "internalType": "address",
          "name": "vToken",
          "type": "address"
        },
        {
          "internalType": "address",
          "name": "minter",
          "type": "address"
        },
        {
          "internalType": "uint256",
          "name": "mintAmount",
          "type": "uint256"
        }
      ],
      "name": "mintAllowed",
      "outputs": [
        {
          "internalType": "uint256",
          "name": "",
          "type": "uint256"
        }
      ],
      "payable": false,
      "stateMutability": "nonpayable",
      "type": "function"
    },
    {
      "constant": false,
      "inputs": [
        {
          "internalType": "uint256",
          "name": "mintVAIAmount",
          "type": "uint256"
        }
      ],
      "name": "mintVAI",
      "outputs": [
        {
          "internalType": "uint256",
          "name": "",
          "type": "uint256"
        }
      ],
      "payable": false,
      "stateMutability": "nonpayable",
      "type": "function"
    },
    {
      "constant": true,
      "inputs": [],
      "name": "mintVAIGuardianPaused",
      "outputs": [
        {
          "internalType": "bool",
          "name": "",
          "type": "bool"
        }
      ],
      "payable": false,
      "stateMutability": "view",
      "type": "function"
    },
    {
      "constant": false,
      "inputs": [
        {
          "internalType": "address",
          "name": "vToken",
          "type": "address"
        },
        {
          "internalType": "address",
          "name": "minter",
          "type": "address"
        },
        {
          "internalType": "uint256",
          "name": "actualMintAmount",
          "type": "uint256"
        },
        {
          "internalType": "uint256",
          "name": "mintTokens",
          "type": "uint256"
        }
      ],
      "name": "mintVerify",
      "outputs": [],
      "payable": false,
      "stateMutability": "nonpayable",
      "type": "function"
    },
    {
      "constant": true,
      "inputs": [
        {
          "internalType": "address",
          "name": "owner",
          "type": "address"
        }
      ],
      "name": "mintedVAIOf",
      "outputs": [
        {
          "internalType": "uint256",
          "name": "",
          "type": "uint256"
        }
      ],
      "payable": false,
      "stateMutability": "view",
      "type": "function"
    },
    {
      "constant": true,
      "inputs": [
        {
          "internalType": "address",
          "name": "",
          "type": "address"
        }
      ],
      "name": "mintedVAIs",
      "outputs": [
        {
          "internalType": "uint256",
          "name": "",
          "type": "uint256"
        }
      ],
      "payable": false,
      "stateMutability": "view",
      "type": "function"
    },
    {
      "constant": true,
      "inputs": [],
      "name": "oracle",
      "outputs": [
        {
          "internalType": "contract PriceOracle",
          "name": "",
          "type": "address"
        }
      ],
      "payable": false,
      "stateMutability": "view",
      "type": "function"
    },
    {
      "constant": true,
      "inputs": [],
      "name": "pauseGuardian",
      "outputs": [
        {
          "internalType": "address",
          "name": "",
          "type": "address"
        }
      ],
      "payable": false,
      "stateMutability": "view",
      "type": "function"
    },
    {
      "constant": true,
      "inputs": [],
      "name": "pendingAdmin",
      "outputs": [
        {
          "internalType": "address",
          "name": "",
          "type": "address"
        }
      ],
      "payable": false,
      "stateMutability": "view",
      "type": "function"
    },
    {
      "constant": true,
      "inputs": [],
      "name": "pendingComptrollerImplementation",
      "outputs": [
        {
          "internalType": "address",
          "name": "",
          "type": "address"
        }
      ],
      "payable": false,
      "stateMutability": "view",
      "type": "function"
    },
    {
      "constant": true,
      "inputs": [],
      "name": "protocolPaused",
      "outputs": [
        {
          "internalType": "bool",
          "name": "",
          "type": "bool"
        }
      ],
      "payable": false,
      "stateMutability": "view",
      "type": "function"
    },
    {
      "constant": false,
      "inputs": [
        {
          "internalType": "address",
          "name": "vToken",
          "type": "address"
        },
        {
          "internalType": "address",
          "name": "redeemer",
          "type": "address"
        },
        {
          "internalType": "uint256",
          "name": "redeemTokens",
          "type": "uint256"
        }
      ],
      "name": "redeemAllowed",
      "outputs": [
        {
          "internalType": "uint256",
          "name": "",
          "type": "uint256"
        }
      ],
      "payable": false,
      "stateMutability": "nonpayable",
      "type": "function"
    },
    {
      "constant": false,
      "inputs": [
        {
          "internalType": "address",
          "name": "vToken",
          "type": "address"
        },
        {
          "internalType": "address",
          "name": "redeemer",
          "type": "address"
        },
        {
          "internalType": "uint256",
          "name": "redeemAmount",
          "type": "uint256"
        },
        {
          "internalType": "uint256",
          "name": "redeemTokens",
          "type": "uint256"
        }
      ],
      "name": "redeemVerify",
      "outputs": [],
      "payable": false,
      "stateMutability": "nonpayable",
      "type": "function"
    },
    {
      "constant": false,
      "inputs": [],
      "name": "refreshVenusSpeeds",
      "outputs": [],
      "payable": false,
      "stateMutability": "nonpayable",
      "type": "function"
    },
    {
      "constant": false,
      "inputs": [
        {
          "internalType": "address",
          "name": "vToken",
          "type": "address"
        },
        {
          "internalType": "address",
          "name": "payer",
          "type": "address"
        },
        {
          "internalType": "address",
          "name": "borrower",
          "type": "address"
        },
        {
          "internalType": "uint256",
          "name": "repayAmount",
          "type": "uint256"
        }
      ],
      "name": "repayBorrowAllowed",
      "outputs": [
        {
          "internalType": "uint256",
          "name": "",
          "type": "uint256"
        }
      ],
      "payable": false,
      "stateMutability": "nonpayable",
      "type": "function"
    },
    {
      "constant": false,
      "inputs": [
        {
          "internalType": "address",
          "name": "vToken",
          "type": "address"
        },
        {
          "internalType": "address",
          "name": "payer",
          "type": "address"
        },
        {
          "internalType": "address",
          "name": "borrower",
          "type": "address"
        },
        {
          "internalType": "uint256",
          "name": "actualRepayAmount",
          "type": "uint256"
        },
        {
          "internalType": "uint256",
          "name": "borrowerIndex",
          "type": "uint256"
        }
      ],
      "name": "repayBorrowVerify",
      "outputs": [],
      "payable": false,
      "stateMutability": "nonpayable",
      "type": "function"
    },
    {
      "constant": false,
      "inputs": [
        {
          "internalType": "uint256",
          "name": "repayVAIAmount",
          "type": "uint256"
        }
      ],
      "name": "repayVAI",
      "outputs": [
        {
          "internalType": "uint256",
          "name": "",
          "type": "uint256"
        }
      ],
      "payable": false,
      "stateMutability": "nonpayable",
      "type": "function"
    },
    {
      "constant": true,
      "inputs": [],
      "name": "repayVAIGuardianPaused",
      "outputs": [
        {
          "internalType": "bool",
          "name": "",
          "type": "bool"
        }
      ],
      "payable": false,
      "stateMutability": "view",
      "type": "function"
    },
    {
      "constant": false,
      "inputs": [
        {
          "internalType": "address",
          "name": "vTokenCollateral",
          "type": "address"
        },
        {
          "internalType": "address",
          "name": "vTokenBorrowed",
          "type": "address"
        },
        {
          "internalType": "address",
          "name": "liquidator",
          "type": "address"
        },
        {
          "internalType": "address",
          "name": "borrower",
          "type": "address"
        },
        {
          "internalType": "uint256",
          "name": "seizeTokens",
          "type": "uint256"
        }
      ],
      "name": "seizeAllowed",
      "outputs": [
        {
          "internalType": "uint256",
          "name": "",
          "type": "uint256"
        }
      ],
      "payable": false,
      "stateMutability": "nonpayable",
      "type": "function"
    },
    {
      "constant": false,
      "inputs": [
        {
          "internalType": "address",
          "name": "vTokenCollateral",
          "type": "address"
        },
        {
          "internalType": "address",
          "name": "vTokenBorrowed",
          "type": "address"
        },
        {
          "internalType": "address",
          "name": "liquidator",
          "type": "address"
        },
        {
          "internalType": "address",
          "name": "borrower",
          "type": "address"
        },
        {
          "internalType": "uint256",
          "name": "seizeTokens",
          "type": "uint256"
        }
      ],
      "name": "seizeVerify",
      "outputs": [],
      "payable": false,
      "stateMutability": "nonpayable",
      "type": "function"
    },
    {
      "constant": false,
      "inputs": [
        {
          "internalType": "uint256",
          "name": "number",
          "type": "uint256"
        }
      ],
      "name": "setBlockNumber",
      "outputs": [],
      "payable": false,
      "stateMutability": "nonpayable",
      "type": "function"
    },
    {
      "constant": false,
      "inputs": [
        {
          "internalType": "address",
          "name": "owner",
          "type": "address"
        },
        {
          "internalType": "uint256",
          "name": "amount",
          "type": "uint256"
        }
      ],
      "name": "setMintedVAIOf",
      "outputs": [
        {
          "internalType": "uint256",
          "name": "",
          "type": "uint256"
        }
      ],
      "payable": false,
      "stateMutability": "nonpayable",
      "type": "function"
    },
    {
      "constant": false,
      "inputs": [
        {
          "internalType": "address",
          "name": "vaiAddress_",
          "type": "address"
        }
      ],
      "name": "setVAIAddress",
      "outputs": [],
      "payable": false,
      "stateMutability": "nonpayable",
      "type": "function"
    },
    {
      "constant": false,
      "inputs": [
        {
          "internalType": "address",
          "name": "xvsAddress_",
          "type": "address"
        }
      ],
      "name": "setXVSAddress",
      "outputs": [],
      "payable": false,
      "stateMutability": "nonpayable",
      "type": "function"
    },
    {
      "constant": true,
      "inputs": [
        {
          "internalType": "address",
          "name": "",
          "type": "address"
        }
      ],
      "name": "supplyCaps",
      "outputs": [
        {
          "internalType": "uint256",
          "name": "",
          "type": "uint256"
        }
      ],
      "payable": false,
      "stateMutability": "view",
      "type": "function"
    },
    {
      "constant": false,
      "inputs": [
        {
          "internalType": "address",
          "name": "vToken",
          "type": "address"
        },
        {
          "internalType": "address",
          "name": "src",
          "type": "address"
        },
        {
          "internalType": "address",
          "name": "dst",
          "type": "address"
        },
        {
          "internalType": "uint256",
          "name": "transferTokens",
          "type": "uint256"
        }
      ],
      "name": "transferAllowed",
      "outputs": [
        {
          "internalType": "uint256",
          "name": "",
          "type": "uint256"
        }
      ],
      "payable": false,
      "stateMutability": "nonpayable",
      "type": "function"
    },
    {
      "constant": false,
      "inputs": [
        {
          "internalType": "address",
          "name": "vToken",
          "type": "address"
        },
        {
          "internalType": "address",
          "name": "src",
          "type": "address"
        },
        {
          "internalType": "address",
          "name": "dst",
          "type": "address"
        },
        {
          "internalType": "uint256",
          "name": "transferTokens",
          "type": "uint256"
        }
      ],
      "name": "transferVerify",
      "outputs": [],
      "payable": false,
      "stateMutability": "nonpayable",
      "type": "function"
    },
    {
      "constant": false,
      "inputs": [
        {
          "internalType": "contract VToken",
          "name": "vToken",
          "type": "address"
        }
      ],
      "name": "unlist",
      "outputs": [],
      "payable": false,
      "stateMutability": "nonpayable",
      "type": "function"
    },
    {
      "constant": true,
      "inputs": [],
      "name": "vaiAddress",
      "outputs": [
        {
          "internalType": "address",
          "name": "",
          "type": "address"
        }
      ],
      "payable": false,
      "stateMutability": "view",
      "type": "function"
    },
    {
      "constant": true,
      "inputs": [],
      "name": "vaiController",
      "outputs": [
        {
          "internalType": "contract VAIControllerInterface",
          "name": "",
          "type": "address"
        }
      ],
      "payable": false,
      "stateMutability": "view",
      "type": "function"
    },
    {
      "constant": true,
      "inputs": [],
      "name": "vaiMintRate",
      "outputs": [
        {
          "internalType": "uint256",
          "name": "",
          "type": "uint256"
        }
      ],
      "payable": false,
      "stateMutability": "view",
      "type": "function"
    },
    {
      "constant": true,
      "inputs": [
        {
          "internalType": "address",
          "name": "",
          "type": "address"
        }
      ],
      "name": "venusAccrued",
      "outputs": [
        {
          "internalType": "uint256",
          "name": "",
          "type": "uint256"
        }
      ],
      "payable": false,
      "stateMutability": "view",
      "type": "function"
    },
    {
      "constant": true,
      "inputs": [
        {
          "internalType": "address",
          "name": "",
          "type": "address"
        }
      ],
      "name": "venusBorrowState",
      "outputs": [
        {
          "internalType": "uint224",
          "name": "index",
          "type": "uint224"
        },
        {
          "internalType": "uint32",
          "name": "block",
          "type": "uint32"
        }
      ],
      "payable": false,
      "stateMutability": "view",
      "type": "function"
    },
    {
      "constant": true,
      "inputs": [
        {
          "internalType": "address",
          "name": "",
          "type": "address"
        },
        {
          "internalType": "address",
          "name": "",
          "type": "address"
        }
      ],
      "name": "venusBorrowerIndex",
      "outputs": [
        {
          "internalType": "uint256",
          "name": "",
          "type": "uint256"
        }
      ],
      "payable": false,
      "stateMutability": "view",
      "type": "function"
    },
    {
      "constant": true,
      "inputs": [],
      "name": "venusClaimThreshold",
      "outputs": [
        {
          "internalType": "uint256",
          "name": "",
          "type": "uint256"
        }
      ],
      "payable": false,
      "stateMutability": "view",
      "type": "function"
    },
    {
      "constant": true,
      "inputs": [],
      "name": "venusInitialIndex",
      "outputs": [
        {
          "internalType": "uint224",
          "name": "",
          "type": "uint224"
        }
      ],
      "payable": false,
      "stateMutability": "view",
      "type": "function"
    },
    {
      "constant": true,
      "inputs": [],
      "name": "venusRate",
      "outputs": [
        {
          "internalType": "uint256",
          "name": "",
          "type": "uint256"
        }
      ],
      "payable": false,
      "stateMutability": "view",
      "type": "function"
    },
    {
      "constant": true,
      "inputs": [
        {
          "internalType": "address",
          "name": "",
          "type": "address"
        }
      ],
      "name": "venusSpeeds",
      "outputs": [
        {
          "internalType": "uint256",
          "name": "",
          "type": "uint256"
        }
      ],
      "payable": false,
      "stateMutability": "view",
      "type": "function"
    },
    {
      "constant": true,
      "inputs": [
        {
          "internalType": "address",
          "name": "",
          "type": "address"
        },
        {
          "internalType": "address",
          "name": "",
          "type": "address"
        }
      ],
      "name": "venusSupplierIndex",
      "outputs": [
        {
          "internalType": "uint256",
          "name": "",
          "type": "uint256"
        }
      ],
      "payable": false,
      "stateMutability": "view",
      "type": "function"
    },
    {
      "constant": true,
      "inputs": [
        {
          "internalType": "address",
          "name": "",
          "type": "address"
        }
      ],
      "name": "venusSupplyState",
      "outputs": [
        {
          "internalType": "uint224",
          "name": "index",
          "type": "uint224"
        },
        {
          "internalType": "uint32",
          "name": "block",
          "type": "uint32"
        }
      ],
      "payable": false,
      "stateMutability": "view",
      "type": "function"
    },
    {
      "constant": true,
      "inputs": [],
      "name": "xvsAddress",
      "outputs": [
        {
          "internalType": "address",
          "name": "",
          "type": "address"
        }
      ],
      "payable": false,
      "stateMutability": "view",
      "type": "function"
    }
  ],
  "bytecode": "0x608060405234801561001057600080fd5b50600080546001600160a01b03191633179055616c6680620000336000396000f3fe608060405234801561001057600080fd5b50600436106105245760003560e01c806365af42e3116102af578063bb82aa5e11610172578063da3d454c116100d9578063e8b9342811610092578063e8b9342814611461578063eabe7d9114611480578063ede4edd0146114b6578063f851a440146114dc578063fccbe7f6146114e4578063fd51a3ad1461150157610524565b8063da3d454c1461139d578063dce15449146113d3578063dcfbc0c7146113ff578063e37d4b7914611407578063e4028eee1461142d578063e87554461461145957610524565b8063c488847b1161012b578063c488847b146111ac578063c5b4db55146111e2578063cbeb2b2814611206578063d02f73511461120e578063d09c54ba14611254578063d9226ced1461138057610524565b8063bb82aa5e146110c4578063bdcdc258146110cc578063bde3672d14611108578063bec04f721461112e578063bf32442d14611136578063c29982381461113e57610524565b8063919b22b411610216578063a8c3c850116101cf578063a8c3c85014610fe6578063abfceffc14611003578063adcd5fb914611029578063b0772d0b1461104f578063b2ded9c514611057578063b8324c7c1461107657610524565b8063919b22b414610f365780639254f5e514610f5c578063929fe9a114610f6457806394b2294b14610f925780639cfdd9e614610f9a578063a76b3fda14610fc057610524565b806386df31ee1161026857806386df31ee14610dca578063879c2e1d14610e7b5780638a7dc16514610e835780638d26d64414610ea95780638e8f294b14610ecf5780638ebf636414610f1757610524565b806365af42e314610d135780636a56947e14610d1b5780636d35bf9114610d575780636fe74a2114610d9d5780637655138314610dba5780637dc0d1d014610dc257610524565b806341a18d2c116103f75780634ef4c3e11161035e57806355ee1fe11161031757806355ee1fe114610c1d57806357e871e714610c435780635c77860514610c4b5780635ec88c7914610c815780635f5af1aa14610ca75780635fc7e71e14610ccd57610524565b80634ef4c3e114610a965780634fd42e1714610acc5780635035920a14610ae957806351a485e414610b0657806351dff98914610bc457806352d84d1e14610c0057610524565b806344927f49116103b057806344927f491461097f5780634712ee7d146109a557806347ef3b3b146109c25780634ada90af14610a0e5780634bca0d8c14610a165780634e79238f14610a3c57610524565b806341a18d2c1461088f57806341c728b9146108bd578063425fad58146108f957806342cbb15c1461090157806343b67e4c1461090957806343eb1b641461091157610524565b806324a3d6221161049b578063317b0b7711610454578063317b0b771461079d578063358ae036146107ba5780633592cd0e146107c25780633785d1d61461081a5780633bcf7ec1146108595780634088c73e1461088757610524565b806324a3d622146106f057806326782247146107145780632a6a60651461071c5780632bc7e29e1461073b5780632d70db78146107615780632ec041241461078057610524565b80631abcaa77116104ed5780631abcaa77146105e35780631cb8126e146106095780631d504dc61461062f5780631ededc911461065557806320fa42b11461069757806324008a62146106b457610524565b80627e3dd21461052957806302c3bcbb1461054557806308e0225c1461057d57806312a2adc7146105ab57806318c882a5146105b5575b600080fd5b61053161152d565b604080519115158252519081900360200190f35b61056b6004803603602081101561055b57600080fd5b50356001600160a01b0316611532565b60408051918252519081900360200190f35b61056b6004803603604081101561059357600080fd5b506001600160a01b0381358116916020013516611544565b6105b3611561565b005b610531600480360360408110156105cb57600080fd5b506001600160a01b03813516906020013515156115a9565b61056b600480360360208110156105f957600080fd5b50356001600160a01b0316611755565b6105b36004803603602081101561061f57600080fd5b50356001600160a01b0316611767565b6105b36004803603602081101561064557600080fd5b50356001600160a01b031661187c565b6105b3600480360360a081101561066b57600080fd5b506001600160a01b038135811691602081013582169160408201351690606081013590608001356119ea565b6105b3600480360360208110156106ad57600080fd5b50356119f1565b61056b600480360360808110156106ca57600080fd5b506001600160a01b03813581169160208101358216916040820135169060600135611a8c565b6106f8611ba4565b604080516001600160a01b039092168252519081900360200190f35b6106f8611bb3565b6105316004803603602081101561073257600080fd5b50351515611bc2565b61056b6004803603602081101561075157600080fd5b50356001600160a01b0316611c69565b6105316004803603602081101561077757600080fd5b50351515611c7b565b61056b6004803603602081101561079657600080fd5b5035611d99565b61056b600480360360208110156107b357600080fd5b5035611e0c565b6106f8611f16565b6107ca611f25565b60408051602080825283518183015283519192839290830191858101910280838360005b838110156108065781810151838201526020016107ee565b505050509050019250505060405180910390f35b6108406004803603602081101561083057600080fd5b50356001600160a01b031661206e565b6040805192835260208301919091528051918290030190f35b6105316004803603604081101561086f57600080fd5b506001600160a01b03813516906020013515156120f8565b6105316122a2565b61056b600480360360408110156108a557600080fd5b506001600160a01b03813581169160200135166122ab565b6105b3600480360360808110156108d357600080fd5b506001600160a01b038135811691602081013590911690604081013590606001356122c8565b6105316122ce565b61056b6122dd565b6106f86122e3565b6105b36004803603602081101561092757600080fd5b810190602081018135600160201b81111561094157600080fd5b82018360208201111561095357600080fd5b803590602001918460208302840111600160201b8311171561097457600080fd5b5090925090506122f2565b61056b6004803603602081101561099557600080fd5b50356001600160a01b0316612382565b61056b600480360360208110156109bb57600080fd5b503561239d565b6105b3600480360360c08110156109d857600080fd5b506001600160a01b0381358116916020810135821691604082013581169160608101359091169060808101359060a001356124d1565b61056b6124d9565b61056b60048036036020811015610a2c57600080fd5b50356001600160a01b03166124df565b610a7860048036036080811015610a5257600080fd5b506001600160a01b038135811691602081013590911690604081013590606001356124fa565b60408051938452602084019290925282820152519081900360600190f35b61056b60048036036060811015610aac57600080fd5b506001600160a01b03813581169160208101359091169060400135612534565b61056b60048036036020811015610ae257600080fd5b503561262b565b6105b360048036036020811015610aff57600080fd5b503561271f565b6105b360048036036040811015610b1c57600080fd5b810190602081018135600160201b811115610b3657600080fd5b820183602082011115610b4857600080fd5b803590602001918460208302840111600160201b83111715610b6957600080fd5b919390929091602081019035600160201b811115610b8657600080fd5b820183602082011115610b9857600080fd5b803590602001918460208302840111600160201b83111715610bb957600080fd5b5090925090506127fd565b6105b360048036036080811015610bda57600080fd5b506001600160a01b0381358116916020810135909116906040810135906060013561290f565b6106f860048036036020811015610c1657600080fd5b5035612960565b61056b60048036036020811015610c3357600080fd5b50356001600160a01b0316612987565b61056b612a0c565b6105b360048036036060811015610c6157600080fd5b506001600160a01b038135811691602081013590911690604001356127f8565b610a7860048036036020811015610c9757600080fd5b50356001600160a01b0316612a12565b61056b60048036036020811015610cbd57600080fd5b50356001600160a01b0316612a47565b61056b600480360360a0811015610ce357600080fd5b506001600160a01b0381358116916020810135821691604082013581169160608101359091169060800135612acc565b61056b612ca7565b6105b360048036036080811015610d3157600080fd5b506001600160a01b03813581169160208101358216916040820135169060600135612cb2565b6105b3600480360360a0811015610d6d57600080fd5b506001600160a01b03813581169160208101358216916040820135811691606081013590911690608001356119ea565b61056b60048036036020811015610db357600080fd5b5035612cb7565b610531612dbf565b6106f8612dcd565b6105b360048036036040811015610de057600080fd5b6001600160a01b038235169190810190604081016020820135600160201b811115610e0a57600080fd5b820183602082011115610e1c57600080fd5b803590602001918460208302840111600160201b83111715610e3d57600080fd5b919080806020026020016040519081016040528093929190818152602001838360200280828437600092019190915250929550612ddc945050505050565b61056b612e39565b61056b60048036036020811015610e9957600080fd5b50356001600160a01b0316612e3f565b6105b360048036036020811015610ebf57600080fd5b50356001600160a01b0316612e51565b610ef560048036036020811015610ee557600080fd5b50356001600160a01b0316612e73565b6040805193151584526020840192909252151582820152519081900360600190f35b61053160048036036020811015610f2d57600080fd5b50351515612e99565b6105b360048036036020811015610f4c57600080fd5b50356001600160a01b0316612fba565b6106f8612fdc565b61053160048036036040811015610f7a57600080fd5b506001600160a01b0381358116916020013516612feb565b61056b61301f565b61056b60048036036020811015610fb057600080fd5b50356001600160a01b0316613025565b61056b60048036036020811015610fd657600080fd5b50356001600160a01b03166130a9565b6105b360048036036020811015610ffc57600080fd5b5035613206565b6107ca6004803603602081101561101957600080fd5b50356001600160a01b031661320b565b6105b36004803603602081101561103f57600080fd5b50356001600160a01b0316613281565b6107ca6132e5565b6105316004803603602081101561106d57600080fd5b50351515613347565b61109c6004803603602081101561108c57600080fd5b50356001600160a01b0316613464565b604080516001600160e01b03909316835263ffffffff90911660208301528051918290030190f35b6106f861348e565b61056b600480360360808110156110e257600080fd5b506001600160a01b0381358116916020810135821691604082013516906060013561349d565b6105b36004803603602081101561111e57600080fd5b50356001600160a01b031661357d565b61056b61359e565b6106f86135a4565b6107ca6004803603602081101561115457600080fd5b810190602081018135600160201b81111561116e57600080fd5b82018360208201111561118057600080fd5b803590602001918460208302840111600160201b831117156111a157600080fd5b5090925090506135b3565b610840600480360360608110156111c257600080fd5b506001600160a01b03813581169160208101359091169060400135613649565b6111ea6138be565b604080516001600160e01b039092168252519081900360200190f35b6106f86138d1565b61056b600480360360a081101561122457600080fd5b506001600160a01b03813581169160208101358216916040820135811691606081013590911690608001356138e0565b6105b36004803603608081101561126a57600080fd5b810190602081018135600160201b81111561128457600080fd5b82018360208201111561129657600080fd5b803590602001918460208302840111600160201b831117156112b757600080fd5b9190808060200260200160405190810160405280939291908181526020018383602002808284376000920191909152509295949360208101935035915050600160201b81111561130657600080fd5b82018360208201111561131857600080fd5b803590602001918460208302840111600160201b8311171561133957600080fd5b919080806020026020016040519081016040528093929190818152602001838360200280828437600092019190915250929550505050803515159150602001351515613ae4565b61056b6004803603602081101561139657600080fd5b5035613cc3565b61056b600480360360608110156113b357600080fd5b506001600160a01b03813581169160208101359091169060400135613d2c565b6106f8600480360360408110156113e957600080fd5b506001600160a01b038135169060200135614035565b6106f861406a565b61109c6004803603602081101561141d57600080fd5b50356001600160a01b0316614079565b61056b6004803603604081101561144357600080fd5b506001600160a01b0381351690602001356140a3565b61056b614253565b6105316004803603602081101561147757600080fd5b50351515614259565b61056b6004803603606081101561149657600080fd5b506001600160a01b0381358116916020810135909116906040013561436d565b61056b600480360360208110156114cc57600080fd5b50356001600160a01b03166143f8565b6106f86146b4565b61056b600480360360208110156114fa57600080fd5b50356146c3565b61056b6004803603604081101561151757600080fd5b506001600160a01b0381351690602001356146d2565b600181565b601d6020526000908152604090205481565b601360209081526000928352604080842090915290825290205481565b33321461159f5760405162461bcd60e51b8152600401808060200182810382526022815260200180616bef6022913960400191505060405180910390fd5b6115a76147bd565b565b6001600160a01b038216600090815260096020526040812054839060ff16611615576040805162461bcd60e51b815260206004820152601a6024820152791d995b9d5cc81b585c9ad95d081a5cc81b9bdd081b1a5cdd195960321b604482015290519081900360640190fd5b600a5483906001600160a01b031633148061163a57506000546001600160a01b031633145b6116755760405162461bcd60e51b8152600401808060200182810382526021815260200180616c116021913960400191505060405180910390fd5b6000546001600160a01b031633148061169057506001811515145b6116cf576040805162461bcd60e51b81526020600482015260166024820152600080516020616b8f833981519152604482015290519081900360640190fd5b6001600160a01b0385166000818152600c6020908152604091829020805488151560ff199091168117909155825193845283830152606090830181905260069083015265426f72726f7760d01b6080830152517f71aec636243f9709bb0007ae15e9afb8150ab01716d75fd7573be5cc096e03b09181900360a00190a150919392505050565b600f6020526000908152604090205481565b6000546001600160a01b031633146117b7576040805162461bcd60e51b815260206004820152600e60248201526d37b7363c9030b236b4b71031b0b760911b604482015290519081900360640190fd5b6001600160a01b0381166000908152600960205260409020600381015460ff161515600114611820576040805162461bcd60e51b815260206004820152601060248201526f1b9bdd081d995b9d5cc81b585c9ad95d60821b604482015290519081900360640190fd5b60038101805460ff19169055604080516001600160a01b03841681526000602082015281517f5f4087bd98874c2fa3ea4474bc7c58b711b23fff45cd2f456e358b4b33ee9025929181900390910190a16118786147bd565b5050565b806001600160a01b031663f851a4406040518163ffffffff1660e01b815260040160206040518083038186803b1580156118b557600080fd5b505afa1580156118c9573d6000803e3d6000fd5b505050506040513d60208110156118df57600080fd5b50516001600160a01b0316331461193d576040805162461bcd60e51b815260206004820152601960248201527f6f6e6c7920756e6974726f6c6c65722061646d696e2063616e00000000000000604482015290519081900360640190fd5b806001600160a01b031663c1e803346040518163ffffffff1660e01b8152600401602060405180830381600087803b15801561197857600080fd5b505af115801561198c573d6000803e3d6000fd5b505050506040513d60208110156119a257600080fd5b5051156119e7576040805162461bcd60e51b815260206004820152600e60248201526d1b9bdd08185d5d1a1bdc9a5e995960921b604482015290519081900360640190fd5b50565b5050505050565b6000546001600160a01b03163314611a41576040805162461bcd60e51b815260206004820152600e60248201526d37b7363c9030b236b4b71031b0b760911b604482015290519081900360640190fd5b600e805490829055604080518281526020810184905281517f5c37806eedc7b8c869503478c1753afec9fe3a9847d6b4ff288080bebe15dd34929181900390910190a16118786147bd565b60185460009062010000900460ff1615611adb576040805162461bcd60e51b81526020600482015260126024820152600080516020616baf833981519152604482015290519081900360640190fd5b6001600160a01b03851660009081526009602052604090205460ff16611b0357506009611b9c565b611b0b616acf565b6040518060200160405280876001600160a01b031663aa5af0fd6040518163ffffffff1660e01b815260040160206040518083038186803b158015611b4f57600080fd5b505afa158015611b63573d6000803e3d6000fd5b505050506040513d6020811015611b7957600080fd5b505190529050611b898682614b39565b611b968685836000614dcd565b60009150505b949350505050565b600a546001600160a01b031681565b6001546001600160a01b031681565b600080546001600160a01b03163314611c13576040805162461bcd60e51b815260206004820152600e60248201526d37b7363c9030b236b4b71031b0b760911b604482015290519081900360640190fd5b6018805483151562010000810262ff0000199092169190911790915560408051918252517fd7500633dd3ddd74daa7af62f8c8404c7fe4a81da179998db851696bed004b389181900360200190a150805b919050565b60166020526000908152604090205481565b600a5460009082906001600160a01b0316331480611ca357506000546001600160a01b031633145b611cde5760405162461bcd60e51b8152600401808060200182810382526021815260200180616c116021913960400191505060405180910390fd5b6000546001600160a01b0316331480611cf957506001811515145b611d38576040805162461bcd60e51b81526020600482015260166024820152600080516020616b8f833981519152604482015290519081900360640190fd5b600a8054841515600160b81b810260ff60b81b1990921691909117909155604080516020810192909252808252600582820152645365697a6560d81b606083015251600080516020616bcf8339815191529181900360800190a15090919050565b600080546001600160a01b03163314611dbf57611db860016014614fb7565b9050611c64565b6017805490839055604080518281526020810185905281517f73747d68b346dce1e932bcd238282e7ac84c01569e1f8d0469c222fdc6e9d5a4929181900390910190a160005b9392505050565b600080546001600160a01b03163314611e2b57611db860016004614fb7565b611e33616acf565b506040805160208101909152828152611e4a616acf565b50604080516020810190915266b1a2bc2ec500008152611e6a828261501d565b15611e8357611e7a600580614fb7565b92505050611c64565b611e8b616acf565b506040805160208101909152670c7d713b49da00008152611eac8184615025565b15611ec657611ebc600580614fb7565b9350505050611c64565b6005805490869055604080518281526020810188905281517f3b9670cf975d26958e754b57098eaa2ac914d8d2a31b83257997b9f346110fd9929181900390910190a160005b9695505050505050565b601b546001600160a01b031681565b600d546060906000805b82811015611f875760096000600d8381548110611f4857fe5b60009182526020808320909101546001600160a01b0316835282019290925260400190206003015460ff1615611f7f576001909101905b600101611f2f565b50606081604051908082528060200260200182016040528015611fb4578160200160208202803883390190505b5090506000805b848110156120635760096000600d8381548110611fd457fe5b60009182526020808320909101546001600160a01b0316835282019290925260400190206003015460ff161561205b57600d818154811061201157fe5b600091825260209091200154835160018401936001600160a01b03909216918591811061203a57fe5b60200260200101906001600160a01b031690816001600160a01b0316815250505b600101611fbb565b509093505050505b90565b60155460408051631bc2e8eb60e11b81526001600160a01b03848116600483015282516000948594921692633785d1d6926024808301939192829003018186803b1580156120bb57600080fd5b505afa1580156120cf573d6000803e3d6000fd5b505050506040513d60408110156120e557600080fd5b5080516020909101519092509050915091565b6001600160a01b038216600090815260096020526040812054839060ff16612164576040805162461bcd60e51b815260206004820152601a6024820152791d995b9d5cc81b585c9ad95d081a5cc81b9bdd081b1a5cdd195960321b604482015290519081900360640190fd5b600a5483906001600160a01b031633148061218957506000546001600160a01b031633145b6121c45760405162461bcd60e51b8152600401808060200182810382526021815260200180616c116021913960400191505060405180910390fd5b6000546001600160a01b03163314806121df57506001811515145b61221e576040805162461bcd60e51b81526020600482015260166024820152600080516020616b8f833981519152604482015290519081900360640190fd5b6001600160a01b0385166000818152600b6020908152604091829020805488151560ff199091168117909155825193845283830152606090830181905260049083015263135a5b9d60e21b6080830152517f71aec636243f9709bb0007ae15e9afb8150ab01716d75fd7573be5cc096e03b09181900360a00190a150919392505050565b60185460ff1681565b601260209081526000928352604080842090915290825290205481565b50505050565b60185462010000900460ff1681565b601a5490565b601c546001600160a01b031681565b6000546001600160a01b03163314612342576040805162461bcd60e51b815260206004820152600e60248201526d37b7363c9030b236b4b71031b0b760911b604482015290519081900360640190fd5b60005b818110156123795761237183838381811061235c57fe5b905060200201356001600160a01b031661502c565b600101612345565b506118786147bd565b6001600160a01b031660009081526016602052604090205490565b60185460009062010000900460ff16156123ec576040805162461bcd60e51b81526020600482015260126024820152600080516020616baf833981519152604482015290519081900360640190fd5b60185460ff1615612438576040805162461bcd60e51b81526020600482015260116024820152701b5a5b9d159052481a5cc81c185d5cd959607a1b604482015290519081900360640190fd5b61244061534a565b61244b3360006153d5565b60155460408051630d00083160e01b81523360048201526024810185905290516001600160a01b0390921691630d000831916044808201926020929091908290030181600087803b15801561249f57600080fd5b505af11580156124b3573d6000803e3d6000fd5b505050506040513d60208110156124c957600080fd5b505192915050565b505050505050565b60065481565b6001600160a01b031660009081526008602052604090205490565b60008060008060008061250f8a8a8a8a615503565b92509250925082601281111561252157fe5b95509093509150505b9450945094915050565b60185460009062010000900460ff1615612583576040805162461bcd60e51b81526020600482015260126024820152600080516020616baf833981519152604482015290519081900360640190fd5b6001600160a01b0384166000908152600b602052604090205460ff16156125e2576040805162461bcd60e51b815260206004820152600e60248201526d1b5a5b9d081a5cc81c185d5cd95960921b604482015290519081900360640190fd5b6001600160a01b03841660009081526009602052604090205460ff1661260c5760095b9050611e05565b61261584615980565b61262184846000615c0a565b6000949350505050565b600080546001600160a01b0316331461264a57611db86001600b614fb7565b612652616acf565b506040805160208101909152828152612669616acf565b506040805160208101909152670de0b6b3a7640000815261268a8282615025565b1561269b57611e7a6007600c614fb7565b6126a3616acf565b5060408051602081019091526714d1120d7b16000081526126c48184615025565b156126d557611ebc6007600c614fb7565b6006805490869055604080518281526020810188905281517faeba5a6c40a8ac138134bff1aaa65debf25971188a58804bad717f82f0ec1316929181900390910190a16000611f0c565b6000546001600160a01b0316331461276f576040805162461bcd60e51b815260206004820152600e60248201526d37b7363c9030b236b4b71031b0b760911b604482015290519081900360640190fd5b6015546001600160a01b0316156119e7576015546040805163281ac90560e11b81526004810184905290516001600160a01b0390921691635035920a916024808201926020929091908290030181600087803b1580156127ce57600080fd5b505af11580156127e2573d6000803e3d6000fd5b505050506040513d60208110156127f857600080fd5b505050565b6000546001600160a01b0316331461285c576040805162461bcd60e51b815260206004820152601e60248201527f6f6e6c792061646d696e2063616e2073657420737570706c7920636170730000604482015290519081900360640190fd5b8281811580159061286c57508082145b6128ad576040805162461bcd60e51b815260206004820152600d60248201526c1a5b9d985b1a59081a5b9c1d5d609a1b604482015290519081900360640190fd5b60005b82811015612906578484828181106128c457fe5b90506020020135601d60008989858181106128db57fe5b602090810292909201356001600160a01b0316835250810191909152604001600020556001016128b0565b50505050505050565b8015158061291b575081155b6122c8576040805162461bcd60e51b815260206004820152601160248201527072656465656d546f6b656e73207a65726f60781b604482015290519081900360640190fd5b600d818154811061296d57fe5b6000918252602090912001546001600160a01b0316905081565b600080546001600160a01b031633146129a657611db860016010614fb7565b600480546001600160a01b038481166001600160a01b0319831681179093556040805191909216808252602082019390935281517fd52b2b9b7e9ee655fcb95d2e5b9e0c9f69e7ef2b8e9d2d0ea78402d576d22e22929181900390910190a16000611e05565b601a5481565b600080600080600080612a29876000806000615503565b925092509250826012811115612a3b57fe5b97919650945092505050565b600080546001600160a01b03163314612a6657611db860016013614fb7565b600a80546001600160a01b038481166001600160a01b0319831681179093556040805191909216808252602082019390935281517f0613b6ee6a04f0d09f390e4d9318894b9f6ac7fd83897cd8d18896ba579c401e929181900390910190a16000611e05565b60185460009062010000900460ff1615612b1b576040805162461bcd60e51b81526020600482015260126024820152600080516020616baf833981519152604482015290519081900360640190fd5b6001600160a01b03861660009081526009602052604090205460ff161580612b5c57506001600160a01b03851660009081526009602052604090205460ff16155b15612b6b5760095b9050612c9e565b600080612b7c856000806000615503565b91935090915060009050826012811115612b9257fe5b14612bac57816012811115612ba357fe5b92505050612c9e565b80612bb8576003612ba3565b6000886001600160a01b03166395dd9193876040518263ffffffff1660e01b815260040180826001600160a01b03166001600160a01b0316815260200191505060206040518083038186803b158015612c1057600080fd5b505afa158015612c24573d6000803e3d6000fd5b505050506040513d6020811015612c3a57600080fd5b5051604080516020810190915260055481529091506000908190612c5e9084615e02565b90925090506000826003811115612c7157fe5b14612c8557600b5b95505050505050612c9e565b80871115612c94576011612c79565b6000955050505050505b95945050505050565b66038d7ea4c6800081565b6122c8565b60185460009062010000900460ff1615612d06576040805162461bcd60e51b81526020600482015260126024820152600080516020616baf833981519152604482015290519081900360640190fd5b601854610100900460ff1615612d58576040805162461bcd60e51b81526020600482015260126024820152711c995c185e559052481a5cc81c185d5cd95960721b604482015290519081900360640190fd5b612d6061534a565b612d6b3360006153d5565b6015546040805163bca07ad560e01b81523360048201526024810185905290516001600160a01b039092169163bca07ad5916044808201926020929091908290030181600087803b15801561249f57600080fd5b601854610100900460ff1681565b6004546001600160a01b031681565b604080516001808252818301909252606091602080830190803883390190505090508281600081518110612e0c57fe5b60200260200101906001600160a01b031690816001600160a01b0316815250506127f88183600180613ae4565b600e5481565b60146020526000908152604090205481565b601b80546001600160a01b0319166001600160a01b0392909216919091179055565b60096020526000908152604090208054600182015460039092015460ff91821692911683565b600a5460009082906001600160a01b0316331480612ec157506000546001600160a01b031633145b612efc5760405162461bcd60e51b8152600401808060200182810382526021815260200180616c116021913960400191505060405180910390fd5b6000546001600160a01b0316331480612f1757506001811515145b612f56576040805162461bcd60e51b81526020600482015260166024820152600080516020616b8f833981519152604482015290519081900360640190fd5b600a8054841515600160b01b810260ff60b01b1990921691909117909155604080516020810192909252808252600882820152672a3930b739b332b960c11b606083015251600080516020616bcf8339815191529181900360800190a15090919050565b601c80546001600160a01b0319166001600160a01b0392909216919091179055565b6015546001600160a01b031681565b6001600160a01b038082166000908152600960209081526040808320938616835260029093019052205460ff165b92915050565b60075481565b600080546001600160a01b0316331461304457611db860016015614fb7565b601580546001600160a01b038481166001600160a01b0319831681179093556040805191909216808252602082019390935281517fe1ddcb2dab8e5b03cfc8c67a0d5861d91d16f7bd2612fd381faf4541d212c9b2929181900390910190a150919050565b600080546001600160a01b031633146130c857611db860016012614fb7565b6001600160a01b03821660009081526009602052604090205460ff16156130f557611db8600a6011614fb7565b816001600160a01b0316633d9ea3a16040518163ffffffff1660e01b815260040160206040518083038186803b15801561312e57600080fd5b505afa158015613142573d6000803e3d6000fd5b505050506040513d602081101561315857600080fd5b5050604080516060810182526001808252600060208381018281528486018381526001600160a01b03891684526009909252949091209251835490151560ff199182161784559351918301919091555160039091018054911515919092161790556131c282615e56565b604080516001600160a01b038416815290517fcf583bb0c569eb967f806b11601c4cb93c10310485c67add5f8362c2f212321f9181900360200190a1600092915050565b601a55565b6001600160a01b03811660009081526008602090815260409182902080548351818402810184019094528084526060939283018282801561327557602002820191906000526020600020905b81546001600160a01b03168152600190910190602001808311613257575b50505050509050919050565b6119e781600d8054806020026020016040519081016040528092919081815260200182805480156132db57602002820191906000526020600020905b81546001600160a01b031681526001909101906020018083116132bd575b5050505050612ddc565b6060600d80548060200260200160405190810160405280929190818152602001828054801561333d57602002820191906000526020600020905b81546001600160a01b0316815260019091019060200180831161331f575b5050505050905090565b600a5460009082906001600160a01b031633148061336f57506000546001600160a01b031633145b6133aa5760405162461bcd60e51b8152600401808060200182810382526021815260200180616c116021913960400191505060405180910390fd5b6000546001600160a01b03163314806133c557506001811515145b613404576040805162461bcd60e51b81526020600482015260166024820152600080516020616b8f833981519152604482015290519081900360640190fd5b60188054841515610100810261ff00199092169190911790915560408051602081019290925280825260088282015267526570617956414960c01b606083015251600080516020616bcf8339815191529181900360800190a15090919050565b6010602052600090815260409020546001600160e01b03811690600160e01b900463ffffffff1682565b6002546001600160a01b031681565b60185460009062010000900460ff16156134ec576040805162461bcd60e51b81526020600482015260126024820152600080516020616baf833981519152604482015290519081900360640190fd5b600a54600160b01b900460ff1615613540576040805162461bcd60e51b81526020600482015260126024820152711d1c985b9cd9995c881a5cc81c185d5cd95960721b604482015290519081900360640190fd5b600061354d868685615f34565b9050801561355c579050611b9c565b61356586615980565b61357186866000615c0a565b611b9686856000615c0a565b6001600160a01b03166000908152600960205260409020805460ff19169055565b60175481565b601b546001600160a01b031690565b604080518281526020808402820101909152606090829082908280156135e3578160200160208202803883390190505b50905060005b828110156136405761361686868381811061360057fe5b905060200201356001600160a01b031633615fd7565b601281111561362157fe5b82828151811061362d57fe5b60209081029190910101526001016135e9565b50949350505050565b600480546040805163fc57d4df60e01b81526001600160a01b038781169482019490945290516000938493849391169163fc57d4df91602480820192602092909190829003018186803b15801561369f57600080fd5b505afa1580156136b3573d6000803e3d6000fd5b505050506040513d60208110156136c957600080fd5b5051600480546040805163fc57d4df60e01b81526001600160a01b038a8116948201949094529051939450600093929091169163fc57d4df91602480820192602092909190829003018186803b15801561372257600080fd5b505afa158015613736573d6000803e3d6000fd5b505050506040513d602081101561374c57600080fd5b5051905081158061375b575080155b1561377057600d9350600092506138b6915050565b6000866001600160a01b031663182df0f56040518163ffffffff1660e01b815260040160206040518083038186803b1580156137ab57600080fd5b505afa1580156137bf573d6000803e3d6000fd5b505050506040513d60208110156137d557600080fd5b5051905060006137e3616acf565b6137eb616acf565b6137f3616acf565b6000613801600654896160f3565b94509050600081600381111561381357fe5b1461382f57600b5b9950600098506138b6975050505050505050565b61383987876160f3565b93509050600081600381111561384b57fe5b1461385757600b61381b565b613861848461612e565b92509050600081600381111561387357fe5b1461387f57600b61381b565b613889828c615e02565b95509050600081600381111561389b57fe5b146138a757600b61381b565b60009950939750505050505050505b935093915050565b6ec097ce7bc90715b34b9f100000000081565b601c546001600160a01b031690565b60185460009062010000900460ff161561392f576040805162461bcd60e51b81526020600482015260126024820152600080516020616baf833981519152604482015290519081900360640190fd5b600a54600160b81b900460ff1615613980576040805162461bcd60e51b815260206004820152600f60248201526e1cd95a5e99481a5cc81c185d5cd959608a1b604482015290519081900360640190fd5b6001600160a01b03861660009081526009602052604090205460ff1615806139c157506001600160a01b03851660009081526009602052604090205460ff16155b156139cd576009612b64565b846001600160a01b0316635fe3b5676040518163ffffffff1660e01b815260040160206040518083038186803b158015613a0657600080fd5b505afa158015613a1a573d6000803e3d6000fd5b505050506040513d6020811015613a3057600080fd5b505160408051635fe3b56760e01b815290516001600160a01b0392831692891691635fe3b567916004808301926020929190829003018186803b158015613a7657600080fd5b505afa158015613a8a573d6000803e3d6000fd5b505050506040513d6020811015613aa057600080fd5b50516001600160a01b031614613ab7576002612b64565b613ac086615980565b613acc86846000615c0a565b613ad886856000615c0a565b60009695505050505050565b6000613aee61534a565b5060005b8451811015613b2157613b19858281518110613b0a57fe5b602002602001015160016153d5565b600101613af2565b60005b84518110156124d1576000858281518110613b3b57fe5b6020908102919091018101516001600160a01b0381166000908152600990925260409091205490915060ff16613bac576040805162461bcd60e51b81526020600482015260116024820152701b9bdd081b1a5cdd1959081b585c9ad95d607a1b604482015290519081900360640190fd5b8415613c7357613bba616acf565b6040518060200160405280836001600160a01b031663aa5af0fd6040518163ffffffff1660e01b815260040160206040518083038186803b158015613bfe57600080fd5b505afa158015613c12573d6000803e3d6000fd5b505050506040513d6020811015613c2857600080fd5b505190529050613c388282614b39565b600093505b8751841015613c7157613c6682898681518110613c5657fe5b6020026020010151836001614dcd565b600190930192613c3d565b505b8315613cba57613c8281615980565b600092505b8651831015613cba57613caf81888581518110613ca057fe5b60200260200101516001615c0a565b600190920191613c87565b50600101613b24565b600080546001600160a01b03163314613ce257611db86001600d614fb7565b6007805490839055604080518281526020810185905281517f7093cf1eb653f749c3ff531d6df7f92764536a7fa0d13530cd26e070780c32ea929181900390910190a16000611e05565b60185460009062010000900460ff1615613d7b576040805162461bcd60e51b81526020600482015260126024820152600080516020616baf833981519152604482015290519081900360640190fd5b6001600160a01b0384166000908152600c602052604090205460ff1615613ddc576040805162461bcd60e51b815260206004820152601060248201526f189bdc9c9bddc81a5cc81c185d5cd95960821b604482015290519081900360640190fd5b6001600160a01b03841660009081526009602052604090205460ff16613e03576009612605565b6001600160a01b038085166000908152600960209081526040808320938716835260029093019052205460ff16613ec057336001600160a01b03851614613e89576040805162461bcd60e51b815260206004820152601560248201527439b2b73232b91036bab9ba103132903b2a37b5b2b760591b604482015290519081900360640190fd5b6000613e958585615fd7565b90506000816012811115613ea557fe5b14613ebe57806012811115613eb657fe5b915050611e05565b505b600480546040805163fc57d4df60e01b81526001600160a01b03888116948201949094529051929091169163fc57d4df91602480820192602092909190829003018186803b158015613f1157600080fd5b505afa158015613f25573d6000803e3d6000fd5b505050506040513d6020811015613f3b57600080fd5b5051613f4857600d612605565b600080613f588587600087615503565b91935090915060009050826012811115613f6e57fe5b14613f8857816012811115613f7f57fe5b92505050611e05565b8015613f95576004613f7f565b613f9d616acf565b6040518060200160405280886001600160a01b031663aa5af0fd6040518163ffffffff1660e01b815260040160206040518083038186803b158015613fe157600080fd5b505afa158015613ff5573d6000803e3d6000fd5b505050506040513d602081101561400b57600080fd5b50519052905061401b8782614b39565b6140288787836000614dcd565b6000979650505050505050565b6008602052816000526040600020818154811061404e57fe5b6000918252602090912001546001600160a01b03169150829050565b6003546001600160a01b031681565b6011602052600090815260409020546001600160e01b03811690600160e01b900463ffffffff1682565b600080546001600160a01b031633146140c9576140c260016006614fb7565b9050613019565b6001600160a01b0383166000908152600960205260409020805460ff166140fe576140f660096007614fb7565b915050613019565b614106616acf565b50604080516020810190915283815261411d616acf565b506040805160208101909152670c7d713b49da0000815261413e8183615025565b156141595761414f60066008614fb7565b9350505050613019565b84158015906141e25750600480546040805163fc57d4df60e01b81526001600160a01b038a8116948201949094529051929091169163fc57d4df91602480820192602092909190829003018186803b1580156141b457600080fd5b505afa1580156141c8573d6000803e3d6000fd5b505050506040513d60208110156141de57600080fd5b5051155b156141f35761414f600d6009614fb7565b60018301805490869055604080516001600160a01b03891681526020810183905280820188905290517f70483e6592cd5182d45ac970e05bc62cdcc90e9d8ef2c2dbe686cf383bcd7fc59181900360600190a16000979650505050505050565b60055481565b600a5460009082906001600160a01b031633148061428157506000546001600160a01b031633145b6142bc5760405162461bcd60e51b8152600401808060200182810382526021815260200180616c116021913960400191505060405180910390fd5b6000546001600160a01b03163314806142d757506001811515145b614316576040805162461bcd60e51b81526020600482015260166024820152600080516020616b8f833981519152604482015290519081900360640190fd5b6018805484151560ff199091168117909155604080516020810192909252808252600782820152664d696e7456414960c81b606083015251600080516020616bcf8339815191529181900360800190a15090919050565b60185460009062010000900460ff16156143bc576040805162461bcd60e51b81526020600482015260126024820152600080516020616baf833981519152604482015290519081900360640190fd5b60006143c9858585615f34565b905080156143d8579050611e05565b6143e185615980565b6143ed85856000615c0a565b600095945050505050565b6000808290506000806000836001600160a01b031663c37f68e2336040518263ffffffff1660e01b815260040180826001600160a01b03166001600160a01b0316815260200191505060806040518083038186803b15801561445957600080fd5b505afa15801561446d573d6000803e3d6000fd5b505050506040513d608081101561448357600080fd5b5080516020820151604090920151909450909250905082156144ec576040805162461bcd60e51b815260206004820152601960248201527f6765744163636f756e74536e617073686f74206661696c656400000000000000604482015290519081900360640190fd5b8015614509576144fe600c6002614fb7565b945050505050611c64565b6000614516873385615f34565b905080156145375761452b600e600383616146565b95505050505050611c64565b6001600160a01b0385166000908152600960209081526040808320338452600281019092529091205460ff166145765760009650505050505050611c64565b3360009081526002820160209081526040808320805460ff1916905560089091528120805490915b8181101561465757886001600160a01b03168382815481106145bc57fe5b6000918252602090912001546001600160a01b0316141561464f578260018303815481106145e657fe5b9060005260206000200160009054906101000a90046001600160a01b031683828154811061461057fe5b600091825260209091200180546001600160a01b0319166001600160a01b03929092169190911790558254614649846000198301616ae2565b50614657565b60010161459e565b81811061466057fe5b604080516001600160a01b038b16815233602082015281517fe699a64c18b07ac5b7301aa273f36a2287239eb9501d81950672794afba29a0d929181900390910190a160009b9a5050505050505050505050565b6000546001600160a01b031681565b601a8054820190819055919050565b60185460009062010000900460ff1615614721576040805162461bcd60e51b81526020600482015260126024820152600080516020616baf833981519152604482015290519081900360640190fd5b60185460ff1615801561473c5750601854610100900460ff16155b61477d576040805162461bcd60e51b815260206004820152600d60248201526c159052481a5cc81c185d5cd959609a1b604482015290519081900360640190fd5b6015546001600160a01b0316331461479b576140c2600e6016614fb7565b6001600160a01b03831660009081526016602052604081208390559392505050565b6000805b600d5482101561488a57600d82815481106147d857fe5b6000918252602090912001546001600160a01b031690506147f7616acf565b6040518060200160405280836001600160a01b031663aa5af0fd6040518163ffffffff1660e01b815260040160206040518083038186803b15801561483b57600080fd5b505afa15801561484f573d6000803e3d6000fd5b505050506040513d602081101561486557600080fd5b50519052905061487482615980565b61487e8282614b39565b506001909101906147c1565b614892616acf565b6040518060200160405280600081525090506060600d805490506040519080825280602002602001820160405280156148e557816020015b6148d2616acf565b8152602001906001900390816148ca5790505b509050600093505b600d54841015614a6e57600d848154811061490457fe5b60009182526020808320909101546001600160a01b0316808352600990915260409091206003015490935060ff1615614a635761493f616acf565b60408051602080820180845260045463fc57d4df60e01b9091526001600160a01b03888116602485015293519293849391169163fc57d4df916044808601929190818703018186803b15801561499457600080fd5b505afa1580156149a8573d6000803e3d6000fd5b505050506040513d60208110156149be57600080fd5b5051905290506149cc616acf565b614a3a82866001600160a01b03166347bd37186040518163ffffffff1660e01b815260040160206040518083038186803b158015614a0957600080fd5b505afa158015614a1d573d6000803e3d6000fd5b505050506040513d6020811015614a3357600080fd5b50516161ac565b905080838781518110614a4957fe5b6020026020010181905250614a5e84826161d6565b935050505b6001909301926148ed565b600093505b600d548410156122c857600d8481548110614a8a57fe5b600091825260208220015483516001600160a01b039091169450614aaf576000614ad7565b614ad7600e54614ad2848881518110614ac457fe5b6020026020010151866161fb565b61622e565b6001600160a01b0385166000818152600f60209081526040918290208490558151848152915193945091927f2a0ce45ba05a83e75ba21e1a10d6b48a8395028cc6e1ae66f6c313648379d548929181900390910190a250600190930192614a73565b6001600160a01b0382166000908152601160209081526040808320600f9092528220549091614b666122dd565b8354909150600090614b86908390600160e01b900463ffffffff16616256565b9050600081118015614b985750600083115b15614d68576000614c0d876001600160a01b03166347bd37186040518163ffffffff1660e01b815260040160206040518083038186803b158015614bdb57600080fd5b505afa158015614bef573d6000803e3d6000fd5b505050506040513d6020811015614c0557600080fd5b505187616290565b90506000614c1b83866162ae565b9050614c25616acf565b60008311614c425760405180602001604052806000815250614c4c565b614c4c82846162f0565b9050614c56616acf565b604080516020810190915288546001600160e01b03168152614c7890836161d6565b90506040518060400160405280614cbe8360000151604051806040016040528060138152602001726e657720696e646578206f766572666c6f777360681b815250616325565b6001600160e01b03168152602001614d048860405180604001604052806016815260200175626c6f636b206e756d626572206f766572666c6f777360501b8152506163bf565b63ffffffff9081169091526001600160a01b038c166000908152601160209081526040909120835181549490920151909216600160e01b026001600160e01b039182166001600160e01b03199094169390931716919091179055506124d192505050565b80156124d157614da68260405180604001604052806016815260200175626c6f636b206e756d626572206f766572666c6f777360501b8152506163bf565b845463ffffffff91909116600160e01b026001600160e01b03909116178455505050505050565b6001600160a01b0384166000908152601160205260409020614ded616acf565b50604080516020810190915281546001600160e01b03168152614e0e616acf565b5060408051602080820183526001600160a01b03808a16600090815260138352848120918a168082528284529481208054855286519590915291529190915580511561290657614e5c616acf565b614e668383616414565b90506000614ef5896001600160a01b03166395dd91938a6040518263ffffffff1660e01b815260040180826001600160a01b03166001600160a01b0316815260200191505060206040518083038186803b158015614ec357600080fd5b505afa158015614ed7573d6000803e3d6000fd5b505050506040513d6020811015614eed57600080fd5b505188616290565b90506000614f038284616439565b6001600160a01b038a1660009081526014602052604081205491925090614f2a9083616459565b9050614f4b8a828a614f435766038d7ea4c68000614f46565b60005b61648f565b6001600160a01b03808c1660008181526014602090815260409182902094909455895181518781529485015280519193928f16927f837bdc11fca9f17ce44167944475225a205279b17e88c791c3b1f66f354668fb929081900390910190a35050505050505050505050565b60007f45b96fe442630264581b197e84bbada861235052c5a1aadfff9ea4e40a969aa0836012811115614fe657fe5b836017811115614ff257fe5b604080519283526020830191909152600082820152519081900360600190a1826012811115611e0557fe5b519051111590565b5190511090565b6001600160a01b0381166000908152600960205260409020805460ff16615097576040805162461bcd60e51b815260206004820152601a6024820152791d995b9d5cc81b585c9ad95d081a5cc81b9bdd081b1a5cdd195960321b604482015290519081900360640190fd5b600381015460ff16156150f1576040805162461bcd60e51b815260206004820152601a60248201527f76656e7573206d61726b657420616c7265616479206164646564000000000000604482015290519081900360640190fd5b60038101805460ff19166001908117909155604080516001600160a01b0385168152602081019290925280517f5f4087bd98874c2fa3ea4474bc7c58b711b23fff45cd2f456e358b4b33ee90259281900390910190a16001600160a01b0382166000908152601060205260409020546001600160e01b031615801561519957506001600160a01b038216600090815260106020526040902054600160e01b900463ffffffff16155b156152615760405180604001604052806ec097ce7bc90715b34b9f10000000006001600160e01b031681526020016152066151d26122dd565b60405180604001604052806016815260200175626c6f636b206e756d626572206f766572666c6f777360501b8152506163bf565b63ffffffff9081169091526001600160a01b0384166000908152601060209081526040909120835181549490920151909216600160e01b026001600160e01b039182166001600160e01b031990941693909317169190911790555b6001600160a01b0382166000908152601160205260409020546001600160e01b03161580156152b357506001600160a01b038216600090815260116020526040902054600160e01b900463ffffffff16155b156118785760405180604001604052806ec097ce7bc90715b34b9f10000000006001600160e01b031681526020016152ec6151d26122dd565b63ffffffff9081169091526001600160a01b0384166000908152601160209081526040909120835181549490920151909216600160e01b026001600160e01b039182166001600160e01b031990941693909317169190911790555050565b6015546001600160a01b0316156115a757601560009054906101000a90046001600160a01b03166001600160a01b031663d244b0816040518163ffffffff1660e01b8152600401602060405180830381600087803b1580156153ab57600080fd5b505af11580156153bf573d6000803e3d6000fd5b505050506040513d602081101561187857600080fd5b6015546001600160a01b031615611878576015546040805163d178273b60e01b81526001600160a01b0385811660048301529151600093849384938493919092169163d178273b91602480830192608092919082900301818787803b15801561543d57600080fd5b505af1158015615451573d6000803e3d6000fd5b505050506040513d608081101561546757600080fd5b508051602082015160408301516060909301519096509194509092509050806124d1576154a1868587614f435766038d7ea4c68000614f46565b6001600160a01b038716600081815260146020908152604091829020939093558051868152928301859052805191927f2fb3baf25f3d9fc9f9eb9dfd7da8567731a91413437d91bc1b8a839d0a1ba88f929081900390910190a2505050505050565b6000806000615510616b06565b6001600160a01b03881660009081526008602090815260408083208054825181850281018501909352808352849360609392919083018282801561557d57602002820191906000526020600020905b81546001600160a01b0316815260019091019060200180831161555f575b50939450600093505050505b81518110156158d95760008282815181106155a057fe5b60200260200101519050806001600160a01b031663c37f68e28e6040518263ffffffff1660e01b815260040180826001600160a01b03166001600160a01b0316815260200191505060806040518083038186803b15801561560057600080fd5b505afa158015615614573d6000803e3d6000fd5b505050506040513d608081101561562a57600080fd5b508051602082015160408084015160609485015160808c0152938a019390935291880191909152945084156156705750600f97506000965086955061252a945050505050565b60408051602080820183526001600160a01b0380851660008181526009845285902060010154845260c08b01939093528351808301855260808b0151815260e08b015260048054855163fc57d4df60e01b815291820194909452935192169263fc57d4df9260248083019392829003018186803b1580156156f057600080fd5b505afa158015615704573d6000803e3d6000fd5b505050506040513d602081101561571a57600080fd5b505160a0870181905261573e5750600d97506000965086955061252a945050505050565b604080516020810190915260a08701518152610100870181905260c087015160e088015161576b926165d4565b6101208801529350600084600381111561578157fe5b1461579d5750600b97506000965086955061252a945050505050565b6157b58661012001518760400151886000015161662c565b8752935060008460038111156157c757fe5b146157e35750600b97506000965086955061252a945050505050565b6157fb8661010001518760600151886020015161662c565b60208801529350600084600381111561581057fe5b1461582c5750600b97506000965086955061252a945050505050565b8b6001600160a01b0316816001600160a01b031614156158d05761585a8661012001518c886020015161662c565b60208801529350600084600381111561586f57fe5b1461588b5750600b97506000965086955061252a945050505050565b61589f8661010001518b886020015161662c565b6020880152935060008460038111156158b457fe5b146158d05750600b97506000965086955061252a945050505050565b50600101615589565b5061590d8460200151601660008e6001600160a01b03166001600160a01b0316815260200190815260200160002054616675565b60208601529150600082600381111561592257fe5b1461593c5750600b95506000945084935061252a92505050565b60208401518451111561596257505050602081015190516000945003915082905061252a565b505081516020909201516000955085945091909103915061252a9050565b6001600160a01b0381166000908152601060209081526040808320600f90925282205490916159ad6122dd565b83549091506000906159cd908390600160e01b900463ffffffff16616256565b90506000811180156159df5750600083115b15615ba6576000856001600160a01b03166318160ddd6040518163ffffffff1660e01b815260040160206040518083038186803b158015615a1f57600080fd5b505afa158015615a33573d6000803e3d6000fd5b505050506040513d6020811015615a4957600080fd5b505190506000615a5983866162ae565b9050615a63616acf565b60008311615a805760405180602001604052806000815250615a8a565b615a8a82846162f0565b9050615a94616acf565b604080516020810190915288546001600160e01b03168152615ab690836161d6565b90506040518060400160405280615afc8360000151604051806040016040528060138152602001726e657720696e646578206f766572666c6f777360681b815250616325565b6001600160e01b03168152602001615b428860405180604001604052806016815260200175626c6f636b206e756d626572206f766572666c6f777360501b8152506163bf565b63ffffffff9081169091526001600160a01b038b166000908152601060209081526040909120835181549490920151909216600160e01b026001600160e01b039182166001600160e01b03199094169390931716919091179055506119ea92505050565b80156119ea57615be48260405180604001604052806016815260200175626c6f636b206e756d626572206f766572666c6f777360501b8152506163bf565b845463ffffffff91909116600160e01b026001600160e01b039091161784555050505050565b6001600160a01b0383166000908152601060205260409020615c2a616acf565b50604080516020810190915281546001600160e01b03168152615c4b616acf565b5060408051602080820183526001600160a01b03808916600090815260128352848120918916808252828452948120805485528651959091529152919091558051158015615c995750815115155b15615cb1576ec097ce7bc90715b34b9f100000000081525b615cb9616acf565b615cc38383616414565b90506000876001600160a01b03166370a08231886040518263ffffffff1660e01b815260040180826001600160a01b03166001600160a01b0316815260200191505060206040518083038186803b158015615d1d57600080fd5b505afa158015615d31573d6000803e3d6000fd5b505050506040513d6020811015615d4757600080fd5b505190506000615d578284616439565b6001600160a01b03891660009081526014602052604081205491925090615d7e9083616459565b9050615d9789828a614f435766038d7ea4c68000614f46565b6001600160a01b03808b1660008181526014602090815260409182902094909455895181518781529485015280519193928e16927ffa9d964d891991c113b49e3db1932abd6c67263d387119707aafdd6c4010a3a9929081900390910190a350505050505050505050565b6000806000615e0f616acf565b615e19868661669b565b90925090506000826003811115615e2c57fe5b14615e3d5750915060009050615e4f565b6000615e4882616703565b9350935050505b9250929050565b60005b600d54811015615ee157816001600160a01b0316600d8281548110615e7a57fe5b6000918252602090912001546001600160a01b03161415615ed9576040805162461bcd60e51b81526020600482015260146024820152731b585c9ad95d08185b1c9958591e48185919195960621b604482015290519081900360640190fd5b600101615e59565b50600d80546001810182556000919091527fd7b6990105719101dabeb77144f2a3385c8033acd3af97e9423a695e81ad1eb50180546001600160a01b0319166001600160a01b0392909216919091179055565b6001600160a01b03831660009081526009602052604081205460ff16615f5b576009612605565b6001600160a01b038085166000908152600960209081526040808320938716835260029093019052205460ff16615f93576000612605565b600080615fa38587866000615503565b91935090915060009050826012811115615fb957fe5b14615fca57816012811115613f7f57fe5b8015613ad8576004613f7f565b6001600160a01b0382166000908152600960205260408120805460ff16616002576009915050613019565b6001600160a01b038316600090815260028201602052604090205460ff161561602f576000915050613019565b6007546001600160a01b0384166000908152600860205260409020541061605a576010915050613019565b6001600160a01b0380841660008181526002840160209081526040808320805460ff19166001908117909155600883528184208054918201815584529282902090920180549489166001600160a01b031990951685179055815193845283019190915280517f3ab23ab0d51cccc0c3085aec51f99228625aa1a922b3a8ca89a26b0f2027a1a59281900390910190a15060009392505050565b60006160fd616acf565b616123604051806020016040528086815250604051806020016040528086815250616712565b915091509250929050565b6000616138616acf565b8351835161612391906167fb565b60007f45b96fe442630264581b197e84bbada861235052c5a1aadfff9ea4e40a969aa084601281111561617557fe5b84601781111561618157fe5b604080519283526020830191909152818101859052519081900360600190a1836012811115611b9c57fe5b6161b4616acf565b60405180602001604052806161cd8560000151856162ae565b90529392505050565b6161de616acf565b60405180602001604052806161cd85600001518560000151616459565b616203616acf565b60405180602001604052806161cd6162278660000151670de0b6b3a76400006162ae565b85516168ab565b6000670de0b6b3a76400006162478484600001516162ae565b8161624e57fe5b049392505050565b6000611e058383604051806040016040528060158152602001747375627472616374696f6e20756e646572666c6f7760581b8152506168de565b6000611e056162a784670de0b6b3a76400006162ae565b83516168ab565b6000611e0583836040518060400160405280601781526020017f6d756c7469706c69636174696f6e206f766572666c6f77000000000000000000815250616938565b6162f8616acf565b60405180602001604052806161cd61631f866ec097ce7bc90715b34b9f10000000006162ae565b856168ab565b600081600160e01b84106163b75760405162461bcd60e51b81526004018080602001828103825283818151815260200191508051906020019080838360005b8381101561637c578181015183820152602001616364565b50505050905090810190601f1680156163a95780820380516001836020036101000a031916815260200191505b509250505060405180910390fd5b509192915050565b600081600160201b84106163b75760405162461bcd60e51b815260206004820181815283516024840152835190928392604490910191908501908083836000831561637c578181015183820152602001616364565b61641c616acf565b60405180602001604052806161cd85600001518560000151616256565b60006ec097ce7bc90715b34b9f10000000006162478484600001516162ae565b6000611e058383604051806040016040528060118152602001706164646974696f6e206f766572666c6f7760781b8152506169ae565b60008183101580156164a15750600083115b156165cc5760006164b06135a4565b604080516370a0823160e01b815230600482015290519192506000916001600160a01b038416916370a08231916024808301926020929190829003018186803b1580156164fc57600080fd5b505afa158015616510573d6000803e3d6000fd5b505050506040513d602081101561652657600080fd5b505190508085116165c957816001600160a01b031663a9059cbb87876040518363ffffffff1660e01b815260040180836001600160a01b03166001600160a01b0316815260200182815260200192505050602060405180830381600087803b15801561659157600080fd5b505af11580156165a5573d6000803e3d6000fd5b505050506040513d60208110156165bb57600080fd5b5060009350611e0592505050565b50505b509092915050565b60006165de616acf565b60006165e8616acf565b6165f28787616712565b9092509050600082600381111561660557fe5b146166145790925090506138b6565b61661e8186616712565b935093505050935093915050565b6000806000616639616acf565b616643878761669b565b9092509050600082600381111561665657fe5b1461666757509150600090506138b6565b61661e61667382616703565b865b60008083830184811061668d57600092509050615e4f565b506002915060009050615e4f565b60006166a5616acf565b6000806166b6866000015186616a03565b909250905060008260038111156166c957fe5b146166e857506040805160208101909152600081529092509050615e4f565b60408051602081019091529081526000969095509350505050565b51670de0b6b3a7640000900490565b600061671c616acf565b60008061673186600001518660000151616a03565b9092509050600082600381111561674457fe5b1461676357506040805160208101909152600081529092509050615e4f565b6000806167786706f05b59d3b2000084616675565b9092509050600082600381111561678b57fe5b146167ad57506040805160208101909152600081529094509250615e4f915050565b6000806167c283670de0b6b3a7640000616a42565b909250905060008260038111156167d557fe5b146167dc57fe5b604080516020810190915290815260009a909950975050505050505050565b6000616805616acf565b60008061681a86670de0b6b3a7640000616a03565b9092509050600082600381111561682d57fe5b1461684c57506040805160208101909152600081529092509050615e4f565b6000806168598388616a42565b9092509050600082600381111561686c57fe5b1461688e57506040805160208101909152600081529094509250615e4f915050565b604080516020810190915290815260009890975095505050505050565b6000611e0583836040518060400160405280600e81526020016d646976696465206279207a65726f60901b815250616a6d565b600081848411156169305760405162461bcd60e51b815260206004820181815283516024840152835190928392604490910191908501908083836000831561637c578181015183820152602001616364565b505050900390565b6000831580616945575082155b1561695257506000611e05565b8383028385828161695f57fe5b041483906136405760405162461bcd60e51b815260206004820181815283516024840152835190928392604490910191908501908083836000831561637c578181015183820152602001616364565b600083830182858210156136405760405162461bcd60e51b815260206004820181815283516024840152835190928392604490910191908501908083836000831561637c578181015183820152602001616364565b60008083616a1657506000905080615e4f565b83830283858281616a2357fe5b0414616a3757506002915060009050615e4f565b600092509050615e4f565b60008082616a565750600190506000615e4f565b6000838581616a6157fe5b04915091509250929050565b60008183616abc5760405162461bcd60e51b815260206004820181815283516024840152835190928392604490910191908501908083836000831561637c578181015183820152602001616364565b50828481616ac657fe5b04949350505050565b6040518060200160405280600081525090565b8154818355818111156127f8576000838152602090206127f8918101908301616b70565b604051806101400160405280600081526020016000815260200160008152602001600081526020016000815260200160008152602001616b44616acf565b8152602001616b51616acf565b8152602001616b5e616acf565b8152602001616b6b616acf565b905290565b61206b91905b80821115616b8a5760008155600101616b76565b509056fe6f6e6c792061646d696e2063616e20756e70617573650000000000000000000070726f746f636f6c206973207061757365640000000000000000000000000000ef159d9a32b2472e32b098f954f3ce62d232939f1c207070b584df1814de2de06f6e6c792065787465726e616c6c79206f776e6564206163636f756e74732063616e6f6e6c7920706175736520677561726469616e20616e642061646d696e2063616ea265627a7a723158203f75cc4a4870249a7cb80cbbf24b997c79578f9ee5ba0dfe3b4a0e63fb42393164736f6c63430005100032",
  "linkReferences": {},
  "deployedLinkReferences": {}
}