{
  "_format": "hh-sol-artifact-1",
  "contractName": "ComptrollerV2Storage",
  "sourceName": "contracts/ComptrollerStorage.sol",
  "abi": [
    {
      "constant": true,
      "inputs": [
        {
          "internalType": "address",
          "name": "",
          "type": "address"
        },
        {
          "internalType": "uint256",
          "name": "",
          "type": "uint256"
        }
      ],
      "name": "accountAssets",
      "outputs": [
        {
          "internalType": "contract VToken",
          "name": "",
          "type": "address"
        }
      ],
      "payable": false,
      "stateMutability": "view",
      "type": "function"
    },
    {
      "constant": true,
      "inputs": [],
      "name": "admin",
      "outputs": [
        {
          "internalType": "address",
          "name": "",
          "type": "address"
        }
      ],
      "payable": false,
      "stateMutability": "view",
      "type": "function"
    },
    {
      "constant": true,
      "inputs": [
        {
          "internalType": "uint256",
          "name": "",
          "type": "uint256"
        }
      ],
      "name": "allMarkets",
      "outputs": [
        {
          "internalType": "contract VToken",
          "name": "",
          "type": "address"
        }
      ],
      "payable": false,
      "stateMutability": "view",
      "type": "function"
    },
    {
      "constant": true,
      "inputs": [],
      "name": "closeFactorMantissa",
      "outputs": [
        {
          "internalType": "uint256",
          "name": "",
          "type": "uint256"
        }
      ],
      "payable": false,
      "stateMutability": "view",
      "type": "function"
    },
    {
      "constant": true,
      "inputs": [],
      "name": "comptrollerImplementation",
      "outputs": [
        {
          "internalType": "address",
          "name": "",
          "type": "address"
        }
      ],
      "payable": false,
      "stateMutability": "view",
      "type": "function"
    },
    {
      "constant": true,
      "inputs": [],
      "name": "liquidationIncentiveMantissa",
      "outputs": [
        {
          "internalType": "uint256",
          "name": "",
          "type": "uint256"
        }
      ],
      "payable": false,
      "stateMutability": "view",
      "type": "function"
    },
    {
      "constant": true,
      "inputs": [
        {
          "internalType": "address",
          "name": "",
          "type": "address"
        }
      ],
      "name": "markets",
      "outputs": [
        {
          "internalType": "bool",
          "name": "isListed",
          "type": "bool"
        },
        {
          "internalType": "uint256",
          "name": "collateralFactorMantissa",
          "type": "uint256"
        },
        {
          "internalType": "bool",
          "name": "isVenus",
          "type": "bool"
        }
      ],
      "payable": false,
      "stateMutability": "view",
      "type": "function"
    },
    {
      "constant": true,
      "inputs": [],
      "name": "maxAssets",
      "outputs": [
        {
          "internalType": "uint256",
          "name": "",
          "type": "uint256"
        }
      ],
      "payable": false,
      "stateMutability": "view",
      "type": "function"
    },
    {
      "constant": true,
      "inputs": [],
      "name": "minReleaseAmount",
      "outputs": [
        {
          "internalType": "uint256",
          "name": "",
          "type": "uint256"
        }
      ],
      "payable": false,
      "stateMutability": "view",
      "type": "function"
    },
    {
      "constant": true,
      "inputs": [],
      "name": "mintVAIGuardianPaused",
      "outputs": [
        {
          "internalType": "bool",
          "name": "",
          "type": "bool"
        }
      ],
      "payable": false,
      "stateMutability": "view",
      "type": "function"
    },
    {
      "constant": true,
      "inputs": [
        {
          "internalType": "address",
          "name": "",
          "type": "address"
        }
      ],
      "name": "mintedVAIs",
      "outputs": [
        {
          "internalType": "uint256",
          "name": "",
          "type": "uint256"
        }
      ],
      "payable": false,
      "stateMutability": "view",
      "type": "function"
    },
    {
      "constant": true,
      "inputs": [],
      "name": "oracle",
      "outputs": [
        {
          "internalType": "contract PriceOracle",
          "name": "",
          "type": "address"
        }
      ],
      "payable": false,
      "stateMutability": "view",
      "type": "function"
    },
    {
      "constant": true,
      "inputs": [],
      "name": "pauseGuardian",
      "outputs": [
        {
          "internalType": "address",
          "name": "",
          "type": "address"
        }
      ],
      "payable": false,
      "stateMutability": "view",
      "type": "function"
    },
    {
      "constant": true,
      "inputs": [],
      "name": "pendingAdmin",
      "outputs": [
        {
          "internalType": "address",
          "name": "",
          "type": "address"
        }
      ],
      "payable": false,
      "stateMutability": "view",
      "type": "function"
    },
    {
      "constant": true,
      "inputs": [],
      "name": "pendingComptrollerImplementation",
      "outputs": [
        {
          "internalType": "address",
          "name": "",
          "type": "address"
        }
      ],
      "payable": false,
      "stateMutability": "view",
      "type": "function"
    },
    {
      "constant": true,
      "inputs": [],
      "name": "protocolPaused",
      "outputs": [
        {
          "internalType": "bool",
          "name": "",
          "type": "bool"
        }
      ],
      "payable": false,
      "stateMutability": "view",
      "type": "function"
    },
    {
      "constant": true,
      "inputs": [],
      "name": "releaseStartBlock",
      "outputs": [
        {
          "internalType": "uint256",
          "name": "",
          "type": "uint256"
        }
      ],
      "payable": false,
      "stateMutability": "view",
      "type": "function"
    },
    {
      "constant": true,
      "inputs": [],
      "name": "repayVAIGuardianPaused",
      "outputs": [
        {
          "internalType": "bool",
          "name": "",
          "type": "bool"
        }
      ],
      "payable": false,
      "stateMutability": "view",
      "type": "function"
    },
    {
      "constant": true,
      "inputs": [],
      "name": "vaiController",
      "outputs": [
        {
          "internalType": "contract VAIControllerInterface",
          "name": "",
          "type": "address"
        }
      ],
      "payable": false,
      "stateMutability": "view",
      "type": "function"
    },
    {
      "constant": true,
      "inputs": [],
      "name": "vaiMintRate",
      "outputs": [
        {
          "internalType": "uint256",
          "name": "",
          "type": "uint256"
        }
      ],
      "payable": false,
      "stateMutability": "view",
      "type": "function"
    },
    {
      "constant": true,
      "inputs": [],
      "name": "vaiVaultAddress",
      "outputs": [
        {
          "internalType": "address",
          "name": "",
          "type": "address"
        }
      ],
      "payable": false,
      "stateMutability": "view",
      "type": "function"
    },
    {
      "constant": true,
      "inputs": [
        {
          "internalType": "address",
          "name": "",
          "type": "address"
        }
      ],
      "name": "venusAccrued",
      "outputs": [
        {
          "internalType": "uint256",
          "name": "",
          "type": "uint256"
        }
      ],
      "payable": false,
      "stateMutability": "view",
      "type": "function"
    },
    {
      "constant": true,
      "inputs": [
        {
          "internalType": "address",
          "name": "",
          "type": "address"
        }
      ],
      "name": "venusBorrowState",
      "outputs": [
        {
          "internalType": "uint224",
          "name": "index",
          "type": "uint224"
        },
        {
          "internalType": "uint32",
          "name": "block",
          "type": "uint32"
        }
      ],
      "payable": false,
      "stateMutability": "view",
      "type": "function"
    },
    {
      "constant": true,
      "inputs": [
        {
          "internalType": "address",
          "name": "",
          "type": "address"
        },
        {
          "internalType": "address",
          "name": "",
          "type": "address"
        }
      ],
      "name": "venusBorrowerIndex",
      "outputs": [
        {
          "internalType": "uint256",
          "name": "",
          "type": "uint256"
        }
      ],
      "payable": false,
      "stateMutability": "view",
      "type": "function"
    },
    {
      "constant": true,
      "inputs": [],
      "name": "venusRate",
      "outputs": [
        {
          "internalType": "uint256",
          "name": "",
          "type": "uint256"
        }
      ],
      "payable": false,
      "stateMutability": "view",
      "type": "function"
    },
    {
      "constant": true,
      "inputs": [
        {
          "internalType": "address",
          "name": "",
          "type": "address"
        }
      ],
      "name": "venusSpeeds",
      "outputs": [
        {
          "internalType": "uint256",
          "name": "",
          "type": "uint256"
        }
      ],
      "payable": false,
      "stateMutability": "view",
      "type": "function"
    },
    {
      "constant": true,
      "inputs": [
        {
          "internalType": "address",
          "name": "",
          "type": "address"
        },
        {
          "internalType": "address",
          "name": "",
          "type": "address"
        }
      ],
      "name": "venusSupplierIndex",
      "outputs": [
        {
          "internalType": "uint256",
          "name": "",
          "type": "uint256"
        }
      ],
      "payable": false,
      "stateMutability": "view",
      "type": "function"
    },
    {
      "constant": true,
      "inputs": [
        {
          "internalType": "address",
          "name": "",
          "type": "address"
        }
      ],
      "name": "venusSupplyState",
      "outputs": [
        {
          "internalType": "uint224",
          "name": "index",
          "type": "uint224"
        },
        {
          "internalType": "uint32",
          "name": "block",
          "type": "uint32"
        }
      ],
      "payable": false,
      "stateMutability": "view",
      "type": "function"
    },
    {
      "constant": true,
      "inputs": [],
      "name": "venusVAIVaultRate",
      "outputs": [
        {
          "internalType": "uint256",
          "name": "",
          "type": "uint256"
        }
      ],
      "payable": false,
      "stateMutability": "view",
      "type": "function"
    }
  ],
  "bytecode": "0x608060405234801561001057600080fd5b506106ca806100206000396000f3fe608060405234801561001057600080fd5b50600436106101cf5760003560e01c80637dc0d1d011610104578063bb82aa5e116100a2578063e37d4b7911610071578063e37d4b7914610443578063e875544614610469578063f851a44014610471578063fa6331d814610479576101cf565b8063bb82aa5e146103ff578063bec04f7214610407578063dce154491461040f578063dcfbc0c71461043b576101cf565b80638e8f294b116100de5780638e8f294b146103595780639254f5e5146103a157806394b2294b146103a9578063b8324c7c146103b1576101cf565b80637dc0d1d014610323578063879c2e1d1461032b5780638a7dc16514610333576101cf565b806341a18d2c1161017157806352d84d1e1161014b57806352d84d1e146102ee578063719f701b1461030b57806376551383146103135780637d172bd51461031b576101cf565b806341a18d2c146102b0578063425fad58146102de5780634ada90af146102e6576101cf565b806324a3d622116101ad57806324a3d6221461024257806326782247146102665780632bc7e29e1461026e5780634088c73e14610294576101cf565b806308e0225c146101d45780630db4b4e5146102145780631abcaa771461021c575b600080fd5b610202600480360360408110156101ea57600080fd5b506001600160a01b0381358116916020013516610481565b60408051918252519081900360200190f35b61020261049e565b6102026004803603602081101561023257600080fd5b50356001600160a01b03166104a4565b61024a6104b6565b604080516001600160a01b039092168252519081900360200190f35b61024a6104c5565b6102026004803603602081101561028457600080fd5b50356001600160a01b03166104d4565b61029c6104e6565b604080519115158252519081900360200190f35b610202600480360360408110156102c657600080fd5b506001600160a01b03813581169160200135166104ef565b61029c61050c565b61020261051b565b61024a6004803603602081101561030457600080fd5b5035610521565b610202610548565b61029c61054e565b61024a61055c565b61024a61056b565b61020261057a565b6102026004803603602081101561034957600080fd5b50356001600160a01b0316610580565b61037f6004803603602081101561036f57600080fd5b50356001600160a01b0316610592565b6040805193151584526020840192909252151582820152519081900360600190f35b61024a6105b8565b6102026105c7565b6103d7600480360360208110156103c757600080fd5b50356001600160a01b03166105cd565b604080516001600160e01b03909316835263ffffffff90911660208301528051918290030190f35b61024a6105f7565b610202610606565b61024a6004803603604081101561042557600080fd5b506001600160a01b03813516906020013561060c565b61024a610641565b6103d76004803603602081101561045957600080fd5b50356001600160a01b0316610650565b61020261067a565b61024a610680565b61020261068f565b601360209081526000928352604080842090915290825290205481565b601d5481565b600f6020526000908152604090205481565b600a546001600160a01b031681565b6001546001600160a01b031681565b60166020526000908152604090205481565b60185460ff1681565b601260209081526000928352604080842090915290825290205481565b60185462010000900460ff1681565b60065481565b600d818154811061052e57fe5b6000918252602090912001546001600160a01b0316905081565b601c5481565b601854610100900460ff1681565b601b546001600160a01b031681565b6004546001600160a01b031681565b600e5481565b60146020526000908152604090205481565b60096020526000908152604090208054600182015460039092015460ff91821692911683565b6015546001600160a01b031681565b60075481565b6010602052600090815260409020546001600160e01b03811690600160e01b900463ffffffff1682565b6002546001600160a01b031681565b60175481565b6008602052816000526040600020818154811061062557fe5b6000918252602090912001546001600160a01b03169150829050565b6003546001600160a01b031681565b6011602052600090815260409020546001600160e01b03811690600160e01b900463ffffffff1682565b60055481565b6000546001600160a01b031681565b601a548156fea265627a7a72315820d1613c10ffb68dbc8c77926cfaed3b484efbf65281f51339f28a075fbc1babdc64736f6c63430005100032",
  "linkReferences": {},
  "deployedLinkReferences": {}
}