{
  "_format": "hh-sol-artifact-1",
  "contractName": "ComptrollerScenarioG4",
  "sourceName": "contracts/test/ComptrollerScenarioG4.sol",
  "abi": [
    {
      "inputs": [],
      "payable": false,
      "stateMutability": "nonpayable",
      "type": "constructor"
    },
    {
      "anonymous": false,
      "inputs": [
        {
          "indexed": false,
          "internalType": "string",
          "name": "action",
          "type": "string"
        },
        {
          "indexed": false,
          "internalType": "bool",
          "name": "pauseState",
          "type": "bool"
        }
      ],
      "name": "ActionPaused",
      "type": "event"
    },
    {
      "anonymous": false,
      "inputs": [
        {
          "indexed": false,
          "internalType": "contract VToken",
          "name": "vToken",
          "type": "address"
        },
        {
          "indexed": false,
          "internalType": "string",
          "name": "action",
          "type": "string"
        },
        {
          "indexed": false,
          "internalType": "bool",
          "name": "pauseState",
          "type": "bool"
        }
      ],
      "name": "ActionPaused",
      "type": "event"
    },
    {
      "anonymous": false,
      "inputs": [
        {
          "indexed": false,
          "internalType": "bool",
          "name": "state",
          "type": "bool"
        }
      ],
      "name": "ActionProtocolPaused",
      "type": "event"
    },
    {
      "anonymous": false,
      "inputs": [
        {
          "indexed": true,
          "internalType": "contract VToken",
          "name": "vToken",
          "type": "address"
        },
        {
          "indexed": true,
          "internalType": "address",
          "name": "borrower",
          "type": "address"
        },
        {
          "indexed": false,
          "internalType": "uint256",
          "name": "venusDelta",
          "type": "uint256"
        },
        {
          "indexed": false,
          "internalType": "uint256",
          "name": "venusBorrowIndex",
          "type": "uint256"
        }
      ],
      "name": "DistributedBorrowerVenus",
      "type": "event"
    },
    {
      "anonymous": false,
      "inputs": [
        {
          "indexed": true,
          "internalType": "contract VToken",
          "name": "vToken",
          "type": "address"
        },
        {
          "indexed": true,
          "internalType": "address",
          "name": "supplier",
          "type": "address"
        },
        {
          "indexed": false,
          "internalType": "uint256",
          "name": "venusDelta",
          "type": "uint256"
        },
        {
          "indexed": false,
          "internalType": "uint256",
          "name": "venusSupplyIndex",
          "type": "uint256"
        }
      ],
      "name": "DistributedSupplierVenus",
      "type": "event"
    },
    {
      "anonymous": false,
      "inputs": [
        {
          "indexed": true,
          "internalType": "address",
          "name": "vaiMinter",
          "type": "address"
        },
        {
          "indexed": false,
          "internalType": "uint256",
          "name": "venusDelta",
          "type": "uint256"
        },
        {
          "indexed": false,
          "internalType": "uint256",
          "name": "venusVAIMintIndex",
          "type": "uint256"
        }
      ],
      "name": "DistributedVAIMinterVenus",
      "type": "event"
    },
    {
      "anonymous": false,
      "inputs": [
        {
          "indexed": false,
          "internalType": "uint256",
          "name": "amount",
          "type": "uint256"
        }
      ],
      "name": "DistributedVAIVaultVenus",
      "type": "event"
    },
    {
      "anonymous": false,
      "inputs": [
        {
          "indexed": false,
          "internalType": "uint256",
          "name": "error",
          "type": "uint256"
        },
        {
          "indexed": false,
          "internalType": "uint256",
          "name": "info",
          "type": "uint256"
        },
        {
          "indexed": false,
          "internalType": "uint256",
          "name": "detail",
          "type": "uint256"
        }
      ],
      "name": "Failure",
      "type": "event"
    },
    {
      "anonymous": false,
      "inputs": [
        {
          "indexed": false,
          "internalType": "contract VToken",
          "name": "vToken",
          "type": "address"
        },
        {
          "indexed": false,
          "internalType": "address",
          "name": "account",
          "type": "address"
        }
      ],
      "name": "MarketEntered",
      "type": "event"
    },
    {
      "anonymous": false,
      "inputs": [
        {
          "indexed": false,
          "internalType": "contract VToken",
          "name": "vToken",
          "type": "address"
        },
        {
          "indexed": false,
          "internalType": "address",
          "name": "account",
          "type": "address"
        }
      ],
      "name": "MarketExited",
      "type": "event"
    },
    {
      "anonymous": false,
      "inputs": [
        {
          "indexed": false,
          "internalType": "contract VToken",
          "name": "vToken",
          "type": "address"
        }
      ],
      "name": "MarketListed",
      "type": "event"
    },
    {
      "anonymous": false,
      "inputs": [
        {
          "indexed": true,
          "internalType": "contract VToken",
          "name": "vToken",
          "type": "address"
        },
        {
          "indexed": false,
          "internalType": "uint256",
          "name": "newBorrowCap",
          "type": "uint256"
        }
      ],
      "name": "NewBorrowCap",
      "type": "event"
    },
    {
      "anonymous": false,
      "inputs": [
        {
          "indexed": false,
          "internalType": "address",
          "name": "oldBorrowCapGuardian",
          "type": "address"
        },
        {
          "indexed": false,
          "internalType": "address",
          "name": "newBorrowCapGuardian",
          "type": "address"
        }
      ],
      "name": "NewBorrowCapGuardian",
      "type": "event"
    },
    {
      "anonymous": false,
      "inputs": [
        {
          "indexed": false,
          "internalType": "uint256",
          "name": "oldCloseFactorMantissa",
          "type": "uint256"
        },
        {
          "indexed": false,
          "internalType": "uint256",
          "name": "newCloseFactorMantissa",
          "type": "uint256"
        }
      ],
      "name": "NewCloseFactor",
      "type": "event"
    },
    {
      "anonymous": false,
      "inputs": [
        {
          "indexed": false,
          "internalType": "contract VToken",
          "name": "vToken",
          "type": "address"
        },
        {
          "indexed": false,
          "internalType": "uint256",
          "name": "oldCollateralFactorMantissa",
          "type": "uint256"
        },
        {
          "indexed": false,
          "internalType": "uint256",
          "name": "newCollateralFactorMantissa",
          "type": "uint256"
        }
      ],
      "name": "NewCollateralFactor",
      "type": "event"
    },
    {
      "anonymous": false,
      "inputs": [
        {
          "indexed": false,
          "internalType": "uint256",
          "name": "oldLiquidationIncentiveMantissa",
          "type": "uint256"
        },
        {
          "indexed": false,
          "internalType": "uint256",
          "name": "newLiquidationIncentiveMantissa",
          "type": "uint256"
        }
      ],
      "name": "NewLiquidationIncentive",
      "type": "event"
    },
    {
      "anonymous": false,
      "inputs": [
        {
          "indexed": false,
          "internalType": "address",
          "name": "oldPauseGuardian",
          "type": "address"
        },
        {
          "indexed": false,
          "internalType": "address",
          "name": "newPauseGuardian",
          "type": "address"
        }
      ],
      "name": "NewPauseGuardian",
      "type": "event"
    },
    {
      "anonymous": false,
      "inputs": [
        {
          "indexed": false,
          "internalType": "contract PriceOracle",
          "name": "oldPriceOracle",
          "type": "address"
        },
        {
          "indexed": false,
          "internalType": "contract PriceOracle",
          "name": "newPriceOracle",
          "type": "address"
        }
      ],
      "name": "NewPriceOracle",
      "type": "event"
    },
    {
      "anonymous": false,
      "inputs": [
        {
          "indexed": false,
          "internalType": "address",
          "name": "oldTreasuryAddress",
          "type": "address"
        },
        {
          "indexed": false,
          "internalType": "address",
          "name": "newTreasuryAddress",
          "type": "address"
        }
      ],
      "name": "NewTreasuryAddress",
      "type": "event"
    },
    {
      "anonymous": false,
      "inputs": [
        {
          "indexed": false,
          "internalType": "address",
          "name": "oldTreasuryGuardian",
          "type": "address"
        },
        {
          "indexed": false,
          "internalType": "address",
          "name": "newTreasuryGuardian",
          "type": "address"
        }
      ],
      "name": "NewTreasuryGuardian",
      "type": "event"
    },
    {
      "anonymous": false,
      "inputs": [
        {
          "indexed": false,
          "internalType": "uint256",
          "name": "oldTreasuryPercent",
          "type": "uint256"
        },
        {
          "indexed": false,
          "internalType": "uint256",
          "name": "newTreasuryPercent",
          "type": "uint256"
        }
      ],
      "name": "NewTreasuryPercent",
      "type": "event"
    },
    {
      "anonymous": false,
      "inputs": [
        {
          "indexed": false,
          "internalType": "contract VAIControllerInterface",
          "name": "oldVAIController",
          "type": "address"
        },
        {
          "indexed": false,
          "internalType": "contract VAIControllerInterface",
          "name": "newVAIController",
          "type": "address"
        }
      ],
      "name": "NewVAIController",
      "type": "event"
    },
    {
      "anonymous": false,
      "inputs": [
        {
          "indexed": false,
          "internalType": "uint256",
          "name": "oldVAIMintRate",
          "type": "uint256"
        },
        {
          "indexed": false,
          "internalType": "uint256",
          "name": "newVAIMintRate",
          "type": "uint256"
        }
      ],
      "name": "NewVAIMintRate",
      "type": "event"
    },
    {
      "anonymous": false,
      "inputs": [
        {
          "indexed": false,
          "internalType": "address",
          "name": "vault_",
          "type": "address"
        },
        {
          "indexed": false,
          "internalType": "uint256",
          "name": "releaseStartBlock_",
          "type": "uint256"
        },
        {
          "indexed": false,
          "internalType": "uint256",
          "name": "releaseInterval_",
          "type": "uint256"
        }
      ],
      "name": "NewVAIVaultInfo",
      "type": "event"
    },
    {
      "anonymous": false,
      "inputs": [
        {
          "indexed": false,
          "internalType": "uint256",
          "name": "oldVenusVAIVaultRate",
          "type": "uint256"
        },
        {
          "indexed": false,
          "internalType": "uint256",
          "name": "newVenusVAIVaultRate",
          "type": "uint256"
        }
      ],
      "name": "NewVenusVAIVaultRate",
      "type": "event"
    },
    {
      "anonymous": false,
      "inputs": [
        {
          "indexed": true,
          "internalType": "contract VToken",
          "name": "vToken",
          "type": "address"
        },
        {
          "indexed": false,
          "internalType": "uint256",
          "name": "newSpeed",
          "type": "uint256"
        }
      ],
      "name": "VenusSpeedUpdated",
      "type": "event"
    },
    {
      "constant": false,
      "inputs": [
        {
          "internalType": "contract Unitroller",
          "name": "unitroller",
          "type": "address"
        }
      ],
      "name": "_become",
      "outputs": [],
      "payable": false,
      "stateMutability": "nonpayable",
      "type": "function"
    },
    {
      "constant": false,
      "inputs": [
        {
          "internalType": "address",
          "name": "newBorrowCapGuardian",
          "type": "address"
        }
      ],
      "name": "_setBorrowCapGuardian",
      "outputs": [],
      "payable": false,
      "stateMutability": "nonpayable",
      "type": "function"
    },
    {
      "constant": false,
      "inputs": [
        {
          "internalType": "uint256",
          "name": "newCloseFactorMantissa",
          "type": "uint256"
        }
      ],
      "name": "_setCloseFactor",
      "outputs": [
        {
          "internalType": "uint256",
          "name": "",
          "type": "uint256"
        }
      ],
      "payable": false,
      "stateMutability": "nonpayable",
      "type": "function"
    },
    {
      "constant": false,
      "inputs": [
        {
          "internalType": "contract VToken",
          "name": "vToken",
          "type": "address"
        },
        {
          "internalType": "uint256",
          "name": "newCollateralFactorMantissa",
          "type": "uint256"
        }
      ],
      "name": "_setCollateralFactor",
      "outputs": [
        {
          "internalType": "uint256",
          "name": "",
          "type": "uint256"
        }
      ],
      "payable": false,
      "stateMutability": "nonpayable",
      "type": "function"
    },
    {
      "constant": false,
      "inputs": [
        {
          "internalType": "uint256",
          "name": "newLiquidationIncentiveMantissa",
          "type": "uint256"
        }
      ],
      "name": "_setLiquidationIncentive",
      "outputs": [
        {
          "internalType": "uint256",
          "name": "",
          "type": "uint256"
        }
      ],
      "payable": false,
      "stateMutability": "nonpayable",
      "type": "function"
    },
    {
      "constant": false,
      "inputs": [
        {
          "internalType": "contract VToken[]",
          "name": "vTokens",
          "type": "address[]"
        },
        {
          "internalType": "uint256[]",
          "name": "newBorrowCaps",
          "type": "uint256[]"
        }
      ],
      "name": "_setMarketBorrowCaps",
      "outputs": [],
      "payable": false,
      "stateMutability": "nonpayable",
      "type": "function"
    },
    {
      "constant": false,
      "inputs": [
        {
          "internalType": "address",
          "name": "newPauseGuardian",
          "type": "address"
        }
      ],
      "name": "_setPauseGuardian",
      "outputs": [
        {
          "internalType": "uint256",
          "name": "",
          "type": "uint256"
        }
      ],
      "payable": false,
      "stateMutability": "nonpayable",
      "type": "function"
    },
    {
      "constant": false,
      "inputs": [
        {
          "internalType": "contract PriceOracle",
          "name": "newOracle",
          "type": "address"
        }
      ],
      "name": "_setPriceOracle",
      "outputs": [
        {
          "internalType": "uint256",
          "name": "",
          "type": "uint256"
        }
      ],
      "payable": false,
      "stateMutability": "nonpayable",
      "type": "function"
    },
    {
      "constant": false,
      "inputs": [
        {
          "internalType": "bool",
          "name": "state",
          "type": "bool"
        }
      ],
      "name": "_setProtocolPaused",
      "outputs": [
        {
          "internalType": "bool",
          "name": "",
          "type": "bool"
        }
      ],
      "payable": false,
      "stateMutability": "nonpayable",
      "type": "function"
    },
    {
      "constant": false,
      "inputs": [
        {
          "internalType": "address",
          "name": "newTreasuryGuardian",
          "type": "address"
        },
        {
          "internalType": "address",
          "name": "newTreasuryAddress",
          "type": "address"
        },
        {
          "internalType": "uint256",
          "name": "newTreasuryPercent",
          "type": "uint256"
        }
      ],
      "name": "_setTreasuryData",
      "outputs": [
        {
          "internalType": "uint256",
          "name": "",
          "type": "uint256"
        }
      ],
      "payable": false,
      "stateMutability": "nonpayable",
      "type": "function"
    },
    {
      "constant": false,
      "inputs": [
        {
          "internalType": "contract VAIControllerInterface",
          "name": "vaiController_",
          "type": "address"
        }
      ],
      "name": "_setVAIController",
      "outputs": [
        {
          "internalType": "uint256",
          "name": "",
          "type": "uint256"
        }
      ],
      "payable": false,
      "stateMutability": "nonpayable",
      "type": "function"
    },
    {
      "constant": false,
      "inputs": [
        {
          "internalType": "uint256",
          "name": "newVAIMintRate",
          "type": "uint256"
        }
      ],
      "name": "_setVAIMintRate",
      "outputs": [
        {
          "internalType": "uint256",
          "name": "",
          "type": "uint256"
        }
      ],
      "payable": false,
      "stateMutability": "nonpayable",
      "type": "function"
    },
    {
      "constant": false,
      "inputs": [
        {
          "internalType": "address",
          "name": "vault_",
          "type": "address"
        },
        {
          "internalType": "uint256",
          "name": "releaseStartBlock_",
          "type": "uint256"
        },
        {
          "internalType": "uint256",
          "name": "minReleaseAmount_",
          "type": "uint256"
        }
      ],
      "name": "_setVAIVaultInfo",
      "outputs": [],
      "payable": false,
      "stateMutability": "nonpayable",
      "type": "function"
    },
    {
      "constant": false,
      "inputs": [
        {
          "internalType": "contract VToken",
          "name": "vToken",
          "type": "address"
        },
        {
          "internalType": "uint256",
          "name": "venusSpeed",
          "type": "uint256"
        }
      ],
      "name": "_setVenusSpeed",
      "outputs": [],
      "payable": false,
      "stateMutability": "nonpayable",
      "type": "function"
    },
    {
      "constant": false,
      "inputs": [
        {
          "internalType": "uint256",
          "name": "venusVAIVaultRate_",
          "type": "uint256"
        }
      ],
      "name": "_setVenusVAIVaultRate",
      "outputs": [],
      "payable": false,
      "stateMutability": "nonpayable",
      "type": "function"
    },
    {
      "constant": false,
      "inputs": [
        {
          "internalType": "contract VToken",
          "name": "vToken",
          "type": "address"
        }
      ],
      "name": "_supportMarket",
      "outputs": [
        {
          "internalType": "uint256",
          "name": "",
          "type": "uint256"
        }
      ],
      "payable": false,
      "stateMutability": "nonpayable",
      "type": "function"
    },
    {
      "constant": true,
      "inputs": [
        {
          "internalType": "address",
          "name": "",
          "type": "address"
        },
        {
          "internalType": "uint256",
          "name": "",
          "type": "uint256"
        }
      ],
      "name": "accountAssets",
      "outputs": [
        {
          "internalType": "contract VToken",
          "name": "",
          "type": "address"
        }
      ],
      "payable": false,
      "stateMutability": "view",
      "type": "function"
    },
    {
      "constant": true,
      "inputs": [],
      "name": "admin",
      "outputs": [
        {
          "internalType": "address",
          "name": "",
          "type": "address"
        }
      ],
      "payable": false,
      "stateMutability": "view",
      "type": "function"
    },
    {
      "constant": true,
      "inputs": [
        {
          "internalType": "uint256",
          "name": "",
          "type": "uint256"
        }
      ],
      "name": "allMarkets",
      "outputs": [
        {
          "internalType": "contract VToken",
          "name": "",
          "type": "address"
        }
      ],
      "payable": false,
      "stateMutability": "view",
      "type": "function"
    },
    {
      "constant": true,
      "inputs": [],
      "name": "blockNumber",
      "outputs": [
        {
          "internalType": "uint256",
          "name": "",
          "type": "uint256"
        }
      ],
      "payable": false,
      "stateMutability": "view",
      "type": "function"
    },
    {
      "constant": false,
      "inputs": [
        {
          "internalType": "address",
          "name": "vToken",
          "type": "address"
        },
        {
          "internalType": "address",
          "name": "borrower",
          "type": "address"
        },
        {
          "internalType": "uint256",
          "name": "borrowAmount",
          "type": "uint256"
        }
      ],
      "name": "borrowAllowed",
      "outputs": [
        {
          "internalType": "uint256",
          "name": "",
          "type": "uint256"
        }
      ],
      "payable": false,
      "stateMutability": "nonpayable",
      "type": "function"
    },
    {
      "constant": true,
      "inputs": [],
      "name": "borrowCapGuardian",
      "outputs": [
        {
          "internalType": "address",
          "name": "",
          "type": "address"
        }
      ],
      "payable": false,
      "stateMutability": "view",
      "type": "function"
    },
    {
      "constant": true,
      "inputs": [
        {
          "internalType": "address",
          "name": "",
          "type": "address"
        }
      ],
      "name": "borrowCaps",
      "outputs": [
        {
          "internalType": "uint256",
          "name": "",
          "type": "uint256"
        }
      ],
      "payable": false,
      "stateMutability": "view",
      "type": "function"
    },
    {
      "constant": false,
      "inputs": [
        {
          "internalType": "address",
          "name": "vToken",
          "type": "address"
        },
        {
          "internalType": "address",
          "name": "borrower",
          "type": "address"
        },
        {
          "internalType": "uint256",
          "name": "borrowAmount",
          "type": "uint256"
        }
      ],
      "name": "borrowVerify",
      "outputs": [],
      "payable": false,
      "stateMutability": "nonpayable",
      "type": "function"
    },
    {
      "constant": true,
      "inputs": [
        {
          "internalType": "address",
          "name": "account",
          "type": "address"
        },
        {
          "internalType": "contract VToken",
          "name": "vToken",
          "type": "address"
        }
      ],
      "name": "checkMembership",
      "outputs": [
        {
          "internalType": "bool",
          "name": "",
          "type": "bool"
        }
      ],
      "payable": false,
      "stateMutability": "view",
      "type": "function"
    },
    {
      "constant": false,
      "inputs": [
        {
          "internalType": "address",
          "name": "holder",
          "type": "address"
        },
        {
          "internalType": "contract VToken[]",
          "name": "vTokens",
          "type": "address[]"
        }
      ],
      "name": "claimVenus",
      "outputs": [],
      "payable": false,
      "stateMutability": "nonpayable",
      "type": "function"
    },
    {
      "constant": false,
      "inputs": [
        {
          "internalType": "address",
          "name": "holder",
          "type": "address"
        }
      ],
      "name": "claimVenus",
      "outputs": [],
      "payable": false,
      "stateMutability": "nonpayable",
      "type": "function"
    },
    {
      "constant": false,
      "inputs": [
        {
          "internalType": "address[]",
          "name": "holders",
          "type": "address[]"
        },
        {
          "internalType": "contract VToken[]",
          "name": "vTokens",
          "type": "address[]"
        },
        {
          "internalType": "bool",
          "name": "borrowers",
          "type": "bool"
        },
        {
          "internalType": "bool",
          "name": "suppliers",
          "type": "bool"
        }
      ],
      "name": "claimVenus",
      "outputs": [],
      "payable": false,
      "stateMutability": "nonpayable",
      "type": "function"
    },
    {
      "constant": true,
      "inputs": [],
      "name": "closeFactorMantissa",
      "outputs": [
        {
          "internalType": "uint256",
          "name": "",
          "type": "uint256"
        }
      ],
      "payable": false,
      "stateMutability": "view",
      "type": "function"
    },
    {
      "constant": true,
      "inputs": [],
      "name": "comptrollerImplementation",
      "outputs": [
        {
          "internalType": "address",
          "name": "",
          "type": "address"
        }
      ],
      "payable": false,
      "stateMutability": "view",
      "type": "function"
    },
    {
      "constant": false,
      "inputs": [
        {
          "internalType": "address",
          "name": "vaiMinter",
          "type": "address"
        }
      ],
      "name": "distributeVAIMinterVenus",
      "outputs": [],
      "payable": false,
      "stateMutability": "nonpayable",
      "type": "function"
    },
    {
      "constant": false,
      "inputs": [
        {
          "internalType": "address[]",
          "name": "vTokens",
          "type": "address[]"
        }
      ],
      "name": "enterMarkets",
      "outputs": [
        {
          "internalType": "uint256[]",
          "name": "",
          "type": "uint256[]"
        }
      ],
      "payable": false,
      "stateMutability": "nonpayable",
      "type": "function"
    },
    {
      "constant": false,
      "inputs": [
        {
          "internalType": "address",
          "name": "vTokenAddress",
          "type": "address"
        }
      ],
      "name": "exitMarket",
      "outputs": [
        {
          "internalType": "uint256",
          "name": "",
          "type": "uint256"
        }
      ],
      "payable": false,
      "stateMutability": "nonpayable",
      "type": "function"
    },
    {
      "constant": false,
      "inputs": [
        {
          "internalType": "uint256",
          "name": "blocks",
          "type": "uint256"
        }
      ],
      "name": "fastForward",
      "outputs": [
        {
          "internalType": "uint256",
          "name": "",
          "type": "uint256"
        }
      ],
      "payable": false,
      "stateMutability": "nonpayable",
      "type": "function"
    },
    {
      "constant": true,
      "inputs": [
        {
          "internalType": "address",
          "name": "account",
          "type": "address"
        }
      ],
      "name": "getAccountLiquidity",
      "outputs": [
        {
          "internalType": "uint256",
          "name": "",
          "type": "uint256"
        },
        {
          "internalType": "uint256",
          "name": "",
          "type": "uint256"
        },
        {
          "internalType": "uint256",
          "name": "",
          "type": "uint256"
        }
      ],
      "payable": false,
      "stateMutability": "view",
      "type": "function"
    },
    {
      "constant": true,
      "inputs": [],
      "name": "getAllMarkets",
      "outputs": [
        {
          "internalType": "contract VToken[]",
          "name": "",
          "type": "address[]"
        }
      ],
      "payable": false,
      "stateMutability": "view",
      "type": "function"
    },
    {
      "constant": true,
      "inputs": [
        {
          "internalType": "address",
          "name": "account",
          "type": "address"
        }
      ],
      "name": "getAssetsIn",
      "outputs": [
        {
          "internalType": "contract VToken[]",
          "name": "",
          "type": "address[]"
        }
      ],
      "payable": false,
      "stateMutability": "view",
      "type": "function"
    },
    {
      "constant": true,
      "inputs": [],
      "name": "getBlockNumber",
      "outputs": [
        {
          "internalType": "uint256",
          "name": "",
          "type": "uint256"
        }
      ],
      "payable": false,
      "stateMutability": "view",
      "type": "function"
    },
    {
      "constant": true,
      "inputs": [
        {
          "internalType": "address",
          "name": "account",
          "type": "address"
        },
        {
          "internalType": "address",
          "name": "vTokenModify",
          "type": "address"
        },
        {
          "internalType": "uint256",
          "name": "redeemTokens",
          "type": "uint256"
        },
        {
          "internalType": "uint256",
          "name": "borrowAmount",
          "type": "uint256"
        }
      ],
      "name": "getHypotheticalAccountLiquidity",
      "outputs": [
        {
          "internalType": "uint256",
          "name": "",
          "type": "uint256"
        },
        {
          "internalType": "uint256",
          "name": "",
          "type": "uint256"
        },
        {
          "internalType": "uint256",
          "name": "",
          "type": "uint256"
        }
      ],
      "payable": false,
      "stateMutability": "view",
      "type": "function"
    },
    {
      "constant": true,
      "inputs": [],
      "name": "getXVSAddress",
      "outputs": [
        {
          "internalType": "address",
          "name": "",
          "type": "address"
        }
      ],
      "payable": false,
      "stateMutability": "view",
      "type": "function"
    },
    {
      "constant": true,
      "inputs": [],
      "name": "isComptroller",
      "outputs": [
        {
          "internalType": "bool",
          "name": "",
          "type": "bool"
        }
      ],
      "payable": false,
      "stateMutability": "view",
      "type": "function"
    },
    {
      "constant": false,
      "inputs": [
        {
          "internalType": "address",
          "name": "vTokenBorrowed",
          "type": "address"
        },
        {
          "internalType": "address",
          "name": "vTokenCollateral",
          "type": "address"
        },
        {
          "internalType": "address",
          "name": "liquidator",
          "type": "address"
        },
        {
          "internalType": "address",
          "name": "borrower",
          "type": "address"
        },
        {
          "internalType": "uint256",
          "name": "repayAmount",
          "type": "uint256"
        }
      ],
      "name": "liquidateBorrowAllowed",
      "outputs": [
        {
          "internalType": "uint256",
          "name": "",
          "type": "uint256"
        }
      ],
      "payable": false,
      "stateMutability": "nonpayable",
      "type": "function"
    },
    {
      "constant": false,
      "inputs": [
        {
          "internalType": "address",
          "name": "vTokenBorrowed",
          "type": "address"
        },
        {
          "internalType": "address",
          "name": "vTokenCollateral",
          "type": "address"
        },
        {
          "internalType": "address",
          "name": "liquidator",
          "type": "address"
        },
        {
          "internalType": "address",
          "name": "borrower",
          "type": "address"
        },
        {
          "internalType": "uint256",
          "name": "actualRepayAmount",
          "type": "uint256"
        },
        {
          "internalType": "uint256",
          "name": "seizeTokens",
          "type": "uint256"
        }
      ],
      "name": "liquidateBorrowVerify",
      "outputs": [],
      "payable": false,
      "stateMutability": "nonpayable",
      "type": "function"
    },
    {
      "constant": true,
      "inputs": [
        {
          "internalType": "address",
          "name": "vTokenBorrowed",
          "type": "address"
        },
        {
          "internalType": "address",
          "name": "vTokenCollateral",
          "type": "address"
        },
        {
          "internalType": "uint256",
          "name": "actualRepayAmount",
          "type": "uint256"
        }
      ],
      "name": "liquidateCalculateSeizeTokens",
      "outputs": [
        {
          "internalType": "uint256",
          "name": "",
          "type": "uint256"
        },
        {
          "internalType": "uint256",
          "name": "",
          "type": "uint256"
        }
      ],
      "payable": false,
      "stateMutability": "view",
      "type": "function"
    },
    {
      "constant": true,
      "inputs": [
        {
          "internalType": "address",
          "name": "vTokenCollateral",
          "type": "address"
        },
        {
          "internalType": "uint256",
          "name": "actualRepayAmount",
          "type": "uint256"
        }
      ],
      "name": "liquidateVAICalculateSeizeTokens",
      "outputs": [
        {
          "internalType": "uint256",
          "name": "",
          "type": "uint256"
        },
        {
          "internalType": "uint256",
          "name": "",
          "type": "uint256"
        }
      ],
      "payable": false,
      "stateMutability": "view",
      "type": "function"
    },
    {
      "constant": true,
      "inputs": [],
      "name": "liquidationIncentiveMantissa",
      "outputs": [
        {
          "internalType": "uint256",
          "name": "",
          "type": "uint256"
        }
      ],
      "payable": false,
      "stateMutability": "view",
      "type": "function"
    },
    {
      "constant": true,
      "inputs": [
        {
          "internalType": "address",
          "name": "",
          "type": "address"
        }
      ],
      "name": "markets",
      "outputs": [
        {
          "internalType": "bool",
          "name": "isListed",
          "type": "bool"
        },
        {
          "internalType": "uint256",
          "name": "collateralFactorMantissa",
          "type": "uint256"
        },
        {
          "internalType": "bool",
          "name": "isVenus",
          "type": "bool"
        }
      ],
      "payable": false,
      "stateMutability": "view",
      "type": "function"
    },
    {
      "constant": true,
      "inputs": [],
      "name": "maxAssets",
      "outputs": [
        {
          "internalType": "uint256",
          "name": "",
          "type": "uint256"
        }
      ],
      "payable": false,
      "stateMutability": "view",
      "type": "function"
    },
    {
      "constant": true,
      "inputs": [
        {
          "internalType": "contract VToken",
          "name": "vToken",
          "type": "address"
        }
      ],
      "name": "membershipLength",
      "outputs": [
        {
          "internalType": "uint256",
          "name": "",
          "type": "uint256"
        }
      ],
      "payable": false,
      "stateMutability": "view",
      "type": "function"
    },
    {
      "constant": true,
      "inputs": [],
      "name": "minReleaseAmount",
      "outputs": [
        {
          "internalType": "uint256",
          "name": "",
          "type": "uint256"
        }
      ],
      "payable": false,
      "stateMutability": "view",
      "type": "function"
    },
    {
      "constant": false,
      "inputs": [
        {
          "internalType": "address",
          "name": "vToken",
          "type": "address"
        },
        {
          "internalType": "address",
          "name": "minter",
          "type": "address"
        },
        {
          "internalType": "uint256",
          "name": "mintAmount",
          "type": "uint256"
        }
      ],
      "name": "mintAllowed",
      "outputs": [
        {
          "internalType": "uint256",
          "name": "",
          "type": "uint256"
        }
      ],
      "payable": false,
      "stateMutability": "nonpayable",
      "type": "function"
    },
    {
      "constant": true,
      "inputs": [],
      "name": "mintVAIGuardianPaused",
      "outputs": [
        {
          "internalType": "bool",
          "name": "",
          "type": "bool"
        }
      ],
      "payable": false,
      "stateMutability": "view",
      "type": "function"
    },
    {
      "constant": false,
      "inputs": [
        {
          "internalType": "address",
          "name": "vToken",
          "type": "address"
        },
        {
          "internalType": "address",
          "name": "minter",
          "type": "address"
        },
        {
          "internalType": "uint256",
          "name": "actualMintAmount",
          "type": "uint256"
        },
        {
          "internalType": "uint256",
          "name": "mintTokens",
          "type": "uint256"
        }
      ],
      "name": "mintVerify",
      "outputs": [],
      "payable": false,
      "stateMutability": "nonpayable",
      "type": "function"
    },
    {
      "constant": true,
      "inputs": [
        {
          "internalType": "address",
          "name": "",
          "type": "address"
        }
      ],
      "name": "mintedVAIs",
      "outputs": [
        {
          "internalType": "uint256",
          "name": "",
          "type": "uint256"
        }
      ],
      "payable": false,
      "stateMutability": "view",
      "type": "function"
    },
    {
      "constant": true,
      "inputs": [],
      "name": "oracle",
      "outputs": [
        {
          "internalType": "contract PriceOracle",
          "name": "",
          "type": "address"
        }
      ],
      "payable": false,
      "stateMutability": "view",
      "type": "function"
    },
    {
      "constant": true,
      "inputs": [],
      "name": "pauseGuardian",
      "outputs": [
        {
          "internalType": "address",
          "name": "",
          "type": "address"
        }
      ],
      "payable": false,
      "stateMutability": "view",
      "type": "function"
    },
    {
      "constant": true,
      "inputs": [],
      "name": "pendingAdmin",
      "outputs": [
        {
          "internalType": "address",
          "name": "",
          "type": "address"
        }
      ],
      "payable": false,
      "stateMutability": "view",
      "type": "function"
    },
    {
      "constant": true,
      "inputs": [],
      "name": "pendingComptrollerImplementation",
      "outputs": [
        {
          "internalType": "address",
          "name": "",
          "type": "address"
        }
      ],
      "payable": false,
      "stateMutability": "view",
      "type": "function"
    },
    {
      "constant": true,
      "inputs": [],
      "name": "protocolPaused",
      "outputs": [
        {
          "internalType": "bool",
          "name": "",
          "type": "bool"
        }
      ],
      "payable": false,
      "stateMutability": "view",
      "type": "function"
    },
    {
      "constant": false,
      "inputs": [
        {
          "internalType": "address",
          "name": "vToken",
          "type": "address"
        },
        {
          "internalType": "address",
          "name": "redeemer",
          "type": "address"
        },
        {
          "internalType": "uint256",
          "name": "redeemTokens",
          "type": "uint256"
        }
      ],
      "name": "redeemAllowed",
      "outputs": [
        {
          "internalType": "uint256",
          "name": "",
          "type": "uint256"
        }
      ],
      "payable": false,
      "stateMutability": "nonpayable",
      "type": "function"
    },
    {
      "constant": false,
      "inputs": [
        {
          "internalType": "address",
          "name": "vToken",
          "type": "address"
        },
        {
          "internalType": "address",
          "name": "redeemer",
          "type": "address"
        },
        {
          "internalType": "uint256",
          "name": "redeemAmount",
          "type": "uint256"
        },
        {
          "internalType": "uint256",
          "name": "redeemTokens",
          "type": "uint256"
        }
      ],
      "name": "redeemVerify",
      "outputs": [],
      "payable": false,
      "stateMutability": "nonpayable",
      "type": "function"
    },
    {
      "constant": true,
      "inputs": [],
      "name": "releaseStartBlock",
      "outputs": [
        {
          "internalType": "uint256",
          "name": "",
          "type": "uint256"
        }
      ],
      "payable": false,
      "stateMutability": "view",
      "type": "function"
    },
    {
      "constant": false,
      "inputs": [],
      "name": "releaseToVault",
      "outputs": [],
      "payable": false,
      "stateMutability": "nonpayable",
      "type": "function"
    },
    {
      "constant": false,
      "inputs": [
        {
          "internalType": "address",
          "name": "vToken",
          "type": "address"
        },
        {
          "internalType": "address",
          "name": "payer",
          "type": "address"
        },
        {
          "internalType": "address",
          "name": "borrower",
          "type": "address"
        },
        {
          "internalType": "uint256",
          "name": "repayAmount",
          "type": "uint256"
        }
      ],
      "name": "repayBorrowAllowed",
      "outputs": [
        {
          "internalType": "uint256",
          "name": "",
          "type": "uint256"
        }
      ],
      "payable": false,
      "stateMutability": "nonpayable",
      "type": "function"
    },
    {
      "constant": false,
      "inputs": [
        {
          "internalType": "address",
          "name": "vToken",
          "type": "address"
        },
        {
          "internalType": "address",
          "name": "payer",
          "type": "address"
        },
        {
          "internalType": "address",
          "name": "borrower",
          "type": "address"
        },
        {
          "internalType": "uint256",
          "name": "actualRepayAmount",
          "type": "uint256"
        },
        {
          "internalType": "uint256",
          "name": "borrowerIndex",
          "type": "uint256"
        }
      ],
      "name": "repayBorrowVerify",
      "outputs": [],
      "payable": false,
      "stateMutability": "nonpayable",
      "type": "function"
    },
    {
      "constant": true,
      "inputs": [],
      "name": "repayVAIGuardianPaused",
      "outputs": [
        {
          "internalType": "bool",
          "name": "",
          "type": "bool"
        }
      ],
      "payable": false,
      "stateMutability": "view",
      "type": "function"
    },
    {
      "constant": false,
      "inputs": [
        {
          "internalType": "address",
          "name": "vTokenCollateral",
          "type": "address"
        },
        {
          "internalType": "address",
          "name": "vTokenBorrowed",
          "type": "address"
        },
        {
          "internalType": "address",
          "name": "liquidator",
          "type": "address"
        },
        {
          "internalType": "address",
          "name": "borrower",
          "type": "address"
        },
        {
          "internalType": "uint256",
          "name": "seizeTokens",
          "type": "uint256"
        }
      ],
      "name": "seizeAllowed",
      "outputs": [
        {
          "internalType": "uint256",
          "name": "",
          "type": "uint256"
        }
      ],
      "payable": false,
      "stateMutability": "nonpayable",
      "type": "function"
    },
    {
      "constant": false,
      "inputs": [
        {
          "internalType": "address",
          "name": "vTokenCollateral",
          "type": "address"
        },
        {
          "internalType": "address",
          "name": "vTokenBorrowed",
          "type": "address"
        },
        {
          "internalType": "address",
          "name": "liquidator",
          "type": "address"
        },
        {
          "internalType": "address",
          "name": "borrower",
          "type": "address"
        },
        {
          "internalType": "uint256",
          "name": "seizeTokens",
          "type": "uint256"
        }
      ],
      "name": "seizeVerify",
      "outputs": [],
      "payable": false,
      "stateMutability": "nonpayable",
      "type": "function"
    },
    {
      "constant": false,
      "inputs": [
        {
          "internalType": "uint256",
          "name": "number",
          "type": "uint256"
        }
      ],
      "name": "setBlockNumber",
      "outputs": [],
      "payable": false,
      "stateMutability": "nonpayable",
      "type": "function"
    },
    {
      "constant": false,
      "inputs": [
        {
          "internalType": "address",
          "name": "owner",
          "type": "address"
        },
        {
          "internalType": "uint256",
          "name": "amount",
          "type": "uint256"
        }
      ],
      "name": "setMintedVAIOf",
      "outputs": [
        {
          "internalType": "uint256",
          "name": "",
          "type": "uint256"
        }
      ],
      "payable": false,
      "stateMutability": "nonpayable",
      "type": "function"
    },
    {
      "constant": false,
      "inputs": [
        {
          "internalType": "address",
          "name": "vToken",
          "type": "address"
        },
        {
          "internalType": "uint256",
          "name": "venusSpeed",
          "type": "uint256"
        }
      ],
      "name": "setVenusSpeed",
      "outputs": [],
      "payable": false,
      "stateMutability": "nonpayable",
      "type": "function"
    },
    {
      "constant": false,
      "inputs": [
        {
          "internalType": "address",
          "name": "vToken",
          "type": "address"
        },
        {
          "internalType": "address",
          "name": "src",
          "type": "address"
        },
        {
          "internalType": "address",
          "name": "dst",
          "type": "address"
        },
        {
          "internalType": "uint256",
          "name": "transferTokens",
          "type": "uint256"
        }
      ],
      "name": "transferAllowed",
      "outputs": [
        {
          "internalType": "uint256",
          "name": "",
          "type": "uint256"
        }
      ],
      "payable": false,
      "stateMutability": "nonpayable",
      "type": "function"
    },
    {
      "constant": false,
      "inputs": [
        {
          "internalType": "address",
          "name": "vToken",
          "type": "address"
        },
        {
          "internalType": "address",
          "name": "src",
          "type": "address"
        },
        {
          "internalType": "address",
          "name": "dst",
          "type": "address"
        },
        {
          "internalType": "uint256",
          "name": "transferTokens",
          "type": "uint256"
        }
      ],
      "name": "transferVerify",
      "outputs": [],
      "payable": false,
      "stateMutability": "nonpayable",
      "type": "function"
    },
    {
      "constant": true,
      "inputs": [],
      "name": "treasuryAddress",
      "outputs": [
        {
          "internalType": "address",
          "name": "",
          "type": "address"
        }
      ],
      "payable": false,
      "stateMutability": "view",
      "type": "function"
    },
    {
      "constant": true,
      "inputs": [],
      "name": "treasuryGuardian",
      "outputs": [
        {
          "internalType": "address",
          "name": "",
          "type": "address"
        }
      ],
      "payable": false,
      "stateMutability": "view",
      "type": "function"
    },
    {
      "constant": true,
      "inputs": [],
      "name": "treasuryPercent",
      "outputs": [
        {
          "internalType": "uint256",
          "name": "",
          "type": "uint256"
        }
      ],
      "payable": false,
      "stateMutability": "view",
      "type": "function"
    },
    {
      "constant": false,
      "inputs": [
        {
          "internalType": "contract VToken",
          "name": "vToken",
          "type": "address"
        }
      ],
      "name": "unlist",
      "outputs": [],
      "payable": false,
      "stateMutability": "nonpayable",
      "type": "function"
    },
    {
      "constant": true,
      "inputs": [],
      "name": "vaiController",
      "outputs": [
        {
          "internalType": "contract VAIControllerInterface",
          "name": "",
          "type": "address"
        }
      ],
      "payable": false,
      "stateMutability": "view",
      "type": "function"
    },
    {
      "constant": true,
      "inputs": [],
      "name": "vaiMintRate",
      "outputs": [
        {
          "internalType": "uint256",
          "name": "",
          "type": "uint256"
        }
      ],
      "payable": false,
      "stateMutability": "view",
      "type": "function"
    },
    {
      "constant": true,
      "inputs": [],
      "name": "vaiVaultAddress",
      "outputs": [
        {
          "internalType": "address",
          "name": "",
          "type": "address"
        }
      ],
      "payable": false,
      "stateMutability": "view",
      "type": "function"
    },
    {
      "constant": true,
      "inputs": [
        {
          "internalType": "address",
          "name": "",
          "type": "address"
        }
      ],
      "name": "venusAccrued",
      "outputs": [
        {
          "internalType": "uint256",
          "name": "",
          "type": "uint256"
        }
      ],
      "payable": false,
      "stateMutability": "view",
      "type": "function"
    },
    {
      "constant": true,
      "inputs": [
        {
          "internalType": "address",
          "name": "",
          "type": "address"
        }
      ],
      "name": "venusBorrowState",
      "outputs": [
        {
          "internalType": "uint224",
          "name": "index",
          "type": "uint224"
        },
        {
          "internalType": "uint32",
          "name": "block",
          "type": "uint32"
        }
      ],
      "payable": false,
      "stateMutability": "view",
      "type": "function"
    },
    {
      "constant": true,
      "inputs": [
        {
          "internalType": "address",
          "name": "",
          "type": "address"
        },
        {
          "internalType": "address",
          "name": "",
          "type": "address"
        }
      ],
      "name": "venusBorrowerIndex",
      "outputs": [
        {
          "internalType": "uint256",
          "name": "",
          "type": "uint256"
        }
      ],
      "payable": false,
      "stateMutability": "view",
      "type": "function"
    },
    {
      "constant": true,
      "inputs": [],
      "name": "venusInitialIndex",
      "outputs": [
        {
          "internalType": "uint224",
          "name": "",
          "type": "uint224"
        }
      ],
      "payable": false,
      "stateMutability": "view",
      "type": "function"
    },
    {
      "constant": true,
      "inputs": [],
      "name": "venusRate",
      "outputs": [
        {
          "internalType": "uint256",
          "name": "",
          "type": "uint256"
        }
      ],
      "payable": false,
      "stateMutability": "view",
      "type": "function"
    },
    {
      "constant": true,
      "inputs": [
        {
          "internalType": "address",
          "name": "",
          "type": "address"
        }
      ],
      "name": "venusSpeeds",
      "outputs": [
        {
          "internalType": "uint256",
          "name": "",
          "type": "uint256"
        }
      ],
      "payable": false,
      "stateMutability": "view",
      "type": "function"
    },
    {
      "constant": true,
      "inputs": [
        {
          "internalType": "address",
          "name": "",
          "type": "address"
        },
        {
          "internalType": "address",
          "name": "",
          "type": "address"
        }
      ],
      "name": "venusSupplierIndex",
      "outputs": [
        {
          "internalType": "uint256",
          "name": "",
          "type": "uint256"
        }
      ],
      "payable": false,
      "stateMutability": "view",
      "type": "function"
    },
    {
      "constant": true,
      "inputs": [
        {
          "internalType": "address",
          "name": "",
          "type": "address"
        }
      ],
      "name": "venusSupplyState",
      "outputs": [
        {
          "internalType": "uint224",
          "name": "index",
          "type": "uint224"
        },
        {
          "internalType": "uint32",
          "name": "block",
          "type": "uint32"
        }
      ],
      "payable": false,
      "stateMutability": "view",
      "type": "function"
    },
    {
      "constant": true,
      "inputs": [],
      "name": "venusVAIVaultRate",
      "outputs": [
        {
          "internalType": "uint256",
          "name": "",
          "type": "uint256"
        }
      ],
      "payable": false,
      "stateMutability": "view",
      "type": "function"
    }
  ],
  "bytecode": "0x608060405234801561001057600080fd5b50600080546001600160a01b03191633179055615d4c80620000336000396000f3fe608060405234801561001057600080fd5b50600436106104e25760003560e01c80637d172bd51161028e578063bec04f7211610167578063dcfbc0c7116100d9578063ede4edd011610092578063ede4edd01461131e578063f4b8d5fe14611344578063f851a4401461136a578063fa6331d814611372578063fccbe7f61461137a578063fd51a3ad14611397576104e2565b8063dcfbc0c71461127e578063ddfd287e14611286578063e37d4b791461128e578063e4028eee146112b4578063e8755446146112e0578063eabe7d91146112e8576104e2565b8063c5f956af1161012b578063c5f956af1461106c578063d02f735114611074578063d09c54ba146110ba578063d24febad146111e6578063da3d454c1461121c578063dce1544914611252576104e2565b8063bec04f7214610f94578063bf32442d14610f9c578063c299823814610fa4578063c488847b14611012578063c5b4db5514611048576104e2565b8063a76b3fda11610200578063b0772d0b116101c4578063b0772d0b14610ecc578063b2eafc3914610ed4578063b8324c7c14610edc578063bb82aa5e14610f2a578063bdcdc25814610f32578063bde3672d14610f6e576104e2565b8063a76b3fda14610da8578063a78dc77514610dce578063a8c3c85014610e13578063abfceffc14610e30578063adcd5fb914610ea6576104e2565b80638e8f294b116102525780638e8f294b14610cd05780639254f5e514610d18578063929fe9a114610d2057806394b2294b14610d4e5780639cfdd9e614610d56578063a06a87f114610d7c576104e2565b80637d172bd514610be15780637dc0d1d014610be957806386df31ee14610bf1578063879c2e1d14610ca25780638a7dc16514610caa576104e2565b806347ef3b3b116103c057806357e871e711610332578063607ef6c1116102f6578063607ef6c114610a745780636662c7c914610b325780636a56947e14610b4f5780636d35bf9114610b8b578063719f701b14610bd15780637655138314610bd9576104e2565b806357e871e7146109a45780635c778605146109ac5780635ec88c79146109e25780635f5af1aa14610a085780635fc7e71e14610a2e576104e2565b80634e79238f116103845780634e79238f146108785780634ef4c3e1146108d25780634fd42e171461090857806351dff9891461092557806352d84d1e1461096157806355ee1fe11461097e576104e2565b806347ef3b3b146107a65780634a584432146107f25780634ada90af146108185780634bca0d8c146108205780634e0853db14610846576104e2565b80632678224711610459578063391957d71161041d578063391957d7146106fe5780634088c73e1461072457806341a18d2c1461072c57806341c728b91461075a578063425fad581461079657806342cbb15c1461079e576104e2565b806326782247146106775780632a6a60651461067f5780632bc7e29e1461069e5780632ec04124146106c4578063317b0b77146106e1576104e2565b80631abcaa77116104ab5780631abcaa77146105815780631d504dc6146105a75780631ededc91146105cd57806321af45691461060f57806324008a621461063357806324a3d6221461066f576104e2565b80627e3dd2146104e757806304ef9d581461050357806308e0225c1461051d5780630db4b4e51461054b57806311397a7d14610553575b600080fd5b6104ef6113c3565b604080519115158252519081900360200190f35b61050b6113c8565b60408051918252519081900360200190f35b61050b6004803603604081101561053357600080fd5b506001600160a01b03813581169160200135166113ce565b61050b6113eb565b61057f6004803603604081101561056957600080fd5b506001600160a01b0381351690602001356113f1565b005b61050b6004803603602081101561059757600080fd5b50356001600160a01b031661140d565b61057f600480360360208110156105bd57600080fd5b50356001600160a01b031661141f565b61057f600480360360a08110156105e357600080fd5b506001600160a01b0381358116916020810135821691604082013516906060810135906080013561158d565b610617611594565b604080516001600160a01b039092168252519081900360200190f35b61050b6004803603608081101561064957600080fd5b506001600160a01b038135811691602081013582169160408201351690606001356115a3565b6106176116c0565b6106176116cf565b6104ef6004803603602081101561069557600080fd5b503515156116de565b61050b600480360360208110156106b457600080fd5b50356001600160a01b03166117fb565b61050b600480360360208110156106da57600080fd5b503561180d565b61050b600480360360208110156106f757600080fd5b5035611882565b61057f6004803603602081101561071457600080fd5b50356001600160a01b031661192c565b6104ef6119df565b61050b6004803603604081101561074257600080fd5b506001600160a01b03813581169160200135166119e8565b61057f6004803603608081101561077057600080fd5b506001600160a01b03813581169160208101359091169060408101359060600135611a05565b6104ef611a0b565b61050b611a1a565b61057f600480360360c08110156107bc57600080fd5b506001600160a01b0381358116916020810135821691604082013581169160608101359091169060808101359060a00135611a1f565b61050b6004803603602081101561080857600080fd5b50356001600160a01b0316611a27565b61050b611a39565b61050b6004803603602081101561083657600080fd5b50356001600160a01b0316611a3f565b61057f6004803603606081101561085c57600080fd5b506001600160a01b038135169060208101359060400135611a5a565b6108b46004803603608081101561088e57600080fd5b506001600160a01b03813581169160208101359091169060408101359060600135611b17565b60408051938452602084019290925282820152519081900360600190f35b61050b600480360360608110156108e857600080fd5b506001600160a01b03813581169160208101359091169060400135611b51565b61050b6004803603602081101561091e57600080fd5b5035611c50565b61057f6004803603608081101561093b57600080fd5b506001600160a01b03813581169160208101359091169060408101359060600135611cb9565b6106176004803603602081101561097757600080fd5b5035611d0a565b61050b6004803603602081101561099457600080fd5b50356001600160a01b0316611d31565b61050b611db6565b61057f600480360360608110156109c257600080fd5b506001600160a01b03813581169160208101359091169060400135611dbc565b6108b4600480360360208110156109f857600080fd5b50356001600160a01b0316611dc1565b61050b60048036036020811015610a1e57600080fd5b50356001600160a01b0316611df6565b61050b600480360360a0811015610a4457600080fd5b506001600160a01b0381358116916020810135821691604082013581169160608101359091169060800135611e7b565b61057f60048036036040811015610a8a57600080fd5b810190602081018135600160201b811115610aa457600080fd5b820183602082011115610ab657600080fd5b803590602001918460208302840111600160201b83111715610ad757600080fd5b919390929091602081019035600160201b811115610af457600080fd5b820183602082011115610b0657600080fd5b803590602001918460208302840111600160201b83111715610b2757600080fd5b509092509050612087565b61057f60048036036020811015610b4857600080fd5b5035612217565b61057f60048036036080811015610b6557600080fd5b506001600160a01b038135811691602081013582169160408201351690606001356122ae565b61057f600480360360a0811015610ba157600080fd5b506001600160a01b038135811691602081013582169160408201358116916060810135909116906080013561158d565b61050b6122b3565b6104ef6122b9565b6106176122c7565b6106176122d6565b61057f60048036036040811015610c0757600080fd5b6001600160a01b038235169190810190604081016020820135600160201b811115610c3157600080fd5b820183602082011115610c4357600080fd5b803590602001918460208302840111600160201b83111715610c6457600080fd5b9190808060200260200160405190810160405280939291908181526020018383602002808284376000920191909152509295506122e5945050505050565b61050b612342565b61050b60048036036020811015610cc057600080fd5b50356001600160a01b0316612348565b610cf660048036036020811015610ce657600080fd5b50356001600160a01b031661235a565b6040805193151584526020840192909252151582820152519081900360600190f35b610617612380565b6104ef60048036036040811015610d3657600080fd5b506001600160a01b038135811691602001351661238f565b61050b6123c3565b61050b60048036036020811015610d6c57600080fd5b50356001600160a01b03166123c9565b61057f60048036036040811015610d9257600080fd5b506001600160a01b03813516906020013561244d565b61050b60048036036020811015610dbe57600080fd5b50356001600160a01b03166124b4565b610dfa60048036036040811015610de457600080fd5b506001600160a01b038135169060200135612611565b6040805192835260208301919091528051918290030190f35b61057f60048036036020811015610e2957600080fd5b50356127b6565b610e5660048036036020811015610e4657600080fd5b50356001600160a01b03166127bb565b60408051602080825283518183015283519192839290830191858101910280838360005b83811015610e92578181015183820152602001610e7a565b505050509050019250505060405180910390f35b61057f60048036036020811015610ebc57600080fd5b50356001600160a01b0316612831565b610e56612895565b6106176128f7565b610f0260048036036020811015610ef257600080fd5b50356001600160a01b0316612906565b604080516001600160e01b03909316835263ffffffff90911660208301528051918290030190f35b610617612930565b61050b60048036036080811015610f4857600080fd5b506001600160a01b0381358116916020810135821691604082013516906060013561293f565b61057f60048036036020811015610f8457600080fd5b50356001600160a01b0316612a22565b61050b612a43565b610617612a49565b610e5660048036036020811015610fba57600080fd5b810190602081018135600160201b811115610fd457600080fd5b820183602082011115610fe657600080fd5b803590602001918460208302840111600160201b8311171561100757600080fd5b509092509050612a61565b610dfa6004803603606081101561102857600080fd5b506001600160a01b03813581169160208101359091169060400135612af7565b611050612d1f565b604080516001600160e01b039092168252519081900360200190f35b610617612d32565b61050b600480360360a081101561108a57600080fd5b506001600160a01b0381358116916020810135821691604082013581169160608101359091169060800135612d41565b61057f600480360360808110156110d057600080fd5b810190602081018135600160201b8111156110ea57600080fd5b8201836020820111156110fc57600080fd5b803590602001918460208302840111600160201b8311171561111d57600080fd5b9190808060200260200160405190810160405280939291908181526020018383602002808284376000920191909152509295949360208101935035915050600160201b81111561116c57600080fd5b82018360208201111561117e57600080fd5b803590602001918460208302840111600160201b8311171561119f57600080fd5b919080806020026020016040519081016040528093929190818152602001838360200280828437600092019190915250929550505050803515159150602001351515612f60565b61050b600480360360608110156111fc57600080fd5b506001600160a01b038135811691602081013590911690604001356132ff565b61050b6004803603606081101561123257600080fd5b506001600160a01b03813581169160208101359091169060400135613494565b6106176004803603604081101561126857600080fd5b506001600160a01b038135169060200135613891565b6106176138c6565b61057f6138d5565b610f02600480360360208110156112a457600080fd5b50356001600160a01b0316613b05565b61050b600480360360408110156112ca57600080fd5b506001600160a01b038135169060200135613b2f565b61050b613cdf565b61050b600480360360608110156112fe57600080fd5b506001600160a01b03813581169160208101359091169060400135613ce5565b61050b6004803603602081101561133457600080fd5b50356001600160a01b0316613d75565b61057f6004803603602081101561135a57600080fd5b50356001600160a01b0316614031565b61061761415d565b61050b61416c565b61050b6004803603602081101561139057600080fd5b5035614172565b61050b600480360360408110156113ad57600080fd5b506001600160a01b038135169060200135614181565b600181565b60225481565b601360209081526000928352604080842090915290825290205481565b601d5481565b6001600160a01b039091166000908152600f6020526040902055565b600f6020526000908152604090205481565b806001600160a01b031663f851a4406040518163ffffffff1660e01b815260040160206040518083038186803b15801561145857600080fd5b505afa15801561146c573d6000803e3d6000fd5b505050506040513d602081101561148257600080fd5b50516001600160a01b031633146114e0576040805162461bcd60e51b815260206004820152601960248201527f6f6e6c7920756e6974726f6c6c65722061646d696e2063616e00000000000000604482015290519081900360640190fd5b806001600160a01b031663c1e803346040518163ffffffff1660e01b8152600401602060405180830381600087803b15801561151b57600080fd5b505af115801561152f573d6000803e3d6000fd5b505050506040513d602081101561154557600080fd5b50511561158a576040805162461bcd60e51b815260206004820152600e60248201526d1b9bdd08185d5d1a1bdc9a5e995960921b604482015290519081900360640190fd5b50565b5050505050565b601e546001600160a01b031681565b60185460009062010000900460ff16156115f9576040805162461bcd60e51b81526020600482015260126024820152711c1c9bdd1bd8dbdb081a5cc81c185d5cd95960721b604482015290519081900360640190fd5b6001600160a01b03851660009081526009602052604090205460ff16611621575060096116b8565b611629615c02565b6040518060200160405280876001600160a01b031663aa5af0fd6040518163ffffffff1660e01b815260040160206040518083038186803b15801561166d57600080fd5b505afa158015611681573d6000803e3d6000fd5b505050506040513d602081101561169757600080fd5b5051905290506116a78682614273565b6116b2868583614507565b60009150505b949350505050565b600a546001600160a01b031681565b6001546001600160a01b031681565b600a5460009082906001600160a01b031633148061170657506000546001600160a01b031633145b6117415760405162461bcd60e51b8152600401808060200182810382526021815260200180615cc26021913960400191505060405180910390fd5b6000546001600160a01b031633148061175c57506001811515145b6117a6576040805162461bcd60e51b81526020600482015260166024820152756f6e6c792061646d696e2063616e20756e706175736560501b604482015290519081900360640190fd5b6018805484151562010000810262ff0000199092169190911790915560408051918252517fd7500633dd3ddd74daa7af62f8c8404c7fe4a81da179998db851696bed004b389181900360200190a15090919050565b60166020526000908152604090205481565b600080546001600160a01b031633146118335761182c600160146146b7565b905061187d565b6017805490839055604080518281526020810185905281517f73747d68b346dce1e932bcd238282e7ac84c01569e1f8d0469c222fdc6e9d5a4929181900390910190a160005b9150505b919050565b600080546001600160a01b031633146118e2576040805162461bcd60e51b815260206004820152601f60248201527f6f6e6c792061646d696e2063616e2073657420636c6f736520666163746f7200604482015290519081900360640190fd5b6005805490839055604080518281526020810185905281517f3b9670cf975d26958e754b57098eaa2ac914d8d2a31b83257997b9f346110fd9929181900390910190a16000611879565b6000546001600160a01b0316331461197c576040805162461bcd60e51b815260206004820152600e60248201526d37b7363c9030b236b4b71031b0b760911b604482015290519081900360640190fd5b601e80546001600160a01b038381166001600160a01b0319831681179093556040805191909216808252602082019390935281517feda98690e518e9a05f8ec6837663e188211b2da8f4906648b323f2c1d4434e29929181900390910190a15050565b60185460ff1681565b601260209081526000928352604080842090915290825290205481565b50505050565b60185462010000900460ff1681565b435b90565b505050505050565b601f6020526000908152604090205481565b60065481565b6001600160a01b031660009081526008602052604090205490565b6000546001600160a01b03163314611aaa576040805162461bcd60e51b815260206004820152600e60248201526d37b7363c9030b236b4b71031b0b760911b604482015290519081900360640190fd5b601b80546001600160a01b0385166001600160a01b03199091168117909155601c839055601d8290556040805191825260208201849052818101839052517f7059037d74ee16b0fb06a4a30f3348dd2635f301f92e373c92899a25a522ef6e9181900360600190a1505050565b600080600080600080611b2c8a8a8a8a61471d565b925092509250826012811115611b3e57fe5b95509093509150505b9450945094915050565b60185460009062010000900460ff1615611ba7576040805162461bcd60e51b81526020600482015260126024820152711c1c9bdd1bd8dbdb081a5cc81c185d5cd95960721b604482015290519081900360640190fd5b6001600160a01b0384166000908152600b602052604090205460ff1615611c06576040805162461bcd60e51b815260206004820152600e60248201526d1b5a5b9d081a5cc81c185d5cd95960921b604482015290519081900360640190fd5b6001600160a01b03841660009081526009602052604090205460ff16611c305760095b9050611c49565b611c3984614a8a565b611c438484614d14565b60005b90505b9392505050565b600080546001600160a01b03163314611c6f5761182c6001600b6146b7565b6006805490839055604080518281526020810185905281517faeba5a6c40a8ac138134bff1aaa65debf25971188a58804bad717f82f0ec1316929181900390910190a16000611879565b80151580611cc5575081155b611a05576040805162461bcd60e51b815260206004820152601160248201527072656465656d546f6b656e73207a65726f60781b604482015290519081900360640190fd5b600d8181548110611d1757fe5b6000918252602090912001546001600160a01b0316905081565b600080546001600160a01b03163314611d505761182c600160106146b7565b600480546001600160a01b038481166001600160a01b0319831681179093556040805191909216808252602082019390935281517fd52b2b9b7e9ee655fcb95d2e5b9e0c9f69e7ef2b8e9d2d0ea78402d576d22e22929181900390910190a16000611879565b60235481565b505050565b600080600080600080611dd887600080600061471d565b925092509250826012811115611dea57fe5b97919650945092505050565b600080546001600160a01b03163314611e155761182c600160136146b7565b600a80546001600160a01b038481166001600160a01b0319831681179093556040805191909216808252602082019390935281517f0613b6ee6a04f0d09f390e4d9318894b9f6ac7fd83897cd8d18896ba579c401e929181900390910190a16000611879565b60185460009062010000900460ff1615611ed1576040805162461bcd60e51b81526020600482015260126024820152711c1c9bdd1bd8dbdb081a5cc81c185d5cd95960721b604482015290519081900360640190fd5b6001600160a01b03861660009081526009602052604090205460ff1680611f0557506015546001600160a01b038781169116145b1580611f2a57506001600160a01b03851660009081526009602052604090205460ff16155b15611f395760095b905061207e565b600080611f4a85600080600061471d565b91935090915060009050826012811115611f6057fe5b14611f7a57816012811115611f7157fe5b9250505061207e565b80611f86576003611f71565b6015546000906001600160a01b038a811691161461202757886001600160a01b03166395dd9193876040518263ffffffff1660e01b815260040180826001600160a01b03166001600160a01b0316815260200191505060206040518083038186803b158015611ff457600080fd5b505afa158015612008573d6000803e3d6000fd5b505050506040513d602081101561201e57600080fd5b50519050612042565b506001600160a01b0385166000908152601660205260409020545b600061205e604051806020016040528060055481525083614f0c565b90508086111561207557601194505050505061207e565b60009450505050505b95945050505050565b6000546001600160a01b03163314806120aa5750601e546001600160a01b031633145b6120e55760405162461bcd60e51b8152600401808060200182810382526035815260200180615ce36035913960400191505060405180910390fd5b828181158015906120f557508082145b612136576040805162461bcd60e51b815260206004820152600d60248201526c1a5b9d985b1a59081a5b9c1d5d609a1b604482015290519081900360640190fd5b60005b8281101561220e5784848281811061214d57fe5b90506020020135601f600089898581811061216457fe5b905060200201356001600160a01b03166001600160a01b03166001600160a01b03168152602001908152602001600020819055508686828181106121a457fe5b905060200201356001600160a01b03166001600160a01b03167f6f1951b2aad10f3fc81b86d91105b413a5b3f847a34bbc5ce1904201b14438f68686848181106121ea57fe5b905060200201356040518082815260200191505060405180910390a2600101612139565b50505050505050565b6000546001600160a01b03163314612267576040805162461bcd60e51b815260206004820152600e60248201526d37b7363c9030b236b4b71031b0b760911b604482015290519081900360640190fd5b601a805490829055604080518281526020810184905281517fe81d4ac15e5afa1e708e66664eddc697177423d950d133bda8262d8885e6da3b929181900390910190a15050565b611a05565b601c5481565b601854610100900460ff1681565b601b546001600160a01b031681565b6004546001600160a01b031681565b60408051600180825281830190925260609160208083019080388339019050509050828160008151811061231557fe5b60200260200101906001600160a01b031690816001600160a01b031681525050611dbc8183600180612f60565b600e5481565b60146020526000908152604090205481565b60096020526000908152604090208054600182015460039092015460ff91821692911683565b6015546001600160a01b031681565b6001600160a01b038082166000908152600960209081526040808320938616835260029093019052205460ff165b92915050565b60075481565b600080546001600160a01b031633146123e85761182c600160156146b7565b601580546001600160a01b038481166001600160a01b0319831681179093556040805191909216808252602082019390935281517fe1ddcb2dab8e5b03cfc8c67a0d5861d91d16f7bd2612fd381faf4541d212c9b2929181900390910190a150919050565b612455614f2b565b6124a6576040805162461bcd60e51b815260206004820152601e60248201527f6f6e6c792061646d696e2063616e207365742076656e75732073706565640000604482015290519081900360640190fd5b6124b08282614f54565b5050565b600080546001600160a01b031633146124d35761182c600160126146b7565b6001600160a01b03821660009081526009602052604090205460ff16156125005761182c600a60116146b7565b816001600160a01b0316633d9ea3a16040518163ffffffff1660e01b815260040160206040518083038186803b15801561253957600080fd5b505afa15801561254d573d6000803e3d6000fd5b505050506040513d602081101561256357600080fd5b5050604080516060810182526001808252600060208381018281528486018381526001600160a01b03891684526009909252949091209251835490151560ff199182161784559351918301919091555160039091018054911515919092161790556125cd826152e6565b604080516001600160a01b038416815290517fcf583bb0c569eb967f806b11601c4cb93c10310485c67add5f8362c2f212321f9181900360200190a1600092915050565b600480546040805163fc57d4df60e01b81526001600160a01b038681169482019490945290516000938493670de0b6b3a7640000938593929091169163fc57d4df91602480820192602092909190829003018186803b15801561267357600080fd5b505afa158015612687573d6000803e3d6000fd5b505050506040513d602081101561269d57600080fd5b50519050806126b657600d9350600092506127af915050565b6000866001600160a01b031663182df0f56040518163ffffffff1660e01b815260040160206040518083038186803b1580156126f157600080fd5b505afa158015612705573d6000803e3d6000fd5b505050506040513d602081101561271b57600080fd5b505190506000612729615c02565b612731615c02565b612739615c02565b612761604051806020016040528060065481525060405180602001604052808a8152506153c4565b92506127896040518060200160405280888152506040518060200160405280888152506153c4565b91506127958383615403565b90506127a1818b614f0c565b600099509750505050505050505b9250929050565b602355565b6001600160a01b03811660009081526008602090815260409182902080548351818402810184019094528084526060939283018282801561282557602002820191906000526020600020905b81546001600160a01b03168152600190910190602001808311612807575b50505050509050919050565b61158a81600d80548060200260200160405190810160405280929190818152602001828054801561288b57602002820191906000526020600020905b81546001600160a01b0316815260019091019060200180831161286d575b50505050506122e5565b6060600d8054806020026020016040519081016040528092919081815260200182805480156128ed57602002820191906000526020600020905b81546001600160a01b031681526001909101906020018083116128cf575b5050505050905090565b6020546001600160a01b031681565b6010602052600090815260409020546001600160e01b03811690600160e01b900463ffffffff1682565b6002546001600160a01b031681565b60185460009062010000900460ff1615612995576040805162461bcd60e51b81526020600482015260126024820152711c1c9bdd1bd8dbdb081a5cc81c185d5cd95960721b604482015290519081900360640190fd5b600a54600160b01b900460ff16156129e9576040805162461bcd60e51b81526020600482015260126024820152711d1c985b9cd9995c881a5cc81c185d5cd95960721b604482015290519081900360640190fd5b60006129f686868561543f565b90508015612a055790506116b8565b612a0e86614a8a565b612a188686614d14565b6116b28685614d14565b6001600160a01b03166000908152600960205260409020805460ff19169055565b60175481565b73cf6bb5389c92bdda8a3747ddb454cb7a64626c6390565b60408051828152602080840282010190915260609082908290828015612a91578160200160208202803883390190505b50905060005b82811015612aee57612ac4868683818110612aae57fe5b905060200201356001600160a01b0316336154eb565b6012811115612acf57fe5b828281518110612adb57fe5b6020908102919091010152600101612a97565b50949350505050565b600480546040805163fc57d4df60e01b81526001600160a01b038781169482019490945290516000938493849391169163fc57d4df91602480820192602092909190829003018186803b158015612b4d57600080fd5b505afa158015612b61573d6000803e3d6000fd5b505050506040513d6020811015612b7757600080fd5b5051600480546040805163fc57d4df60e01b81526001600160a01b038a8116948201949094529051939450600093929091169163fc57d4df91602480820192602092909190829003018186803b158015612bd057600080fd5b505afa158015612be4573d6000803e3d6000fd5b505050506040513d6020811015612bfa57600080fd5b50519050811580612c09575080155b15612c1e57600d935060009250612d17915050565b6000866001600160a01b031663182df0f56040518163ffffffff1660e01b815260040160206040518083038186803b158015612c5957600080fd5b505afa158015612c6d573d6000803e3d6000fd5b505050506040513d6020811015612c8357600080fd5b505190506000612c91615c02565b612c99615c02565b612ca1615c02565b612cc9604051806020016040528060065481525060405180602001604052808a8152506153c4565b9250612cf16040518060200160405280888152506040518060200160405280888152506153c4565b9150612cfd8383615403565b9050612d09818b614f0c565b600099509750505050505050505b935093915050565b6ec097ce7bc90715b34b9f100000000081565b6021546001600160a01b031681565b60185460009062010000900460ff1615612d97576040805162461bcd60e51b81526020600482015260126024820152711c1c9bdd1bd8dbdb081a5cc81c185d5cd95960721b604482015290519081900360640190fd5b600a54600160b81b900460ff1615612de8576040805162461bcd60e51b815260206004820152600f60248201526e1cd95a5e99481a5cc81c185d5cd959608a1b604482015290519081900360640190fd5b6001600160a01b03861660009081526009602052604090205460ff161580612e4157506001600160a01b03851660009081526009602052604090205460ff1680612e3f57506015546001600160a01b038681169116145b155b15612e4d576009611f32565b846001600160a01b0316635fe3b5676040518163ffffffff1660e01b815260040160206040518083038186803b158015612e8657600080fd5b505afa158015612e9a573d6000803e3d6000fd5b505050506040513d6020811015612eb057600080fd5b505160408051635fe3b56760e01b815290516001600160a01b0392831692891691635fe3b567916004808301926020929190829003018186803b158015612ef657600080fd5b505afa158015612f0a573d6000803e3d6000fd5b505050506040513d6020811015612f2057600080fd5b50516001600160a01b031614612f37576002611f32565b612f4086614a8a565b612f4a8684614d14565b612f548685614d14565b60009695505050505050565b6015546000906001600160a01b031615612ff157601560009054906101000a90046001600160a01b03166001600160a01b031663d244b0816040518163ffffffff1660e01b8152600401602060405180830381600087803b158015612fc457600080fd5b505af1158015612fd8573d6000803e3d6000fd5b505050506040513d6020811015612fee57600080fd5b50505b5060005b84518110156130ab5761301a85828151811061300d57fe5b6020026020010151614031565b61306f85828151811061302957fe5b60200260200101516014600088858151811061304157fe5b60200260200101516001600160a01b03166001600160a01b03168152602001908152602001600020546155dc565b6014600087848151811061307f57fe5b6020908102919091018101516001600160a01b0316825281019190915260400160002055600101612ff5565b60005b8451811015611a1f5760008582815181106130c557fe5b6020908102919091018101516001600160a01b0381166000908152600990925260409091205490915060ff16613136576040805162461bcd60e51b81526020600482015260116024820152701b9bdd081b1a5cdd1959081b585c9ad95d607a1b604482015290519081900360640190fd5b841561325657613144615c02565b6040518060200160405280836001600160a01b031663aa5af0fd6040518163ffffffff1660e01b815260040160206040518083038186803b15801561318857600080fd5b505afa15801561319c573d6000803e3d6000fd5b505050506040513d60208110156131b257600080fd5b5051905290506131c28282614273565b600093505b8751841015613254576131ee828986815181106131e057fe5b602002602001015183614507565b6132158885815181106131fd57fe5b6020026020010151601460008b888151811061304157fe5b601460008a878151811061322557fe5b6020908102919091018101516001600160a01b03168252810191909152604001600020556001909301926131c7565b505b83156132f65761326581614a8a565b600092505b86518310156132f6576132908188858151811061328357fe5b6020026020010151614d14565b6132b787848151811061329f57fe5b6020026020010151601460008a878151811061304157fe5b601460008986815181106132c757fe5b6020908102919091018101516001600160a01b031682528101919091526040016000205560019092019161326a565b506001016130ae565b600080546001600160a01b031633148061332357506020546001600160a01b031633145b61333357611c29600160176146b7565b670de0b6b3a7640000821061338f576040805162461bcd60e51b815260206004820152601d60248201527f74726561737572792070657263656e7420636170206f766572666c6f77000000604482015290519081900360640190fd5b6020805460218054602280546001600160a01b038a81166001600160a01b0319808816821789558b8316908616179095559188905560408051958316808752968601949094528351929091169390927f29f06ea15931797ebaed313d81d100963dc22cb213cb4ce2737b5a62b1a8b1e892918290030190a1604080516001600160a01b0380851682528816602082015281517f8de763046d7b8f08b6c3d03543de1d615309417842bb5d2d62f110f65809ddac929181900390910190a1604080518281526020810187905281517f0893f8f4101baaabbeb513f96761e7a36eb837403c82cc651c292a4abdc94ed7929181900390910190a16000979650505050505050565b60185460009062010000900460ff16156134ea576040805162461bcd60e51b81526020600482015260126024820152711c1c9bdd1bd8dbdb081a5cc81c185d5cd95960721b604482015290519081900360640190fd5b6001600160a01b0384166000908152600c602052604090205460ff161561354b576040805162461bcd60e51b815260206004820152601060248201526f189bdc9c9bddc81a5cc81c185d5cd95960821b604482015290519081900360640190fd5b6001600160a01b03841660009081526009602052604090205460ff16613572576009611c29565b6001600160a01b038085166000908152600960209081526040808320938716835260029093019052205460ff1661362f57336001600160a01b038516146135f8576040805162461bcd60e51b815260206004820152601560248201527439b2b73232b91036bab9ba103132903b2a37b5b2b760591b604482015290519081900360640190fd5b600061360485856154eb565b9050600081601281111561361457fe5b1461362d5780601281111561362557fe5b915050611c49565b505b600480546040805163fc57d4df60e01b81526001600160a01b03888116948201949094529051929091169163fc57d4df91602480820192602092909190829003018186803b15801561368057600080fd5b505afa158015613694573d6000803e3d6000fd5b505050506040513d60208110156136aa57600080fd5b50516136b757600d611c29565b6001600160a01b0384166000908152601f602052604090205480156137a4576000856001600160a01b03166347bd37186040518163ffffffff1660e01b815260040160206040518083038186803b15801561371157600080fd5b505afa158015613725573d6000803e3d6000fd5b505050506040513d602081101561373b57600080fd5b50519050600061374b8286615716565b90508281106137a1576040805162461bcd60e51b815260206004820152601960248201527f6d61726b657420626f72726f7720636170207265616368656400000000000000604482015290519081900360640190fd5b50505b6000806137b4868860008861471d565b919350909150600090508260128111156137ca57fe5b146137e5578160128111156137db57fe5b9350505050611c49565b80156137f25760046137db565b6137fa615c02565b6040518060200160405280896001600160a01b031663aa5af0fd6040518163ffffffff1660e01b815260040160206040518083038186803b15801561383e57600080fd5b505afa158015613852573d6000803e3d6000fd5b505050506040513d602081101561386857600080fd5b5051905290506138788882614273565b613883888883614507565b600098975050505050505050565b600860205281600052604060002081815481106138aa57fe5b6000918252602090912001546001600160a01b03169150829050565b6003546001600160a01b031681565b601c5415806138ec5750601c546138ea611a1a565b105b156138f657613b03565b6000613900612a49565b604080516370a0823160e01b815230600482015290519192506000916001600160a01b038416916370a08231916024808301926020929190829003018186803b15801561394c57600080fd5b505afa158015613960573d6000803e3d6000fd5b505050506040513d602081101561397657600080fd5b5051905080613986575050613b03565b60008061399c613994611a1a565b601c5461574c565b905060006139ac601a5483615786565b9050601d548110156139c2575050505050613b03565b8084106139d1578092506139d5565b8392505b6139dd611a1a565b601c55601b546040805163a9059cbb60e01b81526001600160a01b0392831660048201526024810186905290519187169163a9059cbb916044808201926020929091908290030181600087803b158015613a3657600080fd5b505af1158015613a4a573d6000803e3d6000fd5b505050506040513d6020811015613a6057600080fd5b50506040805184815290517ff6d4b8f74d85a6e2d7a50225957b8a6cfec69ad92f5905627260541aa0a5565d9181900360200190a1601b60009054906101000a90046001600160a01b03166001600160a01b031663faa1809e6040518163ffffffff1660e01b8152600401600060405180830381600087803b158015613ae557600080fd5b505af1158015613af9573d6000803e3d6000fd5b5050505050505050505b565b6011602052600090815260409020546001600160e01b03811690600160e01b900463ffffffff1682565b600080546001600160a01b03163314613b5557613b4e600160066146b7565b90506123bd565b6001600160a01b0383166000908152600960205260409020805460ff16613b8a57613b82600960076146b7565b9150506123bd565b613b92615c02565b506040805160208101909152838152613ba9615c02565b506040805160208101909152670c7d713b49da00008152613bca81836157c8565b15613be557613bdb600660086146b7565b93505050506123bd565b8415801590613c6e5750600480546040805163fc57d4df60e01b81526001600160a01b038a8116948201949094529051929091169163fc57d4df91602480820192602092909190829003018186803b158015613c4057600080fd5b505afa158015613c54573d6000803e3d6000fd5b505050506040513d6020811015613c6a57600080fd5b5051155b15613c7f57613bdb600d60096146b7565b60018301805490869055604080516001600160a01b03891681526020810183905280820188905290517f70483e6592cd5182d45ac970e05bc62cdcc90e9d8ef2c2dbe686cf383bcd7fc59181900360600190a16000979650505050505050565b60055481565b60185460009062010000900460ff1615613d3b576040805162461bcd60e51b81526020600482015260126024820152711c1c9bdd1bd8dbdb081a5cc81c185d5cd95960721b604482015290519081900360640190fd5b6000613d4885858561543f565b90508015613d57579050611c49565b613d6085614a8a565b613d6a8585614d14565b600095945050505050565b6000808290506000806000836001600160a01b031663c37f68e2336040518263ffffffff1660e01b815260040180826001600160a01b03166001600160a01b0316815260200191505060806040518083038186803b158015613dd657600080fd5b505afa158015613dea573d6000803e3d6000fd5b505050506040513d6080811015613e0057600080fd5b508051602082015160409092015190945090925090508215613e69576040805162461bcd60e51b815260206004820152601960248201527f6765744163636f756e74536e617073686f74206661696c656400000000000000604482015290519081900360640190fd5b8015613e8657613e7b600c60026146b7565b94505050505061187d565b6000613e9387338561543f565b90508015613eb457613ea8600e6003836157cf565b9550505050505061187d565b6001600160a01b0385166000908152600960209081526040808320338452600281019092529091205460ff16613ef3576000965050505050505061187d565b3360009081526002820160209081526040808320805460ff1916905560089091528120805490915b81811015613fd457886001600160a01b0316838281548110613f3957fe5b6000918252602090912001546001600160a01b03161415613fcc57826001830381548110613f6357fe5b9060005260206000200160009054906101000a90046001600160a01b0316838281548110613f8d57fe5b600091825260209091200180546001600160a01b0319166001600160a01b03929092169190911790558254613fc6846000198301615c15565b50613fd4565b600101613f1b565b818110613fdd57fe5b604080516001600160a01b038b16815233602082015281517fe699a64c18b07ac5b7301aa273f36a2287239eb9501d81950672794afba29a0d929181900390910190a160009b9a5050505050505050505050565b601b546001600160a01b03161561404a5761404a6138d5565b6015546001600160a01b03161561158a576015546040805163d178273b60e01b81526001600160a01b0384811660048301529151600093849384938493919092169163d178273b91602480830192608092919082900301818787803b1580156140b257600080fd5b505af11580156140c6573d6000803e3d6000fd5b505050506040513d60808110156140dc57600080fd5b5080516020820151604083015160609093015190965091945090925090508061158d576001600160a01b038516600081815260146020908152604091829020879055815186815290810185905281517f2fb3baf25f3d9fc9f9eb9dfd7da8567731a91413437d91bc1b8a839d0a1ba88f929181900390910190a25050505050565b6000546001600160a01b031681565b601a5481565b60238054820190819055919050565b60185460009062010000900460ff16156141d7576040805162461bcd60e51b81526020600482015260126024820152711c1c9bdd1bd8dbdb081a5cc81c185d5cd95960721b604482015290519081900360640190fd5b60185460ff161580156141f25750601854610100900460ff16155b614233576040805162461bcd60e51b815260206004820152600d60248201526c159052481a5cc81c185d5cd959609a1b604482015290519081900360640190fd5b6015546001600160a01b0316331461425157613b4e600e60166146b7565b6001600160a01b03831660009081526016602052604081208390559392505050565b6001600160a01b0382166000908152601160209081526040808320600f90925282205490916142a0611a1a565b83549091506000906142c0908390600160e01b900463ffffffff1661574c565b90506000811180156142d25750600083115b156144a2576000614347876001600160a01b03166347bd37186040518163ffffffff1660e01b815260040160206040518083038186803b15801561431557600080fd5b505afa158015614329573d6000803e3d6000fd5b505050506040513d602081101561433f57600080fd5b505187615835565b905060006143558386615786565b905061435f615c02565b6000831161437c5760405180602001604052806000815250614386565b6143868284615853565b9050614390615c02565b604080516020810190915288546001600160e01b031681526143b29083615888565b905060405180604001604052806143f88360000151604051806040016040528060138152602001726e657720696e646578206f766572666c6f777360681b8152506158ad565b6001600160e01b0316815260200161443e8860405180604001604052806016815260200175626c6f636b206e756d626572206f766572666c6f777360501b815250615947565b63ffffffff9081169091526001600160a01b038c166000908152601160209081526040909120835181549490920151909216600160e01b026001600160e01b039182166001600160e01b0319909416939093171691909117905550611a1f92505050565b8015611a1f576144e08260405180604001604052806016815260200175626c6f636b206e756d626572206f766572666c6f777360501b815250615947565b845463ffffffff91909116600160e01b026001600160e01b03909116178455505050505050565b601b546001600160a01b031615614520576145206138d5565b6001600160a01b0383166000908152601160205260409020614540615c02565b50604080516020810190915281546001600160e01b03168152614561615c02565b5060408051602080820183526001600160a01b0380891660009081526013835284812091891680825282845294812080548552865195909152915291909155805115611a1f576145af615c02565b6145b9838361599c565b90506000614616886001600160a01b03166395dd9193896040518263ffffffff1660e01b815260040180826001600160a01b03166001600160a01b0316815260200191505060206040518083038186803b15801561431557600080fd5b9050600061462482846159c1565b6001600160a01b0389166000908152601460205260408120549192509061464b9083615716565b6001600160a01b03808b166000818152601460209081526040918290208590558a5182518881529182015281519495509193928e16927f837bdc11fca9f17ce44167944475225a205279b17e88c791c3b1f66f354668fb9281900390910190a350505050505050505050565b60007f45b96fe442630264581b197e84bbada861235052c5a1aadfff9ea4e40a969aa08360128111156146e657fe5b8360178111156146f257fe5b604080519283526020830191909152600082820152519081900360600190a1826012811115611c4957fe5b600080600061472a615c39565b6001600160a01b0388166000908152600860209081526040808320805482518185028101850190935280835260609383018282801561479257602002820191906000526020600020905b81546001600160a01b03168152600190910190602001808311614774575b50939450600093505050505b8151811015614a165760008282815181106147b557fe5b60200260200101519050806001600160a01b031663c37f68e28d6040518263ffffffff1660e01b815260040180826001600160a01b03166001600160a01b0316815260200191505060806040518083038186803b15801561481557600080fd5b505afa158015614829573d6000803e3d6000fd5b505050506040513d608081101561483f57600080fd5b508051602082015160408084015160609485015160808b01529389019390935291870191909152935083156148845750600f965060009550859450611b479350505050565b60408051602080820183526001600160a01b0380851660008181526009845285902060010154845260c08a01939093528351808301855260808a0151815260e08a015260048054855163fc57d4df60e01b815291820194909452935192169263fc57d4df9260248083019392829003018186803b15801561490457600080fd5b505afa158015614918573d6000803e3d6000fd5b505050506040513d602081101561492e57600080fd5b505160a086018190526149515750600d965060009550859450611b479350505050565b604080516020810190915260a0860151815261010086015260c085015160e086015161498b91614980916153c4565b8661010001516153c4565b6101208601819052604086015186516149a59291906159f0565b8552610100850151606086015160208701516149c29291906159f0565b60208601526001600160a01b03818116908c161415614a0d576149ef8561012001518b87602001516159f0565b60208601819052610100860151614a07918b906159f0565b60208601525b5060010161479e565b50614a4a8360200151601660008d6001600160a01b03166001600160a01b0316815260200190815260200160002054615716565b6020840181905283511115614a715750506020810151905160009450039150829050611b47565b5050805160209091015160009450849350039050611b47565b6001600160a01b0381166000908152601060209081526040808320600f9092528220549091614ab7611a1a565b8354909150600090614ad7908390600160e01b900463ffffffff1661574c565b9050600081118015614ae95750600083115b15614cb0576000856001600160a01b03166318160ddd6040518163ffffffff1660e01b815260040160206040518083038186803b158015614b2957600080fd5b505afa158015614b3d573d6000803e3d6000fd5b505050506040513d6020811015614b5357600080fd5b505190506000614b638386615786565b9050614b6d615c02565b60008311614b8a5760405180602001604052806000815250614b94565b614b948284615853565b9050614b9e615c02565b604080516020810190915288546001600160e01b03168152614bc09083615888565b90506040518060400160405280614c068360000151604051806040016040528060138152602001726e657720696e646578206f766572666c6f777360681b8152506158ad565b6001600160e01b03168152602001614c4c8860405180604001604052806016815260200175626c6f636b206e756d626572206f766572666c6f777360501b815250615947565b63ffffffff9081169091526001600160a01b038b166000908152601060209081526040909120835181549490920151909216600160e01b026001600160e01b039182166001600160e01b031990941693909317169190911790555061158d92505050565b801561158d57614cee8260405180604001604052806016815260200175626c6f636b206e756d626572206f766572666c6f777360501b815250615947565b845463ffffffff91909116600160e01b026001600160e01b039091161784555050505050565b601b546001600160a01b031615614d2d57614d2d6138d5565b6001600160a01b0382166000908152601060205260409020614d4d615c02565b50604080516020810190915281546001600160e01b03168152614d6e615c02565b5060408051602080820183526001600160a01b03808816600090815260128352848120918816808252828452948120805485528651959091529152919091558051158015614dbc5750815115155b15614dd4576ec097ce7bc90715b34b9f100000000081525b614ddc615c02565b614de6838361599c565b90506000866001600160a01b03166370a08231876040518263ffffffff1660e01b815260040180826001600160a01b03166001600160a01b0316815260200191505060206040518083038186803b158015614e4057600080fd5b505afa158015614e54573d6000803e3d6000fd5b505050506040513d6020811015614e6a57600080fd5b505190506000614e7a82846159c1565b6001600160a01b03881660009081526014602052604081205491925090614ea19083615716565b6001600160a01b03808a166000818152601460209081526040918290208590558a5182518881529182015281519495509193928d16927ffa9d964d891991c113b49e3db1932abd6c67263d387119707aafdd6c4010a3a99281900390910190a3505050505050505050565b6000614f16615c02565b614f208484615a18565b90506116b881615a39565b600080546001600160a01b0316331480614f4f57506002546001600160a01b031633145b905090565b6001600160a01b0382166000908152600f6020526040902054801561500857614f7b615c02565b6040518060200160405280856001600160a01b031663aa5af0fd6040518163ffffffff1660e01b815260040160206040518083038186803b158015614fbf57600080fd5b505afa158015614fd3573d6000803e3d6000fd5b505050506040513d6020811015614fe957600080fd5b505190529050614ff884614a8a565b6150028482614273565b5061528a565b811561528a576001600160a01b0383166000908152600960205260409020805460ff161515600114615081576040805162461bcd60e51b815260206004820152601a60248201527f76656e7573206d61726b6574206973206e6f74206c6973746564000000000000604482015290519081900360640190fd5b6001600160a01b0384166000908152601060205260409020546001600160e01b03161580156150d357506001600160a01b038416600090815260106020526040902054600160e01b900463ffffffff16155b156151a25760405180604001604052806ec097ce7bc90715b34b9f10000000006001600160e01b0316815260200161514761510c611a1a565b6040518060400160405280601c81526020017f626c6f636b206e756d6265722065786365656473203332206269747300000000815250615947565b63ffffffff9081169091526001600160a01b0386166000908152601060209081526040909120835181549490920151909216600160e01b026001600160e01b039182166001600160e01b031990941693909317169190911790555b6001600160a01b0384166000908152601160205260409020546001600160e01b03161580156151f457506001600160a01b038416600090815260116020526040902054600160e01b900463ffffffff16155b156152885760405180604001604052806ec097ce7bc90715b34b9f10000000006001600160e01b0316815260200161522d61510c611a1a565b63ffffffff9081169091526001600160a01b0386166000908152601160209081526040909120835181549490920151909216600160e01b026001600160e01b039182166001600160e01b031990941693909317169190911790555b505b818114611dbc576001600160a01b0383166000818152600f6020908152604091829020859055815185815291517f2a0ce45ba05a83e75ba21e1a10d6b48a8395028cc6e1ae66f6c313648379d5489281900390910190a2505050565b60005b600d5481101561537157816001600160a01b0316600d828154811061530a57fe5b6000918252602090912001546001600160a01b03161415615369576040805162461bcd60e51b81526020600482015260146024820152731b585c9ad95d08185b1c9958591e48185919195960621b604482015290519081900360640190fd5b6001016152e9565b50600d80546001810182556000919091527fd7b6990105719101dabeb77144f2a3385c8033acd3af97e9423a695e81ad1eb50180546001600160a01b0319166001600160a01b0392909216919091179055565b6153cc615c02565b6040518060200160405280670de0b6b3a76400006153f286600001518660000151615786565b816153f957fe5b0490529392505050565b61540b615c02565b604051806020016040528061543661542f8660000151670de0b6b3a7640000615786565b8551615a48565b90529392505050565b6001600160a01b03831660009081526009602052604081205460ff16615466576009611c29565b6001600160a01b038085166000908152600960209081526040808320938716835260029093019052205460ff1661549e576000611c29565b6000806154ae858786600061471d565b919350909150600090508260128111156154c457fe5b146154de578160128111156154d557fe5b92505050611c49565b8015612f545760046154d5565b6001600160a01b0382166000908152600960205260408120805460ff166155165760099150506123bd565b6001600160a01b038316600090815260028201602052604090205460ff16156155435760009150506123bd565b6001600160a01b0380841660008181526002840160209081526040808320805460ff19166001908117909155600883528184208054918201815584529282902090920180549489166001600160a01b031990951685179055815193845283019190915280517f3ab23ab0d51cccc0c3085aec51f99228625aa1a922b3a8ca89a26b0f2027a1a59281900390910190a15060009392505050565b6000806155e7612a49565b604080516370a0823160e01b815230600482015290519192506000916001600160a01b038416916370a08231916024808301926020929190829003018186803b15801561563357600080fd5b505afa158015615647573d6000803e3d6000fd5b505050506040513d602081101561565d57600080fd5b5051905083158015906156705750808411155b1561570d57816001600160a01b031663a9059cbb86866040518363ffffffff1660e01b815260040180836001600160a01b03166001600160a01b0316815260200182815260200192505050602060405180830381600087803b1580156156d557600080fd5b505af11580156156e9573d6000803e3d6000fd5b505050506040513d60208110156156ff57600080fd5b50600093506123bd92505050565b50919392505050565b6000611c498383604051806040016040528060118152602001706164646974696f6e206f766572666c6f7760781b815250615a7b565b6000611c498383604051806040016040528060158152602001747375627472616374696f6e20756e646572666c6f7760581b815250615ad0565b6000611c4983836040518060400160405280601781526020017f6d756c7469706c69636174696f6e206f766572666c6f77000000000000000000815250615b2a565b5190511090565b60007f45b96fe442630264581b197e84bbada861235052c5a1aadfff9ea4e40a969aa08460128111156157fe57fe5b84601781111561580a57fe5b604080519283526020830191909152818101859052519081900360600190a1836012811115611c4657fe5b6000611c4961584c84670de0b6b3a7640000615786565b8351615a48565b61585b615c02565b6040518060200160405280615436615882866ec097ce7bc90715b34b9f1000000000615786565b85615a48565b615890615c02565b604051806020016040528061543685600001518560000151615716565b600081600160e01b841061593f5760405162461bcd60e51b81526004018080602001828103825283818151815260200191508051906020019080838360005b838110156159045781810151838201526020016158ec565b50505050905090810190601f1680156159315780820380516001836020036101000a031916815260200191505b509250505060405180910390fd5b509192915050565b600081600160201b841061593f5760405162461bcd60e51b81526020600482018181528351602484015283519092839260449091019190850190808383600083156159045781810151838201526020016158ec565b6159a4615c02565b60405180602001604052806154368560000151856000015161574c565b60006ec097ce7bc90715b34b9f10000000006159e1848460000151615786565b816159e857fe5b049392505050565b60006159fa615c02565b615a048585615a18565b905061207e615a1282615a39565b84615716565b615a20615c02565b6040518060200160405280615436856000015185615786565b51670de0b6b3a7640000900490565b6000611c4983836040518060400160405280600e81526020016d646976696465206279207a65726f60901b815250615ba0565b60008383018285821015612aee5760405162461bcd60e51b81526020600482018181528351602484015283519092839260449091019190850190808383600083156159045781810151838201526020016158ec565b60008184841115615b225760405162461bcd60e51b81526020600482018181528351602484015283519092839260449091019190850190808383600083156159045781810151838201526020016158ec565b505050900390565b6000831580615b37575082155b15615b4457506000611c49565b83830283858281615b5157fe5b04148390612aee5760405162461bcd60e51b81526020600482018181528351602484015283519092839260449091019190850190808383600083156159045781810151838201526020016158ec565b60008183615bef5760405162461bcd60e51b81526020600482018181528351602484015283519092839260449091019190850190808383600083156159045781810151838201526020016158ec565b50828481615bf957fe5b04949350505050565b6040518060200160405280600081525090565b815481835581811115611dbc57600083815260209020611dbc918101908301615ca3565b604051806101400160405280600081526020016000815260200160008152602001600081526020016000815260200160008152602001615c77615c02565b8152602001615c84615c02565b8152602001615c91615c02565b8152602001615c9e615c02565b905290565b611a1c91905b80821115615cbd5760008155600101615ca9565b509056fe6f6e6c7920706175736520677561726469616e20616e642061646d696e2063616e6f6e6c792061646d696e206f7220626f72726f772063617020677561726469616e2063616e2073657420626f72726f772063617073a265627a7a723158205f0ff7aa5de919102dd0d91fb8d74fb513e8b02d79eecae0265d412f8a50e18764736f6c63430005100032",
  "linkReferences": {},
  "deployedLinkReferences": {}
}