{
  "_format": "hh-sol-artifact-1",
  "contractName": "ComptrollerScenarioG5",
  "sourceName": "contracts/test/ComptrollerScenarioG5.sol",
  "abi": [
    {
      "inputs": [],
      "payable": false,
      "stateMutability": "nonpayable",
      "type": "constructor"
    },
    {
      "anonymous": false,
      "inputs": [
        {
          "indexed": false,
          "internalType": "string",
          "name": "action",
          "type": "string"
        },
        {
          "indexed": false,
          "internalType": "bool",
          "name": "pauseState",
          "type": "bool"
        }
      ],
      "name": "ActionPaused",
      "type": "event"
    },
    {
      "anonymous": false,
      "inputs": [
        {
          "indexed": false,
          "internalType": "contract VToken",
          "name": "vToken",
          "type": "address"
        },
        {
          "indexed": false,
          "internalType": "string",
          "name": "action",
          "type": "string"
        },
        {
          "indexed": false,
          "internalType": "bool",
          "name": "pauseState",
          "type": "bool"
        }
      ],
      "name": "ActionPaused",
      "type": "event"
    },
    {
      "anonymous": false,
      "inputs": [
        {
          "indexed": false,
          "internalType": "bool",
          "name": "state",
          "type": "bool"
        }
      ],
      "name": "ActionProtocolPaused",
      "type": "event"
    },
    {
      "anonymous": false,
      "inputs": [
        {
          "indexed": true,
          "internalType": "contract VToken",
          "name": "vToken",
          "type": "address"
        },
        {
          "indexed": true,
          "internalType": "address",
          "name": "borrower",
          "type": "address"
        },
        {
          "indexed": false,
          "internalType": "uint256",
          "name": "venusDelta",
          "type": "uint256"
        },
        {
          "indexed": false,
          "internalType": "uint256",
          "name": "venusBorrowIndex",
          "type": "uint256"
        }
      ],
      "name": "DistributedBorrowerVenus",
      "type": "event"
    },
    {
      "anonymous": false,
      "inputs": [
        {
          "indexed": true,
          "internalType": "contract VToken",
          "name": "vToken",
          "type": "address"
        },
        {
          "indexed": true,
          "internalType": "address",
          "name": "supplier",
          "type": "address"
        },
        {
          "indexed": false,
          "internalType": "uint256",
          "name": "venusDelta",
          "type": "uint256"
        },
        {
          "indexed": false,
          "internalType": "uint256",
          "name": "venusSupplyIndex",
          "type": "uint256"
        }
      ],
      "name": "DistributedSupplierVenus",
      "type": "event"
    },
    {
      "anonymous": false,
      "inputs": [
        {
          "indexed": true,
          "internalType": "address",
          "name": "vaiMinter",
          "type": "address"
        },
        {
          "indexed": false,
          "internalType": "uint256",
          "name": "venusDelta",
          "type": "uint256"
        },
        {
          "indexed": false,
          "internalType": "uint256",
          "name": "venusVAIMintIndex",
          "type": "uint256"
        }
      ],
      "name": "DistributedVAIMinterVenus",
      "type": "event"
    },
    {
      "anonymous": false,
      "inputs": [
        {
          "indexed": false,
          "internalType": "uint256",
          "name": "amount",
          "type": "uint256"
        }
      ],
      "name": "DistributedVAIVaultVenus",
      "type": "event"
    },
    {
      "anonymous": false,
      "inputs": [
        {
          "indexed": false,
          "internalType": "uint256",
          "name": "error",
          "type": "uint256"
        },
        {
          "indexed": false,
          "internalType": "uint256",
          "name": "info",
          "type": "uint256"
        },
        {
          "indexed": false,
          "internalType": "uint256",
          "name": "detail",
          "type": "uint256"
        }
      ],
      "name": "Failure",
      "type": "event"
    },
    {
      "anonymous": false,
      "inputs": [
        {
          "indexed": false,
          "internalType": "contract VToken",
          "name": "vToken",
          "type": "address"
        },
        {
          "indexed": false,
          "internalType": "address",
          "name": "account",
          "type": "address"
        }
      ],
      "name": "MarketEntered",
      "type": "event"
    },
    {
      "anonymous": false,
      "inputs": [
        {
          "indexed": false,
          "internalType": "contract VToken",
          "name": "vToken",
          "type": "address"
        },
        {
          "indexed": false,
          "internalType": "address",
          "name": "account",
          "type": "address"
        }
      ],
      "name": "MarketExited",
      "type": "event"
    },
    {
      "anonymous": false,
      "inputs": [
        {
          "indexed": false,
          "internalType": "contract VToken",
          "name": "vToken",
          "type": "address"
        }
      ],
      "name": "MarketListed",
      "type": "event"
    },
    {
      "anonymous": false,
      "inputs": [
        {
          "indexed": true,
          "internalType": "contract VToken",
          "name": "vToken",
          "type": "address"
        },
        {
          "indexed": false,
          "internalType": "uint256",
          "name": "newBorrowCap",
          "type": "uint256"
        }
      ],
      "name": "NewBorrowCap",
      "type": "event"
    },
    {
      "anonymous": false,
      "inputs": [
        {
          "indexed": false,
          "internalType": "address",
          "name": "oldBorrowCapGuardian",
          "type": "address"
        },
        {
          "indexed": false,
          "internalType": "address",
          "name": "newBorrowCapGuardian",
          "type": "address"
        }
      ],
      "name": "NewBorrowCapGuardian",
      "type": "event"
    },
    {
      "anonymous": false,
      "inputs": [
        {
          "indexed": false,
          "internalType": "uint256",
          "name": "oldCloseFactorMantissa",
          "type": "uint256"
        },
        {
          "indexed": false,
          "internalType": "uint256",
          "name": "newCloseFactorMantissa",
          "type": "uint256"
        }
      ],
      "name": "NewCloseFactor",
      "type": "event"
    },
    {
      "anonymous": false,
      "inputs": [
        {
          "indexed": false,
          "internalType": "contract VToken",
          "name": "vToken",
          "type": "address"
        },
        {
          "indexed": false,
          "internalType": "uint256",
          "name": "oldCollateralFactorMantissa",
          "type": "uint256"
        },
        {
          "indexed": false,
          "internalType": "uint256",
          "name": "newCollateralFactorMantissa",
          "type": "uint256"
        }
      ],
      "name": "NewCollateralFactor",
      "type": "event"
    },
    {
      "anonymous": false,
      "inputs": [
        {
          "indexed": false,
          "internalType": "uint256",
          "name": "oldLiquidationIncentiveMantissa",
          "type": "uint256"
        },
        {
          "indexed": false,
          "internalType": "uint256",
          "name": "newLiquidationIncentiveMantissa",
          "type": "uint256"
        }
      ],
      "name": "NewLiquidationIncentive",
      "type": "event"
    },
    {
      "anonymous": false,
      "inputs": [
        {
          "indexed": false,
          "internalType": "address",
          "name": "oldPauseGuardian",
          "type": "address"
        },
        {
          "indexed": false,
          "internalType": "address",
          "name": "newPauseGuardian",
          "type": "address"
        }
      ],
      "name": "NewPauseGuardian",
      "type": "event"
    },
    {
      "anonymous": false,
      "inputs": [
        {
          "indexed": false,
          "internalType": "contract PriceOracle",
          "name": "oldPriceOracle",
          "type": "address"
        },
        {
          "indexed": false,
          "internalType": "contract PriceOracle",
          "name": "newPriceOracle",
          "type": "address"
        }
      ],
      "name": "NewPriceOracle",
      "type": "event"
    },
    {
      "anonymous": false,
      "inputs": [
        {
          "indexed": false,
          "internalType": "address",
          "name": "oldTreasuryAddress",
          "type": "address"
        },
        {
          "indexed": false,
          "internalType": "address",
          "name": "newTreasuryAddress",
          "type": "address"
        }
      ],
      "name": "NewTreasuryAddress",
      "type": "event"
    },
    {
      "anonymous": false,
      "inputs": [
        {
          "indexed": false,
          "internalType": "address",
          "name": "oldTreasuryGuardian",
          "type": "address"
        },
        {
          "indexed": false,
          "internalType": "address",
          "name": "newTreasuryGuardian",
          "type": "address"
        }
      ],
      "name": "NewTreasuryGuardian",
      "type": "event"
    },
    {
      "anonymous": false,
      "inputs": [
        {
          "indexed": false,
          "internalType": "uint256",
          "name": "oldTreasuryPercent",
          "type": "uint256"
        },
        {
          "indexed": false,
          "internalType": "uint256",
          "name": "newTreasuryPercent",
          "type": "uint256"
        }
      ],
      "name": "NewTreasuryPercent",
      "type": "event"
    },
    {
      "anonymous": false,
      "inputs": [
        {
          "indexed": false,
          "internalType": "contract VAIControllerInterface",
          "name": "oldVAIController",
          "type": "address"
        },
        {
          "indexed": false,
          "internalType": "contract VAIControllerInterface",
          "name": "newVAIController",
          "type": "address"
        }
      ],
      "name": "NewVAIController",
      "type": "event"
    },
    {
      "anonymous": false,
      "inputs": [
        {
          "indexed": false,
          "internalType": "uint256",
          "name": "oldVAIMintRate",
          "type": "uint256"
        },
        {
          "indexed": false,
          "internalType": "uint256",
          "name": "newVAIMintRate",
          "type": "uint256"
        }
      ],
      "name": "NewVAIMintRate",
      "type": "event"
    },
    {
      "anonymous": false,
      "inputs": [
        {
          "indexed": false,
          "internalType": "address",
          "name": "vault_",
          "type": "address"
        },
        {
          "indexed": false,
          "internalType": "uint256",
          "name": "releaseStartBlock_",
          "type": "uint256"
        },
        {
          "indexed": false,
          "internalType": "uint256",
          "name": "releaseInterval_",
          "type": "uint256"
        }
      ],
      "name": "NewVAIVaultInfo",
      "type": "event"
    },
    {
      "anonymous": false,
      "inputs": [
        {
          "indexed": false,
          "internalType": "uint256",
          "name": "oldVenusVAIVaultRate",
          "type": "uint256"
        },
        {
          "indexed": false,
          "internalType": "uint256",
          "name": "newVenusVAIVaultRate",
          "type": "uint256"
        }
      ],
      "name": "NewVenusVAIVaultRate",
      "type": "event"
    },
    {
      "anonymous": false,
      "inputs": [
        {
          "indexed": false,
          "internalType": "address",
          "name": "recipient",
          "type": "address"
        },
        {
          "indexed": false,
          "internalType": "uint256",
          "name": "amount",
          "type": "uint256"
        }
      ],
      "name": "VenusGranted",
      "type": "event"
    },
    {
      "anonymous": false,
      "inputs": [
        {
          "indexed": true,
          "internalType": "contract VToken",
          "name": "vToken",
          "type": "address"
        },
        {
          "indexed": false,
          "internalType": "uint256",
          "name": "newSpeed",
          "type": "uint256"
        }
      ],
      "name": "VenusSpeedUpdated",
      "type": "event"
    },
    {
      "constant": false,
      "inputs": [
        {
          "internalType": "contract Unitroller",
          "name": "unitroller",
          "type": "address"
        }
      ],
      "name": "_become",
      "outputs": [],
      "payable": false,
      "stateMutability": "nonpayable",
      "type": "function"
    },
    {
      "constant": false,
      "inputs": [
        {
          "internalType": "address",
          "name": "recipient",
          "type": "address"
        },
        {
          "internalType": "uint256",
          "name": "amount",
          "type": "uint256"
        }
      ],
      "name": "_grantXVS",
      "outputs": [],
      "payable": false,
      "stateMutability": "nonpayable",
      "type": "function"
    },
    {
      "constant": false,
      "inputs": [
        {
          "internalType": "address",
          "name": "newBorrowCapGuardian",
          "type": "address"
        }
      ],
      "name": "_setBorrowCapGuardian",
      "outputs": [],
      "payable": false,
      "stateMutability": "nonpayable",
      "type": "function"
    },
    {
      "constant": false,
      "inputs": [
        {
          "internalType": "uint256",
          "name": "newCloseFactorMantissa",
          "type": "uint256"
        }
      ],
      "name": "_setCloseFactor",
      "outputs": [
        {
          "internalType": "uint256",
          "name": "",
          "type": "uint256"
        }
      ],
      "payable": false,
      "stateMutability": "nonpayable",
      "type": "function"
    },
    {
      "constant": false,
      "inputs": [
        {
          "internalType": "contract VToken",
          "name": "vToken",
          "type": "address"
        },
        {
          "internalType": "uint256",
          "name": "newCollateralFactorMantissa",
          "type": "uint256"
        }
      ],
      "name": "_setCollateralFactor",
      "outputs": [
        {
          "internalType": "uint256",
          "name": "",
          "type": "uint256"
        }
      ],
      "payable": false,
      "stateMutability": "nonpayable",
      "type": "function"
    },
    {
      "constant": false,
      "inputs": [
        {
          "internalType": "uint256",
          "name": "newLiquidationIncentiveMantissa",
          "type": "uint256"
        }
      ],
      "name": "_setLiquidationIncentive",
      "outputs": [
        {
          "internalType": "uint256",
          "name": "",
          "type": "uint256"
        }
      ],
      "payable": false,
      "stateMutability": "nonpayable",
      "type": "function"
    },
    {
      "constant": false,
      "inputs": [
        {
          "internalType": "contract VToken[]",
          "name": "vTokens",
          "type": "address[]"
        },
        {
          "internalType": "uint256[]",
          "name": "newBorrowCaps",
          "type": "uint256[]"
        }
      ],
      "name": "_setMarketBorrowCaps",
      "outputs": [],
      "payable": false,
      "stateMutability": "nonpayable",
      "type": "function"
    },
    {
      "constant": false,
      "inputs": [
        {
          "internalType": "address",
          "name": "newPauseGuardian",
          "type": "address"
        }
      ],
      "name": "_setPauseGuardian",
      "outputs": [
        {
          "internalType": "uint256",
          "name": "",
          "type": "uint256"
        }
      ],
      "payable": false,
      "stateMutability": "nonpayable",
      "type": "function"
    },
    {
      "constant": false,
      "inputs": [
        {
          "internalType": "contract PriceOracle",
          "name": "newOracle",
          "type": "address"
        }
      ],
      "name": "_setPriceOracle",
      "outputs": [
        {
          "internalType": "uint256",
          "name": "",
          "type": "uint256"
        }
      ],
      "payable": false,
      "stateMutability": "nonpayable",
      "type": "function"
    },
    {
      "constant": false,
      "inputs": [
        {
          "internalType": "bool",
          "name": "state",
          "type": "bool"
        }
      ],
      "name": "_setProtocolPaused",
      "outputs": [
        {
          "internalType": "bool",
          "name": "",
          "type": "bool"
        }
      ],
      "payable": false,
      "stateMutability": "nonpayable",
      "type": "function"
    },
    {
      "constant": false,
      "inputs": [
        {
          "internalType": "address",
          "name": "newTreasuryGuardian",
          "type": "address"
        },
        {
          "internalType": "address",
          "name": "newTreasuryAddress",
          "type": "address"
        },
        {
          "internalType": "uint256",
          "name": "newTreasuryPercent",
          "type": "uint256"
        }
      ],
      "name": "_setTreasuryData",
      "outputs": [
        {
          "internalType": "uint256",
          "name": "",
          "type": "uint256"
        }
      ],
      "payable": false,
      "stateMutability": "nonpayable",
      "type": "function"
    },
    {
      "constant": false,
      "inputs": [
        {
          "internalType": "contract VAIControllerInterface",
          "name": "vaiController_",
          "type": "address"
        }
      ],
      "name": "_setVAIController",
      "outputs": [
        {
          "internalType": "uint256",
          "name": "",
          "type": "uint256"
        }
      ],
      "payable": false,
      "stateMutability": "nonpayable",
      "type": "function"
    },
    {
      "constant": false,
      "inputs": [
        {
          "internalType": "uint256",
          "name": "newVAIMintRate",
          "type": "uint256"
        }
      ],
      "name": "_setVAIMintRate",
      "outputs": [
        {
          "internalType": "uint256",
          "name": "",
          "type": "uint256"
        }
      ],
      "payable": false,
      "stateMutability": "nonpayable",
      "type": "function"
    },
    {
      "constant": false,
      "inputs": [
        {
          "internalType": "address",
          "name": "vault_",
          "type": "address"
        },
        {
          "internalType": "uint256",
          "name": "releaseStartBlock_",
          "type": "uint256"
        },
        {
          "internalType": "uint256",
          "name": "minReleaseAmount_",
          "type": "uint256"
        }
      ],
      "name": "_setVAIVaultInfo",
      "outputs": [],
      "payable": false,
      "stateMutability": "nonpayable",
      "type": "function"
    },
    {
      "constant": false,
      "inputs": [
        {
          "internalType": "contract VToken",
          "name": "vToken",
          "type": "address"
        },
        {
          "internalType": "uint256",
          "name": "venusSpeed",
          "type": "uint256"
        }
      ],
      "name": "_setVenusSpeed",
      "outputs": [],
      "payable": false,
      "stateMutability": "nonpayable",
      "type": "function"
    },
    {
      "constant": false,
      "inputs": [
        {
          "internalType": "uint256",
          "name": "venusVAIVaultRate_",
          "type": "uint256"
        }
      ],
      "name": "_setVenusVAIVaultRate",
      "outputs": [],
      "payable": false,
      "stateMutability": "nonpayable",
      "type": "function"
    },
    {
      "constant": false,
      "inputs": [
        {
          "internalType": "contract VToken",
          "name": "vToken",
          "type": "address"
        }
      ],
      "name": "_supportMarket",
      "outputs": [
        {
          "internalType": "uint256",
          "name": "",
          "type": "uint256"
        }
      ],
      "payable": false,
      "stateMutability": "nonpayable",
      "type": "function"
    },
    {
      "constant": true,
      "inputs": [
        {
          "internalType": "address",
          "name": "",
          "type": "address"
        },
        {
          "internalType": "uint256",
          "name": "",
          "type": "uint256"
        }
      ],
      "name": "accountAssets",
      "outputs": [
        {
          "internalType": "contract VToken",
          "name": "",
          "type": "address"
        }
      ],
      "payable": false,
      "stateMutability": "view",
      "type": "function"
    },
    {
      "constant": true,
      "inputs": [],
      "name": "admin",
      "outputs": [
        {
          "internalType": "address",
          "name": "",
          "type": "address"
        }
      ],
      "payable": false,
      "stateMutability": "view",
      "type": "function"
    },
    {
      "constant": true,
      "inputs": [
        {
          "internalType": "uint256",
          "name": "",
          "type": "uint256"
        }
      ],
      "name": "allMarkets",
      "outputs": [
        {
          "internalType": "contract VToken",
          "name": "",
          "type": "address"
        }
      ],
      "payable": false,
      "stateMutability": "view",
      "type": "function"
    },
    {
      "constant": true,
      "inputs": [],
      "name": "blockNumber",
      "outputs": [
        {
          "internalType": "uint256",
          "name": "",
          "type": "uint256"
        }
      ],
      "payable": false,
      "stateMutability": "view",
      "type": "function"
    },
    {
      "constant": false,
      "inputs": [
        {
          "internalType": "address",
          "name": "vToken",
          "type": "address"
        },
        {
          "internalType": "address",
          "name": "borrower",
          "type": "address"
        },
        {
          "internalType": "uint256",
          "name": "borrowAmount",
          "type": "uint256"
        }
      ],
      "name": "borrowAllowed",
      "outputs": [
        {
          "internalType": "uint256",
          "name": "",
          "type": "uint256"
        }
      ],
      "payable": false,
      "stateMutability": "nonpayable",
      "type": "function"
    },
    {
      "constant": true,
      "inputs": [],
      "name": "borrowCapGuardian",
      "outputs": [
        {
          "internalType": "address",
          "name": "",
          "type": "address"
        }
      ],
      "payable": false,
      "stateMutability": "view",
      "type": "function"
    },
    {
      "constant": true,
      "inputs": [
        {
          "internalType": "address",
          "name": "",
          "type": "address"
        }
      ],
      "name": "borrowCaps",
      "outputs": [
        {
          "internalType": "uint256",
          "name": "",
          "type": "uint256"
        }
      ],
      "payable": false,
      "stateMutability": "view",
      "type": "function"
    },
    {
      "constant": false,
      "inputs": [
        {
          "internalType": "address",
          "name": "vToken",
          "type": "address"
        },
        {
          "internalType": "address",
          "name": "borrower",
          "type": "address"
        },
        {
          "internalType": "uint256",
          "name": "borrowAmount",
          "type": "uint256"
        }
      ],
      "name": "borrowVerify",
      "outputs": [],
      "payable": false,
      "stateMutability": "nonpayable",
      "type": "function"
    },
    {
      "constant": true,
      "inputs": [
        {
          "internalType": "address",
          "name": "account",
          "type": "address"
        },
        {
          "internalType": "contract VToken",
          "name": "vToken",
          "type": "address"
        }
      ],
      "name": "checkMembership",
      "outputs": [
        {
          "internalType": "bool",
          "name": "",
          "type": "bool"
        }
      ],
      "payable": false,
      "stateMutability": "view",
      "type": "function"
    },
    {
      "constant": false,
      "inputs": [
        {
          "internalType": "address",
          "name": "holder",
          "type": "address"
        },
        {
          "internalType": "contract VToken[]",
          "name": "vTokens",
          "type": "address[]"
        }
      ],
      "name": "claimVenus",
      "outputs": [],
      "payable": false,
      "stateMutability": "nonpayable",
      "type": "function"
    },
    {
      "constant": false,
      "inputs": [
        {
          "internalType": "address",
          "name": "holder",
          "type": "address"
        }
      ],
      "name": "claimVenus",
      "outputs": [],
      "payable": false,
      "stateMutability": "nonpayable",
      "type": "function"
    },
    {
      "constant": false,
      "inputs": [
        {
          "internalType": "address[]",
          "name": "holders",
          "type": "address[]"
        },
        {
          "internalType": "contract VToken[]",
          "name": "vTokens",
          "type": "address[]"
        },
        {
          "internalType": "bool",
          "name": "borrowers",
          "type": "bool"
        },
        {
          "internalType": "bool",
          "name": "suppliers",
          "type": "bool"
        }
      ],
      "name": "claimVenus",
      "outputs": [],
      "payable": false,
      "stateMutability": "nonpayable",
      "type": "function"
    },
    {
      "constant": true,
      "inputs": [],
      "name": "closeFactorMantissa",
      "outputs": [
        {
          "internalType": "uint256",
          "name": "",
          "type": "uint256"
        }
      ],
      "payable": false,
      "stateMutability": "view",
      "type": "function"
    },
    {
      "constant": true,
      "inputs": [],
      "name": "comptrollerImplementation",
      "outputs": [
        {
          "internalType": "address",
          "name": "",
          "type": "address"
        }
      ],
      "payable": false,
      "stateMutability": "view",
      "type": "function"
    },
    {
      "constant": false,
      "inputs": [
        {
          "internalType": "address",
          "name": "vaiMinter",
          "type": "address"
        }
      ],
      "name": "distributeVAIMinterVenus",
      "outputs": [],
      "payable": false,
      "stateMutability": "nonpayable",
      "type": "function"
    },
    {
      "constant": false,
      "inputs": [
        {
          "internalType": "address[]",
          "name": "vTokens",
          "type": "address[]"
        }
      ],
      "name": "enterMarkets",
      "outputs": [
        {
          "internalType": "uint256[]",
          "name": "",
          "type": "uint256[]"
        }
      ],
      "payable": false,
      "stateMutability": "nonpayable",
      "type": "function"
    },
    {
      "constant": false,
      "inputs": [
        {
          "internalType": "address",
          "name": "vTokenAddress",
          "type": "address"
        }
      ],
      "name": "exitMarket",
      "outputs": [
        {
          "internalType": "uint256",
          "name": "",
          "type": "uint256"
        }
      ],
      "payable": false,
      "stateMutability": "nonpayable",
      "type": "function"
    },
    {
      "constant": false,
      "inputs": [
        {
          "internalType": "uint256",
          "name": "blocks",
          "type": "uint256"
        }
      ],
      "name": "fastForward",
      "outputs": [
        {
          "internalType": "uint256",
          "name": "",
          "type": "uint256"
        }
      ],
      "payable": false,
      "stateMutability": "nonpayable",
      "type": "function"
    },
    {
      "constant": true,
      "inputs": [
        {
          "internalType": "address",
          "name": "account",
          "type": "address"
        }
      ],
      "name": "getAccountLiquidity",
      "outputs": [
        {
          "internalType": "uint256",
          "name": "",
          "type": "uint256"
        },
        {
          "internalType": "uint256",
          "name": "",
          "type": "uint256"
        },
        {
          "internalType": "uint256",
          "name": "",
          "type": "uint256"
        }
      ],
      "payable": false,
      "stateMutability": "view",
      "type": "function"
    },
    {
      "constant": true,
      "inputs": [],
      "name": "getAllMarkets",
      "outputs": [
        {
          "internalType": "contract VToken[]",
          "name": "",
          "type": "address[]"
        }
      ],
      "payable": false,
      "stateMutability": "view",
      "type": "function"
    },
    {
      "constant": true,
      "inputs": [
        {
          "internalType": "address",
          "name": "account",
          "type": "address"
        }
      ],
      "name": "getAssetsIn",
      "outputs": [
        {
          "internalType": "contract VToken[]",
          "name": "",
          "type": "address[]"
        }
      ],
      "payable": false,
      "stateMutability": "view",
      "type": "function"
    },
    {
      "constant": true,
      "inputs": [],
      "name": "getBlockNumber",
      "outputs": [
        {
          "internalType": "uint256",
          "name": "",
          "type": "uint256"
        }
      ],
      "payable": false,
      "stateMutability": "view",
      "type": "function"
    },
    {
      "constant": true,
      "inputs": [
        {
          "internalType": "address",
          "name": "account",
          "type": "address"
        },
        {
          "internalType": "address",
          "name": "vTokenModify",
          "type": "address"
        },
        {
          "internalType": "uint256",
          "name": "redeemTokens",
          "type": "uint256"
        },
        {
          "internalType": "uint256",
          "name": "borrowAmount",
          "type": "uint256"
        }
      ],
      "name": "getHypotheticalAccountLiquidity",
      "outputs": [
        {
          "internalType": "uint256",
          "name": "",
          "type": "uint256"
        },
        {
          "internalType": "uint256",
          "name": "",
          "type": "uint256"
        },
        {
          "internalType": "uint256",
          "name": "",
          "type": "uint256"
        }
      ],
      "payable": false,
      "stateMutability": "view",
      "type": "function"
    },
    {
      "constant": true,
      "inputs": [],
      "name": "getXVSAddress",
      "outputs": [
        {
          "internalType": "address",
          "name": "",
          "type": "address"
        }
      ],
      "payable": false,
      "stateMutability": "view",
      "type": "function"
    },
    {
      "constant": true,
      "inputs": [],
      "name": "isComptroller",
      "outputs": [
        {
          "internalType": "bool",
          "name": "",
          "type": "bool"
        }
      ],
      "payable": false,
      "stateMutability": "view",
      "type": "function"
    },
    {
      "constant": false,
      "inputs": [
        {
          "internalType": "address",
          "name": "vTokenBorrowed",
          "type": "address"
        },
        {
          "internalType": "address",
          "name": "vTokenCollateral",
          "type": "address"
        },
        {
          "internalType": "address",
          "name": "liquidator",
          "type": "address"
        },
        {
          "internalType": "address",
          "name": "borrower",
          "type": "address"
        },
        {
          "internalType": "uint256",
          "name": "repayAmount",
          "type": "uint256"
        }
      ],
      "name": "liquidateBorrowAllowed",
      "outputs": [
        {
          "internalType": "uint256",
          "name": "",
          "type": "uint256"
        }
      ],
      "payable": false,
      "stateMutability": "nonpayable",
      "type": "function"
    },
    {
      "constant": false,
      "inputs": [
        {
          "internalType": "address",
          "name": "vTokenBorrowed",
          "type": "address"
        },
        {
          "internalType": "address",
          "name": "vTokenCollateral",
          "type": "address"
        },
        {
          "internalType": "address",
          "name": "liquidator",
          "type": "address"
        },
        {
          "internalType": "address",
          "name": "borrower",
          "type": "address"
        },
        {
          "internalType": "uint256",
          "name": "actualRepayAmount",
          "type": "uint256"
        },
        {
          "internalType": "uint256",
          "name": "seizeTokens",
          "type": "uint256"
        }
      ],
      "name": "liquidateBorrowVerify",
      "outputs": [],
      "payable": false,
      "stateMutability": "nonpayable",
      "type": "function"
    },
    {
      "constant": true,
      "inputs": [
        {
          "internalType": "address",
          "name": "vTokenBorrowed",
          "type": "address"
        },
        {
          "internalType": "address",
          "name": "vTokenCollateral",
          "type": "address"
        },
        {
          "internalType": "uint256",
          "name": "actualRepayAmount",
          "type": "uint256"
        }
      ],
      "name": "liquidateCalculateSeizeTokens",
      "outputs": [
        {
          "internalType": "uint256",
          "name": "",
          "type": "uint256"
        },
        {
          "internalType": "uint256",
          "name": "",
          "type": "uint256"
        }
      ],
      "payable": false,
      "stateMutability": "view",
      "type": "function"
    },
    {
      "constant": true,
      "inputs": [
        {
          "internalType": "address",
          "name": "vTokenCollateral",
          "type": "address"
        },
        {
          "internalType": "uint256",
          "name": "actualRepayAmount",
          "type": "uint256"
        }
      ],
      "name": "liquidateVAICalculateSeizeTokens",
      "outputs": [
        {
          "internalType": "uint256",
          "name": "",
          "type": "uint256"
        },
        {
          "internalType": "uint256",
          "name": "",
          "type": "uint256"
        }
      ],
      "payable": false,
      "stateMutability": "view",
      "type": "function"
    },
    {
      "constant": true,
      "inputs": [],
      "name": "liquidationIncentiveMantissa",
      "outputs": [
        {
          "internalType": "uint256",
          "name": "",
          "type": "uint256"
        }
      ],
      "payable": false,
      "stateMutability": "view",
      "type": "function"
    },
    {
      "constant": true,
      "inputs": [
        {
          "internalType": "address",
          "name": "",
          "type": "address"
        }
      ],
      "name": "markets",
      "outputs": [
        {
          "internalType": "bool",
          "name": "isListed",
          "type": "bool"
        },
        {
          "internalType": "uint256",
          "name": "collateralFactorMantissa",
          "type": "uint256"
        },
        {
          "internalType": "bool",
          "name": "isVenus",
          "type": "bool"
        }
      ],
      "payable": false,
      "stateMutability": "view",
      "type": "function"
    },
    {
      "constant": true,
      "inputs": [],
      "name": "maxAssets",
      "outputs": [
        {
          "internalType": "uint256",
          "name": "",
          "type": "uint256"
        }
      ],
      "payable": false,
      "stateMutability": "view",
      "type": "function"
    },
    {
      "constant": true,
      "inputs": [
        {
          "internalType": "contract VToken",
          "name": "vToken",
          "type": "address"
        }
      ],
      "name": "membershipLength",
      "outputs": [
        {
          "internalType": "uint256",
          "name": "",
          "type": "uint256"
        }
      ],
      "payable": false,
      "stateMutability": "view",
      "type": "function"
    },
    {
      "constant": true,
      "inputs": [],
      "name": "minReleaseAmount",
      "outputs": [
        {
          "internalType": "uint256",
          "name": "",
          "type": "uint256"
        }
      ],
      "payable": false,
      "stateMutability": "view",
      "type": "function"
    },
    {
      "constant": false,
      "inputs": [
        {
          "internalType": "address",
          "name": "vToken",
          "type": "address"
        },
        {
          "internalType": "address",
          "name": "minter",
          "type": "address"
        },
        {
          "internalType": "uint256",
          "name": "mintAmount",
          "type": "uint256"
        }
      ],
      "name": "mintAllowed",
      "outputs": [
        {
          "internalType": "uint256",
          "name": "",
          "type": "uint256"
        }
      ],
      "payable": false,
      "stateMutability": "nonpayable",
      "type": "function"
    },
    {
      "constant": true,
      "inputs": [],
      "name": "mintVAIGuardianPaused",
      "outputs": [
        {
          "internalType": "bool",
          "name": "",
          "type": "bool"
        }
      ],
      "payable": false,
      "stateMutability": "view",
      "type": "function"
    },
    {
      "constant": false,
      "inputs": [
        {
          "internalType": "address",
          "name": "vToken",
          "type": "address"
        },
        {
          "internalType": "address",
          "name": "minter",
          "type": "address"
        },
        {
          "internalType": "uint256",
          "name": "actualMintAmount",
          "type": "uint256"
        },
        {
          "internalType": "uint256",
          "name": "mintTokens",
          "type": "uint256"
        }
      ],
      "name": "mintVerify",
      "outputs": [],
      "payable": false,
      "stateMutability": "nonpayable",
      "type": "function"
    },
    {
      "constant": true,
      "inputs": [
        {
          "internalType": "address",
          "name": "",
          "type": "address"
        }
      ],
      "name": "mintedVAIs",
      "outputs": [
        {
          "internalType": "uint256",
          "name": "",
          "type": "uint256"
        }
      ],
      "payable": false,
      "stateMutability": "view",
      "type": "function"
    },
    {
      "constant": true,
      "inputs": [],
      "name": "oracle",
      "outputs": [
        {
          "internalType": "contract PriceOracle",
          "name": "",
          "type": "address"
        }
      ],
      "payable": false,
      "stateMutability": "view",
      "type": "function"
    },
    {
      "constant": true,
      "inputs": [],
      "name": "pauseGuardian",
      "outputs": [
        {
          "internalType": "address",
          "name": "",
          "type": "address"
        }
      ],
      "payable": false,
      "stateMutability": "view",
      "type": "function"
    },
    {
      "constant": true,
      "inputs": [],
      "name": "pendingAdmin",
      "outputs": [
        {
          "internalType": "address",
          "name": "",
          "type": "address"
        }
      ],
      "payable": false,
      "stateMutability": "view",
      "type": "function"
    },
    {
      "constant": true,
      "inputs": [],
      "name": "pendingComptrollerImplementation",
      "outputs": [
        {
          "internalType": "address",
          "name": "",
          "type": "address"
        }
      ],
      "payable": false,
      "stateMutability": "view",
      "type": "function"
    },
    {
      "constant": true,
      "inputs": [],
      "name": "protocolPaused",
      "outputs": [
        {
          "internalType": "bool",
          "name": "",
          "type": "bool"
        }
      ],
      "payable": false,
      "stateMutability": "view",
      "type": "function"
    },
    {
      "constant": false,
      "inputs": [
        {
          "internalType": "address",
          "name": "vToken",
          "type": "address"
        },
        {
          "internalType": "address",
          "name": "redeemer",
          "type": "address"
        },
        {
          "internalType": "uint256",
          "name": "redeemTokens",
          "type": "uint256"
        }
      ],
      "name": "redeemAllowed",
      "outputs": [
        {
          "internalType": "uint256",
          "name": "",
          "type": "uint256"
        }
      ],
      "payable": false,
      "stateMutability": "nonpayable",
      "type": "function"
    },
    {
      "constant": false,
      "inputs": [
        {
          "internalType": "address",
          "name": "vToken",
          "type": "address"
        },
        {
          "internalType": "address",
          "name": "redeemer",
          "type": "address"
        },
        {
          "internalType": "uint256",
          "name": "redeemAmount",
          "type": "uint256"
        },
        {
          "internalType": "uint256",
          "name": "redeemTokens",
          "type": "uint256"
        }
      ],
      "name": "redeemVerify",
      "outputs": [],
      "payable": false,
      "stateMutability": "nonpayable",
      "type": "function"
    },
    {
      "constant": true,
      "inputs": [],
      "name": "releaseStartBlock",
      "outputs": [
        {
          "internalType": "uint256",
          "name": "",
          "type": "uint256"
        }
      ],
      "payable": false,
      "stateMutability": "view",
      "type": "function"
    },
    {
      "constant": false,
      "inputs": [],
      "name": "releaseToVault",
      "outputs": [],
      "payable": false,
      "stateMutability": "nonpayable",
      "type": "function"
    },
    {
      "constant": false,
      "inputs": [
        {
          "internalType": "address",
          "name": "vToken",
          "type": "address"
        },
        {
          "internalType": "address",
          "name": "payer",
          "type": "address"
        },
        {
          "internalType": "address",
          "name": "borrower",
          "type": "address"
        },
        {
          "internalType": "uint256",
          "name": "repayAmount",
          "type": "uint256"
        }
      ],
      "name": "repayBorrowAllowed",
      "outputs": [
        {
          "internalType": "uint256",
          "name": "",
          "type": "uint256"
        }
      ],
      "payable": false,
      "stateMutability": "nonpayable",
      "type": "function"
    },
    {
      "constant": false,
      "inputs": [
        {
          "internalType": "address",
          "name": "vToken",
          "type": "address"
        },
        {
          "internalType": "address",
          "name": "payer",
          "type": "address"
        },
        {
          "internalType": "address",
          "name": "borrower",
          "type": "address"
        },
        {
          "internalType": "uint256",
          "name": "actualRepayAmount",
          "type": "uint256"
        },
        {
          "internalType": "uint256",
          "name": "borrowerIndex",
          "type": "uint256"
        }
      ],
      "name": "repayBorrowVerify",
      "outputs": [],
      "payable": false,
      "stateMutability": "nonpayable",
      "type": "function"
    },
    {
      "constant": true,
      "inputs": [],
      "name": "repayVAIGuardianPaused",
      "outputs": [
        {
          "internalType": "bool",
          "name": "",
          "type": "bool"
        }
      ],
      "payable": false,
      "stateMutability": "view",
      "type": "function"
    },
    {
      "constant": false,
      "inputs": [
        {
          "internalType": "address",
          "name": "vTokenCollateral",
          "type": "address"
        },
        {
          "internalType": "address",
          "name": "vTokenBorrowed",
          "type": "address"
        },
        {
          "internalType": "address",
          "name": "liquidator",
          "type": "address"
        },
        {
          "internalType": "address",
          "name": "borrower",
          "type": "address"
        },
        {
          "internalType": "uint256",
          "name": "seizeTokens",
          "type": "uint256"
        }
      ],
      "name": "seizeAllowed",
      "outputs": [
        {
          "internalType": "uint256",
          "name": "",
          "type": "uint256"
        }
      ],
      "payable": false,
      "stateMutability": "nonpayable",
      "type": "function"
    },
    {
      "constant": false,
      "inputs": [
        {
          "internalType": "address",
          "name": "vTokenCollateral",
          "type": "address"
        },
        {
          "internalType": "address",
          "name": "vTokenBorrowed",
          "type": "address"
        },
        {
          "internalType": "address",
          "name": "liquidator",
          "type": "address"
        },
        {
          "internalType": "address",
          "name": "borrower",
          "type": "address"
        },
        {
          "internalType": "uint256",
          "name": "seizeTokens",
          "type": "uint256"
        }
      ],
      "name": "seizeVerify",
      "outputs": [],
      "payable": false,
      "stateMutability": "nonpayable",
      "type": "function"
    },
    {
      "constant": false,
      "inputs": [
        {
          "internalType": "uint256",
          "name": "number",
          "type": "uint256"
        }
      ],
      "name": "setBlockNumber",
      "outputs": [],
      "payable": false,
      "stateMutability": "nonpayable",
      "type": "function"
    },
    {
      "constant": false,
      "inputs": [
        {
          "internalType": "address",
          "name": "owner",
          "type": "address"
        },
        {
          "internalType": "uint256",
          "name": "amount",
          "type": "uint256"
        }
      ],
      "name": "setMintedVAIOf",
      "outputs": [
        {
          "internalType": "uint256",
          "name": "",
          "type": "uint256"
        }
      ],
      "payable": false,
      "stateMutability": "nonpayable",
      "type": "function"
    },
    {
      "constant": false,
      "inputs": [
        {
          "internalType": "address",
          "name": "vToken",
          "type": "address"
        },
        {
          "internalType": "uint256",
          "name": "venusSpeed",
          "type": "uint256"
        }
      ],
      "name": "setVenusSpeed",
      "outputs": [],
      "payable": false,
      "stateMutability": "nonpayable",
      "type": "function"
    },
    {
      "constant": false,
      "inputs": [
        {
          "internalType": "address",
          "name": "vToken",
          "type": "address"
        },
        {
          "internalType": "address",
          "name": "src",
          "type": "address"
        },
        {
          "internalType": "address",
          "name": "dst",
          "type": "address"
        },
        {
          "internalType": "uint256",
          "name": "transferTokens",
          "type": "uint256"
        }
      ],
      "name": "transferAllowed",
      "outputs": [
        {
          "internalType": "uint256",
          "name": "",
          "type": "uint256"
        }
      ],
      "payable": false,
      "stateMutability": "nonpayable",
      "type": "function"
    },
    {
      "constant": false,
      "inputs": [
        {
          "internalType": "address",
          "name": "vToken",
          "type": "address"
        },
        {
          "internalType": "address",
          "name": "src",
          "type": "address"
        },
        {
          "internalType": "address",
          "name": "dst",
          "type": "address"
        },
        {
          "internalType": "uint256",
          "name": "transferTokens",
          "type": "uint256"
        }
      ],
      "name": "transferVerify",
      "outputs": [],
      "payable": false,
      "stateMutability": "nonpayable",
      "type": "function"
    },
    {
      "constant": true,
      "inputs": [],
      "name": "treasuryAddress",
      "outputs": [
        {
          "internalType": "address",
          "name": "",
          "type": "address"
        }
      ],
      "payable": false,
      "stateMutability": "view",
      "type": "function"
    },
    {
      "constant": true,
      "inputs": [],
      "name": "treasuryGuardian",
      "outputs": [
        {
          "internalType": "address",
          "name": "",
          "type": "address"
        }
      ],
      "payable": false,
      "stateMutability": "view",
      "type": "function"
    },
    {
      "constant": true,
      "inputs": [],
      "name": "treasuryPercent",
      "outputs": [
        {
          "internalType": "uint256",
          "name": "",
          "type": "uint256"
        }
      ],
      "payable": false,
      "stateMutability": "view",
      "type": "function"
    },
    {
      "constant": false,
      "inputs": [
        {
          "internalType": "contract VToken",
          "name": "vToken",
          "type": "address"
        }
      ],
      "name": "unlist",
      "outputs": [],
      "payable": false,
      "stateMutability": "nonpayable",
      "type": "function"
    },
    {
      "constant": true,
      "inputs": [],
      "name": "vaiController",
      "outputs": [
        {
          "internalType": "contract VAIControllerInterface",
          "name": "",
          "type": "address"
        }
      ],
      "payable": false,
      "stateMutability": "view",
      "type": "function"
    },
    {
      "constant": true,
      "inputs": [],
      "name": "vaiMintRate",
      "outputs": [
        {
          "internalType": "uint256",
          "name": "",
          "type": "uint256"
        }
      ],
      "payable": false,
      "stateMutability": "view",
      "type": "function"
    },
    {
      "constant": true,
      "inputs": [],
      "name": "vaiVaultAddress",
      "outputs": [
        {
          "internalType": "address",
          "name": "",
          "type": "address"
        }
      ],
      "payable": false,
      "stateMutability": "view",
      "type": "function"
    },
    {
      "constant": true,
      "inputs": [
        {
          "internalType": "address",
          "name": "",
          "type": "address"
        }
      ],
      "name": "venusAccrued",
      "outputs": [
        {
          "internalType": "uint256",
          "name": "",
          "type": "uint256"
        }
      ],
      "payable": false,
      "stateMutability": "view",
      "type": "function"
    },
    {
      "constant": true,
      "inputs": [
        {
          "internalType": "address",
          "name": "",
          "type": "address"
        }
      ],
      "name": "venusBorrowState",
      "outputs": [
        {
          "internalType": "uint224",
          "name": "index",
          "type": "uint224"
        },
        {
          "internalType": "uint32",
          "name": "block",
          "type": "uint32"
        }
      ],
      "payable": false,
      "stateMutability": "view",
      "type": "function"
    },
    {
      "constant": true,
      "inputs": [
        {
          "internalType": "address",
          "name": "",
          "type": "address"
        },
        {
          "internalType": "address",
          "name": "",
          "type": "address"
        }
      ],
      "name": "venusBorrowerIndex",
      "outputs": [
        {
          "internalType": "uint256",
          "name": "",
          "type": "uint256"
        }
      ],
      "payable": false,
      "stateMutability": "view",
      "type": "function"
    },
    {
      "constant": true,
      "inputs": [],
      "name": "venusInitialIndex",
      "outputs": [
        {
          "internalType": "uint224",
          "name": "",
          "type": "uint224"
        }
      ],
      "payable": false,
      "stateMutability": "view",
      "type": "function"
    },
    {
      "constant": true,
      "inputs": [],
      "name": "venusRate",
      "outputs": [
        {
          "internalType": "uint256",
          "name": "",
          "type": "uint256"
        }
      ],
      "payable": false,
      "stateMutability": "view",
      "type": "function"
    },
    {
      "constant": true,
      "inputs": [
        {
          "internalType": "address",
          "name": "",
          "type": "address"
        }
      ],
      "name": "venusSpeeds",
      "outputs": [
        {
          "internalType": "uint256",
          "name": "",
          "type": "uint256"
        }
      ],
      "payable": false,
      "stateMutability": "view",
      "type": "function"
    },
    {
      "constant": true,
      "inputs": [
        {
          "internalType": "address",
          "name": "",
          "type": "address"
        },
        {
          "internalType": "address",
          "name": "",
          "type": "address"
        }
      ],
      "name": "venusSupplierIndex",
      "outputs": [
        {
          "internalType": "uint256",
          "name": "",
          "type": "uint256"
        }
      ],
      "payable": false,
      "stateMutability": "view",
      "type": "function"
    },
    {
      "constant": true,
      "inputs": [
        {
          "internalType": "address",
          "name": "",
          "type": "address"
        }
      ],
      "name": "venusSupplyState",
      "outputs": [
        {
          "internalType": "uint224",
          "name": "index",
          "type": "uint224"
        },
        {
          "internalType": "uint32",
          "name": "block",
          "type": "uint32"
        }
      ],
      "payable": false,
      "stateMutability": "view",
      "type": "function"
    },
    {
      "constant": true,
      "inputs": [],
      "name": "venusVAIVaultRate",
      "outputs": [
        {
          "internalType": "uint256",
          "name": "",
          "type": "uint256"
        }
      ],
      "payable": false,
      "stateMutability": "view",
      "type": "function"
    }
  ],
  "bytecode": "0x608060405234801561001057600080fd5b50600080546001600160a01b03191633179055615e8680620000336000396000f3fe608060405234801561001057600080fd5b50600436106104ed5760003560e01c80637dc0d1d01161028e578063bec04f7211610167578063dcfbc0c7116100d9578063ede4edd011610092578063ede4edd014611355578063f4b8d5fe1461137b578063f851a440146113a1578063fa6331d8146113a9578063fccbe7f6146113b1578063fd51a3ad146113ce576104ed565b8063dcfbc0c7146112b5578063ddfd287e146112bd578063e37d4b79146112c5578063e4028eee146112eb578063e875544614611317578063eabe7d911461131f576104ed565b8063c5f956af1161012b578063c5f956af146110a3578063d02f7351146110ab578063d09c54ba146110f1578063d24febad1461121d578063da3d454c14611253578063dce1544914611289576104ed565b8063bec04f7214610fcb578063bf32442d14610fd3578063c299823814610fdb578063c488847b14611049578063c5b4db551461107f576104ed565b8063a76b3fda11610200578063b0772d0b116101c4578063b0772d0b14610f03578063b2eafc3914610f0b578063b8324c7c14610f13578063bb82aa5e14610f61578063bdcdc25814610f69578063bde3672d14610fa5576104ed565b8063a76b3fda14610ddf578063a78dc77514610e05578063a8c3c85014610e4a578063abfceffc14610e67578063adcd5fb914610edd576104ed565b80639254f5e5116102525780639254f5e514610d23578063929fe9a114610d2b57806394b2294b14610d595780639cfdd9e614610d61578063a06a87f114610d87578063a7604b4114610db3576104ed565b80637dc0d1d014610bf457806386df31ee14610bfc578063879c2e1d14610cad5780638a7dc16514610cb55780638e8f294b14610cdb576104ed565b806347ef3b3b116103cb57806357e871e71161033d5780636662c7c9116102f65780636662c7c914610b3d5780636a56947e14610b5a5780636d35bf9114610b96578063719f701b14610bdc5780637655138314610be45780637d172bd514610bec576104ed565b806357e871e7146109af5780635c778605146109b75780635ec88c79146109ed5780635f5af1aa14610a135780635fc7e71e14610a39578063607ef6c114610a7f576104ed565b80634e79238f1161038f5780634e79238f146108835780634ef4c3e1146108dd5780634fd42e171461091357806351dff9891461093057806352d84d1e1461096c57806355ee1fe114610989576104ed565b806347ef3b3b146107b15780634a584432146107fd5780634ada90af146108235780634bca0d8c1461082b5780634e0853db14610851576104ed565b80632678224711610464578063391957d711610428578063391957d7146107095780634088c73e1461072f57806341a18d2c1461073757806341c728b914610765578063425fad58146107a157806342cbb15c146107a9576104ed565b806326782247146106825780632a6a60651461068a5780632bc7e29e146106a95780632ec04124146106cf578063317b0b77146106ec576104ed565b80631abcaa77116104b65780631abcaa771461058c5780631d504dc6146105b25780631ededc91146105d857806321af45691461061a57806324008a621461063e57806324a3d6221461067a576104ed565b80627e3dd2146104f257806304ef9d581461050e57806308e0225c146105285780630db4b4e51461055657806311397a7d1461055e575b600080fd5b6104fa6113fa565b604080519115158252519081900360200190f35b6105166113ff565b60408051918252519081900360200190f35b6105166004803603604081101561053e57600080fd5b506001600160a01b0381358116916020013516611405565b610516611422565b61058a6004803603604081101561057457600080fd5b506001600160a01b038135169060200135611428565b005b610516600480360360208110156105a257600080fd5b50356001600160a01b0316611444565b61058a600480360360208110156105c857600080fd5b50356001600160a01b0316611456565b61058a600480360360a08110156105ee57600080fd5b506001600160a01b038135811691602081013582169160408201351690606081013590608001356115c4565b6106226115cb565b604080516001600160a01b039092168252519081900360200190f35b6105166004803603608081101561065457600080fd5b506001600160a01b038135811691602081013582169160408201351690606001356115da565b6106226116f7565b610622611706565b6104fa600480360360208110156106a057600080fd5b50351515611715565b610516600480360360208110156106bf57600080fd5b50356001600160a01b0316611832565b610516600480360360208110156106e557600080fd5b5035611844565b6105166004803603602081101561070257600080fd5b50356118b9565b61058a6004803603602081101561071f57600080fd5b50356001600160a01b0316611963565b6104fa611a16565b6105166004803603604081101561074d57600080fd5b506001600160a01b0381358116916020013516611a1f565b61058a6004803603608081101561077b57600080fd5b506001600160a01b03813581169160208101359091169060408101359060600135611a3c565b6104fa611a42565b610516611a51565b61058a600480360360c08110156107c757600080fd5b506001600160a01b0381358116916020810135821691604082013581169160608101359091169060808101359060a00135611a56565b6105166004803603602081101561081357600080fd5b50356001600160a01b0316611a5e565b610516611a70565b6105166004803603602081101561084157600080fd5b50356001600160a01b0316611a76565b61058a6004803603606081101561086757600080fd5b506001600160a01b038135169060208101359060400135611a91565b6108bf6004803603608081101561089957600080fd5b506001600160a01b03813581169160208101359091169060408101359060600135611b4e565b60408051938452602084019290925282820152519081900360600190f35b610516600480360360608110156108f357600080fd5b506001600160a01b03813581169160208101359091169060400135611b88565b6105166004803603602081101561092957600080fd5b5035611c87565b61058a6004803603608081101561094657600080fd5b506001600160a01b03813581169160208101359091169060408101359060600135611cf0565b6106226004803603602081101561098257600080fd5b5035611d41565b6105166004803603602081101561099f57600080fd5b50356001600160a01b0316611d68565b610516611ded565b61058a600480360360608110156109cd57600080fd5b506001600160a01b03813581169160208101359091169060400135611df3565b6108bf60048036036020811015610a0357600080fd5b50356001600160a01b0316611df8565b61051660048036036020811015610a2957600080fd5b50356001600160a01b0316611e2d565b610516600480360360a0811015610a4f57600080fd5b506001600160a01b0381358116916020810135821691604082013581169160608101359091169060800135611eb2565b61058a60048036036040811015610a9557600080fd5b810190602081018135600160201b811115610aaf57600080fd5b820183602082011115610ac157600080fd5b803590602001918460208302840111600160201b83111715610ae257600080fd5b919390929091602081019035600160201b811115610aff57600080fd5b820183602082011115610b1157600080fd5b803590602001918460208302840111600160201b83111715610b3257600080fd5b5090925090506120be565b61058a60048036036020811015610b5357600080fd5b503561224e565b61058a60048036036080811015610b7057600080fd5b506001600160a01b038135811691602081013582169160408201351690606001356122e5565b61058a600480360360a0811015610bac57600080fd5b506001600160a01b03813581169160208101358216916040820135811691606081013590911690608001356115c4565b6105166122ea565b6104fa6122f0565b6106226122fe565b61062261230d565b61058a60048036036040811015610c1257600080fd5b6001600160a01b038235169190810190604081016020820135600160201b811115610c3c57600080fd5b820183602082011115610c4e57600080fd5b803590602001918460208302840111600160201b83111715610c6f57600080fd5b91908080602002602001604051908101604052809392919081815260200183836020028082843760009201919091525092955061231c945050505050565b610516612379565b61051660048036036020811015610ccb57600080fd5b50356001600160a01b031661237f565b610d0160048036036020811015610cf157600080fd5b50356001600160a01b0316612391565b6040805193151584526020840192909252151582820152519081900360600190f35b6106226123b7565b6104fa60048036036040811015610d4157600080fd5b506001600160a01b03813581169160200135166123c6565b6105166123fa565b61051660048036036020811015610d7757600080fd5b50356001600160a01b0316612400565b61058a60048036036040811015610d9d57600080fd5b506001600160a01b038135169060200135612484565b61058a60048036036040811015610dc957600080fd5b506001600160a01b0381351690602001356124eb565b61051660048036036020811015610df557600080fd5b50356001600160a01b03166125ee565b610e3160048036036040811015610e1b57600080fd5b506001600160a01b03813516906020013561274b565b6040805192835260208301919091528051918290030190f35b61058a60048036036020811015610e6057600080fd5b50356128f0565b610e8d60048036036020811015610e7d57600080fd5b50356001600160a01b03166128f5565b60408051602080825283518183015283519192839290830191858101910280838360005b83811015610ec9578181015183820152602001610eb1565b505050509050019250505060405180910390f35b61058a60048036036020811015610ef357600080fd5b50356001600160a01b031661296b565b610e8d6129cf565b610622612a31565b610f3960048036036020811015610f2957600080fd5b50356001600160a01b0316612a40565b604080516001600160e01b03909316835263ffffffff90911660208301528051918290030190f35b610622612a6a565b61051660048036036080811015610f7f57600080fd5b506001600160a01b03813581169160208101358216916040820135169060600135612a79565b61058a60048036036020811015610fbb57600080fd5b50356001600160a01b0316612b5c565b610516612b7d565b610622612b83565b610e8d60048036036020811015610ff157600080fd5b810190602081018135600160201b81111561100b57600080fd5b82018360208201111561101d57600080fd5b803590602001918460208302840111600160201b8311171561103e57600080fd5b509092509050612b9b565b610e316004803603606081101561105f57600080fd5b506001600160a01b03813581169160208101359091169060400135612c31565b611087612e59565b604080516001600160e01b039092168252519081900360200190f35b610622612e6c565b610516600480360360a08110156110c157600080fd5b506001600160a01b0381358116916020810135821691604082013581169160608101359091169060800135612e7b565b61058a6004803603608081101561110757600080fd5b810190602081018135600160201b81111561112157600080fd5b82018360208201111561113357600080fd5b803590602001918460208302840111600160201b8311171561115457600080fd5b9190808060200260200160405190810160405280939291908181526020018383602002808284376000920191909152509295949360208101935035915050600160201b8111156111a357600080fd5b8201836020820111156111b557600080fd5b803590602001918460208302840111600160201b831117156111d657600080fd5b91908080602002602001604051908101604052809392919081815260200183836020028082843760009201919091525092955050505080351515915060200135151561309a565b6105166004803603606081101561123357600080fd5b506001600160a01b03813581169160208101359091169060400135613439565b6105166004803603606081101561126957600080fd5b506001600160a01b038135811691602081013590911690604001356135ce565b6106226004803603604081101561129f57600080fd5b506001600160a01b0381351690602001356139cb565b610622613a00565b61058a613a0f565b610f39600480360360208110156112db57600080fd5b50356001600160a01b0316613c3f565b6105166004803603604081101561130157600080fd5b506001600160a01b038135169060200135613c69565b610516613e19565b6105166004803603606081101561133557600080fd5b506001600160a01b03813581169160208101359091169060400135613e1f565b6105166004803603602081101561136b57600080fd5b50356001600160a01b0316613eaf565b61058a6004803603602081101561139157600080fd5b50356001600160a01b031661416b565b610622614297565b6105166142a6565b610516600480360360208110156113c757600080fd5b50356142ac565b610516600480360360408110156113e457600080fd5b506001600160a01b0381351690602001356142bb565b600181565b60225481565b601360209081526000928352604080842090915290825290205481565b601d5481565b6001600160a01b039091166000908152600f6020526040902055565b600f6020526000908152604090205481565b806001600160a01b031663f851a4406040518163ffffffff1660e01b815260040160206040518083038186803b15801561148f57600080fd5b505afa1580156114a3573d6000803e3d6000fd5b505050506040513d60208110156114b957600080fd5b50516001600160a01b03163314611517576040805162461bcd60e51b815260206004820152601960248201527f6f6e6c7920756e6974726f6c6c65722061646d696e2063616e00000000000000604482015290519081900360640190fd5b806001600160a01b031663c1e803346040518163ffffffff1660e01b8152600401602060405180830381600087803b15801561155257600080fd5b505af1158015611566573d6000803e3d6000fd5b505050506040513d602081101561157c57600080fd5b5051156115c1576040805162461bcd60e51b815260206004820152600e60248201526d1b9bdd08185d5d1a1bdc9a5e995960921b604482015290519081900360640190fd5b50565b5050505050565b601e546001600160a01b031681565b60185460009062010000900460ff1615611630576040805162461bcd60e51b81526020600482015260126024820152711c1c9bdd1bd8dbdb081a5cc81c185d5cd95960721b604482015290519081900360640190fd5b6001600160a01b03851660009081526009602052604090205460ff16611658575060096116ef565b611660615d3c565b6040518060200160405280876001600160a01b031663aa5af0fd6040518163ffffffff1660e01b815260040160206040518083038186803b1580156116a457600080fd5b505afa1580156116b8573d6000803e3d6000fd5b505050506040513d60208110156116ce57600080fd5b5051905290506116de86826143ad565b6116e9868583614641565b60009150505b949350505050565b600a546001600160a01b031681565b6001546001600160a01b031681565b600a5460009082906001600160a01b031633148061173d57506000546001600160a01b031633145b6117785760405162461bcd60e51b8152600401808060200182810382526021815260200180615dfc6021913960400191505060405180910390fd5b6000546001600160a01b031633148061179357506001811515145b6117dd576040805162461bcd60e51b81526020600482015260166024820152756f6e6c792061646d696e2063616e20756e706175736560501b604482015290519081900360640190fd5b6018805484151562010000810262ff0000199092169190911790915560408051918252517fd7500633dd3ddd74daa7af62f8c8404c7fe4a81da179998db851696bed004b389181900360200190a15090919050565b60166020526000908152604090205481565b600080546001600160a01b0316331461186a57611863600160146147f1565b90506118b4565b6017805490839055604080518281526020810185905281517f73747d68b346dce1e932bcd238282e7ac84c01569e1f8d0469c222fdc6e9d5a4929181900390910190a160005b9150505b919050565b600080546001600160a01b03163314611919576040805162461bcd60e51b815260206004820152601f60248201527f6f6e6c792061646d696e2063616e2073657420636c6f736520666163746f7200604482015290519081900360640190fd5b6005805490839055604080518281526020810185905281517f3b9670cf975d26958e754b57098eaa2ac914d8d2a31b83257997b9f346110fd9929181900390910190a160006118b0565b6000546001600160a01b031633146119b3576040805162461bcd60e51b815260206004820152600e60248201526d37b7363c9030b236b4b71031b0b760911b604482015290519081900360640190fd5b601e80546001600160a01b038381166001600160a01b0319831681179093556040805191909216808252602082019390935281517feda98690e518e9a05f8ec6837663e188211b2da8f4906648b323f2c1d4434e29929181900390910190a15050565b60185460ff1681565b601260209081526000928352604080842090915290825290205481565b50505050565b60185462010000900460ff1681565b435b90565b505050505050565b601f6020526000908152604090205481565b60065481565b6001600160a01b031660009081526008602052604090205490565b6000546001600160a01b03163314611ae1576040805162461bcd60e51b815260206004820152600e60248201526d37b7363c9030b236b4b71031b0b760911b604482015290519081900360640190fd5b601b80546001600160a01b0385166001600160a01b03199091168117909155601c839055601d8290556040805191825260208201849052818101839052517f7059037d74ee16b0fb06a4a30f3348dd2635f301f92e373c92899a25a522ef6e9181900360600190a1505050565b600080600080600080611b638a8a8a8a614857565b925092509250826012811115611b7557fe5b95509093509150505b9450945094915050565b60185460009062010000900460ff1615611bde576040805162461bcd60e51b81526020600482015260126024820152711c1c9bdd1bd8dbdb081a5cc81c185d5cd95960721b604482015290519081900360640190fd5b6001600160a01b0384166000908152600b602052604090205460ff1615611c3d576040805162461bcd60e51b815260206004820152600e60248201526d1b5a5b9d081a5cc81c185d5cd95960921b604482015290519081900360640190fd5b6001600160a01b03841660009081526009602052604090205460ff16611c675760095b9050611c80565b611c7084614bc4565b611c7a8484614e4e565b60005b90505b9392505050565b600080546001600160a01b03163314611ca6576118636001600b6147f1565b6006805490839055604080518281526020810185905281517faeba5a6c40a8ac138134bff1aaa65debf25971188a58804bad717f82f0ec1316929181900390910190a160006118b0565b80151580611cfc575081155b611a3c576040805162461bcd60e51b815260206004820152601160248201527072656465656d546f6b656e73207a65726f60781b604482015290519081900360640190fd5b600d8181548110611d4e57fe5b6000918252602090912001546001600160a01b0316905081565b600080546001600160a01b03163314611d8757611863600160106147f1565b600480546001600160a01b038481166001600160a01b0319831681179093556040805191909216808252602082019390935281517fd52b2b9b7e9ee655fcb95d2e5b9e0c9f69e7ef2b8e9d2d0ea78402d576d22e22929181900390910190a160006118b0565b60255481565b505050565b600080600080600080611e0f876000806000614857565b925092509250826012811115611e2157fe5b97919650945092505050565b600080546001600160a01b03163314611e4c57611863600160136147f1565b600a80546001600160a01b038481166001600160a01b0319831681179093556040805191909216808252602082019390935281517f0613b6ee6a04f0d09f390e4d9318894b9f6ac7fd83897cd8d18896ba579c401e929181900390910190a160006118b0565b60185460009062010000900460ff1615611f08576040805162461bcd60e51b81526020600482015260126024820152711c1c9bdd1bd8dbdb081a5cc81c185d5cd95960721b604482015290519081900360640190fd5b6001600160a01b03861660009081526009602052604090205460ff1680611f3c57506015546001600160a01b038781169116145b1580611f6157506001600160a01b03851660009081526009602052604090205460ff16155b15611f705760095b90506120b5565b600080611f81856000806000614857565b91935090915060009050826012811115611f9757fe5b14611fb157816012811115611fa857fe5b925050506120b5565b80611fbd576003611fa8565b6015546000906001600160a01b038a811691161461205e57886001600160a01b03166395dd9193876040518263ffffffff1660e01b815260040180826001600160a01b03166001600160a01b0316815260200191505060206040518083038186803b15801561202b57600080fd5b505afa15801561203f573d6000803e3d6000fd5b505050506040513d602081101561205557600080fd5b50519050612079565b506001600160a01b0385166000908152601660205260409020545b6000612095604051806020016040528060055481525083615046565b9050808611156120ac5760119450505050506120b5565b60009450505050505b95945050505050565b6000546001600160a01b03163314806120e15750601e546001600160a01b031633145b61211c5760405162461bcd60e51b8152600401808060200182810382526035815260200180615e1d6035913960400191505060405180910390fd5b8281811580159061212c57508082145b61216d576040805162461bcd60e51b815260206004820152600d60248201526c1a5b9d985b1a59081a5b9c1d5d609a1b604482015290519081900360640190fd5b60005b828110156122455784848281811061218457fe5b90506020020135601f600089898581811061219b57fe5b905060200201356001600160a01b03166001600160a01b03166001600160a01b03168152602001908152602001600020819055508686828181106121db57fe5b905060200201356001600160a01b03166001600160a01b03167f6f1951b2aad10f3fc81b86d91105b413a5b3f847a34bbc5ce1904201b14438f686868481811061222157fe5b905060200201356040518082815260200191505060405180910390a2600101612170565b50505050505050565b6000546001600160a01b0316331461229e576040805162461bcd60e51b815260206004820152600e60248201526d37b7363c9030b236b4b71031b0b760911b604482015290519081900360640190fd5b601a805490829055604080518281526020810184905281517fe81d4ac15e5afa1e708e66664eddc697177423d950d133bda8262d8885e6da3b929181900390910190a15050565b611a3c565b601c5481565b601854610100900460ff1681565b601b546001600160a01b031681565b6004546001600160a01b031681565b60408051600180825281830190925260609160208083019080388339019050509050828160008151811061234c57fe5b60200260200101906001600160a01b031690816001600160a01b031681525050611df3818360018061309a565b600e5481565b60146020526000908152604090205481565b60096020526000908152604090208054600182015460039092015460ff91821692911683565b6015546001600160a01b031681565b6001600160a01b038082166000908152600960209081526040808320938616835260029093019052205460ff165b92915050565b60075481565b600080546001600160a01b0316331461241f57611863600160156147f1565b601580546001600160a01b038481166001600160a01b0319831681179093556040805191909216808252602082019390935281517fe1ddcb2dab8e5b03cfc8c67a0d5861d91d16f7bd2612fd381faf4541d212c9b2929181900390910190a150919050565b61248c615065565b6124dd576040805162461bcd60e51b815260206004820152601e60248201527f6f6e6c792061646d696e2063616e207365742076656e75732073706565640000604482015290519081900360640190fd5b6124e7828261508e565b5050565b6124f3615065565b612544576040805162461bcd60e51b815260206004820152601860248201527f6f6e6c792061646d696e2063616e206772616e74207876730000000000000000604482015290519081900360640190fd5b60006125508383615420565b905080156125a5576040805162461bcd60e51b815260206004820152601a60248201527f696e73756666696369656e742078767320666f72206772616e74000000000000604482015290519081900360640190fd5b604080516001600160a01b03851681526020810184905281517fd7fe674cac9eee3998fe3cbd7a6f93c3bc70509d97ec1550a59364be6438147e929181900390910190a1505050565b600080546001600160a01b0316331461260d57611863600160126147f1565b6001600160a01b03821660009081526009602052604090205460ff161561263a57611863600a60116147f1565b816001600160a01b0316633d9ea3a16040518163ffffffff1660e01b815260040160206040518083038186803b15801561267357600080fd5b505afa158015612687573d6000803e3d6000fd5b505050506040513d602081101561269d57600080fd5b5050604080516060810182526001808252600060208381018281528486018381526001600160a01b03891684526009909252949091209251835490151560ff199182161784559351918301919091555160039091018054911515919092161790556127078261555a565b604080516001600160a01b038416815290517fcf583bb0c569eb967f806b11601c4cb93c10310485c67add5f8362c2f212321f9181900360200190a1600092915050565b600480546040805163fc57d4df60e01b81526001600160a01b038681169482019490945290516000938493670de0b6b3a7640000938593929091169163fc57d4df91602480820192602092909190829003018186803b1580156127ad57600080fd5b505afa1580156127c1573d6000803e3d6000fd5b505050506040513d60208110156127d757600080fd5b50519050806127f057600d9350600092506128e9915050565b6000866001600160a01b031663182df0f56040518163ffffffff1660e01b815260040160206040518083038186803b15801561282b57600080fd5b505afa15801561283f573d6000803e3d6000fd5b505050506040513d602081101561285557600080fd5b505190506000612863615d3c565b61286b615d3c565b612873615d3c565b61289b604051806020016040528060065481525060405180602001604052808a815250615638565b92506128c3604051806020016040528088815250604051806020016040528088815250615638565b91506128cf8383615677565b90506128db818b615046565b600099509750505050505050505b9250929050565b602555565b6001600160a01b03811660009081526008602090815260409182902080548351818402810184019094528084526060939283018282801561295f57602002820191906000526020600020905b81546001600160a01b03168152600190910190602001808311612941575b50505050509050919050565b6115c181600d8054806020026020016040519081016040528092919081815260200182805480156129c557602002820191906000526020600020905b81546001600160a01b031681526001909101906020018083116129a7575b505050505061231c565b6060600d805480602002602001604051908101604052809291908181526020018280548015612a2757602002820191906000526020600020905b81546001600160a01b03168152600190910190602001808311612a09575b5050505050905090565b6020546001600160a01b031681565b6010602052600090815260409020546001600160e01b03811690600160e01b900463ffffffff1682565b6002546001600160a01b031681565b60185460009062010000900460ff1615612acf576040805162461bcd60e51b81526020600482015260126024820152711c1c9bdd1bd8dbdb081a5cc81c185d5cd95960721b604482015290519081900360640190fd5b600a54600160b01b900460ff1615612b23576040805162461bcd60e51b81526020600482015260126024820152711d1c985b9cd9995c881a5cc81c185d5cd95960721b604482015290519081900360640190fd5b6000612b308686856156b3565b90508015612b3f5790506116ef565b612b4886614bc4565b612b528686614e4e565b6116e98685614e4e565b6001600160a01b03166000908152600960205260409020805460ff19169055565b60175481565b73cf6bb5389c92bdda8a3747ddb454cb7a64626c6390565b60408051828152602080840282010190915260609082908290828015612bcb578160200160208202803883390190505b50905060005b82811015612c2857612bfe868683818110612be857fe5b905060200201356001600160a01b03163361575f565b6012811115612c0957fe5b828281518110612c1557fe5b6020908102919091010152600101612bd1565b50949350505050565b600480546040805163fc57d4df60e01b81526001600160a01b038781169482019490945290516000938493849391169163fc57d4df91602480820192602092909190829003018186803b158015612c8757600080fd5b505afa158015612c9b573d6000803e3d6000fd5b505050506040513d6020811015612cb157600080fd5b5051600480546040805163fc57d4df60e01b81526001600160a01b038a8116948201949094529051939450600093929091169163fc57d4df91602480820192602092909190829003018186803b158015612d0a57600080fd5b505afa158015612d1e573d6000803e3d6000fd5b505050506040513d6020811015612d3457600080fd5b50519050811580612d43575080155b15612d5857600d935060009250612e51915050565b6000866001600160a01b031663182df0f56040518163ffffffff1660e01b815260040160206040518083038186803b158015612d9357600080fd5b505afa158015612da7573d6000803e3d6000fd5b505050506040513d6020811015612dbd57600080fd5b505190506000612dcb615d3c565b612dd3615d3c565b612ddb615d3c565b612e03604051806020016040528060065481525060405180602001604052808a815250615638565b9250612e2b604051806020016040528088815250604051806020016040528088815250615638565b9150612e378383615677565b9050612e43818b615046565b600099509750505050505050505b935093915050565b6ec097ce7bc90715b34b9f100000000081565b6021546001600160a01b031681565b60185460009062010000900460ff1615612ed1576040805162461bcd60e51b81526020600482015260126024820152711c1c9bdd1bd8dbdb081a5cc81c185d5cd95960721b604482015290519081900360640190fd5b600a54600160b81b900460ff1615612f22576040805162461bcd60e51b815260206004820152600f60248201526e1cd95a5e99481a5cc81c185d5cd959608a1b604482015290519081900360640190fd5b6001600160a01b03861660009081526009602052604090205460ff161580612f7b57506001600160a01b03851660009081526009602052604090205460ff1680612f7957506015546001600160a01b038681169116145b155b15612f87576009611f69565b846001600160a01b0316635fe3b5676040518163ffffffff1660e01b815260040160206040518083038186803b158015612fc057600080fd5b505afa158015612fd4573d6000803e3d6000fd5b505050506040513d6020811015612fea57600080fd5b505160408051635fe3b56760e01b815290516001600160a01b0392831692891691635fe3b567916004808301926020929190829003018186803b15801561303057600080fd5b505afa158015613044573d6000803e3d6000fd5b505050506040513d602081101561305a57600080fd5b50516001600160a01b031614613071576002611f69565b61307a86614bc4565b6130848684614e4e565b61308e8685614e4e565b60009695505050505050565b6015546000906001600160a01b03161561312b57601560009054906101000a90046001600160a01b03166001600160a01b031663d244b0816040518163ffffffff1660e01b8152600401602060405180830381600087803b1580156130fe57600080fd5b505af1158015613112573d6000803e3d6000fd5b505050506040513d602081101561312857600080fd5b50505b5060005b84518110156131e55761315485828151811061314757fe5b602002602001015161416b565b6131a985828151811061316357fe5b60200260200101516014600088858151811061317b57fe5b60200260200101516001600160a01b03166001600160a01b0316815260200190815260200160002054615420565b601460008784815181106131b957fe5b6020908102919091018101516001600160a01b031682528101919091526040016000205560010161312f565b60005b8451811015611a565760008582815181106131ff57fe5b6020908102919091018101516001600160a01b0381166000908152600990925260409091205490915060ff16613270576040805162461bcd60e51b81526020600482015260116024820152701b9bdd081b1a5cdd1959081b585c9ad95d607a1b604482015290519081900360640190fd5b84156133905761327e615d3c565b6040518060200160405280836001600160a01b031663aa5af0fd6040518163ffffffff1660e01b815260040160206040518083038186803b1580156132c257600080fd5b505afa1580156132d6573d6000803e3d6000fd5b505050506040513d60208110156132ec57600080fd5b5051905290506132fc82826143ad565b600093505b875184101561338e576133288289868151811061331a57fe5b602002602001015183614641565b61334f88858151811061333757fe5b6020026020010151601460008b888151811061317b57fe5b601460008a878151811061335f57fe5b6020908102919091018101516001600160a01b0316825281019190915260400160002055600190930192613301565b505b83156134305761339f81614bc4565b600092505b8651831015613430576133ca818885815181106133bd57fe5b6020026020010151614e4e565b6133f18784815181106133d957fe5b6020026020010151601460008a878151811061317b57fe5b6014600089868151811061340157fe5b6020908102919091018101516001600160a01b03168252810191909152604001600020556001909201916133a4565b506001016131e8565b600080546001600160a01b031633148061345d57506020546001600160a01b031633145b61346d57611c60600160176147f1565b670de0b6b3a764000082106134c9576040805162461bcd60e51b815260206004820152601d60248201527f74726561737572792070657263656e7420636170206f766572666c6f77000000604482015290519081900360640190fd5b6020805460218054602280546001600160a01b038a81166001600160a01b0319808816821789558b8316908616179095559188905560408051958316808752968601949094528351929091169390927f29f06ea15931797ebaed313d81d100963dc22cb213cb4ce2737b5a62b1a8b1e892918290030190a1604080516001600160a01b0380851682528816602082015281517f8de763046d7b8f08b6c3d03543de1d615309417842bb5d2d62f110f65809ddac929181900390910190a1604080518281526020810187905281517f0893f8f4101baaabbeb513f96761e7a36eb837403c82cc651c292a4abdc94ed7929181900390910190a16000979650505050505050565b60185460009062010000900460ff1615613624576040805162461bcd60e51b81526020600482015260126024820152711c1c9bdd1bd8dbdb081a5cc81c185d5cd95960721b604482015290519081900360640190fd5b6001600160a01b0384166000908152600c602052604090205460ff1615613685576040805162461bcd60e51b815260206004820152601060248201526f189bdc9c9bddc81a5cc81c185d5cd95960821b604482015290519081900360640190fd5b6001600160a01b03841660009081526009602052604090205460ff166136ac576009611c60565b6001600160a01b038085166000908152600960209081526040808320938716835260029093019052205460ff1661376957336001600160a01b03851614613732576040805162461bcd60e51b815260206004820152601560248201527439b2b73232b91036bab9ba103132903b2a37b5b2b760591b604482015290519081900360640190fd5b600061373e858561575f565b9050600081601281111561374e57fe5b146137675780601281111561375f57fe5b915050611c80565b505b600480546040805163fc57d4df60e01b81526001600160a01b03888116948201949094529051929091169163fc57d4df91602480820192602092909190829003018186803b1580156137ba57600080fd5b505afa1580156137ce573d6000803e3d6000fd5b505050506040513d60208110156137e457600080fd5b50516137f157600d611c60565b6001600160a01b0384166000908152601f602052604090205480156138de576000856001600160a01b03166347bd37186040518163ffffffff1660e01b815260040160206040518083038186803b15801561384b57600080fd5b505afa15801561385f573d6000803e3d6000fd5b505050506040513d602081101561387557600080fd5b5051905060006138858286615850565b90508281106138db576040805162461bcd60e51b815260206004820152601960248201527f6d61726b657420626f72726f7720636170207265616368656400000000000000604482015290519081900360640190fd5b50505b6000806138ee8688600088614857565b9193509091506000905082601281111561390457fe5b1461391f5781601281111561391557fe5b9350505050611c80565b801561392c576004613915565b613934615d3c565b6040518060200160405280896001600160a01b031663aa5af0fd6040518163ffffffff1660e01b815260040160206040518083038186803b15801561397857600080fd5b505afa15801561398c573d6000803e3d6000fd5b505050506040513d60208110156139a257600080fd5b5051905290506139b288826143ad565b6139bd888883614641565b600098975050505050505050565b600860205281600052604060002081815481106139e457fe5b6000918252602090912001546001600160a01b03169150829050565b6003546001600160a01b031681565b601c541580613a265750601c54613a24611a51565b105b15613a3057613c3d565b6000613a3a612b83565b604080516370a0823160e01b815230600482015290519192506000916001600160a01b038416916370a08231916024808301926020929190829003018186803b158015613a8657600080fd5b505afa158015613a9a573d6000803e3d6000fd5b505050506040513d6020811015613ab057600080fd5b5051905080613ac0575050613c3d565b600080613ad6613ace611a51565b601c54615886565b90506000613ae6601a54836158c0565b9050601d54811015613afc575050505050613c3d565b808410613b0b57809250613b0f565b8392505b613b17611a51565b601c55601b546040805163a9059cbb60e01b81526001600160a01b0392831660048201526024810186905290519187169163a9059cbb916044808201926020929091908290030181600087803b158015613b7057600080fd5b505af1158015613b84573d6000803e3d6000fd5b505050506040513d6020811015613b9a57600080fd5b50506040805184815290517ff6d4b8f74d85a6e2d7a50225957b8a6cfec69ad92f5905627260541aa0a5565d9181900360200190a1601b60009054906101000a90046001600160a01b03166001600160a01b031663faa1809e6040518163ffffffff1660e01b8152600401600060405180830381600087803b158015613c1f57600080fd5b505af1158015613c33573d6000803e3d6000fd5b5050505050505050505b565b6011602052600090815260409020546001600160e01b03811690600160e01b900463ffffffff1682565b600080546001600160a01b03163314613c8f57613c88600160066147f1565b90506123f4565b6001600160a01b0383166000908152600960205260409020805460ff16613cc457613cbc600960076147f1565b9150506123f4565b613ccc615d3c565b506040805160208101909152838152613ce3615d3c565b506040805160208101909152670c7d713b49da00008152613d048183615902565b15613d1f57613d15600660086147f1565b93505050506123f4565b8415801590613da85750600480546040805163fc57d4df60e01b81526001600160a01b038a8116948201949094529051929091169163fc57d4df91602480820192602092909190829003018186803b158015613d7a57600080fd5b505afa158015613d8e573d6000803e3d6000fd5b505050506040513d6020811015613da457600080fd5b5051155b15613db957613d15600d60096147f1565b60018301805490869055604080516001600160a01b03891681526020810183905280820188905290517f70483e6592cd5182d45ac970e05bc62cdcc90e9d8ef2c2dbe686cf383bcd7fc59181900360600190a16000979650505050505050565b60055481565b60185460009062010000900460ff1615613e75576040805162461bcd60e51b81526020600482015260126024820152711c1c9bdd1bd8dbdb081a5cc81c185d5cd95960721b604482015290519081900360640190fd5b6000613e828585856156b3565b90508015613e91579050611c80565b613e9a85614bc4565b613ea48585614e4e565b600095945050505050565b6000808290506000806000836001600160a01b031663c37f68e2336040518263ffffffff1660e01b815260040180826001600160a01b03166001600160a01b0316815260200191505060806040518083038186803b158015613f1057600080fd5b505afa158015613f24573d6000803e3d6000fd5b505050506040513d6080811015613f3a57600080fd5b508051602082015160409092015190945090925090508215613fa3576040805162461bcd60e51b815260206004820152601960248201527f6765744163636f756e74536e617073686f74206661696c656400000000000000604482015290519081900360640190fd5b8015613fc057613fb5600c60026147f1565b9450505050506118b4565b6000613fcd8733856156b3565b90508015613fee57613fe2600e600383615909565b955050505050506118b4565b6001600160a01b0385166000908152600960209081526040808320338452600281019092529091205460ff1661402d57600096505050505050506118b4565b3360009081526002820160209081526040808320805460ff1916905560089091528120805490915b8181101561410e57886001600160a01b031683828154811061407357fe5b6000918252602090912001546001600160a01b031614156141065782600183038154811061409d57fe5b9060005260206000200160009054906101000a90046001600160a01b03168382815481106140c757fe5b600091825260209091200180546001600160a01b0319166001600160a01b03929092169190911790558254614100846000198301615d4f565b5061410e565b600101614055565b81811061411757fe5b604080516001600160a01b038b16815233602082015281517fe699a64c18b07ac5b7301aa273f36a2287239eb9501d81950672794afba29a0d929181900390910190a160009b9a5050505050505050505050565b601b546001600160a01b03161561418457614184613a0f565b6015546001600160a01b0316156115c1576015546040805163d178273b60e01b81526001600160a01b0384811660048301529151600093849384938493919092169163d178273b91602480830192608092919082900301818787803b1580156141ec57600080fd5b505af1158015614200573d6000803e3d6000fd5b505050506040513d608081101561421657600080fd5b508051602082015160408301516060909301519096509194509092509050806115c4576001600160a01b038516600081815260146020908152604091829020879055815186815290810185905281517f2fb3baf25f3d9fc9f9eb9dfd7da8567731a91413437d91bc1b8a839d0a1ba88f929181900390910190a25050505050565b6000546001600160a01b031681565b601a5481565b60258054820190819055919050565b60185460009062010000900460ff1615614311576040805162461bcd60e51b81526020600482015260126024820152711c1c9bdd1bd8dbdb081a5cc81c185d5cd95960721b604482015290519081900360640190fd5b60185460ff1615801561432c5750601854610100900460ff16155b61436d576040805162461bcd60e51b815260206004820152600d60248201526c159052481a5cc81c185d5cd959609a1b604482015290519081900360640190fd5b6015546001600160a01b0316331461438b57613c88600e60166147f1565b6001600160a01b03831660009081526016602052604081208390559392505050565b6001600160a01b0382166000908152601160209081526040808320600f90925282205490916143da611a51565b83549091506000906143fa908390600160e01b900463ffffffff16615886565b905060008111801561440c5750600083115b156145dc576000614481876001600160a01b03166347bd37186040518163ffffffff1660e01b815260040160206040518083038186803b15801561444f57600080fd5b505afa158015614463573d6000803e3d6000fd5b505050506040513d602081101561447957600080fd5b50518761596f565b9050600061448f83866158c0565b9050614499615d3c565b600083116144b657604051806020016040528060008152506144c0565b6144c0828461598d565b90506144ca615d3c565b604080516020810190915288546001600160e01b031681526144ec90836159c2565b905060405180604001604052806145328360000151604051806040016040528060138152602001726e657720696e646578206f766572666c6f777360681b8152506159e7565b6001600160e01b031681526020016145788860405180604001604052806016815260200175626c6f636b206e756d626572206f766572666c6f777360501b815250615a81565b63ffffffff9081169091526001600160a01b038c166000908152601160209081526040909120835181549490920151909216600160e01b026001600160e01b039182166001600160e01b0319909416939093171691909117905550611a5692505050565b8015611a565761461a8260405180604001604052806016815260200175626c6f636b206e756d626572206f766572666c6f777360501b815250615a81565b845463ffffffff91909116600160e01b026001600160e01b03909116178455505050505050565b601b546001600160a01b03161561465a5761465a613a0f565b6001600160a01b038316600090815260116020526040902061467a615d3c565b50604080516020810190915281546001600160e01b0316815261469b615d3c565b5060408051602080820183526001600160a01b0380891660009081526013835284812091891680825282845294812080548552865195909152915291909155805115611a56576146e9615d3c565b6146f38383615ad6565b90506000614750886001600160a01b03166395dd9193896040518263ffffffff1660e01b815260040180826001600160a01b03166001600160a01b0316815260200191505060206040518083038186803b15801561444f57600080fd5b9050600061475e8284615afb565b6001600160a01b038916600090815260146020526040812054919250906147859083615850565b6001600160a01b03808b166000818152601460209081526040918290208590558a5182518881529182015281519495509193928e16927f837bdc11fca9f17ce44167944475225a205279b17e88c791c3b1f66f354668fb9281900390910190a350505050505050505050565b60007f45b96fe442630264581b197e84bbada861235052c5a1aadfff9ea4e40a969aa083601281111561482057fe5b83601781111561482c57fe5b604080519283526020830191909152600082820152519081900360600190a1826012811115611c8057fe5b6000806000614864615d73565b6001600160a01b038816600090815260086020908152604080832080548251818502810185019093528083526060938301828280156148cc57602002820191906000526020600020905b81546001600160a01b031681526001909101906020018083116148ae575b50939450600093505050505b8151811015614b505760008282815181106148ef57fe5b60200260200101519050806001600160a01b031663c37f68e28d6040518263ffffffff1660e01b815260040180826001600160a01b03166001600160a01b0316815260200191505060806040518083038186803b15801561494f57600080fd5b505afa158015614963573d6000803e3d6000fd5b505050506040513d608081101561497957600080fd5b508051602082015160408084015160609485015160808b01529389019390935291870191909152935083156149be5750600f965060009550859450611b7e9350505050565b60408051602080820183526001600160a01b0380851660008181526009845285902060010154845260c08a01939093528351808301855260808a0151815260e08a015260048054855163fc57d4df60e01b815291820194909452935192169263fc57d4df9260248083019392829003018186803b158015614a3e57600080fd5b505afa158015614a52573d6000803e3d6000fd5b505050506040513d6020811015614a6857600080fd5b505160a08601819052614a8b5750600d965060009550859450611b7e9350505050565b604080516020810190915260a0860151815261010086015260c085015160e0860151614ac591614aba91615638565b866101000151615638565b610120860181905260408601518651614adf929190615b2a565b855261010085015160608601516020870151614afc929190615b2a565b60208601526001600160a01b03818116908c161415614b4757614b298561012001518b8760200151615b2a565b60208601819052610100860151614b41918b90615b2a565b60208601525b506001016148d8565b50614b848360200151601660008d6001600160a01b03166001600160a01b0316815260200190815260200160002054615850565b6020840181905283511115614bab5750506020810151905160009450039150829050611b7e565b5050805160209091015160009450849350039050611b7e565b6001600160a01b0381166000908152601060209081526040808320600f9092528220549091614bf1611a51565b8354909150600090614c11908390600160e01b900463ffffffff16615886565b9050600081118015614c235750600083115b15614dea576000856001600160a01b03166318160ddd6040518163ffffffff1660e01b815260040160206040518083038186803b158015614c6357600080fd5b505afa158015614c77573d6000803e3d6000fd5b505050506040513d6020811015614c8d57600080fd5b505190506000614c9d83866158c0565b9050614ca7615d3c565b60008311614cc45760405180602001604052806000815250614cce565b614cce828461598d565b9050614cd8615d3c565b604080516020810190915288546001600160e01b03168152614cfa90836159c2565b90506040518060400160405280614d408360000151604051806040016040528060138152602001726e657720696e646578206f766572666c6f777360681b8152506159e7565b6001600160e01b03168152602001614d868860405180604001604052806016815260200175626c6f636b206e756d626572206f766572666c6f777360501b815250615a81565b63ffffffff9081169091526001600160a01b038b166000908152601060209081526040909120835181549490920151909216600160e01b026001600160e01b039182166001600160e01b03199094169390931716919091179055506115c492505050565b80156115c457614e288260405180604001604052806016815260200175626c6f636b206e756d626572206f766572666c6f777360501b815250615a81565b845463ffffffff91909116600160e01b026001600160e01b039091161784555050505050565b601b546001600160a01b031615614e6757614e67613a0f565b6001600160a01b0382166000908152601060205260409020614e87615d3c565b50604080516020810190915281546001600160e01b03168152614ea8615d3c565b5060408051602080820183526001600160a01b03808816600090815260128352848120918816808252828452948120805485528651959091529152919091558051158015614ef65750815115155b15614f0e576ec097ce7bc90715b34b9f100000000081525b614f16615d3c565b614f208383615ad6565b90506000866001600160a01b03166370a08231876040518263ffffffff1660e01b815260040180826001600160a01b03166001600160a01b0316815260200191505060206040518083038186803b158015614f7a57600080fd5b505afa158015614f8e573d6000803e3d6000fd5b505050506040513d6020811015614fa457600080fd5b505190506000614fb48284615afb565b6001600160a01b03881660009081526014602052604081205491925090614fdb9083615850565b6001600160a01b03808a166000818152601460209081526040918290208590558a5182518881529182015281519495509193928d16927ffa9d964d891991c113b49e3db1932abd6c67263d387119707aafdd6c4010a3a99281900390910190a3505050505050505050565b6000615050615d3c565b61505a8484615b52565b90506116ef81615b73565b600080546001600160a01b031633148061508957506002546001600160a01b031633145b905090565b6001600160a01b0382166000908152600f60205260409020548015615142576150b5615d3c565b6040518060200160405280856001600160a01b031663aa5af0fd6040518163ffffffff1660e01b815260040160206040518083038186803b1580156150f957600080fd5b505afa15801561510d573d6000803e3d6000fd5b505050506040513d602081101561512357600080fd5b50519052905061513284614bc4565b61513c84826143ad565b506153c4565b81156153c4576001600160a01b0383166000908152600960205260409020805460ff1615156001146151bb576040805162461bcd60e51b815260206004820152601a60248201527f76656e7573206d61726b6574206973206e6f74206c6973746564000000000000604482015290519081900360640190fd5b6001600160a01b0384166000908152601060205260409020546001600160e01b031615801561520d57506001600160a01b038416600090815260106020526040902054600160e01b900463ffffffff16155b156152dc5760405180604001604052806ec097ce7bc90715b34b9f10000000006001600160e01b03168152602001615281615246611a51565b6040518060400160405280601c81526020017f626c6f636b206e756d6265722065786365656473203332206269747300000000815250615a81565b63ffffffff9081169091526001600160a01b0386166000908152601060209081526040909120835181549490920151909216600160e01b026001600160e01b039182166001600160e01b031990941693909317169190911790555b6001600160a01b0384166000908152601160205260409020546001600160e01b031615801561532e57506001600160a01b038416600090815260116020526040902054600160e01b900463ffffffff16155b156153c25760405180604001604052806ec097ce7bc90715b34b9f10000000006001600160e01b03168152602001615367615246611a51565b63ffffffff9081169091526001600160a01b0386166000908152601160209081526040909120835181549490920151909216600160e01b026001600160e01b039182166001600160e01b031990941693909317169190911790555b505b818114611df3576001600160a01b0383166000818152600f6020908152604091829020859055815185815291517f2a0ce45ba05a83e75ba21e1a10d6b48a8395028cc6e1ae66f6c313648379d5489281900390910190a2505050565b60008061542b612b83565b604080516370a0823160e01b815230600482015290519192506000916001600160a01b038416916370a08231916024808301926020929190829003018186803b15801561547757600080fd5b505afa15801561548b573d6000803e3d6000fd5b505050506040513d60208110156154a157600080fd5b5051905083158015906154b45750808411155b1561555157816001600160a01b031663a9059cbb86866040518363ffffffff1660e01b815260040180836001600160a01b03166001600160a01b0316815260200182815260200192505050602060405180830381600087803b15801561551957600080fd5b505af115801561552d573d6000803e3d6000fd5b505050506040513d602081101561554357600080fd5b50600093506123f492505050565b50919392505050565b60005b600d548110156155e557816001600160a01b0316600d828154811061557e57fe5b6000918252602090912001546001600160a01b031614156155dd576040805162461bcd60e51b81526020600482015260146024820152731b585c9ad95d08185b1c9958591e48185919195960621b604482015290519081900360640190fd5b60010161555d565b50600d80546001810182556000919091527fd7b6990105719101dabeb77144f2a3385c8033acd3af97e9423a695e81ad1eb50180546001600160a01b0319166001600160a01b0392909216919091179055565b615640615d3c565b6040518060200160405280670de0b6b3a7640000615666866000015186600001516158c0565b8161566d57fe5b0490529392505050565b61567f615d3c565b60405180602001604052806156aa6156a38660000151670de0b6b3a76400006158c0565b8551615b82565b90529392505050565b6001600160a01b03831660009081526009602052604081205460ff166156da576009611c60565b6001600160a01b038085166000908152600960209081526040808320938716835260029093019052205460ff16615712576000611c60565b6000806157228587866000614857565b9193509091506000905082601281111561573857fe5b146157525781601281111561574957fe5b92505050611c80565b801561308e576004615749565b6001600160a01b0382166000908152600960205260408120805460ff1661578a5760099150506123f4565b6001600160a01b038316600090815260028201602052604090205460ff16156157b75760009150506123f4565b6001600160a01b0380841660008181526002840160209081526040808320805460ff19166001908117909155600883528184208054918201815584529282902090920180549489166001600160a01b031990951685179055815193845283019190915280517f3ab23ab0d51cccc0c3085aec51f99228625aa1a922b3a8ca89a26b0f2027a1a59281900390910190a15060009392505050565b6000611c808383604051806040016040528060118152602001706164646974696f6e206f766572666c6f7760781b815250615bb5565b6000611c808383604051806040016040528060158152602001747375627472616374696f6e20756e646572666c6f7760581b815250615c0a565b6000611c8083836040518060400160405280601781526020017f6d756c7469706c69636174696f6e206f766572666c6f77000000000000000000815250615c64565b5190511090565b60007f45b96fe442630264581b197e84bbada861235052c5a1aadfff9ea4e40a969aa084601281111561593857fe5b84601781111561594457fe5b604080519283526020830191909152818101859052519081900360600190a1836012811115611c7d57fe5b6000611c8061598684670de0b6b3a76400006158c0565b8351615b82565b615995615d3c565b60405180602001604052806156aa6159bc866ec097ce7bc90715b34b9f10000000006158c0565b85615b82565b6159ca615d3c565b60405180602001604052806156aa85600001518560000151615850565b600081600160e01b8410615a795760405162461bcd60e51b81526004018080602001828103825283818151815260200191508051906020019080838360005b83811015615a3e578181015183820152602001615a26565b50505050905090810190601f168015615a6b5780820380516001836020036101000a031916815260200191505b509250505060405180910390fd5b509192915050565b600081600160201b8410615a795760405162461bcd60e51b8152602060048201818152835160248401528351909283926044909101919085019080838360008315615a3e578181015183820152602001615a26565b615ade615d3c565b60405180602001604052806156aa85600001518560000151615886565b60006ec097ce7bc90715b34b9f1000000000615b1b8484600001516158c0565b81615b2257fe5b049392505050565b6000615b34615d3c565b615b3e8585615b52565b90506120b5615b4c82615b73565b84615850565b615b5a615d3c565b60405180602001604052806156aa8560000151856158c0565b51670de0b6b3a7640000900490565b6000611c8083836040518060400160405280600e81526020016d646976696465206279207a65726f60901b815250615cda565b60008383018285821015612c285760405162461bcd60e51b8152602060048201818152835160248401528351909283926044909101919085019080838360008315615a3e578181015183820152602001615a26565b60008184841115615c5c5760405162461bcd60e51b8152602060048201818152835160248401528351909283926044909101919085019080838360008315615a3e578181015183820152602001615a26565b505050900390565b6000831580615c71575082155b15615c7e57506000611c80565b83830283858281615c8b57fe5b04148390612c285760405162461bcd60e51b8152602060048201818152835160248401528351909283926044909101919085019080838360008315615a3e578181015183820152602001615a26565b60008183615d295760405162461bcd60e51b8152602060048201818152835160248401528351909283926044909101919085019080838360008315615a3e578181015183820152602001615a26565b50828481615d3357fe5b04949350505050565b6040518060200160405280600081525090565b815481835581811115611df357600083815260209020611df3918101908301615ddd565b604051806101400160405280600081526020016000815260200160008152602001600081526020016000815260200160008152602001615db1615d3c565b8152602001615dbe615d3c565b8152602001615dcb615d3c565b8152602001615dd8615d3c565b905290565b611a5391905b80821115615df75760008155600101615de3565b509056fe6f6e6c7920706175736520677561726469616e20616e642061646d696e2063616e6f6e6c792061646d696e206f7220626f72726f772063617020677561726469616e2063616e2073657420626f72726f772063617073a265627a7a72315820c22f2673beb367bf588490763410eaf5b8098f99f4686b1d7bd6efaeb11f9ad564736f6c63430005100032",
  "linkReferences": {},
  "deployedLinkReferences": {}
}