{
  "_format": "hh-sol-artifact-1",
  "contractName": "ComptrollerG3",
  "sourceName": "contracts/ComptrollerG3.sol",
  "abi": [
    {
      "inputs": [],
      "payable": false,
      "stateMutability": "nonpayable",
      "type": "constructor"
    },
    {
      "anonymous": false,
      "inputs": [
        {
          "indexed": false,
          "internalType": "string",
          "name": "action",
          "type": "string"
        },
        {
          "indexed": false,
          "internalType": "bool",
          "name": "pauseState",
          "type": "bool"
        }
      ],
      "name": "ActionPaused",
      "type": "event"
    },
    {
      "anonymous": false,
      "inputs": [
        {
          "indexed": false,
          "internalType": "contract VToken",
          "name": "vToken",
          "type": "address"
        },
        {
          "indexed": false,
          "internalType": "string",
          "name": "action",
          "type": "string"
        },
        {
          "indexed": false,
          "internalType": "bool",
          "name": "pauseState",
          "type": "bool"
        }
      ],
      "name": "ActionPaused",
      "type": "event"
    },
    {
      "anonymous": false,
      "inputs": [
        {
          "indexed": false,
          "internalType": "bool",
          "name": "state",
          "type": "bool"
        }
      ],
      "name": "ActionProtocolPaused",
      "type": "event"
    },
    {
      "anonymous": false,
      "inputs": [
        {
          "indexed": true,
          "internalType": "contract VToken",
          "name": "vToken",
          "type": "address"
        },
        {
          "indexed": true,
          "internalType": "address",
          "name": "borrower",
          "type": "address"
        },
        {
          "indexed": false,
          "internalType": "uint256",
          "name": "venusDelta",
          "type": "uint256"
        },
        {
          "indexed": false,
          "internalType": "uint256",
          "name": "venusBorrowIndex",
          "type": "uint256"
        }
      ],
      "name": "DistributedBorrowerVenus",
      "type": "event"
    },
    {
      "anonymous": false,
      "inputs": [
        {
          "indexed": true,
          "internalType": "contract VToken",
          "name": "vToken",
          "type": "address"
        },
        {
          "indexed": true,
          "internalType": "address",
          "name": "supplier",
          "type": "address"
        },
        {
          "indexed": false,
          "internalType": "uint256",
          "name": "venusDelta",
          "type": "uint256"
        },
        {
          "indexed": false,
          "internalType": "uint256",
          "name": "venusSupplyIndex",
          "type": "uint256"
        }
      ],
      "name": "DistributedSupplierVenus",
      "type": "event"
    },
    {
      "anonymous": false,
      "inputs": [
        {
          "indexed": true,
          "internalType": "address",
          "name": "vaiMinter",
          "type": "address"
        },
        {
          "indexed": false,
          "internalType": "uint256",
          "name": "venusDelta",
          "type": "uint256"
        },
        {
          "indexed": false,
          "internalType": "uint256",
          "name": "venusVAIMintIndex",
          "type": "uint256"
        }
      ],
      "name": "DistributedVAIMinterVenus",
      "type": "event"
    },
    {
      "anonymous": false,
      "inputs": [
        {
          "indexed": false,
          "internalType": "uint256",
          "name": "amount",
          "type": "uint256"
        }
      ],
      "name": "DistributedVAIVaultVenus",
      "type": "event"
    },
    {
      "anonymous": false,
      "inputs": [
        {
          "indexed": false,
          "internalType": "uint256",
          "name": "error",
          "type": "uint256"
        },
        {
          "indexed": false,
          "internalType": "uint256",
          "name": "info",
          "type": "uint256"
        },
        {
          "indexed": false,
          "internalType": "uint256",
          "name": "detail",
          "type": "uint256"
        }
      ],
      "name": "Failure",
      "type": "event"
    },
    {
      "anonymous": false,
      "inputs": [
        {
          "indexed": false,
          "internalType": "contract VToken",
          "name": "vToken",
          "type": "address"
        },
        {
          "indexed": false,
          "internalType": "address",
          "name": "account",
          "type": "address"
        }
      ],
      "name": "MarketEntered",
      "type": "event"
    },
    {
      "anonymous": false,
      "inputs": [
        {
          "indexed": false,
          "internalType": "contract VToken",
          "name": "vToken",
          "type": "address"
        },
        {
          "indexed": false,
          "internalType": "address",
          "name": "account",
          "type": "address"
        }
      ],
      "name": "MarketExited",
      "type": "event"
    },
    {
      "anonymous": false,
      "inputs": [
        {
          "indexed": false,
          "internalType": "contract VToken",
          "name": "vToken",
          "type": "address"
        }
      ],
      "name": "MarketListed",
      "type": "event"
    },
    {
      "anonymous": false,
      "inputs": [
        {
          "indexed": true,
          "internalType": "contract VToken",
          "name": "vToken",
          "type": "address"
        },
        {
          "indexed": false,
          "internalType": "uint256",
          "name": "newBorrowCap",
          "type": "uint256"
        }
      ],
      "name": "NewBorrowCap",
      "type": "event"
    },
    {
      "anonymous": false,
      "inputs": [
        {
          "indexed": false,
          "internalType": "address",
          "name": "oldBorrowCapGuardian",
          "type": "address"
        },
        {
          "indexed": false,
          "internalType": "address",
          "name": "newBorrowCapGuardian",
          "type": "address"
        }
      ],
      "name": "NewBorrowCapGuardian",
      "type": "event"
    },
    {
      "anonymous": false,
      "inputs": [
        {
          "indexed": false,
          "internalType": "uint256",
          "name": "oldCloseFactorMantissa",
          "type": "uint256"
        },
        {
          "indexed": false,
          "internalType": "uint256",
          "name": "newCloseFactorMantissa",
          "type": "uint256"
        }
      ],
      "name": "NewCloseFactor",
      "type": "event"
    },
    {
      "anonymous": false,
      "inputs": [
        {
          "indexed": false,
          "internalType": "contract VToken",
          "name": "vToken",
          "type": "address"
        },
        {
          "indexed": false,
          "internalType": "uint256",
          "name": "oldCollateralFactorMantissa",
          "type": "uint256"
        },
        {
          "indexed": false,
          "internalType": "uint256",
          "name": "newCollateralFactorMantissa",
          "type": "uint256"
        }
      ],
      "name": "NewCollateralFactor",
      "type": "event"
    },
    {
      "anonymous": false,
      "inputs": [
        {
          "indexed": false,
          "internalType": "uint256",
          "name": "oldLiquidationIncentiveMantissa",
          "type": "uint256"
        },
        {
          "indexed": false,
          "internalType": "uint256",
          "name": "newLiquidationIncentiveMantissa",
          "type": "uint256"
        }
      ],
      "name": "NewLiquidationIncentive",
      "type": "event"
    },
    {
      "anonymous": false,
      "inputs": [
        {
          "indexed": false,
          "internalType": "uint256",
          "name": "oldMaxAssets",
          "type": "uint256"
        },
        {
          "indexed": false,
          "internalType": "uint256",
          "name": "newMaxAssets",
          "type": "uint256"
        }
      ],
      "name": "NewMaxAssets",
      "type": "event"
    },
    {
      "anonymous": false,
      "inputs": [
        {
          "indexed": false,
          "internalType": "address",
          "name": "oldPauseGuardian",
          "type": "address"
        },
        {
          "indexed": false,
          "internalType": "address",
          "name": "newPauseGuardian",
          "type": "address"
        }
      ],
      "name": "NewPauseGuardian",
      "type": "event"
    },
    {
      "anonymous": false,
      "inputs": [
        {
          "indexed": false,
          "internalType": "contract PriceOracle",
          "name": "oldPriceOracle",
          "type": "address"
        },
        {
          "indexed": false,
          "internalType": "contract PriceOracle",
          "name": "newPriceOracle",
          "type": "address"
        }
      ],
      "name": "NewPriceOracle",
      "type": "event"
    },
    {
      "anonymous": false,
      "inputs": [
        {
          "indexed": false,
          "internalType": "contract VAIControllerInterface",
          "name": "oldVAIController",
          "type": "address"
        },
        {
          "indexed": false,
          "internalType": "contract VAIControllerInterface",
          "name": "newVAIController",
          "type": "address"
        }
      ],
      "name": "NewVAIController",
      "type": "event"
    },
    {
      "anonymous": false,
      "inputs": [
        {
          "indexed": false,
          "internalType": "uint256",
          "name": "oldVAIMintRate",
          "type": "uint256"
        },
        {
          "indexed": false,
          "internalType": "uint256",
          "name": "newVAIMintRate",
          "type": "uint256"
        }
      ],
      "name": "NewVAIMintRate",
      "type": "event"
    },
    {
      "anonymous": false,
      "inputs": [
        {
          "indexed": false,
          "internalType": "address",
          "name": "vault_",
          "type": "address"
        },
        {
          "indexed": false,
          "internalType": "uint256",
          "name": "releaseStartBlock_",
          "type": "uint256"
        },
        {
          "indexed": false,
          "internalType": "uint256",
          "name": "releaseInterval_",
          "type": "uint256"
        }
      ],
      "name": "NewVAIVaultInfo",
      "type": "event"
    },
    {
      "anonymous": false,
      "inputs": [
        {
          "indexed": false,
          "internalType": "uint256",
          "name": "oldVenusVAIVaultRate",
          "type": "uint256"
        },
        {
          "indexed": false,
          "internalType": "uint256",
          "name": "newVenusVAIVaultRate",
          "type": "uint256"
        }
      ],
      "name": "NewVenusVAIVaultRate",
      "type": "event"
    },
    {
      "anonymous": false,
      "inputs": [
        {
          "indexed": true,
          "internalType": "contract VToken",
          "name": "vToken",
          "type": "address"
        },
        {
          "indexed": false,
          "internalType": "uint256",
          "name": "newSpeed",
          "type": "uint256"
        }
      ],
      "name": "VenusSpeedUpdated",
      "type": "event"
    },
    {
      "constant": false,
      "inputs": [
        {
          "internalType": "contract Unitroller",
          "name": "unitroller",
          "type": "address"
        }
      ],
      "name": "_become",
      "outputs": [],
      "payable": false,
      "stateMutability": "nonpayable",
      "type": "function"
    },
    {
      "constant": false,
      "inputs": [
        {
          "internalType": "address",
          "name": "newBorrowCapGuardian",
          "type": "address"
        }
      ],
      "name": "_setBorrowCapGuardian",
      "outputs": [],
      "payable": false,
      "stateMutability": "nonpayable",
      "type": "function"
    },
    {
      "constant": false,
      "inputs": [
        {
          "internalType": "uint256",
          "name": "newCloseFactorMantissa",
          "type": "uint256"
        }
      ],
      "name": "_setCloseFactor",
      "outputs": [
        {
          "internalType": "uint256",
          "name": "",
          "type": "uint256"
        }
      ],
      "payable": false,
      "stateMutability": "nonpayable",
      "type": "function"
    },
    {
      "constant": false,
      "inputs": [
        {
          "internalType": "contract VToken",
          "name": "vToken",
          "type": "address"
        },
        {
          "internalType": "uint256",
          "name": "newCollateralFactorMantissa",
          "type": "uint256"
        }
      ],
      "name": "_setCollateralFactor",
      "outputs": [
        {
          "internalType": "uint256",
          "name": "",
          "type": "uint256"
        }
      ],
      "payable": false,
      "stateMutability": "nonpayable",
      "type": "function"
    },
    {
      "constant": false,
      "inputs": [
        {
          "internalType": "uint256",
          "name": "newLiquidationIncentiveMantissa",
          "type": "uint256"
        }
      ],
      "name": "_setLiquidationIncentive",
      "outputs": [
        {
          "internalType": "uint256",
          "name": "",
          "type": "uint256"
        }
      ],
      "payable": false,
      "stateMutability": "nonpayable",
      "type": "function"
    },
    {
      "constant": false,
      "inputs": [
        {
          "internalType": "contract VToken[]",
          "name": "vTokens",
          "type": "address[]"
        },
        {
          "internalType": "uint256[]",
          "name": "newBorrowCaps",
          "type": "uint256[]"
        }
      ],
      "name": "_setMarketBorrowCaps",
      "outputs": [],
      "payable": false,
      "stateMutability": "nonpayable",
      "type": "function"
    },
    {
      "constant": false,
      "inputs": [
        {
          "internalType": "uint256",
          "name": "newMaxAssets",
          "type": "uint256"
        }
      ],
      "name": "_setMaxAssets",
      "outputs": [
        {
          "internalType": "uint256",
          "name": "",
          "type": "uint256"
        }
      ],
      "payable": false,
      "stateMutability": "nonpayable",
      "type": "function"
    },
    {
      "constant": false,
      "inputs": [
        {
          "internalType": "contract PriceOracle",
          "name": "newOracle",
          "type": "address"
        }
      ],
      "name": "_setPriceOracle",
      "outputs": [
        {
          "internalType": "uint256",
          "name": "",
          "type": "uint256"
        }
      ],
      "payable": false,
      "stateMutability": "nonpayable",
      "type": "function"
    },
    {
      "constant": false,
      "inputs": [
        {
          "internalType": "bool",
          "name": "state",
          "type": "bool"
        }
      ],
      "name": "_setProtocolPaused",
      "outputs": [
        {
          "internalType": "bool",
          "name": "",
          "type": "bool"
        }
      ],
      "payable": false,
      "stateMutability": "nonpayable",
      "type": "function"
    },
    {
      "constant": false,
      "inputs": [
        {
          "internalType": "contract VAIControllerInterface",
          "name": "vaiController_",
          "type": "address"
        }
      ],
      "name": "_setVAIController",
      "outputs": [
        {
          "internalType": "uint256",
          "name": "",
          "type": "uint256"
        }
      ],
      "payable": false,
      "stateMutability": "nonpayable",
      "type": "function"
    },
    {
      "constant": false,
      "inputs": [
        {
          "internalType": "uint256",
          "name": "newVAIMintRate",
          "type": "uint256"
        }
      ],
      "name": "_setVAIMintRate",
      "outputs": [
        {
          "internalType": "uint256",
          "name": "",
          "type": "uint256"
        }
      ],
      "payable": false,
      "stateMutability": "nonpayable",
      "type": "function"
    },
    {
      "constant": false,
      "inputs": [
        {
          "internalType": "address",
          "name": "vault_",
          "type": "address"
        },
        {
          "internalType": "uint256",
          "name": "releaseStartBlock_",
          "type": "uint256"
        },
        {
          "internalType": "uint256",
          "name": "minReleaseAmount_",
          "type": "uint256"
        }
      ],
      "name": "_setVAIVaultInfo",
      "outputs": [],
      "payable": false,
      "stateMutability": "nonpayable",
      "type": "function"
    },
    {
      "constant": false,
      "inputs": [
        {
          "internalType": "contract VToken",
          "name": "vToken",
          "type": "address"
        },
        {
          "internalType": "uint256",
          "name": "venusSpeed",
          "type": "uint256"
        }
      ],
      "name": "_setVenusSpeed",
      "outputs": [],
      "payable": false,
      "stateMutability": "nonpayable",
      "type": "function"
    },
    {
      "constant": false,
      "inputs": [
        {
          "internalType": "uint256",
          "name": "venusVAIVaultRate_",
          "type": "uint256"
        }
      ],
      "name": "_setVenusVAIVaultRate",
      "outputs": [],
      "payable": false,
      "stateMutability": "nonpayable",
      "type": "function"
    },
    {
      "constant": false,
      "inputs": [
        {
          "internalType": "contract VToken",
          "name": "vToken",
          "type": "address"
        }
      ],
      "name": "_supportMarket",
      "outputs": [
        {
          "internalType": "uint256",
          "name": "",
          "type": "uint256"
        }
      ],
      "payable": false,
      "stateMutability": "nonpayable",
      "type": "function"
    },
    {
      "constant": true,
      "inputs": [
        {
          "internalType": "address",
          "name": "",
          "type": "address"
        },
        {
          "internalType": "uint256",
          "name": "",
          "type": "uint256"
        }
      ],
      "name": "accountAssets",
      "outputs": [
        {
          "internalType": "contract VToken",
          "name": "",
          "type": "address"
        }
      ],
      "payable": false,
      "stateMutability": "view",
      "type": "function"
    },
    {
      "constant": true,
      "inputs": [],
      "name": "admin",
      "outputs": [
        {
          "internalType": "address",
          "name": "",
          "type": "address"
        }
      ],
      "payable": false,
      "stateMutability": "view",
      "type": "function"
    },
    {
      "constant": true,
      "inputs": [
        {
          "internalType": "uint256",
          "name": "",
          "type": "uint256"
        }
      ],
      "name": "allMarkets",
      "outputs": [
        {
          "internalType": "contract VToken",
          "name": "",
          "type": "address"
        }
      ],
      "payable": false,
      "stateMutability": "view",
      "type": "function"
    },
    {
      "constant": false,
      "inputs": [
        {
          "internalType": "address",
          "name": "vToken",
          "type": "address"
        },
        {
          "internalType": "address",
          "name": "borrower",
          "type": "address"
        },
        {
          "internalType": "uint256",
          "name": "borrowAmount",
          "type": "uint256"
        }
      ],
      "name": "borrowAllowed",
      "outputs": [
        {
          "internalType": "uint256",
          "name": "",
          "type": "uint256"
        }
      ],
      "payable": false,
      "stateMutability": "nonpayable",
      "type": "function"
    },
    {
      "constant": true,
      "inputs": [],
      "name": "borrowCapGuardian",
      "outputs": [
        {
          "internalType": "address",
          "name": "",
          "type": "address"
        }
      ],
      "payable": false,
      "stateMutability": "view",
      "type": "function"
    },
    {
      "constant": true,
      "inputs": [
        {
          "internalType": "address",
          "name": "",
          "type": "address"
        }
      ],
      "name": "borrowCaps",
      "outputs": [
        {
          "internalType": "uint256",
          "name": "",
          "type": "uint256"
        }
      ],
      "payable": false,
      "stateMutability": "view",
      "type": "function"
    },
    {
      "constant": false,
      "inputs": [
        {
          "internalType": "address",
          "name": "vToken",
          "type": "address"
        },
        {
          "internalType": "address",
          "name": "borrower",
          "type": "address"
        },
        {
          "internalType": "uint256",
          "name": "borrowAmount",
          "type": "uint256"
        }
      ],
      "name": "borrowVerify",
      "outputs": [],
      "payable": false,
      "stateMutability": "nonpayable",
      "type": "function"
    },
    {
      "constant": true,
      "inputs": [
        {
          "internalType": "address",
          "name": "account",
          "type": "address"
        },
        {
          "internalType": "contract VToken",
          "name": "vToken",
          "type": "address"
        }
      ],
      "name": "checkMembership",
      "outputs": [
        {
          "internalType": "bool",
          "name": "",
          "type": "bool"
        }
      ],
      "payable": false,
      "stateMutability": "view",
      "type": "function"
    },
    {
      "constant": false,
      "inputs": [
        {
          "internalType": "address",
          "name": "holder",
          "type": "address"
        },
        {
          "internalType": "contract VToken[]",
          "name": "vTokens",
          "type": "address[]"
        }
      ],
      "name": "claimVenus",
      "outputs": [],
      "payable": false,
      "stateMutability": "nonpayable",
      "type": "function"
    },
    {
      "constant": false,
      "inputs": [
        {
          "internalType": "address",
          "name": "holder",
          "type": "address"
        }
      ],
      "name": "claimVenus",
      "outputs": [],
      "payable": false,
      "stateMutability": "nonpayable",
      "type": "function"
    },
    {
      "constant": false,
      "inputs": [
        {
          "internalType": "address[]",
          "name": "holders",
          "type": "address[]"
        },
        {
          "internalType": "contract VToken[]",
          "name": "vTokens",
          "type": "address[]"
        },
        {
          "internalType": "bool",
          "name": "borrowers",
          "type": "bool"
        },
        {
          "internalType": "bool",
          "name": "suppliers",
          "type": "bool"
        }
      ],
      "name": "claimVenus",
      "outputs": [],
      "payable": false,
      "stateMutability": "nonpayable",
      "type": "function"
    },
    {
      "constant": true,
      "inputs": [],
      "name": "closeFactorMantissa",
      "outputs": [
        {
          "internalType": "uint256",
          "name": "",
          "type": "uint256"
        }
      ],
      "payable": false,
      "stateMutability": "view",
      "type": "function"
    },
    {
      "constant": true,
      "inputs": [],
      "name": "comptrollerImplementation",
      "outputs": [
        {
          "internalType": "address",
          "name": "",
          "type": "address"
        }
      ],
      "payable": false,
      "stateMutability": "view",
      "type": "function"
    },
    {
      "constant": false,
      "inputs": [
        {
          "internalType": "address",
          "name": "vaiMinter",
          "type": "address"
        },
        {
          "internalType": "bool",
          "name": "distributeAll",
          "type": "bool"
        }
      ],
      "name": "distributeVAIMinterVenus",
      "outputs": [],
      "payable": false,
      "stateMutability": "nonpayable",
      "type": "function"
    },
    {
      "constant": false,
      "inputs": [
        {
          "internalType": "address[]",
          "name": "vTokens",
          "type": "address[]"
        }
      ],
      "name": "enterMarkets",
      "outputs": [
        {
          "internalType": "uint256[]",
          "name": "",
          "type": "uint256[]"
        }
      ],
      "payable": false,
      "stateMutability": "nonpayable",
      "type": "function"
    },
    {
      "constant": false,
      "inputs": [
        {
          "internalType": "address",
          "name": "vTokenAddress",
          "type": "address"
        }
      ],
      "name": "exitMarket",
      "outputs": [
        {
          "internalType": "uint256",
          "name": "",
          "type": "uint256"
        }
      ],
      "payable": false,
      "stateMutability": "nonpayable",
      "type": "function"
    },
    {
      "constant": true,
      "inputs": [
        {
          "internalType": "address",
          "name": "account",
          "type": "address"
        }
      ],
      "name": "getAccountLiquidity",
      "outputs": [
        {
          "internalType": "uint256",
          "name": "",
          "type": "uint256"
        },
        {
          "internalType": "uint256",
          "name": "",
          "type": "uint256"
        },
        {
          "internalType": "uint256",
          "name": "",
          "type": "uint256"
        }
      ],
      "payable": false,
      "stateMutability": "view",
      "type": "function"
    },
    {
      "constant": true,
      "inputs": [],
      "name": "getAllMarkets",
      "outputs": [
        {
          "internalType": "contract VToken[]",
          "name": "",
          "type": "address[]"
        }
      ],
      "payable": false,
      "stateMutability": "view",
      "type": "function"
    },
    {
      "constant": true,
      "inputs": [
        {
          "internalType": "address",
          "name": "account",
          "type": "address"
        }
      ],
      "name": "getAssetsIn",
      "outputs": [
        {
          "internalType": "contract VToken[]",
          "name": "",
          "type": "address[]"
        }
      ],
      "payable": false,
      "stateMutability": "view",
      "type": "function"
    },
    {
      "constant": true,
      "inputs": [],
      "name": "getBlockNumber",
      "outputs": [
        {
          "internalType": "uint256",
          "name": "",
          "type": "uint256"
        }
      ],
      "payable": false,
      "stateMutability": "view",
      "type": "function"
    },
    {
      "constant": true,
      "inputs": [
        {
          "internalType": "address",
          "name": "account",
          "type": "address"
        },
        {
          "internalType": "address",
          "name": "vTokenModify",
          "type": "address"
        },
        {
          "internalType": "uint256",
          "name": "redeemTokens",
          "type": "uint256"
        },
        {
          "internalType": "uint256",
          "name": "borrowAmount",
          "type": "uint256"
        }
      ],
      "name": "getHypotheticalAccountLiquidity",
      "outputs": [
        {
          "internalType": "uint256",
          "name": "",
          "type": "uint256"
        },
        {
          "internalType": "uint256",
          "name": "",
          "type": "uint256"
        },
        {
          "internalType": "uint256",
          "name": "",
          "type": "uint256"
        }
      ],
      "payable": false,
      "stateMutability": "view",
      "type": "function"
    },
    {
      "constant": true,
      "inputs": [],
      "name": "getXVSAddress",
      "outputs": [
        {
          "internalType": "address",
          "name": "",
          "type": "address"
        }
      ],
      "payable": false,
      "stateMutability": "view",
      "type": "function"
    },
    {
      "constant": true,
      "inputs": [],
      "name": "isComptroller",
      "outputs": [
        {
          "internalType": "bool",
          "name": "",
          "type": "bool"
        }
      ],
      "payable": false,
      "stateMutability": "view",
      "type": "function"
    },
    {
      "constant": false,
      "inputs": [
        {
          "internalType": "address",
          "name": "vTokenBorrowed",
          "type": "address"
        },
        {
          "internalType": "address",
          "name": "vTokenCollateral",
          "type": "address"
        },
        {
          "internalType": "address",
          "name": "liquidator",
          "type": "address"
        },
        {
          "internalType": "address",
          "name": "borrower",
          "type": "address"
        },
        {
          "internalType": "uint256",
          "name": "repayAmount",
          "type": "uint256"
        }
      ],
      "name": "liquidateBorrowAllowed",
      "outputs": [
        {
          "internalType": "uint256",
          "name": "",
          "type": "uint256"
        }
      ],
      "payable": false,
      "stateMutability": "nonpayable",
      "type": "function"
    },
    {
      "constant": false,
      "inputs": [
        {
          "internalType": "address",
          "name": "vTokenBorrowed",
          "type": "address"
        },
        {
          "internalType": "address",
          "name": "vTokenCollateral",
          "type": "address"
        },
        {
          "internalType": "address",
          "name": "liquidator",
          "type": "address"
        },
        {
          "internalType": "address",
          "name": "borrower",
          "type": "address"
        },
        {
          "internalType": "uint256",
          "name": "actualRepayAmount",
          "type": "uint256"
        },
        {
          "internalType": "uint256",
          "name": "seizeTokens",
          "type": "uint256"
        }
      ],
      "name": "liquidateBorrowVerify",
      "outputs": [],
      "payable": false,
      "stateMutability": "nonpayable",
      "type": "function"
    },
    {
      "constant": true,
      "inputs": [
        {
          "internalType": "address",
          "name": "vTokenBorrowed",
          "type": "address"
        },
        {
          "internalType": "address",
          "name": "vTokenCollateral",
          "type": "address"
        },
        {
          "internalType": "uint256",
          "name": "actualRepayAmount",
          "type": "uint256"
        }
      ],
      "name": "liquidateCalculateSeizeTokens",
      "outputs": [
        {
          "internalType": "uint256",
          "name": "",
          "type": "uint256"
        },
        {
          "internalType": "uint256",
          "name": "",
          "type": "uint256"
        }
      ],
      "payable": false,
      "stateMutability": "view",
      "type": "function"
    },
    {
      "constant": true,
      "inputs": [],
      "name": "liquidationIncentiveMantissa",
      "outputs": [
        {
          "internalType": "uint256",
          "name": "",
          "type": "uint256"
        }
      ],
      "payable": false,
      "stateMutability": "view",
      "type": "function"
    },
    {
      "constant": true,
      "inputs": [
        {
          "internalType": "address",
          "name": "",
          "type": "address"
        }
      ],
      "name": "markets",
      "outputs": [
        {
          "internalType": "bool",
          "name": "isListed",
          "type": "bool"
        },
        {
          "internalType": "uint256",
          "name": "collateralFactorMantissa",
          "type": "uint256"
        },
        {
          "internalType": "bool",
          "name": "isVenus",
          "type": "bool"
        }
      ],
      "payable": false,
      "stateMutability": "view",
      "type": "function"
    },
    {
      "constant": true,
      "inputs": [],
      "name": "maxAssets",
      "outputs": [
        {
          "internalType": "uint256",
          "name": "",
          "type": "uint256"
        }
      ],
      "payable": false,
      "stateMutability": "view",
      "type": "function"
    },
    {
      "constant": true,
      "inputs": [],
      "name": "minReleaseAmount",
      "outputs": [
        {
          "internalType": "uint256",
          "name": "",
          "type": "uint256"
        }
      ],
      "payable": false,
      "stateMutability": "view",
      "type": "function"
    },
    {
      "constant": false,
      "inputs": [
        {
          "internalType": "address",
          "name": "vToken",
          "type": "address"
        },
        {
          "internalType": "address",
          "name": "minter",
          "type": "address"
        },
        {
          "internalType": "uint256",
          "name": "mintAmount",
          "type": "uint256"
        }
      ],
      "name": "mintAllowed",
      "outputs": [
        {
          "internalType": "uint256",
          "name": "",
          "type": "uint256"
        }
      ],
      "payable": false,
      "stateMutability": "nonpayable",
      "type": "function"
    },
    {
      "constant": true,
      "inputs": [],
      "name": "mintVAIGuardianPaused",
      "outputs": [
        {
          "internalType": "bool",
          "name": "",
          "type": "bool"
        }
      ],
      "payable": false,
      "stateMutability": "view",
      "type": "function"
    },
    {
      "constant": false,
      "inputs": [
        {
          "internalType": "address",
          "name": "vToken",
          "type": "address"
        },
        {
          "internalType": "address",
          "name": "minter",
          "type": "address"
        },
        {
          "internalType": "uint256",
          "name": "actualMintAmount",
          "type": "uint256"
        },
        {
          "internalType": "uint256",
          "name": "mintTokens",
          "type": "uint256"
        }
      ],
      "name": "mintVerify",
      "outputs": [],
      "payable": false,
      "stateMutability": "nonpayable",
      "type": "function"
    },
    {
      "constant": true,
      "inputs": [
        {
          "internalType": "address",
          "name": "",
          "type": "address"
        }
      ],
      "name": "mintedVAIs",
      "outputs": [
        {
          "internalType": "uint256",
          "name": "",
          "type": "uint256"
        }
      ],
      "payable": false,
      "stateMutability": "view",
      "type": "function"
    },
    {
      "constant": true,
      "inputs": [],
      "name": "oracle",
      "outputs": [
        {
          "internalType": "contract PriceOracle",
          "name": "",
          "type": "address"
        }
      ],
      "payable": false,
      "stateMutability": "view",
      "type": "function"
    },
    {
      "constant": true,
      "inputs": [],
      "name": "pauseGuardian",
      "outputs": [
        {
          "internalType": "address",
          "name": "",
          "type": "address"
        }
      ],
      "payable": false,
      "stateMutability": "view",
      "type": "function"
    },
    {
      "constant": true,
      "inputs": [],
      "name": "pendingAdmin",
      "outputs": [
        {
          "internalType": "address",
          "name": "",
          "type": "address"
        }
      ],
      "payable": false,
      "stateMutability": "view",
      "type": "function"
    },
    {
      "constant": true,
      "inputs": [],
      "name": "pendingComptrollerImplementation",
      "outputs": [
        {
          "internalType": "address",
          "name": "",
          "type": "address"
        }
      ],
      "payable": false,
      "stateMutability": "view",
      "type": "function"
    },
    {
      "constant": true,
      "inputs": [],
      "name": "protocolPaused",
      "outputs": [
        {
          "internalType": "bool",
          "name": "",
          "type": "bool"
        }
      ],
      "payable": false,
      "stateMutability": "view",
      "type": "function"
    },
    {
      "constant": false,
      "inputs": [
        {
          "internalType": "address",
          "name": "vToken",
          "type": "address"
        },
        {
          "internalType": "address",
          "name": "redeemer",
          "type": "address"
        },
        {
          "internalType": "uint256",
          "name": "redeemTokens",
          "type": "uint256"
        }
      ],
      "name": "redeemAllowed",
      "outputs": [
        {
          "internalType": "uint256",
          "name": "",
          "type": "uint256"
        }
      ],
      "payable": false,
      "stateMutability": "nonpayable",
      "type": "function"
    },
    {
      "constant": false,
      "inputs": [
        {
          "internalType": "address",
          "name": "vToken",
          "type": "address"
        },
        {
          "internalType": "address",
          "name": "redeemer",
          "type": "address"
        },
        {
          "internalType": "uint256",
          "name": "redeemAmount",
          "type": "uint256"
        },
        {
          "internalType": "uint256",
          "name": "redeemTokens",
          "type": "uint256"
        }
      ],
      "name": "redeemVerify",
      "outputs": [],
      "payable": false,
      "stateMutability": "nonpayable",
      "type": "function"
    },
    {
      "constant": true,
      "inputs": [],
      "name": "releaseStartBlock",
      "outputs": [
        {
          "internalType": "uint256",
          "name": "",
          "type": "uint256"
        }
      ],
      "payable": false,
      "stateMutability": "view",
      "type": "function"
    },
    {
      "constant": false,
      "inputs": [],
      "name": "releaseToVault",
      "outputs": [],
      "payable": false,
      "stateMutability": "nonpayable",
      "type": "function"
    },
    {
      "constant": false,
      "inputs": [
        {
          "internalType": "address",
          "name": "vToken",
          "type": "address"
        },
        {
          "internalType": "address",
          "name": "payer",
          "type": "address"
        },
        {
          "internalType": "address",
          "name": "borrower",
          "type": "address"
        },
        {
          "internalType": "uint256",
          "name": "repayAmount",
          "type": "uint256"
        }
      ],
      "name": "repayBorrowAllowed",
      "outputs": [
        {
          "internalType": "uint256",
          "name": "",
          "type": "uint256"
        }
      ],
      "payable": false,
      "stateMutability": "nonpayable",
      "type": "function"
    },
    {
      "constant": false,
      "inputs": [
        {
          "internalType": "address",
          "name": "vToken",
          "type": "address"
        },
        {
          "internalType": "address",
          "name": "payer",
          "type": "address"
        },
        {
          "internalType": "address",
          "name": "borrower",
          "type": "address"
        },
        {
          "internalType": "uint256",
          "name": "actualRepayAmount",
          "type": "uint256"
        },
        {
          "internalType": "uint256",
          "name": "borrowerIndex",
          "type": "uint256"
        }
      ],
      "name": "repayBorrowVerify",
      "outputs": [],
      "payable": false,
      "stateMutability": "nonpayable",
      "type": "function"
    },
    {
      "constant": true,
      "inputs": [],
      "name": "repayVAIGuardianPaused",
      "outputs": [
        {
          "internalType": "bool",
          "name": "",
          "type": "bool"
        }
      ],
      "payable": false,
      "stateMutability": "view",
      "type": "function"
    },
    {
      "constant": false,
      "inputs": [
        {
          "internalType": "address",
          "name": "vTokenCollateral",
          "type": "address"
        },
        {
          "internalType": "address",
          "name": "vTokenBorrowed",
          "type": "address"
        },
        {
          "internalType": "address",
          "name": "liquidator",
          "type": "address"
        },
        {
          "internalType": "address",
          "name": "borrower",
          "type": "address"
        },
        {
          "internalType": "uint256",
          "name": "seizeTokens",
          "type": "uint256"
        }
      ],
      "name": "seizeAllowed",
      "outputs": [
        {
          "internalType": "uint256",
          "name": "",
          "type": "uint256"
        }
      ],
      "payable": false,
      "stateMutability": "nonpayable",
      "type": "function"
    },
    {
      "constant": false,
      "inputs": [
        {
          "internalType": "address",
          "name": "vTokenCollateral",
          "type": "address"
        },
        {
          "internalType": "address",
          "name": "vTokenBorrowed",
          "type": "address"
        },
        {
          "internalType": "address",
          "name": "liquidator",
          "type": "address"
        },
        {
          "internalType": "address",
          "name": "borrower",
          "type": "address"
        },
        {
          "internalType": "uint256",
          "name": "seizeTokens",
          "type": "uint256"
        }
      ],
      "name": "seizeVerify",
      "outputs": [],
      "payable": false,
      "stateMutability": "nonpayable",
      "type": "function"
    },
    {
      "constant": false,
      "inputs": [
        {
          "internalType": "address",
          "name": "owner",
          "type": "address"
        },
        {
          "internalType": "uint256",
          "name": "amount",
          "type": "uint256"
        }
      ],
      "name": "setMintedVAIOf",
      "outputs": [
        {
          "internalType": "uint256",
          "name": "",
          "type": "uint256"
        }
      ],
      "payable": false,
      "stateMutability": "nonpayable",
      "type": "function"
    },
    {
      "constant": false,
      "inputs": [
        {
          "internalType": "address",
          "name": "vToken",
          "type": "address"
        },
        {
          "internalType": "address",
          "name": "src",
          "type": "address"
        },
        {
          "internalType": "address",
          "name": "dst",
          "type": "address"
        },
        {
          "internalType": "uint256",
          "name": "transferTokens",
          "type": "uint256"
        }
      ],
      "name": "transferAllowed",
      "outputs": [
        {
          "internalType": "uint256",
          "name": "",
          "type": "uint256"
        }
      ],
      "payable": false,
      "stateMutability": "nonpayable",
      "type": "function"
    },
    {
      "constant": false,
      "inputs": [
        {
          "internalType": "address",
          "name": "vToken",
          "type": "address"
        },
        {
          "internalType": "address",
          "name": "src",
          "type": "address"
        },
        {
          "internalType": "address",
          "name": "dst",
          "type": "address"
        },
        {
          "internalType": "uint256",
          "name": "transferTokens",
          "type": "uint256"
        }
      ],
      "name": "transferVerify",
      "outputs": [],
      "payable": false,
      "stateMutability": "nonpayable",
      "type": "function"
    },
    {
      "constant": true,
      "inputs": [],
      "name": "vaiController",
      "outputs": [
        {
          "internalType": "contract VAIControllerInterface",
          "name": "",
          "type": "address"
        }
      ],
      "payable": false,
      "stateMutability": "view",
      "type": "function"
    },
    {
      "constant": true,
      "inputs": [],
      "name": "vaiMintRate",
      "outputs": [
        {
          "internalType": "uint256",
          "name": "",
          "type": "uint256"
        }
      ],
      "payable": false,
      "stateMutability": "view",
      "type": "function"
    },
    {
      "constant": true,
      "inputs": [],
      "name": "vaiVaultAddress",
      "outputs": [
        {
          "internalType": "address",
          "name": "",
          "type": "address"
        }
      ],
      "payable": false,
      "stateMutability": "view",
      "type": "function"
    },
    {
      "constant": true,
      "inputs": [
        {
          "internalType": "address",
          "name": "",
          "type": "address"
        }
      ],
      "name": "venusAccrued",
      "outputs": [
        {
          "internalType": "uint256",
          "name": "",
          "type": "uint256"
        }
      ],
      "payable": false,
      "stateMutability": "view",
      "type": "function"
    },
    {
      "constant": true,
      "inputs": [
        {
          "internalType": "address",
          "name": "",
          "type": "address"
        }
      ],
      "name": "venusBorrowState",
      "outputs": [
        {
          "internalType": "uint224",
          "name": "index",
          "type": "uint224"
        },
        {
          "internalType": "uint32",
          "name": "block",
          "type": "uint32"
        }
      ],
      "payable": false,
      "stateMutability": "view",
      "type": "function"
    },
    {
      "constant": true,
      "inputs": [
        {
          "internalType": "address",
          "name": "",
          "type": "address"
        },
        {
          "internalType": "address",
          "name": "",
          "type": "address"
        }
      ],
      "name": "venusBorrowerIndex",
      "outputs": [
        {
          "internalType": "uint256",
          "name": "",
          "type": "uint256"
        }
      ],
      "payable": false,
      "stateMutability": "view",
      "type": "function"
    },
    {
      "constant": true,
      "inputs": [],
      "name": "venusInitialIndex",
      "outputs": [
        {
          "internalType": "uint224",
          "name": "",
          "type": "uint224"
        }
      ],
      "payable": false,
      "stateMutability": "view",
      "type": "function"
    },
    {
      "constant": true,
      "inputs": [],
      "name": "venusRate",
      "outputs": [
        {
          "internalType": "uint256",
          "name": "",
          "type": "uint256"
        }
      ],
      "payable": false,
      "stateMutability": "view",
      "type": "function"
    },
    {
      "constant": true,
      "inputs": [
        {
          "internalType": "address",
          "name": "",
          "type": "address"
        }
      ],
      "name": "venusSpeeds",
      "outputs": [
        {
          "internalType": "uint256",
          "name": "",
          "type": "uint256"
        }
      ],
      "payable": false,
      "stateMutability": "view",
      "type": "function"
    },
    {
      "constant": true,
      "inputs": [
        {
          "internalType": "address",
          "name": "",
          "type": "address"
        },
        {
          "internalType": "address",
          "name": "",
          "type": "address"
        }
      ],
      "name": "venusSupplierIndex",
      "outputs": [
        {
          "internalType": "uint256",
          "name": "",
          "type": "uint256"
        }
      ],
      "payable": false,
      "stateMutability": "view",
      "type": "function"
    },
    {
      "constant": true,
      "inputs": [
        {
          "internalType": "address",
          "name": "",
          "type": "address"
        }
      ],
      "name": "venusSupplyState",
      "outputs": [
        {
          "internalType": "uint224",
          "name": "index",
          "type": "uint224"
        },
        {
          "internalType": "uint32",
          "name": "block",
          "type": "uint32"
        }
      ],
      "payable": false,
      "stateMutability": "view",
      "type": "function"
    },
    {
      "constant": true,
      "inputs": [],
      "name": "venusVAIVaultRate",
      "outputs": [
        {
          "internalType": "uint256",
          "name": "",
          "type": "uint256"
        }
      ],
      "payable": false,
      "stateMutability": "view",
      "type": "function"
    }
  ],
  "bytecode": "0x608060405234801561001057600080fd5b50600080546001600160a01b03191633179055615ccd80620000336000396000f3fe608060405234801561001057600080fd5b50600436106104695760003560e01c8063765513831161024c578063bec04f7211610146578063dcfbc0c7116100c3578063eabe7d9111610087578063eabe7d911461117d578063ede4edd0146111b3578063f851a440146111d9578063fa6331d8146111e1578063fd51a3ad146111e957610469565b8063dcfbc0c714611113578063ddfd287e1461111b578063e37d4b7914611123578063e4028eee14611149578063e87554461461117557610469565b8063d02f73511161010a578063d02f735114610f22578063d09c54ba14610f68578063d9226ced14611094578063da3d454c146110b1578063dce15449146110e757610469565b8063bec04f7214610e31578063bf32442d14610e39578063c299823814610e41578063c488847b14610eaf578063c5b4db5514610efe57610469565b806394b2294b116101d4578063adcd5fb911610198578063adcd5fb914610d71578063b0772d0b14610d97578063b8324c7c14610d9f578063bb82aa5e14610ded578063bdcdc25814610df557610469565b806394b2294b14610c7b5780639cfdd9e614610c83578063a06a87f114610ca9578063a76b3fda14610cd5578063abfceffc14610cfb57610469565b8063879c2e1d1161021b578063879c2e1d14610bcf5780638a7dc16514610bd75780638e8f294b14610bfd5780639254f5e514610c45578063929fe9a114610c4d57610469565b80637655138314610b065780637d172bd514610b0e5780637dc0d1d014610b1657806386df31ee14610b1e57610469565b8063425fad581161036857806352d84d1e116102e5578063607ef6c1116102a9578063607ef6c1146109a15780636662c7c914610a5f5780636a56947e14610a7c5780636d35bf9114610ab8578063719f701b14610afe57610469565b806352d84d1e146108bc57806355ee1fe1146108d95780635c778605146108ff5780635ec88c79146109355780635fc7e71e1461095b57610469565b80634e0853db1161032c5780634e0853db146107a15780634e79238f146107d35780634ef4c3e11461082d5780634fd42e171461086357806351dff9891461088057610469565b8063425fad581461071757806342cbb15c1461071f57806347ef3b3b146107275780634a584432146107735780634ada90af1461079957610469565b806326782247116103f6578063317b0b77116103ba578063317b0b7714610662578063391957d71461067f5780634088c73e146106a557806341a18d2c146106ad57806341c728b9146106db57610469565b806326782247146105ca5780632a0c0463146105d25780632a6a6065146106005780632bc7e29e1461061f5780632ec041241461064557610469565b80631d504dc61161043d5780631d504dc6146104f85780631ededc911461052057806321af45691461056257806324008a621461058657806324a3d622146105c257610469565b80627e3dd21461046e57806308e0225c1461048a5780630db4b4e5146104ca5780631abcaa77146104d2575b600080fd5b610476611215565b604080519115158252519081900360200190f35b6104b8600480360360408110156104a057600080fd5b506001600160a01b038135811691602001351661121a565b60408051918252519081900360200190f35b6104b8611237565b6104b8600480360360208110156104e857600080fd5b50356001600160a01b031661123d565b61051e6004803603602081101561050e57600080fd5b50356001600160a01b031661124f565b005b61051e600480360360a081101561053657600080fd5b506001600160a01b038135811691602081013582169160408201351690606081013590608001356113bd565b61056a6113c4565b604080516001600160a01b039092168252519081900360200190f35b6104b86004803603608081101561059c57600080fd5b506001600160a01b038135811691602081013582169160408201351690606001356113d3565b61056a6114f0565b61056a6114ff565b61051e600480360360408110156105e857600080fd5b506001600160a01b038135169060200135151561150e565b6104766004803603602081101561061657600080fd5b5035151561163d565b6104b86004803603602081101561063557600080fd5b50356001600160a01b03166116e4565b6104b86004803603602081101561065b57600080fd5b50356116f6565b6104b86004803603602081101561067857600080fd5b5035611769565b61051e6004803603602081101561069557600080fd5b50356001600160a01b0316611873565b61047661191f565b6104b8600480360360408110156106c357600080fd5b506001600160a01b0381358116916020013516611928565b61051e600480360360808110156106f157600080fd5b506001600160a01b03813581169160208101359091169060408101359060600135611945565b61047661194b565b6104b861195a565b61051e600480360360c081101561073d57600080fd5b506001600160a01b0381358116916020810135821691604082013581169160608101359091169060808101359060a0013561195f565b6104b86004803603602081101561078957600080fd5b50356001600160a01b0316611964565b6104b8611976565b61051e600480360360608110156107b757600080fd5b506001600160a01b03813516906020810135906040013561197c565b61080f600480360360808110156107e957600080fd5b506001600160a01b03813581169160208101359091169060408101359060600135611a39565b60408051938452602084019290925282820152519081900360600190f35b6104b86004803603606081101561084357600080fd5b506001600160a01b03813581169160208101359091169060400135611a73565b6104b86004803603602081101561087957600080fd5b5035611b6f565b61051e6004803603608081101561089657600080fd5b506001600160a01b03813581169160208101359091169060408101359060600135611c63565b61056a600480360360208110156108d257600080fd5b5035611cb4565b6104b8600480360360208110156108ef57600080fd5b50356001600160a01b0316611cdb565b61051e6004803603606081101561091557600080fd5b506001600160a01b03813581169160208101359091169060400135611d60565b61080f6004803603602081101561094b57600080fd5b50356001600160a01b0316611d65565b6104b8600480360360a081101561097157600080fd5b506001600160a01b0381358116916020810135821691604082013581169160608101359091169060800135611d9a565b61051e600480360360408110156109b757600080fd5b810190602081018135600160201b8111156109d157600080fd5b8201836020820111156109e357600080fd5b803590602001918460208302840111600160201b83111715610a0457600080fd5b919390929091602081019035600160201b811115610a2157600080fd5b820183602082011115610a3357600080fd5b803590602001918460208302840111600160201b83111715610a5457600080fd5b509092509050611f7c565b61051e60048036036020811015610a7557600080fd5b503561210c565b61051e60048036036080811015610a9257600080fd5b506001600160a01b038135811691602081013582169160408201351690606001356121a3565b61051e600480360360a0811015610ace57600080fd5b506001600160a01b03813581169160208101358216916040820135811691606081013590911690608001356113bd565b6104b86121a8565b6104766121ae565b61056a6121bc565b61056a6121cb565b61051e60048036036040811015610b3457600080fd5b6001600160a01b038235169190810190604081016020820135600160201b811115610b5e57600080fd5b820183602082011115610b7057600080fd5b803590602001918460208302840111600160201b83111715610b9157600080fd5b9190808060200260200160405190810160405280939291908181526020018383602002808284376000920191909152509295506121da945050505050565b6104b8612237565b6104b860048036036020811015610bed57600080fd5b50356001600160a01b031661223d565b610c2360048036036020811015610c1357600080fd5b50356001600160a01b031661224f565b6040805193151584526020840192909252151582820152519081900360600190f35b61056a612275565b61047660048036036040811015610c6357600080fd5b506001600160a01b0381358116916020013516612284565b6104b86122b8565b6104b860048036036020811015610c9957600080fd5b50356001600160a01b03166122be565b61051e60048036036040811015610cbf57600080fd5b506001600160a01b038135169060200135612342565b6104b860048036036020811015610ceb57600080fd5b50356001600160a01b03166123a5565b610d2160048036036020811015610d1157600080fd5b50356001600160a01b0316612502565b60408051602080825283518183015283519192839290830191858101910280838360005b83811015610d5d578181015183820152602001610d45565b505050509050019250505060405180910390f35b61051e60048036036020811015610d8757600080fd5b50356001600160a01b0316612578565b610d216125dc565b610dc560048036036020811015610db557600080fd5b50356001600160a01b031661263e565b604080516001600160e01b03909316835263ffffffff90911660208301528051918290030190f35b61056a612668565b6104b860048036036080811015610e0b57600080fd5b506001600160a01b03813581169160208101358216916040820135169060600135612677565b6104b861275a565b61056a612760565b610d2160048036036020811015610e5757600080fd5b810190602081018135600160201b811115610e7157600080fd5b820183602082011115610e8357600080fd5b803590602001918460208302840111600160201b83111715610ea457600080fd5b509092509050612778565b610ee560048036036060811015610ec557600080fd5b506001600160a01b0381358116916020810135909116906040013561280e565b6040805192835260208301919091528051918290030190f35b610f06612a83565b604080516001600160e01b039092168252519081900360200190f35b6104b8600480360360a0811015610f3857600080fd5b506001600160a01b0381358116916020810135821691604082013581169160608101359091169060800135612a96565b61051e60048036036080811015610f7e57600080fd5b810190602081018135600160201b811115610f9857600080fd5b820183602082011115610faa57600080fd5b803590602001918460208302840111600160201b83111715610fcb57600080fd5b9190808060200260200160405190810160405280939291908181526020018383602002808284376000920191909152509295949360208101935035915050600160201b81111561101a57600080fd5b82018360208201111561102c57600080fd5b803590602001918460208302840111600160201b8311171561104d57600080fd5b919080806020026020016040519081016040528093929190818152602001838360200280828437600092019190915250929550505050803515159150602001351515612c9d565b6104b8600480360360208110156110aa57600080fd5b503561303e565b6104b8600480360360608110156110c757600080fd5b506001600160a01b038135811691602081013590911690604001356130a7565b61056a600480360360408110156110fd57600080fd5b506001600160a01b038135169060200135613502565b61056a613537565b61051e613546565b610dc56004803603602081101561113957600080fd5b50356001600160a01b0316613776565b6104b86004803603604081101561115f57600080fd5b506001600160a01b0381351690602001356137a0565b6104b8613950565b6104b86004803603606081101561119357600080fd5b506001600160a01b03813581169160208101359091169060400135613956565b6104b8600480360360208110156111c957600080fd5b50356001600160a01b03166139e6565b61056a613ca2565b6104b8613cb1565b6104b8600480360360408110156111ff57600080fd5b506001600160a01b038135169060200135613cb7565b600181565b601360209081526000928352604080842090915290825290205481565b601d5481565b600f6020526000908152604090205481565b806001600160a01b031663f851a4406040518163ffffffff1660e01b815260040160206040518083038186803b15801561128857600080fd5b505afa15801561129c573d6000803e3d6000fd5b505050506040513d60208110156112b257600080fd5b50516001600160a01b03163314611310576040805162461bcd60e51b815260206004820152601960248201527f6f6e6c7920756e6974726f6c6c65722061646d696e2063616e00000000000000604482015290519081900360640190fd5b806001600160a01b031663c1e803346040518163ffffffff1660e01b8152600401602060405180830381600087803b15801561134b57600080fd5b505af115801561135f573d6000803e3d6000fd5b505050506040513d602081101561137557600080fd5b5051156113ba576040805162461bcd60e51b815260206004820152600e60248201526d1b9bdd08185d5d1a1bdc9a5e995960921b604482015290519081900360640190fd5b50565b5050505050565b601e546001600160a01b031681565b60185460009062010000900460ff1615611429576040805162461bcd60e51b81526020600482015260126024820152711c1c9bdd1bd8dbdb081a5cc81c185d5cd95960721b604482015290519081900360640190fd5b6001600160a01b03851660009081526009602052604090205460ff16611451575060096114e8565b611459615b7e565b6040518060200160405280876001600160a01b031663aa5af0fd6040518163ffffffff1660e01b815260040160206040518083038186803b15801561149d57600080fd5b505afa1580156114b1573d6000803e3d6000fd5b505050506040513d60208110156114c757600080fd5b5051905290506114d78682613da9565b6114e286858361403d565b60009150505b949350505050565b600a546001600160a01b031681565b6001546001600160a01b031681565b601b546001600160a01b03161561152757611527613546565b6015546001600160a01b031615611639576015546040805163d178273b60e01b81526001600160a01b0385811660048301529151600093849384938493919092169163d178273b91602480830192608092919082900301818787803b15801561158f57600080fd5b505af11580156115a3573d6000803e3d6000fd5b505050506040513d60808110156115b957600080fd5b50805160208201516040830151606090930151909650919450909250905080611634576001600160a01b038616600081815260146020908152604091829020879055815186815290810185905281517f2fb3baf25f3d9fc9f9eb9dfd7da8567731a91413437d91bc1b8a839d0a1ba88f929181900390910190a25b505050505b5050565b600080546001600160a01b0316331461168e576040805162461bcd60e51b815260206004820152600e60248201526d37b7363c9030b236b4b71031b0b760911b604482015290519081900360640190fd5b6018805483151562010000810262ff0000199092169190911790915560408051918252517fd7500633dd3ddd74daa7af62f8c8404c7fe4a81da179998db851696bed004b389181900360200190a150805b919050565b60166020526000908152604090205481565b600080546001600160a01b0316331461171c57611715600160146141ed565b90506116df565b6017805490839055604080518281526020810185905281517f73747d68b346dce1e932bcd238282e7ac84c01569e1f8d0469c222fdc6e9d5a4929181900390910190a160005b9392505050565b600080546001600160a01b0316331461178857611715600160046141ed565b611790615b7e565b5060408051602081019091528281526117a7615b7e565b50604080516020810190915266b1a2bc2ec5000081526117c78282614253565b156117e0576117d76005806141ed565b925050506116df565b6117e8615b7e565b506040805160208101909152670c7d713b49da00008152611809818461425b565b15611823576118196005806141ed565b93505050506116df565b6005805490869055604080518281526020810188905281517f3b9670cf975d26958e754b57098eaa2ac914d8d2a31b83257997b9f346110fd9929181900390910190a160005b9695505050505050565b6000546001600160a01b031633146118bc5760405162461bcd60e51b8152600401808060200182810382526026815260200180615c3e6026913960400191505060405180910390fd5b601e80546001600160a01b038381166001600160a01b0319831681179093556040805191909216808252602082019390935281517feda98690e518e9a05f8ec6837663e188211b2da8f4906648b323f2c1d4434e29929181900390910190a15050565b60185460ff1681565b601260209081526000928352604080842090915290825290205481565b50505050565b60185462010000900460ff1681565b435b90565b611634565b601f6020526000908152604090205481565b60065481565b6000546001600160a01b031633146119cc576040805162461bcd60e51b815260206004820152600e60248201526d37b7363c9030b236b4b71031b0b760911b604482015290519081900360640190fd5b601b80546001600160a01b0385166001600160a01b03199091168117909155601c839055601d8290556040805191825260208201849052818101839052517f7059037d74ee16b0fb06a4a30f3348dd2635f301f92e373c92899a25a522ef6e9181900360600190a1505050565b600080600080600080611a4e8a8a8a8a614262565b925092509250826012811115611a6057fe5b95509093509150505b9450945094915050565b60185460009062010000900460ff1615611ac9576040805162461bcd60e51b81526020600482015260126024820152711c1c9bdd1bd8dbdb081a5cc81c185d5cd95960721b604482015290519081900360640190fd5b6001600160a01b0384166000908152600b602052604090205460ff1615611b28576040805162461bcd60e51b815260206004820152600e60248201526d1b5a5b9d081a5cc81c185d5cd95960921b604482015290519081900360640190fd5b6001600160a01b03841660009081526009602052604090205460ff16611b525760095b9050611762565b611b5b846146df565b611b658484614969565b6000949350505050565b600080546001600160a01b03163314611b8e576117156001600b6141ed565b611b96615b7e565b506040805160208101909152828152611bad615b7e565b506040805160208101909152670de0b6b3a76400008152611bce828261425b565b15611bdf576117d76007600c6141ed565b611be7615b7e565b5060408051602081019091526714d1120d7b1600008152611c08818461425b565b15611c19576118196007600c6141ed565b6006805490869055604080518281526020810188905281517faeba5a6c40a8ac138134bff1aaa65debf25971188a58804bad717f82f0ec1316929181900390910190a16000611869565b80151580611c6f575081155b611945576040805162461bcd60e51b815260206004820152601160248201527072656465656d546f6b656e73207a65726f60781b604482015290519081900360640190fd5b600d8181548110611cc157fe5b6000918252602090912001546001600160a01b0316905081565b600080546001600160a01b03163314611cfa57611715600160106141ed565b600480546001600160a01b038481166001600160a01b0319831681179093556040805191909216808252602082019390935281517fd52b2b9b7e9ee655fcb95d2e5b9e0c9f69e7ef2b8e9d2d0ea78402d576d22e22929181900390910190a16000611762565b505050565b600080600080600080611d7c876000806000614262565b925092509250826012811115611d8e57fe5b97919650945092505050565b60185460009062010000900460ff1615611df0576040805162461bcd60e51b81526020600482015260126024820152711c1c9bdd1bd8dbdb081a5cc81c185d5cd95960721b604482015290519081900360640190fd5b6001600160a01b03861660009081526009602052604090205460ff161580611e3157506001600160a01b03851660009081526009602052604090205460ff16155b15611e405760095b9050611f73565b600080611e51856000806000614262565b91935090915060009050826012811115611e6757fe5b14611e8157816012811115611e7857fe5b92505050611f73565b80611e8d576003611e78565b6000886001600160a01b03166395dd9193876040518263ffffffff1660e01b815260040180826001600160a01b03166001600160a01b0316815260200191505060206040518083038186803b158015611ee557600080fd5b505afa158015611ef9573d6000803e3d6000fd5b505050506040513d6020811015611f0f57600080fd5b5051604080516020810190915260055481529091506000908190611f339084614b61565b90925090506000826003811115611f4657fe5b14611f5a57600b5b95505050505050611f73565b80871115611f69576011611f4e565b6000955050505050505b95945050505050565b6000546001600160a01b0316331480611f9f5750601e546001600160a01b031633145b611fda5760405162461bcd60e51b8152600401808060200182810382526035815260200180615c646035913960400191505060405180910390fd5b82818115801590611fea57508082145b61202b576040805162461bcd60e51b815260206004820152600d60248201526c1a5b9d985b1a59081a5b9c1d5d609a1b604482015290519081900360640190fd5b60005b828110156121035784848281811061204257fe5b90506020020135601f600089898581811061205957fe5b905060200201356001600160a01b03166001600160a01b03166001600160a01b031681526020019081526020016000208190555086868281811061209957fe5b905060200201356001600160a01b03166001600160a01b03167f6f1951b2aad10f3fc81b86d91105b413a5b3f847a34bbc5ce1904201b14438f68686848181106120df57fe5b905060200201356040518082815260200191505060405180910390a260010161202e565b50505050505050565b6000546001600160a01b0316331461215c576040805162461bcd60e51b815260206004820152600e60248201526d37b7363c9030b236b4b71031b0b760911b604482015290519081900360640190fd5b601a805490829055604080518281526020810184905281517fe81d4ac15e5afa1e708e66664eddc697177423d950d133bda8262d8885e6da3b929181900390910190a15050565b611945565b601c5481565b601854610100900460ff1681565b601b546001600160a01b031681565b6004546001600160a01b031681565b60408051600180825281830190925260609160208083019080388339019050509050828160008151811061220a57fe5b60200260200101906001600160a01b031690816001600160a01b031681525050611d608183600180612c9d565b600e5481565b60146020526000908152604090205481565b60096020526000908152604090208054600182015460039092015460ff91821692911683565b6015546001600160a01b031681565b6001600160a01b038082166000908152600960209081526040808320938616835260029093019052205460ff165b92915050565b60075481565b600080546001600160a01b031633146122dd57611715600160156141ed565b601580546001600160a01b038481166001600160a01b0319831681179093556040805191909216808252602082019390935281517fe1ddcb2dab8e5b03cfc8c67a0d5861d91d16f7bd2612fd381faf4541d212c9b2929181900390910190a150919050565b61234a614bb5565b61239b576040805162461bcd60e51b815260206004820152601e60248201527f6f6e6c792061646d696e2063616e207365742076656e75732073706565640000604482015290519081900360640190fd5b6116398282614bde565b600080546001600160a01b031633146123c457611715600160126141ed565b6001600160a01b03821660009081526009602052604090205460ff16156123f157611715600a60116141ed565b816001600160a01b0316633d9ea3a16040518163ffffffff1660e01b815260040160206040518083038186803b15801561242a57600080fd5b505afa15801561243e573d6000803e3d6000fd5b505050506040513d602081101561245457600080fd5b5050604080516060810182526001808252600060208381018281528486018381526001600160a01b03891684526009909252949091209251835490151560ff199182161784559351918301919091555160039091018054911515919092161790556124be82614f70565b604080516001600160a01b038416815290517fcf583bb0c569eb967f806b11601c4cb93c10310485c67add5f8362c2f212321f9181900360200190a1600092915050565b6001600160a01b03811660009081526008602090815260409182902080548351818402810184019094528084526060939283018282801561256c57602002820191906000526020600020905b81546001600160a01b0316815260019091019060200180831161254e575b50505050509050919050565b6113ba81600d8054806020026020016040519081016040528092919081815260200182805480156125d257602002820191906000526020600020905b81546001600160a01b031681526001909101906020018083116125b4575b50505050506121da565b6060600d80548060200260200160405190810160405280929190818152602001828054801561263457602002820191906000526020600020905b81546001600160a01b03168152600190910190602001808311612616575b5050505050905090565b6010602052600090815260409020546001600160e01b03811690600160e01b900463ffffffff1682565b6002546001600160a01b031681565b60185460009062010000900460ff16156126cd576040805162461bcd60e51b81526020600482015260126024820152711c1c9bdd1bd8dbdb081a5cc81c185d5cd95960721b604482015290519081900360640190fd5b600a54600160b01b900460ff1615612721576040805162461bcd60e51b81526020600482015260126024820152711d1c985b9cd9995c881a5cc81c185d5cd95960721b604482015290519081900360640190fd5b600061272e86868561504e565b9050801561273d5790506114e8565b612746866146df565b6127508686614969565b6114e28685614969565b60175481565b73cf6bb5389c92bdda8a3747ddb454cb7a64626c6390565b604080518281526020808402820101909152606090829082908280156127a8578160200160208202803883390190505b50905060005b82811015612805576127db8686838181106127c557fe5b905060200201356001600160a01b0316336150fa565b60128111156127e657fe5b8282815181106127f257fe5b60209081029190910101526001016127ae565b50949350505050565b600480546040805163fc57d4df60e01b81526001600160a01b038781169482019490945290516000938493849391169163fc57d4df91602480820192602092909190829003018186803b15801561286457600080fd5b505afa158015612878573d6000803e3d6000fd5b505050506040513d602081101561288e57600080fd5b5051600480546040805163fc57d4df60e01b81526001600160a01b038a8116948201949094529051939450600093929091169163fc57d4df91602480820192602092909190829003018186803b1580156128e757600080fd5b505afa1580156128fb573d6000803e3d6000fd5b505050506040513d602081101561291157600080fd5b50519050811580612920575080155b1561293557600d935060009250612a7b915050565b6000866001600160a01b031663182df0f56040518163ffffffff1660e01b815260040160206040518083038186803b15801561297057600080fd5b505afa158015612984573d6000803e3d6000fd5b505050506040513d602081101561299a57600080fd5b5051905060006129a8615b7e565b6129b0615b7e565b6129b8615b7e565b60006129c660065489615216565b9450905060008160038111156129d857fe5b146129f457600b5b995060009850612a7b975050505050505050565b6129fe8787615216565b935090506000816003811115612a1057fe5b14612a1c57600b6129e0565b612a268484615251565b925090506000816003811115612a3857fe5b14612a4457600b6129e0565b612a4e828c614b61565b955090506000816003811115612a6057fe5b14612a6c57600b6129e0565b60009950939750505050505050505b935093915050565b6ec097ce7bc90715b34b9f100000000081565b60185460009062010000900460ff1615612aec576040805162461bcd60e51b81526020600482015260126024820152711c1c9bdd1bd8dbdb081a5cc81c185d5cd95960721b604482015290519081900360640190fd5b600a54600160b81b900460ff1615612b3d576040805162461bcd60e51b815260206004820152600f60248201526e1cd95a5e99481a5cc81c185d5cd959608a1b604482015290519081900360640190fd5b6001600160a01b03861660009081526009602052604090205460ff161580612b7e57506001600160a01b03851660009081526009602052604090205460ff16155b15612b8a576009611e39565b846001600160a01b0316635fe3b5676040518163ffffffff1660e01b815260040160206040518083038186803b158015612bc357600080fd5b505afa158015612bd7573d6000803e3d6000fd5b505050506040513d6020811015612bed57600080fd5b505160408051635fe3b56760e01b815290516001600160a01b0392831692891691635fe3b567916004808301926020929190829003018186803b158015612c3357600080fd5b505afa158015612c47573d6000803e3d6000fd5b505050506040513d6020811015612c5d57600080fd5b50516001600160a01b031614612c74576002611e39565b612c7d866146df565b612c878684614969565b612c918685614969565b60009695505050505050565b6015546000906001600160a01b031615612d2e57601560009054906101000a90046001600160a01b03166001600160a01b031663d244b0816040518163ffffffff1660e01b8152600401602060405180830381600087803b158015612d0157600080fd5b505af1158015612d15573d6000803e3d6000fd5b505050506040513d6020811015612d2b57600080fd5b50505b5060005b8451811015612dea57612d59858281518110612d4a57fe5b6020026020010151600161150e565b612dae858281518110612d6857fe5b602002602001015160146000888581518110612d8057fe5b60200260200101516001600160a01b03166001600160a01b0316815260200190815260200160002054615269565b60146000878481518110612dbe57fe5b6020908102919091018101516001600160a01b0316825281019190915260400160002055600101612d32565b60005b8451811015611634576000858281518110612e0457fe5b6020908102919091018101516001600160a01b0381166000908152600990925260409091205490915060ff16612e75576040805162461bcd60e51b81526020600482015260116024820152701b9bdd081b1a5cdd1959081b585c9ad95d607a1b604482015290519081900360640190fd5b8415612f9557612e83615b7e565b6040518060200160405280836001600160a01b031663aa5af0fd6040518163ffffffff1660e01b815260040160206040518083038186803b158015612ec757600080fd5b505afa158015612edb573d6000803e3d6000fd5b505050506040513d6020811015612ef157600080fd5b505190529050612f018282613da9565b600093505b8751841015612f9357612f2d82898681518110612f1f57fe5b60200260200101518361403d565b612f54888581518110612f3c57fe5b6020026020010151601460008b8881518110612d8057fe5b601460008a8781518110612f6457fe5b6020908102919091018101516001600160a01b0316825281019190915260400160002055600190930192612f06565b505b831561303557612fa4816146df565b600092505b865183101561303557612fcf81888581518110612fc257fe5b6020026020010151614969565b612ff6878481518110612fde57fe5b6020026020010151601460008a8781518110612d8057fe5b6014600089868151811061300657fe5b6020908102919091018101516001600160a01b0316825281019190915260400160002055600190920191612fa9565b50600101612ded565b600080546001600160a01b0316331461305d576117156001600d6141ed565b6007805490839055604080518281526020810185905281517f7093cf1eb653f749c3ff531d6df7f92764536a7fa0d13530cd26e070780c32ea929181900390910190a16000611762565b60185460009062010000900460ff16156130fd576040805162461bcd60e51b81526020600482015260126024820152711c1c9bdd1bd8dbdb081a5cc81c185d5cd95960721b604482015290519081900360640190fd5b6001600160a01b0384166000908152600c602052604090205460ff161561315e576040805162461bcd60e51b815260206004820152601060248201526f189bdc9c9bddc81a5cc81c185d5cd95960821b604482015290519081900360640190fd5b6001600160a01b03841660009081526009602052604090205460ff16613185576009611b4b565b6001600160a01b038085166000908152600960209081526040808320938716835260029093019052205460ff1661324257336001600160a01b0385161461320b576040805162461bcd60e51b815260206004820152601560248201527439b2b73232b91036bab9ba103132903b2a37b5b2b760591b604482015290519081900360640190fd5b600061321785856150fa565b9050600081601281111561322757fe5b146132405780601281111561323857fe5b915050611762565b505b600480546040805163fc57d4df60e01b81526001600160a01b03888116948201949094529051929091169163fc57d4df91602480820192602092909190829003018186803b15801561329357600080fd5b505afa1580156132a7573d6000803e3d6000fd5b505050506040513d60208110156132bd57600080fd5b50516132ca57600d611b4b565b6001600160a01b0384166000908152601f60205260409020548015613415576000856001600160a01b03166347bd37186040518163ffffffff1660e01b815260040160206040518083038186803b15801561332457600080fd5b505afa158015613338573d6000803e3d6000fd5b505050506040513d602081101561334e57600080fd5b5051905060008061335f83876153a3565b9092509050600082600381111561337257fe5b146133bd576040805162461bcd60e51b8152602060048201526016602482015275746f74616c20626f72726f7773206f766572666c6f7760501b604482015290519081900360640190fd5b838110613411576040805162461bcd60e51b815260206004820152601960248201527f6d61726b657420626f72726f7720636170207265616368656400000000000000604482015290519081900360640190fd5b5050505b6000806134258688600088614262565b9193509091506000905082601281111561343b57fe5b146134565781601281111561344c57fe5b9350505050611762565b801561346357600461344c565b61346b615b7e565b6040518060200160405280896001600160a01b031663aa5af0fd6040518163ffffffff1660e01b815260040160206040518083038186803b1580156134af57600080fd5b505afa1580156134c3573d6000803e3d6000fd5b505050506040513d60208110156134d957600080fd5b5051905290506134e98882613da9565b6134f488888361403d565b600098975050505050505050565b6008602052816000526040600020818154811061351b57fe5b6000918252602090912001546001600160a01b03169150829050565b6003546001600160a01b031681565b601c54158061355d5750601c5461355b61195a565b105b1561356757613774565b6000613571612760565b604080516370a0823160e01b815230600482015290519192506000916001600160a01b038416916370a08231916024808301926020929190829003018186803b1580156135bd57600080fd5b505afa1580156135d1573d6000803e3d6000fd5b505050506040513d60208110156135e757600080fd5b50519050806135f7575050613774565b60008061360d61360561195a565b601c546153c9565b9050600061361d601a5483615403565b9050601d54811015613633575050505050613774565b80841061364257809250613646565b8392505b61364e61195a565b601c55601b546040805163a9059cbb60e01b81526001600160a01b0392831660048201526024810186905290519187169163a9059cbb916044808201926020929091908290030181600087803b1580156136a757600080fd5b505af11580156136bb573d6000803e3d6000fd5b505050506040513d60208110156136d157600080fd5b50506040805184815290517ff6d4b8f74d85a6e2d7a50225957b8a6cfec69ad92f5905627260541aa0a5565d9181900360200190a1601b60009054906101000a90046001600160a01b03166001600160a01b031663faa1809e6040518163ffffffff1660e01b8152600401600060405180830381600087803b15801561375657600080fd5b505af115801561376a573d6000803e3d6000fd5b5050505050505050505b565b6011602052600090815260409020546001600160e01b03811690600160e01b900463ffffffff1682565b600080546001600160a01b031633146137c6576137bf600160066141ed565b90506122b2565b6001600160a01b0383166000908152600960205260409020805460ff166137fb576137f3600960076141ed565b9150506122b2565b613803615b7e565b50604080516020810190915283815261381a615b7e565b506040805160208101909152670c7d713b49da0000815261383b818361425b565b156138565761384c600660086141ed565b93505050506122b2565b84158015906138df5750600480546040805163fc57d4df60e01b81526001600160a01b038a8116948201949094529051929091169163fc57d4df91602480820192602092909190829003018186803b1580156138b157600080fd5b505afa1580156138c5573d6000803e3d6000fd5b505050506040513d60208110156138db57600080fd5b5051155b156138f05761384c600d60096141ed565b60018301805490869055604080516001600160a01b03891681526020810183905280820188905290517f70483e6592cd5182d45ac970e05bc62cdcc90e9d8ef2c2dbe686cf383bcd7fc59181900360600190a16000979650505050505050565b60055481565b60185460009062010000900460ff16156139ac576040805162461bcd60e51b81526020600482015260126024820152711c1c9bdd1bd8dbdb081a5cc81c185d5cd95960721b604482015290519081900360640190fd5b60006139b985858561504e565b905080156139c8579050611762565b6139d1856146df565b6139db8585614969565b600095945050505050565b6000808290506000806000836001600160a01b031663c37f68e2336040518263ffffffff1660e01b815260040180826001600160a01b03166001600160a01b0316815260200191505060806040518083038186803b158015613a4757600080fd5b505afa158015613a5b573d6000803e3d6000fd5b505050506040513d6080811015613a7157600080fd5b508051602082015160409092015190945090925090508215613ada576040805162461bcd60e51b815260206004820152601960248201527f6765744163636f756e74536e617073686f74206661696c656400000000000000604482015290519081900360640190fd5b8015613af757613aec600c60026141ed565b9450505050506116df565b6000613b0487338561504e565b90508015613b2557613b19600e600383615445565b955050505050506116df565b6001600160a01b0385166000908152600960209081526040808320338452600281019092529091205460ff16613b6457600096505050505050506116df565b3360009081526002820160209081526040808320805460ff1916905560089091528120805490915b81811015613c4557886001600160a01b0316838281548110613baa57fe5b6000918252602090912001546001600160a01b03161415613c3d57826001830381548110613bd457fe5b9060005260206000200160009054906101000a90046001600160a01b0316838281548110613bfe57fe5b600091825260209091200180546001600160a01b0319166001600160a01b03929092169190911790558254613c37846000198301615b91565b50613c45565b600101613b8c565b818110613c4e57fe5b604080516001600160a01b038b16815233602082015281517fe699a64c18b07ac5b7301aa273f36a2287239eb9501d81950672794afba29a0d929181900390910190a160009b9a5050505050505050505050565b6000546001600160a01b031681565b601a5481565b60185460009062010000900460ff1615613d0d576040805162461bcd60e51b81526020600482015260126024820152711c1c9bdd1bd8dbdb081a5cc81c185d5cd95960721b604482015290519081900360640190fd5b60185460ff16158015613d285750601854610100900460ff16155b613d69576040805162461bcd60e51b815260206004820152600d60248201526c159052481a5cc81c185d5cd959609a1b604482015290519081900360640190fd5b6015546001600160a01b03163314613d87576137bf600e60166141ed565b6001600160a01b03831660009081526016602052604081208390559392505050565b6001600160a01b0382166000908152601160209081526040808320600f9092528220549091613dd661195a565b8354909150600090613df6908390600160e01b900463ffffffff166153c9565b9050600081118015613e085750600083115b15613fd8576000613e7d876001600160a01b03166347bd37186040518163ffffffff1660e01b815260040160206040518083038186803b158015613e4b57600080fd5b505afa158015613e5f573d6000803e3d6000fd5b505050506040513d6020811015613e7557600080fd5b5051876154ab565b90506000613e8b8386615403565b9050613e95615b7e565b60008311613eb25760405180602001604052806000815250613ebc565b613ebc82846154c9565b9050613ec6615b7e565b604080516020810190915288546001600160e01b03168152613ee89083615507565b90506040518060400160405280613f2e8360000151604051806040016040528060138152602001726e657720696e646578206f766572666c6f777360681b81525061552c565b6001600160e01b03168152602001613f748860405180604001604052806016815260200175626c6f636b206e756d626572206f766572666c6f777360501b8152506155c6565b63ffffffff9081169091526001600160a01b038c166000908152601160209081526040909120835181549490920151909216600160e01b026001600160e01b039182166001600160e01b031990941693909317169190911790555061163492505050565b8015611634576140168260405180604001604052806016815260200175626c6f636b206e756d626572206f766572666c6f777360501b8152506155c6565b845463ffffffff91909116600160e01b026001600160e01b03909116178455505050505050565b601b546001600160a01b03161561405657614056613546565b6001600160a01b0383166000908152601160205260409020614076615b7e565b50604080516020810190915281546001600160e01b03168152614097615b7e565b5060408051602080820183526001600160a01b0380891660009081526013835284812091891680825282845294812080548552865195909152915291909155805115611634576140e5615b7e565b6140ef838361561b565b9050600061414c886001600160a01b03166395dd9193896040518263ffffffff1660e01b815260040180826001600160a01b03166001600160a01b0316815260200191505060206040518083038186803b158015613e4b57600080fd5b9050600061415a8284615640565b6001600160a01b03891660009081526014602052604081205491925090614181908361566f565b6001600160a01b03808b166000818152601460209081526040918290208590558a5182518881529182015281519495509193928e16927f837bdc11fca9f17ce44167944475225a205279b17e88c791c3b1f66f354668fb9281900390910190a350505050505050505050565b60007f45b96fe442630264581b197e84bbada861235052c5a1aadfff9ea4e40a969aa083601281111561421c57fe5b83601781111561422857fe5b604080519283526020830191909152600082820152519081900360600190a182601281111561176257fe5b519051111590565b5190511090565b600080600061426f615bb5565b6001600160a01b0388166000908152600860209081526040808320805482518185028101850190935280835284936060939291908301828280156142dc57602002820191906000526020600020905b81546001600160a01b031681526001909101906020018083116142be575b50939450600093505050505b81518110156146385760008282815181106142ff57fe5b60200260200101519050806001600160a01b031663c37f68e28e6040518263ffffffff1660e01b815260040180826001600160a01b03166001600160a01b0316815260200191505060806040518083038186803b15801561435f57600080fd5b505afa158015614373573d6000803e3d6000fd5b505050506040513d608081101561438957600080fd5b508051602082015160408084015160609485015160808c0152938a019390935291880191909152945084156143cf5750600f975060009650869550611a69945050505050565b60408051602080820183526001600160a01b0380851660008181526009845285902060010154845260c08b01939093528351808301855260808b0151815260e08b015260048054855163fc57d4df60e01b815291820194909452935192169263fc57d4df9260248083019392829003018186803b15801561444f57600080fd5b505afa158015614463573d6000803e3d6000fd5b505050506040513d602081101561447957600080fd5b505160a0870181905261449d5750600d975060009650869550611a69945050505050565b604080516020810190915260a08701518152610100870181905260c087015160e08801516144ca926156a5565b610120880152935060008460038111156144e057fe5b146144fc5750600b975060009650869550611a69945050505050565b614514866101200151876040015188600001516156fd565b87529350600084600381111561452657fe5b146145425750600b975060009650869550611a69945050505050565b61455a866101000151876060015188602001516156fd565b60208801529350600084600381111561456f57fe5b1461458b5750600b975060009650869550611a69945050505050565b8b6001600160a01b0316816001600160a01b0316141561462f576145b98661012001518c88602001516156fd565b6020880152935060008460038111156145ce57fe5b146145ea5750600b975060009650869550611a69945050505050565b6145fe8661010001518b88602001516156fd565b60208801529350600084600381111561461357fe5b1461462f5750600b975060009650869550611a69945050505050565b506001016142e8565b5061466c8460200151601660008e6001600160a01b03166001600160a01b03168152602001908152602001600020546153a3565b60208601529150600082600381111561468157fe5b1461469b5750600b955060009450849350611a6992505050565b6020840151845111156146c1575050506020810151905160009450039150829050611a69565b5050815160209092015160009550859450919091039150611a699050565b6001600160a01b0381166000908152601060209081526040808320600f909252822054909161470c61195a565b835490915060009061472c908390600160e01b900463ffffffff166153c9565b905060008111801561473e5750600083115b15614905576000856001600160a01b03166318160ddd6040518163ffffffff1660e01b815260040160206040518083038186803b15801561477e57600080fd5b505afa158015614792573d6000803e3d6000fd5b505050506040513d60208110156147a857600080fd5b5051905060006147b88386615403565b90506147c2615b7e565b600083116147df57604051806020016040528060008152506147e9565b6147e982846154c9565b90506147f3615b7e565b604080516020810190915288546001600160e01b031681526148159083615507565b9050604051806040016040528061485b8360000151604051806040016040528060138152602001726e657720696e646578206f766572666c6f777360681b81525061552c565b6001600160e01b031681526020016148a18860405180604001604052806016815260200175626c6f636b206e756d626572206f766572666c6f777360501b8152506155c6565b63ffffffff9081169091526001600160a01b038b166000908152601060209081526040909120835181549490920151909216600160e01b026001600160e01b039182166001600160e01b03199094169390931716919091179055506113bd92505050565b80156113bd576149438260405180604001604052806016815260200175626c6f636b206e756d626572206f766572666c6f777360501b8152506155c6565b845463ffffffff91909116600160e01b026001600160e01b039091161784555050505050565b601b546001600160a01b03161561498257614982613546565b6001600160a01b03821660009081526010602052604090206149a2615b7e565b50604080516020810190915281546001600160e01b031681526149c3615b7e565b5060408051602080820183526001600160a01b03808816600090815260128352848120918816808252828452948120805485528651959091529152919091558051158015614a115750815115155b15614a29576ec097ce7bc90715b34b9f100000000081525b614a31615b7e565b614a3b838361561b565b90506000866001600160a01b03166370a08231876040518263ffffffff1660e01b815260040180826001600160a01b03166001600160a01b0316815260200191505060206040518083038186803b158015614a9557600080fd5b505afa158015614aa9573d6000803e3d6000fd5b505050506040513d6020811015614abf57600080fd5b505190506000614acf8284615640565b6001600160a01b03881660009081526014602052604081205491925090614af6908361566f565b6001600160a01b03808a166000818152601460209081526040918290208590558a5182518881529182015281519495509193928d16927ffa9d964d891991c113b49e3db1932abd6c67263d387119707aafdd6c4010a3a99281900390910190a3505050505050505050565b6000806000614b6e615b7e565b614b78868661574a565b90925090506000826003811115614b8b57fe5b14614b9c5750915060009050614bae565b6000614ba7826157b2565b9350935050505b9250929050565b600080546001600160a01b0316331480614bd957506002546001600160a01b031633145b905090565b6001600160a01b0382166000908152600f60205260409020548015614c9257614c05615b7e565b6040518060200160405280856001600160a01b031663aa5af0fd6040518163ffffffff1660e01b815260040160206040518083038186803b158015614c4957600080fd5b505afa158015614c5d573d6000803e3d6000fd5b505050506040513d6020811015614c7357600080fd5b505190529050614c82846146df565b614c8c8482613da9565b50614f14565b8115614f14576001600160a01b0383166000908152600960205260409020805460ff161515600114614d0b576040805162461bcd60e51b815260206004820152601a60248201527f76656e7573206d61726b6574206973206e6f74206c6973746564000000000000604482015290519081900360640190fd5b6001600160a01b0384166000908152601060205260409020546001600160e01b0316158015614d5d57506001600160a01b038416600090815260106020526040902054600160e01b900463ffffffff16155b15614e2c5760405180604001604052806ec097ce7bc90715b34b9f10000000006001600160e01b03168152602001614dd1614d9661195a565b6040518060400160405280601c81526020017f626c6f636b206e756d62657220657863656564732033322062697473000000008152506155c6565b63ffffffff9081169091526001600160a01b0386166000908152601060209081526040909120835181549490920151909216600160e01b026001600160e01b039182166001600160e01b031990941693909317169190911790555b6001600160a01b0384166000908152601160205260409020546001600160e01b0316158015614e7e57506001600160a01b038416600090815260116020526040902054600160e01b900463ffffffff16155b15614f125760405180604001604052806ec097ce7bc90715b34b9f10000000006001600160e01b03168152602001614eb7614d9661195a565b63ffffffff9081169091526001600160a01b0386166000908152601160209081526040909120835181549490920151909216600160e01b026001600160e01b039182166001600160e01b031990941693909317169190911790555b505b818114611d60576001600160a01b0383166000818152600f6020908152604091829020859055815185815291517f2a0ce45ba05a83e75ba21e1a10d6b48a8395028cc6e1ae66f6c313648379d5489281900390910190a2505050565b60005b600d54811015614ffb57816001600160a01b0316600d8281548110614f9457fe5b6000918252602090912001546001600160a01b03161415614ff3576040805162461bcd60e51b81526020600482015260146024820152731b585c9ad95d08185b1c9958591e48185919195960621b604482015290519081900360640190fd5b600101614f73565b50600d80546001810182556000919091527fd7b6990105719101dabeb77144f2a3385c8033acd3af97e9423a695e81ad1eb50180546001600160a01b0319166001600160a01b0392909216919091179055565b6001600160a01b03831660009081526009602052604081205460ff16615075576009611b4b565b6001600160a01b038085166000908152600960209081526040808320938716835260029093019052205460ff166150ad576000611b4b565b6000806150bd8587866000614262565b919350909150600090508260128111156150d357fe5b146150ed578160128111156150e457fe5b92505050611762565b8015612c915760046150e4565b6001600160a01b0382166000908152600960205260408120805460ff166151255760099150506122b2565b6001600160a01b038316600090815260028201602052604090205460ff16156151525760009150506122b2565b6007546001600160a01b0384166000908152600860205260409020541061517d5760109150506122b2565b6001600160a01b0380841660008181526002840160209081526040808320805460ff19166001908117909155600883528184208054918201815584529282902090920180549489166001600160a01b031990951685179055815193845283019190915280517f3ab23ab0d51cccc0c3085aec51f99228625aa1a922b3a8ca89a26b0f2027a1a59281900390910190a15060009392505050565b6000615220615b7e565b6152466040518060200160405280868152506040518060200160405280868152506157c1565b915091509250929050565b600061525b615b7e565b8351835161524691906158aa565b600080615274612760565b604080516370a0823160e01b815230600482015290519192506000916001600160a01b038416916370a08231916024808301926020929190829003018186803b1580156152c057600080fd5b505afa1580156152d4573d6000803e3d6000fd5b505050506040513d60208110156152ea57600080fd5b5051905083158015906152fd5750808411155b1561539a57816001600160a01b031663a9059cbb86866040518363ffffffff1660e01b815260040180836001600160a01b03166001600160a01b0316815260200182815260200192505050602060405180830381600087803b15801561536257600080fd5b505af1158015615376573d6000803e3d6000fd5b505050506040513d602081101561538c57600080fd5b50600093506122b292505050565b50919392505050565b6000808383018481106153bb57600092509050614bae565b506002915060009050614bae565b60006117628383604051806040016040528060158152602001747375627472616374696f6e20756e646572666c6f7760581b81525061595a565b600061176283836040518060400160405280601781526020017f6d756c7469706c69636174696f6e206f766572666c6f770000000000000000008152506159b4565b60007f45b96fe442630264581b197e84bbada861235052c5a1aadfff9ea4e40a969aa084601281111561547457fe5b84601781111561548057fe5b604080519283526020830191909152818101859052519081900360600190a18360128111156114e857fe5b60006117626154c284670de0b6b3a7640000615403565b8351615a2a565b6154d1615b7e565b60405180602001604052806154fe6154f8866ec097ce7bc90715b34b9f1000000000615403565b85615a2a565b90529392505050565b61550f615b7e565b60405180602001604052806154fe8560000151856000015161566f565b600081600160e01b84106155be5760405162461bcd60e51b81526004018080602001828103825283818151815260200191508051906020019080838360005b8381101561558357818101518382015260200161556b565b50505050905090810190601f1680156155b05780820380516001836020036101000a031916815260200191505b509250505060405180910390fd5b509192915050565b600081600160201b84106155be5760405162461bcd60e51b815260206004820181815283516024840152835190928392604490910191908501908083836000831561558357818101518382015260200161556b565b615623615b7e565b60405180602001604052806154fe856000015185600001516153c9565b60006ec097ce7bc90715b34b9f1000000000615660848460000151615403565b8161566757fe5b049392505050565b60006117628383604051806040016040528060118152602001706164646974696f6e206f766572666c6f7760781b815250615a5d565b60006156af615b7e565b60006156b9615b7e565b6156c387876157c1565b909250905060008260038111156156d657fe5b146156e5579092509050612a7b565b6156ef81866157c1565b935093505050935093915050565b600080600061570a615b7e565b615714878761574a565b9092509050600082600381111561572757fe5b146157385750915060009050612a7b565b6156ef615744826157b2565b866153a3565b6000615754615b7e565b600080615765866000015186615ab2565b9092509050600082600381111561577857fe5b1461579757506040805160208101909152600081529092509050614bae565b60408051602081019091529081526000969095509350505050565b51670de0b6b3a7640000900490565b60006157cb615b7e565b6000806157e086600001518660000151615ab2565b909250905060008260038111156157f357fe5b1461581257506040805160208101909152600081529092509050614bae565b6000806158276706f05b59d3b20000846153a3565b9092509050600082600381111561583a57fe5b1461585c57506040805160208101909152600081529094509250614bae915050565b60008061587183670de0b6b3a7640000615af1565b9092509050600082600381111561588457fe5b1461588b57fe5b604080516020810190915290815260009a909950975050505050505050565b60006158b4615b7e565b6000806158c986670de0b6b3a7640000615ab2565b909250905060008260038111156158dc57fe5b146158fb57506040805160208101909152600081529092509050614bae565b6000806159088388615af1565b9092509050600082600381111561591b57fe5b1461593d57506040805160208101909152600081529094509250614bae915050565b604080516020810190915290815260009890975095505050505050565b600081848411156159ac5760405162461bcd60e51b815260206004820181815283516024840152835190928392604490910191908501908083836000831561558357818101518382015260200161556b565b505050900390565b60008315806159c1575082155b156159ce57506000611762565b838302838582816159db57fe5b041483906128055760405162461bcd60e51b815260206004820181815283516024840152835190928392604490910191908501908083836000831561558357818101518382015260200161556b565b600061176283836040518060400160405280600e81526020016d646976696465206279207a65726f60901b815250615b1c565b600083830182858210156128055760405162461bcd60e51b815260206004820181815283516024840152835190928392604490910191908501908083836000831561558357818101518382015260200161556b565b60008083615ac557506000905080614bae565b83830283858281615ad257fe5b0414615ae657506002915060009050614bae565b600092509050614bae565b60008082615b055750600190506000614bae565b6000838581615b1057fe5b04915091509250929050565b60008183615b6b5760405162461bcd60e51b815260206004820181815283516024840152835190928392604490910191908501908083836000831561558357818101518382015260200161556b565b50828481615b7557fe5b04949350505050565b6040518060200160405280600081525090565b815481835581811115611d6057600083815260209020611d60918101908301615c1f565b604051806101400160405280600081526020016000815260200160008152602001600081526020016000815260200160008152602001615bf3615b7e565b8152602001615c00615b7e565b8152602001615c0d615b7e565b8152602001615c1a615b7e565b905290565b61195c91905b80821115615c395760008155600101615c25565b509056fe6f6e6c792061646d696e2063616e2073657420626f72726f772063617020677561726469616e6f6e6c792061646d696e206f7220626f72726f772063617020677561726469616e2063616e2073657420626f72726f772063617073a265627a7a72315820b5086bdf9c93da6a3d27e5282363d48315bf674a81af16bc57469a7865d2b67864736f6c63430005100032",
  "linkReferences": {},
  "deployedLinkReferences": {}
}