{
  "_format": "hh-sol-artifact-1",
  "contractName": "ComptrollerScenario",
  "sourceName": "contracts/test/ComptrollerScenario.sol",
  "abi": [
    {
      "inputs": [],
      "payable": false,
      "stateMutability": "nonpayable",
      "type": "constructor"
    },
    {
      "anonymous": false,
      "inputs": [
        {
          "indexed": false,
          "internalType": "string",
          "name": "action",
          "type": "string"
        },
        {
          "indexed": false,
          "internalType": "bool",
          "name": "pauseState",
          "type": "bool"
        }
      ],
      "name": "ActionPaused",
      "type": "event"
    },
    {
      "anonymous": false,
      "inputs": [
        {
          "indexed": false,
          "internalType": "contract VToken",
          "name": "vToken",
          "type": "address"
        },
        {
          "indexed": false,
          "internalType": "enum ComptrollerV9Storage.Action",
          "name": "action",
          "type": "uint8"
        },
        {
          "indexed": false,
          "internalType": "bool",
          "name": "pauseState",
          "type": "bool"
        }
      ],
      "name": "ActionPausedMarket",
      "type": "event"
    },
    {
      "anonymous": false,
      "inputs": [
        {
          "indexed": false,
          "internalType": "bool",
          "name": "state",
          "type": "bool"
        }
      ],
      "name": "ActionProtocolPaused",
      "type": "event"
    },
    {
      "anonymous": false,
      "inputs": [
        {
          "indexed": true,
          "internalType": "contract VToken",
          "name": "vToken",
          "type": "address"
        },
        {
          "indexed": true,
          "internalType": "address",
          "name": "borrower",
          "type": "address"
        },
        {
          "indexed": false,
          "internalType": "uint256",
          "name": "venusDelta",
          "type": "uint256"
        },
        {
          "indexed": false,
          "internalType": "uint256",
          "name": "venusBorrowIndex",
          "type": "uint256"
        }
      ],
      "name": "DistributedBorrowerVenus",
      "type": "event"
    },
    {
      "anonymous": false,
      "inputs": [
        {
          "indexed": true,
          "internalType": "contract VToken",
          "name": "vToken",
          "type": "address"
        },
        {
          "indexed": true,
          "internalType": "address",
          "name": "supplier",
          "type": "address"
        },
        {
          "indexed": false,
          "internalType": "uint256",
          "name": "venusDelta",
          "type": "uint256"
        },
        {
          "indexed": false,
          "internalType": "uint256",
          "name": "venusSupplyIndex",
          "type": "uint256"
        }
      ],
      "name": "DistributedSupplierVenus",
      "type": "event"
    },
    {
      "anonymous": false,
      "inputs": [
        {
          "indexed": false,
          "internalType": "uint256",
          "name": "amount",
          "type": "uint256"
        }
      ],
      "name": "DistributedVAIVaultVenus",
      "type": "event"
    },
    {
      "anonymous": false,
      "inputs": [
        {
          "indexed": false,
          "internalType": "uint256",
          "name": "error",
          "type": "uint256"
        },
        {
          "indexed": false,
          "internalType": "uint256",
          "name": "info",
          "type": "uint256"
        },
        {
          "indexed": false,
          "internalType": "uint256",
          "name": "detail",
          "type": "uint256"
        }
      ],
      "name": "Failure",
      "type": "event"
    },
    {
      "anonymous": false,
      "inputs": [
        {
          "indexed": false,
          "internalType": "contract VToken",
          "name": "vToken",
          "type": "address"
        },
        {
          "indexed": false,
          "internalType": "address",
          "name": "account",
          "type": "address"
        }
      ],
      "name": "MarketEntered",
      "type": "event"
    },
    {
      "anonymous": false,
      "inputs": [
        {
          "indexed": false,
          "internalType": "contract VToken",
          "name": "vToken",
          "type": "address"
        },
        {
          "indexed": false,
          "internalType": "address",
          "name": "account",
          "type": "address"
        }
      ],
      "name": "MarketExited",
      "type": "event"
    },
    {
      "anonymous": false,
      "inputs": [
        {
          "indexed": false,
          "internalType": "contract VToken",
          "name": "vToken",
          "type": "address"
        }
      ],
      "name": "MarketListed",
      "type": "event"
    },
    {
      "anonymous": false,
      "inputs": [
        {
          "indexed": false,
          "internalType": "address",
          "name": "oldAccessControlAddress",
          "type": "address"
        },
        {
          "indexed": false,
          "internalType": "address",
          "name": "newAccessControlAddress",
          "type": "address"
        }
      ],
      "name": "NewAccessControl",
      "type": "event"
    },
    {
      "anonymous": false,
      "inputs": [
        {
          "indexed": true,
          "internalType": "contract VToken",
          "name": "vToken",
          "type": "address"
        },
        {
          "indexed": false,
          "internalType": "uint256",
          "name": "newBorrowCap",
          "type": "uint256"
        }
      ],
      "name": "NewBorrowCap",
      "type": "event"
    },
    {
      "anonymous": false,
      "inputs": [
        {
          "indexed": false,
          "internalType": "uint256",
          "name": "oldCloseFactorMantissa",
          "type": "uint256"
        },
        {
          "indexed": false,
          "internalType": "uint256",
          "name": "newCloseFactorMantissa",
          "type": "uint256"
        }
      ],
      "name": "NewCloseFactor",
      "type": "event"
    },
    {
      "anonymous": false,
      "inputs": [
        {
          "indexed": false,
          "internalType": "contract VToken",
          "name": "vToken",
          "type": "address"
        },
        {
          "indexed": false,
          "internalType": "uint256",
          "name": "oldCollateralFactorMantissa",
          "type": "uint256"
        },
        {
          "indexed": false,
          "internalType": "uint256",
          "name": "newCollateralFactorMantissa",
          "type": "uint256"
        }
      ],
      "name": "NewCollateralFactor",
      "type": "event"
    },
    {
      "anonymous": false,
      "inputs": [
        {
          "indexed": false,
          "internalType": "address",
          "name": "oldComptrollerLens",
          "type": "address"
        },
        {
          "indexed": false,
          "internalType": "address",
          "name": "newComptrollerLens",
          "type": "address"
        }
      ],
      "name": "NewComptrollerLens",
      "type": "event"
    },
    {
      "anonymous": false,
      "inputs": [
        {
          "indexed": false,
          "internalType": "uint256",
          "name": "oldLiquidationIncentiveMantissa",
          "type": "uint256"
        },
        {
          "indexed": false,
          "internalType": "uint256",
          "name": "newLiquidationIncentiveMantissa",
          "type": "uint256"
        }
      ],
      "name": "NewLiquidationIncentive",
      "type": "event"
    },
    {
      "anonymous": false,
      "inputs": [
        {
          "indexed": false,
          "internalType": "address",
          "name": "oldLiquidatorContract",
          "type": "address"
        },
        {
          "indexed": false,
          "internalType": "address",
          "name": "newLiquidatorContract",
          "type": "address"
        }
      ],
      "name": "NewLiquidatorContract",
      "type": "event"
    },
    {
      "anonymous": false,
      "inputs": [
        {
          "indexed": false,
          "internalType": "address",
          "name": "oldPauseGuardian",
          "type": "address"
        },
        {
          "indexed": false,
          "internalType": "address",
          "name": "newPauseGuardian",
          "type": "address"
        }
      ],
      "name": "NewPauseGuardian",
      "type": "event"
    },
    {
      "anonymous": false,
      "inputs": [
        {
          "indexed": false,
          "internalType": "contract PriceOracle",
          "name": "oldPriceOracle",
          "type": "address"
        },
        {
          "indexed": false,
          "internalType": "contract PriceOracle",
          "name": "newPriceOracle",
          "type": "address"
        }
      ],
      "name": "NewPriceOracle",
      "type": "event"
    },
    {
      "anonymous": false,
      "inputs": [
        {
          "indexed": true,
          "internalType": "contract VToken",
          "name": "vToken",
          "type": "address"
        },
        {
          "indexed": false,
          "internalType": "uint256",
          "name": "newSupplyCap",
          "type": "uint256"
        }
      ],
      "name": "NewSupplyCap",
      "type": "event"
    },
    {
      "anonymous": false,
      "inputs": [
        {
          "indexed": false,
          "internalType": "address",
          "name": "oldTreasuryAddress",
          "type": "address"
        },
        {
          "indexed": false,
          "internalType": "address",
          "name": "newTreasuryAddress",
          "type": "address"
        }
      ],
      "name": "NewTreasuryAddress",
      "type": "event"
    },
    {
      "anonymous": false,
      "inputs": [
        {
          "indexed": false,
          "internalType": "address",
          "name": "oldTreasuryGuardian",
          "type": "address"
        },
        {
          "indexed": false,
          "internalType": "address",
          "name": "newTreasuryGuardian",
          "type": "address"
        }
      ],
      "name": "NewTreasuryGuardian",
      "type": "event"
    },
    {
      "anonymous": false,
      "inputs": [
        {
          "indexed": false,
          "internalType": "uint256",
          "name": "oldTreasuryPercent",
          "type": "uint256"
        },
        {
          "indexed": false,
          "internalType": "uint256",
          "name": "newTreasuryPercent",
          "type": "uint256"
        }
      ],
      "name": "NewTreasuryPercent",
      "type": "event"
    },
    {
      "anonymous": false,
      "inputs": [
        {
          "indexed": false,
          "internalType": "contract VAIControllerInterface",
          "name": "oldVAIController",
          "type": "address"
        },
        {
          "indexed": false,
          "internalType": "contract VAIControllerInterface",
          "name": "newVAIController",
          "type": "address"
        }
      ],
      "name": "NewVAIController",
      "type": "event"
    },
    {
      "anonymous": false,
      "inputs": [
        {
          "indexed": false,
          "internalType": "uint256",
          "name": "oldVAIMintRate",
          "type": "uint256"
        },
        {
          "indexed": false,
          "internalType": "uint256",
          "name": "newVAIMintRate",
          "type": "uint256"
        }
      ],
      "name": "NewVAIMintRate",
      "type": "event"
    },
    {
      "anonymous": false,
      "inputs": [
        {
          "indexed": false,
          "internalType": "address",
          "name": "vault_",
          "type": "address"
        },
        {
          "indexed": false,
          "internalType": "uint256",
          "name": "releaseStartBlock_",
          "type": "uint256"
        },
        {
          "indexed": false,
          "internalType": "uint256",
          "name": "releaseInterval_",
          "type": "uint256"
        }
      ],
      "name": "NewVAIVaultInfo",
      "type": "event"
    },
    {
      "anonymous": false,
      "inputs": [
        {
          "indexed": false,
          "internalType": "uint256",
          "name": "oldVenusVAIVaultRate",
          "type": "uint256"
        },
        {
          "indexed": false,
          "internalType": "uint256",
          "name": "newVenusVAIVaultRate",
          "type": "uint256"
        }
      ],
      "name": "NewVenusVAIVaultRate",
      "type": "event"
    },
    {
      "anonymous": false,
      "inputs": [
        {
          "indexed": false,
          "internalType": "address",
          "name": "recipient",
          "type": "address"
        },
        {
          "indexed": false,
          "internalType": "uint256",
          "name": "amount",
          "type": "uint256"
        }
      ],
      "name": "VenusGranted",
      "type": "event"
    },
    {
      "anonymous": false,
      "inputs": [
        {
          "indexed": true,
          "internalType": "contract VToken",
          "name": "vToken",
          "type": "address"
        },
        {
          "indexed": false,
          "internalType": "uint256",
          "name": "newSpeed",
          "type": "uint256"
        }
      ],
      "name": "VenusSpeedUpdated",
      "type": "event"
    },
    {
      "constant": false,
      "inputs": [
        {
          "internalType": "contract Unitroller",
          "name": "unitroller",
          "type": "address"
        }
      ],
      "name": "_become",
      "outputs": [],
      "payable": false,
      "stateMutability": "nonpayable",
      "type": "function"
    },
    {
      "constant": false,
      "inputs": [
        {
          "internalType": "address",
          "name": "recipient",
          "type": "address"
        },
        {
          "internalType": "uint256",
          "name": "amount",
          "type": "uint256"
        }
      ],
      "name": "_grantXVS",
      "outputs": [],
      "payable": false,
      "stateMutability": "nonpayable",
      "type": "function"
    },
    {
      "constant": false,
      "inputs": [
        {
          "internalType": "address",
          "name": "newAccessControlAddress",
          "type": "address"
        }
      ],
      "name": "_setAccessControl",
      "outputs": [
        {
          "internalType": "uint256",
          "name": "",
          "type": "uint256"
        }
      ],
      "payable": false,
      "stateMutability": "nonpayable",
      "type": "function"
    },
    {
      "constant": false,
      "inputs": [
        {
          "internalType": "address[]",
          "name": "markets",
          "type": "address[]"
        },
        {
          "internalType": "enum ComptrollerV9Storage.Action[]",
          "name": "actions",
          "type": "uint8[]"
        },
        {
          "internalType": "bool",
          "name": "paused",
          "type": "bool"
        }
      ],
      "name": "_setActionsPaused",
      "outputs": [],
      "payable": false,
      "stateMutability": "nonpayable",
      "type": "function"
    },
    {
      "constant": false,
      "inputs": [
        {
          "internalType": "uint256",
          "name": "newCloseFactorMantissa",
          "type": "uint256"
        }
      ],
      "name": "_setCloseFactor",
      "outputs": [
        {
          "internalType": "uint256",
          "name": "",
          "type": "uint256"
        }
      ],
      "payable": false,
      "stateMutability": "nonpayable",
      "type": "function"
    },
    {
      "constant": false,
      "inputs": [
        {
          "internalType": "contract VToken",
          "name": "vToken",
          "type": "address"
        },
        {
          "internalType": "uint256",
          "name": "newCollateralFactorMantissa",
          "type": "uint256"
        }
      ],
      "name": "_setCollateralFactor",
      "outputs": [
        {
          "internalType": "uint256",
          "name": "",
          "type": "uint256"
        }
      ],
      "payable": false,
      "stateMutability": "nonpayable",
      "type": "function"
    },
    {
      "constant": false,
      "inputs": [
        {
          "internalType": "contract ComptrollerLensInterface",
          "name": "comptrollerLens_",
          "type": "address"
        }
      ],
      "name": "_setComptrollerLens",
      "outputs": [
        {
          "internalType": "uint256",
          "name": "",
          "type": "uint256"
        }
      ],
      "payable": false,
      "stateMutability": "nonpayable",
      "type": "function"
    },
    {
      "constant": false,
      "inputs": [
        {
          "internalType": "uint256",
          "name": "newLiquidationIncentiveMantissa",
          "type": "uint256"
        }
      ],
      "name": "_setLiquidationIncentive",
      "outputs": [
        {
          "internalType": "uint256",
          "name": "",
          "type": "uint256"
        }
      ],
      "payable": false,
      "stateMutability": "nonpayable",
      "type": "function"
    },
    {
      "constant": false,
      "inputs": [
        {
          "internalType": "address",
          "name": "newLiquidatorContract_",
          "type": "address"
        }
      ],
      "name": "_setLiquidatorContract",
      "outputs": [],
      "payable": false,
      "stateMutability": "nonpayable",
      "type": "function"
    },
    {
      "constant": false,
      "inputs": [
        {
          "internalType": "contract VToken[]",
          "name": "vTokens",
          "type": "address[]"
        },
        {
          "internalType": "uint256[]",
          "name": "newBorrowCaps",
          "type": "uint256[]"
        }
      ],
      "name": "_setMarketBorrowCaps",
      "outputs": [],
      "payable": false,
      "stateMutability": "nonpayable",
      "type": "function"
    },
    {
      "constant": false,
      "inputs": [
        {
          "internalType": "contract VToken[]",
          "name": "vTokens",
          "type": "address[]"
        },
        {
          "internalType": "uint256[]",
          "name": "newSupplyCaps",
          "type": "uint256[]"
        }
      ],
      "name": "_setMarketSupplyCaps",
      "outputs": [],
      "payable": false,
      "stateMutability": "nonpayable",
      "type": "function"
    },
    {
      "constant": false,
      "inputs": [
        {
          "internalType": "address",
          "name": "newPauseGuardian",
          "type": "address"
        }
      ],
      "name": "_setPauseGuardian",
      "outputs": [
        {
          "internalType": "uint256",
          "name": "",
          "type": "uint256"
        }
      ],
      "payable": false,
      "stateMutability": "nonpayable",
      "type": "function"
    },
    {
      "constant": false,
      "inputs": [
        {
          "internalType": "contract PriceOracle",
          "name": "newOracle",
          "type": "address"
        }
      ],
      "name": "_setPriceOracle",
      "outputs": [
        {
          "internalType": "uint256",
          "name": "",
          "type": "uint256"
        }
      ],
      "payable": false,
      "stateMutability": "nonpayable",
      "type": "function"
    },
    {
      "constant": false,
      "inputs": [
        {
          "internalType": "bool",
          "name": "state",
          "type": "bool"
        }
      ],
      "name": "_setProtocolPaused",
      "outputs": [
        {
          "internalType": "bool",
          "name": "",
          "type": "bool"
        }
      ],
      "payable": false,
      "stateMutability": "nonpayable",
      "type": "function"
    },
    {
      "constant": false,
      "inputs": [
        {
          "internalType": "address",
          "name": "newTreasuryGuardian",
          "type": "address"
        },
        {
          "internalType": "address",
          "name": "newTreasuryAddress",
          "type": "address"
        },
        {
          "internalType": "uint256",
          "name": "newTreasuryPercent",
          "type": "uint256"
        }
      ],
      "name": "_setTreasuryData",
      "outputs": [
        {
          "internalType": "uint256",
          "name": "",
          "type": "uint256"
        }
      ],
      "payable": false,
      "stateMutability": "nonpayable",
      "type": "function"
    },
    {
      "constant": false,
      "inputs": [
        {
          "internalType": "contract VAIControllerInterface",
          "name": "vaiController_",
          "type": "address"
        }
      ],
      "name": "_setVAIController",
      "outputs": [
        {
          "internalType": "uint256",
          "name": "",
          "type": "uint256"
        }
      ],
      "payable": false,
      "stateMutability": "nonpayable",
      "type": "function"
    },
    {
      "constant": false,
      "inputs": [
        {
          "internalType": "uint256",
          "name": "newVAIMintRate",
          "type": "uint256"
        }
      ],
      "name": "_setVAIMintRate",
      "outputs": [
        {
          "internalType": "uint256",
          "name": "",
          "type": "uint256"
        }
      ],
      "payable": false,
      "stateMutability": "nonpayable",
      "type": "function"
    },
    {
      "constant": false,
      "inputs": [
        {
          "internalType": "address",
          "name": "vault_",
          "type": "address"
        },
        {
          "internalType": "uint256",
          "name": "releaseStartBlock_",
          "type": "uint256"
        },
        {
          "internalType": "uint256",
          "name": "minReleaseAmount_",
          "type": "uint256"
        }
      ],
      "name": "_setVAIVaultInfo",
      "outputs": [],
      "payable": false,
      "stateMutability": "nonpayable",
      "type": "function"
    },
    {
      "constant": false,
      "inputs": [
        {
          "internalType": "contract VToken",
          "name": "vToken",
          "type": "address"
        },
        {
          "internalType": "uint256",
          "name": "venusSpeed",
          "type": "uint256"
        }
      ],
      "name": "_setVenusSpeed",
      "outputs": [],
      "payable": false,
      "stateMutability": "nonpayable",
      "type": "function"
    },
    {
      "constant": false,
      "inputs": [
        {
          "internalType": "uint256",
          "name": "venusVAIVaultRate_",
          "type": "uint256"
        }
      ],
      "name": "_setVenusVAIVaultRate",
      "outputs": [],
      "payable": false,
      "stateMutability": "nonpayable",
      "type": "function"
    },
    {
      "constant": false,
      "inputs": [
        {
          "internalType": "contract VToken",
          "name": "vToken",
          "type": "address"
        }
      ],
      "name": "_supportMarket",
      "outputs": [
        {
          "internalType": "uint256",
          "name": "",
          "type": "uint256"
        }
      ],
      "payable": false,
      "stateMutability": "nonpayable",
      "type": "function"
    },
    {
      "constant": true,
      "inputs": [
        {
          "internalType": "address",
          "name": "",
          "type": "address"
        },
        {
          "internalType": "uint256",
          "name": "",
          "type": "uint256"
        }
      ],
      "name": "accountAssets",
      "outputs": [
        {
          "internalType": "contract VToken",
          "name": "",
          "type": "address"
        }
      ],
      "payable": false,
      "stateMutability": "view",
      "type": "function"
    },
    {
      "constant": true,
      "inputs": [
        {
          "internalType": "address",
          "name": "market",
          "type": "address"
        },
        {
          "internalType": "enum ComptrollerV9Storage.Action",
          "name": "action",
          "type": "uint8"
        }
      ],
      "name": "actionPaused",
      "outputs": [
        {
          "internalType": "bool",
          "name": "",
          "type": "bool"
        }
      ],
      "payable": false,
      "stateMutability": "view",
      "type": "function"
    },
    {
      "constant": true,
      "inputs": [],
      "name": "admin",
      "outputs": [
        {
          "internalType": "address",
          "name": "",
          "type": "address"
        }
      ],
      "payable": false,
      "stateMutability": "view",
      "type": "function"
    },
    {
      "constant": true,
      "inputs": [
        {
          "internalType": "uint256",
          "name": "",
          "type": "uint256"
        }
      ],
      "name": "allMarkets",
      "outputs": [
        {
          "internalType": "contract VToken",
          "name": "",
          "type": "address"
        }
      ],
      "payable": false,
      "stateMutability": "view",
      "type": "function"
    },
    {
      "constant": true,
      "inputs": [],
      "name": "blockNumber",
      "outputs": [
        {
          "internalType": "uint256",
          "name": "",
          "type": "uint256"
        }
      ],
      "payable": false,
      "stateMutability": "view",
      "type": "function"
    },
    {
      "constant": false,
      "inputs": [
        {
          "internalType": "address",
          "name": "vToken",
          "type": "address"
        },
        {
          "internalType": "address",
          "name": "borrower",
          "type": "address"
        },
        {
          "internalType": "uint256",
          "name": "borrowAmount",
          "type": "uint256"
        }
      ],
      "name": "borrowAllowed",
      "outputs": [
        {
          "internalType": "uint256",
          "name": "",
          "type": "uint256"
        }
      ],
      "payable": false,
      "stateMutability": "nonpayable",
      "type": "function"
    },
    {
      "constant": true,
      "inputs": [],
      "name": "borrowCapGuardian",
      "outputs": [
        {
          "internalType": "address",
          "name": "",
          "type": "address"
        }
      ],
      "payable": false,
      "stateMutability": "view",
      "type": "function"
    },
    {
      "constant": true,
      "inputs": [
        {
          "internalType": "address",
          "name": "",
          "type": "address"
        }
      ],
      "name": "borrowCaps",
      "outputs": [
        {
          "internalType": "uint256",
          "name": "",
          "type": "uint256"
        }
      ],
      "payable": false,
      "stateMutability": "view",
      "type": "function"
    },
    {
      "constant": false,
      "inputs": [
        {
          "internalType": "address",
          "name": "vToken",
          "type": "address"
        },
        {
          "internalType": "address",
          "name": "borrower",
          "type": "address"
        },
        {
          "internalType": "uint256",
          "name": "borrowAmount",
          "type": "uint256"
        }
      ],
      "name": "borrowVerify",
      "outputs": [],
      "payable": false,
      "stateMutability": "nonpayable",
      "type": "function"
    },
    {
      "constant": true,
      "inputs": [
        {
          "internalType": "address",
          "name": "account",
          "type": "address"
        },
        {
          "internalType": "contract VToken",
          "name": "vToken",
          "type": "address"
        }
      ],
      "name": "checkMembership",
      "outputs": [
        {
          "internalType": "bool",
          "name": "",
          "type": "bool"
        }
      ],
      "payable": false,
      "stateMutability": "view",
      "type": "function"
    },
    {
      "constant": false,
      "inputs": [
        {
          "internalType": "address[]",
          "name": "holders",
          "type": "address[]"
        },
        {
          "internalType": "contract VToken[]",
          "name": "vTokens",
          "type": "address[]"
        },
        {
          "internalType": "bool",
          "name": "borrowers",
          "type": "bool"
        },
        {
          "internalType": "bool",
          "name": "suppliers",
          "type": "bool"
        },
        {
          "internalType": "bool",
          "name": "collateral",
          "type": "bool"
        }
      ],
      "name": "claimVenus",
      "outputs": [],
      "payable": false,
      "stateMutability": "nonpayable",
      "type": "function"
    },
    {
      "constant": false,
      "inputs": [
        {
          "internalType": "address",
          "name": "holder",
          "type": "address"
        },
        {
          "internalType": "contract VToken[]",
          "name": "vTokens",
          "type": "address[]"
        }
      ],
      "name": "claimVenus",
      "outputs": [],
      "payable": false,
      "stateMutability": "nonpayable",
      "type": "function"
    },
    {
      "constant": false,
      "inputs": [
        {
          "internalType": "address",
          "name": "holder",
          "type": "address"
        }
      ],
      "name": "claimVenus",
      "outputs": [],
      "payable": false,
      "stateMutability": "nonpayable",
      "type": "function"
    },
    {
      "constant": false,
      "inputs": [
        {
          "internalType": "address[]",
          "name": "holders",
          "type": "address[]"
        },
        {
          "internalType": "contract VToken[]",
          "name": "vTokens",
          "type": "address[]"
        },
        {
          "internalType": "bool",
          "name": "borrowers",
          "type": "bool"
        },
        {
          "internalType": "bool",
          "name": "suppliers",
          "type": "bool"
        }
      ],
      "name": "claimVenus",
      "outputs": [],
      "payable": false,
      "stateMutability": "nonpayable",
      "type": "function"
    },
    {
      "constant": false,
      "inputs": [
        {
          "internalType": "address",
          "name": "holder",
          "type": "address"
        }
      ],
      "name": "claimVenusAsCollateral",
      "outputs": [],
      "payable": false,
      "stateMutability": "nonpayable",
      "type": "function"
    },
    {
      "constant": true,
      "inputs": [],
      "name": "closeFactorMantissa",
      "outputs": [
        {
          "internalType": "uint256",
          "name": "",
          "type": "uint256"
        }
      ],
      "payable": false,
      "stateMutability": "view",
      "type": "function"
    },
    {
      "constant": true,
      "inputs": [],
      "name": "comptrollerImplementation",
      "outputs": [
        {
          "internalType": "address",
          "name": "",
          "type": "address"
        }
      ],
      "payable": false,
      "stateMutability": "view",
      "type": "function"
    },
    {
      "constant": true,
      "inputs": [],
      "name": "comptrollerLens",
      "outputs": [
        {
          "internalType": "contract ComptrollerLensInterface",
          "name": "",
          "type": "address"
        }
      ],
      "payable": false,
      "stateMutability": "view",
      "type": "function"
    },
    {
      "constant": false,
      "inputs": [
        {
          "internalType": "address[]",
          "name": "vTokens",
          "type": "address[]"
        }
      ],
      "name": "enterMarkets",
      "outputs": [
        {
          "internalType": "uint256[]",
          "name": "",
          "type": "uint256[]"
        }
      ],
      "payable": false,
      "stateMutability": "nonpayable",
      "type": "function"
    },
    {
      "constant": false,
      "inputs": [
        {
          "internalType": "address",
          "name": "vTokenAddress",
          "type": "address"
        }
      ],
      "name": "exitMarket",
      "outputs": [
        {
          "internalType": "uint256",
          "name": "",
          "type": "uint256"
        }
      ],
      "payable": false,
      "stateMutability": "nonpayable",
      "type": "function"
    },
    {
      "constant": false,
      "inputs": [
        {
          "internalType": "uint256",
          "name": "blocks",
          "type": "uint256"
        }
      ],
      "name": "fastForward",
      "outputs": [
        {
          "internalType": "uint256",
          "name": "",
          "type": "uint256"
        }
      ],
      "payable": false,
      "stateMutability": "nonpayable",
      "type": "function"
    },
    {
      "constant": true,
      "inputs": [
        {
          "internalType": "address",
          "name": "account",
          "type": "address"
        }
      ],
      "name": "getAccountLiquidity",
      "outputs": [
        {
          "internalType": "uint256",
          "name": "",
          "type": "uint256"
        },
        {
          "internalType": "uint256",
          "name": "",
          "type": "uint256"
        },
        {
          "internalType": "uint256",
          "name": "",
          "type": "uint256"
        }
      ],
      "payable": false,
      "stateMutability": "view",
      "type": "function"
    },
    {
      "constant": true,
      "inputs": [],
      "name": "getAllMarkets",
      "outputs": [
        {
          "internalType": "contract VToken[]",
          "name": "",
          "type": "address[]"
        }
      ],
      "payable": false,
      "stateMutability": "view",
      "type": "function"
    },
    {
      "constant": true,
      "inputs": [
        {
          "internalType": "address",
          "name": "account",
          "type": "address"
        }
      ],
      "name": "getAssetsIn",
      "outputs": [
        {
          "internalType": "contract VToken[]",
          "name": "",
          "type": "address[]"
        }
      ],
      "payable": false,
      "stateMutability": "view",
      "type": "function"
    },
    {
      "constant": true,
      "inputs": [],
      "name": "getBlockNumber",
      "outputs": [
        {
          "internalType": "uint256",
          "name": "",
          "type": "uint256"
        }
      ],
      "payable": false,
      "stateMutability": "view",
      "type": "function"
    },
    {
      "constant": true,
      "inputs": [
        {
          "internalType": "address",
          "name": "account",
          "type": "address"
        },
        {
          "internalType": "address",
          "name": "vTokenModify",
          "type": "address"
        },
        {
          "internalType": "uint256",
          "name": "redeemTokens",
          "type": "uint256"
        },
        {
          "internalType": "uint256",
          "name": "borrowAmount",
          "type": "uint256"
        }
      ],
      "name": "getHypotheticalAccountLiquidity",
      "outputs": [
        {
          "internalType": "uint256",
          "name": "",
          "type": "uint256"
        },
        {
          "internalType": "uint256",
          "name": "",
          "type": "uint256"
        },
        {
          "internalType": "uint256",
          "name": "",
          "type": "uint256"
        }
      ],
      "payable": false,
      "stateMutability": "view",
      "type": "function"
    },
    {
      "constant": true,
      "inputs": [],
      "name": "getVAIAddress",
      "outputs": [
        {
          "internalType": "address",
          "name": "",
          "type": "address"
        }
      ],
      "payable": false,
      "stateMutability": "view",
      "type": "function"
    },
    {
      "constant": true,
      "inputs": [],
      "name": "getVenusMarkets",
      "outputs": [
        {
          "internalType": "address[]",
          "name": "",
          "type": "address[]"
        }
      ],
      "payable": false,
      "stateMutability": "view",
      "type": "function"
    },
    {
      "constant": true,
      "inputs": [],
      "name": "getXVSAddress",
      "outputs": [
        {
          "internalType": "address",
          "name": "",
          "type": "address"
        }
      ],
      "payable": false,
      "stateMutability": "view",
      "type": "function"
    },
    {
      "constant": true,
      "inputs": [],
      "name": "getXVSVTokenAddress",
      "outputs": [
        {
          "internalType": "address",
          "name": "",
          "type": "address"
        }
      ],
      "payable": false,
      "stateMutability": "view",
      "type": "function"
    },
    {
      "constant": true,
      "inputs": [],
      "name": "isComptroller",
      "outputs": [
        {
          "internalType": "bool",
          "name": "",
          "type": "bool"
        }
      ],
      "payable": false,
      "stateMutability": "view",
      "type": "function"
    },
    {
      "constant": false,
      "inputs": [
        {
          "internalType": "address",
          "name": "vTokenBorrowed",
          "type": "address"
        },
        {
          "internalType": "address",
          "name": "vTokenCollateral",
          "type": "address"
        },
        {
          "internalType": "address",
          "name": "liquidator",
          "type": "address"
        },
        {
          "internalType": "address",
          "name": "borrower",
          "type": "address"
        },
        {
          "internalType": "uint256",
          "name": "repayAmount",
          "type": "uint256"
        }
      ],
      "name": "liquidateBorrowAllowed",
      "outputs": [
        {
          "internalType": "uint256",
          "name": "",
          "type": "uint256"
        }
      ],
      "payable": false,
      "stateMutability": "nonpayable",
      "type": "function"
    },
    {
      "constant": false,
      "inputs": [
        {
          "internalType": "address",
          "name": "vTokenBorrowed",
          "type": "address"
        },
        {
          "internalType": "address",
          "name": "vTokenCollateral",
          "type": "address"
        },
        {
          "internalType": "address",
          "name": "liquidator",
          "type": "address"
        },
        {
          "internalType": "address",
          "name": "borrower",
          "type": "address"
        },
        {
          "internalType": "uint256",
          "name": "actualRepayAmount",
          "type": "uint256"
        },
        {
          "internalType": "uint256",
          "name": "seizeTokens",
          "type": "uint256"
        }
      ],
      "name": "liquidateBorrowVerify",
      "outputs": [],
      "payable": false,
      "stateMutability": "nonpayable",
      "type": "function"
    },
    {
      "constant": true,
      "inputs": [
        {
          "internalType": "address",
          "name": "vTokenBorrowed",
          "type": "address"
        },
        {
          "internalType": "address",
          "name": "vTokenCollateral",
          "type": "address"
        },
        {
          "internalType": "uint256",
          "name": "actualRepayAmount",
          "type": "uint256"
        }
      ],
      "name": "liquidateCalculateSeizeTokens",
      "outputs": [
        {
          "internalType": "uint256",
          "name": "",
          "type": "uint256"
        },
        {
          "internalType": "uint256",
          "name": "",
          "type": "uint256"
        }
      ],
      "payable": false,
      "stateMutability": "view",
      "type": "function"
    },
    {
      "constant": true,
      "inputs": [
        {
          "internalType": "address",
          "name": "vTokenCollateral",
          "type": "address"
        },
        {
          "internalType": "uint256",
          "name": "actualRepayAmount",
          "type": "uint256"
        }
      ],
      "name": "liquidateVAICalculateSeizeTokens",
      "outputs": [
        {
          "internalType": "uint256",
          "name": "",
          "type": "uint256"
        },
        {
          "internalType": "uint256",
          "name": "",
          "type": "uint256"
        }
      ],
      "payable": false,
      "stateMutability": "view",
      "type": "function"
    },
    {
      "constant": true,
      "inputs": [],
      "name": "liquidationIncentiveMantissa",
      "outputs": [
        {
          "internalType": "uint256",
          "name": "",
          "type": "uint256"
        }
      ],
      "payable": false,
      "stateMutability": "view",
      "type": "function"
    },
    {
      "constant": true,
      "inputs": [],
      "name": "liquidatorContract",
      "outputs": [
        {
          "internalType": "address",
          "name": "",
          "type": "address"
        }
      ],
      "payable": false,
      "stateMutability": "view",
      "type": "function"
    },
    {
      "constant": true,
      "inputs": [
        {
          "internalType": "address",
          "name": "",
          "type": "address"
        }
      ],
      "name": "markets",
      "outputs": [
        {
          "internalType": "bool",
          "name": "isListed",
          "type": "bool"
        },
        {
          "internalType": "uint256",
          "name": "collateralFactorMantissa",
          "type": "uint256"
        },
        {
          "internalType": "bool",
          "name": "isVenus",
          "type": "bool"
        }
      ],
      "payable": false,
      "stateMutability": "view",
      "type": "function"
    },
    {
      "constant": true,
      "inputs": [],
      "name": "maxAssets",
      "outputs": [
        {
          "internalType": "uint256",
          "name": "",
          "type": "uint256"
        }
      ],
      "payable": false,
      "stateMutability": "view",
      "type": "function"
    },
    {
      "constant": true,
      "inputs": [
        {
          "internalType": "contract VToken",
          "name": "vToken",
          "type": "address"
        }
      ],
      "name": "membershipLength",
      "outputs": [
        {
          "internalType": "uint256",
          "name": "",
          "type": "uint256"
        }
      ],
      "payable": false,
      "stateMutability": "view",
      "type": "function"
    },
    {
      "constant": true,
      "inputs": [],
      "name": "minReleaseAmount",
      "outputs": [
        {
          "internalType": "uint256",
          "name": "",
          "type": "uint256"
        }
      ],
      "payable": false,
      "stateMutability": "view",
      "type": "function"
    },
    {
      "constant": false,
      "inputs": [
        {
          "internalType": "address",
          "name": "vToken",
          "type": "address"
        },
        {
          "internalType": "address",
          "name": "minter",
          "type": "address"
        },
        {
          "internalType": "uint256",
          "name": "mintAmount",
          "type": "uint256"
        }
      ],
      "name": "mintAllowed",
      "outputs": [
        {
          "internalType": "uint256",
          "name": "",
          "type": "uint256"
        }
      ],
      "payable": false,
      "stateMutability": "nonpayable",
      "type": "function"
    },
    {
      "constant": true,
      "inputs": [],
      "name": "mintVAIGuardianPaused",
      "outputs": [
        {
          "internalType": "bool",
          "name": "",
          "type": "bool"
        }
      ],
      "payable": false,
      "stateMutability": "view",
      "type": "function"
    },
    {
      "constant": false,
      "inputs": [
        {
          "internalType": "address",
          "name": "vToken",
          "type": "address"
        },
        {
          "internalType": "address",
          "name": "minter",
          "type": "address"
        },
        {
          "internalType": "uint256",
          "name": "actualMintAmount",
          "type": "uint256"
        },
        {
          "internalType": "uint256",
          "name": "mintTokens",
          "type": "uint256"
        }
      ],
      "name": "mintVerify",
      "outputs": [],
      "payable": false,
      "stateMutability": "nonpayable",
      "type": "function"
    },
    {
      "constant": true,
      "inputs": [
        {
          "internalType": "address",
          "name": "",
          "type": "address"
        }
      ],
      "name": "mintedVAIs",
      "outputs": [
        {
          "internalType": "uint256",
          "name": "",
          "type": "uint256"
        }
      ],
      "payable": false,
      "stateMutability": "view",
      "type": "function"
    },
    {
      "constant": true,
      "inputs": [],
      "name": "oracle",
      "outputs": [
        {
          "internalType": "contract PriceOracle",
          "name": "",
          "type": "address"
        }
      ],
      "payable": false,
      "stateMutability": "view",
      "type": "function"
    },
    {
      "constant": true,
      "inputs": [],
      "name": "pauseGuardian",
      "outputs": [
        {
          "internalType": "address",
          "name": "",
          "type": "address"
        }
      ],
      "payable": false,
      "stateMutability": "view",
      "type": "function"
    },
    {
      "constant": true,
      "inputs": [],
      "name": "pendingAdmin",
      "outputs": [
        {
          "internalType": "address",
          "name": "",
          "type": "address"
        }
      ],
      "payable": false,
      "stateMutability": "view",
      "type": "function"
    },
    {
      "constant": true,
      "inputs": [],
      "name": "pendingComptrollerImplementation",
      "outputs": [
        {
          "internalType": "address",
          "name": "",
          "type": "address"
        }
      ],
      "payable": false,
      "stateMutability": "view",
      "type": "function"
    },
    {
      "constant": true,
      "inputs": [],
      "name": "protocolPaused",
      "outputs": [
        {
          "internalType": "bool",
          "name": "",
          "type": "bool"
        }
      ],
      "payable": false,
      "stateMutability": "view",
      "type": "function"
    },
    {
      "constant": false,
      "inputs": [
        {
          "internalType": "address",
          "name": "vToken",
          "type": "address"
        },
        {
          "internalType": "address",
          "name": "redeemer",
          "type": "address"
        },
        {
          "internalType": "uint256",
          "name": "redeemTokens",
          "type": "uint256"
        }
      ],
      "name": "redeemAllowed",
      "outputs": [
        {
          "internalType": "uint256",
          "name": "",
          "type": "uint256"
        }
      ],
      "payable": false,
      "stateMutability": "nonpayable",
      "type": "function"
    },
    {
      "constant": false,
      "inputs": [
        {
          "internalType": "address",
          "name": "vToken",
          "type": "address"
        },
        {
          "internalType": "address",
          "name": "redeemer",
          "type": "address"
        },
        {
          "internalType": "uint256",
          "name": "redeemAmount",
          "type": "uint256"
        },
        {
          "internalType": "uint256",
          "name": "redeemTokens",
          "type": "uint256"
        }
      ],
      "name": "redeemVerify",
      "outputs": [],
      "payable": false,
      "stateMutability": "nonpayable",
      "type": "function"
    },
    {
      "constant": false,
      "inputs": [],
      "name": "refreshVenusSpeeds",
      "outputs": [],
      "payable": false,
      "stateMutability": "nonpayable",
      "type": "function"
    },
    {
      "constant": true,
      "inputs": [],
      "name": "releaseStartBlock",
      "outputs": [
        {
          "internalType": "uint256",
          "name": "",
          "type": "uint256"
        }
      ],
      "payable": false,
      "stateMutability": "view",
      "type": "function"
    },
    {
      "constant": false,
      "inputs": [],
      "name": "releaseToVault",
      "outputs": [],
      "payable": false,
      "stateMutability": "nonpayable",
      "type": "function"
    },
    {
      "constant": false,
      "inputs": [
        {
          "internalType": "address",
          "name": "vToken",
          "type": "address"
        },
        {
          "internalType": "address",
          "name": "payer",
          "type": "address"
        },
        {
          "internalType": "address",
          "name": "borrower",
          "type": "address"
        },
        {
          "internalType": "uint256",
          "name": "repayAmount",
          "type": "uint256"
        }
      ],
      "name": "repayBorrowAllowed",
      "outputs": [
        {
          "internalType": "uint256",
          "name": "",
          "type": "uint256"
        }
      ],
      "payable": false,
      "stateMutability": "nonpayable",
      "type": "function"
    },
    {
      "constant": false,
      "inputs": [
        {
          "internalType": "address",
          "name": "vToken",
          "type": "address"
        },
        {
          "internalType": "address",
          "name": "payer",
          "type": "address"
        },
        {
          "internalType": "address",
          "name": "borrower",
          "type": "address"
        },
        {
          "internalType": "uint256",
          "name": "actualRepayAmount",
          "type": "uint256"
        },
        {
          "internalType": "uint256",
          "name": "borrowerIndex",
          "type": "uint256"
        }
      ],
      "name": "repayBorrowVerify",
      "outputs": [],
      "payable": false,
      "stateMutability": "nonpayable",
      "type": "function"
    },
    {
      "constant": true,
      "inputs": [],
      "name": "repayVAIGuardianPaused",
      "outputs": [
        {
          "internalType": "bool",
          "name": "",
          "type": "bool"
        }
      ],
      "payable": false,
      "stateMutability": "view",
      "type": "function"
    },
    {
      "constant": false,
      "inputs": [
        {
          "internalType": "address",
          "name": "vTokenCollateral",
          "type": "address"
        },
        {
          "internalType": "address",
          "name": "vTokenBorrowed",
          "type": "address"
        },
        {
          "internalType": "address",
          "name": "liquidator",
          "type": "address"
        },
        {
          "internalType": "address",
          "name": "borrower",
          "type": "address"
        },
        {
          "internalType": "uint256",
          "name": "seizeTokens",
          "type": "uint256"
        }
      ],
      "name": "seizeAllowed",
      "outputs": [
        {
          "internalType": "uint256",
          "name": "",
          "type": "uint256"
        }
      ],
      "payable": false,
      "stateMutability": "nonpayable",
      "type": "function"
    },
    {
      "constant": false,
      "inputs": [
        {
          "internalType": "address",
          "name": "vTokenCollateral",
          "type": "address"
        },
        {
          "internalType": "address",
          "name": "vTokenBorrowed",
          "type": "address"
        },
        {
          "internalType": "address",
          "name": "liquidator",
          "type": "address"
        },
        {
          "internalType": "address",
          "name": "borrower",
          "type": "address"
        },
        {
          "internalType": "uint256",
          "name": "seizeTokens",
          "type": "uint256"
        }
      ],
      "name": "seizeVerify",
      "outputs": [],
      "payable": false,
      "stateMutability": "nonpayable",
      "type": "function"
    },
    {
      "constant": false,
      "inputs": [
        {
          "internalType": "uint256",
          "name": "number",
          "type": "uint256"
        }
      ],
      "name": "setBlockNumber",
      "outputs": [],
      "payable": false,
      "stateMutability": "nonpayable",
      "type": "function"
    },
    {
      "constant": false,
      "inputs": [
        {
          "internalType": "address",
          "name": "owner",
          "type": "address"
        },
        {
          "internalType": "uint256",
          "name": "amount",
          "type": "uint256"
        }
      ],
      "name": "setMintedVAIOf",
      "outputs": [
        {
          "internalType": "uint256",
          "name": "",
          "type": "uint256"
        }
      ],
      "payable": false,
      "stateMutability": "nonpayable",
      "type": "function"
    },
    {
      "constant": false,
      "inputs": [
        {
          "internalType": "address",
          "name": "vaiAddress_",
          "type": "address"
        }
      ],
      "name": "setVAIAddress",
      "outputs": [],
      "payable": false,
      "stateMutability": "nonpayable",
      "type": "function"
    },
    {
      "constant": false,
      "inputs": [
        {
          "internalType": "address",
          "name": "xvsAddress_",
          "type": "address"
        }
      ],
      "name": "setXVSAddress",
      "outputs": [],
      "payable": false,
      "stateMutability": "nonpayable",
      "type": "function"
    },
    {
      "constant": true,
      "inputs": [
        {
          "internalType": "address",
          "name": "",
          "type": "address"
        }
      ],
      "name": "supplyCaps",
      "outputs": [
        {
          "internalType": "uint256",
          "name": "",
          "type": "uint256"
        }
      ],
      "payable": false,
      "stateMutability": "view",
      "type": "function"
    },
    {
      "constant": false,
      "inputs": [
        {
          "internalType": "address",
          "name": "vToken",
          "type": "address"
        },
        {
          "internalType": "address",
          "name": "src",
          "type": "address"
        },
        {
          "internalType": "address",
          "name": "dst",
          "type": "address"
        },
        {
          "internalType": "uint256",
          "name": "transferTokens",
          "type": "uint256"
        }
      ],
      "name": "transferAllowed",
      "outputs": [
        {
          "internalType": "uint256",
          "name": "",
          "type": "uint256"
        }
      ],
      "payable": false,
      "stateMutability": "nonpayable",
      "type": "function"
    },
    {
      "constant": false,
      "inputs": [
        {
          "internalType": "address",
          "name": "vToken",
          "type": "address"
        },
        {
          "internalType": "address",
          "name": "src",
          "type": "address"
        },
        {
          "internalType": "address",
          "name": "dst",
          "type": "address"
        },
        {
          "internalType": "uint256",
          "name": "transferTokens",
          "type": "uint256"
        }
      ],
      "name": "transferVerify",
      "outputs": [],
      "payable": false,
      "stateMutability": "nonpayable",
      "type": "function"
    },
    {
      "constant": true,
      "inputs": [],
      "name": "treasuryAddress",
      "outputs": [
        {
          "internalType": "address",
          "name": "",
          "type": "address"
        }
      ],
      "payable": false,
      "stateMutability": "view",
      "type": "function"
    },
    {
      "constant": true,
      "inputs": [],
      "name": "treasuryGuardian",
      "outputs": [
        {
          "internalType": "address",
          "name": "",
          "type": "address"
        }
      ],
      "payable": false,
      "stateMutability": "view",
      "type": "function"
    },
    {
      "constant": true,
      "inputs": [],
      "name": "treasuryPercent",
      "outputs": [
        {
          "internalType": "uint256",
          "name": "",
          "type": "uint256"
        }
      ],
      "payable": false,
      "stateMutability": "view",
      "type": "function"
    },
    {
      "constant": false,
      "inputs": [
        {
          "internalType": "contract VToken",
          "name": "vToken",
          "type": "address"
        }
      ],
      "name": "unlist",
      "outputs": [],
      "payable": false,
      "stateMutability": "nonpayable",
      "type": "function"
    },
    {
      "constant": true,
      "inputs": [],
      "name": "vaiAddress",
      "outputs": [
        {
          "internalType": "address",
          "name": "",
          "type": "address"
        }
      ],
      "payable": false,
      "stateMutability": "view",
      "type": "function"
    },
    {
      "constant": true,
      "inputs": [],
      "name": "vaiController",
      "outputs": [
        {
          "internalType": "contract VAIControllerInterface",
          "name": "",
          "type": "address"
        }
      ],
      "payable": false,
      "stateMutability": "view",
      "type": "function"
    },
    {
      "constant": true,
      "inputs": [],
      "name": "vaiMintRate",
      "outputs": [
        {
          "internalType": "uint256",
          "name": "",
          "type": "uint256"
        }
      ],
      "payable": false,
      "stateMutability": "view",
      "type": "function"
    },
    {
      "constant": true,
      "inputs": [],
      "name": "vaiVaultAddress",
      "outputs": [
        {
          "internalType": "address",
          "name": "",
          "type": "address"
        }
      ],
      "payable": false,
      "stateMutability": "view",
      "type": "function"
    },
    {
      "constant": true,
      "inputs": [
        {
          "internalType": "address",
          "name": "",
          "type": "address"
        }
      ],
      "name": "venusAccrued",
      "outputs": [
        {
          "internalType": "uint256",
          "name": "",
          "type": "uint256"
        }
      ],
      "payable": false,
      "stateMutability": "view",
      "type": "function"
    },
    {
      "constant": true,
      "inputs": [
        {
          "internalType": "address",
          "name": "",
          "type": "address"
        }
      ],
      "name": "venusBorrowState",
      "outputs": [
        {
          "internalType": "uint224",
          "name": "index",
          "type": "uint224"
        },
        {
          "internalType": "uint32",
          "name": "block",
          "type": "uint32"
        }
      ],
      "payable": false,
      "stateMutability": "view",
      "type": "function"
    },
    {
      "constant": true,
      "inputs": [
        {
          "internalType": "address",
          "name": "",
          "type": "address"
        },
        {
          "internalType": "address",
          "name": "",
          "type": "address"
        }
      ],
      "name": "venusBorrowerIndex",
      "outputs": [
        {
          "internalType": "uint256",
          "name": "",
          "type": "uint256"
        }
      ],
      "payable": false,
      "stateMutability": "view",
      "type": "function"
    },
    {
      "constant": true,
      "inputs": [],
      "name": "venusInitialIndex",
      "outputs": [
        {
          "internalType": "uint224",
          "name": "",
          "type": "uint224"
        }
      ],
      "payable": false,
      "stateMutability": "view",
      "type": "function"
    },
    {
      "constant": true,
      "inputs": [],
      "name": "venusRate",
      "outputs": [
        {
          "internalType": "uint256",
          "name": "",
          "type": "uint256"
        }
      ],
      "payable": false,
      "stateMutability": "view",
      "type": "function"
    },
    {
      "constant": true,
      "inputs": [
        {
          "internalType": "address",
          "name": "",
          "type": "address"
        }
      ],
      "name": "venusSpeeds",
      "outputs": [
        {
          "internalType": "uint256",
          "name": "",
          "type": "uint256"
        }
      ],
      "payable": false,
      "stateMutability": "view",
      "type": "function"
    },
    {
      "constant": true,
      "inputs": [
        {
          "internalType": "address",
          "name": "",
          "type": "address"
        },
        {
          "internalType": "address",
          "name": "",
          "type": "address"
        }
      ],
      "name": "venusSupplierIndex",
      "outputs": [
        {
          "internalType": "uint256",
          "name": "",
          "type": "uint256"
        }
      ],
      "payable": false,
      "stateMutability": "view",
      "type": "function"
    },
    {
      "constant": true,
      "inputs": [
        {
          "internalType": "address",
          "name": "",
          "type": "address"
        }
      ],
      "name": "venusSupplyState",
      "outputs": [
        {
          "internalType": "uint224",
          "name": "index",
          "type": "uint224"
        },
        {
          "internalType": "uint32",
          "name": "block",
          "type": "uint32"
        }
      ],
      "payable": false,
      "stateMutability": "view",
      "type": "function"
    },
    {
      "constant": true,
      "inputs": [],
      "name": "venusVAIVaultRate",
      "outputs": [
        {
          "internalType": "uint256",
          "name": "",
          "type": "uint256"
        }
      ],
      "payable": false,
      "stateMutability": "view",
      "type": "function"
    },
    {
      "constant": true,
      "inputs": [],
      "name": "xvsAddress",
      "outputs": [
        {
          "internalType": "address",
          "name": "",
          "type": "address"
        }
      ],
      "payable": false,
      "stateMutability": "view",
      "type": "function"
    }
  ],
  "bytecode": "0x608060405234801561001057600080fd5b50600080546001600160a01b0319163317905561678480620000336000396000f3fe608060405234801561001057600080fd5b506004361061063d5760003560e01c806386df31ee11610336578063bec04f72116101c3578063dcfbc0c71161010f578063ede4edd0116100ad578063f851a44011610087578063f851a440146118a4578063fa6331d8146118ac578063fccbe7f6146118b4578063fd51a3ad146118d15761063d565b8063ede4edd014611850578063ededbae614611876578063f519fc301461187e5761063d565b8063e4028eee116100e9578063e4028eee146117b7578063e85a2960146117e3578063e875544614611812578063eabe7d911461181a5761063d565b8063dcfbc0c714611781578063ddfd287e14611789578063e37d4b79146117915761063d565b8063cbeb2b281161017c578063d24febad11610156578063d24febad146116e1578063d3270f9914611717578063da3d454c1461171f578063dce15449146117555761063d565b8063cbeb2b2814611567578063d02f73511461156f578063d09c54ba146115b55761063d565b8063bec04f7214611487578063bf32442d1461148f578063c299823814611497578063c488847b14611505578063c5b4db551461153b578063c5f956af1461155f5761063d565b8063a7604b4111610282578063b0772d0b1161023b578063bb82aa5e11610215578063bb82aa5e146113f7578063bb857450146113ff578063bdcdc25814611425578063bde3672d146114615761063d565b8063b0772d0b14611399578063b2eafc39146113a1578063b8324c7c146113a95761063d565b8063a7604b4114611299578063a76b3fda146112c5578063a78dc775146112eb578063a8c3c85014611330578063abfceffc1461134d578063adcd5fb9146113735761063d565b80639254f5e5116102ef5780639bb27d62116102c95780639bb27d62146112195780639bf34cbb146112215780639cfdd9e614611247578063a06a87f11461126d5761063d565b80639254f5e5146111db578063929fe9a1146111e357806394b2294b146112115761063d565b806386df31ee14611068578063879c2e1d146111195780638a7dc165146111215780638d26d644146111475780638e8f294b1461116d578063919b22b4146111b55761063d565b806347ef3b3b116104cf5780635c7786051161041b5780636d35bf91116103b95780637655138311610393578063765513831461102a5780637858524d146110325780637d172bd5146110585780637dc0d1d0146110605761063d565b80636d35bf9114610ea857806370bf66f014610eee578063719f701b146110225761063d565b80635fc7e71e116103f55780635fc7e71e14610d4b578063607ef6c114610d915780636662c7c914610e4f5780636a56947e14610e6c5761063d565b80635c77860514610cc95780635ec88c7914610cff5780635f5af1aa14610d255761063d565b80634ef4c3e11161048857806351dff9891161046257806351dff98914610c4257806352d84d1e14610c7e57806355ee1fe114610c9b57806357e871e714610cc15761063d565b80634ef4c3e114610b315780634fd42e1714610b6757806351a485e414610b845761063d565b806347ef3b3b14610a055780634a58443214610a515780634ada90af14610a775780634bca0d8c14610a7f5780634e0853db14610aa55780634e79238f14610ad75761063d565b80632a6a60651161058e5780633592cd0e1161054757806341c728b91161052157806341c728b9146109b1578063425fad58146109ed57806342cbb15c146109f557806343b67e4c146109fd5761063d565b80633592cd0e146109235780634088c73e1461097b57806341a18d2c146109835761063d565b80632a6a6065146107dc5780632b5d790c146107fb5780632bc7e29e146108bb5780632ec04124146108e1578063317b0b77146108fe578063358ae0361461091b5761063d565b80631abcaa77116105fb57806321af4569116105d557806321af45691461076c57806324008a621461079057806324a3d622146107cc57806326782247146107d45761063d565b80631abcaa77146106de5780631d504dc6146107045780631ededc911461072a5761063d565b80627e3dd21461064257806302c3bcbb1461065e57806304ef9d581461069657806308e0225c1461069e5780630db4b4e5146106cc57806312a2adc7146106d4575b600080fd5b61064a6118fd565b604080519115158252519081900360200190f35b6106846004803603602081101561067457600080fd5b50356001600160a01b0316611902565b60408051918252519081900360200190f35b610684611914565b610684600480360360408110156106b457600080fd5b506001600160a01b038135811691602001351661191a565b610684611937565b6106dc61193d565b005b610684600480360360208110156106f457600080fd5b50356001600160a01b0316611cc2565b6106dc6004803603602081101561071a57600080fd5b50356001600160a01b0316611cd4565b6106dc600480360360a081101561074057600080fd5b506001600160a01b03813581169160208101358216916040820135169060608101359060800135611e42565b610774611e49565b604080516001600160a01b039092168252519081900360200190f35b610684600480360360808110156107a657600080fd5b506001600160a01b03813581169160208101358216916040820135169060600135611e58565b610774611f2d565b610774611f3c565b61064a600480360360208110156107f257600080fd5b50351515611f4b565b6106dc6004803603606081101561081157600080fd5b810190602081018135600160201b81111561082b57600080fd5b82018360208201111561083d57600080fd5b803590602001918460208302840111600160201b8311171561085e57600080fd5b919390929091602081019035600160201b81111561087b57600080fd5b82018360208201111561088d57600080fd5b803590602001918460208302840111600160201b831117156108ae57600080fd5b9193509150351515611fe1565b610684600480360360208110156108d157600080fd5b50356001600160a01b0316612079565b610684600480360360208110156108f757600080fd5b503561208b565b6106846004803603602081101561091457600080fd5b50356120e2565b610774612136565b61092b612145565b60408051602080825283518183015283519192839290830191858101910280838360005b8381101561096757818101518382015260200161094f565b505050509050019250505060405180910390f35b61064a61228e565b6106846004803603604081101561099957600080fd5b506001600160a01b0381358116916020013516612297565b6106dc600480360360808110156109c757600080fd5b506001600160a01b03813581169160208101359091169060408101359060600135611cbc565b61064a6122b4565b6106846122c3565b6107746122c9565b6106dc600480360360c0811015610a1b57600080fd5b506001600160a01b0381358116916020810135821691604082013581169160608101359091169060808101359060a001356122d8565b61068460048036036020811015610a6757600080fd5b50356001600160a01b03166122dd565b6106846122ef565b61068460048036036020811015610a9557600080fd5b50356001600160a01b03166122f5565b6106dc60048036036060811015610abb57600080fd5b506001600160a01b038135169060208101359060400135612310565b610b1360048036036080811015610aed57600080fd5b506001600160a01b0381358116916020810135909116906040810135906060013561238e565b60408051938452602084019290925282820152519081900360600190f35b61068460048036036060811015610b4757600080fd5b506001600160a01b038135811691602081013590911690604001356123c4565b61068460048036036020811015610b7d57600080fd5b503561254b565b6106dc60048036036040811015610b9a57600080fd5b810190602081018135600160201b811115610bb457600080fd5b820183602082011115610bc657600080fd5b803590602001918460208302840111600160201b83111715610be757600080fd5b919390929091602081019035600160201b811115610c0457600080fd5b820183602082011115610c1657600080fd5b803590602001918460208302840111600160201b83111715610c3757600080fd5b509092509050612615565b6106dc60048036036080811015610c5857600080fd5b506001600160a01b03813581169160208101359091169060408101359060600135612768565b61077460048036036020811015610c9457600080fd5b50356127b9565b61068460048036036020811015610cb157600080fd5b50356001600160a01b03166127e0565b610684612859565b6106dc60048036036060811015610cdf57600080fd5b506001600160a01b0381358116916020810135909116906040013561285f565b610b1360048036036020811015610d1557600080fd5b50356001600160a01b0316612864565b61068460048036036020811015610d3b57600080fd5b50356001600160a01b0316612899565b610684600480360360a0811015610d6157600080fd5b506001600160a01b0381358116916020810135821691604082013581169160608101359091169060800135612912565b6106dc60048036036040811015610da757600080fd5b810190602081018135600160201b811115610dc157600080fd5b820183602082011115610dd357600080fd5b803590602001918460208302840111600160201b83111715610df457600080fd5b919390929091602081019035600160201b811115610e1157600080fd5b820183602082011115610e2357600080fd5b803590602001918460208302840111600160201b83111715610e4457600080fd5b509092509050612b03565b6106dc60048036036020811015610e6557600080fd5b5035612c4d565b6106dc60048036036080811015610e8257600080fd5b506001600160a01b03813581169160208101358216916040820135169060600135612c9c565b6106dc600480360360a0811015610ebe57600080fd5b506001600160a01b0381358116916020810135821691604082013581169160608101359091169060800135611e42565b6106dc600480360360a0811015610f0457600080fd5b810190602081018135600160201b811115610f1e57600080fd5b820183602082011115610f3057600080fd5b803590602001918460208302840111600160201b83111715610f5157600080fd5b9190808060200260200160405190810160405280939291908181526020018383602002808284376000920191909152509295949360208101935035915050600160201b811115610fa057600080fd5b820183602082011115610fb257600080fd5b803590602001918460208302840111600160201b83111715610fd357600080fd5b9190808060200260200160405190810160405280939291908181526020018383602002808284376000920191909152509295505050508035151591506020810135151590604001351515612ca1565b610684612fd6565b61064a612fdc565b6106dc6004803603602081101561104857600080fd5b50356001600160a01b0316612fea565b6107746130a7565b6107746130b6565b6106dc6004803603604081101561107e57600080fd5b6001600160a01b038235169190810190604081016020820135600160201b8111156110a857600080fd5b8201836020820111156110ba57600080fd5b803590602001918460208302840111600160201b831117156110db57600080fd5b9190808060200260200160405190810160405280939291908181526020018383602002808284376000920191909152509295506130c5945050505050565b610684613122565b6106846004803603602081101561113757600080fd5b50356001600160a01b0316613128565b6106dc6004803603602081101561115d57600080fd5b50356001600160a01b031661313a565b6111936004803603602081101561118357600080fd5b50356001600160a01b031661315c565b6040805193151584526020840192909252151582820152519081900360600190f35b6106dc600480360360208110156111cb57600080fd5b50356001600160a01b0316613182565b6107746131a4565b61064a600480360360408110156111f957600080fd5b506001600160a01b03813581169160200135166131b3565b6106846131e7565b6107746131ed565b6106846004803603602081101561123757600080fd5b50356001600160a01b03166131fc565b6106846004803603602081101561125d57600080fd5b50356001600160a01b0316613274565b6106dc6004803603604081101561128357600080fd5b506001600160a01b0381351690602001356132ed565b6106dc600480360360408110156112af57600080fd5b506001600160a01b038135169060200135613315565b610684600480360360208110156112db57600080fd5b50356001600160a01b03166133d7565b6113176004803603604081101561130157600080fd5b506001600160a01b03813516906020013561355c565b6040805192835260208301919091528051918290030190f35b6106dc6004803603602081101561134657600080fd5b50356135fb565b61092b6004803603602081101561136357600080fd5b50356001600160a01b0316613600565b6106dc6004803603602081101561138957600080fd5b50356001600160a01b0316613676565b61092b6136da565b61077461373c565b6113cf600480360360208110156113bf57600080fd5b50356001600160a01b031661374b565b604080516001600160e01b03909316835263ffffffff90911660208301528051918290030190f35b610774613775565b6106dc6004803603602081101561141557600080fd5b50356001600160a01b0316613784565b6106846004803603608081101561143b57600080fd5b506001600160a01b038135811691602081013582169160408201351690606001356137ef565b6106dc6004803603602081101561147757600080fd5b50356001600160a01b031661383d565b61068461385e565b610774613864565b61092b600480360360208110156114ad57600080fd5b810190602081018135600160201b8111156114c757600080fd5b8201836020820111156114d957600080fd5b803590602001918460208302840111600160201b831117156114fa57600080fd5b509092509050613873565b6113176004803603606081101561151b57600080fd5b506001600160a01b03813581169160208101359091169060400135613909565b6115436139b1565b604080516001600160e01b039092168252519081900360200190f35b6107746139c4565b6107746139d3565b610684600480360360a081101561158557600080fd5b506001600160a01b03813581169160208101358216916040820135811691606081013590911690608001356139e2565b6106dc600480360360808110156115cb57600080fd5b810190602081018135600160201b8111156115e557600080fd5b8201836020820111156115f757600080fd5b803590602001918460208302840111600160201b8311171561161857600080fd5b9190808060200260200160405190810160405280939291908181526020018383602002808284376000920191909152509295949360208101935035915050600160201b81111561166757600080fd5b82018360208201111561167957600080fd5b803590602001918460208302840111600160201b8311171561169a57600080fd5b919080806020026020016040519081016040528093929190818152602001838360200280828437600092019190915250929550505050803515159150602001351515613b61565b610684600480360360608110156116f757600080fd5b506001600160a01b03813581169160208101359091169060400135613b6f565b610774613cf4565b6106846004803603606081101561173557600080fd5b506001600160a01b03813581169160208101359091169060400135613d03565b6107746004803603604081101561176b57600080fd5b506001600160a01b03813516906020013561405b565b610774614090565b6106dc61409f565b6113cf600480360360208110156117a757600080fd5b50356001600160a01b03166142cf565b610684600480360360408110156117cd57600080fd5b506001600160a01b0381351690602001356142f9565b61064a600480360360408110156117f957600080fd5b5080356001600160a01b0316906020013560ff1661449b565b6106846144db565b6106846004803603606081101561183057600080fd5b506001600160a01b038135811691602081013590911690604001356144e1565b6106846004803603602081101561186657600080fd5b50356001600160a01b0316614530565b6107746147e7565b6106846004803603602081101561189457600080fd5b50356001600160a01b03166147ff565b61077461486e565b61068461487d565b610684600480360360208110156118ca57600080fd5b5035614883565b610684600480360360408110156118e757600080fd5b506001600160a01b038135169060200135614892565b600181565b60276020526000908152604090205481565b60225481565b601360209081526000928352604080842090915290825290205481565b601d5481565b6060600d80548060200260200160405190810160405280929190818152602001828054801561199557602002820191906000526020600020905b81546001600160a01b03168152600190910190602001808311611977575b50939450600093505050505b8151811015611a5b5760008282815181106119b857fe5b602002602001015190506119ca61658c565b6040518060200160405280836001600160a01b031663aa5af0fd6040518163ffffffff1660e01b815260040160206040518083038186803b158015611a0e57600080fd5b505afa158015611a22573d6000803e3d6000fd5b505050506040513d6020811015611a3857600080fd5b505190529050611a478261493f565b611a518282614bc9565b50506001016119a1565b50611a6461658c565b60405180602001604052806000815250905060608251604051908082528060200260200182016040528015611ab357816020015b611aa061658c565b815260200190600190039081611a985790505b50905060005b8351811015611c3d576000848281518110611ad057fe5b602002602001015190506000600f6000836001600160a01b03166001600160a01b03168152602001908152602001600020541115611c3457611b1061658c565b60408051602080820180845260045463fc57d4df60e01b9091526001600160a01b03868116602485015293519293849391169163fc57d4df916044808601929190818703018186803b158015611b6557600080fd5b505afa158015611b79573d6000803e3d6000fd5b505050506040513d6020811015611b8f57600080fd5b505190529050611b9d61658c565b611c0b82846001600160a01b03166347bd37186040518163ffffffff1660e01b815260040160206040518083038186803b158015611bda57600080fd5b505afa158015611bee573d6000803e3d6000fd5b505050506040513d6020811015611c0457600080fd5b5051614e5d565b905080858581518110611c1a57fe5b6020026020010181905250611c2f8682614e87565b955050505b50600101611ab9565b5060005b8351811015611cbc576000600d8281548110611c5957fe5b600091825260208220015485516001600160a01b039091169250611c7e576000611ca6565b611ca6600e54611ca1868681518110611c9357fe5b602002602001015188614eac565b614edf565b9050611cb28282614f07565b5050600101611c41565b50505050565b600f6020526000908152604090205481565b806001600160a01b031663f851a4406040518163ffffffff1660e01b815260040160206040518083038186803b158015611d0d57600080fd5b505afa158015611d21573d6000803e3d6000fd5b505050506040513d6020811015611d3757600080fd5b50516001600160a01b03163314611d95576040805162461bcd60e51b815260206004820152601960248201527f6f6e6c7920756e6974726f6c6c65722061646d696e2063616e00000000000000604482015290519081900360640190fd5b806001600160a01b031663c1e803346040518163ffffffff1660e01b8152600401602060405180830381600087803b158015611dd057600080fd5b505af1158015611de4573d6000803e3d6000fd5b505050506040513d6020811015611dfa57600080fd5b505115611e3f576040805162461bcd60e51b815260206004820152600e60248201526d1b9bdd08185d5d1a1bdc9a5e995960921b604482015290519081900360640190fd5b50565b5050505050565b601e546001600160a01b031681565b6000611e62615245565b611e6d856003615298565b6001600160a01b0385166000908152600960205260409020611e8e906152e7565b611e9661658c565b6040518060200160405280876001600160a01b031663aa5af0fd6040518163ffffffff1660e01b815260040160206040518083038186803b158015611eda57600080fd5b505afa158015611eee573d6000803e3d6000fd5b505050506040513d6020811015611f0457600080fd5b505190529050611f148682614bc9565b611f1f868583615331565b60009150505b949350505050565b600a546001600160a01b031681565b6001546001600160a01b031681565b6000611f8b6040518060400160405280601881526020017f5f73657450726f746f636f6c50617573656428626f6f6c290000000000000000815250615514565b6018805483151562010000810262ff0000199092169190911790915560408051918252517fd7500633dd3ddd74daa7af62f8c8404c7fe4a81da179998db851696bed004b389181900360200190a150805b919050565b6120026040518060600160405280602b81526020016166be602b9139615514565b60005b848110156120715760005b838110156120685761206087878481811061202757fe5b905060200201356001600160a01b031686868481811061204357fe5b9050602002013560088111801561205957600080fd5b5085615635565b600101612010565b50600101612005565b505050505050565b60166020526000908152604090205481565b6000612095615744565b6017805490839055604080518281526020810185905281517f73747d68b346dce1e932bcd238282e7ac84c01569e1f8d0469c222fdc6e9d5a4929181900390910190a160005b9392505050565b60006120ec615744565b6005805490839055604080518281526020810185905281517f3b9670cf975d26958e754b57098eaa2ac914d8d2a31b83257997b9f346110fd9929181900390910190a160006120db565b602b546001600160a01b031681565b600d546060906000805b828110156121a75760096000600d838154811061216857fe5b60009182526020808320909101546001600160a01b0316835282019290925260400190206003015460ff161561219f576001909101905b60010161214f565b506060816040519080825280602002602001820160405280156121d4578160200160208202803883390190505b5090506000805b848110156122835760096000600d83815481106121f457fe5b60009182526020808320909101546001600160a01b0316835282019290925260400190206003015460ff161561227b57600d818154811061223157fe5b600091825260209091200154835160018401936001600160a01b03909216918591811061225a57fe5b60200260200101906001600160a01b031690816001600160a01b0316815250505b6001016121db565b509093505050505b90565b60185460ff1681565b601260209081526000928352604080842090915290825290205481565b60185462010000900460ff1681565b602a5490565b602c546001600160a01b031681565b612071565b601f6020526000908152604090205481565b60065481565b6001600160a01b031660009081526008602052604090205490565b612318615744565b61232183615794565b601b80546001600160a01b0385166001600160a01b03199091168117909155601c839055601d8290556040805191825260208201849052818101839052517f7059037d74ee16b0fb06a4a30f3348dd2635f301f92e373c92899a25a522ef6e9181900360600190a1505050565b6000806000806000806123a38a8a8a8a6157e7565b9250925092508260128111156123b557fe5b9a919950975095505050505050565b60006123ce615245565b6123d9846000615298565b6001600160a01b03841660009081526009602052604090206123fa906152e7565b6001600160a01b0384166000908152602760205260409020548061245e576040805162461bcd60e51b815260206004820152601660248201527506d61726b657420737570706c792063617020697320360541b604482015290519081900360640190fd5b6000856001600160a01b03166318160ddd6040518163ffffffff1660e01b815260040160206040518083038186803b15801561249957600080fd5b505afa1580156124ad573d6000803e3d6000fd5b505050506040513d60208110156124c357600080fd5b5051905060006124d382866158a6565b90508281111561252a576040805162461bcd60e51b815260206004820152601960248201527f6d61726b657420737570706c7920636170207265616368656400000000000000604482015290519081900360640190fd5b6125338761493f565b61253d87876158dc565b60005b979650505050505050565b600061256e60405180606001604052806021815260200161662160219139615514565b670de0b6b3a76400008210156125cb576040805162461bcd60e51b815260206004820152601b60248201527f696e63656e74697665206d757374206265206f76657220316531380000000000604482015290519081900360640190fd5b6006805490839055604080518281526020810185905281517faeba5a6c40a8ac138134bff1aaa65debf25971188a58804bad717f82f0ec1316929181900390910190a160006120db565b61263660405180606001604052806029815260200161664260299139615514565b8281811580159061264657508082145b612687576040805162461bcd60e51b815260206004820152600d60248201526c1a5b9d985b1a59081a5b9c1d5d609a1b604482015290519081900360640190fd5b60005b8281101561275f5784848281811061269e57fe5b90506020020135602760008989858181106126b557fe5b905060200201356001600160a01b03166001600160a01b03166001600160a01b03168152602001908152602001600020819055508686828181106126f557fe5b905060200201356001600160a01b03166001600160a01b03167f9e0ad9cee10bdf36b7fbd38910c0bdff0f275ace679b45b922381c2723d676f886868481811061273b57fe5b905060200201356040518082815260200191505060405180910390a260010161268a565b50505050505050565b80151580612774575081155b611cbc576040805162461bcd60e51b815260206004820152601160248201527072656465656d546f6b656e73207a65726f60781b604482015290519081900360640190fd5b600d81815481106127c657fe5b6000918252602090912001546001600160a01b0316905081565b60006127ea615744565b6127f382615794565b600480546001600160a01b038481166001600160a01b0319831681179093556040805191909216808252602082019390935281517fd52b2b9b7e9ee655fcb95d2e5b9e0c9f69e7ef2b8e9d2d0ea78402d576d22e22929181900390910190a160006120db565b602a5481565b505050565b60008060008060008061287b8760008060006157e7565b92509250925082601281111561288d57fe5b97919650945092505050565b60006128a3615744565b6128ac82615794565b600a80546001600160a01b038481166001600160a01b0319831681179093556040805191909216808252602082019390935281517f0613b6ee6a04f0d09f390e4d9318894b9f6ac7fd83897cd8d18896ba579c401e929181900390910190a160006120db565b600061291c615245565b612927866005615298565b6025546001600160a01b03161580159061294f57506025546001600160a01b03858116911614155b1561295e5760015b9050612afa565b6001600160a01b038516600090815260096020526040902061297f906152e7565b6015546001600160a01b038781169116146129b5576001600160a01b03861660009081526009602052604090206129b5906152e7565b6000806129c68560008060006157e7565b919350909150600090508260128111156129dc57fe5b146129f6578160128111156129ed57fe5b92505050612afa565b80612a025760036129ed565b6015546000906001600160a01b038a8116911614612aa357886001600160a01b03166395dd9193876040518263ffffffff1660e01b815260040180826001600160a01b03166001600160a01b0316815260200191505060206040518083038186803b158015612a7057600080fd5b505afa158015612a84573d6000803e3d6000fd5b505050506040513d6020811015612a9a57600080fd5b50519050612abe565b506001600160a01b0385166000908152601660205260409020545b6000612ada604051806020016040528060055481525083615b07565b905080861115612af1576011945050505050612afa565b60009450505050505b95945050505050565b612b2460405180606001604052806029815260200161666b60299139615514565b82818115801590612b3457508082145b612b75576040805162461bcd60e51b815260206004820152600d60248201526c1a5b9d985b1a59081a5b9c1d5d609a1b604482015290519081900360640190fd5b60005b8281101561275f57848482818110612b8c57fe5b90506020020135601f6000898985818110612ba357fe5b905060200201356001600160a01b03166001600160a01b03166001600160a01b0316815260200190815260200160002081905550868682818110612be357fe5b905060200201356001600160a01b03166001600160a01b03167f6f1951b2aad10f3fc81b86d91105b413a5b3f847a34bbc5ce1904201b14438f6868684818110612c2957fe5b905060200201356040518082815260200191505060405180910390a2600101612b78565b612c55615744565b601a805490829055604080518281526020810184905281517fe81d4ac15e5afa1e708e66664eddc697177423d950d133bda8262d8885e6da3b929181900390910190a15050565b611cbc565b600060608651604051908082528060200260200182016040528015612cd0578160200160208202803883390190505b509050600091505b8651821015612d2c576000612d04888481518110612cf257fe5b602002602001015160008060006157e7565b9250505080828481518110612d1557fe5b602090810291909101015250600190910190612cd8565b60005b8651811015612fcc576000878281518110612d4657fe5b60200260200101519050612d7d60096000836001600160a01b03166001600160a01b031681526020019081526020016000206152e7565b8615612ee057612d8b61658c565b6040518060200160405280836001600160a01b031663aa5af0fd6040518163ffffffff1660e01b815260040160206040518083038186803b158015612dcf57600080fd5b505afa158015612de3573d6000803e3d6000fd5b505050506040513d6020811015612df957600080fd5b505190529050612e098282614bc9565b600094505b8951851015612ede57612e35828b8781518110612e2757fe5b602002602001015183615331565b612e9f8a8681518110612e4457fe5b6020026020010151601460008d8981518110612e5c57fe5b60200260200101516001600160a01b03166001600160a01b0316815260200190815260200160002054868881518110612e9157fe5b602002602001015189615b26565b601460008c8881518110612eaf57fe5b6020908102919091018101516001600160a01b0316825281019190915260400160002055600190940193612e0e565b505b8515612fc357612eef8161493f565b600093505b8851841015612fc357612f1a818a8681518110612f0d57fe5b60200260200101516158dc565b612f84898581518110612f2957fe5b6020026020010151601460008c8881518110612f4157fe5b60200260200101516001600160a01b03166001600160a01b0316815260200190815260200160002054858781518110612f7657fe5b602002602001015188615b26565b601460008b8781518110612f9457fe5b6020908102919091018101516001600160a01b0316825281019190915260400160002055600190930192612ef4565b50600101612d2f565b5050505050505050565b601c5481565b601854610100900460ff1681565b60408051600180825281830190925260609160208083019080388339019050509050818160008151811061301a57fe5b60200260200101906001600160a01b031690816001600160a01b0316815250506130a381600d80548060200260200160405190810160405280929190818152602001828054801561309457602002820191906000526020600020905b81546001600160a01b03168152600190910190602001808311613076575b50505050506001806001612ca1565b5050565b601b546001600160a01b031681565b6004546001600160a01b031681565b6040805160018082528183019092526060916020808301908038833901905050905082816000815181106130f557fe5b60200260200101906001600160a01b031690816001600160a01b03168152505061285f8183600180613b61565b600e5481565b60146020526000908152604090205481565b602b80546001600160a01b0319166001600160a01b0392909216919091179055565b60096020526000908152604090208054600182015460039092015460ff91821692911683565b602c80546001600160a01b0319166001600160a01b0392909216919091179055565b6015546001600160a01b031681565b6001600160a01b038082166000908152600960209081526040808320938616835260029093019052205460ff165b92915050565b60075481565b6025546001600160a01b031681565b6000613206615744565b61320f82615794565b602680546001600160a01b038481166001600160a01b0319831617928390556040805192821680845293909116602083015280517f0f7eb572d1b3053a0a3a33c04151364cf88d163182a5e4e1088cb8e52321e08a9281900390910190a160006120db565b600061327e615744565b61328782615794565b601580546001600160a01b038481166001600160a01b0319831681179093556040805191909216808252602082019390935281517fe1ddcb2dab8e5b03cfc8c67a0d5861d91d16f7bd2612fd381faf4541d212c9b2929181900390910190a160006120db565b600254613302906001600160a01b0316615e17565b61330b82615794565b6130a38282614f07565b60025461332a906001600160a01b0316615e17565b60006133398383600080615b26565b9050801561338e576040805162461bcd60e51b815260206004820152601a60248201527f696e73756666696369656e742078767320666f72206772616e74000000000000604482015290519081900360640190fd5b604080516001600160a01b03851681526020810184905281517fd7fe674cac9eee3998fe3cbd7a6f93c3bc70509d97ec1550a59364be6438147e929181900390910190a1505050565b60006134176040518060400160405280601781526020017f5f737570706f72744d61726b6574286164647265737329000000000000000000815250615514565b6001600160a01b03821660009081526009602052604090205460ff161561344b57613444600a6011615e79565b9050611fdc565b816001600160a01b0316633d9ea3a16040518163ffffffff1660e01b815260040160206040518083038186803b15801561348457600080fd5b505afa158015613498573d6000803e3d6000fd5b505050506040513d60208110156134ae57600080fd5b5050604080516060810182526001808252600060208381018281528486018381526001600160a01b03891684526009909252949091209251835490151560ff1991821617845593519183019190915551600390910180549115159190921617905561351882615edf565b604080516001600160a01b038416815290517fcf583bb0c569eb967f806b11601c4cb93c10310485c67add5f8362c2f212321f9181900360200190a1600092915050565b602654604080516304f65f8b60e21b81523060048201526001600160a01b038581166024830152604482018590528251600094859485948594909216926313d97e2c926064808201939291829003018186803b1580156135bb57600080fd5b505afa1580156135cf573d6000803e3d6000fd5b505050506040513d60408110156135e557600080fd5b5080516020909101519097909650945050505050565b602a55565b6001600160a01b03811660009081526008602090815260409182902080548351818402810184019094528084526060939283018282801561366a57602002820191906000526020600020905b81546001600160a01b0316815260019091019060200180831161364c575b50505050509050919050565b611e3f81600d8054806020026020016040519081016040528092919081815260200182805480156136d057602002820191906000526020600020905b81546001600160a01b031681526001909101906020018083116136b2575b50505050506130c5565b6060600d80548060200260200160405190810160405280929190818152602001828054801561373257602002820191906000526020600020905b81546001600160a01b03168152600190910190602001808311613714575b5050505050905090565b6020546001600160a01b031681565b6010602052600090815260409020546001600160e01b03811690600160e01b900463ffffffff1682565b6002546001600160a01b031681565b61378c615744565b602580546001600160a01b038381166001600160a01b0319831681179093556040805191909216808252602082019390935281517fa5ea5616d5f6dbbaa62fdfcf3856723216eed485c394d9e51ec8e6d40e1d1ac1929181900390910190a15050565b60006137f9615245565b613804856006615298565b6000613811868685615fbd565b90508015613820579050611f25565b6138298661493f565b61383386866158dc565b611f1f86856158dc565b6001600160a01b03166000908152600960205260409020805460ff19169055565b60175481565b602b546001600160a01b031690565b604080518281526020808402820101909152606090829082908280156138a3578160200160208202803883390190505b50905060005b82811015613900576138d68686838181106138c057fe5b905060200201356001600160a01b031633616063565b60128111156138e157fe5b8282815181106138ed57fe5b60209081029190910101526001016138a9565b50949350505050565b60265460408051630779996560e11b81523060048201526001600160a01b038681166024830152858116604483015260648201859052825160009485948594859490921692630ef332ca926084808201939291829003018186803b15801561397057600080fd5b505afa158015613984573d6000803e3d6000fd5b505050506040513d604081101561399a57600080fd5b508051602090910151909890975095505050505050565b6ec097ce7bc90715b34b9f100000000081565b6021546001600160a01b031681565b602c546001600160a01b031690565b60006139ec615245565b6139f7866004615298565b6001600160a01b0386166000908152600960205260409020613a18906152e7565b6015546001600160a01b03868116911614613a4e576001600160a01b0385166000908152600960205260409020613a4e906152e7565b846001600160a01b0316635fe3b5676040518163ffffffff1660e01b815260040160206040518083038186803b158015613a8757600080fd5b505afa158015613a9b573d6000803e3d6000fd5b505050506040513d6020811015613ab157600080fd5b505160408051635fe3b56760e01b815290516001600160a01b0392831692891691635fe3b567916004808301926020929190829003018186803b158015613af757600080fd5b505afa158015613b0b573d6000803e3d6000fd5b505050506040513d6020811015613b2157600080fd5b50516001600160a01b031614613b38576002612957565b613b418661493f565b613b4b86846158dc565b613b5586856158dc565b60009695505050505050565b611cbc848484846000612ca1565b602054600090613b87906001600160a01b0316615e17565b670de0b6b3a76400008210613be3576040805162461bcd60e51b815260206004820152601d60248201527f74726561737572792070657263656e7420636170206f766572666c6f77000000604482015290519081900360640190fd5b613bec84615794565b613bf583615794565b6020805460218054602280546001600160a01b038a81166001600160a01b0319808816821789558b8316908616179095559188905560408051958316808752968601949094528351929091169390927f29f06ea15931797ebaed313d81d100963dc22cb213cb4ce2737b5a62b1a8b1e892918290030190a1604080516001600160a01b0380851682528816602082015281517f8de763046d7b8f08b6c3d03543de1d615309417842bb5d2d62f110f65809ddac929181900390910190a1604080518281526020810187905281517f0893f8f4101baaabbeb513f96761e7a36eb837403c82cc651c292a4abdc94ed7929181900390910190a16000612540565b6026546001600160a01b031681565b6000613d0d615245565b613d18846002615298565b6001600160a01b0384166000908152600960205260409020613d39906152e7565b6001600160a01b038085166000908152600960209081526040808320938716835260029093019052205460ff16613df657336001600160a01b03851614613dbf576040805162461bcd60e51b815260206004820152601560248201527439b2b73232b91036bab9ba103132903b2a37b5b2b760591b604482015290519081900360640190fd5b6000613dcb8585616063565b90506000816012811115613ddb57fe5b14613df457806012811115613dec57fe5b9150506120db565b505b600480546040805163fc57d4df60e01b81526001600160a01b03888116948201949094529051929091169163fc57d4df91602480820192602092909190829003018186803b158015613e4757600080fd5b505afa158015613e5b573d6000803e3d6000fd5b505050506040513d6020811015613e7157600080fd5b5051613e8157600d5b90506120db565b6001600160a01b0384166000908152601f60205260409020548015613f6e576000856001600160a01b03166347bd37186040518163ffffffff1660e01b815260040160206040518083038186803b158015613edb57600080fd5b505afa158015613eef573d6000803e3d6000fd5b505050506040513d6020811015613f0557600080fd5b505190506000613f1582866158a6565b9050828110613f6b576040805162461bcd60e51b815260206004820152601960248201527f6d61726b657420626f72726f7720636170207265616368656400000000000000604482015290519081900360640190fd5b50505b600080613f7e86886000886157e7565b91935090915060009050826012811115613f9457fe5b14613faf57816012811115613fa557fe5b93505050506120db565b8015613fbc576004613fa5565b613fc461658c565b6040518060200160405280896001600160a01b031663aa5af0fd6040518163ffffffff1660e01b815260040160206040518083038186803b15801561400857600080fd5b505afa15801561401c573d6000803e3d6000fd5b505050506040513d602081101561403257600080fd5b5051905290506140428882614bc9565b61404d888883615331565b600098975050505050505050565b6008602052816000526040600020818154811061407457fe5b6000918252602090912001546001600160a01b03169150829050565b6003546001600160a01b031681565b601c5415806140b65750601c546140b46122c3565b105b156140c0576142cd565b60006140ca613864565b604080516370a0823160e01b815230600482015290519192506000916001600160a01b038416916370a08231916024808301926020929190829003018186803b15801561411657600080fd5b505afa15801561412a573d6000803e3d6000fd5b505050506040513d602081101561414057600080fd5b50519050806141505750506142cd565b60008061416661415e6122c3565b601c54616157565b90506000614176601a5483616191565b90508084106141875780925061418b565b8392505b601d5483101561419f5750505050506142cd565b6141a76122c3565b601c55601b546040805163a9059cbb60e01b81526001600160a01b0392831660048201526024810186905290519187169163a9059cbb916044808201926020929091908290030181600087803b15801561420057600080fd5b505af1158015614214573d6000803e3d6000fd5b505050506040513d602081101561422a57600080fd5b50506040805184815290517ff6d4b8f74d85a6e2d7a50225957b8a6cfec69ad92f5905627260541aa0a5565d9181900360200190a1601b60009054906101000a90046001600160a01b03166001600160a01b031663faa1809e6040518163ffffffff1660e01b8152600401600060405180830381600087803b1580156142af57600080fd5b505af11580156142c3573d6000803e3d6000fd5b5050505050505050505b565b6011602052600090815260409020546001600160e01b03811690600160e01b900463ffffffff1682565b600061431c60405180606001604052806025815260200161672b60259139615514565b61432583615794565b6001600160a01b0383166000908152600960205260409020614346816152e7565b61434e61658c565b50604080516020810190915283815261436561658c565b506040805160208101909152670c7d713b49da0000815261438681836161d3565b156143a15761439760066008615e79565b93505050506131e1565b841580159061442a5750600480546040805163fc57d4df60e01b81526001600160a01b038a8116948201949094529051929091169163fc57d4df91602480820192602092909190829003018186803b1580156143fc57600080fd5b505afa158015614410573d6000803e3d6000fd5b505050506040513d602081101561442657600080fd5b5051155b1561443b57614397600d6009615e79565b60018301805490869055604080516001600160a01b03891681526020810183905280820188905290517f70483e6592cd5182d45ac970e05bc62cdcc90e9d8ef2c2dbe686cf383bcd7fc59181900360600190a16000979650505050505050565b6001600160a01b0382166000908152602960205260408120818360088111156144c057fe5b815260208101919091526040016000205460ff169392505050565b60055481565b60006144eb615245565b6144f6846001615298565b6000614503858585615fbd565b905080156145125790506120db565b61451b8561493f565b61452585856158dc565b600095945050505050565b600061453d826008615298565b604080516361bfb47160e11b815233600482015290518391600091829182916001600160a01b0386169163c37f68e2916024808301926080929190829003018186803b15801561458c57600080fd5b505afa1580156145a0573d6000803e3d6000fd5b505050506040513d60808110156145b657600080fd5b50805160208201516040909201519094509092509050821561461f576040805162461bcd60e51b815260206004820152601960248201527f6765744163636f756e74536e617073686f74206661696c656400000000000000604482015290519081900360640190fd5b801561463c57614631600c6002615e79565b945050505050611fdc565b6000614649873385615fbd565b9050801561466a5761465e600e6003836161da565b95505050505050611fdc565b6001600160a01b0385166000908152600960209081526040808320338452600281019092529091205460ff166146a95760009650505050505050611fdc565b3360009081526002820160209081526040808320805460ff1916905560089091528120805490915b8181101561478a57886001600160a01b03168382815481106146ef57fe5b6000918252602090912001546001600160a01b031614156147825782600183038154811061471957fe5b9060005260206000200160009054906101000a90046001600160a01b031683828154811061474357fe5b600091825260209091200180546001600160a01b0319166001600160a01b0392909216919091179055825461477c84600019830161659f565b5061478a565b6001016146d1565b81811061479357fe5b604080516001600160a01b038b16815233602082015281517fe699a64c18b07ac5b7301aa273f36a2287239eb9501d81950672794afba29a0d929181900390910190a160009b9a5050505050505050505050565b73151b1e2635a717bcdc836ecd6fbb62b674fe3e1d90565b6000614809615744565b602880546001600160a01b038481166001600160a01b0319831617928390556040805192821680845293909116602083015280517f0f1eca7612e020f6e4582bcead0573eba4b5f7b56668754c6aed82ef12057dd49281900390910190a160006120db565b6000546001600160a01b031681565b601a5481565b602a8054820190819055919050565b600061489c615245565b60185460ff161580156148b75750601854610100900460ff16155b6148f8576040805162461bcd60e51b815260206004820152600d60248201526c159052481a5cc81c185d5cd959609a1b604482015290519081900360640190fd5b6015546001600160a01b0316331461491d57614916600e6016615e79565b90506131e1565b6001600160a01b03831660009081526016602052604081208390559392505050565b6001600160a01b0381166000908152601060209081526040808320600f909252822054909161496c6122c3565b835490915060009061498c908390600160e01b900463ffffffff16616157565b905060008111801561499e5750600083115b15614b65576000856001600160a01b03166318160ddd6040518163ffffffff1660e01b815260040160206040518083038186803b1580156149de57600080fd5b505afa1580156149f2573d6000803e3d6000fd5b505050506040513d6020811015614a0857600080fd5b505190506000614a188386616191565b9050614a2261658c565b60008311614a3f5760405180602001604052806000815250614a49565b614a498284616240565b9050614a5361658c565b604080516020810190915288546001600160e01b03168152614a759083614e87565b90506040518060400160405280614abb8360000151604051806040016040528060138152602001726e657720696e646578206f766572666c6f777360681b815250616275565b6001600160e01b03168152602001614b018860405180604001604052806016815260200175626c6f636b206e756d626572206f766572666c6f777360501b81525061630f565b63ffffffff9081169091526001600160a01b038b166000908152601060209081526040909120835181549490920151909216600160e01b026001600160e01b039182166001600160e01b0319909416939093171691909117905550611e4292505050565b8015611e4257614ba38260405180604001604052806016815260200175626c6f636b206e756d626572206f766572666c6f777360501b81525061630f565b845463ffffffff91909116600160e01b026001600160e01b039091161784555050505050565b6001600160a01b0382166000908152601160209081526040808320600f9092528220549091614bf66122c3565b8354909150600090614c16908390600160e01b900463ffffffff16616157565b9050600081118015614c285750600083115b15614df8576000614c9d876001600160a01b03166347bd37186040518163ffffffff1660e01b815260040160206040518083038186803b158015614c6b57600080fd5b505afa158015614c7f573d6000803e3d6000fd5b505050506040513d6020811015614c9557600080fd5b505187616364565b90506000614cab8386616191565b9050614cb561658c565b60008311614cd25760405180602001604052806000815250614cdc565b614cdc8284616240565b9050614ce661658c565b604080516020810190915288546001600160e01b03168152614d089083614e87565b90506040518060400160405280614d4e8360000151604051806040016040528060138152602001726e657720696e646578206f766572666c6f777360681b815250616275565b6001600160e01b03168152602001614d948860405180604001604052806016815260200175626c6f636b206e756d626572206f766572666c6f777360501b81525061630f565b63ffffffff9081169091526001600160a01b038c166000908152601160209081526040909120835181549490920151909216600160e01b026001600160e01b039182166001600160e01b031990941693909317169190911790555061207192505050565b801561207157614e368260405180604001604052806016815260200175626c6f636b206e756d626572206f766572666c6f777360501b81525061630f565b845463ffffffff91909116600160e01b026001600160e01b03909116178455505050505050565b614e6561658c565b6040518060200160405280614e7e856000015185616191565b90529392505050565b614e8f61658c565b6040518060200160405280614e7e856000015185600001516158a6565b614eb461658c565b6040518060200160405280614e7e614ed88660000151670de0b6b3a7640000616191565b855161637e565b6000670de0b6b3a7640000614ef8848460000151616191565b81614eff57fe5b049392505050565b6001600160a01b0382166000908152600f60205260409020548015614fbb57614f2e61658c565b6040518060200160405280856001600160a01b031663aa5af0fd6040518163ffffffff1660e01b815260040160206040518083038186803b158015614f7257600080fd5b505afa158015614f86573d6000803e3d6000fd5b505050506040513d6020811015614f9c57600080fd5b505190529050614fab8461493f565b614fb58482614bc9565b506151e9565b81156151e9576001600160a01b0383166000908152600960205260409020614fe2906152e7565b6001600160a01b0383166000908152601060205260409020546001600160e01b031615801561503457506001600160a01b038316600090815260106020526040902054600160e01b900463ffffffff16155b156151035760405180604001604052806ec097ce7bc90715b34b9f10000000006001600160e01b031681526020016150a861506d6122c3565b6040518060400160405280601c81526020017f626c6f636b206e756d626572206578636565647320333220626974730000000081525061630f565b63ffffffff9081169091526001600160a01b0385166000908152601060209081526040909120835181549490920151909216600160e01b026001600160e01b039182166001600160e01b031990941693909317169190911790555b6001600160a01b0383166000908152601160205260409020546001600160e01b031615801561515557506001600160a01b038316600090815260116020526040902054600160e01b900463ffffffff16155b156151e95760405180604001604052806ec097ce7bc90715b34b9f10000000006001600160e01b0316815260200161518e61506d6122c3565b63ffffffff9081169091526001600160a01b0385166000908152601160209081526040909120835181549490920151909216600160e01b026001600160e01b039182166001600160e01b031990941693909317169190911790555b81811461285f576001600160a01b0383166000818152600f6020908152604091829020859055815185815291517f2a0ce45ba05a83e75ba21e1a10d6b48a8395028cc6e1ae66f6c313648379d5489281900390910190a2505050565b60185462010000900460ff16156142cd576040805162461bcd60e51b81526020600482015260126024820152711c1c9bdd1bd8dbdb081a5cc81c185d5cd95960721b604482015290519081900360640190fd5b6152a2828261449b565b156130a3576040805162461bcd60e51b815260206004820152601060248201526f1858dd1a5bdb881a5cc81c185d5cd95960821b604482015290519081900360640190fd5b805460ff16611e3f576040805162461bcd60e51b81526020600482015260116024820152701b585c9ad95d081b9bdd081b1a5cdd1959607a1b604482015290519081900360640190fd5b601b546001600160a01b03161561534a5761534a61409f565b6153526165c3565b506001600160a01b0383166000908152601160209081526040918290208251808401909352546001600160e01b0381168352600160e01b900463ffffffff169082015261539d61658c565b50604080516020810190915281516001600160e01b031681526153be61658c565b5060408051602080820183526001600160a01b03808916600090815260138352848120918916808252828452948120805485528651959091529152919091558051156120715761540c61658c565b61541683836163b1565b90506000615473886001600160a01b03166395dd9193896040518263ffffffff1660e01b815260040180826001600160a01b03166001600160a01b0316815260200191505060206040518083038186803b158015614c6b57600080fd5b9050600061548182846163d6565b6001600160a01b038916600090815260146020526040812054919250906154a890836158a6565b6001600160a01b03808b166000818152601460209081526040918290208590558a5182518881529182015281519495509193928e16927f837bdc11fca9f17ce44167944475225a205279b17e88c791c3b1f66f354668fb9281900390910190a350505050505050505050565b602854604080516318c5e8ab60e01b81523360048201818152602483019384528551604484015285516001600160a01b03909516946318c5e8ab949293879391606490910190602085019080838360005b8381101561557d578181015183820152602001615565565b50505050905090810190601f1680156155aa5780820380516001836020036101000a031916815260200191505b50935050505060206040518083038186803b1580156155c857600080fd5b505afa1580156155dc573d6000803e3d6000fd5b505050506040513d60208110156155f257600080fd5b5051611e3f576040805162461bcd60e51b815260206004820152600d60248201526c1858d8d95cdcc819195b9a5959609a1b604482015290519081900360640190fd5b6001600160a01b03831660009081526009602052604090205460ff1661568c5760405162461bcd60e51b81526004018080602001828103825260288152602001806165f96028913960400191505060405180910390fd5b6001600160a01b038316600090815260296020526040812082918460088111156156b257fe5b815260200190815260200160002060006101000a81548160ff0219169083151502179055507f35007a986bcd36d2f73fc7f1b73762e12eadb4406dd163194950fd3b5a6a827d83838360405180846001600160a01b03166001600160a01b0316815260200183600881111561572357fe5b60ff16815291151560208301525060408051918290030192509050a1505050565b6000546001600160a01b031633146142cd576040805162461bcd60e51b815260206004820152600e60248201526d37b7363c9030b236b4b71031b0b760911b604482015290519081900360640190fd5b6001600160a01b038116611e3f576040805162461bcd60e51b815260206004820152601560248201527463616e2774206265207a65726f206164647265737360581b604482015290519081900360640190fd5b6026546040805163a7032efb60e01b81523060048201526001600160a01b03878116602483015286811660448301526064820186905260848201859052915160009384938493849384938493169163a7032efb9160a4808301926060929190829003018186803b15801561585a57600080fd5b505afa15801561586e573d6000803e3d6000fd5b505050506040513d606081101561588457600080fd5b508051602082015160409092015190945090925090508260128111156123b557fe5b60006120db8383604051806040016040528060118152602001706164646974696f6e206f766572666c6f7760781b8152506163f6565b601b546001600160a01b0316156158f5576158f561409f565b6158fd6165c3565b506001600160a01b0382166000908152601060209081526040918290208251808401909352546001600160e01b0381168352600160e01b900463ffffffff169082015261594861658c565b50604080516020810190915281516001600160e01b0316815261596961658c565b5060408051602080820183526001600160a01b038088166000908152601283528481209188168082528284529481208054855286519590915291529190915580511580156159b75750815115155b156159cf576ec097ce7bc90715b34b9f100000000081525b6159d761658c565b6159e183836163b1565b90506000866001600160a01b03166370a08231876040518263ffffffff1660e01b815260040180826001600160a01b03166001600160a01b0316815260200191505060206040518083038186803b158015615a3b57600080fd5b505afa158015615a4f573d6000803e3d6000fd5b505050506040513d6020811015615a6557600080fd5b505190506000615a7582846163d6565b6001600160a01b03881660009081526014602052604081205491925090615a9c90836158a6565b6001600160a01b03808a166000818152601460209081526040918290208590558a5182518881529182015281519495509193928d16927ffa9d964d891991c113b49e3db1932abd6c67263d387119707aafdd6c4010a3a99281900390910190a3505050505050505050565b6000615b1161658c565b615b1b8484614e5d565b9050611f258161644b565b600080615b31613864565b604080516370a0823160e01b815230600482015290519192506000916001600160a01b038416916370a08231916024808301926020929190829003018186803b158015615b7d57600080fd5b505afa158015615b91573d6000803e3d6000fd5b505050506040513d6020811015615ba757600080fd5b50519050841515861580615bba57508187115b15615bca57869350505050611f25565b80615c6857826001600160a01b031663a9059cbb89896040518363ffffffff1660e01b815260040180836001600160a01b03166001600160a01b0316815260200182815260200192505050602060405180830381600087803b158015615c2f57600080fd5b505af1158015615c43573d6000803e3d6000fd5b505050506040513d6020811015615c5957600080fd5b5060009450611f259350505050565b84615ca45760405162461bcd60e51b81526004018080602001828103825260428152602001806166e96042913960600191505060405180910390fd5b826001600160a01b031663095ea7b3615cbb6147e7565b896040518363ffffffff1660e01b815260040180836001600160a01b03166001600160a01b0316815260200182815260200192505050602060405180830381600087803b158015615d0b57600080fd5b505af1158015615d1f573d6000803e3d6000fd5b505050506040513d6020811015615d3557600080fd5b5060009050615d426147e7565b6001600160a01b03166323323e038a8a6040518363ffffffff1660e01b815260040180836001600160a01b03166001600160a01b0316815260200182815260200192505050602060405180830381600087803b158015615da157600080fd5b505af1158015615db5573d6000803e3d6000fd5b505050506040513d6020811015615dcb57600080fd5b505114615e095760405162461bcd60e51b815260040180806020018281038252602a815260200180616694602a913960400191505060405180910390fd5b506000979650505050505050565b6000546001600160a01b0316331480615e385750336001600160a01b038216145b611e3f576040805162461bcd60e51b815260206004820152600d60248201526c1858d8d95cdcc819195b9a5959609a1b604482015290519081900360640190fd5b60007f45b96fe442630264581b197e84bbada861235052c5a1aadfff9ea4e40a969aa0836012811115615ea857fe5b836017811115615eb457fe5b604080519283526020830191909152600082820152519081900360600190a18260128111156120db57fe5b60005b600d54811015615f6a57816001600160a01b0316600d8281548110615f0357fe5b6000918252602090912001546001600160a01b03161415615f62576040805162461bcd60e51b81526020600482015260146024820152731b585c9ad95d08185b1c9958591e48185919195960621b604482015290519081900360640190fd5b600101615ee2565b50600d80546001810182556000919091527fd7b6990105719101dabeb77144f2a3385c8033acd3af97e9423a695e81ad1eb50180546001600160a01b0319166001600160a01b0392909216919091179055565b6001600160a01b0383166000908152600960205260408120615fde906152e7565b6001600160a01b038085166000908152600960209081526040808320938716835260029093019052205460ff16616016576000613e7a565b60008061602685878660006157e7565b9193509091506000905082601281111561603c57fe5b146160565781601281111561604d57fe5b925050506120db565b8015613b5557600461604d565b6000616070836007615298565b6001600160a01b0383166000908152600960205260409020616091816152e7565b6001600160a01b038316600090815260028201602052604090205460ff16156160be5760009150506131e1565b6001600160a01b0380841660008181526002840160209081526040808320805460ff19166001908117909155600883528184208054918201815584529282902090920180549489166001600160a01b031990951685179055815193845283019190915280517f3ab23ab0d51cccc0c3085aec51f99228625aa1a922b3a8ca89a26b0f2027a1a59281900390910190a15060009392505050565b60006120db8383604051806040016040528060158152602001747375627472616374696f6e20756e646572666c6f7760581b81525061645a565b60006120db83836040518060400160405280601781526020017f6d756c7469706c69636174696f6e206f766572666c6f770000000000000000008152506164b4565b5190511090565b60007f45b96fe442630264581b197e84bbada861235052c5a1aadfff9ea4e40a969aa084601281111561620957fe5b84601781111561621557fe5b604080519283526020830191909152818101859052519081900360600190a1836012811115611f2557fe5b61624861658c565b6040518060200160405280614e7e61626f866ec097ce7bc90715b34b9f1000000000616191565b8561637e565b600081600160e01b84106163075760405162461bcd60e51b81526004018080602001828103825283818151815260200191508051906020019080838360005b838110156162cc5781810151838201526020016162b4565b50505050905090810190601f1680156162f95780820380516001836020036101000a031916815260200191505b509250505060405180910390fd5b509192915050565b600081600160201b84106163075760405162461bcd60e51b81526020600482018181528351602484015283519092839260449091019190850190808383600083156162cc5781810151838201526020016162b4565b60006120db61637b84670de0b6b3a7640000616191565b83515b60006120db83836040518060400160405280600e81526020016d646976696465206279207a65726f60901b81525061652a565b6163b961658c565b6040518060200160405280614e7e85600001518560000151616157565b60006ec097ce7bc90715b34b9f1000000000614ef8848460000151616191565b600083830182858210156139005760405162461bcd60e51b81526020600482018181528351602484015283519092839260449091019190850190808383600083156162cc5781810151838201526020016162b4565b51670de0b6b3a7640000900490565b600081848411156164ac5760405162461bcd60e51b81526020600482018181528351602484015283519092839260449091019190850190808383600083156162cc5781810151838201526020016162b4565b505050900390565b60008315806164c1575082155b156164ce575060006120db565b838302838582816164db57fe5b041483906139005760405162461bcd60e51b81526020600482018181528351602484015283519092839260449091019190850190808383600083156162cc5781810151838201526020016162b4565b600081836165795760405162461bcd60e51b81526020600482018181528351602484015283519092839260449091019190850190808383600083156162cc5781810151838201526020016162b4565b5082848161658357fe5b04949350505050565b6040518060200160405280600081525090565b81548183558181111561285f5760008381526020902061285f9181019083016165da565b604080518082019091526000808252602082015290565b61228b91905b808211156165f457600081556001016165e0565b509056fe63616e6e6f742070617573652061206d61726b65742074686174206973206e6f74206c69737465645f7365744c69717569646174696f6e496e63656e746976652875696e74323536295f7365744d61726b6574537570706c794361707328616464726573735b5d2c75696e743235365b5d295f7365744d61726b6574426f72726f774361707328616464726573735b5d2c75696e743235365b5d296d696e7420626568616c66206572726f7220647572696e6720636f6c6c61746572616c697a65207876735f736574416374696f6e7350617573656428616464726573735b5d2c75696e743235365b5d2c626f6f6c2962616e6b72757074206163636f756e74732063616e206f6e6c7920636f6c6c61746572616c697a652074686569722070656e64696e672078767320726577617264735f736574436f6c6c61746572616c466163746f7228616464726573732c75696e7432353629a265627a7a723158209515bd277708682020b16a49d4e737f62ed8067a6ff35efa579c38da21339a6464736f6c63430005100032",
  "linkReferences": {},
  "deployedLinkReferences": {}
}