{
  "_format": "hh-sol-artifact-1",
  "contractName": "ComptrollerG1",
  "sourceName": "contracts/ComptrollerG1.sol",
  "abi": [
    {
      "inputs": [],
      "payable": false,
      "stateMutability": "nonpayable",
      "type": "constructor"
    },
    {
      "anonymous": false,
      "inputs": [
        {
          "indexed": false,
          "internalType": "string",
          "name": "action",
          "type": "string"
        },
        {
          "indexed": false,
          "internalType": "bool",
          "name": "pauseState",
          "type": "bool"
        }
      ],
      "name": "ActionPaused",
      "type": "event"
    },
    {
      "anonymous": false,
      "inputs": [
        {
          "indexed": false,
          "internalType": "contract VToken",
          "name": "vToken",
          "type": "address"
        },
        {
          "indexed": false,
          "internalType": "string",
          "name": "action",
          "type": "string"
        },
        {
          "indexed": false,
          "internalType": "bool",
          "name": "pauseState",
          "type": "bool"
        }
      ],
      "name": "ActionPaused",
      "type": "event"
    },
    {
      "anonymous": false,
      "inputs": [
        {
          "indexed": false,
          "internalType": "bool",
          "name": "state",
          "type": "bool"
        }
      ],
      "name": "ActionProtocolPaused",
      "type": "event"
    },
    {
      "anonymous": false,
      "inputs": [
        {
          "indexed": true,
          "internalType": "contract VToken",
          "name": "vToken",
          "type": "address"
        },
        {
          "indexed": true,
          "internalType": "address",
          "name": "borrower",
          "type": "address"
        },
        {
          "indexed": false,
          "internalType": "uint256",
          "name": "venusDelta",
          "type": "uint256"
        },
        {
          "indexed": false,
          "internalType": "uint256",
          "name": "venusBorrowIndex",
          "type": "uint256"
        }
      ],
      "name": "DistributedBorrowerVenus",
      "type": "event"
    },
    {
      "anonymous": false,
      "inputs": [
        {
          "indexed": true,
          "internalType": "contract VToken",
          "name": "vToken",
          "type": "address"
        },
        {
          "indexed": true,
          "internalType": "address",
          "name": "supplier",
          "type": "address"
        },
        {
          "indexed": false,
          "internalType": "uint256",
          "name": "venusDelta",
          "type": "uint256"
        },
        {
          "indexed": false,
          "internalType": "uint256",
          "name": "venusSupplyIndex",
          "type": "uint256"
        }
      ],
      "name": "DistributedSupplierVenus",
      "type": "event"
    },
    {
      "anonymous": false,
      "inputs": [
        {
          "indexed": true,
          "internalType": "address",
          "name": "vaiMinter",
          "type": "address"
        },
        {
          "indexed": false,
          "internalType": "uint256",
          "name": "venusDelta",
          "type": "uint256"
        },
        {
          "indexed": false,
          "internalType": "uint256",
          "name": "venusVAIMintIndex",
          "type": "uint256"
        }
      ],
      "name": "DistributedVAIMinterVenus",
      "type": "event"
    },
    {
      "anonymous": false,
      "inputs": [
        {
          "indexed": false,
          "internalType": "uint256",
          "name": "error",
          "type": "uint256"
        },
        {
          "indexed": false,
          "internalType": "uint256",
          "name": "info",
          "type": "uint256"
        },
        {
          "indexed": false,
          "internalType": "uint256",
          "name": "detail",
          "type": "uint256"
        }
      ],
      "name": "Failure",
      "type": "event"
    },
    {
      "anonymous": false,
      "inputs": [
        {
          "indexed": false,
          "internalType": "contract VToken",
          "name": "vToken",
          "type": "address"
        },
        {
          "indexed": false,
          "internalType": "address",
          "name": "account",
          "type": "address"
        }
      ],
      "name": "MarketEntered",
      "type": "event"
    },
    {
      "anonymous": false,
      "inputs": [
        {
          "indexed": false,
          "internalType": "contract VToken",
          "name": "vToken",
          "type": "address"
        },
        {
          "indexed": false,
          "internalType": "address",
          "name": "account",
          "type": "address"
        }
      ],
      "name": "MarketExited",
      "type": "event"
    },
    {
      "anonymous": false,
      "inputs": [
        {
          "indexed": false,
          "internalType": "contract VToken",
          "name": "vToken",
          "type": "address"
        }
      ],
      "name": "MarketListed",
      "type": "event"
    },
    {
      "anonymous": false,
      "inputs": [
        {
          "indexed": false,
          "internalType": "contract VToken",
          "name": "vToken",
          "type": "address"
        },
        {
          "indexed": false,
          "internalType": "bool",
          "name": "isVenus",
          "type": "bool"
        }
      ],
      "name": "MarketVenus",
      "type": "event"
    },
    {
      "anonymous": false,
      "inputs": [
        {
          "indexed": false,
          "internalType": "uint256",
          "name": "oldCloseFactorMantissa",
          "type": "uint256"
        },
        {
          "indexed": false,
          "internalType": "uint256",
          "name": "newCloseFactorMantissa",
          "type": "uint256"
        }
      ],
      "name": "NewCloseFactor",
      "type": "event"
    },
    {
      "anonymous": false,
      "inputs": [
        {
          "indexed": false,
          "internalType": "contract VToken",
          "name": "vToken",
          "type": "address"
        },
        {
          "indexed": false,
          "internalType": "uint256",
          "name": "oldCollateralFactorMantissa",
          "type": "uint256"
        },
        {
          "indexed": false,
          "internalType": "uint256",
          "name": "newCollateralFactorMantissa",
          "type": "uint256"
        }
      ],
      "name": "NewCollateralFactor",
      "type": "event"
    },
    {
      "anonymous": false,
      "inputs": [
        {
          "indexed": false,
          "internalType": "uint256",
          "name": "oldLiquidationIncentiveMantissa",
          "type": "uint256"
        },
        {
          "indexed": false,
          "internalType": "uint256",
          "name": "newLiquidationIncentiveMantissa",
          "type": "uint256"
        }
      ],
      "name": "NewLiquidationIncentive",
      "type": "event"
    },
    {
      "anonymous": false,
      "inputs": [
        {
          "indexed": false,
          "internalType": "uint256",
          "name": "oldMaxAssets",
          "type": "uint256"
        },
        {
          "indexed": false,
          "internalType": "uint256",
          "name": "newMaxAssets",
          "type": "uint256"
        }
      ],
      "name": "NewMaxAssets",
      "type": "event"
    },
    {
      "anonymous": false,
      "inputs": [
        {
          "indexed": false,
          "internalType": "address",
          "name": "oldPauseGuardian",
          "type": "address"
        },
        {
          "indexed": false,
          "internalType": "address",
          "name": "newPauseGuardian",
          "type": "address"
        }
      ],
      "name": "NewPauseGuardian",
      "type": "event"
    },
    {
      "anonymous": false,
      "inputs": [
        {
          "indexed": false,
          "internalType": "contract PriceOracle",
          "name": "oldPriceOracle",
          "type": "address"
        },
        {
          "indexed": false,
          "internalType": "contract PriceOracle",
          "name": "newPriceOracle",
          "type": "address"
        }
      ],
      "name": "NewPriceOracle",
      "type": "event"
    },
    {
      "anonymous": false,
      "inputs": [
        {
          "indexed": false,
          "internalType": "contract VAIControllerInterface",
          "name": "oldVAIController",
          "type": "address"
        },
        {
          "indexed": false,
          "internalType": "contract VAIControllerInterface",
          "name": "newVAIController",
          "type": "address"
        }
      ],
      "name": "NewVAIController",
      "type": "event"
    },
    {
      "anonymous": false,
      "inputs": [
        {
          "indexed": false,
          "internalType": "uint256",
          "name": "oldVAIMintRate",
          "type": "uint256"
        },
        {
          "indexed": false,
          "internalType": "uint256",
          "name": "newVAIMintRate",
          "type": "uint256"
        }
      ],
      "name": "NewVAIMintRate",
      "type": "event"
    },
    {
      "anonymous": false,
      "inputs": [
        {
          "indexed": false,
          "internalType": "uint256",
          "name": "oldVenusRate",
          "type": "uint256"
        },
        {
          "indexed": false,
          "internalType": "uint256",
          "name": "newVenusRate",
          "type": "uint256"
        }
      ],
      "name": "NewVenusRate",
      "type": "event"
    },
    {
      "anonymous": false,
      "inputs": [
        {
          "indexed": true,
          "internalType": "contract VToken",
          "name": "vToken",
          "type": "address"
        },
        {
          "indexed": false,
          "internalType": "uint256",
          "name": "newSpeed",
          "type": "uint256"
        }
      ],
      "name": "VenusSpeedUpdated",
      "type": "event"
    },
    {
      "constant": false,
      "inputs": [
        {
          "internalType": "address[]",
          "name": "vTokens",
          "type": "address[]"
        }
      ],
      "name": "_addVenusMarkets",
      "outputs": [],
      "payable": false,
      "stateMutability": "nonpayable",
      "type": "function"
    },
    {
      "constant": false,
      "inputs": [
        {
          "internalType": "contract Unitroller",
          "name": "unitroller",
          "type": "address"
        }
      ],
      "name": "_become",
      "outputs": [],
      "payable": false,
      "stateMutability": "nonpayable",
      "type": "function"
    },
    {
      "constant": false,
      "inputs": [
        {
          "internalType": "address",
          "name": "vToken",
          "type": "address"
        }
      ],
      "name": "_dropVenusMarket",
      "outputs": [],
      "payable": false,
      "stateMutability": "nonpayable",
      "type": "function"
    },
    {
      "constant": false,
      "inputs": [
        {
          "internalType": "uint256",
          "name": "blockNumber",
          "type": "uint256"
        }
      ],
      "name": "_initializeVenusVAIState",
      "outputs": [],
      "payable": false,
      "stateMutability": "nonpayable",
      "type": "function"
    },
    {
      "constant": false,
      "inputs": [
        {
          "internalType": "contract VToken",
          "name": "vToken",
          "type": "address"
        },
        {
          "internalType": "bool",
          "name": "state",
          "type": "bool"
        }
      ],
      "name": "_setBorrowPaused",
      "outputs": [
        {
          "internalType": "bool",
          "name": "",
          "type": "bool"
        }
      ],
      "payable": false,
      "stateMutability": "nonpayable",
      "type": "function"
    },
    {
      "constant": false,
      "inputs": [
        {
          "internalType": "uint256",
          "name": "newCloseFactorMantissa",
          "type": "uint256"
        }
      ],
      "name": "_setCloseFactor",
      "outputs": [
        {
          "internalType": "uint256",
          "name": "",
          "type": "uint256"
        }
      ],
      "payable": false,
      "stateMutability": "nonpayable",
      "type": "function"
    },
    {
      "constant": false,
      "inputs": [
        {
          "internalType": "contract VToken",
          "name": "vToken",
          "type": "address"
        },
        {
          "internalType": "uint256",
          "name": "newCollateralFactorMantissa",
          "type": "uint256"
        }
      ],
      "name": "_setCollateralFactor",
      "outputs": [
        {
          "internalType": "uint256",
          "name": "",
          "type": "uint256"
        }
      ],
      "payable": false,
      "stateMutability": "nonpayable",
      "type": "function"
    },
    {
      "constant": false,
      "inputs": [
        {
          "internalType": "uint256",
          "name": "newLiquidationIncentiveMantissa",
          "type": "uint256"
        }
      ],
      "name": "_setLiquidationIncentive",
      "outputs": [
        {
          "internalType": "uint256",
          "name": "",
          "type": "uint256"
        }
      ],
      "payable": false,
      "stateMutability": "nonpayable",
      "type": "function"
    },
    {
      "constant": false,
      "inputs": [
        {
          "internalType": "uint256",
          "name": "newMaxAssets",
          "type": "uint256"
        }
      ],
      "name": "_setMaxAssets",
      "outputs": [
        {
          "internalType": "uint256",
          "name": "",
          "type": "uint256"
        }
      ],
      "payable": false,
      "stateMutability": "nonpayable",
      "type": "function"
    },
    {
      "constant": false,
      "inputs": [
        {
          "internalType": "contract VToken",
          "name": "vToken",
          "type": "address"
        },
        {
          "internalType": "bool",
          "name": "state",
          "type": "bool"
        }
      ],
      "name": "_setMintPaused",
      "outputs": [
        {
          "internalType": "bool",
          "name": "",
          "type": "bool"
        }
      ],
      "payable": false,
      "stateMutability": "nonpayable",
      "type": "function"
    },
    {
      "constant": false,
      "inputs": [
        {
          "internalType": "bool",
          "name": "state",
          "type": "bool"
        }
      ],
      "name": "_setMintVAIPaused",
      "outputs": [
        {
          "internalType": "bool",
          "name": "",
          "type": "bool"
        }
      ],
      "payable": false,
      "stateMutability": "nonpayable",
      "type": "function"
    },
    {
      "constant": false,
      "inputs": [
        {
          "internalType": "address",
          "name": "newPauseGuardian",
          "type": "address"
        }
      ],
      "name": "_setPauseGuardian",
      "outputs": [
        {
          "internalType": "uint256",
          "name": "",
          "type": "uint256"
        }
      ],
      "payable": false,
      "stateMutability": "nonpayable",
      "type": "function"
    },
    {
      "constant": false,
      "inputs": [
        {
          "internalType": "contract PriceOracle",
          "name": "newOracle",
          "type": "address"
        }
      ],
      "name": "_setPriceOracle",
      "outputs": [
        {
          "internalType": "uint256",
          "name": "",
          "type": "uint256"
        }
      ],
      "payable": false,
      "stateMutability": "nonpayable",
      "type": "function"
    },
    {
      "constant": false,
      "inputs": [
        {
          "internalType": "bool",
          "name": "state",
          "type": "bool"
        }
      ],
      "name": "_setProtocolPaused",
      "outputs": [
        {
          "internalType": "bool",
          "name": "",
          "type": "bool"
        }
      ],
      "payable": false,
      "stateMutability": "nonpayable",
      "type": "function"
    },
    {
      "constant": false,
      "inputs": [
        {
          "internalType": "bool",
          "name": "state",
          "type": "bool"
        }
      ],
      "name": "_setRepayVAIPaused",
      "outputs": [
        {
          "internalType": "bool",
          "name": "",
          "type": "bool"
        }
      ],
      "payable": false,
      "stateMutability": "nonpayable",
      "type": "function"
    },
    {
      "constant": false,
      "inputs": [
        {
          "internalType": "bool",
          "name": "state",
          "type": "bool"
        }
      ],
      "name": "_setSeizePaused",
      "outputs": [
        {
          "internalType": "bool",
          "name": "",
          "type": "bool"
        }
      ],
      "payable": false,
      "stateMutability": "nonpayable",
      "type": "function"
    },
    {
      "constant": false,
      "inputs": [
        {
          "internalType": "bool",
          "name": "state",
          "type": "bool"
        }
      ],
      "name": "_setTransferPaused",
      "outputs": [
        {
          "internalType": "bool",
          "name": "",
          "type": "bool"
        }
      ],
      "payable": false,
      "stateMutability": "nonpayable",
      "type": "function"
    },
    {
      "constant": false,
      "inputs": [
        {
          "internalType": "contract VAIControllerInterface",
          "name": "vaiController_",
          "type": "address"
        }
      ],
      "name": "_setVAIController",
      "outputs": [
        {
          "internalType": "uint256",
          "name": "",
          "type": "uint256"
        }
      ],
      "payable": false,
      "stateMutability": "nonpayable",
      "type": "function"
    },
    {
      "constant": false,
      "inputs": [
        {
          "internalType": "uint256",
          "name": "newVAIMintRate",
          "type": "uint256"
        }
      ],
      "name": "_setVAIMintRate",
      "outputs": [
        {
          "internalType": "uint256",
          "name": "",
          "type": "uint256"
        }
      ],
      "payable": false,
      "stateMutability": "nonpayable",
      "type": "function"
    },
    {
      "constant": false,
      "inputs": [
        {
          "internalType": "uint256",
          "name": "venusRate_",
          "type": "uint256"
        }
      ],
      "name": "_setVenusRate",
      "outputs": [],
      "payable": false,
      "stateMutability": "nonpayable",
      "type": "function"
    },
    {
      "constant": false,
      "inputs": [
        {
          "internalType": "contract VToken",
          "name": "vToken",
          "type": "address"
        }
      ],
      "name": "_supportMarket",
      "outputs": [
        {
          "internalType": "uint256",
          "name": "",
          "type": "uint256"
        }
      ],
      "payable": false,
      "stateMutability": "nonpayable",
      "type": "function"
    },
    {
      "constant": true,
      "inputs": [
        {
          "internalType": "address",
          "name": "",
          "type": "address"
        },
        {
          "internalType": "uint256",
          "name": "",
          "type": "uint256"
        }
      ],
      "name": "accountAssets",
      "outputs": [
        {
          "internalType": "contract VToken",
          "name": "",
          "type": "address"
        }
      ],
      "payable": false,
      "stateMutability": "view",
      "type": "function"
    },
    {
      "constant": true,
      "inputs": [],
      "name": "admin",
      "outputs": [
        {
          "internalType": "address",
          "name": "",
          "type": "address"
        }
      ],
      "payable": false,
      "stateMutability": "view",
      "type": "function"
    },
    {
      "constant": true,
      "inputs": [
        {
          "internalType": "uint256",
          "name": "",
          "type": "uint256"
        }
      ],
      "name": "allMarkets",
      "outputs": [
        {
          "internalType": "contract VToken",
          "name": "",
          "type": "address"
        }
      ],
      "payable": false,
      "stateMutability": "view",
      "type": "function"
    },
    {
      "constant": false,
      "inputs": [
        {
          "internalType": "address",
          "name": "vToken",
          "type": "address"
        },
        {
          "internalType": "address",
          "name": "borrower",
          "type": "address"
        },
        {
          "internalType": "uint256",
          "name": "borrowAmount",
          "type": "uint256"
        }
      ],
      "name": "borrowAllowed",
      "outputs": [
        {
          "internalType": "uint256",
          "name": "",
          "type": "uint256"
        }
      ],
      "payable": false,
      "stateMutability": "nonpayable",
      "type": "function"
    },
    {
      "constant": false,
      "inputs": [
        {
          "internalType": "address",
          "name": "vToken",
          "type": "address"
        },
        {
          "internalType": "address",
          "name": "borrower",
          "type": "address"
        },
        {
          "internalType": "uint256",
          "name": "borrowAmount",
          "type": "uint256"
        }
      ],
      "name": "borrowVerify",
      "outputs": [],
      "payable": false,
      "stateMutability": "nonpayable",
      "type": "function"
    },
    {
      "constant": true,
      "inputs": [
        {
          "internalType": "address",
          "name": "account",
          "type": "address"
        },
        {
          "internalType": "contract VToken",
          "name": "vToken",
          "type": "address"
        }
      ],
      "name": "checkMembership",
      "outputs": [
        {
          "internalType": "bool",
          "name": "",
          "type": "bool"
        }
      ],
      "payable": false,
      "stateMutability": "view",
      "type": "function"
    },
    {
      "constant": false,
      "inputs": [
        {
          "internalType": "address",
          "name": "holder",
          "type": "address"
        },
        {
          "internalType": "contract VToken[]",
          "name": "vTokens",
          "type": "address[]"
        }
      ],
      "name": "claimVenus",
      "outputs": [],
      "payable": false,
      "stateMutability": "nonpayable",
      "type": "function"
    },
    {
      "constant": false,
      "inputs": [
        {
          "internalType": "address",
          "name": "holder",
          "type": "address"
        }
      ],
      "name": "claimVenus",
      "outputs": [],
      "payable": false,
      "stateMutability": "nonpayable",
      "type": "function"
    },
    {
      "constant": false,
      "inputs": [
        {
          "internalType": "address[]",
          "name": "holders",
          "type": "address[]"
        },
        {
          "internalType": "contract VToken[]",
          "name": "vTokens",
          "type": "address[]"
        },
        {
          "internalType": "bool",
          "name": "borrowers",
          "type": "bool"
        },
        {
          "internalType": "bool",
          "name": "suppliers",
          "type": "bool"
        }
      ],
      "name": "claimVenus",
      "outputs": [],
      "payable": false,
      "stateMutability": "nonpayable",
      "type": "function"
    },
    {
      "constant": true,
      "inputs": [],
      "name": "closeFactorMantissa",
      "outputs": [
        {
          "internalType": "uint256",
          "name": "",
          "type": "uint256"
        }
      ],
      "payable": false,
      "stateMutability": "view",
      "type": "function"
    },
    {
      "constant": true,
      "inputs": [],
      "name": "comptrollerImplementation",
      "outputs": [
        {
          "internalType": "address",
          "name": "",
          "type": "address"
        }
      ],
      "payable": false,
      "stateMutability": "view",
      "type": "function"
    },
    {
      "constant": false,
      "inputs": [
        {
          "internalType": "address[]",
          "name": "vTokens",
          "type": "address[]"
        }
      ],
      "name": "enterMarkets",
      "outputs": [
        {
          "internalType": "uint256[]",
          "name": "",
          "type": "uint256[]"
        }
      ],
      "payable": false,
      "stateMutability": "nonpayable",
      "type": "function"
    },
    {
      "constant": false,
      "inputs": [
        {
          "internalType": "address",
          "name": "vTokenAddress",
          "type": "address"
        }
      ],
      "name": "exitMarket",
      "outputs": [
        {
          "internalType": "uint256",
          "name": "",
          "type": "uint256"
        }
      ],
      "payable": false,
      "stateMutability": "nonpayable",
      "type": "function"
    },
    {
      "constant": true,
      "inputs": [
        {
          "internalType": "address",
          "name": "account",
          "type": "address"
        }
      ],
      "name": "getAccountLiquidity",
      "outputs": [
        {
          "internalType": "uint256",
          "name": "",
          "type": "uint256"
        },
        {
          "internalType": "uint256",
          "name": "",
          "type": "uint256"
        },
        {
          "internalType": "uint256",
          "name": "",
          "type": "uint256"
        }
      ],
      "payable": false,
      "stateMutability": "view",
      "type": "function"
    },
    {
      "constant": true,
      "inputs": [],
      "name": "getAllMarkets",
      "outputs": [
        {
          "internalType": "contract VToken[]",
          "name": "",
          "type": "address[]"
        }
      ],
      "payable": false,
      "stateMutability": "view",
      "type": "function"
    },
    {
      "constant": true,
      "inputs": [
        {
          "internalType": "address",
          "name": "account",
          "type": "address"
        }
      ],
      "name": "getAssetsIn",
      "outputs": [
        {
          "internalType": "contract VToken[]",
          "name": "",
          "type": "address[]"
        }
      ],
      "payable": false,
      "stateMutability": "view",
      "type": "function"
    },
    {
      "constant": true,
      "inputs": [],
      "name": "getBlockNumber",
      "outputs": [
        {
          "internalType": "uint256",
          "name": "",
          "type": "uint256"
        }
      ],
      "payable": false,
      "stateMutability": "view",
      "type": "function"
    },
    {
      "constant": true,
      "inputs": [
        {
          "internalType": "address",
          "name": "account",
          "type": "address"
        },
        {
          "internalType": "address",
          "name": "vTokenModify",
          "type": "address"
        },
        {
          "internalType": "uint256",
          "name": "redeemTokens",
          "type": "uint256"
        },
        {
          "internalType": "uint256",
          "name": "borrowAmount",
          "type": "uint256"
        }
      ],
      "name": "getHypotheticalAccountLiquidity",
      "outputs": [
        {
          "internalType": "uint256",
          "name": "",
          "type": "uint256"
        },
        {
          "internalType": "uint256",
          "name": "",
          "type": "uint256"
        },
        {
          "internalType": "uint256",
          "name": "",
          "type": "uint256"
        }
      ],
      "payable": false,
      "stateMutability": "view",
      "type": "function"
    },
    {
      "constant": true,
      "inputs": [
        {
          "internalType": "address",
          "name": "minter",
          "type": "address"
        }
      ],
      "name": "getMintableVAI",
      "outputs": [
        {
          "internalType": "uint256",
          "name": "",
          "type": "uint256"
        },
        {
          "internalType": "uint256",
          "name": "",
          "type": "uint256"
        }
      ],
      "payable": false,
      "stateMutability": "view",
      "type": "function"
    },
    {
      "constant": true,
      "inputs": [],
      "name": "getXVSAddress",
      "outputs": [
        {
          "internalType": "address",
          "name": "",
          "type": "address"
        }
      ],
      "payable": false,
      "stateMutability": "view",
      "type": "function"
    },
    {
      "constant": true,
      "inputs": [],
      "name": "isComptroller",
      "outputs": [
        {
          "internalType": "bool",
          "name": "",
          "type": "bool"
        }
      ],
      "payable": false,
      "stateMutability": "view",
      "type": "function"
    },
    {
      "constant": false,
      "inputs": [
        {
          "internalType": "address",
          "name": "vTokenBorrowed",
          "type": "address"
        },
        {
          "internalType": "address",
          "name": "vTokenCollateral",
          "type": "address"
        },
        {
          "internalType": "address",
          "name": "liquidator",
          "type": "address"
        },
        {
          "internalType": "address",
          "name": "borrower",
          "type": "address"
        },
        {
          "internalType": "uint256",
          "name": "repayAmount",
          "type": "uint256"
        }
      ],
      "name": "liquidateBorrowAllowed",
      "outputs": [
        {
          "internalType": "uint256",
          "name": "",
          "type": "uint256"
        }
      ],
      "payable": false,
      "stateMutability": "nonpayable",
      "type": "function"
    },
    {
      "constant": false,
      "inputs": [
        {
          "internalType": "address",
          "name": "vTokenBorrowed",
          "type": "address"
        },
        {
          "internalType": "address",
          "name": "vTokenCollateral",
          "type": "address"
        },
        {
          "internalType": "address",
          "name": "liquidator",
          "type": "address"
        },
        {
          "internalType": "address",
          "name": "borrower",
          "type": "address"
        },
        {
          "internalType": "uint256",
          "name": "actualRepayAmount",
          "type": "uint256"
        },
        {
          "internalType": "uint256",
          "name": "seizeTokens",
          "type": "uint256"
        }
      ],
      "name": "liquidateBorrowVerify",
      "outputs": [],
      "payable": false,
      "stateMutability": "nonpayable",
      "type": "function"
    },
    {
      "constant": true,
      "inputs": [
        {
          "internalType": "address",
          "name": "vTokenBorrowed",
          "type": "address"
        },
        {
          "internalType": "address",
          "name": "vTokenCollateral",
          "type": "address"
        },
        {
          "internalType": "uint256",
          "name": "actualRepayAmount",
          "type": "uint256"
        }
      ],
      "name": "liquidateCalculateSeizeTokens",
      "outputs": [
        {
          "internalType": "uint256",
          "name": "",
          "type": "uint256"
        },
        {
          "internalType": "uint256",
          "name": "",
          "type": "uint256"
        }
      ],
      "payable": false,
      "stateMutability": "view",
      "type": "function"
    },
    {
      "constant": true,
      "inputs": [],
      "name": "liquidationIncentiveMantissa",
      "outputs": [
        {
          "internalType": "uint256",
          "name": "",
          "type": "uint256"
        }
      ],
      "payable": false,
      "stateMutability": "view",
      "type": "function"
    },
    {
      "constant": true,
      "inputs": [
        {
          "internalType": "address",
          "name": "",
          "type": "address"
        }
      ],
      "name": "markets",
      "outputs": [
        {
          "internalType": "bool",
          "name": "isListed",
          "type": "bool"
        },
        {
          "internalType": "uint256",
          "name": "collateralFactorMantissa",
          "type": "uint256"
        },
        {
          "internalType": "bool",
          "name": "isVenus",
          "type": "bool"
        }
      ],
      "payable": false,
      "stateMutability": "view",
      "type": "function"
    },
    {
      "constant": true,
      "inputs": [],
      "name": "maxAssets",
      "outputs": [
        {
          "internalType": "uint256",
          "name": "",
          "type": "uint256"
        }
      ],
      "payable": false,
      "stateMutability": "view",
      "type": "function"
    },
    {
      "constant": false,
      "inputs": [
        {
          "internalType": "address",
          "name": "vToken",
          "type": "address"
        },
        {
          "internalType": "address",
          "name": "minter",
          "type": "address"
        },
        {
          "internalType": "uint256",
          "name": "mintAmount",
          "type": "uint256"
        }
      ],
      "name": "mintAllowed",
      "outputs": [
        {
          "internalType": "uint256",
          "name": "",
          "type": "uint256"
        }
      ],
      "payable": false,
      "stateMutability": "nonpayable",
      "type": "function"
    },
    {
      "constant": false,
      "inputs": [
        {
          "internalType": "uint256",
          "name": "mintVAIAmount",
          "type": "uint256"
        }
      ],
      "name": "mintVAI",
      "outputs": [
        {
          "internalType": "uint256",
          "name": "",
          "type": "uint256"
        }
      ],
      "payable": false,
      "stateMutability": "nonpayable",
      "type": "function"
    },
    {
      "constant": true,
      "inputs": [],
      "name": "mintVAIGuardianPaused",
      "outputs": [
        {
          "internalType": "bool",
          "name": "",
          "type": "bool"
        }
      ],
      "payable": false,
      "stateMutability": "view",
      "type": "function"
    },
    {
      "constant": false,
      "inputs": [
        {
          "internalType": "address",
          "name": "vToken",
          "type": "address"
        },
        {
          "internalType": "address",
          "name": "minter",
          "type": "address"
        },
        {
          "internalType": "uint256",
          "name": "actualMintAmount",
          "type": "uint256"
        },
        {
          "internalType": "uint256",
          "name": "mintTokens",
          "type": "uint256"
        }
      ],
      "name": "mintVerify",
      "outputs": [],
      "payable": false,
      "stateMutability": "nonpayable",
      "type": "function"
    },
    {
      "constant": true,
      "inputs": [
        {
          "internalType": "address",
          "name": "owner",
          "type": "address"
        }
      ],
      "name": "mintedVAIOf",
      "outputs": [
        {
          "internalType": "uint256",
          "name": "",
          "type": "uint256"
        }
      ],
      "payable": false,
      "stateMutability": "view",
      "type": "function"
    },
    {
      "constant": true,
      "inputs": [
        {
          "internalType": "address",
          "name": "",
          "type": "address"
        }
      ],
      "name": "mintedVAIs",
      "outputs": [
        {
          "internalType": "uint256",
          "name": "",
          "type": "uint256"
        }
      ],
      "payable": false,
      "stateMutability": "view",
      "type": "function"
    },
    {
      "constant": true,
      "inputs": [],
      "name": "oracle",
      "outputs": [
        {
          "internalType": "contract PriceOracle",
          "name": "",
          "type": "address"
        }
      ],
      "payable": false,
      "stateMutability": "view",
      "type": "function"
    },
    {
      "constant": true,
      "inputs": [],
      "name": "pauseGuardian",
      "outputs": [
        {
          "internalType": "address",
          "name": "",
          "type": "address"
        }
      ],
      "payable": false,
      "stateMutability": "view",
      "type": "function"
    },
    {
      "constant": true,
      "inputs": [],
      "name": "pendingAdmin",
      "outputs": [
        {
          "internalType": "address",
          "name": "",
          "type": "address"
        }
      ],
      "payable": false,
      "stateMutability": "view",
      "type": "function"
    },
    {
      "constant": true,
      "inputs": [],
      "name": "pendingComptrollerImplementation",
      "outputs": [
        {
          "internalType": "address",
          "name": "",
          "type": "address"
        }
      ],
      "payable": false,
      "stateMutability": "view",
      "type": "function"
    },
    {
      "constant": true,
      "inputs": [],
      "name": "protocolPaused",
      "outputs": [
        {
          "internalType": "bool",
          "name": "",
          "type": "bool"
        }
      ],
      "payable": false,
      "stateMutability": "view",
      "type": "function"
    },
    {
      "constant": false,
      "inputs": [
        {
          "internalType": "address",
          "name": "vToken",
          "type": "address"
        },
        {
          "internalType": "address",
          "name": "redeemer",
          "type": "address"
        },
        {
          "internalType": "uint256",
          "name": "redeemTokens",
          "type": "uint256"
        }
      ],
      "name": "redeemAllowed",
      "outputs": [
        {
          "internalType": "uint256",
          "name": "",
          "type": "uint256"
        }
      ],
      "payable": false,
      "stateMutability": "nonpayable",
      "type": "function"
    },
    {
      "constant": false,
      "inputs": [
        {
          "internalType": "address",
          "name": "vToken",
          "type": "address"
        },
        {
          "internalType": "address",
          "name": "redeemer",
          "type": "address"
        },
        {
          "internalType": "uint256",
          "name": "redeemAmount",
          "type": "uint256"
        },
        {
          "internalType": "uint256",
          "name": "redeemTokens",
          "type": "uint256"
        }
      ],
      "name": "redeemVerify",
      "outputs": [],
      "payable": false,
      "stateMutability": "nonpayable",
      "type": "function"
    },
    {
      "constant": false,
      "inputs": [],
      "name": "refreshVenusSpeeds",
      "outputs": [],
      "payable": false,
      "stateMutability": "nonpayable",
      "type": "function"
    },
    {
      "constant": false,
      "inputs": [
        {
          "internalType": "address",
          "name": "vToken",
          "type": "address"
        },
        {
          "internalType": "address",
          "name": "payer",
          "type": "address"
        },
        {
          "internalType": "address",
          "name": "borrower",
          "type": "address"
        },
        {
          "internalType": "uint256",
          "name": "repayAmount",
          "type": "uint256"
        }
      ],
      "name": "repayBorrowAllowed",
      "outputs": [
        {
          "internalType": "uint256",
          "name": "",
          "type": "uint256"
        }
      ],
      "payable": false,
      "stateMutability": "nonpayable",
      "type": "function"
    },
    {
      "constant": false,
      "inputs": [
        {
          "internalType": "address",
          "name": "vToken",
          "type": "address"
        },
        {
          "internalType": "address",
          "name": "payer",
          "type": "address"
        },
        {
          "internalType": "address",
          "name": "borrower",
          "type": "address"
        },
        {
          "internalType": "uint256",
          "name": "actualRepayAmount",
          "type": "uint256"
        },
        {
          "internalType": "uint256",
          "name": "borrowerIndex",
          "type": "uint256"
        }
      ],
      "name": "repayBorrowVerify",
      "outputs": [],
      "payable": false,
      "stateMutability": "nonpayable",
      "type": "function"
    },
    {
      "constant": false,
      "inputs": [
        {
          "internalType": "uint256",
          "name": "repayVAIAmount",
          "type": "uint256"
        }
      ],
      "name": "repayVAI",
      "outputs": [
        {
          "internalType": "uint256",
          "name": "",
          "type": "uint256"
        }
      ],
      "payable": false,
      "stateMutability": "nonpayable",
      "type": "function"
    },
    {
      "constant": true,
      "inputs": [],
      "name": "repayVAIGuardianPaused",
      "outputs": [
        {
          "internalType": "bool",
          "name": "",
          "type": "bool"
        }
      ],
      "payable": false,
      "stateMutability": "view",
      "type": "function"
    },
    {
      "constant": false,
      "inputs": [
        {
          "internalType": "address",
          "name": "vTokenCollateral",
          "type": "address"
        },
        {
          "internalType": "address",
          "name": "vTokenBorrowed",
          "type": "address"
        },
        {
          "internalType": "address",
          "name": "liquidator",
          "type": "address"
        },
        {
          "internalType": "address",
          "name": "borrower",
          "type": "address"
        },
        {
          "internalType": "uint256",
          "name": "seizeTokens",
          "type": "uint256"
        }
      ],
      "name": "seizeAllowed",
      "outputs": [
        {
          "internalType": "uint256",
          "name": "",
          "type": "uint256"
        }
      ],
      "payable": false,
      "stateMutability": "nonpayable",
      "type": "function"
    },
    {
      "constant": false,
      "inputs": [
        {
          "internalType": "address",
          "name": "vTokenCollateral",
          "type": "address"
        },
        {
          "internalType": "address",
          "name": "vTokenBorrowed",
          "type": "address"
        },
        {
          "internalType": "address",
          "name": "liquidator",
          "type": "address"
        },
        {
          "internalType": "address",
          "name": "borrower",
          "type": "address"
        },
        {
          "internalType": "uint256",
          "name": "seizeTokens",
          "type": "uint256"
        }
      ],
      "name": "seizeVerify",
      "outputs": [],
      "payable": false,
      "stateMutability": "nonpayable",
      "type": "function"
    },
    {
      "constant": false,
      "inputs": [
        {
          "internalType": "address",
          "name": "owner",
          "type": "address"
        },
        {
          "internalType": "uint256",
          "name": "amount",
          "type": "uint256"
        }
      ],
      "name": "setMintedVAIOf",
      "outputs": [
        {
          "internalType": "uint256",
          "name": "",
          "type": "uint256"
        }
      ],
      "payable": false,
      "stateMutability": "nonpayable",
      "type": "function"
    },
    {
      "constant": false,
      "inputs": [
        {
          "internalType": "address",
          "name": "vToken",
          "type": "address"
        },
        {
          "internalType": "address",
          "name": "src",
          "type": "address"
        },
        {
          "internalType": "address",
          "name": "dst",
          "type": "address"
        },
        {
          "internalType": "uint256",
          "name": "transferTokens",
          "type": "uint256"
        }
      ],
      "name": "transferAllowed",
      "outputs": [
        {
          "internalType": "uint256",
          "name": "",
          "type": "uint256"
        }
      ],
      "payable": false,
      "stateMutability": "nonpayable",
      "type": "function"
    },
    {
      "constant": false,
      "inputs": [
        {
          "internalType": "address",
          "name": "vToken",
          "type": "address"
        },
        {
          "internalType": "address",
          "name": "src",
          "type": "address"
        },
        {
          "internalType": "address",
          "name": "dst",
          "type": "address"
        },
        {
          "internalType": "uint256",
          "name": "transferTokens",
          "type": "uint256"
        }
      ],
      "name": "transferVerify",
      "outputs": [],
      "payable": false,
      "stateMutability": "nonpayable",
      "type": "function"
    },
    {
      "constant": true,
      "inputs": [],
      "name": "vaiController",
      "outputs": [
        {
          "internalType": "contract VAIControllerInterface",
          "name": "",
          "type": "address"
        }
      ],
      "payable": false,
      "stateMutability": "view",
      "type": "function"
    },
    {
      "constant": true,
      "inputs": [],
      "name": "vaiMintRate",
      "outputs": [
        {
          "internalType": "uint256",
          "name": "",
          "type": "uint256"
        }
      ],
      "payable": false,
      "stateMutability": "view",
      "type": "function"
    },
    {
      "constant": true,
      "inputs": [
        {
          "internalType": "address",
          "name": "",
          "type": "address"
        }
      ],
      "name": "venusAccrued",
      "outputs": [
        {
          "internalType": "uint256",
          "name": "",
          "type": "uint256"
        }
      ],
      "payable": false,
      "stateMutability": "view",
      "type": "function"
    },
    {
      "constant": true,
      "inputs": [
        {
          "internalType": "address",
          "name": "",
          "type": "address"
        }
      ],
      "name": "venusBorrowState",
      "outputs": [
        {
          "internalType": "uint224",
          "name": "index",
          "type": "uint224"
        },
        {
          "internalType": "uint32",
          "name": "block",
          "type": "uint32"
        }
      ],
      "payable": false,
      "stateMutability": "view",
      "type": "function"
    },
    {
      "constant": true,
      "inputs": [
        {
          "internalType": "address",
          "name": "",
          "type": "address"
        },
        {
          "internalType": "address",
          "name": "",
          "type": "address"
        }
      ],
      "name": "venusBorrowerIndex",
      "outputs": [
        {
          "internalType": "uint256",
          "name": "",
          "type": "uint256"
        }
      ],
      "payable": false,
      "stateMutability": "view",
      "type": "function"
    },
    {
      "constant": true,
      "inputs": [],
      "name": "venusClaimThreshold",
      "outputs": [
        {
          "internalType": "uint256",
          "name": "",
          "type": "uint256"
        }
      ],
      "payable": false,
      "stateMutability": "view",
      "type": "function"
    },
    {
      "constant": true,
      "inputs": [],
      "name": "venusInitialIndex",
      "outputs": [
        {
          "internalType": "uint224",
          "name": "",
          "type": "uint224"
        }
      ],
      "payable": false,
      "stateMutability": "view",
      "type": "function"
    },
    {
      "constant": true,
      "inputs": [],
      "name": "venusRate",
      "outputs": [
        {
          "internalType": "uint256",
          "name": "",
          "type": "uint256"
        }
      ],
      "payable": false,
      "stateMutability": "view",
      "type": "function"
    },
    {
      "constant": true,
      "inputs": [
        {
          "internalType": "address",
          "name": "",
          "type": "address"
        }
      ],
      "name": "venusSpeeds",
      "outputs": [
        {
          "internalType": "uint256",
          "name": "",
          "type": "uint256"
        }
      ],
      "payable": false,
      "stateMutability": "view",
      "type": "function"
    },
    {
      "constant": true,
      "inputs": [
        {
          "internalType": "address",
          "name": "",
          "type": "address"
        },
        {
          "internalType": "address",
          "name": "",
          "type": "address"
        }
      ],
      "name": "venusSupplierIndex",
      "outputs": [
        {
          "internalType": "uint256",
          "name": "",
          "type": "uint256"
        }
      ],
      "payable": false,
      "stateMutability": "view",
      "type": "function"
    },
    {
      "constant": true,
      "inputs": [
        {
          "internalType": "address",
          "name": "",
          "type": "address"
        }
      ],
      "name": "venusSupplyState",
      "outputs": [
        {
          "internalType": "uint224",
          "name": "index",
          "type": "uint224"
        },
        {
          "internalType": "uint32",
          "name": "block",
          "type": "uint32"
        }
      ],
      "payable": false,
      "stateMutability": "view",
      "type": "function"
    }
  ],
  "bytecode": "0x608060405234801561001057600080fd5b50600080546001600160a01b031916331790556166ce80620000336000396000f3fe608060405234801561001057600080fd5b50600436106104955760003560e01c80636a56947e11610262578063bb82aa5e11610151578063da3d454c116100ce578063e875544611610092578063e875544614611209578063e8b9342814611211578063eabe7d9114611230578063ede4edd014611266578063f851a4401461128c578063fd51a3ad1461129457610495565b8063da3d454c1461114d578063dce1544914611183578063dcfbc0c7146111af578063e37d4b79146111b7578063e4028eee146111dd57610495565b8063c488847b11610115578063c488847b14610f64578063c5b4db5514610f9a578063d02f735114610fbe578063d09c54ba14611004578063d9226ced1461113057610495565b8063bb82aa5e14610ea2578063bdcdc25814610eaa578063bec04f7214610ee6578063bf32442d14610eee578063c299823814610ef657610495565b80639254f5e5116101df578063abfceffc116101a3578063abfceffc14610d91578063adcd5fb914610e07578063b0772d0b14610e2d578063b2ded9c514610e35578063b8324c7c14610e5457610495565b80639254f5e514610d07578063929fe9a114610d0f57806394b2294b14610d3d5780639cfdd9e614610d45578063a76b3fda14610d6b57610495565b806386df31ee1161022657806386df31ee14610bc1578063879c2e1d14610c725780638a7dc16514610c7a5780638e8f294b14610ca05780638ebf636414610ce857610495565b80636a56947e14610b125780636d35bf9114610b4e5780636fe74a2114610b945780637655138314610bb15780637dc0d1d014610bb957610495565b806341a18d2c116103895780634ef4c3e11161030657806355ee1fe1116102ca57806355ee1fe114610a1c5780635c77860514610a425780635ec88c7914610a785780635f5af1aa14610a9e5780635fc7e71e14610ac457806365af42e314610b0a57610495565b80634ef4c3e1146109535780634fd42e17146109895780635035920a146109a657806351dff989146109c357806352d84d1e146109ff57610495565b806344927f491161034d57806344927f49146108625780634712ee7d1461088857806347ef3b3b146108a55780634ada90af146108f15780634e79238f146108f957610495565b806341a18d2c1461077a57806341c728b9146107a8578063425fad58146107e457806342cbb15c146107ec57806343eb1b64146107f457610495565b806324a3d622116104175780632ec04124116103db5780632ec04124146106cb578063317b0b77146106e85780633785d1d6146107055780633bcf7ec1146107445780634088c73e1461077257610495565b806324a3d6221461063b578063267822471461065f5780632a6a6065146106675780632bc7e29e146106865780632d70db78146106ac57610495565b80631cb8126e1161045e5780631cb8126e146105545780631d504dc61461057a5780631ededc91146105a057806320fa42b1146105e257806324008a62146105ff57610495565b80627e3dd21461049a57806308e0225c146104b657806312a2adc7146104f657806318c882a5146105005780631abcaa771461052e575b600080fd5b6104a26112c0565b604080519115158252519081900360200190f35b6104e4600480360360408110156104cc57600080fd5b506001600160a01b03813581169160200135166112c5565b60408051918252519081900360200190f35b6104fe6112e2565b005b6104a26004803603604081101561051657600080fd5b506001600160a01b038135169060200135151561132a565b6104e46004803603602081101561054457600080fd5b50356001600160a01b03166114d6565b6104fe6004803603602081101561056a57600080fd5b50356001600160a01b03166114e8565b6104fe6004803603602081101561059057600080fd5b50356001600160a01b03166115fd565b6104fe600480360360a08110156105b657600080fd5b506001600160a01b0381358116916020810135821691604082013516906060810135906080013561176b565b6104fe600480360360208110156105f857600080fd5b5035611772565b6104e46004803603608081101561061557600080fd5b506001600160a01b0381358116916020810135821691604082013516906060013561180d565b610643611925565b604080516001600160a01b039092168252519081900360200190f35b610643611934565b6104a26004803603602081101561067d57600080fd5b50351515611943565b6104e46004803603602081101561069c57600080fd5b50356001600160a01b03166119ea565b6104a2600480360360208110156106c257600080fd5b503515156119fc565b6104e4600480360360208110156106e157600080fd5b5035611b1a565b6104e4600480360360208110156106fe57600080fd5b5035611b8d565b61072b6004803603602081101561071b57600080fd5b50356001600160a01b0316611c97565b6040805192835260208301919091528051918290030190f35b6104a26004803603604081101561075a57600080fd5b506001600160a01b0381351690602001351515611d21565b6104a2611ecb565b6104e46004803603604081101561079057600080fd5b506001600160a01b0381358116916020013516611ed4565b6104fe600480360360808110156107be57600080fd5b506001600160a01b03813581169160208101359091169060408101359060600135611ef1565b6104a2611ef7565b6104e4611f06565b6104fe6004803603602081101561080a57600080fd5b810190602081018135600160201b81111561082457600080fd5b82018360208201111561083657600080fd5b803590602001918460208302840111600160201b8311171561085757600080fd5b509092509050611f0b565b6104e46004803603602081101561087857600080fd5b50356001600160a01b0316611f9b565b6104e46004803603602081101561089e57600080fd5b5035611fb6565b6104fe600480360360c08110156108bb57600080fd5b506001600160a01b0381358116916020810135821691604082013581169160608101359091169060808101359060a001356120ea565b6104e46120f2565b6109356004803603608081101561090f57600080fd5b506001600160a01b038135811691602081013590911690604081013590606001356120f8565b60408051938452602084019290925282820152519081900360600190f35b6104e46004803603606081101561096957600080fd5b506001600160a01b03813581169160208101359091169060400135612132565b6104e46004803603602081101561099f57600080fd5b5035612229565b6104fe600480360360208110156109bc57600080fd5b503561231d565b6104fe600480360360808110156109d957600080fd5b506001600160a01b038135811691602081013590911690604081013590606001356123fb565b61064360048036036020811015610a1557600080fd5b503561244c565b6104e460048036036020811015610a3257600080fd5b50356001600160a01b0316612473565b6104fe60048036036060811015610a5857600080fd5b506001600160a01b038135811691602081013590911690604001356123f6565b61093560048036036020811015610a8e57600080fd5b50356001600160a01b03166124f8565b6104e460048036036020811015610ab457600080fd5b50356001600160a01b031661252d565b6104e4600480360360a0811015610ada57600080fd5b506001600160a01b03813581169160208101358216916040820135811691606081013590911690608001356125b2565b6104e461278d565b6104fe60048036036080811015610b2857600080fd5b506001600160a01b03813581169160208101358216916040820135169060600135612798565b6104fe600480360360a0811015610b6457600080fd5b506001600160a01b038135811691602081013582169160408201358116916060810135909116906080013561176b565b6104e460048036036020811015610baa57600080fd5b503561279d565b6104a26128a5565b6106436128b3565b6104fe60048036036040811015610bd757600080fd5b6001600160a01b038235169190810190604081016020820135600160201b811115610c0157600080fd5b820183602082011115610c1357600080fd5b803590602001918460208302840111600160201b83111715610c3457600080fd5b9190808060200260200160405190810160405280939291908181526020018383602002808284376000920191909152509295506128c2945050505050565b6104e461291f565b6104e460048036036020811015610c9057600080fd5b50356001600160a01b0316612925565b610cc660048036036020811015610cb657600080fd5b50356001600160a01b0316612937565b6040805193151584526020840192909252151582820152519081900360600190f35b6104a260048036036020811015610cfe57600080fd5b5035151561295d565b610643612a7e565b6104a260048036036040811015610d2557600080fd5b506001600160a01b0381358116916020013516612a8d565b6104e4612ac1565b6104e460048036036020811015610d5b57600080fd5b50356001600160a01b0316612ac7565b6104e460048036036020811015610d8157600080fd5b50356001600160a01b0316612b4b565b610db760048036036020811015610da757600080fd5b50356001600160a01b0316612ca8565b60408051602080825283518183015283519192839290830191858101910280838360005b83811015610df3578181015183820152602001610ddb565b505050509050019250505060405180910390f35b6104fe60048036036020811015610e1d57600080fd5b50356001600160a01b0316612d1e565b610db7612d82565b6104a260048036036020811015610e4b57600080fd5b50351515612de4565b610e7a60048036036020811015610e6a57600080fd5b50356001600160a01b0316612f01565b604080516001600160e01b03909316835263ffffffff90911660208301528051918290030190f35b610643612f2b565b6104e460048036036080811015610ec057600080fd5b506001600160a01b03813581169160208101358216916040820135169060600135612f3a565b6104e461301a565b610643613020565b610db760048036036020811015610f0c57600080fd5b810190602081018135600160201b811115610f2657600080fd5b820183602082011115610f3857600080fd5b803590602001918460208302840111600160201b83111715610f5957600080fd5b509092509050613038565b61072b60048036036060811015610f7a57600080fd5b506001600160a01b038135811691602081013590911690604001356130ce565b610fa2613343565b604080516001600160e01b039092168252519081900360200190f35b6104e4600480360360a0811015610fd457600080fd5b506001600160a01b0381358116916020810135821691604082013581169160608101359091169060800135613356565b6104fe6004803603608081101561101a57600080fd5b810190602081018135600160201b81111561103457600080fd5b82018360208201111561104657600080fd5b803590602001918460208302840111600160201b8311171561106757600080fd5b9190808060200260200160405190810160405280939291908181526020018383602002808284376000920191909152509295949360208101935035915050600160201b8111156110b657600080fd5b8201836020820111156110c857600080fd5b803590602001918460208302840111600160201b831117156110e957600080fd5b91908080602002602001604051908101604052809392919081815260200183836020028082843760009201919091525092955050505080351515915060200135151561355a565b6104e46004803603602081101561114657600080fd5b5035613739565b6104e46004803603606081101561116357600080fd5b506001600160a01b038135811691602081013590911690604001356137a2565b6106436004803603604081101561119957600080fd5b506001600160a01b038135169060200135613aab565b610643613ae0565b610e7a600480360360208110156111cd57600080fd5b50356001600160a01b0316613aef565b6104e4600480360360408110156111f357600080fd5b506001600160a01b038135169060200135613b19565b6104e4613cc9565b6104a26004803603602081101561122757600080fd5b50351515613ccf565b6104e46004803603606081101561124657600080fd5b506001600160a01b03813581169160208101359091169060400135613de3565b6104e46004803603602081101561127c57600080fd5b50356001600160a01b0316613e6e565b61064361412a565b6104e4600480360360408110156112aa57600080fd5b506001600160a01b038135169060200135614139565b600181565b601360209081526000928352604080842090915290825290205481565b3332146113205760405162461bcd60e51b81526004018080602001828103825260228152602001806166576022913960400191505060405180910390fd5b611328614224565b565b6001600160a01b038216600090815260096020526040812054839060ff16611396576040805162461bcd60e51b815260206004820152601a6024820152791d995b9d5cc81b585c9ad95d081a5cc81b9bdd081b1a5cdd195960321b604482015290519081900360640190fd5b600a5483906001600160a01b03163314806113bb57506000546001600160a01b031633145b6113f65760405162461bcd60e51b81526004018080602001828103825260218152602001806166796021913960400191505060405180910390fd5b6000546001600160a01b031633148061141157506001811515145b611450576040805162461bcd60e51b815260206004820152601660248201526000805160206165f7833981519152604482015290519081900360640190fd5b6001600160a01b0385166000818152600c6020908152604091829020805488151560ff199091168117909155825193845283830152606090830181905260069083015265426f72726f7760d01b6080830152517f71aec636243f9709bb0007ae15e9afb8150ab01716d75fd7573be5cc096e03b09181900360a00190a150919392505050565b600f6020526000908152604090205481565b6000546001600160a01b03163314611538576040805162461bcd60e51b815260206004820152600e60248201526d37b7363c9030b236b4b71031b0b760911b604482015290519081900360640190fd5b6001600160a01b0381166000908152600960205260409020600381015460ff1615156001146115a1576040805162461bcd60e51b815260206004820152601060248201526f1b9bdd081d995b9d5cc81b585c9ad95d60821b604482015290519081900360640190fd5b60038101805460ff19169055604080516001600160a01b03841681526000602082015281517f5f4087bd98874c2fa3ea4474bc7c58b711b23fff45cd2f456e358b4b33ee9025929181900390910190a16115f9614224565b5050565b806001600160a01b031663f851a4406040518163ffffffff1660e01b815260040160206040518083038186803b15801561163657600080fd5b505afa15801561164a573d6000803e3d6000fd5b505050506040513d602081101561166057600080fd5b50516001600160a01b031633146116be576040805162461bcd60e51b815260206004820152601960248201527f6f6e6c7920756e6974726f6c6c65722061646d696e2063616e00000000000000604482015290519081900360640190fd5b806001600160a01b031663c1e803346040518163ffffffff1660e01b8152600401602060405180830381600087803b1580156116f957600080fd5b505af115801561170d573d6000803e3d6000fd5b505050506040513d602081101561172357600080fd5b505115611768576040805162461bcd60e51b815260206004820152600e60248201526d1b9bdd08185d5d1a1bdc9a5e995960921b604482015290519081900360640190fd5b50565b5050505050565b6000546001600160a01b031633146117c2576040805162461bcd60e51b815260206004820152600e60248201526d37b7363c9030b236b4b71031b0b760911b604482015290519081900360640190fd5b600e805490829055604080518281526020810184905281517f5c37806eedc7b8c869503478c1753afec9fe3a9847d6b4ff288080bebe15dd34929181900390910190a16115f9614224565b60185460009062010000900460ff161561185c576040805162461bcd60e51b81526020600482015260126024820152600080516020616617833981519152604482015290519081900360640190fd5b6001600160a01b03851660009081526009602052604090205460ff166118845750600961191d565b61188c616537565b6040518060200160405280876001600160a01b031663aa5af0fd6040518163ffffffff1660e01b815260040160206040518083038186803b1580156118d057600080fd5b505afa1580156118e4573d6000803e3d6000fd5b505050506040513d60208110156118fa57600080fd5b50519052905061190a86826145a0565b6119178685836000614834565b60009150505b949350505050565b600a546001600160a01b031681565b6001546001600160a01b031681565b600080546001600160a01b03163314611994576040805162461bcd60e51b815260206004820152600e60248201526d37b7363c9030b236b4b71031b0b760911b604482015290519081900360640190fd5b6018805483151562010000810262ff0000199092169190911790915560408051918252517fd7500633dd3ddd74daa7af62f8c8404c7fe4a81da179998db851696bed004b389181900360200190a150805b919050565b60166020526000908152604090205481565b600a5460009082906001600160a01b0316331480611a2457506000546001600160a01b031633145b611a5f5760405162461bcd60e51b81526004018080602001828103825260218152602001806166796021913960400191505060405180910390fd5b6000546001600160a01b0316331480611a7a57506001811515145b611ab9576040805162461bcd60e51b815260206004820152601660248201526000805160206165f7833981519152604482015290519081900360640190fd5b600a8054841515600160b81b810260ff60b81b1990921691909117909155604080516020810192909252808252600582820152645365697a6560d81b6060830152516000805160206166378339815191529181900360800190a15090919050565b600080546001600160a01b03163314611b4057611b3960016014614a1f565b90506119e5565b6017805490839055604080518281526020810185905281517f73747d68b346dce1e932bcd238282e7ac84c01569e1f8d0469c222fdc6e9d5a4929181900390910190a160005b9392505050565b600080546001600160a01b03163314611bac57611b3960016004614a1f565b611bb4616537565b506040805160208101909152828152611bcb616537565b50604080516020810190915266b1a2bc2ec500008152611beb8282614a85565b15611c0457611bfb600580614a1f565b925050506119e5565b611c0c616537565b506040805160208101909152670c7d713b49da00008152611c2d8184614a8d565b15611c4757611c3d600580614a1f565b93505050506119e5565b6005805490869055604080518281526020810188905281517f3b9670cf975d26958e754b57098eaa2ac914d8d2a31b83257997b9f346110fd9929181900390910190a160005b9695505050505050565b60155460408051631bc2e8eb60e11b81526001600160a01b03848116600483015282516000948594921692633785d1d6926024808301939192829003018186803b158015611ce457600080fd5b505afa158015611cf8573d6000803e3d6000fd5b505050506040513d6040811015611d0e57600080fd5b5080516020909101519092509050915091565b6001600160a01b038216600090815260096020526040812054839060ff16611d8d576040805162461bcd60e51b815260206004820152601a6024820152791d995b9d5cc81b585c9ad95d081a5cc81b9bdd081b1a5cdd195960321b604482015290519081900360640190fd5b600a5483906001600160a01b0316331480611db257506000546001600160a01b031633145b611ded5760405162461bcd60e51b81526004018080602001828103825260218152602001806166796021913960400191505060405180910390fd5b6000546001600160a01b0316331480611e0857506001811515145b611e47576040805162461bcd60e51b815260206004820152601660248201526000805160206165f7833981519152604482015290519081900360640190fd5b6001600160a01b0385166000818152600b6020908152604091829020805488151560ff199091168117909155825193845283830152606090830181905260049083015263135a5b9d60e21b6080830152517f71aec636243f9709bb0007ae15e9afb8150ab01716d75fd7573be5cc096e03b09181900360a00190a150919392505050565b60185460ff1681565b601260209081526000928352604080842090915290825290205481565b50505050565b60185462010000900460ff1681565b435b90565b6000546001600160a01b03163314611f5b576040805162461bcd60e51b815260206004820152600e60248201526d37b7363c9030b236b4b71031b0b760911b604482015290519081900360640190fd5b60005b81811015611f9257611f8a838383818110611f7557fe5b905060200201356001600160a01b0316614a94565b600101611f5e565b506115f9614224565b6001600160a01b031660009081526016602052604090205490565b60185460009062010000900460ff1615612005576040805162461bcd60e51b81526020600482015260126024820152600080516020616617833981519152604482015290519081900360640190fd5b60185460ff1615612051576040805162461bcd60e51b81526020600482015260116024820152701b5a5b9d159052481a5cc81c185d5cd959607a1b604482015290519081900360640190fd5b612059614db2565b612064336000614e3d565b60155460408051630d00083160e01b81523360048201526024810185905290516001600160a01b0390921691630d000831916044808201926020929091908290030181600087803b1580156120b857600080fd5b505af11580156120cc573d6000803e3d6000fd5b505050506040513d60208110156120e257600080fd5b505192915050565b505050505050565b60065481565b60008060008060008061210d8a8a8a8a614f6b565b92509250925082601281111561211f57fe5b95509093509150505b9450945094915050565b60185460009062010000900460ff1615612181576040805162461bcd60e51b81526020600482015260126024820152600080516020616617833981519152604482015290519081900360640190fd5b6001600160a01b0384166000908152600b602052604090205460ff16156121e0576040805162461bcd60e51b815260206004820152600e60248201526d1b5a5b9d081a5cc81c185d5cd95960921b604482015290519081900360640190fd5b6001600160a01b03841660009081526009602052604090205460ff1661220a5760095b9050611b86565b612213846153e8565b61221f84846000615672565b6000949350505050565b600080546001600160a01b0316331461224857611b396001600b614a1f565b612250616537565b506040805160208101909152828152612267616537565b506040805160208101909152670de0b6b3a764000081526122888282614a8d565b1561229957611bfb6007600c614a1f565b6122a1616537565b5060408051602081019091526714d1120d7b16000081526122c28184614a8d565b156122d357611c3d6007600c614a1f565b6006805490869055604080518281526020810188905281517faeba5a6c40a8ac138134bff1aaa65debf25971188a58804bad717f82f0ec1316929181900390910190a16000611c8d565b6000546001600160a01b0316331461236d576040805162461bcd60e51b815260206004820152600e60248201526d37b7363c9030b236b4b71031b0b760911b604482015290519081900360640190fd5b6015546001600160a01b031615611768576015546040805163281ac90560e11b81526004810184905290516001600160a01b0390921691635035920a916024808201926020929091908290030181600087803b1580156123cc57600080fd5b505af11580156123e0573d6000803e3d6000fd5b505050506040513d60208110156123f657600080fd5b505050565b80151580612407575081155b611ef1576040805162461bcd60e51b815260206004820152601160248201527072656465656d546f6b656e73207a65726f60781b604482015290519081900360640190fd5b600d818154811061245957fe5b6000918252602090912001546001600160a01b0316905081565b600080546001600160a01b0316331461249257611b3960016010614a1f565b600480546001600160a01b038481166001600160a01b0319831681179093556040805191909216808252602082019390935281517fd52b2b9b7e9ee655fcb95d2e5b9e0c9f69e7ef2b8e9d2d0ea78402d576d22e22929181900390910190a16000611b86565b60008060008060008061250f876000806000614f6b565b92509250925082601281111561252157fe5b97919650945092505050565b600080546001600160a01b0316331461254c57611b3960016013614a1f565b600a80546001600160a01b038481166001600160a01b0319831681179093556040805191909216808252602082019390935281517f0613b6ee6a04f0d09f390e4d9318894b9f6ac7fd83897cd8d18896ba579c401e929181900390910190a16000611b86565b60185460009062010000900460ff1615612601576040805162461bcd60e51b81526020600482015260126024820152600080516020616617833981519152604482015290519081900360640190fd5b6001600160a01b03861660009081526009602052604090205460ff16158061264257506001600160a01b03851660009081526009602052604090205460ff16155b156126515760095b9050612784565b600080612662856000806000614f6b565b9193509091506000905082601281111561267857fe5b146126925781601281111561268957fe5b92505050612784565b8061269e576003612689565b6000886001600160a01b03166395dd9193876040518263ffffffff1660e01b815260040180826001600160a01b03166001600160a01b0316815260200191505060206040518083038186803b1580156126f657600080fd5b505afa15801561270a573d6000803e3d6000fd5b505050506040513d602081101561272057600080fd5b5051604080516020810190915260055481529091506000908190612744908461586a565b9092509050600082600381111561275757fe5b1461276b57600b5b95505050505050612784565b8087111561277a57601161275f565b6000955050505050505b95945050505050565b66038d7ea4c6800081565b611ef1565b60185460009062010000900460ff16156127ec576040805162461bcd60e51b81526020600482015260126024820152600080516020616617833981519152604482015290519081900360640190fd5b601854610100900460ff161561283e576040805162461bcd60e51b81526020600482015260126024820152711c995c185e559052481a5cc81c185d5cd95960721b604482015290519081900360640190fd5b612846614db2565b612851336000614e3d565b6015546040805163bca07ad560e01b81523360048201526024810185905290516001600160a01b039092169163bca07ad5916044808201926020929091908290030181600087803b1580156120b857600080fd5b601854610100900460ff1681565b6004546001600160a01b031681565b6040805160018082528183019092526060916020808301908038833901905050905082816000815181106128f257fe5b60200260200101906001600160a01b031690816001600160a01b0316815250506123f6818360018061355a565b600e5481565b60146020526000908152604090205481565b60096020526000908152604090208054600182015460039092015460ff91821692911683565b600a5460009082906001600160a01b031633148061298557506000546001600160a01b031633145b6129c05760405162461bcd60e51b81526004018080602001828103825260218152602001806166796021913960400191505060405180910390fd5b6000546001600160a01b03163314806129db57506001811515145b612a1a576040805162461bcd60e51b815260206004820152601660248201526000805160206165f7833981519152604482015290519081900360640190fd5b600a8054841515600160b01b810260ff60b01b1990921691909117909155604080516020810192909252808252600882820152672a3930b739b332b960c11b6060830152516000805160206166378339815191529181900360800190a15090919050565b6015546001600160a01b031681565b6001600160a01b038082166000908152600960209081526040808320938616835260029093019052205460ff165b92915050565b60075481565b600080546001600160a01b03163314612ae657611b3960016015614a1f565b601580546001600160a01b038481166001600160a01b0319831681179093556040805191909216808252602082019390935281517fe1ddcb2dab8e5b03cfc8c67a0d5861d91d16f7bd2612fd381faf4541d212c9b2929181900390910190a150919050565b600080546001600160a01b03163314612b6a57611b3960016012614a1f565b6001600160a01b03821660009081526009602052604090205460ff1615612b9757611b39600a6011614a1f565b816001600160a01b0316633d9ea3a16040518163ffffffff1660e01b815260040160206040518083038186803b158015612bd057600080fd5b505afa158015612be4573d6000803e3d6000fd5b505050506040513d6020811015612bfa57600080fd5b5050604080516060810182526001808252600060208381018281528486018381526001600160a01b03891684526009909252949091209251835490151560ff19918216178455935191830191909155516003909101805491151591909216179055612c64826158be565b604080516001600160a01b038416815290517fcf583bb0c569eb967f806b11601c4cb93c10310485c67add5f8362c2f212321f9181900360200190a1600092915050565b6001600160a01b038116600090815260086020908152604091829020805483518184028101840190945280845260609392830182828015612d1257602002820191906000526020600020905b81546001600160a01b03168152600190910190602001808311612cf4575b50505050509050919050565b61176881600d805480602002602001604051908101604052809291908181526020018280548015612d7857602002820191906000526020600020905b81546001600160a01b03168152600190910190602001808311612d5a575b50505050506128c2565b6060600d805480602002602001604051908101604052809291908181526020018280548015612dda57602002820191906000526020600020905b81546001600160a01b03168152600190910190602001808311612dbc575b5050505050905090565b600a5460009082906001600160a01b0316331480612e0c57506000546001600160a01b031633145b612e475760405162461bcd60e51b81526004018080602001828103825260218152602001806166796021913960400191505060405180910390fd5b6000546001600160a01b0316331480612e6257506001811515145b612ea1576040805162461bcd60e51b815260206004820152601660248201526000805160206165f7833981519152604482015290519081900360640190fd5b60188054841515610100810261ff00199092169190911790915560408051602081019290925280825260088282015267526570617956414960c01b6060830152516000805160206166378339815191529181900360800190a15090919050565b6010602052600090815260409020546001600160e01b03811690600160e01b900463ffffffff1682565b6002546001600160a01b031681565b60185460009062010000900460ff1615612f89576040805162461bcd60e51b81526020600482015260126024820152600080516020616617833981519152604482015290519081900360640190fd5b600a54600160b01b900460ff1615612fdd576040805162461bcd60e51b81526020600482015260126024820152711d1c985b9cd9995c881a5cc81c185d5cd95960721b604482015290519081900360640190fd5b6000612fea86868561599c565b90508015612ff957905061191d565b613002866153e8565b61300e86866000615672565b61191786856000615672565b60175481565b73cf6bb5389c92bdda8a3747ddb454cb7a64626c6390565b60408051828152602080840282010190915260609082908290828015613068578160200160208202803883390190505b50905060005b828110156130c55761309b86868381811061308557fe5b905060200201356001600160a01b031633615a3f565b60128111156130a657fe5b8282815181106130b257fe5b602090810291909101015260010161306e565b50949350505050565b600480546040805163fc57d4df60e01b81526001600160a01b038781169482019490945290516000938493849391169163fc57d4df91602480820192602092909190829003018186803b15801561312457600080fd5b505afa158015613138573d6000803e3d6000fd5b505050506040513d602081101561314e57600080fd5b5051600480546040805163fc57d4df60e01b81526001600160a01b038a8116948201949094529051939450600093929091169163fc57d4df91602480820192602092909190829003018186803b1580156131a757600080fd5b505afa1580156131bb573d6000803e3d6000fd5b505050506040513d60208110156131d157600080fd5b505190508115806131e0575080155b156131f557600d93506000925061333b915050565b6000866001600160a01b031663182df0f56040518163ffffffff1660e01b815260040160206040518083038186803b15801561323057600080fd5b505afa158015613244573d6000803e3d6000fd5b505050506040513d602081101561325a57600080fd5b505190506000613268616537565b613270616537565b613278616537565b600061328660065489615b5b565b94509050600081600381111561329857fe5b146132b457600b5b99506000985061333b975050505050505050565b6132be8787615b5b565b9350905060008160038111156132d057fe5b146132dc57600b6132a0565b6132e68484615b96565b9250905060008160038111156132f857fe5b1461330457600b6132a0565b61330e828c61586a565b95509050600081600381111561332057fe5b1461332c57600b6132a0565b60009950939750505050505050505b935093915050565b6ec097ce7bc90715b34b9f100000000081565b60185460009062010000900460ff16156133a5576040805162461bcd60e51b81526020600482015260126024820152600080516020616617833981519152604482015290519081900360640190fd5b600a54600160b81b900460ff16156133f6576040805162461bcd60e51b815260206004820152600f60248201526e1cd95a5e99481a5cc81c185d5cd959608a1b604482015290519081900360640190fd5b6001600160a01b03861660009081526009602052604090205460ff16158061343757506001600160a01b03851660009081526009602052604090205460ff16155b1561344357600961264a565b846001600160a01b0316635fe3b5676040518163ffffffff1660e01b815260040160206040518083038186803b15801561347c57600080fd5b505afa158015613490573d6000803e3d6000fd5b505050506040513d60208110156134a657600080fd5b505160408051635fe3b56760e01b815290516001600160a01b0392831692891691635fe3b567916004808301926020929190829003018186803b1580156134ec57600080fd5b505afa158015613500573d6000803e3d6000fd5b505050506040513d602081101561351657600080fd5b50516001600160a01b03161461352d57600261264a565b613536866153e8565b61354286846000615672565b61354e86856000615672565b60009695505050505050565b6000613564614db2565b5060005b84518110156135975761358f85828151811061358057fe5b60200260200101516001614e3d565b600101613568565b60005b84518110156120ea5760008582815181106135b157fe5b6020908102919091018101516001600160a01b0381166000908152600990925260409091205490915060ff16613622576040805162461bcd60e51b81526020600482015260116024820152701b9bdd081b1a5cdd1959081b585c9ad95d607a1b604482015290519081900360640190fd5b84156136e957613630616537565b6040518060200160405280836001600160a01b031663aa5af0fd6040518163ffffffff1660e01b815260040160206040518083038186803b15801561367457600080fd5b505afa158015613688573d6000803e3d6000fd5b505050506040513d602081101561369e57600080fd5b5051905290506136ae82826145a0565b600093505b87518410156136e7576136dc828986815181106136cc57fe5b6020026020010151836001614834565b6001909301926136b3565b505b8315613730576136f8816153e8565b600092505b8651831015613730576137258188858151811061371657fe5b60200260200101516001615672565b6001909201916136fd565b5060010161359a565b600080546001600160a01b0316331461375857611b396001600d614a1f565b6007805490839055604080518281526020810185905281517f7093cf1eb653f749c3ff531d6df7f92764536a7fa0d13530cd26e070780c32ea929181900390910190a16000611b86565b60185460009062010000900460ff16156137f1576040805162461bcd60e51b81526020600482015260126024820152600080516020616617833981519152604482015290519081900360640190fd5b6001600160a01b0384166000908152600c602052604090205460ff1615613852576040805162461bcd60e51b815260206004820152601060248201526f189bdc9c9bddc81a5cc81c185d5cd95960821b604482015290519081900360640190fd5b6001600160a01b03841660009081526009602052604090205460ff16613879576009612203565b6001600160a01b038085166000908152600960209081526040808320938716835260029093019052205460ff1661393657336001600160a01b038516146138ff576040805162461bcd60e51b815260206004820152601560248201527439b2b73232b91036bab9ba103132903b2a37b5b2b760591b604482015290519081900360640190fd5b600061390b8585615a3f565b9050600081601281111561391b57fe5b146139345780601281111561392c57fe5b915050611b86565b505b600480546040805163fc57d4df60e01b81526001600160a01b03888116948201949094529051929091169163fc57d4df91602480820192602092909190829003018186803b15801561398757600080fd5b505afa15801561399b573d6000803e3d6000fd5b505050506040513d60208110156139b157600080fd5b50516139be57600d612203565b6000806139ce8587600087614f6b565b919350909150600090508260128111156139e457fe5b146139fe578160128111156139f557fe5b92505050611b86565b8015613a0b5760046139f5565b613a13616537565b6040518060200160405280886001600160a01b031663aa5af0fd6040518163ffffffff1660e01b815260040160206040518083038186803b158015613a5757600080fd5b505afa158015613a6b573d6000803e3d6000fd5b505050506040513d6020811015613a8157600080fd5b505190529050613a9187826145a0565b613a9e8787836000614834565b6000979650505050505050565b60086020528160005260406000208181548110613ac457fe5b6000918252602090912001546001600160a01b03169150829050565b6003546001600160a01b031681565b6011602052600090815260409020546001600160e01b03811690600160e01b900463ffffffff1682565b600080546001600160a01b03163314613b3f57613b3860016006614a1f565b9050612abb565b6001600160a01b0383166000908152600960205260409020805460ff16613b7457613b6c60096007614a1f565b915050612abb565b613b7c616537565b506040805160208101909152838152613b93616537565b506040805160208101909152670c7d713b49da00008152613bb48183614a8d565b15613bcf57613bc560066008614a1f565b9350505050612abb565b8415801590613c585750600480546040805163fc57d4df60e01b81526001600160a01b038a8116948201949094529051929091169163fc57d4df91602480820192602092909190829003018186803b158015613c2a57600080fd5b505afa158015613c3e573d6000803e3d6000fd5b505050506040513d6020811015613c5457600080fd5b5051155b15613c6957613bc5600d6009614a1f565b60018301805490869055604080516001600160a01b03891681526020810183905280820188905290517f70483e6592cd5182d45ac970e05bc62cdcc90e9d8ef2c2dbe686cf383bcd7fc59181900360600190a16000979650505050505050565b60055481565b600a5460009082906001600160a01b0316331480613cf757506000546001600160a01b031633145b613d325760405162461bcd60e51b81526004018080602001828103825260218152602001806166796021913960400191505060405180910390fd5b6000546001600160a01b0316331480613d4d57506001811515145b613d8c576040805162461bcd60e51b815260206004820152601660248201526000805160206165f7833981519152604482015290519081900360640190fd5b6018805484151560ff199091168117909155604080516020810192909252808252600782820152664d696e7456414960c81b6060830152516000805160206166378339815191529181900360800190a15090919050565b60185460009062010000900460ff1615613e32576040805162461bcd60e51b81526020600482015260126024820152600080516020616617833981519152604482015290519081900360640190fd5b6000613e3f85858561599c565b90508015613e4e579050611b86565b613e57856153e8565b613e6385856000615672565b600095945050505050565b6000808290506000806000836001600160a01b031663c37f68e2336040518263ffffffff1660e01b815260040180826001600160a01b03166001600160a01b0316815260200191505060806040518083038186803b158015613ecf57600080fd5b505afa158015613ee3573d6000803e3d6000fd5b505050506040513d6080811015613ef957600080fd5b508051602082015160409092015190945090925090508215613f62576040805162461bcd60e51b815260206004820152601960248201527f6765744163636f756e74536e617073686f74206661696c656400000000000000604482015290519081900360640190fd5b8015613f7f57613f74600c6002614a1f565b9450505050506119e5565b6000613f8c87338561599c565b90508015613fad57613fa1600e600383615bae565b955050505050506119e5565b6001600160a01b0385166000908152600960209081526040808320338452600281019092529091205460ff16613fec57600096505050505050506119e5565b3360009081526002820160209081526040808320805460ff1916905560089091528120805490915b818110156140cd57886001600160a01b031683828154811061403257fe5b6000918252602090912001546001600160a01b031614156140c55782600183038154811061405c57fe5b9060005260206000200160009054906101000a90046001600160a01b031683828154811061408657fe5b600091825260209091200180546001600160a01b0319166001600160a01b039290921691909117905582546140bf84600019830161654a565b506140cd565b600101614014565b8181106140d657fe5b604080516001600160a01b038b16815233602082015281517fe699a64c18b07ac5b7301aa273f36a2287239eb9501d81950672794afba29a0d929181900390910190a160009b9a5050505050505050505050565b6000546001600160a01b031681565b60185460009062010000900460ff1615614188576040805162461bcd60e51b81526020600482015260126024820152600080516020616617833981519152604482015290519081900360640190fd5b60185460ff161580156141a35750601854610100900460ff16155b6141e4576040805162461bcd60e51b815260206004820152600d60248201526c159052481a5cc81c185d5cd959609a1b604482015290519081900360640190fd5b6015546001600160a01b0316331461420257613b38600e6016614a1f565b6001600160a01b03831660009081526016602052604081208390559392505050565b6000805b600d548210156142f157600d828154811061423f57fe5b6000918252602090912001546001600160a01b0316905061425e616537565b6040518060200160405280836001600160a01b031663aa5af0fd6040518163ffffffff1660e01b815260040160206040518083038186803b1580156142a257600080fd5b505afa1580156142b6573d6000803e3d6000fd5b505050506040513d60208110156142cc57600080fd5b5051905290506142db826153e8565b6142e582826145a0565b50600190910190614228565b6142f9616537565b6040518060200160405280600081525090506060600d8054905060405190808252806020026020018201604052801561434c57816020015b614339616537565b8152602001906001900390816143315790505b509050600093505b600d548410156144d557600d848154811061436b57fe5b60009182526020808320909101546001600160a01b0316808352600990915260409091206003015490935060ff16156144ca576143a6616537565b60408051602080820180845260045463fc57d4df60e01b9091526001600160a01b03888116602485015293519293849391169163fc57d4df916044808601929190818703018186803b1580156143fb57600080fd5b505afa15801561440f573d6000803e3d6000fd5b505050506040513d602081101561442557600080fd5b505190529050614433616537565b6144a182866001600160a01b03166347bd37186040518163ffffffff1660e01b815260040160206040518083038186803b15801561447057600080fd5b505afa158015614484573d6000803e3d6000fd5b505050506040513d602081101561449a57600080fd5b5051615c14565b9050808387815181106144b057fe5b60200260200101819052506144c58482615c3e565b935050505b600190930192614354565b600093505b600d54841015611ef157600d84815481106144f157fe5b600091825260208220015483516001600160a01b03909116945061451657600061453e565b61453e600e5461453984888151811061452b57fe5b602002602001015186615c63565b615c96565b6001600160a01b0385166000818152600f60209081526040918290208490558151848152915193945091927f2a0ce45ba05a83e75ba21e1a10d6b48a8395028cc6e1ae66f6c313648379d548929181900390910190a2506001909301926144da565b6001600160a01b0382166000908152601160209081526040808320600f90925282205490916145cd611f06565b83549091506000906145ed908390600160e01b900463ffffffff16615cbe565b90506000811180156145ff5750600083115b156147cf576000614674876001600160a01b03166347bd37186040518163ffffffff1660e01b815260040160206040518083038186803b15801561464257600080fd5b505afa158015614656573d6000803e3d6000fd5b505050506040513d602081101561466c57600080fd5b505187615cf8565b905060006146828386615d16565b905061468c616537565b600083116146a957604051806020016040528060008152506146b3565b6146b38284615d58565b90506146bd616537565b604080516020810190915288546001600160e01b031681526146df9083615c3e565b905060405180604001604052806147258360000151604051806040016040528060138152602001726e657720696e646578206f766572666c6f777360681b815250615d8d565b6001600160e01b0316815260200161476b8860405180604001604052806016815260200175626c6f636b206e756d626572206f766572666c6f777360501b815250615e27565b63ffffffff9081169091526001600160a01b038c166000908152601160209081526040909120835181549490920151909216600160e01b026001600160e01b039182166001600160e01b03199094169390931716919091179055506120ea92505050565b80156120ea5761480d8260405180604001604052806016815260200175626c6f636b206e756d626572206f766572666c6f777360501b815250615e27565b845463ffffffff91909116600160e01b026001600160e01b03909116178455505050505050565b6001600160a01b0384166000908152601160205260409020614854616537565b50604080516020810190915281546001600160e01b03168152614875616537565b5060408051602080820183526001600160a01b03808a16600090815260138352848120918a1680825282845294812080548552865195909152915291909155805115614a16576148c3616537565b6148cd8383615e7c565b9050600061495c896001600160a01b03166395dd91938a6040518263ffffffff1660e01b815260040180826001600160a01b03166001600160a01b0316815260200191505060206040518083038186803b15801561492a57600080fd5b505afa15801561493e573d6000803e3d6000fd5b505050506040513d602081101561495457600080fd5b505188615cf8565b9050600061496a8284615ea1565b6001600160a01b038a16600090815260146020526040812054919250906149919083615ec1565b90506149b28a828a6149aa5766038d7ea4c680006149ad565b60005b615ef7565b6001600160a01b03808c1660008181526014602090815260409182902094909455895181518781529485015280519193928f16927f837bdc11fca9f17ce44167944475225a205279b17e88c791c3b1f66f354668fb929081900390910190a3505050505b50505050505050565b60007f45b96fe442630264581b197e84bbada861235052c5a1aadfff9ea4e40a969aa0836012811115614a4e57fe5b836017811115614a5a57fe5b604080519283526020830191909152600082820152519081900360600190a1826012811115611b8657fe5b519051111590565b5190511090565b6001600160a01b0381166000908152600960205260409020805460ff16614aff576040805162461bcd60e51b815260206004820152601a6024820152791d995b9d5cc81b585c9ad95d081a5cc81b9bdd081b1a5cdd195960321b604482015290519081900360640190fd5b600381015460ff1615614b59576040805162461bcd60e51b815260206004820152601a60248201527f76656e7573206d61726b657420616c7265616479206164646564000000000000604482015290519081900360640190fd5b60038101805460ff19166001908117909155604080516001600160a01b0385168152602081019290925280517f5f4087bd98874c2fa3ea4474bc7c58b711b23fff45cd2f456e358b4b33ee90259281900390910190a16001600160a01b0382166000908152601060205260409020546001600160e01b0316158015614c0157506001600160a01b038216600090815260106020526040902054600160e01b900463ffffffff16155b15614cc95760405180604001604052806ec097ce7bc90715b34b9f10000000006001600160e01b03168152602001614c6e614c3a611f06565b60405180604001604052806016815260200175626c6f636b206e756d626572206f766572666c6f777360501b815250615e27565b63ffffffff9081169091526001600160a01b0384166000908152601060209081526040909120835181549490920151909216600160e01b026001600160e01b039182166001600160e01b031990941693909317169190911790555b6001600160a01b0382166000908152601160205260409020546001600160e01b0316158015614d1b57506001600160a01b038216600090815260116020526040902054600160e01b900463ffffffff16155b156115f95760405180604001604052806ec097ce7bc90715b34b9f10000000006001600160e01b03168152602001614d54614c3a611f06565b63ffffffff9081169091526001600160a01b0384166000908152601160209081526040909120835181549490920151909216600160e01b026001600160e01b039182166001600160e01b031990941693909317169190911790555050565b6015546001600160a01b03161561132857601560009054906101000a90046001600160a01b03166001600160a01b031663d244b0816040518163ffffffff1660e01b8152600401602060405180830381600087803b158015614e1357600080fd5b505af1158015614e27573d6000803e3d6000fd5b505050506040513d60208110156115f957600080fd5b6015546001600160a01b0316156115f9576015546040805163d178273b60e01b81526001600160a01b0385811660048301529151600093849384938493919092169163d178273b91602480830192608092919082900301818787803b158015614ea557600080fd5b505af1158015614eb9573d6000803e3d6000fd5b505050506040513d6080811015614ecf57600080fd5b508051602082015160408301516060909301519096509194509092509050806120ea57614f098685876149aa5766038d7ea4c680006149ad565b6001600160a01b038716600081815260146020908152604091829020939093558051868152928301859052805191927f2fb3baf25f3d9fc9f9eb9dfd7da8567731a91413437d91bc1b8a839d0a1ba88f929081900390910190a2505050505050565b6000806000614f7861656e565b6001600160a01b038816600090815260086020908152604080832080548251818502810185019093528083528493606093929190830182828015614fe557602002820191906000526020600020905b81546001600160a01b03168152600190910190602001808311614fc7575b50939450600093505050505b815181101561534157600082828151811061500857fe5b60200260200101519050806001600160a01b031663c37f68e28e6040518263ffffffff1660e01b815260040180826001600160a01b03166001600160a01b0316815260200191505060806040518083038186803b15801561506857600080fd5b505afa15801561507c573d6000803e3d6000fd5b505050506040513d608081101561509257600080fd5b508051602082015160408084015160609485015160808c0152938a019390935291880191909152945084156150d85750600f975060009650869550612128945050505050565b60408051602080820183526001600160a01b0380851660008181526009845285902060010154845260c08b01939093528351808301855260808b0151815260e08b015260048054855163fc57d4df60e01b815291820194909452935192169263fc57d4df9260248083019392829003018186803b15801561515857600080fd5b505afa15801561516c573d6000803e3d6000fd5b505050506040513d602081101561518257600080fd5b505160a087018190526151a65750600d975060009650869550612128945050505050565b604080516020810190915260a08701518152610100870181905260c087015160e08801516151d39261603c565b610120880152935060008460038111156151e957fe5b146152055750600b975060009650869550612128945050505050565b61521d86610120015187604001518860000151616094565b87529350600084600381111561522f57fe5b1461524b5750600b975060009650869550612128945050505050565b61526386610100015187606001518860200151616094565b60208801529350600084600381111561527857fe5b146152945750600b975060009650869550612128945050505050565b8b6001600160a01b0316816001600160a01b03161415615338576152c28661012001518c8860200151616094565b6020880152935060008460038111156152d757fe5b146152f35750600b975060009650869550612128945050505050565b6153078661010001518b8860200151616094565b60208801529350600084600381111561531c57fe5b146153385750600b975060009650869550612128945050505050565b50600101614ff1565b506153758460200151601660008e6001600160a01b03166001600160a01b03168152602001908152602001600020546160dd565b60208601529150600082600381111561538a57fe5b146153a45750600b95506000945084935061212892505050565b6020840151845111156153ca575050506020810151905160009450039150829050612128565b50508151602090920151600095508594509190910391506121289050565b6001600160a01b0381166000908152601060209081526040808320600f9092528220549091615415611f06565b8354909150600090615435908390600160e01b900463ffffffff16615cbe565b90506000811180156154475750600083115b1561560e576000856001600160a01b03166318160ddd6040518163ffffffff1660e01b815260040160206040518083038186803b15801561548757600080fd5b505afa15801561549b573d6000803e3d6000fd5b505050506040513d60208110156154b157600080fd5b5051905060006154c18386615d16565b90506154cb616537565b600083116154e857604051806020016040528060008152506154f2565b6154f28284615d58565b90506154fc616537565b604080516020810190915288546001600160e01b0316815261551e9083615c3e565b905060405180604001604052806155648360000151604051806040016040528060138152602001726e657720696e646578206f766572666c6f777360681b815250615d8d565b6001600160e01b031681526020016155aa8860405180604001604052806016815260200175626c6f636b206e756d626572206f766572666c6f777360501b815250615e27565b63ffffffff9081169091526001600160a01b038b166000908152601060209081526040909120835181549490920151909216600160e01b026001600160e01b039182166001600160e01b031990941693909317169190911790555061176b92505050565b801561176b5761564c8260405180604001604052806016815260200175626c6f636b206e756d626572206f766572666c6f777360501b815250615e27565b845463ffffffff91909116600160e01b026001600160e01b039091161784555050505050565b6001600160a01b0383166000908152601060205260409020615692616537565b50604080516020810190915281546001600160e01b031681526156b3616537565b5060408051602080820183526001600160a01b038089166000908152601283528481209189168082528284529481208054855286519590915291529190915580511580156157015750815115155b15615719576ec097ce7bc90715b34b9f100000000081525b615721616537565b61572b8383615e7c565b90506000876001600160a01b03166370a08231886040518263ffffffff1660e01b815260040180826001600160a01b03166001600160a01b0316815260200191505060206040518083038186803b15801561578557600080fd5b505afa158015615799573d6000803e3d6000fd5b505050506040513d60208110156157af57600080fd5b5051905060006157bf8284615ea1565b6001600160a01b038916600090815260146020526040812054919250906157e69083615ec1565b90506157ff89828a6149aa5766038d7ea4c680006149ad565b6001600160a01b03808b1660008181526014602090815260409182902094909455895181518781529485015280519193928e16927ffa9d964d891991c113b49e3db1932abd6c67263d387119707aafdd6c4010a3a9929081900390910190a350505050505050505050565b6000806000615877616537565b6158818686616103565b9092509050600082600381111561589457fe5b146158a557509150600090506158b7565b60006158b08261616b565b9350935050505b9250929050565b60005b600d5481101561594957816001600160a01b0316600d82815481106158e257fe5b6000918252602090912001546001600160a01b03161415615941576040805162461bcd60e51b81526020600482015260146024820152731b585c9ad95d08185b1c9958591e48185919195960621b604482015290519081900360640190fd5b6001016158c1565b50600d80546001810182556000919091527fd7b6990105719101dabeb77144f2a3385c8033acd3af97e9423a695e81ad1eb50180546001600160a01b0319166001600160a01b0392909216919091179055565b6001600160a01b03831660009081526009602052604081205460ff166159c3576009612203565b6001600160a01b038085166000908152600960209081526040808320938716835260029093019052205460ff166159fb576000612203565b600080615a0b8587866000614f6b565b91935090915060009050826012811115615a2157fe5b14615a32578160128111156139f557fe5b801561354e5760046139f5565b6001600160a01b0382166000908152600960205260408120805460ff16615a6a576009915050612abb565b6001600160a01b038316600090815260028201602052604090205460ff1615615a97576000915050612abb565b6007546001600160a01b03841660009081526008602052604090205410615ac2576010915050612abb565b6001600160a01b0380841660008181526002840160209081526040808320805460ff19166001908117909155600883528184208054918201815584529282902090920180549489166001600160a01b031990951685179055815193845283019190915280517f3ab23ab0d51cccc0c3085aec51f99228625aa1a922b3a8ca89a26b0f2027a1a59281900390910190a15060009392505050565b6000615b65616537565b615b8b60405180602001604052808681525060405180602001604052808681525061617a565b915091509250929050565b6000615ba0616537565b83518351615b8b9190616263565b60007f45b96fe442630264581b197e84bbada861235052c5a1aadfff9ea4e40a969aa0846012811115615bdd57fe5b846017811115615be957fe5b604080519283526020830191909152818101859052519081900360600190a183601281111561191d57fe5b615c1c616537565b6040518060200160405280615c35856000015185615d16565b90529392505050565b615c46616537565b6040518060200160405280615c3585600001518560000151615ec1565b615c6b616537565b6040518060200160405280615c35615c8f8660000151670de0b6b3a7640000615d16565b8551616313565b6000670de0b6b3a7640000615caf848460000151615d16565b81615cb657fe5b049392505050565b6000611b868383604051806040016040528060158152602001747375627472616374696f6e20756e646572666c6f7760581b815250616346565b6000611b86615d0f84670de0b6b3a7640000615d16565b8351616313565b6000611b8683836040518060400160405280601781526020017f6d756c7469706c69636174696f6e206f766572666c6f770000000000000000008152506163a0565b615d60616537565b6040518060200160405280615c35615d87866ec097ce7bc90715b34b9f1000000000615d16565b85616313565b600081600160e01b8410615e1f5760405162461bcd60e51b81526004018080602001828103825283818151815260200191508051906020019080838360005b83811015615de4578181015183820152602001615dcc565b50505050905090810190601f168015615e115780820380516001836020036101000a031916815260200191505b509250505060405180910390fd5b509192915050565b600081600160201b8410615e1f5760405162461bcd60e51b8152602060048201818152835160248401528351909283926044909101919085019080838360008315615de4578181015183820152602001615dcc565b615e84616537565b6040518060200160405280615c3585600001518560000151615cbe565b60006ec097ce7bc90715b34b9f1000000000615caf848460000151615d16565b6000611b868383604051806040016040528060118152602001706164646974696f6e206f766572666c6f7760781b815250616416565b6000818310158015615f095750600083115b15616034576000615f18613020565b604080516370a0823160e01b815230600482015290519192506000916001600160a01b038416916370a08231916024808301926020929190829003018186803b158015615f6457600080fd5b505afa158015615f78573d6000803e3d6000fd5b505050506040513d6020811015615f8e57600080fd5b5051905080851161603157816001600160a01b031663a9059cbb87876040518363ffffffff1660e01b815260040180836001600160a01b03166001600160a01b0316815260200182815260200192505050602060405180830381600087803b158015615ff957600080fd5b505af115801561600d573d6000803e3d6000fd5b505050506040513d602081101561602357600080fd5b5060009350611b8692505050565b50505b509092915050565b6000616046616537565b6000616050616537565b61605a878761617a565b9092509050600082600381111561606d57fe5b1461607c57909250905061333b565b616086818661617a565b935093505050935093915050565b60008060006160a1616537565b6160ab8787616103565b909250905060008260038111156160be57fe5b146160cf575091506000905061333b565b6160866160db8261616b565b865b6000808383018481106160f5576000925090506158b7565b5060029150600090506158b7565b600061610d616537565b60008061611e86600001518661646b565b9092509050600082600381111561613157fe5b14616150575060408051602081019091526000815290925090506158b7565b60408051602081019091529081526000969095509350505050565b51670de0b6b3a7640000900490565b6000616184616537565b6000806161998660000151866000015161646b565b909250905060008260038111156161ac57fe5b146161cb575060408051602081019091526000815290925090506158b7565b6000806161e06706f05b59d3b20000846160dd565b909250905060008260038111156161f357fe5b14616215575060408051602081019091526000815290945092506158b7915050565b60008061622a83670de0b6b3a76400006164aa565b9092509050600082600381111561623d57fe5b1461624457fe5b604080516020810190915290815260009a909950975050505050505050565b600061626d616537565b60008061628286670de0b6b3a764000061646b565b9092509050600082600381111561629557fe5b146162b4575060408051602081019091526000815290925090506158b7565b6000806162c183886164aa565b909250905060008260038111156162d457fe5b146162f6575060408051602081019091526000815290945092506158b7915050565b604080516020810190915290815260009890975095505050505050565b6000611b8683836040518060400160405280600e81526020016d646976696465206279207a65726f60901b8152506164d5565b600081848411156163985760405162461bcd60e51b8152602060048201818152835160248401528351909283926044909101919085019080838360008315615de4578181015183820152602001615dcc565b505050900390565b60008315806163ad575082155b156163ba57506000611b86565b838302838582816163c757fe5b041483906130c55760405162461bcd60e51b8152602060048201818152835160248401528351909283926044909101919085019080838360008315615de4578181015183820152602001615dcc565b600083830182858210156130c55760405162461bcd60e51b8152602060048201818152835160248401528351909283926044909101919085019080838360008315615de4578181015183820152602001615dcc565b6000808361647e575060009050806158b7565b8383028385828161648b57fe5b041461649f575060029150600090506158b7565b6000925090506158b7565b600080826164be57506001905060006158b7565b60008385816164c957fe5b04915091509250929050565b600081836165245760405162461bcd60e51b8152602060048201818152835160248401528351909283926044909101919085019080838360008315615de4578181015183820152602001615dcc565b5082848161652e57fe5b04949350505050565b6040518060200160405280600081525090565b8154818355818111156123f6576000838152602090206123f69181019083016165d8565b6040518061014001604052806000815260200160008152602001600081526020016000815260200160008152602001600081526020016165ac616537565b81526020016165b9616537565b81526020016165c6616537565b81526020016165d3616537565b905290565b611f0891905b808211156165f257600081556001016165de565b509056fe6f6e6c792061646d696e2063616e20756e70617573650000000000000000000070726f746f636f6c206973207061757365640000000000000000000000000000ef159d9a32b2472e32b098f954f3ce62d232939f1c207070b584df1814de2de06f6e6c792065787465726e616c6c79206f776e6564206163636f756e74732063616e6f6e6c7920706175736520677561726469616e20616e642061646d696e2063616ea265627a7a7231582094ceb233a3b60d285366d174f8a4eafcfe4ccbe93d16d50188d5352daf18d39664736f6c63430005100032",
  "linkReferences": {},
  "deployedLinkReferences": {}
}