{
  "_format": "hh-sol-artifact-1",
  "contractName": "Comptroller",
  "sourceName": "contracts/Comptroller.sol",
  "abi": [
    {
      "inputs": [],
      "payable": false,
      "stateMutability": "nonpayable",
      "type": "constructor"
    },
    {
      "anonymous": false,
      "inputs": [
        {
          "indexed": false,
          "internalType": "string",
          "name": "action",
          "type": "string"
        },
        {
          "indexed": false,
          "internalType": "bool",
          "name": "pauseState",
          "type": "bool"
        }
      ],
      "name": "ActionPaused",
      "type": "event"
    },
    {
      "anonymous": false,
      "inputs": [
        {
          "indexed": false,
          "internalType": "contract VToken",
          "name": "vToken",
          "type": "address"
        },
        {
          "indexed": false,
          "internalType": "enum ComptrollerV9Storage.Action",
          "name": "action",
          "type": "uint8"
        },
        {
          "indexed": false,
          "internalType": "bool",
          "name": "pauseState",
          "type": "bool"
        }
      ],
      "name": "ActionPausedMarket",
      "type": "event"
    },
    {
      "anonymous": false,
      "inputs": [
        {
          "indexed": false,
          "internalType": "bool",
          "name": "state",
          "type": "bool"
        }
      ],
      "name": "ActionProtocolPaused",
      "type": "event"
    },
    {
      "anonymous": false,
      "inputs": [
        {
          "indexed": true,
          "internalType": "contract VToken",
          "name": "vToken",
          "type": "address"
        },
        {
          "indexed": true,
          "internalType": "address",
          "name": "borrower",
          "type": "address"
        },
        {
          "indexed": false,
          "internalType": "uint256",
          "name": "venusDelta",
          "type": "uint256"
        },
        {
          "indexed": false,
          "internalType": "uint256",
          "name": "venusBorrowIndex",
          "type": "uint256"
        }
      ],
      "name": "DistributedBorrowerVenus",
      "type": "event"
    },
    {
      "anonymous": false,
      "inputs": [
        {
          "indexed": true,
          "internalType": "contract VToken",
          "name": "vToken",
          "type": "address"
        },
        {
          "indexed": true,
          "internalType": "address",
          "name": "supplier",
          "type": "address"
        },
        {
          "indexed": false,
          "internalType": "uint256",
          "name": "venusDelta",
          "type": "uint256"
        },
        {
          "indexed": false,
          "internalType": "uint256",
          "name": "venusSupplyIndex",
          "type": "uint256"
        }
      ],
      "name": "DistributedSupplierVenus",
      "type": "event"
    },
    {
      "anonymous": false,
      "inputs": [
        {
          "indexed": false,
          "internalType": "uint256",
          "name": "amount",
          "type": "uint256"
        }
      ],
      "name": "DistributedVAIVaultVenus",
      "type": "event"
    },
    {
      "anonymous": false,
      "inputs": [
        {
          "indexed": false,
          "internalType": "uint256",
          "name": "error",
          "type": "uint256"
        },
        {
          "indexed": false,
          "internalType": "uint256",
          "name": "info",
          "type": "uint256"
        },
        {
          "indexed": false,
          "internalType": "uint256",
          "name": "detail",
          "type": "uint256"
        }
      ],
      "name": "Failure",
      "type": "event"
    },
    {
      "anonymous": false,
      "inputs": [
        {
          "indexed": false,
          "internalType": "contract VToken",
          "name": "vToken",
          "type": "address"
        },
        {
          "indexed": false,
          "internalType": "address",
          "name": "account",
          "type": "address"
        }
      ],
      "name": "MarketEntered",
      "type": "event"
    },
    {
      "anonymous": false,
      "inputs": [
        {
          "indexed": false,
          "internalType": "contract VToken",
          "name": "vToken",
          "type": "address"
        },
        {
          "indexed": false,
          "internalType": "address",
          "name": "account",
          "type": "address"
        }
      ],
      "name": "MarketExited",
      "type": "event"
    },
    {
      "anonymous": false,
      "inputs": [
        {
          "indexed": false,
          "internalType": "contract VToken",
          "name": "vToken",
          "type": "address"
        }
      ],
      "name": "MarketListed",
      "type": "event"
    },
    {
      "anonymous": false,
      "inputs": [
        {
          "indexed": false,
          "internalType": "address",
          "name": "oldAccessControlAddress",
          "type": "address"
        },
        {
          "indexed": false,
          "internalType": "address",
          "name": "newAccessControlAddress",
          "type": "address"
        }
      ],
      "name": "NewAccessControl",
      "type": "event"
    },
    {
      "anonymous": false,
      "inputs": [
        {
          "indexed": true,
          "internalType": "contract VToken",
          "name": "vToken",
          "type": "address"
        },
        {
          "indexed": false,
          "internalType": "uint256",
          "name": "newBorrowCap",
          "type": "uint256"
        }
      ],
      "name": "NewBorrowCap",
      "type": "event"
    },
    {
      "anonymous": false,
      "inputs": [
        {
          "indexed": false,
          "internalType": "uint256",
          "name": "oldCloseFactorMantissa",
          "type": "uint256"
        },
        {
          "indexed": false,
          "internalType": "uint256",
          "name": "newCloseFactorMantissa",
          "type": "uint256"
        }
      ],
      "name": "NewCloseFactor",
      "type": "event"
    },
    {
      "anonymous": false,
      "inputs": [
        {
          "indexed": false,
          "internalType": "contract VToken",
          "name": "vToken",
          "type": "address"
        },
        {
          "indexed": false,
          "internalType": "uint256",
          "name": "oldCollateralFactorMantissa",
          "type": "uint256"
        },
        {
          "indexed": false,
          "internalType": "uint256",
          "name": "newCollateralFactorMantissa",
          "type": "uint256"
        }
      ],
      "name": "NewCollateralFactor",
      "type": "event"
    },
    {
      "anonymous": false,
      "inputs": [
        {
          "indexed": false,
          "internalType": "address",
          "name": "oldComptrollerLens",
          "type": "address"
        },
        {
          "indexed": false,
          "internalType": "address",
          "name": "newComptrollerLens",
          "type": "address"
        }
      ],
      "name": "NewComptrollerLens",
      "type": "event"
    },
    {
      "anonymous": false,
      "inputs": [
        {
          "indexed": false,
          "internalType": "uint256",
          "name": "oldLiquidationIncentiveMantissa",
          "type": "uint256"
        },
        {
          "indexed": false,
          "internalType": "uint256",
          "name": "newLiquidationIncentiveMantissa",
          "type": "uint256"
        }
      ],
      "name": "NewLiquidationIncentive",
      "type": "event"
    },
    {
      "anonymous": false,
      "inputs": [
        {
          "indexed": false,
          "internalType": "address",
          "name": "oldLiquidatorContract",
          "type": "address"
        },
        {
          "indexed": false,
          "internalType": "address",
          "name": "newLiquidatorContract",
          "type": "address"
        }
      ],
      "name": "NewLiquidatorContract",
      "type": "event"
    },
    {
      "anonymous": false,
      "inputs": [
        {
          "indexed": false,
          "internalType": "address",
          "name": "oldPauseGuardian",
          "type": "address"
        },
        {
          "indexed": false,
          "internalType": "address",
          "name": "newPauseGuardian",
          "type": "address"
        }
      ],
      "name": "NewPauseGuardian",
      "type": "event"
    },
    {
      "anonymous": false,
      "inputs": [
        {
          "indexed": false,
          "internalType": "contract PriceOracle",
          "name": "oldPriceOracle",
          "type": "address"
        },
        {
          "indexed": false,
          "internalType": "contract PriceOracle",
          "name": "newPriceOracle",
          "type": "address"
        }
      ],
      "name": "NewPriceOracle",
      "type": "event"
    },
    {
      "anonymous": false,
      "inputs": [
        {
          "indexed": true,
          "internalType": "contract VToken",
          "name": "vToken",
          "type": "address"
        },
        {
          "indexed": false,
          "internalType": "uint256",
          "name": "newSupplyCap",
          "type": "uint256"
        }
      ],
      "name": "NewSupplyCap",
      "type": "event"
    },
    {
      "anonymous": false,
      "inputs": [
        {
          "indexed": false,
          "internalType": "address",
          "name": "oldTreasuryAddress",
          "type": "address"
        },
        {
          "indexed": false,
          "internalType": "address",
          "name": "newTreasuryAddress",
          "type": "address"
        }
      ],
      "name": "NewTreasuryAddress",
      "type": "event"
    },
    {
      "anonymous": false,
      "inputs": [
        {
          "indexed": false,
          "internalType": "address",
          "name": "oldTreasuryGuardian",
          "type": "address"
        },
        {
          "indexed": false,
          "internalType": "address",
          "name": "newTreasuryGuardian",
          "type": "address"
        }
      ],
      "name": "NewTreasuryGuardian",
      "type": "event"
    },
    {
      "anonymous": false,
      "inputs": [
        {
          "indexed": false,
          "internalType": "uint256",
          "name": "oldTreasuryPercent",
          "type": "uint256"
        },
        {
          "indexed": false,
          "internalType": "uint256",
          "name": "newTreasuryPercent",
          "type": "uint256"
        }
      ],
      "name": "NewTreasuryPercent",
      "type": "event"
    },
    {
      "anonymous": false,
      "inputs": [
        {
          "indexed": false,
          "internalType": "contract VAIControllerInterface",
          "name": "oldVAIController",
          "type": "address"
        },
        {
          "indexed": false,
          "internalType": "contract VAIControllerInterface",
          "name": "newVAIController",
          "type": "address"
        }
      ],
      "name": "NewVAIController",
      "type": "event"
    },
    {
      "anonymous": false,
      "inputs": [
        {
          "indexed": false,
          "internalType": "uint256",
          "name": "oldVAIMintRate",
          "type": "uint256"
        },
        {
          "indexed": false,
          "internalType": "uint256",
          "name": "newVAIMintRate",
          "type": "uint256"
        }
      ],
      "name": "NewVAIMintRate",
      "type": "event"
    },
    {
      "anonymous": false,
      "inputs": [
        {
          "indexed": false,
          "internalType": "address",
          "name": "vault_",
          "type": "address"
        },
        {
          "indexed": false,
          "internalType": "uint256",
          "name": "releaseStartBlock_",
          "type": "uint256"
        },
        {
          "indexed": false,
          "internalType": "uint256",
          "name": "releaseInterval_",
          "type": "uint256"
        }
      ],
      "name": "NewVAIVaultInfo",
      "type": "event"
    },
    {
      "anonymous": false,
      "inputs": [
        {
          "indexed": false,
          "internalType": "uint256",
          "name": "oldVenusVAIVaultRate",
          "type": "uint256"
        },
        {
          "indexed": false,
          "internalType": "uint256",
          "name": "newVenusVAIVaultRate",
          "type": "uint256"
        }
      ],
      "name": "NewVenusVAIVaultRate",
      "type": "event"
    },
    {
      "anonymous": false,
      "inputs": [
        {
          "indexed": false,
          "internalType": "address",
          "name": "recipient",
          "type": "address"
        },
        {
          "indexed": false,
          "internalType": "uint256",
          "name": "amount",
          "type": "uint256"
        }
      ],
      "name": "VenusGranted",
      "type": "event"
    },
    {
      "anonymous": false,
      "inputs": [
        {
          "indexed": true,
          "internalType": "contract VToken",
          "name": "vToken",
          "type": "address"
        },
        {
          "indexed": false,
          "internalType": "uint256",
          "name": "newSpeed",
          "type": "uint256"
        }
      ],
      "name": "VenusSpeedUpdated",
      "type": "event"
    },
    {
      "constant": false,
      "inputs": [
        {
          "internalType": "contract Unitroller",
          "name": "unitroller",
          "type": "address"
        }
      ],
      "name": "_become",
      "outputs": [],
      "payable": false,
      "stateMutability": "nonpayable",
      "type": "function"
    },
    {
      "constant": false,
      "inputs": [
        {
          "internalType": "address",
          "name": "recipient",
          "type": "address"
        },
        {
          "internalType": "uint256",
          "name": "amount",
          "type": "uint256"
        }
      ],
      "name": "_grantXVS",
      "outputs": [],
      "payable": false,
      "stateMutability": "nonpayable",
      "type": "function"
    },
    {
      "constant": false,
      "inputs": [
        {
          "internalType": "address",
          "name": "newAccessControlAddress",
          "type": "address"
        }
      ],
      "name": "_setAccessControl",
      "outputs": [
        {
          "internalType": "uint256",
          "name": "",
          "type": "uint256"
        }
      ],
      "payable": false,
      "stateMutability": "nonpayable",
      "type": "function"
    },
    {
      "constant": false,
      "inputs": [
        {
          "internalType": "address[]",
          "name": "markets",
          "type": "address[]"
        },
        {
          "internalType": "enum ComptrollerV9Storage.Action[]",
          "name": "actions",
          "type": "uint8[]"
        },
        {
          "internalType": "bool",
          "name": "paused",
          "type": "bool"
        }
      ],
      "name": "_setActionsPaused",
      "outputs": [],
      "payable": false,
      "stateMutability": "nonpayable",
      "type": "function"
    },
    {
      "constant": false,
      "inputs": [
        {
          "internalType": "uint256",
          "name": "newCloseFactorMantissa",
          "type": "uint256"
        }
      ],
      "name": "_setCloseFactor",
      "outputs": [
        {
          "internalType": "uint256",
          "name": "",
          "type": "uint256"
        }
      ],
      "payable": false,
      "stateMutability": "nonpayable",
      "type": "function"
    },
    {
      "constant": false,
      "inputs": [
        {
          "internalType": "contract VToken",
          "name": "vToken",
          "type": "address"
        },
        {
          "internalType": "uint256",
          "name": "newCollateralFactorMantissa",
          "type": "uint256"
        }
      ],
      "name": "_setCollateralFactor",
      "outputs": [
        {
          "internalType": "uint256",
          "name": "",
          "type": "uint256"
        }
      ],
      "payable": false,
      "stateMutability": "nonpayable",
      "type": "function"
    },
    {
      "constant": false,
      "inputs": [
        {
          "internalType": "contract ComptrollerLensInterface",
          "name": "comptrollerLens_",
          "type": "address"
        }
      ],
      "name": "_setComptrollerLens",
      "outputs": [
        {
          "internalType": "uint256",
          "name": "",
          "type": "uint256"
        }
      ],
      "payable": false,
      "stateMutability": "nonpayable",
      "type": "function"
    },
    {
      "constant": false,
      "inputs": [
        {
          "internalType": "uint256",
          "name": "newLiquidationIncentiveMantissa",
          "type": "uint256"
        }
      ],
      "name": "_setLiquidationIncentive",
      "outputs": [
        {
          "internalType": "uint256",
          "name": "",
          "type": "uint256"
        }
      ],
      "payable": false,
      "stateMutability": "nonpayable",
      "type": "function"
    },
    {
      "constant": false,
      "inputs": [
        {
          "internalType": "address",
          "name": "newLiquidatorContract_",
          "type": "address"
        }
      ],
      "name": "_setLiquidatorContract",
      "outputs": [],
      "payable": false,
      "stateMutability": "nonpayable",
      "type": "function"
    },
    {
      "constant": false,
      "inputs": [
        {
          "internalType": "contract VToken[]",
          "name": "vTokens",
          "type": "address[]"
        },
        {
          "internalType": "uint256[]",
          "name": "newBorrowCaps",
          "type": "uint256[]"
        }
      ],
      "name": "_setMarketBorrowCaps",
      "outputs": [],
      "payable": false,
      "stateMutability": "nonpayable",
      "type": "function"
    },
    {
      "constant": false,
      "inputs": [
        {
          "internalType": "contract VToken[]",
          "name": "vTokens",
          "type": "address[]"
        },
        {
          "internalType": "uint256[]",
          "name": "newSupplyCaps",
          "type": "uint256[]"
        }
      ],
      "name": "_setMarketSupplyCaps",
      "outputs": [],
      "payable": false,
      "stateMutability": "nonpayable",
      "type": "function"
    },
    {
      "constant": false,
      "inputs": [
        {
          "internalType": "address",
          "name": "newPauseGuardian",
          "type": "address"
        }
      ],
      "name": "_setPauseGuardian",
      "outputs": [
        {
          "internalType": "uint256",
          "name": "",
          "type": "uint256"
        }
      ],
      "payable": false,
      "stateMutability": "nonpayable",
      "type": "function"
    },
    {
      "constant": false,
      "inputs": [
        {
          "internalType": "contract PriceOracle",
          "name": "newOracle",
          "type": "address"
        }
      ],
      "name": "_setPriceOracle",
      "outputs": [
        {
          "internalType": "uint256",
          "name": "",
          "type": "uint256"
        }
      ],
      "payable": false,
      "stateMutability": "nonpayable",
      "type": "function"
    },
    {
      "constant": false,
      "inputs": [
        {
          "internalType": "bool",
          "name": "state",
          "type": "bool"
        }
      ],
      "name": "_setProtocolPaused",
      "outputs": [
        {
          "internalType": "bool",
          "name": "",
          "type": "bool"
        }
      ],
      "payable": false,
      "stateMutability": "nonpayable",
      "type": "function"
    },
    {
      "constant": false,
      "inputs": [
        {
          "internalType": "address",
          "name": "newTreasuryGuardian",
          "type": "address"
        },
        {
          "internalType": "address",
          "name": "newTreasuryAddress",
          "type": "address"
        },
        {
          "internalType": "uint256",
          "name": "newTreasuryPercent",
          "type": "uint256"
        }
      ],
      "name": "_setTreasuryData",
      "outputs": [
        {
          "internalType": "uint256",
          "name": "",
          "type": "uint256"
        }
      ],
      "payable": false,
      "stateMutability": "nonpayable",
      "type": "function"
    },
    {
      "constant": false,
      "inputs": [
        {
          "internalType": "contract VAIControllerInterface",
          "name": "vaiController_",
          "type": "address"
        }
      ],
      "name": "_setVAIController",
      "outputs": [
        {
          "internalType": "uint256",
          "name": "",
          "type": "uint256"
        }
      ],
      "payable": false,
      "stateMutability": "nonpayable",
      "type": "function"
    },
    {
      "constant": false,
      "inputs": [
        {
          "internalType": "uint256",
          "name": "newVAIMintRate",
          "type": "uint256"
        }
      ],
      "name": "_setVAIMintRate",
      "outputs": [
        {
          "internalType": "uint256",
          "name": "",
          "type": "uint256"
        }
      ],
      "payable": false,
      "stateMutability": "nonpayable",
      "type": "function"
    },
    {
      "constant": false,
      "inputs": [
        {
          "internalType": "address",
          "name": "vault_",
          "type": "address"
        },
        {
          "internalType": "uint256",
          "name": "releaseStartBlock_",
          "type": "uint256"
        },
        {
          "internalType": "uint256",
          "name": "minReleaseAmount_",
          "type": "uint256"
        }
      ],
      "name": "_setVAIVaultInfo",
      "outputs": [],
      "payable": false,
      "stateMutability": "nonpayable",
      "type": "function"
    },
    {
      "constant": false,
      "inputs": [
        {
          "internalType": "contract VToken",
          "name": "vToken",
          "type": "address"
        },
        {
          "internalType": "uint256",
          "name": "venusSpeed",
          "type": "uint256"
        }
      ],
      "name": "_setVenusSpeed",
      "outputs": [],
      "payable": false,
      "stateMutability": "nonpayable",
      "type": "function"
    },
    {
      "constant": false,
      "inputs": [
        {
          "internalType": "uint256",
          "name": "venusVAIVaultRate_",
          "type": "uint256"
        }
      ],
      "name": "_setVenusVAIVaultRate",
      "outputs": [],
      "payable": false,
      "stateMutability": "nonpayable",
      "type": "function"
    },
    {
      "constant": false,
      "inputs": [
        {
          "internalType": "contract VToken",
          "name": "vToken",
          "type": "address"
        }
      ],
      "name": "_supportMarket",
      "outputs": [
        {
          "internalType": "uint256",
          "name": "",
          "type": "uint256"
        }
      ],
      "payable": false,
      "stateMutability": "nonpayable",
      "type": "function"
    },
    {
      "constant": true,
      "inputs": [
        {
          "internalType": "address",
          "name": "",
          "type": "address"
        },
        {
          "internalType": "uint256",
          "name": "",
          "type": "uint256"
        }
      ],
      "name": "accountAssets",
      "outputs": [
        {
          "internalType": "contract VToken",
          "name": "",
          "type": "address"
        }
      ],
      "payable": false,
      "stateMutability": "view",
      "type": "function"
    },
    {
      "constant": true,
      "inputs": [
        {
          "internalType": "address",
          "name": "market",
          "type": "address"
        },
        {
          "internalType": "enum ComptrollerV9Storage.Action",
          "name": "action",
          "type": "uint8"
        }
      ],
      "name": "actionPaused",
      "outputs": [
        {
          "internalType": "bool",
          "name": "",
          "type": "bool"
        }
      ],
      "payable": false,
      "stateMutability": "view",
      "type": "function"
    },
    {
      "constant": true,
      "inputs": [],
      "name": "admin",
      "outputs": [
        {
          "internalType": "address",
          "name": "",
          "type": "address"
        }
      ],
      "payable": false,
      "stateMutability": "view",
      "type": "function"
    },
    {
      "constant": true,
      "inputs": [
        {
          "internalType": "uint256",
          "name": "",
          "type": "uint256"
        }
      ],
      "name": "allMarkets",
      "outputs": [
        {
          "internalType": "contract VToken",
          "name": "",
          "type": "address"
        }
      ],
      "payable": false,
      "stateMutability": "view",
      "type": "function"
    },
    {
      "constant": false,
      "inputs": [
        {
          "internalType": "address",
          "name": "vToken",
          "type": "address"
        },
        {
          "internalType": "address",
          "name": "borrower",
          "type": "address"
        },
        {
          "internalType": "uint256",
          "name": "borrowAmount",
          "type": "uint256"
        }
      ],
      "name": "borrowAllowed",
      "outputs": [
        {
          "internalType": "uint256",
          "name": "",
          "type": "uint256"
        }
      ],
      "payable": false,
      "stateMutability": "nonpayable",
      "type": "function"
    },
    {
      "constant": true,
      "inputs": [],
      "name": "borrowCapGuardian",
      "outputs": [
        {
          "internalType": "address",
          "name": "",
          "type": "address"
        }
      ],
      "payable": false,
      "stateMutability": "view",
      "type": "function"
    },
    {
      "constant": true,
      "inputs": [
        {
          "internalType": "address",
          "name": "",
          "type": "address"
        }
      ],
      "name": "borrowCaps",
      "outputs": [
        {
          "internalType": "uint256",
          "name": "",
          "type": "uint256"
        }
      ],
      "payable": false,
      "stateMutability": "view",
      "type": "function"
    },
    {
      "constant": false,
      "inputs": [
        {
          "internalType": "address",
          "name": "vToken",
          "type": "address"
        },
        {
          "internalType": "address",
          "name": "borrower",
          "type": "address"
        },
        {
          "internalType": "uint256",
          "name": "borrowAmount",
          "type": "uint256"
        }
      ],
      "name": "borrowVerify",
      "outputs": [],
      "payable": false,
      "stateMutability": "nonpayable",
      "type": "function"
    },
    {
      "constant": true,
      "inputs": [
        {
          "internalType": "address",
          "name": "account",
          "type": "address"
        },
        {
          "internalType": "contract VToken",
          "name": "vToken",
          "type": "address"
        }
      ],
      "name": "checkMembership",
      "outputs": [
        {
          "internalType": "bool",
          "name": "",
          "type": "bool"
        }
      ],
      "payable": false,
      "stateMutability": "view",
      "type": "function"
    },
    {
      "constant": false,
      "inputs": [
        {
          "internalType": "address[]",
          "name": "holders",
          "type": "address[]"
        },
        {
          "internalType": "contract VToken[]",
          "name": "vTokens",
          "type": "address[]"
        },
        {
          "internalType": "bool",
          "name": "borrowers",
          "type": "bool"
        },
        {
          "internalType": "bool",
          "name": "suppliers",
          "type": "bool"
        },
        {
          "internalType": "bool",
          "name": "collateral",
          "type": "bool"
        }
      ],
      "name": "claimVenus",
      "outputs": [],
      "payable": false,
      "stateMutability": "nonpayable",
      "type": "function"
    },
    {
      "constant": false,
      "inputs": [
        {
          "internalType": "address",
          "name": "holder",
          "type": "address"
        },
        {
          "internalType": "contract VToken[]",
          "name": "vTokens",
          "type": "address[]"
        }
      ],
      "name": "claimVenus",
      "outputs": [],
      "payable": false,
      "stateMutability": "nonpayable",
      "type": "function"
    },
    {
      "constant": false,
      "inputs": [
        {
          "internalType": "address",
          "name": "holder",
          "type": "address"
        }
      ],
      "name": "claimVenus",
      "outputs": [],
      "payable": false,
      "stateMutability": "nonpayable",
      "type": "function"
    },
    {
      "constant": false,
      "inputs": [
        {
          "internalType": "address[]",
          "name": "holders",
          "type": "address[]"
        },
        {
          "internalType": "contract VToken[]",
          "name": "vTokens",
          "type": "address[]"
        },
        {
          "internalType": "bool",
          "name": "borrowers",
          "type": "bool"
        },
        {
          "internalType": "bool",
          "name": "suppliers",
          "type": "bool"
        }
      ],
      "name": "claimVenus",
      "outputs": [],
      "payable": false,
      "stateMutability": "nonpayable",
      "type": "function"
    },
    {
      "constant": false,
      "inputs": [
        {
          "internalType": "address",
          "name": "holder",
          "type": "address"
        }
      ],
      "name": "claimVenusAsCollateral",
      "outputs": [],
      "payable": false,
      "stateMutability": "nonpayable",
      "type": "function"
    },
    {
      "constant": true,
      "inputs": [],
      "name": "closeFactorMantissa",
      "outputs": [
        {
          "internalType": "uint256",
          "name": "",
          "type": "uint256"
        }
      ],
      "payable": false,
      "stateMutability": "view",
      "type": "function"
    },
    {
      "constant": true,
      "inputs": [],
      "name": "comptrollerImplementation",
      "outputs": [
        {
          "internalType": "address",
          "name": "",
          "type": "address"
        }
      ],
      "payable": false,
      "stateMutability": "view",
      "type": "function"
    },
    {
      "constant": true,
      "inputs": [],
      "name": "comptrollerLens",
      "outputs": [
        {
          "internalType": "contract ComptrollerLensInterface",
          "name": "",
          "type": "address"
        }
      ],
      "payable": false,
      "stateMutability": "view",
      "type": "function"
    },
    {
      "constant": false,
      "inputs": [
        {
          "internalType": "address[]",
          "name": "vTokens",
          "type": "address[]"
        }
      ],
      "name": "enterMarkets",
      "outputs": [
        {
          "internalType": "uint256[]",
          "name": "",
          "type": "uint256[]"
        }
      ],
      "payable": false,
      "stateMutability": "nonpayable",
      "type": "function"
    },
    {
      "constant": false,
      "inputs": [
        {
          "internalType": "address",
          "name": "vTokenAddress",
          "type": "address"
        }
      ],
      "name": "exitMarket",
      "outputs": [
        {
          "internalType": "uint256",
          "name": "",
          "type": "uint256"
        }
      ],
      "payable": false,
      "stateMutability": "nonpayable",
      "type": "function"
    },
    {
      "constant": true,
      "inputs": [
        {
          "internalType": "address",
          "name": "account",
          "type": "address"
        }
      ],
      "name": "getAccountLiquidity",
      "outputs": [
        {
          "internalType": "uint256",
          "name": "",
          "type": "uint256"
        },
        {
          "internalType": "uint256",
          "name": "",
          "type": "uint256"
        },
        {
          "internalType": "uint256",
          "name": "",
          "type": "uint256"
        }
      ],
      "payable": false,
      "stateMutability": "view",
      "type": "function"
    },
    {
      "constant": true,
      "inputs": [],
      "name": "getAllMarkets",
      "outputs": [
        {
          "internalType": "contract VToken[]",
          "name": "",
          "type": "address[]"
        }
      ],
      "payable": false,
      "stateMutability": "view",
      "type": "function"
    },
    {
      "constant": true,
      "inputs": [
        {
          "internalType": "address",
          "name": "account",
          "type": "address"
        }
      ],
      "name": "getAssetsIn",
      "outputs": [
        {
          "internalType": "contract VToken[]",
          "name": "",
          "type": "address[]"
        }
      ],
      "payable": false,
      "stateMutability": "view",
      "type": "function"
    },
    {
      "constant": true,
      "inputs": [],
      "name": "getBlockNumber",
      "outputs": [
        {
          "internalType": "uint256",
          "name": "",
          "type": "uint256"
        }
      ],
      "payable": false,
      "stateMutability": "view",
      "type": "function"
    },
    {
      "constant": true,
      "inputs": [
        {
          "internalType": "address",
          "name": "account",
          "type": "address"
        },
        {
          "internalType": "address",
          "name": "vTokenModify",
          "type": "address"
        },
        {
          "internalType": "uint256",
          "name": "redeemTokens",
          "type": "uint256"
        },
        {
          "internalType": "uint256",
          "name": "borrowAmount",
          "type": "uint256"
        }
      ],
      "name": "getHypotheticalAccountLiquidity",
      "outputs": [
        {
          "internalType": "uint256",
          "name": "",
          "type": "uint256"
        },
        {
          "internalType": "uint256",
          "name": "",
          "type": "uint256"
        },
        {
          "internalType": "uint256",
          "name": "",
          "type": "uint256"
        }
      ],
      "payable": false,
      "stateMutability": "view",
      "type": "function"
    },
    {
      "constant": true,
      "inputs": [],
      "name": "getXVSAddress",
      "outputs": [
        {
          "internalType": "address",
          "name": "",
          "type": "address"
        }
      ],
      "payable": false,
      "stateMutability": "view",
      "type": "function"
    },
    {
      "constant": true,
      "inputs": [],
      "name": "getXVSVTokenAddress",
      "outputs": [
        {
          "internalType": "address",
          "name": "",
          "type": "address"
        }
      ],
      "payable": false,
      "stateMutability": "view",
      "type": "function"
    },
    {
      "constant": true,
      "inputs": [],
      "name": "isComptroller",
      "outputs": [
        {
          "internalType": "bool",
          "name": "",
          "type": "bool"
        }
      ],
      "payable": false,
      "stateMutability": "view",
      "type": "function"
    },
    {
      "constant": false,
      "inputs": [
        {
          "internalType": "address",
          "name": "vTokenBorrowed",
          "type": "address"
        },
        {
          "internalType": "address",
          "name": "vTokenCollateral",
          "type": "address"
        },
        {
          "internalType": "address",
          "name": "liquidator",
          "type": "address"
        },
        {
          "internalType": "address",
          "name": "borrower",
          "type": "address"
        },
        {
          "internalType": "uint256",
          "name": "repayAmount",
          "type": "uint256"
        }
      ],
      "name": "liquidateBorrowAllowed",
      "outputs": [
        {
          "internalType": "uint256",
          "name": "",
          "type": "uint256"
        }
      ],
      "payable": false,
      "stateMutability": "nonpayable",
      "type": "function"
    },
    {
      "constant": false,
      "inputs": [
        {
          "internalType": "address",
          "name": "vTokenBorrowed",
          "type": "address"
        },
        {
          "internalType": "address",
          "name": "vTokenCollateral",
          "type": "address"
        },
        {
          "internalType": "address",
          "name": "liquidator",
          "type": "address"
        },
        {
          "internalType": "address",
          "name": "borrower",
          "type": "address"
        },
        {
          "internalType": "uint256",
          "name": "actualRepayAmount",
          "type": "uint256"
        },
        {
          "internalType": "uint256",
          "name": "seizeTokens",
          "type": "uint256"
        }
      ],
      "name": "liquidateBorrowVerify",
      "outputs": [],
      "payable": false,
      "stateMutability": "nonpayable",
      "type": "function"
    },
    {
      "constant": true,
      "inputs": [
        {
          "internalType": "address",
          "name": "vTokenBorrowed",
          "type": "address"
        },
        {
          "internalType": "address",
          "name": "vTokenCollateral",
          "type": "address"
        },
        {
          "internalType": "uint256",
          "name": "actualRepayAmount",
          "type": "uint256"
        }
      ],
      "name": "liquidateCalculateSeizeTokens",
      "outputs": [
        {
          "internalType": "uint256",
          "name": "",
          "type": "uint256"
        },
        {
          "internalType": "uint256",
          "name": "",
          "type": "uint256"
        }
      ],
      "payable": false,
      "stateMutability": "view",
      "type": "function"
    },
    {
      "constant": true,
      "inputs": [
        {
          "internalType": "address",
          "name": "vTokenCollateral",
          "type": "address"
        },
        {
          "internalType": "uint256",
          "name": "actualRepayAmount",
          "type": "uint256"
        }
      ],
      "name": "liquidateVAICalculateSeizeTokens",
      "outputs": [
        {
          "internalType": "uint256",
          "name": "",
          "type": "uint256"
        },
        {
          "internalType": "uint256",
          "name": "",
          "type": "uint256"
        }
      ],
      "payable": false,
      "stateMutability": "view",
      "type": "function"
    },
    {
      "constant": true,
      "inputs": [],
      "name": "liquidationIncentiveMantissa",
      "outputs": [
        {
          "internalType": "uint256",
          "name": "",
          "type": "uint256"
        }
      ],
      "payable": false,
      "stateMutability": "view",
      "type": "function"
    },
    {
      "constant": true,
      "inputs": [],
      "name": "liquidatorContract",
      "outputs": [
        {
          "internalType": "address",
          "name": "",
          "type": "address"
        }
      ],
      "payable": false,
      "stateMutability": "view",
      "type": "function"
    },
    {
      "constant": true,
      "inputs": [
        {
          "internalType": "address",
          "name": "",
          "type": "address"
        }
      ],
      "name": "markets",
      "outputs": [
        {
          "internalType": "bool",
          "name": "isListed",
          "type": "bool"
        },
        {
          "internalType": "uint256",
          "name": "collateralFactorMantissa",
          "type": "uint256"
        },
        {
          "internalType": "bool",
          "name": "isVenus",
          "type": "bool"
        }
      ],
      "payable": false,
      "stateMutability": "view",
      "type": "function"
    },
    {
      "constant": true,
      "inputs": [],
      "name": "maxAssets",
      "outputs": [
        {
          "internalType": "uint256",
          "name": "",
          "type": "uint256"
        }
      ],
      "payable": false,
      "stateMutability": "view",
      "type": "function"
    },
    {
      "constant": true,
      "inputs": [],
      "name": "minReleaseAmount",
      "outputs": [
        {
          "internalType": "uint256",
          "name": "",
          "type": "uint256"
        }
      ],
      "payable": false,
      "stateMutability": "view",
      "type": "function"
    },
    {
      "constant": false,
      "inputs": [
        {
          "internalType": "address",
          "name": "vToken",
          "type": "address"
        },
        {
          "internalType": "address",
          "name": "minter",
          "type": "address"
        },
        {
          "internalType": "uint256",
          "name": "mintAmount",
          "type": "uint256"
        }
      ],
      "name": "mintAllowed",
      "outputs": [
        {
          "internalType": "uint256",
          "name": "",
          "type": "uint256"
        }
      ],
      "payable": false,
      "stateMutability": "nonpayable",
      "type": "function"
    },
    {
      "constant": true,
      "inputs": [],
      "name": "mintVAIGuardianPaused",
      "outputs": [
        {
          "internalType": "bool",
          "name": "",
          "type": "bool"
        }
      ],
      "payable": false,
      "stateMutability": "view",
      "type": "function"
    },
    {
      "constant": false,
      "inputs": [
        {
          "internalType": "address",
          "name": "vToken",
          "type": "address"
        },
        {
          "internalType": "address",
          "name": "minter",
          "type": "address"
        },
        {
          "internalType": "uint256",
          "name": "actualMintAmount",
          "type": "uint256"
        },
        {
          "internalType": "uint256",
          "name": "mintTokens",
          "type": "uint256"
        }
      ],
      "name": "mintVerify",
      "outputs": [],
      "payable": false,
      "stateMutability": "nonpayable",
      "type": "function"
    },
    {
      "constant": true,
      "inputs": [
        {
          "internalType": "address",
          "name": "",
          "type": "address"
        }
      ],
      "name": "mintedVAIs",
      "outputs": [
        {
          "internalType": "uint256",
          "name": "",
          "type": "uint256"
        }
      ],
      "payable": false,
      "stateMutability": "view",
      "type": "function"
    },
    {
      "constant": true,
      "inputs": [],
      "name": "oracle",
      "outputs": [
        {
          "internalType": "contract PriceOracle",
          "name": "",
          "type": "address"
        }
      ],
      "payable": false,
      "stateMutability": "view",
      "type": "function"
    },
    {
      "constant": true,
      "inputs": [],
      "name": "pauseGuardian",
      "outputs": [
        {
          "internalType": "address",
          "name": "",
          "type": "address"
        }
      ],
      "payable": false,
      "stateMutability": "view",
      "type": "function"
    },
    {
      "constant": true,
      "inputs": [],
      "name": "pendingAdmin",
      "outputs": [
        {
          "internalType": "address",
          "name": "",
          "type": "address"
        }
      ],
      "payable": false,
      "stateMutability": "view",
      "type": "function"
    },
    {
      "constant": true,
      "inputs": [],
      "name": "pendingComptrollerImplementation",
      "outputs": [
        {
          "internalType": "address",
          "name": "",
          "type": "address"
        }
      ],
      "payable": false,
      "stateMutability": "view",
      "type": "function"
    },
    {
      "constant": true,
      "inputs": [],
      "name": "protocolPaused",
      "outputs": [
        {
          "internalType": "bool",
          "name": "",
          "type": "bool"
        }
      ],
      "payable": false,
      "stateMutability": "view",
      "type": "function"
    },
    {
      "constant": false,
      "inputs": [
        {
          "internalType": "address",
          "name": "vToken",
          "type": "address"
        },
        {
          "internalType": "address",
          "name": "redeemer",
          "type": "address"
        },
        {
          "internalType": "uint256",
          "name": "redeemTokens",
          "type": "uint256"
        }
      ],
      "name": "redeemAllowed",
      "outputs": [
        {
          "internalType": "uint256",
          "name": "",
          "type": "uint256"
        }
      ],
      "payable": false,
      "stateMutability": "nonpayable",
      "type": "function"
    },
    {
      "constant": false,
      "inputs": [
        {
          "internalType": "address",
          "name": "vToken",
          "type": "address"
        },
        {
          "internalType": "address",
          "name": "redeemer",
          "type": "address"
        },
        {
          "internalType": "uint256",
          "name": "redeemAmount",
          "type": "uint256"
        },
        {
          "internalType": "uint256",
          "name": "redeemTokens",
          "type": "uint256"
        }
      ],
      "name": "redeemVerify",
      "outputs": [],
      "payable": false,
      "stateMutability": "nonpayable",
      "type": "function"
    },
    {
      "constant": true,
      "inputs": [],
      "name": "releaseStartBlock",
      "outputs": [
        {
          "internalType": "uint256",
          "name": "",
          "type": "uint256"
        }
      ],
      "payable": false,
      "stateMutability": "view",
      "type": "function"
    },
    {
      "constant": false,
      "inputs": [],
      "name": "releaseToVault",
      "outputs": [],
      "payable": false,
      "stateMutability": "nonpayable",
      "type": "function"
    },
    {
      "constant": false,
      "inputs": [
        {
          "internalType": "address",
          "name": "vToken",
          "type": "address"
        },
        {
          "internalType": "address",
          "name": "payer",
          "type": "address"
        },
        {
          "internalType": "address",
          "name": "borrower",
          "type": "address"
        },
        {
          "internalType": "uint256",
          "name": "repayAmount",
          "type": "uint256"
        }
      ],
      "name": "repayBorrowAllowed",
      "outputs": [
        {
          "internalType": "uint256",
          "name": "",
          "type": "uint256"
        }
      ],
      "payable": false,
      "stateMutability": "nonpayable",
      "type": "function"
    },
    {
      "constant": false,
      "inputs": [
        {
          "internalType": "address",
          "name": "vToken",
          "type": "address"
        },
        {
          "internalType": "address",
          "name": "payer",
          "type": "address"
        },
        {
          "internalType": "address",
          "name": "borrower",
          "type": "address"
        },
        {
          "internalType": "uint256",
          "name": "actualRepayAmount",
          "type": "uint256"
        },
        {
          "internalType": "uint256",
          "name": "borrowerIndex",
          "type": "uint256"
        }
      ],
      "name": "repayBorrowVerify",
      "outputs": [],
      "payable": false,
      "stateMutability": "nonpayable",
      "type": "function"
    },
    {
      "constant": true,
      "inputs": [],
      "name": "repayVAIGuardianPaused",
      "outputs": [
        {
          "internalType": "bool",
          "name": "",
          "type": "bool"
        }
      ],
      "payable": false,
      "stateMutability": "view",
      "type": "function"
    },
    {
      "constant": false,
      "inputs": [
        {
          "internalType": "address",
          "name": "vTokenCollateral",
          "type": "address"
        },
        {
          "internalType": "address",
          "name": "vTokenBorrowed",
          "type": "address"
        },
        {
          "internalType": "address",
          "name": "liquidator",
          "type": "address"
        },
        {
          "internalType": "address",
          "name": "borrower",
          "type": "address"
        },
        {
          "internalType": "uint256",
          "name": "seizeTokens",
          "type": "uint256"
        }
      ],
      "name": "seizeAllowed",
      "outputs": [
        {
          "internalType": "uint256",
          "name": "",
          "type": "uint256"
        }
      ],
      "payable": false,
      "stateMutability": "nonpayable",
      "type": "function"
    },
    {
      "constant": false,
      "inputs": [
        {
          "internalType": "address",
          "name": "vTokenCollateral",
          "type": "address"
        },
        {
          "internalType": "address",
          "name": "vTokenBorrowed",
          "type": "address"
        },
        {
          "internalType": "address",
          "name": "liquidator",
          "type": "address"
        },
        {
          "internalType": "address",
          "name": "borrower",
          "type": "address"
        },
        {
          "internalType": "uint256",
          "name": "seizeTokens",
          "type": "uint256"
        }
      ],
      "name": "seizeVerify",
      "outputs": [],
      "payable": false,
      "stateMutability": "nonpayable",
      "type": "function"
    },
    {
      "constant": false,
      "inputs": [
        {
          "internalType": "address",
          "name": "owner",
          "type": "address"
        },
        {
          "internalType": "uint256",
          "name": "amount",
          "type": "uint256"
        }
      ],
      "name": "setMintedVAIOf",
      "outputs": [
        {
          "internalType": "uint256",
          "name": "",
          "type": "uint256"
        }
      ],
      "payable": false,
      "stateMutability": "nonpayable",
      "type": "function"
    },
    {
      "constant": true,
      "inputs": [
        {
          "internalType": "address",
          "name": "",
          "type": "address"
        }
      ],
      "name": "supplyCaps",
      "outputs": [
        {
          "internalType": "uint256",
          "name": "",
          "type": "uint256"
        }
      ],
      "payable": false,
      "stateMutability": "view",
      "type": "function"
    },
    {
      "constant": false,
      "inputs": [
        {
          "internalType": "address",
          "name": "vToken",
          "type": "address"
        },
        {
          "internalType": "address",
          "name": "src",
          "type": "address"
        },
        {
          "internalType": "address",
          "name": "dst",
          "type": "address"
        },
        {
          "internalType": "uint256",
          "name": "transferTokens",
          "type": "uint256"
        }
      ],
      "name": "transferAllowed",
      "outputs": [
        {
          "internalType": "uint256",
          "name": "",
          "type": "uint256"
        }
      ],
      "payable": false,
      "stateMutability": "nonpayable",
      "type": "function"
    },
    {
      "constant": false,
      "inputs": [
        {
          "internalType": "address",
          "name": "vToken",
          "type": "address"
        },
        {
          "internalType": "address",
          "name": "src",
          "type": "address"
        },
        {
          "internalType": "address",
          "name": "dst",
          "type": "address"
        },
        {
          "internalType": "uint256",
          "name": "transferTokens",
          "type": "uint256"
        }
      ],
      "name": "transferVerify",
      "outputs": [],
      "payable": false,
      "stateMutability": "nonpayable",
      "type": "function"
    },
    {
      "constant": true,
      "inputs": [],
      "name": "treasuryAddress",
      "outputs": [
        {
          "internalType": "address",
          "name": "",
          "type": "address"
        }
      ],
      "payable": false,
      "stateMutability": "view",
      "type": "function"
    },
    {
      "constant": true,
      "inputs": [],
      "name": "treasuryGuardian",
      "outputs": [
        {
          "internalType": "address",
          "name": "",
          "type": "address"
        }
      ],
      "payable": false,
      "stateMutability": "view",
      "type": "function"
    },
    {
      "constant": true,
      "inputs": [],
      "name": "treasuryPercent",
      "outputs": [
        {
          "internalType": "uint256",
          "name": "",
          "type": "uint256"
        }
      ],
      "payable": false,
      "stateMutability": "view",
      "type": "function"
    },
    {
      "constant": true,
      "inputs": [],
      "name": "vaiController",
      "outputs": [
        {
          "internalType": "contract VAIControllerInterface",
          "name": "",
          "type": "address"
        }
      ],
      "payable": false,
      "stateMutability": "view",
      "type": "function"
    },
    {
      "constant": true,
      "inputs": [],
      "name": "vaiMintRate",
      "outputs": [
        {
          "internalType": "uint256",
          "name": "",
          "type": "uint256"
        }
      ],
      "payable": false,
      "stateMutability": "view",
      "type": "function"
    },
    {
      "constant": true,
      "inputs": [],
      "name": "vaiVaultAddress",
      "outputs": [
        {
          "internalType": "address",
          "name": "",
          "type": "address"
        }
      ],
      "payable": false,
      "stateMutability": "view",
      "type": "function"
    },
    {
      "constant": true,
      "inputs": [
        {
          "internalType": "address",
          "name": "",
          "type": "address"
        }
      ],
      "name": "venusAccrued",
      "outputs": [
        {
          "internalType": "uint256",
          "name": "",
          "type": "uint256"
        }
      ],
      "payable": false,
      "stateMutability": "view",
      "type": "function"
    },
    {
      "constant": true,
      "inputs": [
        {
          "internalType": "address",
          "name": "",
          "type": "address"
        }
      ],
      "name": "venusBorrowState",
      "outputs": [
        {
          "internalType": "uint224",
          "name": "index",
          "type": "uint224"
        },
        {
          "internalType": "uint32",
          "name": "block",
          "type": "uint32"
        }
      ],
      "payable": false,
      "stateMutability": "view",
      "type": "function"
    },
    {
      "constant": true,
      "inputs": [
        {
          "internalType": "address",
          "name": "",
          "type": "address"
        },
        {
          "internalType": "address",
          "name": "",
          "type": "address"
        }
      ],
      "name": "venusBorrowerIndex",
      "outputs": [
        {
          "internalType": "uint256",
          "name": "",
          "type": "uint256"
        }
      ],
      "payable": false,
      "stateMutability": "view",
      "type": "function"
    },
    {
      "constant": true,
      "inputs": [],
      "name": "venusInitialIndex",
      "outputs": [
        {
          "internalType": "uint224",
          "name": "",
          "type": "uint224"
        }
      ],
      "payable": false,
      "stateMutability": "view",
      "type": "function"
    },
    {
      "constant": true,
      "inputs": [],
      "name": "venusRate",
      "outputs": [
        {
          "internalType": "uint256",
          "name": "",
          "type": "uint256"
        }
      ],
      "payable": false,
      "stateMutability": "view",
      "type": "function"
    },
    {
      "constant": true,
      "inputs": [
        {
          "internalType": "address",
          "name": "",
          "type": "address"
        }
      ],
      "name": "venusSpeeds",
      "outputs": [
        {
          "internalType": "uint256",
          "name": "",
          "type": "uint256"
        }
      ],
      "payable": false,
      "stateMutability": "view",
      "type": "function"
    },
    {
      "constant": true,
      "inputs": [
        {
          "internalType": "address",
          "name": "",
          "type": "address"
        },
        {
          "internalType": "address",
          "name": "",
          "type": "address"
        }
      ],
      "name": "venusSupplierIndex",
      "outputs": [
        {
          "internalType": "uint256",
          "name": "",
          "type": "uint256"
        }
      ],
      "payable": false,
      "stateMutability": "view",
      "type": "function"
    },
    {
      "constant": true,
      "inputs": [
        {
          "internalType": "address",
          "name": "",
          "type": "address"
        }
      ],
      "name": "venusSupplyState",
      "outputs": [
        {
          "internalType": "uint224",
          "name": "index",
          "type": "uint224"
        },
        {
          "internalType": "uint32",
          "name": "block",
          "type": "uint32"
        }
      ],
      "payable": false,
      "stateMutability": "view",
      "type": "function"
    },
    {
      "constant": true,
      "inputs": [],
      "name": "venusVAIVaultRate",
      "outputs": [
        {
          "internalType": "uint256",
          "name": "",
          "type": "uint256"
        }
      ],
      "payable": false,
      "stateMutability": "view",
      "type": "function"
    }
  ],
  "bytecode": "0x608060405234801561001057600080fd5b50600080546001600160a01b03191633179055615f8a80620000336000396000f3fe608060405234801561001057600080fd5b50600436106105195760003560e01c806386df31ee116102a4578063bf32442d11610172578063ddfd287e116100d9578063ede4edd011610092578063ede4edd014611647578063ededbae61461166d578063f519fc3014611675578063f851a4401461169b578063fa6331d8146116a3578063fd51a3ad146116ab57610519565b8063ddfd287e14611580578063e37d4b7914611588578063e4028eee146115ae578063e85a2960146115da578063e875544614611609578063eabe7d911461161157610519565b8063d09c54ba1161012b578063d09c54ba146113ac578063d24febad146114d8578063d3270f991461150e578063da3d454c14611516578063dce154491461154c578063dcfbc0c71461157857610519565b8063bf32442d1461128e578063c299823814611296578063c488847b14611304578063c5b4db551461133a578063c5f956af1461135e578063d02f73511461136657610519565b8063a7604b4111610216578063b2eafc39116101cf578063b2eafc39146111c6578063b8324c7c146111ce578063bb82aa5e1461121c578063bb85745014611224578063bdcdc2581461124a578063bec04f721461128657610519565b8063a7604b411461108b578063a76b3fda146110b7578063a78dc775146110dd578063abfceffc14611122578063adcd5fb914611198578063b0772d0b146111be57610519565b8063929fe9a111610268578063929fe9a114610fd557806394b2294b146110035780639bb27d621461100b5780639bf34cbb146110135780639cfdd9e614611039578063a06a87f11461105f57610519565b806386df31ee14610ea6578063879c2e1d14610f575780638a7dc16514610f5f5780638e8f294b14610f855780639254f5e514610fcd57610519565b80634a584432116103ec5780635f5af1aa1161035357806370bf66f01161030c57806370bf66f014610d2c578063719f701b14610e605780637655138314610e685780637858524d14610e705780637d172bd514610e965780637dc0d1d014610e9e57610519565b80635f5af1aa14610b635780635fc7e71e14610b89578063607ef6c114610bcf5780636662c7c914610c8d5780636a56947e14610caa5780636d35bf9114610ce657610519565b806351a485e4116103a557806351a485e4146109ca57806351dff98914610a8857806352d84d1e14610ac457806355ee1fe114610ae15780635c77860514610b075780635ec88c7914610b3d57610519565b80634a584432146108bd5780634ada90af146108e35780634e0853db146108eb5780634e79238f1461091d5780634ef4c3e1146109775780634fd42e17146109ad57610519565b806326782247116104905780634088c73e116104495780634088c73e146107ef57806341a18d2c146107f757806341c728b914610825578063425fad581461086157806342cbb15c1461086957806347ef3b3b1461087157610519565b806326782247146106a85780632a6a6065146106b05780632b5d790c146106cf5780632bc7e29e1461078f5780632ec04124146107b5578063317b0b77146107d257610519565b80631abcaa77116104e25780631abcaa77146105b05780631d504dc6146105d65780631ededc91146105fe57806321af45691461064057806324008a621461066457806324a3d622146106a057610519565b80627e3dd21461051e57806302c3bcbb1461053a57806304ef9d581461057257806308e0225c1461057a5780630db4b4e5146105a8575b600080fd5b6105266116d7565b604080519115158252519081900360200190f35b6105606004803603602081101561055057600080fd5b50356001600160a01b03166116dc565b60408051918252519081900360200190f35b6105606116ee565b6105606004803603604081101561059057600080fd5b506001600160a01b03813581169160200135166116f4565b610560611711565b610560600480360360208110156105c657600080fd5b50356001600160a01b0316611717565b6105fc600480360360208110156105ec57600080fd5b50356001600160a01b0316611729565b005b6105fc600480360360a081101561061457600080fd5b506001600160a01b03813581169160208101358216916040820135169060608101359060800135611897565b61064861189e565b604080516001600160a01b039092168252519081900360200190f35b6105606004803603608081101561067a57600080fd5b506001600160a01b038135811691602081013582169160408201351690606001356118ad565b610648611982565b610648611991565b610526600480360360208110156106c657600080fd5b503515156119a0565b6105fc600480360360608110156106e557600080fd5b810190602081018135600160201b8111156106ff57600080fd5b82018360208201111561071157600080fd5b803590602001918460208302840111600160201b8311171561073257600080fd5b919390929091602081019035600160201b81111561074f57600080fd5b82018360208201111561076157600080fd5b803590602001918460208302840111600160201b8311171561078257600080fd5b9193509150351515611a36565b610560600480360360208110156107a557600080fd5b50356001600160a01b0316611ace565b610560600480360360208110156107cb57600080fd5b5035611ae0565b610560600480360360208110156107e857600080fd5b5035611b37565b610526611b8b565b6105606004803603604081101561080d57600080fd5b506001600160a01b0381358116916020013516611b94565b6105fc6004803603608081101561083b57600080fd5b506001600160a01b03813581169160208101359091169060408101359060600135611bb1565b610526611bb7565b610560611bc6565b6105fc600480360360c081101561088757600080fd5b506001600160a01b0381358116916020810135821691604082013581169160608101359091169060808101359060a00135611bcb565b610560600480360360208110156108d357600080fd5b50356001600160a01b0316611bd0565b610560611be2565b6105fc6004803603606081101561090157600080fd5b506001600160a01b038135169060208101359060400135611be8565b6109596004803603608081101561093357600080fd5b506001600160a01b03813581169160208101359091169060408101359060600135611c66565b60408051938452602084019290925282820152519081900360600190f35b6105606004803603606081101561098d57600080fd5b506001600160a01b03813581169160208101359091169060400135611c9c565b610560600480360360208110156109c357600080fd5b5035611e23565b6105fc600480360360408110156109e057600080fd5b810190602081018135600160201b8111156109fa57600080fd5b820183602082011115610a0c57600080fd5b803590602001918460208302840111600160201b83111715610a2d57600080fd5b919390929091602081019035600160201b811115610a4a57600080fd5b820183602082011115610a5c57600080fd5b803590602001918460208302840111600160201b83111715610a7d57600080fd5b509092509050611eed565b6105fc60048036036080811015610a9e57600080fd5b506001600160a01b03813581169160208101359091169060408101359060600135612040565b61064860048036036020811015610ada57600080fd5b5035612091565b61056060048036036020811015610af757600080fd5b50356001600160a01b03166120b8565b6105fc60048036036060811015610b1d57600080fd5b506001600160a01b03813581169160208101359091169060400135612131565b61095960048036036020811015610b5357600080fd5b50356001600160a01b0316612136565b61056060048036036020811015610b7957600080fd5b50356001600160a01b031661216b565b610560600480360360a0811015610b9f57600080fd5b506001600160a01b03813581169160208101358216916040820135811691606081013590911690608001356121e4565b6105fc60048036036040811015610be557600080fd5b810190602081018135600160201b811115610bff57600080fd5b820183602082011115610c1157600080fd5b803590602001918460208302840111600160201b83111715610c3257600080fd5b919390929091602081019035600160201b811115610c4f57600080fd5b820183602082011115610c6157600080fd5b803590602001918460208302840111600160201b83111715610c8257600080fd5b5090925090506123d5565b6105fc60048036036020811015610ca357600080fd5b503561251f565b6105fc60048036036080811015610cc057600080fd5b506001600160a01b0381358116916020810135821691604082013516906060013561256e565b6105fc600480360360a0811015610cfc57600080fd5b506001600160a01b0381358116916020810135821691604082013581169160608101359091169060800135611897565b6105fc600480360360a0811015610d4257600080fd5b810190602081018135600160201b811115610d5c57600080fd5b820183602082011115610d6e57600080fd5b803590602001918460208302840111600160201b83111715610d8f57600080fd5b9190808060200260200160405190810160405280939291908181526020018383602002808284376000920191909152509295949360208101935035915050600160201b811115610dde57600080fd5b820183602082011115610df057600080fd5b803590602001918460208302840111600160201b83111715610e1157600080fd5b9190808060200260200160405190810160405280939291908181526020018383602002808284376000920191909152509295505050508035151591506020810135151590604001351515612573565b6105606128a8565b6105266128ae565b6105fc60048036036020811015610e8657600080fd5b50356001600160a01b03166128bc565b610648612979565b610648612988565b6105fc60048036036040811015610ebc57600080fd5b6001600160a01b038235169190810190604081016020820135600160201b811115610ee657600080fd5b820183602082011115610ef857600080fd5b803590602001918460208302840111600160201b83111715610f1957600080fd5b919080806020026020016040519081016040528093929190818152602001838360200280828437600092019190915250929550612997945050505050565b6105606129f4565b61056060048036036020811015610f7557600080fd5b50356001600160a01b03166129fa565b610fab60048036036020811015610f9b57600080fd5b50356001600160a01b0316612a0c565b6040805193151584526020840192909252151582820152519081900360600190f35b610648612a32565b61052660048036036040811015610feb57600080fd5b506001600160a01b0381358116916020013516612a41565b610560612a75565b610648612a7b565b6105606004803603602081101561102957600080fd5b50356001600160a01b0316612a8a565b6105606004803603602081101561104f57600080fd5b50356001600160a01b0316612b02565b6105fc6004803603604081101561107557600080fd5b506001600160a01b038135169060200135612b7b565b6105fc600480360360408110156110a157600080fd5b506001600160a01b038135169060200135612ba3565b610560600480360360208110156110cd57600080fd5b50356001600160a01b0316612c65565b611109600480360360408110156110f357600080fd5b506001600160a01b038135169060200135612dea565b6040805192835260208301919091528051918290030190f35b6111486004803603602081101561113857600080fd5b50356001600160a01b0316612e89565b60408051602080825283518183015283519192839290830191858101910280838360005b8381101561118457818101518382015260200161116c565b505050509050019250505060405180910390f35b6105fc600480360360208110156111ae57600080fd5b50356001600160a01b0316612eff565b611148612f63565b610648612fc5565b6111f4600480360360208110156111e457600080fd5b50356001600160a01b0316612fd4565b604080516001600160e01b03909316835263ffffffff90911660208301528051918290030190f35b610648612ffe565b6105fc6004803603602081101561123a57600080fd5b50356001600160a01b031661300d565b6105606004803603608081101561126057600080fd5b506001600160a01b03813581169160208101358216916040820135169060600135613078565b6105606130c6565b6106486130cc565b611148600480360360208110156112ac57600080fd5b810190602081018135600160201b8111156112c657600080fd5b8201836020820111156112d857600080fd5b803590602001918460208302840111600160201b831117156112f957600080fd5b5090925090506130e4565b6111096004803603606081101561131a57600080fd5b506001600160a01b0381358116916020810135909116906040013561317a565b611342613222565b604080516001600160e01b039092168252519081900360200190f35b610648613235565b610560600480360360a081101561137c57600080fd5b506001600160a01b0381358116916020810135821691604082013581169160608101359091169060800135613244565b6105fc600480360360808110156113c257600080fd5b810190602081018135600160201b8111156113dc57600080fd5b8201836020820111156113ee57600080fd5b803590602001918460208302840111600160201b8311171561140f57600080fd5b9190808060200260200160405190810160405280939291908181526020018383602002808284376000920191909152509295949360208101935035915050600160201b81111561145e57600080fd5b82018360208201111561147057600080fd5b803590602001918460208302840111600160201b8311171561149157600080fd5b9190808060200260200160405190810160405280939291908181526020018383602002808284376000920191909152509295505050508035151591506020013515156133c3565b610560600480360360608110156114ee57600080fd5b506001600160a01b038135811691602081013590911690604001356133d1565b610648613556565b6105606004803603606081101561152c57600080fd5b506001600160a01b03813581169160208101359091169060400135613565565b6106486004803603604081101561156257600080fd5b506001600160a01b0381351690602001356138bd565b6106486138f2565b6105fc613901565b6111f46004803603602081101561159e57600080fd5b50356001600160a01b0316613b31565b610560600480360360408110156115c457600080fd5b506001600160a01b038135169060200135613b5b565b610526600480360360408110156115f057600080fd5b5080356001600160a01b0316906020013560ff16613cfd565b610560613d3d565b6105606004803603606081101561162757600080fd5b506001600160a01b03813581169160208101359091169060400135613d43565b6105606004803603602081101561165d57600080fd5b50356001600160a01b0316613d92565b610648614049565b6105606004803603602081101561168b57600080fd5b50356001600160a01b0316614061565b6106486140d0565b6105606140df565b610560600480360360408110156116c157600080fd5b506001600160a01b0381351690602001356140e5565b600181565b60276020526000908152604090205481565b60225481565b601360209081526000928352604080842090915290825290205481565b601d5481565b600f6020526000908152604090205481565b806001600160a01b031663f851a4406040518163ffffffff1660e01b815260040160206040518083038186803b15801561176257600080fd5b505afa158015611776573d6000803e3d6000fd5b505050506040513d602081101561178c57600080fd5b50516001600160a01b031633146117ea576040805162461bcd60e51b815260206004820152601960248201527f6f6e6c7920756e6974726f6c6c65722061646d696e2063616e00000000000000604482015290519081900360640190fd5b806001600160a01b031663c1e803346040518163ffffffff1660e01b8152600401602060405180830381600087803b15801561182557600080fd5b505af1158015611839573d6000803e3d6000fd5b505050506040513d602081101561184f57600080fd5b505115611894576040805162461bcd60e51b815260206004820152600e60248201526d1b9bdd08185d5d1a1bdc9a5e995960921b604482015290519081900360640190fd5b50565b5050505050565b601e546001600160a01b031681565b60006118b7614192565b6118c28560036141e5565b6001600160a01b03851660009081526009602052604090206118e390614234565b6118eb615d92565b6040518060200160405280876001600160a01b031663aa5af0fd6040518163ffffffff1660e01b815260040160206040518083038186803b15801561192f57600080fd5b505afa158015611943573d6000803e3d6000fd5b505050506040513d602081101561195957600080fd5b505190529050611969868261427e565b611974868583614512565b60009150505b949350505050565b600a546001600160a01b031681565b6001546001600160a01b031681565b60006119e06040518060400160405280601881526020017f5f73657450726f746f636f6c50617573656428626f6f6c2900000000000000008152506146f5565b6018805483151562010000810262ff0000199092169190911790915560408051918252517fd7500633dd3ddd74daa7af62f8c8404c7fe4a81da179998db851696bed004b389181900360200190a150805b919050565b611a576040518060600160405280602b8152602001615ec4602b91396146f5565b60005b84811015611ac65760005b83811015611abd57611ab5878784818110611a7c57fe5b905060200201356001600160a01b0316868684818110611a9857fe5b90506020020135600881118015611aae57600080fd5b5085614816565b600101611a65565b50600101611a5a565b505050505050565b60166020526000908152604090205481565b6000611aea614925565b6017805490839055604080518281526020810185905281517f73747d68b346dce1e932bcd238282e7ac84c01569e1f8d0469c222fdc6e9d5a4929181900390910190a160005b9392505050565b6000611b41614925565b6005805490839055604080518281526020810185905281517f3b9670cf975d26958e754b57098eaa2ac914d8d2a31b83257997b9f346110fd9929181900390910190a16000611b30565b60185460ff1681565b601260209081526000928352604080842090915290825290205481565b50505050565b60185462010000900460ff1681565b435b90565b611ac6565b601f6020526000908152604090205481565b60065481565b611bf0614925565b611bf983614975565b601b80546001600160a01b0385166001600160a01b03199091168117909155601c839055601d8290556040805191825260208201849052818101839052517f7059037d74ee16b0fb06a4a30f3348dd2635f301f92e373c92899a25a522ef6e9181900360600190a1505050565b600080600080600080611c7b8a8a8a8a6149c8565b925092509250826012811115611c8d57fe5b9a919950975095505050505050565b6000611ca6614192565b611cb18460006141e5565b6001600160a01b0384166000908152600960205260409020611cd290614234565b6001600160a01b03841660009081526027602052604090205480611d36576040805162461bcd60e51b815260206004820152601660248201527506d61726b657420737570706c792063617020697320360541b604482015290519081900360640190fd5b6000856001600160a01b03166318160ddd6040518163ffffffff1660e01b815260040160206040518083038186803b158015611d7157600080fd5b505afa158015611d85573d6000803e3d6000fd5b505050506040513d6020811015611d9b57600080fd5b505190506000611dab8286614a87565b905082811115611e02576040805162461bcd60e51b815260206004820152601960248201527f6d61726b657420737570706c7920636170207265616368656400000000000000604482015290519081900360640190fd5b611e0b87614abd565b611e158787614d47565b60005b979650505050505050565b6000611e46604051806060016040528060218152602001615e27602191396146f5565b670de0b6b3a7640000821015611ea3576040805162461bcd60e51b815260206004820152601b60248201527f696e63656e74697665206d757374206265206f76657220316531380000000000604482015290519081900360640190fd5b6006805490839055604080518281526020810185905281517faeba5a6c40a8ac138134bff1aaa65debf25971188a58804bad717f82f0ec1316929181900390910190a16000611b30565b611f0e604051806060016040528060298152602001615e48602991396146f5565b82818115801590611f1e57508082145b611f5f576040805162461bcd60e51b815260206004820152600d60248201526c1a5b9d985b1a59081a5b9c1d5d609a1b604482015290519081900360640190fd5b60005b8281101561203757848482818110611f7657fe5b9050602002013560276000898985818110611f8d57fe5b905060200201356001600160a01b03166001600160a01b03166001600160a01b0316815260200190815260200160002081905550868682818110611fcd57fe5b905060200201356001600160a01b03166001600160a01b03167f9e0ad9cee10bdf36b7fbd38910c0bdff0f275ace679b45b922381c2723d676f886868481811061201357fe5b905060200201356040518082815260200191505060405180910390a2600101611f62565b50505050505050565b8015158061204c575081155b611bb1576040805162461bcd60e51b815260206004820152601160248201527072656465656d546f6b656e73207a65726f60781b604482015290519081900360640190fd5b600d818154811061209e57fe5b6000918252602090912001546001600160a01b0316905081565b60006120c2614925565b6120cb82614975565b600480546001600160a01b038481166001600160a01b0319831681179093556040805191909216808252602082019390935281517fd52b2b9b7e9ee655fcb95d2e5b9e0c9f69e7ef2b8e9d2d0ea78402d576d22e22929181900390910190a16000611b30565b505050565b60008060008060008061214d8760008060006149c8565b92509250925082601281111561215f57fe5b97919650945092505050565b6000612175614925565b61217e82614975565b600a80546001600160a01b038481166001600160a01b0319831681179093556040805191909216808252602082019390935281517f0613b6ee6a04f0d09f390e4d9318894b9f6ac7fd83897cd8d18896ba579c401e929181900390910190a16000611b30565b60006121ee614192565b6121f98660056141e5565b6025546001600160a01b03161580159061222157506025546001600160a01b03858116911614155b156122305760015b90506123cc565b6001600160a01b038516600090815260096020526040902061225190614234565b6015546001600160a01b03878116911614612287576001600160a01b038616600090815260096020526040902061228790614234565b6000806122988560008060006149c8565b919350909150600090508260128111156122ae57fe5b146122c8578160128111156122bf57fe5b925050506123cc565b806122d45760036122bf565b6015546000906001600160a01b038a811691161461237557886001600160a01b03166395dd9193876040518263ffffffff1660e01b815260040180826001600160a01b03166001600160a01b0316815260200191505060206040518083038186803b15801561234257600080fd5b505afa158015612356573d6000803e3d6000fd5b505050506040513d602081101561236c57600080fd5b50519050612390565b506001600160a01b0385166000908152601660205260409020545b60006123ac604051806020016040528060055481525083614f72565b9050808611156123c35760119450505050506123cc565b60009450505050505b95945050505050565b6123f6604051806060016040528060298152602001615e71602991396146f5565b8281811580159061240657508082145b612447576040805162461bcd60e51b815260206004820152600d60248201526c1a5b9d985b1a59081a5b9c1d5d609a1b604482015290519081900360640190fd5b60005b828110156120375784848281811061245e57fe5b90506020020135601f600089898581811061247557fe5b905060200201356001600160a01b03166001600160a01b03166001600160a01b03168152602001908152602001600020819055508686828181106124b557fe5b905060200201356001600160a01b03166001600160a01b03167f6f1951b2aad10f3fc81b86d91105b413a5b3f847a34bbc5ce1904201b14438f68686848181106124fb57fe5b905060200201356040518082815260200191505060405180910390a260010161244a565b612527614925565b601a805490829055604080518281526020810184905281517fe81d4ac15e5afa1e708e66664eddc697177423d950d133bda8262d8885e6da3b929181900390910190a15050565b611bb1565b6000606086516040519080825280602002602001820160405280156125a2578160200160208202803883390190505b509050600091505b86518210156125fe5760006125d68884815181106125c457fe5b602002602001015160008060006149c8565b92505050808284815181106125e757fe5b6020908102919091010152506001909101906125aa565b60005b865181101561289e57600087828151811061261857fe5b6020026020010151905061264f60096000836001600160a01b03166001600160a01b03168152602001908152602001600020614234565b86156127b25761265d615d92565b6040518060200160405280836001600160a01b031663aa5af0fd6040518163ffffffff1660e01b815260040160206040518083038186803b1580156126a157600080fd5b505afa1580156126b5573d6000803e3d6000fd5b505050506040513d60208110156126cb57600080fd5b5051905290506126db828261427e565b600094505b89518510156127b057612707828b87815181106126f957fe5b602002602001015183614512565b6127718a868151811061271657fe5b6020026020010151601460008d898151811061272e57fe5b60200260200101516001600160a01b03166001600160a01b031681526020019081526020016000205486888151811061276357fe5b602002602001015189614f91565b601460008c888151811061278157fe5b6020908102919091018101516001600160a01b03168252810191909152604001600020556001909401936126e0565b505b8515612895576127c181614abd565b600093505b8851841015612895576127ec818a86815181106127df57fe5b6020026020010151614d47565b6128568985815181106127fb57fe5b6020026020010151601460008c888151811061281357fe5b60200260200101516001600160a01b03166001600160a01b031681526020019081526020016000205485878151811061284857fe5b602002602001015188614f91565b601460008b878151811061286657fe5b6020908102919091018101516001600160a01b03168252810191909152604001600020556001909301926127c6565b50600101612601565b5050505050505050565b601c5481565b601854610100900460ff1681565b6040805160018082528183019092526060916020808301908038833901905050905081816000815181106128ec57fe5b60200260200101906001600160a01b031690816001600160a01b03168152505061297581600d80548060200260200160405190810160405280929190818152602001828054801561296657602002820191906000526020600020905b81546001600160a01b03168152600190910190602001808311612948575b50505050506001806001612573565b5050565b601b546001600160a01b031681565b6004546001600160a01b031681565b6040805160018082528183019092526060916020808301908038833901905050905082816000815181106129c757fe5b60200260200101906001600160a01b031690816001600160a01b03168152505061213181836001806133c3565b600e5481565b60146020526000908152604090205481565b60096020526000908152604090208054600182015460039092015460ff91821692911683565b6015546001600160a01b031681565b6001600160a01b038082166000908152600960209081526040808320938616835260029093019052205460ff165b92915050565b60075481565b6025546001600160a01b031681565b6000612a94614925565b612a9d82614975565b602680546001600160a01b038481166001600160a01b0319831617928390556040805192821680845293909116602083015280517f0f7eb572d1b3053a0a3a33c04151364cf88d163182a5e4e1088cb8e52321e08a9281900390910190a16000611b30565b6000612b0c614925565b612b1582614975565b601580546001600160a01b038481166001600160a01b0319831681179093556040805191909216808252602082019390935281517fe1ddcb2dab8e5b03cfc8c67a0d5861d91d16f7bd2612fd381faf4541d212c9b2929181900390910190a16000611b30565b600254612b90906001600160a01b0316615282565b612b9982614975565b61297582826152e4565b600254612bb8906001600160a01b0316615282565b6000612bc78383600080614f91565b90508015612c1c576040805162461bcd60e51b815260206004820152601a60248201527f696e73756666696369656e742078767320666f72206772616e74000000000000604482015290519081900360640190fd5b604080516001600160a01b03851681526020810184905281517fd7fe674cac9eee3998fe3cbd7a6f93c3bc70509d97ec1550a59364be6438147e929181900390910190a1505050565b6000612ca56040518060400160405280601781526020017f5f737570706f72744d61726b65742861646472657373290000000000000000008152506146f5565b6001600160a01b03821660009081526009602052604090205460ff1615612cd957612cd2600a6011615622565b9050611a31565b816001600160a01b0316633d9ea3a16040518163ffffffff1660e01b815260040160206040518083038186803b158015612d1257600080fd5b505afa158015612d26573d6000803e3d6000fd5b505050506040513d6020811015612d3c57600080fd5b5050604080516060810182526001808252600060208381018281528486018381526001600160a01b03891684526009909252949091209251835490151560ff19918216178455935191830191909155516003909101805491151591909216179055612da682615688565b604080516001600160a01b038416815290517fcf583bb0c569eb967f806b11601c4cb93c10310485c67add5f8362c2f212321f9181900360200190a1600092915050565b602654604080516304f65f8b60e21b81523060048201526001600160a01b038581166024830152604482018590528251600094859485948594909216926313d97e2c926064808201939291829003018186803b158015612e4957600080fd5b505afa158015612e5d573d6000803e3d6000fd5b505050506040513d6040811015612e7357600080fd5b5080516020909101519097909650945050505050565b6001600160a01b038116600090815260086020908152604091829020805483518184028101840190945280845260609392830182828015612ef357602002820191906000526020600020905b81546001600160a01b03168152600190910190602001808311612ed5575b50505050509050919050565b61189481600d805480602002602001604051908101604052809291908181526020018280548015612f5957602002820191906000526020600020905b81546001600160a01b03168152600190910190602001808311612f3b575b5050505050612997565b6060600d805480602002602001604051908101604052809291908181526020018280548015612fbb57602002820191906000526020600020905b81546001600160a01b03168152600190910190602001808311612f9d575b5050505050905090565b6020546001600160a01b031681565b6010602052600090815260409020546001600160e01b03811690600160e01b900463ffffffff1682565b6002546001600160a01b031681565b613015614925565b602580546001600160a01b038381166001600160a01b0319831681179093556040805191909216808252602082019390935281517fa5ea5616d5f6dbbaa62fdfcf3856723216eed485c394d9e51ec8e6d40e1d1ac1929181900390910190a15050565b6000613082614192565b61308d8560066141e5565b600061309a868685615766565b905080156130a957905061197a565b6130b286614abd565b6130bc8686614d47565b6119748685614d47565b60175481565b73cf6bb5389c92bdda8a3747ddb454cb7a64626c6390565b60408051828152602080840282010190915260609082908290828015613114578160200160208202803883390190505b50905060005b828110156131715761314786868381811061313157fe5b905060200201356001600160a01b03163361580c565b601281111561315257fe5b82828151811061315e57fe5b602090810291909101015260010161311a565b50949350505050565b60265460408051630779996560e11b81523060048201526001600160a01b038681166024830152858116604483015260648201859052825160009485948594859490921692630ef332ca926084808201939291829003018186803b1580156131e157600080fd5b505afa1580156131f5573d6000803e3d6000fd5b505050506040513d604081101561320b57600080fd5b508051602090910151909890975095505050505050565b6ec097ce7bc90715b34b9f100000000081565b6021546001600160a01b031681565b600061324e614192565b6132598660046141e5565b6001600160a01b038616600090815260096020526040902061327a90614234565b6015546001600160a01b038681169116146132b0576001600160a01b03851660009081526009602052604090206132b090614234565b846001600160a01b0316635fe3b5676040518163ffffffff1660e01b815260040160206040518083038186803b1580156132e957600080fd5b505afa1580156132fd573d6000803e3d6000fd5b505050506040513d602081101561331357600080fd5b505160408051635fe3b56760e01b815290516001600160a01b0392831692891691635fe3b567916004808301926020929190829003018186803b15801561335957600080fd5b505afa15801561336d573d6000803e3d6000fd5b505050506040513d602081101561338357600080fd5b50516001600160a01b03161461339a576002612229565b6133a386614abd565b6133ad8684614d47565b6133b78685614d47565b60009695505050505050565b611bb1848484846000612573565b6020546000906133e9906001600160a01b0316615282565b670de0b6b3a76400008210613445576040805162461bcd60e51b815260206004820152601d60248201527f74726561737572792070657263656e7420636170206f766572666c6f77000000604482015290519081900360640190fd5b61344e84614975565b61345783614975565b6020805460218054602280546001600160a01b038a81166001600160a01b0319808816821789558b8316908616179095559188905560408051958316808752968601949094528351929091169390927f29f06ea15931797ebaed313d81d100963dc22cb213cb4ce2737b5a62b1a8b1e892918290030190a1604080516001600160a01b0380851682528816602082015281517f8de763046d7b8f08b6c3d03543de1d615309417842bb5d2d62f110f65809ddac929181900390910190a1604080518281526020810187905281517f0893f8f4101baaabbeb513f96761e7a36eb837403c82cc651c292a4abdc94ed7929181900390910190a16000611e18565b6026546001600160a01b031681565b600061356f614192565b61357a8460026141e5565b6001600160a01b038416600090815260096020526040902061359b90614234565b6001600160a01b038085166000908152600960209081526040808320938716835260029093019052205460ff1661365857336001600160a01b03851614613621576040805162461bcd60e51b815260206004820152601560248201527439b2b73232b91036bab9ba103132903b2a37b5b2b760591b604482015290519081900360640190fd5b600061362d858561580c565b9050600081601281111561363d57fe5b146136565780601281111561364e57fe5b915050611b30565b505b600480546040805163fc57d4df60e01b81526001600160a01b03888116948201949094529051929091169163fc57d4df91602480820192602092909190829003018186803b1580156136a957600080fd5b505afa1580156136bd573d6000803e3d6000fd5b505050506040513d60208110156136d357600080fd5b50516136e357600d5b9050611b30565b6001600160a01b0384166000908152601f602052604090205480156137d0576000856001600160a01b03166347bd37186040518163ffffffff1660e01b815260040160206040518083038186803b15801561373d57600080fd5b505afa158015613751573d6000803e3d6000fd5b505050506040513d602081101561376757600080fd5b5051905060006137778286614a87565b90508281106137cd576040805162461bcd60e51b815260206004820152601960248201527f6d61726b657420626f72726f7720636170207265616368656400000000000000604482015290519081900360640190fd5b50505b6000806137e086886000886149c8565b919350909150600090508260128111156137f657fe5b146138115781601281111561380757fe5b9350505050611b30565b801561381e576004613807565b613826615d92565b6040518060200160405280896001600160a01b031663aa5af0fd6040518163ffffffff1660e01b815260040160206040518083038186803b15801561386a57600080fd5b505afa15801561387e573d6000803e3d6000fd5b505050506040513d602081101561389457600080fd5b5051905290506138a4888261427e565b6138af888883614512565b600098975050505050505050565b600860205281600052604060002081815481106138d657fe5b6000918252602090912001546001600160a01b03169150829050565b6003546001600160a01b031681565b601c5415806139185750601c54613916611bc6565b105b1561392257613b2f565b600061392c6130cc565b604080516370a0823160e01b815230600482015290519192506000916001600160a01b038416916370a08231916024808301926020929190829003018186803b15801561397857600080fd5b505afa15801561398c573d6000803e3d6000fd5b505050506040513d60208110156139a257600080fd5b50519050806139b2575050613b2f565b6000806139c86139c0611bc6565b601c54615900565b905060006139d8601a548361593a565b90508084106139e9578092506139ed565b8392505b601d54831015613a01575050505050613b2f565b613a09611bc6565b601c55601b546040805163a9059cbb60e01b81526001600160a01b0392831660048201526024810186905290519187169163a9059cbb916044808201926020929091908290030181600087803b158015613a6257600080fd5b505af1158015613a76573d6000803e3d6000fd5b505050506040513d6020811015613a8c57600080fd5b50506040805184815290517ff6d4b8f74d85a6e2d7a50225957b8a6cfec69ad92f5905627260541aa0a5565d9181900360200190a1601b60009054906101000a90046001600160a01b03166001600160a01b031663faa1809e6040518163ffffffff1660e01b8152600401600060405180830381600087803b158015613b1157600080fd5b505af1158015613b25573d6000803e3d6000fd5b5050505050505050505b565b6011602052600090815260409020546001600160e01b03811690600160e01b900463ffffffff1682565b6000613b7e604051806060016040528060258152602001615f31602591396146f5565b613b8783614975565b6001600160a01b0383166000908152600960205260409020613ba881614234565b613bb0615d92565b506040805160208101909152838152613bc7615d92565b506040805160208101909152670c7d713b49da00008152613be8818361597c565b15613c0357613bf960066008615622565b9350505050612a6f565b8415801590613c8c5750600480546040805163fc57d4df60e01b81526001600160a01b038a8116948201949094529051929091169163fc57d4df91602480820192602092909190829003018186803b158015613c5e57600080fd5b505afa158015613c72573d6000803e3d6000fd5b505050506040513d6020811015613c8857600080fd5b5051155b15613c9d57613bf9600d6009615622565b60018301805490869055604080516001600160a01b03891681526020810183905280820188905290517f70483e6592cd5182d45ac970e05bc62cdcc90e9d8ef2c2dbe686cf383bcd7fc59181900360600190a16000979650505050505050565b6001600160a01b038216600090815260296020526040812081836008811115613d2257fe5b815260208101919091526040016000205460ff169392505050565b60055481565b6000613d4d614192565b613d588460016141e5565b6000613d65858585615766565b90508015613d74579050611b30565b613d7d85614abd565b613d878585614d47565b600095945050505050565b6000613d9f8260086141e5565b604080516361bfb47160e11b815233600482015290518391600091829182916001600160a01b0386169163c37f68e2916024808301926080929190829003018186803b158015613dee57600080fd5b505afa158015613e02573d6000803e3d6000fd5b505050506040513d6080811015613e1857600080fd5b508051602082015160409092015190945090925090508215613e81576040805162461bcd60e51b815260206004820152601960248201527f6765744163636f756e74536e617073686f74206661696c656400000000000000604482015290519081900360640190fd5b8015613e9e57613e93600c6002615622565b945050505050611a31565b6000613eab873385615766565b90508015613ecc57613ec0600e600383615983565b95505050505050611a31565b6001600160a01b0385166000908152600960209081526040808320338452600281019092529091205460ff16613f0b5760009650505050505050611a31565b3360009081526002820160209081526040808320805460ff1916905560089091528120805490915b81811015613fec57886001600160a01b0316838281548110613f5157fe5b6000918252602090912001546001600160a01b03161415613fe457826001830381548110613f7b57fe5b9060005260206000200160009054906101000a90046001600160a01b0316838281548110613fa557fe5b600091825260209091200180546001600160a01b0319166001600160a01b03929092169190911790558254613fde846000198301615da5565b50613fec565b600101613f33565b818110613ff557fe5b604080516001600160a01b038b16815233602082015281517fe699a64c18b07ac5b7301aa273f36a2287239eb9501d81950672794afba29a0d929181900390910190a160009b9a5050505050505050505050565b73151b1e2635a717bcdc836ecd6fbb62b674fe3e1d90565b600061406b614925565b602880546001600160a01b038481166001600160a01b0319831617928390556040805192821680845293909116602083015280517f0f1eca7612e020f6e4582bcead0573eba4b5f7b56668754c6aed82ef12057dd49281900390910190a16000611b30565b6000546001600160a01b031681565b601a5481565b60006140ef614192565b60185460ff1615801561410a5750601854610100900460ff16155b61414b576040805162461bcd60e51b815260206004820152600d60248201526c159052481a5cc81c185d5cd959609a1b604482015290519081900360640190fd5b6015546001600160a01b0316331461417057614169600e6016615622565b9050612a6f565b6001600160a01b03831660009081526016602052604081208390559392505050565b60185462010000900460ff1615613b2f576040805162461bcd60e51b81526020600482015260126024820152711c1c9bdd1bd8dbdb081a5cc81c185d5cd95960721b604482015290519081900360640190fd5b6141ef8282613cfd565b15612975576040805162461bcd60e51b815260206004820152601060248201526f1858dd1a5bdb881a5cc81c185d5cd95960821b604482015290519081900360640190fd5b805460ff16611894576040805162461bcd60e51b81526020600482015260116024820152701b585c9ad95d081b9bdd081b1a5cdd1959607a1b604482015290519081900360640190fd5b6001600160a01b0382166000908152601160209081526040808320600f90925282205490916142ab611bc6565b83549091506000906142cb908390600160e01b900463ffffffff16615900565b90506000811180156142dd5750600083115b156144ad576000614352876001600160a01b03166347bd37186040518163ffffffff1660e01b815260040160206040518083038186803b15801561432057600080fd5b505afa158015614334573d6000803e3d6000fd5b505050506040513d602081101561434a57600080fd5b5051876159e9565b90506000614360838661593a565b905061436a615d92565b600083116143875760405180602001604052806000815250614391565b6143918284615a07565b905061439b615d92565b604080516020810190915288546001600160e01b031681526143bd9083615a45565b905060405180604001604052806144038360000151604051806040016040528060138152602001726e657720696e646578206f766572666c6f777360681b815250615a6a565b6001600160e01b031681526020016144498860405180604001604052806016815260200175626c6f636b206e756d626572206f766572666c6f777360501b815250615b04565b63ffffffff9081169091526001600160a01b038c166000908152601160209081526040909120835181549490920151909216600160e01b026001600160e01b039182166001600160e01b0319909416939093171691909117905550611ac692505050565b8015611ac6576144eb8260405180604001604052806016815260200175626c6f636b206e756d626572206f766572666c6f777360501b815250615b04565b845463ffffffff91909116600160e01b026001600160e01b03909116178455505050505050565b601b546001600160a01b03161561452b5761452b613901565b614533615dc9565b506001600160a01b0383166000908152601160209081526040918290208251808401909352546001600160e01b0381168352600160e01b900463ffffffff169082015261457e615d92565b50604080516020810190915281516001600160e01b0316815261459f615d92565b5060408051602080820183526001600160a01b0380891660009081526013835284812091891680825282845294812080548552865195909152915291909155805115611ac6576145ed615d92565b6145f78383615b59565b90506000614654886001600160a01b03166395dd9193896040518263ffffffff1660e01b815260040180826001600160a01b03166001600160a01b0316815260200191505060206040518083038186803b15801561432057600080fd5b905060006146628284615b7e565b6001600160a01b038916600090815260146020526040812054919250906146899083614a87565b6001600160a01b03808b166000818152601460209081526040918290208590558a5182518881529182015281519495509193928e16927f837bdc11fca9f17ce44167944475225a205279b17e88c791c3b1f66f354668fb9281900390910190a350505050505050505050565b602854604080516318c5e8ab60e01b81523360048201818152602483019384528551604484015285516001600160a01b03909516946318c5e8ab949293879391606490910190602085019080838360005b8381101561475e578181015183820152602001614746565b50505050905090810190601f16801561478b5780820380516001836020036101000a031916815260200191505b50935050505060206040518083038186803b1580156147a957600080fd5b505afa1580156147bd573d6000803e3d6000fd5b505050506040513d60208110156147d357600080fd5b5051611894576040805162461bcd60e51b815260206004820152600d60248201526c1858d8d95cdcc819195b9a5959609a1b604482015290519081900360640190fd5b6001600160a01b03831660009081526009602052604090205460ff1661486d5760405162461bcd60e51b8152600401808060200182810382526028815260200180615dff6028913960400191505060405180910390fd5b6001600160a01b0383166000908152602960205260408120829184600881111561489357fe5b815260200190815260200160002060006101000a81548160ff0219169083151502179055507f35007a986bcd36d2f73fc7f1b73762e12eadb4406dd163194950fd3b5a6a827d83838360405180846001600160a01b03166001600160a01b0316815260200183600881111561490457fe5b60ff16815291151560208301525060408051918290030192509050a1505050565b6000546001600160a01b03163314613b2f576040805162461bcd60e51b815260206004820152600e60248201526d37b7363c9030b236b4b71031b0b760911b604482015290519081900360640190fd5b6001600160a01b038116611894576040805162461bcd60e51b815260206004820152601560248201527463616e2774206265207a65726f206164647265737360581b604482015290519081900360640190fd5b6026546040805163a7032efb60e01b81523060048201526001600160a01b03878116602483015286811660448301526064820186905260848201859052915160009384938493849384938493169163a7032efb9160a4808301926060929190829003018186803b158015614a3b57600080fd5b505afa158015614a4f573d6000803e3d6000fd5b505050506040513d6060811015614a6557600080fd5b50805160208201516040909201519094509092509050826012811115611c8d57fe5b6000611b308383604051806040016040528060118152602001706164646974696f6e206f766572666c6f7760781b815250615bad565b6001600160a01b0381166000908152601060209081526040808320600f9092528220549091614aea611bc6565b8354909150600090614b0a908390600160e01b900463ffffffff16615900565b9050600081118015614b1c5750600083115b15614ce3576000856001600160a01b03166318160ddd6040518163ffffffff1660e01b815260040160206040518083038186803b158015614b5c57600080fd5b505afa158015614b70573d6000803e3d6000fd5b505050506040513d6020811015614b8657600080fd5b505190506000614b96838661593a565b9050614ba0615d92565b60008311614bbd5760405180602001604052806000815250614bc7565b614bc78284615a07565b9050614bd1615d92565b604080516020810190915288546001600160e01b03168152614bf39083615a45565b90506040518060400160405280614c398360000151604051806040016040528060138152602001726e657720696e646578206f766572666c6f777360681b815250615a6a565b6001600160e01b03168152602001614c7f8860405180604001604052806016815260200175626c6f636b206e756d626572206f766572666c6f777360501b815250615b04565b63ffffffff9081169091526001600160a01b038b166000908152601060209081526040909120835181549490920151909216600160e01b026001600160e01b039182166001600160e01b031990941693909317169190911790555061189792505050565b801561189757614d218260405180604001604052806016815260200175626c6f636b206e756d626572206f766572666c6f777360501b815250615b04565b845463ffffffff91909116600160e01b026001600160e01b039091161784555050505050565b601b546001600160a01b031615614d6057614d60613901565b614d68615dc9565b506001600160a01b0382166000908152601060209081526040918290208251808401909352546001600160e01b0381168352600160e01b900463ffffffff1690820152614db3615d92565b50604080516020810190915281516001600160e01b03168152614dd4615d92565b5060408051602080820183526001600160a01b03808816600090815260128352848120918816808252828452948120805485528651959091529152919091558051158015614e225750815115155b15614e3a576ec097ce7bc90715b34b9f100000000081525b614e42615d92565b614e4c8383615b59565b90506000866001600160a01b03166370a08231876040518263ffffffff1660e01b815260040180826001600160a01b03166001600160a01b0316815260200191505060206040518083038186803b158015614ea657600080fd5b505afa158015614eba573d6000803e3d6000fd5b505050506040513d6020811015614ed057600080fd5b505190506000614ee08284615b7e565b6001600160a01b03881660009081526014602052604081205491925090614f079083614a87565b6001600160a01b03808a166000818152601460209081526040918290208590558a5182518881529182015281519495509193928d16927ffa9d964d891991c113b49e3db1932abd6c67263d387119707aafdd6c4010a3a99281900390910190a3505050505050505050565b6000614f7c615d92565b614f868484615c02565b905061197a81615c23565b600080614f9c6130cc565b604080516370a0823160e01b815230600482015290519192506000916001600160a01b038416916370a08231916024808301926020929190829003018186803b158015614fe857600080fd5b505afa158015614ffc573d6000803e3d6000fd5b505050506040513d602081101561501257600080fd5b5051905084151586158061502557508187115b156150355786935050505061197a565b806150d357826001600160a01b031663a9059cbb89896040518363ffffffff1660e01b815260040180836001600160a01b03166001600160a01b0316815260200182815260200192505050602060405180830381600087803b15801561509a57600080fd5b505af11580156150ae573d6000803e3d6000fd5b505050506040513d60208110156150c457600080fd5b506000945061197a9350505050565b8461510f5760405162461bcd60e51b8152600401808060200182810382526042815260200180615eef6042913960600191505060405180910390fd5b826001600160a01b031663095ea7b3615126614049565b896040518363ffffffff1660e01b815260040180836001600160a01b03166001600160a01b0316815260200182815260200192505050602060405180830381600087803b15801561517657600080fd5b505af115801561518a573d6000803e3d6000fd5b505050506040513d60208110156151a057600080fd5b50600090506151ad614049565b6001600160a01b03166323323e038a8a6040518363ffffffff1660e01b815260040180836001600160a01b03166001600160a01b0316815260200182815260200192505050602060405180830381600087803b15801561520c57600080fd5b505af1158015615220573d6000803e3d6000fd5b505050506040513d602081101561523657600080fd5b5051146152745760405162461bcd60e51b815260040180806020018281038252602a815260200180615e9a602a913960400191505060405180910390fd5b506000979650505050505050565b6000546001600160a01b03163314806152a35750336001600160a01b038216145b611894576040805162461bcd60e51b815260206004820152600d60248201526c1858d8d95cdcc819195b9a5959609a1b604482015290519081900360640190fd5b6001600160a01b0382166000908152600f602052604090205480156153985761530b615d92565b6040518060200160405280856001600160a01b031663aa5af0fd6040518163ffffffff1660e01b815260040160206040518083038186803b15801561534f57600080fd5b505afa158015615363573d6000803e3d6000fd5b505050506040513d602081101561537957600080fd5b50519052905061538884614abd565b615392848261427e565b506155c6565b81156155c6576001600160a01b03831660009081526009602052604090206153bf90614234565b6001600160a01b0383166000908152601060205260409020546001600160e01b031615801561541157506001600160a01b038316600090815260106020526040902054600160e01b900463ffffffff16155b156154e05760405180604001604052806ec097ce7bc90715b34b9f10000000006001600160e01b0316815260200161548561544a611bc6565b6040518060400160405280601c81526020017f626c6f636b206e756d6265722065786365656473203332206269747300000000815250615b04565b63ffffffff9081169091526001600160a01b0385166000908152601060209081526040909120835181549490920151909216600160e01b026001600160e01b039182166001600160e01b031990941693909317169190911790555b6001600160a01b0383166000908152601160205260409020546001600160e01b031615801561553257506001600160a01b038316600090815260116020526040902054600160e01b900463ffffffff16155b156155c65760405180604001604052806ec097ce7bc90715b34b9f10000000006001600160e01b0316815260200161556b61544a611bc6565b63ffffffff9081169091526001600160a01b0385166000908152601160209081526040909120835181549490920151909216600160e01b026001600160e01b039182166001600160e01b031990941693909317169190911790555b818114612131576001600160a01b0383166000818152600f6020908152604091829020859055815185815291517f2a0ce45ba05a83e75ba21e1a10d6b48a8395028cc6e1ae66f6c313648379d5489281900390910190a2505050565b60007f45b96fe442630264581b197e84bbada861235052c5a1aadfff9ea4e40a969aa083601281111561565157fe5b83601781111561565d57fe5b604080519283526020830191909152600082820152519081900360600190a1826012811115611b3057fe5b60005b600d5481101561571357816001600160a01b0316600d82815481106156ac57fe5b6000918252602090912001546001600160a01b0316141561570b576040805162461bcd60e51b81526020600482015260146024820152731b585c9ad95d08185b1c9958591e48185919195960621b604482015290519081900360640190fd5b60010161568b565b50600d80546001810182556000919091527fd7b6990105719101dabeb77144f2a3385c8033acd3af97e9423a695e81ad1eb50180546001600160a01b0319166001600160a01b0392909216919091179055565b6001600160a01b038316600090815260096020526040812061578790614234565b6001600160a01b038085166000908152600960209081526040808320938716835260029093019052205460ff166157bf5760006136dc565b6000806157cf85878660006149c8565b919350909150600090508260128111156157e557fe5b146157ff578160128111156157f657fe5b92505050611b30565b80156133b75760046157f6565b60006158198360076141e5565b6001600160a01b038316600090815260096020526040902061583a81614234565b6001600160a01b038316600090815260028201602052604090205460ff1615615867576000915050612a6f565b6001600160a01b0380841660008181526002840160209081526040808320805460ff19166001908117909155600883528184208054918201815584529282902090920180549489166001600160a01b031990951685179055815193845283019190915280517f3ab23ab0d51cccc0c3085aec51f99228625aa1a922b3a8ca89a26b0f2027a1a59281900390910190a15060009392505050565b6000611b308383604051806040016040528060158152602001747375627472616374696f6e20756e646572666c6f7760581b815250615c32565b6000611b3083836040518060400160405280601781526020017f6d756c7469706c69636174696f6e206f766572666c6f77000000000000000000815250615c8c565b5190511090565b60007f45b96fe442630264581b197e84bbada861235052c5a1aadfff9ea4e40a969aa08460128111156159b257fe5b8460178111156159be57fe5b604080519283526020830191909152818101859052519081900360600190a183601281111561197a57fe5b6000611b30615a0084670de0b6b3a764000061593a565b8351615d02565b615a0f615d92565b6040518060200160405280615a3c615a36866ec097ce7bc90715b34b9f100000000061593a565b85615d02565b90529392505050565b615a4d615d92565b6040518060200160405280615a3c85600001518560000151614a87565b600081600160e01b8410615afc5760405162461bcd60e51b81526004018080602001828103825283818151815260200191508051906020019080838360005b83811015615ac1578181015183820152602001615aa9565b50505050905090810190601f168015615aee5780820380516001836020036101000a031916815260200191505b509250505060405180910390fd5b509192915050565b600081600160201b8410615afc5760405162461bcd60e51b8152602060048201818152835160248401528351909283926044909101919085019080838360008315615ac1578181015183820152602001615aa9565b615b61615d92565b6040518060200160405280615a3c85600001518560000151615900565b60006ec097ce7bc90715b34b9f1000000000615b9e84846000015161593a565b81615ba557fe5b049392505050565b600083830182858210156131715760405162461bcd60e51b8152602060048201818152835160248401528351909283926044909101919085019080838360008315615ac1578181015183820152602001615aa9565b615c0a615d92565b6040518060200160405280615a3c85600001518561593a565b51670de0b6b3a7640000900490565b60008184841115615c845760405162461bcd60e51b8152602060048201818152835160248401528351909283926044909101919085019080838360008315615ac1578181015183820152602001615aa9565b505050900390565b6000831580615c99575082155b15615ca657506000611b30565b83830283858281615cb357fe5b041483906131715760405162461bcd60e51b8152602060048201818152835160248401528351909283926044909101919085019080838360008315615ac1578181015183820152602001615aa9565b6000611b3083836040518060400160405280600e81526020016d646976696465206279207a65726f60901b81525060008183615d7f5760405162461bcd60e51b8152602060048201818152835160248401528351909283926044909101919085019080838360008315615ac1578181015183820152602001615aa9565b50828481615d8957fe5b04949350505050565b6040518060200160405280600081525090565b81548183558181111561213157600083815260209020612131918101908301615de0565b604080518082019091526000808252602082015290565b611bc891905b80821115615dfa5760008155600101615de6565b509056fe63616e6e6f742070617573652061206d61726b65742074686174206973206e6f74206c69737465645f7365744c69717569646174696f6e496e63656e746976652875696e74323536295f7365744d61726b6574537570706c794361707328616464726573735b5d2c75696e743235365b5d295f7365744d61726b6574426f72726f774361707328616464726573735b5d2c75696e743235365b5d296d696e7420626568616c66206572726f7220647572696e6720636f6c6c61746572616c697a65207876735f736574416374696f6e7350617573656428616464726573735b5d2c75696e743235365b5d2c626f6f6c2962616e6b72757074206163636f756e74732063616e206f6e6c7920636f6c6c61746572616c697a652074686569722070656e64696e672078767320726577617264735f736574436f6c6c61746572616c466163746f7228616464726573732c75696e7432353629a265627a7a72315820957012fc34ff82e4cdbabd75f02e274af43ac947d1bd21340a5af83c4a6def8164736f6c63430005100032",
  "linkReferences": {},
  "deployedLinkReferences": {}
}