{
  "_format": "hh-sol-artifact-1",
  "contractName": "ComptrollerScenarioG3",
  "sourceName": "contracts/test/ComptrollerScenarioG3.sol",
  "abi": [
    {
      "inputs": [],
      "payable": false,
      "stateMutability": "nonpayable",
      "type": "constructor"
    },
    {
      "anonymous": false,
      "inputs": [
        {
          "indexed": false,
          "internalType": "string",
          "name": "action",
          "type": "string"
        },
        {
          "indexed": false,
          "internalType": "bool",
          "name": "pauseState",
          "type": "bool"
        }
      ],
      "name": "ActionPaused",
      "type": "event"
    },
    {
      "anonymous": false,
      "inputs": [
        {
          "indexed": false,
          "internalType": "contract VToken",
          "name": "vToken",
          "type": "address"
        },
        {
          "indexed": false,
          "internalType": "string",
          "name": "action",
          "type": "string"
        },
        {
          "indexed": false,
          "internalType": "bool",
          "name": "pauseState",
          "type": "bool"
        }
      ],
      "name": "ActionPaused",
      "type": "event"
    },
    {
      "anonymous": false,
      "inputs": [
        {
          "indexed": false,
          "internalType": "bool",
          "name": "state",
          "type": "bool"
        }
      ],
      "name": "ActionProtocolPaused",
      "type": "event"
    },
    {
      "anonymous": false,
      "inputs": [
        {
          "indexed": true,
          "internalType": "contract VToken",
          "name": "vToken",
          "type": "address"
        },
        {
          "indexed": true,
          "internalType": "address",
          "name": "borrower",
          "type": "address"
        },
        {
          "indexed": false,
          "internalType": "uint256",
          "name": "venusDelta",
          "type": "uint256"
        },
        {
          "indexed": false,
          "internalType": "uint256",
          "name": "venusBorrowIndex",
          "type": "uint256"
        }
      ],
      "name": "DistributedBorrowerVenus",
      "type": "event"
    },
    {
      "anonymous": false,
      "inputs": [
        {
          "indexed": true,
          "internalType": "contract VToken",
          "name": "vToken",
          "type": "address"
        },
        {
          "indexed": true,
          "internalType": "address",
          "name": "supplier",
          "type": "address"
        },
        {
          "indexed": false,
          "internalType": "uint256",
          "name": "venusDelta",
          "type": "uint256"
        },
        {
          "indexed": false,
          "internalType": "uint256",
          "name": "venusSupplyIndex",
          "type": "uint256"
        }
      ],
      "name": "DistributedSupplierVenus",
      "type": "event"
    },
    {
      "anonymous": false,
      "inputs": [
        {
          "indexed": true,
          "internalType": "address",
          "name": "vaiMinter",
          "type": "address"
        },
        {
          "indexed": false,
          "internalType": "uint256",
          "name": "venusDelta",
          "type": "uint256"
        },
        {
          "indexed": false,
          "internalType": "uint256",
          "name": "venusVAIMintIndex",
          "type": "uint256"
        }
      ],
      "name": "DistributedVAIMinterVenus",
      "type": "event"
    },
    {
      "anonymous": false,
      "inputs": [
        {
          "indexed": false,
          "internalType": "uint256",
          "name": "amount",
          "type": "uint256"
        }
      ],
      "name": "DistributedVAIVaultVenus",
      "type": "event"
    },
    {
      "anonymous": false,
      "inputs": [
        {
          "indexed": false,
          "internalType": "uint256",
          "name": "error",
          "type": "uint256"
        },
        {
          "indexed": false,
          "internalType": "uint256",
          "name": "info",
          "type": "uint256"
        },
        {
          "indexed": false,
          "internalType": "uint256",
          "name": "detail",
          "type": "uint256"
        }
      ],
      "name": "Failure",
      "type": "event"
    },
    {
      "anonymous": false,
      "inputs": [
        {
          "indexed": false,
          "internalType": "contract VToken",
          "name": "vToken",
          "type": "address"
        },
        {
          "indexed": false,
          "internalType": "address",
          "name": "account",
          "type": "address"
        }
      ],
      "name": "MarketEntered",
      "type": "event"
    },
    {
      "anonymous": false,
      "inputs": [
        {
          "indexed": false,
          "internalType": "contract VToken",
          "name": "vToken",
          "type": "address"
        },
        {
          "indexed": false,
          "internalType": "address",
          "name": "account",
          "type": "address"
        }
      ],
      "name": "MarketExited",
      "type": "event"
    },
    {
      "anonymous": false,
      "inputs": [
        {
          "indexed": false,
          "internalType": "contract VToken",
          "name": "vToken",
          "type": "address"
        }
      ],
      "name": "MarketListed",
      "type": "event"
    },
    {
      "anonymous": false,
      "inputs": [
        {
          "indexed": true,
          "internalType": "contract VToken",
          "name": "vToken",
          "type": "address"
        },
        {
          "indexed": false,
          "internalType": "uint256",
          "name": "newBorrowCap",
          "type": "uint256"
        }
      ],
      "name": "NewBorrowCap",
      "type": "event"
    },
    {
      "anonymous": false,
      "inputs": [
        {
          "indexed": false,
          "internalType": "address",
          "name": "oldBorrowCapGuardian",
          "type": "address"
        },
        {
          "indexed": false,
          "internalType": "address",
          "name": "newBorrowCapGuardian",
          "type": "address"
        }
      ],
      "name": "NewBorrowCapGuardian",
      "type": "event"
    },
    {
      "anonymous": false,
      "inputs": [
        {
          "indexed": false,
          "internalType": "uint256",
          "name": "oldCloseFactorMantissa",
          "type": "uint256"
        },
        {
          "indexed": false,
          "internalType": "uint256",
          "name": "newCloseFactorMantissa",
          "type": "uint256"
        }
      ],
      "name": "NewCloseFactor",
      "type": "event"
    },
    {
      "anonymous": false,
      "inputs": [
        {
          "indexed": false,
          "internalType": "contract VToken",
          "name": "vToken",
          "type": "address"
        },
        {
          "indexed": false,
          "internalType": "uint256",
          "name": "oldCollateralFactorMantissa",
          "type": "uint256"
        },
        {
          "indexed": false,
          "internalType": "uint256",
          "name": "newCollateralFactorMantissa",
          "type": "uint256"
        }
      ],
      "name": "NewCollateralFactor",
      "type": "event"
    },
    {
      "anonymous": false,
      "inputs": [
        {
          "indexed": false,
          "internalType": "uint256",
          "name": "oldLiquidationIncentiveMantissa",
          "type": "uint256"
        },
        {
          "indexed": false,
          "internalType": "uint256",
          "name": "newLiquidationIncentiveMantissa",
          "type": "uint256"
        }
      ],
      "name": "NewLiquidationIncentive",
      "type": "event"
    },
    {
      "anonymous": false,
      "inputs": [
        {
          "indexed": false,
          "internalType": "uint256",
          "name": "oldMaxAssets",
          "type": "uint256"
        },
        {
          "indexed": false,
          "internalType": "uint256",
          "name": "newMaxAssets",
          "type": "uint256"
        }
      ],
      "name": "NewMaxAssets",
      "type": "event"
    },
    {
      "anonymous": false,
      "inputs": [
        {
          "indexed": false,
          "internalType": "address",
          "name": "oldPauseGuardian",
          "type": "address"
        },
        {
          "indexed": false,
          "internalType": "address",
          "name": "newPauseGuardian",
          "type": "address"
        }
      ],
      "name": "NewPauseGuardian",
      "type": "event"
    },
    {
      "anonymous": false,
      "inputs": [
        {
          "indexed": false,
          "internalType": "contract PriceOracle",
          "name": "oldPriceOracle",
          "type": "address"
        },
        {
          "indexed": false,
          "internalType": "contract PriceOracle",
          "name": "newPriceOracle",
          "type": "address"
        }
      ],
      "name": "NewPriceOracle",
      "type": "event"
    },
    {
      "anonymous": false,
      "inputs": [
        {
          "indexed": false,
          "internalType": "contract VAIControllerInterface",
          "name": "oldVAIController",
          "type": "address"
        },
        {
          "indexed": false,
          "internalType": "contract VAIControllerInterface",
          "name": "newVAIController",
          "type": "address"
        }
      ],
      "name": "NewVAIController",
      "type": "event"
    },
    {
      "anonymous": false,
      "inputs": [
        {
          "indexed": false,
          "internalType": "uint256",
          "name": "oldVAIMintRate",
          "type": "uint256"
        },
        {
          "indexed": false,
          "internalType": "uint256",
          "name": "newVAIMintRate",
          "type": "uint256"
        }
      ],
      "name": "NewVAIMintRate",
      "type": "event"
    },
    {
      "anonymous": false,
      "inputs": [
        {
          "indexed": false,
          "internalType": "address",
          "name": "vault_",
          "type": "address"
        },
        {
          "indexed": false,
          "internalType": "uint256",
          "name": "releaseStartBlock_",
          "type": "uint256"
        },
        {
          "indexed": false,
          "internalType": "uint256",
          "name": "releaseInterval_",
          "type": "uint256"
        }
      ],
      "name": "NewVAIVaultInfo",
      "type": "event"
    },
    {
      "anonymous": false,
      "inputs": [
        {
          "indexed": false,
          "internalType": "uint256",
          "name": "oldVenusVAIVaultRate",
          "type": "uint256"
        },
        {
          "indexed": false,
          "internalType": "uint256",
          "name": "newVenusVAIVaultRate",
          "type": "uint256"
        }
      ],
      "name": "NewVenusVAIVaultRate",
      "type": "event"
    },
    {
      "anonymous": false,
      "inputs": [
        {
          "indexed": true,
          "internalType": "contract VToken",
          "name": "vToken",
          "type": "address"
        },
        {
          "indexed": false,
          "internalType": "uint256",
          "name": "newSpeed",
          "type": "uint256"
        }
      ],
      "name": "VenusSpeedUpdated",
      "type": "event"
    },
    {
      "constant": false,
      "inputs": [
        {
          "internalType": "contract Unitroller",
          "name": "unitroller",
          "type": "address"
        }
      ],
      "name": "_become",
      "outputs": [],
      "payable": false,
      "stateMutability": "nonpayable",
      "type": "function"
    },
    {
      "constant": false,
      "inputs": [
        {
          "internalType": "address",
          "name": "newBorrowCapGuardian",
          "type": "address"
        }
      ],
      "name": "_setBorrowCapGuardian",
      "outputs": [],
      "payable": false,
      "stateMutability": "nonpayable",
      "type": "function"
    },
    {
      "constant": false,
      "inputs": [
        {
          "internalType": "uint256",
          "name": "newCloseFactorMantissa",
          "type": "uint256"
        }
      ],
      "name": "_setCloseFactor",
      "outputs": [
        {
          "internalType": "uint256",
          "name": "",
          "type": "uint256"
        }
      ],
      "payable": false,
      "stateMutability": "nonpayable",
      "type": "function"
    },
    {
      "constant": false,
      "inputs": [
        {
          "internalType": "contract VToken",
          "name": "vToken",
          "type": "address"
        },
        {
          "internalType": "uint256",
          "name": "newCollateralFactorMantissa",
          "type": "uint256"
        }
      ],
      "name": "_setCollateralFactor",
      "outputs": [
        {
          "internalType": "uint256",
          "name": "",
          "type": "uint256"
        }
      ],
      "payable": false,
      "stateMutability": "nonpayable",
      "type": "function"
    },
    {
      "constant": false,
      "inputs": [
        {
          "internalType": "uint256",
          "name": "newLiquidationIncentiveMantissa",
          "type": "uint256"
        }
      ],
      "name": "_setLiquidationIncentive",
      "outputs": [
        {
          "internalType": "uint256",
          "name": "",
          "type": "uint256"
        }
      ],
      "payable": false,
      "stateMutability": "nonpayable",
      "type": "function"
    },
    {
      "constant": false,
      "inputs": [
        {
          "internalType": "contract VToken[]",
          "name": "vTokens",
          "type": "address[]"
        },
        {
          "internalType": "uint256[]",
          "name": "newBorrowCaps",
          "type": "uint256[]"
        }
      ],
      "name": "_setMarketBorrowCaps",
      "outputs": [],
      "payable": false,
      "stateMutability": "nonpayable",
      "type": "function"
    },
    {
      "constant": false,
      "inputs": [
        {
          "internalType": "uint256",
          "name": "newMaxAssets",
          "type": "uint256"
        }
      ],
      "name": "_setMaxAssets",
      "outputs": [
        {
          "internalType": "uint256",
          "name": "",
          "type": "uint256"
        }
      ],
      "payable": false,
      "stateMutability": "nonpayable",
      "type": "function"
    },
    {
      "constant": false,
      "inputs": [
        {
          "internalType": "contract PriceOracle",
          "name": "newOracle",
          "type": "address"
        }
      ],
      "name": "_setPriceOracle",
      "outputs": [
        {
          "internalType": "uint256",
          "name": "",
          "type": "uint256"
        }
      ],
      "payable": false,
      "stateMutability": "nonpayable",
      "type": "function"
    },
    {
      "constant": false,
      "inputs": [
        {
          "internalType": "bool",
          "name": "state",
          "type": "bool"
        }
      ],
      "name": "_setProtocolPaused",
      "outputs": [
        {
          "internalType": "bool",
          "name": "",
          "type": "bool"
        }
      ],
      "payable": false,
      "stateMutability": "nonpayable",
      "type": "function"
    },
    {
      "constant": false,
      "inputs": [
        {
          "internalType": "contract VAIControllerInterface",
          "name": "vaiController_",
          "type": "address"
        }
      ],
      "name": "_setVAIController",
      "outputs": [
        {
          "internalType": "uint256",
          "name": "",
          "type": "uint256"
        }
      ],
      "payable": false,
      "stateMutability": "nonpayable",
      "type": "function"
    },
    {
      "constant": false,
      "inputs": [
        {
          "internalType": "uint256",
          "name": "newVAIMintRate",
          "type": "uint256"
        }
      ],
      "name": "_setVAIMintRate",
      "outputs": [
        {
          "internalType": "uint256",
          "name": "",
          "type": "uint256"
        }
      ],
      "payable": false,
      "stateMutability": "nonpayable",
      "type": "function"
    },
    {
      "constant": false,
      "inputs": [
        {
          "internalType": "address",
          "name": "vault_",
          "type": "address"
        },
        {
          "internalType": "uint256",
          "name": "releaseStartBlock_",
          "type": "uint256"
        },
        {
          "internalType": "uint256",
          "name": "minReleaseAmount_",
          "type": "uint256"
        }
      ],
      "name": "_setVAIVaultInfo",
      "outputs": [],
      "payable": false,
      "stateMutability": "nonpayable",
      "type": "function"
    },
    {
      "constant": false,
      "inputs": [
        {
          "internalType": "contract VToken",
          "name": "vToken",
          "type": "address"
        },
        {
          "internalType": "uint256",
          "name": "venusSpeed",
          "type": "uint256"
        }
      ],
      "name": "_setVenusSpeed",
      "outputs": [],
      "payable": false,
      "stateMutability": "nonpayable",
      "type": "function"
    },
    {
      "constant": false,
      "inputs": [
        {
          "internalType": "uint256",
          "name": "venusVAIVaultRate_",
          "type": "uint256"
        }
      ],
      "name": "_setVenusVAIVaultRate",
      "outputs": [],
      "payable": false,
      "stateMutability": "nonpayable",
      "type": "function"
    },
    {
      "constant": false,
      "inputs": [
        {
          "internalType": "contract VToken",
          "name": "vToken",
          "type": "address"
        }
      ],
      "name": "_supportMarket",
      "outputs": [
        {
          "internalType": "uint256",
          "name": "",
          "type": "uint256"
        }
      ],
      "payable": false,
      "stateMutability": "nonpayable",
      "type": "function"
    },
    {
      "constant": true,
      "inputs": [
        {
          "internalType": "address",
          "name": "",
          "type": "address"
        },
        {
          "internalType": "uint256",
          "name": "",
          "type": "uint256"
        }
      ],
      "name": "accountAssets",
      "outputs": [
        {
          "internalType": "contract VToken",
          "name": "",
          "type": "address"
        }
      ],
      "payable": false,
      "stateMutability": "view",
      "type": "function"
    },
    {
      "constant": true,
      "inputs": [],
      "name": "admin",
      "outputs": [
        {
          "internalType": "address",
          "name": "",
          "type": "address"
        }
      ],
      "payable": false,
      "stateMutability": "view",
      "type": "function"
    },
    {
      "constant": true,
      "inputs": [
        {
          "internalType": "uint256",
          "name": "",
          "type": "uint256"
        }
      ],
      "name": "allMarkets",
      "outputs": [
        {
          "internalType": "contract VToken",
          "name": "",
          "type": "address"
        }
      ],
      "payable": false,
      "stateMutability": "view",
      "type": "function"
    },
    {
      "constant": true,
      "inputs": [],
      "name": "blockNumber",
      "outputs": [
        {
          "internalType": "uint256",
          "name": "",
          "type": "uint256"
        }
      ],
      "payable": false,
      "stateMutability": "view",
      "type": "function"
    },
    {
      "constant": false,
      "inputs": [
        {
          "internalType": "address",
          "name": "vToken",
          "type": "address"
        },
        {
          "internalType": "address",
          "name": "borrower",
          "type": "address"
        },
        {
          "internalType": "uint256",
          "name": "borrowAmount",
          "type": "uint256"
        }
      ],
      "name": "borrowAllowed",
      "outputs": [
        {
          "internalType": "uint256",
          "name": "",
          "type": "uint256"
        }
      ],
      "payable": false,
      "stateMutability": "nonpayable",
      "type": "function"
    },
    {
      "constant": true,
      "inputs": [],
      "name": "borrowCapGuardian",
      "outputs": [
        {
          "internalType": "address",
          "name": "",
          "type": "address"
        }
      ],
      "payable": false,
      "stateMutability": "view",
      "type": "function"
    },
    {
      "constant": true,
      "inputs": [
        {
          "internalType": "address",
          "name": "",
          "type": "address"
        }
      ],
      "name": "borrowCaps",
      "outputs": [
        {
          "internalType": "uint256",
          "name": "",
          "type": "uint256"
        }
      ],
      "payable": false,
      "stateMutability": "view",
      "type": "function"
    },
    {
      "constant": false,
      "inputs": [
        {
          "internalType": "address",
          "name": "vToken",
          "type": "address"
        },
        {
          "internalType": "address",
          "name": "borrower",
          "type": "address"
        },
        {
          "internalType": "uint256",
          "name": "borrowAmount",
          "type": "uint256"
        }
      ],
      "name": "borrowVerify",
      "outputs": [],
      "payable": false,
      "stateMutability": "nonpayable",
      "type": "function"
    },
    {
      "constant": true,
      "inputs": [
        {
          "internalType": "address",
          "name": "account",
          "type": "address"
        },
        {
          "internalType": "contract VToken",
          "name": "vToken",
          "type": "address"
        }
      ],
      "name": "checkMembership",
      "outputs": [
        {
          "internalType": "bool",
          "name": "",
          "type": "bool"
        }
      ],
      "payable": false,
      "stateMutability": "view",
      "type": "function"
    },
    {
      "constant": false,
      "inputs": [
        {
          "internalType": "address",
          "name": "holder",
          "type": "address"
        },
        {
          "internalType": "contract VToken[]",
          "name": "vTokens",
          "type": "address[]"
        }
      ],
      "name": "claimVenus",
      "outputs": [],
      "payable": false,
      "stateMutability": "nonpayable",
      "type": "function"
    },
    {
      "constant": false,
      "inputs": [
        {
          "internalType": "address",
          "name": "holder",
          "type": "address"
        }
      ],
      "name": "claimVenus",
      "outputs": [],
      "payable": false,
      "stateMutability": "nonpayable",
      "type": "function"
    },
    {
      "constant": false,
      "inputs": [
        {
          "internalType": "address[]",
          "name": "holders",
          "type": "address[]"
        },
        {
          "internalType": "contract VToken[]",
          "name": "vTokens",
          "type": "address[]"
        },
        {
          "internalType": "bool",
          "name": "borrowers",
          "type": "bool"
        },
        {
          "internalType": "bool",
          "name": "suppliers",
          "type": "bool"
        }
      ],
      "name": "claimVenus",
      "outputs": [],
      "payable": false,
      "stateMutability": "nonpayable",
      "type": "function"
    },
    {
      "constant": true,
      "inputs": [],
      "name": "closeFactorMantissa",
      "outputs": [
        {
          "internalType": "uint256",
          "name": "",
          "type": "uint256"
        }
      ],
      "payable": false,
      "stateMutability": "view",
      "type": "function"
    },
    {
      "constant": true,
      "inputs": [],
      "name": "comptrollerImplementation",
      "outputs": [
        {
          "internalType": "address",
          "name": "",
          "type": "address"
        }
      ],
      "payable": false,
      "stateMutability": "view",
      "type": "function"
    },
    {
      "constant": false,
      "inputs": [
        {
          "internalType": "address",
          "name": "vaiMinter",
          "type": "address"
        },
        {
          "internalType": "bool",
          "name": "distributeAll",
          "type": "bool"
        }
      ],
      "name": "distributeVAIMinterVenus",
      "outputs": [],
      "payable": false,
      "stateMutability": "nonpayable",
      "type": "function"
    },
    {
      "constant": false,
      "inputs": [
        {
          "internalType": "address[]",
          "name": "vTokens",
          "type": "address[]"
        }
      ],
      "name": "enterMarkets",
      "outputs": [
        {
          "internalType": "uint256[]",
          "name": "",
          "type": "uint256[]"
        }
      ],
      "payable": false,
      "stateMutability": "nonpayable",
      "type": "function"
    },
    {
      "constant": false,
      "inputs": [
        {
          "internalType": "address",
          "name": "vTokenAddress",
          "type": "address"
        }
      ],
      "name": "exitMarket",
      "outputs": [
        {
          "internalType": "uint256",
          "name": "",
          "type": "uint256"
        }
      ],
      "payable": false,
      "stateMutability": "nonpayable",
      "type": "function"
    },
    {
      "constant": false,
      "inputs": [
        {
          "internalType": "uint256",
          "name": "blocks",
          "type": "uint256"
        }
      ],
      "name": "fastForward",
      "outputs": [
        {
          "internalType": "uint256",
          "name": "",
          "type": "uint256"
        }
      ],
      "payable": false,
      "stateMutability": "nonpayable",
      "type": "function"
    },
    {
      "constant": true,
      "inputs": [
        {
          "internalType": "address",
          "name": "account",
          "type": "address"
        }
      ],
      "name": "getAccountLiquidity",
      "outputs": [
        {
          "internalType": "uint256",
          "name": "",
          "type": "uint256"
        },
        {
          "internalType": "uint256",
          "name": "",
          "type": "uint256"
        },
        {
          "internalType": "uint256",
          "name": "",
          "type": "uint256"
        }
      ],
      "payable": false,
      "stateMutability": "view",
      "type": "function"
    },
    {
      "constant": true,
      "inputs": [],
      "name": "getAllMarkets",
      "outputs": [
        {
          "internalType": "contract VToken[]",
          "name": "",
          "type": "address[]"
        }
      ],
      "payable": false,
      "stateMutability": "view",
      "type": "function"
    },
    {
      "constant": true,
      "inputs": [
        {
          "internalType": "address",
          "name": "account",
          "type": "address"
        }
      ],
      "name": "getAssetsIn",
      "outputs": [
        {
          "internalType": "contract VToken[]",
          "name": "",
          "type": "address[]"
        }
      ],
      "payable": false,
      "stateMutability": "view",
      "type": "function"
    },
    {
      "constant": true,
      "inputs": [],
      "name": "getBlockNumber",
      "outputs": [
        {
          "internalType": "uint256",
          "name": "",
          "type": "uint256"
        }
      ],
      "payable": false,
      "stateMutability": "view",
      "type": "function"
    },
    {
      "constant": true,
      "inputs": [
        {
          "internalType": "address",
          "name": "account",
          "type": "address"
        },
        {
          "internalType": "address",
          "name": "vTokenModify",
          "type": "address"
        },
        {
          "internalType": "uint256",
          "name": "redeemTokens",
          "type": "uint256"
        },
        {
          "internalType": "uint256",
          "name": "borrowAmount",
          "type": "uint256"
        }
      ],
      "name": "getHypotheticalAccountLiquidity",
      "outputs": [
        {
          "internalType": "uint256",
          "name": "",
          "type": "uint256"
        },
        {
          "internalType": "uint256",
          "name": "",
          "type": "uint256"
        },
        {
          "internalType": "uint256",
          "name": "",
          "type": "uint256"
        }
      ],
      "payable": false,
      "stateMutability": "view",
      "type": "function"
    },
    {
      "constant": true,
      "inputs": [],
      "name": "getXVSAddress",
      "outputs": [
        {
          "internalType": "address",
          "name": "",
          "type": "address"
        }
      ],
      "payable": false,
      "stateMutability": "view",
      "type": "function"
    },
    {
      "constant": true,
      "inputs": [],
      "name": "isComptroller",
      "outputs": [
        {
          "internalType": "bool",
          "name": "",
          "type": "bool"
        }
      ],
      "payable": false,
      "stateMutability": "view",
      "type": "function"
    },
    {
      "constant": false,
      "inputs": [
        {
          "internalType": "address",
          "name": "vTokenBorrowed",
          "type": "address"
        },
        {
          "internalType": "address",
          "name": "vTokenCollateral",
          "type": "address"
        },
        {
          "internalType": "address",
          "name": "liquidator",
          "type": "address"
        },
        {
          "internalType": "address",
          "name": "borrower",
          "type": "address"
        },
        {
          "internalType": "uint256",
          "name": "repayAmount",
          "type": "uint256"
        }
      ],
      "name": "liquidateBorrowAllowed",
      "outputs": [
        {
          "internalType": "uint256",
          "name": "",
          "type": "uint256"
        }
      ],
      "payable": false,
      "stateMutability": "nonpayable",
      "type": "function"
    },
    {
      "constant": false,
      "inputs": [
        {
          "internalType": "address",
          "name": "vTokenBorrowed",
          "type": "address"
        },
        {
          "internalType": "address",
          "name": "vTokenCollateral",
          "type": "address"
        },
        {
          "internalType": "address",
          "name": "liquidator",
          "type": "address"
        },
        {
          "internalType": "address",
          "name": "borrower",
          "type": "address"
        },
        {
          "internalType": "uint256",
          "name": "actualRepayAmount",
          "type": "uint256"
        },
        {
          "internalType": "uint256",
          "name": "seizeTokens",
          "type": "uint256"
        }
      ],
      "name": "liquidateBorrowVerify",
      "outputs": [],
      "payable": false,
      "stateMutability": "nonpayable",
      "type": "function"
    },
    {
      "constant": true,
      "inputs": [
        {
          "internalType": "address",
          "name": "vTokenBorrowed",
          "type": "address"
        },
        {
          "internalType": "address",
          "name": "vTokenCollateral",
          "type": "address"
        },
        {
          "internalType": "uint256",
          "name": "actualRepayAmount",
          "type": "uint256"
        }
      ],
      "name": "liquidateCalculateSeizeTokens",
      "outputs": [
        {
          "internalType": "uint256",
          "name": "",
          "type": "uint256"
        },
        {
          "internalType": "uint256",
          "name": "",
          "type": "uint256"
        }
      ],
      "payable": false,
      "stateMutability": "view",
      "type": "function"
    },
    {
      "constant": true,
      "inputs": [],
      "name": "liquidationIncentiveMantissa",
      "outputs": [
        {
          "internalType": "uint256",
          "name": "",
          "type": "uint256"
        }
      ],
      "payable": false,
      "stateMutability": "view",
      "type": "function"
    },
    {
      "constant": true,
      "inputs": [
        {
          "internalType": "address",
          "name": "",
          "type": "address"
        }
      ],
      "name": "markets",
      "outputs": [
        {
          "internalType": "bool",
          "name": "isListed",
          "type": "bool"
        },
        {
          "internalType": "uint256",
          "name": "collateralFactorMantissa",
          "type": "uint256"
        },
        {
          "internalType": "bool",
          "name": "isVenus",
          "type": "bool"
        }
      ],
      "payable": false,
      "stateMutability": "view",
      "type": "function"
    },
    {
      "constant": true,
      "inputs": [],
      "name": "maxAssets",
      "outputs": [
        {
          "internalType": "uint256",
          "name": "",
          "type": "uint256"
        }
      ],
      "payable": false,
      "stateMutability": "view",
      "type": "function"
    },
    {
      "constant": true,
      "inputs": [
        {
          "internalType": "contract VToken",
          "name": "vToken",
          "type": "address"
        }
      ],
      "name": "membershipLength",
      "outputs": [
        {
          "internalType": "uint256",
          "name": "",
          "type": "uint256"
        }
      ],
      "payable": false,
      "stateMutability": "view",
      "type": "function"
    },
    {
      "constant": true,
      "inputs": [],
      "name": "minReleaseAmount",
      "outputs": [
        {
          "internalType": "uint256",
          "name": "",
          "type": "uint256"
        }
      ],
      "payable": false,
      "stateMutability": "view",
      "type": "function"
    },
    {
      "constant": false,
      "inputs": [
        {
          "internalType": "address",
          "name": "vToken",
          "type": "address"
        },
        {
          "internalType": "address",
          "name": "minter",
          "type": "address"
        },
        {
          "internalType": "uint256",
          "name": "mintAmount",
          "type": "uint256"
        }
      ],
      "name": "mintAllowed",
      "outputs": [
        {
          "internalType": "uint256",
          "name": "",
          "type": "uint256"
        }
      ],
      "payable": false,
      "stateMutability": "nonpayable",
      "type": "function"
    },
    {
      "constant": true,
      "inputs": [],
      "name": "mintVAIGuardianPaused",
      "outputs": [
        {
          "internalType": "bool",
          "name": "",
          "type": "bool"
        }
      ],
      "payable": false,
      "stateMutability": "view",
      "type": "function"
    },
    {
      "constant": false,
      "inputs": [
        {
          "internalType": "address",
          "name": "vToken",
          "type": "address"
        },
        {
          "internalType": "address",
          "name": "minter",
          "type": "address"
        },
        {
          "internalType": "uint256",
          "name": "actualMintAmount",
          "type": "uint256"
        },
        {
          "internalType": "uint256",
          "name": "mintTokens",
          "type": "uint256"
        }
      ],
      "name": "mintVerify",
      "outputs": [],
      "payable": false,
      "stateMutability": "nonpayable",
      "type": "function"
    },
    {
      "constant": true,
      "inputs": [
        {
          "internalType": "address",
          "name": "",
          "type": "address"
        }
      ],
      "name": "mintedVAIs",
      "outputs": [
        {
          "internalType": "uint256",
          "name": "",
          "type": "uint256"
        }
      ],
      "payable": false,
      "stateMutability": "view",
      "type": "function"
    },
    {
      "constant": true,
      "inputs": [],
      "name": "oracle",
      "outputs": [
        {
          "internalType": "contract PriceOracle",
          "name": "",
          "type": "address"
        }
      ],
      "payable": false,
      "stateMutability": "view",
      "type": "function"
    },
    {
      "constant": true,
      "inputs": [],
      "name": "pauseGuardian",
      "outputs": [
        {
          "internalType": "address",
          "name": "",
          "type": "address"
        }
      ],
      "payable": false,
      "stateMutability": "view",
      "type": "function"
    },
    {
      "constant": true,
      "inputs": [],
      "name": "pendingAdmin",
      "outputs": [
        {
          "internalType": "address",
          "name": "",
          "type": "address"
        }
      ],
      "payable": false,
      "stateMutability": "view",
      "type": "function"
    },
    {
      "constant": true,
      "inputs": [],
      "name": "pendingComptrollerImplementation",
      "outputs": [
        {
          "internalType": "address",
          "name": "",
          "type": "address"
        }
      ],
      "payable": false,
      "stateMutability": "view",
      "type": "function"
    },
    {
      "constant": true,
      "inputs": [],
      "name": "protocolPaused",
      "outputs": [
        {
          "internalType": "bool",
          "name": "",
          "type": "bool"
        }
      ],
      "payable": false,
      "stateMutability": "view",
      "type": "function"
    },
    {
      "constant": false,
      "inputs": [
        {
          "internalType": "address",
          "name": "vToken",
          "type": "address"
        },
        {
          "internalType": "address",
          "name": "redeemer",
          "type": "address"
        },
        {
          "internalType": "uint256",
          "name": "redeemTokens",
          "type": "uint256"
        }
      ],
      "name": "redeemAllowed",
      "outputs": [
        {
          "internalType": "uint256",
          "name": "",
          "type": "uint256"
        }
      ],
      "payable": false,
      "stateMutability": "nonpayable",
      "type": "function"
    },
    {
      "constant": false,
      "inputs": [
        {
          "internalType": "address",
          "name": "vToken",
          "type": "address"
        },
        {
          "internalType": "address",
          "name": "redeemer",
          "type": "address"
        },
        {
          "internalType": "uint256",
          "name": "redeemAmount",
          "type": "uint256"
        },
        {
          "internalType": "uint256",
          "name": "redeemTokens",
          "type": "uint256"
        }
      ],
      "name": "redeemVerify",
      "outputs": [],
      "payable": false,
      "stateMutability": "nonpayable",
      "type": "function"
    },
    {
      "constant": true,
      "inputs": [],
      "name": "releaseStartBlock",
      "outputs": [
        {
          "internalType": "uint256",
          "name": "",
          "type": "uint256"
        }
      ],
      "payable": false,
      "stateMutability": "view",
      "type": "function"
    },
    {
      "constant": false,
      "inputs": [],
      "name": "releaseToVault",
      "outputs": [],
      "payable": false,
      "stateMutability": "nonpayable",
      "type": "function"
    },
    {
      "constant": false,
      "inputs": [
        {
          "internalType": "address",
          "name": "vToken",
          "type": "address"
        },
        {
          "internalType": "address",
          "name": "payer",
          "type": "address"
        },
        {
          "internalType": "address",
          "name": "borrower",
          "type": "address"
        },
        {
          "internalType": "uint256",
          "name": "repayAmount",
          "type": "uint256"
        }
      ],
      "name": "repayBorrowAllowed",
      "outputs": [
        {
          "internalType": "uint256",
          "name": "",
          "type": "uint256"
        }
      ],
      "payable": false,
      "stateMutability": "nonpayable",
      "type": "function"
    },
    {
      "constant": false,
      "inputs": [
        {
          "internalType": "address",
          "name": "vToken",
          "type": "address"
        },
        {
          "internalType": "address",
          "name": "payer",
          "type": "address"
        },
        {
          "internalType": "address",
          "name": "borrower",
          "type": "address"
        },
        {
          "internalType": "uint256",
          "name": "actualRepayAmount",
          "type": "uint256"
        },
        {
          "internalType": "uint256",
          "name": "borrowerIndex",
          "type": "uint256"
        }
      ],
      "name": "repayBorrowVerify",
      "outputs": [],
      "payable": false,
      "stateMutability": "nonpayable",
      "type": "function"
    },
    {
      "constant": true,
      "inputs": [],
      "name": "repayVAIGuardianPaused",
      "outputs": [
        {
          "internalType": "bool",
          "name": "",
          "type": "bool"
        }
      ],
      "payable": false,
      "stateMutability": "view",
      "type": "function"
    },
    {
      "constant": false,
      "inputs": [
        {
          "internalType": "address",
          "name": "vTokenCollateral",
          "type": "address"
        },
        {
          "internalType": "address",
          "name": "vTokenBorrowed",
          "type": "address"
        },
        {
          "internalType": "address",
          "name": "liquidator",
          "type": "address"
        },
        {
          "internalType": "address",
          "name": "borrower",
          "type": "address"
        },
        {
          "internalType": "uint256",
          "name": "seizeTokens",
          "type": "uint256"
        }
      ],
      "name": "seizeAllowed",
      "outputs": [
        {
          "internalType": "uint256",
          "name": "",
          "type": "uint256"
        }
      ],
      "payable": false,
      "stateMutability": "nonpayable",
      "type": "function"
    },
    {
      "constant": false,
      "inputs": [
        {
          "internalType": "address",
          "name": "vTokenCollateral",
          "type": "address"
        },
        {
          "internalType": "address",
          "name": "vTokenBorrowed",
          "type": "address"
        },
        {
          "internalType": "address",
          "name": "liquidator",
          "type": "address"
        },
        {
          "internalType": "address",
          "name": "borrower",
          "type": "address"
        },
        {
          "internalType": "uint256",
          "name": "seizeTokens",
          "type": "uint256"
        }
      ],
      "name": "seizeVerify",
      "outputs": [],
      "payable": false,
      "stateMutability": "nonpayable",
      "type": "function"
    },
    {
      "constant": false,
      "inputs": [
        {
          "internalType": "uint256",
          "name": "number",
          "type": "uint256"
        }
      ],
      "name": "setBlockNumber",
      "outputs": [],
      "payable": false,
      "stateMutability": "nonpayable",
      "type": "function"
    },
    {
      "constant": false,
      "inputs": [
        {
          "internalType": "address",
          "name": "owner",
          "type": "address"
        },
        {
          "internalType": "uint256",
          "name": "amount",
          "type": "uint256"
        }
      ],
      "name": "setMintedVAIOf",
      "outputs": [
        {
          "internalType": "uint256",
          "name": "",
          "type": "uint256"
        }
      ],
      "payable": false,
      "stateMutability": "nonpayable",
      "type": "function"
    },
    {
      "constant": false,
      "inputs": [
        {
          "internalType": "address",
          "name": "vToken",
          "type": "address"
        },
        {
          "internalType": "uint256",
          "name": "venusSpeed",
          "type": "uint256"
        }
      ],
      "name": "setVenusSpeed",
      "outputs": [],
      "payable": false,
      "stateMutability": "nonpayable",
      "type": "function"
    },
    {
      "constant": false,
      "inputs": [
        {
          "internalType": "address",
          "name": "vToken",
          "type": "address"
        },
        {
          "internalType": "address",
          "name": "src",
          "type": "address"
        },
        {
          "internalType": "address",
          "name": "dst",
          "type": "address"
        },
        {
          "internalType": "uint256",
          "name": "transferTokens",
          "type": "uint256"
        }
      ],
      "name": "transferAllowed",
      "outputs": [
        {
          "internalType": "uint256",
          "name": "",
          "type": "uint256"
        }
      ],
      "payable": false,
      "stateMutability": "nonpayable",
      "type": "function"
    },
    {
      "constant": false,
      "inputs": [
        {
          "internalType": "address",
          "name": "vToken",
          "type": "address"
        },
        {
          "internalType": "address",
          "name": "src",
          "type": "address"
        },
        {
          "internalType": "address",
          "name": "dst",
          "type": "address"
        },
        {
          "internalType": "uint256",
          "name": "transferTokens",
          "type": "uint256"
        }
      ],
      "name": "transferVerify",
      "outputs": [],
      "payable": false,
      "stateMutability": "nonpayable",
      "type": "function"
    },
    {
      "constant": false,
      "inputs": [
        {
          "internalType": "contract VToken",
          "name": "vToken",
          "type": "address"
        }
      ],
      "name": "unlist",
      "outputs": [],
      "payable": false,
      "stateMutability": "nonpayable",
      "type": "function"
    },
    {
      "constant": true,
      "inputs": [],
      "name": "vaiController",
      "outputs": [
        {
          "internalType": "contract VAIControllerInterface",
          "name": "",
          "type": "address"
        }
      ],
      "payable": false,
      "stateMutability": "view",
      "type": "function"
    },
    {
      "constant": true,
      "inputs": [],
      "name": "vaiMintRate",
      "outputs": [
        {
          "internalType": "uint256",
          "name": "",
          "type": "uint256"
        }
      ],
      "payable": false,
      "stateMutability": "view",
      "type": "function"
    },
    {
      "constant": true,
      "inputs": [],
      "name": "vaiVaultAddress",
      "outputs": [
        {
          "internalType": "address",
          "name": "",
          "type": "address"
        }
      ],
      "payable": false,
      "stateMutability": "view",
      "type": "function"
    },
    {
      "constant": true,
      "inputs": [
        {
          "internalType": "address",
          "name": "",
          "type": "address"
        }
      ],
      "name": "venusAccrued",
      "outputs": [
        {
          "internalType": "uint256",
          "name": "",
          "type": "uint256"
        }
      ],
      "payable": false,
      "stateMutability": "view",
      "type": "function"
    },
    {
      "constant": true,
      "inputs": [
        {
          "internalType": "address",
          "name": "",
          "type": "address"
        }
      ],
      "name": "venusBorrowState",
      "outputs": [
        {
          "internalType": "uint224",
          "name": "index",
          "type": "uint224"
        },
        {
          "internalType": "uint32",
          "name": "block",
          "type": "uint32"
        }
      ],
      "payable": false,
      "stateMutability": "view",
      "type": "function"
    },
    {
      "constant": true,
      "inputs": [
        {
          "internalType": "address",
          "name": "",
          "type": "address"
        },
        {
          "internalType": "address",
          "name": "",
          "type": "address"
        }
      ],
      "name": "venusBorrowerIndex",
      "outputs": [
        {
          "internalType": "uint256",
          "name": "",
          "type": "uint256"
        }
      ],
      "payable": false,
      "stateMutability": "view",
      "type": "function"
    },
    {
      "constant": true,
      "inputs": [],
      "name": "venusInitialIndex",
      "outputs": [
        {
          "internalType": "uint224",
          "name": "",
          "type": "uint224"
        }
      ],
      "payable": false,
      "stateMutability": "view",
      "type": "function"
    },
    {
      "constant": true,
      "inputs": [],
      "name": "venusRate",
      "outputs": [
        {
          "internalType": "uint256",
          "name": "",
          "type": "uint256"
        }
      ],
      "payable": false,
      "stateMutability": "view",
      "type": "function"
    },
    {
      "constant": true,
      "inputs": [
        {
          "internalType": "address",
          "name": "",
          "type": "address"
        }
      ],
      "name": "venusSpeeds",
      "outputs": [
        {
          "internalType": "uint256",
          "name": "",
          "type": "uint256"
        }
      ],
      "payable": false,
      "stateMutability": "view",
      "type": "function"
    },
    {
      "constant": true,
      "inputs": [
        {
          "internalType": "address",
          "name": "",
          "type": "address"
        },
        {
          "internalType": "address",
          "name": "",
          "type": "address"
        }
      ],
      "name": "venusSupplierIndex",
      "outputs": [
        {
          "internalType": "uint256",
          "name": "",
          "type": "uint256"
        }
      ],
      "payable": false,
      "stateMutability": "view",
      "type": "function"
    },
    {
      "constant": true,
      "inputs": [
        {
          "internalType": "address",
          "name": "",
          "type": "address"
        }
      ],
      "name": "venusSupplyState",
      "outputs": [
        {
          "internalType": "uint224",
          "name": "index",
          "type": "uint224"
        },
        {
          "internalType": "uint32",
          "name": "block",
          "type": "uint32"
        }
      ],
      "payable": false,
      "stateMutability": "view",
      "type": "function"
    },
    {
      "constant": true,
      "inputs": [],
      "name": "venusVAIVaultRate",
      "outputs": [
        {
          "internalType": "uint256",
          "name": "",
          "type": "uint256"
        }
      ],
      "payable": false,
      "stateMutability": "view",
      "type": "function"
    }
  ],
  "bytecode": "0x608060405234801561001057600080fd5b50600080546001600160a01b03191633179055615e3b80620000336000396000f3fe608060405234801561001057600080fd5b50600436106104ab5760003560e01c8063765513831161026d578063bec04f7211610151578063dcfbc0c7116100ce578063eabe7d9111610092578063eabe7d911461125c578063ede4edd014611292578063f851a440146112b8578063fa6331d8146112c0578063fccbe7f6146112c8578063fd51a3ad146112e5576104ab565b8063dcfbc0c7146111f2578063ddfd287e146111fa578063e37d4b7914611202578063e4028eee14611228578063e875544614611254576104ab565b8063d02f735111610115578063d02f735114611001578063d09c54ba14611047578063d9226ced14611173578063da3d454c14611190578063dce15449146111c6576104ab565b8063bec04f7214610f10578063bf32442d14610f18578063c299823814610f20578063c488847b14610f8e578063c5b4db5514610fdd576104ab565b80639cfdd9e6116101ea578063adcd5fb9116101ae578063adcd5fb914610e2a578063b0772d0b14610e50578063b8324c7c14610e58578063bb82aa5e14610ea6578063bdcdc25814610eae578063bde3672d14610eea576104ab565b80639cfdd9e614610d1f578063a06a87f114610d45578063a76b3fda14610d71578063a8c3c85014610d97578063abfceffc14610db4576104ab565b80638a7dc165116102315780638a7dc16514610c735780638e8f294b14610c995780639254f5e514610ce1578063929fe9a114610ce957806394b2294b14610d17576104ab565b80637655138314610ba25780637d172bd514610baa5780637dc0d1d014610bb257806386df31ee14610bba578063879c2e1d14610c6b576104ab565b806342cbb15c1161039457806352d84d1e116103115780635fc7e71e116102d55780635fc7e71e146109f7578063607ef6c114610a3d5780636662c7c914610afb5780636a56947e14610b185780636d35bf9114610b54578063719f701b14610b9a576104ab565b806352d84d1e1461095057806355ee1fe11461096d57806357e871e7146109935780635c7786051461099b5780635ec88c79146109d1576104ab565b80634e0853db116103585780634e0853db146108355780634e79238f146108675780634ef4c3e1146108c15780634fd42e17146108f757806351dff98914610914576104ab565b806342cbb15c1461078d57806347ef3b3b146107955780634a584432146107e15780634ada90af146108075780634bca0d8c1461080f576104ab565b8063267822471161042d578063317b0b77116103f1578063317b0b77146106d0578063391957d7146106ed5780634088c73e1461071357806341a18d2c1461071b57806341c728b914610749578063425fad5814610785576104ab565b806326782247146106385780632a0c0463146106405780632a6a60651461066e5780632bc7e29e1461068d5780632ec04124146106b3576104ab565b80631d504dc6116104745780631d504dc6146105685780631ededc911461058e57806321af4569146105d057806324008a62146105f457806324a3d62214610630576104ab565b80627e3dd2146104b057806308e0225c146104cc5780630db4b4e51461050c57806311397a7d146105145780631abcaa7714610542575b600080fd5b6104b8611311565b604080519115158252519081900360200190f35b6104fa600480360360408110156104e257600080fd5b506001600160a01b0381358116916020013516611316565b60408051918252519081900360200190f35b6104fa611333565b6105406004803603604081101561052a57600080fd5b506001600160a01b038135169060200135611339565b005b6104fa6004803603602081101561055857600080fd5b50356001600160a01b0316611355565b6105406004803603602081101561057e57600080fd5b50356001600160a01b0316611367565b610540600480360360a08110156105a457600080fd5b506001600160a01b038135811691602081013582169160408201351690606081013590608001356114d5565b6105d86114dc565b604080516001600160a01b039092168252519081900360200190f35b6104fa6004803603608081101561060a57600080fd5b506001600160a01b038135811691602081013582169160408201351690606001356114eb565b6105d8611608565b6105d8611617565b6105406004803603604081101561065657600080fd5b506001600160a01b0381351690602001351515611626565b6104b86004803603602081101561068457600080fd5b50351515611755565b6104fa600480360360208110156106a357600080fd5b50356001600160a01b03166117fc565b6104fa600480360360208110156106c957600080fd5b503561180e565b6104fa600480360360208110156106e657600080fd5b5035611881565b6105406004803603602081101561070357600080fd5b50356001600160a01b031661198b565b6104b8611a37565b6104fa6004803603604081101561073157600080fd5b506001600160a01b0381358116916020013516611a40565b6105406004803603608081101561075f57600080fd5b506001600160a01b03813581169160208101359091169060408101359060600135611a5d565b6104b8611a63565b6104fa611a72565b610540600480360360c08110156107ab57600080fd5b506001600160a01b0381358116916020810135821691604082013581169160608101359091169060808101359060a00135611a77565b6104fa600480360360208110156107f757600080fd5b50356001600160a01b0316611a7c565b6104fa611a8e565b6104fa6004803603602081101561082557600080fd5b50356001600160a01b0316611a94565b6105406004803603606081101561084b57600080fd5b506001600160a01b038135169060208101359060400135611aaf565b6108a36004803603608081101561087d57600080fd5b506001600160a01b03813581169160208101359091169060408101359060600135611b6c565b60408051938452602084019290925282820152519081900360600190f35b6104fa600480360360608110156108d757600080fd5b506001600160a01b03813581169160208101359091169060400135611ba6565b6104fa6004803603602081101561090d57600080fd5b5035611ca2565b6105406004803603608081101561092a57600080fd5b506001600160a01b03813581169160208101359091169060408101359060600135611d96565b6105d86004803603602081101561096657600080fd5b5035611de7565b6104fa6004803603602081101561098357600080fd5b50356001600160a01b0316611e0e565b6104fa611e93565b610540600480360360608110156109b157600080fd5b506001600160a01b03813581169160208101359091169060400135611e99565b6108a3600480360360208110156109e757600080fd5b50356001600160a01b0316611e9e565b6104fa600480360360a0811015610a0d57600080fd5b506001600160a01b0381358116916020810135821691604082013581169160608101359091169060800135611ed3565b61054060048036036040811015610a5357600080fd5b810190602081018135600160201b811115610a6d57600080fd5b820183602082011115610a7f57600080fd5b803590602001918460208302840111600160201b83111715610aa057600080fd5b919390929091602081019035600160201b811115610abd57600080fd5b820183602082011115610acf57600080fd5b803590602001918460208302840111600160201b83111715610af057600080fd5b5090925090506120b5565b61054060048036036020811015610b1157600080fd5b5035612245565b61054060048036036080811015610b2e57600080fd5b506001600160a01b038135811691602081013582169160408201351690606001356122dc565b610540600480360360a0811015610b6a57600080fd5b506001600160a01b03813581169160208101358216916040820135811691606081013590911690608001356114d5565b6104fa6122e1565b6104b86122e7565b6105d86122f5565b6105d8612304565b61054060048036036040811015610bd057600080fd5b6001600160a01b038235169190810190604081016020820135600160201b811115610bfa57600080fd5b820183602082011115610c0c57600080fd5b803590602001918460208302840111600160201b83111715610c2d57600080fd5b919080806020026020016040519081016040528093929190818152602001838360200280828437600092019190915250929550612313945050505050565b6104fa612370565b6104fa60048036036020811015610c8957600080fd5b50356001600160a01b0316612376565b610cbf60048036036020811015610caf57600080fd5b50356001600160a01b0316612388565b6040805193151584526020840192909252151582820152519081900360600190f35b6105d86123ae565b6104b860048036036040811015610cff57600080fd5b506001600160a01b03813581169160200135166123bd565b6104fa6123f1565b6104fa60048036036020811015610d3557600080fd5b50356001600160a01b03166123f7565b61054060048036036040811015610d5b57600080fd5b506001600160a01b03813516906020013561247b565b6104fa60048036036020811015610d8757600080fd5b50356001600160a01b03166124de565b61054060048036036020811015610dad57600080fd5b503561263b565b610dda60048036036020811015610dca57600080fd5b50356001600160a01b0316612640565b60408051602080825283518183015283519192839290830191858101910280838360005b83811015610e16578181015183820152602001610dfe565b505050509050019250505060405180910390f35b61054060048036036020811015610e4057600080fd5b50356001600160a01b03166126b6565b610dda61271a565b610e7e60048036036020811015610e6e57600080fd5b50356001600160a01b031661277c565b604080516001600160e01b03909316835263ffffffff90911660208301528051918290030190f35b6105d86127a6565b6104fa60048036036080811015610ec457600080fd5b506001600160a01b038135811691602081013582169160408201351690606001356127b5565b61054060048036036020811015610f0057600080fd5b50356001600160a01b0316612898565b6104fa6128b9565b6105d86128bf565b610dda60048036036020811015610f3657600080fd5b810190602081018135600160201b811115610f5057600080fd5b820183602082011115610f6257600080fd5b803590602001918460208302840111600160201b83111715610f8357600080fd5b5090925090506128d7565b610fc460048036036060811015610fa457600080fd5b506001600160a01b0381358116916020810135909116906040013561296d565b6040805192835260208301919091528051918290030190f35b610fe5612be2565b604080516001600160e01b039092168252519081900360200190f35b6104fa600480360360a081101561101757600080fd5b506001600160a01b0381358116916020810135821691604082013581169160608101359091169060800135612bf5565b6105406004803603608081101561105d57600080fd5b810190602081018135600160201b81111561107757600080fd5b82018360208201111561108957600080fd5b803590602001918460208302840111600160201b831117156110aa57600080fd5b9190808060200260200160405190810160405280939291908181526020018383602002808284376000920191909152509295949360208101935035915050600160201b8111156110f957600080fd5b82018360208201111561110b57600080fd5b803590602001918460208302840111600160201b8311171561112c57600080fd5b919080806020026020016040519081016040528093929190818152602001838360200280828437600092019190915250929550505050803515159150602001351515612dfc565b6104fa6004803603602081101561118957600080fd5b503561319d565b6104fa600480360360608110156111a657600080fd5b506001600160a01b03813581169160208101359091169060400135613206565b6105d8600480360360408110156111dc57600080fd5b506001600160a01b038135169060200135613661565b6105d8613696565b6105406136a5565b610e7e6004803603602081101561121857600080fd5b50356001600160a01b03166138d5565b6104fa6004803603604081101561123e57600080fd5b506001600160a01b0381351690602001356138ff565b6104fa613aaf565b6104fa6004803603606081101561127257600080fd5b506001600160a01b03813581169160208101359091169060400135613ab5565b6104fa600480360360208110156112a857600080fd5b50356001600160a01b0316613b45565b6105d8613e01565b6104fa613e10565b6104fa600480360360208110156112de57600080fd5b5035613e16565b6104fa600480360360408110156112fb57600080fd5b506001600160a01b038135169060200135613e25565b600181565b601360209081526000928352604080842090915290825290205481565b601d5481565b6001600160a01b039091166000908152600f6020526040902055565b600f6020526000908152604090205481565b806001600160a01b031663f851a4406040518163ffffffff1660e01b815260040160206040518083038186803b1580156113a057600080fd5b505afa1580156113b4573d6000803e3d6000fd5b505050506040513d60208110156113ca57600080fd5b50516001600160a01b03163314611428576040805162461bcd60e51b815260206004820152601960248201527f6f6e6c7920756e6974726f6c6c65722061646d696e2063616e00000000000000604482015290519081900360640190fd5b806001600160a01b031663c1e803346040518163ffffffff1660e01b8152600401602060405180830381600087803b15801561146357600080fd5b505af1158015611477573d6000803e3d6000fd5b505050506040513d602081101561148d57600080fd5b5051156114d2576040805162461bcd60e51b815260206004820152600e60248201526d1b9bdd08185d5d1a1bdc9a5e995960921b604482015290519081900360640190fd5b50565b5050505050565b601e546001600160a01b031681565b60185460009062010000900460ff1615611541576040805162461bcd60e51b81526020600482015260126024820152711c1c9bdd1bd8dbdb081a5cc81c185d5cd95960721b604482015290519081900360640190fd5b6001600160a01b03851660009081526009602052604090205460ff1661156957506009611600565b611571615cec565b6040518060200160405280876001600160a01b031663aa5af0fd6040518163ffffffff1660e01b815260040160206040518083038186803b1580156115b557600080fd5b505afa1580156115c9573d6000803e3d6000fd5b505050506040513d60208110156115df57600080fd5b5051905290506115ef8682613f17565b6115fa8685836141ab565b60009150505b949350505050565b600a546001600160a01b031681565b6001546001600160a01b031681565b601b546001600160a01b03161561163f5761163f6136a5565b6015546001600160a01b031615611751576015546040805163d178273b60e01b81526001600160a01b0385811660048301529151600093849384938493919092169163d178273b91602480830192608092919082900301818787803b1580156116a757600080fd5b505af11580156116bb573d6000803e3d6000fd5b505050506040513d60808110156116d157600080fd5b5080516020820151604083015160609093015190965091945090925090508061174c576001600160a01b038616600081815260146020908152604091829020879055815186815290810185905281517f2fb3baf25f3d9fc9f9eb9dfd7da8567731a91413437d91bc1b8a839d0a1ba88f929181900390910190a25b505050505b5050565b600080546001600160a01b031633146117a6576040805162461bcd60e51b815260206004820152600e60248201526d37b7363c9030b236b4b71031b0b760911b604482015290519081900360640190fd5b6018805483151562010000810262ff0000199092169190911790915560408051918252517fd7500633dd3ddd74daa7af62f8c8404c7fe4a81da179998db851696bed004b389181900360200190a150805b919050565b60166020526000908152604090205481565b600080546001600160a01b031633146118345761182d6001601461435b565b90506117f7565b6017805490839055604080518281526020810185905281517f73747d68b346dce1e932bcd238282e7ac84c01569e1f8d0469c222fdc6e9d5a4929181900390910190a160005b9392505050565b600080546001600160a01b031633146118a05761182d6001600461435b565b6118a8615cec565b5060408051602081019091528281526118bf615cec565b50604080516020810190915266b1a2bc2ec5000081526118df82826143c1565b156118f8576118ef60058061435b565b925050506117f7565b611900615cec565b506040805160208101909152670c7d713b49da0000815261192181846143c9565b1561193b5761193160058061435b565b93505050506117f7565b6005805490869055604080518281526020810188905281517f3b9670cf975d26958e754b57098eaa2ac914d8d2a31b83257997b9f346110fd9929181900390910190a160005b9695505050505050565b6000546001600160a01b031633146119d45760405162461bcd60e51b8152600401808060200182810382526026815260200180615dac6026913960400191505060405180910390fd5b601e80546001600160a01b038381166001600160a01b0319831681179093556040805191909216808252602082019390935281517feda98690e518e9a05f8ec6837663e188211b2da8f4906648b323f2c1d4434e29929181900390910190a15050565b60185460ff1681565b601260209081526000928352604080842090915290825290205481565b50505050565b60185462010000900460ff1681565b435b90565b61174c565b601f6020526000908152604090205481565b60065481565b6001600160a01b031660009081526008602052604090205490565b6000546001600160a01b03163314611aff576040805162461bcd60e51b815260206004820152600e60248201526d37b7363c9030b236b4b71031b0b760911b604482015290519081900360640190fd5b601b80546001600160a01b0385166001600160a01b03199091168117909155601c839055601d8290556040805191825260208201849052818101839052517f7059037d74ee16b0fb06a4a30f3348dd2635f301f92e373c92899a25a522ef6e9181900360600190a1505050565b600080600080600080611b818a8a8a8a6143d0565b925092509250826012811115611b9357fe5b95509093509150505b9450945094915050565b60185460009062010000900460ff1615611bfc576040805162461bcd60e51b81526020600482015260126024820152711c1c9bdd1bd8dbdb081a5cc81c185d5cd95960721b604482015290519081900360640190fd5b6001600160a01b0384166000908152600b602052604090205460ff1615611c5b576040805162461bcd60e51b815260206004820152600e60248201526d1b5a5b9d081a5cc81c185d5cd95960921b604482015290519081900360640190fd5b6001600160a01b03841660009081526009602052604090205460ff16611c855760095b905061187a565b611c8e8461484d565b611c988484614ad7565b6000949350505050565b600080546001600160a01b03163314611cc15761182d6001600b61435b565b611cc9615cec565b506040805160208101909152828152611ce0615cec565b506040805160208101909152670de0b6b3a76400008152611d0182826143c9565b15611d12576118ef6007600c61435b565b611d1a615cec565b5060408051602081019091526714d1120d7b1600008152611d3b81846143c9565b15611d4c576119316007600c61435b565b6006805490869055604080518281526020810188905281517faeba5a6c40a8ac138134bff1aaa65debf25971188a58804bad717f82f0ec1316929181900390910190a16000611981565b80151580611da2575081155b611a5d576040805162461bcd60e51b815260206004820152601160248201527072656465656d546f6b656e73207a65726f60781b604482015290519081900360640190fd5b600d8181548110611df457fe5b6000918252602090912001546001600160a01b0316905081565b600080546001600160a01b03163314611e2d5761182d6001601061435b565b600480546001600160a01b038481166001600160a01b0319831681179093556040805191909216808252602082019390935281517fd52b2b9b7e9ee655fcb95d2e5b9e0c9f69e7ef2b8e9d2d0ea78402d576d22e22929181900390910190a1600061187a565b60205481565b505050565b600080600080600080611eb58760008060006143d0565b925092509250826012811115611ec757fe5b97919650945092505050565b60185460009062010000900460ff1615611f29576040805162461bcd60e51b81526020600482015260126024820152711c1c9bdd1bd8dbdb081a5cc81c185d5cd95960721b604482015290519081900360640190fd5b6001600160a01b03861660009081526009602052604090205460ff161580611f6a57506001600160a01b03851660009081526009602052604090205460ff16155b15611f795760095b90506120ac565b600080611f8a8560008060006143d0565b91935090915060009050826012811115611fa057fe5b14611fba57816012811115611fb157fe5b925050506120ac565b80611fc6576003611fb1565b6000886001600160a01b03166395dd9193876040518263ffffffff1660e01b815260040180826001600160a01b03166001600160a01b0316815260200191505060206040518083038186803b15801561201e57600080fd5b505afa158015612032573d6000803e3d6000fd5b505050506040513d602081101561204857600080fd5b505160408051602081019091526005548152909150600090819061206c9084614ccf565b9092509050600082600381111561207f57fe5b1461209357600b5b955050505050506120ac565b808711156120a2576011612087565b6000955050505050505b95945050505050565b6000546001600160a01b03163314806120d85750601e546001600160a01b031633145b6121135760405162461bcd60e51b8152600401808060200182810382526035815260200180615dd26035913960400191505060405180910390fd5b8281811580159061212357508082145b612164576040805162461bcd60e51b815260206004820152600d60248201526c1a5b9d985b1a59081a5b9c1d5d609a1b604482015290519081900360640190fd5b60005b8281101561223c5784848281811061217b57fe5b90506020020135601f600089898581811061219257fe5b905060200201356001600160a01b03166001600160a01b03166001600160a01b03168152602001908152602001600020819055508686828181106121d257fe5b905060200201356001600160a01b03166001600160a01b03167f6f1951b2aad10f3fc81b86d91105b413a5b3f847a34bbc5ce1904201b14438f686868481811061221857fe5b905060200201356040518082815260200191505060405180910390a2600101612167565b50505050505050565b6000546001600160a01b03163314612295576040805162461bcd60e51b815260206004820152600e60248201526d37b7363c9030b236b4b71031b0b760911b604482015290519081900360640190fd5b601a805490829055604080518281526020810184905281517fe81d4ac15e5afa1e708e66664eddc697177423d950d133bda8262d8885e6da3b929181900390910190a15050565b611a5d565b601c5481565b601854610100900460ff1681565b601b546001600160a01b031681565b6004546001600160a01b031681565b60408051600180825281830190925260609160208083019080388339019050509050828160008151811061234357fe5b60200260200101906001600160a01b031690816001600160a01b031681525050611e998183600180612dfc565b600e5481565b60146020526000908152604090205481565b60096020526000908152604090208054600182015460039092015460ff91821692911683565b6015546001600160a01b031681565b6001600160a01b038082166000908152600960209081526040808320938616835260029093019052205460ff165b92915050565b60075481565b600080546001600160a01b031633146124165761182d6001601561435b565b601580546001600160a01b038481166001600160a01b0319831681179093556040805191909216808252602082019390935281517fe1ddcb2dab8e5b03cfc8c67a0d5861d91d16f7bd2612fd381faf4541d212c9b2929181900390910190a150919050565b612483614d23565b6124d4576040805162461bcd60e51b815260206004820152601e60248201527f6f6e6c792061646d696e2063616e207365742076656e75732073706565640000604482015290519081900360640190fd5b6117518282614d4c565b600080546001600160a01b031633146124fd5761182d6001601261435b565b6001600160a01b03821660009081526009602052604090205460ff161561252a5761182d600a601161435b565b816001600160a01b0316633d9ea3a16040518163ffffffff1660e01b815260040160206040518083038186803b15801561256357600080fd5b505afa158015612577573d6000803e3d6000fd5b505050506040513d602081101561258d57600080fd5b5050604080516060810182526001808252600060208381018281528486018381526001600160a01b03891684526009909252949091209251835490151560ff199182161784559351918301919091555160039091018054911515919092161790556125f7826150de565b604080516001600160a01b038416815290517fcf583bb0c569eb967f806b11601c4cb93c10310485c67add5f8362c2f212321f9181900360200190a1600092915050565b602055565b6001600160a01b0381166000908152600860209081526040918290208054835181840281018401909452808452606093928301828280156126aa57602002820191906000526020600020905b81546001600160a01b0316815260019091019060200180831161268c575b50505050509050919050565b6114d281600d80548060200260200160405190810160405280929190818152602001828054801561271057602002820191906000526020600020905b81546001600160a01b031681526001909101906020018083116126f2575b5050505050612313565b6060600d80548060200260200160405190810160405280929190818152602001828054801561277257602002820191906000526020600020905b81546001600160a01b03168152600190910190602001808311612754575b5050505050905090565b6010602052600090815260409020546001600160e01b03811690600160e01b900463ffffffff1682565b6002546001600160a01b031681565b60185460009062010000900460ff161561280b576040805162461bcd60e51b81526020600482015260126024820152711c1c9bdd1bd8dbdb081a5cc81c185d5cd95960721b604482015290519081900360640190fd5b600a54600160b01b900460ff161561285f576040805162461bcd60e51b81526020600482015260126024820152711d1c985b9cd9995c881a5cc81c185d5cd95960721b604482015290519081900360640190fd5b600061286c8686856151bc565b9050801561287b579050611600565b6128848661484d565b61288e8686614ad7565b6115fa8685614ad7565b6001600160a01b03166000908152600960205260409020805460ff19169055565b60175481565b73cf6bb5389c92bdda8a3747ddb454cb7a64626c6390565b60408051828152602080840282010190915260609082908290828015612907578160200160208202803883390190505b50905060005b828110156129645761293a86868381811061292457fe5b905060200201356001600160a01b031633615268565b601281111561294557fe5b82828151811061295157fe5b602090810291909101015260010161290d565b50949350505050565b600480546040805163fc57d4df60e01b81526001600160a01b038781169482019490945290516000938493849391169163fc57d4df91602480820192602092909190829003018186803b1580156129c357600080fd5b505afa1580156129d7573d6000803e3d6000fd5b505050506040513d60208110156129ed57600080fd5b5051600480546040805163fc57d4df60e01b81526001600160a01b038a8116948201949094529051939450600093929091169163fc57d4df91602480820192602092909190829003018186803b158015612a4657600080fd5b505afa158015612a5a573d6000803e3d6000fd5b505050506040513d6020811015612a7057600080fd5b50519050811580612a7f575080155b15612a9457600d935060009250612bda915050565b6000866001600160a01b031663182df0f56040518163ffffffff1660e01b815260040160206040518083038186803b158015612acf57600080fd5b505afa158015612ae3573d6000803e3d6000fd5b505050506040513d6020811015612af957600080fd5b505190506000612b07615cec565b612b0f615cec565b612b17615cec565b6000612b2560065489615384565b945090506000816003811115612b3757fe5b14612b5357600b5b995060009850612bda975050505050505050565b612b5d8787615384565b935090506000816003811115612b6f57fe5b14612b7b57600b612b3f565b612b8584846153bf565b925090506000816003811115612b9757fe5b14612ba357600b612b3f565b612bad828c614ccf565b955090506000816003811115612bbf57fe5b14612bcb57600b612b3f565b60009950939750505050505050505b935093915050565b6ec097ce7bc90715b34b9f100000000081565b60185460009062010000900460ff1615612c4b576040805162461bcd60e51b81526020600482015260126024820152711c1c9bdd1bd8dbdb081a5cc81c185d5cd95960721b604482015290519081900360640190fd5b600a54600160b81b900460ff1615612c9c576040805162461bcd60e51b815260206004820152600f60248201526e1cd95a5e99481a5cc81c185d5cd959608a1b604482015290519081900360640190fd5b6001600160a01b03861660009081526009602052604090205460ff161580612cdd57506001600160a01b03851660009081526009602052604090205460ff16155b15612ce9576009611f72565b846001600160a01b0316635fe3b5676040518163ffffffff1660e01b815260040160206040518083038186803b158015612d2257600080fd5b505afa158015612d36573d6000803e3d6000fd5b505050506040513d6020811015612d4c57600080fd5b505160408051635fe3b56760e01b815290516001600160a01b0392831692891691635fe3b567916004808301926020929190829003018186803b158015612d9257600080fd5b505afa158015612da6573d6000803e3d6000fd5b505050506040513d6020811015612dbc57600080fd5b50516001600160a01b031614612dd3576002611f72565b612ddc8661484d565b612de68684614ad7565b612df08685614ad7565b60009695505050505050565b6015546000906001600160a01b031615612e8d57601560009054906101000a90046001600160a01b03166001600160a01b031663d244b0816040518163ffffffff1660e01b8152600401602060405180830381600087803b158015612e6057600080fd5b505af1158015612e74573d6000803e3d6000fd5b505050506040513d6020811015612e8a57600080fd5b50505b5060005b8451811015612f4957612eb8858281518110612ea957fe5b60200260200101516001611626565b612f0d858281518110612ec757fe5b602002602001015160146000888581518110612edf57fe5b60200260200101516001600160a01b03166001600160a01b03168152602001908152602001600020546153d7565b60146000878481518110612f1d57fe5b6020908102919091018101516001600160a01b0316825281019190915260400160002055600101612e91565b60005b845181101561174c576000858281518110612f6357fe5b6020908102919091018101516001600160a01b0381166000908152600990925260409091205490915060ff16612fd4576040805162461bcd60e51b81526020600482015260116024820152701b9bdd081b1a5cdd1959081b585c9ad95d607a1b604482015290519081900360640190fd5b84156130f457612fe2615cec565b6040518060200160405280836001600160a01b031663aa5af0fd6040518163ffffffff1660e01b815260040160206040518083038186803b15801561302657600080fd5b505afa15801561303a573d6000803e3d6000fd5b505050506040513d602081101561305057600080fd5b5051905290506130608282613f17565b600093505b87518410156130f25761308c8289868151811061307e57fe5b6020026020010151836141ab565b6130b388858151811061309b57fe5b6020026020010151601460008b8881518110612edf57fe5b601460008a87815181106130c357fe5b6020908102919091018101516001600160a01b0316825281019190915260400160002055600190930192613065565b505b8315613194576131038161484d565b600092505b86518310156131945761312e8188858151811061312157fe5b6020026020010151614ad7565b61315587848151811061313d57fe5b6020026020010151601460008a8781518110612edf57fe5b6014600089868151811061316557fe5b6020908102919091018101516001600160a01b0316825281019190915260400160002055600190920191613108565b50600101612f4c565b600080546001600160a01b031633146131bc5761182d6001600d61435b565b6007805490839055604080518281526020810185905281517f7093cf1eb653f749c3ff531d6df7f92764536a7fa0d13530cd26e070780c32ea929181900390910190a1600061187a565b60185460009062010000900460ff161561325c576040805162461bcd60e51b81526020600482015260126024820152711c1c9bdd1bd8dbdb081a5cc81c185d5cd95960721b604482015290519081900360640190fd5b6001600160a01b0384166000908152600c602052604090205460ff16156132bd576040805162461bcd60e51b815260206004820152601060248201526f189bdc9c9bddc81a5cc81c185d5cd95960821b604482015290519081900360640190fd5b6001600160a01b03841660009081526009602052604090205460ff166132e4576009611c7e565b6001600160a01b038085166000908152600960209081526040808320938716835260029093019052205460ff166133a157336001600160a01b0385161461336a576040805162461bcd60e51b815260206004820152601560248201527439b2b73232b91036bab9ba103132903b2a37b5b2b760591b604482015290519081900360640190fd5b60006133768585615268565b9050600081601281111561338657fe5b1461339f5780601281111561339757fe5b91505061187a565b505b600480546040805163fc57d4df60e01b81526001600160a01b03888116948201949094529051929091169163fc57d4df91602480820192602092909190829003018186803b1580156133f257600080fd5b505afa158015613406573d6000803e3d6000fd5b505050506040513d602081101561341c57600080fd5b505161342957600d611c7e565b6001600160a01b0384166000908152601f60205260409020548015613574576000856001600160a01b03166347bd37186040518163ffffffff1660e01b815260040160206040518083038186803b15801561348357600080fd5b505afa158015613497573d6000803e3d6000fd5b505050506040513d60208110156134ad57600080fd5b505190506000806134be8387615511565b909250905060008260038111156134d157fe5b1461351c576040805162461bcd60e51b8152602060048201526016602482015275746f74616c20626f72726f7773206f766572666c6f7760501b604482015290519081900360640190fd5b838110613570576040805162461bcd60e51b815260206004820152601960248201527f6d61726b657420626f72726f7720636170207265616368656400000000000000604482015290519081900360640190fd5b5050505b60008061358486886000886143d0565b9193509091506000905082601281111561359a57fe5b146135b5578160128111156135ab57fe5b935050505061187a565b80156135c25760046135ab565b6135ca615cec565b6040518060200160405280896001600160a01b031663aa5af0fd6040518163ffffffff1660e01b815260040160206040518083038186803b15801561360e57600080fd5b505afa158015613622573d6000803e3d6000fd5b505050506040513d602081101561363857600080fd5b5051905290506136488882613f17565b6136538888836141ab565b600098975050505050505050565b6008602052816000526040600020818154811061367a57fe5b6000918252602090912001546001600160a01b03169150829050565b6003546001600160a01b031681565b601c5415806136bc5750601c546136ba611a72565b105b156136c6576138d3565b60006136d06128bf565b604080516370a0823160e01b815230600482015290519192506000916001600160a01b038416916370a08231916024808301926020929190829003018186803b15801561371c57600080fd5b505afa158015613730573d6000803e3d6000fd5b505050506040513d602081101561374657600080fd5b50519050806137565750506138d3565b60008061376c613764611a72565b601c54615537565b9050600061377c601a5483615571565b9050601d548110156137925750505050506138d3565b8084106137a1578092506137a5565b8392505b6137ad611a72565b601c55601b546040805163a9059cbb60e01b81526001600160a01b0392831660048201526024810186905290519187169163a9059cbb916044808201926020929091908290030181600087803b15801561380657600080fd5b505af115801561381a573d6000803e3d6000fd5b505050506040513d602081101561383057600080fd5b50506040805184815290517ff6d4b8f74d85a6e2d7a50225957b8a6cfec69ad92f5905627260541aa0a5565d9181900360200190a1601b60009054906101000a90046001600160a01b03166001600160a01b031663faa1809e6040518163ffffffff1660e01b8152600401600060405180830381600087803b1580156138b557600080fd5b505af11580156138c9573d6000803e3d6000fd5b5050505050505050505b565b6011602052600090815260409020546001600160e01b03811690600160e01b900463ffffffff1682565b600080546001600160a01b031633146139255761391e6001600661435b565b90506123eb565b6001600160a01b0383166000908152600960205260409020805460ff1661395a576139526009600761435b565b9150506123eb565b613962615cec565b506040805160208101909152838152613979615cec565b506040805160208101909152670c7d713b49da0000815261399a81836143c9565b156139b5576139ab6006600861435b565b93505050506123eb565b8415801590613a3e5750600480546040805163fc57d4df60e01b81526001600160a01b038a8116948201949094529051929091169163fc57d4df91602480820192602092909190829003018186803b158015613a1057600080fd5b505afa158015613a24573d6000803e3d6000fd5b505050506040513d6020811015613a3a57600080fd5b5051155b15613a4f576139ab600d600961435b565b60018301805490869055604080516001600160a01b03891681526020810183905280820188905290517f70483e6592cd5182d45ac970e05bc62cdcc90e9d8ef2c2dbe686cf383bcd7fc59181900360600190a16000979650505050505050565b60055481565b60185460009062010000900460ff1615613b0b576040805162461bcd60e51b81526020600482015260126024820152711c1c9bdd1bd8dbdb081a5cc81c185d5cd95960721b604482015290519081900360640190fd5b6000613b188585856151bc565b90508015613b2757905061187a565b613b308561484d565b613b3a8585614ad7565b600095945050505050565b6000808290506000806000836001600160a01b031663c37f68e2336040518263ffffffff1660e01b815260040180826001600160a01b03166001600160a01b0316815260200191505060806040518083038186803b158015613ba657600080fd5b505afa158015613bba573d6000803e3d6000fd5b505050506040513d6080811015613bd057600080fd5b508051602082015160409092015190945090925090508215613c39576040805162461bcd60e51b815260206004820152601960248201527f6765744163636f756e74536e617073686f74206661696c656400000000000000604482015290519081900360640190fd5b8015613c5657613c4b600c600261435b565b9450505050506117f7565b6000613c638733856151bc565b90508015613c8457613c78600e6003836155b3565b955050505050506117f7565b6001600160a01b0385166000908152600960209081526040808320338452600281019092529091205460ff16613cc357600096505050505050506117f7565b3360009081526002820160209081526040808320805460ff1916905560089091528120805490915b81811015613da457886001600160a01b0316838281548110613d0957fe5b6000918252602090912001546001600160a01b03161415613d9c57826001830381548110613d3357fe5b9060005260206000200160009054906101000a90046001600160a01b0316838281548110613d5d57fe5b600091825260209091200180546001600160a01b0319166001600160a01b03929092169190911790558254613d96846000198301615cff565b50613da4565b600101613ceb565b818110613dad57fe5b604080516001600160a01b038b16815233602082015281517fe699a64c18b07ac5b7301aa273f36a2287239eb9501d81950672794afba29a0d929181900390910190a160009b9a5050505050505050505050565b6000546001600160a01b031681565b601a5481565b60208054820190819055919050565b60185460009062010000900460ff1615613e7b576040805162461bcd60e51b81526020600482015260126024820152711c1c9bdd1bd8dbdb081a5cc81c185d5cd95960721b604482015290519081900360640190fd5b60185460ff16158015613e965750601854610100900460ff16155b613ed7576040805162461bcd60e51b815260206004820152600d60248201526c159052481a5cc81c185d5cd959609a1b604482015290519081900360640190fd5b6015546001600160a01b03163314613ef55761391e600e601661435b565b6001600160a01b03831660009081526016602052604081208390559392505050565b6001600160a01b0382166000908152601160209081526040808320600f9092528220549091613f44611a72565b8354909150600090613f64908390600160e01b900463ffffffff16615537565b9050600081118015613f765750600083115b15614146576000613feb876001600160a01b03166347bd37186040518163ffffffff1660e01b815260040160206040518083038186803b158015613fb957600080fd5b505afa158015613fcd573d6000803e3d6000fd5b505050506040513d6020811015613fe357600080fd5b505187615619565b90506000613ff98386615571565b9050614003615cec565b60008311614020576040518060200160405280600081525061402a565b61402a8284615637565b9050614034615cec565b604080516020810190915288546001600160e01b031681526140569083615675565b9050604051806040016040528061409c8360000151604051806040016040528060138152602001726e657720696e646578206f766572666c6f777360681b81525061569a565b6001600160e01b031681526020016140e28860405180604001604052806016815260200175626c6f636b206e756d626572206f766572666c6f777360501b815250615734565b63ffffffff9081169091526001600160a01b038c166000908152601160209081526040909120835181549490920151909216600160e01b026001600160e01b039182166001600160e01b031990941693909317169190911790555061174c92505050565b801561174c576141848260405180604001604052806016815260200175626c6f636b206e756d626572206f766572666c6f777360501b815250615734565b845463ffffffff91909116600160e01b026001600160e01b03909116178455505050505050565b601b546001600160a01b0316156141c4576141c46136a5565b6001600160a01b03831660009081526011602052604090206141e4615cec565b50604080516020810190915281546001600160e01b03168152614205615cec565b5060408051602080820183526001600160a01b038089166000908152601383528481209189168082528284529481208054855286519590915291529190915580511561174c57614253615cec565b61425d8383615789565b905060006142ba886001600160a01b03166395dd9193896040518263ffffffff1660e01b815260040180826001600160a01b03166001600160a01b0316815260200191505060206040518083038186803b158015613fb957600080fd5b905060006142c882846157ae565b6001600160a01b038916600090815260146020526040812054919250906142ef90836157dd565b6001600160a01b03808b166000818152601460209081526040918290208590558a5182518881529182015281519495509193928e16927f837bdc11fca9f17ce44167944475225a205279b17e88c791c3b1f66f354668fb9281900390910190a350505050505050505050565b60007f45b96fe442630264581b197e84bbada861235052c5a1aadfff9ea4e40a969aa083601281111561438a57fe5b83601781111561439657fe5b604080519283526020830191909152600082820152519081900360600190a182601281111561187a57fe5b519051111590565b5190511090565b60008060006143dd615d23565b6001600160a01b03881660009081526008602090815260408083208054825181850281018501909352808352849360609392919083018282801561444a57602002820191906000526020600020905b81546001600160a01b0316815260019091019060200180831161442c575b50939450600093505050505b81518110156147a657600082828151811061446d57fe5b60200260200101519050806001600160a01b031663c37f68e28e6040518263ffffffff1660e01b815260040180826001600160a01b03166001600160a01b0316815260200191505060806040518083038186803b1580156144cd57600080fd5b505afa1580156144e1573d6000803e3d6000fd5b505050506040513d60808110156144f757600080fd5b508051602082015160408084015160609485015160808c0152938a0193909352918801919091529450841561453d5750600f975060009650869550611b9c945050505050565b60408051602080820183526001600160a01b0380851660008181526009845285902060010154845260c08b01939093528351808301855260808b0151815260e08b015260048054855163fc57d4df60e01b815291820194909452935192169263fc57d4df9260248083019392829003018186803b1580156145bd57600080fd5b505afa1580156145d1573d6000803e3d6000fd5b505050506040513d60208110156145e757600080fd5b505160a0870181905261460b5750600d975060009650869550611b9c945050505050565b604080516020810190915260a08701518152610100870181905260c087015160e088015161463892615813565b6101208801529350600084600381111561464e57fe5b1461466a5750600b975060009650869550611b9c945050505050565b6146828661012001518760400151886000015161586b565b87529350600084600381111561469457fe5b146146b05750600b975060009650869550611b9c945050505050565b6146c88661010001518760600151886020015161586b565b6020880152935060008460038111156146dd57fe5b146146f95750600b975060009650869550611b9c945050505050565b8b6001600160a01b0316816001600160a01b0316141561479d576147278661012001518c886020015161586b565b60208801529350600084600381111561473c57fe5b146147585750600b975060009650869550611b9c945050505050565b61476c8661010001518b886020015161586b565b60208801529350600084600381111561478157fe5b1461479d5750600b975060009650869550611b9c945050505050565b50600101614456565b506147da8460200151601660008e6001600160a01b03166001600160a01b0316815260200190815260200160002054615511565b6020860152915060008260038111156147ef57fe5b146148095750600b955060009450849350611b9c92505050565b60208401518451111561482f575050506020810151905160009450039150829050611b9c565b5050815160209092015160009550859450919091039150611b9c9050565b6001600160a01b0381166000908152601060209081526040808320600f909252822054909161487a611a72565b835490915060009061489a908390600160e01b900463ffffffff16615537565b90506000811180156148ac5750600083115b15614a73576000856001600160a01b03166318160ddd6040518163ffffffff1660e01b815260040160206040518083038186803b1580156148ec57600080fd5b505afa158015614900573d6000803e3d6000fd5b505050506040513d602081101561491657600080fd5b5051905060006149268386615571565b9050614930615cec565b6000831161494d5760405180602001604052806000815250614957565b6149578284615637565b9050614961615cec565b604080516020810190915288546001600160e01b031681526149839083615675565b905060405180604001604052806149c98360000151604051806040016040528060138152602001726e657720696e646578206f766572666c6f777360681b81525061569a565b6001600160e01b03168152602001614a0f8860405180604001604052806016815260200175626c6f636b206e756d626572206f766572666c6f777360501b815250615734565b63ffffffff9081169091526001600160a01b038b166000908152601060209081526040909120835181549490920151909216600160e01b026001600160e01b039182166001600160e01b03199094169390931716919091179055506114d592505050565b80156114d557614ab18260405180604001604052806016815260200175626c6f636b206e756d626572206f766572666c6f777360501b815250615734565b845463ffffffff91909116600160e01b026001600160e01b039091161784555050505050565b601b546001600160a01b031615614af057614af06136a5565b6001600160a01b0382166000908152601060205260409020614b10615cec565b50604080516020810190915281546001600160e01b03168152614b31615cec565b5060408051602080820183526001600160a01b03808816600090815260128352848120918816808252828452948120805485528651959091529152919091558051158015614b7f5750815115155b15614b97576ec097ce7bc90715b34b9f100000000081525b614b9f615cec565b614ba98383615789565b90506000866001600160a01b03166370a08231876040518263ffffffff1660e01b815260040180826001600160a01b03166001600160a01b0316815260200191505060206040518083038186803b158015614c0357600080fd5b505afa158015614c17573d6000803e3d6000fd5b505050506040513d6020811015614c2d57600080fd5b505190506000614c3d82846157ae565b6001600160a01b03881660009081526014602052604081205491925090614c6490836157dd565b6001600160a01b03808a166000818152601460209081526040918290208590558a5182518881529182015281519495509193928d16927ffa9d964d891991c113b49e3db1932abd6c67263d387119707aafdd6c4010a3a99281900390910190a3505050505050505050565b6000806000614cdc615cec565b614ce686866158b8565b90925090506000826003811115614cf957fe5b14614d0a5750915060009050614d1c565b6000614d1582615920565b9350935050505b9250929050565b600080546001600160a01b0316331480614d4757506002546001600160a01b031633145b905090565b6001600160a01b0382166000908152600f60205260409020548015614e0057614d73615cec565b6040518060200160405280856001600160a01b031663aa5af0fd6040518163ffffffff1660e01b815260040160206040518083038186803b158015614db757600080fd5b505afa158015614dcb573d6000803e3d6000fd5b505050506040513d6020811015614de157600080fd5b505190529050614df08461484d565b614dfa8482613f17565b50615082565b8115615082576001600160a01b0383166000908152600960205260409020805460ff161515600114614e79576040805162461bcd60e51b815260206004820152601a60248201527f76656e7573206d61726b6574206973206e6f74206c6973746564000000000000604482015290519081900360640190fd5b6001600160a01b0384166000908152601060205260409020546001600160e01b0316158015614ecb57506001600160a01b038416600090815260106020526040902054600160e01b900463ffffffff16155b15614f9a5760405180604001604052806ec097ce7bc90715b34b9f10000000006001600160e01b03168152602001614f3f614f04611a72565b6040518060400160405280601c81526020017f626c6f636b206e756d6265722065786365656473203332206269747300000000815250615734565b63ffffffff9081169091526001600160a01b0386166000908152601060209081526040909120835181549490920151909216600160e01b026001600160e01b039182166001600160e01b031990941693909317169190911790555b6001600160a01b0384166000908152601160205260409020546001600160e01b0316158015614fec57506001600160a01b038416600090815260116020526040902054600160e01b900463ffffffff16155b156150805760405180604001604052806ec097ce7bc90715b34b9f10000000006001600160e01b03168152602001615025614f04611a72565b63ffffffff9081169091526001600160a01b0386166000908152601160209081526040909120835181549490920151909216600160e01b026001600160e01b039182166001600160e01b031990941693909317169190911790555b505b818114611e99576001600160a01b0383166000818152600f6020908152604091829020859055815185815291517f2a0ce45ba05a83e75ba21e1a10d6b48a8395028cc6e1ae66f6c313648379d5489281900390910190a2505050565b60005b600d5481101561516957816001600160a01b0316600d828154811061510257fe5b6000918252602090912001546001600160a01b03161415615161576040805162461bcd60e51b81526020600482015260146024820152731b585c9ad95d08185b1c9958591e48185919195960621b604482015290519081900360640190fd5b6001016150e1565b50600d80546001810182556000919091527fd7b6990105719101dabeb77144f2a3385c8033acd3af97e9423a695e81ad1eb50180546001600160a01b0319166001600160a01b0392909216919091179055565b6001600160a01b03831660009081526009602052604081205460ff166151e3576009611c7e565b6001600160a01b038085166000908152600960209081526040808320938716835260029093019052205460ff1661521b576000611c7e565b60008061522b85878660006143d0565b9193509091506000905082601281111561524157fe5b1461525b5781601281111561525257fe5b9250505061187a565b8015612df0576004615252565b6001600160a01b0382166000908152600960205260408120805460ff166152935760099150506123eb565b6001600160a01b038316600090815260028201602052604090205460ff16156152c05760009150506123eb565b6007546001600160a01b038416600090815260086020526040902054106152eb5760109150506123eb565b6001600160a01b0380841660008181526002840160209081526040808320805460ff19166001908117909155600883528184208054918201815584529282902090920180549489166001600160a01b031990951685179055815193845283019190915280517f3ab23ab0d51cccc0c3085aec51f99228625aa1a922b3a8ca89a26b0f2027a1a59281900390910190a15060009392505050565b600061538e615cec565b6153b460405180602001604052808681525060405180602001604052808681525061592f565b915091509250929050565b60006153c9615cec565b835183516153b49190615a18565b6000806153e26128bf565b604080516370a0823160e01b815230600482015290519192506000916001600160a01b038416916370a08231916024808301926020929190829003018186803b15801561542e57600080fd5b505afa158015615442573d6000803e3d6000fd5b505050506040513d602081101561545857600080fd5b50519050831580159061546b5750808411155b1561550857816001600160a01b031663a9059cbb86866040518363ffffffff1660e01b815260040180836001600160a01b03166001600160a01b0316815260200182815260200192505050602060405180830381600087803b1580156154d057600080fd5b505af11580156154e4573d6000803e3d6000fd5b505050506040513d60208110156154fa57600080fd5b50600093506123eb92505050565b50919392505050565b60008083830184811061552957600092509050614d1c565b506002915060009050614d1c565b600061187a8383604051806040016040528060158152602001747375627472616374696f6e20756e646572666c6f7760581b815250615ac8565b600061187a83836040518060400160405280601781526020017f6d756c7469706c69636174696f6e206f766572666c6f77000000000000000000815250615b22565b60007f45b96fe442630264581b197e84bbada861235052c5a1aadfff9ea4e40a969aa08460128111156155e257fe5b8460178111156155ee57fe5b604080519283526020830191909152818101859052519081900360600190a183601281111561160057fe5b600061187a61563084670de0b6b3a7640000615571565b8351615b98565b61563f615cec565b604051806020016040528061566c615666866ec097ce7bc90715b34b9f1000000000615571565b85615b98565b90529392505050565b61567d615cec565b604051806020016040528061566c856000015185600001516157dd565b600081600160e01b841061572c5760405162461bcd60e51b81526004018080602001828103825283818151815260200191508051906020019080838360005b838110156156f15781810151838201526020016156d9565b50505050905090810190601f16801561571e5780820380516001836020036101000a031916815260200191505b509250505060405180910390fd5b509192915050565b600081600160201b841061572c5760405162461bcd60e51b81526020600482018181528351602484015283519092839260449091019190850190808383600083156156f15781810151838201526020016156d9565b615791615cec565b604051806020016040528061566c85600001518560000151615537565b60006ec097ce7bc90715b34b9f10000000006157ce848460000151615571565b816157d557fe5b049392505050565b600061187a8383604051806040016040528060118152602001706164646974696f6e206f766572666c6f7760781b815250615bcb565b600061581d615cec565b6000615827615cec565b615831878761592f565b9092509050600082600381111561584457fe5b14615853579092509050612bda565b61585d818661592f565b935093505050935093915050565b6000806000615878615cec565b61588287876158b8565b9092509050600082600381111561589557fe5b146158a65750915060009050612bda565b61585d6158b282615920565b86615511565b60006158c2615cec565b6000806158d3866000015186615c20565b909250905060008260038111156158e657fe5b1461590557506040805160208101909152600081529092509050614d1c565b60408051602081019091529081526000969095509350505050565b51670de0b6b3a7640000900490565b6000615939615cec565b60008061594e86600001518660000151615c20565b9092509050600082600381111561596157fe5b1461598057506040805160208101909152600081529092509050614d1c565b6000806159956706f05b59d3b2000084615511565b909250905060008260038111156159a857fe5b146159ca57506040805160208101909152600081529094509250614d1c915050565b6000806159df83670de0b6b3a7640000615c5f565b909250905060008260038111156159f257fe5b146159f957fe5b604080516020810190915290815260009a909950975050505050505050565b6000615a22615cec565b600080615a3786670de0b6b3a7640000615c20565b90925090506000826003811115615a4a57fe5b14615a6957506040805160208101909152600081529092509050614d1c565b600080615a768388615c5f565b90925090506000826003811115615a8957fe5b14615aab57506040805160208101909152600081529094509250614d1c915050565b604080516020810190915290815260009890975095505050505050565b60008184841115615b1a5760405162461bcd60e51b81526020600482018181528351602484015283519092839260449091019190850190808383600083156156f15781810151838201526020016156d9565b505050900390565b6000831580615b2f575082155b15615b3c5750600061187a565b83830283858281615b4957fe5b041483906129645760405162461bcd60e51b81526020600482018181528351602484015283519092839260449091019190850190808383600083156156f15781810151838201526020016156d9565b600061187a83836040518060400160405280600e81526020016d646976696465206279207a65726f60901b815250615c8a565b600083830182858210156129645760405162461bcd60e51b81526020600482018181528351602484015283519092839260449091019190850190808383600083156156f15781810151838201526020016156d9565b60008083615c3357506000905080614d1c565b83830283858281615c4057fe5b0414615c5457506002915060009050614d1c565b600092509050614d1c565b60008082615c735750600190506000614d1c565b6000838581615c7e57fe5b04915091509250929050565b60008183615cd95760405162461bcd60e51b81526020600482018181528351602484015283519092839260449091019190850190808383600083156156f15781810151838201526020016156d9565b50828481615ce357fe5b04949350505050565b6040518060200160405280600081525090565b815481835581811115611e9957600083815260209020611e99918101908301615d8d565b604051806101400160405280600081526020016000815260200160008152602001600081526020016000815260200160008152602001615d61615cec565b8152602001615d6e615cec565b8152602001615d7b615cec565b8152602001615d88615cec565b905290565b611a7491905b80821115615da75760008155600101615d93565b509056fe6f6e6c792061646d696e2063616e2073657420626f72726f772063617020677561726469616e6f6e6c792061646d696e206f7220626f72726f772063617020677561726469616e2063616e2073657420626f72726f772063617073a265627a7a723158208c77304cd86690832dc361af83fa510c822c384617baa718088df5a883f0644c64736f6c63430005100032",
  "linkReferences": {},
  "deployedLinkReferences": {}
}