{
  "_format": "hh-sol-artifact-1",
  "contractName": "ComptrollerBorked",
  "sourceName": "contracts/test/ComptrollerHarness.sol",
  "abi": [
    {
      "constant": false,
      "inputs": [
        {
          "internalType": "contract Unitroller",
          "name": "unitroller",
          "type": "address"
        }
      ],
      "name": "_become",
      "outputs": [],
      "payable": false,
      "stateMutability": "nonpayable",
      "type": "function"
    }
  ],
  "bytecode": "0x608060405234801561001057600080fd5b506101c9806100206000396000f3fe608060405234801561001057600080fd5b506004361061002b5760003560e01c80631d504dc614610030575b600080fd5b6100566004803603602081101561004657600080fd5b50356001600160a01b0316610058565b005b806001600160a01b031663f851a4406040518163ffffffff1660e01b815260040160206040518083038186803b15801561009157600080fd5b505afa1580156100a5573d6000803e3d6000fd5b505050506040513d60208110156100bb57600080fd5b50516001600160a01b031633146101035760405162461bcd60e51b815260040180806020018281038252602781526020018061016e6027913960400191505060405180910390fd5b806001600160a01b031663c1e803346040518163ffffffff1660e01b8152600401602060405180830381600087803b15801561013e57600080fd5b505af1158015610152573d6000803e3d6000fd5b505050506040513d602081101561016857600080fd5b50505056fe6f6e6c7920756e6974726f6c6c65722061646d696e2063616e206368616e676520627261696e73a265627a7a723158202260da42374d8215950ceeee32166ac83a8d36c906378ffb5acd799a607e9eef64736f6c63430005100032",
  "linkReferences": {},
  "deployedLinkReferences": {}
}