{
  "_format": "hh-sol-artifact-1",
  "contractName": "ComptrollerHarness",
  "sourceName": "contracts/test/ComptrollerHarness.sol",
  "abi": [
    {
      "inputs": [],
      "payable": false,
      "stateMutability": "nonpayable",
      "type": "constructor"
    },
    {
      "anonymous": false,
      "inputs": [
        {
          "indexed": false,
          "internalType": "string",
          "name": "action",
          "type": "string"
        },
        {
          "indexed": false,
          "internalType": "bool",
          "name": "pauseState",
          "type": "bool"
        }
      ],
      "name": "ActionPaused",
      "type": "event"
    },
    {
      "anonymous": false,
      "inputs": [
        {
          "indexed": false,
          "internalType": "contract VToken",
          "name": "vToken",
          "type": "address"
        },
        {
          "indexed": false,
          "internalType": "enum ComptrollerV9Storage.Action",
          "name": "action",
          "type": "uint8"
        },
        {
          "indexed": false,
          "internalType": "bool",
          "name": "pauseState",
          "type": "bool"
        }
      ],
      "name": "ActionPausedMarket",
      "type": "event"
    },
    {
      "anonymous": false,
      "inputs": [
        {
          "indexed": false,
          "internalType": "bool",
          "name": "state",
          "type": "bool"
        }
      ],
      "name": "ActionProtocolPaused",
      "type": "event"
    },
    {
      "anonymous": false,
      "inputs": [
        {
          "indexed": true,
          "internalType": "contract VToken",
          "name": "vToken",
          "type": "address"
        },
        {
          "indexed": true,
          "internalType": "address",
          "name": "borrower",
          "type": "address"
        },
        {
          "indexed": false,
          "internalType": "uint256",
          "name": "venusDelta",
          "type": "uint256"
        },
        {
          "indexed": false,
          "internalType": "uint256",
          "name": "venusBorrowIndex",
          "type": "uint256"
        }
      ],
      "name": "DistributedBorrowerVenus",
      "type": "event"
    },
    {
      "anonymous": false,
      "inputs": [
        {
          "indexed": true,
          "internalType": "contract VToken",
          "name": "vToken",
          "type": "address"
        },
        {
          "indexed": true,
          "internalType": "address",
          "name": "supplier",
          "type": "address"
        },
        {
          "indexed": false,
          "internalType": "uint256",
          "name": "venusDelta",
          "type": "uint256"
        },
        {
          "indexed": false,
          "internalType": "uint256",
          "name": "venusSupplyIndex",
          "type": "uint256"
        }
      ],
      "name": "DistributedSupplierVenus",
      "type": "event"
    },
    {
      "anonymous": false,
      "inputs": [
        {
          "indexed": false,
          "internalType": "uint256",
          "name": "amount",
          "type": "uint256"
        }
      ],
      "name": "DistributedVAIVaultVenus",
      "type": "event"
    },
    {
      "anonymous": false,
      "inputs": [
        {
          "indexed": false,
          "internalType": "uint256",
          "name": "error",
          "type": "uint256"
        },
        {
          "indexed": false,
          "internalType": "uint256",
          "name": "info",
          "type": "uint256"
        },
        {
          "indexed": false,
          "internalType": "uint256",
          "name": "detail",
          "type": "uint256"
        }
      ],
      "name": "Failure",
      "type": "event"
    },
    {
      "anonymous": false,
      "inputs": [
        {
          "indexed": false,
          "internalType": "contract VToken",
          "name": "vToken",
          "type": "address"
        },
        {
          "indexed": false,
          "internalType": "address",
          "name": "account",
          "type": "address"
        }
      ],
      "name": "MarketEntered",
      "type": "event"
    },
    {
      "anonymous": false,
      "inputs": [
        {
          "indexed": false,
          "internalType": "contract VToken",
          "name": "vToken",
          "type": "address"
        },
        {
          "indexed": false,
          "internalType": "address",
          "name": "account",
          "type": "address"
        }
      ],
      "name": "MarketExited",
      "type": "event"
    },
    {
      "anonymous": false,
      "inputs": [
        {
          "indexed": false,
          "internalType": "contract VToken",
          "name": "vToken",
          "type": "address"
        }
      ],
      "name": "MarketListed",
      "type": "event"
    },
    {
      "anonymous": false,
      "inputs": [
        {
          "indexed": false,
          "internalType": "address",
          "name": "oldAccessControlAddress",
          "type": "address"
        },
        {
          "indexed": false,
          "internalType": "address",
          "name": "newAccessControlAddress",
          "type": "address"
        }
      ],
      "name": "NewAccessControl",
      "type": "event"
    },
    {
      "anonymous": false,
      "inputs": [
        {
          "indexed": true,
          "internalType": "contract VToken",
          "name": "vToken",
          "type": "address"
        },
        {
          "indexed": false,
          "internalType": "uint256",
          "name": "newBorrowCap",
          "type": "uint256"
        }
      ],
      "name": "NewBorrowCap",
      "type": "event"
    },
    {
      "anonymous": false,
      "inputs": [
        {
          "indexed": false,
          "internalType": "uint256",
          "name": "oldCloseFactorMantissa",
          "type": "uint256"
        },
        {
          "indexed": false,
          "internalType": "uint256",
          "name": "newCloseFactorMantissa",
          "type": "uint256"
        }
      ],
      "name": "NewCloseFactor",
      "type": "event"
    },
    {
      "anonymous": false,
      "inputs": [
        {
          "indexed": false,
          "internalType": "contract VToken",
          "name": "vToken",
          "type": "address"
        },
        {
          "indexed": false,
          "internalType": "uint256",
          "name": "oldCollateralFactorMantissa",
          "type": "uint256"
        },
        {
          "indexed": false,
          "internalType": "uint256",
          "name": "newCollateralFactorMantissa",
          "type": "uint256"
        }
      ],
      "name": "NewCollateralFactor",
      "type": "event"
    },
    {
      "anonymous": false,
      "inputs": [
        {
          "indexed": false,
          "internalType": "address",
          "name": "oldComptrollerLens",
          "type": "address"
        },
        {
          "indexed": false,
          "internalType": "address",
          "name": "newComptrollerLens",
          "type": "address"
        }
      ],
      "name": "NewComptrollerLens",
      "type": "event"
    },
    {
      "anonymous": false,
      "inputs": [
        {
          "indexed": false,
          "internalType": "uint256",
          "name": "oldLiquidationIncentiveMantissa",
          "type": "uint256"
        },
        {
          "indexed": false,
          "internalType": "uint256",
          "name": "newLiquidationIncentiveMantissa",
          "type": "uint256"
        }
      ],
      "name": "NewLiquidationIncentive",
      "type": "event"
    },
    {
      "anonymous": false,
      "inputs": [
        {
          "indexed": false,
          "internalType": "address",
          "name": "oldLiquidatorContract",
          "type": "address"
        },
        {
          "indexed": false,
          "internalType": "address",
          "name": "newLiquidatorContract",
          "type": "address"
        }
      ],
      "name": "NewLiquidatorContract",
      "type": "event"
    },
    {
      "anonymous": false,
      "inputs": [
        {
          "indexed": false,
          "internalType": "address",
          "name": "oldPauseGuardian",
          "type": "address"
        },
        {
          "indexed": false,
          "internalType": "address",
          "name": "newPauseGuardian",
          "type": "address"
        }
      ],
      "name": "NewPauseGuardian",
      "type": "event"
    },
    {
      "anonymous": false,
      "inputs": [
        {
          "indexed": false,
          "internalType": "contract PriceOracle",
          "name": "oldPriceOracle",
          "type": "address"
        },
        {
          "indexed": false,
          "internalType": "contract PriceOracle",
          "name": "newPriceOracle",
          "type": "address"
        }
      ],
      "name": "NewPriceOracle",
      "type": "event"
    },
    {
      "anonymous": false,
      "inputs": [
        {
          "indexed": true,
          "internalType": "contract VToken",
          "name": "vToken",
          "type": "address"
        },
        {
          "indexed": false,
          "internalType": "uint256",
          "name": "newSupplyCap",
          "type": "uint256"
        }
      ],
      "name": "NewSupplyCap",
      "type": "event"
    },
    {
      "anonymous": false,
      "inputs": [
        {
          "indexed": false,
          "internalType": "address",
          "name": "oldTreasuryAddress",
          "type": "address"
        },
        {
          "indexed": false,
          "internalType": "address",
          "name": "newTreasuryAddress",
          "type": "address"
        }
      ],
      "name": "NewTreasuryAddress",
      "type": "event"
    },
    {
      "anonymous": false,
      "inputs": [
        {
          "indexed": false,
          "internalType": "address",
          "name": "oldTreasuryGuardian",
          "type": "address"
        },
        {
          "indexed": false,
          "internalType": "address",
          "name": "newTreasuryGuardian",
          "type": "address"
        }
      ],
      "name": "NewTreasuryGuardian",
      "type": "event"
    },
    {
      "anonymous": false,
      "inputs": [
        {
          "indexed": false,
          "internalType": "uint256",
          "name": "oldTreasuryPercent",
          "type": "uint256"
        },
        {
          "indexed": false,
          "internalType": "uint256",
          "name": "newTreasuryPercent",
          "type": "uint256"
        }
      ],
      "name": "NewTreasuryPercent",
      "type": "event"
    },
    {
      "anonymous": false,
      "inputs": [
        {
          "indexed": false,
          "internalType": "contract VAIControllerInterface",
          "name": "oldVAIController",
          "type": "address"
        },
        {
          "indexed": false,
          "internalType": "contract VAIControllerInterface",
          "name": "newVAIController",
          "type": "address"
        }
      ],
      "name": "NewVAIController",
      "type": "event"
    },
    {
      "anonymous": false,
      "inputs": [
        {
          "indexed": false,
          "internalType": "uint256",
          "name": "oldVAIMintRate",
          "type": "uint256"
        },
        {
          "indexed": false,
          "internalType": "uint256",
          "name": "newVAIMintRate",
          "type": "uint256"
        }
      ],
      "name": "NewVAIMintRate",
      "type": "event"
    },
    {
      "anonymous": false,
      "inputs": [
        {
          "indexed": false,
          "internalType": "address",
          "name": "vault_",
          "type": "address"
        },
        {
          "indexed": false,
          "internalType": "uint256",
          "name": "releaseStartBlock_",
          "type": "uint256"
        },
        {
          "indexed": false,
          "internalType": "uint256",
          "name": "releaseInterval_",
          "type": "uint256"
        }
      ],
      "name": "NewVAIVaultInfo",
      "type": "event"
    },
    {
      "anonymous": false,
      "inputs": [
        {
          "indexed": false,
          "internalType": "uint256",
          "name": "oldVenusVAIVaultRate",
          "type": "uint256"
        },
        {
          "indexed": false,
          "internalType": "uint256",
          "name": "newVenusVAIVaultRate",
          "type": "uint256"
        }
      ],
      "name": "NewVenusVAIVaultRate",
      "type": "event"
    },
    {
      "anonymous": false,
      "inputs": [
        {
          "indexed": false,
          "internalType": "address",
          "name": "recipient",
          "type": "address"
        },
        {
          "indexed": false,
          "internalType": "uint256",
          "name": "amount",
          "type": "uint256"
        }
      ],
      "name": "VenusGranted",
      "type": "event"
    },
    {
      "anonymous": false,
      "inputs": [
        {
          "indexed": true,
          "internalType": "contract VToken",
          "name": "vToken",
          "type": "address"
        },
        {
          "indexed": false,
          "internalType": "uint256",
          "name": "newSpeed",
          "type": "uint256"
        }
      ],
      "name": "VenusSpeedUpdated",
      "type": "event"
    },
    {
      "constant": false,
      "inputs": [
        {
          "internalType": "contract Unitroller",
          "name": "unitroller",
          "type": "address"
        }
      ],
      "name": "_become",
      "outputs": [],
      "payable": false,
      "stateMutability": "nonpayable",
      "type": "function"
    },
    {
      "constant": false,
      "inputs": [
        {
          "internalType": "address",
          "name": "recipient",
          "type": "address"
        },
        {
          "internalType": "uint256",
          "name": "amount",
          "type": "uint256"
        }
      ],
      "name": "_grantXVS",
      "outputs": [],
      "payable": false,
      "stateMutability": "nonpayable",
      "type": "function"
    },
    {
      "constant": false,
      "inputs": [
        {
          "internalType": "address",
          "name": "newAccessControlAddress",
          "type": "address"
        }
      ],
      "name": "_setAccessControl",
      "outputs": [
        {
          "internalType": "uint256",
          "name": "",
          "type": "uint256"
        }
      ],
      "payable": false,
      "stateMutability": "nonpayable",
      "type": "function"
    },
    {
      "constant": false,
      "inputs": [
        {
          "internalType": "address[]",
          "name": "markets",
          "type": "address[]"
        },
        {
          "internalType": "enum ComptrollerV9Storage.Action[]",
          "name": "actions",
          "type": "uint8[]"
        },
        {
          "internalType": "bool",
          "name": "paused",
          "type": "bool"
        }
      ],
      "name": "_setActionsPaused",
      "outputs": [],
      "payable": false,
      "stateMutability": "nonpayable",
      "type": "function"
    },
    {
      "constant": false,
      "inputs": [
        {
          "internalType": "uint256",
          "name": "newCloseFactorMantissa",
          "type": "uint256"
        }
      ],
      "name": "_setCloseFactor",
      "outputs": [
        {
          "internalType": "uint256",
          "name": "",
          "type": "uint256"
        }
      ],
      "payable": false,
      "stateMutability": "nonpayable",
      "type": "function"
    },
    {
      "constant": false,
      "inputs": [
        {
          "internalType": "contract VToken",
          "name": "vToken",
          "type": "address"
        },
        {
          "internalType": "uint256",
          "name": "newCollateralFactorMantissa",
          "type": "uint256"
        }
      ],
      "name": "_setCollateralFactor",
      "outputs": [
        {
          "internalType": "uint256",
          "name": "",
          "type": "uint256"
        }
      ],
      "payable": false,
      "stateMutability": "nonpayable",
      "type": "function"
    },
    {
      "constant": false,
      "inputs": [
        {
          "internalType": "contract ComptrollerLensInterface",
          "name": "comptrollerLens_",
          "type": "address"
        }
      ],
      "name": "_setComptrollerLens",
      "outputs": [
        {
          "internalType": "uint256",
          "name": "",
          "type": "uint256"
        }
      ],
      "payable": false,
      "stateMutability": "nonpayable",
      "type": "function"
    },
    {
      "constant": false,
      "inputs": [
        {
          "internalType": "uint256",
          "name": "newLiquidationIncentiveMantissa",
          "type": "uint256"
        }
      ],
      "name": "_setLiquidationIncentive",
      "outputs": [
        {
          "internalType": "uint256",
          "name": "",
          "type": "uint256"
        }
      ],
      "payable": false,
      "stateMutability": "nonpayable",
      "type": "function"
    },
    {
      "constant": false,
      "inputs": [
        {
          "internalType": "address",
          "name": "newLiquidatorContract_",
          "type": "address"
        }
      ],
      "name": "_setLiquidatorContract",
      "outputs": [],
      "payable": false,
      "stateMutability": "nonpayable",
      "type": "function"
    },
    {
      "constant": false,
      "inputs": [
        {
          "internalType": "contract VToken[]",
          "name": "vTokens",
          "type": "address[]"
        },
        {
          "internalType": "uint256[]",
          "name": "newBorrowCaps",
          "type": "uint256[]"
        }
      ],
      "name": "_setMarketBorrowCaps",
      "outputs": [],
      "payable": false,
      "stateMutability": "nonpayable",
      "type": "function"
    },
    {
      "constant": false,
      "inputs": [
        {
          "internalType": "contract VToken[]",
          "name": "vTokens",
          "type": "address[]"
        },
        {
          "internalType": "uint256[]",
          "name": "newSupplyCaps",
          "type": "uint256[]"
        }
      ],
      "name": "_setMarketSupplyCaps",
      "outputs": [],
      "payable": false,
      "stateMutability": "nonpayable",
      "type": "function"
    },
    {
      "constant": false,
      "inputs": [
        {
          "internalType": "address",
          "name": "newPauseGuardian",
          "type": "address"
        }
      ],
      "name": "_setPauseGuardian",
      "outputs": [
        {
          "internalType": "uint256",
          "name": "",
          "type": "uint256"
        }
      ],
      "payable": false,
      "stateMutability": "nonpayable",
      "type": "function"
    },
    {
      "constant": false,
      "inputs": [
        {
          "internalType": "contract PriceOracle",
          "name": "newOracle",
          "type": "address"
        }
      ],
      "name": "_setPriceOracle",
      "outputs": [
        {
          "internalType": "uint256",
          "name": "",
          "type": "uint256"
        }
      ],
      "payable": false,
      "stateMutability": "nonpayable",
      "type": "function"
    },
    {
      "constant": false,
      "inputs": [
        {
          "internalType": "bool",
          "name": "state",
          "type": "bool"
        }
      ],
      "name": "_setProtocolPaused",
      "outputs": [
        {
          "internalType": "bool",
          "name": "",
          "type": "bool"
        }
      ],
      "payable": false,
      "stateMutability": "nonpayable",
      "type": "function"
    },
    {
      "constant": false,
      "inputs": [
        {
          "internalType": "address",
          "name": "newTreasuryGuardian",
          "type": "address"
        },
        {
          "internalType": "address",
          "name": "newTreasuryAddress",
          "type": "address"
        },
        {
          "internalType": "uint256",
          "name": "newTreasuryPercent",
          "type": "uint256"
        }
      ],
      "name": "_setTreasuryData",
      "outputs": [
        {
          "internalType": "uint256",
          "name": "",
          "type": "uint256"
        }
      ],
      "payable": false,
      "stateMutability": "nonpayable",
      "type": "function"
    },
    {
      "constant": false,
      "inputs": [
        {
          "internalType": "contract VAIControllerInterface",
          "name": "vaiController_",
          "type": "address"
        }
      ],
      "name": "_setVAIController",
      "outputs": [
        {
          "internalType": "uint256",
          "name": "",
          "type": "uint256"
        }
      ],
      "payable": false,
      "stateMutability": "nonpayable",
      "type": "function"
    },
    {
      "constant": false,
      "inputs": [
        {
          "internalType": "uint256",
          "name": "newVAIMintRate",
          "type": "uint256"
        }
      ],
      "name": "_setVAIMintRate",
      "outputs": [
        {
          "internalType": "uint256",
          "name": "",
          "type": "uint256"
        }
      ],
      "payable": false,
      "stateMutability": "nonpayable",
      "type": "function"
    },
    {
      "constant": false,
      "inputs": [
        {
          "internalType": "address",
          "name": "vault_",
          "type": "address"
        },
        {
          "internalType": "uint256",
          "name": "releaseStartBlock_",
          "type": "uint256"
        },
        {
          "internalType": "uint256",
          "name": "minReleaseAmount_",
          "type": "uint256"
        }
      ],
      "name": "_setVAIVaultInfo",
      "outputs": [],
      "payable": false,
      "stateMutability": "nonpayable",
      "type": "function"
    },
    {
      "constant": false,
      "inputs": [
        {
          "internalType": "contract VToken",
          "name": "vToken",
          "type": "address"
        },
        {
          "internalType": "uint256",
          "name": "venusSpeed",
          "type": "uint256"
        }
      ],
      "name": "_setVenusSpeed",
      "outputs": [],
      "payable": false,
      "stateMutability": "nonpayable",
      "type": "function"
    },
    {
      "constant": false,
      "inputs": [
        {
          "internalType": "uint256",
          "name": "venusVAIVaultRate_",
          "type": "uint256"
        }
      ],
      "name": "_setVenusVAIVaultRate",
      "outputs": [],
      "payable": false,
      "stateMutability": "nonpayable",
      "type": "function"
    },
    {
      "constant": false,
      "inputs": [
        {
          "internalType": "contract VToken",
          "name": "vToken",
          "type": "address"
        }
      ],
      "name": "_supportMarket",
      "outputs": [
        {
          "internalType": "uint256",
          "name": "",
          "type": "uint256"
        }
      ],
      "payable": false,
      "stateMutability": "nonpayable",
      "type": "function"
    },
    {
      "constant": true,
      "inputs": [
        {
          "internalType": "address",
          "name": "",
          "type": "address"
        },
        {
          "internalType": "uint256",
          "name": "",
          "type": "uint256"
        }
      ],
      "name": "accountAssets",
      "outputs": [
        {
          "internalType": "contract VToken",
          "name": "",
          "type": "address"
        }
      ],
      "payable": false,
      "stateMutability": "view",
      "type": "function"
    },
    {
      "constant": true,
      "inputs": [
        {
          "internalType": "address",
          "name": "market",
          "type": "address"
        },
        {
          "internalType": "enum ComptrollerV9Storage.Action",
          "name": "action",
          "type": "uint8"
        }
      ],
      "name": "actionPaused",
      "outputs": [
        {
          "internalType": "bool",
          "name": "",
          "type": "bool"
        }
      ],
      "payable": false,
      "stateMutability": "view",
      "type": "function"
    },
    {
      "constant": true,
      "inputs": [],
      "name": "admin",
      "outputs": [
        {
          "internalType": "address",
          "name": "",
          "type": "address"
        }
      ],
      "payable": false,
      "stateMutability": "view",
      "type": "function"
    },
    {
      "constant": true,
      "inputs": [
        {
          "internalType": "uint256",
          "name": "",
          "type": "uint256"
        }
      ],
      "name": "allMarkets",
      "outputs": [
        {
          "internalType": "contract VToken",
          "name": "",
          "type": "address"
        }
      ],
      "payable": false,
      "stateMutability": "view",
      "type": "function"
    },
    {
      "constant": true,
      "inputs": [],
      "name": "blockNumber",
      "outputs": [
        {
          "internalType": "uint256",
          "name": "",
          "type": "uint256"
        }
      ],
      "payable": false,
      "stateMutability": "view",
      "type": "function"
    },
    {
      "constant": false,
      "inputs": [
        {
          "internalType": "address",
          "name": "vToken",
          "type": "address"
        },
        {
          "internalType": "address",
          "name": "borrower",
          "type": "address"
        },
        {
          "internalType": "uint256",
          "name": "borrowAmount",
          "type": "uint256"
        }
      ],
      "name": "borrowAllowed",
      "outputs": [
        {
          "internalType": "uint256",
          "name": "",
          "type": "uint256"
        }
      ],
      "payable": false,
      "stateMutability": "nonpayable",
      "type": "function"
    },
    {
      "constant": true,
      "inputs": [],
      "name": "borrowCapGuardian",
      "outputs": [
        {
          "internalType": "address",
          "name": "",
          "type": "address"
        }
      ],
      "payable": false,
      "stateMutability": "view",
      "type": "function"
    },
    {
      "constant": true,
      "inputs": [
        {
          "internalType": "address",
          "name": "",
          "type": "address"
        }
      ],
      "name": "borrowCaps",
      "outputs": [
        {
          "internalType": "uint256",
          "name": "",
          "type": "uint256"
        }
      ],
      "payable": false,
      "stateMutability": "view",
      "type": "function"
    },
    {
      "constant": false,
      "inputs": [
        {
          "internalType": "address",
          "name": "vToken",
          "type": "address"
        },
        {
          "internalType": "address",
          "name": "borrower",
          "type": "address"
        },
        {
          "internalType": "uint256",
          "name": "borrowAmount",
          "type": "uint256"
        }
      ],
      "name": "borrowVerify",
      "outputs": [],
      "payable": false,
      "stateMutability": "nonpayable",
      "type": "function"
    },
    {
      "constant": true,
      "inputs": [
        {
          "internalType": "address",
          "name": "account",
          "type": "address"
        },
        {
          "internalType": "contract VToken",
          "name": "vToken",
          "type": "address"
        }
      ],
      "name": "checkMembership",
      "outputs": [
        {
          "internalType": "bool",
          "name": "",
          "type": "bool"
        }
      ],
      "payable": false,
      "stateMutability": "view",
      "type": "function"
    },
    {
      "constant": false,
      "inputs": [
        {
          "internalType": "address[]",
          "name": "holders",
          "type": "address[]"
        },
        {
          "internalType": "contract VToken[]",
          "name": "vTokens",
          "type": "address[]"
        },
        {
          "internalType": "bool",
          "name": "borrowers",
          "type": "bool"
        },
        {
          "internalType": "bool",
          "name": "suppliers",
          "type": "bool"
        },
        {
          "internalType": "bool",
          "name": "collateral",
          "type": "bool"
        }
      ],
      "name": "claimVenus",
      "outputs": [],
      "payable": false,
      "stateMutability": "nonpayable",
      "type": "function"
    },
    {
      "constant": false,
      "inputs": [
        {
          "internalType": "address",
          "name": "holder",
          "type": "address"
        },
        {
          "internalType": "contract VToken[]",
          "name": "vTokens",
          "type": "address[]"
        }
      ],
      "name": "claimVenus",
      "outputs": [],
      "payable": false,
      "stateMutability": "nonpayable",
      "type": "function"
    },
    {
      "constant": false,
      "inputs": [
        {
          "internalType": "address",
          "name": "holder",
          "type": "address"
        }
      ],
      "name": "claimVenus",
      "outputs": [],
      "payable": false,
      "stateMutability": "nonpayable",
      "type": "function"
    },
    {
      "constant": false,
      "inputs": [
        {
          "internalType": "address[]",
          "name": "holders",
          "type": "address[]"
        },
        {
          "internalType": "contract VToken[]",
          "name": "vTokens",
          "type": "address[]"
        },
        {
          "internalType": "bool",
          "name": "borrowers",
          "type": "bool"
        },
        {
          "internalType": "bool",
          "name": "suppliers",
          "type": "bool"
        }
      ],
      "name": "claimVenus",
      "outputs": [],
      "payable": false,
      "stateMutability": "nonpayable",
      "type": "function"
    },
    {
      "constant": false,
      "inputs": [
        {
          "internalType": "address",
          "name": "holder",
          "type": "address"
        }
      ],
      "name": "claimVenusAsCollateral",
      "outputs": [],
      "payable": false,
      "stateMutability": "nonpayable",
      "type": "function"
    },
    {
      "constant": true,
      "inputs": [],
      "name": "closeFactorMantissa",
      "outputs": [
        {
          "internalType": "uint256",
          "name": "",
          "type": "uint256"
        }
      ],
      "payable": false,
      "stateMutability": "view",
      "type": "function"
    },
    {
      "constant": true,
      "inputs": [],
      "name": "comptrollerImplementation",
      "outputs": [
        {
          "internalType": "address",
          "name": "",
          "type": "address"
        }
      ],
      "payable": false,
      "stateMutability": "view",
      "type": "function"
    },
    {
      "constant": true,
      "inputs": [],
      "name": "comptrollerLens",
      "outputs": [
        {
          "internalType": "contract ComptrollerLensInterface",
          "name": "",
          "type": "address"
        }
      ],
      "payable": false,
      "stateMutability": "view",
      "type": "function"
    },
    {
      "constant": false,
      "inputs": [
        {
          "internalType": "address[]",
          "name": "vTokens",
          "type": "address[]"
        }
      ],
      "name": "enterMarkets",
      "outputs": [
        {
          "internalType": "uint256[]",
          "name": "",
          "type": "uint256[]"
        }
      ],
      "payable": false,
      "stateMutability": "nonpayable",
      "type": "function"
    },
    {
      "constant": false,
      "inputs": [
        {
          "internalType": "address",
          "name": "vTokenAddress",
          "type": "address"
        }
      ],
      "name": "exitMarket",
      "outputs": [
        {
          "internalType": "uint256",
          "name": "",
          "type": "uint256"
        }
      ],
      "payable": false,
      "stateMutability": "nonpayable",
      "type": "function"
    },
    {
      "constant": true,
      "inputs": [
        {
          "internalType": "address",
          "name": "account",
          "type": "address"
        }
      ],
      "name": "getAccountLiquidity",
      "outputs": [
        {
          "internalType": "uint256",
          "name": "",
          "type": "uint256"
        },
        {
          "internalType": "uint256",
          "name": "",
          "type": "uint256"
        },
        {
          "internalType": "uint256",
          "name": "",
          "type": "uint256"
        }
      ],
      "payable": false,
      "stateMutability": "view",
      "type": "function"
    },
    {
      "constant": true,
      "inputs": [],
      "name": "getAllMarkets",
      "outputs": [
        {
          "internalType": "contract VToken[]",
          "name": "",
          "type": "address[]"
        }
      ],
      "payable": false,
      "stateMutability": "view",
      "type": "function"
    },
    {
      "constant": true,
      "inputs": [
        {
          "internalType": "address",
          "name": "account",
          "type": "address"
        }
      ],
      "name": "getAssetsIn",
      "outputs": [
        {
          "internalType": "contract VToken[]",
          "name": "",
          "type": "address[]"
        }
      ],
      "payable": false,
      "stateMutability": "view",
      "type": "function"
    },
    {
      "constant": true,
      "inputs": [],
      "name": "getBlockNumber",
      "outputs": [
        {
          "internalType": "uint256",
          "name": "",
          "type": "uint256"
        }
      ],
      "payable": false,
      "stateMutability": "view",
      "type": "function"
    },
    {
      "constant": true,
      "inputs": [
        {
          "internalType": "address",
          "name": "account",
          "type": "address"
        },
        {
          "internalType": "address",
          "name": "vTokenModify",
          "type": "address"
        },
        {
          "internalType": "uint256",
          "name": "redeemTokens",
          "type": "uint256"
        },
        {
          "internalType": "uint256",
          "name": "borrowAmount",
          "type": "uint256"
        }
      ],
      "name": "getHypotheticalAccountLiquidity",
      "outputs": [
        {
          "internalType": "uint256",
          "name": "",
          "type": "uint256"
        },
        {
          "internalType": "uint256",
          "name": "",
          "type": "uint256"
        },
        {
          "internalType": "uint256",
          "name": "",
          "type": "uint256"
        }
      ],
      "payable": false,
      "stateMutability": "view",
      "type": "function"
    },
    {
      "constant": true,
      "inputs": [],
      "name": "getVenusMarkets",
      "outputs": [
        {
          "internalType": "address[]",
          "name": "",
          "type": "address[]"
        }
      ],
      "payable": false,
      "stateMutability": "view",
      "type": "function"
    },
    {
      "constant": true,
      "inputs": [],
      "name": "getXVSAddress",
      "outputs": [
        {
          "internalType": "address",
          "name": "",
          "type": "address"
        }
      ],
      "payable": false,
      "stateMutability": "view",
      "type": "function"
    },
    {
      "constant": true,
      "inputs": [],
      "name": "getXVSVTokenAddress",
      "outputs": [
        {
          "internalType": "address",
          "name": "",
          "type": "address"
        }
      ],
      "payable": false,
      "stateMutability": "view",
      "type": "function"
    },
    {
      "constant": false,
      "inputs": [
        {
          "internalType": "address[]",
          "name": "vTokens",
          "type": "address[]"
        }
      ],
      "name": "harnessAddVenusMarkets",
      "outputs": [],
      "payable": false,
      "stateMutability": "nonpayable",
      "type": "function"
    },
    {
      "constant": false,
      "inputs": [
        {
          "internalType": "address",
          "name": "vToken",
          "type": "address"
        },
        {
          "internalType": "address",
          "name": "borrower",
          "type": "address"
        },
        {
          "internalType": "uint256",
          "name": "marketBorrowIndexMantissa",
          "type": "uint256"
        }
      ],
      "name": "harnessDistributeAllBorrowerVenus",
      "outputs": [],
      "payable": false,
      "stateMutability": "nonpayable",
      "type": "function"
    },
    {
      "constant": false,
      "inputs": [
        {
          "internalType": "address",
          "name": "vToken",
          "type": "address"
        },
        {
          "internalType": "address",
          "name": "supplier",
          "type": "address"
        }
      ],
      "name": "harnessDistributeAllSupplierVenus",
      "outputs": [],
      "payable": false,
      "stateMutability": "nonpayable",
      "type": "function"
    },
    {
      "constant": false,
      "inputs": [
        {
          "internalType": "address",
          "name": "vToken",
          "type": "address"
        },
        {
          "internalType": "address",
          "name": "borrower",
          "type": "address"
        },
        {
          "internalType": "uint256",
          "name": "marketBorrowIndexMantissa",
          "type": "uint256"
        }
      ],
      "name": "harnessDistributeBorrowerVenus",
      "outputs": [],
      "payable": false,
      "stateMutability": "nonpayable",
      "type": "function"
    },
    {
      "constant": false,
      "inputs": [
        {
          "internalType": "address",
          "name": "vToken",
          "type": "address"
        },
        {
          "internalType": "address",
          "name": "supplier",
          "type": "address"
        }
      ],
      "name": "harnessDistributeSupplierVenus",
      "outputs": [],
      "payable": false,
      "stateMutability": "nonpayable",
      "type": "function"
    },
    {
      "constant": false,
      "inputs": [
        {
          "internalType": "uint256",
          "name": "blocks",
          "type": "uint256"
        }
      ],
      "name": "harnessFastForward",
      "outputs": [
        {
          "internalType": "uint256",
          "name": "",
          "type": "uint256"
        }
      ],
      "payable": false,
      "stateMutability": "nonpayable",
      "type": "function"
    },
    {
      "constant": false,
      "inputs": [],
      "name": "harnessRefreshVenusSpeeds",
      "outputs": [],
      "payable": false,
      "stateMutability": "nonpayable",
      "type": "function"
    },
    {
      "constant": false,
      "inputs": [
        {
          "internalType": "address",
          "name": "user",
          "type": "address"
        },
        {
          "internalType": "uint256",
          "name": "amount",
          "type": "uint256"
        }
      ],
      "name": "harnessSetMintedVAIs",
      "outputs": [],
      "payable": false,
      "stateMutability": "nonpayable",
      "type": "function"
    },
    {
      "constant": false,
      "inputs": [
        {
          "internalType": "uint256",
          "name": "startBlock",
          "type": "uint256"
        }
      ],
      "name": "harnessSetReleaseStartBlock",
      "outputs": [],
      "payable": false,
      "stateMutability": "nonpayable",
      "type": "function"
    },
    {
      "constant": false,
      "inputs": [
        {
          "internalType": "uint256",
          "name": "venusRate_",
          "type": "uint256"
        }
      ],
      "name": "harnessSetVenusRate",
      "outputs": [],
      "payable": false,
      "stateMutability": "nonpayable",
      "type": "function"
    },
    {
      "constant": false,
      "inputs": [
        {
          "internalType": "address",
          "name": "user",
          "type": "address"
        },
        {
          "internalType": "uint256",
          "name": "userAccrued",
          "type": "uint256"
        },
        {
          "internalType": "uint256",
          "name": "threshold",
          "type": "uint256"
        }
      ],
      "name": "harnessTransferVenus",
      "outputs": [
        {
          "internalType": "uint256",
          "name": "",
          "type": "uint256"
        }
      ],
      "payable": false,
      "stateMutability": "nonpayable",
      "type": "function"
    },
    {
      "constant": false,
      "inputs": [
        {
          "internalType": "address",
          "name": "vToken",
          "type": "address"
        },
        {
          "internalType": "uint256",
          "name": "marketBorrowIndexMantissa",
          "type": "uint256"
        }
      ],
      "name": "harnessUpdateVenusBorrowIndex",
      "outputs": [],
      "payable": false,
      "stateMutability": "nonpayable",
      "type": "function"
    },
    {
      "constant": false,
      "inputs": [
        {
          "internalType": "address",
          "name": "vToken",
          "type": "address"
        }
      ],
      "name": "harnessUpdateVenusSupplyIndex",
      "outputs": [],
      "payable": false,
      "stateMutability": "nonpayable",
      "type": "function"
    },
    {
      "constant": true,
      "inputs": [],
      "name": "isComptroller",
      "outputs": [
        {
          "internalType": "bool",
          "name": "",
          "type": "bool"
        }
      ],
      "payable": false,
      "stateMutability": "view",
      "type": "function"
    },
    {
      "constant": false,
      "inputs": [
        {
          "internalType": "address",
          "name": "vTokenBorrowed",
          "type": "address"
        },
        {
          "internalType": "address",
          "name": "vTokenCollateral",
          "type": "address"
        },
        {
          "internalType": "address",
          "name": "liquidator",
          "type": "address"
        },
        {
          "internalType": "address",
          "name": "borrower",
          "type": "address"
        },
        {
          "internalType": "uint256",
          "name": "repayAmount",
          "type": "uint256"
        }
      ],
      "name": "liquidateBorrowAllowed",
      "outputs": [
        {
          "internalType": "uint256",
          "name": "",
          "type": "uint256"
        }
      ],
      "payable": false,
      "stateMutability": "nonpayable",
      "type": "function"
    },
    {
      "constant": false,
      "inputs": [
        {
          "internalType": "address",
          "name": "vTokenBorrowed",
          "type": "address"
        },
        {
          "internalType": "address",
          "name": "vTokenCollateral",
          "type": "address"
        },
        {
          "internalType": "address",
          "name": "liquidator",
          "type": "address"
        },
        {
          "internalType": "address",
          "name": "borrower",
          "type": "address"
        },
        {
          "internalType": "uint256",
          "name": "actualRepayAmount",
          "type": "uint256"
        },
        {
          "internalType": "uint256",
          "name": "seizeTokens",
          "type": "uint256"
        }
      ],
      "name": "liquidateBorrowVerify",
      "outputs": [],
      "payable": false,
      "stateMutability": "nonpayable",
      "type": "function"
    },
    {
      "constant": true,
      "inputs": [
        {
          "internalType": "address",
          "name": "vTokenBorrowed",
          "type": "address"
        },
        {
          "internalType": "address",
          "name": "vTokenCollateral",
          "type": "address"
        },
        {
          "internalType": "uint256",
          "name": "actualRepayAmount",
          "type": "uint256"
        }
      ],
      "name": "liquidateCalculateSeizeTokens",
      "outputs": [
        {
          "internalType": "uint256",
          "name": "",
          "type": "uint256"
        },
        {
          "internalType": "uint256",
          "name": "",
          "type": "uint256"
        }
      ],
      "payable": false,
      "stateMutability": "view",
      "type": "function"
    },
    {
      "constant": true,
      "inputs": [
        {
          "internalType": "address",
          "name": "vTokenCollateral",
          "type": "address"
        },
        {
          "internalType": "uint256",
          "name": "actualRepayAmount",
          "type": "uint256"
        }
      ],
      "name": "liquidateVAICalculateSeizeTokens",
      "outputs": [
        {
          "internalType": "uint256",
          "name": "",
          "type": "uint256"
        },
        {
          "internalType": "uint256",
          "name": "",
          "type": "uint256"
        }
      ],
      "payable": false,
      "stateMutability": "view",
      "type": "function"
    },
    {
      "constant": true,
      "inputs": [],
      "name": "liquidationIncentiveMantissa",
      "outputs": [
        {
          "internalType": "uint256",
          "name": "",
          "type": "uint256"
        }
      ],
      "payable": false,
      "stateMutability": "view",
      "type": "function"
    },
    {
      "constant": true,
      "inputs": [],
      "name": "liquidatorContract",
      "outputs": [
        {
          "internalType": "address",
          "name": "",
          "type": "address"
        }
      ],
      "payable": false,
      "stateMutability": "view",
      "type": "function"
    },
    {
      "constant": true,
      "inputs": [
        {
          "internalType": "address",
          "name": "",
          "type": "address"
        }
      ],
      "name": "markets",
      "outputs": [
        {
          "internalType": "bool",
          "name": "isListed",
          "type": "bool"
        },
        {
          "internalType": "uint256",
          "name": "collateralFactorMantissa",
          "type": "uint256"
        },
        {
          "internalType": "bool",
          "name": "isVenus",
          "type": "bool"
        }
      ],
      "payable": false,
      "stateMutability": "view",
      "type": "function"
    },
    {
      "constant": true,
      "inputs": [],
      "name": "maxAssets",
      "outputs": [
        {
          "internalType": "uint256",
          "name": "",
          "type": "uint256"
        }
      ],
      "payable": false,
      "stateMutability": "view",
      "type": "function"
    },
    {
      "constant": true,
      "inputs": [],
      "name": "minReleaseAmount",
      "outputs": [
        {
          "internalType": "uint256",
          "name": "",
          "type": "uint256"
        }
      ],
      "payable": false,
      "stateMutability": "view",
      "type": "function"
    },
    {
      "constant": false,
      "inputs": [
        {
          "internalType": "address",
          "name": "vToken",
          "type": "address"
        },
        {
          "internalType": "address",
          "name": "minter",
          "type": "address"
        },
        {
          "internalType": "uint256",
          "name": "mintAmount",
          "type": "uint256"
        }
      ],
      "name": "mintAllowed",
      "outputs": [
        {
          "internalType": "uint256",
          "name": "",
          "type": "uint256"
        }
      ],
      "payable": false,
      "stateMutability": "nonpayable",
      "type": "function"
    },
    {
      "constant": true,
      "inputs": [],
      "name": "mintVAIGuardianPaused",
      "outputs": [
        {
          "internalType": "bool",
          "name": "",
          "type": "bool"
        }
      ],
      "payable": false,
      "stateMutability": "view",
      "type": "function"
    },
    {
      "constant": false,
      "inputs": [
        {
          "internalType": "address",
          "name": "vToken",
          "type": "address"
        },
        {
          "internalType": "address",
          "name": "minter",
          "type": "address"
        },
        {
          "internalType": "uint256",
          "name": "actualMintAmount",
          "type": "uint256"
        },
        {
          "internalType": "uint256",
          "name": "mintTokens",
          "type": "uint256"
        }
      ],
      "name": "mintVerify",
      "outputs": [],
      "payable": false,
      "stateMutability": "nonpayable",
      "type": "function"
    },
    {
      "constant": true,
      "inputs": [
        {
          "internalType": "address",
          "name": "",
          "type": "address"
        }
      ],
      "name": "mintedVAIs",
      "outputs": [
        {
          "internalType": "uint256",
          "name": "",
          "type": "uint256"
        }
      ],
      "payable": false,
      "stateMutability": "view",
      "type": "function"
    },
    {
      "constant": true,
      "inputs": [],
      "name": "oracle",
      "outputs": [
        {
          "internalType": "contract PriceOracle",
          "name": "",
          "type": "address"
        }
      ],
      "payable": false,
      "stateMutability": "view",
      "type": "function"
    },
    {
      "constant": true,
      "inputs": [],
      "name": "pauseGuardian",
      "outputs": [
        {
          "internalType": "address",
          "name": "",
          "type": "address"
        }
      ],
      "payable": false,
      "stateMutability": "view",
      "type": "function"
    },
    {
      "constant": true,
      "inputs": [],
      "name": "pendingAdmin",
      "outputs": [
        {
          "internalType": "address",
          "name": "",
          "type": "address"
        }
      ],
      "payable": false,
      "stateMutability": "view",
      "type": "function"
    },
    {
      "constant": true,
      "inputs": [],
      "name": "pendingComptrollerImplementation",
      "outputs": [
        {
          "internalType": "address",
          "name": "",
          "type": "address"
        }
      ],
      "payable": false,
      "stateMutability": "view",
      "type": "function"
    },
    {
      "constant": true,
      "inputs": [],
      "name": "protocolPaused",
      "outputs": [
        {
          "internalType": "bool",
          "name": "",
          "type": "bool"
        }
      ],
      "payable": false,
      "stateMutability": "view",
      "type": "function"
    },
    {
      "constant": false,
      "inputs": [
        {
          "internalType": "address",
          "name": "vToken",
          "type": "address"
        },
        {
          "internalType": "address",
          "name": "redeemer",
          "type": "address"
        },
        {
          "internalType": "uint256",
          "name": "redeemTokens",
          "type": "uint256"
        }
      ],
      "name": "redeemAllowed",
      "outputs": [
        {
          "internalType": "uint256",
          "name": "",
          "type": "uint256"
        }
      ],
      "payable": false,
      "stateMutability": "nonpayable",
      "type": "function"
    },
    {
      "constant": false,
      "inputs": [
        {
          "internalType": "address",
          "name": "vToken",
          "type": "address"
        },
        {
          "internalType": "address",
          "name": "redeemer",
          "type": "address"
        },
        {
          "internalType": "uint256",
          "name": "redeemAmount",
          "type": "uint256"
        },
        {
          "internalType": "uint256",
          "name": "redeemTokens",
          "type": "uint256"
        }
      ],
      "name": "redeemVerify",
      "outputs": [],
      "payable": false,
      "stateMutability": "nonpayable",
      "type": "function"
    },
    {
      "constant": true,
      "inputs": [],
      "name": "releaseStartBlock",
      "outputs": [
        {
          "internalType": "uint256",
          "name": "",
          "type": "uint256"
        }
      ],
      "payable": false,
      "stateMutability": "view",
      "type": "function"
    },
    {
      "constant": false,
      "inputs": [],
      "name": "releaseToVault",
      "outputs": [],
      "payable": false,
      "stateMutability": "nonpayable",
      "type": "function"
    },
    {
      "constant": false,
      "inputs": [
        {
          "internalType": "address",
          "name": "vToken",
          "type": "address"
        },
        {
          "internalType": "address",
          "name": "payer",
          "type": "address"
        },
        {
          "internalType": "address",
          "name": "borrower",
          "type": "address"
        },
        {
          "internalType": "uint256",
          "name": "repayAmount",
          "type": "uint256"
        }
      ],
      "name": "repayBorrowAllowed",
      "outputs": [
        {
          "internalType": "uint256",
          "name": "",
          "type": "uint256"
        }
      ],
      "payable": false,
      "stateMutability": "nonpayable",
      "type": "function"
    },
    {
      "constant": false,
      "inputs": [
        {
          "internalType": "address",
          "name": "vToken",
          "type": "address"
        },
        {
          "internalType": "address",
          "name": "payer",
          "type": "address"
        },
        {
          "internalType": "address",
          "name": "borrower",
          "type": "address"
        },
        {
          "internalType": "uint256",
          "name": "actualRepayAmount",
          "type": "uint256"
        },
        {
          "internalType": "uint256",
          "name": "borrowerIndex",
          "type": "uint256"
        }
      ],
      "name": "repayBorrowVerify",
      "outputs": [],
      "payable": false,
      "stateMutability": "nonpayable",
      "type": "function"
    },
    {
      "constant": true,
      "inputs": [],
      "name": "repayVAIGuardianPaused",
      "outputs": [
        {
          "internalType": "bool",
          "name": "",
          "type": "bool"
        }
      ],
      "payable": false,
      "stateMutability": "view",
      "type": "function"
    },
    {
      "constant": false,
      "inputs": [
        {
          "internalType": "address",
          "name": "vTokenCollateral",
          "type": "address"
        },
        {
          "internalType": "address",
          "name": "vTokenBorrowed",
          "type": "address"
        },
        {
          "internalType": "address",
          "name": "liquidator",
          "type": "address"
        },
        {
          "internalType": "address",
          "name": "borrower",
          "type": "address"
        },
        {
          "internalType": "uint256",
          "name": "seizeTokens",
          "type": "uint256"
        }
      ],
      "name": "seizeAllowed",
      "outputs": [
        {
          "internalType": "uint256",
          "name": "",
          "type": "uint256"
        }
      ],
      "payable": false,
      "stateMutability": "nonpayable",
      "type": "function"
    },
    {
      "constant": false,
      "inputs": [
        {
          "internalType": "address",
          "name": "vTokenCollateral",
          "type": "address"
        },
        {
          "internalType": "address",
          "name": "vTokenBorrowed",
          "type": "address"
        },
        {
          "internalType": "address",
          "name": "liquidator",
          "type": "address"
        },
        {
          "internalType": "address",
          "name": "borrower",
          "type": "address"
        },
        {
          "internalType": "uint256",
          "name": "seizeTokens",
          "type": "uint256"
        }
      ],
      "name": "seizeVerify",
      "outputs": [],
      "payable": false,
      "stateMutability": "nonpayable",
      "type": "function"
    },
    {
      "constant": false,
      "inputs": [
        {
          "internalType": "uint256",
          "name": "number",
          "type": "uint256"
        }
      ],
      "name": "setBlockNumber",
      "outputs": [],
      "payable": false,
      "stateMutability": "nonpayable",
      "type": "function"
    },
    {
      "constant": false,
      "inputs": [
        {
          "internalType": "address",
          "name": "owner",
          "type": "address"
        },
        {
          "internalType": "uint256",
          "name": "amount",
          "type": "uint256"
        }
      ],
      "name": "setMintedVAIOf",
      "outputs": [
        {
          "internalType": "uint256",
          "name": "",
          "type": "uint256"
        }
      ],
      "payable": false,
      "stateMutability": "nonpayable",
      "type": "function"
    },
    {
      "constant": false,
      "inputs": [
        {
          "internalType": "address",
          "name": "user",
          "type": "address"
        },
        {
          "internalType": "uint256",
          "name": "userAccrued",
          "type": "uint256"
        }
      ],
      "name": "setVenusAccrued",
      "outputs": [],
      "payable": false,
      "stateMutability": "nonpayable",
      "type": "function"
    },
    {
      "constant": false,
      "inputs": [
        {
          "internalType": "address",
          "name": "vToken",
          "type": "address"
        },
        {
          "internalType": "uint224",
          "name": "index",
          "type": "uint224"
        },
        {
          "internalType": "uint32",
          "name": "blockNumber_",
          "type": "uint32"
        }
      ],
      "name": "setVenusBorrowState",
      "outputs": [],
      "payable": false,
      "stateMutability": "nonpayable",
      "type": "function"
    },
    {
      "constant": false,
      "inputs": [
        {
          "internalType": "address",
          "name": "vToken",
          "type": "address"
        },
        {
          "internalType": "address",
          "name": "borrower",
          "type": "address"
        },
        {
          "internalType": "uint256",
          "name": "index",
          "type": "uint256"
        }
      ],
      "name": "setVenusBorrowerIndex",
      "outputs": [],
      "payable": false,
      "stateMutability": "nonpayable",
      "type": "function"
    },
    {
      "constant": false,
      "inputs": [
        {
          "internalType": "address",
          "name": "vToken",
          "type": "address"
        },
        {
          "internalType": "address",
          "name": "supplier",
          "type": "address"
        },
        {
          "internalType": "uint256",
          "name": "index",
          "type": "uint256"
        }
      ],
      "name": "setVenusSupplierIndex",
      "outputs": [],
      "payable": false,
      "stateMutability": "nonpayable",
      "type": "function"
    },
    {
      "constant": false,
      "inputs": [
        {
          "internalType": "address",
          "name": "vToken",
          "type": "address"
        },
        {
          "internalType": "uint224",
          "name": "index",
          "type": "uint224"
        },
        {
          "internalType": "uint32",
          "name": "blockNumber_",
          "type": "uint32"
        }
      ],
      "name": "setVenusSupplyState",
      "outputs": [],
      "payable": false,
      "stateMutability": "nonpayable",
      "type": "function"
    },
    {
      "constant": false,
      "inputs": [
        {
          "internalType": "address",
          "name": "xvsAddress_",
          "type": "address"
        }
      ],
      "name": "setXVSAddress",
      "outputs": [],
      "payable": false,
      "stateMutability": "nonpayable",
      "type": "function"
    },
    {
      "constant": false,
      "inputs": [
        {
          "internalType": "address",
          "name": "vXVSAddress_",
          "type": "address"
        }
      ],
      "name": "setXVSVTokenAddress",
      "outputs": [],
      "payable": false,
      "stateMutability": "nonpayable",
      "type": "function"
    },
    {
      "constant": true,
      "inputs": [
        {
          "internalType": "address",
          "name": "",
          "type": "address"
        }
      ],
      "name": "supplyCaps",
      "outputs": [
        {
          "internalType": "uint256",
          "name": "",
          "type": "uint256"
        }
      ],
      "payable": false,
      "stateMutability": "view",
      "type": "function"
    },
    {
      "constant": false,
      "inputs": [
        {
          "internalType": "address",
          "name": "vToken",
          "type": "address"
        },
        {
          "internalType": "address",
          "name": "src",
          "type": "address"
        },
        {
          "internalType": "address",
          "name": "dst",
          "type": "address"
        },
        {
          "internalType": "uint256",
          "name": "transferTokens",
          "type": "uint256"
        }
      ],
      "name": "transferAllowed",
      "outputs": [
        {
          "internalType": "uint256",
          "name": "",
          "type": "uint256"
        }
      ],
      "payable": false,
      "stateMutability": "nonpayable",
      "type": "function"
    },
    {
      "constant": false,
      "inputs": [
        {
          "internalType": "address",
          "name": "vToken",
          "type": "address"
        },
        {
          "internalType": "address",
          "name": "src",
          "type": "address"
        },
        {
          "internalType": "address",
          "name": "dst",
          "type": "address"
        },
        {
          "internalType": "uint256",
          "name": "transferTokens",
          "type": "uint256"
        }
      ],
      "name": "transferVerify",
      "outputs": [],
      "payable": false,
      "stateMutability": "nonpayable",
      "type": "function"
    },
    {
      "constant": true,
      "inputs": [],
      "name": "treasuryAddress",
      "outputs": [
        {
          "internalType": "address",
          "name": "",
          "type": "address"
        }
      ],
      "payable": false,
      "stateMutability": "view",
      "type": "function"
    },
    {
      "constant": true,
      "inputs": [],
      "name": "treasuryGuardian",
      "outputs": [
        {
          "internalType": "address",
          "name": "",
          "type": "address"
        }
      ],
      "payable": false,
      "stateMutability": "view",
      "type": "function"
    },
    {
      "constant": true,
      "inputs": [],
      "name": "treasuryPercent",
      "outputs": [
        {
          "internalType": "uint256",
          "name": "",
          "type": "uint256"
        }
      ],
      "payable": false,
      "stateMutability": "view",
      "type": "function"
    },
    {
      "constant": true,
      "inputs": [],
      "name": "vaiController",
      "outputs": [
        {
          "internalType": "contract VAIControllerInterface",
          "name": "",
          "type": "address"
        }
      ],
      "payable": false,
      "stateMutability": "view",
      "type": "function"
    },
    {
      "constant": true,
      "inputs": [],
      "name": "vaiMintRate",
      "outputs": [
        {
          "internalType": "uint256",
          "name": "",
          "type": "uint256"
        }
      ],
      "payable": false,
      "stateMutability": "view",
      "type": "function"
    },
    {
      "constant": true,
      "inputs": [],
      "name": "vaiVaultAddress",
      "outputs": [
        {
          "internalType": "address",
          "name": "",
          "type": "address"
        }
      ],
      "payable": false,
      "stateMutability": "view",
      "type": "function"
    },
    {
      "constant": true,
      "inputs": [
        {
          "internalType": "address",
          "name": "",
          "type": "address"
        }
      ],
      "name": "venusAccrued",
      "outputs": [
        {
          "internalType": "uint256",
          "name": "",
          "type": "uint256"
        }
      ],
      "payable": false,
      "stateMutability": "view",
      "type": "function"
    },
    {
      "constant": true,
      "inputs": [
        {
          "internalType": "address",
          "name": "",
          "type": "address"
        }
      ],
      "name": "venusBorrowState",
      "outputs": [
        {
          "internalType": "uint224",
          "name": "index",
          "type": "uint224"
        },
        {
          "internalType": "uint32",
          "name": "block",
          "type": "uint32"
        }
      ],
      "payable": false,
      "stateMutability": "view",
      "type": "function"
    },
    {
      "constant": true,
      "inputs": [
        {
          "internalType": "address",
          "name": "",
          "type": "address"
        },
        {
          "internalType": "address",
          "name": "",
          "type": "address"
        }
      ],
      "name": "venusBorrowerIndex",
      "outputs": [
        {
          "internalType": "uint256",
          "name": "",
          "type": "uint256"
        }
      ],
      "payable": false,
      "stateMutability": "view",
      "type": "function"
    },
    {
      "constant": true,
      "inputs": [],
      "name": "venusInitialIndex",
      "outputs": [
        {
          "internalType": "uint224",
          "name": "",
          "type": "uint224"
        }
      ],
      "payable": false,
      "stateMutability": "view",
      "type": "function"
    },
    {
      "constant": true,
      "inputs": [],
      "name": "venusRate",
      "outputs": [
        {
          "internalType": "uint256",
          "name": "",
          "type": "uint256"
        }
      ],
      "payable": false,
      "stateMutability": "view",
      "type": "function"
    },
    {
      "constant": true,
      "inputs": [
        {
          "internalType": "address",
          "name": "",
          "type": "address"
        }
      ],
      "name": "venusSpeeds",
      "outputs": [
        {
          "internalType": "uint256",
          "name": "",
          "type": "uint256"
        }
      ],
      "payable": false,
      "stateMutability": "view",
      "type": "function"
    },
    {
      "constant": true,
      "inputs": [
        {
          "internalType": "address",
          "name": "",
          "type": "address"
        },
        {
          "internalType": "address",
          "name": "",
          "type": "address"
        }
      ],
      "name": "venusSupplierIndex",
      "outputs": [
        {
          "internalType": "uint256",
          "name": "",
          "type": "uint256"
        }
      ],
      "payable": false,
      "stateMutability": "view",
      "type": "function"
    },
    {
      "constant": true,
      "inputs": [
        {
          "internalType": "address",
          "name": "",
          "type": "address"
        }
      ],
      "name": "venusSupplyState",
      "outputs": [
        {
          "internalType": "uint224",
          "name": "index",
          "type": "uint224"
        },
        {
          "internalType": "uint32",
          "name": "block",
          "type": "uint32"
        }
      ],
      "payable": false,
      "stateMutability": "view",
      "type": "function"
    },
    {
      "constant": true,
      "inputs": [],
      "name": "venusVAIVaultRate",
      "outputs": [
        {
          "internalType": "uint256",
          "name": "",
          "type": "uint256"
        }
      ],
      "payable": false,
      "stateMutability": "view",
      "type": "function"
    }
  ],
  "bytecode": "0x608060405234801561001057600080fd5b50600080546001600160a01b03191633179055616d7c80620000336000396000f3fe608060405234801561001057600080fd5b50600436106107165760003560e01c80637998fd88116103a8578063b8324c7c116101f4578063da3d454c1161011a578063e8755446116100b8578063f519fc3011610087578063f519fc3014611c7d578063f851a44014611ca3578063fa6331d814611cab578063fd51a3ad14611cb357610716565b8063e875544614611c11578063eabe7d9114611c19578063ede4edd014611c4f578063ededbae614611c7557610716565b8063ddfd287e116100f4578063ddfd287e14611b88578063e37d4b7914611b90578063e4028eee14611bb6578063e85a296014611be257610716565b8063da3d454c14611b1e578063dce1544914611b54578063dcfbc0c714611b8057610716565b8063c488847b11610192578063d09c54ba11610161578063d09c54ba14611913578063d24febad14611a3f578063d3270f9914611a75578063d7a713fc14611a7d57610716565b8063c488847b1461186b578063c5b4db55146118a1578063c5f956af146118c5578063d02f7351146118cd57610716565b8063bdcdc258116101ce578063bdcdc258146117b1578063bec04f72146117ed578063bf32442d146117f5578063c2998238146117fd57610716565b8063b8324c7c14611735578063bb82aa5e14611783578063bb8574501461178b57610716565b806398f9005e116102d9578063a78dc77511610277578063abfceffc11610246578063abfceffc146116d9578063adcd5fb9146116ff578063b0772d0b14611725578063b2eafc391461172d57610716565b8063a78dc7751461162e578063a8c3c85014611673578063a93f078a14611690578063aaaa9914146116ad57610716565b80639cfdd9e6116102b35780639cfdd9e61461158a578063a06a87f1146115b0578063a7604b41146115dc578063a76b3fda1461160857610716565b806398f9005e1461151b5780639bb27d621461155c5780639bf34cbb1461156457610716565b80638a7dc1651161034657806391bbf27f1161032057806391bbf27f146114ab5780639254f5e5146114dd578063929fe9a1146114e557806394b2294b1461151357610716565b80638a7dc165146114175780638d26d6441461143d5780638e8f294b1461146357610716565b80637dc0d1d0116103825780637dc0d1d01461132a57806385ab54511461133257806386df31ee1461135e578063879c2e1d1461140f57610716565b80637998fd88146112e45780637bbdf898146112ec5780637d172bd51461132257610716565b806342cbb15c1161056757806355ee1fe111610498578063607ef6c11161043657806370bf66f01161040557806370bf66f01461117a578063719f701b146112ae57806376551383146112b65780637858524d146112be57610716565b8063607ef6c11461101d5780636662c7c9146110db5780636a56947e146110f85780636d35bf911461113457610716565b80635c778605116104725780635c77860514610f555780635ec88c7914610f8b5780635f5af1aa14610fb15780635fc7e71e14610fd757610716565b806355ee1fe114610ef157806357e871e714610f1757806359b54fc214610f1f57610716565b80634e79238f116105055780635057d670116104df5780635057d67014610dae57806351a485e414610dda57806351dff98914610e9857806352d84d1e14610ed457610716565b80634e79238f14610d015780634ef4c3e114610d5b5780634fd42e1714610d9157610716565b80634acca8e8116105415780634acca8e814610c735780634ada90af14610ca15780634cb42e9a14610ca95780634e0853db14610ccf57610716565b806342cbb15c14610bf957806347ef3b3b14610c015780634a58443214610c4d57610716565b806324a3d6221161064c5780633326706a116105ea5780634088c73e116105b95780634088c73e14610b7f57806341a18d2c14610b8757806341c728b914610bb5578063425fad5814610bf157610716565b80633326706a14610a7a5780633493484e14610ab05780633592cd0e14610ae65780633cd56b5814610b3e57610716565b80632b5d790c116106265780632b5d790c1461095a5780632bc7e29e14610a1a5780632ec0412414610a40578063317b0b7714610a5d57610716565b806324a3d6221461092b57806326782247146109335780632a6a60651461093b57610716565b80631abcaa77116106b95780632178289711610693578063217828971461089157806321af4569146108ae57806324008a62146108d2578063246acab11461090e57610716565b80631abcaa77146108035780631d504dc6146108295780631ededc911461084f57610716565b806304ef9d58116106f557806304ef9d581461079757806308e0225c1461079f5780630db4b4e5146107cd57806311d4f626146107d557610716565b80627e3dd21461071b57806302c3bcbb146107375780630367ccc11461076f575b600080fd5b610723611cdf565b604080519115158252519081900360200190f35b61075d6004803603602081101561074d57600080fd5b50356001600160a01b0316611ce4565b60408051918252519081900360200190f35b6107956004803603602081101561078557600080fd5b50356001600160a01b0316611cf6565b005b61075d611d18565b61075d600480360360408110156107b557600080fd5b506001600160a01b0381358116916020013516611d1e565b61075d611d3b565b610795600480360360408110156107eb57600080fd5b506001600160a01b0381358116916020013516611d41565b61075d6004803603602081101561081957600080fd5b50356001600160a01b0316611d8e565b6107956004803603602081101561083f57600080fd5b50356001600160a01b0316611da0565b610795600480360360a081101561086557600080fd5b506001600160a01b03813581169160208101358216916040820135169060608101359060800135611f0e565b610795600480360360208110156108a757600080fd5b5035611f15565b6108b6611f1a565b604080516001600160a01b039092168252519081900360200190f35b61075d600480360360808110156108e857600080fd5b506001600160a01b03813581169160208101358216916040820135169060600135611f29565b61075d6004803603602081101561092457600080fd5b5035611ffe565b6108b661200e565b6108b661201d565b6107236004803603602081101561095157600080fd5b5035151561202c565b6107956004803603606081101561097057600080fd5b810190602081018135600160201b81111561098a57600080fd5b82018360208201111561099c57600080fd5b803590602001918460208302840111600160201b831117156109bd57600080fd5b919390929091602081019035600160201b8111156109da57600080fd5b8201836020820111156109ec57600080fd5b803590602001918460208302840111600160201b83111715610a0d57600080fd5b91935091503515156120be565b61075d60048036036020811015610a3057600080fd5b50356001600160a01b0316612156565b61075d60048036036020811015610a5657600080fd5b5035612168565b61075d60048036036020811015610a7357600080fd5b50356121bf565b61079560048036036060811015610a9057600080fd5b506001600160a01b03813581169160208101359091169060400135612213565b61079560048036036060811015610ac657600080fd5b506001600160a01b0381358116916020810135909116906040013561223f565b610aee61226b565b60408051602080825283518183015283519192839290830191858101910280838360005b83811015610b2a578181015183820152602001610b12565b505050509050019250505060405180910390f35b61079560048036036060811015610b5457600080fd5b5080356001600160a01b03169060208101356001600160e01b0316906040013563ffffffff166123ae565b6107236123fc565b61075d60048036036040811015610b9d57600080fd5b506001600160a01b0381358116916020013516612405565b61079560048036036080811015610bcb57600080fd5b506001600160a01b03813581169160208101359091169060408101359060600135612422565b610723612428565b61075d612437565b610795600480360360c0811015610c1757600080fd5b506001600160a01b0381358116916020810135821691604082013581169160608101359091169060808101359060a0013561243d565b61075d60048036036020811015610c6357600080fd5b50356001600160a01b0316612442565b61079560048036036040811015610c8957600080fd5b506001600160a01b0381358116916020013516612454565b61075d612462565b61079560048036036020811015610cbf57600080fd5b50356001600160a01b0316612468565b61079560048036036060811015610ce557600080fd5b506001600160a01b038135169060208101359060400135612471565b610d3d60048036036080811015610d1757600080fd5b506001600160a01b038135811691602081013590911690604081013590606001356124ef565b60408051938452602084019290925282820152519081900360600190f35b61075d60048036036060811015610d7157600080fd5b506001600160a01b03813581169160208101359091169060400135612525565b61075d60048036036020811015610da757600080fd5b50356126ac565b61079560048036036040811015610dc457600080fd5b506001600160a01b038135169060200135612776565b61079560048036036040811015610df057600080fd5b810190602081018135600160201b811115610e0a57600080fd5b820183602082011115610e1c57600080fd5b803590602001918460208302840111600160201b83111715610e3d57600080fd5b919390929091602081019035600160201b811115610e5a57600080fd5b820183602082011115610e6c57600080fd5b803590602001918460208302840111600160201b83111715610e8d57600080fd5b509092509050612792565b61079560048036036080811015610eae57600080fd5b506001600160a01b038135811691602081013590911690604081013590606001356128e5565b6108b660048036036020811015610eea57600080fd5b5035612936565b61075d60048036036020811015610f0757600080fd5b50356001600160a01b031661295d565b61075d6129d6565b61079560048036036060811015610f3557600080fd5b506001600160a01b038135811691602081013590911690604001356129dc565b61079560048036036060811015610f6b57600080fd5b506001600160a01b038135811691602081013590911690604001356129fa565b610d3d60048036036020811015610fa157600080fd5b50356001600160a01b03166129ff565b61075d60048036036020811015610fc757600080fd5b50356001600160a01b0316612a34565b61075d600480360360a0811015610fed57600080fd5b506001600160a01b0381358116916020810135821691604082013581169160608101359091169060800135612aad565b6107956004803603604081101561103357600080fd5b810190602081018135600160201b81111561104d57600080fd5b82018360208201111561105f57600080fd5b803590602001918460208302840111600160201b8311171561108057600080fd5b919390929091602081019035600160201b81111561109d57600080fd5b8201836020820111156110af57600080fd5b803590602001918460208302840111600160201b831117156110d057600080fd5b509092509050612c9e565b610795600480360360208110156110f157600080fd5b5035612de8565b6107956004803603608081101561110e57600080fd5b506001600160a01b03813581169160208101358216916040820135169060600135612e37565b610795600480360360a081101561114a57600080fd5b506001600160a01b0381358116916020810135821691604082013581169160608101359091169060800135611f0e565b610795600480360360a081101561119057600080fd5b810190602081018135600160201b8111156111aa57600080fd5b8201836020820111156111bc57600080fd5b803590602001918460208302840111600160201b831117156111dd57600080fd5b9190808060200260200160405190810160405280939291908181526020018383602002808284376000920191909152509295949360208101935035915050600160201b81111561122c57600080fd5b82018360208201111561123e57600080fd5b803590602001918460208302840111600160201b8311171561125f57600080fd5b9190808060200260200160405190810160405280939291908181526020018383602002808284376000920191909152509295505050508035151591506020810135151590604001351515612e3c565b61075d613171565b610723613177565b610795600480360360208110156112d457600080fd5b50356001600160a01b0316613185565b61079561323e565b6107956004803603606081101561130257600080fd5b506001600160a01b038135811691602081013590911690604001356135bd565b6108b661361d565b6108b661362c565b6107956004803603604081101561134857600080fd5b506001600160a01b03813516906020013561363b565b6107956004803603604081101561137457600080fd5b6001600160a01b038235169190810190604081016020820135600160201b81111561139e57600080fd5b8201836020820111156113b057600080fd5b803590602001918460208302840111600160201b831117156113d157600080fd5b919080806020026020016040519081016040528093929190818152602001838360200280828437600092019190915250929550613653945050505050565b61075d6136b0565b61075d6004803603602081101561142d57600080fd5b50356001600160a01b03166136b6565b6107956004803603602081101561145357600080fd5b50356001600160a01b03166136c8565b6114896004803603602081101561147957600080fd5b50356001600160a01b03166136ea565b6040805193151584526020840192909252151582820152519081900360600190f35b61075d600480360360608110156114c157600080fd5b506001600160a01b038135169060208101359060400135613710565b6108b6613742565b610723600480360360408110156114fb57600080fd5b506001600160a01b0381358116916020013516613751565b61075d613785565b6107956004803603606081101561153157600080fd5b5080356001600160a01b03169060208101356001600160e01b0316906040013563ffffffff1661378b565b6108b66137d9565b61075d6004803603602081101561157a57600080fd5b50356001600160a01b03166137e8565b61075d600480360360208110156115a057600080fd5b50356001600160a01b0316613860565b610795600480360360408110156115c657600080fd5b506001600160a01b0381351690602001356138d9565b610795600480360360408110156115f257600080fd5b506001600160a01b038135169060200135613901565b61075d6004803603602081101561161e57600080fd5b50356001600160a01b03166139c3565b61165a6004803603604081101561164457600080fd5b506001600160a01b038135169060200135613b48565b6040805192835260208301919091528051918290030190f35b6107956004803603602081101561168957600080fd5b5035613be7565b610795600480360360208110156116a657600080fd5b5035613bec565b610795600480360360408110156116c357600080fd5b506001600160a01b038135169060200135613bf1565b610aee600480360360208110156116ef57600080fd5b50356001600160a01b0316613c0d565b6107956004803603602081101561171557600080fd5b50356001600160a01b0316613c83565b610aee613ce7565b6108b6613d49565b61175b6004803603602081101561174b57600080fd5b50356001600160a01b0316613d58565b604080516001600160e01b03909316835263ffffffff90911660208301528051918290030190f35b6108b6613d82565b610795600480360360208110156117a157600080fd5b50356001600160a01b0316613d91565b61075d600480360360808110156117c757600080fd5b506001600160a01b03813581169160208101358216916040820135169060600135613dfc565b61075d613e4a565b6108b6613e50565b610aee6004803603602081101561181357600080fd5b810190602081018135600160201b81111561182d57600080fd5b82018360208201111561183f57600080fd5b803590602001918460208302840111600160201b8311171561186057600080fd5b509092509050613e5f565b61165a6004803603606081101561188157600080fd5b506001600160a01b03813581169160208101359091169060400135613ef5565b6118a9613f9d565b604080516001600160e01b039092168252519081900360200190f35b6108b6613fb0565b61075d600480360360a08110156118e357600080fd5b506001600160a01b0381358116916020810135821691604082013581169160608101359091169060800135613fbf565b6107956004803603608081101561192957600080fd5b810190602081018135600160201b81111561194357600080fd5b82018360208201111561195557600080fd5b803590602001918460208302840111600160201b8311171561197657600080fd5b9190808060200260200160405190810160405280939291908181526020018383602002808284376000920191909152509295949360208101935035915050600160201b8111156119c557600080fd5b8201836020820111156119d757600080fd5b803590602001918460208302840111600160201b831117156119f857600080fd5b91908080602002602001604051908101604052809392919081815260200183836020028082843760009201919091525092955050505080351515915060200135151561413e565b61075d60048036036060811015611a5557600080fd5b506001600160a01b0381358116916020810135909116906040013561414c565b6108b66142d1565b61079560048036036020811015611a9357600080fd5b810190602081018135600160201b811115611aad57600080fd5b820183602082011115611abf57600080fd5b803590602001918460208302840111600160201b83111715611ae057600080fd5b9190808060200260200160405190810160405280939291908181526020018383602002808284376000920191909152509295506142e0945050505050565b61075d60048036036060811015611b3457600080fd5b506001600160a01b03813581169160208101359091169060400135614312565b6108b660048036036040811015611b6a57600080fd5b506001600160a01b038135169060200135614667565b6108b661469c565b6107956146ab565b61175b60048036036020811015611ba657600080fd5b50356001600160a01b03166148db565b61075d60048036036040811015611bcc57600080fd5b506001600160a01b038135169060200135614905565b61072360048036036040811015611bf857600080fd5b5080356001600160a01b0316906020013560ff16614aa7565b61075d614ae7565b61075d60048036036060811015611c2f57600080fd5b506001600160a01b03813581169160208101359091169060400135614aed565b61075d60048036036020811015611c6557600080fd5b50356001600160a01b0316614b3c565b6108b6614df3565b61075d60048036036020811015611c9357600080fd5b50356001600160a01b0316614e02565b6108b6614e71565b61075d614e80565b61075d60048036036040811015611cc957600080fd5b506001600160a01b038135169060200135614e86565b600181565b60276020526000908152604090205481565b602b80546001600160a01b0319166001600160a01b0392909216919091179055565b60225481565b601360209081526000928352604080842090915290825290205481565b601d5481565b611d4b8282614f33565b6001600160a01b038116600090815260146020526040812054611d71918391908061515e565b6001600160a01b0390911660009081526014602052604090205550565b600f6020526000908152604090205481565b806001600160a01b031663f851a4406040518163ffffffff1660e01b815260040160206040518083038186803b158015611dd957600080fd5b505afa158015611ded573d6000803e3d6000fd5b505050506040513d6020811015611e0357600080fd5b50516001600160a01b03163314611e61576040805162461bcd60e51b815260206004820152601960248201527f6f6e6c7920756e6974726f6c6c65722061646d696e2063616e00000000000000604482015290519081900360640190fd5b806001600160a01b031663c1e803346040518163ffffffff1660e01b8152600401602060405180830381600087803b158015611e9c57600080fd5b505af1158015611eb0573d6000803e3d6000fd5b505050506040513d6020811015611ec657600080fd5b505115611f0b576040805162461bcd60e51b815260206004820152600e60248201526d1b9bdd08185d5d1a1bdc9a5e995960921b604482015290519081900360640190fd5b50565b5050505050565b601c55565b601e546001600160a01b031681565b6000611f3361544f565b611f3e8560036154a2565b6001600160a01b0385166000908152600960205260409020611f5f906154f1565b611f67616b84565b6040518060200160405280876001600160a01b031663aa5af0fd6040518163ffffffff1660e01b815260040160206040518083038186803b158015611fab57600080fd5b505afa158015611fbf573d6000803e3d6000fd5b505050506040513d6020811015611fd557600080fd5b505190529050611fe5868261553b565b611ff08685836157cf565b60009150505b949350505050565b602c80548201908190555b919050565b600a546001600160a01b031681565b6001546001600160a01b031681565b600061206c6040518060400160405280601881526020017f5f73657450726f746f636f6c50617573656428626f6f6c2900000000000000008152506159b2565b6018805483151562010000810262ff0000199092169190911790915560408051918252517fd7500633dd3ddd74daa7af62f8c8404c7fe4a81da179998db851696bed004b389181900360200190a15090565b6120df6040518060600160405280602b8152602001616cb6602b91396159b2565b60005b8481101561214e5760005b838110156121455761213d87878481811061210457fe5b905060200201356001600160a01b031686868481811061212057fe5b9050602002013560088111801561213657600080fd5b5085615ad3565b6001016120ed565b506001016120e2565b505050505050565b60166020526000908152604090205481565b6000612172615be2565b6017805490839055604080518281526020810185905281517f73747d68b346dce1e932bcd238282e7ac84c01569e1f8d0469c222fdc6e9d5a4929181900390910190a160005b9392505050565b60006121c9615be2565b6005805490839055604080518281526020810185905281517f3b9670cf975d26958e754b57098eaa2ac914d8d2a31b83257997b9f346110fd9929181900390910190a160006121b8565b6001600160a01b0392831660009081526013602090815260408083209490951682529290925291902055565b6001600160a01b0392831660009081526012602090815260408083209490951682529290925291902055565b600d546060906000805b828110156122ca576000600f6000600d848154811061229057fe5b60009182526020808320909101546001600160a01b0316835282019290925260400190205411156122c2576001909101905b600101612275565b506060816040519080825280602002602001820160405280156122f7578160200160208202803883390190505b5090506000805b848110156123a3576000600f6000600d848154811061231957fe5b60009182526020808320909101546001600160a01b03168352820192909252604001902054111561239b57600d818154811061235157fe5b600091825260209091200154835160018401936001600160a01b03909216918591811061237a57fe5b60200260200101906001600160a01b031690816001600160a01b0316815250505b6001016122fe565b509093505050505b90565b6001600160a01b0392909216600090815260106020526040902080546001600160e01b0319166001600160e01b0392831617909116600160e01b63ffffffff90931692909202919091179055565b60185460ff1681565b601260209081526000928352604080842090915290825290205481565b50505050565b60185462010000900460ff1681565b602c5490565b61214e565b601f6020526000908152604090205481565b61245e8282614f33565b5050565b60065481565b611f0b81615c32565b612479615be2565b61248283615ebc565b601b80546001600160a01b0385166001600160a01b03199091168117909155601c839055601d8290556040805191825260208201849052818101839052517f7059037d74ee16b0fb06a4a30f3348dd2635f301f92e373c92899a25a522ef6e9181900360600190a1505050565b6000806000806000806125048a8a8a8a615f0f565b92509250925082601281111561251657fe5b9a919950975095505050505050565b600061252f61544f565b61253a8460006154a2565b6001600160a01b038416600090815260096020526040902061255b906154f1565b6001600160a01b038416600090815260276020526040902054806125bf576040805162461bcd60e51b815260206004820152601660248201527506d61726b657420737570706c792063617020697320360541b604482015290519081900360640190fd5b6000856001600160a01b03166318160ddd6040518163ffffffff1660e01b815260040160206040518083038186803b1580156125fa57600080fd5b505afa15801561260e573d6000803e3d6000fd5b505050506040513d602081101561262457600080fd5b5051905060006126348286615fce565b90508281111561268b576040805162461bcd60e51b815260206004820152601960248201527f6d61726b657420737570706c7920636170207265616368656400000000000000604482015290519081900360640190fd5b61269487615c32565b61269e8787614f33565b60005b979650505050505050565b60006126cf604051806060016040528060218152602001616c19602191396159b2565b670de0b6b3a764000082101561272c576040805162461bcd60e51b815260206004820152601b60248201527f696e63656e74697665206d757374206265206f76657220316531380000000000604482015290519081900360640190fd5b6006805490839055604080518281526020810185905281517faeba5a6c40a8ac138134bff1aaa65debf25971188a58804bad717f82f0ec1316929181900390910190a160006121b8565b6001600160a01b03909116600090815260146020526040902055565b6127b3604051806060016040528060298152602001616c3a602991396159b2565b828181158015906127c357508082145b612804576040805162461bcd60e51b815260206004820152600d60248201526c1a5b9d985b1a59081a5b9c1d5d609a1b604482015290519081900360640190fd5b60005b828110156128dc5784848281811061281b57fe5b905060200201356027600089898581811061283257fe5b905060200201356001600160a01b03166001600160a01b03166001600160a01b031681526020019081526020016000208190555086868281811061287257fe5b905060200201356001600160a01b03166001600160a01b03167f9e0ad9cee10bdf36b7fbd38910c0bdff0f275ace679b45b922381c2723d676f88686848181106128b857fe5b905060200201356040518082815260200191505060405180910390a2600101612807565b50505050505050565b801515806128f1575081155b612422576040805162461bcd60e51b815260206004820152601160248201527072656465656d546f6b656e73207a65726f60781b604482015290519081900360640190fd5b600d818154811061294357fe5b6000918252602090912001546001600160a01b0316905081565b6000612967615be2565b61297082615ebc565b600480546001600160a01b038481166001600160a01b0319831681179093556040805191909216808252602082019390935281517fd52b2b9b7e9ee655fcb95d2e5b9e0c9f69e7ef2b8e9d2d0ea78402d576d22e22929181900390910190a160006121b8565b602c5481565b6129f583836040518060200160405280858152506157cf565b505050565b6129f5565b600080600080600080612a16876000806000615f0f565b925092509250826012811115612a2857fe5b97919650945092505050565b6000612a3e615be2565b612a4782615ebc565b600a80546001600160a01b038481166001600160a01b0319831681179093556040805191909216808252602082019390935281517f0613b6ee6a04f0d09f390e4d9318894b9f6ac7fd83897cd8d18896ba579c401e929181900390910190a160006121b8565b6000612ab761544f565b612ac28660056154a2565b6025546001600160a01b031615801590612aea57506025546001600160a01b03858116911614155b15612af95760015b9050612c95565b6001600160a01b0385166000908152600960205260409020612b1a906154f1565b6015546001600160a01b03878116911614612b50576001600160a01b0386166000908152600960205260409020612b50906154f1565b600080612b61856000806000615f0f565b91935090915060009050826012811115612b7757fe5b14612b9157816012811115612b8857fe5b92505050612c95565b80612b9d576003612b88565b6015546000906001600160a01b038a8116911614612c3e57886001600160a01b03166395dd9193876040518263ffffffff1660e01b815260040180826001600160a01b03166001600160a01b0316815260200191505060206040518083038186803b158015612c0b57600080fd5b505afa158015612c1f573d6000803e3d6000fd5b505050506040513d6020811015612c3557600080fd5b50519050612c59565b506001600160a01b0385166000908152601660205260409020545b6000612c75604051806020016040528060055481525083616004565b905080861115612c8c576011945050505050612c95565b60009450505050505b95945050505050565b612cbf604051806060016040528060298152602001616c63602991396159b2565b82818115801590612ccf57508082145b612d10576040805162461bcd60e51b815260206004820152600d60248201526c1a5b9d985b1a59081a5b9c1d5d609a1b604482015290519081900360640190fd5b60005b828110156128dc57848482818110612d2757fe5b90506020020135601f6000898985818110612d3e57fe5b905060200201356001600160a01b03166001600160a01b03166001600160a01b0316815260200190815260200160002081905550868682818110612d7e57fe5b905060200201356001600160a01b03166001600160a01b03167f6f1951b2aad10f3fc81b86d91105b413a5b3f847a34bbc5ce1904201b14438f6868684818110612dc457fe5b905060200201356040518082815260200191505060405180910390a2600101612d13565b612df0615be2565b601a805490829055604080518281526020810184905281517fe81d4ac15e5afa1e708e66664eddc697177423d950d133bda8262d8885e6da3b929181900390910190a15050565b612422565b600060608651604051908082528060200260200182016040528015612e6b578160200160208202803883390190505b509050600091505b8651821015612ec7576000612e9f888481518110612e8d57fe5b60200260200101516000806000615f0f565b9250505080828481518110612eb057fe5b602090810291909101015250600190910190612e73565b60005b8651811015613167576000878281518110612ee157fe5b60200260200101519050612f1860096000836001600160a01b03166001600160a01b031681526020019081526020016000206154f1565b861561307b57612f26616b84565b6040518060200160405280836001600160a01b031663aa5af0fd6040518163ffffffff1660e01b815260040160206040518083038186803b158015612f6a57600080fd5b505afa158015612f7e573d6000803e3d6000fd5b505050506040513d6020811015612f9457600080fd5b505190529050612fa4828261553b565b600094505b895185101561307957612fd0828b8781518110612fc257fe5b6020026020010151836157cf565b61303a8a8681518110612fdf57fe5b6020026020010151601460008d8981518110612ff757fe5b60200260200101516001600160a01b03166001600160a01b031681526020019081526020016000205486888151811061302c57fe5b60200260200101518961515e565b601460008c888151811061304a57fe5b6020908102919091018101516001600160a01b0316825281019190915260400160002055600190940193612fa9565b505b851561315e5761308a81615c32565b600093505b885184101561315e576130b5818a86815181106130a857fe5b6020026020010151614f33565b61311f8985815181106130c457fe5b6020026020010151601460008c88815181106130dc57fe5b60200260200101516001600160a01b03166001600160a01b031681526020019081526020016000205485878151811061311157fe5b60200260200101518861515e565b601460008b878151811061312f57fe5b6020908102919091018101516001600160a01b031682528101919091526040016000205560019093019261308f565b50600101612eca565b5050505050505050565b601c5481565b601854610100900460ff1681565b6040805160018082528183019092526060916020808301908038833901905050905081816000815181106131b557fe5b60200260200101906001600160a01b031690816001600160a01b03168152505061245e81600d80548060200260200160405190810160405280929190818152602001828054801561322f57602002820191906000526020600020905b81546001600160a01b03168152600190910190602001808311613211575b50505050506001806001612e3c565b6060600d80548060200260200160405190810160405280929190818152602001828054801561329657602002820191906000526020600020905b81546001600160a01b03168152600190910190602001808311613278575b50939450600093505050505b815181101561335c5760008282815181106132b957fe5b602002602001015190506132cb616b84565b6040518060200160405280836001600160a01b031663aa5af0fd6040518163ffffffff1660e01b815260040160206040518083038186803b15801561330f57600080fd5b505afa158015613323573d6000803e3d6000fd5b505050506040513d602081101561333957600080fd5b50519052905061334882615c32565b613352828261553b565b50506001016132a2565b50613365616b84565b604051806020016040528060008152509050606082516040519080825280602002602001820160405280156133b457816020015b6133a1616b84565b8152602001906001900390816133995790505b50905060005b835181101561353e5760008482815181106133d157fe5b602002602001015190506000600f6000836001600160a01b03166001600160a01b0316815260200190815260200160002054111561353557613411616b84565b60408051602080820180845260045463fc57d4df60e01b9091526001600160a01b03868116602485015293519293849391169163fc57d4df916044808601929190818703018186803b15801561346657600080fd5b505afa15801561347a573d6000803e3d6000fd5b505050506040513d602081101561349057600080fd5b50519052905061349e616b84565b61350c82846001600160a01b03166347bd37186040518163ffffffff1660e01b815260040160206040518083038186803b1580156134db57600080fd5b505afa1580156134ef573d6000803e3d6000fd5b505050506040513d602081101561350557600080fd5b5051616023565b90508085858151811061351b57fe5b6020026020010181905250613530868261604d565b955050505b506001016133ba565b5060005b8351811015612422576000600d828154811061355a57fe5b600091825260208220015485516001600160a01b03909116925061357f5760006135a7565b6135a7600e546135a286868151811061359457fe5b602002602001015188616072565b6160a5565b90506135b382826160cd565b5050600101613542565b6135d683836040518060200160405280858152506157cf565b6001600160a01b0382166000908152601460205260408120546135fc918491908061515e565b6001600160a01b039092166000908152601460205260409020919091555050565b601b546001600160a01b031681565b6004546001600160a01b031681565b61245e8260405180602001604052808481525061553b565b60408051600180825281830190925260609160208083019080388339019050509050828160008151811061368357fe5b60200260200101906001600160a01b031690816001600160a01b0316815250506129f5818360018061413e565b600e5481565b60146020526000908152604090205481565b602a80546001600160a01b0319166001600160a01b0392909216919091179055565b60096020526000908152604090208054600182015460039092015460ff91821692911683565b600080831180156137215750818310155b1561373a57613733848460008061515e565b90506121b8565b509092915050565b6015546001600160a01b031681565b6001600160a01b038082166000908152600960209081526040808320938616835260029093019052205460ff165b92915050565b60075481565b6001600160a01b0392909216600090815260116020526040902080546001600160e01b0319166001600160e01b0392831617909116600160e01b63ffffffff90931692909202919091179055565b6025546001600160a01b031681565b60006137f2615be2565b6137fb82615ebc565b602680546001600160a01b038481166001600160a01b0319831617928390556040805192821680845293909116602083015280517f0f7eb572d1b3053a0a3a33c04151364cf88d163182a5e4e1088cb8e52321e08a9281900390910190a160006121b8565b600061386a615be2565b61387382615ebc565b601580546001600160a01b038481166001600160a01b0319831681179093556040805191909216808252602082019390935281517fe1ddcb2dab8e5b03cfc8c67a0d5861d91d16f7bd2612fd381faf4541d212c9b2929181900390910190a160006121b8565b6002546138ee906001600160a01b031661640b565b6138f782615ebc565b61245e82826160cd565b600254613916906001600160a01b031661640b565b6000613925838360008061515e565b9050801561397a576040805162461bcd60e51b815260206004820152601a60248201527f696e73756666696369656e742078767320666f72206772616e74000000000000604482015290519081900360640190fd5b604080516001600160a01b03851681526020810184905281517fd7fe674cac9eee3998fe3cbd7a6f93c3bc70509d97ec1550a59364be6438147e929181900390910190a1505050565b6000613a036040518060400160405280601781526020017f5f737570706f72744d61726b65742861646472657373290000000000000000008152506159b2565b6001600160a01b03821660009081526009602052604090205460ff1615613a3757613a30600a601161646d565b9050612009565b816001600160a01b0316633d9ea3a16040518163ffffffff1660e01b815260040160206040518083038186803b158015613a7057600080fd5b505afa158015613a84573d6000803e3d6000fd5b505050506040513d6020811015613a9a57600080fd5b5050604080516060810182526001808252600060208381018281528486018381526001600160a01b03891684526009909252949091209251835490151560ff19918216178455935191830191909155516003909101805491151591909216179055613b04826164d3565b604080516001600160a01b038416815290517fcf583bb0c569eb967f806b11601c4cb93c10310485c67add5f8362c2f212321f9181900360200190a1600092915050565b602654604080516304f65f8b60e21b81523060048201526001600160a01b038581166024830152604482018590528251600094859485948594909216926313d97e2c926064808201939291829003018186803b158015613ba757600080fd5b505afa158015613bbb573d6000803e3d6000fd5b505050506040513d6040811015613bd157600080fd5b5080516020909101519097909650945050505050565b602c55565b600e55565b6001600160a01b03909116600090815260166020526040902055565b6001600160a01b038116600090815260086020908152604091829020805483518184028101840190945280845260609392830182828015613c7757602002820191906000526020600020905b81546001600160a01b03168152600190910190602001808311613c59575b50505050509050919050565b611f0b81600d805480602002602001604051908101604052809291908181526020018280548015613cdd57602002820191906000526020600020905b81546001600160a01b03168152600190910190602001808311613cbf575b5050505050613653565b6060600d805480602002602001604051908101604052809291908181526020018280548015613d3f57602002820191906000526020600020905b81546001600160a01b03168152600190910190602001808311613d21575b5050505050905090565b6020546001600160a01b031681565b6010602052600090815260409020546001600160e01b03811690600160e01b900463ffffffff1682565b6002546001600160a01b031681565b613d99615be2565b602580546001600160a01b038381166001600160a01b0319831681179093556040805191909216808252602082019390935281517fa5ea5616d5f6dbbaa62fdfcf3856723216eed485c394d9e51ec8e6d40e1d1ac1929181900390910190a15050565b6000613e0661544f565b613e118560066154a2565b6000613e1e8686856165b1565b90508015613e2d579050611ff6565b613e3686615c32565b613e408686614f33565b611ff08685614f33565b60175481565b602a546001600160a01b031690565b60408051828152602080840282010190915260609082908290828015613e8f578160200160208202803883390190505b50905060005b82811015613eec57613ec2868683818110613eac57fe5b905060200201356001600160a01b031633616657565b6012811115613ecd57fe5b828281518110613ed957fe5b6020908102919091010152600101613e95565b50949350505050565b60265460408051630779996560e11b81523060048201526001600160a01b038681166024830152858116604483015260648201859052825160009485948594859490921692630ef332ca926084808201939291829003018186803b158015613f5c57600080fd5b505afa158015613f70573d6000803e3d6000fd5b505050506040513d6040811015613f8657600080fd5b508051602090910151909890975095505050505050565b6ec097ce7bc90715b34b9f100000000081565b6021546001600160a01b031681565b6000613fc961544f565b613fd48660046154a2565b6001600160a01b0386166000908152600960205260409020613ff5906154f1565b6015546001600160a01b0386811691161461402b576001600160a01b038516600090815260096020526040902061402b906154f1565b846001600160a01b0316635fe3b5676040518163ffffffff1660e01b815260040160206040518083038186803b15801561406457600080fd5b505afa158015614078573d6000803e3d6000fd5b505050506040513d602081101561408e57600080fd5b505160408051635fe3b56760e01b815290516001600160a01b0392831692891691635fe3b567916004808301926020929190829003018186803b1580156140d457600080fd5b505afa1580156140e8573d6000803e3d6000fd5b505050506040513d60208110156140fe57600080fd5b50516001600160a01b031614614115576002612af2565b61411e86615c32565b6141288684614f33565b6141328685614f33565b60009695505050505050565b612422848484846000612e3c565b602054600090614164906001600160a01b031661640b565b670de0b6b3a764000082106141c0576040805162461bcd60e51b815260206004820152601d60248201527f74726561737572792070657263656e7420636170206f766572666c6f77000000604482015290519081900360640190fd5b6141c984615ebc565b6141d283615ebc565b6020805460218054602280546001600160a01b038a81166001600160a01b0319808816821789558b8316908616179095559188905560408051958316808752968601949094528351929091169390927f29f06ea15931797ebaed313d81d100963dc22cb213cb4ce2737b5a62b1a8b1e892918290030190a1604080516001600160a01b0380851682528816602082015281517f8de763046d7b8f08b6c3d03543de1d615309417842bb5d2d62f110f65809ddac929181900390910190a1604080518281526020810187905281517f0893f8f4101baaabbeb513f96761e7a36eb837403c82cc651c292a4abdc94ed7929181900390910190a160006126a1565b6026546001600160a01b031681565b60005b815181101561245e5761430a8282815181106142fb57fe5b602002602001015160016160cd565b6001016142e3565b600061431c61544f565b6143278460026154a2565b6001600160a01b0384166000908152600960205260409020614348906154f1565b6001600160a01b038085166000908152600960209081526040808320938716835260029093019052205460ff1661440557336001600160a01b038516146143ce576040805162461bcd60e51b815260206004820152601560248201527439b2b73232b91036bab9ba103132903b2a37b5b2b760591b604482015290519081900360640190fd5b60006143da8585616657565b905060008160128111156143ea57fe5b14614403578060128111156143fb57fe5b9150506121b8565b505b600480546040805163fc57d4df60e01b81526001600160a01b03888116948201949094529051929091169163fc57d4df91602480820192602092909190829003018186803b15801561445657600080fd5b505afa15801561446a573d6000803e3d6000fd5b505050506040513d602081101561448057600080fd5b505161448d57600d613733565b6001600160a01b0384166000908152601f6020526040902054801561457a576000856001600160a01b03166347bd37186040518163ffffffff1660e01b815260040160206040518083038186803b1580156144e757600080fd5b505afa1580156144fb573d6000803e3d6000fd5b505050506040513d602081101561451157600080fd5b5051905060006145218286615fce565b9050828110614577576040805162461bcd60e51b815260206004820152601960248201527f6d61726b657420626f72726f7720636170207265616368656400000000000000604482015290519081900360640190fd5b50505b60008061458a8688600088615f0f565b919350909150600090508260128111156145a057fe5b146145bb578160128111156145b157fe5b93505050506121b8565b80156145c85760046145b1565b6145d0616b84565b6040518060200160405280896001600160a01b031663aa5af0fd6040518163ffffffff1660e01b815260040160206040518083038186803b15801561461457600080fd5b505afa158015614628573d6000803e3d6000fd5b505050506040513d602081101561463e57600080fd5b50519052905061464e888261553b565b6146598888836157cf565b600098975050505050505050565b6008602052816000526040600020818154811061468057fe5b6000918252602090912001546001600160a01b03169150829050565b6003546001600160a01b031681565b601c5415806146c25750601c546146c0612437565b105b156146cc576148d9565b60006146d6613e50565b604080516370a0823160e01b815230600482015290519192506000916001600160a01b038416916370a08231916024808301926020929190829003018186803b15801561472257600080fd5b505afa158015614736573d6000803e3d6000fd5b505050506040513d602081101561474c57600080fd5b505190508061475c5750506148d9565b60008061477261476a612437565b601c5461674b565b90506000614782601a5483616785565b905080841061479357809250614797565b8392505b601d548310156147ab5750505050506148d9565b6147b3612437565b601c55601b546040805163a9059cbb60e01b81526001600160a01b0392831660048201526024810186905290519187169163a9059cbb916044808201926020929091908290030181600087803b15801561480c57600080fd5b505af1158015614820573d6000803e3d6000fd5b505050506040513d602081101561483657600080fd5b50506040805184815290517ff6d4b8f74d85a6e2d7a50225957b8a6cfec69ad92f5905627260541aa0a5565d9181900360200190a1601b60009054906101000a90046001600160a01b03166001600160a01b031663faa1809e6040518163ffffffff1660e01b8152600401600060405180830381600087803b1580156148bb57600080fd5b505af11580156148cf573d6000803e3d6000fd5b5050505050505050505b565b6011602052600090815260409020546001600160e01b03811690600160e01b900463ffffffff1682565b6000614928604051806060016040528060258152602001616d23602591396159b2565b61493183615ebc565b6001600160a01b0383166000908152600960205260409020614952816154f1565b61495a616b84565b506040805160208101909152838152614971616b84565b506040805160208101909152670c7d713b49da0000815261499281836167c7565b156149ad576149a36006600861646d565b935050505061377f565b8415801590614a365750600480546040805163fc57d4df60e01b81526001600160a01b038a8116948201949094529051929091169163fc57d4df91602480820192602092909190829003018186803b158015614a0857600080fd5b505afa158015614a1c573d6000803e3d6000fd5b505050506040513d6020811015614a3257600080fd5b5051155b15614a47576149a3600d600961646d565b60018301805490869055604080516001600160a01b03891681526020810183905280820188905290517f70483e6592cd5182d45ac970e05bc62cdcc90e9d8ef2c2dbe686cf383bcd7fc59181900360600190a16000979650505050505050565b6001600160a01b038216600090815260296020526040812081836008811115614acc57fe5b815260208101919091526040016000205460ff169392505050565b60055481565b6000614af761544f565b614b028460016154a2565b6000614b0f8585856165b1565b90508015614b1e5790506121b8565b614b2785615c32565b614b318585614f33565b600095945050505050565b6000614b498260086154a2565b604080516361bfb47160e11b815233600482015290518391600091829182916001600160a01b0386169163c37f68e2916024808301926080929190829003018186803b158015614b9857600080fd5b505afa158015614bac573d6000803e3d6000fd5b505050506040513d6080811015614bc257600080fd5b508051602082015160409092015190945090925090508215614c2b576040805162461bcd60e51b815260206004820152601960248201527f6765744163636f756e74536e617073686f74206661696c656400000000000000604482015290519081900360640190fd5b8015614c4857614c3d600c600261646d565b945050505050612009565b6000614c558733856165b1565b90508015614c7657614c6a600e6003836167ce565b95505050505050612009565b6001600160a01b0385166000908152600960209081526040808320338452600281019092529091205460ff16614cb55760009650505050505050612009565b3360009081526002820160209081526040808320805460ff1916905560089091528120805490915b81811015614d9657886001600160a01b0316838281548110614cfb57fe5b6000918252602090912001546001600160a01b03161415614d8e57826001830381548110614d2557fe5b9060005260206000200160009054906101000a90046001600160a01b0316838281548110614d4f57fe5b600091825260209091200180546001600160a01b0319166001600160a01b03929092169190911790558254614d88846000198301616b97565b50614d96565b600101614cdd565b818110614d9f57fe5b604080516001600160a01b038b16815233602082015281517fe699a64c18b07ac5b7301aa273f36a2287239eb9501d81950672794afba29a0d929181900390910190a160009b9a5050505050505050505050565b602b546001600160a01b031690565b6000614e0c615be2565b602880546001600160a01b038481166001600160a01b0319831617928390556040805192821680845293909116602083015280517f0f1eca7612e020f6e4582bcead0573eba4b5f7b56668754c6aed82ef12057dd49281900390910190a160006121b8565b6000546001600160a01b031681565b601a5481565b6000614e9061544f565b60185460ff16158015614eab5750601854610100900460ff16155b614eec576040805162461bcd60e51b815260206004820152600d60248201526c159052481a5cc81c185d5cd959609a1b604482015290519081900360640190fd5b6015546001600160a01b03163314614f1157614f0a600e601661646d565b905061377f565b6001600160a01b03831660009081526016602052604081208390559392505050565b601b546001600160a01b031615614f4c57614f4c6146ab565b614f54616bbb565b506001600160a01b0382166000908152601060209081526040918290208251808401909352546001600160e01b0381168352600160e01b900463ffffffff1690820152614f9f616b84565b50604080516020810190915281516001600160e01b03168152614fc0616b84565b5060408051602080820183526001600160a01b0380881660009081526012835284812091881680825282845294812080548552865195909152915291909155805115801561500e5750815115155b15615026576ec097ce7bc90715b34b9f100000000081525b61502e616b84565b6150388383616834565b90506000866001600160a01b03166370a08231876040518263ffffffff1660e01b815260040180826001600160a01b03166001600160a01b0316815260200191505060206040518083038186803b15801561509257600080fd5b505afa1580156150a6573d6000803e3d6000fd5b505050506040513d60208110156150bc57600080fd5b5051905060006150cc8284616859565b6001600160a01b038816600090815260146020526040812054919250906150f39083615fce565b6001600160a01b03808a166000818152601460209081526040918290208590558a5182518881529182015281519495509193928d16927ffa9d964d891991c113b49e3db1932abd6c67263d387119707aafdd6c4010a3a99281900390910190a3505050505050505050565b600080615169613e50565b604080516370a0823160e01b815230600482015290519192506000916001600160a01b038416916370a08231916024808301926020929190829003018186803b1580156151b557600080fd5b505afa1580156151c9573d6000803e3d6000fd5b505050506040513d60208110156151df57600080fd5b505190508415158615806151f257508187115b1561520257869350505050611ff6565b806152a057826001600160a01b031663a9059cbb89896040518363ffffffff1660e01b815260040180836001600160a01b03166001600160a01b0316815260200182815260200192505050602060405180830381600087803b15801561526757600080fd5b505af115801561527b573d6000803e3d6000fd5b505050506040513d602081101561529157600080fd5b5060009450611ff69350505050565b846152dc5760405162461bcd60e51b8152600401808060200182810382526042815260200180616ce16042913960600191505060405180910390fd5b826001600160a01b031663095ea7b36152f3614df3565b896040518363ffffffff1660e01b815260040180836001600160a01b03166001600160a01b0316815260200182815260200192505050602060405180830381600087803b15801561534357600080fd5b505af1158015615357573d6000803e3d6000fd5b505050506040513d602081101561536d57600080fd5b506000905061537a614df3565b6001600160a01b03166323323e038a8a6040518363ffffffff1660e01b815260040180836001600160a01b03166001600160a01b0316815260200182815260200192505050602060405180830381600087803b1580156153d957600080fd5b505af11580156153ed573d6000803e3d6000fd5b505050506040513d602081101561540357600080fd5b5051146154415760405162461bcd60e51b815260040180806020018281038252602a815260200180616c8c602a913960400191505060405180910390fd5b506000979650505050505050565b60185462010000900460ff16156148d9576040805162461bcd60e51b81526020600482015260126024820152711c1c9bdd1bd8dbdb081a5cc81c185d5cd95960721b604482015290519081900360640190fd5b6154ac8282614aa7565b1561245e576040805162461bcd60e51b815260206004820152601060248201526f1858dd1a5bdb881a5cc81c185d5cd95960821b604482015290519081900360640190fd5b805460ff16611f0b576040805162461bcd60e51b81526020600482015260116024820152701b585c9ad95d081b9bdd081b1a5cdd1959607a1b604482015290519081900360640190fd5b6001600160a01b0382166000908152601160209081526040808320600f9092528220549091615568612437565b8354909150600090615588908390600160e01b900463ffffffff1661674b565b905060008111801561559a5750600083115b1561576a57600061560f876001600160a01b03166347bd37186040518163ffffffff1660e01b815260040160206040518083038186803b1580156155dd57600080fd5b505afa1580156155f1573d6000803e3d6000fd5b505050506040513d602081101561560757600080fd5b505187616879565b9050600061561d8386616785565b9050615627616b84565b60008311615644576040518060200160405280600081525061564e565b61564e8284616897565b9050615658616b84565b604080516020810190915288546001600160e01b0316815261567a908361604d565b905060405180604001604052806156c08360000151604051806040016040528060138152602001726e657720696e646578206f766572666c6f777360681b8152506168cc565b6001600160e01b031681526020016157068860405180604001604052806016815260200175626c6f636b206e756d626572206f766572666c6f777360501b815250616966565b63ffffffff9081169091526001600160a01b038c166000908152601160209081526040909120835181549490920151909216600160e01b026001600160e01b039182166001600160e01b031990941693909317169190911790555061214e92505050565b801561214e576157a88260405180604001604052806016815260200175626c6f636b206e756d626572206f766572666c6f777360501b815250616966565b845463ffffffff91909116600160e01b026001600160e01b03909116178455505050505050565b601b546001600160a01b0316156157e8576157e86146ab565b6157f0616bbb565b506001600160a01b0383166000908152601160209081526040918290208251808401909352546001600160e01b0381168352600160e01b900463ffffffff169082015261583b616b84565b50604080516020810190915281516001600160e01b0316815261585c616b84565b5060408051602080820183526001600160a01b038089166000908152601383528481209189168082528284529481208054855286519590915291529190915580511561214e576158aa616b84565b6158b48383616834565b90506000615911886001600160a01b03166395dd9193896040518263ffffffff1660e01b815260040180826001600160a01b03166001600160a01b0316815260200191505060206040518083038186803b1580156155dd57600080fd5b9050600061591f8284616859565b6001600160a01b038916600090815260146020526040812054919250906159469083615fce565b6001600160a01b03808b166000818152601460209081526040918290208590558a5182518881529182015281519495509193928e16927f837bdc11fca9f17ce44167944475225a205279b17e88c791c3b1f66f354668fb9281900390910190a350505050505050505050565b602854604080516318c5e8ab60e01b81523360048201818152602483019384528551604484015285516001600160a01b03909516946318c5e8ab949293879391606490910190602085019080838360005b83811015615a1b578181015183820152602001615a03565b50505050905090810190601f168015615a485780820380516001836020036101000a031916815260200191505b50935050505060206040518083038186803b158015615a6657600080fd5b505afa158015615a7a573d6000803e3d6000fd5b505050506040513d6020811015615a9057600080fd5b5051611f0b576040805162461bcd60e51b815260206004820152600d60248201526c1858d8d95cdcc819195b9a5959609a1b604482015290519081900360640190fd5b6001600160a01b03831660009081526009602052604090205460ff16615b2a5760405162461bcd60e51b8152600401808060200182810382526028815260200180616bf16028913960400191505060405180910390fd5b6001600160a01b03831660009081526029602052604081208291846008811115615b5057fe5b815260200190815260200160002060006101000a81548160ff0219169083151502179055507f35007a986bcd36d2f73fc7f1b73762e12eadb4406dd163194950fd3b5a6a827d83838360405180846001600160a01b03166001600160a01b03168152602001836008811115615bc157fe5b60ff16815291151560208301525060408051918290030192509050a1505050565b6000546001600160a01b031633146148d9576040805162461bcd60e51b815260206004820152600e60248201526d37b7363c9030b236b4b71031b0b760911b604482015290519081900360640190fd5b6001600160a01b0381166000908152601060209081526040808320600f9092528220549091615c5f612437565b8354909150600090615c7f908390600160e01b900463ffffffff1661674b565b9050600081118015615c915750600083115b15615e58576000856001600160a01b03166318160ddd6040518163ffffffff1660e01b815260040160206040518083038186803b158015615cd157600080fd5b505afa158015615ce5573d6000803e3d6000fd5b505050506040513d6020811015615cfb57600080fd5b505190506000615d0b8386616785565b9050615d15616b84565b60008311615d325760405180602001604052806000815250615d3c565b615d3c8284616897565b9050615d46616b84565b604080516020810190915288546001600160e01b03168152615d68908361604d565b90506040518060400160405280615dae8360000151604051806040016040528060138152602001726e657720696e646578206f766572666c6f777360681b8152506168cc565b6001600160e01b03168152602001615df48860405180604001604052806016815260200175626c6f636b206e756d626572206f766572666c6f777360501b815250616966565b63ffffffff9081169091526001600160a01b038b166000908152601060209081526040909120835181549490920151909216600160e01b026001600160e01b039182166001600160e01b0319909416939093171691909117905550611f0e92505050565b8015611f0e57615e968260405180604001604052806016815260200175626c6f636b206e756d626572206f766572666c6f777360501b815250616966565b845463ffffffff91909116600160e01b026001600160e01b039091161784555050505050565b6001600160a01b038116611f0b576040805162461bcd60e51b815260206004820152601560248201527463616e2774206265207a65726f206164647265737360581b604482015290519081900360640190fd5b6026546040805163a7032efb60e01b81523060048201526001600160a01b03878116602483015286811660448301526064820186905260848201859052915160009384938493849384938493169163a7032efb9160a4808301926060929190829003018186803b158015615f8257600080fd5b505afa158015615f96573d6000803e3d6000fd5b505050506040513d6060811015615fac57600080fd5b5080516020820151604090920151909450909250905082601281111561251657fe5b60006121b88383604051806040016040528060118152602001706164646974696f6e206f766572666c6f7760781b8152506169bb565b600061600e616b84565b6160188484616023565b9050611ff681616a10565b61602b616b84565b6040518060200160405280616044856000015185616785565b90529392505050565b616055616b84565b604051806020016040528061604485600001518560000151615fce565b61607a616b84565b604051806020016040528061604461609e8660000151670de0b6b3a7640000616785565b8551616a1f565b6000670de0b6b3a76400006160be848460000151616785565b816160c557fe5b049392505050565b6001600160a01b0382166000908152600f60205260409020548015616181576160f4616b84565b6040518060200160405280856001600160a01b031663aa5af0fd6040518163ffffffff1660e01b815260040160206040518083038186803b15801561613857600080fd5b505afa15801561614c573d6000803e3d6000fd5b505050506040513d602081101561616257600080fd5b50519052905061617184615c32565b61617b848261553b565b506163af565b81156163af576001600160a01b03831660009081526009602052604090206161a8906154f1565b6001600160a01b0383166000908152601060205260409020546001600160e01b03161580156161fa57506001600160a01b038316600090815260106020526040902054600160e01b900463ffffffff16155b156162c95760405180604001604052806ec097ce7bc90715b34b9f10000000006001600160e01b0316815260200161626e616233612437565b6040518060400160405280601c81526020017f626c6f636b206e756d6265722065786365656473203332206269747300000000815250616966565b63ffffffff9081169091526001600160a01b0385166000908152601060209081526040909120835181549490920151909216600160e01b026001600160e01b039182166001600160e01b031990941693909317169190911790555b6001600160a01b0383166000908152601160205260409020546001600160e01b031615801561631b57506001600160a01b038316600090815260116020526040902054600160e01b900463ffffffff16155b156163af5760405180604001604052806ec097ce7bc90715b34b9f10000000006001600160e01b03168152602001616354616233612437565b63ffffffff9081169091526001600160a01b0385166000908152601160209081526040909120835181549490920151909216600160e01b026001600160e01b039182166001600160e01b031990941693909317169190911790555b8181146129f5576001600160a01b0383166000818152600f6020908152604091829020859055815185815291517f2a0ce45ba05a83e75ba21e1a10d6b48a8395028cc6e1ae66f6c313648379d5489281900390910190a2505050565b6000546001600160a01b031633148061642c5750336001600160a01b038216145b611f0b576040805162461bcd60e51b815260206004820152600d60248201526c1858d8d95cdcc819195b9a5959609a1b604482015290519081900360640190fd5b60007f45b96fe442630264581b197e84bbada861235052c5a1aadfff9ea4e40a969aa083601281111561649c57fe5b8360178111156164a857fe5b604080519283526020830191909152600082820152519081900360600190a18260128111156121b857fe5b60005b600d5481101561655e57816001600160a01b0316600d82815481106164f757fe5b6000918252602090912001546001600160a01b03161415616556576040805162461bcd60e51b81526020600482015260146024820152731b585c9ad95d08185b1c9958591e48185919195960621b604482015290519081900360640190fd5b6001016164d6565b50600d80546001810182556000919091527fd7b6990105719101dabeb77144f2a3385c8033acd3af97e9423a695e81ad1eb50180546001600160a01b0319166001600160a01b0392909216919091179055565b6001600160a01b03831660009081526009602052604081206165d2906154f1565b6001600160a01b038085166000908152600960209081526040808320938716835260029093019052205460ff1661660a576000613733565b60008061661a8587866000615f0f565b9193509091506000905082601281111561663057fe5b1461664a5781601281111561664157fe5b925050506121b8565b8015614132576004616641565b60006166648360076154a2565b6001600160a01b0383166000908152600960205260409020616685816154f1565b6001600160a01b038316600090815260028201602052604090205460ff16156166b257600091505061377f565b6001600160a01b0380841660008181526002840160209081526040808320805460ff19166001908117909155600883528184208054918201815584529282902090920180549489166001600160a01b031990951685179055815193845283019190915280517f3ab23ab0d51cccc0c3085aec51f99228625aa1a922b3a8ca89a26b0f2027a1a59281900390910190a15060009392505050565b60006121b88383604051806040016040528060158152602001747375627472616374696f6e20756e646572666c6f7760581b815250616a52565b60006121b883836040518060400160405280601781526020017f6d756c7469706c69636174696f6e206f766572666c6f77000000000000000000815250616aac565b5190511090565b60007f45b96fe442630264581b197e84bbada861235052c5a1aadfff9ea4e40a969aa08460128111156167fd57fe5b84601781111561680957fe5b604080519283526020830191909152818101859052519081900360600190a1836012811115611ff657fe5b61683c616b84565b60405180602001604052806160448560000151856000015161674b565b60006ec097ce7bc90715b34b9f10000000006160be848460000151616785565b60006121b861689084670de0b6b3a7640000616785565b8351616a1f565b61689f616b84565b60405180602001604052806160446168c6866ec097ce7bc90715b34b9f1000000000616785565b85616a1f565b600081600160e01b841061695e5760405162461bcd60e51b81526004018080602001828103825283818151815260200191508051906020019080838360005b8381101561692357818101518382015260200161690b565b50505050905090810190601f1680156169505780820380516001836020036101000a031916815260200191505b509250505060405180910390fd5b509192915050565b600081600160201b841061695e5760405162461bcd60e51b815260206004820181815283516024840152835190928392604490910191908501908083836000831561692357818101518382015260200161690b565b60008383018285821015613eec5760405162461bcd60e51b815260206004820181815283516024840152835190928392604490910191908501908083836000831561692357818101518382015260200161690b565b51670de0b6b3a7640000900490565b60006121b883836040518060400160405280600e81526020016d646976696465206279207a65726f60901b815250616b22565b60008184841115616aa45760405162461bcd60e51b815260206004820181815283516024840152835190928392604490910191908501908083836000831561692357818101518382015260200161690b565b505050900390565b6000831580616ab9575082155b15616ac6575060006121b8565b83830283858281616ad357fe5b04148390613eec5760405162461bcd60e51b815260206004820181815283516024840152835190928392604490910191908501908083836000831561692357818101518382015260200161690b565b60008183616b715760405162461bcd60e51b815260206004820181815283516024840152835190928392604490910191908501908083836000831561692357818101518382015260200161690b565b50828481616b7b57fe5b04949350505050565b6040518060200160405280600081525090565b8154818355818111156129f5576000838152602090206129f5918101908301616bd2565b604080518082019091526000808252602082015290565b6123ab91905b80821115616bec5760008155600101616bd8565b509056fe63616e6e6f742070617573652061206d61726b65742074686174206973206e6f74206c69737465645f7365744c69717569646174696f6e496e63656e746976652875696e74323536295f7365744d61726b6574537570706c794361707328616464726573735b5d2c75696e743235365b5d295f7365744d61726b6574426f72726f774361707328616464726573735b5d2c75696e743235365b5d296d696e7420626568616c66206572726f7220647572696e6720636f6c6c61746572616c697a65207876735f736574416374696f6e7350617573656428616464726573735b5d2c75696e743235365b5d2c626f6f6c2962616e6b72757074206163636f756e74732063616e206f6e6c7920636f6c6c61746572616c697a652074686569722070656e64696e672078767320726577617264735f736574436f6c6c61746572616c466163746f7228616464726573732c75696e7432353629a265627a7a72315820c1a1099ac8d14b85519eacecd2e640f18332c6b6b86717fed57d8b504a6eb27864736f6c63430005100032",
  "linkReferences": {},
  "deployedLinkReferences": {}
}