{
  "_format": "hh-sol-artifact-1",
  "contractName": "ComptrollerG4",
  "sourceName": "contracts/ComptrollerG4.sol",
  "abi": [
    {
      "inputs": [],
      "payable": false,
      "stateMutability": "nonpayable",
      "type": "constructor"
    },
    {
      "anonymous": false,
      "inputs": [
        {
          "indexed": false,
          "internalType": "string",
          "name": "action",
          "type": "string"
        },
        {
          "indexed": false,
          "internalType": "bool",
          "name": "pauseState",
          "type": "bool"
        }
      ],
      "name": "ActionPaused",
      "type": "event"
    },
    {
      "anonymous": false,
      "inputs": [
        {
          "indexed": false,
          "internalType": "contract VToken",
          "name": "vToken",
          "type": "address"
        },
        {
          "indexed": false,
          "internalType": "string",
          "name": "action",
          "type": "string"
        },
        {
          "indexed": false,
          "internalType": "bool",
          "name": "pauseState",
          "type": "bool"
        }
      ],
      "name": "ActionPaused",
      "type": "event"
    },
    {
      "anonymous": false,
      "inputs": [
        {
          "indexed": false,
          "internalType": "bool",
          "name": "state",
          "type": "bool"
        }
      ],
      "name": "ActionProtocolPaused",
      "type": "event"
    },
    {
      "anonymous": false,
      "inputs": [
        {
          "indexed": true,
          "internalType": "contract VToken",
          "name": "vToken",
          "type": "address"
        },
        {
          "indexed": true,
          "internalType": "address",
          "name": "borrower",
          "type": "address"
        },
        {
          "indexed": false,
          "internalType": "uint256",
          "name": "venusDelta",
          "type": "uint256"
        },
        {
          "indexed": false,
          "internalType": "uint256",
          "name": "venusBorrowIndex",
          "type": "uint256"
        }
      ],
      "name": "DistributedBorrowerVenus",
      "type": "event"
    },
    {
      "anonymous": false,
      "inputs": [
        {
          "indexed": true,
          "internalType": "contract VToken",
          "name": "vToken",
          "type": "address"
        },
        {
          "indexed": true,
          "internalType": "address",
          "name": "supplier",
          "type": "address"
        },
        {
          "indexed": false,
          "internalType": "uint256",
          "name": "venusDelta",
          "type": "uint256"
        },
        {
          "indexed": false,
          "internalType": "uint256",
          "name": "venusSupplyIndex",
          "type": "uint256"
        }
      ],
      "name": "DistributedSupplierVenus",
      "type": "event"
    },
    {
      "anonymous": false,
      "inputs": [
        {
          "indexed": true,
          "internalType": "address",
          "name": "vaiMinter",
          "type": "address"
        },
        {
          "indexed": false,
          "internalType": "uint256",
          "name": "venusDelta",
          "type": "uint256"
        },
        {
          "indexed": false,
          "internalType": "uint256",
          "name": "venusVAIMintIndex",
          "type": "uint256"
        }
      ],
      "name": "DistributedVAIMinterVenus",
      "type": "event"
    },
    {
      "anonymous": false,
      "inputs": [
        {
          "indexed": false,
          "internalType": "uint256",
          "name": "amount",
          "type": "uint256"
        }
      ],
      "name": "DistributedVAIVaultVenus",
      "type": "event"
    },
    {
      "anonymous": false,
      "inputs": [
        {
          "indexed": false,
          "internalType": "uint256",
          "name": "error",
          "type": "uint256"
        },
        {
          "indexed": false,
          "internalType": "uint256",
          "name": "info",
          "type": "uint256"
        },
        {
          "indexed": false,
          "internalType": "uint256",
          "name": "detail",
          "type": "uint256"
        }
      ],
      "name": "Failure",
      "type": "event"
    },
    {
      "anonymous": false,
      "inputs": [
        {
          "indexed": false,
          "internalType": "contract VToken",
          "name": "vToken",
          "type": "address"
        },
        {
          "indexed": false,
          "internalType": "address",
          "name": "account",
          "type": "address"
        }
      ],
      "name": "MarketEntered",
      "type": "event"
    },
    {
      "anonymous": false,
      "inputs": [
        {
          "indexed": false,
          "internalType": "contract VToken",
          "name": "vToken",
          "type": "address"
        },
        {
          "indexed": false,
          "internalType": "address",
          "name": "account",
          "type": "address"
        }
      ],
      "name": "MarketExited",
      "type": "event"
    },
    {
      "anonymous": false,
      "inputs": [
        {
          "indexed": false,
          "internalType": "contract VToken",
          "name": "vToken",
          "type": "address"
        }
      ],
      "name": "MarketListed",
      "type": "event"
    },
    {
      "anonymous": false,
      "inputs": [
        {
          "indexed": true,
          "internalType": "contract VToken",
          "name": "vToken",
          "type": "address"
        },
        {
          "indexed": false,
          "internalType": "uint256",
          "name": "newBorrowCap",
          "type": "uint256"
        }
      ],
      "name": "NewBorrowCap",
      "type": "event"
    },
    {
      "anonymous": false,
      "inputs": [
        {
          "indexed": false,
          "internalType": "address",
          "name": "oldBorrowCapGuardian",
          "type": "address"
        },
        {
          "indexed": false,
          "internalType": "address",
          "name": "newBorrowCapGuardian",
          "type": "address"
        }
      ],
      "name": "NewBorrowCapGuardian",
      "type": "event"
    },
    {
      "anonymous": false,
      "inputs": [
        {
          "indexed": false,
          "internalType": "uint256",
          "name": "oldCloseFactorMantissa",
          "type": "uint256"
        },
        {
          "indexed": false,
          "internalType": "uint256",
          "name": "newCloseFactorMantissa",
          "type": "uint256"
        }
      ],
      "name": "NewCloseFactor",
      "type": "event"
    },
    {
      "anonymous": false,
      "inputs": [
        {
          "indexed": false,
          "internalType": "contract VToken",
          "name": "vToken",
          "type": "address"
        },
        {
          "indexed": false,
          "internalType": "uint256",
          "name": "oldCollateralFactorMantissa",
          "type": "uint256"
        },
        {
          "indexed": false,
          "internalType": "uint256",
          "name": "newCollateralFactorMantissa",
          "type": "uint256"
        }
      ],
      "name": "NewCollateralFactor",
      "type": "event"
    },
    {
      "anonymous": false,
      "inputs": [
        {
          "indexed": false,
          "internalType": "uint256",
          "name": "oldLiquidationIncentiveMantissa",
          "type": "uint256"
        },
        {
          "indexed": false,
          "internalType": "uint256",
          "name": "newLiquidationIncentiveMantissa",
          "type": "uint256"
        }
      ],
      "name": "NewLiquidationIncentive",
      "type": "event"
    },
    {
      "anonymous": false,
      "inputs": [
        {
          "indexed": false,
          "internalType": "address",
          "name": "oldPauseGuardian",
          "type": "address"
        },
        {
          "indexed": false,
          "internalType": "address",
          "name": "newPauseGuardian",
          "type": "address"
        }
      ],
      "name": "NewPauseGuardian",
      "type": "event"
    },
    {
      "anonymous": false,
      "inputs": [
        {
          "indexed": false,
          "internalType": "contract PriceOracle",
          "name": "oldPriceOracle",
          "type": "address"
        },
        {
          "indexed": false,
          "internalType": "contract PriceOracle",
          "name": "newPriceOracle",
          "type": "address"
        }
      ],
      "name": "NewPriceOracle",
      "type": "event"
    },
    {
      "anonymous": false,
      "inputs": [
        {
          "indexed": false,
          "internalType": "address",
          "name": "oldTreasuryAddress",
          "type": "address"
        },
        {
          "indexed": false,
          "internalType": "address",
          "name": "newTreasuryAddress",
          "type": "address"
        }
      ],
      "name": "NewTreasuryAddress",
      "type": "event"
    },
    {
      "anonymous": false,
      "inputs": [
        {
          "indexed": false,
          "internalType": "address",
          "name": "oldTreasuryGuardian",
          "type": "address"
        },
        {
          "indexed": false,
          "internalType": "address",
          "name": "newTreasuryGuardian",
          "type": "address"
        }
      ],
      "name": "NewTreasuryGuardian",
      "type": "event"
    },
    {
      "anonymous": false,
      "inputs": [
        {
          "indexed": false,
          "internalType": "uint256",
          "name": "oldTreasuryPercent",
          "type": "uint256"
        },
        {
          "indexed": false,
          "internalType": "uint256",
          "name": "newTreasuryPercent",
          "type": "uint256"
        }
      ],
      "name": "NewTreasuryPercent",
      "type": "event"
    },
    {
      "anonymous": false,
      "inputs": [
        {
          "indexed": false,
          "internalType": "contract VAIControllerInterface",
          "name": "oldVAIController",
          "type": "address"
        },
        {
          "indexed": false,
          "internalType": "contract VAIControllerInterface",
          "name": "newVAIController",
          "type": "address"
        }
      ],
      "name": "NewVAIController",
      "type": "event"
    },
    {
      "anonymous": false,
      "inputs": [
        {
          "indexed": false,
          "internalType": "uint256",
          "name": "oldVAIMintRate",
          "type": "uint256"
        },
        {
          "indexed": false,
          "internalType": "uint256",
          "name": "newVAIMintRate",
          "type": "uint256"
        }
      ],
      "name": "NewVAIMintRate",
      "type": "event"
    },
    {
      "anonymous": false,
      "inputs": [
        {
          "indexed": false,
          "internalType": "address",
          "name": "vault_",
          "type": "address"
        },
        {
          "indexed": false,
          "internalType": "uint256",
          "name": "releaseStartBlock_",
          "type": "uint256"
        },
        {
          "indexed": false,
          "internalType": "uint256",
          "name": "releaseInterval_",
          "type": "uint256"
        }
      ],
      "name": "NewVAIVaultInfo",
      "type": "event"
    },
    {
      "anonymous": false,
      "inputs": [
        {
          "indexed": false,
          "internalType": "uint256",
          "name": "oldVenusVAIVaultRate",
          "type": "uint256"
        },
        {
          "indexed": false,
          "internalType": "uint256",
          "name": "newVenusVAIVaultRate",
          "type": "uint256"
        }
      ],
      "name": "NewVenusVAIVaultRate",
      "type": "event"
    },
    {
      "anonymous": false,
      "inputs": [
        {
          "indexed": true,
          "internalType": "contract VToken",
          "name": "vToken",
          "type": "address"
        },
        {
          "indexed": false,
          "internalType": "uint256",
          "name": "newSpeed",
          "type": "uint256"
        }
      ],
      "name": "VenusSpeedUpdated",
      "type": "event"
    },
    {
      "constant": false,
      "inputs": [
        {
          "internalType": "contract Unitroller",
          "name": "unitroller",
          "type": "address"
        }
      ],
      "name": "_become",
      "outputs": [],
      "payable": false,
      "stateMutability": "nonpayable",
      "type": "function"
    },
    {
      "constant": false,
      "inputs": [
        {
          "internalType": "address",
          "name": "newBorrowCapGuardian",
          "type": "address"
        }
      ],
      "name": "_setBorrowCapGuardian",
      "outputs": [],
      "payable": false,
      "stateMutability": "nonpayable",
      "type": "function"
    },
    {
      "constant": false,
      "inputs": [
        {
          "internalType": "uint256",
          "name": "newCloseFactorMantissa",
          "type": "uint256"
        }
      ],
      "name": "_setCloseFactor",
      "outputs": [
        {
          "internalType": "uint256",
          "name": "",
          "type": "uint256"
        }
      ],
      "payable": false,
      "stateMutability": "nonpayable",
      "type": "function"
    },
    {
      "constant": false,
      "inputs": [
        {
          "internalType": "contract VToken",
          "name": "vToken",
          "type": "address"
        },
        {
          "internalType": "uint256",
          "name": "newCollateralFactorMantissa",
          "type": "uint256"
        }
      ],
      "name": "_setCollateralFactor",
      "outputs": [
        {
          "internalType": "uint256",
          "name": "",
          "type": "uint256"
        }
      ],
      "payable": false,
      "stateMutability": "nonpayable",
      "type": "function"
    },
    {
      "constant": false,
      "inputs": [
        {
          "internalType": "uint256",
          "name": "newLiquidationIncentiveMantissa",
          "type": "uint256"
        }
      ],
      "name": "_setLiquidationIncentive",
      "outputs": [
        {
          "internalType": "uint256",
          "name": "",
          "type": "uint256"
        }
      ],
      "payable": false,
      "stateMutability": "nonpayable",
      "type": "function"
    },
    {
      "constant": false,
      "inputs": [
        {
          "internalType": "contract VToken[]",
          "name": "vTokens",
          "type": "address[]"
        },
        {
          "internalType": "uint256[]",
          "name": "newBorrowCaps",
          "type": "uint256[]"
        }
      ],
      "name": "_setMarketBorrowCaps",
      "outputs": [],
      "payable": false,
      "stateMutability": "nonpayable",
      "type": "function"
    },
    {
      "constant": false,
      "inputs": [
        {
          "internalType": "address",
          "name": "newPauseGuardian",
          "type": "address"
        }
      ],
      "name": "_setPauseGuardian",
      "outputs": [
        {
          "internalType": "uint256",
          "name": "",
          "type": "uint256"
        }
      ],
      "payable": false,
      "stateMutability": "nonpayable",
      "type": "function"
    },
    {
      "constant": false,
      "inputs": [
        {
          "internalType": "contract PriceOracle",
          "name": "newOracle",
          "type": "address"
        }
      ],
      "name": "_setPriceOracle",
      "outputs": [
        {
          "internalType": "uint256",
          "name": "",
          "type": "uint256"
        }
      ],
      "payable": false,
      "stateMutability": "nonpayable",
      "type": "function"
    },
    {
      "constant": false,
      "inputs": [
        {
          "internalType": "bool",
          "name": "state",
          "type": "bool"
        }
      ],
      "name": "_setProtocolPaused",
      "outputs": [
        {
          "internalType": "bool",
          "name": "",
          "type": "bool"
        }
      ],
      "payable": false,
      "stateMutability": "nonpayable",
      "type": "function"
    },
    {
      "constant": false,
      "inputs": [
        {
          "internalType": "address",
          "name": "newTreasuryGuardian",
          "type": "address"
        },
        {
          "internalType": "address",
          "name": "newTreasuryAddress",
          "type": "address"
        },
        {
          "internalType": "uint256",
          "name": "newTreasuryPercent",
          "type": "uint256"
        }
      ],
      "name": "_setTreasuryData",
      "outputs": [
        {
          "internalType": "uint256",
          "name": "",
          "type": "uint256"
        }
      ],
      "payable": false,
      "stateMutability": "nonpayable",
      "type": "function"
    },
    {
      "constant": false,
      "inputs": [
        {
          "internalType": "contract VAIControllerInterface",
          "name": "vaiController_",
          "type": "address"
        }
      ],
      "name": "_setVAIController",
      "outputs": [
        {
          "internalType": "uint256",
          "name": "",
          "type": "uint256"
        }
      ],
      "payable": false,
      "stateMutability": "nonpayable",
      "type": "function"
    },
    {
      "constant": false,
      "inputs": [
        {
          "internalType": "uint256",
          "name": "newVAIMintRate",
          "type": "uint256"
        }
      ],
      "name": "_setVAIMintRate",
      "outputs": [
        {
          "internalType": "uint256",
          "name": "",
          "type": "uint256"
        }
      ],
      "payable": false,
      "stateMutability": "nonpayable",
      "type": "function"
    },
    {
      "constant": false,
      "inputs": [
        {
          "internalType": "address",
          "name": "vault_",
          "type": "address"
        },
        {
          "internalType": "uint256",
          "name": "releaseStartBlock_",
          "type": "uint256"
        },
        {
          "internalType": "uint256",
          "name": "minReleaseAmount_",
          "type": "uint256"
        }
      ],
      "name": "_setVAIVaultInfo",
      "outputs": [],
      "payable": false,
      "stateMutability": "nonpayable",
      "type": "function"
    },
    {
      "constant": false,
      "inputs": [
        {
          "internalType": "contract VToken",
          "name": "vToken",
          "type": "address"
        },
        {
          "internalType": "uint256",
          "name": "venusSpeed",
          "type": "uint256"
        }
      ],
      "name": "_setVenusSpeed",
      "outputs": [],
      "payable": false,
      "stateMutability": "nonpayable",
      "type": "function"
    },
    {
      "constant": false,
      "inputs": [
        {
          "internalType": "uint256",
          "name": "venusVAIVaultRate_",
          "type": "uint256"
        }
      ],
      "name": "_setVenusVAIVaultRate",
      "outputs": [],
      "payable": false,
      "stateMutability": "nonpayable",
      "type": "function"
    },
    {
      "constant": false,
      "inputs": [
        {
          "internalType": "contract VToken",
          "name": "vToken",
          "type": "address"
        }
      ],
      "name": "_supportMarket",
      "outputs": [
        {
          "internalType": "uint256",
          "name": "",
          "type": "uint256"
        }
      ],
      "payable": false,
      "stateMutability": "nonpayable",
      "type": "function"
    },
    {
      "constant": true,
      "inputs": [
        {
          "internalType": "address",
          "name": "",
          "type": "address"
        },
        {
          "internalType": "uint256",
          "name": "",
          "type": "uint256"
        }
      ],
      "name": "accountAssets",
      "outputs": [
        {
          "internalType": "contract VToken",
          "name": "",
          "type": "address"
        }
      ],
      "payable": false,
      "stateMutability": "view",
      "type": "function"
    },
    {
      "constant": true,
      "inputs": [],
      "name": "admin",
      "outputs": [
        {
          "internalType": "address",
          "name": "",
          "type": "address"
        }
      ],
      "payable": false,
      "stateMutability": "view",
      "type": "function"
    },
    {
      "constant": true,
      "inputs": [
        {
          "internalType": "uint256",
          "name": "",
          "type": "uint256"
        }
      ],
      "name": "allMarkets",
      "outputs": [
        {
          "internalType": "contract VToken",
          "name": "",
          "type": "address"
        }
      ],
      "payable": false,
      "stateMutability": "view",
      "type": "function"
    },
    {
      "constant": false,
      "inputs": [
        {
          "internalType": "address",
          "name": "vToken",
          "type": "address"
        },
        {
          "internalType": "address",
          "name": "borrower",
          "type": "address"
        },
        {
          "internalType": "uint256",
          "name": "borrowAmount",
          "type": "uint256"
        }
      ],
      "name": "borrowAllowed",
      "outputs": [
        {
          "internalType": "uint256",
          "name": "",
          "type": "uint256"
        }
      ],
      "payable": false,
      "stateMutability": "nonpayable",
      "type": "function"
    },
    {
      "constant": true,
      "inputs": [],
      "name": "borrowCapGuardian",
      "outputs": [
        {
          "internalType": "address",
          "name": "",
          "type": "address"
        }
      ],
      "payable": false,
      "stateMutability": "view",
      "type": "function"
    },
    {
      "constant": true,
      "inputs": [
        {
          "internalType": "address",
          "name": "",
          "type": "address"
        }
      ],
      "name": "borrowCaps",
      "outputs": [
        {
          "internalType": "uint256",
          "name": "",
          "type": "uint256"
        }
      ],
      "payable": false,
      "stateMutability": "view",
      "type": "function"
    },
    {
      "constant": false,
      "inputs": [
        {
          "internalType": "address",
          "name": "vToken",
          "type": "address"
        },
        {
          "internalType": "address",
          "name": "borrower",
          "type": "address"
        },
        {
          "internalType": "uint256",
          "name": "borrowAmount",
          "type": "uint256"
        }
      ],
      "name": "borrowVerify",
      "outputs": [],
      "payable": false,
      "stateMutability": "nonpayable",
      "type": "function"
    },
    {
      "constant": true,
      "inputs": [
        {
          "internalType": "address",
          "name": "account",
          "type": "address"
        },
        {
          "internalType": "contract VToken",
          "name": "vToken",
          "type": "address"
        }
      ],
      "name": "checkMembership",
      "outputs": [
        {
          "internalType": "bool",
          "name": "",
          "type": "bool"
        }
      ],
      "payable": false,
      "stateMutability": "view",
      "type": "function"
    },
    {
      "constant": false,
      "inputs": [
        {
          "internalType": "address",
          "name": "holder",
          "type": "address"
        },
        {
          "internalType": "contract VToken[]",
          "name": "vTokens",
          "type": "address[]"
        }
      ],
      "name": "claimVenus",
      "outputs": [],
      "payable": false,
      "stateMutability": "nonpayable",
      "type": "function"
    },
    {
      "constant": false,
      "inputs": [
        {
          "internalType": "address",
          "name": "holder",
          "type": "address"
        }
      ],
      "name": "claimVenus",
      "outputs": [],
      "payable": false,
      "stateMutability": "nonpayable",
      "type": "function"
    },
    {
      "constant": false,
      "inputs": [
        {
          "internalType": "address[]",
          "name": "holders",
          "type": "address[]"
        },
        {
          "internalType": "contract VToken[]",
          "name": "vTokens",
          "type": "address[]"
        },
        {
          "internalType": "bool",
          "name": "borrowers",
          "type": "bool"
        },
        {
          "internalType": "bool",
          "name": "suppliers",
          "type": "bool"
        }
      ],
      "name": "claimVenus",
      "outputs": [],
      "payable": false,
      "stateMutability": "nonpayable",
      "type": "function"
    },
    {
      "constant": true,
      "inputs": [],
      "name": "closeFactorMantissa",
      "outputs": [
        {
          "internalType": "uint256",
          "name": "",
          "type": "uint256"
        }
      ],
      "payable": false,
      "stateMutability": "view",
      "type": "function"
    },
    {
      "constant": true,
      "inputs": [],
      "name": "comptrollerImplementation",
      "outputs": [
        {
          "internalType": "address",
          "name": "",
          "type": "address"
        }
      ],
      "payable": false,
      "stateMutability": "view",
      "type": "function"
    },
    {
      "constant": false,
      "inputs": [
        {
          "internalType": "address",
          "name": "vaiMinter",
          "type": "address"
        }
      ],
      "name": "distributeVAIMinterVenus",
      "outputs": [],
      "payable": false,
      "stateMutability": "nonpayable",
      "type": "function"
    },
    {
      "constant": false,
      "inputs": [
        {
          "internalType": "address[]",
          "name": "vTokens",
          "type": "address[]"
        }
      ],
      "name": "enterMarkets",
      "outputs": [
        {
          "internalType": "uint256[]",
          "name": "",
          "type": "uint256[]"
        }
      ],
      "payable": false,
      "stateMutability": "nonpayable",
      "type": "function"
    },
    {
      "constant": false,
      "inputs": [
        {
          "internalType": "address",
          "name": "vTokenAddress",
          "type": "address"
        }
      ],
      "name": "exitMarket",
      "outputs": [
        {
          "internalType": "uint256",
          "name": "",
          "type": "uint256"
        }
      ],
      "payable": false,
      "stateMutability": "nonpayable",
      "type": "function"
    },
    {
      "constant": true,
      "inputs": [
        {
          "internalType": "address",
          "name": "account",
          "type": "address"
        }
      ],
      "name": "getAccountLiquidity",
      "outputs": [
        {
          "internalType": "uint256",
          "name": "",
          "type": "uint256"
        },
        {
          "internalType": "uint256",
          "name": "",
          "type": "uint256"
        },
        {
          "internalType": "uint256",
          "name": "",
          "type": "uint256"
        }
      ],
      "payable": false,
      "stateMutability": "view",
      "type": "function"
    },
    {
      "constant": true,
      "inputs": [],
      "name": "getAllMarkets",
      "outputs": [
        {
          "internalType": "contract VToken[]",
          "name": "",
          "type": "address[]"
        }
      ],
      "payable": false,
      "stateMutability": "view",
      "type": "function"
    },
    {
      "constant": true,
      "inputs": [
        {
          "internalType": "address",
          "name": "account",
          "type": "address"
        }
      ],
      "name": "getAssetsIn",
      "outputs": [
        {
          "internalType": "contract VToken[]",
          "name": "",
          "type": "address[]"
        }
      ],
      "payable": false,
      "stateMutability": "view",
      "type": "function"
    },
    {
      "constant": true,
      "inputs": [],
      "name": "getBlockNumber",
      "outputs": [
        {
          "internalType": "uint256",
          "name": "",
          "type": "uint256"
        }
      ],
      "payable": false,
      "stateMutability": "view",
      "type": "function"
    },
    {
      "constant": true,
      "inputs": [
        {
          "internalType": "address",
          "name": "account",
          "type": "address"
        },
        {
          "internalType": "address",
          "name": "vTokenModify",
          "type": "address"
        },
        {
          "internalType": "uint256",
          "name": "redeemTokens",
          "type": "uint256"
        },
        {
          "internalType": "uint256",
          "name": "borrowAmount",
          "type": "uint256"
        }
      ],
      "name": "getHypotheticalAccountLiquidity",
      "outputs": [
        {
          "internalType": "uint256",
          "name": "",
          "type": "uint256"
        },
        {
          "internalType": "uint256",
          "name": "",
          "type": "uint256"
        },
        {
          "internalType": "uint256",
          "name": "",
          "type": "uint256"
        }
      ],
      "payable": false,
      "stateMutability": "view",
      "type": "function"
    },
    {
      "constant": true,
      "inputs": [],
      "name": "getXVSAddress",
      "outputs": [
        {
          "internalType": "address",
          "name": "",
          "type": "address"
        }
      ],
      "payable": false,
      "stateMutability": "view",
      "type": "function"
    },
    {
      "constant": true,
      "inputs": [],
      "name": "isComptroller",
      "outputs": [
        {
          "internalType": "bool",
          "name": "",
          "type": "bool"
        }
      ],
      "payable": false,
      "stateMutability": "view",
      "type": "function"
    },
    {
      "constant": false,
      "inputs": [
        {
          "internalType": "address",
          "name": "vTokenBorrowed",
          "type": "address"
        },
        {
          "internalType": "address",
          "name": "vTokenCollateral",
          "type": "address"
        },
        {
          "internalType": "address",
          "name": "liquidator",
          "type": "address"
        },
        {
          "internalType": "address",
          "name": "borrower",
          "type": "address"
        },
        {
          "internalType": "uint256",
          "name": "repayAmount",
          "type": "uint256"
        }
      ],
      "name": "liquidateBorrowAllowed",
      "outputs": [
        {
          "internalType": "uint256",
          "name": "",
          "type": "uint256"
        }
      ],
      "payable": false,
      "stateMutability": "nonpayable",
      "type": "function"
    },
    {
      "constant": false,
      "inputs": [
        {
          "internalType": "address",
          "name": "vTokenBorrowed",
          "type": "address"
        },
        {
          "internalType": "address",
          "name": "vTokenCollateral",
          "type": "address"
        },
        {
          "internalType": "address",
          "name": "liquidator",
          "type": "address"
        },
        {
          "internalType": "address",
          "name": "borrower",
          "type": "address"
        },
        {
          "internalType": "uint256",
          "name": "actualRepayAmount",
          "type": "uint256"
        },
        {
          "internalType": "uint256",
          "name": "seizeTokens",
          "type": "uint256"
        }
      ],
      "name": "liquidateBorrowVerify",
      "outputs": [],
      "payable": false,
      "stateMutability": "nonpayable",
      "type": "function"
    },
    {
      "constant": true,
      "inputs": [
        {
          "internalType": "address",
          "name": "vTokenBorrowed",
          "type": "address"
        },
        {
          "internalType": "address",
          "name": "vTokenCollateral",
          "type": "address"
        },
        {
          "internalType": "uint256",
          "name": "actualRepayAmount",
          "type": "uint256"
        }
      ],
      "name": "liquidateCalculateSeizeTokens",
      "outputs": [
        {
          "internalType": "uint256",
          "name": "",
          "type": "uint256"
        },
        {
          "internalType": "uint256",
          "name": "",
          "type": "uint256"
        }
      ],
      "payable": false,
      "stateMutability": "view",
      "type": "function"
    },
    {
      "constant": true,
      "inputs": [
        {
          "internalType": "address",
          "name": "vTokenCollateral",
          "type": "address"
        },
        {
          "internalType": "uint256",
          "name": "actualRepayAmount",
          "type": "uint256"
        }
      ],
      "name": "liquidateVAICalculateSeizeTokens",
      "outputs": [
        {
          "internalType": "uint256",
          "name": "",
          "type": "uint256"
        },
        {
          "internalType": "uint256",
          "name": "",
          "type": "uint256"
        }
      ],
      "payable": false,
      "stateMutability": "view",
      "type": "function"
    },
    {
      "constant": true,
      "inputs": [],
      "name": "liquidationIncentiveMantissa",
      "outputs": [
        {
          "internalType": "uint256",
          "name": "",
          "type": "uint256"
        }
      ],
      "payable": false,
      "stateMutability": "view",
      "type": "function"
    },
    {
      "constant": true,
      "inputs": [
        {
          "internalType": "address",
          "name": "",
          "type": "address"
        }
      ],
      "name": "markets",
      "outputs": [
        {
          "internalType": "bool",
          "name": "isListed",
          "type": "bool"
        },
        {
          "internalType": "uint256",
          "name": "collateralFactorMantissa",
          "type": "uint256"
        },
        {
          "internalType": "bool",
          "name": "isVenus",
          "type": "bool"
        }
      ],
      "payable": false,
      "stateMutability": "view",
      "type": "function"
    },
    {
      "constant": true,
      "inputs": [],
      "name": "maxAssets",
      "outputs": [
        {
          "internalType": "uint256",
          "name": "",
          "type": "uint256"
        }
      ],
      "payable": false,
      "stateMutability": "view",
      "type": "function"
    },
    {
      "constant": true,
      "inputs": [],
      "name": "minReleaseAmount",
      "outputs": [
        {
          "internalType": "uint256",
          "name": "",
          "type": "uint256"
        }
      ],
      "payable": false,
      "stateMutability": "view",
      "type": "function"
    },
    {
      "constant": false,
      "inputs": [
        {
          "internalType": "address",
          "name": "vToken",
          "type": "address"
        },
        {
          "internalType": "address",
          "name": "minter",
          "type": "address"
        },
        {
          "internalType": "uint256",
          "name": "mintAmount",
          "type": "uint256"
        }
      ],
      "name": "mintAllowed",
      "outputs": [
        {
          "internalType": "uint256",
          "name": "",
          "type": "uint256"
        }
      ],
      "payable": false,
      "stateMutability": "nonpayable",
      "type": "function"
    },
    {
      "constant": true,
      "inputs": [],
      "name": "mintVAIGuardianPaused",
      "outputs": [
        {
          "internalType": "bool",
          "name": "",
          "type": "bool"
        }
      ],
      "payable": false,
      "stateMutability": "view",
      "type": "function"
    },
    {
      "constant": false,
      "inputs": [
        {
          "internalType": "address",
          "name": "vToken",
          "type": "address"
        },
        {
          "internalType": "address",
          "name": "minter",
          "type": "address"
        },
        {
          "internalType": "uint256",
          "name": "actualMintAmount",
          "type": "uint256"
        },
        {
          "internalType": "uint256",
          "name": "mintTokens",
          "type": "uint256"
        }
      ],
      "name": "mintVerify",
      "outputs": [],
      "payable": false,
      "stateMutability": "nonpayable",
      "type": "function"
    },
    {
      "constant": true,
      "inputs": [
        {
          "internalType": "address",
          "name": "",
          "type": "address"
        }
      ],
      "name": "mintedVAIs",
      "outputs": [
        {
          "internalType": "uint256",
          "name": "",
          "type": "uint256"
        }
      ],
      "payable": false,
      "stateMutability": "view",
      "type": "function"
    },
    {
      "constant": true,
      "inputs": [],
      "name": "oracle",
      "outputs": [
        {
          "internalType": "contract PriceOracle",
          "name": "",
          "type": "address"
        }
      ],
      "payable": false,
      "stateMutability": "view",
      "type": "function"
    },
    {
      "constant": true,
      "inputs": [],
      "name": "pauseGuardian",
      "outputs": [
        {
          "internalType": "address",
          "name": "",
          "type": "address"
        }
      ],
      "payable": false,
      "stateMutability": "view",
      "type": "function"
    },
    {
      "constant": true,
      "inputs": [],
      "name": "pendingAdmin",
      "outputs": [
        {
          "internalType": "address",
          "name": "",
          "type": "address"
        }
      ],
      "payable": false,
      "stateMutability": "view",
      "type": "function"
    },
    {
      "constant": true,
      "inputs": [],
      "name": "pendingComptrollerImplementation",
      "outputs": [
        {
          "internalType": "address",
          "name": "",
          "type": "address"
        }
      ],
      "payable": false,
      "stateMutability": "view",
      "type": "function"
    },
    {
      "constant": true,
      "inputs": [],
      "name": "protocolPaused",
      "outputs": [
        {
          "internalType": "bool",
          "name": "",
          "type": "bool"
        }
      ],
      "payable": false,
      "stateMutability": "view",
      "type": "function"
    },
    {
      "constant": false,
      "inputs": [
        {
          "internalType": "address",
          "name": "vToken",
          "type": "address"
        },
        {
          "internalType": "address",
          "name": "redeemer",
          "type": "address"
        },
        {
          "internalType": "uint256",
          "name": "redeemTokens",
          "type": "uint256"
        }
      ],
      "name": "redeemAllowed",
      "outputs": [
        {
          "internalType": "uint256",
          "name": "",
          "type": "uint256"
        }
      ],
      "payable": false,
      "stateMutability": "nonpayable",
      "type": "function"
    },
    {
      "constant": false,
      "inputs": [
        {
          "internalType": "address",
          "name": "vToken",
          "type": "address"
        },
        {
          "internalType": "address",
          "name": "redeemer",
          "type": "address"
        },
        {
          "internalType": "uint256",
          "name": "redeemAmount",
          "type": "uint256"
        },
        {
          "internalType": "uint256",
          "name": "redeemTokens",
          "type": "uint256"
        }
      ],
      "name": "redeemVerify",
      "outputs": [],
      "payable": false,
      "stateMutability": "nonpayable",
      "type": "function"
    },
    {
      "constant": true,
      "inputs": [],
      "name": "releaseStartBlock",
      "outputs": [
        {
          "internalType": "uint256",
          "name": "",
          "type": "uint256"
        }
      ],
      "payable": false,
      "stateMutability": "view",
      "type": "function"
    },
    {
      "constant": false,
      "inputs": [],
      "name": "releaseToVault",
      "outputs": [],
      "payable": false,
      "stateMutability": "nonpayable",
      "type": "function"
    },
    {
      "constant": false,
      "inputs": [
        {
          "internalType": "address",
          "name": "vToken",
          "type": "address"
        },
        {
          "internalType": "address",
          "name": "payer",
          "type": "address"
        },
        {
          "internalType": "address",
          "name": "borrower",
          "type": "address"
        },
        {
          "internalType": "uint256",
          "name": "repayAmount",
          "type": "uint256"
        }
      ],
      "name": "repayBorrowAllowed",
      "outputs": [
        {
          "internalType": "uint256",
          "name": "",
          "type": "uint256"
        }
      ],
      "payable": false,
      "stateMutability": "nonpayable",
      "type": "function"
    },
    {
      "constant": false,
      "inputs": [
        {
          "internalType": "address",
          "name": "vToken",
          "type": "address"
        },
        {
          "internalType": "address",
          "name": "payer",
          "type": "address"
        },
        {
          "internalType": "address",
          "name": "borrower",
          "type": "address"
        },
        {
          "internalType": "uint256",
          "name": "actualRepayAmount",
          "type": "uint256"
        },
        {
          "internalType": "uint256",
          "name": "borrowerIndex",
          "type": "uint256"
        }
      ],
      "name": "repayBorrowVerify",
      "outputs": [],
      "payable": false,
      "stateMutability": "nonpayable",
      "type": "function"
    },
    {
      "constant": true,
      "inputs": [],
      "name": "repayVAIGuardianPaused",
      "outputs": [
        {
          "internalType": "bool",
          "name": "",
          "type": "bool"
        }
      ],
      "payable": false,
      "stateMutability": "view",
      "type": "function"
    },
    {
      "constant": false,
      "inputs": [
        {
          "internalType": "address",
          "name": "vTokenCollateral",
          "type": "address"
        },
        {
          "internalType": "address",
          "name": "vTokenBorrowed",
          "type": "address"
        },
        {
          "internalType": "address",
          "name": "liquidator",
          "type": "address"
        },
        {
          "internalType": "address",
          "name": "borrower",
          "type": "address"
        },
        {
          "internalType": "uint256",
          "name": "seizeTokens",
          "type": "uint256"
        }
      ],
      "name": "seizeAllowed",
      "outputs": [
        {
          "internalType": "uint256",
          "name": "",
          "type": "uint256"
        }
      ],
      "payable": false,
      "stateMutability": "nonpayable",
      "type": "function"
    },
    {
      "constant": false,
      "inputs": [
        {
          "internalType": "address",
          "name": "vTokenCollateral",
          "type": "address"
        },
        {
          "internalType": "address",
          "name": "vTokenBorrowed",
          "type": "address"
        },
        {
          "internalType": "address",
          "name": "liquidator",
          "type": "address"
        },
        {
          "internalType": "address",
          "name": "borrower",
          "type": "address"
        },
        {
          "internalType": "uint256",
          "name": "seizeTokens",
          "type": "uint256"
        }
      ],
      "name": "seizeVerify",
      "outputs": [],
      "payable": false,
      "stateMutability": "nonpayable",
      "type": "function"
    },
    {
      "constant": false,
      "inputs": [
        {
          "internalType": "address",
          "name": "owner",
          "type": "address"
        },
        {
          "internalType": "uint256",
          "name": "amount",
          "type": "uint256"
        }
      ],
      "name": "setMintedVAIOf",
      "outputs": [
        {
          "internalType": "uint256",
          "name": "",
          "type": "uint256"
        }
      ],
      "payable": false,
      "stateMutability": "nonpayable",
      "type": "function"
    },
    {
      "constant": false,
      "inputs": [
        {
          "internalType": "address",
          "name": "vToken",
          "type": "address"
        },
        {
          "internalType": "address",
          "name": "src",
          "type": "address"
        },
        {
          "internalType": "address",
          "name": "dst",
          "type": "address"
        },
        {
          "internalType": "uint256",
          "name": "transferTokens",
          "type": "uint256"
        }
      ],
      "name": "transferAllowed",
      "outputs": [
        {
          "internalType": "uint256",
          "name": "",
          "type": "uint256"
        }
      ],
      "payable": false,
      "stateMutability": "nonpayable",
      "type": "function"
    },
    {
      "constant": false,
      "inputs": [
        {
          "internalType": "address",
          "name": "vToken",
          "type": "address"
        },
        {
          "internalType": "address",
          "name": "src",
          "type": "address"
        },
        {
          "internalType": "address",
          "name": "dst",
          "type": "address"
        },
        {
          "internalType": "uint256",
          "name": "transferTokens",
          "type": "uint256"
        }
      ],
      "name": "transferVerify",
      "outputs": [],
      "payable": false,
      "stateMutability": "nonpayable",
      "type": "function"
    },
    {
      "constant": true,
      "inputs": [],
      "name": "treasuryAddress",
      "outputs": [
        {
          "internalType": "address",
          "name": "",
          "type": "address"
        }
      ],
      "payable": false,
      "stateMutability": "view",
      "type": "function"
    },
    {
      "constant": true,
      "inputs": [],
      "name": "treasuryGuardian",
      "outputs": [
        {
          "internalType": "address",
          "name": "",
          "type": "address"
        }
      ],
      "payable": false,
      "stateMutability": "view",
      "type": "function"
    },
    {
      "constant": true,
      "inputs": [],
      "name": "treasuryPercent",
      "outputs": [
        {
          "internalType": "uint256",
          "name": "",
          "type": "uint256"
        }
      ],
      "payable": false,
      "stateMutability": "view",
      "type": "function"
    },
    {
      "constant": true,
      "inputs": [],
      "name": "vaiController",
      "outputs": [
        {
          "internalType": "contract VAIControllerInterface",
          "name": "",
          "type": "address"
        }
      ],
      "payable": false,
      "stateMutability": "view",
      "type": "function"
    },
    {
      "constant": true,
      "inputs": [],
      "name": "vaiMintRate",
      "outputs": [
        {
          "internalType": "uint256",
          "name": "",
          "type": "uint256"
        }
      ],
      "payable": false,
      "stateMutability": "view",
      "type": "function"
    },
    {
      "constant": true,
      "inputs": [],
      "name": "vaiVaultAddress",
      "outputs": [
        {
          "internalType": "address",
          "name": "",
          "type": "address"
        }
      ],
      "payable": false,
      "stateMutability": "view",
      "type": "function"
    },
    {
      "constant": true,
      "inputs": [
        {
          "internalType": "address",
          "name": "",
          "type": "address"
        }
      ],
      "name": "venusAccrued",
      "outputs": [
        {
          "internalType": "uint256",
          "name": "",
          "type": "uint256"
        }
      ],
      "payable": false,
      "stateMutability": "view",
      "type": "function"
    },
    {
      "constant": true,
      "inputs": [
        {
          "internalType": "address",
          "name": "",
          "type": "address"
        }
      ],
      "name": "venusBorrowState",
      "outputs": [
        {
          "internalType": "uint224",
          "name": "index",
          "type": "uint224"
        },
        {
          "internalType": "uint32",
          "name": "block",
          "type": "uint32"
        }
      ],
      "payable": false,
      "stateMutability": "view",
      "type": "function"
    },
    {
      "constant": true,
      "inputs": [
        {
          "internalType": "address",
          "name": "",
          "type": "address"
        },
        {
          "internalType": "address",
          "name": "",
          "type": "address"
        }
      ],
      "name": "venusBorrowerIndex",
      "outputs": [
        {
          "internalType": "uint256",
          "name": "",
          "type": "uint256"
        }
      ],
      "payable": false,
      "stateMutability": "view",
      "type": "function"
    },
    {
      "constant": true,
      "inputs": [],
      "name": "venusInitialIndex",
      "outputs": [
        {
          "internalType": "uint224",
          "name": "",
          "type": "uint224"
        }
      ],
      "payable": false,
      "stateMutability": "view",
      "type": "function"
    },
    {
      "constant": true,
      "inputs": [],
      "name": "venusRate",
      "outputs": [
        {
          "internalType": "uint256",
          "name": "",
          "type": "uint256"
        }
      ],
      "payable": false,
      "stateMutability": "view",
      "type": "function"
    },
    {
      "constant": true,
      "inputs": [
        {
          "internalType": "address",
          "name": "",
          "type": "address"
        }
      ],
      "name": "venusSpeeds",
      "outputs": [
        {
          "internalType": "uint256",
          "name": "",
          "type": "uint256"
        }
      ],
      "payable": false,
      "stateMutability": "view",
      "type": "function"
    },
    {
      "constant": true,
      "inputs": [
        {
          "internalType": "address",
          "name": "",
          "type": "address"
        },
        {
          "internalType": "address",
          "name": "",
          "type": "address"
        }
      ],
      "name": "venusSupplierIndex",
      "outputs": [
        {
          "internalType": "uint256",
          "name": "",
          "type": "uint256"
        }
      ],
      "payable": false,
      "stateMutability": "view",
      "type": "function"
    },
    {
      "constant": true,
      "inputs": [
        {
          "internalType": "address",
          "name": "",
          "type": "address"
        }
      ],
      "name": "venusSupplyState",
      "outputs": [
        {
          "internalType": "uint224",
          "name": "index",
          "type": "uint224"
        },
        {
          "internalType": "uint32",
          "name": "block",
          "type": "uint32"
        }
      ],
      "payable": false,
      "stateMutability": "view",
      "type": "function"
    },
    {
      "constant": true,
      "inputs": [],
      "name": "venusVAIVaultRate",
      "outputs": [
        {
          "internalType": "uint256",
          "name": "",
          "type": "uint256"
        }
      ],
      "payable": false,
      "stateMutability": "view",
      "type": "function"
    }
  ],
  "bytecode": "0x608060405234801561001057600080fd5b50600080546001600160a01b03191633179055615bde80620000336000396000f3fe608060405234801561001057600080fd5b50600436106104a05760003560e01c80637d172bd51161026d578063bf32442d11610151578063dcfbc0c7116100ce578063eabe7d9111610092578063eabe7d9114611209578063ede4edd01461123f578063f4b8d5fe14611265578063f851a4401461128b578063fa6331d814611293578063fd51a3ad1461129b576104a0565b8063dcfbc0c71461119f578063ddfd287e146111a7578063e37d4b79146111af578063e4028eee146111d5578063e875544614611201576104a0565b8063d02f735111610115578063d02f735114610f95578063d09c54ba14610fdb578063d24febad14611107578063da3d454c1461113d578063dce1544914611173576104a0565b8063bf32442d14610ebd578063c299823814610ec5578063c488847b14610f33578063c5b4db5514610f69578063c5f956af14610f8d576104a0565b8063a06a87f1116101ea578063b0772d0b116101ae578063b0772d0b14610e13578063b2eafc3914610e1b578063b8324c7c14610e23578063bb82aa5e14610e71578063bdcdc25814610e79578063bec04f7214610eb5576104a0565b8063a06a87f114610ce0578063a76b3fda14610d0c578063a78dc77514610d32578063abfceffc14610d77578063adcd5fb914610ded576104a0565b80638e8f294b116102315780638e8f294b14610c345780639254f5e514610c7c578063929fe9a114610c8457806394b2294b14610cb25780639cfdd9e614610cba576104a0565b80637d172bd514610b455780637dc0d1d014610b4d57806386df31ee14610b55578063879c2e1d14610c065780638a7dc16514610c0e576104a0565b806342cbb15c1161039457806355ee1fe111610311578063607ef6c1116102d5578063607ef6c1146109d85780636662c7c914610a965780636a56947e14610ab35780636d35bf9114610aef578063719f701b14610b355780637655138314610b3d576104a0565b806355ee1fe1146108ea5780635c778605146109105780635ec88c79146109465780635f5af1aa1461096c5780635fc7e71e14610992576104a0565b80634e79238f116103585780634e79238f146107e45780634ef4c3e11461083e5780634fd42e171461087457806351dff9891461089157806352d84d1e146108cd576104a0565b806342cbb15c1461073057806347ef3b3b146107385780634a584432146107845780634ada90af146107aa5780634e0853db146107b2576104a0565b80632678224711610422578063391957d7116103e6578063391957d7146106905780634088c73e146106b657806341a18d2c146106be57806341c728b9146106ec578063425fad5814610728576104a0565b806326782247146106095780632a6a6065146106115780632bc7e29e146106305780632ec0412414610656578063317b0b7714610673576104a0565b80631d504dc6116104695780631d504dc6146105375780631ededc911461055f57806321af4569146105a157806324008a62146105c557806324a3d62214610601576104a0565b80627e3dd2146104a557806304ef9d58146104c157806308e0225c146104db5780630db4b4e5146105095780631abcaa7714610511575b600080fd5b6104ad6112c7565b604080519115158252519081900360200190f35b6104c96112cc565b60408051918252519081900360200190f35b6104c9600480360360408110156104f157600080fd5b506001600160a01b03813581169160200135166112d2565b6104c96112ef565b6104c96004803603602081101561052757600080fd5b50356001600160a01b03166112f5565b61055d6004803603602081101561054d57600080fd5b50356001600160a01b0316611307565b005b61055d600480360360a081101561057557600080fd5b506001600160a01b03813581169160208101358216916040820135169060608101359060800135611475565b6105a961147c565b604080516001600160a01b039092168252519081900360200190f35b6104c9600480360360808110156105db57600080fd5b506001600160a01b0381358116916020810135821691604082013516906060013561148b565b6105a96115a8565b6105a96115b7565b6104ad6004803603602081101561062757600080fd5b503515156115c6565b6104c96004803603602081101561064657600080fd5b50356001600160a01b03166116e3565b6104c96004803603602081101561066c57600080fd5b50356116f5565b6104c96004803603602081101561068957600080fd5b503561176a565b61055d600480360360208110156106a657600080fd5b50356001600160a01b0316611814565b6104ad6118c7565b6104c9600480360360408110156106d457600080fd5b506001600160a01b03813581169160200135166118d0565b61055d6004803603608081101561070257600080fd5b506001600160a01b038135811691602081013590911690604081013590606001356118ed565b6104ad6118f3565b6104c9611902565b61055d600480360360c081101561074e57600080fd5b506001600160a01b0381358116916020810135821691604082013581169160608101359091169060808101359060a00135611907565b6104c96004803603602081101561079a57600080fd5b50356001600160a01b031661190f565b6104c9611921565b61055d600480360360608110156107c857600080fd5b506001600160a01b038135169060208101359060400135611927565b610820600480360360808110156107fa57600080fd5b506001600160a01b038135811691602081013590911690604081013590606001356119e4565b60408051938452602084019290925282820152519081900360600190f35b6104c96004803603606081101561085457600080fd5b506001600160a01b03813581169160208101359091169060400135611a1e565b6104c96004803603602081101561088a57600080fd5b5035611b1d565b61055d600480360360808110156108a757600080fd5b506001600160a01b03813581169160208101359091169060408101359060600135611b86565b6105a9600480360360208110156108e357600080fd5b5035611bd7565b6104c96004803603602081101561090057600080fd5b50356001600160a01b0316611bfe565b61055d6004803603606081101561092657600080fd5b506001600160a01b03813581169160208101359091169060400135611c83565b6108206004803603602081101561095c57600080fd5b50356001600160a01b0316611c88565b6104c96004803603602081101561098257600080fd5b50356001600160a01b0316611cbd565b6104c9600480360360a08110156109a857600080fd5b506001600160a01b0381358116916020810135821691604082013581169160608101359091169060800135611d42565b61055d600480360360408110156109ee57600080fd5b810190602081018135600160201b811115610a0857600080fd5b820183602082011115610a1a57600080fd5b803590602001918460208302840111600160201b83111715610a3b57600080fd5b919390929091602081019035600160201b811115610a5857600080fd5b820183602082011115610a6a57600080fd5b803590602001918460208302840111600160201b83111715610a8b57600080fd5b509092509050611f4e565b61055d60048036036020811015610aac57600080fd5b50356120de565b61055d60048036036080811015610ac957600080fd5b506001600160a01b03813581169160208101358216916040820135169060600135612175565b61055d600480360360a0811015610b0557600080fd5b506001600160a01b0381358116916020810135821691604082013581169160608101359091169060800135611475565b6104c961217a565b6104ad612180565b6105a961218e565b6105a961219d565b61055d60048036036040811015610b6b57600080fd5b6001600160a01b038235169190810190604081016020820135600160201b811115610b9557600080fd5b820183602082011115610ba757600080fd5b803590602001918460208302840111600160201b83111715610bc857600080fd5b9190808060200260200160405190810160405280939291908181526020018383602002808284376000920191909152509295506121ac945050505050565b6104c9612209565b6104c960048036036020811015610c2457600080fd5b50356001600160a01b031661220f565b610c5a60048036036020811015610c4a57600080fd5b50356001600160a01b0316612221565b6040805193151584526020840192909252151582820152519081900360600190f35b6105a9612247565b6104ad60048036036040811015610c9a57600080fd5b506001600160a01b0381358116916020013516612256565b6104c961228a565b6104c960048036036020811015610cd057600080fd5b50356001600160a01b0316612290565b61055d60048036036040811015610cf657600080fd5b506001600160a01b038135169060200135612314565b6104c960048036036020811015610d2257600080fd5b50356001600160a01b031661237b565b610d5e60048036036040811015610d4857600080fd5b506001600160a01b0381351690602001356124d8565b6040805192835260208301919091528051918290030190f35b610d9d60048036036020811015610d8d57600080fd5b50356001600160a01b031661267d565b60408051602080825283518183015283519192839290830191858101910280838360005b83811015610dd9578181015183820152602001610dc1565b505050509050019250505060405180910390f35b61055d60048036036020811015610e0357600080fd5b50356001600160a01b03166126f3565b610d9d612757565b6105a96127b9565b610e4960048036036020811015610e3957600080fd5b50356001600160a01b03166127c8565b604080516001600160e01b03909316835263ffffffff90911660208301528051918290030190f35b6105a96127f2565b6104c960048036036080811015610e8f57600080fd5b506001600160a01b03813581169160208101358216916040820135169060600135612801565b6104c96128e4565b6105a96128ea565b610d9d60048036036020811015610edb57600080fd5b810190602081018135600160201b811115610ef557600080fd5b820183602082011115610f0757600080fd5b803590602001918460208302840111600160201b83111715610f2857600080fd5b509092509050612902565b610d5e60048036036060811015610f4957600080fd5b506001600160a01b03813581169160208101359091169060400135612998565b610f71612bc0565b604080516001600160e01b039092168252519081900360200190f35b6105a9612bd3565b6104c9600480360360a0811015610fab57600080fd5b506001600160a01b0381358116916020810135821691604082013581169160608101359091169060800135612be2565b61055d60048036036080811015610ff157600080fd5b810190602081018135600160201b81111561100b57600080fd5b82018360208201111561101d57600080fd5b803590602001918460208302840111600160201b8311171561103e57600080fd5b9190808060200260200160405190810160405280939291908181526020018383602002808284376000920191909152509295949360208101935035915050600160201b81111561108d57600080fd5b82018360208201111561109f57600080fd5b803590602001918460208302840111600160201b831117156110c057600080fd5b919080806020026020016040519081016040528093929190818152602001838360200280828437600092019190915250929550505050803515159150602001351515612e01565b6104c96004803603606081101561111d57600080fd5b506001600160a01b038135811691602081013590911690604001356131a0565b6104c96004803603606081101561115357600080fd5b506001600160a01b03813581169160208101359091169060400135613335565b6105a96004803603604081101561118957600080fd5b506001600160a01b038135169060200135613732565b6105a9613767565b61055d613776565b610e49600480360360208110156111c557600080fd5b50356001600160a01b03166139a6565b6104c9600480360360408110156111eb57600080fd5b506001600160a01b0381351690602001356139d0565b6104c9613b80565b6104c96004803603606081101561121f57600080fd5b506001600160a01b03813581169160208101359091169060400135613b86565b6104c96004803603602081101561125557600080fd5b50356001600160a01b0316613c16565b61055d6004803603602081101561127b57600080fd5b50356001600160a01b0316613ed2565b6105a9613ffe565b6104c961400d565b6104c9600480360360408110156112b157600080fd5b506001600160a01b038135169060200135614013565b600181565b60225481565b601360209081526000928352604080842090915290825290205481565b601d5481565b600f6020526000908152604090205481565b806001600160a01b031663f851a4406040518163ffffffff1660e01b815260040160206040518083038186803b15801561134057600080fd5b505afa158015611354573d6000803e3d6000fd5b505050506040513d602081101561136a57600080fd5b50516001600160a01b031633146113c8576040805162461bcd60e51b815260206004820152601960248201527f6f6e6c7920756e6974726f6c6c65722061646d696e2063616e00000000000000604482015290519081900360640190fd5b806001600160a01b031663c1e803346040518163ffffffff1660e01b8152600401602060405180830381600087803b15801561140357600080fd5b505af1158015611417573d6000803e3d6000fd5b505050506040513d602081101561142d57600080fd5b505115611472576040805162461bcd60e51b815260206004820152600e60248201526d1b9bdd08185d5d1a1bdc9a5e995960921b604482015290519081900360640190fd5b50565b5050505050565b601e546001600160a01b031681565b60185460009062010000900460ff16156114e1576040805162461bcd60e51b81526020600482015260126024820152711c1c9bdd1bd8dbdb081a5cc81c185d5cd95960721b604482015290519081900360640190fd5b6001600160a01b03851660009081526009602052604090205460ff16611509575060096115a0565b611511615a94565b6040518060200160405280876001600160a01b031663aa5af0fd6040518163ffffffff1660e01b815260040160206040518083038186803b15801561155557600080fd5b505afa158015611569573d6000803e3d6000fd5b505050506040513d602081101561157f57600080fd5b50519052905061158f8682614105565b61159a868583614399565b60009150505b949350505050565b600a546001600160a01b031681565b6001546001600160a01b031681565b600a5460009082906001600160a01b03163314806115ee57506000546001600160a01b031633145b6116295760405162461bcd60e51b8152600401808060200182810382526021815260200180615b546021913960400191505060405180910390fd5b6000546001600160a01b031633148061164457506001811515145b61168e576040805162461bcd60e51b81526020600482015260166024820152756f6e6c792061646d696e2063616e20756e706175736560501b604482015290519081900360640190fd5b6018805484151562010000810262ff0000199092169190911790915560408051918252517fd7500633dd3ddd74daa7af62f8c8404c7fe4a81da179998db851696bed004b389181900360200190a15090919050565b60166020526000908152604090205481565b600080546001600160a01b0316331461171b5761171460016014614549565b9050611765565b6017805490839055604080518281526020810185905281517f73747d68b346dce1e932bcd238282e7ac84c01569e1f8d0469c222fdc6e9d5a4929181900390910190a160005b9150505b919050565b600080546001600160a01b031633146117ca576040805162461bcd60e51b815260206004820152601f60248201527f6f6e6c792061646d696e2063616e2073657420636c6f736520666163746f7200604482015290519081900360640190fd5b6005805490839055604080518281526020810185905281517f3b9670cf975d26958e754b57098eaa2ac914d8d2a31b83257997b9f346110fd9929181900390910190a16000611761565b6000546001600160a01b03163314611864576040805162461bcd60e51b815260206004820152600e60248201526d37b7363c9030b236b4b71031b0b760911b604482015290519081900360640190fd5b601e80546001600160a01b038381166001600160a01b0319831681179093556040805191909216808252602082019390935281517feda98690e518e9a05f8ec6837663e188211b2da8f4906648b323f2c1d4434e29929181900390910190a15050565b60185460ff1681565b601260209081526000928352604080842090915290825290205481565b50505050565b60185462010000900460ff1681565b435b90565b505050505050565b601f6020526000908152604090205481565b60065481565b6000546001600160a01b03163314611977576040805162461bcd60e51b815260206004820152600e60248201526d37b7363c9030b236b4b71031b0b760911b604482015290519081900360640190fd5b601b80546001600160a01b0385166001600160a01b03199091168117909155601c839055601d8290556040805191825260208201849052818101839052517f7059037d74ee16b0fb06a4a30f3348dd2635f301f92e373c92899a25a522ef6e9181900360600190a1505050565b6000806000806000806119f98a8a8a8a6145af565b925092509250826012811115611a0b57fe5b95509093509150505b9450945094915050565b60185460009062010000900460ff1615611a74576040805162461bcd60e51b81526020600482015260126024820152711c1c9bdd1bd8dbdb081a5cc81c185d5cd95960721b604482015290519081900360640190fd5b6001600160a01b0384166000908152600b602052604090205460ff1615611ad3576040805162461bcd60e51b815260206004820152600e60248201526d1b5a5b9d081a5cc81c185d5cd95960921b604482015290519081900360640190fd5b6001600160a01b03841660009081526009602052604090205460ff16611afd5760095b9050611b16565b611b068461491c565b611b108484614ba6565b60005b90505b9392505050565b600080546001600160a01b03163314611b3c576117146001600b614549565b6006805490839055604080518281526020810185905281517faeba5a6c40a8ac138134bff1aaa65debf25971188a58804bad717f82f0ec1316929181900390910190a16000611761565b80151580611b92575081155b6118ed576040805162461bcd60e51b815260206004820152601160248201527072656465656d546f6b656e73207a65726f60781b604482015290519081900360640190fd5b600d8181548110611be457fe5b6000918252602090912001546001600160a01b0316905081565b600080546001600160a01b03163314611c1d5761171460016010614549565b600480546001600160a01b038481166001600160a01b0319831681179093556040805191909216808252602082019390935281517fd52b2b9b7e9ee655fcb95d2e5b9e0c9f69e7ef2b8e9d2d0ea78402d576d22e22929181900390910190a16000611761565b505050565b600080600080600080611c9f8760008060006145af565b925092509250826012811115611cb157fe5b97919650945092505050565b600080546001600160a01b03163314611cdc5761171460016013614549565b600a80546001600160a01b038481166001600160a01b0319831681179093556040805191909216808252602082019390935281517f0613b6ee6a04f0d09f390e4d9318894b9f6ac7fd83897cd8d18896ba579c401e929181900390910190a16000611761565b60185460009062010000900460ff1615611d98576040805162461bcd60e51b81526020600482015260126024820152711c1c9bdd1bd8dbdb081a5cc81c185d5cd95960721b604482015290519081900360640190fd5b6001600160a01b03861660009081526009602052604090205460ff1680611dcc57506015546001600160a01b038781169116145b1580611df157506001600160a01b03851660009081526009602052604090205460ff16155b15611e005760095b9050611f45565b600080611e118560008060006145af565b91935090915060009050826012811115611e2757fe5b14611e4157816012811115611e3857fe5b92505050611f45565b80611e4d576003611e38565b6015546000906001600160a01b038a8116911614611eee57886001600160a01b03166395dd9193876040518263ffffffff1660e01b815260040180826001600160a01b03166001600160a01b0316815260200191505060206040518083038186803b158015611ebb57600080fd5b505afa158015611ecf573d6000803e3d6000fd5b505050506040513d6020811015611ee557600080fd5b50519050611f09565b506001600160a01b0385166000908152601660205260409020545b6000611f25604051806020016040528060055481525083614d9e565b905080861115611f3c576011945050505050611f45565b60009450505050505b95945050505050565b6000546001600160a01b0316331480611f715750601e546001600160a01b031633145b611fac5760405162461bcd60e51b8152600401808060200182810382526035815260200180615b756035913960400191505060405180910390fd5b82818115801590611fbc57508082145b611ffd576040805162461bcd60e51b815260206004820152600d60248201526c1a5b9d985b1a59081a5b9c1d5d609a1b604482015290519081900360640190fd5b60005b828110156120d55784848281811061201457fe5b90506020020135601f600089898581811061202b57fe5b905060200201356001600160a01b03166001600160a01b03166001600160a01b031681526020019081526020016000208190555086868281811061206b57fe5b905060200201356001600160a01b03166001600160a01b03167f6f1951b2aad10f3fc81b86d91105b413a5b3f847a34bbc5ce1904201b14438f68686848181106120b157fe5b905060200201356040518082815260200191505060405180910390a2600101612000565b50505050505050565b6000546001600160a01b0316331461212e576040805162461bcd60e51b815260206004820152600e60248201526d37b7363c9030b236b4b71031b0b760911b604482015290519081900360640190fd5b601a805490829055604080518281526020810184905281517fe81d4ac15e5afa1e708e66664eddc697177423d950d133bda8262d8885e6da3b929181900390910190a15050565b6118ed565b601c5481565b601854610100900460ff1681565b601b546001600160a01b031681565b6004546001600160a01b031681565b6040805160018082528183019092526060916020808301908038833901905050905082816000815181106121dc57fe5b60200260200101906001600160a01b031690816001600160a01b031681525050611c838183600180612e01565b600e5481565b60146020526000908152604090205481565b60096020526000908152604090208054600182015460039092015460ff91821692911683565b6015546001600160a01b031681565b6001600160a01b038082166000908152600960209081526040808320938616835260029093019052205460ff165b92915050565b60075481565b600080546001600160a01b031633146122af5761171460016015614549565b601580546001600160a01b038481166001600160a01b0319831681179093556040805191909216808252602082019390935281517fe1ddcb2dab8e5b03cfc8c67a0d5861d91d16f7bd2612fd381faf4541d212c9b2929181900390910190a150919050565b61231c614dbd565b61236d576040805162461bcd60e51b815260206004820152601e60248201527f6f6e6c792061646d696e2063616e207365742076656e75732073706565640000604482015290519081900360640190fd5b6123778282614de6565b5050565b600080546001600160a01b0316331461239a5761171460016012614549565b6001600160a01b03821660009081526009602052604090205460ff16156123c757611714600a6011614549565b816001600160a01b0316633d9ea3a16040518163ffffffff1660e01b815260040160206040518083038186803b15801561240057600080fd5b505afa158015612414573d6000803e3d6000fd5b505050506040513d602081101561242a57600080fd5b5050604080516060810182526001808252600060208381018281528486018381526001600160a01b03891684526009909252949091209251835490151560ff1991821617845593519183019190915551600390910180549115159190921617905561249482615178565b604080516001600160a01b038416815290517fcf583bb0c569eb967f806b11601c4cb93c10310485c67add5f8362c2f212321f9181900360200190a1600092915050565b600480546040805163fc57d4df60e01b81526001600160a01b038681169482019490945290516000938493670de0b6b3a7640000938593929091169163fc57d4df91602480820192602092909190829003018186803b15801561253a57600080fd5b505afa15801561254e573d6000803e3d6000fd5b505050506040513d602081101561256457600080fd5b505190508061257d57600d935060009250612676915050565b6000866001600160a01b031663182df0f56040518163ffffffff1660e01b815260040160206040518083038186803b1580156125b857600080fd5b505afa1580156125cc573d6000803e3d6000fd5b505050506040513d60208110156125e257600080fd5b5051905060006125f0615a94565b6125f8615a94565b612600615a94565b612628604051806020016040528060065481525060405180602001604052808a815250615256565b9250612650604051806020016040528088815250604051806020016040528088815250615256565b915061265c8383615295565b9050612668818b614d9e565b600099509750505050505050505b9250929050565b6001600160a01b0381166000908152600860209081526040918290208054835181840281018401909452808452606093928301828280156126e757602002820191906000526020600020905b81546001600160a01b031681526001909101906020018083116126c9575b50505050509050919050565b61147281600d80548060200260200160405190810160405280929190818152602001828054801561274d57602002820191906000526020600020905b81546001600160a01b0316815260019091019060200180831161272f575b50505050506121ac565b6060600d8054806020026020016040519081016040528092919081815260200182805480156127af57602002820191906000526020600020905b81546001600160a01b03168152600190910190602001808311612791575b5050505050905090565b6020546001600160a01b031681565b6010602052600090815260409020546001600160e01b03811690600160e01b900463ffffffff1682565b6002546001600160a01b031681565b60185460009062010000900460ff1615612857576040805162461bcd60e51b81526020600482015260126024820152711c1c9bdd1bd8dbdb081a5cc81c185d5cd95960721b604482015290519081900360640190fd5b600a54600160b01b900460ff16156128ab576040805162461bcd60e51b81526020600482015260126024820152711d1c985b9cd9995c881a5cc81c185d5cd95960721b604482015290519081900360640190fd5b60006128b88686856152d1565b905080156128c75790506115a0565b6128d08661491c565b6128da8686614ba6565b61159a8685614ba6565b60175481565b73cf6bb5389c92bdda8a3747ddb454cb7a64626c6390565b60408051828152602080840282010190915260609082908290828015612932578160200160208202803883390190505b50905060005b8281101561298f5761296586868381811061294f57fe5b905060200201356001600160a01b03163361537d565b601281111561297057fe5b82828151811061297c57fe5b6020908102919091010152600101612938565b50949350505050565b600480546040805163fc57d4df60e01b81526001600160a01b038781169482019490945290516000938493849391169163fc57d4df91602480820192602092909190829003018186803b1580156129ee57600080fd5b505afa158015612a02573d6000803e3d6000fd5b505050506040513d6020811015612a1857600080fd5b5051600480546040805163fc57d4df60e01b81526001600160a01b038a8116948201949094529051939450600093929091169163fc57d4df91602480820192602092909190829003018186803b158015612a7157600080fd5b505afa158015612a85573d6000803e3d6000fd5b505050506040513d6020811015612a9b57600080fd5b50519050811580612aaa575080155b15612abf57600d935060009250612bb8915050565b6000866001600160a01b031663182df0f56040518163ffffffff1660e01b815260040160206040518083038186803b158015612afa57600080fd5b505afa158015612b0e573d6000803e3d6000fd5b505050506040513d6020811015612b2457600080fd5b505190506000612b32615a94565b612b3a615a94565b612b42615a94565b612b6a604051806020016040528060065481525060405180602001604052808a815250615256565b9250612b92604051806020016040528088815250604051806020016040528088815250615256565b9150612b9e8383615295565b9050612baa818b614d9e565b600099509750505050505050505b935093915050565b6ec097ce7bc90715b34b9f100000000081565b6021546001600160a01b031681565b60185460009062010000900460ff1615612c38576040805162461bcd60e51b81526020600482015260126024820152711c1c9bdd1bd8dbdb081a5cc81c185d5cd95960721b604482015290519081900360640190fd5b600a54600160b81b900460ff1615612c89576040805162461bcd60e51b815260206004820152600f60248201526e1cd95a5e99481a5cc81c185d5cd959608a1b604482015290519081900360640190fd5b6001600160a01b03861660009081526009602052604090205460ff161580612ce257506001600160a01b03851660009081526009602052604090205460ff1680612ce057506015546001600160a01b038681169116145b155b15612cee576009611df9565b846001600160a01b0316635fe3b5676040518163ffffffff1660e01b815260040160206040518083038186803b158015612d2757600080fd5b505afa158015612d3b573d6000803e3d6000fd5b505050506040513d6020811015612d5157600080fd5b505160408051635fe3b56760e01b815290516001600160a01b0392831692891691635fe3b567916004808301926020929190829003018186803b158015612d9757600080fd5b505afa158015612dab573d6000803e3d6000fd5b505050506040513d6020811015612dc157600080fd5b50516001600160a01b031614612dd8576002611df9565b612de18661491c565b612deb8684614ba6565b612df58685614ba6565b60009695505050505050565b6015546000906001600160a01b031615612e9257601560009054906101000a90046001600160a01b03166001600160a01b031663d244b0816040518163ffffffff1660e01b8152600401602060405180830381600087803b158015612e6557600080fd5b505af1158015612e79573d6000803e3d6000fd5b505050506040513d6020811015612e8f57600080fd5b50505b5060005b8451811015612f4c57612ebb858281518110612eae57fe5b6020026020010151613ed2565b612f10858281518110612eca57fe5b602002602001015160146000888581518110612ee257fe5b60200260200101516001600160a01b03166001600160a01b031681526020019081526020016000205461546e565b60146000878481518110612f2057fe5b6020908102919091018101516001600160a01b0316825281019190915260400160002055600101612e96565b60005b8451811015611907576000858281518110612f6657fe5b6020908102919091018101516001600160a01b0381166000908152600990925260409091205490915060ff16612fd7576040805162461bcd60e51b81526020600482015260116024820152701b9bdd081b1a5cdd1959081b585c9ad95d607a1b604482015290519081900360640190fd5b84156130f757612fe5615a94565b6040518060200160405280836001600160a01b031663aa5af0fd6040518163ffffffff1660e01b815260040160206040518083038186803b15801561302957600080fd5b505afa15801561303d573d6000803e3d6000fd5b505050506040513d602081101561305357600080fd5b5051905290506130638282614105565b600093505b87518410156130f55761308f8289868151811061308157fe5b602002602001015183614399565b6130b688858151811061309e57fe5b6020026020010151601460008b8881518110612ee257fe5b601460008a87815181106130c657fe5b6020908102919091018101516001600160a01b0316825281019190915260400160002055600190930192613068565b505b8315613197576131068161491c565b600092505b8651831015613197576131318188858151811061312457fe5b6020026020010151614ba6565b61315887848151811061314057fe5b6020026020010151601460008a8781518110612ee257fe5b6014600089868151811061316857fe5b6020908102919091018101516001600160a01b031682528101919091526040016000205560019092019161310b565b50600101612f4f565b600080546001600160a01b03163314806131c457506020546001600160a01b031633145b6131d457611af660016017614549565b670de0b6b3a76400008210613230576040805162461bcd60e51b815260206004820152601d60248201527f74726561737572792070657263656e7420636170206f766572666c6f77000000604482015290519081900360640190fd5b6020805460218054602280546001600160a01b038a81166001600160a01b0319808816821789558b8316908616179095559188905560408051958316808752968601949094528351929091169390927f29f06ea15931797ebaed313d81d100963dc22cb213cb4ce2737b5a62b1a8b1e892918290030190a1604080516001600160a01b0380851682528816602082015281517f8de763046d7b8f08b6c3d03543de1d615309417842bb5d2d62f110f65809ddac929181900390910190a1604080518281526020810187905281517f0893f8f4101baaabbeb513f96761e7a36eb837403c82cc651c292a4abdc94ed7929181900390910190a16000979650505050505050565b60185460009062010000900460ff161561338b576040805162461bcd60e51b81526020600482015260126024820152711c1c9bdd1bd8dbdb081a5cc81c185d5cd95960721b604482015290519081900360640190fd5b6001600160a01b0384166000908152600c602052604090205460ff16156133ec576040805162461bcd60e51b815260206004820152601060248201526f189bdc9c9bddc81a5cc81c185d5cd95960821b604482015290519081900360640190fd5b6001600160a01b03841660009081526009602052604090205460ff16613413576009611af6565b6001600160a01b038085166000908152600960209081526040808320938716835260029093019052205460ff166134d057336001600160a01b03851614613499576040805162461bcd60e51b815260206004820152601560248201527439b2b73232b91036bab9ba103132903b2a37b5b2b760591b604482015290519081900360640190fd5b60006134a5858561537d565b905060008160128111156134b557fe5b146134ce578060128111156134c657fe5b915050611b16565b505b600480546040805163fc57d4df60e01b81526001600160a01b03888116948201949094529051929091169163fc57d4df91602480820192602092909190829003018186803b15801561352157600080fd5b505afa158015613535573d6000803e3d6000fd5b505050506040513d602081101561354b57600080fd5b505161355857600d611af6565b6001600160a01b0384166000908152601f60205260409020548015613645576000856001600160a01b03166347bd37186040518163ffffffff1660e01b815260040160206040518083038186803b1580156135b257600080fd5b505afa1580156135c6573d6000803e3d6000fd5b505050506040513d60208110156135dc57600080fd5b5051905060006135ec82866155a8565b9050828110613642576040805162461bcd60e51b815260206004820152601960248201527f6d61726b657420626f72726f7720636170207265616368656400000000000000604482015290519081900360640190fd5b50505b60008061365586886000886145af565b9193509091506000905082601281111561366b57fe5b146136865781601281111561367c57fe5b9350505050611b16565b801561369357600461367c565b61369b615a94565b6040518060200160405280896001600160a01b031663aa5af0fd6040518163ffffffff1660e01b815260040160206040518083038186803b1580156136df57600080fd5b505afa1580156136f3573d6000803e3d6000fd5b505050506040513d602081101561370957600080fd5b5051905290506137198882614105565b613724888883614399565b600098975050505050505050565b6008602052816000526040600020818154811061374b57fe5b6000918252602090912001546001600160a01b03169150829050565b6003546001600160a01b031681565b601c54158061378d5750601c5461378b611902565b105b15613797576139a4565b60006137a16128ea565b604080516370a0823160e01b815230600482015290519192506000916001600160a01b038416916370a08231916024808301926020929190829003018186803b1580156137ed57600080fd5b505afa158015613801573d6000803e3d6000fd5b505050506040513d602081101561381757600080fd5b50519050806138275750506139a4565b60008061383d613835611902565b601c546155de565b9050600061384d601a5483615618565b9050601d548110156138635750505050506139a4565b80841061387257809250613876565b8392505b61387e611902565b601c55601b546040805163a9059cbb60e01b81526001600160a01b0392831660048201526024810186905290519187169163a9059cbb916044808201926020929091908290030181600087803b1580156138d757600080fd5b505af11580156138eb573d6000803e3d6000fd5b505050506040513d602081101561390157600080fd5b50506040805184815290517ff6d4b8f74d85a6e2d7a50225957b8a6cfec69ad92f5905627260541aa0a5565d9181900360200190a1601b60009054906101000a90046001600160a01b03166001600160a01b031663faa1809e6040518163ffffffff1660e01b8152600401600060405180830381600087803b15801561398657600080fd5b505af115801561399a573d6000803e3d6000fd5b5050505050505050505b565b6011602052600090815260409020546001600160e01b03811690600160e01b900463ffffffff1682565b600080546001600160a01b031633146139f6576139ef60016006614549565b9050612284565b6001600160a01b0383166000908152600960205260409020805460ff16613a2b57613a2360096007614549565b915050612284565b613a33615a94565b506040805160208101909152838152613a4a615a94565b506040805160208101909152670c7d713b49da00008152613a6b818361565a565b15613a8657613a7c60066008614549565b9350505050612284565b8415801590613b0f5750600480546040805163fc57d4df60e01b81526001600160a01b038a8116948201949094529051929091169163fc57d4df91602480820192602092909190829003018186803b158015613ae157600080fd5b505afa158015613af5573d6000803e3d6000fd5b505050506040513d6020811015613b0b57600080fd5b5051155b15613b2057613a7c600d6009614549565b60018301805490869055604080516001600160a01b03891681526020810183905280820188905290517f70483e6592cd5182d45ac970e05bc62cdcc90e9d8ef2c2dbe686cf383bcd7fc59181900360600190a16000979650505050505050565b60055481565b60185460009062010000900460ff1615613bdc576040805162461bcd60e51b81526020600482015260126024820152711c1c9bdd1bd8dbdb081a5cc81c185d5cd95960721b604482015290519081900360640190fd5b6000613be98585856152d1565b90508015613bf8579050611b16565b613c018561491c565b613c0b8585614ba6565b600095945050505050565b6000808290506000806000836001600160a01b031663c37f68e2336040518263ffffffff1660e01b815260040180826001600160a01b03166001600160a01b0316815260200191505060806040518083038186803b158015613c7757600080fd5b505afa158015613c8b573d6000803e3d6000fd5b505050506040513d6080811015613ca157600080fd5b508051602082015160409092015190945090925090508215613d0a576040805162461bcd60e51b815260206004820152601960248201527f6765744163636f756e74536e617073686f74206661696c656400000000000000604482015290519081900360640190fd5b8015613d2757613d1c600c6002614549565b945050505050611765565b6000613d348733856152d1565b90508015613d5557613d49600e600383615661565b95505050505050611765565b6001600160a01b0385166000908152600960209081526040808320338452600281019092529091205460ff16613d945760009650505050505050611765565b3360009081526002820160209081526040808320805460ff1916905560089091528120805490915b81811015613e7557886001600160a01b0316838281548110613dda57fe5b6000918252602090912001546001600160a01b03161415613e6d57826001830381548110613e0457fe5b9060005260206000200160009054906101000a90046001600160a01b0316838281548110613e2e57fe5b600091825260209091200180546001600160a01b0319166001600160a01b03929092169190911790558254613e67846000198301615aa7565b50613e75565b600101613dbc565b818110613e7e57fe5b604080516001600160a01b038b16815233602082015281517fe699a64c18b07ac5b7301aa273f36a2287239eb9501d81950672794afba29a0d929181900390910190a160009b9a5050505050505050505050565b601b546001600160a01b031615613eeb57613eeb613776565b6015546001600160a01b031615611472576015546040805163d178273b60e01b81526001600160a01b0384811660048301529151600093849384938493919092169163d178273b91602480830192608092919082900301818787803b158015613f5357600080fd5b505af1158015613f67573d6000803e3d6000fd5b505050506040513d6080811015613f7d57600080fd5b50805160208201516040830151606090930151909650919450909250905080611475576001600160a01b038516600081815260146020908152604091829020879055815186815290810185905281517f2fb3baf25f3d9fc9f9eb9dfd7da8567731a91413437d91bc1b8a839d0a1ba88f929181900390910190a25050505050565b6000546001600160a01b031681565b601a5481565b60185460009062010000900460ff1615614069576040805162461bcd60e51b81526020600482015260126024820152711c1c9bdd1bd8dbdb081a5cc81c185d5cd95960721b604482015290519081900360640190fd5b60185460ff161580156140845750601854610100900460ff16155b6140c5576040805162461bcd60e51b815260206004820152600d60248201526c159052481a5cc81c185d5cd959609a1b604482015290519081900360640190fd5b6015546001600160a01b031633146140e3576139ef600e6016614549565b6001600160a01b03831660009081526016602052604081208390559392505050565b6001600160a01b0382166000908152601160209081526040808320600f9092528220549091614132611902565b8354909150600090614152908390600160e01b900463ffffffff166155de565b90506000811180156141645750600083115b156143345760006141d9876001600160a01b03166347bd37186040518163ffffffff1660e01b815260040160206040518083038186803b1580156141a757600080fd5b505afa1580156141bb573d6000803e3d6000fd5b505050506040513d60208110156141d157600080fd5b5051876156c7565b905060006141e78386615618565b90506141f1615a94565b6000831161420e5760405180602001604052806000815250614218565b61421882846156e5565b9050614222615a94565b604080516020810190915288546001600160e01b03168152614244908361571a565b9050604051806040016040528061428a8360000151604051806040016040528060138152602001726e657720696e646578206f766572666c6f777360681b81525061573f565b6001600160e01b031681526020016142d08860405180604001604052806016815260200175626c6f636b206e756d626572206f766572666c6f777360501b8152506157d9565b63ffffffff9081169091526001600160a01b038c166000908152601160209081526040909120835181549490920151909216600160e01b026001600160e01b039182166001600160e01b031990941693909317169190911790555061190792505050565b8015611907576143728260405180604001604052806016815260200175626c6f636b206e756d626572206f766572666c6f777360501b8152506157d9565b845463ffffffff91909116600160e01b026001600160e01b03909116178455505050505050565b601b546001600160a01b0316156143b2576143b2613776565b6001600160a01b03831660009081526011602052604090206143d2615a94565b50604080516020810190915281546001600160e01b031681526143f3615a94565b5060408051602080820183526001600160a01b038089166000908152601383528481209189168082528284529481208054855286519590915291529190915580511561190757614441615a94565b61444b838361582e565b905060006144a8886001600160a01b03166395dd9193896040518263ffffffff1660e01b815260040180826001600160a01b03166001600160a01b0316815260200191505060206040518083038186803b1580156141a757600080fd5b905060006144b68284615853565b6001600160a01b038916600090815260146020526040812054919250906144dd90836155a8565b6001600160a01b03808b166000818152601460209081526040918290208590558a5182518881529182015281519495509193928e16927f837bdc11fca9f17ce44167944475225a205279b17e88c791c3b1f66f354668fb9281900390910190a350505050505050505050565b60007f45b96fe442630264581b197e84bbada861235052c5a1aadfff9ea4e40a969aa083601281111561457857fe5b83601781111561458457fe5b604080519283526020830191909152600082820152519081900360600190a1826012811115611b1657fe5b60008060006145bc615acb565b6001600160a01b0388166000908152600860209081526040808320805482518185028101850190935280835260609383018282801561462457602002820191906000526020600020905b81546001600160a01b03168152600190910190602001808311614606575b50939450600093505050505b81518110156148a857600082828151811061464757fe5b60200260200101519050806001600160a01b031663c37f68e28d6040518263ffffffff1660e01b815260040180826001600160a01b03166001600160a01b0316815260200191505060806040518083038186803b1580156146a757600080fd5b505afa1580156146bb573d6000803e3d6000fd5b505050506040513d60808110156146d157600080fd5b508051602082015160408084015160609485015160808b01529389019390935291870191909152935083156147165750600f965060009550859450611a149350505050565b60408051602080820183526001600160a01b0380851660008181526009845285902060010154845260c08a01939093528351808301855260808a0151815260e08a015260048054855163fc57d4df60e01b815291820194909452935192169263fc57d4df9260248083019392829003018186803b15801561479657600080fd5b505afa1580156147aa573d6000803e3d6000fd5b505050506040513d60208110156147c057600080fd5b505160a086018190526147e35750600d965060009550859450611a149350505050565b604080516020810190915260a0860151815261010086015260c085015160e086015161481d9161481291615256565b866101000151615256565b610120860181905260408601518651614837929190615882565b855261010085015160608601516020870151614854929190615882565b60208601526001600160a01b03818116908c16141561489f576148818561012001518b8760200151615882565b60208601819052610100860151614899918b90615882565b60208601525b50600101614630565b506148dc8360200151601660008d6001600160a01b03166001600160a01b03168152602001908152602001600020546155a8565b60208401819052835111156149035750506020810151905160009450039150829050611a14565b5050805160209091015160009450849350039050611a14565b6001600160a01b0381166000908152601060209081526040808320600f9092528220549091614949611902565b8354909150600090614969908390600160e01b900463ffffffff166155de565b905060008111801561497b5750600083115b15614b42576000856001600160a01b03166318160ddd6040518163ffffffff1660e01b815260040160206040518083038186803b1580156149bb57600080fd5b505afa1580156149cf573d6000803e3d6000fd5b505050506040513d60208110156149e557600080fd5b5051905060006149f58386615618565b90506149ff615a94565b60008311614a1c5760405180602001604052806000815250614a26565b614a2682846156e5565b9050614a30615a94565b604080516020810190915288546001600160e01b03168152614a52908361571a565b90506040518060400160405280614a988360000151604051806040016040528060138152602001726e657720696e646578206f766572666c6f777360681b81525061573f565b6001600160e01b03168152602001614ade8860405180604001604052806016815260200175626c6f636b206e756d626572206f766572666c6f777360501b8152506157d9565b63ffffffff9081169091526001600160a01b038b166000908152601060209081526040909120835181549490920151909216600160e01b026001600160e01b039182166001600160e01b031990941693909317169190911790555061147592505050565b801561147557614b808260405180604001604052806016815260200175626c6f636b206e756d626572206f766572666c6f777360501b8152506157d9565b845463ffffffff91909116600160e01b026001600160e01b039091161784555050505050565b601b546001600160a01b031615614bbf57614bbf613776565b6001600160a01b0382166000908152601060205260409020614bdf615a94565b50604080516020810190915281546001600160e01b03168152614c00615a94565b5060408051602080820183526001600160a01b03808816600090815260128352848120918816808252828452948120805485528651959091529152919091558051158015614c4e5750815115155b15614c66576ec097ce7bc90715b34b9f100000000081525b614c6e615a94565b614c78838361582e565b90506000866001600160a01b03166370a08231876040518263ffffffff1660e01b815260040180826001600160a01b03166001600160a01b0316815260200191505060206040518083038186803b158015614cd257600080fd5b505afa158015614ce6573d6000803e3d6000fd5b505050506040513d6020811015614cfc57600080fd5b505190506000614d0c8284615853565b6001600160a01b03881660009081526014602052604081205491925090614d3390836155a8565b6001600160a01b03808a166000818152601460209081526040918290208590558a5182518881529182015281519495509193928d16927ffa9d964d891991c113b49e3db1932abd6c67263d387119707aafdd6c4010a3a99281900390910190a3505050505050505050565b6000614da8615a94565b614db284846158aa565b90506115a0816158cb565b600080546001600160a01b0316331480614de157506002546001600160a01b031633145b905090565b6001600160a01b0382166000908152600f60205260409020548015614e9a57614e0d615a94565b6040518060200160405280856001600160a01b031663aa5af0fd6040518163ffffffff1660e01b815260040160206040518083038186803b158015614e5157600080fd5b505afa158015614e65573d6000803e3d6000fd5b505050506040513d6020811015614e7b57600080fd5b505190529050614e8a8461491c565b614e948482614105565b5061511c565b811561511c576001600160a01b0383166000908152600960205260409020805460ff161515600114614f13576040805162461bcd60e51b815260206004820152601a60248201527f76656e7573206d61726b6574206973206e6f74206c6973746564000000000000604482015290519081900360640190fd5b6001600160a01b0384166000908152601060205260409020546001600160e01b0316158015614f6557506001600160a01b038416600090815260106020526040902054600160e01b900463ffffffff16155b156150345760405180604001604052806ec097ce7bc90715b34b9f10000000006001600160e01b03168152602001614fd9614f9e611902565b6040518060400160405280601c81526020017f626c6f636b206e756d62657220657863656564732033322062697473000000008152506157d9565b63ffffffff9081169091526001600160a01b0386166000908152601060209081526040909120835181549490920151909216600160e01b026001600160e01b039182166001600160e01b031990941693909317169190911790555b6001600160a01b0384166000908152601160205260409020546001600160e01b031615801561508657506001600160a01b038416600090815260116020526040902054600160e01b900463ffffffff16155b1561511a5760405180604001604052806ec097ce7bc90715b34b9f10000000006001600160e01b031681526020016150bf614f9e611902565b63ffffffff9081169091526001600160a01b0386166000908152601160209081526040909120835181549490920151909216600160e01b026001600160e01b039182166001600160e01b031990941693909317169190911790555b505b818114611c83576001600160a01b0383166000818152600f6020908152604091829020859055815185815291517f2a0ce45ba05a83e75ba21e1a10d6b48a8395028cc6e1ae66f6c313648379d5489281900390910190a2505050565b60005b600d5481101561520357816001600160a01b0316600d828154811061519c57fe5b6000918252602090912001546001600160a01b031614156151fb576040805162461bcd60e51b81526020600482015260146024820152731b585c9ad95d08185b1c9958591e48185919195960621b604482015290519081900360640190fd5b60010161517b565b50600d80546001810182556000919091527fd7b6990105719101dabeb77144f2a3385c8033acd3af97e9423a695e81ad1eb50180546001600160a01b0319166001600160a01b0392909216919091179055565b61525e615a94565b6040518060200160405280670de0b6b3a764000061528486600001518660000151615618565b8161528b57fe5b0490529392505050565b61529d615a94565b60405180602001604052806152c86152c18660000151670de0b6b3a7640000615618565b85516158da565b90529392505050565b6001600160a01b03831660009081526009602052604081205460ff166152f8576009611af6565b6001600160a01b038085166000908152600960209081526040808320938716835260029093019052205460ff16615330576000611af6565b60008061534085878660006145af565b9193509091506000905082601281111561535657fe5b146153705781601281111561536757fe5b92505050611b16565b8015612df5576004615367565b6001600160a01b0382166000908152600960205260408120805460ff166153a8576009915050612284565b6001600160a01b038316600090815260028201602052604090205460ff16156153d5576000915050612284565b6001600160a01b0380841660008181526002840160209081526040808320805460ff19166001908117909155600883528184208054918201815584529282902090920180549489166001600160a01b031990951685179055815193845283019190915280517f3ab23ab0d51cccc0c3085aec51f99228625aa1a922b3a8ca89a26b0f2027a1a59281900390910190a15060009392505050565b6000806154796128ea565b604080516370a0823160e01b815230600482015290519192506000916001600160a01b038416916370a08231916024808301926020929190829003018186803b1580156154c557600080fd5b505afa1580156154d9573d6000803e3d6000fd5b505050506040513d60208110156154ef57600080fd5b5051905083158015906155025750808411155b1561559f57816001600160a01b031663a9059cbb86866040518363ffffffff1660e01b815260040180836001600160a01b03166001600160a01b0316815260200182815260200192505050602060405180830381600087803b15801561556757600080fd5b505af115801561557b573d6000803e3d6000fd5b505050506040513d602081101561559157600080fd5b506000935061228492505050565b50919392505050565b6000611b168383604051806040016040528060118152602001706164646974696f6e206f766572666c6f7760781b81525061590d565b6000611b168383604051806040016040528060158152602001747375627472616374696f6e20756e646572666c6f7760581b815250615962565b6000611b1683836040518060400160405280601781526020017f6d756c7469706c69636174696f6e206f766572666c6f770000000000000000008152506159bc565b5190511090565b60007f45b96fe442630264581b197e84bbada861235052c5a1aadfff9ea4e40a969aa084601281111561569057fe5b84601781111561569c57fe5b604080519283526020830191909152818101859052519081900360600190a1836012811115611b1357fe5b6000611b166156de84670de0b6b3a7640000615618565b83516158da565b6156ed615a94565b60405180602001604052806152c8615714866ec097ce7bc90715b34b9f1000000000615618565b856158da565b615722615a94565b60405180602001604052806152c8856000015185600001516155a8565b600081600160e01b84106157d15760405162461bcd60e51b81526004018080602001828103825283818151815260200191508051906020019080838360005b8381101561579657818101518382015260200161577e565b50505050905090810190601f1680156157c35780820380516001836020036101000a031916815260200191505b509250505060405180910390fd5b509192915050565b600081600160201b84106157d15760405162461bcd60e51b815260206004820181815283516024840152835190928392604490910191908501908083836000831561579657818101518382015260200161577e565b615836615a94565b60405180602001604052806152c8856000015185600001516155de565b60006ec097ce7bc90715b34b9f1000000000615873848460000151615618565b8161587a57fe5b049392505050565b600061588c615a94565b61589685856158aa565b9050611f456158a4826158cb565b846155a8565b6158b2615a94565b60405180602001604052806152c8856000015185615618565b51670de0b6b3a7640000900490565b6000611b1683836040518060400160405280600e81526020016d646976696465206279207a65726f60901b815250615a32565b6000838301828582101561298f5760405162461bcd60e51b815260206004820181815283516024840152835190928392604490910191908501908083836000831561579657818101518382015260200161577e565b600081848411156159b45760405162461bcd60e51b815260206004820181815283516024840152835190928392604490910191908501908083836000831561579657818101518382015260200161577e565b505050900390565b60008315806159c9575082155b156159d657506000611b16565b838302838582816159e357fe5b0414839061298f5760405162461bcd60e51b815260206004820181815283516024840152835190928392604490910191908501908083836000831561579657818101518382015260200161577e565b60008183615a815760405162461bcd60e51b815260206004820181815283516024840152835190928392604490910191908501908083836000831561579657818101518382015260200161577e565b50828481615a8b57fe5b04949350505050565b6040518060200160405280600081525090565b815481835581811115611c8357600083815260209020611c83918101908301615b35565b604051806101400160405280600081526020016000815260200160008152602001600081526020016000815260200160008152602001615b09615a94565b8152602001615b16615a94565b8152602001615b23615a94565b8152602001615b30615a94565b905290565b61190491905b80821115615b4f5760008155600101615b3b565b509056fe6f6e6c7920706175736520677561726469616e20616e642061646d696e2063616e6f6e6c792061646d696e206f7220626f72726f772063617020677561726469616e2063616e2073657420626f72726f772063617073a265627a7a723158201662c6ff48aaeaa93d5ce8e99e0a490b880df7c450942746f27ad1c9e590f66e64736f6c63430005100032",
  "linkReferences": {},
  "deployedLinkReferences": {}
}