{
  "_format": "hh-sol-artifact-1",
  "contractName": "DAIInterestRateModelV2",
  "sourceName": "contracts/DAIInterestRateModelV2.sol",
  "abi": [
    {
      "inputs": [
        {
          "internalType": "uint256",
          "name": "jumpMultiplierPerYear",
          "type": "uint256"
        },
        {
          "internalType": "uint256",
          "name": "kink_",
          "type": "uint256"
        },
        {
          "internalType": "address",
          "name": "pot_",
          "type": "address"
        },
        {
          "internalType": "address",
          "name": "jug_",
          "type": "address"
        }
      ],
      "payable": false,
      "stateMutability": "nonpayable",
      "type": "constructor"
    },
    {
      "anonymous": false,
      "inputs": [
        {
          "indexed": false,
          "internalType": "uint256",
          "name": "baseRatePerBlock",
          "type": "uint256"
        },
        {
          "indexed": false,
          "internalType": "uint256",
          "name": "multiplierPerBlock",
          "type": "uint256"
        },
        {
          "indexed": false,
          "internalType": "uint256",
          "name": "jumpMultiplierPerBlock",
          "type": "uint256"
        },
        {
          "indexed": false,
          "internalType": "uint256",
          "name": "kink",
          "type": "uint256"
        }
      ],
      "name": "NewInterestParams",
      "type": "event"
    },
    {
      "constant": true,
      "inputs": [],
      "name": "assumedOneMinusReserveFactorMantissa",
      "outputs": [
        {
          "internalType": "uint256",
          "name": "",
          "type": "uint256"
        }
      ],
      "payable": false,
      "stateMutability": "view",
      "type": "function"
    },
    {
      "constant": true,
      "inputs": [],
      "name": "baseRatePerBlock",
      "outputs": [
        {
          "internalType": "uint256",
          "name": "",
          "type": "uint256"
        }
      ],
      "payable": false,
      "stateMutability": "view",
      "type": "function"
    },
    {
      "constant": true,
      "inputs": [],
      "name": "blocksPerYear",
      "outputs": [
        {
          "internalType": "uint256",
          "name": "",
          "type": "uint256"
        }
      ],
      "payable": false,
      "stateMutability": "view",
      "type": "function"
    },
    {
      "constant": true,
      "inputs": [],
      "name": "dsrPerBlock",
      "outputs": [
        {
          "internalType": "uint256",
          "name": "",
          "type": "uint256"
        }
      ],
      "payable": false,
      "stateMutability": "view",
      "type": "function"
    },
    {
      "constant": true,
      "inputs": [],
      "name": "gapPerBlock",
      "outputs": [
        {
          "internalType": "uint256",
          "name": "",
          "type": "uint256"
        }
      ],
      "payable": false,
      "stateMutability": "view",
      "type": "function"
    },
    {
      "constant": true,
      "inputs": [
        {
          "internalType": "uint256",
          "name": "cash",
          "type": "uint256"
        },
        {
          "internalType": "uint256",
          "name": "borrows",
          "type": "uint256"
        },
        {
          "internalType": "uint256",
          "name": "reserves",
          "type": "uint256"
        }
      ],
      "name": "getBorrowRate",
      "outputs": [
        {
          "internalType": "uint256",
          "name": "",
          "type": "uint256"
        }
      ],
      "payable": false,
      "stateMutability": "view",
      "type": "function"
    },
    {
      "constant": true,
      "inputs": [
        {
          "internalType": "uint256",
          "name": "cash",
          "type": "uint256"
        },
        {
          "internalType": "uint256",
          "name": "borrows",
          "type": "uint256"
        },
        {
          "internalType": "uint256",
          "name": "reserves",
          "type": "uint256"
        },
        {
          "internalType": "uint256",
          "name": "reserveFactorMantissa",
          "type": "uint256"
        }
      ],
      "name": "getSupplyRate",
      "outputs": [
        {
          "internalType": "uint256",
          "name": "",
          "type": "uint256"
        }
      ],
      "payable": false,
      "stateMutability": "view",
      "type": "function"
    },
    {
      "constant": true,
      "inputs": [],
      "name": "isInterestRateModel",
      "outputs": [
        {
          "internalType": "bool",
          "name": "",
          "type": "bool"
        }
      ],
      "payable": false,
      "stateMutability": "view",
      "type": "function"
    },
    {
      "constant": true,
      "inputs": [],
      "name": "jumpMultiplierPerBlock",
      "outputs": [
        {
          "internalType": "uint256",
          "name": "",
          "type": "uint256"
        }
      ],
      "payable": false,
      "stateMutability": "view",
      "type": "function"
    },
    {
      "constant": true,
      "inputs": [],
      "name": "kink",
      "outputs": [
        {
          "internalType": "uint256",
          "name": "",
          "type": "uint256"
        }
      ],
      "payable": false,
      "stateMutability": "view",
      "type": "function"
    },
    {
      "constant": true,
      "inputs": [],
      "name": "multiplierPerBlock",
      "outputs": [
        {
          "internalType": "uint256",
          "name": "",
          "type": "uint256"
        }
      ],
      "payable": false,
      "stateMutability": "view",
      "type": "function"
    },
    {
      "constant": false,
      "inputs": [],
      "name": "poke",
      "outputs": [],
      "payable": false,
      "stateMutability": "nonpayable",
      "type": "function"
    },
    {
      "constant": true,
      "inputs": [
        {
          "internalType": "uint256",
          "name": "cash",
          "type": "uint256"
        },
        {
          "internalType": "uint256",
          "name": "borrows",
          "type": "uint256"
        },
        {
          "internalType": "uint256",
          "name": "reserves",
          "type": "uint256"
        }
      ],
      "name": "utilizationRate",
      "outputs": [
        {
          "internalType": "uint256",
          "name": "",
          "type": "uint256"
        }
      ],
      "payable": false,
      "stateMutability": "pure",
      "type": "function"
    }
  ],
  "bytecode": "0x60806040523480156200001157600080fd5b506040516200116638038062001166833981810160405260808110156200003757600080fd5b50805160208083015160408401516060909401519293909290916000908190869086906200007590849062a0668090620006e76200015c821b17901c565b600155620000938362a066806200015c602090811b620006e717901c565b600055620000b18262a066806200015c602090811b620006e717901c565b60028190556003829055600154600054604080519283526020830191909152818101929092526060810183905290517f6960ab234c7ef4b0c9197100f5393cfcde7c453ac910a27bd2000aa1dd4c068d9181900360800190a15050600480546001600160a01b038087166001600160a01b0319928316179092556005805492861692909116919091179055506200015290506001600160e01b03620001af16565b5050505062000771565b6000620001a683836040518060400160405280601a81526020017f536166654d6174683a206469766973696f6e206279207a65726f0000000000008152506200046360201b60201c565b90505b92915050565b60055460408051636cb1c69b60e11b815264424e422d4160d81b600482015281516000936001600160a01b03169263d9638d369260248082019391829003018186803b158015620001ff57600080fd5b505afa15801562000214573d6000803e3d6000fd5b505050506040513d60408110156200022b57600080fd5b505160055460408051635001f3b560e01b815290519293506000926200032a9260039262000302926b033b2e3c9fd0803ce8000000926200031692670de0b6b3a76400009286928692620002ee926001600160a01b0390921691635001f3b591600480820192602092909190829003018186803b158015620002ac57600080fd5b505afa158015620002c1573d6000803e3d6000fd5b505050506040513d6020811015620002d857600080fd5b50518b906200050a602090811b6200072917901c565b6200055460201b6200076b1790919060201c565b6200059e60201b620006851790919060201c565b6200015c60201b620006e71790919060201c565b905062000359670d2f13f7789f000062000316670de0b6b3a7640000620003026001600160e01b03620005fc16565b6001819055811115620003cc57620003c360035462000316670de0b6b3a76400006200030262a0668066470de4df820000816200039257fe5b04620003af600154886200055460201b6200076b1790919060201c565b6200050a60201b620007291790919060201c565b6000556200040d565b6200040960035462000316670de0b6b3a764000062a0668066470de4df82000081620003f457fe5b046200059e60201b620006851790919060201c565b6000555b600154600054600254600354604080519485526020850193909352838301919091526060830152517f6960ab234c7ef4b0c9197100f5393cfcde7c453ac910a27bd2000aa1dd4c068d9181900360800190a15050565b60008183620004f35760405162461bcd60e51b81526004018080602001828103825283818151815260200191508051906020019080838360005b83811015620004b75781810151838201526020016200049d565b50505050905090810190601f168015620004e55780820380516001836020036101000a031916815260200191505b509250505060405180910390fd5b5060008385816200050057fe5b0495945050505050565b6000620001a683836040518060400160405280601b81526020017f536166654d6174683a206164646974696f6e206f766572666c6f770000000000815250620006b360201b60201c565b6000620001a683836040518060400160405280601e81526020017f536166654d6174683a207375627472616374696f6e206f766572666c6f7700008152506200071460201b60201c565b600082620005af57506000620001a9565b82820282848281620005bd57fe5b0414620001a65760405162461bcd60e51b8152600401808060200182810382526021815260200180620011456021913960400191505060405180910390fd5b6000620006ae600362000302633b9aca00620003166b033b2e3c9fd0803ce8000000600460009054906101000a90046001600160a01b03166001600160a01b031663487bf0826040518163ffffffff1660e01b815260040160206040518083038186803b1580156200066d57600080fd5b505afa15801562000682573d6000803e3d6000fd5b505050506040513d60208110156200069957600080fd5b50519062000554602090811b6200076b17901c565b905090565b600083830182858210156200070b5760405162461bcd60e51b8152602060048201818152835160248401528351909283926044909101919085019080838360008315620004b75781810151838201526020016200049d565b50949350505050565b60008184841115620007695760405162461bcd60e51b8152602060048201818152835160248401528351909283926044909101919085019080838360008315620004b75781810151838201526020016200049d565b505050900390565b6109c480620007816000396000f3fe608060405234801561001057600080fd5b50600436106100cf5760003560e01c806396456c5c1161008c578063b9f9850a11610066578063b9f9850a146101ad578063f14039de146101b5578063f52d21f3146101bd578063fd2da339146101c5576100cf565b806396456c5c1461016e578063a385fb9614610176578063b81688161461017e576100cf565b806315f24053146100d4578063181783581461010f5780632191f92a146101195780636dac7cd5146101355780636e71e2d81461013d5780638726bb8914610166575b600080fd5b6100fd600480360360608110156100ea57600080fd5b50803590602081013590604001356101cd565b60408051918252519081900360200190f35b6101176102a5565b005b6101216104eb565b604080519115158252519081900360200190f35b6100fd6104f0565b6100fd6004803603606081101561015357600080fd5b50803590602081013590604001356104fc565b6100fd610542565b6100fd610548565b6100fd6105f2565b6100fd6004803603608081101561019457600080fd5b50803590602081013590604081013590606001356105f9565b6100fd61066b565b6100fd610671565b6100fd610677565b6100fd61067f565b6000806101db8585856104fc565b9050600354811161022d57610225600154610219670de0b6b3a764000061020d6000548661068590919063ffffffff16565b9063ffffffff6106e716565b9063ffffffff61072916565b91505061029e565b6000610258600154610219670de0b6b3a764000061020d60005460035461068590919063ffffffff16565b905060006102716003548461076b90919063ffffffff16565b905061029882610219670de0b6b3a764000061020d6002548661068590919063ffffffff16565b93505050505b9392505050565b60055460408051636cb1c69b60e11b815264424e422d4160d81b600482015281516000936001600160a01b03169263d9638d369260248082019391829003018186803b1580156102f457600080fd5b505afa158015610308573d6000803e3d6000fd5b505050506040513d604081101561031e57600080fd5b505160055460408051635001f3b560e01b815290519293506000926103eb926003926103df926b033b2e3c9fd0803ce80000009261020d92670de0b6b3a764000092869286926103d3926001600160a01b0390921691635001f3b591600480820192602092909190829003018186803b15801561039a57600080fd5b505afa1580156103ae573d6000803e3d6000fd5b505050506040513d60208110156103c457600080fd5b50518b9063ffffffff61072916565b9063ffffffff61076b16565b9063ffffffff61068516565b905061040d670d2f13f7789f000061020d670de0b6b3a76400006103df610548565b600181905581111561045f5761045760035461020d670de0b6b3a76400006103df62a0668066470de4df8200008161044157fe5b046102196001548861076b90919063ffffffff16565b600055610495565b61049160035461020d670de0b6b3a764000062a0668066470de4df8200008161048457fe5b049063ffffffff61068516565b6000555b600154600054600254600354604080519485526020850193909352838301919091526060830152517f6960ab234c7ef4b0c9197100f5393cfcde7c453ac910a27bd2000aa1dd4c068d9181900360800190a15050565b600181565b670d2f13f7789f000081565b60008261050b5750600061029e565b61053a610522836103d3878763ffffffff61072916565b61020d85670de0b6b3a764000063ffffffff61068516565b949350505050565b60005481565b60006105ed60036103df633b9aca0061020d6b033b2e3c9fd0803ce8000000600460009054906101000a90046001600160a01b03166001600160a01b031663487bf0826040518163ffffffff1660e01b815260040160206040518083038186803b1580156105b557600080fd5b505afa1580156105c9573d6000803e3d6000fd5b505050506040513d60208110156105df57600080fd5b50519063ffffffff61076b16565b905090565b62a0668081565b600080610608868686866107ad565b90506000610620856103d3898963ffffffff61072916565b90508061062f5750905061053a565b600061064d8261020d610640610548565b8b9063ffffffff61068516565b905061065f818463ffffffff61072916565b98975050505050505050565b60025481565b60015481565b6371672e7f81565b60035481565b600082610694575060006106e1565b828202828482816106a157fe5b04146106de5760405162461bcd60e51b815260040180806020018281038252602181526020018061096f6021913960400191505060405180910390fd5b90505b92915050565b60006106de83836040518060400160405280601a81526020017f536166654d6174683a206469766973696f6e206279207a65726f000000000000815250610814565b60006106de83836040518060400160405280601b81526020017f536166654d6174683a206164646974696f6e206f766572666c6f7700000000008152506108b6565b60006106de83836040518060400160405280601e81526020017f536166654d6174683a207375627472616374696f6e206f766572666c6f770000815250610914565b6000806107c8670de0b6b3a76400008463ffffffff61076b16565b905060006107d78787876101cd565b905060006107f7670de0b6b3a764000061020d848663ffffffff61068516565b905061065f670de0b6b3a764000061020d836103df8c8c8c6104fc565b600081836108a05760405162461bcd60e51b81526004018080602001828103825283818151815260200191508051906020019080838360005b8381101561086557818101518382015260200161084d565b50505050905090810190601f1680156108925780820380516001836020036101000a031916815260200191505b509250505060405180910390fd5b5060008385816108ac57fe5b0495945050505050565b6000838301828582101561090b5760405162461bcd60e51b815260206004820181815283516024840152835190928392604490910191908501908083836000831561086557818101518382015260200161084d565b50949350505050565b600081848411156109665760405162461bcd60e51b815260206004820181815283516024840152835190928392604490910191908501908083836000831561086557818101518382015260200161084d565b50505090039056fe536166654d6174683a206d756c7469706c69636174696f6e206f766572666c6f77a265627a7a723158201b5f60fc50fdcb71e00fed4d530c2834830c9457ba19290010b3d09886e8755864736f6c63430005100032536166654d6174683a206d756c7469706c69636174696f6e206f766572666c6f77",
  "linkReferences": {},
  "deployedLinkReferences": {}
}