{
  "_format": "hh-sol-artifact-1",
  "contractName": "EchoTypesComptroller",
  "sourceName": "contracts/test/ComptrollerHarness.sol",
  "abi": [
    {
      "constant": true,
      "inputs": [
        {
          "internalType": "address",
          "name": "a",
          "type": "address"
        }
      ],
      "name": "addresses",
      "outputs": [
        {
          "internalType": "address",
          "name": "",
          "type": "address"
        }
      ],
      "payable": false,
      "stateMutability": "pure",
      "type": "function"
    },
    {
      "constant": true,
      "inputs": [],
      "name": "admin",
      "outputs": [
        {
          "internalType": "address",
          "name": "",
          "type": "address"
        }
      ],
      "payable": false,
      "stateMutability": "view",
      "type": "function"
    },
    {
      "constant": false,
      "inputs": [
        {
          "internalType": "address payable",
          "name": "unitroller",
          "type": "address"
        }
      ],
      "name": "becomeBrains",
      "outputs": [],
      "payable": false,
      "stateMutability": "nonpayable",
      "type": "function"
    },
    {
      "constant": true,
      "inputs": [
        {
          "internalType": "bool",
          "name": "b",
          "type": "bool"
        }
      ],
      "name": "booly",
      "outputs": [
        {
          "internalType": "bool",
          "name": "",
          "type": "bool"
        }
      ],
      "payable": false,
      "stateMutability": "pure",
      "type": "function"
    },
    {
      "constant": true,
      "inputs": [],
      "name": "comptrollerImplementation",
      "outputs": [
        {
          "internalType": "address",
          "name": "",
          "type": "address"
        }
      ],
      "payable": false,
      "stateMutability": "view",
      "type": "function"
    },
    {
      "constant": true,
      "inputs": [
        {
          "internalType": "uint256[]",
          "name": "u",
          "type": "uint256[]"
        }
      ],
      "name": "listOInts",
      "outputs": [
        {
          "internalType": "uint256[]",
          "name": "",
          "type": "uint256[]"
        }
      ],
      "payable": false,
      "stateMutability": "pure",
      "type": "function"
    },
    {
      "constant": true,
      "inputs": [],
      "name": "pendingAdmin",
      "outputs": [
        {
          "internalType": "address",
          "name": "",
          "type": "address"
        }
      ],
      "payable": false,
      "stateMutability": "view",
      "type": "function"
    },
    {
      "constant": true,
      "inputs": [],
      "name": "pendingComptrollerImplementation",
      "outputs": [
        {
          "internalType": "address",
          "name": "",
          "type": "address"
        }
      ],
      "payable": false,
      "stateMutability": "view",
      "type": "function"
    },
    {
      "constant": true,
      "inputs": [],
      "name": "reverty",
      "outputs": [],
      "payable": false,
      "stateMutability": "pure",
      "type": "function"
    },
    {
      "constant": true,
      "inputs": [
        {
          "internalType": "string",
          "name": "s",
          "type": "string"
        }
      ],
      "name": "stringy",
      "outputs": [
        {
          "internalType": "string",
          "name": "",
          "type": "string"
        }
      ],
      "payable": false,
      "stateMutability": "pure",
      "type": "function"
    }
  ],
  "bytecode": "0x608060405234801561001057600080fd5b50610490806100206000396000f3fe608060405234801561001057600080fd5b506004361061009e5760003560e01c8063ba3cca6911610066578063ba3cca6914610305578063bb82aa5e1461032b578063bd96b51614610333578063dcfbc0c714610366578063f851a4401461036e5761009e565b806326782247146100a35780634bdd1eaf146100c757806374b0b7df146101ba57806382d38954146102d55780638d2c913c146102fb575b600080fd5b6100ab610376565b604080516001600160a01b039092168252519081900360200190f35b61016a600480360360208110156100dd57600080fd5b8101906020810181356401000000008111156100f857600080fd5b82018360208201111561010a57600080fd5b8035906020019184602083028401116401000000008311171561012c57600080fd5b919080806020026020016040519081016040528093929190818152602001838360200280828437600092019190915250929550610385945050505050565b60408051602080825283518183015283519192839290830191858101910280838360005b838110156101a657818101518382015260200161018e565b505050509050019250505060405180910390f35b610260600480360360208110156101d057600080fd5b8101906020810181356401000000008111156101eb57600080fd5b8201836020820111156101fd57600080fd5b8035906020019184600183028401116401000000008311171561021f57600080fd5b91908080601f016020809104026020016040519081016040528093929190818152602001838380828437600092019190915250929550610385945050505050565b6040805160208082528351818301528351919283929083019185019080838360005b8381101561029a578181015183820152602001610282565b50505050905090810190601f1680156102c75780820380516001836020036101000a031916815260200191505b509250505060405180910390f35b6100ab600480360360208110156102eb57600080fd5b50356001600160a01b0316610385565b610303610388565b005b6103036004803603602081101561031b57600080fd5b50356001600160a01b03166103c4565b6100ab61042e565b6103526004803603602081101561034957600080fd5b50351515610385565b604080519115158252519081900360200190f35b6100ab61043d565b6100ab61044c565b6001546001600160a01b031681565b90565b6040805162461bcd60e51b815260206004820152600c60248201526b676f74636861207375636b6160a01b604482015290519081900360640190fd5b806001600160a01b031663c1e803346040518163ffffffff1660e01b8152600401602060405180830381600087803b1580156103ff57600080fd5b505af1158015610413573d6000803e3d6000fd5b505050506040513d602081101561042957600080fd5b505050565b6002546001600160a01b031681565b6003546001600160a01b031681565b6000546001600160a01b03168156fea265627a7a723158206e869c94532903810ed9aebc8b047becce258d8bd31bbc922e82333f9a537de164736f6c63430005100032",
  "linkReferences": {},
  "deployedLinkReferences": {}
}