{
  "_format": "hh-sol-artifact-1",
  "contractName": "EvilToken",
  "sourceName": "contracts/test/EvilToken.sol",
  "abi": [
    {
      "inputs": [
        {
          "internalType": "uint256",
          "name": "_initialAmount",
          "type": "uint256"
        },
        {
          "internalType": "string",
          "name": "_tokenName",
          "type": "string"
        },
        {
          "internalType": "uint8",
          "name": "_decimalUnits",
          "type": "uint8"
        },
        {
          "internalType": "string",
          "name": "_tokenSymbol",
          "type": "string"
        }
      ],
      "payable": false,
      "stateMutability": "nonpayable",
      "type": "constructor"
    },
    {
      "anonymous": false,
      "inputs": [
        {
          "indexed": true,
          "internalType": "address",
          "name": "owner",
          "type": "address"
        },
        {
          "indexed": true,
          "internalType": "address",
          "name": "spender",
          "type": "address"
        },
        {
          "indexed": false,
          "internalType": "uint256",
          "name": "value",
          "type": "uint256"
        }
      ],
      "name": "Approval",
      "type": "event"
    },
    {
      "anonymous": false,
      "inputs": [
        {
          "indexed": true,
          "internalType": "address",
          "name": "from",
          "type": "address"
        },
        {
          "indexed": true,
          "internalType": "address",
          "name": "to",
          "type": "address"
        },
        {
          "indexed": false,
          "internalType": "uint256",
          "name": "value",
          "type": "uint256"
        }
      ],
      "name": "Transfer",
      "type": "event"
    },
    {
      "constant": false,
      "inputs": [
        {
          "internalType": "address",
          "name": "_owner",
          "type": "address"
        },
        {
          "internalType": "uint256",
          "name": "value",
          "type": "uint256"
        }
      ],
      "name": "allocateTo",
      "outputs": [],
      "payable": false,
      "stateMutability": "nonpayable",
      "type": "function"
    },
    {
      "constant": true,
      "inputs": [
        {
          "internalType": "address",
          "name": "",
          "type": "address"
        },
        {
          "internalType": "address",
          "name": "",
          "type": "address"
        }
      ],
      "name": "allowance",
      "outputs": [
        {
          "internalType": "uint256",
          "name": "",
          "type": "uint256"
        }
      ],
      "payable": false,
      "stateMutability": "view",
      "type": "function"
    },
    {
      "constant": false,
      "inputs": [
        {
          "internalType": "address",
          "name": "_spender",
          "type": "address"
        },
        {
          "internalType": "uint256",
          "name": "amount",
          "type": "uint256"
        }
      ],
      "name": "approve",
      "outputs": [
        {
          "internalType": "bool",
          "name": "",
          "type": "bool"
        }
      ],
      "payable": false,
      "stateMutability": "nonpayable",
      "type": "function"
    },
    {
      "constant": true,
      "inputs": [
        {
          "internalType": "address",
          "name": "",
          "type": "address"
        }
      ],
      "name": "balanceOf",
      "outputs": [
        {
          "internalType": "uint256",
          "name": "",
          "type": "uint256"
        }
      ],
      "payable": false,
      "stateMutability": "view",
      "type": "function"
    },
    {
      "constant": true,
      "inputs": [],
      "name": "decimals",
      "outputs": [
        {
          "internalType": "uint8",
          "name": "",
          "type": "uint8"
        }
      ],
      "payable": false,
      "stateMutability": "view",
      "type": "function"
    },
    {
      "constant": true,
      "inputs": [],
      "name": "fail",
      "outputs": [
        {
          "internalType": "bool",
          "name": "",
          "type": "bool"
        }
      ],
      "payable": false,
      "stateMutability": "view",
      "type": "function"
    },
    {
      "constant": true,
      "inputs": [],
      "name": "name",
      "outputs": [
        {
          "internalType": "string",
          "name": "",
          "type": "string"
        }
      ],
      "payable": false,
      "stateMutability": "view",
      "type": "function"
    },
    {
      "constant": false,
      "inputs": [
        {
          "internalType": "bool",
          "name": "_fail",
          "type": "bool"
        }
      ],
      "name": "setFail",
      "outputs": [],
      "payable": false,
      "stateMutability": "nonpayable",
      "type": "function"
    },
    {
      "constant": true,
      "inputs": [],
      "name": "symbol",
      "outputs": [
        {
          "internalType": "string",
          "name": "",
          "type": "string"
        }
      ],
      "payable": false,
      "stateMutability": "view",
      "type": "function"
    },
    {
      "constant": true,
      "inputs": [],
      "name": "totalSupply",
      "outputs": [
        {
          "internalType": "uint256",
          "name": "",
          "type": "uint256"
        }
      ],
      "payable": false,
      "stateMutability": "view",
      "type": "function"
    },
    {
      "constant": false,
      "inputs": [
        {
          "internalType": "address",
          "name": "dst",
          "type": "address"
        },
        {
          "internalType": "uint256",
          "name": "amount",
          "type": "uint256"
        }
      ],
      "name": "transfer",
      "outputs": [
        {
          "internalType": "bool",
          "name": "",
          "type": "bool"
        }
      ],
      "payable": false,
      "stateMutability": "nonpayable",
      "type": "function"
    },
    {
      "constant": false,
      "inputs": [
        {
          "internalType": "address",
          "name": "src",
          "type": "address"
        },
        {
          "internalType": "address",
          "name": "dst",
          "type": "address"
        },
        {
          "internalType": "uint256",
          "name": "amount",
          "type": "uint256"
        }
      ],
      "name": "transferFrom",
      "outputs": [
        {
          "internalType": "bool",
          "name": "",
          "type": "bool"
        }
      ],
      "payable": false,
      "stateMutability": "nonpayable",
      "type": "function"
    }
  ],
  "bytecode": "0x608060405234801561001057600080fd5b50604051610b25380380610b258339818101604052608081101561003357600080fd5b81516020830180516040519294929383019291908464010000000082111561005a57600080fd5b90830190602082018581111561006f57600080fd5b825164010000000081118282018810171561008957600080fd5b82525081516020918201929091019080838360005b838110156100b657818101518382015260200161009e565b50505050905090810190601f1680156100e35780820380516001836020036101000a031916815260200191505b5060408181526020830151920180519294919391928464010000000082111561010b57600080fd5b90830190602082018581111561012057600080fd5b825164010000000081118282018810171561013a57600080fd5b82525081516020918201929091019080838360005b8381101561016757818101518382015260200161014f565b50505050905090810190601f1680156101945780820380516001836020036101000a031916815260200191505b5060409081526003889055336000908152600560209081529181208990558751899550889450879350869286928692869286926101d5929091860190610219565b5080516101e9906001906020840190610219565b50506002805460ff90921660ff19928316179055600680549091166001179055506102b498505050505050505050565b828054600181600116156101000203166002900490600052602060002090601f016020900481019282601f1061025a57805160ff1916838001178555610287565b82800160010185558215610287579182015b8281111561028757825182559160200191906001019061026c565b50610293929150610297565b5090565b6102b191905b80821115610293576000815560010161029d565b90565b610862806102c36000396000f3fe608060405234801561001057600080fd5b50600436106100b45760003560e01c806370a082311161007157806370a082311461021257806395d89b41146102385780639d76940214610240578063a9059cbb1461025f578063a9cc47181461028b578063dd62ed3e14610293576100b4565b806306fdde03146100b957806308bca56614610136578063095ea7b31461016457806318160ddd146101a457806323b872dd146101be578063313ce567146101f4575b600080fd5b6100c16102c1565b6040805160208082528351818301528351919283929083019185019080838360005b838110156100fb5781810151838201526020016100e3565b50505050905090810190601f1680156101285780820380516001836020036101000a031916815260200191505b509250505060405180910390f35b6101626004803603604081101561014c57600080fd5b506001600160a01b03813516906020013561034f565b005b6101906004803603604081101561017a57600080fd5b506001600160a01b0381351690602001356103af565b604080519115158252519081900360200190f35b6101ac610416565b60408051918252519081900360200190f35b610190600480360360608110156101d457600080fd5b506001600160a01b0381358116916020810135909116906040013561041c565b6101fc610540565b6040805160ff9092168252519081900360200190f35b6101ac6004803603602081101561022857600080fd5b50356001600160a01b0316610549565b6100c161055b565b6101626004803603602081101561025657600080fd5b503515156105b5565b6101906004803603604081101561027557600080fd5b506001600160a01b0381351690602001356105c8565b61019061068e565b6101ac600480360360408110156102a957600080fd5b506001600160a01b0381358116916020013516610697565b6000805460408051602060026001851615610100026000190190941693909304601f810184900484028201840190925281815292918301828280156103475780601f1061031c57610100808354040283529160200191610347565b820191906000526020600020905b81548152906001019060200180831161032a57829003601f168201915b505050505081565b6001600160a01b03821660008181526005602090815260409182902080548501905560038054850190558151848152915130927fddf252ad1be2c89b69c2b068fc378daa952ba7f163c4a11628f55a4df523b3ef92908290030190a35050565b3360008181526004602090815260408083206001600160a01b038716808552908352818420869055815186815291519394909390927f8c5be1e5ebec7d5bd14f71427d1e84f3dd0314c0f7b2291e5b200ac8c7c3b925928290030190a35060015b92915050565b60035481565b60065460009060ff161561043257506000610539565b6001600160a01b03841660009081526005602052604090205461045b908363ffffffff6106b416565b6001600160a01b038086166000908152600560205260408082209390935590851681522054610490908363ffffffff6106f616565b6001600160a01b0380851660009081526005602090815260408083209490945591871681526004825282812033825290915220546104d4908363ffffffff6106b416565b6001600160a01b03808616600081815260046020908152604080832033845282529182902094909455805186815290519287169391927fddf252ad1be2c89b69c2b068fc378daa952ba7f163c4a11628f55a4df523b3ef929181900390910190a35060015b9392505050565b60025460ff1681565b60056020526000908152604090205481565b60018054604080516020600284861615610100026000190190941693909304601f810184900484028201840190925281815292918301828280156103475780601f1061031c57610100808354040283529160200191610347565b6006805460ff1916911515919091179055565b60065460009060ff16156105de57506000610410565b336000908152600560205260409020546105fe908363ffffffff6106b416565b33600090815260056020526040808220929092556001600160a01b03851681522054610630908363ffffffff6106f616565b6001600160a01b0384166000818152600560209081526040918290209390935580518581529051919233927fddf252ad1be2c89b69c2b068fc378daa952ba7f163c4a11628f55a4df523b3ef9281900390910190a350600192915050565b60065460ff1681565b600460209081526000928352604080842090915290825290205481565b600061053983836040518060400160405280601e81526020017f536166654d6174683a207375627472616374696f6e206f766572666c6f770000815250610738565b600061053983836040518060400160405280601b81526020017f536166654d6174683a206164646974696f6e206f766572666c6f7700000000008152506107cf565b600081848411156107c75760405162461bcd60e51b81526004018080602001828103825283818151815260200191508051906020019080838360005b8381101561078c578181015183820152602001610774565b50505050905090810190601f1680156107b95780820380516001836020036101000a031916815260200191505b509250505060405180910390fd5b505050900390565b600083830182858210156108245760405162461bcd60e51b815260206004820181815283516024840152835190928392604490910191908501908083836000831561078c578181015183820152602001610774565b5094935050505056fea265627a7a723158207a5464d04b306663f70bb96f0bc6e2228f7e373da226e09e8315d1aa023ce49b64736f6c63430005100032",
  "linkReferences": {},
  "deployedLinkReferences": {}
}