{
  "_format": "hh-sol-artifact-1",
  "contractName": "GovernorBravoDelegate",
  "sourceName": "contracts/Governance/GovernorBravoDelegate.sol",
  "abi": [
    {
      "anonymous": false,
      "inputs": [
        {
          "indexed": false,
          "internalType": "address",
          "name": "oldAdmin",
          "type": "address"
        },
        {
          "indexed": false,
          "internalType": "address",
          "name": "newAdmin",
          "type": "address"
        }
      ],
      "name": "NewAdmin",
      "type": "event"
    },
    {
      "anonymous": false,
      "inputs": [
        {
          "indexed": false,
          "internalType": "address",
          "name": "oldGuardian",
          "type": "address"
        },
        {
          "indexed": false,
          "internalType": "address",
          "name": "newGuardian",
          "type": "address"
        }
      ],
      "name": "NewGuardian",
      "type": "event"
    },
    {
      "anonymous": false,
      "inputs": [
        {
          "indexed": false,
          "internalType": "address",
          "name": "oldImplementation",
          "type": "address"
        },
        {
          "indexed": false,
          "internalType": "address",
          "name": "newImplementation",
          "type": "address"
        }
      ],
      "name": "NewImplementation",
      "type": "event"
    },
    {
      "anonymous": false,
      "inputs": [
        {
          "indexed": false,
          "internalType": "address",
          "name": "oldPendingAdmin",
          "type": "address"
        },
        {
          "indexed": false,
          "internalType": "address",
          "name": "newPendingAdmin",
          "type": "address"
        }
      ],
      "name": "NewPendingAdmin",
      "type": "event"
    },
    {
      "anonymous": false,
      "inputs": [
        {
          "indexed": false,
          "internalType": "uint256",
          "name": "id",
          "type": "uint256"
        }
      ],
      "name": "ProposalCanceled",
      "type": "event"
    },
    {
      "anonymous": false,
      "inputs": [
        {
          "indexed": false,
          "internalType": "uint256",
          "name": "id",
          "type": "uint256"
        },
        {
          "indexed": false,
          "internalType": "address",
          "name": "proposer",
          "type": "address"
        },
        {
          "indexed": false,
          "internalType": "address[]",
          "name": "targets",
          "type": "address[]"
        },
        {
          "indexed": false,
          "internalType": "uint256[]",
          "name": "values",
          "type": "uint256[]"
        },
        {
          "indexed": false,
          "internalType": "string[]",
          "name": "signatures",
          "type": "string[]"
        },
        {
          "indexed": false,
          "internalType": "bytes[]",
          "name": "calldatas",
          "type": "bytes[]"
        },
        {
          "indexed": false,
          "internalType": "uint256",
          "name": "startBlock",
          "type": "uint256"
        },
        {
          "indexed": false,
          "internalType": "uint256",
          "name": "endBlock",
          "type": "uint256"
        },
        {
          "indexed": false,
          "internalType": "string",
          "name": "description",
          "type": "string"
        },
        {
          "indexed": false,
          "internalType": "uint8",
          "name": "proposalType",
          "type": "uint8"
        }
      ],
      "name": "ProposalCreated",
      "type": "event"
    },
    {
      "anonymous": false,
      "inputs": [
        {
          "indexed": false,
          "internalType": "uint256",
          "name": "id",
          "type": "uint256"
        }
      ],
      "name": "ProposalExecuted",
      "type": "event"
    },
    {
      "anonymous": false,
      "inputs": [
        {
          "indexed": false,
          "internalType": "uint256",
          "name": "oldMaxOperations",
          "type": "uint256"
        },
        {
          "indexed": false,
          "internalType": "uint256",
          "name": "newMaxOperations",
          "type": "uint256"
        }
      ],
      "name": "ProposalMaxOperationsUpdated",
      "type": "event"
    },
    {
      "anonymous": false,
      "inputs": [
        {
          "indexed": false,
          "internalType": "uint256",
          "name": "id",
          "type": "uint256"
        },
        {
          "indexed": false,
          "internalType": "uint256",
          "name": "eta",
          "type": "uint256"
        }
      ],
      "name": "ProposalQueued",
      "type": "event"
    },
    {
      "anonymous": false,
      "inputs": [
        {
          "indexed": false,
          "internalType": "uint256",
          "name": "oldProposalThreshold",
          "type": "uint256"
        },
        {
          "indexed": false,
          "internalType": "uint256",
          "name": "newProposalThreshold",
          "type": "uint256"
        }
      ],
      "name": "ProposalThresholdSet",
      "type": "event"
    },
    {
      "anonymous": false,
      "inputs": [
        {
          "indexed": true,
          "internalType": "address",
          "name": "voter",
          "type": "address"
        },
        {
          "indexed": false,
          "internalType": "uint256",
          "name": "proposalId",
          "type": "uint256"
        },
        {
          "indexed": false,
          "internalType": "uint8",
          "name": "support",
          "type": "uint8"
        },
        {
          "indexed": false,
          "internalType": "uint256",
          "name": "votes",
          "type": "uint256"
        },
        {
          "indexed": false,
          "internalType": "string",
          "name": "reason",
          "type": "string"
        }
      ],
      "name": "VoteCast",
      "type": "event"
    },
    {
      "anonymous": false,
      "inputs": [
        {
          "indexed": false,
          "internalType": "uint256",
          "name": "oldVotingDelay",
          "type": "uint256"
        },
        {
          "indexed": false,
          "internalType": "uint256",
          "name": "newVotingDelay",
          "type": "uint256"
        }
      ],
      "name": "VotingDelaySet",
      "type": "event"
    },
    {
      "anonymous": false,
      "inputs": [
        {
          "indexed": false,
          "internalType": "uint256",
          "name": "oldVotingPeriod",
          "type": "uint256"
        },
        {
          "indexed": false,
          "internalType": "uint256",
          "name": "newVotingPeriod",
          "type": "uint256"
        }
      ],
      "name": "VotingPeriodSet",
      "type": "event"
    },
    {
      "constant": true,
      "inputs": [],
      "name": "BALLOT_TYPEHASH",
      "outputs": [
        {
          "internalType": "bytes32",
          "name": "",
          "type": "bytes32"
        }
      ],
      "payable": false,
      "stateMutability": "view",
      "type": "function"
    },
    {
      "constant": true,
      "inputs": [],
      "name": "DOMAIN_TYPEHASH",
      "outputs": [
        {
          "internalType": "bytes32",
          "name": "",
          "type": "bytes32"
        }
      ],
      "payable": false,
      "stateMutability": "view",
      "type": "function"
    },
    {
      "constant": true,
      "inputs": [],
      "name": "MAX_PROPOSAL_THRESHOLD",
      "outputs": [
        {
          "internalType": "uint256",
          "name": "",
          "type": "uint256"
        }
      ],
      "payable": false,
      "stateMutability": "view",
      "type": "function"
    },
    {
      "constant": true,
      "inputs": [],
      "name": "MAX_VOTING_DELAY",
      "outputs": [
        {
          "internalType": "uint256",
          "name": "",
          "type": "uint256"
        }
      ],
      "payable": false,
      "stateMutability": "view",
      "type": "function"
    },
    {
      "constant": true,
      "inputs": [],
      "name": "MAX_VOTING_PERIOD",
      "outputs": [
        {
          "internalType": "uint256",
          "name": "",
          "type": "uint256"
        }
      ],
      "payable": false,
      "stateMutability": "view",
      "type": "function"
    },
    {
      "constant": true,
      "inputs": [],
      "name": "MIN_PROPOSAL_THRESHOLD",
      "outputs": [
        {
          "internalType": "uint256",
          "name": "",
          "type": "uint256"
        }
      ],
      "payable": false,
      "stateMutability": "view",
      "type": "function"
    },
    {
      "constant": true,
      "inputs": [],
      "name": "MIN_VOTING_DELAY",
      "outputs": [
        {
          "internalType": "uint256",
          "name": "",
          "type": "uint256"
        }
      ],
      "payable": false,
      "stateMutability": "view",
      "type": "function"
    },
    {
      "constant": true,
      "inputs": [],
      "name": "MIN_VOTING_PERIOD",
      "outputs": [
        {
          "internalType": "uint256",
          "name": "",
          "type": "uint256"
        }
      ],
      "payable": false,
      "stateMutability": "view",
      "type": "function"
    },
    {
      "constant": false,
      "inputs": [],
      "name": "_acceptAdmin",
      "outputs": [],
      "payable": false,
      "stateMutability": "nonpayable",
      "type": "function"
    },
    {
      "constant": false,
      "inputs": [
        {
          "internalType": "address",
          "name": "governorAlpha",
          "type": "address"
        }
      ],
      "name": "_initiate",
      "outputs": [],
      "payable": false,
      "stateMutability": "nonpayable",
      "type": "function"
    },
    {
      "constant": false,
      "inputs": [
        {
          "internalType": "address",
          "name": "newGuardian",
          "type": "address"
        }
      ],
      "name": "_setGuardian",
      "outputs": [],
      "payable": false,
      "stateMutability": "nonpayable",
      "type": "function"
    },
    {
      "constant": false,
      "inputs": [
        {
          "internalType": "address",
          "name": "newPendingAdmin",
          "type": "address"
        }
      ],
      "name": "_setPendingAdmin",
      "outputs": [],
      "payable": false,
      "stateMutability": "nonpayable",
      "type": "function"
    },
    {
      "constant": false,
      "inputs": [
        {
          "internalType": "uint256",
          "name": "proposalMaxOperations_",
          "type": "uint256"
        }
      ],
      "name": "_setProposalMaxOperations",
      "outputs": [],
      "payable": false,
      "stateMutability": "nonpayable",
      "type": "function"
    },
    {
      "constant": true,
      "inputs": [],
      "name": "admin",
      "outputs": [
        {
          "internalType": "address",
          "name": "",
          "type": "address"
        }
      ],
      "payable": false,
      "stateMutability": "view",
      "type": "function"
    },
    {
      "constant": false,
      "inputs": [
        {
          "internalType": "uint256",
          "name": "proposalId",
          "type": "uint256"
        }
      ],
      "name": "cancel",
      "outputs": [],
      "payable": false,
      "stateMutability": "nonpayable",
      "type": "function"
    },
    {
      "constant": false,
      "inputs": [
        {
          "internalType": "uint256",
          "name": "proposalId",
          "type": "uint256"
        },
        {
          "internalType": "uint8",
          "name": "support",
          "type": "uint8"
        }
      ],
      "name": "castVote",
      "outputs": [],
      "payable": false,
      "stateMutability": "nonpayable",
      "type": "function"
    },
    {
      "constant": false,
      "inputs": [
        {
          "internalType": "uint256",
          "name": "proposalId",
          "type": "uint256"
        },
        {
          "internalType": "uint8",
          "name": "support",
          "type": "uint8"
        },
        {
          "internalType": "uint8",
          "name": "v",
          "type": "uint8"
        },
        {
          "internalType": "bytes32",
          "name": "r",
          "type": "bytes32"
        },
        {
          "internalType": "bytes32",
          "name": "s",
          "type": "bytes32"
        }
      ],
      "name": "castVoteBySig",
      "outputs": [],
      "payable": false,
      "stateMutability": "nonpayable",
      "type": "function"
    },
    {
      "constant": false,
      "inputs": [
        {
          "internalType": "uint256",
          "name": "proposalId",
          "type": "uint256"
        },
        {
          "internalType": "uint8",
          "name": "support",
          "type": "uint8"
        },
        {
          "internalType": "string",
          "name": "reason",
          "type": "string"
        }
      ],
      "name": "castVoteWithReason",
      "outputs": [],
      "payable": false,
      "stateMutability": "nonpayable",
      "type": "function"
    },
    {
      "constant": false,
      "inputs": [
        {
          "internalType": "uint256",
          "name": "proposalId",
          "type": "uint256"
        }
      ],
      "name": "execute",
      "outputs": [],
      "payable": false,
      "stateMutability": "nonpayable",
      "type": "function"
    },
    {
      "constant": true,
      "inputs": [
        {
          "internalType": "uint256",
          "name": "proposalId",
          "type": "uint256"
        }
      ],
      "name": "getActions",
      "outputs": [
        {
          "internalType": "address[]",
          "name": "targets",
          "type": "address[]"
        },
        {
          "internalType": "uint256[]",
          "name": "values",
          "type": "uint256[]"
        },
        {
          "internalType": "string[]",
          "name": "signatures",
          "type": "string[]"
        },
        {
          "internalType": "bytes[]",
          "name": "calldatas",
          "type": "bytes[]"
        }
      ],
      "payable": false,
      "stateMutability": "view",
      "type": "function"
    },
    {
      "constant": true,
      "inputs": [
        {
          "internalType": "uint256",
          "name": "proposalId",
          "type": "uint256"
        },
        {
          "internalType": "address",
          "name": "voter",
          "type": "address"
        }
      ],
      "name": "getReceipt",
      "outputs": [
        {
          "components": [
            {
              "internalType": "bool",
              "name": "hasVoted",
              "type": "bool"
            },
            {
              "internalType": "uint8",
              "name": "support",
              "type": "uint8"
            },
            {
              "internalType": "uint96",
              "name": "votes",
              "type": "uint96"
            }
          ],
          "internalType": "struct GovernorBravoDelegateStorageV1.Receipt",
          "name": "",
          "type": "tuple"
        }
      ],
      "payable": false,
      "stateMutability": "view",
      "type": "function"
    },
    {
      "constant": true,
      "inputs": [],
      "name": "guardian",
      "outputs": [
        {
          "internalType": "address",
          "name": "",
          "type": "address"
        }
      ],
      "payable": false,
      "stateMutability": "view",
      "type": "function"
    },
    {
      "constant": true,
      "inputs": [],
      "name": "implementation",
      "outputs": [
        {
          "internalType": "address",
          "name": "",
          "type": "address"
        }
      ],
      "payable": false,
      "stateMutability": "view",
      "type": "function"
    },
    {
      "constant": true,
      "inputs": [],
      "name": "initialProposalId",
      "outputs": [
        {
          "internalType": "uint256",
          "name": "",
          "type": "uint256"
        }
      ],
      "payable": false,
      "stateMutability": "view",
      "type": "function"
    },
    {
      "constant": false,
      "inputs": [
        {
          "internalType": "address",
          "name": "xvsVault_",
          "type": "address"
        },
        {
          "components": [
            {
              "internalType": "uint256",
              "name": "votingDelay",
              "type": "uint256"
            },
            {
              "internalType": "uint256",
              "name": "votingPeriod",
              "type": "uint256"
            },
            {
              "internalType": "uint256",
              "name": "proposalThreshold",
              "type": "uint256"
            }
          ],
          "internalType": "struct GovernorBravoDelegateStorageV2.ProposalConfig[]",
          "name": "proposalConfigs_",
          "type": "tuple[]"
        },
        {
          "internalType": "contract TimelockInterface[]",
          "name": "timelocks",
          "type": "address[]"
        },
        {
          "internalType": "address",
          "name": "guardian_",
          "type": "address"
        }
      ],
      "name": "initialize",
      "outputs": [],
      "payable": false,
      "stateMutability": "nonpayable",
      "type": "function"
    },
    {
      "constant": true,
      "inputs": [
        {
          "internalType": "address",
          "name": "",
          "type": "address"
        }
      ],
      "name": "latestProposalIds",
      "outputs": [
        {
          "internalType": "uint256",
          "name": "",
          "type": "uint256"
        }
      ],
      "payable": false,
      "stateMutability": "view",
      "type": "function"
    },
    {
      "constant": true,
      "inputs": [],
      "name": "name",
      "outputs": [
        {
          "internalType": "string",
          "name": "",
          "type": "string"
        }
      ],
      "payable": false,
      "stateMutability": "view",
      "type": "function"
    },
    {
      "constant": true,
      "inputs": [],
      "name": "pendingAdmin",
      "outputs": [
        {
          "internalType": "address",
          "name": "",
          "type": "address"
        }
      ],
      "payable": false,
      "stateMutability": "view",
      "type": "function"
    },
    {
      "constant": true,
      "inputs": [
        {
          "internalType": "uint256",
          "name": "",
          "type": "uint256"
        }
      ],
      "name": "proposalConfigs",
      "outputs": [
        {
          "internalType": "uint256",
          "name": "votingDelay",
          "type": "uint256"
        },
        {
          "internalType": "uint256",
          "name": "votingPeriod",
          "type": "uint256"
        },
        {
          "internalType": "uint256",
          "name": "proposalThreshold",
          "type": "uint256"
        }
      ],
      "payable": false,
      "stateMutability": "view",
      "type": "function"
    },
    {
      "constant": true,
      "inputs": [],
      "name": "proposalCount",
      "outputs": [
        {
          "internalType": "uint256",
          "name": "",
          "type": "uint256"
        }
      ],
      "payable": false,
      "stateMutability": "view",
      "type": "function"
    },
    {
      "constant": true,
      "inputs": [],
      "name": "proposalMaxOperations",
      "outputs": [
        {
          "internalType": "uint256",
          "name": "",
          "type": "uint256"
        }
      ],
      "payable": false,
      "stateMutability": "view",
      "type": "function"
    },
    {
      "constant": true,
      "inputs": [],
      "name": "proposalThreshold",
      "outputs": [
        {
          "internalType": "uint256",
          "name": "",
          "type": "uint256"
        }
      ],
      "payable": false,
      "stateMutability": "view",
      "type": "function"
    },
    {
      "constant": true,
      "inputs": [
        {
          "internalType": "uint256",
          "name": "",
          "type": "uint256"
        }
      ],
      "name": "proposalTimelocks",
      "outputs": [
        {
          "internalType": "contract TimelockInterface",
          "name": "",
          "type": "address"
        }
      ],
      "payable": false,
      "stateMutability": "view",
      "type": "function"
    },
    {
      "constant": true,
      "inputs": [
        {
          "internalType": "uint256",
          "name": "",
          "type": "uint256"
        }
      ],
      "name": "proposals",
      "outputs": [
        {
          "internalType": "uint256",
          "name": "id",
          "type": "uint256"
        },
        {
          "internalType": "address",
          "name": "proposer",
          "type": "address"
        },
        {
          "internalType": "uint256",
          "name": "eta",
          "type": "uint256"
        },
        {
          "internalType": "uint256",
          "name": "startBlock",
          "type": "uint256"
        },
        {
          "internalType": "uint256",
          "name": "endBlock",
          "type": "uint256"
        },
        {
          "internalType": "uint256",
          "name": "forVotes",
          "type": "uint256"
        },
        {
          "internalType": "uint256",
          "name": "againstVotes",
          "type": "uint256"
        },
        {
          "internalType": "uint256",
          "name": "abstainVotes",
          "type": "uint256"
        },
        {
          "internalType": "bool",
          "name": "canceled",
          "type": "bool"
        },
        {
          "internalType": "bool",
          "name": "executed",
          "type": "bool"
        },
        {
          "internalType": "uint8",
          "name": "proposalType",
          "type": "uint8"
        }
      ],
      "payable": false,
      "stateMutability": "view",
      "type": "function"
    },
    {
      "constant": false,
      "inputs": [
        {
          "internalType": "address[]",
          "name": "targets",
          "type": "address[]"
        },
        {
          "internalType": "uint256[]",
          "name": "values",
          "type": "uint256[]"
        },
        {
          "internalType": "string[]",
          "name": "signatures",
          "type": "string[]"
        },
        {
          "internalType": "bytes[]",
          "name": "calldatas",
          "type": "bytes[]"
        },
        {
          "internalType": "string",
          "name": "description",
          "type": "string"
        },
        {
          "internalType": "enum GovernorBravoDelegateStorageV2.ProposalType",
          "name": "proposalType",
          "type": "uint8"
        }
      ],
      "name": "propose",
      "outputs": [
        {
          "internalType": "uint256",
          "name": "",
          "type": "uint256"
        }
      ],
      "payable": false,
      "stateMutability": "nonpayable",
      "type": "function"
    },
    {
      "constant": false,
      "inputs": [
        {
          "internalType": "uint256",
          "name": "proposalId",
          "type": "uint256"
        }
      ],
      "name": "queue",
      "outputs": [],
      "payable": false,
      "stateMutability": "nonpayable",
      "type": "function"
    },
    {
      "constant": true,
      "inputs": [],
      "name": "quorumVotes",
      "outputs": [
        {
          "internalType": "uint256",
          "name": "",
          "type": "uint256"
        }
      ],
      "payable": false,
      "stateMutability": "view",
      "type": "function"
    },
    {
      "constant": true,
      "inputs": [
        {
          "internalType": "uint256",
          "name": "proposalId",
          "type": "uint256"
        }
      ],
      "name": "state",
      "outputs": [
        {
          "internalType": "enum GovernorBravoDelegateStorageV1.ProposalState",
          "name": "",
          "type": "uint8"
        }
      ],
      "payable": false,
      "stateMutability": "view",
      "type": "function"
    },
    {
      "constant": true,
      "inputs": [],
      "name": "timelock",
      "outputs": [
        {
          "internalType": "contract TimelockInterface",
          "name": "",
          "type": "address"
        }
      ],
      "payable": false,
      "stateMutability": "view",
      "type": "function"
    },
    {
      "constant": true,
      "inputs": [],
      "name": "votingDelay",
      "outputs": [
        {
          "internalType": "uint256",
          "name": "",
          "type": "uint256"
        }
      ],
      "payable": false,
      "stateMutability": "view",
      "type": "function"
    },
    {
      "constant": true,
      "inputs": [],
      "name": "votingPeriod",
      "outputs": [
        {
          "internalType": "uint256",
          "name": "",
          "type": "uint256"
        }
      ],
      "payable": false,
      "stateMutability": "view",
      "type": "function"
    },
    {
      "constant": true,
      "inputs": [],
      "name": "xvsVault",
      "outputs": [
        {
          "internalType": "contract XvsVaultInterface",
          "name": "",
          "type": "address"
        }
      ],
      "payable": false,
      "stateMutability": "view",
      "type": "function"
    }
  ],
  "bytecode": "0x608060405234801561001057600080fd5b5061498c806100206000396000f3fe608060405234801561001057600080fd5b506004361061025e5760003560e01c8063791f5d2311610146578063ddf0b009116100c3578063e9c714f211610087578063e9c714f2146104c2578063ee9799ee146104ca578063f851a440146104dd578063f9d28b80146104e5578063fc4eee42146104f8578063fe0d94c1146105005761025e565b8063ddf0b0091461046c578063deaaa7cc1461047f578063e23a9a5214610487578063e38e8c0f146104a7578063e48083fe146104ba5761025e565b8063b11262631161010a578063b112626314610439578063b58131b014610441578063b71d1a0c14610449578063d33219b41461045c578063da35c664146104645761025e565b8063791f5d23146103fb5780637b3c71d3146104035780637bdbe4d0146104165780639e6f26261461041e578063a64e024a146104315761025e565b806325fd935a116101df5780633bccf4fd116101a35780633bccf4fd146103925780633e4f49e6146103a557806340e58ee5146103c5578063452a9320146103d857806356781388146103e05780635c60da1b146103f35761025e565b806325fd935a146103285780632678224714610330578063328dd9821461034557806335a87de2146103685780633932abb11461038a5761025e565b80631b9ce575116102265780631b9ce575146102e65780631ebcfefd146102fb57806320606b7014610310578063215809ca1461031857806324bc1a64146103205761025e565b8063013cf08b1461026357806302a251a31461029657806306fdde03146102ab578063164a1ab1146102c057806317977c61146102d3575b600080fd5b610276610271366004612e2f565b610513565b60405161028d9b9a99989796959493929190614646565b60405180910390f35b61029e61057f565b60405161028d919061423a565b6102b3610585565b60405161028d91906142ff565b61029e6102ce366004612cc6565b6105b5565b61029e6102e1366004612c11565b610a72565b6102ee610a84565b60405161028d91906142e3565b61030e610309366004612e2f565b610a93565b005b61029e610b03565b61029e610b1a565b61029e610b20565b61029e610b2e565b610338610b3c565b60405161028d919061410a565b610358610353366004612e2f565b610b4b565b60405161028d94939291906141ed565b61037b610376366004612e2f565b610dda565b60405161028d939291906146f8565b61029e610dfb565b61030e6103a0366004612f1e565b610e01565b6103b86103b3366004612e2f565b610fd9565b60405161028d91906142f1565b61030e6103d3366004612e2f565b611173565b610338611409565b61030e6103ee366004612e87565b611418565b610338611462565b61029e611471565b61030e610411366004612eb7565b61147f565b61029e6114cf565b61030e61042c366004612c37565b6114d5565b61029e61187a565b61029e611881565b61029e611888565b61030e610457366004612c11565b61188e565b6102ee61190b565b61029e61191a565b61030e61047a366004612e2f565b611920565b61029e611bb4565b61049a610495366004612e4d565b611bc0565b60405161028d9190614580565b61030e6104b5366004612c11565b611c2d565b61029e611ce5565b61030e611cea565b6102ee6104d8366004612e2f565b611dc8565b610338611de3565b61030e6104f3366004612c11565b611df2565b61029e611f36565b61030e61050e366004612e2f565b611f3c565b600a60208190526000918252604090912080546001820154600283015460078401546008850154600986015496860154600b870154600c880154600e9098015496986001600160a01b039096169794969395929492939192909160ff808316926101009004811691168b565b60045481565b6040518060400160405280601481526020017356656e757320476f7665726e6f7220427261766f60601b81525081565b6000600654600014156105e35760405162461bcd60e51b81526004016105da90614350565b60405180910390fd5b600e60008360028111156105f357fe5b60ff1681526020810191909152604001600020600201546009546001600160a01b031663782d6fe1336106274360016120ef565b6040518363ffffffff1660e01b8152600401610644929190614118565b60206040518083038186803b15801561065c57600080fd5b505afa158015610670573d6000803e3d6000fd5b505050506040513d601f19601f820116820180604052506106949190810190612f93565b6001600160601b0316116106ba5760405162461bcd60e51b81526004016105da906144f0565b855187511480156106cc575084518751145b80156106d9575083518751145b6106f55760405162461bcd60e51b81526004016105da906143d0565b86516107135760405162461bcd60e51b81526004016105da90614430565b600c54875111156107365760405162461bcd60e51b81526004016105da90614480565b336000908152600b602052604090205480156107b357600061075782610fd9565b9050600181600781111561076757fe5b14156107855760405162461bcd60e51b81526004016105da906144d0565b600081600781111561079357fe5b14156107b15760405162461bcd60e51b81526004016105da90614490565b505b60006107e343600e60008760028111156107c957fe5b60ff16815260200190815260200160002060000154612117565b9050600061081582600e60008860028111156107fb57fe5b60ff16815260200190815260200160002060010154612117565b60078054600101905590506108286124ba565b604051806101e001604052806007548152602001336001600160a01b03168152602001600081526020018c81526020018b81526020018a81526020018981526020018481526020018381526020016000815260200160008152602001600081526020016000151581526020016000151581526020018760028111156108a957fe5b60ff16905280516000908152600a602090815260409182902083518155818401516001820180546001600160a01b0319166001600160a01b039092169190911790559183015160028301556060830151805193945084936109109260038501920190612540565b506080820151805161092c9160048401916020909101906125a5565b5060a082015180516109489160058401916020909101906125ec565b5060c08201518051610964916006840191602090910190612645565b5060e082015160078201556101008083015160088301556101208301516009830155610140830151600a830155610160830151600b80840191909155610180840151600c840180546101a087015160ff199182169315159390931761ff0019169215159094029190911790556101c090930151600e909201805490911660ff90921691909117905581516020808401516001600160a01b0316600090815292905260409091205580517fc8df7ff219f3c0358e14500814d8b62b443a4bebf3a596baa60b9295b1cf1bde90338d8d8d8d89898f8f6002811115610a4357fe5b604051610a599a9998979695949392919061458e565b60405180910390a15193505050505b9695505050505050565b600b6020526000908152604090205481565b6009546001600160a01b031681565b6000546001600160a01b03163314610abd5760405162461bcd60e51b81526004016105da906144a0565b600c8054908290556040517fd03b3c3c5c1446bcdd31423061041c94ca3bc5450fe7ccfb0f636f4c420de87e90610af790839085906146ea565b60405180910390a15050565b604051610b0f906140ff565b604051809103902081565b610e1081565b697f0e10af47c1c700000081565b693f870857a3e0e380000081565b6001546001600160a01b031681565b6060806060806000600a600087815260200190815260200160002090508060030181600401826005018360060183805480602002602001604051908101604052809291908181526020018280548015610bcd57602002820191906000526020600020905b81546001600160a01b03168152600190910190602001808311610baf575b5050505050935082805480602002602001604051908101604052809291908181526020018280548015610c1f57602002820191906000526020600020905b815481526020019060010190808311610c0b575b5050505050925081805480602002602001604051908101604052809291908181526020016000905b82821015610cf25760008481526020908190208301805460408051601f6002600019610100600187161502019094169390930492830185900485028101850190915281815292830182828015610cde5780601f10610cb357610100808354040283529160200191610cde565b820191906000526020600020905b815481529060010190602001808311610cc157829003601f168201915b505050505081526020019060010190610c47565b50505050915080805480602002602001604051908101604052809291908181526020016000905b82821015610dc45760008481526020908190208301805460408051601f6002600019610100600187161502019094169390930492830185900485028101850190915281815292830182828015610db05780601f10610d8557610100808354040283529160200191610db0565b820191906000526020600020905b815481529060010190602001808311610d9357829003601f168201915b505050505081526020019060010190610d19565b5050505090509450945094509450509193509193565b600e6020526000908152604090208054600182015460029092015490919083565b60035481565b6000604051610e0f906140ff565b60408051918290038220828201909152601482527356656e757320476f7665726e6f7220427261766f60601b6020909201919091527f157d76627a3b71c0167806f5879f7a61d3e301322f3a3b9f900315f15937671a610e6d612143565b30604051602001610e819493929190614248565b6040516020818303038152906040528051906020012090506000604051610ea7906140c3565b604051908190038120610ec09189908990602001614286565b60405160208183030381529060405280519060200120905060008282604051602001610eed9291906140ce565b604051602081830303815290604052805190602001209050600060018288888860405160008152602001604052604051610f2a94939291906142ae565b6020604051602081039080840390855afa158015610f4c573d6000803e3d6000fd5b5050604051601f1901519150506001600160a01b038116610f7f5760405162461bcd60e51b81526004016105da906143c0565b806001600160a01b03167fb8e138887d0aa13bab447e82de9d5c1777041ecd21ca36ba824ff1e6c07ddda48a8a610fb7858e8e612148565b604051610fc693929190614766565b60405180910390a2505050505050505050565b60008160075410158015610fee575060065482115b61100a5760405162461bcd60e51b81526004016105da90614510565b6000828152600a60205260409020600c81015460ff161561102f57600291505061116e565b8060070154431161104457600091505061116e565b8060080154431161105957600191505061116e565b80600a0154816009015411158061107d5750697f0e10af47c1c70000008160090154105b1561108c57600391505061116e565b600281015461109f57600491505061116e565b600c810154610100900460ff16156110bb57600791505061116e565b6002810154600e82015460ff166000908152600f60209081526040918290205482516360d143f160e11b8152925161115894936001600160a01b039092169263c1a287e29260048082019391829003018186803b15801561111b57600080fd5b505afa15801561112f573d6000803e3d6000fd5b505050506040513d601f19601f820116820180604052506111539190810190612ddd565b612117565b421061116857600691505061116e565b60059150505b919050565b600761117e82610fd9565b600781111561118957fe5b14156111a75760405162461bcd60e51b81526004016105da90614500565b6000818152600a60205260409020600d546001600160a01b03163314806111da575060018101546001600160a01b031633145b8061129d5750600e8181015460ff16600090815260209190915260409020600201546009546001808401546001600160a01b039283169263782d6fe1929116906112259043906120ef565b6040518363ffffffff1660e01b815260040161124292919061414e565b60206040518083038186803b15801561125a57600080fd5b505afa15801561126e573d6000803e3d6000fd5b505050506040513d601f19601f820116820180604052506112929190810190612f93565b6001600160601b0316105b6112b95760405162461bcd60e51b81526004016105da90614460565b600c8101805460ff1916600117905560005b60038201548110156113d957600e82015460ff166000908152600f60205260409020546003830180546001600160a01b039092169163591fcdfe91908490811061131157fe5b6000918252602090912001546004850180546001600160a01b03909216918590811061133957fe5b906000526020600020015485600501858154811061135357fe5b9060005260206000200186600601868154811061136c57fe5b9060005260206000200187600201546040518663ffffffff1660e01b815260040161139b9594939291906141ac565b600060405180830381600087803b1580156113b557600080fd5b505af11580156113c9573d6000803e3d6000fd5b5050600190920191506112cb9050565b507f789cf55be980739dad1d0699b93b58e806b51c9d96619bfa8fe0a28abaa7b30c82604051610af7919061423a565b600d546001600160a01b031681565b337fb8e138887d0aa13bab447e82de9d5c1777041ecd21ca36ba824ff1e6c07ddda48383611447848383612148565b60405161145693929190614766565b60405180910390a25050565b6002546001600160a01b031681565b691fc3842bd1f071c0000081565b337fb8e138887d0aa13bab447e82de9d5c1777041ecd21ca36ba824ff1e6c07ddda485856114ae848383612148565b86866040516114c1959493929190614720565b60405180910390a250505050565b600c5481565b60008052600f6020527ff4803e074bd026baaf6ed2e288c9515f68c72fb7216eebdd7cae1718a53ec375546001600160a01b0316156115265760405162461bcd60e51b81526004016105da906143f0565b6000546001600160a01b031633146115505760405162461bcd60e51b81526004016105da906143e0565b6001600160a01b0384166115765760405162461bcd60e51b81526004016105da906143a0565b6001600160a01b03811661159c5760405162461bcd60e51b81526004016105da90614470565b81516003146115bd5760405162461bcd60e51b81526004016105da90614340565b82516003146115de5760405162461bcd60e51b81526004016105da90614520565b600980546001600160a01b038087166001600160a01b031992831617909255600a600c55600d80549284169290911691909117905560005b835181101561187357600084828151811061162d57fe5b6020026020010151602001519050610e1085838151811061164a57fe5b60200260200101516020015110156116745760405162461bcd60e51b81526004016105da90614390565b6206270085838151811061168457fe5b60200260200101516020015111156116ae5760405162461bcd60e51b81526004016105da90614560565b60018583815181106116bc57fe5b60200260200101516000015110156116e65760405162461bcd60e51b81526004016105da90614450565b620313808583815181106116f657fe5b60200260200101516000015111156117205760405162461bcd60e51b81526004016105da906144c0565b691fc3842bd1f071c0000085838151811061173757fe5b60200260200101516040015110156117615760405162461bcd60e51b81526004016105da90614360565b693f870857a3e0e380000085838151811061177857fe5b60200260200101516040015111156117a25760405162461bcd60e51b81526004016105da90614570565b60006001600160a01b03168483815181106117b957fe5b60200260200101516001600160a01b031614156117e85760405162461bcd60e51b81526004016105da906144b0565b8482815181106117f457fe5b6020908102919091018101516000848152600e8352604090819020825181559282015160018401550151600290910155835184908390811061183257fe5b6020908102919091018101516000848152600f909252604090912080546001600160a01b0319166001600160a01b0390921691909117905550600101611616565b5050505050565b6206270081565b6203138081565b60055481565b6000546001600160a01b031633146118b85760405162461bcd60e51b81526004016105da90614320565b600180546001600160a01b038381166001600160a01b03198316179092556040519116907fca4f2f25d0898edd99413412fb94012f9e54ec8142f9b093e7720646a95b16a990610af79083908590614133565b6008546001600160a01b031681565b60075481565b600461192b82610fd9565b600781111561193657fe5b146119535760405162461bcd60e51b81526004016105da90614400565b6000818152600a60209081526040808320600e81015460ff168452600f8352818420548251630d48571f60e31b815292519194936119bc9342936001600160a01b0390931692636a42b8f892600480840193919291829003018186803b15801561111b57600080fd5b905060005b6003830154811015611b6d57611b658360030182815481106119df57fe5b6000918252602090912001546004850180546001600160a01b039092169184908110611a0757fe5b9060005260206000200154856005018481548110611a2157fe5b600091825260209182902001805460408051601f6002600019610100600187161502019094169390930492830185900485028101850190915281815292830182828015611aaf5780601f10611a8457610100808354040283529160200191611aaf565b820191906000526020600020905b815481529060010190602001808311611a9257829003601f168201915b5050505050866006018581548110611ac357fe5b600091825260209182902001805460408051601f6002600019610100600187161502019094169390930492830185900485028101850190915281815292830182828015611b515780601f10611b2657610100808354040283529160200191611b51565b820191906000526020600020905b815481529060010190602001808311611b3457829003601f168201915b50505050600e89015488915060ff16612338565b6001016119c1565b50600282018190556040517f9a2e42fd6722813d69113e7d0079d3d940171428df7373df9c7f7617cfda289290611ba790859084906146ea565b60405180910390a1505050565b604051610b0f906140c3565b611bc861269e565b506000828152600a602090815260408083206001600160a01b0385168452600d018252918290208251606081018452905460ff8082161515835261010082041692820192909252620100009091046001600160601b0316918101919091525b92915050565b600d546001600160a01b0316331480611c5057506000546001600160a01b031633145b611c6c5760405162461bcd60e51b81526004016105da90614540565b6001600160a01b038116611c925760405162461bcd60e51b81526004016105da90614530565b600d80546001600160a01b038381166001600160a01b03198316179092556040519116907f08fdaf06427a2010e5958f4329b566993472d14ce81d3f16ce7f2a2660da98e390610af79083908590614133565b600181565b6001546001600160a01b031633148015611d0357503315155b611d1f5760405162461bcd60e51b81526004016105da90614440565b60008054600180546001600160a01b038082166001600160a01b03198086168217968790559092169092556040519282169390927ff9ffabca9c8276e99321725bcb43fb076a6c66a54b7f21c4e8146d8519b417dc92611d83928692911690614133565b60405180910390a16001546040517fca4f2f25d0898edd99413412fb94012f9e54ec8142f9b093e7720646a95b16a991610af79184916001600160a01b031690614133565b600f602052600090815260409020546001600160a01b031681565b6000546001600160a01b031681565b6000546001600160a01b03163314611e1c5760405162461bcd60e51b81526004016105da906144e0565b60065415611e3c5760405162461bcd60e51b81526004016105da90614420565b806001600160a01b031663da35c6646040518163ffffffff1660e01b8152600401602060405180830381600087803b158015611e7757600080fd5b505af1158015611e8b573d6000803e3d6000fd5b505050506040513d601f19601f82011682018060405250611eaf9190810190612ddd565b600781905560065560005b6003811015611f32576000818152600f6020526040808220548151630e18b68160e01b815291516001600160a01b0390911692630e18b681926004808201939182900301818387803b158015611f0f57600080fd5b505af1158015611f23573d6000803e3d6000fd5b50505050806001019050611eba565b5050565b60065481565b6005611f4782610fd9565b6007811115611f5257fe5b14611f6f5760405162461bcd60e51b81526004016105da906143b0565b6000818152600a60205260408120600c8101805461ff001916610100179055905b60038201548110156120bf57600e82015460ff166000908152600f60205260409020546003830180546001600160a01b0390921691630825f38f919084908110611fd657fe5b6000918252602090912001546004850180546001600160a01b039092169185908110611ffe57fe5b906000526020600020015485600501858154811061201857fe5b9060005260206000200186600601868154811061203157fe5b9060005260206000200187600201546040518663ffffffff1660e01b81526004016120609594939291906141ac565b600060405180830381600087803b15801561207a57600080fd5b505af115801561208e573d6000803e3d6000fd5b505050506040513d6000823e601f3d908101601f191682016040526120b69190810190612dfb565b50600101611f90565b507f712ae1383f79ac853f8d882153778e0260ef8f03b504e2866e0593e04d2b291f82604051610af7919061423a565b6000828211156121115760405162461bcd60e51b81526004016105da90614550565b50900390565b60008282018381101561213c5760405162461bcd60e51b81526004016105da90614410565b9392505050565b465b90565b6000600161215584610fd9565b600781111561216057fe5b1461217d5760405162461bcd60e51b81526004016105da90614370565b60028260ff1611156121a15760405162461bcd60e51b81526004016105da90614310565b6000838152600a602090815260408083206001600160a01b0388168452600d8101909252909120805460ff16156121ea5760405162461bcd60e51b81526004016105da90614380565b600954600783015460405163782d6fe160e01b81526000926001600160a01b03169163782d6fe191612220918b9160040161414e565b60206040518083038186803b15801561223857600080fd5b505afa15801561224c573d6000803e3d6000fd5b505050506040513d601f19601f820116820180604052506122709190810190612f93565b905060ff851661229b5761229183600a0154826001600160601b0316612117565b600a8401556122f1565b8460ff16600114156122c8576122be8360090154826001600160601b0316612117565b60098401556122f1565b8460ff16600214156122f1576122eb83600b0154826001600160601b0316612117565b600b8401555b8154600160ff199091161761ff00191661010060ff871602176dffffffffffffffffffffffff00001916620100006001600160601b03831602179091559150509392505050565b60ff81166000908152600f60209081526040918290205491516001600160a01b039092169163f2b0653791612377918a918a918a918a918a910161415c565b604051602081830303815290604052805190602001206040518263ffffffff1660e01b81526004016123a9919061423a565b60206040518083038186803b1580156123c157600080fd5b505afa1580156123d5573d6000803e3d6000fd5b505050506040513d601f19601f820116820180604052506123f99190810190612dbf565b156124165760405162461bcd60e51b81526004016105da90614330565b60ff81166000908152600f602052604090819020549051633a66f90160e01b81526001600160a01b0390911690633a66f9019061245f908990899089908990899060040161415c565b602060405180830381600087803b15801561247957600080fd5b505af115801561248d573d6000803e3d6000fd5b505050506040513d601f19601f820116820180604052506124b19190810190612ddd565b50505050505050565b604051806101e001604052806000815260200160006001600160a01b0316815260200160008152602001606081526020016060815260200160608152602001606081526020016000815260200160008152602001600081526020016000815260200160008152602001600015158152602001600015158152602001600060ff1681525090565b828054828255906000526020600020908101928215612595579160200282015b8281111561259557825182546001600160a01b0319166001600160a01b03909116178255602090920191600190910190612560565b506125a19291506126be565b5090565b8280548282559060005260206000209081019282156125e0579160200282015b828111156125e05782518255916020019190600101906125c5565b506125a19291506126e2565b828054828255906000526020600020908101928215612639579160200282015b8281111561263957825180516126299184916020909101906126fc565b509160200191906001019061260c565b506125a1929150612769565b828054828255906000526020600020908101928215612692579160200282015b8281111561269257825180516126829184916020909101906126fc565b5091602001919060010190612665565b506125a192915061278c565b604080516060810182526000808252602082018190529181019190915290565b61214591905b808211156125a15780546001600160a01b03191681556001016126c4565b61214591905b808211156125a157600081556001016126e8565b828054600181600116156101000203166002900490600052602060002090601f016020900481019282601f1061273d57805160ff19168380011785556125e0565b828001600101855582156125e057918201828111156125e05782518255916020019190600101906125c5565b61214591905b808211156125a157600061278382826127af565b5060010161276f565b61214591905b808211156125a15760006127a682826127af565b50600101612792565b50805460018160011615610100020316600290046000825580601f106127d557506127f3565b601f0160209004906000526020600020908101906127f391906126e2565b50565b8035611c27816148db565b600082601f83011261281257600080fd5b8135612825612820826147c5565b61479f565b9150818183526020840193506020810190508385602084028201111561284a57600080fd5b60005b83811015612876578161286088826127f6565b845250602092830192919091019060010161284d565b5050505092915050565b600082601f83011261289157600080fd5b813561289f612820826147c5565b81815260209384019390925082018360005b8381101561287657813586016128c78882612aad565b84525060209283019291909101906001016128b1565b600082601f8301126128ee57600080fd5b81356128fc612820826147c5565b9150818183526020840193506020810190508385602084028201111561292157600080fd5b60005b8381101561287657816129378882612b42565b8452506020928301929190910190600101612924565b600082601f83011261295e57600080fd5b813561296c612820826147c5565b81815260209384019390925082018360005b8381101561287657813586016129948882612aad565b845250602092830192919091019060010161297e565b600082601f8301126129bb57600080fd5b81356129c9612820826147c5565b915081818352602084019350602081019050838560608402820111156129ee57600080fd5b60005b838110156128765781612a048882612ba0565b845250602090920191606091909101906001016129f1565b600082601f830112612a2d57600080fd5b8135612a3b612820826147c5565b91508181835260208401935060208101905083856020840282011115612a6057600080fd5b60005b838110156128765781612a768882612a97565b8452506020928301929190910190600101612a63565b8051611c27816148ef565b8035611c27816148f8565b8051611c27816148f8565b600082601f830112612abe57600080fd5b8135612acc612820826147e5565b91508082526020830160208301858383011115612ae857600080fd5b612af383828461488f565b50505092915050565b600082601f830112612b0d57600080fd5b8151612b1b612820826147e5565b91508082526020830160208301858383011115612b3757600080fd5b612af383828461489b565b8035611c2781614901565b8035611c278161490a565b60008083601f840112612b6a57600080fd5b5081356001600160401b03811115612b8157600080fd5b602083019150836001820283011115612b9957600080fd5b9250929050565b600060608284031215612bb257600080fd5b612bbc606061479f565b90506000612bca8484612a97565b8252506020612bdb84848301612a97565b6020830152506040612bef84828501612a97565b60408301525092915050565b8035611c2781614917565b8051611c2781614920565b600060208284031215612c2357600080fd5b6000612c2f84846127f6565b949350505050565b60008060008060808587031215612c4d57600080fd5b6000612c5987876127f6565b94505060208501356001600160401b03811115612c7557600080fd5b612c81878288016129aa565b93505060408501356001600160401b03811115612c9d57600080fd5b612ca9878288016128dd565b9250506060612cba878288016127f6565b91505092959194509250565b60008060008060008060c08789031215612cdf57600080fd5b86356001600160401b03811115612cf557600080fd5b612d0189828a01612801565b96505060208701356001600160401b03811115612d1d57600080fd5b612d2989828a01612a1c565b95505060408701356001600160401b03811115612d4557600080fd5b612d5189828a0161294d565b94505060608701356001600160401b03811115612d6d57600080fd5b612d7989828a01612880565b93505060808701356001600160401b03811115612d9557600080fd5b612da189828a01612aad565b92505060a0612db289828a01612b4d565b9150509295509295509295565b600060208284031215612dd157600080fd5b6000612c2f8484612a8c565b600060208284031215612def57600080fd5b6000612c2f8484612aa2565b600060208284031215612e0d57600080fd5b81516001600160401b03811115612e2357600080fd5b612c2f84828501612afc565b600060208284031215612e4157600080fd5b6000612c2f8484612a97565b60008060408385031215612e6057600080fd5b6000612e6c8585612a97565b9250506020612e7d858286016127f6565b9150509250929050565b60008060408385031215612e9a57600080fd5b6000612ea68585612a97565b9250506020612e7d85828601612bfb565b60008060008060608587031215612ecd57600080fd5b6000612ed98787612a97565b9450506020612eea87828801612bfb565b93505060408501356001600160401b03811115612f0657600080fd5b612f1287828801612b58565b95989497509550505050565b600080600080600060a08688031215612f3657600080fd5b6000612f428888612a97565b9550506020612f5388828901612bfb565b9450506040612f6488828901612bfb565b9350506060612f7588828901612a97565b9250506080612f8688828901612a97565b9150509295509295909350565b600060208284031215612fa557600080fd5b6000612c2f8484612c06565b6000612fbd8383612fec565b505060200190565b600061213c838361318e565b6000612fbd8383613174565b612fe68161486e565b82525050565b612fe68161482b565b60006130008261481e565b61300a8185614822565b93506130158361480c565b8060005b8381101561304357815161302d8882612fb1565b97506130388361480c565b925050600101613019565b509495945050505050565b60006130598261481e565b6130638185614822565b9350836020820285016130758561480c565b8060005b858110156130af57848403895281516130928582612fc5565b945061309d8361480c565b60209a909a0199925050600101613079565b5091979650505050505050565b60006130c78261481e565b6130d18185614822565b9350836020820285016130e38561480c565b8060005b858110156130af57848403895281516131008582612fc5565b945061310b8361480c565b60209a909a01999250506001016130e7565b60006131288261481e565b6131328185614822565b935061313d8361480c565b8060005b838110156130435781516131558882612fd1565b97506131608361480c565b925050600101613141565b612fe681614836565b612fe681612145565b612fe661318982612145565b612145565b60006131998261481e565b6131a38185614822565b93506131b381856020860161489b565b6131bc816148c7565b9093019392505050565b6000815460018116600081146131e3576001811461320957613248565b607f60028304166131f48187614822565b60ff1984168152955050602085019250613248565b600282046132178187614822565b955061322285614812565b60005b8281101561324157815488820152600190910190602001613225565b8701945050505b505092915050565b612fe68161483b565b612fe681614879565b600061326e8385614822565b935061327b83858461488f565b6131bc836148c7565b6000613291603283614822565b7f476f7665726e6f72427261766f3a3a63617374566f7465496e7465726e616c3a81527120696e76616c696420766f7465207479706560701b602082015260400192915050565b60006132e560288361116e565b7f42616c6c6f742875696e743235362070726f706f73616c49642c75696e743820815267737570706f72742960c01b602082015260280192915050565b600061332f602a83614822565b7f476f7665726e6f72427261766f3a5f73657450656e64696e6741646d696e3a2081526961646d696e206f6e6c7960b01b602082015260400192915050565b600061337b605583614822565b7f476f7665726e6f72427261766f3a3a71756575654f72526576657274496e746581527f726e616c3a206964656e746963616c2070726f706f73616c20616374696f6e20602082015274616c7265616479207175657565642061742065746160581b604082015260600192915050565b60006133f8605683614822565b7f476f7665726e6f72427261766f3a3a696e697469616c697a653a6e756d62657281527f206f662074696d656c6f636b732073686f756c64206d61746368206e756d626560208201527572206f6620676f7665726e616e636520726f7574657360501b604082015260600192915050565b6000613476603183614822565b7f476f7665726e6f72427261766f3a3a70726f706f73653a20476f7665726e6f7281527020427261766f206e6f742061637469766560781b602082015260400192915050565b60006134c960028361116e565b61190160f01b815260020192915050565b60006134e7603983614822565b60008051602061492a83398151915281527f6964206d696e2070726f706f73616c207468726573686f6c6400000000000000602082015260400192915050565b6000613534603183614822565b7f476f7665726e6f72427261766f3a3a63617374566f7465496e7465726e616c3a815270081d9bdd1a5b99c81a5cc818db1bdcd959607a1b602082015260400192915050565b6000613587603483614822565b7f476f7665726e6f72427261766f3a3a63617374566f7465496e7465726e616c3a815273081d9bdd195c88185b1c9958591e481d9bdd195960621b602082015260400192915050565b60006135dd603483614822565b60008051602061492a8339815191528152731a59081b5a5b881d9bdd1a5b99c81c195c9a5bd960621b602082015260400192915050565b6000613621602e83614822565b60008051602061492a83398151915281526d696420787673206164647265737360901b602082015260400192915050565b600061365f604583614822565b7f476f7665726e6f72427261766f3a3a657865637574653a2070726f706f73616c81527f2063616e206f6e6c7920626520657865637574656420696620697420697320716020820152641d595d595960da1b604082015260600192915050565b60006136cc602f83614822565b7f476f7665726e6f72427261766f3a3a63617374566f746542795369673a20696e81526e76616c6964207369676e617475726560881b602082015260400192915050565b600061371d604483614822565b7f476f7665726e6f72427261766f3a3a70726f706f73653a2070726f706f73616c81527f2066756e6374696f6e20696e666f726d6174696f6e206172697479206d69736d6020820152630c2e8c6d60e31b604082015260600192915050565b6000613789602583614822565b7f476f7665726e6f72427261766f3a3a696e697469616c697a653a2061646d696e815264206f6e6c7960d81b602082015260400192915050565b60006137d0603283614822565b7f476f7665726e6f72427261766f3a3a696e697469616c697a653a2063616e6e6f8152717420696e697469616c697a6520747769636560701b602082015260400192915050565b6000613824604483614822565b7f476f7665726e6f72427261766f3a3a71756575653a2070726f706f73616c206381527f616e206f6e6c79206265207175657565642069662069742069732073756363656020820152631959195960e21b604082015260600192915050565b6000613890601183614822565b706164646974696f6e206f766572666c6f7760781b815260200192915050565b60006138bd60438361116e565b7f454950373132446f6d61696e28737472696e67206e616d652c75696e7432353681527f20636861696e49642c6164647265737320766572696679696e67436f6e74726160208201526263742960e81b604082015260430192915050565b6000613928603083614822565b7f476f7665726e6f72427261766f3a3a5f696e6974696174653a2063616e206f6e81526f6c7920696e697469617465206f6e636560801b602082015260400192915050565b600061397a602c83614822565b7f476f7665726e6f72427261766f3a3a70726f706f73653a206d7573742070726f81526b7669646520616374696f6e7360a01b602082015260400192915050565b60006139c8602e83614822565b7f476f7665726e6f72427261766f3a5f61636365707441646d696e3a2070656e6481526d696e672061646d696e206f6e6c7960901b602082015260400192915050565b6000613a18603383614822565b60008051602061492a8339815191528152726964206d696e20766f74696e672064656c617960681b602082015260400192915050565b6000613a5b602f83614822565b7f476f7665726e6f72427261766f3a3a63616e63656c3a2070726f706f7365722081526e18589bdd99481d1a1c995cda1bdb19608a1b602082015260400192915050565b6000613aac602b83614822565b60008051602061492a83398151915281526a34b21033bab0b93234b0b760a91b602082015260400192915050565b6000613ae7602883614822565b7f476f7665726e6f72427261766f3a3a70726f706f73653a20746f6f206d616e7981526720616374696f6e7360c01b602082015260400192915050565b6000613b31605983614822565b7f476f7665726e6f72427261766f3a3a70726f706f73653a206f6e65206c69766581527f2070726f706f73616c207065722070726f706f7365722c20666f756e6420616e60208201527f20616c72656164792070656e64696e672070726f706f73616c00000000000000604082015260600192915050565b6000613bb6603483614822565b7f476f7665726e6f72427261766f3a3a5f73657450726f706f73616c4d61784f7081527365726174696f6e733a2061646d696e206f6e6c7960601b602082015260400192915050565b6000613c0c603283614822565b7f476f7665726e6f72427261766f3a3a696e697469616c697a653a696e76616c69815271642074696d656c6f636b206164647265737360701b602082015260400192915050565b6000613c60603383614822565b60008051602061492a8339815191528152726964206d617820766f74696e672064656c617960681b602082015260400192915050565b6000613ca3605883614822565b7f476f7665726e6f72427261766f3a3a70726f706f73653a206f6e65206c69766581527f2070726f706f73616c207065722070726f706f7365722c20666f756e6420616e60208201527f20616c7265616479206163746976652070726f706f73616c0000000000000000604082015260600192915050565b6000611c27600083614822565b6000613d35602483614822565b7f476f7665726e6f72427261766f3a3a5f696e6974696174653a2061646d696e208152636f6e6c7960e01b602082015260400192915050565b6000613d7b603f83614822565b7f476f7665726e6f72427261766f3a3a70726f706f73653a2070726f706f73657281527f20766f7465732062656c6f772070726f706f73616c207468726573686f6c6400602082015260400192915050565b6000613dda603683614822565b7f476f7665726e6f72427261766f3a3a63616e63656c3a2063616e6e6f742063618152751b98d95b08195e1958dd5d1959081c1c9bdc1bdcd85b60521b602082015260400192915050565b6000613e32602983614822565b7f476f7665726e6f72427261766f3a3a73746174653a20696e76616c69642070728152681bdc1bdcd85b081a5960ba1b602082015260400192915050565b6000613e7d605d83614822565b7f476f7665726e6f72427261766f3a3a696e697469616c697a653a6e756d62657281527f206f662070726f706f73616c20636f6e666967732073686f756c64206d61746360208201527f68206e756d626572206f6620676f7665726e616e636520726f75746573000000604082015260600192915050565b6000613f02603b83614822565b7f476f7665726e6f72427261766f3a3a5f736574477561726469616e3a2063616e81527f6e6f74206c69766520776974686f7574206120677561726469616e0000000000602082015260400192915050565b6000613f61603383614822565b7f476f7665726e6f72427261766f3a3a5f736574477561726469616e3a2061646d815272696e206f7220677561726469616e206f6e6c7960681b602082015260400192915050565b6000613fb6601583614822565b747375627472616374696f6e20756e646572666c6f7760581b815260200192915050565b6000613fe7603483614822565b60008051602061492a8339815191528152731a59081b585e081d9bdd1a5b99c81c195c9a5bd960621b602082015260400192915050565b600061402b603983614822565b60008051602061492a83398151915281527f6964206d61782070726f706f73616c207468726573686f6c6400000000000000602082015260400192915050565b8051606083019061407c848261316b565b50602082015161408f60208501826140a8565b5060408201516140a260408501826140ba565b50505050565b612fe68161485c565b612fe681614884565b612fe681614862565b6000611c27826132d8565b60006140d9826134bc565b91506140e5828561317d565b6020820191506140f5828461317d565b5060200192915050565b6000611c27826138b0565b60208101611c278284612fec565b604081016141268285612fdd565b61213c6020830184613174565b604081016141418285612fec565b61213c6020830184612fec565b604081016141268285612fec565b60a0810161416a8288612fec565b6141776020830187613174565b8181036040830152614189818661318e565b9050818103606083015261419d818561318e565b9050610a686080830184613174565b60a081016141ba8288612fec565b6141c76020830187613174565b81810360408301526141d981866131c6565b9050818103606083015261419d81856131c6565b608080825281016141fe8187612ff5565b90508181036020830152614212818661311d565b9050818103604083015261422681856130bc565b90508181036060830152610a68818461304e565b60208101611c278284613174565b608081016142568287613174565b6142636020830186613174565b6142706040830185613174565b61427d6060830184612fec565b95945050505050565b606081016142948286613174565b6142a16020830185613174565b612c2f60408301846140a8565b608081016142bc8287613174565b6142c960208301866140a8565b6142d66040830185613174565b61427d6060830184613174565b60208101611c278284613250565b60208101611c278284613259565b6020808252810161213c818461318e565b60208082528101611c2781613284565b60208082528101611c2781613322565b60208082528101611c278161336e565b60208082528101611c27816133eb565b60208082528101611c2781613469565b60208082528101611c27816134da565b60208082528101611c2781613527565b60208082528101611c278161357a565b60208082528101611c27816135d0565b60208082528101611c2781613614565b60208082528101611c2781613652565b60208082528101611c27816136bf565b60208082528101611c2781613710565b60208082528101611c278161377c565b60208082528101611c27816137c3565b60208082528101611c2781613817565b60208082528101611c2781613883565b60208082528101611c278161391b565b60208082528101611c278161396d565b60208082528101611c27816139bb565b60208082528101611c2781613a0b565b60208082528101611c2781613a4e565b60208082528101611c2781613a9f565b60208082528101611c2781613ada565b60208082528101611c2781613b24565b60208082528101611c2781613ba9565b60208082528101611c2781613bff565b60208082528101611c2781613c53565b60208082528101611c2781613c96565b60208082528101611c2781613d28565b60208082528101611c2781613d6e565b60208082528101611c2781613dcd565b60208082528101611c2781613e25565b60208082528101611c2781613e70565b60208082528101611c2781613ef5565b60208082528101611c2781613f54565b60208082528101611c2781613fa9565b60208082528101611c2781613fda565b60208082528101611c278161401e565b60608101611c27828461406b565b610140810161459d828d613174565b6145aa602083018c612fdd565b81810360408301526145bc818b612ff5565b905081810360608301526145d0818a61311d565b905081810360808301526145e481896130bc565b905081810360a08301526145f8818861304e565b905061460760c0830187613174565b61461460e0830186613174565b818103610100830152614627818561318e565b90506146376101208301846140a8565b9b9a5050505050505050505050565b6101608101614655828e613174565b614662602083018d612fec565b61466f604083018c613174565b61467c606083018b613174565b614689608083018a613174565b61469660a0830189613174565b6146a360c0830188613174565b6146b060e0830187613174565b6146be61010083018661316b565b6146cc61012083018561316b565b6146da6101408301846140a8565b9c9b505050505050505050505050565b604081016141268285613174565b606081016147068286613174565b6147136020830185613174565b612c2f6040830184613174565b6080810161472e8288613174565b61473b60208301876140a8565b61474860408301866140b1565b818103606083015261475b818486613262565b979650505050505050565b608081016147748286613174565b61478160208301856140a8565b61478e60408301846140b1565b818103606083015261427d81613d1b565b6040518181016001600160401b03811182821017156147bd57600080fd5b604052919050565b60006001600160401b038211156147db57600080fd5b5060209081020190565b60006001600160401b038211156147fb57600080fd5b506020601f91909101601f19160190565b60200190565b60009081526020902090565b5190565b90815260200190565b6000611c2782614850565b151590565b6000611c278261482b565b8061116e816148d1565b6001600160a01b031690565b60ff1690565b6001600160601b031690565b6000611c278261483b565b6000611c2782614846565b6000611c2782614862565b82818337506000910152565b60005b838110156148b657818101518382015260200161489e565b838111156140a25750506000910152565b601f01601f191690565b600881106127f357fe5b6148e48161482b565b81146127f357600080fd5b6148e481614836565b6148e481612145565b6148e48161483b565b600381106127f357600080fd5b6148e48161485c565b6148e48161486256fe476f7665726e6f72427261766f3a3a696e697469616c697a653a20696e76616ca365627a7a72315820adf731022f227b4d2896e27f35023734c99286493c38e3da146bb63a87f16ec86c6578706572696d656e74616cf564736f6c63430005100040",
  "linkReferences": {},
  "deployedLinkReferences": {}
}