{
  "_format": "hh-sol-artifact-1",
  "contractName": "GovernorAlphaHarness",
  "sourceName": "contracts/test/GovernorAlphaHarness.sol",
  "abi": [
    {
      "inputs": [
        {
          "internalType": "address",
          "name": "timelock_",
          "type": "address"
        },
        {
          "internalType": "address",
          "name": "xvs_",
          "type": "address"
        },
        {
          "internalType": "address",
          "name": "guardian_",
          "type": "address"
        }
      ],
      "payable": false,
      "stateMutability": "nonpayable",
      "type": "constructor"
    },
    {
      "anonymous": false,
      "inputs": [
        {
          "indexed": false,
          "internalType": "uint256",
          "name": "id",
          "type": "uint256"
        }
      ],
      "name": "ProposalCanceled",
      "type": "event"
    },
    {
      "anonymous": false,
      "inputs": [
        {
          "indexed": false,
          "internalType": "uint256",
          "name": "id",
          "type": "uint256"
        },
        {
          "indexed": false,
          "internalType": "address",
          "name": "proposer",
          "type": "address"
        },
        {
          "indexed": false,
          "internalType": "address[]",
          "name": "targets",
          "type": "address[]"
        },
        {
          "indexed": false,
          "internalType": "uint256[]",
          "name": "values",
          "type": "uint256[]"
        },
        {
          "indexed": false,
          "internalType": "string[]",
          "name": "signatures",
          "type": "string[]"
        },
        {
          "indexed": false,
          "internalType": "bytes[]",
          "name": "calldatas",
          "type": "bytes[]"
        },
        {
          "indexed": false,
          "internalType": "uint256",
          "name": "startBlock",
          "type": "uint256"
        },
        {
          "indexed": false,
          "internalType": "uint256",
          "name": "endBlock",
          "type": "uint256"
        },
        {
          "indexed": false,
          "internalType": "string",
          "name": "description",
          "type": "string"
        }
      ],
      "name": "ProposalCreated",
      "type": "event"
    },
    {
      "anonymous": false,
      "inputs": [
        {
          "indexed": false,
          "internalType": "uint256",
          "name": "id",
          "type": "uint256"
        }
      ],
      "name": "ProposalExecuted",
      "type": "event"
    },
    {
      "anonymous": false,
      "inputs": [
        {
          "indexed": false,
          "internalType": "uint256",
          "name": "id",
          "type": "uint256"
        },
        {
          "indexed": false,
          "internalType": "uint256",
          "name": "eta",
          "type": "uint256"
        }
      ],
      "name": "ProposalQueued",
      "type": "event"
    },
    {
      "anonymous": false,
      "inputs": [
        {
          "indexed": false,
          "internalType": "address",
          "name": "voter",
          "type": "address"
        },
        {
          "indexed": false,
          "internalType": "uint256",
          "name": "proposalId",
          "type": "uint256"
        },
        {
          "indexed": false,
          "internalType": "bool",
          "name": "support",
          "type": "bool"
        },
        {
          "indexed": false,
          "internalType": "uint256",
          "name": "votes",
          "type": "uint256"
        }
      ],
      "name": "VoteCast",
      "type": "event"
    },
    {
      "constant": true,
      "inputs": [],
      "name": "BALLOT_TYPEHASH",
      "outputs": [
        {
          "internalType": "bytes32",
          "name": "",
          "type": "bytes32"
        }
      ],
      "payable": false,
      "stateMutability": "view",
      "type": "function"
    },
    {
      "constant": true,
      "inputs": [],
      "name": "DOMAIN_TYPEHASH",
      "outputs": [
        {
          "internalType": "bytes32",
          "name": "",
          "type": "bytes32"
        }
      ],
      "payable": false,
      "stateMutability": "view",
      "type": "function"
    },
    {
      "constant": false,
      "inputs": [],
      "name": "__abdicate",
      "outputs": [],
      "payable": false,
      "stateMutability": "nonpayable",
      "type": "function"
    },
    {
      "constant": false,
      "inputs": [],
      "name": "__acceptAdmin",
      "outputs": [],
      "payable": false,
      "stateMutability": "nonpayable",
      "type": "function"
    },
    {
      "constant": false,
      "inputs": [
        {
          "internalType": "address",
          "name": "newPendingAdmin",
          "type": "address"
        },
        {
          "internalType": "uint256",
          "name": "eta",
          "type": "uint256"
        }
      ],
      "name": "__executeSetTimelockPendingAdmin",
      "outputs": [],
      "payable": false,
      "stateMutability": "nonpayable",
      "type": "function"
    },
    {
      "constant": false,
      "inputs": [
        {
          "internalType": "address",
          "name": "newPendingAdmin",
          "type": "address"
        },
        {
          "internalType": "uint256",
          "name": "eta",
          "type": "uint256"
        }
      ],
      "name": "__queueSetTimelockPendingAdmin",
      "outputs": [],
      "payable": false,
      "stateMutability": "nonpayable",
      "type": "function"
    },
    {
      "constant": false,
      "inputs": [
        {
          "internalType": "uint256",
          "name": "proposalId",
          "type": "uint256"
        }
      ],
      "name": "cancel",
      "outputs": [],
      "payable": false,
      "stateMutability": "nonpayable",
      "type": "function"
    },
    {
      "constant": false,
      "inputs": [
        {
          "internalType": "uint256",
          "name": "proposalId",
          "type": "uint256"
        },
        {
          "internalType": "bool",
          "name": "support",
          "type": "bool"
        }
      ],
      "name": "castVote",
      "outputs": [],
      "payable": false,
      "stateMutability": "nonpayable",
      "type": "function"
    },
    {
      "constant": false,
      "inputs": [
        {
          "internalType": "uint256",
          "name": "proposalId",
          "type": "uint256"
        },
        {
          "internalType": "bool",
          "name": "support",
          "type": "bool"
        },
        {
          "internalType": "uint8",
          "name": "v",
          "type": "uint8"
        },
        {
          "internalType": "bytes32",
          "name": "r",
          "type": "bytes32"
        },
        {
          "internalType": "bytes32",
          "name": "s",
          "type": "bytes32"
        }
      ],
      "name": "castVoteBySig",
      "outputs": [],
      "payable": false,
      "stateMutability": "nonpayable",
      "type": "function"
    },
    {
      "constant": false,
      "inputs": [
        {
          "internalType": "uint256",
          "name": "proposalId",
          "type": "uint256"
        }
      ],
      "name": "execute",
      "outputs": [],
      "payable": true,
      "stateMutability": "payable",
      "type": "function"
    },
    {
      "constant": true,
      "inputs": [
        {
          "internalType": "uint256",
          "name": "proposalId",
          "type": "uint256"
        }
      ],
      "name": "getActions",
      "outputs": [
        {
          "internalType": "address[]",
          "name": "targets",
          "type": "address[]"
        },
        {
          "internalType": "uint256[]",
          "name": "values",
          "type": "uint256[]"
        },
        {
          "internalType": "string[]",
          "name": "signatures",
          "type": "string[]"
        },
        {
          "internalType": "bytes[]",
          "name": "calldatas",
          "type": "bytes[]"
        }
      ],
      "payable": false,
      "stateMutability": "view",
      "type": "function"
    },
    {
      "constant": true,
      "inputs": [
        {
          "internalType": "uint256",
          "name": "proposalId",
          "type": "uint256"
        },
        {
          "internalType": "address",
          "name": "voter",
          "type": "address"
        }
      ],
      "name": "getReceipt",
      "outputs": [
        {
          "components": [
            {
              "internalType": "bool",
              "name": "hasVoted",
              "type": "bool"
            },
            {
              "internalType": "bool",
              "name": "support",
              "type": "bool"
            },
            {
              "internalType": "uint96",
              "name": "votes",
              "type": "uint96"
            }
          ],
          "internalType": "struct GovernorAlpha.Receipt",
          "name": "",
          "type": "tuple"
        }
      ],
      "payable": false,
      "stateMutability": "view",
      "type": "function"
    },
    {
      "constant": true,
      "inputs": [],
      "name": "guardian",
      "outputs": [
        {
          "internalType": "address",
          "name": "",
          "type": "address"
        }
      ],
      "payable": false,
      "stateMutability": "view",
      "type": "function"
    },
    {
      "constant": true,
      "inputs": [
        {
          "internalType": "address",
          "name": "",
          "type": "address"
        }
      ],
      "name": "latestProposalIds",
      "outputs": [
        {
          "internalType": "uint256",
          "name": "",
          "type": "uint256"
        }
      ],
      "payable": false,
      "stateMutability": "view",
      "type": "function"
    },
    {
      "constant": true,
      "inputs": [],
      "name": "name",
      "outputs": [
        {
          "internalType": "string",
          "name": "",
          "type": "string"
        }
      ],
      "payable": false,
      "stateMutability": "view",
      "type": "function"
    },
    {
      "constant": true,
      "inputs": [],
      "name": "proposalCount",
      "outputs": [
        {
          "internalType": "uint256",
          "name": "",
          "type": "uint256"
        }
      ],
      "payable": false,
      "stateMutability": "view",
      "type": "function"
    },
    {
      "constant": true,
      "inputs": [],
      "name": "proposalMaxOperations",
      "outputs": [
        {
          "internalType": "uint256",
          "name": "",
          "type": "uint256"
        }
      ],
      "payable": false,
      "stateMutability": "pure",
      "type": "function"
    },
    {
      "constant": true,
      "inputs": [],
      "name": "proposalThreshold",
      "outputs": [
        {
          "internalType": "uint256",
          "name": "",
          "type": "uint256"
        }
      ],
      "payable": false,
      "stateMutability": "pure",
      "type": "function"
    },
    {
      "constant": true,
      "inputs": [
        {
          "internalType": "uint256",
          "name": "",
          "type": "uint256"
        }
      ],
      "name": "proposals",
      "outputs": [
        {
          "internalType": "uint256",
          "name": "id",
          "type": "uint256"
        },
        {
          "internalType": "address",
          "name": "proposer",
          "type": "address"
        },
        {
          "internalType": "uint256",
          "name": "eta",
          "type": "uint256"
        },
        {
          "internalType": "uint256",
          "name": "startBlock",
          "type": "uint256"
        },
        {
          "internalType": "uint256",
          "name": "endBlock",
          "type": "uint256"
        },
        {
          "internalType": "uint256",
          "name": "forVotes",
          "type": "uint256"
        },
        {
          "internalType": "uint256",
          "name": "againstVotes",
          "type": "uint256"
        },
        {
          "internalType": "bool",
          "name": "canceled",
          "type": "bool"
        },
        {
          "internalType": "bool",
          "name": "executed",
          "type": "bool"
        }
      ],
      "payable": false,
      "stateMutability": "view",
      "type": "function"
    },
    {
      "constant": false,
      "inputs": [
        {
          "internalType": "address[]",
          "name": "targets",
          "type": "address[]"
        },
        {
          "internalType": "uint256[]",
          "name": "values",
          "type": "uint256[]"
        },
        {
          "internalType": "string[]",
          "name": "signatures",
          "type": "string[]"
        },
        {
          "internalType": "bytes[]",
          "name": "calldatas",
          "type": "bytes[]"
        },
        {
          "internalType": "string",
          "name": "description",
          "type": "string"
        }
      ],
      "name": "propose",
      "outputs": [
        {
          "internalType": "uint256",
          "name": "",
          "type": "uint256"
        }
      ],
      "payable": false,
      "stateMutability": "nonpayable",
      "type": "function"
    },
    {
      "constant": false,
      "inputs": [
        {
          "internalType": "uint256",
          "name": "proposalId",
          "type": "uint256"
        }
      ],
      "name": "queue",
      "outputs": [],
      "payable": false,
      "stateMutability": "nonpayable",
      "type": "function"
    },
    {
      "constant": true,
      "inputs": [],
      "name": "quorumVotes",
      "outputs": [
        {
          "internalType": "uint256",
          "name": "",
          "type": "uint256"
        }
      ],
      "payable": false,
      "stateMutability": "pure",
      "type": "function"
    },
    {
      "constant": true,
      "inputs": [
        {
          "internalType": "uint256",
          "name": "proposalId",
          "type": "uint256"
        }
      ],
      "name": "state",
      "outputs": [
        {
          "internalType": "enum GovernorAlpha.ProposalState",
          "name": "",
          "type": "uint8"
        }
      ],
      "payable": false,
      "stateMutability": "view",
      "type": "function"
    },
    {
      "constant": true,
      "inputs": [],
      "name": "timelock",
      "outputs": [
        {
          "internalType": "contract TimelockInterface",
          "name": "",
          "type": "address"
        }
      ],
      "payable": false,
      "stateMutability": "view",
      "type": "function"
    },
    {
      "constant": true,
      "inputs": [],
      "name": "votingDelay",
      "outputs": [
        {
          "internalType": "uint256",
          "name": "",
          "type": "uint256"
        }
      ],
      "payable": false,
      "stateMutability": "pure",
      "type": "function"
    },
    {
      "constant": true,
      "inputs": [],
      "name": "votingPeriod",
      "outputs": [
        {
          "internalType": "uint256",
          "name": "",
          "type": "uint256"
        }
      ],
      "payable": false,
      "stateMutability": "pure",
      "type": "function"
    },
    {
      "constant": true,
      "inputs": [],
      "name": "xvs",
      "outputs": [
        {
          "internalType": "contract XVSInterface",
          "name": "",
          "type": "address"
        }
      ],
      "payable": false,
      "stateMutability": "view",
      "type": "function"
    }
  ],
  "bytecode": "0x60806040523480156200001157600080fd5b50604051620038ca380380620038ca83398101604081905262000034916200008a565b600080546001600160a01b039485166001600160a01b0319918216179091556001805493851693821693909317909255600280549190931691161790556200010a565b80516200008481620000f0565b92915050565b600080600060608486031215620000a057600080fd5b6000620000ae868662000077565b9350506020620000c18682870162000077565b9250506040620000d48682870162000077565b9150509250925092565b60006001600160a01b03821662000084565b620000fb81620000de565b81146200010757600080fd5b50565b6137b0806200011a6000396000f3fe60806040526004361061019c5760003560e01c80634634c61f116100ec578063d33219b41161008a578063ddf0b00911610064578063ddf0b00914610463578063deaaa7cc14610483578063e23a9a5214610498578063fe0d94c1146104c55761019c565b8063d33219b414610419578063da35c6641461042e578063da95691a146104435761019c565b80637bdbe4d0116100c65780637bdbe4d0146103ba57806391500671146103cf578063b58131b0146103ef578063b9a61961146104045761019c565b80634634c61f146103635780634e79ed3c14610383578063760fbc13146103a55761019c565b806321f43e42116101595780633932abb1116101335780633932abb1146102df5780633e4f49e6146102f457806340e58ee514610321578063452a9320146103415761019c565b806321f43e421461027a57806324bc1a641461029a578063328dd982146102af5761019c565b8063013cf08b146101a157806302a251a3146101df57806306fdde031461020157806315373e3d1461022357806317977c611461024557806320606b7014610265575b600080fd5b3480156101ad57600080fd5b506101c16101bc366004612442565b6104d8565b6040516101d69998979695949392919061355b565b60405180910390f35b3480156101eb57600080fd5b506101f4610531565b6040516101d69190613288565b34801561020d57600080fd5b50610216610537565b6040516101d69190613344565b34801561022f57600080fd5b5061024361023e366004612490565b610567565b005b34801561025157600080fd5b506101f4610260366004612285565b610576565b34801561027157600080fd5b506101f4610588565b34801561028657600080fd5b506102436102953660046122ab565b61059f565b3480156102a657600080fd5b506101f4610686565b3480156102bb57600080fd5b506102cf6102ca366004612442565b610694565b6040516101d6949392919061323b565b3480156102eb57600080fd5b506101f4610923565b34801561030057600080fd5b5061031461030f366004612442565b610928565b6040516101d69190613336565b34801561032d57600080fd5b5061024361033c366004612442565b610aaa565b34801561034d57600080fd5b50610356610d13565b6040516101d691906130e5565b34801561036f57600080fd5b5061024361037e3660046124c0565b610d22565b34801561038f57600080fd5b50610398610eb6565b6040516101d69190613328565b3480156103b157600080fd5b50610243610ec5565b3480156103c657600080fd5b506101f4610f01565b3480156103db57600080fd5b506102436103ea3660046122ab565b610f06565b3480156103fb57600080fd5b506101f4610fdb565b34801561041057600080fd5b50610243610fe9565b34801561042557600080fd5b5061039861106e565b34801561043a57600080fd5b506101f461107d565b34801561044f57600080fd5b506101f461045e3660046122e5565b611083565b34801561046f57600080fd5b5061024361047e366004612442565b6114a5565b34801561048f57600080fd5b506101f461170f565b3480156104a457600080fd5b506104b86104b3366004612460565b61171b565b6040516101d691906134a5565b6102436104d3366004612442565b61178a565b6004602052600090815260409020805460018201546002830154600784015460088501546009860154600a870154600b9097015495966001600160a01b0390951695939492939192909160ff8082169161010090041689565b60f05b90565b6040518060400160405280601481526020017356656e757320476f7665726e6f7220416c70686160601b81525081565b61057233838361194f565b5050565b60056020526000908152604090205481565b604051610594906130cf565b604051809103902081565b6002546001600160a01b031633146105d25760405162461bcd60e51b81526004016105c990613385565b60405180910390fd5b600080546040516001600160a01b0390911691630825f38f918391906105fc9087906020016130e5565b604051602081830303815290604052856040518563ffffffff1660e01b815260040161062b949392919061310e565b600060405180830381600087803b15801561064557600080fd5b505af1158015610659573d6000803e3d6000fd5b505050506040513d6000823e601f3d908101601f19168201604052610681919081019061240d565b505050565b697f0e10af47c1c700000090565b6060806060806000600460008781526020019081526020016000209050806003018160040182600501836006018380548060200260200160405190810160405280929190818152602001828054801561071657602002820191906000526020600020905b81546001600160a01b031681526001909101906020018083116106f8575b505050505093508280548060200260200160405190810160405280929190818152602001828054801561076857602002820191906000526020600020905b815481526020019060010190808311610754575b5050505050925081805480602002602001604051908101604052809291908181526020016000905b8282101561083b5760008481526020908190208301805460408051601f60026000196101006001871615020190941693909304928301859004850281018501909152818152928301828280156108275780601f106107fc57610100808354040283529160200191610827565b820191906000526020600020905b81548152906001019060200180831161080a57829003601f168201915b505050505081526020019060010190610790565b50505050915080805480602002602001604051908101604052809291908181526020016000905b8282101561090d5760008481526020908190208301805460408051601f60026000196101006001871615020190941693909304928301859004850281018501909152818152928301828280156108f95780601f106108ce576101008083540402835291602001916108f9565b820191906000526020600020905b8154815290600101906020018083116108dc57829003601f168201915b505050505081526020019060010190610862565b5050505090509450945094509450509193509193565b600190565b6000816003541015801561093c5750600082115b6109585760405162461bcd60e51b81526004016105c990613395565b6000828152600460205260409020600b81015460ff161561097d576002915050610aa5565b80600701544311610992576000915050610aa5565b806008015443116109a7576001915050610aa5565b80600a015481600901541115806109c857506109c1610686565b8160090154105b156109d7576003915050610aa5565b60028101546109ea576004915050610aa5565b600b810154610100900460ff1615610a06576007915050610aa5565b6002810154600054604080516360d143f160e11b81529051610a8f93926001600160a01b03169163c1a287e2916004808301926020929190829003018186803b158015610a5257600080fd5b505afa158015610a66573d6000803e3d6000fd5b505050506040513d601f19601f82011682018060405250610a8a91908101906123ef565b611b18565b4210610a9f576006915050610aa5565b60059150505b919050565b6000610ab582610928565b90506007816007811115610ac557fe5b1415610ae35760405162461bcd60e51b81526004016105c990613465565b60008281526004602052604090206002546001600160a01b0316331480610bae5750610b0d610fdb565b60018054838201546001600160a01b039182169263782d6fe19290911690610b36904390611b44565b6040518363ffffffff1660e01b8152600401610b5392919061315d565b60206040518083038186803b158015610b6b57600080fd5b505afa158015610b7f573d6000803e3d6000fd5b505050506040513d601f19601f82011682018060405250610ba39190810190612528565b6001600160601b0316105b610bca5760405162461bcd60e51b81526004016105c9906133f5565b600b8101805460ff1916600117905560005b6003820154811015610cd6576000546003830180546001600160a01b039092169163591fcdfe919084908110610c0e57fe5b6000918252602090912001546004850180546001600160a01b039092169185908110610c3657fe5b9060005260206000200154856005018581548110610c5057fe5b90600052602060002001866006018681548110610c6957fe5b9060005260206000200187600201546040518663ffffffff1660e01b8152600401610c989594939291906131fa565b600060405180830381600087803b158015610cb257600080fd5b505af1158015610cc6573d6000803e3d6000fd5b505060019092019150610bdc9050565b507f789cf55be980739dad1d0699b93b58e806b51c9d96619bfa8fe0a28abaa7b30c83604051610d069190613288565b60405180910390a1505050565b6002546001600160a01b031681565b6000604051610d30906130cf565b60408051918290038220828201909152601482527356656e757320476f7665726e6f7220416c70686160601b6020909201919091527fe7831129eb24a15f1f8f822483f1d64bd3e968215bb4c81d28d0d3ca9310a835610d8e611b6c565b30604051602001610da29493929190613296565b6040516020818303038152906040528051906020012090506000604051610dc8906130da565b604051908190038120610de191899089906020016132cb565b60405160208183030381529060405280519060200120905060008282604051602001610e0e92919061309e565b604051602081830303815290604052805190602001209050600060018288888860405160008152602001604052604051610e4b94939291906132f3565b6020604051602081039080840390855afa158015610e6d573d6000803e3d6000fd5b5050604051601f1901519150506001600160a01b038116610ea05760405162461bcd60e51b81526004016105c990613455565b610eab818a8a61194f565b505050505050505050565b6001546001600160a01b031681565b6002546001600160a01b03163314610eef5760405162461bcd60e51b81526004016105c990613495565b600280546001600160a01b0319169055565b600a90565b6002546001600160a01b03163314610f305760405162461bcd60e51b81526004016105c9906133b5565b600080546040516001600160a01b0390911691633a66f90191839190610f5a9087906020016130e5565b604051602081830303815290604052856040518563ffffffff1660e01b8152600401610f89949392919061310e565b602060405180830381600087803b158015610fa357600080fd5b505af1158015610fb7573d6000803e3d6000fd5b505050506040513d601f19601f8201168201806040525061068191908101906123ef565b693f870857a3e0e380000090565b6002546001600160a01b031633146110135760405162461bcd60e51b81526004016105c990613355565b6000805460408051630e18b68160e01b815290516001600160a01b0390921692630e18b6819260048084019382900301818387803b15801561105457600080fd5b505af1158015611068573d6000803e3d6000fd5b50505050565b6000546001600160a01b031681565b60035481565b600061108d610fdb565b600180546001600160a01b03169063782d6fe19033906110ae904390611b44565b6040518363ffffffff1660e01b81526004016110cb9291906130f3565b60206040518083038186803b1580156110e357600080fd5b505afa1580156110f7573d6000803e3d6000fd5b505050506040513d601f19601f8201168201806040525061111b9190810190612528565b6001600160601b0316116111415760405162461bcd60e51b81526004016105c990613445565b84518651148015611153575083518651145b8015611160575082518651145b61117c5760405162461bcd60e51b81526004016105c9906133e5565b855161119a5760405162461bcd60e51b81526004016105c990613435565b6111a2610f01565b865111156111c25760405162461bcd60e51b81526004016105c9906133c5565b33600090815260056020526040902054801561123f5760006111e382610928565b905060018160078111156111f357fe5b14156112115760405162461bcd60e51b81526004016105c990613405565b600081600781111561121f57fe5b141561123d5760405162461bcd60e51b81526004016105c990613425565b505b600061124d43610a8a610923565b9050600061125d82610a8a610531565b6003805460010190559050611270611ccf565b604051806101a001604052806003548152602001336001600160a01b03168152602001600081526020018b81526020018a815260200189815260200188815260200184815260200183815260200160008152602001600081526020016000151581526020016000151581525090508060046000836000015181526020019081526020016000206000820151816000015560208201518160010160006101000a8154816001600160a01b0302191690836001600160a01b03160217905550604082015181600201556060820151816003019080519060200190611353929190611d44565b506080820151805161136f916004840191602090910190611da9565b5060a0820151805161138b916005840191602090910190611df0565b5060c082015180516113a7916006840191602090910190611e49565b5060e082015181600701556101008201518160080155610120820151816009015561014082015181600a015561016082015181600b0160006101000a81548160ff02191690831515021790555061018082015181600b0160016101000a81548160ff02191690831515021790555090505080600001516005600083602001516001600160a01b03166001600160a01b03168152602001908152602001600020819055507f7d84a6263ae0d98d3329bd7b46bb4e8d6f98cd35a7adb45c274c8b7fd5ebd5e08160000151338c8c8c8c89898e60405161148d999897969594939291906134b3565b60405180910390a15193505050505b95945050505050565b60046114b082610928565b60078111156114bb57fe5b146114d85760405162461bcd60e51b81526004016105c990613365565b600081815260046020818152604080842084548251630d48571f60e31b8152925191959461152d9442946001600160a01b0390931693636a42b8f8938084019390829003018186803b158015610a5257600080fd5b905060005b60038301548110156116d5576116cd83600301828154811061155057fe5b6000918252602090912001546004850180546001600160a01b03909216918490811061157857fe5b906000526020600020015485600501848154811061159257fe5b600091825260209182902001805460408051601f60026000196101006001871615020190941693909304928301859004850281018501909152818152928301828280156116205780601f106115f557610100808354040283529160200191611620565b820191906000526020600020905b81548152906001019060200180831161160357829003601f168201915b505050505086600601858154811061163457fe5b600091825260209182902001805460408051601f60026000196101006001871615020190941693909304928301859004850281018501909152818152928301828280156116c25780601f10611697576101008083540402835291602001916116c2565b820191906000526020600020905b8154815290600101906020018083116116a557829003601f168201915b505050505086611b70565b600101611532565b50600282018190556040517f9a2e42fd6722813d69113e7d0079d3d940171428df7373df9c7f7617cfda289290610d0690859084906135e1565b604051610594906130da565b611723611ea2565b5060008281526004602090815260408083206001600160a01b0385168452600c018252918290208251606081018452905460ff80821615158352610100820416151592820192909252620100009091046001600160601b0316918101919091525b92915050565b600561179582610928565b60078111156117a057fe5b146117bd5760405162461bcd60e51b81526004016105c990613375565b6000818152600460205260408120600b8101805461ff001916610100179055905b6003820154811015611913576000546004830180546001600160a01b0390921691630825f38f91908490811061181057fe5b906000526020600020015484600301848154811061182a57fe5b6000918252602090912001546004860180546001600160a01b03909216918690811061185257fe5b906000526020600020015486600501868154811061186c57fe5b9060005260206000200187600601878154811061188557fe5b9060005260206000200188600201546040518763ffffffff1660e01b81526004016118b49594939291906131fa565b6000604051808303818588803b1580156118cd57600080fd5b505af11580156118e1573d6000803e3d6000fd5b50505050506040513d6000823e601f3d908101601f1916820160405261190a919081019061240d565b506001016117de565b507f712ae1383f79ac853f8d882153778e0260ef8f03b504e2866e0593e04d2b291f826040516119439190613288565b60405180910390a15050565b600161195a83610928565b600781111561196557fe5b146119825760405162461bcd60e51b81526004016105c990613475565b60008281526004602090815260408083206001600160a01b0387168452600c8101909252909120805460ff16156119cb5760405162461bcd60e51b81526004016105c9906133a5565b600154600783015460405163782d6fe160e01b81526000926001600160a01b03169163782d6fe191611a01918a9160040161315d565b60206040518083038186803b158015611a1957600080fd5b505afa158015611a2d573d6000803e3d6000fd5b505050506040513d601f19601f82011682018060405250611a519190810190612528565b90508315611a7a57611a708360090154826001600160601b0316611b18565b6009840155611a97565b611a9183600a0154826001600160601b0316611b18565b600a8401555b8154600160ff199091161761ff00191661010085151502176dffffffffffffffffffffffff00001916620100006001600160601b038316021782556040517f877856338e13f63d0c36822ff0ef736b80934cd90574a3a5bc9262c39d217c4690611b0890889088908890869061316b565b60405180910390a1505050505050565b600082820183811015611b3d5760405162461bcd60e51b81526004016105c9906133d5565b9392505050565b600082821115611b665760405162461bcd60e51b81526004016105c990613485565b50900390565b4690565b6000546040516001600160a01b039091169063f2b0653790611b9e90889088908890889088906020016131a0565b604051602081830303815290604052805190602001206040518263ffffffff1660e01b8152600401611bd09190613288565b60206040518083038186803b158015611be857600080fd5b505afa158015611bfc573d6000803e3d6000fd5b505050506040513d601f19601f82011682018060405250611c2091908101906123d1565b15611c3d5760405162461bcd60e51b81526004016105c990613415565b600054604051633a66f90160e01b81526001600160a01b0390911690633a66f90190611c7590889088908890889088906004016131a0565b602060405180830381600087803b158015611c8f57600080fd5b505af1158015611ca3573d6000803e3d6000fd5b505050506040513d601f19601f82011682018060405250611cc791908101906123ef565b505050505050565b604051806101a001604052806000815260200160006001600160a01b031681526020016000815260200160608152602001606081526020016060815260200160608152602001600081526020016000815260200160008152602001600081526020016000151581526020016000151581525090565b828054828255906000526020600020908101928215611d99579160200282015b82811115611d9957825182546001600160a01b0319166001600160a01b03909116178255602090920191600190910190611d64565b50611da5929150611ec2565b5090565b828054828255906000526020600020908101928215611de4579160200282015b82811115611de4578251825591602001919060010190611dc9565b50611da5929150611ee6565b828054828255906000526020600020908101928215611e3d579160200282015b82811115611e3d5782518051611e2d918491602090910190611f00565b5091602001919060010190611e10565b50611da5929150611f6d565b828054828255906000526020600020908101928215611e96579160200282015b82811115611e965782518051611e86918491602090910190611f00565b5091602001919060010190611e69565b50611da5929150611f90565b604080516060810182526000808252602082018190529181019190915290565b61053491905b80821115611da55780546001600160a01b0319168155600101611ec8565b61053491905b80821115611da55760008155600101611eec565b828054600181600116156101000203166002900490600052602060002090601f016020900481019282601f10611f4157805160ff1916838001178555611de4565b82800160010185558215611de45791820182811115611de4578251825591602001919060010190611dc9565b61053491905b80821115611da5576000611f878282611fb3565b50600101611f73565b61053491905b80821115611da5576000611faa8282611fb3565b50600101611f96565b50805460018160011615610100020316600290046000825580601f10611fd95750611ff7565b601f016020900490600052602060002090810190611ff79190611ee6565b50565b803561178481613735565b600082601f83011261201657600080fd5b813561202961202482613616565b6135ef565b9150818183526020840193506020810190508385602084028201111561204e57600080fd5b60005b8381101561207a57816120648882611ffa565b8452506020928301929190910190600101612051565b5050505092915050565b600082601f83011261209557600080fd5b81356120a361202482613616565b81815260209384019390925082018360005b8381101561207a57813586016120cb88826121da565b84525060209283019291909101906001016120b5565b600082601f8301126120f257600080fd5b813561210061202482613616565b81815260209384019390925082018360005b8381101561207a578135860161212888826121da565b8452506020928301929190910190600101612112565b600082601f83011261214f57600080fd5b813561215d61202482613616565b9150818183526020840193506020810190508385602084028201111561218257600080fd5b60005b8381101561207a578161219888826121c4565b8452506020928301929190910190600101612185565b803561178481613749565b805161178481613749565b803561178481613752565b805161178481613752565b600082601f8301126121eb57600080fd5b81356121f961202482613637565b9150808252602083016020830185838301111561221557600080fd5b6122208382846136e9565b50505092915050565b600082601f83011261223a57600080fd5b815161224861202482613637565b9150808252602083016020830185838301111561226457600080fd5b6122208382846136f5565b80356117848161375b565b805161178481613764565b60006020828403121561229757600080fd5b60006122a38484611ffa565b949350505050565b600080604083850312156122be57600080fd5b60006122ca8585611ffa565b92505060206122db858286016121c4565b9150509250929050565b600080600080600060a086880312156122fd57600080fd5b853567ffffffffffffffff81111561231457600080fd5b61232088828901612005565b955050602086013567ffffffffffffffff81111561233d57600080fd5b6123498882890161213e565b945050604086013567ffffffffffffffff81111561236657600080fd5b612372888289016120e1565b935050606086013567ffffffffffffffff81111561238f57600080fd5b61239b88828901612084565b925050608086013567ffffffffffffffff8111156123b857600080fd5b6123c4888289016121da565b9150509295509295909350565b6000602082840312156123e357600080fd5b60006122a384846121b9565b60006020828403121561240157600080fd5b60006122a384846121cf565b60006020828403121561241f57600080fd5b815167ffffffffffffffff81111561243657600080fd5b6122a384828501612229565b60006020828403121561245457600080fd5b60006122a384846121c4565b6000806040838503121561247357600080fd5b600061247f85856121c4565b92505060206122db85828601611ffa565b600080604083850312156124a357600080fd5b60006124af85856121c4565b92505060206122db858286016121ae565b600080600080600060a086880312156124d857600080fd5b60006124e488886121c4565b95505060206124f5888289016121ae565b94505060406125068882890161226f565b9350506060612517888289016121c4565b92505060806123c4888289016121c4565b60006020828403121561253a57600080fd5b60006122a3848461227a565b60006125528383612581565b505060200190565b6000611b3d8383612723565b60006125528383612709565b61257b816136b6565b82525050565b61257b8161367e565b600061259582613671565b61259f8185613675565b93506125aa8361365f565b8060005b838110156125d85781516125c28882612546565b97506125cd8361365f565b9250506001016125ae565b509495945050505050565b60006125ee82613671565b6125f88185613675565b93508360208202850161260a8561365f565b8060005b858110156126445784840389528151612627858261255a565b94506126328361365f565b60209a909a019992505060010161260e565b5091979650505050505050565b600061265c82613671565b6126668185613675565b9350836020820285016126788561365f565b8060005b858110156126445784840389528151612695858261255a565b94506126a08361365f565b60209a909a019992505060010161267c565b60006126bd82613671565b6126c78185613675565b93506126d28361365f565b8060005b838110156125d85781516126ea8882612566565b97506126f58361365f565b9250506001016126d6565b61257b81613689565b61257b81610534565b61257b61271e82610534565b610534565b600061272e82613671565b6127388185613675565b93506127488185602086016136f5565b61275181613721565b9093019392505050565b600081546001811660008114612778576001811461279e576127dd565b607f60028304166127898187613675565b60ff19841681529550506020850192506127dd565b600282046127ac8187613675565b95506127b785613665565b60005b828110156127d6578154888201526001909101906020016127ba565b8701945050505b505092915050565b61257b816136bd565b61257b816136c8565b61257b816136d3565b600061280d603983613675565b7f476f7665726e6f72416c7068613a3a5f5f61636365707441646d696e3a20736581527f6e646572206d75737420626520676f7620677561726469616e00000000000000602082015260400192915050565b600061286c604483613675565b7f476f7665726e6f72416c7068613a3a71756575653a2070726f706f73616c206381527f616e206f6e6c79206265207175657565642069662069742069732073756363656020820152631959195960e21b604082015260600192915050565b60006128d8604583613675565b7f476f7665726e6f72416c7068613a3a657865637574653a2070726f706f73616c81527f2063616e206f6e6c7920626520657865637574656420696620697420697320716020820152641d595d595960da1b604082015260600192915050565b6000612945600283610aa5565b61190160f01b815260020192915050565b6000612963604c83613675565b7f476f7665726e6f72416c7068613a3a5f5f6578656375746553657454696d656c81527f6f636b50656e64696e6741646d696e3a2073656e646572206d7573742062652060208201526b33b7bb1033bab0b93234b0b760a11b604082015260600192915050565b60006129d7601883613675565b7f73657450656e64696e6741646d696e2861646472657373290000000000000000815260200192915050565b6000612a10602983613675565b7f476f7665726e6f72416c7068613a3a73746174653a20696e76616c69642070728152681bdc1bdcd85b081a5960ba1b602082015260400192915050565b6000612a5b602d83613675565b7f476f7665726e6f72416c7068613a3a5f63617374566f74653a20766f7465722081526c185b1c9958591e481d9bdd1959609a1b602082015260400192915050565b6000612aaa604a83613675565b7f476f7665726e6f72416c7068613a3a5f5f717565756553657454696d656c6f6381527f6b50656e64696e6741646d696e3a2073656e646572206d75737420626520676f6020820152693b1033bab0b93234b0b760b11b604082015260600192915050565b6000612b1c602883613675565b7f476f7665726e6f72416c7068613a3a70726f706f73653a20746f6f206d616e7981526720616374696f6e7360c01b602082015260400192915050565b6000612b66601183613675565b706164646974696f6e206f766572666c6f7760781b815260200192915050565b6000612b93604383610aa5565b7f454950373132446f6d61696e28737472696e67206e616d652c75696e7432353681527f20636861696e49642c6164647265737320766572696679696e67436f6e74726160208201526263742960e81b604082015260430192915050565b6000612bfe602783610aa5565b7f42616c6c6f742875696e743235362070726f706f73616c49642c626f6f6c20738152667570706f72742960c81b602082015260270192915050565b6000612c47604483613675565b7f476f7665726e6f72416c7068613a3a70726f706f73653a2070726f706f73616c81527f2066756e6374696f6e20696e666f726d6174696f6e206172697479206d69736d6020820152630c2e8c6d60e31b604082015260600192915050565b6000612cb3602f83613675565b7f476f7665726e6f72416c7068613a3a63616e63656c3a2070726f706f7365722081526e18589bdd99481d1a1c995cda1bdb19608a1b602082015260400192915050565b6000612d04603883613675565b7f476f7665726e6f72416c7068613a3a70726f706f73653a20666f756e6420616e81527f20616c7265616479206163746976652070726f706f73616c0000000000000000602082015260400192915050565b6000612d63604483613675565b7f476f7665726e6f72416c7068613a3a5f71756575654f725265766572743a207081527f726f706f73616c20616374696f6e20616c7265616479207175657565642061746020820152632065746160e01b604082015260600192915050565b6000612dcf603983613675565b7f476f7665726e6f72416c7068613a3a70726f706f73653a20666f756e6420616e81527f20616c72656164792070656e64696e672070726f706f73616c00000000000000602082015260400192915050565b6000612e2e602c83613675565b7f476f7665726e6f72416c7068613a3a70726f706f73653a206d7573742070726f81526b7669646520616374696f6e7360a01b602082015260400192915050565b6000612e7c603f83613675565b7f476f7665726e6f72416c7068613a3a70726f706f73653a2070726f706f73657281527f20766f7465732062656c6f772070726f706f73616c207468726573686f6c6400602082015260400192915050565b6000612edb602f83613675565b7f476f7665726e6f72416c7068613a3a63617374566f746542795369673a20696e81526e76616c6964207369676e617475726560881b602082015260400192915050565b6000612f2c603683613675565b7f476f7665726e6f72416c7068613a3a63616e63656c3a2063616e6e6f742063618152751b98d95b08195e1958dd5d1959081c1c9bdc1bdcd85b60521b602082015260400192915050565b6000612f84602a83613675565b7f476f7665726e6f72416c7068613a3a5f63617374566f74653a20766f74696e67815269081a5cc818db1bdcd95960b21b602082015260400192915050565b6000612fd0601583613675565b747375627472616374696f6e20756e646572666c6f7760581b815260200192915050565b6000613001603683613675565b7f476f7665726e6f72416c7068613a3a5f5f61626469636174653a2073656e6465815275391036bab9ba1031329033b7bb1033bab0b93234b0b760511b602082015260400192915050565b8051606083019061305d8482612700565b5060208201516130706020850182612700565b5060408201516110686040850182613095565b61257b816136a4565b61257b816136de565b61257b816136aa565b60006130a982612938565b91506130b58285612712565b6020820191506130c58284612712565b5060200192915050565b600061178482612b86565b600061178482612bf1565b602081016117848284612581565b604081016131018285612572565b611b3d6020830184612709565b60a0810161311c8287612581565b61312960208301866127f7565b818103604083015261313a816129ca565b9050818103606083015261314e8185612723565b905061149c6080830184612709565b604081016131018285612581565b608081016131798287612581565b6131866020830186612709565b6131936040830185612700565b61149c606083018461308c565b60a081016131ae8288612581565b6131bb6020830187612709565b81810360408301526131cd8186612723565b905081810360608301526131e18185612723565b90506131f06080830184612709565b9695505050505050565b60a081016132088288612581565b6132156020830187612709565b8181036040830152613227818661275b565b905081810360608301526131e1818561275b565b6080808252810161324c818761258a565b9050818103602083015261326081866126b2565b905081810360408301526132748185612651565b905081810360608301526131f081846125e3565b602081016117848284612709565b608081016132a48287612709565b6132b16020830186612709565b6132be6040830185612709565b61149c6060830184612581565b606081016132d98286612709565b6132e66020830185612709565b6122a36040830184612700565b608081016133018287612709565b61330e6020830186613083565b61331b6040830185612709565b61149c6060830184612709565b6020810161178482846127e5565b6020810161178482846127ee565b60208082528101611b3d8184612723565b6020808252810161178481612800565b602080825281016117848161285f565b60208082528101611784816128cb565b6020808252810161178481612956565b6020808252810161178481612a03565b6020808252810161178481612a4e565b6020808252810161178481612a9d565b6020808252810161178481612b0f565b6020808252810161178481612b59565b6020808252810161178481612c3a565b6020808252810161178481612ca6565b6020808252810161178481612cf7565b6020808252810161178481612d56565b6020808252810161178481612dc2565b6020808252810161178481612e21565b6020808252810161178481612e6f565b6020808252810161178481612ece565b6020808252810161178481612f1f565b6020808252810161178481612f77565b6020808252810161178481612fc3565b6020808252810161178481612ff4565b60608101611784828461304c565b61012081016134c2828c612709565b6134cf602083018b612572565b81810360408301526134e1818a61258a565b905081810360608301526134f581896126b2565b905081810360808301526135098188612651565b905081810360a083015261351d81876125e3565b905061352c60c0830186612709565b61353960e0830185612709565b81810361010083015261354c8184612723565b9b9a5050505050505050505050565b610120810161356a828c612709565b613577602083018b612581565b613584604083018a612709565b6135916060830189612709565b61359e6080830188612709565b6135ab60a0830187612709565b6135b860c0830186612709565b6135c560e0830185612700565b6135d3610100830184612700565b9a9950505050505050505050565b604081016131018285612709565b60405181810167ffffffffffffffff8111828210171561360e57600080fd5b604052919050565b600067ffffffffffffffff82111561362d57600080fd5b5060209081020190565b600067ffffffffffffffff82111561364e57600080fd5b506020601f91909101601f19160190565b60200190565b60009081526020902090565b5190565b90815260200190565b600061178482613698565b151590565b80610aa58161372b565b6001600160a01b031690565b60ff1690565b6001600160601b031690565b6000611784825b60006117848261367e565b60006117848261368e565b600061178482610534565b6000611784826136aa565b82818337506000910152565b60005b838110156137105781810151838201526020016136f8565b838111156110685750506000910152565b601f01601f191690565b60088110611ff757fe5b61373e8161367e565b8114611ff757600080fd5b61373e81613689565b61373e81610534565b61373e816136a4565b61373e816136aa56fea365627a7a723158204743726ecbb572ddc138728d1e3e23da3c7827a7111a7807a01abbee58172d216c6578706572696d656e74616cf564736f6c63430005100040",
  "linkReferences": {},
  "deployedLinkReferences": {}
}