{
  "_format": "hh-sol-artifact-1",
  "contractName": "InterestRateModelLens",
  "sourceName": "contracts/Lens/InterestRateModelLens.sol",
  "abi": [
    {
      "constant": true,
      "inputs": [
        {
          "internalType": "uint256",
          "name": "referenceAmountInWei",
          "type": "uint256"
        },
        {
          "internalType": "address",
          "name": "interestRateModel",
          "type": "address"
        },
        {
          "internalType": "uint256",
          "name": "reserveFactorMantissa",
          "type": "uint256"
        }
      ],
      "name": "getSimulationResponse",
      "outputs": [
        {
          "components": [
            {
              "internalType": "uint256[]",
              "name": "borrowSimulation",
              "type": "uint256[]"
            },
            {
              "internalType": "uint256[]",
              "name": "supplySimulation",
              "type": "uint256[]"
            }
          ],
          "internalType": "struct InterestRateModelLens.SimulationResponse",
          "name": "",
          "type": "tuple"
        }
      ],
      "payable": false,
      "stateMutability": "view",
      "type": "function"
    }
  ],
  "bytecode": "0x608060405234801561001057600080fd5b50610643806100206000396000f3fe608060405234801561001057600080fd5b506004361061002b5760003560e01c8063ef4d43a214610030575b600080fd5b61004361003e366004610371565b610059565b6040516100509190610511565b60405180910390f35b610061610310565b604080516064808252610ca0820190925284916060919060208201610c80803883395050604080516064808252610ca08201909252929350606092915060208201610c808038833901905050905086600060015b606481116102325760006100e060646100d4848e63ffffffff61025016565b9063ffffffff61029c16565b90506000876001600160a01b03166315f240538387876040518463ffffffff1660e01b815260040161011493929190610522565b60206040518083038186803b15801561012c57600080fd5b505afa158015610140573d6000803e3d6000fd5b505050506040513d601f19601f82011682018060405250610164919081019061034b565b90508087600185038151811061017657fe5b6020026020010181815250506000886001600160a01b031663b81688168488888f6040518563ffffffff1660e01b81526004016101b6949392919061054a565b60206040518083038186803b1580156101ce57600080fd5b505afa1580156101e2573d6000803e3d6000fd5b505050506040513d601f19601f82011682018060405250610206919081019061034b565b90508087600186038151811061021857fe5b6020026020010181815250505050508060010190506100b5565b50506040805180820190915292835250602082015295945050505050565b60008261025f57506000610296565b8282028284828161026c57fe5b04146102935760405162461bcd60e51b815260040161028a90610501565b60405180910390fd5b90505b92915050565b600061029383836040518060400160405280601a81526020017f536166654d6174683a206469766973696f6e206279207a65726f000000000000815250600081836102fa5760405162461bcd60e51b815260040161028a91906104f0565b50600083858161030657fe5b0495945050505050565b604051806040016040528060608152602001606081525090565b8035610296816105e0565b8035610296816105f7565b8051610296816105f7565b60006020828403121561035d57600080fd5b60006103698484610340565b949350505050565b60008060006060848603121561038657600080fd5b60006103928686610335565b93505060206103a38682870161032a565b92505060406103b486828701610335565b9150509250925092565b60006103ca83836104e1565b505060200190565b60006103dd82610585565b6103e78185610589565b93506103f28361057f565b8060005b8381101561042057815161040a88826103be565b97506104158361057f565b9250506001016103f6565b509495945050505050565b600061043682610585565b6104408185610589565b93506104508185602086016105a6565b610459816105d6565b9093019392505050565b6000610470602183610589565b7f536166654d6174683a206d756c7469706c69636174696f6e206f766572666c6f8152607760f81b602082015260400192915050565b80516040808452600091908401906104be82826103d2565b915050602083015184820360208601526104d882826103d2565b95945050505050565b6104ea816105a3565b82525050565b60208082528101610293818461042b565b6020808252810161029681610463565b6020808252810161029381846104a6565b6060810161053082866104e1565b61053d60208301856104e1565b61036960408301846104e1565b6080810161055882876104e1565b61056560208301866104e1565b61057260408301856104e1565b6104d860608301846104e1565b60200190565b5190565b90815260200190565b60006001600160a01b038216610296565b90565b60005b838110156105c15781810151838201526020016105a9565b838111156105d0576000848401525b50505050565b601f01601f191690565b6105e981610592565b81146105f457600080fd5b50565b6105e9816105a356fea365627a7a723158203e126ee791cbdb5b46b22dc078ac796a967a6f4398d0db40fdb94e34598869546c6578706572696d656e74616cf564736f6c63430005100040",
  "linkReferences": {},
  "deployedLinkReferences": {}
}