{
  "_format": "hh-sol-artifact-1",
  "contractName": "LiquidatorHarness",
  "sourceName": "contracts/test/LiquidatorHarness.sol",
  "abi": [
    {
      "inputs": [
        {
          "internalType": "address",
          "name": "admin_",
          "type": "address"
        },
        {
          "internalType": "address payable",
          "name": "vBnb_",
          "type": "address"
        },
        {
          "internalType": "address",
          "name": "comptroller_",
          "type": "address"
        },
        {
          "internalType": "address",
          "name": "vaiController_",
          "type": "address"
        },
        {
          "internalType": "address",
          "name": "treasury_",
          "type": "address"
        },
        {
          "internalType": "uint256",
          "name": "treasuryPercentMantissa_",
          "type": "uint256"
        }
      ],
      "payable": false,
      "stateMutability": "nonpayable",
      "type": "constructor"
    },
    {
      "anonymous": false,
      "inputs": [
        {
          "indexed": false,
          "internalType": "uint256",
          "name": "seizeTokensForTreasury",
          "type": "uint256"
        },
        {
          "indexed": false,
          "internalType": "uint256",
          "name": "seizeTokensForLiquidator",
          "type": "uint256"
        }
      ],
      "name": "DistributeLiquidationIncentive",
      "type": "event"
    },
    {
      "anonymous": false,
      "inputs": [
        {
          "indexed": false,
          "internalType": "address",
          "name": "liquidator",
          "type": "address"
        },
        {
          "indexed": false,
          "internalType": "address",
          "name": "borrower",
          "type": "address"
        },
        {
          "indexed": false,
          "internalType": "uint256",
          "name": "repayAmount",
          "type": "uint256"
        },
        {
          "indexed": false,
          "internalType": "address",
          "name": "vTokenCollateral",
          "type": "address"
        },
        {
          "indexed": false,
          "internalType": "uint256",
          "name": "seizeTokensForTreasury",
          "type": "uint256"
        },
        {
          "indexed": false,
          "internalType": "uint256",
          "name": "seizeTokensForLiquidator",
          "type": "uint256"
        }
      ],
      "name": "LiquidateBorrowedTokens",
      "type": "event"
    },
    {
      "anonymous": false,
      "inputs": [
        {
          "indexed": false,
          "internalType": "address",
          "name": "oldAdmin",
          "type": "address"
        },
        {
          "indexed": false,
          "internalType": "address",
          "name": "newAdmin",
          "type": "address"
        }
      ],
      "name": "NewAdmin",
      "type": "event"
    },
    {
      "anonymous": false,
      "inputs": [
        {
          "indexed": false,
          "internalType": "uint256",
          "name": "oldPercent",
          "type": "uint256"
        },
        {
          "indexed": false,
          "internalType": "uint256",
          "name": "newPercent",
          "type": "uint256"
        }
      ],
      "name": "NewLiquidationTreasuryPercent",
      "type": "event"
    },
    {
      "anonymous": false,
      "inputs": [
        {
          "indexed": false,
          "internalType": "address",
          "name": "oldPendingAdmin",
          "type": "address"
        },
        {
          "indexed": false,
          "internalType": "address",
          "name": "newPendingAdmin",
          "type": "address"
        }
      ],
      "name": "NewPendingAdmin",
      "type": "event"
    },
    {
      "constant": false,
      "inputs": [],
      "name": "_acceptAdmin",
      "outputs": [],
      "payable": false,
      "stateMutability": "nonpayable",
      "type": "function"
    },
    {
      "constant": true,
      "inputs": [],
      "name": "_notEntered",
      "outputs": [
        {
          "internalType": "bool",
          "name": "",
          "type": "bool"
        }
      ],
      "payable": false,
      "stateMutability": "view",
      "type": "function"
    },
    {
      "constant": false,
      "inputs": [
        {
          "internalType": "address",
          "name": "newPendingAdmin",
          "type": "address"
        }
      ],
      "name": "_setPendingAdmin",
      "outputs": [],
      "payable": false,
      "stateMutability": "nonpayable",
      "type": "function"
    },
    {
      "constant": true,
      "inputs": [],
      "name": "admin",
      "outputs": [
        {
          "internalType": "address",
          "name": "",
          "type": "address"
        }
      ],
      "payable": false,
      "stateMutability": "view",
      "type": "function"
    },
    {
      "constant": false,
      "inputs": [
        {
          "internalType": "contract VToken",
          "name": "vTokenCollateral",
          "type": "address"
        },
        {
          "internalType": "uint256",
          "name": "siezedAmount",
          "type": "uint256"
        }
      ],
      "name": "distributeLiquidationIncentive",
      "outputs": [
        {
          "internalType": "uint256",
          "name": "ours",
          "type": "uint256"
        },
        {
          "internalType": "uint256",
          "name": "theirs",
          "type": "uint256"
        }
      ],
      "payable": false,
      "stateMutability": "nonpayable",
      "type": "function"
    },
    {
      "constant": false,
      "inputs": [
        {
          "internalType": "address",
          "name": "vToken",
          "type": "address"
        },
        {
          "internalType": "address",
          "name": "borrower",
          "type": "address"
        },
        {
          "internalType": "uint256",
          "name": "repayAmount",
          "type": "uint256"
        },
        {
          "internalType": "contract VToken",
          "name": "vTokenCollateral",
          "type": "address"
        }
      ],
      "name": "liquidateBorrow",
      "outputs": [],
      "payable": true,
      "stateMutability": "payable",
      "type": "function"
    },
    {
      "constant": true,
      "inputs": [],
      "name": "pendingAdmin",
      "outputs": [
        {
          "internalType": "address",
          "name": "",
          "type": "address"
        }
      ],
      "payable": false,
      "stateMutability": "view",
      "type": "function"
    },
    {
      "constant": false,
      "inputs": [
        {
          "internalType": "uint256",
          "name": "newTreasuryPercentMantissa",
          "type": "uint256"
        }
      ],
      "name": "setTreasuryPercent",
      "outputs": [],
      "payable": false,
      "stateMutability": "nonpayable",
      "type": "function"
    },
    {
      "constant": true,
      "inputs": [
        {
          "internalType": "uint256",
          "name": "seizedAmount",
          "type": "uint256"
        }
      ],
      "name": "splitLiquidationIncentive",
      "outputs": [
        {
          "internalType": "uint256",
          "name": "ours",
          "type": "uint256"
        },
        {
          "internalType": "uint256",
          "name": "theirs",
          "type": "uint256"
        }
      ],
      "payable": false,
      "stateMutability": "view",
      "type": "function"
    },
    {
      "constant": true,
      "inputs": [],
      "name": "treasury",
      "outputs": [
        {
          "internalType": "address",
          "name": "",
          "type": "address"
        }
      ],
      "payable": false,
      "stateMutability": "view",
      "type": "function"
    },
    {
      "constant": true,
      "inputs": [],
      "name": "treasuryPercentMantissa",
      "outputs": [
        {
          "internalType": "uint256",
          "name": "",
          "type": "uint256"
        }
      ],
      "payable": false,
      "stateMutability": "view",
      "type": "function"
    },
    {
      "constant": true,
      "inputs": [],
      "name": "vBnb",
      "outputs": [
        {
          "internalType": "contract VBNB",
          "name": "",
          "type": "address"
        }
      ],
      "payable": false,
      "stateMutability": "view",
      "type": "function"
    }
  ],
  "bytecode": "0x60806040523480156200001157600080fd5b5060405162001a5f38038062001a5f833981810160405260c08110156200003757600080fd5b508051602082015160408301516060840151608085015160a090950151600080546001600160a01b0387166001600160a01b0319909116179055600180546001600160a81b031916600160a01b1790559394929391929091858585858585620000a9866001600160e01b036200015816565b620000bd856001600160e01b036200015816565b620000d1846001600160e01b036200015816565b620000e5836001600160e01b036200015816565b620000f9826001600160e01b036200015816565b600280546001600160a01b03199081166001600160a01b0397881617909155600380548216958716959095179094556004805485169386169390931790925560058054909316931692909217905560065550620001b795505050505050565b6001600160a01b038116620001b4576040805162461bcd60e51b815260206004820152601960248201527f616464726573732073686f756c64206265206e6f6e7a65726f00000000000000604482015290519081900360640190fd5b50565b61189880620001c76000396000f3fe6080604052600436106100a75760003560e01c8063b71d1a0c11610064578063b71d1a0c14610196578063bbd98d70146101c9578063d8438ae81461021b578063e9c714f214610244578063f2531ea114610259578063f851a44014610283576100a7565b806326782247146100ac5780635ba3792d146100dd57806361d027b3146100f257806364fd70781461010757806389a2bc25146101455780638e3525fc1461016f575b600080fd5b3480156100b857600080fd5b506100c1610298565b604080516001600160a01b039092168252519081900360200190f35b3480156100e957600080fd5b506100c16102a7565b3480156100fe57600080fd5b506100c16102b6565b6101436004803603608081101561011d57600080fd5b506001600160a01b038135811691602081013582169160408201359160600135166102c5565b005b34801561015157600080fd5b506101436004803603602081101561016857600080fd5b5035610610565b34801561017b57600080fd5b5061018461077f565b60408051918252519081900360200190f35b3480156101a257600080fd5b50610143600480360360208110156101b957600080fd5b50356001600160a01b0316610785565b3480156101d557600080fd5b50610202600480360360408110156101ec57600080fd5b506001600160a01b038135169060200135610843565b6040805192835260208301919091528051918290030190f35b34801561022757600080fd5b50610230610896565b604080519115158252519081900360200190f35b34801561025057600080fd5b506101436108a6565b34801561026557600080fd5b506102026004803603602081101561027c57600080fd5b50356109bf565b34801561028f57600080fd5b506100c16109d4565b6001546001600160a01b031681565b6002546001600160a01b031681565b6005546001600160a01b031681565b600154600160a01b900460ff16610310576040805162461bcd60e51b815260206004820152600a6024820152691c994b595b9d195c995960b21b604482015290519081900360640190fd5b6001805460ff60a01b19169055610326836109e3565b604080516370a0823160e01b815230600482015290516000916001600160a01b038416916370a0823191602480820192602092909190829003018186803b15801561037057600080fd5b505afa158015610384573d6000803e3d6000fd5b505050506040513d602081101561039a57600080fd5b50516002549091506001600160a01b038681169116141561046f573483146103f8576040805162461bcd60e51b815260206004820152600c60248201526b1ddc9bdb99c8185b5bdd5b9d60a21b604482015290519081900360640190fd5b60025460408051635572051560e11b81526001600160a01b03878116600483015285811660248301529151919092169163aae40a2a91349160448082019260009290919082900301818588803b15801561045157600080fd5b505af1158015610465573d6000803e3d6000fd5b50505050506104f4565b34156104c2576040805162461bcd60e51b815260206004820152601a60248201527f796f752073686f756c646e27742070617920666f722074686973000000000000604482015290519081900360640190fd5b6004546001600160a01b03868116911614156104e8576104e3848484610a41565b6104f4565b6104f485858585610bc5565b604080516370a0823160e01b815230600482015290516000916001600160a01b038516916370a0823191602480820192602092909190829003018186803b15801561053e57600080fd5b505afa158015610552573d6000803e3d6000fd5b505050506040513d602081101561056857600080fd5b50519050600061057e828463ffffffff610d3316565b905060008061058d8684610d7e565b604080513381526001600160a01b03808d1660208301528183018c90528a1660608201526080810184905260a0810183905290519294509092507fd71542567e4876e606f2a1dc04c1b26f3cf39cb975eb0a65aef3c98842410583919081900360c00190a150506001805460ff60a01b1916600160a01b17905550505050505050565b6000546001600160a01b03163314610664576040805162461bcd60e51b81526020600482015260126024820152711bdb9b1e4818591b5a5b88185b1b1bddd95960721b604482015290519081900360640190fd5b6106f6670de0b6b3a7640000600360009054906101000a90046001600160a01b03166001600160a01b0316634ada90af6040518163ffffffff1660e01b815260040160206040518083038186803b1580156106be57600080fd5b505afa1580156106d2573d6000803e3d6000fd5b505050506040513d60208110156106e857600080fd5b50519063ffffffff610d3316565b81111561073d576040805162461bcd60e51b815260206004820152601060248201526f617070657469746520746f6f2062696760801b604482015290519081900360640190fd5b600654604080519182526020820183905280517f0e9a1641744b21c49e4183ab9ce941d420e05a05a446c71875fb07814f362c1a9281900390910190a1600655565b60065481565b6000546001600160a01b031633146107d9576040805162461bcd60e51b81526020600482015260126024820152711bdb9b1e4818591b5a5b88185b1b1bddd95960721b604482015290519081900360640190fd5b600154604080516001600160a01b039283168152918316602083015280517fca4f2f25d0898edd99413412fb94012f9e54ec8142f9b093e7720646a95b16a99281900390910190a1600180546001600160a01b0319166001600160a01b0392909216919091179055565b6000806108508484610d7e565b604080518381526020810183905281519395509193507f965c73d6a816dcbe4cc33516168787cb029afb2156ec3372a16e8c6cfbbe6e2292918290030190a19250929050565b600154600160a01b900460ff1681565b6001546001600160a01b03163314610905576040805162461bcd60e51b815260206004820152601a60248201527f6f6e6c792070656e64696e672061646d696e20616c6c6f776564000000000000604482015290519081900360640190fd5b600154604080516001600160a01b0390921682526000602083015280517fca4f2f25d0898edd99413412fb94012f9e54ec8142f9b093e7720646a95b16a99281900390910190a1600054600154604080516001600160a01b03938416815292909116602083015280517ff9ffabca9c8276e99321725bcb43fb076a6c66a54b7f21c4e8146d8519b417dc9281900390910190a160018054600080546001600160a01b03199081166001600160a01b03841617909155169055565b6000806109cb83610f37565b91509150915091565b6000546001600160a01b031681565b6001600160a01b038116610a3e576040805162461bcd60e51b815260206004820152601960248201527f616464726573732073686f756c64206265206e6f6e7a65726f00000000000000604482015290519081900360640190fd5b50565b6000600460009054906101000a90046001600160a01b03166001600160a01b031663cbeb2b286040518163ffffffff1660e01b815260040160206040518083038186803b158015610a9157600080fd5b505afa158015610aa5573d6000803e3d6000fd5b505050506040513d6020811015610abb57600080fd5b50519050610ada6001600160a01b03821633308663ffffffff61102016565b600454610afa906001600160a01b0383811691168563ffffffff61108016565b60048054604080516311b3d5e760e01b81526001600160a01b03888116948201949094526024810187905285841660448201528151600094909316926311b3d5e79260648084019391929182900301818787803b158015610b5a57600080fd5b505af1158015610b6e573d6000803e3d6000fd5b505050506040513d6040811015610b8457600080fd5b50516040805180820190915260138152726661696c656420746f206c697175696461746560681b6020820152909150610bbe908290611198565b5050505050565b6000846001600160a01b0316636f307dc36040518163ffffffff1660e01b815260040160206040518083038186803b158015610c0057600080fd5b505afa158015610c14573d6000803e3d6000fd5b505050506040513d6020811015610c2a57600080fd5b505190506000610c3c8233308761138e565b9050610c596001600160a01b03831687600063ffffffff61108016565b610c736001600160a01b038316878363ffffffff61108016565b60408051637af1e23160e11b81526001600160a01b0387811660048301526024820184905285811660448301529151610d2b9289169163f5e3c4629160648083019260209291908290030181600087803b158015610cd057600080fd5b505af1158015610ce4573d6000803e3d6000fd5b505050506040513d6020811015610cfa57600080fd5b50516040805180820190915260138152726661696c656420746f206c697175696461746560681b6020820152611198565b505050505050565b6000610d7583836040518060400160405280601e81526020017f536166654d6174683a207375627472616374696f6e206f766572666c6f770000815250611494565b90505b92915050565b600080610d8a83610f37565b6040805163a9059cbb60e01b81523360048201526024810183905290519294509092506001600160a01b0386169163a9059cbb916044808201926020929091908290030181600087803b158015610de057600080fd5b505af1158015610df4573d6000803e3d6000fd5b505050506040513d6020811015610e0a57600080fd5b5051610e5d576040805162461bcd60e51b815260206004820181905260248201527f6661696c656420746f207472616e7366657220746f206c697175696461746f72604482015290519081900360640190fd5b6005546040805163a9059cbb60e01b81526001600160a01b0392831660048201526024810185905290519186169163a9059cbb916044808201926020929091908290030181600087803b158015610eb357600080fd5b505af1158015610ec7573d6000803e3d6000fd5b505050506040513d6020811015610edd57600080fd5b5051610f30576040805162461bcd60e51b815260206004820152601e60248201527f6661696c656420746f207472616e7366657220746f2074726561737572790000604482015290519081900360640190fd5b9250929050565b6000806000600360009054906101000a90046001600160a01b03166001600160a01b0316634ada90af6040518163ffffffff1660e01b815260040160206040518083038186803b158015610f8a57600080fd5b505afa158015610f9e573d6000803e3d6000fd5b505050506040513d6020811015610fb457600080fd5b505190506000610fe282610fd687670de0b6b3a764000063ffffffff6114ee16565b9063ffffffff61154716565b9050611005670de0b6b3a7640000610fd6600654846114ee90919063ffffffff16565b9350611017858563ffffffff610d3316565b92505050915091565b604080516001600160a01b0385811660248301528416604482015260648082018490528251808303909101815260849091019091526020810180516001600160e01b03166323b872dd60e01b17905261107a908590611589565b50505050565b801580611106575060408051636eb1769f60e11b81523060048201526001600160a01b03848116602483015291519185169163dd62ed3e91604480820192602092909190829003018186803b1580156110d857600080fd5b505afa1580156110ec573d6000803e3d6000fd5b505050506040513d602081101561110257600080fd5b5051155b6111415760405162461bcd60e51b815260040180806020018281038252603681526020018061182e6036913960400191505060405180910390fd5b604080516001600160a01b038416602482015260448082018490528251808303909101815260649091019091526020810180516001600160e01b031663095ea7b360e01b179052611193908490611589565b505050565b816111a25761138a565b606081516005016040519080825280601f01601f1916602001820160405280156111d3576020820181803883390190505b50905060005b8251811015611224578281815181106111ee57fe5b602001015160f81c60f81b82828151811061120557fe5b60200101906001600160f81b031916908160001a9053506001016111d9565b8151600160fd1b9083908390811061123857fe5b60200101906001600160f81b031916908160001a905350602860f81b82826001018151811061126357fe5b60200101906001600160f81b031916908160001a905350600a840460300160f81b82826002018151811061129357fe5b60200101906001600160f81b031916908160001a905350600a840660300160f81b8282600301815181106112c357fe5b60200101906001600160f81b031916908160001a905350602960f81b8282600401815181106112ee57fe5b60200101906001600160f81b031916908160001a9053508160405162461bcd60e51b81526004018080602001828103825283818151815260200191508051906020019080838360005b8381101561134f578181015183820152602001611337565b50505050905090810190601f16801561137c5780820380516001836020036101000a031916815260200191505b509250505060405180910390fd5b5050565b600080856001600160a01b03166370a08231856040518263ffffffff1660e01b815260040180826001600160a01b03166001600160a01b0316815260200191505060206040518083038186803b1580156113e757600080fd5b505afa1580156113fb573d6000803e3d6000fd5b505050506040513d602081101561141157600080fd5b505190506114306001600160a01b03871686868663ffffffff61102016565b61148a81876001600160a01b03166370a08231876040518263ffffffff1660e01b815260040180826001600160a01b03166001600160a01b0316815260200191505060206040518083038186803b1580156106be57600080fd5b9695505050505050565b600081848411156114e65760405162461bcd60e51b815260206004820181815283516024840152835190928392604490910191908501908083836000831561134f578181015183820152602001611337565b505050900390565b6000826114fd57506000610d78565b8282028284828161150a57fe5b0414610d755760405162461bcd60e51b815260040180806020018281038252602181526020018061180d6021913960400191505060405180910390fd5b6000610d7583836040518060400160405280601a81526020017f536166654d6174683a206469766973696f6e206279207a65726f000000000000815250611741565b61159b826001600160a01b03166117a6565b6115ec576040805162461bcd60e51b815260206004820152601f60248201527f5361666542455032303a2063616c6c20746f206e6f6e2d636f6e747261637400604482015290519081900360640190fd5b60006060836001600160a01b0316836040518082805190602001908083835b6020831061162a5780518252601f19909201916020918201910161160b565b6001836020036101000a0380198251168184511680821785525050505050509050019150506000604051808303816000865af19150503d806000811461168c576040519150601f19603f3d011682016040523d82523d6000602084013e611691565b606091505b5091509150816116e8576040805162461bcd60e51b815260206004820181905260248201527f5361666542455032303a206c6f772d6c6576656c2063616c6c206661696c6564604482015290519081900360640190fd5b80511561107a5780806020019051602081101561170457600080fd5b505161107a5760405162461bcd60e51b815260040180806020018281038252602a8152602001806117e3602a913960400191505060405180910390fd5b600081836117905760405162461bcd60e51b815260206004820181815283516024840152835190928392604490910191908501908083836000831561134f578181015183820152602001611337565b50600083858161179c57fe5b0495945050505050565b6000813f7fc5d2460186f7233c927e7db2dcc703c0e500b653ca82273b7bfad8045d85a4708181148015906117da57508115155b94935050505056fe5361666542455032303a204245503230206f7065726174696f6e20646964206e6f742073756363656564536166654d6174683a206d756c7469706c69636174696f6e206f766572666c6f775361666542455032303a20617070726f76652066726f6d206e6f6e2d7a65726f20746f206e6f6e2d7a65726f20616c6c6f77616e6365a265627a7a72315820f35e7ba68cbbc2c6c9d2695f91328462200dee51ec2e66d59a7cd19764b1a81664736f6c63430005100032",
  "linkReferences": {},
  "deployedLinkReferences": {}
}