{
  "_format": "hh-sol-artifact-1",
  "contractName": "Liquidator",
  "sourceName": "contracts/Liquidator.sol",
  "abi": [
    {
      "inputs": [
        {
          "internalType": "address",
          "name": "admin_",
          "type": "address"
        },
        {
          "internalType": "address payable",
          "name": "vBnb_",
          "type": "address"
        },
        {
          "internalType": "address",
          "name": "comptroller_",
          "type": "address"
        },
        {
          "internalType": "address",
          "name": "vaiController_",
          "type": "address"
        },
        {
          "internalType": "address",
          "name": "treasury_",
          "type": "address"
        },
        {
          "internalType": "uint256",
          "name": "treasuryPercentMantissa_",
          "type": "uint256"
        }
      ],
      "payable": false,
      "stateMutability": "nonpayable",
      "type": "constructor"
    },
    {
      "anonymous": false,
      "inputs": [
        {
          "indexed": false,
          "internalType": "address",
          "name": "liquidator",
          "type": "address"
        },
        {
          "indexed": false,
          "internalType": "address",
          "name": "borrower",
          "type": "address"
        },
        {
          "indexed": false,
          "internalType": "uint256",
          "name": "repayAmount",
          "type": "uint256"
        },
        {
          "indexed": false,
          "internalType": "address",
          "name": "vTokenCollateral",
          "type": "address"
        },
        {
          "indexed": false,
          "internalType": "uint256",
          "name": "seizeTokensForTreasury",
          "type": "uint256"
        },
        {
          "indexed": false,
          "internalType": "uint256",
          "name": "seizeTokensForLiquidator",
          "type": "uint256"
        }
      ],
      "name": "LiquidateBorrowedTokens",
      "type": "event"
    },
    {
      "anonymous": false,
      "inputs": [
        {
          "indexed": false,
          "internalType": "address",
          "name": "oldAdmin",
          "type": "address"
        },
        {
          "indexed": false,
          "internalType": "address",
          "name": "newAdmin",
          "type": "address"
        }
      ],
      "name": "NewAdmin",
      "type": "event"
    },
    {
      "anonymous": false,
      "inputs": [
        {
          "indexed": false,
          "internalType": "uint256",
          "name": "oldPercent",
          "type": "uint256"
        },
        {
          "indexed": false,
          "internalType": "uint256",
          "name": "newPercent",
          "type": "uint256"
        }
      ],
      "name": "NewLiquidationTreasuryPercent",
      "type": "event"
    },
    {
      "anonymous": false,
      "inputs": [
        {
          "indexed": false,
          "internalType": "address",
          "name": "oldPendingAdmin",
          "type": "address"
        },
        {
          "indexed": false,
          "internalType": "address",
          "name": "newPendingAdmin",
          "type": "address"
        }
      ],
      "name": "NewPendingAdmin",
      "type": "event"
    },
    {
      "constant": false,
      "inputs": [],
      "name": "_acceptAdmin",
      "outputs": [],
      "payable": false,
      "stateMutability": "nonpayable",
      "type": "function"
    },
    {
      "constant": true,
      "inputs": [],
      "name": "_notEntered",
      "outputs": [
        {
          "internalType": "bool",
          "name": "",
          "type": "bool"
        }
      ],
      "payable": false,
      "stateMutability": "view",
      "type": "function"
    },
    {
      "constant": false,
      "inputs": [
        {
          "internalType": "address",
          "name": "newPendingAdmin",
          "type": "address"
        }
      ],
      "name": "_setPendingAdmin",
      "outputs": [],
      "payable": false,
      "stateMutability": "nonpayable",
      "type": "function"
    },
    {
      "constant": true,
      "inputs": [],
      "name": "admin",
      "outputs": [
        {
          "internalType": "address",
          "name": "",
          "type": "address"
        }
      ],
      "payable": false,
      "stateMutability": "view",
      "type": "function"
    },
    {
      "constant": false,
      "inputs": [
        {
          "internalType": "address",
          "name": "vToken",
          "type": "address"
        },
        {
          "internalType": "address",
          "name": "borrower",
          "type": "address"
        },
        {
          "internalType": "uint256",
          "name": "repayAmount",
          "type": "uint256"
        },
        {
          "internalType": "contract VToken",
          "name": "vTokenCollateral",
          "type": "address"
        }
      ],
      "name": "liquidateBorrow",
      "outputs": [],
      "payable": true,
      "stateMutability": "payable",
      "type": "function"
    },
    {
      "constant": true,
      "inputs": [],
      "name": "pendingAdmin",
      "outputs": [
        {
          "internalType": "address",
          "name": "",
          "type": "address"
        }
      ],
      "payable": false,
      "stateMutability": "view",
      "type": "function"
    },
    {
      "constant": false,
      "inputs": [
        {
          "internalType": "uint256",
          "name": "newTreasuryPercentMantissa",
          "type": "uint256"
        }
      ],
      "name": "setTreasuryPercent",
      "outputs": [],
      "payable": false,
      "stateMutability": "nonpayable",
      "type": "function"
    },
    {
      "constant": true,
      "inputs": [],
      "name": "treasury",
      "outputs": [
        {
          "internalType": "address",
          "name": "",
          "type": "address"
        }
      ],
      "payable": false,
      "stateMutability": "view",
      "type": "function"
    },
    {
      "constant": true,
      "inputs": [],
      "name": "treasuryPercentMantissa",
      "outputs": [
        {
          "internalType": "uint256",
          "name": "",
          "type": "uint256"
        }
      ],
      "payable": false,
      "stateMutability": "view",
      "type": "function"
    },
    {
      "constant": true,
      "inputs": [],
      "name": "vBnb",
      "outputs": [
        {
          "internalType": "contract VBNB",
          "name": "",
          "type": "address"
        }
      ],
      "payable": false,
      "stateMutability": "view",
      "type": "function"
    }
  ],
  "bytecode": "0x60806040523480156200001157600080fd5b506040516200195838038062001958833981810160405260c08110156200003757600080fd5b508051602082015160408301516060840151608085015160a090950151600080546001600160a01b0387166001600160a01b0319909116179055600180546001600160a81b031916600160a01b1790559394929391929091620000a3866001600160e01b036200014b16565b620000b7856001600160e01b036200014b16565b620000cb846001600160e01b036200014b16565b620000df836001600160e01b036200014b16565b620000f3826001600160e01b036200014b16565b600280546001600160a01b03199081166001600160a01b0397881617909155600380548216958716959095179094556004805485169386169390931790925560058054909316931692909217905560065550620001aa565b6001600160a01b038116620001a7576040805162461bcd60e51b815260206004820152601960248201527f616464726573732073686f756c64206265206e6f6e7a65726f00000000000000604482015290519081900360640190fd5b50565b61179e80620001ba6000396000f3fe6080604052600436106100915760003560e01c80638e3525fc116100595780638e3525fc14610159578063b71d1a0c14610180578063d8438ae8146101b3578063e9c714f2146101dc578063f851a440146101f157610091565b806326782247146100965780635ba3792d146100c757806361d027b3146100dc57806364fd7078146100f157806389a2bc251461012f575b600080fd5b3480156100a257600080fd5b506100ab610206565b604080516001600160a01b039092168252519081900360200190f35b3480156100d357600080fd5b506100ab610215565b3480156100e857600080fd5b506100ab610224565b61012d6004803603608081101561010757600080fd5b506001600160a01b03813581169160208101358216916040820135916060013516610233565b005b34801561013b57600080fd5b5061012d6004803603602081101561015257600080fd5b503561057e565b34801561016557600080fd5b5061016e6106ed565b60408051918252519081900360200190f35b34801561018c57600080fd5b5061012d600480360360208110156101a357600080fd5b50356001600160a01b03166106f3565b3480156101bf57600080fd5b506101c86107b1565b604080519115158252519081900360200190f35b3480156101e857600080fd5b5061012d6107c1565b3480156101fd57600080fd5b506100ab6108da565b6001546001600160a01b031681565b6002546001600160a01b031681565b6005546001600160a01b031681565b600154600160a01b900460ff1661027e576040805162461bcd60e51b815260206004820152600a6024820152691c994b595b9d195c995960b21b604482015290519081900360640190fd5b6001805460ff60a01b19169055610294836108e9565b604080516370a0823160e01b815230600482015290516000916001600160a01b038416916370a0823191602480820192602092909190829003018186803b1580156102de57600080fd5b505afa1580156102f2573d6000803e3d6000fd5b505050506040513d602081101561030857600080fd5b50516002549091506001600160a01b03868116911614156103dd57348314610366576040805162461bcd60e51b815260206004820152600c60248201526b1ddc9bdb99c8185b5bdd5b9d60a21b604482015290519081900360640190fd5b60025460408051635572051560e11b81526001600160a01b03878116600483015285811660248301529151919092169163aae40a2a91349160448082019260009290919082900301818588803b1580156103bf57600080fd5b505af11580156103d3573d6000803e3d6000fd5b5050505050610462565b3415610430576040805162461bcd60e51b815260206004820152601a60248201527f796f752073686f756c646e27742070617920666f722074686973000000000000604482015290519081900360640190fd5b6004546001600160a01b038681169116141561045657610451848484610947565b610462565b61046285858585610acb565b604080516370a0823160e01b815230600482015290516000916001600160a01b038516916370a0823191602480820192602092909190829003018186803b1580156104ac57600080fd5b505afa1580156104c0573d6000803e3d6000fd5b505050506040513d60208110156104d657600080fd5b5051905060006104ec828463ffffffff610c3916565b90506000806104fb8684610c84565b604080513381526001600160a01b03808d1660208301528183018c90528a1660608201526080810184905260a0810183905290519294509092507fd71542567e4876e606f2a1dc04c1b26f3cf39cb975eb0a65aef3c98842410583919081900360c00190a150506001805460ff60a01b1916600160a01b17905550505050505050565b6000546001600160a01b031633146105d2576040805162461bcd60e51b81526020600482015260126024820152711bdb9b1e4818591b5a5b88185b1b1bddd95960721b604482015290519081900360640190fd5b610664670de0b6b3a7640000600360009054906101000a90046001600160a01b03166001600160a01b0316634ada90af6040518163ffffffff1660e01b815260040160206040518083038186803b15801561062c57600080fd5b505afa158015610640573d6000803e3d6000fd5b505050506040513d602081101561065657600080fd5b50519063ffffffff610c3916565b8111156106ab576040805162461bcd60e51b815260206004820152601060248201526f617070657469746520746f6f2062696760801b604482015290519081900360640190fd5b600654604080519182526020820183905280517f0e9a1641744b21c49e4183ab9ce941d420e05a05a446c71875fb07814f362c1a9281900390910190a1600655565b60065481565b6000546001600160a01b03163314610747576040805162461bcd60e51b81526020600482015260126024820152711bdb9b1e4818591b5a5b88185b1b1bddd95960721b604482015290519081900360640190fd5b600154604080516001600160a01b039283168152918316602083015280517fca4f2f25d0898edd99413412fb94012f9e54ec8142f9b093e7720646a95b16a99281900390910190a1600180546001600160a01b0319166001600160a01b0392909216919091179055565b600154600160a01b900460ff1681565b6001546001600160a01b03163314610820576040805162461bcd60e51b815260206004820152601a60248201527f6f6e6c792070656e64696e672061646d696e20616c6c6f776564000000000000604482015290519081900360640190fd5b600154604080516001600160a01b0390921682526000602083015280517fca4f2f25d0898edd99413412fb94012f9e54ec8142f9b093e7720646a95b16a99281900390910190a1600054600154604080516001600160a01b03938416815292909116602083015280517ff9ffabca9c8276e99321725bcb43fb076a6c66a54b7f21c4e8146d8519b417dc9281900390910190a160018054600080546001600160a01b03199081166001600160a01b03841617909155169055565b6000546001600160a01b031681565b6001600160a01b038116610944576040805162461bcd60e51b815260206004820152601960248201527f616464726573732073686f756c64206265206e6f6e7a65726f00000000000000604482015290519081900360640190fd5b50565b6000600460009054906101000a90046001600160a01b03166001600160a01b031663cbeb2b286040518163ffffffff1660e01b815260040160206040518083038186803b15801561099757600080fd5b505afa1580156109ab573d6000803e3d6000fd5b505050506040513d60208110156109c157600080fd5b505190506109e06001600160a01b03821633308663ffffffff610e3d16565b600454610a00906001600160a01b0383811691168563ffffffff610e9d16565b60048054604080516311b3d5e760e01b81526001600160a01b03888116948201949094526024810187905285841660448201528151600094909316926311b3d5e79260648084019391929182900301818787803b158015610a6057600080fd5b505af1158015610a74573d6000803e3d6000fd5b505050506040513d6040811015610a8a57600080fd5b50516040805180820190915260138152726661696c656420746f206c697175696461746560681b6020820152909150610ac4908290610fb5565b5050505050565b6000846001600160a01b0316636f307dc36040518163ffffffff1660e01b815260040160206040518083038186803b158015610b0657600080fd5b505afa158015610b1a573d6000803e3d6000fd5b505050506040513d6020811015610b3057600080fd5b505190506000610b42823330876111ab565b9050610b5f6001600160a01b03831687600063ffffffff610e9d16565b610b796001600160a01b038316878363ffffffff610e9d16565b60408051637af1e23160e11b81526001600160a01b0387811660048301526024820184905285811660448301529151610c319289169163f5e3c4629160648083019260209291908290030181600087803b158015610bd657600080fd5b505af1158015610bea573d6000803e3d6000fd5b505050506040513d6020811015610c0057600080fd5b50516040805180820190915260138152726661696c656420746f206c697175696461746560681b6020820152610fb5565b505050505050565b6000610c7b83836040518060400160405280601e81526020017f536166654d6174683a207375627472616374696f6e206f766572666c6f7700008152506112b1565b90505b92915050565b600080610c908361130b565b6040805163a9059cbb60e01b81523360048201526024810183905290519294509092506001600160a01b0386169163a9059cbb916044808201926020929091908290030181600087803b158015610ce657600080fd5b505af1158015610cfa573d6000803e3d6000fd5b505050506040513d6020811015610d1057600080fd5b5051610d63576040805162461bcd60e51b815260206004820181905260248201527f6661696c656420746f207472616e7366657220746f206c697175696461746f72604482015290519081900360640190fd5b6005546040805163a9059cbb60e01b81526001600160a01b0392831660048201526024810185905290519186169163a9059cbb916044808201926020929091908290030181600087803b158015610db957600080fd5b505af1158015610dcd573d6000803e3d6000fd5b505050506040513d6020811015610de357600080fd5b5051610e36576040805162461bcd60e51b815260206004820152601e60248201527f6661696c656420746f207472616e7366657220746f2074726561737572790000604482015290519081900360640190fd5b9250929050565b604080516001600160a01b0385811660248301528416604482015260648082018490528251808303909101815260849091019091526020810180516001600160e01b03166323b872dd60e01b179052610e979085906113f4565b50505050565b801580610f23575060408051636eb1769f60e11b81523060048201526001600160a01b03848116602483015291519185169163dd62ed3e91604480820192602092909190829003018186803b158015610ef557600080fd5b505afa158015610f09573d6000803e3d6000fd5b505050506040513d6020811015610f1f57600080fd5b5051155b610f5e5760405162461bcd60e51b81526004018080602001828103825260368152602001806117346036913960400191505060405180910390fd5b604080516001600160a01b038416602482015260448082018490528251808303909101815260649091019091526020810180516001600160e01b031663095ea7b360e01b179052610fb09084906113f4565b505050565b81610fbf576111a7565b606081516005016040519080825280601f01601f191660200182016040528015610ff0576020820181803883390190505b50905060005b82518110156110415782818151811061100b57fe5b602001015160f81c60f81b82828151811061102257fe5b60200101906001600160f81b031916908160001a905350600101610ff6565b8151600160fd1b9083908390811061105557fe5b60200101906001600160f81b031916908160001a905350602860f81b82826001018151811061108057fe5b60200101906001600160f81b031916908160001a905350600a840460300160f81b8282600201815181106110b057fe5b60200101906001600160f81b031916908160001a905350600a840660300160f81b8282600301815181106110e057fe5b60200101906001600160f81b031916908160001a905350602960f81b82826004018151811061110b57fe5b60200101906001600160f81b031916908160001a9053508160405162461bcd60e51b81526004018080602001828103825283818151815260200191508051906020019080838360005b8381101561116c578181015183820152602001611154565b50505050905090810190601f1680156111995780820380516001836020036101000a031916815260200191505b509250505060405180910390fd5b5050565b600080856001600160a01b03166370a08231856040518263ffffffff1660e01b815260040180826001600160a01b03166001600160a01b0316815260200191505060206040518083038186803b15801561120457600080fd5b505afa158015611218573d6000803e3d6000fd5b505050506040513d602081101561122e57600080fd5b5051905061124d6001600160a01b03871686868663ffffffff610e3d16565b6112a781876001600160a01b03166370a08231876040518263ffffffff1660e01b815260040180826001600160a01b03166001600160a01b0316815260200191505060206040518083038186803b15801561062c57600080fd5b9695505050505050565b600081848411156113035760405162461bcd60e51b815260206004820181815283516024840152835190928392604490910191908501908083836000831561116c578181015183820152602001611154565b505050900390565b6000806000600360009054906101000a90046001600160a01b03166001600160a01b0316634ada90af6040518163ffffffff1660e01b815260040160206040518083038186803b15801561135e57600080fd5b505afa158015611372573d6000803e3d6000fd5b505050506040513d602081101561138857600080fd5b5051905060006113b6826113aa87670de0b6b3a764000063ffffffff6115ac16565b9063ffffffff61160516565b90506113d9670de0b6b3a76400006113aa600654846115ac90919063ffffffff16565b93506113eb858563ffffffff610c3916565b92505050915091565b611406826001600160a01b0316611647565b611457576040805162461bcd60e51b815260206004820152601f60248201527f5361666542455032303a2063616c6c20746f206e6f6e2d636f6e747261637400604482015290519081900360640190fd5b60006060836001600160a01b0316836040518082805190602001908083835b602083106114955780518252601f199092019160209182019101611476565b6001836020036101000a0380198251168184511680821785525050505050509050019150506000604051808303816000865af19150503d80600081146114f7576040519150601f19603f3d011682016040523d82523d6000602084013e6114fc565b606091505b509150915081611553576040805162461bcd60e51b815260206004820181905260248201527f5361666542455032303a206c6f772d6c6576656c2063616c6c206661696c6564604482015290519081900360640190fd5b805115610e975780806020019051602081101561156f57600080fd5b5051610e975760405162461bcd60e51b815260040180806020018281038252602a8152602001806116e9602a913960400191505060405180910390fd5b6000826115bb57506000610c7e565b828202828482816115c857fe5b0414610c7b5760405162461bcd60e51b81526004018080602001828103825260218152602001806117136021913960400191505060405180910390fd5b6000610c7b83836040518060400160405280601a81526020017f536166654d6174683a206469766973696f6e206279207a65726f000000000000815250611683565b6000813f7fc5d2460186f7233c927e7db2dcc703c0e500b653ca82273b7bfad8045d85a47081811480159061167b57508115155b949350505050565b600081836116d25760405162461bcd60e51b815260206004820181815283516024840152835190928392604490910191908501908083836000831561116c578181015183820152602001611154565b5060008385816116de57fe5b049594505050505056fe5361666542455032303a204245503230206f7065726174696f6e20646964206e6f742073756363656564536166654d6174683a206d756c7469706c69636174696f6e206f766572666c6f775361666542455032303a20617070726f76652066726f6d206e6f6e2d7a65726f20746f206e6f6e2d7a65726f20616c6c6f77616e6365a265627a7a7231582004717d9d1159c7ccbb1a599b562c8bd21d8ed01bb6dbddfeb42e91e844b8824f64736f6c63430005100032",
  "linkReferences": {},
  "deployedLinkReferences": {}
}