{
  "_format": "hh-sol-artifact-1",
  "contractName": "OwnableContract",
  "sourceName": "contracts/test/WBTC.sol",
  "abi": [
    {
      "anonymous": false,
      "inputs": [
        {
          "indexed": true,
          "internalType": "address",
          "name": "previousOwner",
          "type": "address"
        }
      ],
      "name": "OwnershipRenounced",
      "type": "event"
    },
    {
      "anonymous": false,
      "inputs": [
        {
          "indexed": true,
          "internalType": "address",
          "name": "previousOwner",
          "type": "address"
        },
        {
          "indexed": true,
          "internalType": "address",
          "name": "newOwner",
          "type": "address"
        }
      ],
      "name": "OwnershipTransferred",
      "type": "event"
    },
    {
      "constant": false,
      "inputs": [],
      "name": "claimOwnership",
      "outputs": [],
      "payable": false,
      "stateMutability": "nonpayable",
      "type": "function"
    },
    {
      "constant": true,
      "inputs": [],
      "name": "owner",
      "outputs": [
        {
          "internalType": "address",
          "name": "",
          "type": "address"
        }
      ],
      "payable": false,
      "stateMutability": "view",
      "type": "function"
    },
    {
      "constant": true,
      "inputs": [],
      "name": "pendingOwner",
      "outputs": [
        {
          "internalType": "address",
          "name": "",
          "type": "address"
        }
      ],
      "payable": false,
      "stateMutability": "view",
      "type": "function"
    },
    {
      "constant": false,
      "inputs": [
        {
          "internalType": "contract BEP20Basic",
          "name": "_token",
          "type": "address"
        }
      ],
      "name": "reclaimToken",
      "outputs": [],
      "payable": false,
      "stateMutability": "nonpayable",
      "type": "function"
    },
    {
      "constant": false,
      "inputs": [],
      "name": "renounceOwnership",
      "outputs": [],
      "payable": false,
      "stateMutability": "nonpayable",
      "type": "function"
    },
    {
      "constant": false,
      "inputs": [
        {
          "internalType": "address",
          "name": "newOwner",
          "type": "address"
        }
      ],
      "name": "transferOwnership",
      "outputs": [],
      "payable": false,
      "stateMutability": "nonpayable",
      "type": "function"
    }
  ],
  "bytecode": "0x6080604052600080546001600160a01b0319163317905561044f806100256000396000f3fe608060405234801561001057600080fd5b50600436106100625760003560e01c806317ffc320146100675780634e71e0c81461008f578063715018a6146100975780638da5cb5b1461009f578063e30c3978146100c3578063f2fde38b146100cb575b600080fd5b61008d6004803603602081101561007d57600080fd5b50356001600160a01b03166100f1565b005b61008d6101c7565b61008d610264565b6100a76102e5565b604080516001600160a01b039092168252519081900360200190f35b6100a76102f4565b61008d600480360360208110156100e157600080fd5b50356001600160a01b0316610303565b6000546001600160a01b0316331461012a576040805162461bcd60e51b8152602060048201526000602482015290519081900360640190fd5b604080516370a0823160e01b815230600482015290516000916001600160a01b038416916370a0823191602480820192602092909190829003018186803b15801561017457600080fd5b505afa158015610188573d6000803e3d6000fd5b505050506040513d602081101561019e57600080fd5b50516000549091506101c3906001600160a01b0384811691168363ffffffff61035e16565b5050565b6001546001600160a01b03163314610200576040805162461bcd60e51b8152602060048201526000602482015290519081900360640190fd5b600154600080546040516001600160a01b0393841693909116917f8be0079c531659141344cd1fd0a4f28419497f9722a3daafe3b4186f6b6457e091a360018054600080546001600160a01b03199081166001600160a01b03841617909155169055565b6000546001600160a01b0316331461029d576040805162461bcd60e51b8152602060048201526000602482015290519081900360640190fd5b600080546040516001600160a01b03909116917ff8df31144d9c2f0f6b59d69b8b98abd5459d07f2742c4df920b25aae33c6482091a2600080546001600160a01b0319169055565b6000546001600160a01b031681565b6001546001600160a01b031681565b6000546001600160a01b0316331461033c576040805162461bcd60e51b8152602060048201526000602482015290519081900360640190fd5b600180546001600160a01b0319166001600160a01b0392909216919091179055565b826001600160a01b031663a9059cbb83836040518363ffffffff1660e01b815260040180836001600160a01b03166001600160a01b0316815260200182815260200192505050602060405180830381600087803b1580156103be57600080fd5b505af11580156103d2573d6000803e3d6000fd5b505050506040513d60208110156103e857600080fd5b5051610415576040805162461bcd60e51b8152602060048201526000602482015290519081900360640190fd5b50505056fea265627a7a723158202594489fe0f480c1328083cff2016094dcd7a831f6957ffec5889d56a511aa3864736f6c63430005100032",
  "linkReferences": {},
  "deployedLinkReferences": {}
}