{
  "_format": "hh-sol-artifact-1",
  "contractName": "PausableToken",
  "sourceName": "contracts/test/WBTC.sol",
  "abi": [
    {
      "anonymous": false,
      "inputs": [
        {
          "indexed": true,
          "internalType": "address",
          "name": "owner",
          "type": "address"
        },
        {
          "indexed": true,
          "internalType": "address",
          "name": "spender",
          "type": "address"
        },
        {
          "indexed": false,
          "internalType": "uint256",
          "name": "value",
          "type": "uint256"
        }
      ],
      "name": "Approval",
      "type": "event"
    },
    {
      "anonymous": false,
      "inputs": [
        {
          "indexed": true,
          "internalType": "address",
          "name": "previousOwner",
          "type": "address"
        }
      ],
      "name": "OwnershipRenounced",
      "type": "event"
    },
    {
      "anonymous": false,
      "inputs": [
        {
          "indexed": true,
          "internalType": "address",
          "name": "previousOwner",
          "type": "address"
        },
        {
          "indexed": true,
          "internalType": "address",
          "name": "newOwner",
          "type": "address"
        }
      ],
      "name": "OwnershipTransferred",
      "type": "event"
    },
    {
      "anonymous": false,
      "inputs": [],
      "name": "Pause",
      "type": "event"
    },
    {
      "anonymous": false,
      "inputs": [
        {
          "indexed": true,
          "internalType": "address",
          "name": "from",
          "type": "address"
        },
        {
          "indexed": true,
          "internalType": "address",
          "name": "to",
          "type": "address"
        },
        {
          "indexed": false,
          "internalType": "uint256",
          "name": "value",
          "type": "uint256"
        }
      ],
      "name": "Transfer",
      "type": "event"
    },
    {
      "anonymous": false,
      "inputs": [],
      "name": "Unpause",
      "type": "event"
    },
    {
      "constant": true,
      "inputs": [
        {
          "internalType": "address",
          "name": "_owner",
          "type": "address"
        },
        {
          "internalType": "address",
          "name": "_spender",
          "type": "address"
        }
      ],
      "name": "allowance",
      "outputs": [
        {
          "internalType": "uint256",
          "name": "",
          "type": "uint256"
        }
      ],
      "payable": false,
      "stateMutability": "view",
      "type": "function"
    },
    {
      "constant": false,
      "inputs": [
        {
          "internalType": "address",
          "name": "_spender",
          "type": "address"
        },
        {
          "internalType": "uint256",
          "name": "_value",
          "type": "uint256"
        }
      ],
      "name": "approve",
      "outputs": [
        {
          "internalType": "bool",
          "name": "",
          "type": "bool"
        }
      ],
      "payable": false,
      "stateMutability": "nonpayable",
      "type": "function"
    },
    {
      "constant": true,
      "inputs": [
        {
          "internalType": "address",
          "name": "_owner",
          "type": "address"
        }
      ],
      "name": "balanceOf",
      "outputs": [
        {
          "internalType": "uint256",
          "name": "",
          "type": "uint256"
        }
      ],
      "payable": false,
      "stateMutability": "view",
      "type": "function"
    },
    {
      "constant": false,
      "inputs": [
        {
          "internalType": "address",
          "name": "_spender",
          "type": "address"
        },
        {
          "internalType": "uint256",
          "name": "_subtractedValue",
          "type": "uint256"
        }
      ],
      "name": "decreaseApproval",
      "outputs": [
        {
          "internalType": "bool",
          "name": "success",
          "type": "bool"
        }
      ],
      "payable": false,
      "stateMutability": "nonpayable",
      "type": "function"
    },
    {
      "constant": false,
      "inputs": [
        {
          "internalType": "address",
          "name": "_spender",
          "type": "address"
        },
        {
          "internalType": "uint256",
          "name": "_addedValue",
          "type": "uint256"
        }
      ],
      "name": "increaseApproval",
      "outputs": [
        {
          "internalType": "bool",
          "name": "success",
          "type": "bool"
        }
      ],
      "payable": false,
      "stateMutability": "nonpayable",
      "type": "function"
    },
    {
      "constant": true,
      "inputs": [],
      "name": "owner",
      "outputs": [
        {
          "internalType": "address",
          "name": "",
          "type": "address"
        }
      ],
      "payable": false,
      "stateMutability": "view",
      "type": "function"
    },
    {
      "constant": false,
      "inputs": [],
      "name": "pause",
      "outputs": [],
      "payable": false,
      "stateMutability": "nonpayable",
      "type": "function"
    },
    {
      "constant": true,
      "inputs": [],
      "name": "paused",
      "outputs": [
        {
          "internalType": "bool",
          "name": "",
          "type": "bool"
        }
      ],
      "payable": false,
      "stateMutability": "view",
      "type": "function"
    },
    {
      "constant": false,
      "inputs": [],
      "name": "renounceOwnership",
      "outputs": [],
      "payable": false,
      "stateMutability": "nonpayable",
      "type": "function"
    },
    {
      "constant": true,
      "inputs": [],
      "name": "totalSupply",
      "outputs": [
        {
          "internalType": "uint256",
          "name": "",
          "type": "uint256"
        }
      ],
      "payable": false,
      "stateMutability": "view",
      "type": "function"
    },
    {
      "constant": false,
      "inputs": [
        {
          "internalType": "address",
          "name": "_to",
          "type": "address"
        },
        {
          "internalType": "uint256",
          "name": "_value",
          "type": "uint256"
        }
      ],
      "name": "transfer",
      "outputs": [
        {
          "internalType": "bool",
          "name": "",
          "type": "bool"
        }
      ],
      "payable": false,
      "stateMutability": "nonpayable",
      "type": "function"
    },
    {
      "constant": false,
      "inputs": [
        {
          "internalType": "address",
          "name": "_from",
          "type": "address"
        },
        {
          "internalType": "address",
          "name": "_to",
          "type": "address"
        },
        {
          "internalType": "uint256",
          "name": "_value",
          "type": "uint256"
        }
      ],
      "name": "transferFrom",
      "outputs": [
        {
          "internalType": "bool",
          "name": "",
          "type": "bool"
        }
      ],
      "payable": false,
      "stateMutability": "nonpayable",
      "type": "function"
    },
    {
      "constant": false,
      "inputs": [
        {
          "internalType": "address",
          "name": "_newOwner",
          "type": "address"
        }
      ],
      "name": "transferOwnership",
      "outputs": [],
      "payable": false,
      "stateMutability": "nonpayable",
      "type": "function"
    },
    {
      "constant": false,
      "inputs": [],
      "name": "unpause",
      "outputs": [],
      "payable": false,
      "stateMutability": "nonpayable",
      "type": "function"
    }
  ],
  "bytecode": "0x6080604052600380546001600160a81b03191633179055610c90806100256000396000f3fe608060405234801561001057600080fd5b50600436106100ea5760003560e01c8063715018a61161008c578063a9059cbb11610066578063a9059cbb14610217578063d73dd62314610243578063dd62ed3e1461026f578063f2fde38b1461029d576100ea565b8063715018a6146101e35780638456cb59146101eb5780638da5cb5b146101f3576100ea565b80633f4ba83a116100c85780633f4ba83a1461017f5780635c975abb14610189578063661884631461019157806370a08231146101bd576100ea565b8063095ea7b3146100ef57806318160ddd1461012f57806323b872dd14610149575b600080fd5b61011b6004803603604081101561010557600080fd5b506001600160a01b0381351690602001356102c3565b604080519115158252519081900360200190f35b610137610310565b60408051918252519081900360200190f35b61011b6004803603606081101561015f57600080fd5b506001600160a01b03813581169160208101359091169060400135610316565b610187610365565b005b61011b61040e565b61011b600480360360408110156101a757600080fd5b506001600160a01b03813516906020013561041e565b610137600480360360208110156101d357600080fd5b50356001600160a01b0316610464565b61018761047f565b610187610502565b6101fb6105b2565b604080516001600160a01b039092168252519081900360200190f35b61011b6004803603604081101561022d57600080fd5b506001600160a01b0381351690602001356105c1565b61011b6004803603604081101561025957600080fd5b506001600160a01b038135169060200135610607565b6101376004803603604081101561028557600080fd5b506001600160a01b038135811691602001351661064d565b610187600480360360208110156102b357600080fd5b50356001600160a01b0316610678565b600354600090600160a01b900460ff16156102ff576040805162461bcd60e51b8152602060048201526000602482015290519081900360640190fd5b61030983836106bd565b9392505050565b60015490565b600354600090600160a01b900460ff1615610352576040805162461bcd60e51b8152602060048201526000602482015290519081900360640190fd5b61035d848484610723565b949350505050565b6003546001600160a01b0316331461039e576040805162461bcd60e51b8152602060048201526000602482015290519081900360640190fd5b600354600160a01b900460ff166103d6576040805162461bcd60e51b8152602060048201526000602482015290519081900360640190fd5b6003805460ff60a01b191690556040517f7805862f689e2f13df9f062ff482ad3ad112aca9e0847911ed832e158c525b3390600090a1565b600354600160a01b900460ff1681565b600354600090600160a01b900460ff161561045a576040805162461bcd60e51b8152602060048201526000602482015290519081900360640190fd5b61030983836108fc565b6001600160a01b031660009081526020819052604090205490565b6003546001600160a01b031633146104b8576040805162461bcd60e51b8152602060048201526000602482015290519081900360640190fd5b6003546040516001600160a01b03909116907ff8df31144d9c2f0f6b59d69b8b98abd5459d07f2742c4df920b25aae33c6482090600090a2600380546001600160a01b0319169055565b6003546001600160a01b0316331461053b576040805162461bcd60e51b8152602060048201526000602482015290519081900360640190fd5b600354600160a01b900460ff1615610574576040805162461bcd60e51b8152602060048201526000602482015290519081900360640190fd5b6003805460ff60a01b1916600160a01b1790556040517f6985a02210a168e66602d3235cb6db0e70f92b3ba4d376a33c0f3d9434bff62590600090a1565b6003546001600160a01b031681565b600354600090600160a01b900460ff16156105fd576040805162461bcd60e51b8152602060048201526000602482015290519081900360640190fd5b61030983836109eb565b600354600090600160a01b900460ff1615610643576040805162461bcd60e51b8152602060048201526000602482015290519081900360640190fd5b6103098383610b0c565b6001600160a01b03918216600090815260026020908152604080832093909416825291909152205490565b6003546001600160a01b031633146106b1576040805162461bcd60e51b8152602060048201526000602482015290519081900360640190fd5b6106ba81610ba5565b50565b3360008181526002602090815260408083206001600160a01b038716808552908352818420869055815186815291519394909390927f8c5be1e5ebec7d5bd14f71427d1e84f3dd0314c0f7b2291e5b200ac8c7c3b925928290030190a350600192915050565b6001600160a01b03831660009081526020819052604081205482111561076a576040805162461bcd60e51b8152602060048201526000602482015290519081900360640190fd5b6001600160a01b03841660009081526002602090815260408083203384529091529020548211156107bc576040805162461bcd60e51b8152602060048201526000602482015290519081900360640190fd5b6001600160a01b0383166107f1576040805162461bcd60e51b8152602060048201526000602482015290519081900360640190fd5b6001600160a01b03841660009081526020819052604090205461081a908363ffffffff610c3616565b6001600160a01b03808616600090815260208190526040808220939093559085168152205461084f908363ffffffff610c4816565b6001600160a01b03808516600090815260208181526040808320949094559187168152600282528281203382529091522054610891908363ffffffff610c3616565b6001600160a01b03808616600081815260026020908152604080832033845282529182902094909455805186815290519287169391927fddf252ad1be2c89b69c2b068fc378daa952ba7f163c4a11628f55a4df523b3ef929181900390910190a35060019392505050565b3360009081526002602090815260408083206001600160a01b0386168452909152812054808310610950573360009081526002602090815260408083206001600160a01b0388168452909152812055610985565b610960818463ffffffff610c3616565b3360009081526002602090815260408083206001600160a01b03891684529091529020555b3360008181526002602090815260408083206001600160a01b0389168085529083529281902054815190815290519293927f8c5be1e5ebec7d5bd14f71427d1e84f3dd0314c0f7b2291e5b200ac8c7c3b925929181900390910190a35060019392505050565b33600090815260208190526040812054821115610a29576040805162461bcd60e51b8152602060048201526000602482015290519081900360640190fd5b6001600160a01b038316610a5e576040805162461bcd60e51b8152602060048201526000602482015290519081900360640190fd5b33600090815260208190526040902054610a7e908363ffffffff610c3616565b33600090815260208190526040808220929092556001600160a01b03851681522054610ab0908363ffffffff610c4816565b6001600160a01b038416600081815260208181526040918290209390935580518581529051919233927fddf252ad1be2c89b69c2b068fc378daa952ba7f163c4a11628f55a4df523b3ef9281900390910190a350600192915050565b3360009081526002602090815260408083206001600160a01b0386168452909152812054610b40908363ffffffff610c4816565b3360008181526002602090815260408083206001600160a01b0389168085529083529281902085905580519485525191937f8c5be1e5ebec7d5bd14f71427d1e84f3dd0314c0f7b2291e5b200ac8c7c3b925929081900390910190a350600192915050565b6001600160a01b038116610bda576040805162461bcd60e51b8152602060048201526000602482015290519081900360640190fd5b6003546040516001600160a01b038084169216907f8be0079c531659141344cd1fd0a4f28419497f9722a3daafe3b4186f6b6457e090600090a3600380546001600160a01b0319166001600160a01b0392909216919091179055565b600082821115610c4257fe5b50900390565b81810182811015610c5557fe5b9291505056fea265627a7a7231582037bffa19f6c10185ac538985575590cea2c5a58a0ca9a1aa320dc848f3e2241c64736f6c63430005100032",
  "linkReferences": {},
  "deployedLinkReferences": {}
}