{
  "_format": "hh-sol-artifact-1",
  "contractName": "PriceOracleProxy",
  "sourceName": "contracts/PriceOracleProxy.sol",
  "abi": [
    {
      "inputs": [
        {
          "internalType": "address",
          "name": "guardian_",
          "type": "address"
        },
        {
          "internalType": "address",
          "name": "v1PriceOracle_",
          "type": "address"
        },
        {
          "internalType": "address",
          "name": "vBnbAddress_",
          "type": "address"
        },
        {
          "internalType": "address",
          "name": "vUsdcAddress_",
          "type": "address"
        },
        {
          "internalType": "address",
          "name": "vSaiAddress_",
          "type": "address"
        },
        {
          "internalType": "address",
          "name": "vDaiAddress_",
          "type": "address"
        },
        {
          "internalType": "address",
          "name": "vUsdtAddress_",
          "type": "address"
        }
      ],
      "payable": false,
      "stateMutability": "nonpayable",
      "type": "constructor"
    },
    {
      "constant": true,
      "inputs": [],
      "name": "daiOracleKey",
      "outputs": [
        {
          "internalType": "address",
          "name": "",
          "type": "address"
        }
      ],
      "payable": false,
      "stateMutability": "view",
      "type": "function"
    },
    {
      "constant": true,
      "inputs": [
        {
          "internalType": "contract VToken",
          "name": "vToken",
          "type": "address"
        }
      ],
      "name": "getUnderlyingPrice",
      "outputs": [
        {
          "internalType": "uint256",
          "name": "",
          "type": "uint256"
        }
      ],
      "payable": false,
      "stateMutability": "view",
      "type": "function"
    },
    {
      "constant": true,
      "inputs": [],
      "name": "guardian",
      "outputs": [
        {
          "internalType": "address",
          "name": "",
          "type": "address"
        }
      ],
      "payable": false,
      "stateMutability": "view",
      "type": "function"
    },
    {
      "constant": true,
      "inputs": [],
      "name": "isPriceOracle",
      "outputs": [
        {
          "internalType": "bool",
          "name": "",
          "type": "bool"
        }
      ],
      "payable": false,
      "stateMutability": "view",
      "type": "function"
    },
    {
      "constant": true,
      "inputs": [],
      "name": "saiPrice",
      "outputs": [
        {
          "internalType": "uint256",
          "name": "",
          "type": "uint256"
        }
      ],
      "payable": false,
      "stateMutability": "view",
      "type": "function"
    },
    {
      "constant": false,
      "inputs": [
        {
          "internalType": "uint256",
          "name": "price",
          "type": "uint256"
        }
      ],
      "name": "setSaiPrice",
      "outputs": [],
      "payable": false,
      "stateMutability": "nonpayable",
      "type": "function"
    },
    {
      "constant": true,
      "inputs": [],
      "name": "usdcOracleKey",
      "outputs": [
        {
          "internalType": "address",
          "name": "",
          "type": "address"
        }
      ],
      "payable": false,
      "stateMutability": "view",
      "type": "function"
    },
    {
      "constant": true,
      "inputs": [],
      "name": "v1PriceOracle",
      "outputs": [
        {
          "internalType": "contract V1PriceOracleInterface",
          "name": "",
          "type": "address"
        }
      ],
      "payable": false,
      "stateMutability": "view",
      "type": "function"
    },
    {
      "constant": true,
      "inputs": [],
      "name": "vBnbAddress",
      "outputs": [
        {
          "internalType": "address",
          "name": "",
          "type": "address"
        }
      ],
      "payable": false,
      "stateMutability": "view",
      "type": "function"
    },
    {
      "constant": true,
      "inputs": [],
      "name": "vDaiAddress",
      "outputs": [
        {
          "internalType": "address",
          "name": "",
          "type": "address"
        }
      ],
      "payable": false,
      "stateMutability": "view",
      "type": "function"
    },
    {
      "constant": true,
      "inputs": [],
      "name": "vSaiAddress",
      "outputs": [
        {
          "internalType": "address",
          "name": "",
          "type": "address"
        }
      ],
      "payable": false,
      "stateMutability": "view",
      "type": "function"
    },
    {
      "constant": true,
      "inputs": [],
      "name": "vUsdcAddress",
      "outputs": [
        {
          "internalType": "address",
          "name": "",
          "type": "address"
        }
      ],
      "payable": false,
      "stateMutability": "view",
      "type": "function"
    },
    {
      "constant": true,
      "inputs": [],
      "name": "vUsdtAddress",
      "outputs": [
        {
          "internalType": "address",
          "name": "",
          "type": "address"
        }
      ],
      "payable": false,
      "stateMutability": "view",
      "type": "function"
    }
  ],
  "bytecode": "0x608060405234801561001057600080fd5b50604051610739380380610739833981810160405260e081101561003357600080fd5b508051602082015160408301516060840151608085015160a086015160c090960151600180546001600160a01b039788166001600160a01b03199182161790915560008054968816968216969096179095556002805494871694861694909417909355600380549286169285169290921790915560058054918516918416919091179055600680549484169483169490941790935560048054929093169116179055610655806100e46000396000f3fe608060405234801561001057600080fd5b50600436106100cf5760003560e01c8063a5420cab1161008c578063e5ee0f6e11610066578063e5ee0f6e1461015e578063f9c99e9c14610166578063fc57d4df14610185578063fe10c98d146101ab576100cf565b8063a5420cab14610134578063a86b19441461013c578063ae549b8614610156576100cf565b806309da6518146100d45780630adb4376146100f85780633e76f25514610100578063452a9320146101085780634d1a60371461011057806366331bba14610118575b600080fd5b6100dc6101b3565b604080516001600160a01b039092168252519081900360200190f35b6100dc6101c2565b6100dc6101d1565b6100dc6101d6565b6100dc6101e5565b6101206101d1565b604080519115158252519081900360200190f35b6100dc6101f4565b610144610203565b60408051918252519081900360200190f35b6100dc610209565b6100dc610218565b6101836004803603602081101561017c57600080fd5b503561021d565b005b6101446004803603602081101561019b57600080fd5b50356001600160a01b031661031c565b6100dc6105ee565b6006546001600160a01b031681565b6004546001600160a01b031681565b600181565b6001546001600160a01b031681565b6002546001600160a01b031681565b6005546001600160a01b031681565b60075481565b6003546001600160a01b031681565b600281565b6001546001600160a01b031633146102665760405162461bcd60e51b81526004018080602001828103825260238152602001806105fe6023913960400191505060405180910390fd5b600754156102bb576040805162461bcd60e51b815260206004820152601e60248201527f534149207072696365206d6179206f6e6c7920626520736574206f6e63650000604482015290519081900360640190fd5b67016345785d8a00008110610317576040805162461bcd60e51b815260206004820152601b60248201527f534149207072696365206d757374206265203c20302e3120424e420000000000604482015290519081900360640190fd5b600755565b60025460009082906001600160a01b038083169116141561034857670de0b6b3a76400009150506105e9565b6003546001600160a01b038281169116148061037157506004546001600160a01b038281169116145b156103f757600054604080516317a6948f60e21b81526001600482015290516001600160a01b0390921691635e9a523c91602480820192602092909190829003018186803b1580156103c257600080fd5b505afa1580156103d6573d6000803e3d6000fd5b505050506040513d60208110156103ec57600080fd5b505191506105e99050565b6006546001600160a01b038281169116141561045957600054604080516317a6948f60e21b81526002600482015290516001600160a01b0390921691635e9a523c91602480820192602092909190829003018186803b1580156103c257600080fd5b6005546001600160a01b0382811691161415610502576000600754116104f657600054604080516317a6948f60e21b81526002600482015290516001600160a01b0390921691635e9a523c91602480820192602092909190829003018186803b1580156104c557600080fd5b505afa1580156104d9573d6000803e3d6000fd5b505050506040513d60208110156104ef57600080fd5b50516104fa565b6007545b9150506105e9565b6000816001600160a01b0316636f307dc36040518163ffffffff1660e01b815260040160206040518083038186803b15801561053d57600080fd5b505afa158015610551573d6000803e3d6000fd5b505050506040513d602081101561056757600080fd5b5051600054604080516317a6948f60e21b81526001600160a01b0380851660048301529151939450911691635e9a523c91602480820192602092909190829003018186803b1580156105b857600080fd5b505afa1580156105cc573d6000803e3d6000fd5b505050506040513d60208110156105e257600080fd5b5051925050505b919050565b6000546001600160a01b03168156fe6f6e6c7920677561726469616e206d6179207365742074686520534149207072696365a265627a7a72315820369d2e9590a0bcc87c4a16bac01a7a6a98ecc58342d00e37e845a65ae3f0da1664736f6c63430005100032",
  "linkReferences": {},
  "deployedLinkReferences": {}
}