{
  "_format": "hh-sol-artifact-1",
  "contractName": "SnapshotLens",
  "sourceName": "contracts/Lens/SnapshotLens.sol",
  "abi": [
    {
      "constant": false,
      "inputs": [
        {
          "internalType": "address payable",
          "name": "account",
          "type": "address"
        },
        {
          "internalType": "address",
          "name": "comptrollerAddress",
          "type": "address"
        }
      ],
      "name": "getAccountSnapshot",
      "outputs": [
        {
          "components": [
            {
              "internalType": "address",
              "name": "account",
              "type": "address"
            },
            {
              "internalType": "string",
              "name": "assetName",
              "type": "string"
            },
            {
              "internalType": "address",
              "name": "vTokenAddress",
              "type": "address"
            },
            {
              "internalType": "address",
              "name": "underlyingAssetAddress",
              "type": "address"
            },
            {
              "internalType": "uint256",
              "name": "supply",
              "type": "uint256"
            },
            {
              "internalType": "uint256",
              "name": "supplyInUsd",
              "type": "uint256"
            },
            {
              "internalType": "uint256",
              "name": "collateral",
              "type": "uint256"
            },
            {
              "internalType": "uint256",
              "name": "borrows",
              "type": "uint256"
            },
            {
              "internalType": "uint256",
              "name": "borrowsInUsd",
              "type": "uint256"
            },
            {
              "internalType": "uint256",
              "name": "assetPrice",
              "type": "uint256"
            },
            {
              "internalType": "uint256",
              "name": "accruedInterest",
              "type": "uint256"
            },
            {
              "internalType": "uint256",
              "name": "vTokenDecimals",
              "type": "uint256"
            },
            {
              "internalType": "uint256",
              "name": "underlyingDecimals",
              "type": "uint256"
            },
            {
              "internalType": "uint256",
              "name": "exchangeRate",
              "type": "uint256"
            },
            {
              "internalType": "bool",
              "name": "isACollateral",
              "type": "bool"
            }
          ],
          "internalType": "struct SnapshotLens.AccountSnapshot[]",
          "name": "",
          "type": "tuple[]"
        }
      ],
      "payable": false,
      "stateMutability": "nonpayable",
      "type": "function"
    },
    {
      "constant": false,
      "inputs": [
        {
          "internalType": "address payable",
          "name": "account",
          "type": "address"
        },
        {
          "internalType": "address",
          "name": "comptrollerAddress",
          "type": "address"
        },
        {
          "internalType": "contract VToken",
          "name": "vToken",
          "type": "address"
        }
      ],
      "name": "getAccountSnapshot",
      "outputs": [
        {
          "components": [
            {
              "internalType": "address",
              "name": "account",
              "type": "address"
            },
            {
              "internalType": "string",
              "name": "assetName",
              "type": "string"
            },
            {
              "internalType": "address",
              "name": "vTokenAddress",
              "type": "address"
            },
            {
              "internalType": "address",
              "name": "underlyingAssetAddress",
              "type": "address"
            },
            {
              "internalType": "uint256",
              "name": "supply",
              "type": "uint256"
            },
            {
              "internalType": "uint256",
              "name": "supplyInUsd",
              "type": "uint256"
            },
            {
              "internalType": "uint256",
              "name": "collateral",
              "type": "uint256"
            },
            {
              "internalType": "uint256",
              "name": "borrows",
              "type": "uint256"
            },
            {
              "internalType": "uint256",
              "name": "borrowsInUsd",
              "type": "uint256"
            },
            {
              "internalType": "uint256",
              "name": "assetPrice",
              "type": "uint256"
            },
            {
              "internalType": "uint256",
              "name": "accruedInterest",
              "type": "uint256"
            },
            {
              "internalType": "uint256",
              "name": "vTokenDecimals",
              "type": "uint256"
            },
            {
              "internalType": "uint256",
              "name": "underlyingDecimals",
              "type": "uint256"
            },
            {
              "internalType": "uint256",
              "name": "exchangeRate",
              "type": "uint256"
            },
            {
              "internalType": "bool",
              "name": "isACollateral",
              "type": "bool"
            }
          ],
          "internalType": "struct SnapshotLens.AccountSnapshot",
          "name": "",
          "type": "tuple"
        }
      ],
      "payable": false,
      "stateMutability": "nonpayable",
      "type": "function"
    },
    {
      "constant": true,
      "inputs": [
        {
          "internalType": "address",
          "name": "account",
          "type": "address"
        },
        {
          "internalType": "address",
          "name": "asset",
          "type": "address"
        },
        {
          "internalType": "address",
          "name": "comptrollerAddress",
          "type": "address"
        }
      ],
      "name": "isACollateral",
      "outputs": [
        {
          "internalType": "bool",
          "name": "",
          "type": "bool"
        }
      ],
      "payable": false,
      "stateMutability": "view",
      "type": "function"
    }
  ],
  "bytecode": "0x608060405234801561001057600080fd5b50611549806100206000396000f3fe608060405234801561001057600080fd5b50600436106100415760003560e01c806332221cf614610046578063e6bf1d3a1461006f578063ebdf591a1461008f575b600080fd5b610059610054366004610e9b565b6100af565b604051610066919061136f565b60405180910390f35b61008261007d366004610f22565b6101bd565b6040516100669190611380565b6100a261009d366004610ed5565b61029d565b60405161006691906113bd565b606080826001600160a01b031663b0772d0b6040518163ffffffff1660e01b815260040160006040518083038186803b1580156100eb57600080fd5b505afa1580156100ff573d6000803e3d6000fd5b505050506040513d6000823e601f3d908101601f191682016040526101279190810190610f65565b90506060815160405190808252806020026020018201604052801561016657816020015b610153610c3c565b81526020019060019003908161014b5790505b50905060005b82518110156101b257610193868685848151811061018657fe5b602002602001015161029d565b82828151811061019f57fe5b602090810291909101015260010161016c565b509150505b92915050565b60006060826001600160a01b031663abfceffc866040518263ffffffff1660e01b81526004016101ed9190611353565b60006040518083038186803b15801561020557600080fd5b505afa158015610219573d6000803e3d6000fd5b505050506040513d6000823e601f3d908101601f191682016040526102419190810190610f65565b905060005b815181101561028f57846001600160a01b031682828151811061026557fe5b60200260200101516001600160a01b0316141561028757600192505050610296565b600101610246565b5060009150505b9392505050565b6102a5610c3c565b6102ad610ccf565b6040516361bfb47160e11b81526000906001600160a01b0385169063c37f68e2906102dc908990600401611361565b60806040518083038186803b1580156102f457600080fd5b505afa158015610308573d6000803e3d6000fd5b505050506040513d601f19601f8201168201806040525061032c919081019061104e565b60c086015260408501526020840152905080156103645760405162461bcd60e51b815260040161035b906113ad565b60405180910390fd5b6040805160208101825260c0840151815261012084015251638e8f294b60e01b815285906000906001600160a01b03831690638e8f294b906103aa908990600401611353565b60606040518083038186803b1580156103c257600080fd5b505afa1580156103d6573d6000803e3d6000fd5b505050506040513d601f19601f820116820180604052506103fa9190810190610f9a565b50915050604051806020016040528082815250846101000181905250816001600160a01b0316637dc0d1d06040518163ffffffff1660e01b815260040160206040518083038186803b15801561044f57600080fd5b505afa158015610463573d6000803e3d6000fd5b505050506040513d601f19601f820116820180604052506104879190810190610fdd565b6001600160a01b031663fc57d4df876040518263ffffffff1660e01b81526004016104b2919061138e565b60206040518083038186803b1580156104ca57600080fd5b505afa1580156104de573d6000803e3d6000fd5b505050506040513d601f19601f820116820180604052506105029190810190611030565b60e085019081526040805160208101909152905181526101408501526101008401516101208501516105429161053791610ab1565b856101400151610ab1565b610160850181905260208501516105599190610af0565b8452604051633af9e66960e01b81526001600160a01b03871690633af9e66990610587908b90600401611361565b602060405180830381600087803b1580156105a157600080fd5b505af11580156105b5573d6000803e3d6000fd5b505050506040513d601f19601f820116820180604052506105d99190810190611030565b608085018190526101408501516105ef91610af0565b60a085015261014084015160408501516106099190610af0565b8460600181815250506000806106af886001600160a01b03166395d89b416040518163ffffffff1660e01b815260040160006040518083038186803b15801561065157600080fd5b505afa158015610665573d6000803e3d6000fd5b505050506040513d6000823e601f3d908101601f1916820160405261068d9190810190610ffb565b604051806040016040528060048152602001633b21272160e11b815250610b17565b156106c05750600090506012610820565b6000889050806001600160a01b0316636f307dc36040518163ffffffff1660e01b815260040160206040518083038186803b1580156106fe57600080fd5b505afa158015610712573d6000803e3d6000fd5b505050506040513d601f19601f820116820180604052506107369190810190610e7d565b9250806001600160a01b0316636f307dc36040518163ffffffff1660e01b815260040160206040518083038186803b15801561077157600080fd5b505afa158015610785573d6000803e3d6000fd5b505050506040513d601f19601f820116820180604052506107a99190810190610e7d565b6001600160a01b031663313ce5676040518163ffffffff1660e01b815260040160206040518083038186803b1580156107e157600080fd5b505afa1580156107f5573d6000803e3d6000fd5b505050506040513d601f19601f8201168201806040525061081991908101906110af565b60ff169150505b61082b8a898b6101bd565b86610180019015159081151581525050604051806101e001604052808b6001600160a01b03168152602001896001600160a01b03166306fdde036040518163ffffffff1660e01b815260040160006040518083038186803b15801561088f57600080fd5b505afa1580156108a3573d6000803e3d6000fd5b505050506040513d6000823e601f3d908101601f191682016040526108cb9190810190610ffb565b8152602001896001600160a01b03168152602001836001600160a01b03168152602001876080015181526020018760a0015181526020018760000151815260200187604001518152602001876060015181526020018760e001518152602001896001600160a01b031663aa5af0fd6040518163ffffffff1660e01b815260040160206040518083038186803b15801561096357600080fd5b505afa158015610977573d6000803e3d6000fd5b505050506040513d601f19601f8201168201806040525061099b9190810190611030565b8152602001896001600160a01b031663313ce5676040518163ffffffff1660e01b815260040160206040518083038186803b1580156109d957600080fd5b505afa1580156109ed573d6000803e3d6000fd5b505050506040513d601f19601f82011682018060405250610a1191908101906110af565b60ff168152602001828152602001896001600160a01b031663bd6d894d6040518163ffffffff1660e01b8152600401602060405180830381600087803b158015610a5a57600080fd5b505af1158015610a6e573d6000803e3d6000fd5b505050506040513d601f19601f82011682018060405250610a929190810190611030565b8152602001876101800151151581525096505050505050509392505050565b610ab9610d4f565b6040518060200160405280670de0b6b3a7640000610adf86600001518660000151610b70565b81610ae657fe5b0490529392505050565b6000610afa610d4f565b610b048484610bb2565b9050610b0f81610bdc565b949350505050565b600081604051602001610b2a9190611347565b6040516020818303038152906040528051906020012083604051602001610b519190611347565b6040516020818303038152906040528051906020012014905092915050565b600061029683836040518060400160405280601781526020017f6d756c7469706c69636174696f6e206f766572666c6f77000000000000000000815250610beb565b610bba610d4f565b6040518060200160405280610bd3856000015185610b70565b90529392505050565b51670de0b6b3a7640000900490565b6000831580610bf8575082155b15610c0557506000610296565b83830283858281610c1257fe5b04148390610c335760405162461bcd60e51b815260040161035b919061139c565b50949350505050565b604051806101e0016040528060006001600160a01b031681526020016060815260200160006001600160a01b0316815260200160006001600160a01b03168152602001600081526020016000815260200160008152602001600081526020016000815260200160008152602001600081526020016000815260200160008152602001600081526020016000151581525090565b604051806101a001604052806000815260200160008152602001600081526020016000815260200160008152602001600081526020016000815260200160008152602001610d1b610d4f565b8152602001610d28610d4f565b8152602001610d35610d4f565b8152602001610d42610d4f565b8152600060209091015290565b6040518060200160405280600081525090565b80356101b7816114cb565b80516101b7816114cb565b600082601f830112610d8957600080fd5b8151610d9c610d97826113f5565b6113ce565b91508181835260208401935060208101905083856020840282011115610dc157600080fd5b60005b83811015610ded5781610dd78882610e02565b8452506020928301929190910190600101610dc4565b5050505092915050565b80516101b7816114e2565b80516101b7816114eb565b80356101b7816114eb565b600082601f830112610e2957600080fd5b8151610e37610d9782611416565b91508082526020830160208301858383011115610e5357600080fd5b610e5e838284611491565b50505092915050565b80516101b7816114f4565b80516101b7816114fd565b600060208284031215610e8f57600080fd5b6000610b0f8484610d6d565b60008060408385031215610eae57600080fd5b6000610eba8585610d62565b9250506020610ecb85828601610d62565b9150509250929050565b600080600060608486031215610eea57600080fd5b6000610ef68686610d62565b9350506020610f0786828701610d62565b9250506040610f1886828701610e0d565b9150509250925092565b600080600060608486031215610f3757600080fd5b6000610f438686610d62565b9350506020610f5486828701610d62565b9250506040610f1886828701610d62565b600060208284031215610f7757600080fd5b815167ffffffffffffffff811115610f8e57600080fd5b610b0f84828501610d78565b600080600060608486031215610faf57600080fd5b6000610fbb8686610df7565b9350506020610fcc86828701610e67565b9250506040610f1886828701610df7565b600060208284031215610fef57600080fd5b6000610b0f8484610e02565b60006020828403121561100d57600080fd5b815167ffffffffffffffff81111561102457600080fd5b610b0f84828501610e18565b60006020828403121561104257600080fd5b6000610b0f8484610e67565b6000806000806080858703121561106457600080fd5b60006110708787610e67565b945050602061108187828801610e67565b935050604061109287828801610e67565b92505060606110a387828801610e67565b91505092959194509250565b6000602082840312156110c157600080fd5b6000610b0f8484610e72565b60006102968383611202565b6110e281611486565b82525050565b6110e281611456565b60006110fc82611444565b6111068185611448565b9350836020820285016111188561143e565b8060005b85811015611152578484038952815161113585826110cd565b94506111408361143e565b60209a909a019992505060010161111c565b5091979650505050505050565b6110e281611461565b6110e281611466565b600061117c82611444565b6111868185611448565b9350611196818560208601611491565b61119f816114c1565b9093019392505050565b60006111b482611444565b6111be8185611451565b93506111ce818560208601611491565b9290920192915050565b60006111e5600e83611448565b6d29b730b839b437ba1022b93937b960911b815260200192915050565b80516000906101e084019061121785826110e8565b506020830151848203602086015261122f8282611171565b915050604083015161124460408601826110e8565b50606083015161125760608601826110e8565b50608083015161126a608086018261133e565b5060a083015161127d60a086018261133e565b5060c083015161129060c086018261133e565b5060e08301516112a360e086018261133e565b506101008301516112b861010086018261133e565b506101208301516112cd61012086018261133e565b506101408301516112e261014086018261133e565b506101608301516112f761016086018261133e565b5061018083015161130c61018086018261133e565b506101a08301516113216101a086018261133e565b506101c08301516113366101c086018261115f565b509392505050565b6110e28161147d565b600061029682846111a9565b602081016101b782846110e8565b602081016101b782846110d9565b6020808252810161029681846110f1565b602081016101b7828461115f565b602081016101b78284611168565b602080825281016102968184611171565b602080825281016101b7816111d8565b602080825281016102968184611202565b60405181810167ffffffffffffffff811182821017156113ed57600080fd5b604052919050565b600067ffffffffffffffff82111561140c57600080fd5b5060209081020190565b600067ffffffffffffffff82111561142d57600080fd5b506020601f91909101601f19160190565b60200190565b5190565b90815260200190565b919050565b60006101b782611471565b151590565b60006101b782611456565b6001600160a01b031690565b90565b60ff1690565b60006101b782611466565b60005b838110156114ac578181015183820152602001611494565b838111156114bb576000848401525b50505050565b601f01601f191690565b6114d481611456565b81146114df57600080fd5b50565b6114d481611461565b6114d481611466565b6114d48161147d565b6114d48161148056fea365627a7a72315820535c00fc1982dd7a02c68cd8aae0c918a2aebc3b818ed709d088a9b8562784be6c6578706572696d656e74616cf564736f6c63430005100040",
  "linkReferences": {},
  "deployedLinkReferences": {}
}