{
  "_format": "hh-sol-artifact-1",
  "contractName": "Structs",
  "sourceName": "contracts/test/Structs.sol",
  "abi": [
    {
      "constant": true,
      "inputs": [
        {
          "internalType": "uint256",
          "name": "",
          "type": "uint256"
        }
      ],
      "name": "outers",
      "outputs": [
        {
          "internalType": "uint256",
          "name": "sentinel",
          "type": "uint256"
        }
      ],
      "payable": false,
      "stateMutability": "view",
      "type": "function"
    },
    {
      "constant": false,
      "inputs": [
        {
          "internalType": "uint256",
          "name": "id",
          "type": "uint256"
        },
        {
          "internalType": "uint16",
          "name": "a",
          "type": "uint16"
        },
        {
          "internalType": "uint16",
          "name": "b",
          "type": "uint16"
        },
        {
          "internalType": "uint96",
          "name": "c",
          "type": "uint96"
        }
      ],
      "name": "writeEach",
      "outputs": [],
      "payable": false,
      "stateMutability": "nonpayable",
      "type": "function"
    },
    {
      "constant": false,
      "inputs": [
        {
          "internalType": "uint256",
          "name": "id",
          "type": "uint256"
        },
        {
          "internalType": "uint16",
          "name": "a",
          "type": "uint16"
        },
        {
          "internalType": "uint16",
          "name": "b",
          "type": "uint16"
        },
        {
          "internalType": "uint96",
          "name": "c",
          "type": "uint96"
        }
      ],
      "name": "writeOnce",
      "outputs": [],
      "payable": false,
      "stateMutability": "nonpayable",
      "type": "function"
    }
  ],
  "bytecode": "0x608060405234801561001057600080fd5b5061026c806100206000396000f3fe608060405234801561001057600080fd5b50600436106100415760003560e01c80637e31c374146100465780639440ce0c14610075578063d26f269f146100b8575b600080fd5b6100636004803603602081101561005c57600080fd5b50356100f9565b60408051918252519081900360200190f35b6100b66004803603608081101561008b57600080fd5b50803590602081013561ffff90811691604081013590911690606001356001600160601b031661010b565b005b6100b6600480360360808110156100ce57600080fd5b50803590602081013561ffff90811691604081013590911690606001356001600160601b03166101a7565b60006020819052908152604090205481565b610113610217565b506040805160608101825261ffff948516815292841660208085019182526001600160601b03938416858401908152600097885287825283882033895260010190915291909520925183549551915161ffff199096169085161763ffff00001916620100009190941602929092176fffffffffffffffffffffffff0000000019166401000000009390921692909202179055565b600093845260208481526040808620338752600101909152909320805461ffff191661ffff9384161763ffff00001916620100009290931691909102919091176fffffffffffffffffffffffff0000000019166401000000006001600160601b0390931692909202919091179055565b60408051606081018252600080825260208201819052918101919091529056fea265627a7a72315820ebce286cdc274d3b1cdd96083e7a4093d498154a698fe0965b1c36d41ff6bf7464736f6c63430005100032",
  "linkReferences": {},
  "deployedLinkReferences": {}
}