{
  "_format": "hh-sol-artifact-1",
  "contractName": "SXPScenario",
  "sourceName": "contracts/test/SXPHarness.sol",
  "abi": [
    {
      "inputs": [
        {
          "internalType": "address",
          "name": "account",
          "type": "address"
        }
      ],
      "payable": false,
      "stateMutability": "nonpayable",
      "type": "constructor"
    },
    {
      "anonymous": false,
      "inputs": [
        {
          "indexed": true,
          "internalType": "address",
          "name": "owner",
          "type": "address"
        },
        {
          "indexed": true,
          "internalType": "address",
          "name": "spender",
          "type": "address"
        },
        {
          "indexed": false,
          "internalType": "uint256",
          "name": "amount",
          "type": "uint256"
        }
      ],
      "name": "Approval",
      "type": "event"
    },
    {
      "anonymous": false,
      "inputs": [
        {
          "indexed": true,
          "internalType": "address",
          "name": "delegator",
          "type": "address"
        },
        {
          "indexed": true,
          "internalType": "address",
          "name": "fromDelegate",
          "type": "address"
        },
        {
          "indexed": true,
          "internalType": "address",
          "name": "toDelegate",
          "type": "address"
        }
      ],
      "name": "DelegateChanged",
      "type": "event"
    },
    {
      "anonymous": false,
      "inputs": [
        {
          "indexed": true,
          "internalType": "address",
          "name": "delegate",
          "type": "address"
        },
        {
          "indexed": false,
          "internalType": "uint256",
          "name": "previousBalance",
          "type": "uint256"
        },
        {
          "indexed": false,
          "internalType": "uint256",
          "name": "newBalance",
          "type": "uint256"
        }
      ],
      "name": "DelegateVotesChanged",
      "type": "event"
    },
    {
      "anonymous": false,
      "inputs": [],
      "name": "Freezed",
      "type": "event"
    },
    {
      "anonymous": false,
      "inputs": [
        {
          "indexed": true,
          "internalType": "address",
          "name": "who",
          "type": "address"
        }
      ],
      "name": "LockUser",
      "type": "event"
    },
    {
      "anonymous": false,
      "inputs": [
        {
          "indexed": true,
          "internalType": "address",
          "name": "previousOwner",
          "type": "address"
        },
        {
          "indexed": true,
          "internalType": "address",
          "name": "newOwner",
          "type": "address"
        }
      ],
      "name": "OwnershipTransferred",
      "type": "event"
    },
    {
      "anonymous": false,
      "inputs": [
        {
          "indexed": true,
          "internalType": "address",
          "name": "from",
          "type": "address"
        },
        {
          "indexed": true,
          "internalType": "address",
          "name": "to",
          "type": "address"
        },
        {
          "indexed": false,
          "internalType": "uint256",
          "name": "amount",
          "type": "uint256"
        }
      ],
      "name": "Transfer",
      "type": "event"
    },
    {
      "anonymous": false,
      "inputs": [],
      "name": "UnFreezed",
      "type": "event"
    },
    {
      "anonymous": false,
      "inputs": [
        {
          "indexed": true,
          "internalType": "address",
          "name": "who",
          "type": "address"
        }
      ],
      "name": "UnlockUser",
      "type": "event"
    },
    {
      "constant": true,
      "inputs": [],
      "name": "DELEGATION_TYPEHASH",
      "outputs": [
        {
          "internalType": "bytes32",
          "name": "",
          "type": "bytes32"
        }
      ],
      "payable": false,
      "stateMutability": "view",
      "type": "function"
    },
    {
      "constant": true,
      "inputs": [],
      "name": "DOMAIN_TYPEHASH",
      "outputs": [
        {
          "internalType": "bytes32",
          "name": "",
          "type": "bytes32"
        }
      ],
      "payable": false,
      "stateMutability": "view",
      "type": "function"
    },
    {
      "constant": true,
      "inputs": [
        {
          "internalType": "address",
          "name": "owner",
          "type": "address"
        },
        {
          "internalType": "address",
          "name": "spender",
          "type": "address"
        }
      ],
      "name": "allowance",
      "outputs": [
        {
          "internalType": "uint256",
          "name": "",
          "type": "uint256"
        }
      ],
      "payable": false,
      "stateMutability": "view",
      "type": "function"
    },
    {
      "constant": false,
      "inputs": [
        {
          "internalType": "address",
          "name": "spender",
          "type": "address"
        },
        {
          "internalType": "uint256",
          "name": "amount",
          "type": "uint256"
        }
      ],
      "name": "approve",
      "outputs": [
        {
          "internalType": "bool",
          "name": "",
          "type": "bool"
        }
      ],
      "payable": false,
      "stateMutability": "nonpayable",
      "type": "function"
    },
    {
      "constant": false,
      "inputs": [
        {
          "internalType": "address",
          "name": "spender",
          "type": "address"
        },
        {
          "internalType": "uint256",
          "name": "amount",
          "type": "uint256"
        },
        {
          "internalType": "bytes",
          "name": "data",
          "type": "bytes"
        }
      ],
      "name": "approveAndCall",
      "outputs": [
        {
          "internalType": "bool",
          "name": "",
          "type": "bool"
        }
      ],
      "payable": false,
      "stateMutability": "nonpayable",
      "type": "function"
    },
    {
      "constant": true,
      "inputs": [
        {
          "internalType": "address",
          "name": "account",
          "type": "address"
        }
      ],
      "name": "balanceOf",
      "outputs": [
        {
          "internalType": "uint256",
          "name": "",
          "type": "uint256"
        }
      ],
      "payable": false,
      "stateMutability": "view",
      "type": "function"
    },
    {
      "constant": false,
      "inputs": [
        {
          "internalType": "uint256",
          "name": "amount",
          "type": "uint256"
        }
      ],
      "name": "burn",
      "outputs": [
        {
          "internalType": "bool",
          "name": "",
          "type": "bool"
        }
      ],
      "payable": false,
      "stateMutability": "nonpayable",
      "type": "function"
    },
    {
      "constant": true,
      "inputs": [
        {
          "internalType": "address",
          "name": "",
          "type": "address"
        },
        {
          "internalType": "uint32",
          "name": "",
          "type": "uint32"
        }
      ],
      "name": "checkpoints",
      "outputs": [
        {
          "internalType": "uint32",
          "name": "fromBlock",
          "type": "uint32"
        },
        {
          "internalType": "uint256",
          "name": "votes",
          "type": "uint256"
        }
      ],
      "payable": false,
      "stateMutability": "view",
      "type": "function"
    },
    {
      "constant": true,
      "inputs": [],
      "name": "decimals",
      "outputs": [
        {
          "internalType": "uint8",
          "name": "",
          "type": "uint8"
        }
      ],
      "payable": false,
      "stateMutability": "view",
      "type": "function"
    },
    {
      "constant": false,
      "inputs": [
        {
          "internalType": "address",
          "name": "spender",
          "type": "address"
        },
        {
          "internalType": "uint256",
          "name": "subtractedValue",
          "type": "uint256"
        }
      ],
      "name": "decreaseAllowance",
      "outputs": [
        {
          "internalType": "bool",
          "name": "",
          "type": "bool"
        }
      ],
      "payable": false,
      "stateMutability": "nonpayable",
      "type": "function"
    },
    {
      "constant": false,
      "inputs": [
        {
          "internalType": "address",
          "name": "delegatee",
          "type": "address"
        }
      ],
      "name": "delegate",
      "outputs": [],
      "payable": false,
      "stateMutability": "nonpayable",
      "type": "function"
    },
    {
      "constant": false,
      "inputs": [
        {
          "internalType": "address",
          "name": "delegatee",
          "type": "address"
        },
        {
          "internalType": "uint256",
          "name": "nonce",
          "type": "uint256"
        },
        {
          "internalType": "uint256",
          "name": "expiry",
          "type": "uint256"
        },
        {
          "internalType": "uint8",
          "name": "v",
          "type": "uint8"
        },
        {
          "internalType": "bytes32",
          "name": "r",
          "type": "bytes32"
        },
        {
          "internalType": "bytes32",
          "name": "s",
          "type": "bytes32"
        }
      ],
      "name": "delegateBySig",
      "outputs": [],
      "payable": false,
      "stateMutability": "nonpayable",
      "type": "function"
    },
    {
      "constant": true,
      "inputs": [
        {
          "internalType": "address",
          "name": "",
          "type": "address"
        }
      ],
      "name": "delegates",
      "outputs": [
        {
          "internalType": "address",
          "name": "",
          "type": "address"
        }
      ],
      "payable": false,
      "stateMutability": "view",
      "type": "function"
    },
    {
      "constant": false,
      "inputs": [],
      "name": "freeze",
      "outputs": [],
      "payable": false,
      "stateMutability": "nonpayable",
      "type": "function"
    },
    {
      "constant": false,
      "inputs": [
        {
          "internalType": "uint256",
          "name": "count",
          "type": "uint256"
        },
        {
          "internalType": "uint256",
          "name": "offset",
          "type": "uint256"
        }
      ],
      "name": "generateCheckpoints",
      "outputs": [],
      "payable": false,
      "stateMutability": "nonpayable",
      "type": "function"
    },
    {
      "constant": true,
      "inputs": [
        {
          "internalType": "address",
          "name": "account",
          "type": "address"
        }
      ],
      "name": "getCurrentVotes",
      "outputs": [
        {
          "internalType": "uint96",
          "name": "",
          "type": "uint96"
        }
      ],
      "payable": false,
      "stateMutability": "view",
      "type": "function"
    },
    {
      "constant": true,
      "inputs": [],
      "name": "getOwner",
      "outputs": [
        {
          "internalType": "address",
          "name": "",
          "type": "address"
        }
      ],
      "payable": false,
      "stateMutability": "view",
      "type": "function"
    },
    {
      "constant": true,
      "inputs": [
        {
          "internalType": "address",
          "name": "account",
          "type": "address"
        },
        {
          "internalType": "uint256",
          "name": "blockNumber",
          "type": "uint256"
        }
      ],
      "name": "getPriorVotes",
      "outputs": [
        {
          "internalType": "uint96",
          "name": "",
          "type": "uint96"
        }
      ],
      "payable": false,
      "stateMutability": "view",
      "type": "function"
    },
    {
      "constant": false,
      "inputs": [
        {
          "internalType": "address",
          "name": "spender",
          "type": "address"
        },
        {
          "internalType": "uint256",
          "name": "addedValue",
          "type": "uint256"
        }
      ],
      "name": "increaseAllowance",
      "outputs": [
        {
          "internalType": "bool",
          "name": "",
          "type": "bool"
        }
      ],
      "payable": false,
      "stateMutability": "nonpayable",
      "type": "function"
    },
    {
      "constant": false,
      "inputs": [
        {
          "internalType": "address",
          "name": "who",
          "type": "address"
        }
      ],
      "name": "lockUser",
      "outputs": [],
      "payable": false,
      "stateMutability": "nonpayable",
      "type": "function"
    },
    {
      "constant": true,
      "inputs": [],
      "name": "name",
      "outputs": [
        {
          "internalType": "string",
          "name": "",
          "type": "string"
        }
      ],
      "payable": false,
      "stateMutability": "view",
      "type": "function"
    },
    {
      "constant": true,
      "inputs": [
        {
          "internalType": "address",
          "name": "",
          "type": "address"
        }
      ],
      "name": "nonces",
      "outputs": [
        {
          "internalType": "uint256",
          "name": "",
          "type": "uint256"
        }
      ],
      "payable": false,
      "stateMutability": "view",
      "type": "function"
    },
    {
      "constant": true,
      "inputs": [
        {
          "internalType": "address",
          "name": "",
          "type": "address"
        }
      ],
      "name": "numCheckpoints",
      "outputs": [
        {
          "internalType": "uint32",
          "name": "",
          "type": "uint32"
        }
      ],
      "payable": false,
      "stateMutability": "view",
      "type": "function"
    },
    {
      "constant": true,
      "inputs": [],
      "name": "owner",
      "outputs": [
        {
          "internalType": "address",
          "name": "",
          "type": "address"
        }
      ],
      "payable": false,
      "stateMutability": "view",
      "type": "function"
    },
    {
      "constant": false,
      "inputs": [],
      "name": "renounceOwnership",
      "outputs": [],
      "payable": false,
      "stateMutability": "nonpayable",
      "type": "function"
    },
    {
      "constant": true,
      "inputs": [],
      "name": "symbol",
      "outputs": [
        {
          "internalType": "string",
          "name": "",
          "type": "string"
        }
      ],
      "payable": false,
      "stateMutability": "view",
      "type": "function"
    },
    {
      "constant": true,
      "inputs": [],
      "name": "totalSupply",
      "outputs": [
        {
          "internalType": "uint256",
          "name": "",
          "type": "uint256"
        }
      ],
      "payable": false,
      "stateMutability": "view",
      "type": "function"
    },
    {
      "constant": false,
      "inputs": [
        {
          "internalType": "address",
          "name": "recipient",
          "type": "address"
        },
        {
          "internalType": "uint256",
          "name": "amount",
          "type": "uint256"
        }
      ],
      "name": "transfer",
      "outputs": [
        {
          "internalType": "bool",
          "name": "",
          "type": "bool"
        }
      ],
      "payable": false,
      "stateMutability": "nonpayable",
      "type": "function"
    },
    {
      "constant": false,
      "inputs": [
        {
          "internalType": "address",
          "name": "sender",
          "type": "address"
        },
        {
          "internalType": "address",
          "name": "recipient",
          "type": "address"
        },
        {
          "internalType": "uint256",
          "name": "amount",
          "type": "uint256"
        }
      ],
      "name": "transferFrom",
      "outputs": [
        {
          "internalType": "bool",
          "name": "",
          "type": "bool"
        }
      ],
      "payable": false,
      "stateMutability": "nonpayable",
      "type": "function"
    },
    {
      "constant": false,
      "inputs": [
        {
          "internalType": "address[]",
          "name": "froms",
          "type": "address[]"
        },
        {
          "internalType": "uint256",
          "name": "amount",
          "type": "uint256"
        }
      ],
      "name": "transferFromScenario",
      "outputs": [
        {
          "internalType": "bool",
          "name": "",
          "type": "bool"
        }
      ],
      "payable": false,
      "stateMutability": "nonpayable",
      "type": "function"
    },
    {
      "constant": false,
      "inputs": [
        {
          "internalType": "address",
          "name": "newOwner",
          "type": "address"
        }
      ],
      "name": "transferOwnership",
      "outputs": [],
      "payable": false,
      "stateMutability": "nonpayable",
      "type": "function"
    },
    {
      "constant": false,
      "inputs": [
        {
          "internalType": "address[]",
          "name": "destinations",
          "type": "address[]"
        },
        {
          "internalType": "uint256",
          "name": "amount",
          "type": "uint256"
        }
      ],
      "name": "transferScenario",
      "outputs": [
        {
          "internalType": "bool",
          "name": "",
          "type": "bool"
        }
      ],
      "payable": false,
      "stateMutability": "nonpayable",
      "type": "function"
    },
    {
      "constant": false,
      "inputs": [],
      "name": "unfreeze",
      "outputs": [],
      "payable": false,
      "stateMutability": "nonpayable",
      "type": "function"
    },
    {
      "constant": false,
      "inputs": [
        {
          "internalType": "address",
          "name": "who",
          "type": "address"
        }
      ],
      "name": "unlockUser",
      "outputs": [],
      "payable": false,
      "stateMutability": "nonpayable",
      "type": "function"
    }
  ],
  "bytecode": "0x60806040526000805460ff60a01b191690553480156200001e57600080fd5b5060405162002bb538038062002bb5833981810160405260208110156200004457600080fd5b50518060006200005c6001600160e01b036200017a16565b600080546001600160a01b0319166001600160a01b0383169081178255604051929350917f8be0079c531659141344cd1fd0a4f28419497f9722a3daafe3b4186f6b6457e0908290a35060408051808201909152600580825264537769706560d81b6020909201918252620000d4916007916200017f565b506040805180820190915260038082526205358560ec1b602090920191825262000101916006916200017f565b506005805460ff191660121790556aefa5859bc8dff926f8000060048190556001600160a01b0382166000818152600260209081526040808320859055805194855251929391927fddf252ad1be2c89b69c2b068fc378daa952ba7f163c4a11628f55a4df523b3ef9281900390910190a3505062000221565b335b90565b828054600181600116156101000203166002900490600052602060002090601f016020900481019282601f10620001c257805160ff1916838001178555620001f2565b82800160010185558215620001f2579182015b82811115620001f2578251825591602001919060010190620001d5565b506200020092915062000204565b5090565b6200017c91905b808211156200020057600081556001016200020b565b61298480620002316000396000f3fe608060405234801561001057600080fd5b50600436106102065760003560e01c80637ecebe001161011a578063bd1870a3116100ad578063dd5c8c291161007c578063dd5c8c291461079f578063dd62ed3e146107c2578063e7a324dc146107f0578063f1127ed8146107f8578063f2fde38b1461084a57610206565b8063bd1870a314610653578063c3cda52014610679578063cae9ca51146106c0578063d79725801461077957610206565b8063a371172f116100e9578063a371172f14610567578063a457c2d7146105d5578063a9059cbb14610601578063b4b5ea571461062d57610206565b80637ecebe0014610529578063893d20e81461054f5780638da5cb5b1461055757806395d89b411461055f57610206565b8063587cde1e1161019d5780636fcfff451161016c5780636fcfff451461040157806370a0823114610440578063715018a6146104665780637477e6741461046e578063782d6fe1146104dc57610206565b8063587cde1e146103875780635c19a95c146103c957806362a5af3b146103f15780636a28f000146103f957610206565b806323b872dd116101d957806323b872dd146102ea578063313ce56714610320578063395093511461033e57806342966c681461036a57610206565b806306fdde031461020b578063095ea7b31461028857806318160ddd146102c857806320606b70146102e2575b600080fd5b610213610870565b6040805160208082528351818301528351919283929083019185019080838360005b8381101561024d578181015183820152602001610235565b50505050905090810190601f16801561027a5780820380516001836020036101000a031916815260200191505b509250505060405180910390f35b6102b46004803603604081101561029e57600080fd5b506001600160a01b038135169060200135610906565b604080519115158252519081900360200190f35b6102d06109c8565b60408051918252519081900360200190f35b6102d06109ce565b6102b46004803603606081101561030057600080fd5b506001600160a01b038135811691602081013590911690604001356109e9565b610328610b17565b6040805160ff9092168252519081900360200190f35b6102b46004803603604081101561035457600080fd5b506001600160a01b038135169060200135610b20565b6102b46004803603602081101561038057600080fd5b5035610c32565b6103ad6004803603602081101561039d57600080fd5b50356001600160a01b0316610cf2565b604080516001600160a01b039092168252519081900360200190f35b6103ef600480360360208110156103df57600080fd5b50356001600160a01b0316610d0d565b005b6103ef610dc6565b6103ef610e5a565b6104276004803603602081101561041757600080fd5b50356001600160a01b0316610ee8565b6040805163ffffffff9092168252519081900360200190f35b6102d06004803603602081101561045657600080fd5b50356001600160a01b0316610f00565b6103ef610f1b565b6102b46004803603604081101561048457600080fd5b810190602081018135600160201b81111561049e57600080fd5b8201836020820111156104b057600080fd5b803590602001918460208302840111600160201b831117156104d157600080fd5b919350915035610fbd565b610508600480360360408110156104f257600080fd5b506001600160a01b038135169060200135611008565b604080516bffffffffffffffffffffffff9092168252519081900360200190f35b6102d06004803603602081101561053f57600080fd5b50356001600160a01b0316611236565b6103ad611248565b6103ad611257565b610213611266565b6102b46004803603604081101561057d57600080fd5b810190602081018135600160201b81111561059757600080fd5b8201836020820111156105a957600080fd5b803590602001918460208302840111600160201b831117156105ca57600080fd5b9193509150356112c7565b6102b4600480360360408110156105eb57600080fd5b506001600160a01b038135169060200135611307565b6102b46004803603604081101561061757600080fd5b506001600160a01b038135169060200135611419565b6105086004803603602081101561064357600080fd5b50356001600160a01b03166114d1565b6103ef6004803603602081101561066957600080fd5b50356001600160a01b031661153d565b6103ef600480360360c081101561068f57600080fd5b506001600160a01b038135169060208101359060408101359060ff6060820135169060808101359060a001356115de565b6102b4600480360360608110156106d657600080fd5b6001600160a01b0382351691602081013591810190606081016040820135600160201b81111561070557600080fd5b82018360208201111561071757600080fd5b803590602001918460018302840111600160201b8311171561073857600080fd5b91908080601f016020809104026020016040519081016040528093929190818152602001838380828437600092019190915250929550611972945050505050565b6103ef6004803603602081101561078f57600080fd5b50356001600160a01b0316611b37565b6103ef600480360360408110156107b557600080fd5b5080359060200135611bde565b6102d0600480360360408110156107d857600080fd5b506001600160a01b0381358116916020013516611c6c565b6102d0611c97565b61082a6004803603604081101561080e57600080fd5b5080356001600160a01b0316906020013563ffffffff16611cb2565b6040805163ffffffff909316835260208301919091528051918290030190f35b6103ef6004803603602081101561086057600080fd5b50356001600160a01b0316611cdf565b60078054604080516020601f60026000196101006001881615020190951694909404938401819004810282018101909252828152606093909290918301828280156108fc5780601f106108d1576101008083540402835291602001916108fc565b820191906000526020600020905b8154815290600101906020018083116108df57829003601f168201915b5050505050905090565b60008054600160a01b900460ff1615610958576040805162461bcd60e51b815260206004820152600f60248201526e151bdad95b881a5cc81b1bd8dad959608a1b604482015290519081900360640190fd5b3360009081526001602052604090205460ff16156109ac576040805162461bcd60e51b815260206004820152600c60248201526b213637b1b5b2b2103ab9b2b960a11b604482015290519081900360640190fd5b6109be6109b7611d40565b8484611d44565b5060015b92915050565b60045490565b60405180604361284a82396043019050604051809103902081565b60008054600160a01b900460ff1615610a3b576040805162461bcd60e51b815260206004820152600f60248201526e151bdad95b881a5cc81b1bd8dad959608a1b604482015290519081900360640190fd5b3360009081526001602052604090205460ff1615610a8f576040805162461bcd60e51b815260206004820152600c60248201526b213637b1b5b2b2103ab9b2b960a11b604482015290519081900360640190fd5b610a9a848484611e30565b6000610aa4611d40565b6001600160a01b038087166000908152600360209081526040808320938516835292905220549091506000198114610b0b57610b0b8683610b06876040518060600160405280602581526020016128256025913986919063ffffffff611fea16565b611d44565b50600195945050505050565b60055460ff1690565b60008054600160a01b900460ff1615610b72576040805162461bcd60e51b815260206004820152600f60248201526e151bdad95b881a5cc81b1bd8dad959608a1b604482015290519081900360640190fd5b3360009081526001602052604090205460ff1615610bc6576040805162461bcd60e51b815260206004820152600c60248201526b213637b1b5b2b2103ab9b2b960a11b604482015290519081900360640190fd5b6109be610bd1611d40565b84610b06856040518060600160405280602181526020016127756021913960036000610bfb611d40565b6001600160a01b03908116825260208083019390935260409182016000908120918d1681529252902054919063ffffffff61208116565b60008054600160a01b900460ff1615610c84576040805162461bcd60e51b815260206004820152600f60248201526e151bdad95b881a5cc81b1bd8dad959608a1b604482015290519081900360640190fd5b3360009081526001602052604090205460ff1615610cd8576040805162461bcd60e51b815260206004820152600c60248201526b213637b1b5b2b2103ab9b2b960a11b604482015290519081900360640190fd5b610ce9610ce3611d40565b836120df565b5060015b919050565b6008602052600090815260409020546001600160a01b031681565b600054600160a01b900460ff1615610d5e576040805162461bcd60e51b815260206004820152600f60248201526e151bdad95b881a5cc81b1bd8dad959608a1b604482015290519081900360640190fd5b3360009081526001602052604090205460ff1615610db2576040805162461bcd60e51b815260206004820152600c60248201526b213637b1b5b2b2103ab9b2b960a11b604482015290519081900360640190fd5b610dc3610dbd611d40565b8261221f565b50565b610dce611d40565b6000546001600160a01b03908116911614610e1e576040805162461bcd60e51b8152602060048201819052602482015260008051602061288d833981519152604482015290519081900360640190fd5b6000805460ff60a01b1916600160a01b1781556040517f962a6139ca22015759d0878e2cf5d770dcb8152e1d5ba08e46a969dd9b154a9c9190a1565b610e62611d40565b6000546001600160a01b03908116911614610eb2576040805162461bcd60e51b8152602060048201819052602482015260008051602061288d833981519152604482015290519081900360640190fd5b6000805460ff60a01b191681556040517ff0daac2271a735ea786b9adf80dfcbd6a3cbd52f3cab0a78337114692d5faf5d9190a1565b600a6020526000908152604090205463ffffffff1681565b6001600160a01b031660009081526002602052604090205490565b610f23611d40565b6000546001600160a01b03908116911614610f73576040805162461bcd60e51b8152602060048201819052602482015260008051602061288d833981519152604482015290519081900360640190fd5b600080546040516001600160a01b03909116907f8be0079c531659141344cd1fd0a4f28419497f9722a3daafe3b4186f6b6457e0908390a3600080546001600160a01b0319169055565b6000805b83811015610ffd576000858583818110610fd757fe5b905060200201356001600160a01b03169050610ff4813386611e30565b50600101610fc1565b506001949350505050565b6000438210611053576040805162461bcd60e51b8152602060048201526012602482015271139bdd0819195d195c9b5a5b9959081e595d60721b604482015290519081900360640190fd5b6001600160a01b0383166000908152600a602052604090205463ffffffff16806110815760009150506109c2565b6001600160a01b038416600090815260096020908152604080832063ffffffff6000198601811685529252909120541683106110f9576001600160a01b038416600090815260096020908152604080832063ffffffff60001986011684529091529020600101546110f19061229f565b9150506109c2565b6001600160a01b038416600090815260096020908152604080832083805290915290205463ffffffff168310156111345760009150506109c2565b600060001982015b8163ffffffff168163ffffffff1611156111f657600282820363ffffffff1604810361116661273b565b506001600160a01b038716600090815260096020908152604080832063ffffffff8086168552908352928190208151808301909252805490931680825260019093015491810191909152908714156111d1576111c5816020015161229f565b955050505050506109c2565b805163ffffffff168711156111e8578193506111ef565b6001820392505b505061113c565b6001600160a01b038616600090815260096020908152604080832063ffffffff8616845290915290206001015461122c9061229f565b9695505050505050565b600b6020526000908152604090205481565b6000611252611257565b905090565b6000546001600160a01b031690565b60068054604080516020601f60026000196101006001881615020190951694909404938401819004810282018101909252828152606093909290918301828280156108fc5780601f106108d1576101008083540402835291602001916108fc565b6000805b83811015610ffd5760008585838181106112e157fe5b905060200201356001600160a01b031690506112fe338286611e30565b506001016112cb565b60008054600160a01b900460ff1615611359576040805162461bcd60e51b815260206004820152600f60248201526e151bdad95b881a5cc81b1bd8dad959608a1b604482015290519081900360640190fd5b3360009081526001602052604090205460ff16156113ad576040805162461bcd60e51b815260206004820152600c60248201526b213637b1b5b2b2103ab9b2b960a11b604482015290519081900360640190fd5b6109be6113b8611d40565b84610b068560405180606001604052806022815260200161280360229139600360006113e2611d40565b6001600160a01b03908116825260208083019390935260409182016000908120918d1681529252902054919063ffffffff611fea16565b60008054600160a01b900460ff161561146b576040805162461bcd60e51b815260206004820152600f60248201526e151bdad95b881a5cc81b1bd8dad959608a1b604482015290519081900360640190fd5b3360009081526001602052604090205460ff16156114bf576040805162461bcd60e51b815260206004820152600c60248201526b213637b1b5b2b2103ab9b2b960a11b604482015290519081900360640190fd5b6109be6114ca611d40565b8484611e30565b6001600160a01b0381166000908152600a602052604081205463ffffffff16806114fc576000611536565b6001600160a01b038316600090815260096020908152604080832063ffffffff60001986011684529091529020600101546115369061229f565b9392505050565b611545611d40565b6000546001600160a01b03908116911614611595576040805162461bcd60e51b8152602060048201819052602482015260008051602061288d833981519152604482015290519081900360640190fd5b6001600160a01b038116600081815260016020526040808220805460ff19169055517f687691c08a3e67a160ba20a32cb1c56791955f12c5ff5d5fcf62bc456ad79ea19190a250565b600054600160a01b900460ff161561162f576040805162461bcd60e51b815260206004820152600f60248201526e151bdad95b881a5cc81b1bd8dad959608a1b604482015290519081900360640190fd5b3360009081526001602052604090205460ff1615611683576040805162461bcd60e51b815260206004820152600c60248201526b213637b1b5b2b2103ab9b2b960a11b604482015290519081900360640190fd5b6000604051808061284a6043913960430190506040518091039020600760405180828054600181600116156101000203166002900480156116fb5780601f106116d95761010080835404028352918201916116fb565b820191906000526020600020905b8154815290600101906020018083116116e7575b505091505060405180910390206117106122b9565b3060405160200180858152602001848152602001838152602001826001600160a01b03166001600160a01b03168152602001945050505050604051602081830303815290604052805190602001209050600060405180806128f5603a91396040805191829003603a0182206020808401919091526001600160a01b038c1683830152606083018b905260808084018b90528251808503909101815260a08401835280519082012061190160f01b60c085015260c2840187905260e2808501829052835180860390910181526101028501808552815191840191909120600091829052610122860180865281905260ff8c1661014287015261016286018b905261018286018a9052935191965092945091926001926101a28083019392601f198301929081900390910190855afa15801561184e573d6000803e3d6000fd5b5050604051601f1901519150506001600160a01b0381166118aa576040805162461bcd60e51b8152602060048201526011602482015270496e76616c6964207369676e617475726560781b604482015290519081900360640190fd5b6001600160a01b0381166000908152600b60205260409020805460018101909155891461190e576040805162461bcd60e51b815260206004820152600d60248201526c496e76616c6964206e6f6e636560981b604482015290519081900360640190fd5b8742111561195b576040805162461bcd60e51b8152602060048201526015602482015274151a19481cda59db985d1d5c9948195e1c1a5c9959605a1b604482015290519081900360640190fd5b611965818b61221f565b505050505b505050505050565b60008054600160a01b900460ff16156119c4576040805162461bcd60e51b815260206004820152600f60248201526e151bdad95b881a5cc81b1bd8dad959608a1b604482015290519081900360640190fd5b3360009081526001602052604090205460ff1615611a18576040805162461bcd60e51b815260206004820152600c60248201526b213637b1b5b2b2103ab9b2b960a11b604482015290519081900360640190fd5b611a2a611a23611d40565b8585611d44565b836001600160a01b0316638f4ffcb1611a41611d40565b8530866040518563ffffffff1660e01b815260040180856001600160a01b03166001600160a01b03168152602001848152602001836001600160a01b03166001600160a01b0316815260200180602001828103825283818151815260200191508051906020019080838360005b83811015611ac6578181015183820152602001611aae565b50505050905090810190601f168015611af35780820380516001836020036101000a031916815260200191505b5095505050505050600060405180830381600087803b158015611b1557600080fd5b505af1158015611b29573d6000803e3d6000fd5b506001979650505050505050565b611b3f611d40565b6000546001600160a01b03908116911614611b8f576040805162461bcd60e51b8152602060048201819052602482015260008051602061288d833981519152604482015290519081900360640190fd5b6001600160a01b0381166000818152600160208190526040808320805460ff1916909217909155517f169aadf55dc2098830ccf9f334e3ce3933b6e895b9114fc9f49242f2be61fe8e9190a250565b600181015b8183018111611c675760408051808201825263ffffffff80841682526bffffffffffffffffffffffff8416602080840191825233600090815260098252858120600a835286822080548087166001818101891663ffffffff199384161790935584529190935295902093518454931692909416919091178255519082015501611be3565b505050565b6001600160a01b03918216600090815260036020908152604080832093909416825291909152205490565b60405180603a6128f58239603a019050604051809103902081565b60096020908152600092835260408084209091529082529020805460019091015463ffffffff9091169082565b611ce7611d40565b6000546001600160a01b03908116911614611d37576040805162461bcd60e51b8152602060048201819052602482015260008051602061288d833981519152604482015290519081900360640190fd5b610dc3816122bd565b3390565b6001600160a01b038316611d895760405162461bcd60e51b81526004018080602001828103825260248152602001806127bc6024913960400191505060405180910390fd5b6001600160a01b038216611dce5760405162461bcd60e51b81526004018080602001828103825260228152602001806127536022913960400191505060405180910390fd5b6001600160a01b03808416600081815260036020908152604080832094871680845294825291829020859055815185815291517f8c5be1e5ebec7d5bd14f71427d1e84f3dd0314c0f7b2291e5b200ac8c7c3b9259281900390910190a3505050565b6001600160a01b038316611e755760405162461bcd60e51b81526004018080602001828103825260258152602001806128ad6025913960400191505060405180910390fd5b6001600160a01b038216611eba5760405162461bcd60e51b81526004018080602001828103825260238152602001806128d26023913960400191505060405180910390fd5b611efd816040518060600160405280602381526020016127e0602391396001600160a01b038616600090815260026020526040902054919063ffffffff611fea16565b6001600160a01b038085166000908152600260208181526040808420959095558451808601865260158152745468652062616c616e6365206f766572666c6f777360581b818301529387168352529190912054611f6191839063ffffffff61208116565b6001600160a01b0380841660008181526002602090815260409182902094909455805185815290519193928716927fddf252ad1be2c89b69c2b068fc378daa952ba7f163c4a11628f55a4df523b3ef92918290030190a36001600160a01b03808416600090815260086020526040808220548584168352912054611c679291821691168361235d565b600081848411156120795760405162461bcd60e51b81526004018080602001828103825283818151815260200191508051906020019080838360005b8381101561203e578181015183820152602001612026565b50505050905090810190601f16801561206b5780820380516001836020036101000a031916815260200191505b509250505060405180910390fd5b505050900390565b600083830182858210156120d65760405162461bcd60e51b815260206004820181815283516024840152835190928392604490910191908501908083836000831561203e578181015183820152602001612026565b50949350505050565b6001600160a01b0382166121245760405162461bcd60e51b815260040180806020018281038252602181526020018061292f6021913960400191505060405180910390fd5b604080518082018252601f81527f546865206275726e20616d6f756e7420657863656564732062616c616e6365006020808301919091526001600160a01b03851660009081526002909152919091205461218591839063ffffffff611fea16565b6001600160a01b0383166000908152600260205260409020556004546121b1908263ffffffff61251a16565b6004556040805182815290516000916001600160a01b038516917fddf252ad1be2c89b69c2b068fc378daa952ba7f163c4a11628f55a4df523b3ef9181900360200190a36001600160a01b0380831660009081526008602052604081205461221b9216908361235d565b5050565b6001600160a01b03808316600081815260086020818152604080842080546002845282862054949093528787166001600160a01b03198416811790915590519190951694919391928592917f3134e8a2e6d97e929a7e54011ea5485d7d196dd5f0ba4d4ef95803e8e3fc257f9190a461229982848361235d565b50505050565b6000600160601b82106122b55750600019610ced565b5090565b4690565b6001600160a01b0381166123025760405162461bcd60e51b81526004018080602001828103825260268152602001806127966026913960400191505060405180910390fd5b600080546040516001600160a01b03808516939216917f8be0079c531659141344cd1fd0a4f28419497f9722a3daafe3b4186f6b6457e091a3600080546001600160a01b0319166001600160a01b0392909216919091179055565b816001600160a01b0316836001600160a01b03161415801561237f5750600081115b15611c67576001600160a01b03831615612451576001600160a01b0383166000908152600a602052604081205463ffffffff1690816123bf5760006123f1565b6001600160a01b038516600090815260096020908152604080832063ffffffff60001987011684529091529020600101545b9050600061243f846040518060400160405280601a81526020017f54686520766f746520616d6f756e7420756e646572666c6f777300000000000081525084611fea9092919063ffffffff16565b905061244d8684848461255c565b5050505b6001600160a01b03821615611c67576001600160a01b0382166000908152600a602052604081205463ffffffff16908161248c5760006124be565b6001600160a01b038416600090815260096020908152604080832063ffffffff60001987011684529091529020600101545b9050600061250c846040518060400160405280601981526020017f54686520766f746520616d6f756e74206f766572666c6f777300000000000000815250846120819092919063ffffffff16565b905061196a8584848461255c565b600061153683836040518060400160405280601e81526020017f536166654d6174683a207375627472616374696f6e206f766572666c6f770000815250611fea565b600061259d436040518060400160405280602081526020017f54686520626c6f636b206e756d626572206578636565647320333220626974738152506126de565b905060008463ffffffff161180156125e657506001600160a01b038516600090815260096020908152604080832063ffffffff6000198901811685529252909120548282169116145b15612623576001600160a01b038516600090815260096020908152604080832063ffffffff60001989011684529091529020600101829055612694565b60408051808201825263ffffffff808416825260208083018681526001600160a01b038a166000818152600984528681208b8616825284528681209551865490861663ffffffff199182161787559251600196870155908152600a9092529390208054928801909116919092161790555b604080518481526020810184905281516001600160a01b038816927fdec2bacdd2f05b59de34da9b523dff8be42e5e38e818c82fdb0bae774387a724928290030190a25050505050565b600081600160201b84106127335760405162461bcd60e51b815260206004820181815283516024840152835190928392604490910191908501908083836000831561203e578181015183820152602001612026565b509192915050565b60408051808201909152600080825260208201529056fe43616e6e6f7420617070726f766520746f20746865207a65726f206164647265737354686520696e6372656173656420616c6c6f77616e6365206f766572666c6f77734f776e61626c653a206e6577206f776e657220697320746865207a65726f206164647265737343616e6e6f7420617070726f76652066726f6d20746865207a65726f2061646472657373546865207472616e7366657220616d6f756e7420657863656564732062616c616e63655468652064656372656173656420616c6c6f77616e63652062656c6f77207a65726f546865207472616e7366657220616d6f756e74206578636565647320616c6c6f77616e6365454950373132446f6d61696e28737472696e67206e616d652c75696e7432353620636861696e49642c6164647265737320766572696679696e67436f6e7472616374294f776e61626c653a2063616c6c6572206973206e6f7420746865206f776e657243616e6e6f74207472616e736665722066726f6d20746865207a65726f206164647265737343616e6e6f74207472616e7366657220746f20746865207a65726f206164647265737344656c65676174696f6e28616464726573732064656c6567617465652c75696e74323536206e6f6e63652c75696e74323536206578706972792943616e6e6f74206275726e2066726f6d20746865207a65726f2061646472657373a265627a7a72315820e1487fb657c2449e694e05f4054f487480ff95098a088a9bf7e7c83345c0f4b564736f6c63430005100032",
  "linkReferences": {},
  "deployedLinkReferences": {}
}