{
  "_format": "hh-sol-artifact-1",
  "contractName": "VAIControllerScenario",
  "sourceName": "contracts/test/VAIControllerScenario.sol",
  "abi": [
    {
      "inputs": [],
      "payable": false,
      "stateMutability": "nonpayable",
      "type": "constructor"
    },
    {
      "anonymous": false,
      "inputs": [
        {
          "indexed": false,
          "internalType": "uint256",
          "name": "error",
          "type": "uint256"
        },
        {
          "indexed": false,
          "internalType": "uint256",
          "name": "info",
          "type": "uint256"
        },
        {
          "indexed": false,
          "internalType": "uint256",
          "name": "detail",
          "type": "uint256"
        }
      ],
      "name": "Failure",
      "type": "event"
    },
    {
      "anonymous": false,
      "inputs": [
        {
          "indexed": false,
          "internalType": "address",
          "name": "liquidator",
          "type": "address"
        },
        {
          "indexed": false,
          "internalType": "address",
          "name": "borrower",
          "type": "address"
        },
        {
          "indexed": false,
          "internalType": "uint256",
          "name": "repayAmount",
          "type": "uint256"
        },
        {
          "indexed": false,
          "internalType": "address",
          "name": "vTokenCollateral",
          "type": "address"
        },
        {
          "indexed": false,
          "internalType": "uint256",
          "name": "seizeTokens",
          "type": "uint256"
        }
      ],
      "name": "LiquidateVAI",
      "type": "event"
    },
    {
      "anonymous": false,
      "inputs": [
        {
          "indexed": false,
          "internalType": "address",
          "name": "minter",
          "type": "address"
        },
        {
          "indexed": false,
          "internalType": "uint256",
          "name": "feeAmount",
          "type": "uint256"
        }
      ],
      "name": "MintFee",
      "type": "event"
    },
    {
      "anonymous": false,
      "inputs": [
        {
          "indexed": false,
          "internalType": "address",
          "name": "minter",
          "type": "address"
        },
        {
          "indexed": false,
          "internalType": "uint256",
          "name": "mintVAIAmount",
          "type": "uint256"
        }
      ],
      "name": "MintVAI",
      "type": "event"
    },
    {
      "anonymous": false,
      "inputs": [
        {
          "indexed": false,
          "internalType": "contract ComptrollerInterface",
          "name": "oldComptroller",
          "type": "address"
        },
        {
          "indexed": false,
          "internalType": "contract ComptrollerInterface",
          "name": "newComptroller",
          "type": "address"
        }
      ],
      "name": "NewComptroller",
      "type": "event"
    },
    {
      "anonymous": false,
      "inputs": [
        {
          "indexed": false,
          "internalType": "address",
          "name": "oldTreasuryAddress",
          "type": "address"
        },
        {
          "indexed": false,
          "internalType": "address",
          "name": "newTreasuryAddress",
          "type": "address"
        }
      ],
      "name": "NewTreasuryAddress",
      "type": "event"
    },
    {
      "anonymous": false,
      "inputs": [
        {
          "indexed": false,
          "internalType": "address",
          "name": "oldTreasuryGuardian",
          "type": "address"
        },
        {
          "indexed": false,
          "internalType": "address",
          "name": "newTreasuryGuardian",
          "type": "address"
        }
      ],
      "name": "NewTreasuryGuardian",
      "type": "event"
    },
    {
      "anonymous": false,
      "inputs": [
        {
          "indexed": false,
          "internalType": "uint256",
          "name": "oldTreasuryPercent",
          "type": "uint256"
        },
        {
          "indexed": false,
          "internalType": "uint256",
          "name": "newTreasuryPercent",
          "type": "uint256"
        }
      ],
      "name": "NewTreasuryPercent",
      "type": "event"
    },
    {
      "anonymous": false,
      "inputs": [
        {
          "indexed": false,
          "internalType": "address",
          "name": "payer",
          "type": "address"
        },
        {
          "indexed": false,
          "internalType": "address",
          "name": "borrower",
          "type": "address"
        },
        {
          "indexed": false,
          "internalType": "uint256",
          "name": "repayVAIAmount",
          "type": "uint256"
        }
      ],
      "name": "RepayVAI",
      "type": "event"
    },
    {
      "constant": false,
      "inputs": [
        {
          "internalType": "contract VAIUnitroller",
          "name": "unitroller",
          "type": "address"
        }
      ],
      "name": "_become",
      "outputs": [],
      "payable": false,
      "stateMutability": "nonpayable",
      "type": "function"
    },
    {
      "constant": false,
      "inputs": [
        {
          "internalType": "contract ComptrollerInterface",
          "name": "comptroller_",
          "type": "address"
        }
      ],
      "name": "_setComptroller",
      "outputs": [
        {
          "internalType": "uint256",
          "name": "",
          "type": "uint256"
        }
      ],
      "payable": false,
      "stateMutability": "nonpayable",
      "type": "function"
    },
    {
      "constant": false,
      "inputs": [
        {
          "internalType": "address",
          "name": "newTreasuryGuardian",
          "type": "address"
        },
        {
          "internalType": "address",
          "name": "newTreasuryAddress",
          "type": "address"
        },
        {
          "internalType": "uint256",
          "name": "newTreasuryPercent",
          "type": "uint256"
        }
      ],
      "name": "_setTreasuryData",
      "outputs": [
        {
          "internalType": "uint256",
          "name": "",
          "type": "uint256"
        }
      ],
      "payable": false,
      "stateMutability": "nonpayable",
      "type": "function"
    },
    {
      "constant": true,
      "inputs": [],
      "name": "admin",
      "outputs": [
        {
          "internalType": "address",
          "name": "",
          "type": "address"
        }
      ],
      "payable": false,
      "stateMutability": "view",
      "type": "function"
    },
    {
      "constant": true,
      "inputs": [],
      "name": "comptroller",
      "outputs": [
        {
          "internalType": "contract ComptrollerInterface",
          "name": "",
          "type": "address"
        }
      ],
      "payable": false,
      "stateMutability": "view",
      "type": "function"
    },
    {
      "constant": true,
      "inputs": [],
      "name": "getBlockNumber",
      "outputs": [
        {
          "internalType": "uint256",
          "name": "",
          "type": "uint256"
        }
      ],
      "payable": false,
      "stateMutability": "view",
      "type": "function"
    },
    {
      "constant": true,
      "inputs": [
        {
          "internalType": "address",
          "name": "minter",
          "type": "address"
        }
      ],
      "name": "getMintableVAI",
      "outputs": [
        {
          "internalType": "uint256",
          "name": "",
          "type": "uint256"
        },
        {
          "internalType": "uint256",
          "name": "",
          "type": "uint256"
        }
      ],
      "payable": false,
      "stateMutability": "view",
      "type": "function"
    },
    {
      "constant": true,
      "inputs": [],
      "name": "getVAIAddress",
      "outputs": [
        {
          "internalType": "address",
          "name": "",
          "type": "address"
        }
      ],
      "payable": false,
      "stateMutability": "view",
      "type": "function"
    },
    {
      "constant": false,
      "inputs": [],
      "name": "initialize",
      "outputs": [],
      "payable": false,
      "stateMutability": "nonpayable",
      "type": "function"
    },
    {
      "constant": true,
      "inputs": [],
      "name": "isVenusVAIInitialized",
      "outputs": [
        {
          "internalType": "bool",
          "name": "",
          "type": "bool"
        }
      ],
      "payable": false,
      "stateMutability": "view",
      "type": "function"
    },
    {
      "constant": false,
      "inputs": [
        {
          "internalType": "address",
          "name": "borrower",
          "type": "address"
        },
        {
          "internalType": "uint256",
          "name": "repayAmount",
          "type": "uint256"
        },
        {
          "internalType": "contract VTokenInterface",
          "name": "vTokenCollateral",
          "type": "address"
        }
      ],
      "name": "liquidateVAI",
      "outputs": [
        {
          "internalType": "uint256",
          "name": "",
          "type": "uint256"
        },
        {
          "internalType": "uint256",
          "name": "",
          "type": "uint256"
        }
      ],
      "payable": false,
      "stateMutability": "nonpayable",
      "type": "function"
    },
    {
      "constant": false,
      "inputs": [
        {
          "internalType": "uint256",
          "name": "mintVAIAmount",
          "type": "uint256"
        }
      ],
      "name": "mintVAI",
      "outputs": [
        {
          "internalType": "uint256",
          "name": "",
          "type": "uint256"
        }
      ],
      "payable": false,
      "stateMutability": "nonpayable",
      "type": "function"
    },
    {
      "constant": true,
      "inputs": [],
      "name": "pendingAdmin",
      "outputs": [
        {
          "internalType": "address",
          "name": "",
          "type": "address"
        }
      ],
      "payable": false,
      "stateMutability": "view",
      "type": "function"
    },
    {
      "constant": true,
      "inputs": [],
      "name": "pendingVAIControllerImplementation",
      "outputs": [
        {
          "internalType": "address",
          "name": "",
          "type": "address"
        }
      ],
      "payable": false,
      "stateMutability": "view",
      "type": "function"
    },
    {
      "constant": false,
      "inputs": [
        {
          "internalType": "uint256",
          "name": "repayVAIAmount",
          "type": "uint256"
        }
      ],
      "name": "repayVAI",
      "outputs": [
        {
          "internalType": "uint256",
          "name": "",
          "type": "uint256"
        },
        {
          "internalType": "uint256",
          "name": "",
          "type": "uint256"
        }
      ],
      "payable": false,
      "stateMutability": "nonpayable",
      "type": "function"
    },
    {
      "constant": false,
      "inputs": [
        {
          "internalType": "uint256",
          "name": "number",
          "type": "uint256"
        }
      ],
      "name": "setBlockNumber",
      "outputs": [],
      "payable": false,
      "stateMutability": "nonpayable",
      "type": "function"
    },
    {
      "constant": false,
      "inputs": [
        {
          "internalType": "address",
          "name": "vaiAddress_",
          "type": "address"
        }
      ],
      "name": "setVAIAddress",
      "outputs": [],
      "payable": false,
      "stateMutability": "nonpayable",
      "type": "function"
    },
    {
      "constant": true,
      "inputs": [],
      "name": "treasuryAddress",
      "outputs": [
        {
          "internalType": "address",
          "name": "",
          "type": "address"
        }
      ],
      "payable": false,
      "stateMutability": "view",
      "type": "function"
    },
    {
      "constant": true,
      "inputs": [],
      "name": "treasuryGuardian",
      "outputs": [
        {
          "internalType": "address",
          "name": "",
          "type": "address"
        }
      ],
      "payable": false,
      "stateMutability": "view",
      "type": "function"
    },
    {
      "constant": true,
      "inputs": [],
      "name": "treasuryPercent",
      "outputs": [
        {
          "internalType": "uint256",
          "name": "",
          "type": "uint256"
        }
      ],
      "payable": false,
      "stateMutability": "view",
      "type": "function"
    },
    {
      "constant": true,
      "inputs": [],
      "name": "vaiAddress",
      "outputs": [
        {
          "internalType": "address",
          "name": "",
          "type": "address"
        }
      ],
      "payable": false,
      "stateMutability": "view",
      "type": "function"
    },
    {
      "constant": true,
      "inputs": [],
      "name": "vaiControllerImplementation",
      "outputs": [
        {
          "internalType": "address",
          "name": "",
          "type": "address"
        }
      ],
      "payable": false,
      "stateMutability": "view",
      "type": "function"
    },
    {
      "constant": true,
      "inputs": [],
      "name": "venusInitialIndex",
      "outputs": [
        {
          "internalType": "uint224",
          "name": "",
          "type": "uint224"
        }
      ],
      "payable": false,
      "stateMutability": "view",
      "type": "function"
    },
    {
      "constant": true,
      "inputs": [
        {
          "internalType": "address",
          "name": "",
          "type": "address"
        }
      ],
      "name": "venusVAIMinterIndex",
      "outputs": [
        {
          "internalType": "uint256",
          "name": "",
          "type": "uint256"
        }
      ],
      "payable": false,
      "stateMutability": "view",
      "type": "function"
    },
    {
      "constant": true,
      "inputs": [],
      "name": "venusVAIState",
      "outputs": [
        {
          "internalType": "uint224",
          "name": "index",
          "type": "uint224"
        },
        {
          "internalType": "uint32",
          "name": "block",
          "type": "uint32"
        }
      ],
      "payable": false,
      "stateMutability": "view",
      "type": "function"
    },
    {
      "constant": true,
      "inputs": [],
      "name": "xvsAddress",
      "outputs": [
        {
          "internalType": "address",
          "name": "",
          "type": "address"
        }
      ],
      "payable": false,
      "stateMutability": "view",
      "type": "function"
    }
  ],
  "bytecode": "0x608060405234801561001057600080fd5b50612690806100206000396000f3fe608060405234801561001057600080fd5b506004361061018d5760003560e01c806360c954ef116100de578063b2eafc3911610097578063cbeb2b2811610071578063cbeb2b28146103be578063d24febad146103c6578063e44e6168146103fc578063f851a4401461042c5761018d565b8063b2eafc391461038a578063c5b4db5514610392578063c5f956af146103b65761018d565b806360c954ef146102fe5780636fe74a211461031a5780638129fc1c14610337578063919b22b41461033f578063a8c3c85014610365578063b06bb426146103825761018d565b8063358ae0361161014b57806343b67e4c1161012557806343b67e4c146102ab5780634576b5db146102b35780634712ee7d146102d95780635fe3b567146102f65761018d565b8063358ae036146102755780633785d1d61461027d57806342cbb15c146102a35761018d565b80623b58841461019257806304ef9d58146101b657806311b3d5e7146101d05780631d504dc61461021f5780632465060214610247578063267822471461026d575b600080fd5b61019a610434565b604080516001600160a01b039092168252519081900360200190f35b6101be610443565b60408051918252519081900360200190f35b610206600480360360608110156101e657600080fd5b506001600160a01b03813581169160208101359160409091013516610449565b6040805192835260208301919091528051918290030190f35b6102456004803603602081101561023557600080fd5b50356001600160a01b031661060e565b005b6101be6004803603602081101561025d57600080fd5b50356001600160a01b031661076d565b61019a61077f565b61019a61078e565b6102066004803603602081101561029357600080fd5b50356001600160a01b031661079d565b6101be610ec2565b61019a610ec8565b6101be600480360360208110156102c957600080fd5b50356001600160a01b0316610ed7565b6101be600480360360208110156102ef57600080fd5b5035610f67565b61019a611598565b6103066115a7565b604080519115158252519081900360200190f35b6102066004803603602081101561033057600080fd5b50356115b0565b610245611744565b6102456004803603602081101561035557600080fd5b50356001600160a01b03166117a3565b6102456004803603602081101561037b57600080fd5b50356117c5565b61019a6117ca565b61019a6117d9565b61039a6117e8565b604080516001600160e01b039092168252519081900360200190f35b61019a6117fb565b61019a61180a565b6101be600480360360608110156103dc57600080fd5b506001600160a01b03813581169160208101359091169060400135611819565b6104046119bc565b604080516001600160e01b03909316835263ffffffff90911660208301528051918290030190f35b61019a6119da565b6002546001600160a01b031681565b600a5481565b600b54600090819060ff16610492576040805162461bcd60e51b815260206004820152600a6024820152691c994b595b9d195c995960b21b604482015290519081900360640190fd5b600b805460ff19169055600480546040805163084bf5ab60e31b815290516001600160a01b039092169263425fad58928282019260209290829003018186803b1580156104de57600080fd5b505afa1580156104f2573d6000803e3d6000fd5b505050506040513d602081101561050857600080fd5b505115610551576040805162461bcd60e51b81526020600482015260126024820152711c1c9bdd1bd8dbdb081a5cc81c185d5cd95960721b604482015290519081900360640190fd5b6000836001600160a01b031663a6afed956040518163ffffffff1660e01b8152600401602060405180830381600087803b15801561058e57600080fd5b505af11580156105a2573d6000803e3d6000fd5b505050506040513d60208110156105b857600080fd5b5051905080156105e5576105d88160068111156105d157fe5b60086119e9565b9250600091506105f79050565b6105f133878787611a4f565b92509250505b600b805460ff191660011790559094909350915050565b806001600160a01b031663f851a4406040518163ffffffff1660e01b815260040160206040518083038186803b15801561064757600080fd5b505afa15801561065b573d6000803e3d6000fd5b505050506040513d602081101561067157600080fd5b50516001600160a01b031633146106b95760405162461bcd60e51b81526004018080602001828103825260278152602001806126356027913960400191505060405180910390fd5b806001600160a01b031663c1e803346040518163ffffffff1660e01b8152600401602060405180830381600087803b1580156106f457600080fd5b505af1158015610708573d6000803e3d6000fd5b505050506040513d602081101561071e57600080fd5b50511561076a576040805162461bcd60e51b815260206004820152601560248201527418da185b99d9481b9bdd08185d5d1a1bdc9a5e9959605a1b604482015290519081900360640190fd5b50565b60076020526000908152604090205481565b6001546001600160a01b031681565b600d546001600160a01b031681565b6000806000600460009054906101000a90046001600160a01b03166001600160a01b0316637dc0d1d06040518163ffffffff1660e01b815260040160206040518083038186803b1580156107f057600080fd5b505afa158015610804573d6000803e3d6000fd5b505050506040513d602081101561081a57600080fd5b50516004805460408051632aff3bff60e21b81526001600160a01b03898116948201949094529051939450606093929091169163abfceffc91602480820192600092909190829003018186803b15801561087357600080fd5b505afa158015610887573d6000803e3d6000fd5b505050506040513d6000823e601f3d908101601f1916820160405260208110156108b057600080fd5b81019080805160405193929190846401000000008211156108d057600080fd5b9083019060208201858111156108e557600080fd5b825186602082028301116401000000008211171561090257600080fd5b82525081516020918201928201910280838360005b8381101561092f578181015183820152602001610917565b50505050905001604052505050905061094661250a565b6000805b8351811015610c1e5783818151811061095f57fe5b60200260200101516001600160a01b031663c37f68e2896040518263ffffffff1660e01b815260040180826001600160a01b03166001600160a01b0316815260200191505060806040518083038186803b1580156109bc57600080fd5b505afa1580156109d0573d6000803e3d6000fd5b505050506040513d60808110156109e657600080fd5b5080516020820151604083015160609093015160c087015260a0860192909252608085019190915280845215610a2a5760035b965060009550610ebd945050505050565b60405180602001604052808460c00151815250836101000181905250846001600160a01b031663fc57d4df858381518110610a6157fe5b60200260200101516040518263ffffffff1660e01b815260040180826001600160a01b03166001600160a01b0316815260200191505060206040518083038186803b158015610aaf57600080fd5b505afa158015610ac3573d6000803e3d6000fd5b505050506040513d6020811015610ad957600080fd5b505160e08401819052610aed576004610a19565b604080516020810190915260e084015181526101208401819052610100840151610b1691611fa2565b610140850181905260208501826003811115610b2e57fe5b6003811115610b3957fe5b9052506000905083602001516003811115610b5057fe5b14610b5c576005610a19565b610b748361014001518460800151856040015161208d565b6040850181905260208501826003811115610b8b57fe5b6003811115610b9657fe5b9052506000905083602001516003811115610bad57fe5b14610bb9576005610a19565b610bd18361012001518460a00151856060015161208d565b6060850181905260208501826003811115610be857fe5b6003811115610bf357fe5b9052506000905083602001516003811115610c0a57fe5b14610c16576005610a19565b60010161094a565b606083015160048054604080516315e3f14f60e11b81526001600160a01b038d8116948201949094529051610ca9949390921691632bc7e29e91602480820192602092909190829003018186803b158015610c7857600080fd5b505afa158015610c8c573d6000803e3d6000fd5b505050506040513d6020811015610ca257600080fd5b50516120e9565b6060850181905260208501826003811115610cc057fe5b6003811115610ccb57fe5b9052506000905083602001516003811115610ce257fe5b14610cee576005610a19565b610d758360400151600460009054906101000a90046001600160a01b03166001600160a01b031663bec04f726040518163ffffffff1660e01b815260040160206040518083038186803b158015610d4457600080fd5b505afa158015610d58573d6000803e3d6000fd5b505050506040513d6020811015610d6e57600080fd5b505161210f565b84602001819450826003811115610d8857fe5b6003811115610d9357fe5b9052506000905083602001516003811115610daa57fe5b14610de65760405162461bcd60e51b81526004018080602001828103825260228152602001806125ba6022913960400191505060405180910390fd5b610df28261271061214e565b84602001819450826003811115610e0557fe5b6003811115610e1057fe5b9052506000905083602001516003811115610e2757fe5b14610e635760405162461bcd60e51b81526004018080602001828103825260228152602001806125ba6022913960400191505060405180910390fd5b610e71828460600151612179565b84602001819450826003811115610e8457fe5b6003811115610e8f57fe5b9052506000905083602001516003811115610ea657fe5b14610eb2576002610a19565b506000955093505050505b915091565b600c5490565b600e546001600160a01b031681565b600080546001600160a01b03163314610efd57610ef6600160026119e9565b9050610f62565b600480546001600160a01b038481166001600160a01b0319831681179093556040805191909216808252602082019390935281517f7ac369dbd14fa5ea3f473ed67cc9d598964a77501540ba6751eb0b3decf5870d929181900390910190a160009150505b919050565b600b5460009060ff16610fae576040805162461bcd60e51b815260206004820152600a6024820152691c994b595b9d195c995960b21b604482015290519081900360640190fd5b600b805460ff191690556004546001600160a01b031615611586576000821161101e576040805162461bcd60e51b815260206004820152601b60248201527f6d696e74564149416d6f756e742063616e6e74206265207a65726f0000000000604482015290519081900360640190fd5b600480546040805163084bf5ab60e31b815290516001600160a01b039092169263425fad58928282019260209290829003018186803b15801561106057600080fd5b505afa158015611074573d6000803e3d6000fd5b505050506040513d602081101561108a57600080fd5b5051156110d3576040805162461bcd60e51b81526020600482015260126024820152711c1c9bdd1bd8dbdb081a5cc81c185d5cd95960721b604482015290519081900360640190fd5b6110db612576565b336110e58161079d565b6080840152808352156110fe5760025b92505050611586565b8160800151841115611116576110f5600260056119e9565b60048054604080516315e3f14f60e11b81526001600160a01b0385811694820194909452905161119c9390921691632bc7e29e91602480820192602092909190829003018186803b15801561116a57600080fd5b505afa15801561117e573d6000803e3d6000fd5b505050506040513d602081101561119457600080fd5b5051856120e9565b60608401819052602084018260038111156111b357fe5b60038111156111be57fe5b90525060009050826020015160038111156111d557fe5b146112115760405162461bcd60e51b81526004018080602001828103825260228152602001806125ba6022913960400191505060405180910390fd5b6004805460608401516040805163fd51a3ad60e01b81526001600160a01b03868116958201959095526024810192909252516000939092169163fd51a3ad9160448082019260209290919082900301818787803b15801561127157600080fd5b505af1158015611285573d6000803e3d6000fd5b505050506040513d602081101561129b57600080fd5b5051905080156112af579250611586915050565b60408301859052600a546000908190156114b6576112d38560400151600a5461210f565b866020018194508260038111156112e657fe5b60038111156112f157fe5b905250600090508560200151600381111561130857fe5b1461133557611329600560168760200151600381111561132457fe5b61219c565b95505050505050611586565b61134782670de0b6b3a764000061214e565b8660200181945082600381111561135a57fe5b600381111561136557fe5b905250600090508560200151600381111561137c57fe5b1461139857611329600560168760200151600381111561132457fe5b6113a6856040015183612179565b866020018193508260038111156113b957fe5b60038111156113c457fe5b90525060009050856020015160038111156113db57fe5b146113f757611329600560168760200151600381111561132457fe5b6113ff61180a565b600954604080516340c10f1960e01b81526001600160a01b03928316600482015260248101869052905192909116916340c10f199160448082019260009290919082900301818387803b15801561145557600080fd5b505af1158015611469573d6000803e3d6000fd5b5050604080516001600160a01b03881681526020810186905281517fb0715a6d41a37c1b0672c22c09a31a0642c1fb3f9efa2d5fd5c6d2d891ee78c69450908190039091019150a16114bd565b5060408401515b6114c561180a565b6001600160a01b03166340c10f1985836040518363ffffffff1660e01b815260040180836001600160a01b03166001600160a01b0316815260200182815260200192505050600060405180830381600087803b15801561152457600080fd5b505af1158015611538573d6000803e3d6000fd5b5050604080516001600160a01b03881681526020810185905281517e2e68ab1600fc5e7290e2ceaa79e2f86b4dbaca84a48421e167e0b40409218a9450908190039091019150a16000611329565b600b805460ff19166001179055919050565b6004546001600160a01b031681565b60065460ff1681565b600b54600090819060ff166115f9576040805162461bcd60e51b815260206004820152600a6024820152691c994b595b9d195c995960b21b604482015290519081900360640190fd5b600b805460ff191690556004546001600160a01b0316156117305760008311611669576040805162461bcd60e51b815260206004820152601c60248201527f7265706179564149416d6f756e742063616e6e74206265207a65726f00000000604482015290519081900360640190fd5b600480546040805163084bf5ab60e31b815290516001600160a01b039092169263425fad58928282019260209290829003018186803b1580156116ab57600080fd5b505afa1580156116bf573d6000803e3d6000fd5b505050506040513d60208110156116d557600080fd5b50511561171e576040805162461bcd60e51b81526020600482015260126024820152711c1c9bdd1bd8dbdb081a5cc81c185d5cd95960721b604482015290519081900360640190fd5b3361172a81808661220a565b92509250505b600b805460ff191660011790559092909150565b6000546001600160a01b03163314611794576040805162461bcd60e51b815260206004820152600e60248201526d37b7363c9030b236b4b71031b0b760911b604482015290519081900360640190fd5b600b805460ff19166001179055565b600e80546001600160a01b0319166001600160a01b0392909216919091179055565b600c55565b6003546001600160a01b031681565b6008546001600160a01b031681565b6ec097ce7bc90715b34b9f100000000081565b6009546001600160a01b031681565b600e546001600160a01b031690565b600080546001600160a01b031633148061183d57506008546001600160a01b031633145b6118545761184d600160176119e9565b90506119b5565b670de0b6b3a764000082106118b0576040805162461bcd60e51b815260206004820152601d60248201527f74726561737572792070657263656e7420636170206f766572666c6f77000000604482015290519081900360640190fd5b6008805460098054600a80546001600160a01b038a81166001600160a01b031980881682179098558a821697851697909717909455908790556040805194841680865260208601969096528051929093169390927f29f06ea15931797ebaed313d81d100963dc22cb213cb4ce2737b5a62b1a8b1e892918290030190a1604080516001600160a01b0380851682528816602082015281517f8de763046d7b8f08b6c3d03543de1d615309417842bb5d2d62f110f65809ddac929181900390910190a1604080518281526020810187905281517f0893f8f4101baaabbeb513f96761e7a36eb837403c82cc651c292a4abdc94ed7929181900390910190a1600093505050505b9392505050565b6005546001600160e01b03811690600160e01b900463ffffffff1682565b6000546001600160a01b031681565b60007f45b96fe442630264581b197e84bbada861235052c5a1aadfff9ea4e40a969aa0836006811115611a1857fe5b836017811115611a2457fe5b604080519283526020830191909152600082820152519081900360600190a18260068111156119b557fe5b60045460009081906001600160a01b031615611f99576004805460408051632fe3f38f60e11b815230938101939093526001600160a01b038681166024850152898116604485015288811660648501526084840188905290516000939190921691635fc7e71e9160a48082019260209290919082900301818787803b158015611ad757600080fd5b505af1158015611aeb573d6000803e3d6000fd5b505050506040513d6020811015611b0157600080fd5b505190508015611b2557611b186002600a8361219c565b925060009150611f999050565b611b2d610ec2565b846001600160a01b0316636c540baf6040518163ffffffff1660e01b815260040160206040518083038186803b158015611b6657600080fd5b505afa158015611b7a573d6000803e3d6000fd5b505050506040513d6020811015611b9057600080fd5b505114611ba357611b18600260096119e9565b866001600160a01b0316866001600160a01b03161415611bc957611b186002600f6119e9565b84611bda57611b186002600d6119e9565b600019851415611bf057611b186002600c6119e9565b600080611bfe89898961220a565b90925090508115611c2e57611c1f826006811115611c1857fe5b60106119e9565b945060009350611f9992505050565b600480546040805163a78dc77560e01b81526001600160a01b038a8116948201949094526024810185905281516000948594169263a78dc7759260448082019391829003018186803b158015611c8357600080fd5b505afa158015611c97573d6000803e3d6000fd5b505050506040513d6040811015611cad57600080fd5b50805160209091015190925090508115611cf85760405162461bcd60e51b81526004018080602001828103825260378152602001806125fe6037913960400191505060405180910390fd5b80886001600160a01b03166370a082318c6040518263ffffffff1660e01b815260040180826001600160a01b03166001600160a01b0316815260200191505060206040518083038186803b158015611d4f57600080fd5b505afa158015611d63573d6000803e3d6000fd5b505050506040513d6020811015611d7957600080fd5b50511015611dce576040805162461bcd60e51b815260206004820152601c60248201527f5641495f4c49515549444154455f5345495a455f544f4f5f4d55434800000000604482015290519081900360640190fd5b6040805163b2a02ff160e01b81526001600160a01b038d811660048301528c811660248301526044820184905291516000928b169163b2a02ff191606480830192602092919082900301818787803b158015611e2957600080fd5b505af1158015611e3d573d6000803e3d6000fd5b505050506040513d6020811015611e5357600080fd5b505190508015611ea1576040805162461bcd60e51b81526020600482015260146024820152731d1bdad95b881cd95a5e9d5c994819985a5b195960621b604482015290519081900360640190fd5b604080516001600160a01b03808f168252808e1660208301528183018790528b1660608201526080810184905290517f42d401f96718a0c42e5cea8108973f0022677b7e2e5f4ee19851b2de7a0394e79181900360a00190a160048054604080516347ef3b3b60e01b815230938101939093526001600160a01b038c811660248501528f811660448501528e811660648501526084840188905260a4840186905290519116916347ef3b3b9160c480830192600092919082900301818387803b158015611f6d57600080fd5b505af1158015611f81573d6000803e3d6000fd5b5060009250611f8e915050565b975092955050505050505b94509492505050565b6000611fac6125a6565b600080611fc18660000151866000015161210f565b90925090506000826003811115611fd457fe5b14611ff357506040805160208101909152600081529092509050612086565b6000806120086706f05b59d3b20000846120e9565b9092509050600082600381111561201b57fe5b1461203d57506040805160208101909152600081529094509250612086915050565b60008061205283670de0b6b3a764000061214e565b9092509050600082600381111561206557fe5b1461206c57fe5b604080516020810190915290815260009750955050505050505b9250929050565b600080600061209a6125a6565b6120a48787612493565b909250905060008260038111156120b757fe5b146120c857509150600090506120e1565b6120da6120d4826124fb565b866120e9565b9350935050505b935093915050565b60008083830184811061210157600092509050612086565b506002915060009050612086565b6000808361212257506000905080612086565b8383028385828161212f57fe5b041461214357506002915060009050612086565b600092509050612086565b600080826121625750600190506000612086565b600083858161216d57fe5b04915091509250929050565b600080838311612190575060009050818303612086565b50600390506000612086565b60007f45b96fe442630264581b197e84bbada861235052c5a1aadfff9ea4e40a969aa08460068111156121cb57fe5b8460178111156121d757fe5b604080519283526020830191909152818101859052519081900360600190a183600681111561220257fe5b949350505050565b600080600080600460009054906101000a90046001600160a01b03166001600160a01b0316632bc7e29e876040518263ffffffff1660e01b815260040180826001600160a01b03166001600160a01b0316815260200191505060206040518083038186803b15801561227b57600080fd5b505afa15801561228f573d6000803e3d6000fd5b505050506040513d60208110156122a557600080fd5b50519050848111156122b9578491506122bd565b8091505b6000806122c861180a565b6001600160a01b0316639dc29fac8a866040518363ffffffff1660e01b815260040180836001600160a01b03166001600160a01b0316815260200182815260200192505050600060405180830381600087803b15801561232757600080fd5b505af115801561233b573d6000803e3d6000fd5b505050506123498385612179565b9092509050600082600381111561235c57fe5b146123985760405162461bcd60e51b81526004018080602001828103825260228152602001806125dc6022913960400191505060405180910390fd5b600480546040805163fd51a3ad60e01b81526001600160a01b038c8116948201949094526024810185905290516000939092169163fd51a3ad9160448082019260209290919082900301818787803b1580156123f357600080fd5b505af1158015612407573d6000803e3d6000fd5b505050506040513d602081101561241d57600080fd5b505190508015612437579550600094506120e19350505050565b604080516001600160a01b03808d1682528b16602082015280820187905290517f1db858e6f7e1a0d5e92c10c6507d42b3dabfe0a4867fe90c5a14d9963662ef7e9181900360600190a160009a94995093975050505050505050565b600061249d6125a6565b6000806124ae86600001518661210f565b909250905060008260038111156124c157fe5b146124e057506040805160208101909152600081529092509050612086565b60408051602081019091529081526000969095509350505050565b51670de0b6b3a7640000900490565b6040805161016081019091526000808252602082019081526020016000815260200160008152602001600081526020016000815260200160008152602001600081526020016125576125a6565b81526020016125646125a6565b81526020016125716125a6565b905290565b6040805160a081019091526000808252602082019081526020016000815260200160008152602001600081525090565b604051806020016040528060008152509056fe5641495f4d494e545f414d4f554e545f43414c43554c4154494f4e5f4641494c45445641495f4255524e5f414d4f554e545f43414c43554c4154494f4e5f4641494c45445641495f4c49515549444154455f434f4d5054524f4c4c45525f43414c43554c4154455f414d4f554e545f5345495a455f4641494c45446f6e6c7920756e6974726f6c6c65722061646d696e2063616e206368616e676520627261696e73a265627a7a7231582048d6b72f00398b0bd091eda8ea1ef2637df176dbabb9175fcc61a26ff4ea7e4c64736f6c63430005100032",
  "linkReferences": {},
  "deployedLinkReferences": {}
}