{
  "_format": "hh-sol-artifact-1",
  "contractName": "VAIControllerHarness",
  "sourceName": "contracts/test/VAIControllerHarness.sol",
  "abi": [
    {
      "inputs": [],
      "payable": false,
      "stateMutability": "nonpayable",
      "type": "constructor"
    },
    {
      "anonymous": false,
      "inputs": [
        {
          "indexed": false,
          "internalType": "uint256",
          "name": "error",
          "type": "uint256"
        },
        {
          "indexed": false,
          "internalType": "uint256",
          "name": "info",
          "type": "uint256"
        },
        {
          "indexed": false,
          "internalType": "uint256",
          "name": "detail",
          "type": "uint256"
        }
      ],
      "name": "Failure",
      "type": "event"
    },
    {
      "anonymous": false,
      "inputs": [
        {
          "indexed": false,
          "internalType": "address",
          "name": "liquidator",
          "type": "address"
        },
        {
          "indexed": false,
          "internalType": "address",
          "name": "borrower",
          "type": "address"
        },
        {
          "indexed": false,
          "internalType": "uint256",
          "name": "repayAmount",
          "type": "uint256"
        },
        {
          "indexed": false,
          "internalType": "address",
          "name": "vTokenCollateral",
          "type": "address"
        },
        {
          "indexed": false,
          "internalType": "uint256",
          "name": "seizeTokens",
          "type": "uint256"
        }
      ],
      "name": "LiquidateVAI",
      "type": "event"
    },
    {
      "anonymous": false,
      "inputs": [
        {
          "indexed": false,
          "internalType": "address",
          "name": "minter",
          "type": "address"
        },
        {
          "indexed": false,
          "internalType": "uint256",
          "name": "feeAmount",
          "type": "uint256"
        }
      ],
      "name": "MintFee",
      "type": "event"
    },
    {
      "anonymous": false,
      "inputs": [
        {
          "indexed": false,
          "internalType": "address",
          "name": "minter",
          "type": "address"
        },
        {
          "indexed": false,
          "internalType": "uint256",
          "name": "mintVAIAmount",
          "type": "uint256"
        }
      ],
      "name": "MintVAI",
      "type": "event"
    },
    {
      "anonymous": false,
      "inputs": [
        {
          "indexed": false,
          "internalType": "contract ComptrollerInterface",
          "name": "oldComptroller",
          "type": "address"
        },
        {
          "indexed": false,
          "internalType": "contract ComptrollerInterface",
          "name": "newComptroller",
          "type": "address"
        }
      ],
      "name": "NewComptroller",
      "type": "event"
    },
    {
      "anonymous": false,
      "inputs": [
        {
          "indexed": false,
          "internalType": "address",
          "name": "oldTreasuryAddress",
          "type": "address"
        },
        {
          "indexed": false,
          "internalType": "address",
          "name": "newTreasuryAddress",
          "type": "address"
        }
      ],
      "name": "NewTreasuryAddress",
      "type": "event"
    },
    {
      "anonymous": false,
      "inputs": [
        {
          "indexed": false,
          "internalType": "address",
          "name": "oldTreasuryGuardian",
          "type": "address"
        },
        {
          "indexed": false,
          "internalType": "address",
          "name": "newTreasuryGuardian",
          "type": "address"
        }
      ],
      "name": "NewTreasuryGuardian",
      "type": "event"
    },
    {
      "anonymous": false,
      "inputs": [
        {
          "indexed": false,
          "internalType": "uint256",
          "name": "oldTreasuryPercent",
          "type": "uint256"
        },
        {
          "indexed": false,
          "internalType": "uint256",
          "name": "newTreasuryPercent",
          "type": "uint256"
        }
      ],
      "name": "NewTreasuryPercent",
      "type": "event"
    },
    {
      "anonymous": false,
      "inputs": [
        {
          "indexed": false,
          "internalType": "address",
          "name": "payer",
          "type": "address"
        },
        {
          "indexed": false,
          "internalType": "address",
          "name": "borrower",
          "type": "address"
        },
        {
          "indexed": false,
          "internalType": "uint256",
          "name": "repayVAIAmount",
          "type": "uint256"
        }
      ],
      "name": "RepayVAI",
      "type": "event"
    },
    {
      "constant": false,
      "inputs": [
        {
          "internalType": "contract VAIUnitroller",
          "name": "unitroller",
          "type": "address"
        }
      ],
      "name": "_become",
      "outputs": [],
      "payable": false,
      "stateMutability": "nonpayable",
      "type": "function"
    },
    {
      "constant": false,
      "inputs": [
        {
          "internalType": "contract ComptrollerInterface",
          "name": "comptroller_",
          "type": "address"
        }
      ],
      "name": "_setComptroller",
      "outputs": [
        {
          "internalType": "uint256",
          "name": "",
          "type": "uint256"
        }
      ],
      "payable": false,
      "stateMutability": "nonpayable",
      "type": "function"
    },
    {
      "constant": false,
      "inputs": [
        {
          "internalType": "address",
          "name": "newTreasuryGuardian",
          "type": "address"
        },
        {
          "internalType": "address",
          "name": "newTreasuryAddress",
          "type": "address"
        },
        {
          "internalType": "uint256",
          "name": "newTreasuryPercent",
          "type": "uint256"
        }
      ],
      "name": "_setTreasuryData",
      "outputs": [
        {
          "internalType": "uint256",
          "name": "",
          "type": "uint256"
        }
      ],
      "payable": false,
      "stateMutability": "nonpayable",
      "type": "function"
    },
    {
      "constant": true,
      "inputs": [],
      "name": "admin",
      "outputs": [
        {
          "internalType": "address",
          "name": "",
          "type": "address"
        }
      ],
      "payable": false,
      "stateMutability": "view",
      "type": "function"
    },
    {
      "constant": true,
      "inputs": [],
      "name": "blockNumber",
      "outputs": [
        {
          "internalType": "uint256",
          "name": "",
          "type": "uint256"
        }
      ],
      "payable": false,
      "stateMutability": "view",
      "type": "function"
    },
    {
      "constant": true,
      "inputs": [],
      "name": "comptroller",
      "outputs": [
        {
          "internalType": "contract ComptrollerInterface",
          "name": "",
          "type": "address"
        }
      ],
      "payable": false,
      "stateMutability": "view",
      "type": "function"
    },
    {
      "constant": true,
      "inputs": [],
      "name": "getBlockNumber",
      "outputs": [
        {
          "internalType": "uint256",
          "name": "",
          "type": "uint256"
        }
      ],
      "payable": false,
      "stateMutability": "view",
      "type": "function"
    },
    {
      "constant": true,
      "inputs": [
        {
          "internalType": "address",
          "name": "minter",
          "type": "address"
        }
      ],
      "name": "getMintableVAI",
      "outputs": [
        {
          "internalType": "uint256",
          "name": "",
          "type": "uint256"
        },
        {
          "internalType": "uint256",
          "name": "",
          "type": "uint256"
        }
      ],
      "payable": false,
      "stateMutability": "view",
      "type": "function"
    },
    {
      "constant": true,
      "inputs": [],
      "name": "getVAIAddress",
      "outputs": [
        {
          "internalType": "address",
          "name": "",
          "type": "address"
        }
      ],
      "payable": false,
      "stateMutability": "view",
      "type": "function"
    },
    {
      "constant": false,
      "inputs": [
        {
          "internalType": "uint256",
          "name": "blocks",
          "type": "uint256"
        }
      ],
      "name": "harnessFastForward",
      "outputs": [
        {
          "internalType": "uint256",
          "name": "",
          "type": "uint256"
        }
      ],
      "payable": false,
      "stateMutability": "nonpayable",
      "type": "function"
    },
    {
      "constant": false,
      "inputs": [
        {
          "internalType": "address",
          "name": "liquidator",
          "type": "address"
        },
        {
          "internalType": "address",
          "name": "borrower",
          "type": "address"
        },
        {
          "internalType": "uint256",
          "name": "repayAmount",
          "type": "uint256"
        },
        {
          "internalType": "contract VToken",
          "name": "vTokenCollateral",
          "type": "address"
        }
      ],
      "name": "harnessLiquidateVAIFresh",
      "outputs": [
        {
          "internalType": "uint256",
          "name": "",
          "type": "uint256"
        }
      ],
      "payable": false,
      "stateMutability": "nonpayable",
      "type": "function"
    },
    {
      "constant": false,
      "inputs": [
        {
          "internalType": "address",
          "name": "payer",
          "type": "address"
        },
        {
          "internalType": "address",
          "name": "account",
          "type": "address"
        },
        {
          "internalType": "uint256",
          "name": "repayAmount",
          "type": "uint256"
        }
      ],
      "name": "harnessRepayVAIFresh",
      "outputs": [
        {
          "internalType": "uint256",
          "name": "",
          "type": "uint256"
        }
      ],
      "payable": false,
      "stateMutability": "nonpayable",
      "type": "function"
    },
    {
      "constant": false,
      "inputs": [
        {
          "internalType": "uint256",
          "name": "newBlockNumber",
          "type": "uint256"
        }
      ],
      "name": "harnessSetBlockNumber",
      "outputs": [],
      "payable": false,
      "stateMutability": "nonpayable",
      "type": "function"
    },
    {
      "constant": false,
      "inputs": [],
      "name": "initialize",
      "outputs": [],
      "payable": false,
      "stateMutability": "nonpayable",
      "type": "function"
    },
    {
      "constant": true,
      "inputs": [],
      "name": "isVenusVAIInitialized",
      "outputs": [
        {
          "internalType": "bool",
          "name": "",
          "type": "bool"
        }
      ],
      "payable": false,
      "stateMutability": "view",
      "type": "function"
    },
    {
      "constant": false,
      "inputs": [
        {
          "internalType": "address",
          "name": "borrower",
          "type": "address"
        },
        {
          "internalType": "uint256",
          "name": "repayAmount",
          "type": "uint256"
        },
        {
          "internalType": "contract VTokenInterface",
          "name": "vTokenCollateral",
          "type": "address"
        }
      ],
      "name": "liquidateVAI",
      "outputs": [
        {
          "internalType": "uint256",
          "name": "",
          "type": "uint256"
        },
        {
          "internalType": "uint256",
          "name": "",
          "type": "uint256"
        }
      ],
      "payable": false,
      "stateMutability": "nonpayable",
      "type": "function"
    },
    {
      "constant": false,
      "inputs": [
        {
          "internalType": "uint256",
          "name": "mintVAIAmount",
          "type": "uint256"
        }
      ],
      "name": "mintVAI",
      "outputs": [
        {
          "internalType": "uint256",
          "name": "",
          "type": "uint256"
        }
      ],
      "payable": false,
      "stateMutability": "nonpayable",
      "type": "function"
    },
    {
      "constant": true,
      "inputs": [],
      "name": "pendingAdmin",
      "outputs": [
        {
          "internalType": "address",
          "name": "",
          "type": "address"
        }
      ],
      "payable": false,
      "stateMutability": "view",
      "type": "function"
    },
    {
      "constant": true,
      "inputs": [],
      "name": "pendingVAIControllerImplementation",
      "outputs": [
        {
          "internalType": "address",
          "name": "",
          "type": "address"
        }
      ],
      "payable": false,
      "stateMutability": "view",
      "type": "function"
    },
    {
      "constant": false,
      "inputs": [
        {
          "internalType": "uint256",
          "name": "repayVAIAmount",
          "type": "uint256"
        }
      ],
      "name": "repayVAI",
      "outputs": [
        {
          "internalType": "uint256",
          "name": "",
          "type": "uint256"
        },
        {
          "internalType": "uint256",
          "name": "",
          "type": "uint256"
        }
      ],
      "payable": false,
      "stateMutability": "nonpayable",
      "type": "function"
    },
    {
      "constant": false,
      "inputs": [
        {
          "internalType": "uint256",
          "name": "number",
          "type": "uint256"
        }
      ],
      "name": "setBlockNumber",
      "outputs": [],
      "payable": false,
      "stateMutability": "nonpayable",
      "type": "function"
    },
    {
      "constant": false,
      "inputs": [
        {
          "internalType": "address",
          "name": "vaiAddress_",
          "type": "address"
        }
      ],
      "name": "setVAIAddress",
      "outputs": [],
      "payable": false,
      "stateMutability": "nonpayable",
      "type": "function"
    },
    {
      "constant": false,
      "inputs": [
        {
          "internalType": "uint224",
          "name": "index",
          "type": "uint224"
        },
        {
          "internalType": "uint32",
          "name": "blockNumber_",
          "type": "uint32"
        }
      ],
      "name": "setVenusVAIState",
      "outputs": [],
      "payable": false,
      "stateMutability": "nonpayable",
      "type": "function"
    },
    {
      "constant": true,
      "inputs": [],
      "name": "treasuryAddress",
      "outputs": [
        {
          "internalType": "address",
          "name": "",
          "type": "address"
        }
      ],
      "payable": false,
      "stateMutability": "view",
      "type": "function"
    },
    {
      "constant": true,
      "inputs": [],
      "name": "treasuryGuardian",
      "outputs": [
        {
          "internalType": "address",
          "name": "",
          "type": "address"
        }
      ],
      "payable": false,
      "stateMutability": "view",
      "type": "function"
    },
    {
      "constant": true,
      "inputs": [],
      "name": "treasuryPercent",
      "outputs": [
        {
          "internalType": "uint256",
          "name": "",
          "type": "uint256"
        }
      ],
      "payable": false,
      "stateMutability": "view",
      "type": "function"
    },
    {
      "constant": true,
      "inputs": [],
      "name": "vaiControllerImplementation",
      "outputs": [
        {
          "internalType": "address",
          "name": "",
          "type": "address"
        }
      ],
      "payable": false,
      "stateMutability": "view",
      "type": "function"
    },
    {
      "constant": true,
      "inputs": [],
      "name": "venusInitialIndex",
      "outputs": [
        {
          "internalType": "uint224",
          "name": "",
          "type": "uint224"
        }
      ],
      "payable": false,
      "stateMutability": "view",
      "type": "function"
    },
    {
      "constant": true,
      "inputs": [
        {
          "internalType": "address",
          "name": "",
          "type": "address"
        }
      ],
      "name": "venusVAIMinterIndex",
      "outputs": [
        {
          "internalType": "uint256",
          "name": "",
          "type": "uint256"
        }
      ],
      "payable": false,
      "stateMutability": "view",
      "type": "function"
    },
    {
      "constant": true,
      "inputs": [],
      "name": "venusVAIState",
      "outputs": [
        {
          "internalType": "uint224",
          "name": "index",
          "type": "uint224"
        },
        {
          "internalType": "uint32",
          "name": "block",
          "type": "uint32"
        }
      ],
      "payable": false,
      "stateMutability": "view",
      "type": "function"
    }
  ],
  "bytecode": "0x608060405234801561001057600080fd5b50600080546001600160a01b031916331790556127fc806100326000396000f3fe608060405234801561001057600080fd5b50600436106101d95760003560e01c80636fe74a2111610104578063b2eafc39116100a2578063d24febad11610071578063d24febad14610495578063e44e6168146104cb578063ecf1df4d146104fb578063f851a44014610531576101d9565b8063b2eafc3914610459578063c5b4db5514610461578063c5f956af14610485578063cbeb2b281461048d576101d9565b80638f08eda5116100de5780638f08eda5146103f9578063919b22b41461042b578063a8c3c850146103dc578063b06bb42614610451576101d9565b80636fe74a21146103b75780638129fc1c146103d45780638869737e146103dc576101d9565b80633785d1d61161017c5780634cca46cf1161014b5780634cca46cf1461034f57806357e871e71461038b5780635fe3b5671461039357806360c954ef1461039b576101d9565b80633785d1d6146102de57806342cbb15c146103045780634576b5db1461030c5780634712ee7d14610332576101d9565b80631d504dc6116101b85780631d504dc61461026b5780632465060214610293578063246acab1146102b957806326782247146102d6576101d9565b80623b5884146101de57806304ef9d581461020257806311b3d5e71461021c575b600080fd5b6101e6610539565b604080516001600160a01b039092168252519081900360200190f35b61020a610548565b60408051918252519081900360200190f35b6102526004803603606081101561023257600080fd5b506001600160a01b0381358116916020810135916040909101351661054e565b6040805192835260208301919091528051918290030190f35b6102916004803603602081101561028157600080fd5b50356001600160a01b0316610713565b005b61020a600480360360208110156102a957600080fd5b50356001600160a01b0316610872565b61020a600480360360208110156102cf57600080fd5b5035610884565b6101e6610894565b610252600480360360208110156102f457600080fd5b50356001600160a01b03166108a3565b61020a610fc8565b61020a6004803603602081101561032257600080fd5b50356001600160a01b0316610fce565b61020a6004803603602081101561034857600080fd5b503561105c565b61020a6004803603608081101561036557600080fd5b506001600160a01b0381358116916020810135821691604082013591606001351661168d565b61020a6116a7565b6101e66116ad565b6103a36116bc565b604080519115158252519081900360200190f35b610252600480360360208110156103cd57600080fd5b50356116c5565b610291611859565b610291600480360360208110156103f257600080fd5b50356118b8565b6102916004803603604081101561040f57600080fd5b5080356001600160e01b0316906020013563ffffffff166118bd565b6102916004803603602081101561044157600080fd5b50356001600160a01b03166118f1565b6101e6611919565b6101e6611928565b610469611937565b604080516001600160e01b039092168252519081900360200190f35b6101e661194a565b6101e6611959565b61020a600480360360608110156104ab57600080fd5b506001600160a01b0381358116916020810135909116906040013561196d565b6104d3611b10565b604080516001600160e01b03909316835263ffffffff90911660208301528051918290030190f35b61020a6004803603606081101561051157600080fd5b506001600160a01b03813581169160208101359091169060400135611b2e565b6101e6611b46565b6002546001600160a01b031681565b600a5481565b600b54600090819060ff16610597576040805162461bcd60e51b815260206004820152600a6024820152691c994b595b9d195c995960b21b604482015290519081900360640190fd5b600b805460ff19169055600480546040805163084bf5ab60e31b815290516001600160a01b039092169263425fad58928282019260209290829003018186803b1580156105e357600080fd5b505afa1580156105f7573d6000803e3d6000fd5b505050506040513d602081101561060d57600080fd5b505115610656576040805162461bcd60e51b81526020600482015260126024820152711c1c9bdd1bd8dbdb081a5cc81c185d5cd95960721b604482015290519081900360640190fd5b6000836001600160a01b031663a6afed956040518163ffffffff1660e01b8152600401602060405180830381600087803b15801561069357600080fd5b505af11580156106a7573d6000803e3d6000fd5b505050506040513d60208110156106bd57600080fd5b5051905080156106ea576106dd8160068111156106d657fe5b6008611b55565b9250600091506106fc9050565b6106f633878787611bbb565b92509250505b600b805460ff191660011790559094909350915050565b806001600160a01b031663f851a4406040518163ffffffff1660e01b815260040160206040518083038186803b15801561074c57600080fd5b505afa158015610760573d6000803e3d6000fd5b505050506040513d602081101561077657600080fd5b50516001600160a01b031633146107be5760405162461bcd60e51b81526004018080602001828103825260278152602001806127a16027913960400191505060405180910390fd5b806001600160a01b031663c1e803346040518163ffffffff1660e01b8152600401602060405180830381600087803b1580156107f957600080fd5b505af115801561080d573d6000803e3d6000fd5b505050506040513d602081101561082357600080fd5b50511561086f576040805162461bcd60e51b815260206004820152601560248201527418da185b99d9481b9bdd08185d5d1a1bdc9a5e9959605a1b604482015290519081900360640190fd5b50565b60076020526000908152604090205481565b600c80548201908190555b919050565b6001546001600160a01b031681565b6000806000600460009054906101000a90046001600160a01b03166001600160a01b0316637dc0d1d06040518163ffffffff1660e01b815260040160206040518083038186803b1580156108f657600080fd5b505afa15801561090a573d6000803e3d6000fd5b505050506040513d602081101561092057600080fd5b50516004805460408051632aff3bff60e21b81526001600160a01b03898116948201949094529051939450606093929091169163abfceffc91602480820192600092909190829003018186803b15801561097957600080fd5b505afa15801561098d573d6000803e3d6000fd5b505050506040513d6000823e601f3d908101601f1916820160405260208110156109b657600080fd5b81019080805160405193929190846401000000008211156109d657600080fd5b9083019060208201858111156109eb57600080fd5b8251866020820283011164010000000082111715610a0857600080fd5b82525081516020918201928201910280838360005b83811015610a35578181015183820152602001610a1d565b505050509050016040525050509050610a4c612676565b6000805b8351811015610d2457838181518110610a6557fe5b60200260200101516001600160a01b031663c37f68e2896040518263ffffffff1660e01b815260040180826001600160a01b03166001600160a01b0316815260200191505060806040518083038186803b158015610ac257600080fd5b505afa158015610ad6573d6000803e3d6000fd5b505050506040513d6080811015610aec57600080fd5b5080516020820151604083015160609093015160c087015260a0860192909252608085019190915280845215610b305760035b965060009550610fc3945050505050565b60405180602001604052808460c00151815250836101000181905250846001600160a01b031663fc57d4df858381518110610b6757fe5b60200260200101516040518263ffffffff1660e01b815260040180826001600160a01b03166001600160a01b0316815260200191505060206040518083038186803b158015610bb557600080fd5b505afa158015610bc9573d6000803e3d6000fd5b505050506040513d6020811015610bdf57600080fd5b505160e08401819052610bf3576004610b1f565b604080516020810190915260e084015181526101208401819052610100840151610c1c9161210e565b610140850181905260208501826003811115610c3457fe5b6003811115610c3f57fe5b9052506000905083602001516003811115610c5657fe5b14610c62576005610b1f565b610c7a836101400151846080015185604001516121f9565b6040850181905260208501826003811115610c9157fe5b6003811115610c9c57fe5b9052506000905083602001516003811115610cb357fe5b14610cbf576005610b1f565b610cd78361012001518460a0015185606001516121f9565b6060850181905260208501826003811115610cee57fe5b6003811115610cf957fe5b9052506000905083602001516003811115610d1057fe5b14610d1c576005610b1f565b600101610a50565b606083015160048054604080516315e3f14f60e11b81526001600160a01b038d8116948201949094529051610daf949390921691632bc7e29e91602480820192602092909190829003018186803b158015610d7e57600080fd5b505afa158015610d92573d6000803e3d6000fd5b505050506040513d6020811015610da857600080fd5b5051612255565b6060850181905260208501826003811115610dc657fe5b6003811115610dd157fe5b9052506000905083602001516003811115610de857fe5b14610df4576005610b1f565b610e7b8360400151600460009054906101000a90046001600160a01b03166001600160a01b031663bec04f726040518163ffffffff1660e01b815260040160206040518083038186803b158015610e4a57600080fd5b505afa158015610e5e573d6000803e3d6000fd5b505050506040513d6020811015610e7457600080fd5b505161227b565b84602001819450826003811115610e8e57fe5b6003811115610e9957fe5b9052506000905083602001516003811115610eb057fe5b14610eec5760405162461bcd60e51b81526004018080602001828103825260228152602001806127266022913960400191505060405180910390fd5b610ef8826127106122ba565b84602001819450826003811115610f0b57fe5b6003811115610f1657fe5b9052506000905083602001516003811115610f2d57fe5b14610f695760405162461bcd60e51b81526004018080602001828103825260228152602001806127266022913960400191505060405180910390fd5b610f778284606001516122e5565b84602001819450826003811115610f8a57fe5b6003811115610f9557fe5b9052506000905083602001516003811115610fac57fe5b14610fb8576002610b1f565b506000955093505050505b915091565b600c5490565b600080546001600160a01b03163314610ff457610fed60016002611b55565b905061088f565b600480546001600160a01b038481166001600160a01b0319831681179093556040805191909216808252602082019390935281517f7ac369dbd14fa5ea3f473ed67cc9d598964a77501540ba6751eb0b3decf5870d929181900390910190a160009392505050565b600b5460009060ff166110a3576040805162461bcd60e51b815260206004820152600a6024820152691c994b595b9d195c995960b21b604482015290519081900360640190fd5b600b805460ff191690556004546001600160a01b03161561167b5760008211611113576040805162461bcd60e51b815260206004820152601b60248201527f6d696e74564149416d6f756e742063616e6e74206265207a65726f0000000000604482015290519081900360640190fd5b600480546040805163084bf5ab60e31b815290516001600160a01b039092169263425fad58928282019260209290829003018186803b15801561115557600080fd5b505afa158015611169573d6000803e3d6000fd5b505050506040513d602081101561117f57600080fd5b5051156111c8576040805162461bcd60e51b81526020600482015260126024820152711c1c9bdd1bd8dbdb081a5cc81c185d5cd95960721b604482015290519081900360640190fd5b6111d06126e2565b336111da816108a3565b6080840152808352156111f35760025b9250505061167b565b816080015184111561120b576111ea60026005611b55565b60048054604080516315e3f14f60e11b81526001600160a01b038581169482019490945290516112919390921691632bc7e29e91602480820192602092909190829003018186803b15801561125f57600080fd5b505afa158015611273573d6000803e3d6000fd5b505050506040513d602081101561128957600080fd5b505185612255565b60608401819052602084018260038111156112a857fe5b60038111156112b357fe5b90525060009050826020015160038111156112ca57fe5b146113065760405162461bcd60e51b81526004018080602001828103825260228152602001806127266022913960400191505060405180910390fd5b6004805460608401516040805163fd51a3ad60e01b81526001600160a01b03868116958201959095526024810192909252516000939092169163fd51a3ad9160448082019260209290919082900301818787803b15801561136657600080fd5b505af115801561137a573d6000803e3d6000fd5b505050506040513d602081101561139057600080fd5b5051905080156113a457925061167b915050565b60408301859052600a546000908190156115ab576113c88560400151600a5461227b565b866020018194508260038111156113db57fe5b60038111156113e657fe5b90525060009050856020015160038111156113fd57fe5b1461142a5761141e600560168760200151600381111561141957fe5b612308565b9550505050505061167b565b61143c82670de0b6b3a76400006122ba565b8660200181945082600381111561144f57fe5b600381111561145a57fe5b905250600090508560200151600381111561147157fe5b1461148d5761141e600560168760200151600381111561141957fe5b61149b8560400151836122e5565b866020018193508260038111156114ae57fe5b60038111156114b957fe5b90525060009050856020015160038111156114d057fe5b146114ec5761141e600560168760200151600381111561141957fe5b6114f4611959565b600954604080516340c10f1960e01b81526001600160a01b03928316600482015260248101869052905192909116916340c10f199160448082019260009290919082900301818387803b15801561154a57600080fd5b505af115801561155e573d6000803e3d6000fd5b5050604080516001600160a01b03881681526020810186905281517fb0715a6d41a37c1b0672c22c09a31a0642c1fb3f9efa2d5fd5c6d2d891ee78c69450908190039091019150a16115b2565b5060408401515b6115ba611959565b6001600160a01b03166340c10f1985836040518363ffffffff1660e01b815260040180836001600160a01b03166001600160a01b0316815260200182815260200192505050600060405180830381600087803b15801561161957600080fd5b505af115801561162d573d6000803e3d6000fd5b5050604080516001600160a01b03881681526020810185905281517e2e68ab1600fc5e7290e2ceaa79e2f86b4dbaca84a48421e167e0b40409218a9450908190039091019150a1600061141e565b600b805460ff19166001179055919050565b60008061169c86868686611bbb565b509695505050505050565b600c5481565b6004546001600160a01b031681565b60065460ff1681565b600b54600090819060ff1661170e576040805162461bcd60e51b815260206004820152600a6024820152691c994b595b9d195c995960b21b604482015290519081900360640190fd5b600b805460ff191690556004546001600160a01b031615611845576000831161177e576040805162461bcd60e51b815260206004820152601c60248201527f7265706179564149416d6f756e742063616e6e74206265207a65726f00000000604482015290519081900360640190fd5b600480546040805163084bf5ab60e31b815290516001600160a01b039092169263425fad58928282019260209290829003018186803b1580156117c057600080fd5b505afa1580156117d4573d6000803e3d6000fd5b505050506040513d60208110156117ea57600080fd5b505115611833576040805162461bcd60e51b81526020600482015260126024820152711c1c9bdd1bd8dbdb081a5cc81c185d5cd95960721b604482015290519081900360640190fd5b3361183f818086612376565b92509250505b600b805460ff191660011790559092909150565b6000546001600160a01b031633146118a9576040805162461bcd60e51b815260206004820152600e60248201526d37b7363c9030b236b4b71031b0b760911b604482015290519081900360640190fd5b600b805460ff19166001179055565b600c55565b600580546001600160e01b0319166001600160e01b0393841617909216600160e01b63ffffffff9290921691909102179055565b600b80546001600160a01b0390921661010002610100600160a81b0319909216919091179055565b6003546001600160a01b031681565b6008546001600160a01b031681565b6ec097ce7bc90715b34b9f100000000081565b6009546001600160a01b031681565b600b5461010090046001600160a01b031690565b600080546001600160a01b031633148061199157506008546001600160a01b031633145b6119a8576119a160016017611b55565b9050611b09565b670de0b6b3a76400008210611a04576040805162461bcd60e51b815260206004820152601d60248201527f74726561737572792070657263656e7420636170206f766572666c6f77000000604482015290519081900360640190fd5b6008805460098054600a80546001600160a01b038a81166001600160a01b031980881682179098558a821697851697909717909455908790556040805194841680865260208601969096528051929093169390927f29f06ea15931797ebaed313d81d100963dc22cb213cb4ce2737b5a62b1a8b1e892918290030190a1604080516001600160a01b0380851682528816602082015281517f8de763046d7b8f08b6c3d03543de1d615309417842bb5d2d62f110f65809ddac929181900390910190a1604080518281526020810187905281517f0893f8f4101baaabbeb513f96761e7a36eb837403c82cc651c292a4abdc94ed7929181900390910190a1600093505050505b9392505050565b6005546001600160e01b03811690600160e01b900463ffffffff1682565b600080611b3c858585612376565b5095945050505050565b6000546001600160a01b031681565b60007f45b96fe442630264581b197e84bbada861235052c5a1aadfff9ea4e40a969aa0836006811115611b8457fe5b836017811115611b9057fe5b604080519283526020830191909152600082820152519081900360600190a1826006811115611b0957fe5b60045460009081906001600160a01b031615612105576004805460408051632fe3f38f60e11b815230938101939093526001600160a01b038681166024850152898116604485015288811660648501526084840188905290516000939190921691635fc7e71e9160a48082019260209290919082900301818787803b158015611c4357600080fd5b505af1158015611c57573d6000803e3d6000fd5b505050506040513d6020811015611c6d57600080fd5b505190508015611c9157611c846002600a83612308565b9250600091506121059050565b611c99610fc8565b846001600160a01b0316636c540baf6040518163ffffffff1660e01b815260040160206040518083038186803b158015611cd257600080fd5b505afa158015611ce6573d6000803e3d6000fd5b505050506040513d6020811015611cfc57600080fd5b505114611d0f57611c8460026009611b55565b866001600160a01b0316866001600160a01b03161415611d3557611c846002600f611b55565b84611d4657611c846002600d611b55565b600019851415611d5c57611c846002600c611b55565b600080611d6a898989612376565b90925090508115611d9a57611d8b826006811115611d8457fe5b6010611b55565b94506000935061210592505050565b600480546040805163a78dc77560e01b81526001600160a01b038a8116948201949094526024810185905281516000948594169263a78dc7759260448082019391829003018186803b158015611def57600080fd5b505afa158015611e03573d6000803e3d6000fd5b505050506040513d6040811015611e1957600080fd5b50805160209091015190925090508115611e645760405162461bcd60e51b815260040180806020018281038252603781526020018061276a6037913960400191505060405180910390fd5b80886001600160a01b03166370a082318c6040518263ffffffff1660e01b815260040180826001600160a01b03166001600160a01b0316815260200191505060206040518083038186803b158015611ebb57600080fd5b505afa158015611ecf573d6000803e3d6000fd5b505050506040513d6020811015611ee557600080fd5b50511015611f3a576040805162461bcd60e51b815260206004820152601c60248201527f5641495f4c49515549444154455f5345495a455f544f4f5f4d55434800000000604482015290519081900360640190fd5b6040805163b2a02ff160e01b81526001600160a01b038d811660048301528c811660248301526044820184905291516000928b169163b2a02ff191606480830192602092919082900301818787803b158015611f9557600080fd5b505af1158015611fa9573d6000803e3d6000fd5b505050506040513d6020811015611fbf57600080fd5b50519050801561200d576040805162461bcd60e51b81526020600482015260146024820152731d1bdad95b881cd95a5e9d5c994819985a5b195960621b604482015290519081900360640190fd5b604080516001600160a01b03808f168252808e1660208301528183018790528b1660608201526080810184905290517f42d401f96718a0c42e5cea8108973f0022677b7e2e5f4ee19851b2de7a0394e79181900360a00190a160048054604080516347ef3b3b60e01b815230938101939093526001600160a01b038c811660248501528f811660448501528e811660648501526084840188905260a4840186905290519116916347ef3b3b9160c480830192600092919082900301818387803b1580156120d957600080fd5b505af11580156120ed573d6000803e3d6000fd5b50600092506120fa915050565b975092955050505050505b94509492505050565b6000612118612712565b60008061212d8660000151866000015161227b565b9092509050600082600381111561214057fe5b1461215f575060408051602081019091526000815290925090506121f2565b6000806121746706f05b59d3b2000084612255565b9092509050600082600381111561218757fe5b146121a9575060408051602081019091526000815290945092506121f2915050565b6000806121be83670de0b6b3a76400006122ba565b909250905060008260038111156121d157fe5b146121d857fe5b604080516020810190915290815260009750955050505050505b9250929050565b6000806000612206612712565b61221087876125ff565b9092509050600082600381111561222357fe5b14612234575091506000905061224d565b61224661224082612667565b86612255565b9350935050505b935093915050565b60008083830184811061226d576000925090506121f2565b5060029150600090506121f2565b6000808361228e575060009050806121f2565b8383028385828161229b57fe5b04146122af575060029150600090506121f2565b6000925090506121f2565b600080826122ce57506001905060006121f2565b60008385816122d957fe5b04915091509250929050565b6000808383116122fc5750600090508183036121f2565b506003905060006121f2565b60007f45b96fe442630264581b197e84bbada861235052c5a1aadfff9ea4e40a969aa084600681111561233757fe5b84601781111561234357fe5b604080519283526020830191909152818101859052519081900360600190a183600681111561236e57fe5b949350505050565b600080600080600460009054906101000a90046001600160a01b03166001600160a01b0316632bc7e29e876040518263ffffffff1660e01b815260040180826001600160a01b03166001600160a01b0316815260200191505060206040518083038186803b1580156123e757600080fd5b505afa1580156123fb573d6000803e3d6000fd5b505050506040513d602081101561241157600080fd5b505190508481111561242557849150612429565b8091505b600080612434611959565b6001600160a01b0316639dc29fac8a866040518363ffffffff1660e01b815260040180836001600160a01b03166001600160a01b0316815260200182815260200192505050600060405180830381600087803b15801561249357600080fd5b505af11580156124a7573d6000803e3d6000fd5b505050506124b583856122e5565b909250905060008260038111156124c857fe5b146125045760405162461bcd60e51b81526004018080602001828103825260228152602001806127486022913960400191505060405180910390fd5b600480546040805163fd51a3ad60e01b81526001600160a01b038c8116948201949094526024810185905290516000939092169163fd51a3ad9160448082019260209290919082900301818787803b15801561255f57600080fd5b505af1158015612573573d6000803e3d6000fd5b505050506040513d602081101561258957600080fd5b5051905080156125a35795506000945061224d9350505050565b604080516001600160a01b03808d1682528b16602082015280820187905290517f1db858e6f7e1a0d5e92c10c6507d42b3dabfe0a4867fe90c5a14d9963662ef7e9181900360600190a160009a94995093975050505050505050565b6000612609612712565b60008061261a86600001518661227b565b9092509050600082600381111561262d57fe5b1461264c575060408051602081019091526000815290925090506121f2565b60408051602081019091529081526000969095509350505050565b51670de0b6b3a7640000900490565b6040805161016081019091526000808252602082019081526020016000815260200160008152602001600081526020016000815260200160008152602001600081526020016126c3612712565b81526020016126d0612712565b81526020016126dd612712565b905290565b6040805160a081019091526000808252602082019081526020016000815260200160008152602001600081525090565b604051806020016040528060008152509056fe5641495f4d494e545f414d4f554e545f43414c43554c4154494f4e5f4641494c45445641495f4255524e5f414d4f554e545f43414c43554c4154494f4e5f4641494c45445641495f4c49515549444154455f434f4d5054524f4c4c45525f43414c43554c4154455f414d4f554e545f5345495a455f4641494c45446f6e6c7920756e6974726f6c6c65722061646d696e2063616e206368616e676520627261696e73a265627a7a7231582015805fdafd7d097ef73251dd6dc93691558b23ab7faf5e04b82c9dd9e337796864736f6c63430005100032",
  "linkReferences": {},
  "deployedLinkReferences": {}
}