{
  "_format": "hh-sol-artifact-1",
  "contractName": "VAIScenario",
  "sourceName": "contracts/test/VAIHarness.sol",
  "abi": [
    {
      "inputs": [
        {
          "internalType": "uint256",
          "name": "chainId",
          "type": "uint256"
        }
      ],
      "payable": false,
      "stateMutability": "nonpayable",
      "type": "constructor"
    },
    {
      "anonymous": false,
      "inputs": [
        {
          "indexed": true,
          "internalType": "address",
          "name": "src",
          "type": "address"
        },
        {
          "indexed": true,
          "internalType": "address",
          "name": "guy",
          "type": "address"
        },
        {
          "indexed": false,
          "internalType": "uint256",
          "name": "wad",
          "type": "uint256"
        }
      ],
      "name": "Approval",
      "type": "event"
    },
    {
      "anonymous": true,
      "inputs": [
        {
          "indexed": true,
          "internalType": "bytes4",
          "name": "sig",
          "type": "bytes4"
        },
        {
          "indexed": true,
          "internalType": "address",
          "name": "usr",
          "type": "address"
        },
        {
          "indexed": true,
          "internalType": "bytes32",
          "name": "arg1",
          "type": "bytes32"
        },
        {
          "indexed": true,
          "internalType": "bytes32",
          "name": "arg2",
          "type": "bytes32"
        },
        {
          "indexed": false,
          "internalType": "bytes",
          "name": "data",
          "type": "bytes"
        }
      ],
      "name": "LogNote",
      "type": "event"
    },
    {
      "anonymous": false,
      "inputs": [
        {
          "indexed": true,
          "internalType": "address",
          "name": "src",
          "type": "address"
        },
        {
          "indexed": true,
          "internalType": "address",
          "name": "dst",
          "type": "address"
        },
        {
          "indexed": false,
          "internalType": "uint256",
          "name": "wad",
          "type": "uint256"
        }
      ],
      "name": "Transfer",
      "type": "event"
    },
    {
      "constant": true,
      "inputs": [],
      "name": "DOMAIN_SEPARATOR",
      "outputs": [
        {
          "internalType": "bytes32",
          "name": "",
          "type": "bytes32"
        }
      ],
      "payable": false,
      "stateMutability": "view",
      "type": "function"
    },
    {
      "constant": true,
      "inputs": [],
      "name": "PERMIT_TYPEHASH",
      "outputs": [
        {
          "internalType": "bytes32",
          "name": "",
          "type": "bytes32"
        }
      ],
      "payable": false,
      "stateMutability": "view",
      "type": "function"
    },
    {
      "constant": false,
      "inputs": [
        {
          "internalType": "address",
          "name": "_owner",
          "type": "address"
        },
        {
          "internalType": "uint256",
          "name": "value",
          "type": "uint256"
        }
      ],
      "name": "allocateTo",
      "outputs": [],
      "payable": false,
      "stateMutability": "nonpayable",
      "type": "function"
    },
    {
      "constant": true,
      "inputs": [
        {
          "internalType": "address",
          "name": "",
          "type": "address"
        },
        {
          "internalType": "address",
          "name": "",
          "type": "address"
        }
      ],
      "name": "allowance",
      "outputs": [
        {
          "internalType": "uint256",
          "name": "",
          "type": "uint256"
        }
      ],
      "payable": false,
      "stateMutability": "view",
      "type": "function"
    },
    {
      "constant": false,
      "inputs": [
        {
          "internalType": "address",
          "name": "usr",
          "type": "address"
        },
        {
          "internalType": "uint256",
          "name": "wad",
          "type": "uint256"
        }
      ],
      "name": "approve",
      "outputs": [
        {
          "internalType": "bool",
          "name": "",
          "type": "bool"
        }
      ],
      "payable": false,
      "stateMutability": "nonpayable",
      "type": "function"
    },
    {
      "constant": true,
      "inputs": [
        {
          "internalType": "address",
          "name": "",
          "type": "address"
        }
      ],
      "name": "balanceOf",
      "outputs": [
        {
          "internalType": "uint256",
          "name": "",
          "type": "uint256"
        }
      ],
      "payable": false,
      "stateMutability": "view",
      "type": "function"
    },
    {
      "constant": false,
      "inputs": [
        {
          "internalType": "address",
          "name": "usr",
          "type": "address"
        },
        {
          "internalType": "uint256",
          "name": "wad",
          "type": "uint256"
        }
      ],
      "name": "burn",
      "outputs": [],
      "payable": false,
      "stateMutability": "nonpayable",
      "type": "function"
    },
    {
      "constant": true,
      "inputs": [],
      "name": "decimals",
      "outputs": [
        {
          "internalType": "uint8",
          "name": "",
          "type": "uint8"
        }
      ],
      "payable": false,
      "stateMutability": "view",
      "type": "function"
    },
    {
      "constant": false,
      "inputs": [
        {
          "internalType": "address",
          "name": "guy",
          "type": "address"
        }
      ],
      "name": "deny",
      "outputs": [],
      "payable": false,
      "stateMutability": "nonpayable",
      "type": "function"
    },
    {
      "constant": false,
      "inputs": [
        {
          "internalType": "uint256",
          "name": "blocks",
          "type": "uint256"
        }
      ],
      "name": "harnessFastForward",
      "outputs": [],
      "payable": false,
      "stateMutability": "nonpayable",
      "type": "function"
    },
    {
      "constant": false,
      "inputs": [
        {
          "internalType": "uint256",
          "name": "addtlSupply_",
          "type": "uint256"
        }
      ],
      "name": "harnessIncrementTotalSupply",
      "outputs": [],
      "payable": false,
      "stateMutability": "nonpayable",
      "type": "function"
    },
    {
      "constant": false,
      "inputs": [
        {
          "internalType": "address",
          "name": "account",
          "type": "address"
        },
        {
          "internalType": "uint256",
          "name": "_amount",
          "type": "uint256"
        }
      ],
      "name": "harnessSetBalanceOf",
      "outputs": [],
      "payable": false,
      "stateMutability": "nonpayable",
      "type": "function"
    },
    {
      "constant": false,
      "inputs": [
        {
          "internalType": "uint256",
          "name": "_totalSupply",
          "type": "uint256"
        }
      ],
      "name": "harnessSetTotalSupply",
      "outputs": [],
      "payable": false,
      "stateMutability": "nonpayable",
      "type": "function"
    },
    {
      "constant": false,
      "inputs": [
        {
          "internalType": "address",
          "name": "usr",
          "type": "address"
        },
        {
          "internalType": "uint256",
          "name": "wad",
          "type": "uint256"
        }
      ],
      "name": "mint",
      "outputs": [],
      "payable": false,
      "stateMutability": "nonpayable",
      "type": "function"
    },
    {
      "constant": false,
      "inputs": [
        {
          "internalType": "address",
          "name": "src",
          "type": "address"
        },
        {
          "internalType": "address",
          "name": "dst",
          "type": "address"
        },
        {
          "internalType": "uint256",
          "name": "wad",
          "type": "uint256"
        }
      ],
      "name": "move",
      "outputs": [],
      "payable": false,
      "stateMutability": "nonpayable",
      "type": "function"
    },
    {
      "constant": true,
      "inputs": [],
      "name": "name",
      "outputs": [
        {
          "internalType": "string",
          "name": "",
          "type": "string"
        }
      ],
      "payable": false,
      "stateMutability": "view",
      "type": "function"
    },
    {
      "constant": true,
      "inputs": [
        {
          "internalType": "address",
          "name": "",
          "type": "address"
        }
      ],
      "name": "nonces",
      "outputs": [
        {
          "internalType": "uint256",
          "name": "",
          "type": "uint256"
        }
      ],
      "payable": false,
      "stateMutability": "view",
      "type": "function"
    },
    {
      "constant": false,
      "inputs": [
        {
          "internalType": "address",
          "name": "holder",
          "type": "address"
        },
        {
          "internalType": "address",
          "name": "spender",
          "type": "address"
        },
        {
          "internalType": "uint256",
          "name": "nonce",
          "type": "uint256"
        },
        {
          "internalType": "uint256",
          "name": "expiry",
          "type": "uint256"
        },
        {
          "internalType": "bool",
          "name": "allowed",
          "type": "bool"
        },
        {
          "internalType": "uint8",
          "name": "v",
          "type": "uint8"
        },
        {
          "internalType": "bytes32",
          "name": "r",
          "type": "bytes32"
        },
        {
          "internalType": "bytes32",
          "name": "s",
          "type": "bytes32"
        }
      ],
      "name": "permit",
      "outputs": [],
      "payable": false,
      "stateMutability": "nonpayable",
      "type": "function"
    },
    {
      "constant": false,
      "inputs": [
        {
          "internalType": "address",
          "name": "usr",
          "type": "address"
        },
        {
          "internalType": "uint256",
          "name": "wad",
          "type": "uint256"
        }
      ],
      "name": "pull",
      "outputs": [],
      "payable": false,
      "stateMutability": "nonpayable",
      "type": "function"
    },
    {
      "constant": false,
      "inputs": [
        {
          "internalType": "address",
          "name": "usr",
          "type": "address"
        },
        {
          "internalType": "uint256",
          "name": "wad",
          "type": "uint256"
        }
      ],
      "name": "push",
      "outputs": [],
      "payable": false,
      "stateMutability": "nonpayable",
      "type": "function"
    },
    {
      "constant": false,
      "inputs": [
        {
          "internalType": "address",
          "name": "guy",
          "type": "address"
        }
      ],
      "name": "rely",
      "outputs": [],
      "payable": false,
      "stateMutability": "nonpayable",
      "type": "function"
    },
    {
      "constant": true,
      "inputs": [],
      "name": "symbol",
      "outputs": [
        {
          "internalType": "string",
          "name": "",
          "type": "string"
        }
      ],
      "payable": false,
      "stateMutability": "view",
      "type": "function"
    },
    {
      "constant": true,
      "inputs": [],
      "name": "totalSupply",
      "outputs": [
        {
          "internalType": "uint256",
          "name": "",
          "type": "uint256"
        }
      ],
      "payable": false,
      "stateMutability": "view",
      "type": "function"
    },
    {
      "constant": false,
      "inputs": [
        {
          "internalType": "address",
          "name": "dst",
          "type": "address"
        },
        {
          "internalType": "uint256",
          "name": "wad",
          "type": "uint256"
        }
      ],
      "name": "transfer",
      "outputs": [
        {
          "internalType": "bool",
          "name": "",
          "type": "bool"
        }
      ],
      "payable": false,
      "stateMutability": "nonpayable",
      "type": "function"
    },
    {
      "constant": false,
      "inputs": [
        {
          "internalType": "address",
          "name": "src",
          "type": "address"
        },
        {
          "internalType": "address",
          "name": "dst",
          "type": "address"
        },
        {
          "internalType": "uint256",
          "name": "wad",
          "type": "uint256"
        }
      ],
      "name": "transferFrom",
      "outputs": [
        {
          "internalType": "bool",
          "name": "",
          "type": "bool"
        }
      ],
      "payable": false,
      "stateMutability": "nonpayable",
      "type": "function"
    },
    {
      "constant": true,
      "inputs": [],
      "name": "version",
      "outputs": [
        {
          "internalType": "string",
          "name": "",
          "type": "string"
        }
      ],
      "payable": false,
      "stateMutability": "view",
      "type": "function"
    },
    {
      "constant": true,
      "inputs": [
        {
          "internalType": "address",
          "name": "",
          "type": "address"
        }
      ],
      "name": "wards",
      "outputs": [
        {
          "internalType": "uint256",
          "name": "",
          "type": "uint256"
        }
      ],
      "payable": false,
      "stateMutability": "view",
      "type": "function"
    }
  ],
  "bytecode": "0x6080604052620186a060065534801561001757600080fd5b5060405161142f38038061142f8339818101604052602081101561003a57600080fd5b50513360009081526020819052604090819020600190555181908060526113dd8239604080519182900360520182208282018252600e83526d2b20a49029ba30b13632b1b7b4b760911b6020938401528151808301835260018152603160f81b908401528151808401919091527fdd18a44c5a898a5e53e119eaa2f28613c9f2172cf68c0fb769cbcdd3e3296b05818301527fc89efdaa54c0f20c7adf612882df0950f5a951637e0307cdcb4c672f298b8bc6606082015260808101949094523060a0808601919091528151808603909101815260c09094019052825192019190912060055550506112ac806101316000396000f3fe608060405234801561001057600080fd5b50600436106101a95760003560e01c806370a08231116100f95780639dc29fac11610097578063bb35783b11610071578063bb35783b1461054e578063bf353dbb14610584578063dd62ed3e146105aa578063f2d5d56b146105d8576101a9565b80639dc29fac146104ca578063a9059cbb146104f6578063b753a98c14610522576101a9565b80638fcbaf0c116100d35780638fcbaf0c1461042557806395d89b411461047f5780639a4d3063146104875780639c52a7f1146104a4576101a9565b806370a08231146103ad578063747da2fe146103d35780637ecebe00146103ff576101a9565b806330adf81f116101665780633644e515116101405780633644e5151461034b57806340c10f191461035357806354fd4d501461037f57806365fae35e14610387576101a9565b806330adf81f14610308578063313ce5671461031057806331c2480b1461032e576101a9565b806306fdde03146101ae57806308bca5661461022d578063095ea7b31461025b57806318160ddd1461029b57806323b872dd146102b5578063246acab1146102eb575b600080fd5b6101b6610604565b60405160208082528190810183818151815260200191508051906020019080838360005b838110156101f25780820151838201526020016101da565b50505050905090810190601f16801561021f5780820380516001836020036101000a031916815260200191505b509250505060405180910390f35b6102596004803603604081101561024357600080fd5b506001600160a01b03813516906020013561062c565b005b6102876004803603604081101561027157600080fd5b506001600160a01b038135169060200135610685565b604051901515815260200160405180910390f35b6102a36106f7565b60405190815260200160405180910390f35b610287600480360360608110156102cb57600080fd5b506001600160a01b038135811691602081013590911690604001356106fd565b6102596004803603602081101561030157600080fd5b5035610938565b6102a3610943565b610318610967565b60405160ff909116815260200160405180910390f35b6102596004803603602081101561034457600080fd5b503561096c565b6102a3610971565b6102596004803603604081101561036957600080fd5b506001600160a01b038135169060200135610977565b6101b6610a4c565b6102596004803603602081101561039d57600080fd5b50356001600160a01b0316610a67565b6102a3600480360360208110156103c357600080fd5b50356001600160a01b0316610b15565b610259600480360360408110156103e957600080fd5b506001600160a01b038135169060200135610b29565b6102a36004803603602081101561041557600080fd5b50356001600160a01b0316610b48565b610259600480360361010081101561043c57600080fd5b506001600160a01b038135811691602081013590911690604081013590606081013590608081013515159060ff60a0820135169060c08101359060e00135610b5c565b6101b6610e76565b6102596004803603602081101561049d57600080fd5b5035610e93565b610259600480360360208110156104ba57600080fd5b50356001600160a01b0316610e9e565b610259600480360360408110156104e057600080fd5b506001600160a01b038135169060200135610f49565b6102876004803603604081101561050c57600080fd5b506001600160a01b038135169060200135611151565b6102596004803603604081101561053857600080fd5b506001600160a01b038135169060200135611165565b6102596004803603606081101561056457600080fd5b506001600160a01b03813581169160208101359091169060400135611175565b6102a36004803603602081101561059a57600080fd5b50356001600160a01b0316611186565b6102a3600480360360408110156105c057600080fd5b506001600160a01b038135811691602001351661119a565b610259600480360360408110156105ee57600080fd5b506001600160a01b0381351690602001356111bc565b60405160408082019052600e81526d2b20a49029ba30b13632b1b7b4b760911b602082015281565b6001600160a01b038216600090815260026020528190604090208054909101905560018054820190556001600160a01b038216306000805160206112588339815191528360405190815260200160405180910390a35050565b336000908152600360205281604082206001600160a01b038516600090815260209190915260409020556001600160a01b038316337f8c5be1e5ebec7d5bd14f71427d1e84f3dd0314c0f7b2291e5b200ac8c7c3b9258460405190815260200160405180910390a35060015b92915050565b60015481565b6001600160a01b0383166000908152600260205281604082205410156107645760405162461bcd60e51b81526020600482015260186024820152775641492f696e73756666696369656e742d62616c616e636560401b604482015260640160405180910390fd5b6001600160a01b03841633148015906107a857506001600160a01b038416600090815260036020526000199060409020336000908152602091909152604090205414155b15610887576001600160a01b038416600090815260036020528290604090203360009081526020919091526040902054101561082a5760405162461bcd60e51b815260206004820152601a60248201527f5641492f696e73756666696369656e742d616c6c6f77616e6365000000000000604482015260640160405180910390fd5b6001600160a01b0384166000908152600360205261085d90604090203360009081526020919091526040902054836111c7565b6001600160a01b038516600090815260036020526040902033600090815260209190915260409020555b6001600160a01b038416600090815260026020526108aa906040902054836111c7565b6001600160a01b0385166000908152600260205260409020556001600160a01b038316600090815260026020526108e69060409020548361120f565b6001600160a01b0384166000908152600260205260409020556001600160a01b038084169085166000805160206112588339815191528460405190815260200160405180910390a35060019392505050565b600680549091019055565b7fea2aa0a1be11a07ed86d755c93467f4f82362b452371d1ba94d1715123511acb81565b601281565b600155565b60055481565b336000908152602081905260409020546001146109cf5760405162461bcd60e51b81526020600482015260126024820152711590524bdb9bdd0b585d5d1a1bdc9a5e995960721b604482015260640160405180910390fd5b6001600160a01b038216600090815260026020526109f29060409020548261120f565b6001600160a01b038316600090815260026020526040902055600154610a18908261120f565b6001556001600160a01b03821660006000805160206112588339815191528360405190815260200160405180910390a35050565b6040516040808201905260018152603160f81b602082015281565b33600090815260208190526040902054600114610abf5760405162461bcd60e51b81526020600482015260126024820152711590524bdb9bdd0b585d5d1a1bdc9a5e995960721b604482015260640160405180910390fd5b6001600160a01b0381166000908152602081905260019060409020555961012081016040526020815260e0602082015260e060006040830137602435600435336001600160e01b03196000351661012085a45050565b600260205280600052604060002054905081565b6001600160a01b03821660009081526002602052819060409020555050565b600460205280600052604060002054905081565b6005546000907fea2aa0a1be11a07ed86d755c93467f4f82362b452371d1ba94d1715123511acb8a8a8a8a8a60405160208101969096526001600160a01b03948516604080880191909152939094166060860152608085019190915260a084015290151560c083015260e090910190516020818303038152906040528051906020012060405161190160f01b6020820152602281019290925260428201526062016040516020818303038152906040528051906020012090506001600160a01b038916610c675760405162461bcd60e51b815260206004820152601560248201527405641492f696e76616c69642d616464726573732d3605c1b604482015260640160405180910390fd5b60018185858560405160008152602001604052604051808581526020018460ff1660ff1681526020018381526020018281526020019450505050506020604051602081039080840390855afa158015610cc4573d6000803e3d6000fd5b505050602060405103516001600160a01b0316896001600160a01b031614610d275760405162461bcd60e51b81526020600482015260126024820152711590524bda5b9d985b1a590b5c195c9b5a5d60721b604482015260640160405180910390fd5b851580610d345750854211155b610d795760405162461bcd60e51b81526020600482015260126024820152711590524bdc195c9b5a5d0b595e1c1a5c995960721b604482015260640160405180910390fd5b6001600160a01b03891660009081526004602052604090208054600181019091558714610de05760405162461bcd60e51b81526020600482015260116024820152705641492f696e76616c69642d6e6f6e636560781b604482015260640160405180910390fd5b600085610dee576000610df2565b6000195b6001600160a01b038b16600090815260036020529091508190604090206001600160a01b038b16600090815260209190915260409020556001600160a01b03808a16908b167f8c5be1e5ebec7d5bd14f71427d1e84f3dd0314c0f7b2291e5b200ac8c7c3b9258360405190815260200160405180910390a350505050505050505050565b60405160408082019052600381526256414960e81b602082015281565b600180549091019055565b33600090815260208190526040902054600114610ef65760405162461bcd60e51b81526020600482015260126024820152711590524bdb9bdd0b585d5d1a1bdc9a5e995960721b604482015260640160405180910390fd5b6001600160a01b0381166000908152602081905260408120555961012081016040526020815260e0602082015260e060006040830137602435600435336001600160e01b03196000351661012085a45050565b6001600160a01b03821660009081526002602052819060409020541015610fb15760405162461bcd60e51b81526020600482015260186024820152775641492f696e73756666696369656e742d62616c616e636560401b604482015260640160405180910390fd5b6001600160a01b0382163314801590610ff557506001600160a01b038216600090815260036020526000199060409020336000908152602091909152604090205414155b156110d4576001600160a01b03821660009081526003602052819060409020336000908152602091909152604090205410156110775760405162461bcd60e51b815260206004820152601a60248201527f5641492f696e73756666696369656e742d616c6c6f77616e6365000000000000604482015260640160405180910390fd5b6001600160a01b038216600090815260036020526110aa90604090203360009081526020919091526040902054826111c7565b6001600160a01b038316600090815260036020526040902033600090815260209190915260409020555b6001600160a01b038216600090815260026020526110f7906040902054826111c7565b6001600160a01b03831660009081526002602052604090205560015461111d90826111c7565b60015560006001600160a01b0383166000805160206112588339815191528360405190815260200160405180910390a35050565b600061115e3384846106fd565b9392505050565b6111703383836106fd565b505050565b6111808383836106fd565b50505050565b600060205280600052604060002054905081565b6003602052816000526040600020602052806000526040600020549150829050565b6111708233836106fd565b808203828111156106f15760405162461bcd60e51b815260206004820152600e60248201526d2b20a49036b0ba341032b93937b960911b604482015260640160405180910390fd5b808201828110156106f15760405162461bcd60e51b815260206004820152600e60248201526d2b20a49036b0ba341032b93937b960911b604482015260640160405180910390fdfeddf252ad1be2c89b69c2b068fc378daa952ba7f163c4a11628f55a4df523b3efa265627a7a72315820f91e0898fe7d26b35a6136132627474ca27b1642dc8242888b9f433d0002119764736f6c63430005100032454950373132446f6d61696e28737472696e67206e616d652c737472696e672076657273696f6e2c75696e7432353620636861696e49642c6164647265737320766572696679696e67436f6e747261637429",
  "linkReferences": {},
  "deployedLinkReferences": {}
}