{
  "_format": "hh-sol-artifact-1",
  "contractName": "VAIVaultStorage",
  "sourceName": "contracts/Vault/VAIVaultStorage.sol",
  "abi": [
    {
      "constant": true,
      "inputs": [],
      "name": "accXVSPerShare",
      "outputs": [
        {
          "internalType": "uint256",
          "name": "",
          "type": "uint256"
        }
      ],
      "payable": false,
      "stateMutability": "view",
      "type": "function"
    },
    {
      "constant": true,
      "inputs": [],
      "name": "admin",
      "outputs": [
        {
          "internalType": "address",
          "name": "",
          "type": "address"
        }
      ],
      "payable": false,
      "stateMutability": "view",
      "type": "function"
    },
    {
      "constant": true,
      "inputs": [],
      "name": "pendingAdmin",
      "outputs": [
        {
          "internalType": "address",
          "name": "",
          "type": "address"
        }
      ],
      "payable": false,
      "stateMutability": "view",
      "type": "function"
    },
    {
      "constant": true,
      "inputs": [],
      "name": "pendingRewards",
      "outputs": [
        {
          "internalType": "uint256",
          "name": "",
          "type": "uint256"
        }
      ],
      "payable": false,
      "stateMutability": "view",
      "type": "function"
    },
    {
      "constant": true,
      "inputs": [],
      "name": "pendingVAIVaultImplementation",
      "outputs": [
        {
          "internalType": "address",
          "name": "",
          "type": "address"
        }
      ],
      "payable": false,
      "stateMutability": "view",
      "type": "function"
    },
    {
      "constant": true,
      "inputs": [
        {
          "internalType": "address",
          "name": "",
          "type": "address"
        }
      ],
      "name": "userInfo",
      "outputs": [
        {
          "internalType": "uint256",
          "name": "amount",
          "type": "uint256"
        },
        {
          "internalType": "uint256",
          "name": "rewardDebt",
          "type": "uint256"
        }
      ],
      "payable": false,
      "stateMutability": "view",
      "type": "function"
    },
    {
      "constant": true,
      "inputs": [],
      "name": "vai",
      "outputs": [
        {
          "internalType": "contract IBEP20",
          "name": "",
          "type": "address"
        }
      ],
      "payable": false,
      "stateMutability": "view",
      "type": "function"
    },
    {
      "constant": true,
      "inputs": [],
      "name": "vaiVaultImplementation",
      "outputs": [
        {
          "internalType": "address",
          "name": "",
          "type": "address"
        }
      ],
      "payable": false,
      "stateMutability": "view",
      "type": "function"
    },
    {
      "constant": true,
      "inputs": [],
      "name": "xvs",
      "outputs": [
        {
          "internalType": "contract IBEP20",
          "name": "",
          "type": "address"
        }
      ],
      "payable": false,
      "stateMutability": "view",
      "type": "function"
    },
    {
      "constant": true,
      "inputs": [],
      "name": "xvsBalance",
      "outputs": [
        {
          "internalType": "uint256",
          "name": "",
          "type": "uint256"
        }
      ],
      "payable": false,
      "stateMutability": "view",
      "type": "function"
    }
  ],
  "bytecode": "0x608060405234801561001057600080fd5b50610212806100206000396000f3fe608060405234801561001057600080fd5b506004361061009e5760003560e01c806391cc3da11161006657806391cc3da114610130578063b62e4c9214610138578063eded3fda14610140578063f661bb8614610148578063f851a440146101505761009e565b80631959a002146100a3578063211de6b6146100e257806326782247146101065780634e79ed3c1461010e578063761692ba14610116575b600080fd5b6100c9600480360360208110156100b957600080fd5b50356001600160a01b0316610158565b6040805192835260208301919091528051918290030190f35b6100ea610171565b604080516001600160a01b039092168252519081900360200190f35b6100ea610180565b6100ea61018f565b61011e61019e565b60408051918252519081900360200190f35b61011e6101a4565b6100ea6101aa565b61011e6101b9565b6100ea6101bf565b6100ea6101ce565b6009602052600090815260409020805460019091015482565b6003546001600160a01b031681565b6001546001600160a01b031681565b6004546001600160a01b031681565b60065481565b60075481565b6005546001600160a01b031681565b60085481565b6002546001600160a01b031681565b6000546001600160a01b03168156fea265627a7a72315820ed1b94b72317e2259fc1d3025e2fea28a78f7cca99703fae4a6f7650e352594264736f6c63430005100032",
  "linkReferences": {},
  "deployedLinkReferences": {}
}