{
  "_format": "hh-sol-artifact-1",
  "contractName": "VAIVaultAdminStorage",
  "sourceName": "contracts/Vault/VAIVaultStorage.sol",
  "abi": [
    {
      "constant": true,
      "inputs": [],
      "name": "admin",
      "outputs": [
        {
          "internalType": "address",
          "name": "",
          "type": "address"
        }
      ],
      "payable": false,
      "stateMutability": "view",
      "type": "function"
    },
    {
      "constant": true,
      "inputs": [],
      "name": "pendingAdmin",
      "outputs": [
        {
          "internalType": "address",
          "name": "",
          "type": "address"
        }
      ],
      "payable": false,
      "stateMutability": "view",
      "type": "function"
    },
    {
      "constant": true,
      "inputs": [],
      "name": "pendingVAIVaultImplementation",
      "outputs": [
        {
          "internalType": "address",
          "name": "",
          "type": "address"
        }
      ],
      "payable": false,
      "stateMutability": "view",
      "type": "function"
    },
    {
      "constant": true,
      "inputs": [],
      "name": "vaiVaultImplementation",
      "outputs": [
        {
          "internalType": "address",
          "name": "",
          "type": "address"
        }
      ],
      "payable": false,
      "stateMutability": "view",
      "type": "function"
    }
  ],
  "bytecode": "0x608060405234801561001057600080fd5b5060f08061001f6000396000f3fe6080604052348015600f57600080fd5b506004361060465760003560e01c8063211de6b614604b5780632678224714606d578063f661bb86146073578063f851a440146079575b600080fd5b6051607f565b604080516001600160a01b039092168252519081900360200190f35b6051608e565b6051609d565b605160ac565b6003546001600160a01b031681565b6001546001600160a01b031681565b6002546001600160a01b031681565b6000546001600160a01b03168156fea265627a7a72315820f27674031dc5da62d5765fa86fde0fb09154de58d8cc9add54d313ce18a9f21b64736f6c63430005100032",
  "linkReferences": {},
  "deployedLinkReferences": {}
}