{
  "_format": "hh-sol-artifact-1",
  "contractName": "VBep20DelegateScenario",
  "sourceName": "contracts/test/VBep20Harness.sol",
  "abi": [
    {
      "inputs": [],
      "payable": false,
      "stateMutability": "nonpayable",
      "type": "constructor"
    },
    {
      "anonymous": false,
      "inputs": [
        {
          "indexed": false,
          "internalType": "uint256",
          "name": "cashPrior",
          "type": "uint256"
        },
        {
          "indexed": false,
          "internalType": "uint256",
          "name": "interestAccumulated",
          "type": "uint256"
        },
        {
          "indexed": false,
          "internalType": "uint256",
          "name": "borrowIndex",
          "type": "uint256"
        },
        {
          "indexed": false,
          "internalType": "uint256",
          "name": "totalBorrows",
          "type": "uint256"
        }
      ],
      "name": "AccrueInterest",
      "type": "event"
    },
    {
      "anonymous": false,
      "inputs": [
        {
          "indexed": true,
          "internalType": "address",
          "name": "owner",
          "type": "address"
        },
        {
          "indexed": true,
          "internalType": "address",
          "name": "spender",
          "type": "address"
        },
        {
          "indexed": false,
          "internalType": "uint256",
          "name": "amount",
          "type": "uint256"
        }
      ],
      "name": "Approval",
      "type": "event"
    },
    {
      "anonymous": false,
      "inputs": [
        {
          "indexed": false,
          "internalType": "address",
          "name": "borrower",
          "type": "address"
        },
        {
          "indexed": false,
          "internalType": "uint256",
          "name": "borrowAmount",
          "type": "uint256"
        },
        {
          "indexed": false,
          "internalType": "uint256",
          "name": "accountBorrows",
          "type": "uint256"
        },
        {
          "indexed": false,
          "internalType": "uint256",
          "name": "totalBorrows",
          "type": "uint256"
        }
      ],
      "name": "Borrow",
      "type": "event"
    },
    {
      "anonymous": false,
      "inputs": [
        {
          "indexed": false,
          "internalType": "uint256",
          "name": "error",
          "type": "uint256"
        },
        {
          "indexed": false,
          "internalType": "uint256",
          "name": "info",
          "type": "uint256"
        },
        {
          "indexed": false,
          "internalType": "uint256",
          "name": "detail",
          "type": "uint256"
        }
      ],
      "name": "Failure",
      "type": "event"
    },
    {
      "anonymous": false,
      "inputs": [
        {
          "indexed": false,
          "internalType": "address",
          "name": "liquidator",
          "type": "address"
        },
        {
          "indexed": false,
          "internalType": "address",
          "name": "borrower",
          "type": "address"
        },
        {
          "indexed": false,
          "internalType": "uint256",
          "name": "repayAmount",
          "type": "uint256"
        },
        {
          "indexed": false,
          "internalType": "address",
          "name": "vTokenCollateral",
          "type": "address"
        },
        {
          "indexed": false,
          "internalType": "uint256",
          "name": "seizeTokens",
          "type": "uint256"
        }
      ],
      "name": "LiquidateBorrow",
      "type": "event"
    },
    {
      "anonymous": false,
      "inputs": [
        {
          "indexed": false,
          "internalType": "address",
          "name": "minter",
          "type": "address"
        },
        {
          "indexed": false,
          "internalType": "uint256",
          "name": "mintAmount",
          "type": "uint256"
        },
        {
          "indexed": false,
          "internalType": "uint256",
          "name": "mintTokens",
          "type": "uint256"
        }
      ],
      "name": "Mint",
      "type": "event"
    },
    {
      "anonymous": false,
      "inputs": [
        {
          "indexed": false,
          "internalType": "address",
          "name": "payer",
          "type": "address"
        },
        {
          "indexed": false,
          "internalType": "address",
          "name": "receiver",
          "type": "address"
        },
        {
          "indexed": false,
          "internalType": "uint256",
          "name": "mintAmount",
          "type": "uint256"
        },
        {
          "indexed": false,
          "internalType": "uint256",
          "name": "mintTokens",
          "type": "uint256"
        }
      ],
      "name": "MintBehalf",
      "type": "event"
    },
    {
      "anonymous": false,
      "inputs": [
        {
          "indexed": false,
          "internalType": "address",
          "name": "oldAdmin",
          "type": "address"
        },
        {
          "indexed": false,
          "internalType": "address",
          "name": "newAdmin",
          "type": "address"
        }
      ],
      "name": "NewAdmin",
      "type": "event"
    },
    {
      "anonymous": false,
      "inputs": [
        {
          "indexed": false,
          "internalType": "contract ComptrollerInterface",
          "name": "oldComptroller",
          "type": "address"
        },
        {
          "indexed": false,
          "internalType": "contract ComptrollerInterface",
          "name": "newComptroller",
          "type": "address"
        }
      ],
      "name": "NewComptroller",
      "type": "event"
    },
    {
      "anonymous": false,
      "inputs": [
        {
          "indexed": false,
          "internalType": "contract InterestRateModel",
          "name": "oldInterestRateModel",
          "type": "address"
        },
        {
          "indexed": false,
          "internalType": "contract InterestRateModel",
          "name": "newInterestRateModel",
          "type": "address"
        }
      ],
      "name": "NewMarketInterestRateModel",
      "type": "event"
    },
    {
      "anonymous": false,
      "inputs": [
        {
          "indexed": false,
          "internalType": "address",
          "name": "oldPendingAdmin",
          "type": "address"
        },
        {
          "indexed": false,
          "internalType": "address",
          "name": "newPendingAdmin",
          "type": "address"
        }
      ],
      "name": "NewPendingAdmin",
      "type": "event"
    },
    {
      "anonymous": false,
      "inputs": [
        {
          "indexed": false,
          "internalType": "uint256",
          "name": "oldReserveFactorMantissa",
          "type": "uint256"
        },
        {
          "indexed": false,
          "internalType": "uint256",
          "name": "newReserveFactorMantissa",
          "type": "uint256"
        }
      ],
      "name": "NewReserveFactor",
      "type": "event"
    },
    {
      "anonymous": false,
      "inputs": [
        {
          "indexed": false,
          "internalType": "address",
          "name": "redeemer",
          "type": "address"
        },
        {
          "indexed": false,
          "internalType": "uint256",
          "name": "redeemAmount",
          "type": "uint256"
        },
        {
          "indexed": false,
          "internalType": "uint256",
          "name": "redeemTokens",
          "type": "uint256"
        }
      ],
      "name": "Redeem",
      "type": "event"
    },
    {
      "anonymous": false,
      "inputs": [
        {
          "indexed": false,
          "internalType": "address",
          "name": "redeemer",
          "type": "address"
        },
        {
          "indexed": false,
          "internalType": "uint256",
          "name": "feeAmount",
          "type": "uint256"
        },
        {
          "indexed": false,
          "internalType": "uint256",
          "name": "redeemTokens",
          "type": "uint256"
        }
      ],
      "name": "RedeemFee",
      "type": "event"
    },
    {
      "anonymous": false,
      "inputs": [
        {
          "indexed": false,
          "internalType": "address",
          "name": "payer",
          "type": "address"
        },
        {
          "indexed": false,
          "internalType": "address",
          "name": "borrower",
          "type": "address"
        },
        {
          "indexed": false,
          "internalType": "uint256",
          "name": "repayAmount",
          "type": "uint256"
        },
        {
          "indexed": false,
          "internalType": "uint256",
          "name": "accountBorrows",
          "type": "uint256"
        },
        {
          "indexed": false,
          "internalType": "uint256",
          "name": "totalBorrows",
          "type": "uint256"
        }
      ],
      "name": "RepayBorrow",
      "type": "event"
    },
    {
      "anonymous": false,
      "inputs": [
        {
          "indexed": false,
          "internalType": "address",
          "name": "benefactor",
          "type": "address"
        },
        {
          "indexed": false,
          "internalType": "uint256",
          "name": "addAmount",
          "type": "uint256"
        },
        {
          "indexed": false,
          "internalType": "uint256",
          "name": "newTotalReserves",
          "type": "uint256"
        }
      ],
      "name": "ReservesAdded",
      "type": "event"
    },
    {
      "anonymous": false,
      "inputs": [
        {
          "indexed": false,
          "internalType": "address",
          "name": "admin",
          "type": "address"
        },
        {
          "indexed": false,
          "internalType": "uint256",
          "name": "reduceAmount",
          "type": "uint256"
        },
        {
          "indexed": false,
          "internalType": "uint256",
          "name": "newTotalReserves",
          "type": "uint256"
        }
      ],
      "name": "ReservesReduced",
      "type": "event"
    },
    {
      "anonymous": false,
      "inputs": [
        {
          "indexed": true,
          "internalType": "address",
          "name": "from",
          "type": "address"
        },
        {
          "indexed": true,
          "internalType": "address",
          "name": "to",
          "type": "address"
        },
        {
          "indexed": false,
          "internalType": "uint256",
          "name": "amount",
          "type": "uint256"
        }
      ],
      "name": "Transfer",
      "type": "event"
    },
    {
      "constant": false,
      "inputs": [],
      "name": "_acceptAdmin",
      "outputs": [
        {
          "internalType": "uint256",
          "name": "",
          "type": "uint256"
        }
      ],
      "payable": false,
      "stateMutability": "nonpayable",
      "type": "function"
    },
    {
      "constant": false,
      "inputs": [
        {
          "internalType": "uint256",
          "name": "addAmount",
          "type": "uint256"
        }
      ],
      "name": "_addReserves",
      "outputs": [
        {
          "internalType": "uint256",
          "name": "",
          "type": "uint256"
        }
      ],
      "payable": false,
      "stateMutability": "nonpayable",
      "type": "function"
    },
    {
      "constant": false,
      "inputs": [
        {
          "internalType": "bytes",
          "name": "data",
          "type": "bytes"
        }
      ],
      "name": "_becomeImplementation",
      "outputs": [],
      "payable": false,
      "stateMutability": "nonpayable",
      "type": "function"
    },
    {
      "constant": false,
      "inputs": [
        {
          "internalType": "uint256",
          "name": "reduceAmount",
          "type": "uint256"
        }
      ],
      "name": "_reduceReserves",
      "outputs": [
        {
          "internalType": "uint256",
          "name": "",
          "type": "uint256"
        }
      ],
      "payable": false,
      "stateMutability": "nonpayable",
      "type": "function"
    },
    {
      "constant": false,
      "inputs": [],
      "name": "_resignImplementation",
      "outputs": [],
      "payable": false,
      "stateMutability": "nonpayable",
      "type": "function"
    },
    {
      "constant": false,
      "inputs": [
        {
          "internalType": "contract ComptrollerInterface",
          "name": "newComptroller",
          "type": "address"
        }
      ],
      "name": "_setComptroller",
      "outputs": [
        {
          "internalType": "uint256",
          "name": "",
          "type": "uint256"
        }
      ],
      "payable": false,
      "stateMutability": "nonpayable",
      "type": "function"
    },
    {
      "constant": false,
      "inputs": [
        {
          "internalType": "contract InterestRateModel",
          "name": "newInterestRateModel",
          "type": "address"
        }
      ],
      "name": "_setInterestRateModel",
      "outputs": [
        {
          "internalType": "uint256",
          "name": "",
          "type": "uint256"
        }
      ],
      "payable": false,
      "stateMutability": "nonpayable",
      "type": "function"
    },
    {
      "constant": false,
      "inputs": [
        {
          "internalType": "address payable",
          "name": "newPendingAdmin",
          "type": "address"
        }
      ],
      "name": "_setPendingAdmin",
      "outputs": [
        {
          "internalType": "uint256",
          "name": "",
          "type": "uint256"
        }
      ],
      "payable": false,
      "stateMutability": "nonpayable",
      "type": "function"
    },
    {
      "constant": false,
      "inputs": [
        {
          "internalType": "uint256",
          "name": "newReserveFactorMantissa",
          "type": "uint256"
        }
      ],
      "name": "_setReserveFactor",
      "outputs": [
        {
          "internalType": "uint256",
          "name": "",
          "type": "uint256"
        }
      ],
      "payable": false,
      "stateMutability": "nonpayable",
      "type": "function"
    },
    {
      "constant": true,
      "inputs": [],
      "name": "accrualBlockNumber",
      "outputs": [
        {
          "internalType": "uint256",
          "name": "",
          "type": "uint256"
        }
      ],
      "payable": false,
      "stateMutability": "view",
      "type": "function"
    },
    {
      "constant": false,
      "inputs": [],
      "name": "accrueInterest",
      "outputs": [
        {
          "internalType": "uint256",
          "name": "",
          "type": "uint256"
        }
      ],
      "payable": false,
      "stateMutability": "nonpayable",
      "type": "function"
    },
    {
      "constant": true,
      "inputs": [],
      "name": "admin",
      "outputs": [
        {
          "internalType": "address payable",
          "name": "",
          "type": "address"
        }
      ],
      "payable": false,
      "stateMutability": "view",
      "type": "function"
    },
    {
      "constant": true,
      "inputs": [
        {
          "internalType": "address",
          "name": "owner",
          "type": "address"
        },
        {
          "internalType": "address",
          "name": "spender",
          "type": "address"
        }
      ],
      "name": "allowance",
      "outputs": [
        {
          "internalType": "uint256",
          "name": "",
          "type": "uint256"
        }
      ],
      "payable": false,
      "stateMutability": "view",
      "type": "function"
    },
    {
      "constant": false,
      "inputs": [
        {
          "internalType": "address",
          "name": "spender",
          "type": "address"
        },
        {
          "internalType": "uint256",
          "name": "amount",
          "type": "uint256"
        }
      ],
      "name": "approve",
      "outputs": [
        {
          "internalType": "bool",
          "name": "",
          "type": "bool"
        }
      ],
      "payable": false,
      "stateMutability": "nonpayable",
      "type": "function"
    },
    {
      "constant": true,
      "inputs": [
        {
          "internalType": "address",
          "name": "owner",
          "type": "address"
        }
      ],
      "name": "balanceOf",
      "outputs": [
        {
          "internalType": "uint256",
          "name": "",
          "type": "uint256"
        }
      ],
      "payable": false,
      "stateMutability": "view",
      "type": "function"
    },
    {
      "constant": false,
      "inputs": [
        {
          "internalType": "address",
          "name": "owner",
          "type": "address"
        }
      ],
      "name": "balanceOfUnderlying",
      "outputs": [
        {
          "internalType": "uint256",
          "name": "",
          "type": "uint256"
        }
      ],
      "payable": false,
      "stateMutability": "nonpayable",
      "type": "function"
    },
    {
      "constant": false,
      "inputs": [
        {
          "internalType": "uint256",
          "name": "borrowAmount",
          "type": "uint256"
        }
      ],
      "name": "borrow",
      "outputs": [
        {
          "internalType": "uint256",
          "name": "",
          "type": "uint256"
        }
      ],
      "payable": false,
      "stateMutability": "nonpayable",
      "type": "function"
    },
    {
      "constant": false,
      "inputs": [
        {
          "internalType": "address",
          "name": "account",
          "type": "address"
        }
      ],
      "name": "borrowBalanceCurrent",
      "outputs": [
        {
          "internalType": "uint256",
          "name": "",
          "type": "uint256"
        }
      ],
      "payable": false,
      "stateMutability": "nonpayable",
      "type": "function"
    },
    {
      "constant": true,
      "inputs": [
        {
          "internalType": "address",
          "name": "account",
          "type": "address"
        }
      ],
      "name": "borrowBalanceStored",
      "outputs": [
        {
          "internalType": "uint256",
          "name": "",
          "type": "uint256"
        }
      ],
      "payable": false,
      "stateMutability": "view",
      "type": "function"
    },
    {
      "constant": true,
      "inputs": [],
      "name": "borrowIndex",
      "outputs": [
        {
          "internalType": "uint256",
          "name": "",
          "type": "uint256"
        }
      ],
      "payable": false,
      "stateMutability": "view",
      "type": "function"
    },
    {
      "constant": true,
      "inputs": [],
      "name": "borrowRatePerBlock",
      "outputs": [
        {
          "internalType": "uint256",
          "name": "",
          "type": "uint256"
        }
      ],
      "payable": false,
      "stateMutability": "view",
      "type": "function"
    },
    {
      "constant": true,
      "inputs": [],
      "name": "comptroller",
      "outputs": [
        {
          "internalType": "contract ComptrollerInterface",
          "name": "",
          "type": "address"
        }
      ],
      "payable": false,
      "stateMutability": "view",
      "type": "function"
    },
    {
      "constant": true,
      "inputs": [],
      "name": "decimals",
      "outputs": [
        {
          "internalType": "uint8",
          "name": "",
          "type": "uint8"
        }
      ],
      "payable": false,
      "stateMutability": "view",
      "type": "function"
    },
    {
      "constant": false,
      "inputs": [],
      "name": "exchangeRateCurrent",
      "outputs": [
        {
          "internalType": "uint256",
          "name": "",
          "type": "uint256"
        }
      ],
      "payable": false,
      "stateMutability": "nonpayable",
      "type": "function"
    },
    {
      "constant": true,
      "inputs": [],
      "name": "exchangeRateStored",
      "outputs": [
        {
          "internalType": "uint256",
          "name": "",
          "type": "uint256"
        }
      ],
      "payable": false,
      "stateMutability": "view",
      "type": "function"
    },
    {
      "constant": true,
      "inputs": [
        {
          "internalType": "address",
          "name": "account",
          "type": "address"
        }
      ],
      "name": "getAccountSnapshot",
      "outputs": [
        {
          "internalType": "uint256",
          "name": "",
          "type": "uint256"
        },
        {
          "internalType": "uint256",
          "name": "",
          "type": "uint256"
        },
        {
          "internalType": "uint256",
          "name": "",
          "type": "uint256"
        },
        {
          "internalType": "uint256",
          "name": "",
          "type": "uint256"
        }
      ],
      "payable": false,
      "stateMutability": "view",
      "type": "function"
    },
    {
      "constant": true,
      "inputs": [],
      "name": "getCash",
      "outputs": [
        {
          "internalType": "uint256",
          "name": "",
          "type": "uint256"
        }
      ],
      "payable": false,
      "stateMutability": "view",
      "type": "function"
    },
    {
      "constant": true,
      "inputs": [],
      "name": "implementation",
      "outputs": [
        {
          "internalType": "address",
          "name": "",
          "type": "address"
        }
      ],
      "payable": false,
      "stateMutability": "view",
      "type": "function"
    },
    {
      "constant": false,
      "inputs": [
        {
          "internalType": "address",
          "name": "underlying_",
          "type": "address"
        },
        {
          "internalType": "contract ComptrollerInterface",
          "name": "comptroller_",
          "type": "address"
        },
        {
          "internalType": "contract InterestRateModel",
          "name": "interestRateModel_",
          "type": "address"
        },
        {
          "internalType": "uint256",
          "name": "initialExchangeRateMantissa_",
          "type": "uint256"
        },
        {
          "internalType": "string",
          "name": "name_",
          "type": "string"
        },
        {
          "internalType": "string",
          "name": "symbol_",
          "type": "string"
        },
        {
          "internalType": "uint8",
          "name": "decimals_",
          "type": "uint8"
        }
      ],
      "name": "initialize",
      "outputs": [],
      "payable": false,
      "stateMutability": "nonpayable",
      "type": "function"
    },
    {
      "constant": false,
      "inputs": [
        {
          "internalType": "contract ComptrollerInterface",
          "name": "comptroller_",
          "type": "address"
        },
        {
          "internalType": "contract InterestRateModel",
          "name": "interestRateModel_",
          "type": "address"
        },
        {
          "internalType": "uint256",
          "name": "initialExchangeRateMantissa_",
          "type": "uint256"
        },
        {
          "internalType": "string",
          "name": "name_",
          "type": "string"
        },
        {
          "internalType": "string",
          "name": "symbol_",
          "type": "string"
        },
        {
          "internalType": "uint8",
          "name": "decimals_",
          "type": "uint8"
        }
      ],
      "name": "initialize",
      "outputs": [],
      "payable": false,
      "stateMutability": "nonpayable",
      "type": "function"
    },
    {
      "constant": true,
      "inputs": [],
      "name": "interestRateModel",
      "outputs": [
        {
          "internalType": "contract InterestRateModel",
          "name": "",
          "type": "address"
        }
      ],
      "payable": false,
      "stateMutability": "view",
      "type": "function"
    },
    {
      "constant": true,
      "inputs": [],
      "name": "isVToken",
      "outputs": [
        {
          "internalType": "bool",
          "name": "",
          "type": "bool"
        }
      ],
      "payable": false,
      "stateMutability": "view",
      "type": "function"
    },
    {
      "constant": false,
      "inputs": [
        {
          "internalType": "address",
          "name": "borrower",
          "type": "address"
        },
        {
          "internalType": "uint256",
          "name": "repayAmount",
          "type": "uint256"
        },
        {
          "internalType": "contract VTokenInterface",
          "name": "vTokenCollateral",
          "type": "address"
        }
      ],
      "name": "liquidateBorrow",
      "outputs": [
        {
          "internalType": "uint256",
          "name": "",
          "type": "uint256"
        }
      ],
      "payable": false,
      "stateMutability": "nonpayable",
      "type": "function"
    },
    {
      "constant": false,
      "inputs": [
        {
          "internalType": "uint256",
          "name": "mintAmount",
          "type": "uint256"
        }
      ],
      "name": "mint",
      "outputs": [
        {
          "internalType": "uint256",
          "name": "",
          "type": "uint256"
        }
      ],
      "payable": false,
      "stateMutability": "nonpayable",
      "type": "function"
    },
    {
      "constant": false,
      "inputs": [
        {
          "internalType": "address",
          "name": "receiver",
          "type": "address"
        },
        {
          "internalType": "uint256",
          "name": "mintAmount",
          "type": "uint256"
        }
      ],
      "name": "mintBehalf",
      "outputs": [
        {
          "internalType": "uint256",
          "name": "",
          "type": "uint256"
        }
      ],
      "payable": false,
      "stateMutability": "nonpayable",
      "type": "function"
    },
    {
      "constant": true,
      "inputs": [],
      "name": "name",
      "outputs": [
        {
          "internalType": "string",
          "name": "",
          "type": "string"
        }
      ],
      "payable": false,
      "stateMutability": "view",
      "type": "function"
    },
    {
      "constant": true,
      "inputs": [],
      "name": "pendingAdmin",
      "outputs": [
        {
          "internalType": "address payable",
          "name": "",
          "type": "address"
        }
      ],
      "payable": false,
      "stateMutability": "view",
      "type": "function"
    },
    {
      "constant": false,
      "inputs": [
        {
          "internalType": "uint256",
          "name": "redeemTokens",
          "type": "uint256"
        }
      ],
      "name": "redeem",
      "outputs": [
        {
          "internalType": "uint256",
          "name": "",
          "type": "uint256"
        }
      ],
      "payable": false,
      "stateMutability": "nonpayable",
      "type": "function"
    },
    {
      "constant": false,
      "inputs": [
        {
          "internalType": "uint256",
          "name": "redeemAmount",
          "type": "uint256"
        }
      ],
      "name": "redeemUnderlying",
      "outputs": [
        {
          "internalType": "uint256",
          "name": "",
          "type": "uint256"
        }
      ],
      "payable": false,
      "stateMutability": "nonpayable",
      "type": "function"
    },
    {
      "constant": false,
      "inputs": [
        {
          "internalType": "uint256",
          "name": "repayAmount",
          "type": "uint256"
        }
      ],
      "name": "repayBorrow",
      "outputs": [
        {
          "internalType": "uint256",
          "name": "",
          "type": "uint256"
        }
      ],
      "payable": false,
      "stateMutability": "nonpayable",
      "type": "function"
    },
    {
      "constant": false,
      "inputs": [
        {
          "internalType": "address",
          "name": "borrower",
          "type": "address"
        },
        {
          "internalType": "uint256",
          "name": "repayAmount",
          "type": "uint256"
        }
      ],
      "name": "repayBorrowBehalf",
      "outputs": [
        {
          "internalType": "uint256",
          "name": "",
          "type": "uint256"
        }
      ],
      "payable": false,
      "stateMutability": "nonpayable",
      "type": "function"
    },
    {
      "constant": true,
      "inputs": [],
      "name": "reserveFactorMantissa",
      "outputs": [
        {
          "internalType": "uint256",
          "name": "",
          "type": "uint256"
        }
      ],
      "payable": false,
      "stateMutability": "view",
      "type": "function"
    },
    {
      "constant": false,
      "inputs": [
        {
          "internalType": "address",
          "name": "liquidator",
          "type": "address"
        },
        {
          "internalType": "address",
          "name": "borrower",
          "type": "address"
        },
        {
          "internalType": "uint256",
          "name": "seizeTokens",
          "type": "uint256"
        }
      ],
      "name": "seize",
      "outputs": [
        {
          "internalType": "uint256",
          "name": "",
          "type": "uint256"
        }
      ],
      "payable": false,
      "stateMutability": "nonpayable",
      "type": "function"
    },
    {
      "constant": false,
      "inputs": [
        {
          "internalType": "uint256",
          "name": "totalBorrows_",
          "type": "uint256"
        }
      ],
      "name": "setTotalBorrows",
      "outputs": [],
      "payable": false,
      "stateMutability": "nonpayable",
      "type": "function"
    },
    {
      "constant": false,
      "inputs": [
        {
          "internalType": "uint256",
          "name": "totalReserves_",
          "type": "uint256"
        }
      ],
      "name": "setTotalReserves",
      "outputs": [],
      "payable": false,
      "stateMutability": "nonpayable",
      "type": "function"
    },
    {
      "constant": true,
      "inputs": [],
      "name": "supplyRatePerBlock",
      "outputs": [
        {
          "internalType": "uint256",
          "name": "",
          "type": "uint256"
        }
      ],
      "payable": false,
      "stateMutability": "view",
      "type": "function"
    },
    {
      "constant": true,
      "inputs": [],
      "name": "symbol",
      "outputs": [
        {
          "internalType": "string",
          "name": "",
          "type": "string"
        }
      ],
      "payable": false,
      "stateMutability": "view",
      "type": "function"
    },
    {
      "constant": true,
      "inputs": [],
      "name": "totalBorrows",
      "outputs": [
        {
          "internalType": "uint256",
          "name": "",
          "type": "uint256"
        }
      ],
      "payable": false,
      "stateMutability": "view",
      "type": "function"
    },
    {
      "constant": false,
      "inputs": [],
      "name": "totalBorrowsCurrent",
      "outputs": [
        {
          "internalType": "uint256",
          "name": "",
          "type": "uint256"
        }
      ],
      "payable": false,
      "stateMutability": "nonpayable",
      "type": "function"
    },
    {
      "constant": true,
      "inputs": [],
      "name": "totalReserves",
      "outputs": [
        {
          "internalType": "uint256",
          "name": "",
          "type": "uint256"
        }
      ],
      "payable": false,
      "stateMutability": "view",
      "type": "function"
    },
    {
      "constant": true,
      "inputs": [],
      "name": "totalSupply",
      "outputs": [
        {
          "internalType": "uint256",
          "name": "",
          "type": "uint256"
        }
      ],
      "payable": false,
      "stateMutability": "view",
      "type": "function"
    },
    {
      "constant": false,
      "inputs": [
        {
          "internalType": "address",
          "name": "dst",
          "type": "address"
        },
        {
          "internalType": "uint256",
          "name": "amount",
          "type": "uint256"
        }
      ],
      "name": "transfer",
      "outputs": [
        {
          "internalType": "bool",
          "name": "",
          "type": "bool"
        }
      ],
      "payable": false,
      "stateMutability": "nonpayable",
      "type": "function"
    },
    {
      "constant": false,
      "inputs": [
        {
          "internalType": "address",
          "name": "src",
          "type": "address"
        },
        {
          "internalType": "address",
          "name": "dst",
          "type": "address"
        },
        {
          "internalType": "uint256",
          "name": "amount",
          "type": "uint256"
        }
      ],
      "name": "transferFrom",
      "outputs": [
        {
          "internalType": "bool",
          "name": "",
          "type": "bool"
        }
      ],
      "payable": false,
      "stateMutability": "nonpayable",
      "type": "function"
    },
    {
      "constant": true,
      "inputs": [],
      "name": "underlying",
      "outputs": [
        {
          "internalType": "address",
          "name": "",
          "type": "address"
        }
      ],
      "payable": false,
      "stateMutability": "view",
      "type": "function"
    }
  ],
  "bytecode": "0x608060405234801561001057600080fd5b5061598480620000216000396000f3fe608060405234801561001057600080fd5b50600436106103425760003560e01c806373acee98116101b8578063b2a02ff111610104578063e9c714f2116100a2578063f5e3c4621161007c578063f5e3c46214610bbb578063f851a44014610bf1578063f8f9da2814610bf9578063fca7820b14610c0157610342565b8063e9c714f214610b85578063f2b3abbd14610b8d578063f3fdb15a14610bb357610342565b8063c37f68e2116100de578063c37f68e214610ad1578063c5ebeaec14610b1d578063db006a7514610b3a578063dd62ed3e14610b5757610342565b8063b2a02ff114610a6d578063b71d1a0c14610aa3578063bd6d894d14610ac957610342565b806399d8c1b411610171578063a9059cbb1161014b578063a9059cbb14610a14578063aa5af0fd14610a40578063ae9d70b014610a48578063b0e0bf2a14610a5057610342565b806399d8c1b4146108a1578063a0712d68146109ef578063a6afed9514610a0c57610342565b806373acee9814610829578063852a12e3146108315780638f840ddd1461084e57806395d89b411461085657806395dd91931461085e578063977e19e91461088457610342565b8063313ce5671161029257806356e6772811610230578063601a0bf11161020a578063601a0bf1146107d65780636c540baf146107f35780636f307dc3146107fb57806370a082311461080357610342565b806356e67728146107225780635c60da1b146107c65780635fe3b567146107ce57610342565b80633d9ea3a11161026c5780633d9ea3a1146106cf5780633e941010146106d75780634576b5db146106f457806347bd37181461071a57610342565b8063313ce567146106835780633af9e669146106a15780633b1d21a2146106c757610342565b806318160ddd116102ff57806323323e03116102d957806323323e03146105d157806323b872dd146105fd5780632608f81814610633578063267822471461065f57610342565b806318160ddd1461046b578063182df0f5146104735780631a31d4651461047b57610342565b806306fdde0314610347578063095ea7b3146103c45780630e75270214610404578063153ab50514610433578063173b99041461043d57806317bfdfbc14610445575b600080fd5b61034f610c1e565b6040805160208082528351818301528351919283929083019185019080838360005b83811015610389578181015183820152602001610371565b50505050905090810190601f1680156103b65780820380516001836020036101000a031916815260200191505b509250505060405180910390f35b6103f0600480360360408110156103da57600080fd5b506001600160a01b038135169060200135610cab565b604080519115158252519081900360200190f35b6104216004803603602081101561041a57600080fd5b5035610d18565b60408051918252519081900360200190f35b61043b610d2e565b005b610421610d7e565b6104216004803603602081101561045b57600080fd5b50356001600160a01b0316610d84565b610421610e44565b610421610e4a565b61043b600480360360e081101561049157600080fd5b6001600160a01b03823581169260208101358216926040820135909216916060820135919081019060a081016080820135600160201b8111156104d357600080fd5b8201836020820111156104e557600080fd5b803590602001918460018302840111600160201b8311171561050657600080fd5b91908080601f0160208091040260200160405190810160405280939291908181526020018383808284376000920191909152509295949360208101935035915050600160201b81111561055857600080fd5b82018360208201111561056a57600080fd5b803590602001918460018302840111600160201b8311171561058b57600080fd5b91908080601f0160208091040260200160405190810160405280939291908181526020018383808284376000920191909152509295505050903560ff169150610ead9050565b610421600480360360408110156105e757600080fd5b506001600160a01b038135169060200135610f4c565b6103f06004803603606081101561061357600080fd5b506001600160a01b03813581169160208101359091169060400135610f62565b6104216004803603604081101561064957600080fd5b506001600160a01b038135169060200135610fd4565b610667610fe1565b604080516001600160a01b039092168252519081900360200190f35b61068b610ff0565b6040805160ff9092168252519081900360200190f35b610421600480360360208110156106b757600080fd5b50356001600160a01b0316610ff9565b6104216110af565b6103f06110be565b610421600480360360208110156106ed57600080fd5b50356110c3565b6104216004803603602081101561070a57600080fd5b50356001600160a01b03166110ce565b610421611223565b61043b6004803603602081101561073857600080fd5b810190602081018135600160201b81111561075257600080fd5b82018360208201111561076457600080fd5b803590602001918460018302840111600160201b8311171561078557600080fd5b91908080601f016020809104026020016040519081016040528093929190818152602001838380828437600092019190915250929550611229945050505050565b61066761127a565b610667611289565b610421600480360360208110156107ec57600080fd5b5035611298565b610421611333565b610667611339565b6104216004803603602081101561081957600080fd5b50356001600160a01b0316611348565b610421611363565b6104216004803603602081101561084757600080fd5b5035611419565b610421611424565b61034f61142a565b6104216004803603602081101561087457600080fd5b50356001600160a01b0316611482565b61043b6004803603602081101561089a57600080fd5b50356114df565b61043b600480360360c08110156108b757600080fd5b6001600160a01b03823581169260208101359091169160408201359190810190608081016060820135600160201b8111156108f157600080fd5b82018360208201111561090357600080fd5b803590602001918460018302840111600160201b8311171561092457600080fd5b91908080601f0160208091040260200160405190810160405280939291908181526020018383808284376000920191909152509295949360208101935035915050600160201b81111561097657600080fd5b82018360208201111561098857600080fd5b803590602001918460018302840111600160201b831117156109a957600080fd5b91908080601f0160208091040260200160405190810160405280939291908181526020018383808284376000920191909152509295505050903560ff1691506114e49050565b61042160048036036020811015610a0557600080fd5b50356116cb565b6104216116d7565b6103f060048036036040811015610a2a57600080fd5b506001600160a01b038135169060200135611a2f565b610421611aa0565b610421611aa6565b61043b60048036036020811015610a6657600080fd5b5035611b45565b61042160048036036060811015610a8357600080fd5b506001600160a01b03813581169160208101359091169060400135611b4a565b61042160048036036020811015610ab957600080fd5b50356001600160a01b0316611bbb565b610421611c47565b610af760048036036020811015610ae757600080fd5b50356001600160a01b0316611d03565b604080519485526020850193909352838301919091526060830152519081900360800190f35b61042160048036036020811015610b3357600080fd5b5035611d98565b61042160048036036020811015610b5057600080fd5b5035611da3565b61042160048036036040811015610b6d57600080fd5b506001600160a01b0381358116916020013516611dae565b610421611dd9565b61042160048036036020811015610ba357600080fd5b50356001600160a01b0316611ed1565b610667611f0b565b61042160048036036060811015610bd157600080fd5b506001600160a01b03813581169160208101359160409091013516611f1a565b610667611f32565b610421611f46565b61042160048036036020811015610c1757600080fd5b5035611faa565b60018054604080516020600284861615610100026000190190941693909304601f81018490048402820184019092528181529291830182828015610ca35780601f10610c7857610100808354040283529160200191610ca3565b820191906000526020600020905b815481529060010190602001808311610c8657829003601f168201915b505050505081565b336000818152600f602090815260408083206001600160a01b03871680855290835281842086905581518681529151939493909284927f8c5be1e5ebec7d5bd14f71427d1e84f3dd0314c0f7b2291e5b200ac8c7c3b925929081900390910190a360019150505b92915050565b600080610d2483612028565b509150505b919050565b60035461010090046001600160a01b03163314610d7c5760405162461bcd60e51b815260040180806020018281038252602d815260200180615745602d913960400191505060405180910390fd5b565b60085481565b6000805460ff16610dc9576040805162461bcd60e51b815260206004820152600a6024820152691c994b595b9d195c995960b21b604482015290519081900360640190fd5b6000805460ff19168155610ddb6116d7565b14610e26576040805162461bcd60e51b81526020600482015260166024820152751858d8dc9d59481a5b9d195c995cdd0819985a5b195960521b604482015290519081900360640190fd5b610e2f82611482565b90505b6000805460ff19166001179055919050565b600d5481565b6000806000610e576120d1565b90925090506000826003811115610e6a57fe5b14610ea65760405162461bcd60e51b81526004018080602001828103825260358152602001806158926035913960400191505060405180910390fd5b9150505b90565b610ebb8686868686866114e4565b601180546001600160a01b0319166001600160a01b038981169190911791829055604080516318160ddd60e01b8152905192909116916318160ddd91600480820192602092909190829003018186803b158015610f1757600080fd5b505afa158015610f2b573d6000803e3d6000fd5b505050506040513d6020811015610f4157600080fd5b505050505050505050565b600080610f598484612180565b50949350505050565b6000805460ff16610fa7576040805162461bcd60e51b815260206004820152600a6024820152691c994b595b9d195c995960b21b604482015290519081900360640190fd5b6000805460ff19168155610fbd3386868661222b565b1490506000805460ff191660011790559392505050565b600080610f598484612539565b6004546001600160a01b031681565b60035460ff1681565b600061100361555a565b6040518060200160405280611016611c47565b90526001600160a01b0384166000908152600e60205260408120549192509081906110429084906125bb565b9092509050600082600381111561105557fe5b146110a7576040805162461bcd60e51b815260206004820152601f60248201527f62616c616e636520636f756c64206e6f742062652063616c63756c6174656400604482015290519081900360640190fd5b949350505050565b60006110b961260f565b905090565b600181565b6000610d128261268f565b60035460009061010090046001600160a01b031633146110fb576110f46001603f612723565b9050610d29565b60055460408051623f1ee960e11b815290516001600160a01b0392831692851691627e3dd2916004808301926020929190829003018186803b15801561114057600080fd5b505afa158015611154573d6000803e3d6000fd5b505050506040513d602081101561116a57600080fd5b50516111bd576040805162461bcd60e51b815260206004820152601c60248201527f6d61726b6572206d6574686f642072657475726e65642066616c736500000000604482015290519081900360640190fd5b600580546001600160a01b0319166001600160a01b03858116918217909255604080519284168352602083019190915280517f7ac369dbd14fa5ea3f473ed67cc9d598964a77501540ba6751eb0b3decf5870d9281900390910190a160005b9392505050565b600b5481565b60035461010090046001600160a01b031633146112775760405162461bcd60e51b815260040180806020018281038252602d815260200180615923602d913960400191505060405180910390fd5b50565b6012546001600160a01b031681565b6005546001600160a01b031681565b6000805460ff166112dd576040805162461bcd60e51b815260206004820152600a6024820152691c994b595b9d195c995960b21b604482015290519081900360640190fd5b6000805460ff191681556112ef6116d7565b905080156113155761130d81601181111561130657fe5b6030612723565b915050610e32565b61131e83612789565b9150506000805460ff19166001179055919050565b60095481565b6011546001600160a01b031681565b6001600160a01b03166000908152600e602052604090205490565b6000805460ff166113a8576040805162461bcd60e51b815260206004820152600a6024820152691c994b595b9d195c995960b21b604482015290519081900360640190fd5b6000805460ff191681556113ba6116d7565b14611405576040805162461bcd60e51b81526020600482015260166024820152751858d8dc9d59481a5b9d195c995cdd0819985a5b195960521b604482015290519081900360640190fd5b50600b546000805460ff1916600117905590565b6000610d128261287d565b600c5481565b6002805460408051602060018416156101000260001901909316849004601f81018490048402820184019092528181529291830182828015610ca35780601f10610c7857610100808354040283529160200191610ca3565b6000806000611490846128fe565b909250905060008260038111156114a357fe5b1461121c5760405162461bcd60e51b815260040180806020018281038252603781526020018061579d6037913960400191505060405180910390fd5b600b55565b60035461010090046001600160a01b031633146115325760405162461bcd60e51b81526004018080602001828103825260248152602001806156ac6024913960400191505060405180910390fd5b6009541580156115425750600a54155b61157d5760405162461bcd60e51b81526004018080602001828103825260238152602001806156d06023913960400191505060405180910390fd5b6007849055836115be5760405162461bcd60e51b81526004018080602001828103825260308152602001806156f36030913960400191505060405180910390fd5b60006115c9876110ce565b9050801561161e576040805162461bcd60e51b815260206004820152601a60248201527f73657474696e6720636f6d7074726f6c6c6572206661696c6564000000000000604482015290519081900360640190fd5b6116266129b2565b600955670de0b6b3a7640000600a5561163e866129fa565b9050801561167d5760405162461bcd60e51b81526004018080602001828103825260228152602001806157236022913960400191505060405180910390fd5b835161169090600190602087019061556d565b5082516116a490600290602086019061556d565b50506003805460ff90921660ff199283161790556000805490911660011790555050505050565b600080610d2483612b6f565b6000806116e26129b2565b600954909150808214156116fb57600092505050610eaa565b600061170561260f565b600b54600c54600a54600654604080516315f2405360e01b815260048101879052602481018690526044810185905290519596509394929391926000926001600160a01b03909216916315f24053916064808301926020929190829003018186803b15801561177357600080fd5b505afa158015611787573d6000803e3d6000fd5b505050506040513d602081101561179d57600080fd5b5051905065048c273950008111156117fc576040805162461bcd60e51b815260206004820152601c60248201527f626f72726f772072617465206973206162737572646c79206869676800000000604482015290519081900360640190fd5b6000806118098989612be9565b9092509050600082600381111561181c57fe5b1461186e576040805162461bcd60e51b815260206004820152601f60248201527f636f756c64206e6f742063616c63756c61746520626c6f636b2064656c746100604482015290519081900360640190fd5b61187661555a565b60008060008061189460405180602001604052808a81525087612c0c565b909750945060008760038111156118a757fe5b146118d9576118c4600960068960038111156118bf57fe5b612c74565b9e505050505050505050505050505050610eaa565b6118e3858c6125bb565b909750935060008760038111156118f657fe5b1461190e576118c4600960018960038111156118bf57fe5b611918848c612cda565b9097509250600087600381111561192b57fe5b14611943576118c4600960048960038111156118bf57fe5b61195e6040518060200160405280600854815250858c612d00565b9097509150600087600381111561197157fe5b14611989576118c4600960058960038111156118bf57fe5b611994858a8b612d00565b909750905060008760038111156119a757fe5b146119bf576118c4600960038960038111156118bf57fe5b60098e9055600a819055600b839055600c829055604080518d8152602081018690528082018390526060810185905290517f4dec04e750ca11537cabcd8a9eab06494de08da3735bc8871cd41250e190bc049181900360800190a160009e50505050505050505050505050505090565b6000805460ff16611a74576040805162461bcd60e51b815260206004820152600a6024820152691c994b595b9d195c995960b21b604482015290519081900360640190fd5b6000805460ff19168155611a8a3333868661222b565b1490506000805460ff1916600117905592915050565b600a5481565b6006546000906001600160a01b031663b8168816611ac261260f565b600b54600c546008546040518563ffffffff1660e01b81526004018085815260200184815260200183815260200182815260200194505050505060206040518083038186803b158015611b1457600080fd5b505afa158015611b28573d6000803e3d6000fd5b505050506040513d6020811015611b3e57600080fd5b5051905090565b600c55565b6000805460ff16611b8f576040805162461bcd60e51b815260206004820152600a6024820152691c994b595b9d195c995960b21b604482015290519081900360640190fd5b6000805460ff19169055611ba533858585612d5c565b90506000805460ff191660011790559392505050565b60035460009061010090046001600160a01b03163314611be1576110f460016045612723565b600480546001600160a01b038481166001600160a01b0319831681179093556040805191909216808252602082019390935281517fca4f2f25d0898edd99413412fb94012f9e54ec8142f9b093e7720646a95b16a9929181900390910190a1600061121c565b6000805460ff16611c8c576040805162461bcd60e51b815260206004820152600a6024820152691c994b595b9d195c995960b21b604482015290519081900360640190fd5b6000805460ff19168155611c9e6116d7565b14611ce9576040805162461bcd60e51b81526020600482015260166024820152751858d8dc9d59481a5b9d195c995cdd0819985a5b195960521b604482015290519081900360640190fd5b611cf1610e4a565b90506000805460ff1916600117905590565b6001600160a01b0381166000908152600e6020526040812054819081908190818080611d2e896128fe565b935090506000816003811115611d4057fe5b14611d5e5760095b975060009650869550859450611d919350505050565b611d666120d1565b925090506000816003811115611d7857fe5b14611d84576009611d48565b5060009650919450925090505b9193509193565b6000610d1282612fc2565b6000610d1282613041565b6001600160a01b039182166000908152600f6020908152604080832093909416825291909152205490565b6004546000906001600160a01b03163314611e0157611dfa60016000612723565b9050610eaa565b60038054600480546001600160a01b03818116610100818102610100600160a81b0319871617968790556001600160a01b031990931690935560408051948390048216808652929095041660208401528351909391927ff9ffabca9c8276e99321725bcb43fb076a6c66a54b7f21c4e8146d8519b417dc92908290030190a1600454604080516001600160a01b038085168252909216602083015280517fca4f2f25d0898edd99413412fb94012f9e54ec8142f9b093e7720646a95b16a99281900390910190a160009250505090565b600080611edc6116d7565b90508015611f0257611efa816011811115611ef357fe5b6040612723565b915050610d29565b61121c836129fa565b6006546001600160a01b031681565b600080611f288585856130bb565b5095945050505050565b60035461010090046001600160a01b031681565b6006546000906001600160a01b03166315f24053611f6261260f565b600b54600c546040518463ffffffff1660e01b815260040180848152602001838152602001828152602001935050505060206040518083038186803b158015611b1457600080fd5b6000805460ff16611fef576040805162461bcd60e51b815260206004820152600a6024820152691c994b595b9d195c995960b21b604482015290519081900360640190fd5b6000805460ff191681556120016116d7565b9050801561201f5761130d81601181111561201857fe5b6046612723565b61131e836131ed565b60008054819060ff1661206f576040805162461bcd60e51b815260206004820152600a6024820152691c994b595b9d195c995960b21b604482015290519081900360640190fd5b6000805460ff191681556120816116d7565b905080156120ac5761209f81601181111561209857fe5b6036612723565b9250600091506120bd9050565b6120b7333386613295565b92509250505b6000805460ff191660011790559092909150565b600d546000908190806120ec5750506007546000915061217c565b60006120f661260f565b9050600061210261555a565b600061211384600b54600c5461367a565b93509050600081600381111561212557fe5b1461213a5795506000945061217c9350505050565b61214483866136b8565b92509050600081600381111561215657fe5b1461216b5795506000945061217c9350505050565b505160009550935061217c92505050565b9091565b60008054819060ff166121c7576040805162461bcd60e51b815260206004820152600a6024820152691c994b595b9d195c995960b21b604482015290519081900360640190fd5b6000805460ff191681556121d96116d7565b90508015612204576121f78160118111156121f057fe5b601e612723565b9250600091506122159050565b61220f338686613768565b92509250505b6000805460ff1916600117905590939092509050565b600554604080516317b9b84b60e31b81523060048201526001600160a01b03868116602483015285811660448301526064820185905291516000938493169163bdcdc25891608480830192602092919082900301818787803b15801561229057600080fd5b505af11580156122a4573d6000803e3d6000fd5b505050506040513d60208110156122ba57600080fd5b5051905080156122d9576122d16003604a83612c74565b9150506110a7565b836001600160a01b0316856001600160a01b031614156122ff576122d16002604b612723565b60006001600160a01b03878116908716141561231e5750600019612346565b506001600160a01b038086166000908152600f60209081526040808320938a16835292905220545b6000806000806123568589612be9565b9094509250600084600381111561236957fe5b146123875761237a6009604b612723565b96505050505050506110a7565b6001600160a01b038a166000908152600e60205260409020546123aa9089612be9565b909450915060008460038111156123bd57fe5b146123ce5761237a6009604c612723565b6001600160a01b0389166000908152600e60205260409020546123f19089612cda565b9094509050600084600381111561240457fe5b146124155761237a6009604d612723565b6001600160a01b03808b166000908152600e6020526040808220859055918b16815220819055600019851461246d576001600160a01b03808b166000908152600f60209081526040808320938f168352929052208390555b886001600160a01b03168a6001600160a01b031660008051602061580e8339815191528a6040518082815260200191505060405180910390a36005546040805163352b4a3f60e11b81523060048201526001600160a01b038d811660248301528c81166044830152606482018c905291519190921691636a56947e91608480830192600092919082900301818387803b15801561250957600080fd5b505af115801561251d573d6000803e3d6000fd5b506000925061252a915050565b9b9a5050505050505050505050565b60008054819060ff16612580576040805162461bcd60e51b815260206004820152600a6024820152691c994b595b9d195c995960b21b604482015290519081900360640190fd5b6000805460ff191681556125926116d7565b905080156125b0576121f78160118111156125a957fe5b6035612723565b61220f338686613295565b60008060006125c861555a565b6125d28686612c0c565b909250905060008260038111156125e557fe5b146125f65750915060009050612608565b600061260182613bf4565b9350935050505b9250929050565b601154604080516370a0823160e01b815230600482015290516000926001600160a01b03169182916370a0823191602480820192602092909190829003018186803b15801561265d57600080fd5b505afa158015612671573d6000803e3d6000fd5b505050506040513d602081101561268757600080fd5b505191505090565b6000805460ff166126d4576040805162461bcd60e51b815260206004820152600a6024820152691c994b595b9d195c995960b21b604482015290519081900360640190fd5b6000805460ff191681556126e66116d7565b905080156127045761130d8160118111156126fd57fe5b604e612723565b61270d83613c03565b509150506000805460ff19166001179055919050565b60007f45b96fe442630264581b197e84bbada861235052c5a1aadfff9ea4e40a969aa083601181111561275257fe5b83605681111561275e57fe5b604080519283526020830191909152600082820152519081900360600190a182601181111561121c57fe5b600354600090819061010090046001600160a01b031633146127b157611efa60016031612723565b6127b96129b2565b600954146127cd57611efa600a6033612723565b826127d661260f565b10156127e857611efa600e6032612723565b600c548311156127fe57611efa60026034612723565b50600c8054839003908190556003546128259061010090046001600160a01b031684613ceb565b600354604080516101009092046001600160a01b0316825260208201859052818101839052517f3bad0c59cf2f06e7314077049f48a93578cd16f5ef92329f1dab1420a99c177e916060908290030190a1600061121c565b6000805460ff166128c2576040805162461bcd60e51b815260206004820152600a6024820152691c994b595b9d195c995960b21b604482015290519081900360640190fd5b6000805460ff191681556128d46116d7565b905080156128f25761130d8160118111156128eb57fe5b6027612723565b61131e33600085613de2565b6001600160a01b0381166000908152601060205260408120805482918291829182916129355750600094508493506129ad92505050565b6129458160000154600a5461455d565b9094509250600084600381111561295857fe5b1461296d5750919350600092506129ad915050565b61297b83826001015461459c565b9094509150600084600381111561298e57fe5b146129a35750919350600092506129ad915050565b5060009450925050505b915091565b600554604080516357e871e760e01b815290516000926001600160a01b03169182916357e871e791600480820192602092909190829003018186803b15801561265d57600080fd5b600354600090819061010090046001600160a01b03163314612a2257611efa60016042612723565b612a2a6129b2565b60095414612a3e57611efa600a6041612723565b600660009054906101000a90046001600160a01b03169050826001600160a01b0316632191f92a6040518163ffffffff1660e01b815260040160206040518083038186803b158015612a8f57600080fd5b505afa158015612aa3573d6000803e3d6000fd5b505050506040513d6020811015612ab957600080fd5b5051612b0c576040805162461bcd60e51b815260206004820152601c60248201527f6d61726b6572206d6574686f642072657475726e65642066616c736500000000604482015290519081900360640190fd5b600680546001600160a01b0319166001600160a01b03858116918217909255604080519284168352602083019190915280517fedffc32e068c7c95dfd4bdfd5c4d939a084d6b11c4199eac8436ed234d72f9269281900390910190a1600061121c565b60008054819060ff16612bb6576040805162461bcd60e51b815260206004820152600a6024820152691c994b595b9d195c995960b21b604482015290519081900360640190fd5b6000805460ff19168155612bc86116d7565b90508015612bdf5761209f8160118111156121f057fe5b6120b733856145c7565b600080838311612c00575060009050818303612608565b50600390506000612608565b6000612c1661555a565b600080612c2786600001518661455d565b90925090506000826003811115612c3a57fe5b14612c5957506040805160208101909152600081529092509050612608565b60408051602081019091529081526000969095509350505050565b60007f45b96fe442630264581b197e84bbada861235052c5a1aadfff9ea4e40a969aa0846011811115612ca357fe5b846056811115612caf57fe5b604080519283526020830191909152818101859052519081900360600190a18360118111156110a757fe5b600080838301848110612cf257600092509050612608565b506002915060009050612608565b6000806000612d0d61555a565b612d178787612c0c565b90925090506000826003811115612d2a57fe5b14612d3b5750915060009050612d54565b612d4d612d4782613bf4565b86612cda565b9350935050505b935093915050565b6005546040805163d02f735160e01b81523060048201526001600160a01b038781166024830152868116604483015285811660648301526084820185905291516000938493169163d02f73519160a480830192602092919082900301818787803b158015612dc957600080fd5b505af1158015612ddd573d6000803e3d6000fd5b505050506040513d6020811015612df357600080fd5b505190508015612e0a576122d16003601b83612c74565b846001600160a01b0316846001600160a01b03161415612e30576122d16006601c612723565b6001600160a01b0384166000908152600e602052604081205481908190612e579087612be9565b90935091506000836003811115612e6a57fe5b14612e8d57612e826009601a8560038111156118bf57fe5b9450505050506110a7565b6001600160a01b0388166000908152600e6020526040902054612eb09087612cda565b90935090506000836003811115612ec357fe5b14612edb57612e82600960198560038111156118bf57fe5b6001600160a01b038088166000818152600e60209081526040808320879055938c168083529184902085905583518a81529351919360008051602061580e833981519152929081900390910190a360055460408051636d35bf9160e01b81523060048201526001600160a01b038c811660248301528b811660448301528a81166064830152608482018a905291519190921691636d35bf919160a480830192600092919082900301818387803b158015612f9457600080fd5b505af1158015612fa8573d6000803e3d6000fd5b5060009250612fb5915050565b9998505050505050505050565b6000805460ff16613007576040805162461bcd60e51b815260206004820152600a6024820152691c994b595b9d195c995960b21b604482015290519081900360640190fd5b6000805460ff191681556130196116d7565b905080156130375761130d81601181111561303057fe5b6008612723565b61131e3384614a0e565b6000805460ff16613086576040805162461bcd60e51b815260206004820152600a6024820152691c994b595b9d195c995960b21b604482015290519081900360640190fd5b6000805460ff191681556130986116d7565b905080156130af5761130d8160118111156128eb57fe5b61131e33846000613de2565b60008054819060ff16613102576040805162461bcd60e51b815260206004820152600a6024820152691c994b595b9d195c995960b21b604482015290519081900360640190fd5b6000805460ff191681556131146116d7565b9050801561313f5761313281601181111561312b57fe5b600f612723565b9250600091506131d69050565b836001600160a01b031663a6afed956040518163ffffffff1660e01b8152600401602060405180830381600087803b15801561317a57600080fd5b505af115801561318e573d6000803e3d6000fd5b505050506040513d60208110156131a457600080fd5b5051905080156131c4576131328160118111156131bd57fe5b6010612723565b6131d033878787614d1c565b92509250505b6000805460ff191660011790559094909350915050565b60035460009061010090046001600160a01b03163314613213576110f460016047612723565b61321b6129b2565b6009541461322f576110f4600a6048612723565b670de0b6b3a764000082111561324b576110f460026049612723565b6008805490839055604080518281526020810185905281517faaa68312e2ea9d50e16af5068410ab56e1a1fd06037b1a35664812c30f821460929181900390910190a1600061121c565b60055460408051631200453160e11b81523060048201526001600160a01b0386811660248301528581166044830152606482018590529151600093849384939116916324008a629160848082019260209290919082900301818787803b1580156132fe57600080fd5b505af1158015613312573d6000803e3d6000fd5b505050506040513d602081101561332857600080fd5b50519050801561334c5761333f6003603883612c74565b925060009150612d549050565b6133546129b2565b600954146133685761333f600a6039612723565b6133706155eb565b6001600160a01b038616600090815260106020526040902060010154606082015261339a866128fe565b60808301819052602083018260038111156133b157fe5b60038111156133bc57fe5b90525060009050816020015160038111156133d357fe5b146133fd576133ef60096037836020015160038111156118bf57fe5b935060009250612d54915050565b600019851415613416576080810151604082015261341e565b604081018590525b61342c87826040015161529f565b60e08201819052608082015161344191612be9565b60a083018190526020830182600381111561345857fe5b600381111561346357fe5b905250600090508160200151600381111561347a57fe5b146134b65760405162461bcd60e51b815260040180806020018281038252603a8152602001806157d4603a913960400191505060405180910390fd5b6134c6600b548260e00151612be9565b60c08301819052602083018260038111156134dd57fe5b60038111156134e857fe5b90525060009050816020015160038111156134ff57fe5b1461353b5760405162461bcd60e51b815260040180806020018281038252603181526020018061582e6031913960400191505060405180910390fd5b60a080820180516001600160a01b03808a16600081815260106020908152604091829020948555600a5460019095019490945560c0870151600b81905560e088015195518251948f16855294840192909252828101949094526060820192909252608081019190915290517f1a2a22cb034d26d1854bdc6666a5b91fe25efbbb5dcad3b0355478d6f5c362a1929181900390910190a160055460e0820151606083015160408051631ededc9160e01b81523060048201526001600160a01b038c811660248301528b8116604483015260648201949094526084810192909252519190921691631ededc919160a480830192600092919082900301818387803b15801561364657600080fd5b505af115801561365a573d6000803e3d6000fd5b5060009250613667915050565b8160e00151935093505050935093915050565b60008060008061368a8787612cda565b9092509050600082600381111561369d57fe5b146136ae5750915060009050612d54565b612d4d8186612be9565b60006136c261555a565b6000806136d786670de0b6b3a764000061455d565b909250905060008260038111156136ea57fe5b1461370957506040805160208101909152600081529092509050612608565b600080613716838861459c565b9092509050600082600381111561372957fe5b1461374b57506040805160208101909152600081529094509250612608915050565b604080516020810190915290815260009890975095505050505050565b6000806001600160a01b0384166137bc576040805162461bcd60e51b81526020600482015260136024820152721c9958d95a5d995c881a5cc81a5b9d985b1a59606a1b604482015290519081900360640190fd5b60055460408051634ef4c3e160e01b81523060048201526001600160a01b0387811660248301526044820187905291516000939290921691634ef4c3e19160648082019260209290919082900301818787803b15801561381b57600080fd5b505af115801561382f573d6000803e3d6000fd5b505050506040513d602081101561384557600080fd5b50519050801561385c5761333f6003601f83612c74565b6138646129b2565b600954146138785761333f600a6022612723565b613880615631565b6138886120d1565b602083018190528282600381111561389c57fe5b60038111156138a757fe5b90525060009050815160038111156138bb57fe5b146138d7576133ef60096021836000015160038111156118bf57fe5b6138e1878661529f565b60a0820181905260408051602080820190925290830151815261390491906154e9565b604083018190528282600381111561391857fe5b600381111561392357fe5b905250600090508151600381111561393757fe5b14613989576040805162461bcd60e51b815260206004820181905260248201527f4d494e545f45584348414e47455f43414c43554c4154494f4e5f4641494c4544604482015290519081900360640190fd5b613999600d548260400151612cda565b60608301819052828260038111156139ad57fe5b60038111156139b857fe5b90525060009050815160038111156139cc57fe5b14613a085760405162461bcd60e51b81526004018080602001828103825260288152602001806158c76028913960400191505060405180910390fd5b6001600160a01b0386166000908152600e6020526040908190205490820151613a319190612cda565b6080830181905282826003811115613a4557fe5b6003811115613a5057fe5b9052506000905081516003811115613a6457fe5b14613aa05760405162461bcd60e51b815260040180806020018281038252602b815260200180615772602b913960400191505060405180910390fd5b606080820151600d556080808301516001600160a01b03808a166000818152600e60209081526040918290209490945560a0870151818801518251948f16855294840192909252828101919091529381019190915291517f297989b84a5f5b82d2ee0c266504c19bd9b10b410f187dc72ca4b0f0faecb3459281900390910190a1604080820151815190815290516001600160a01b03881691309160008051602061580e8339815191529181900360200190a360055460a082015160408084015181516341c728b960e01b81523060048201526001600160a01b038b8116602483015260448201949094526064810191909152905191909216916341c728b991608480830192600092919082900301818387803b158015613bc057600080fd5b505af1158015613bd4573d6000803e3d6000fd5b5060009250613be1915050565b8160a00151935093505050935093915050565b51670de0b6b3a7640000900490565b600080600080613c116129b2565b60095414613c3057613c25600a604f612723565b935091506129ad9050565b613c3a338661529f565b905080600c54019150600c54821015613c9a576040805162461bcd60e51b815260206004820181905260248201527f61646420726573657276657320756e6578706563746564206f766572666c6f77604482015290519081900360640190fd5b600c829055604080513381526020810183905280820184905290517fa91e67c5ea634cd43a12c5a482724b03de01e85ca68702a53d0c2f45cb7c1dc59181900360600190a160009350915050915091565b6011546040805163a9059cbb60e01b81526001600160a01b0385811660048301526024820185905291519190921691829163a9059cbb9160448082019260009290919082900301818387803b158015613d4357600080fd5b505af1158015613d57573d6000803e3d6000fd5b5050505060003d60008114613d735760208114613d7d57600080fd5b6000199150613d89565b60206000803e60005191505b5080613ddc576040805162461bcd60e51b815260206004820152601960248201527f544f4b454e5f5452414e534645525f4f55545f4641494c454400000000000000604482015290519081900360640190fd5b50505050565b6000821580613def575081155b613e2a5760405162461bcd60e51b81526004018080602001828103825260348152602001806158ef6034913960400191505060405180910390fd5b613e32615631565b613e3a6120d1565b6020830181905282826003811115613e4e57fe5b6003811115613e5957fe5b9052506000905081516003811115613e6d57fe5b14613e9157613e896009602b836000015160038111156118bf57fe5b91505061121c565b8315613f0d57604080820185905280516020808201909252908201518152613eb990856125bb565b6060830181905282826003811115613ecd57fe5b6003811115613ed857fe5b9052506000905081516003811115613eec57fe5b14613f0857613e8960096029836000015160038111156118bf57fe5b613f80565b613f2983604051806020016040528084602001518152506154e9565b6040830181905282826003811115613f3d57fe5b6003811115613f4857fe5b9052506000905081516003811115613f5c57fe5b14613f7857613e896009602a836000015160038111156118bf57fe5b606081018390525b600554604080830151815163eabe7d9160e01b81523060048201526001600160a01b03898116602483015260448201929092529151600093919091169163eabe7d9191606480830192602092919082900301818787803b158015613fe357600080fd5b505af1158015613ff7573d6000803e3d6000fd5b505050506040513d602081101561400d57600080fd5b50519050801561402d576140246003602883612c74565b9250505061121c565b6140356129b2565b6009541461404957614024600a602c612723565b614059600d548360400151612be9565b608084018190528382600381111561406d57fe5b600381111561407857fe5b905250600090508251600381111561408c57fe5b146140a8576140246009602e846000015160038111156118bf57fe5b6001600160a01b0386166000908152600e60205260409081902054908301516140d19190612be9565b60a08401819052838260038111156140e557fe5b60038111156140f057fe5b905250600090508251600381111561410457fe5b14614120576140246009602d846000015160038111156118bf57fe5b816060015161412d61260f565b101561413f57614024600e602f612723565b600080600560009054906101000a90046001600160a01b03166001600160a01b03166304ef9d586040518163ffffffff1660e01b815260040160206040518083038186803b15801561419057600080fd5b505afa1580156141a4573d6000803e3d6000fd5b505050506040513d60208110156141ba57600080fd5b50511561441457606084015160055460408051629df3ab60e31b8152905161423d93926001600160a01b0316916304ef9d58916004808301926020929190829003018186803b15801561420c57600080fd5b505afa158015614220573d6000803e3d6000fd5b505050506040513d602081101561423657600080fd5b505161455d565b9250828582600381111561424d57fe5b600381111561425857fe5b905250600090508451600381111561426c57fe5b146142935761428860096056866000015160038111156118bf57fe5b94505050505061121c565b6142a582670de0b6b3a764000061459c565b925082858260038111156142b557fe5b60038111156142c057fe5b90525060009050845160038111156142d457fe5b146142f05761428860096056866000015160038111156118bf57fe5b6142fe846060015183612be9565b9150818582600381111561430e57fe5b600381111561431957fe5b905250600090508451600381111561432d57fe5b146143495761428860096056866000015160038111156118bf57fe5b6005546040805163c5f956af60e01b815290516143c1926001600160a01b03169163c5f956af916004808301926020929190829003018186803b15801561438f57600080fd5b505afa1580156143a3573d6000803e3d6000fd5b505050506040513d60208110156143b957600080fd5b505183613ceb565b60408085015181516001600160a01b038b168152602081018590528083019190915290517fccf8e53b86a99b7e9ecf796342c165764d66154780f638c08e6241d711fba6d49181900360600190a161441b565b5060608301515b6144258882613ceb565b6080840151600d5560a08401516001600160a01b0389166000818152600e6020908152604091829020939093558087015181519081529051309360008051602061580e833981519152928290030190a360408085015181516001600160a01b038b168152602081018490528083019190915290517fe5b754fb1abb7f01b499791d0b820ae3b6af3424ac1c59768edb53f4ec31a9299181900360600190a1600554606085015160408087015181516351dff98960e01b81523060048201526001600160a01b038d8116602483015260448201949094526064810191909152905191909216916351dff98991608480830192600092919082900301818387803b15801561453057600080fd5b505af1158015614544573d6000803e3d6000fd5b5060009250614551915050565b98975050505050505050565b6000808361457057506000905080612608565b8383028385828161457d57fe5b041461459157506002915060009050612608565b600092509050612608565b600080826145b05750600190506000612608565b60008385816145bb57fe5b04915091509250929050565b60055460408051634ef4c3e160e01b81523060048201526001600160a01b03858116602483015260448201859052915160009384938493911691634ef4c3e19160648082019260209290919082900301818787803b15801561462857600080fd5b505af115801561463c573d6000803e3d6000fd5b505050506040513d602081101561465257600080fd5b505190508015614676576146696003601f83612c74565b9250600091506126089050565b61467e6129b2565b6009541461469257614669600a6022612723565b61469a615631565b6146a26120d1565b60208301819052828260038111156146b657fe5b60038111156146c157fe5b90525060009050815160038111156146d557fe5b146146ff576146f160096021836000015160038111156118bf57fe5b935060009250612608915050565b614709868661529f565b60a0820181905260408051602080820190925290830151815261472c91906154e9565b604083018190528282600381111561474057fe5b600381111561474b57fe5b905250600090508151600381111561475f57fe5b146147b1576040805162461bcd60e51b815260206004820181905260248201527f4d494e545f45584348414e47455f43414c43554c4154494f4e5f4641494c4544604482015290519081900360640190fd5b6147c1600d548260400151612cda565b60608301819052828260038111156147d557fe5b60038111156147e057fe5b90525060009050815160038111156147f457fe5b146148305760405162461bcd60e51b81526004018080602001828103825260288152602001806158c76028913960400191505060405180910390fd5b6001600160a01b0386166000908152600e60205260409081902054908201516148599190612cda565b608083018190528282600381111561486d57fe5b600381111561487857fe5b905250600090508151600381111561488c57fe5b146148c85760405162461bcd60e51b815260040180806020018281038252602b815260200180615772602b913960400191505060405180910390fd5b606080820151600d5560808201516001600160a01b0388166000818152600e60209081526040918290209390935560a0850151818601518251938452938301528181019290925290517f4c209b5fc8ad50758f13e2e1088ba56a560dff690a1c6fef26394f4c03821c4f929181900390910190a1604080820151815190815290516001600160a01b03881691309160008051602061580e8339815191529181900360200190a360055460a082015160408084015181516341c728b960e01b81523060048201526001600160a01b038b8116602483015260448201949094526064810191909152905191909216916341c728b991608480830192600092919082900301818387803b1580156149db57600080fd5b505af11580156149ef573d6000803e3d6000fd5b50600092506149fc915050565b8160a001519350935050509250929050565b6005546040805163368f515360e21b81523060048201526001600160a01b0385811660248301526044820185905291516000938493169163da3d454c91606480830192602092919082900301818787803b158015614a6b57600080fd5b505af1158015614a7f573d6000803e3d6000fd5b505050506040513d6020811015614a9557600080fd5b505190508015614ab457614aac6003600e83612c74565b915050610d12565b614abc6129b2565b60095414614acf57614aac600a80612723565b82614ad861260f565b1015614aea57614aac600e6009612723565b614af2615668565b614afb856128fe565b6020830181905282826003811115614b0f57fe5b6003811115614b1a57fe5b9052506000905081516003811115614b2e57fe5b14614b5357614b4a60096007836000015160038111156118bf57fe5b92505050610d12565b614b61816020015185612cda565b6040830181905282826003811115614b7557fe5b6003811115614b8057fe5b9052506000905081516003811115614b9457fe5b14614bb057614b4a6009600c836000015160038111156118bf57fe5b614bbc600b5485612cda565b6060830181905282826003811115614bd057fe5b6003811115614bdb57fe5b9052506000905081516003811115614bef57fe5b14614c0b57614b4a6009600b836000015160038111156118bf57fe5b614c158585613ceb565b604080820180516001600160a01b03881660008181526010602090815290859020928355600a54600190930192909255606080860151600b81905593518551928352928201899052818501929092529081019190915290517f13ed6866d4e1ee6da46f845c46d7e54120883d75c5ea9a2dacc1c4ca8984ab809181900360800190a160055460408051635c77860560e01b81523060048201526001600160a01b0388811660248301526044820188905291519190921691635c77860591606480830192600092919082900301818387803b158015614cf257600080fd5b505af1158015614d06573d6000803e3d6000fd5b5060009250614d13915050565b95945050505050565b60055460408051632fe3f38f60e11b81523060048201526001600160a01b0384811660248301528781166044830152868116606483015260848201869052915160009384938493911691635fc7e71e9160a48082019260209290919082900301818787803b158015614d8d57600080fd5b505af1158015614da1573d6000803e3d6000fd5b505050506040513d6020811015614db757600080fd5b505190508015614ddb57614dce6003601283612c74565b9250600091506152969050565b614de36129b2565b60095414614df757614dce600a6016612723565b614dff6129b2565b846001600160a01b0316636c540baf6040518163ffffffff1660e01b815260040160206040518083038186803b158015614e3857600080fd5b505afa158015614e4c573d6000803e3d6000fd5b505050506040513d6020811015614e6257600080fd5b505114614e7557614dce600a6011612723565b866001600160a01b0316866001600160a01b03161415614e9b57614dce60066017612723565b84614eac57614dce60076015612723565b600019851415614ec257614dce60076014612723565b600080614ed0898989613295565b90925090508115614f0057614ef1826011811115614eea57fe5b6018612723565b94506000935061529692505050565b6005546040805163c488847b60e01b81523060048201526001600160a01b038981166024830152604482018590528251600094859492169263c488847b926064808301939192829003018186803b158015614f5a57600080fd5b505afa158015614f6e573d6000803e3d6000fd5b505050506040513d6040811015614f8457600080fd5b50805160209091015190925090508115614fcf5760405162461bcd60e51b815260040180806020018281038252603381526020018061585f6033913960400191505060405180910390fd5b80886001600160a01b03166370a082318c6040518263ffffffff1660e01b815260040180826001600160a01b03166001600160a01b0316815260200191505060206040518083038186803b15801561502657600080fd5b505afa15801561503a573d6000803e3d6000fd5b505050506040513d602081101561505057600080fd5b505110156150a5576040805162461bcd60e51b815260206004820152601860248201527f4c49515549444154455f5345495a455f544f4f5f4d5543480000000000000000604482015290519081900360640190fd5b60006001600160a01b0389163014156150cb576150c4308d8d85612d5c565b9050615155565b6040805163b2a02ff160e01b81526001600160a01b038e811660048301528d81166024830152604482018590529151918b169163b2a02ff1916064808201926020929091908290030181600087803b15801561512657600080fd5b505af115801561513a573d6000803e3d6000fd5b505050506040513d602081101561515057600080fd5b505190505b801561519f576040805162461bcd60e51b81526020600482015260146024820152731d1bdad95b881cd95a5e9d5c994819985a5b195960621b604482015290519081900360640190fd5b604080516001600160a01b03808f168252808e1660208301528183018790528b1660608201526080810184905290517f298637f684da70674f26509b10f07ec2fbc77a335ab1e7d6215a4b2484d8bb529181900360a00190a1600554604080516347ef3b3b60e01b81523060048201526001600160a01b038c811660248301528f811660448301528e811660648301526084820188905260a48201869052915191909216916347ef3b3b9160c480830192600092919082900301818387803b15801561526a57600080fd5b505af115801561527e573d6000803e3d6000fd5b506000925061528b915050565b975092955050505050505b94509492505050565b601154604080516370a0823160e01b815230600482015290516000926001600160a01b031691839183916370a08231916024808301926020929190829003018186803b1580156152ee57600080fd5b505afa158015615302573d6000803e3d6000fd5b505050506040513d602081101561531857600080fd5b5051604080516323b872dd60e01b81526001600160a01b038881166004830152306024830152604482018890529151929350908416916323b872dd9160648082019260009290919082900301818387803b15801561537557600080fd5b505af1158015615389573d6000803e3d6000fd5b5050505060003d600081146153a557602081146153af57600080fd5b60001991506153bb565b60206000803e60005191505b508061540e576040805162461bcd60e51b815260206004820152601860248201527f544f4b454e5f5452414e534645525f494e5f4641494c45440000000000000000604482015290519081900360640190fd5b601154604080516370a0823160e01b815230600482015290516000926001600160a01b0316916370a08231916024808301926020929190829003018186803b15801561545957600080fd5b505afa15801561546d573d6000803e3d6000fd5b505050506040513d602081101561548357600080fd5b50519050828110156154dc576040805162461bcd60e51b815260206004820152601a60248201527f544f4b454e5f5452414e534645525f494e5f4f564552464c4f57000000000000604482015290519081900360640190fd5b9190910395945050505050565b60008060006154f661555a565b6125d28686600061550561555a565b60008061551a670de0b6b3a76400008761455d565b9092509050600082600381111561552d57fe5b1461554c57506040805160208101909152600081529092509050612608565b6126018186600001516136b8565b6040518060200160405280600081525090565b828054600181600116156101000203166002900490600052602060002090601f016020900481019282601f106155ae57805160ff19168380011785556155db565b828001600101855582156155db579182015b828111156155db5782518255916020019190600101906155c0565b506155e7929150615691565b5090565b6040805161010081019091528060008152602001600081526020016000815260200160008152602001600081526020016000815260200160008152602001600081525090565b6040805160c08101909152806000815260200160008152602001600081526020016000815260200160008152602001600081525090565b604080516080810190915280600081526020016000815260200160008152602001600081525090565b610eaa91905b808211156155e7576000815560010161569756fe6f6e6c792061646d696e206d617920696e697469616c697a6520746865206d61726b65746d61726b6574206d6179206f6e6c7920626520696e697469616c697a6564206f6e6365696e697469616c2065786368616e67652072617465206d7573742062652067726561746572207468616e207a65726f2e73657474696e6720696e7465726573742072617465206d6f64656c206661696c65646f6e6c79207468652061646d696e206d61792063616c6c205f72657369676e496d706c656d656e746174696f6e4d494e545f4e45575f4143434f554e545f42414c414e43455f43414c43554c4154494f4e5f4641494c4544626f72726f7742616c616e636553746f7265643a20626f72726f7742616c616e636553746f726564496e7465726e616c206661696c656452455041595f424f52524f575f4e45575f4143434f554e545f424f52524f575f42414c414e43455f43414c43554c4154494f4e5f4641494c4544ddf252ad1be2c89b69c2b068fc378daa952ba7f163c4a11628f55a4df523b3ef52455041595f424f52524f575f4e45575f544f54414c5f42414c414e43455f43414c43554c4154494f4e5f4641494c45444c49515549444154455f434f4d5054524f4c4c45525f43414c43554c4154455f414d4f554e545f5345495a455f4641494c454465786368616e67655261746553746f7265643a2065786368616e67655261746553746f726564496e7465726e616c206661696c65644d494e545f4e45575f544f54414c5f535550504c595f43414c43554c4154494f4e5f4641494c45446f6e65206f662072656465656d546f6b656e73496e206f722072656465656d416d6f756e74496e206d757374206265207a65726f6f6e6c79207468652061646d696e206d61792063616c6c205f6265636f6d65496d706c656d656e746174696f6ea265627a7a723158204e0913f9e546ee84f691fdf7d77f4d15f8de700fc4efa8e45e34581cdb84613164736f6c63430005100032",
  "linkReferences": {},
  "deployedLinkReferences": {}
}