{
  "_format": "hh-sol-artifact-1",
  "contractName": "VBep20Scenario",
  "sourceName": "contracts/test/VBep20Harness.sol",
  "abi": [
    {
      "inputs": [
        {
          "internalType": "address",
          "name": "underlying_",
          "type": "address"
        },
        {
          "internalType": "contract ComptrollerInterface",
          "name": "comptroller_",
          "type": "address"
        },
        {
          "internalType": "contract InterestRateModel",
          "name": "interestRateModel_",
          "type": "address"
        },
        {
          "internalType": "uint256",
          "name": "initialExchangeRateMantissa_",
          "type": "uint256"
        },
        {
          "internalType": "string",
          "name": "name_",
          "type": "string"
        },
        {
          "internalType": "string",
          "name": "symbol_",
          "type": "string"
        },
        {
          "internalType": "uint8",
          "name": "decimals_",
          "type": "uint8"
        },
        {
          "internalType": "address payable",
          "name": "admin_",
          "type": "address"
        }
      ],
      "payable": false,
      "stateMutability": "nonpayable",
      "type": "constructor"
    },
    {
      "anonymous": false,
      "inputs": [
        {
          "indexed": false,
          "internalType": "uint256",
          "name": "cashPrior",
          "type": "uint256"
        },
        {
          "indexed": false,
          "internalType": "uint256",
          "name": "interestAccumulated",
          "type": "uint256"
        },
        {
          "indexed": false,
          "internalType": "uint256",
          "name": "borrowIndex",
          "type": "uint256"
        },
        {
          "indexed": false,
          "internalType": "uint256",
          "name": "totalBorrows",
          "type": "uint256"
        }
      ],
      "name": "AccrueInterest",
      "type": "event"
    },
    {
      "anonymous": false,
      "inputs": [
        {
          "indexed": true,
          "internalType": "address",
          "name": "owner",
          "type": "address"
        },
        {
          "indexed": true,
          "internalType": "address",
          "name": "spender",
          "type": "address"
        },
        {
          "indexed": false,
          "internalType": "uint256",
          "name": "amount",
          "type": "uint256"
        }
      ],
      "name": "Approval",
      "type": "event"
    },
    {
      "anonymous": false,
      "inputs": [
        {
          "indexed": false,
          "internalType": "address",
          "name": "borrower",
          "type": "address"
        },
        {
          "indexed": false,
          "internalType": "uint256",
          "name": "borrowAmount",
          "type": "uint256"
        },
        {
          "indexed": false,
          "internalType": "uint256",
          "name": "accountBorrows",
          "type": "uint256"
        },
        {
          "indexed": false,
          "internalType": "uint256",
          "name": "totalBorrows",
          "type": "uint256"
        }
      ],
      "name": "Borrow",
      "type": "event"
    },
    {
      "anonymous": false,
      "inputs": [
        {
          "indexed": false,
          "internalType": "uint256",
          "name": "error",
          "type": "uint256"
        },
        {
          "indexed": false,
          "internalType": "uint256",
          "name": "info",
          "type": "uint256"
        },
        {
          "indexed": false,
          "internalType": "uint256",
          "name": "detail",
          "type": "uint256"
        }
      ],
      "name": "Failure",
      "type": "event"
    },
    {
      "anonymous": false,
      "inputs": [
        {
          "indexed": false,
          "internalType": "address",
          "name": "liquidator",
          "type": "address"
        },
        {
          "indexed": false,
          "internalType": "address",
          "name": "borrower",
          "type": "address"
        },
        {
          "indexed": false,
          "internalType": "uint256",
          "name": "repayAmount",
          "type": "uint256"
        },
        {
          "indexed": false,
          "internalType": "address",
          "name": "vTokenCollateral",
          "type": "address"
        },
        {
          "indexed": false,
          "internalType": "uint256",
          "name": "seizeTokens",
          "type": "uint256"
        }
      ],
      "name": "LiquidateBorrow",
      "type": "event"
    },
    {
      "anonymous": false,
      "inputs": [
        {
          "indexed": false,
          "internalType": "address",
          "name": "minter",
          "type": "address"
        },
        {
          "indexed": false,
          "internalType": "uint256",
          "name": "mintAmount",
          "type": "uint256"
        },
        {
          "indexed": false,
          "internalType": "uint256",
          "name": "mintTokens",
          "type": "uint256"
        }
      ],
      "name": "Mint",
      "type": "event"
    },
    {
      "anonymous": false,
      "inputs": [
        {
          "indexed": false,
          "internalType": "address",
          "name": "payer",
          "type": "address"
        },
        {
          "indexed": false,
          "internalType": "address",
          "name": "receiver",
          "type": "address"
        },
        {
          "indexed": false,
          "internalType": "uint256",
          "name": "mintAmount",
          "type": "uint256"
        },
        {
          "indexed": false,
          "internalType": "uint256",
          "name": "mintTokens",
          "type": "uint256"
        }
      ],
      "name": "MintBehalf",
      "type": "event"
    },
    {
      "anonymous": false,
      "inputs": [
        {
          "indexed": false,
          "internalType": "address",
          "name": "oldAdmin",
          "type": "address"
        },
        {
          "indexed": false,
          "internalType": "address",
          "name": "newAdmin",
          "type": "address"
        }
      ],
      "name": "NewAdmin",
      "type": "event"
    },
    {
      "anonymous": false,
      "inputs": [
        {
          "indexed": false,
          "internalType": "contract ComptrollerInterface",
          "name": "oldComptroller",
          "type": "address"
        },
        {
          "indexed": false,
          "internalType": "contract ComptrollerInterface",
          "name": "newComptroller",
          "type": "address"
        }
      ],
      "name": "NewComptroller",
      "type": "event"
    },
    {
      "anonymous": false,
      "inputs": [
        {
          "indexed": false,
          "internalType": "contract InterestRateModel",
          "name": "oldInterestRateModel",
          "type": "address"
        },
        {
          "indexed": false,
          "internalType": "contract InterestRateModel",
          "name": "newInterestRateModel",
          "type": "address"
        }
      ],
      "name": "NewMarketInterestRateModel",
      "type": "event"
    },
    {
      "anonymous": false,
      "inputs": [
        {
          "indexed": false,
          "internalType": "address",
          "name": "oldPendingAdmin",
          "type": "address"
        },
        {
          "indexed": false,
          "internalType": "address",
          "name": "newPendingAdmin",
          "type": "address"
        }
      ],
      "name": "NewPendingAdmin",
      "type": "event"
    },
    {
      "anonymous": false,
      "inputs": [
        {
          "indexed": false,
          "internalType": "uint256",
          "name": "oldReserveFactorMantissa",
          "type": "uint256"
        },
        {
          "indexed": false,
          "internalType": "uint256",
          "name": "newReserveFactorMantissa",
          "type": "uint256"
        }
      ],
      "name": "NewReserveFactor",
      "type": "event"
    },
    {
      "anonymous": false,
      "inputs": [
        {
          "indexed": false,
          "internalType": "address",
          "name": "redeemer",
          "type": "address"
        },
        {
          "indexed": false,
          "internalType": "uint256",
          "name": "redeemAmount",
          "type": "uint256"
        },
        {
          "indexed": false,
          "internalType": "uint256",
          "name": "redeemTokens",
          "type": "uint256"
        }
      ],
      "name": "Redeem",
      "type": "event"
    },
    {
      "anonymous": false,
      "inputs": [
        {
          "indexed": false,
          "internalType": "address",
          "name": "redeemer",
          "type": "address"
        },
        {
          "indexed": false,
          "internalType": "uint256",
          "name": "feeAmount",
          "type": "uint256"
        },
        {
          "indexed": false,
          "internalType": "uint256",
          "name": "redeemTokens",
          "type": "uint256"
        }
      ],
      "name": "RedeemFee",
      "type": "event"
    },
    {
      "anonymous": false,
      "inputs": [
        {
          "indexed": false,
          "internalType": "address",
          "name": "payer",
          "type": "address"
        },
        {
          "indexed": false,
          "internalType": "address",
          "name": "borrower",
          "type": "address"
        },
        {
          "indexed": false,
          "internalType": "uint256",
          "name": "repayAmount",
          "type": "uint256"
        },
        {
          "indexed": false,
          "internalType": "uint256",
          "name": "accountBorrows",
          "type": "uint256"
        },
        {
          "indexed": false,
          "internalType": "uint256",
          "name": "totalBorrows",
          "type": "uint256"
        }
      ],
      "name": "RepayBorrow",
      "type": "event"
    },
    {
      "anonymous": false,
      "inputs": [
        {
          "indexed": false,
          "internalType": "address",
          "name": "benefactor",
          "type": "address"
        },
        {
          "indexed": false,
          "internalType": "uint256",
          "name": "addAmount",
          "type": "uint256"
        },
        {
          "indexed": false,
          "internalType": "uint256",
          "name": "newTotalReserves",
          "type": "uint256"
        }
      ],
      "name": "ReservesAdded",
      "type": "event"
    },
    {
      "anonymous": false,
      "inputs": [
        {
          "indexed": false,
          "internalType": "address",
          "name": "admin",
          "type": "address"
        },
        {
          "indexed": false,
          "internalType": "uint256",
          "name": "reduceAmount",
          "type": "uint256"
        },
        {
          "indexed": false,
          "internalType": "uint256",
          "name": "newTotalReserves",
          "type": "uint256"
        }
      ],
      "name": "ReservesReduced",
      "type": "event"
    },
    {
      "anonymous": false,
      "inputs": [
        {
          "indexed": true,
          "internalType": "address",
          "name": "from",
          "type": "address"
        },
        {
          "indexed": true,
          "internalType": "address",
          "name": "to",
          "type": "address"
        },
        {
          "indexed": false,
          "internalType": "uint256",
          "name": "amount",
          "type": "uint256"
        }
      ],
      "name": "Transfer",
      "type": "event"
    },
    {
      "constant": false,
      "inputs": [],
      "name": "_acceptAdmin",
      "outputs": [
        {
          "internalType": "uint256",
          "name": "",
          "type": "uint256"
        }
      ],
      "payable": false,
      "stateMutability": "nonpayable",
      "type": "function"
    },
    {
      "constant": false,
      "inputs": [
        {
          "internalType": "uint256",
          "name": "addAmount",
          "type": "uint256"
        }
      ],
      "name": "_addReserves",
      "outputs": [
        {
          "internalType": "uint256",
          "name": "",
          "type": "uint256"
        }
      ],
      "payable": false,
      "stateMutability": "nonpayable",
      "type": "function"
    },
    {
      "constant": false,
      "inputs": [
        {
          "internalType": "uint256",
          "name": "reduceAmount",
          "type": "uint256"
        }
      ],
      "name": "_reduceReserves",
      "outputs": [
        {
          "internalType": "uint256",
          "name": "",
          "type": "uint256"
        }
      ],
      "payable": false,
      "stateMutability": "nonpayable",
      "type": "function"
    },
    {
      "constant": false,
      "inputs": [
        {
          "internalType": "contract ComptrollerInterface",
          "name": "newComptroller",
          "type": "address"
        }
      ],
      "name": "_setComptroller",
      "outputs": [
        {
          "internalType": "uint256",
          "name": "",
          "type": "uint256"
        }
      ],
      "payable": false,
      "stateMutability": "nonpayable",
      "type": "function"
    },
    {
      "constant": false,
      "inputs": [
        {
          "internalType": "contract InterestRateModel",
          "name": "newInterestRateModel",
          "type": "address"
        }
      ],
      "name": "_setInterestRateModel",
      "outputs": [
        {
          "internalType": "uint256",
          "name": "",
          "type": "uint256"
        }
      ],
      "payable": false,
      "stateMutability": "nonpayable",
      "type": "function"
    },
    {
      "constant": false,
      "inputs": [
        {
          "internalType": "address payable",
          "name": "newPendingAdmin",
          "type": "address"
        }
      ],
      "name": "_setPendingAdmin",
      "outputs": [
        {
          "internalType": "uint256",
          "name": "",
          "type": "uint256"
        }
      ],
      "payable": false,
      "stateMutability": "nonpayable",
      "type": "function"
    },
    {
      "constant": false,
      "inputs": [
        {
          "internalType": "uint256",
          "name": "newReserveFactorMantissa",
          "type": "uint256"
        }
      ],
      "name": "_setReserveFactor",
      "outputs": [
        {
          "internalType": "uint256",
          "name": "",
          "type": "uint256"
        }
      ],
      "payable": false,
      "stateMutability": "nonpayable",
      "type": "function"
    },
    {
      "constant": true,
      "inputs": [],
      "name": "accrualBlockNumber",
      "outputs": [
        {
          "internalType": "uint256",
          "name": "",
          "type": "uint256"
        }
      ],
      "payable": false,
      "stateMutability": "view",
      "type": "function"
    },
    {
      "constant": false,
      "inputs": [],
      "name": "accrueInterest",
      "outputs": [
        {
          "internalType": "uint256",
          "name": "",
          "type": "uint256"
        }
      ],
      "payable": false,
      "stateMutability": "nonpayable",
      "type": "function"
    },
    {
      "constant": true,
      "inputs": [],
      "name": "admin",
      "outputs": [
        {
          "internalType": "address payable",
          "name": "",
          "type": "address"
        }
      ],
      "payable": false,
      "stateMutability": "view",
      "type": "function"
    },
    {
      "constant": true,
      "inputs": [
        {
          "internalType": "address",
          "name": "owner",
          "type": "address"
        },
        {
          "internalType": "address",
          "name": "spender",
          "type": "address"
        }
      ],
      "name": "allowance",
      "outputs": [
        {
          "internalType": "uint256",
          "name": "",
          "type": "uint256"
        }
      ],
      "payable": false,
      "stateMutability": "view",
      "type": "function"
    },
    {
      "constant": false,
      "inputs": [
        {
          "internalType": "address",
          "name": "spender",
          "type": "address"
        },
        {
          "internalType": "uint256",
          "name": "amount",
          "type": "uint256"
        }
      ],
      "name": "approve",
      "outputs": [
        {
          "internalType": "bool",
          "name": "",
          "type": "bool"
        }
      ],
      "payable": false,
      "stateMutability": "nonpayable",
      "type": "function"
    },
    {
      "constant": true,
      "inputs": [
        {
          "internalType": "address",
          "name": "owner",
          "type": "address"
        }
      ],
      "name": "balanceOf",
      "outputs": [
        {
          "internalType": "uint256",
          "name": "",
          "type": "uint256"
        }
      ],
      "payable": false,
      "stateMutability": "view",
      "type": "function"
    },
    {
      "constant": false,
      "inputs": [
        {
          "internalType": "address",
          "name": "owner",
          "type": "address"
        }
      ],
      "name": "balanceOfUnderlying",
      "outputs": [
        {
          "internalType": "uint256",
          "name": "",
          "type": "uint256"
        }
      ],
      "payable": false,
      "stateMutability": "nonpayable",
      "type": "function"
    },
    {
      "constant": false,
      "inputs": [
        {
          "internalType": "uint256",
          "name": "borrowAmount",
          "type": "uint256"
        }
      ],
      "name": "borrow",
      "outputs": [
        {
          "internalType": "uint256",
          "name": "",
          "type": "uint256"
        }
      ],
      "payable": false,
      "stateMutability": "nonpayable",
      "type": "function"
    },
    {
      "constant": false,
      "inputs": [
        {
          "internalType": "address",
          "name": "account",
          "type": "address"
        }
      ],
      "name": "borrowBalanceCurrent",
      "outputs": [
        {
          "internalType": "uint256",
          "name": "",
          "type": "uint256"
        }
      ],
      "payable": false,
      "stateMutability": "nonpayable",
      "type": "function"
    },
    {
      "constant": true,
      "inputs": [
        {
          "internalType": "address",
          "name": "account",
          "type": "address"
        }
      ],
      "name": "borrowBalanceStored",
      "outputs": [
        {
          "internalType": "uint256",
          "name": "",
          "type": "uint256"
        }
      ],
      "payable": false,
      "stateMutability": "view",
      "type": "function"
    },
    {
      "constant": true,
      "inputs": [],
      "name": "borrowIndex",
      "outputs": [
        {
          "internalType": "uint256",
          "name": "",
          "type": "uint256"
        }
      ],
      "payable": false,
      "stateMutability": "view",
      "type": "function"
    },
    {
      "constant": true,
      "inputs": [],
      "name": "borrowRatePerBlock",
      "outputs": [
        {
          "internalType": "uint256",
          "name": "",
          "type": "uint256"
        }
      ],
      "payable": false,
      "stateMutability": "view",
      "type": "function"
    },
    {
      "constant": true,
      "inputs": [],
      "name": "comptroller",
      "outputs": [
        {
          "internalType": "contract ComptrollerInterface",
          "name": "",
          "type": "address"
        }
      ],
      "payable": false,
      "stateMutability": "view",
      "type": "function"
    },
    {
      "constant": true,
      "inputs": [],
      "name": "decimals",
      "outputs": [
        {
          "internalType": "uint8",
          "name": "",
          "type": "uint8"
        }
      ],
      "payable": false,
      "stateMutability": "view",
      "type": "function"
    },
    {
      "constant": false,
      "inputs": [],
      "name": "exchangeRateCurrent",
      "outputs": [
        {
          "internalType": "uint256",
          "name": "",
          "type": "uint256"
        }
      ],
      "payable": false,
      "stateMutability": "nonpayable",
      "type": "function"
    },
    {
      "constant": true,
      "inputs": [],
      "name": "exchangeRateStored",
      "outputs": [
        {
          "internalType": "uint256",
          "name": "",
          "type": "uint256"
        }
      ],
      "payable": false,
      "stateMutability": "view",
      "type": "function"
    },
    {
      "constant": true,
      "inputs": [
        {
          "internalType": "address",
          "name": "account",
          "type": "address"
        }
      ],
      "name": "getAccountSnapshot",
      "outputs": [
        {
          "internalType": "uint256",
          "name": "",
          "type": "uint256"
        },
        {
          "internalType": "uint256",
          "name": "",
          "type": "uint256"
        },
        {
          "internalType": "uint256",
          "name": "",
          "type": "uint256"
        },
        {
          "internalType": "uint256",
          "name": "",
          "type": "uint256"
        }
      ],
      "payable": false,
      "stateMutability": "view",
      "type": "function"
    },
    {
      "constant": true,
      "inputs": [],
      "name": "getCash",
      "outputs": [
        {
          "internalType": "uint256",
          "name": "",
          "type": "uint256"
        }
      ],
      "payable": false,
      "stateMutability": "view",
      "type": "function"
    },
    {
      "constant": false,
      "inputs": [
        {
          "internalType": "address",
          "name": "underlying_",
          "type": "address"
        },
        {
          "internalType": "contract ComptrollerInterface",
          "name": "comptroller_",
          "type": "address"
        },
        {
          "internalType": "contract InterestRateModel",
          "name": "interestRateModel_",
          "type": "address"
        },
        {
          "internalType": "uint256",
          "name": "initialExchangeRateMantissa_",
          "type": "uint256"
        },
        {
          "internalType": "string",
          "name": "name_",
          "type": "string"
        },
        {
          "internalType": "string",
          "name": "symbol_",
          "type": "string"
        },
        {
          "internalType": "uint8",
          "name": "decimals_",
          "type": "uint8"
        }
      ],
      "name": "initialize",
      "outputs": [],
      "payable": false,
      "stateMutability": "nonpayable",
      "type": "function"
    },
    {
      "constant": false,
      "inputs": [
        {
          "internalType": "contract ComptrollerInterface",
          "name": "comptroller_",
          "type": "address"
        },
        {
          "internalType": "contract InterestRateModel",
          "name": "interestRateModel_",
          "type": "address"
        },
        {
          "internalType": "uint256",
          "name": "initialExchangeRateMantissa_",
          "type": "uint256"
        },
        {
          "internalType": "string",
          "name": "name_",
          "type": "string"
        },
        {
          "internalType": "string",
          "name": "symbol_",
          "type": "string"
        },
        {
          "internalType": "uint8",
          "name": "decimals_",
          "type": "uint8"
        }
      ],
      "name": "initialize",
      "outputs": [],
      "payable": false,
      "stateMutability": "nonpayable",
      "type": "function"
    },
    {
      "constant": true,
      "inputs": [],
      "name": "interestRateModel",
      "outputs": [
        {
          "internalType": "contract InterestRateModel",
          "name": "",
          "type": "address"
        }
      ],
      "payable": false,
      "stateMutability": "view",
      "type": "function"
    },
    {
      "constant": true,
      "inputs": [],
      "name": "isVToken",
      "outputs": [
        {
          "internalType": "bool",
          "name": "",
          "type": "bool"
        }
      ],
      "payable": false,
      "stateMutability": "view",
      "type": "function"
    },
    {
      "constant": false,
      "inputs": [
        {
          "internalType": "address",
          "name": "borrower",
          "type": "address"
        },
        {
          "internalType": "uint256",
          "name": "repayAmount",
          "type": "uint256"
        },
        {
          "internalType": "contract VTokenInterface",
          "name": "vTokenCollateral",
          "type": "address"
        }
      ],
      "name": "liquidateBorrow",
      "outputs": [
        {
          "internalType": "uint256",
          "name": "",
          "type": "uint256"
        }
      ],
      "payable": false,
      "stateMutability": "nonpayable",
      "type": "function"
    },
    {
      "constant": false,
      "inputs": [
        {
          "internalType": "uint256",
          "name": "mintAmount",
          "type": "uint256"
        }
      ],
      "name": "mint",
      "outputs": [
        {
          "internalType": "uint256",
          "name": "",
          "type": "uint256"
        }
      ],
      "payable": false,
      "stateMutability": "nonpayable",
      "type": "function"
    },
    {
      "constant": false,
      "inputs": [
        {
          "internalType": "address",
          "name": "receiver",
          "type": "address"
        },
        {
          "internalType": "uint256",
          "name": "mintAmount",
          "type": "uint256"
        }
      ],
      "name": "mintBehalf",
      "outputs": [
        {
          "internalType": "uint256",
          "name": "",
          "type": "uint256"
        }
      ],
      "payable": false,
      "stateMutability": "nonpayable",
      "type": "function"
    },
    {
      "constant": true,
      "inputs": [],
      "name": "name",
      "outputs": [
        {
          "internalType": "string",
          "name": "",
          "type": "string"
        }
      ],
      "payable": false,
      "stateMutability": "view",
      "type": "function"
    },
    {
      "constant": true,
      "inputs": [],
      "name": "pendingAdmin",
      "outputs": [
        {
          "internalType": "address payable",
          "name": "",
          "type": "address"
        }
      ],
      "payable": false,
      "stateMutability": "view",
      "type": "function"
    },
    {
      "constant": false,
      "inputs": [
        {
          "internalType": "uint256",
          "name": "redeemTokens",
          "type": "uint256"
        }
      ],
      "name": "redeem",
      "outputs": [
        {
          "internalType": "uint256",
          "name": "",
          "type": "uint256"
        }
      ],
      "payable": false,
      "stateMutability": "nonpayable",
      "type": "function"
    },
    {
      "constant": false,
      "inputs": [
        {
          "internalType": "uint256",
          "name": "redeemAmount",
          "type": "uint256"
        }
      ],
      "name": "redeemUnderlying",
      "outputs": [
        {
          "internalType": "uint256",
          "name": "",
          "type": "uint256"
        }
      ],
      "payable": false,
      "stateMutability": "nonpayable",
      "type": "function"
    },
    {
      "constant": false,
      "inputs": [
        {
          "internalType": "uint256",
          "name": "repayAmount",
          "type": "uint256"
        }
      ],
      "name": "repayBorrow",
      "outputs": [
        {
          "internalType": "uint256",
          "name": "",
          "type": "uint256"
        }
      ],
      "payable": false,
      "stateMutability": "nonpayable",
      "type": "function"
    },
    {
      "constant": false,
      "inputs": [
        {
          "internalType": "address",
          "name": "borrower",
          "type": "address"
        },
        {
          "internalType": "uint256",
          "name": "repayAmount",
          "type": "uint256"
        }
      ],
      "name": "repayBorrowBehalf",
      "outputs": [
        {
          "internalType": "uint256",
          "name": "",
          "type": "uint256"
        }
      ],
      "payable": false,
      "stateMutability": "nonpayable",
      "type": "function"
    },
    {
      "constant": true,
      "inputs": [],
      "name": "reserveFactorMantissa",
      "outputs": [
        {
          "internalType": "uint256",
          "name": "",
          "type": "uint256"
        }
      ],
      "payable": false,
      "stateMutability": "view",
      "type": "function"
    },
    {
      "constant": false,
      "inputs": [
        {
          "internalType": "address",
          "name": "liquidator",
          "type": "address"
        },
        {
          "internalType": "address",
          "name": "borrower",
          "type": "address"
        },
        {
          "internalType": "uint256",
          "name": "seizeTokens",
          "type": "uint256"
        }
      ],
      "name": "seize",
      "outputs": [
        {
          "internalType": "uint256",
          "name": "",
          "type": "uint256"
        }
      ],
      "payable": false,
      "stateMutability": "nonpayable",
      "type": "function"
    },
    {
      "constant": false,
      "inputs": [
        {
          "internalType": "uint256",
          "name": "totalBorrows_",
          "type": "uint256"
        }
      ],
      "name": "setTotalBorrows",
      "outputs": [],
      "payable": false,
      "stateMutability": "nonpayable",
      "type": "function"
    },
    {
      "constant": false,
      "inputs": [
        {
          "internalType": "uint256",
          "name": "totalReserves_",
          "type": "uint256"
        }
      ],
      "name": "setTotalReserves",
      "outputs": [],
      "payable": false,
      "stateMutability": "nonpayable",
      "type": "function"
    },
    {
      "constant": true,
      "inputs": [],
      "name": "supplyRatePerBlock",
      "outputs": [
        {
          "internalType": "uint256",
          "name": "",
          "type": "uint256"
        }
      ],
      "payable": false,
      "stateMutability": "view",
      "type": "function"
    },
    {
      "constant": true,
      "inputs": [],
      "name": "symbol",
      "outputs": [
        {
          "internalType": "string",
          "name": "",
          "type": "string"
        }
      ],
      "payable": false,
      "stateMutability": "view",
      "type": "function"
    },
    {
      "constant": true,
      "inputs": [],
      "name": "totalBorrows",
      "outputs": [
        {
          "internalType": "uint256",
          "name": "",
          "type": "uint256"
        }
      ],
      "payable": false,
      "stateMutability": "view",
      "type": "function"
    },
    {
      "constant": false,
      "inputs": [],
      "name": "totalBorrowsCurrent",
      "outputs": [
        {
          "internalType": "uint256",
          "name": "",
          "type": "uint256"
        }
      ],
      "payable": false,
      "stateMutability": "nonpayable",
      "type": "function"
    },
    {
      "constant": true,
      "inputs": [],
      "name": "totalReserves",
      "outputs": [
        {
          "internalType": "uint256",
          "name": "",
          "type": "uint256"
        }
      ],
      "payable": false,
      "stateMutability": "view",
      "type": "function"
    },
    {
      "constant": true,
      "inputs": [],
      "name": "totalSupply",
      "outputs": [
        {
          "internalType": "uint256",
          "name": "",
          "type": "uint256"
        }
      ],
      "payable": false,
      "stateMutability": "view",
      "type": "function"
    },
    {
      "constant": false,
      "inputs": [
        {
          "internalType": "address",
          "name": "dst",
          "type": "address"
        },
        {
          "internalType": "uint256",
          "name": "amount",
          "type": "uint256"
        }
      ],
      "name": "transfer",
      "outputs": [
        {
          "internalType": "bool",
          "name": "",
          "type": "bool"
        }
      ],
      "payable": false,
      "stateMutability": "nonpayable",
      "type": "function"
    },
    {
      "constant": false,
      "inputs": [
        {
          "internalType": "address",
          "name": "src",
          "type": "address"
        },
        {
          "internalType": "address",
          "name": "dst",
          "type": "address"
        },
        {
          "internalType": "uint256",
          "name": "amount",
          "type": "uint256"
        }
      ],
      "name": "transferFrom",
      "outputs": [
        {
          "internalType": "bool",
          "name": "",
          "type": "bool"
        }
      ],
      "payable": false,
      "stateMutability": "nonpayable",
      "type": "function"
    },
    {
      "constant": true,
      "inputs": [],
      "name": "underlying",
      "outputs": [
        {
          "internalType": "address",
          "name": "",
          "type": "address"
        }
      ],
      "payable": false,
      "stateMutability": "view",
      "type": "function"
    }
  ],
  "bytecode": "0x60806040523480156200001157600080fd5b50604051620061b4380380620061b483398181016040526101008110156200003857600080fd5b81516020830151604080850151606086015160808701805193519597949692959194919392820192846401000000008211156200007457600080fd5b9083019060208201858111156200008a57600080fd5b8251640100000000811182820188101715620000a557600080fd5b82525081516020918201929091019080838360005b83811015620000d4578181015183820152602001620000ba565b50505050905090810190601f168015620001025780820380516001836020036101000a031916815260200191505b50604052602001805160405193929190846401000000008211156200012657600080fd5b9083019060208201858111156200013c57600080fd5b82516401000000008111828201881017156200015757600080fd5b82525081516020918201929091019080838360005b83811015620001865781810151838201526020016200016c565b50505050905090810190601f168015620001b45780820380516001836020036101000a031916815260200191505b506040908152602082015191015160038054610100600160a81b031916336101000217905590925090508787878787878787620001f78888888888888862000233565b600380546001600160a01b0390921661010002610100600160a81b031990921691909117905550620009969d5050505050505050505050505050565b6200024e868686868686620002e260201b6200132f1760201c565b601180546001600160a01b0319166001600160a01b038981169190911791829055604080516318160ddd60e01b8152905192909116916318160ddd91600480820192602092909190829003018186803b158015620002ab57600080fd5b505afa158015620002c0573d6000803e3d6000fd5b505050506040513d6020811015620002d757600080fd5b505050505050505050565b60035461010090046001600160a01b03163314620003325760405162461bcd60e51b81526004018080602001828103825260248152602001806200611b6024913960400191505060405180910390fd5b600954158015620003435750600a54155b620003805760405162461bcd60e51b81526004018080602001828103825260238152602001806200613f6023913960400191505060405180910390fd5b600784905583620003c35760405162461bcd60e51b8152600401808060200182810382526030815260200180620061626030913960400191505060405180910390fd5b6000620003d9876001600160e01b03620004f816565b905080156200042f576040805162461bcd60e51b815260206004820152601a60248201527f73657474696e6720636f6d7074726f6c6c6572206661696c6564000000000000604482015290519081900360640190fd5b620004426001600160e01b036200066016565b600955670de0b6b3a7640000600a5562000465866001600160e01b03620006de16565b90508015620004a65760405162461bcd60e51b8152600401808060200182810382526022815260200180620061926022913960400191505060405180910390fd5b8351620004bb906001906020870190620008f4565b508251620004d1906002906020860190620008f4565b50506003805460ff90921660ff199283161790556000805490911660011790555050505050565b60035460009061010090046001600160a01b0316331462000532576200052a6001603f6001600160e01b036200088416565b90506200065b565b60055460408051623f1ee960e11b815290516001600160a01b0392831692851691627e3dd2916004808301926020929190829003018186803b1580156200057857600080fd5b505afa1580156200058d573d6000803e3d6000fd5b505050506040513d6020811015620005a457600080fd5b5051620005f8576040805162461bcd60e51b815260206004820152601c60248201527f6d61726b6572206d6574686f642072657475726e65642066616c736500000000604482015290519081900360640190fd5b600580546001600160a01b0319166001600160a01b03858116918217909255604080519284168352602083019190915280517f7ac369dbd14fa5ea3f473ed67cc9d598964a77501540ba6751eb0b3decf5870d9281900390910190a160005b9150505b919050565b600554604080516357e871e760e01b815290516000926001600160a01b03169182916357e871e791600480820192602092909190829003018186803b158015620006a957600080fd5b505afa158015620006be573d6000803e3d6000fd5b505050506040513d6020811015620006d557600080fd5b50519150505b90565b600354600090819061010090046001600160a01b031633146200071b5762000712600160426001600160e01b036200088416565b9150506200065b565b6200072e6001600160e01b036200066016565b600954146200074e5762000712600a60416001600160e01b036200088416565b600660009054906101000a90046001600160a01b03169050826001600160a01b0316632191f92a6040518163ffffffff1660e01b815260040160206040518083038186803b158015620007a057600080fd5b505afa158015620007b5573d6000803e3d6000fd5b505050506040513d6020811015620007cc57600080fd5b505162000820576040805162461bcd60e51b815260206004820152601c60248201527f6d61726b6572206d6574686f642072657475726e65642066616c736500000000604482015290519081900360640190fd5b600680546001600160a01b0319166001600160a01b03858116918217909255604080519284168352602083019190915280517fedffc32e068c7c95dfd4bdfd5c4d939a084d6b11c4199eac8436ed234d72f9269281900390910190a1600062000657565b60007f45b96fe442630264581b197e84bbada861235052c5a1aadfff9ea4e40a969aa0836011811115620008b457fe5b836056811115620008c157fe5b604080519283526020830191909152600082820152519081900360600190a1826011811115620008ed57fe5b9392505050565b828054600181600116156101000203166002900490600052602060002090601f016020900481019282601f106200093757805160ff191683800117855562000967565b8280016001018555821562000967579182015b82811115620009675782518255916020019190600101906200094a565b506200097592915062000979565b5090565b620006db91905b8082111562000975576000815560010162000980565b61577580620009a66000396000f3fe608060405234801561001057600080fd5b50600436106102f15760003560e01c8063852a12e31161019d578063b71d1a0c116100e9578063e9c714f2116100a2578063f5e3c4621161007c578063f5e3c46214610ab6578063f851a44014610aec578063f8f9da2814610af4578063fca7820b14610afc576102f1565b8063e9c714f214610a80578063f2b3abbd14610a88578063f3fdb15a14610aae576102f1565b8063b71d1a0c1461099e578063bd6d894d146109c4578063c37f68e2146109cc578063c5ebeaec14610a18578063db006a7514610a35578063dd62ed3e14610a52576102f1565b8063a0712d6811610156578063aa5af0fd11610130578063aa5af0fd1461093b578063ae9d70b014610943578063b0e0bf2a1461094b578063b2a02ff114610968576102f1565b8063a0712d68146108ea578063a6afed9514610907578063a9059cbb1461090f576102f1565b8063852a12e31461072c5780638f840ddd1461074957806395d89b411461075157806395dd919314610759578063977e19e91461077f57806399d8c1b41461079c576102f1565b8063313ce5671161025c57806347bd3718116102155780636c540baf116101ef5780636c540baf146106ee5780636f307dc3146106f657806370a08231146106fe57806373acee9814610724576102f1565b806347bd3718146106c15780635fe3b567146106c9578063601a0bf1146106d1576102f1565b8063313ce5671461062a5780633af9e669146106485780633b1d21a21461066e5780633d9ea3a1146106765780633e9410101461067e5780634576b5db1461069b576102f1565b8063182df0f5116102ae578063182df0f5146104185780631a31d4651461042057806323323e031461057857806323b872dd146105a45780632608f818146105da5780632678224714610606576102f1565b806306fdde03146102f6578063095ea7b3146103735780630e752702146103b3578063173b9904146103e257806317bfdfbc146103ea57806318160ddd14610410575b600080fd5b6102fe610b19565b6040805160208082528351818301528351919283929083019185019080838360005b83811015610338578181015183820152602001610320565b50505050905090810190601f1680156103655780820380516001836020036101000a031916815260200191505b509250505060405180910390f35b61039f6004803603604081101561038957600080fd5b506001600160a01b038135169060200135610ba6565b604080519115158252519081900360200190f35b6103d0600480360360208110156103c957600080fd5b5035610c13565b60408051918252519081900360200190f35b6103d0610c29565b6103d06004803603602081101561040057600080fd5b50356001600160a01b0316610c2f565b6103d0610cef565b6103d0610cf5565b610576600480360360e081101561043657600080fd5b6001600160a01b03823581169260208101358216926040820135909216916060820135919081019060a081016080820135600160201b81111561047857600080fd5b82018360208201111561048a57600080fd5b803590602001918460018302840111600160201b831117156104ab57600080fd5b91908080601f0160208091040260200160405190810160405280939291908181526020018383808284376000920191909152509295949360208101935035915050600160201b8111156104fd57600080fd5b82018360208201111561050f57600080fd5b803590602001918460018302840111600160201b8311171561053057600080fd5b91908080601f0160208091040260200160405190810160405280939291908181526020018383808284376000920191909152509295505050903560ff169150610d589050565b005b6103d06004803603604081101561058e57600080fd5b506001600160a01b038135169060200135610df7565b61039f600480360360608110156105ba57600080fd5b506001600160a01b03813581169160208101359091169060400135610e0d565b6103d0600480360360408110156105f057600080fd5b506001600160a01b038135169060200135610e7f565b61060e610e8c565b604080516001600160a01b039092168252519081900360200190f35b610632610e9b565b6040805160ff9092168252519081900360200190f35b6103d06004803603602081101561065e57600080fd5b50356001600160a01b0316610ea4565b6103d0610f5a565b61039f610f69565b6103d06004803603602081101561069457600080fd5b5035610f6e565b6103d0600480360360208110156106b157600080fd5b50356001600160a01b0316610f79565b6103d06110ce565b61060e6110d4565b6103d0600480360360208110156106e757600080fd5b50356110e3565b6103d061117e565b61060e611184565b6103d06004803603602081101561071457600080fd5b50356001600160a01b0316611193565b6103d06111ae565b6103d06004803603602081101561074257600080fd5b5035611264565b6103d061126f565b6102fe611275565b6103d06004803603602081101561076f57600080fd5b50356001600160a01b03166112cd565b6105766004803603602081101561079557600080fd5b503561132a565b610576600480360360c08110156107b257600080fd5b6001600160a01b03823581169260208101359091169160408201359190810190608081016060820135600160201b8111156107ec57600080fd5b8201836020820111156107fe57600080fd5b803590602001918460018302840111600160201b8311171561081f57600080fd5b91908080601f0160208091040260200160405190810160405280939291908181526020018383808284376000920191909152509295949360208101935035915050600160201b81111561087157600080fd5b82018360208201111561088357600080fd5b803590602001918460018302840111600160201b831117156108a457600080fd5b91908080601f0160208091040260200160405190810160405280939291908181526020018383808284376000920191909152509295505050903560ff16915061132f9050565b6103d06004803603602081101561090057600080fd5b5035611516565b6103d0611522565b61039f6004803603604081101561092557600080fd5b506001600160a01b03813516906020013561187a565b6103d06118eb565b6103d06118f1565b6105766004803603602081101561096157600080fd5b5035611990565b6103d06004803603606081101561097e57600080fd5b506001600160a01b03813581169160208101359091169060400135611995565b6103d0600480360360208110156109b457600080fd5b50356001600160a01b0316611a06565b6103d0611a92565b6109f2600480360360208110156109e257600080fd5b50356001600160a01b0316611b4e565b604080519485526020850193909352838301919091526060830152519081900360800190f35b6103d060048036036020811015610a2e57600080fd5b5035611be3565b6103d060048036036020811015610a4b57600080fd5b5035611bee565b6103d060048036036040811015610a6857600080fd5b506001600160a01b0381358116916020013516611bf9565b6103d0611c24565b6103d060048036036020811015610a9e57600080fd5b50356001600160a01b0316611d1c565b61060e611d56565b6103d060048036036060811015610acc57600080fd5b506001600160a01b03813581169160208101359160409091013516611d65565b61060e611d7d565b6103d0611d91565b6103d060048036036020811015610b1257600080fd5b5035611df5565b60018054604080516020600284861615610100026000190190941693909304601f81018490048402820184019092528181529291830182828015610b9e5780601f10610b7357610100808354040283529160200191610b9e565b820191906000526020600020905b815481529060010190602001808311610b8157829003601f168201915b505050505081565b336000818152600f602090815260408083206001600160a01b03871680855290835281842086905581518681529151939493909284927f8c5be1e5ebec7d5bd14f71427d1e84f3dd0314c0f7b2291e5b200ac8c7c3b925929081900390910190a360019150505b92915050565b600080610c1f83611e73565b509150505b919050565b60085481565b6000805460ff16610c74576040805162461bcd60e51b815260206004820152600a6024820152691c994b595b9d195c995960b21b604482015290519081900360640190fd5b6000805460ff19168155610c86611522565b14610cd1576040805162461bcd60e51b81526020600482015260166024820152751858d8dc9d59481a5b9d195c995cdd0819985a5b195960521b604482015290519081900360640190fd5b610cda826112cd565b90505b6000805460ff19166001179055919050565b600d5481565b6000806000610d02611f1c565b90925090506000826003811115610d1557fe5b14610d515760405162461bcd60e51b81526004018080602001828103825260358152602001806156b06035913960400191505060405180910390fd5b9150505b90565b610d6686868686868661132f565b601180546001600160a01b0319166001600160a01b038981169190911791829055604080516318160ddd60e01b8152905192909116916318160ddd91600480820192602092909190829003018186803b158015610dc257600080fd5b505afa158015610dd6573d6000803e3d6000fd5b505050506040513d6020811015610dec57600080fd5b505050505050505050565b600080610e048484611fcb565b50949350505050565b6000805460ff16610e52576040805162461bcd60e51b815260206004820152600a6024820152691c994b595b9d195c995960b21b604482015290519081900360640190fd5b6000805460ff19168155610e6833868686612076565b1490506000805460ff191660011790559392505050565b600080610e048484612384565b6004546001600160a01b031681565b60035460ff1681565b6000610eae6153a5565b6040518060200160405280610ec1611a92565b90526001600160a01b0384166000908152600e6020526040812054919250908190610eed908490612406565b90925090506000826003811115610f0057fe5b14610f52576040805162461bcd60e51b815260206004820152601f60248201527f62616c616e636520636f756c64206e6f742062652063616c63756c6174656400604482015290519081900360640190fd5b949350505050565b6000610f6461245a565b905090565b600181565b6000610c0d826124da565b60035460009061010090046001600160a01b03163314610fa657610f9f6001603f61256e565b9050610c24565b60055460408051623f1ee960e11b815290516001600160a01b0392831692851691627e3dd2916004808301926020929190829003018186803b158015610feb57600080fd5b505afa158015610fff573d6000803e3d6000fd5b505050506040513d602081101561101557600080fd5b5051611068576040805162461bcd60e51b815260206004820152601c60248201527f6d61726b6572206d6574686f642072657475726e65642066616c736500000000604482015290519081900360640190fd5b600580546001600160a01b0319166001600160a01b03858116918217909255604080519284168352602083019190915280517f7ac369dbd14fa5ea3f473ed67cc9d598964a77501540ba6751eb0b3decf5870d9281900390910190a160005b9392505050565b600b5481565b6005546001600160a01b031681565b6000805460ff16611128576040805162461bcd60e51b815260206004820152600a6024820152691c994b595b9d195c995960b21b604482015290519081900360640190fd5b6000805460ff1916815561113a611522565b905080156111605761115881601181111561115157fe5b603061256e565b915050610cdd565b611169836125d4565b9150506000805460ff19166001179055919050565b60095481565b6011546001600160a01b031681565b6001600160a01b03166000908152600e602052604090205490565b6000805460ff166111f3576040805162461bcd60e51b815260206004820152600a6024820152691c994b595b9d195c995960b21b604482015290519081900360640190fd5b6000805460ff19168155611205611522565b14611250576040805162461bcd60e51b81526020600482015260166024820152751858d8dc9d59481a5b9d195c995cdd0819985a5b195960521b604482015290519081900360640190fd5b50600b546000805460ff1916600117905590565b6000610c0d826126c8565b600c5481565b6002805460408051602060018416156101000260001901909316849004601f81018490048402820184019092528181529291830182828015610b9e5780601f10610b7357610100808354040283529160200191610b9e565b60008060006112db84612749565b909250905060008260038111156112ee57fe5b146110c75760405162461bcd60e51b81526004018080602001828103825260378152602001806155bb6037913960400191505060405180910390fd5b600b55565b60035461010090046001600160a01b0316331461137d5760405162461bcd60e51b81526004018080602001828103825260248152602001806154f76024913960400191505060405180910390fd5b60095415801561138d5750600a54155b6113c85760405162461bcd60e51b815260040180806020018281038252602381526020018061551b6023913960400191505060405180910390fd5b6007849055836114095760405162461bcd60e51b815260040180806020018281038252603081526020018061553e6030913960400191505060405180910390fd5b600061141487610f79565b90508015611469576040805162461bcd60e51b815260206004820152601a60248201527f73657474696e6720636f6d7074726f6c6c6572206661696c6564000000000000604482015290519081900360640190fd5b6114716127fd565b600955670de0b6b3a7640000600a5561148986612845565b905080156114c85760405162461bcd60e51b815260040180806020018281038252602281526020018061556e6022913960400191505060405180910390fd5b83516114db9060019060208701906153b8565b5082516114ef9060029060208601906153b8565b50506003805460ff90921660ff199283161790556000805490911660011790555050505050565b600080610c1f836129ba565b60008061152d6127fd565b6009549091508082141561154657600092505050610d55565b600061155061245a565b600b54600c54600a54600654604080516315f2405360e01b815260048101879052602481018690526044810185905290519596509394929391926000926001600160a01b03909216916315f24053916064808301926020929190829003018186803b1580156115be57600080fd5b505afa1580156115d2573d6000803e3d6000fd5b505050506040513d60208110156115e857600080fd5b5051905065048c27395000811115611647576040805162461bcd60e51b815260206004820152601c60248201527f626f72726f772072617465206973206162737572646c79206869676800000000604482015290519081900360640190fd5b6000806116548989612a34565b9092509050600082600381111561166757fe5b146116b9576040805162461bcd60e51b815260206004820152601f60248201527f636f756c64206e6f742063616c63756c61746520626c6f636b2064656c746100604482015290519081900360640190fd5b6116c16153a5565b6000806000806116df60405180602001604052808a81525087612a57565b909750945060008760038111156116f257fe5b146117245761170f6009600689600381111561170a57fe5b612abf565b9e505050505050505050505050505050610d55565b61172e858c612406565b9097509350600087600381111561174157fe5b146117595761170f6009600189600381111561170a57fe5b611763848c612b25565b9097509250600087600381111561177657fe5b1461178e5761170f6009600489600381111561170a57fe5b6117a96040518060200160405280600854815250858c612b4b565b909750915060008760038111156117bc57fe5b146117d45761170f6009600589600381111561170a57fe5b6117df858a8b612b4b565b909750905060008760038111156117f257fe5b1461180a5761170f6009600389600381111561170a57fe5b60098e9055600a819055600b839055600c829055604080518d8152602081018690528082018390526060810185905290517f4dec04e750ca11537cabcd8a9eab06494de08da3735bc8871cd41250e190bc049181900360800190a160009e50505050505050505050505050505090565b6000805460ff166118bf576040805162461bcd60e51b815260206004820152600a6024820152691c994b595b9d195c995960b21b604482015290519081900360640190fd5b6000805460ff191681556118d533338686612076565b1490506000805460ff1916600117905592915050565b600a5481565b6006546000906001600160a01b031663b816881661190d61245a565b600b54600c546008546040518563ffffffff1660e01b81526004018085815260200184815260200183815260200182815260200194505050505060206040518083038186803b15801561195f57600080fd5b505afa158015611973573d6000803e3d6000fd5b505050506040513d602081101561198957600080fd5b5051905090565b600c55565b6000805460ff166119da576040805162461bcd60e51b815260206004820152600a6024820152691c994b595b9d195c995960b21b604482015290519081900360640190fd5b6000805460ff191690556119f033858585612ba7565b90506000805460ff191660011790559392505050565b60035460009061010090046001600160a01b03163314611a2c57610f9f6001604561256e565b600480546001600160a01b038481166001600160a01b0319831681179093556040805191909216808252602082019390935281517fca4f2f25d0898edd99413412fb94012f9e54ec8142f9b093e7720646a95b16a9929181900390910190a160006110c7565b6000805460ff16611ad7576040805162461bcd60e51b815260206004820152600a6024820152691c994b595b9d195c995960b21b604482015290519081900360640190fd5b6000805460ff19168155611ae9611522565b14611b34576040805162461bcd60e51b81526020600482015260166024820152751858d8dc9d59481a5b9d195c995cdd0819985a5b195960521b604482015290519081900360640190fd5b611b3c610cf5565b90506000805460ff1916600117905590565b6001600160a01b0381166000908152600e6020526040812054819081908190818080611b7989612749565b935090506000816003811115611b8b57fe5b14611ba95760095b975060009650869550859450611bdc9350505050565b611bb1611f1c565b925090506000816003811115611bc357fe5b14611bcf576009611b93565b5060009650919450925090505b9193509193565b6000610c0d82612e0d565b6000610c0d82612e8c565b6001600160a01b039182166000908152600f6020908152604080832093909416825291909152205490565b6004546000906001600160a01b03163314611c4c57611c456001600061256e565b9050610d55565b60038054600480546001600160a01b03818116610100818102610100600160a81b0319871617968790556001600160a01b031990931690935560408051948390048216808652929095041660208401528351909391927ff9ffabca9c8276e99321725bcb43fb076a6c66a54b7f21c4e8146d8519b417dc92908290030190a1600454604080516001600160a01b038085168252909216602083015280517fca4f2f25d0898edd99413412fb94012f9e54ec8142f9b093e7720646a95b16a99281900390910190a160009250505090565b600080611d27611522565b90508015611d4d57611d45816011811115611d3e57fe5b604061256e565b915050610c24565b6110c783612845565b6006546001600160a01b031681565b600080611d73858585612f06565b5095945050505050565b60035461010090046001600160a01b031681565b6006546000906001600160a01b03166315f24053611dad61245a565b600b54600c546040518463ffffffff1660e01b815260040180848152602001838152602001828152602001935050505060206040518083038186803b15801561195f57600080fd5b6000805460ff16611e3a576040805162461bcd60e51b815260206004820152600a6024820152691c994b595b9d195c995960b21b604482015290519081900360640190fd5b6000805460ff19168155611e4c611522565b90508015611e6a57611158816011811115611e6357fe5b604661256e565b61116983613038565b60008054819060ff16611eba576040805162461bcd60e51b815260206004820152600a6024820152691c994b595b9d195c995960b21b604482015290519081900360640190fd5b6000805460ff19168155611ecc611522565b90508015611ef757611eea816011811115611ee357fe5b603661256e565b925060009150611f089050565b611f023333866130e0565b92509250505b6000805460ff191660011790559092909150565b600d54600090819080611f3757505060075460009150611fc7565b6000611f4161245a565b90506000611f4d6153a5565b6000611f5e84600b54600c546134c5565b935090506000816003811115611f7057fe5b14611f8557955060009450611fc79350505050565b611f8f8386613503565b925090506000816003811115611fa157fe5b14611fb657955060009450611fc79350505050565b5051600095509350611fc792505050565b9091565b60008054819060ff16612012576040805162461bcd60e51b815260206004820152600a6024820152691c994b595b9d195c995960b21b604482015290519081900360640190fd5b6000805460ff19168155612024611522565b9050801561204f5761204281601181111561203b57fe5b601e61256e565b9250600091506120609050565b61205a3386866135b3565b92509250505b6000805460ff1916600117905590939092509050565b600554604080516317b9b84b60e31b81523060048201526001600160a01b03868116602483015285811660448301526064820185905291516000938493169163bdcdc25891608480830192602092919082900301818787803b1580156120db57600080fd5b505af11580156120ef573d6000803e3d6000fd5b505050506040513d602081101561210557600080fd5b5051905080156121245761211c6003604a83612abf565b915050610f52565b836001600160a01b0316856001600160a01b0316141561214a5761211c6002604b61256e565b60006001600160a01b0387811690871614156121695750600019612191565b506001600160a01b038086166000908152600f60209081526040808320938a16835292905220545b6000806000806121a18589612a34565b909450925060008460038111156121b457fe5b146121d2576121c56009604b61256e565b9650505050505050610f52565b6001600160a01b038a166000908152600e60205260409020546121f59089612a34565b9094509150600084600381111561220857fe5b14612219576121c56009604c61256e565b6001600160a01b0389166000908152600e602052604090205461223c9089612b25565b9094509050600084600381111561224f57fe5b14612260576121c56009604d61256e565b6001600160a01b03808b166000908152600e6020526040808220859055918b1681522081905560001985146122b8576001600160a01b03808b166000908152600f60209081526040808320938f168352929052208390555b886001600160a01b03168a6001600160a01b031660008051602061562c8339815191528a6040518082815260200191505060405180910390a36005546040805163352b4a3f60e11b81523060048201526001600160a01b038d811660248301528c81166044830152606482018c905291519190921691636a56947e91608480830192600092919082900301818387803b15801561235457600080fd5b505af1158015612368573d6000803e3d6000fd5b5060009250612375915050565b9b9a5050505050505050505050565b60008054819060ff166123cb576040805162461bcd60e51b815260206004820152600a6024820152691c994b595b9d195c995960b21b604482015290519081900360640190fd5b6000805460ff191681556123dd611522565b905080156123fb576120428160118111156123f457fe5b603561256e565b61205a3386866130e0565b60008060006124136153a5565b61241d8686612a57565b9092509050600082600381111561243057fe5b146124415750915060009050612453565b600061244c82613a3f565b9350935050505b9250929050565b601154604080516370a0823160e01b815230600482015290516000926001600160a01b03169182916370a0823191602480820192602092909190829003018186803b1580156124a857600080fd5b505afa1580156124bc573d6000803e3d6000fd5b505050506040513d60208110156124d257600080fd5b505191505090565b6000805460ff1661251f576040805162461bcd60e51b815260206004820152600a6024820152691c994b595b9d195c995960b21b604482015290519081900360640190fd5b6000805460ff19168155612531611522565b9050801561254f5761115881601181111561254857fe5b604e61256e565b61255883613a4e565b509150506000805460ff19166001179055919050565b60007f45b96fe442630264581b197e84bbada861235052c5a1aadfff9ea4e40a969aa083601181111561259d57fe5b8360568111156125a957fe5b604080519283526020830191909152600082820152519081900360600190a18260118111156110c757fe5b600354600090819061010090046001600160a01b031633146125fc57611d456001603161256e565b6126046127fd565b6009541461261857611d45600a603361256e565b8261262161245a565b101561263357611d45600e603261256e565b600c5483111561264957611d456002603461256e565b50600c8054839003908190556003546126709061010090046001600160a01b031684613b36565b600354604080516101009092046001600160a01b0316825260208201859052818101839052517f3bad0c59cf2f06e7314077049f48a93578cd16f5ef92329f1dab1420a99c177e916060908290030190a160006110c7565b6000805460ff1661270d576040805162461bcd60e51b815260206004820152600a6024820152691c994b595b9d195c995960b21b604482015290519081900360640190fd5b6000805460ff1916815561271f611522565b9050801561273d5761115881601181111561273657fe5b602761256e565b61116933600085613c2d565b6001600160a01b0381166000908152601060205260408120805482918291829182916127805750600094508493506127f892505050565b6127908160000154600a546143a8565b909450925060008460038111156127a357fe5b146127b85750919350600092506127f8915050565b6127c68382600101546143e7565b909450915060008460038111156127d957fe5b146127ee5750919350600092506127f8915050565b5060009450925050505b915091565b600554604080516357e871e760e01b815290516000926001600160a01b03169182916357e871e791600480820192602092909190829003018186803b1580156124a857600080fd5b600354600090819061010090046001600160a01b0316331461286d57611d456001604261256e565b6128756127fd565b6009541461288957611d45600a604161256e565b600660009054906101000a90046001600160a01b03169050826001600160a01b0316632191f92a6040518163ffffffff1660e01b815260040160206040518083038186803b1580156128da57600080fd5b505afa1580156128ee573d6000803e3d6000fd5b505050506040513d602081101561290457600080fd5b5051612957576040805162461bcd60e51b815260206004820152601c60248201527f6d61726b6572206d6574686f642072657475726e65642066616c736500000000604482015290519081900360640190fd5b600680546001600160a01b0319166001600160a01b03858116918217909255604080519284168352602083019190915280517fedffc32e068c7c95dfd4bdfd5c4d939a084d6b11c4199eac8436ed234d72f9269281900390910190a160006110c7565b60008054819060ff16612a01576040805162461bcd60e51b815260206004820152600a6024820152691c994b595b9d195c995960b21b604482015290519081900360640190fd5b6000805460ff19168155612a13611522565b90508015612a2a57611eea81601181111561203b57fe5b611f023385614412565b600080838311612a4b575060009050818303612453565b50600390506000612453565b6000612a616153a5565b600080612a728660000151866143a8565b90925090506000826003811115612a8557fe5b14612aa457506040805160208101909152600081529092509050612453565b60408051602081019091529081526000969095509350505050565b60007f45b96fe442630264581b197e84bbada861235052c5a1aadfff9ea4e40a969aa0846011811115612aee57fe5b846056811115612afa57fe5b604080519283526020830191909152818101859052519081900360600190a1836011811115610f5257fe5b600080838301848110612b3d57600092509050612453565b506002915060009050612453565b6000806000612b586153a5565b612b628787612a57565b90925090506000826003811115612b7557fe5b14612b865750915060009050612b9f565b612b98612b9282613a3f565b86612b25565b9350935050505b935093915050565b6005546040805163d02f735160e01b81523060048201526001600160a01b038781166024830152868116604483015285811660648301526084820185905291516000938493169163d02f73519160a480830192602092919082900301818787803b158015612c1457600080fd5b505af1158015612c28573d6000803e3d6000fd5b505050506040513d6020811015612c3e57600080fd5b505190508015612c555761211c6003601b83612abf565b846001600160a01b0316846001600160a01b03161415612c7b5761211c6006601c61256e565b6001600160a01b0384166000908152600e602052604081205481908190612ca29087612a34565b90935091506000836003811115612cb557fe5b14612cd857612ccd6009601a85600381111561170a57fe5b945050505050610f52565b6001600160a01b0388166000908152600e6020526040902054612cfb9087612b25565b90935090506000836003811115612d0e57fe5b14612d2657612ccd6009601985600381111561170a57fe5b6001600160a01b038088166000818152600e60209081526040808320879055938c168083529184902085905583518a81529351919360008051602061562c833981519152929081900390910190a360055460408051636d35bf9160e01b81523060048201526001600160a01b038c811660248301528b811660448301528a81166064830152608482018a905291519190921691636d35bf919160a480830192600092919082900301818387803b158015612ddf57600080fd5b505af1158015612df3573d6000803e3d6000fd5b5060009250612e00915050565b9998505050505050505050565b6000805460ff16612e52576040805162461bcd60e51b815260206004820152600a6024820152691c994b595b9d195c995960b21b604482015290519081900360640190fd5b6000805460ff19168155612e64611522565b90508015612e8257611158816011811115612e7b57fe5b600861256e565b6111693384614859565b6000805460ff16612ed1576040805162461bcd60e51b815260206004820152600a6024820152691c994b595b9d195c995960b21b604482015290519081900360640190fd5b6000805460ff19168155612ee3611522565b90508015612efa5761115881601181111561273657fe5b61116933846000613c2d565b60008054819060ff16612f4d576040805162461bcd60e51b815260206004820152600a6024820152691c994b595b9d195c995960b21b604482015290519081900360640190fd5b6000805460ff19168155612f5f611522565b90508015612f8a57612f7d816011811115612f7657fe5b600f61256e565b9250600091506130219050565b836001600160a01b031663a6afed956040518163ffffffff1660e01b8152600401602060405180830381600087803b158015612fc557600080fd5b505af1158015612fd9573d6000803e3d6000fd5b505050506040513d6020811015612fef57600080fd5b50519050801561300f57612f7d81601181111561300857fe5b601061256e565b61301b33878787614b67565b92509250505b6000805460ff191660011790559094909350915050565b60035460009061010090046001600160a01b0316331461305e57610f9f6001604761256e565b6130666127fd565b6009541461307a57610f9f600a604861256e565b670de0b6b3a764000082111561309657610f9f6002604961256e565b6008805490839055604080518281526020810185905281517faaa68312e2ea9d50e16af5068410ab56e1a1fd06037b1a35664812c30f821460929181900390910190a160006110c7565b60055460408051631200453160e11b81523060048201526001600160a01b0386811660248301528581166044830152606482018590529151600093849384939116916324008a629160848082019260209290919082900301818787803b15801561314957600080fd5b505af115801561315d573d6000803e3d6000fd5b505050506040513d602081101561317357600080fd5b5051905080156131975761318a6003603883612abf565b925060009150612b9f9050565b61319f6127fd565b600954146131b35761318a600a603961256e565b6131bb615436565b6001600160a01b03861660009081526010602052604090206001015460608201526131e586612749565b60808301819052602083018260038111156131fc57fe5b600381111561320757fe5b905250600090508160200151600381111561321e57fe5b146132485761323a600960378360200151600381111561170a57fe5b935060009250612b9f915050565b6000198514156132615760808101516040820152613269565b604081018590525b6132778782604001516150ea565b60e08201819052608082015161328c91612a34565b60a08301819052602083018260038111156132a357fe5b60038111156132ae57fe5b90525060009050816020015160038111156132c557fe5b146133015760405162461bcd60e51b815260040180806020018281038252603a8152602001806155f2603a913960400191505060405180910390fd5b613311600b548260e00151612a34565b60c083018190526020830182600381111561332857fe5b600381111561333357fe5b905250600090508160200151600381111561334a57fe5b146133865760405162461bcd60e51b815260040180806020018281038252603181526020018061564c6031913960400191505060405180910390fd5b60a080820180516001600160a01b03808a16600081815260106020908152604091829020948555600a5460019095019490945560c0870151600b81905560e088015195518251948f16855294840192909252828101949094526060820192909252608081019190915290517f1a2a22cb034d26d1854bdc6666a5b91fe25efbbb5dcad3b0355478d6f5c362a1929181900390910190a160055460e0820151606083015160408051631ededc9160e01b81523060048201526001600160a01b038c811660248301528b8116604483015260648201949094526084810192909252519190921691631ededc919160a480830192600092919082900301818387803b15801561349157600080fd5b505af11580156134a5573d6000803e3d6000fd5b50600092506134b2915050565b8160e00151935093505050935093915050565b6000806000806134d58787612b25565b909250905060008260038111156134e857fe5b146134f95750915060009050612b9f565b612b988186612a34565b600061350d6153a5565b60008061352286670de0b6b3a76400006143a8565b9092509050600082600381111561353557fe5b1461355457506040805160208101909152600081529092509050612453565b60008061356183886143e7565b9092509050600082600381111561357457fe5b1461359657506040805160208101909152600081529094509250612453915050565b604080516020810190915290815260009890975095505050505050565b6000806001600160a01b038416613607576040805162461bcd60e51b81526020600482015260136024820152721c9958d95a5d995c881a5cc81a5b9d985b1a59606a1b604482015290519081900360640190fd5b60055460408051634ef4c3e160e01b81523060048201526001600160a01b0387811660248301526044820187905291516000939290921691634ef4c3e19160648082019260209290919082900301818787803b15801561366657600080fd5b505af115801561367a573d6000803e3d6000fd5b505050506040513d602081101561369057600080fd5b5051905080156136a75761318a6003601f83612abf565b6136af6127fd565b600954146136c35761318a600a602261256e565b6136cb61547c565b6136d3611f1c565b60208301819052828260038111156136e757fe5b60038111156136f257fe5b905250600090508151600381111561370657fe5b146137225761323a600960218360000151600381111561170a57fe5b61372c87866150ea565b60a0820181905260408051602080820190925290830151815261374f9190615334565b604083018190528282600381111561376357fe5b600381111561376e57fe5b905250600090508151600381111561378257fe5b146137d4576040805162461bcd60e51b815260206004820181905260248201527f4d494e545f45584348414e47455f43414c43554c4154494f4e5f4641494c4544604482015290519081900360640190fd5b6137e4600d548260400151612b25565b60608301819052828260038111156137f857fe5b600381111561380357fe5b905250600090508151600381111561381757fe5b146138535760405162461bcd60e51b81526004018080602001828103825260288152602001806156e56028913960400191505060405180910390fd5b6001600160a01b0386166000908152600e602052604090819020549082015161387c9190612b25565b608083018190528282600381111561389057fe5b600381111561389b57fe5b90525060009050815160038111156138af57fe5b146138eb5760405162461bcd60e51b815260040180806020018281038252602b815260200180615590602b913960400191505060405180910390fd5b606080820151600d556080808301516001600160a01b03808a166000818152600e60209081526040918290209490945560a0870151818801518251948f16855294840192909252828101919091529381019190915291517f297989b84a5f5b82d2ee0c266504c19bd9b10b410f187dc72ca4b0f0faecb3459281900390910190a1604080820151815190815290516001600160a01b03881691309160008051602061562c8339815191529181900360200190a360055460a082015160408084015181516341c728b960e01b81523060048201526001600160a01b038b8116602483015260448201949094526064810191909152905191909216916341c728b991608480830192600092919082900301818387803b158015613a0b57600080fd5b505af1158015613a1f573d6000803e3d6000fd5b5060009250613a2c915050565b8160a00151935093505050935093915050565b51670de0b6b3a7640000900490565b600080600080613a5c6127fd565b60095414613a7b57613a70600a604f61256e565b935091506127f89050565b613a8533866150ea565b905080600c54019150600c54821015613ae5576040805162461bcd60e51b815260206004820181905260248201527f61646420726573657276657320756e6578706563746564206f766572666c6f77604482015290519081900360640190fd5b600c829055604080513381526020810183905280820184905290517fa91e67c5ea634cd43a12c5a482724b03de01e85ca68702a53d0c2f45cb7c1dc59181900360600190a160009350915050915091565b6011546040805163a9059cbb60e01b81526001600160a01b0385811660048301526024820185905291519190921691829163a9059cbb9160448082019260009290919082900301818387803b158015613b8e57600080fd5b505af1158015613ba2573d6000803e3d6000fd5b5050505060003d60008114613bbe5760208114613bc857600080fd5b6000199150613bd4565b60206000803e60005191505b5080613c27576040805162461bcd60e51b815260206004820152601960248201527f544f4b454e5f5452414e534645525f4f55545f4641494c454400000000000000604482015290519081900360640190fd5b50505050565b6000821580613c3a575081155b613c755760405162461bcd60e51b815260040180806020018281038252603481526020018061570d6034913960400191505060405180910390fd5b613c7d61547c565b613c85611f1c565b6020830181905282826003811115613c9957fe5b6003811115613ca457fe5b9052506000905081516003811115613cb857fe5b14613cdc57613cd46009602b8360000151600381111561170a57fe5b9150506110c7565b8315613d5857604080820185905280516020808201909252908201518152613d049085612406565b6060830181905282826003811115613d1857fe5b6003811115613d2357fe5b9052506000905081516003811115613d3757fe5b14613d5357613cd4600960298360000151600381111561170a57fe5b613dcb565b613d748360405180602001604052808460200151815250615334565b6040830181905282826003811115613d8857fe5b6003811115613d9357fe5b9052506000905081516003811115613da757fe5b14613dc357613cd46009602a8360000151600381111561170a57fe5b606081018390525b600554604080830151815163eabe7d9160e01b81523060048201526001600160a01b03898116602483015260448201929092529151600093919091169163eabe7d9191606480830192602092919082900301818787803b158015613e2e57600080fd5b505af1158015613e42573d6000803e3d6000fd5b505050506040513d6020811015613e5857600080fd5b505190508015613e7857613e6f6003602883612abf565b925050506110c7565b613e806127fd565b60095414613e9457613e6f600a602c61256e565b613ea4600d548360400151612a34565b6080840181905283826003811115613eb857fe5b6003811115613ec357fe5b9052506000905082516003811115613ed757fe5b14613ef357613e6f6009602e8460000151600381111561170a57fe5b6001600160a01b0386166000908152600e6020526040908190205490830151613f1c9190612a34565b60a0840181905283826003811115613f3057fe5b6003811115613f3b57fe5b9052506000905082516003811115613f4f57fe5b14613f6b57613e6f6009602d8460000151600381111561170a57fe5b8160600151613f7861245a565b1015613f8a57613e6f600e602f61256e565b600080600560009054906101000a90046001600160a01b03166001600160a01b03166304ef9d586040518163ffffffff1660e01b815260040160206040518083038186803b158015613fdb57600080fd5b505afa158015613fef573d6000803e3d6000fd5b505050506040513d602081101561400557600080fd5b50511561425f57606084015160055460408051629df3ab60e31b8152905161408893926001600160a01b0316916304ef9d58916004808301926020929190829003018186803b15801561405757600080fd5b505afa15801561406b573d6000803e3d6000fd5b505050506040513d602081101561408157600080fd5b50516143a8565b9250828582600381111561409857fe5b60038111156140a357fe5b90525060009050845160038111156140b757fe5b146140de576140d3600960568660000151600381111561170a57fe5b9450505050506110c7565b6140f082670de0b6b3a76400006143e7565b9250828582600381111561410057fe5b600381111561410b57fe5b905250600090508451600381111561411f57fe5b1461413b576140d3600960568660000151600381111561170a57fe5b614149846060015183612a34565b9150818582600381111561415957fe5b600381111561416457fe5b905250600090508451600381111561417857fe5b14614194576140d3600960568660000151600381111561170a57fe5b6005546040805163c5f956af60e01b8152905161420c926001600160a01b03169163c5f956af916004808301926020929190829003018186803b1580156141da57600080fd5b505afa1580156141ee573d6000803e3d6000fd5b505050506040513d602081101561420457600080fd5b505183613b36565b60408085015181516001600160a01b038b168152602081018590528083019190915290517fccf8e53b86a99b7e9ecf796342c165764d66154780f638c08e6241d711fba6d49181900360600190a1614266565b5060608301515b6142708882613b36565b6080840151600d5560a08401516001600160a01b0389166000818152600e6020908152604091829020939093558087015181519081529051309360008051602061562c833981519152928290030190a360408085015181516001600160a01b038b168152602081018490528083019190915290517fe5b754fb1abb7f01b499791d0b820ae3b6af3424ac1c59768edb53f4ec31a9299181900360600190a1600554606085015160408087015181516351dff98960e01b81523060048201526001600160a01b038d8116602483015260448201949094526064810191909152905191909216916351dff98991608480830192600092919082900301818387803b15801561437b57600080fd5b505af115801561438f573d6000803e3d6000fd5b506000925061439c915050565b98975050505050505050565b600080836143bb57506000905080612453565b838302838582816143c857fe5b04146143dc57506002915060009050612453565b600092509050612453565b600080826143fb5750600190506000612453565b600083858161440657fe5b04915091509250929050565b60055460408051634ef4c3e160e01b81523060048201526001600160a01b03858116602483015260448201859052915160009384938493911691634ef4c3e19160648082019260209290919082900301818787803b15801561447357600080fd5b505af1158015614487573d6000803e3d6000fd5b505050506040513d602081101561449d57600080fd5b5051905080156144c1576144b46003601f83612abf565b9250600091506124539050565b6144c96127fd565b600954146144dd576144b4600a602261256e565b6144e561547c565b6144ed611f1c565b602083018190528282600381111561450157fe5b600381111561450c57fe5b905250600090508151600381111561452057fe5b1461454a5761453c600960218360000151600381111561170a57fe5b935060009250612453915050565b61455486866150ea565b60a082018190526040805160208082019092529083015181526145779190615334565b604083018190528282600381111561458b57fe5b600381111561459657fe5b90525060009050815160038111156145aa57fe5b146145fc576040805162461bcd60e51b815260206004820181905260248201527f4d494e545f45584348414e47455f43414c43554c4154494f4e5f4641494c4544604482015290519081900360640190fd5b61460c600d548260400151612b25565b606083018190528282600381111561462057fe5b600381111561462b57fe5b905250600090508151600381111561463f57fe5b1461467b5760405162461bcd60e51b81526004018080602001828103825260288152602001806156e56028913960400191505060405180910390fd5b6001600160a01b0386166000908152600e60205260409081902054908201516146a49190612b25565b60808301819052828260038111156146b857fe5b60038111156146c357fe5b90525060009050815160038111156146d757fe5b146147135760405162461bcd60e51b815260040180806020018281038252602b815260200180615590602b913960400191505060405180910390fd5b606080820151600d5560808201516001600160a01b0388166000818152600e60209081526040918290209390935560a0850151818601518251938452938301528181019290925290517f4c209b5fc8ad50758f13e2e1088ba56a560dff690a1c6fef26394f4c03821c4f929181900390910190a1604080820151815190815290516001600160a01b03881691309160008051602061562c8339815191529181900360200190a360055460a082015160408084015181516341c728b960e01b81523060048201526001600160a01b038b8116602483015260448201949094526064810191909152905191909216916341c728b991608480830192600092919082900301818387803b15801561482657600080fd5b505af115801561483a573d6000803e3d6000fd5b5060009250614847915050565b8160a001519350935050509250929050565b6005546040805163368f515360e21b81523060048201526001600160a01b0385811660248301526044820185905291516000938493169163da3d454c91606480830192602092919082900301818787803b1580156148b657600080fd5b505af11580156148ca573d6000803e3d6000fd5b505050506040513d60208110156148e057600080fd5b5051905080156148ff576148f76003600e83612abf565b915050610c0d565b6149076127fd565b6009541461491a576148f7600a8061256e565b8261492361245a565b1015614935576148f7600e600961256e565b61493d6154b3565b61494685612749565b602083018190528282600381111561495a57fe5b600381111561496557fe5b905250600090508151600381111561497957fe5b1461499e57614995600960078360000151600381111561170a57fe5b92505050610c0d565b6149ac816020015185612b25565b60408301819052828260038111156149c057fe5b60038111156149cb57fe5b90525060009050815160038111156149df57fe5b146149fb576149956009600c8360000151600381111561170a57fe5b614a07600b5485612b25565b6060830181905282826003811115614a1b57fe5b6003811115614a2657fe5b9052506000905081516003811115614a3a57fe5b14614a56576149956009600b8360000151600381111561170a57fe5b614a608585613b36565b604080820180516001600160a01b03881660008181526010602090815290859020928355600a54600190930192909255606080860151600b81905593518551928352928201899052818501929092529081019190915290517f13ed6866d4e1ee6da46f845c46d7e54120883d75c5ea9a2dacc1c4ca8984ab809181900360800190a160055460408051635c77860560e01b81523060048201526001600160a01b0388811660248301526044820188905291519190921691635c77860591606480830192600092919082900301818387803b158015614b3d57600080fd5b505af1158015614b51573d6000803e3d6000fd5b5060009250614b5e915050565b95945050505050565b60055460408051632fe3f38f60e11b81523060048201526001600160a01b0384811660248301528781166044830152868116606483015260848201869052915160009384938493911691635fc7e71e9160a48082019260209290919082900301818787803b158015614bd857600080fd5b505af1158015614bec573d6000803e3d6000fd5b505050506040513d6020811015614c0257600080fd5b505190508015614c2657614c196003601283612abf565b9250600091506150e19050565b614c2e6127fd565b60095414614c4257614c19600a601661256e565b614c4a6127fd565b846001600160a01b0316636c540baf6040518163ffffffff1660e01b815260040160206040518083038186803b158015614c8357600080fd5b505afa158015614c97573d6000803e3d6000fd5b505050506040513d6020811015614cad57600080fd5b505114614cc057614c19600a601161256e565b866001600160a01b0316866001600160a01b03161415614ce657614c196006601761256e565b84614cf757614c196007601561256e565b600019851415614d0d57614c196007601461256e565b600080614d1b8989896130e0565b90925090508115614d4b57614d3c826011811115614d3557fe5b601861256e565b9450600093506150e192505050565b6005546040805163c488847b60e01b81523060048201526001600160a01b038981166024830152604482018590528251600094859492169263c488847b926064808301939192829003018186803b158015614da557600080fd5b505afa158015614db9573d6000803e3d6000fd5b505050506040513d6040811015614dcf57600080fd5b50805160209091015190925090508115614e1a5760405162461bcd60e51b815260040180806020018281038252603381526020018061567d6033913960400191505060405180910390fd5b80886001600160a01b03166370a082318c6040518263ffffffff1660e01b815260040180826001600160a01b03166001600160a01b0316815260200191505060206040518083038186803b158015614e7157600080fd5b505afa158015614e85573d6000803e3d6000fd5b505050506040513d6020811015614e9b57600080fd5b50511015614ef0576040805162461bcd60e51b815260206004820152601860248201527f4c49515549444154455f5345495a455f544f4f5f4d5543480000000000000000604482015290519081900360640190fd5b60006001600160a01b038916301415614f1657614f0f308d8d85612ba7565b9050614fa0565b6040805163b2a02ff160e01b81526001600160a01b038e811660048301528d81166024830152604482018590529151918b169163b2a02ff1916064808201926020929091908290030181600087803b158015614f7157600080fd5b505af1158015614f85573d6000803e3d6000fd5b505050506040513d6020811015614f9b57600080fd5b505190505b8015614fea576040805162461bcd60e51b81526020600482015260146024820152731d1bdad95b881cd95a5e9d5c994819985a5b195960621b604482015290519081900360640190fd5b604080516001600160a01b03808f168252808e1660208301528183018790528b1660608201526080810184905290517f298637f684da70674f26509b10f07ec2fbc77a335ab1e7d6215a4b2484d8bb529181900360a00190a1600554604080516347ef3b3b60e01b81523060048201526001600160a01b038c811660248301528f811660448301528e811660648301526084820188905260a48201869052915191909216916347ef3b3b9160c480830192600092919082900301818387803b1580156150b557600080fd5b505af11580156150c9573d6000803e3d6000fd5b50600092506150d6915050565b975092955050505050505b94509492505050565b601154604080516370a0823160e01b815230600482015290516000926001600160a01b031691839183916370a08231916024808301926020929190829003018186803b15801561513957600080fd5b505afa15801561514d573d6000803e3d6000fd5b505050506040513d602081101561516357600080fd5b5051604080516323b872dd60e01b81526001600160a01b038881166004830152306024830152604482018890529151929350908416916323b872dd9160648082019260009290919082900301818387803b1580156151c057600080fd5b505af11580156151d4573d6000803e3d6000fd5b5050505060003d600081146151f057602081146151fa57600080fd5b6000199150615206565b60206000803e60005191505b5080615259576040805162461bcd60e51b815260206004820152601860248201527f544f4b454e5f5452414e534645525f494e5f4641494c45440000000000000000604482015290519081900360640190fd5b601154604080516370a0823160e01b815230600482015290516000926001600160a01b0316916370a08231916024808301926020929190829003018186803b1580156152a457600080fd5b505afa1580156152b8573d6000803e3d6000fd5b505050506040513d60208110156152ce57600080fd5b5051905082811015615327576040805162461bcd60e51b815260206004820152601a60248201527f544f4b454e5f5452414e534645525f494e5f4f564552464c4f57000000000000604482015290519081900360640190fd5b9190910395945050505050565b60008060006153416153a5565b61241d868660006153506153a5565b600080615365670de0b6b3a7640000876143a8565b9092509050600082600381111561537857fe5b1461539757506040805160208101909152600081529092509050612453565b61244c818660000151613503565b6040518060200160405280600081525090565b828054600181600116156101000203166002900490600052602060002090601f016020900481019282601f106153f957805160ff1916838001178555615426565b82800160010185558215615426579182015b8281111561542657825182559160200191906001019061540b565b506154329291506154dc565b5090565b6040805161010081019091528060008152602001600081526020016000815260200160008152602001600081526020016000815260200160008152602001600081525090565b6040805160c08101909152806000815260200160008152602001600081526020016000815260200160008152602001600081525090565b604080516080810190915280600081526020016000815260200160008152602001600081525090565b610d5591905b8082111561543257600081556001016154e256fe6f6e6c792061646d696e206d617920696e697469616c697a6520746865206d61726b65746d61726b6574206d6179206f6e6c7920626520696e697469616c697a6564206f6e6365696e697469616c2065786368616e67652072617465206d7573742062652067726561746572207468616e207a65726f2e73657474696e6720696e7465726573742072617465206d6f64656c206661696c65644d494e545f4e45575f4143434f554e545f42414c414e43455f43414c43554c4154494f4e5f4641494c4544626f72726f7742616c616e636553746f7265643a20626f72726f7742616c616e636553746f726564496e7465726e616c206661696c656452455041595f424f52524f575f4e45575f4143434f554e545f424f52524f575f42414c414e43455f43414c43554c4154494f4e5f4641494c4544ddf252ad1be2c89b69c2b068fc378daa952ba7f163c4a11628f55a4df523b3ef52455041595f424f52524f575f4e45575f544f54414c5f42414c414e43455f43414c43554c4154494f4e5f4641494c45444c49515549444154455f434f4d5054524f4c4c45525f43414c43554c4154455f414d4f554e545f5345495a455f4641494c454465786368616e67655261746553746f7265643a2065786368616e67655261746553746f726564496e7465726e616c206661696c65644d494e545f4e45575f544f54414c5f535550504c595f43414c43554c4154494f4e5f4641494c45446f6e65206f662072656465656d546f6b656e73496e206f722072656465656d416d6f756e74496e206d757374206265207a65726fa265627a7a723158209fea2ec1cf493c64e53ce3f71fcf87028d7a4ec0a71570a21c9234f5ead939ef64736f6c634300051000326f6e6c792061646d696e206d617920696e697469616c697a6520746865206d61726b65746d61726b6574206d6179206f6e6c7920626520696e697469616c697a6564206f6e6365696e697469616c2065786368616e67652072617465206d7573742062652067726561746572207468616e207a65726f2e73657474696e6720696e7465726573742072617465206d6f64656c206661696c6564",
  "linkReferences": {},
  "deployedLinkReferences": {}
}