{
  "_format": "hh-sol-artifact-1",
  "contractName": "VBep20DelegateScenarioExtra",
  "sourceName": "contracts/test/VBep20Harness.sol",
  "abi": [
    {
      "anonymous": false,
      "inputs": [
        {
          "indexed": false,
          "internalType": "uint256",
          "name": "cashPrior",
          "type": "uint256"
        },
        {
          "indexed": false,
          "internalType": "uint256",
          "name": "interestAccumulated",
          "type": "uint256"
        },
        {
          "indexed": false,
          "internalType": "uint256",
          "name": "borrowIndex",
          "type": "uint256"
        },
        {
          "indexed": false,
          "internalType": "uint256",
          "name": "totalBorrows",
          "type": "uint256"
        }
      ],
      "name": "AccrueInterest",
      "type": "event"
    },
    {
      "anonymous": false,
      "inputs": [
        {
          "indexed": true,
          "internalType": "address",
          "name": "owner",
          "type": "address"
        },
        {
          "indexed": true,
          "internalType": "address",
          "name": "spender",
          "type": "address"
        },
        {
          "indexed": false,
          "internalType": "uint256",
          "name": "amount",
          "type": "uint256"
        }
      ],
      "name": "Approval",
      "type": "event"
    },
    {
      "anonymous": false,
      "inputs": [
        {
          "indexed": false,
          "internalType": "address",
          "name": "borrower",
          "type": "address"
        },
        {
          "indexed": false,
          "internalType": "uint256",
          "name": "borrowAmount",
          "type": "uint256"
        },
        {
          "indexed": false,
          "internalType": "uint256",
          "name": "accountBorrows",
          "type": "uint256"
        },
        {
          "indexed": false,
          "internalType": "uint256",
          "name": "totalBorrows",
          "type": "uint256"
        }
      ],
      "name": "Borrow",
      "type": "event"
    },
    {
      "anonymous": false,
      "inputs": [
        {
          "indexed": false,
          "internalType": "uint256",
          "name": "error",
          "type": "uint256"
        },
        {
          "indexed": false,
          "internalType": "uint256",
          "name": "info",
          "type": "uint256"
        },
        {
          "indexed": false,
          "internalType": "uint256",
          "name": "detail",
          "type": "uint256"
        }
      ],
      "name": "Failure",
      "type": "event"
    },
    {
      "anonymous": false,
      "inputs": [
        {
          "indexed": false,
          "internalType": "address",
          "name": "liquidator",
          "type": "address"
        },
        {
          "indexed": false,
          "internalType": "address",
          "name": "borrower",
          "type": "address"
        },
        {
          "indexed": false,
          "internalType": "uint256",
          "name": "repayAmount",
          "type": "uint256"
        },
        {
          "indexed": false,
          "internalType": "address",
          "name": "vTokenCollateral",
          "type": "address"
        },
        {
          "indexed": false,
          "internalType": "uint256",
          "name": "seizeTokens",
          "type": "uint256"
        }
      ],
      "name": "LiquidateBorrow",
      "type": "event"
    },
    {
      "anonymous": false,
      "inputs": [
        {
          "indexed": false,
          "internalType": "address",
          "name": "minter",
          "type": "address"
        },
        {
          "indexed": false,
          "internalType": "uint256",
          "name": "mintAmount",
          "type": "uint256"
        },
        {
          "indexed": false,
          "internalType": "uint256",
          "name": "mintTokens",
          "type": "uint256"
        }
      ],
      "name": "Mint",
      "type": "event"
    },
    {
      "anonymous": false,
      "inputs": [
        {
          "indexed": false,
          "internalType": "address",
          "name": "payer",
          "type": "address"
        },
        {
          "indexed": false,
          "internalType": "address",
          "name": "receiver",
          "type": "address"
        },
        {
          "indexed": false,
          "internalType": "uint256",
          "name": "mintAmount",
          "type": "uint256"
        },
        {
          "indexed": false,
          "internalType": "uint256",
          "name": "mintTokens",
          "type": "uint256"
        }
      ],
      "name": "MintBehalf",
      "type": "event"
    },
    {
      "anonymous": false,
      "inputs": [
        {
          "indexed": false,
          "internalType": "address",
          "name": "oldAdmin",
          "type": "address"
        },
        {
          "indexed": false,
          "internalType": "address",
          "name": "newAdmin",
          "type": "address"
        }
      ],
      "name": "NewAdmin",
      "type": "event"
    },
    {
      "anonymous": false,
      "inputs": [
        {
          "indexed": false,
          "internalType": "contract ComptrollerInterface",
          "name": "oldComptroller",
          "type": "address"
        },
        {
          "indexed": false,
          "internalType": "contract ComptrollerInterface",
          "name": "newComptroller",
          "type": "address"
        }
      ],
      "name": "NewComptroller",
      "type": "event"
    },
    {
      "anonymous": false,
      "inputs": [
        {
          "indexed": false,
          "internalType": "contract InterestRateModel",
          "name": "oldInterestRateModel",
          "type": "address"
        },
        {
          "indexed": false,
          "internalType": "contract InterestRateModel",
          "name": "newInterestRateModel",
          "type": "address"
        }
      ],
      "name": "NewMarketInterestRateModel",
      "type": "event"
    },
    {
      "anonymous": false,
      "inputs": [
        {
          "indexed": false,
          "internalType": "address",
          "name": "oldPendingAdmin",
          "type": "address"
        },
        {
          "indexed": false,
          "internalType": "address",
          "name": "newPendingAdmin",
          "type": "address"
        }
      ],
      "name": "NewPendingAdmin",
      "type": "event"
    },
    {
      "anonymous": false,
      "inputs": [
        {
          "indexed": false,
          "internalType": "uint256",
          "name": "oldReserveFactorMantissa",
          "type": "uint256"
        },
        {
          "indexed": false,
          "internalType": "uint256",
          "name": "newReserveFactorMantissa",
          "type": "uint256"
        }
      ],
      "name": "NewReserveFactor",
      "type": "event"
    },
    {
      "anonymous": false,
      "inputs": [
        {
          "indexed": false,
          "internalType": "address",
          "name": "redeemer",
          "type": "address"
        },
        {
          "indexed": false,
          "internalType": "uint256",
          "name": "redeemAmount",
          "type": "uint256"
        },
        {
          "indexed": false,
          "internalType": "uint256",
          "name": "redeemTokens",
          "type": "uint256"
        }
      ],
      "name": "Redeem",
      "type": "event"
    },
    {
      "anonymous": false,
      "inputs": [
        {
          "indexed": false,
          "internalType": "address",
          "name": "redeemer",
          "type": "address"
        },
        {
          "indexed": false,
          "internalType": "uint256",
          "name": "feeAmount",
          "type": "uint256"
        },
        {
          "indexed": false,
          "internalType": "uint256",
          "name": "redeemTokens",
          "type": "uint256"
        }
      ],
      "name": "RedeemFee",
      "type": "event"
    },
    {
      "anonymous": false,
      "inputs": [
        {
          "indexed": false,
          "internalType": "address",
          "name": "payer",
          "type": "address"
        },
        {
          "indexed": false,
          "internalType": "address",
          "name": "borrower",
          "type": "address"
        },
        {
          "indexed": false,
          "internalType": "uint256",
          "name": "repayAmount",
          "type": "uint256"
        },
        {
          "indexed": false,
          "internalType": "uint256",
          "name": "accountBorrows",
          "type": "uint256"
        },
        {
          "indexed": false,
          "internalType": "uint256",
          "name": "totalBorrows",
          "type": "uint256"
        }
      ],
      "name": "RepayBorrow",
      "type": "event"
    },
    {
      "anonymous": false,
      "inputs": [
        {
          "indexed": false,
          "internalType": "address",
          "name": "benefactor",
          "type": "address"
        },
        {
          "indexed": false,
          "internalType": "uint256",
          "name": "addAmount",
          "type": "uint256"
        },
        {
          "indexed": false,
          "internalType": "uint256",
          "name": "newTotalReserves",
          "type": "uint256"
        }
      ],
      "name": "ReservesAdded",
      "type": "event"
    },
    {
      "anonymous": false,
      "inputs": [
        {
          "indexed": false,
          "internalType": "address",
          "name": "admin",
          "type": "address"
        },
        {
          "indexed": false,
          "internalType": "uint256",
          "name": "reduceAmount",
          "type": "uint256"
        },
        {
          "indexed": false,
          "internalType": "uint256",
          "name": "newTotalReserves",
          "type": "uint256"
        }
      ],
      "name": "ReservesReduced",
      "type": "event"
    },
    {
      "anonymous": false,
      "inputs": [
        {
          "indexed": true,
          "internalType": "address",
          "name": "from",
          "type": "address"
        },
        {
          "indexed": true,
          "internalType": "address",
          "name": "to",
          "type": "address"
        },
        {
          "indexed": false,
          "internalType": "uint256",
          "name": "amount",
          "type": "uint256"
        }
      ],
      "name": "Transfer",
      "type": "event"
    },
    {
      "constant": false,
      "inputs": [],
      "name": "_acceptAdmin",
      "outputs": [
        {
          "internalType": "uint256",
          "name": "",
          "type": "uint256"
        }
      ],
      "payable": false,
      "stateMutability": "nonpayable",
      "type": "function"
    },
    {
      "constant": false,
      "inputs": [
        {
          "internalType": "uint256",
          "name": "addAmount",
          "type": "uint256"
        }
      ],
      "name": "_addReserves",
      "outputs": [
        {
          "internalType": "uint256",
          "name": "",
          "type": "uint256"
        }
      ],
      "payable": false,
      "stateMutability": "nonpayable",
      "type": "function"
    },
    {
      "constant": false,
      "inputs": [
        {
          "internalType": "bytes",
          "name": "data",
          "type": "bytes"
        }
      ],
      "name": "_becomeImplementation",
      "outputs": [],
      "payable": false,
      "stateMutability": "nonpayable",
      "type": "function"
    },
    {
      "constant": false,
      "inputs": [
        {
          "internalType": "uint256",
          "name": "reduceAmount",
          "type": "uint256"
        }
      ],
      "name": "_reduceReserves",
      "outputs": [
        {
          "internalType": "uint256",
          "name": "",
          "type": "uint256"
        }
      ],
      "payable": false,
      "stateMutability": "nonpayable",
      "type": "function"
    },
    {
      "constant": false,
      "inputs": [],
      "name": "_resignImplementation",
      "outputs": [],
      "payable": false,
      "stateMutability": "nonpayable",
      "type": "function"
    },
    {
      "constant": false,
      "inputs": [
        {
          "internalType": "contract ComptrollerInterface",
          "name": "newComptroller",
          "type": "address"
        }
      ],
      "name": "_setComptroller",
      "outputs": [
        {
          "internalType": "uint256",
          "name": "",
          "type": "uint256"
        }
      ],
      "payable": false,
      "stateMutability": "nonpayable",
      "type": "function"
    },
    {
      "constant": false,
      "inputs": [
        {
          "internalType": "contract InterestRateModel",
          "name": "newInterestRateModel",
          "type": "address"
        }
      ],
      "name": "_setInterestRateModel",
      "outputs": [
        {
          "internalType": "uint256",
          "name": "",
          "type": "uint256"
        }
      ],
      "payable": false,
      "stateMutability": "nonpayable",
      "type": "function"
    },
    {
      "constant": false,
      "inputs": [
        {
          "internalType": "address payable",
          "name": "newPendingAdmin",
          "type": "address"
        }
      ],
      "name": "_setPendingAdmin",
      "outputs": [
        {
          "internalType": "uint256",
          "name": "",
          "type": "uint256"
        }
      ],
      "payable": false,
      "stateMutability": "nonpayable",
      "type": "function"
    },
    {
      "constant": false,
      "inputs": [
        {
          "internalType": "uint256",
          "name": "newReserveFactorMantissa",
          "type": "uint256"
        }
      ],
      "name": "_setReserveFactor",
      "outputs": [
        {
          "internalType": "uint256",
          "name": "",
          "type": "uint256"
        }
      ],
      "payable": false,
      "stateMutability": "nonpayable",
      "type": "function"
    },
    {
      "constant": true,
      "inputs": [],
      "name": "accrualBlockNumber",
      "outputs": [
        {
          "internalType": "uint256",
          "name": "",
          "type": "uint256"
        }
      ],
      "payable": false,
      "stateMutability": "view",
      "type": "function"
    },
    {
      "constant": false,
      "inputs": [],
      "name": "accrueInterest",
      "outputs": [
        {
          "internalType": "uint256",
          "name": "",
          "type": "uint256"
        }
      ],
      "payable": false,
      "stateMutability": "nonpayable",
      "type": "function"
    },
    {
      "constant": true,
      "inputs": [],
      "name": "admin",
      "outputs": [
        {
          "internalType": "address payable",
          "name": "",
          "type": "address"
        }
      ],
      "payable": false,
      "stateMutability": "view",
      "type": "function"
    },
    {
      "constant": true,
      "inputs": [
        {
          "internalType": "address",
          "name": "owner",
          "type": "address"
        },
        {
          "internalType": "address",
          "name": "spender",
          "type": "address"
        }
      ],
      "name": "allowance",
      "outputs": [
        {
          "internalType": "uint256",
          "name": "",
          "type": "uint256"
        }
      ],
      "payable": false,
      "stateMutability": "view",
      "type": "function"
    },
    {
      "constant": false,
      "inputs": [
        {
          "internalType": "address",
          "name": "spender",
          "type": "address"
        },
        {
          "internalType": "uint256",
          "name": "amount",
          "type": "uint256"
        }
      ],
      "name": "approve",
      "outputs": [
        {
          "internalType": "bool",
          "name": "",
          "type": "bool"
        }
      ],
      "payable": false,
      "stateMutability": "nonpayable",
      "type": "function"
    },
    {
      "constant": true,
      "inputs": [],
      "name": "babyYoda",
      "outputs": [],
      "payable": false,
      "stateMutability": "pure",
      "type": "function"
    },
    {
      "constant": true,
      "inputs": [
        {
          "internalType": "address",
          "name": "owner",
          "type": "address"
        }
      ],
      "name": "balanceOf",
      "outputs": [
        {
          "internalType": "uint256",
          "name": "",
          "type": "uint256"
        }
      ],
      "payable": false,
      "stateMutability": "view",
      "type": "function"
    },
    {
      "constant": false,
      "inputs": [
        {
          "internalType": "address",
          "name": "owner",
          "type": "address"
        }
      ],
      "name": "balanceOfUnderlying",
      "outputs": [
        {
          "internalType": "uint256",
          "name": "",
          "type": "uint256"
        }
      ],
      "payable": false,
      "stateMutability": "nonpayable",
      "type": "function"
    },
    {
      "constant": false,
      "inputs": [
        {
          "internalType": "uint256",
          "name": "borrowAmount",
          "type": "uint256"
        }
      ],
      "name": "borrow",
      "outputs": [
        {
          "internalType": "uint256",
          "name": "",
          "type": "uint256"
        }
      ],
      "payable": false,
      "stateMutability": "nonpayable",
      "type": "function"
    },
    {
      "constant": false,
      "inputs": [
        {
          "internalType": "address",
          "name": "account",
          "type": "address"
        }
      ],
      "name": "borrowBalanceCurrent",
      "outputs": [
        {
          "internalType": "uint256",
          "name": "",
          "type": "uint256"
        }
      ],
      "payable": false,
      "stateMutability": "nonpayable",
      "type": "function"
    },
    {
      "constant": true,
      "inputs": [
        {
          "internalType": "address",
          "name": "account",
          "type": "address"
        }
      ],
      "name": "borrowBalanceStored",
      "outputs": [
        {
          "internalType": "uint256",
          "name": "",
          "type": "uint256"
        }
      ],
      "payable": false,
      "stateMutability": "view",
      "type": "function"
    },
    {
      "constant": true,
      "inputs": [],
      "name": "borrowIndex",
      "outputs": [
        {
          "internalType": "uint256",
          "name": "",
          "type": "uint256"
        }
      ],
      "payable": false,
      "stateMutability": "view",
      "type": "function"
    },
    {
      "constant": true,
      "inputs": [],
      "name": "borrowRatePerBlock",
      "outputs": [
        {
          "internalType": "uint256",
          "name": "",
          "type": "uint256"
        }
      ],
      "payable": false,
      "stateMutability": "view",
      "type": "function"
    },
    {
      "constant": true,
      "inputs": [],
      "name": "comptroller",
      "outputs": [
        {
          "internalType": "contract ComptrollerInterface",
          "name": "",
          "type": "address"
        }
      ],
      "payable": false,
      "stateMutability": "view",
      "type": "function"
    },
    {
      "constant": true,
      "inputs": [],
      "name": "decimals",
      "outputs": [
        {
          "internalType": "uint8",
          "name": "",
          "type": "uint8"
        }
      ],
      "payable": false,
      "stateMutability": "view",
      "type": "function"
    },
    {
      "constant": false,
      "inputs": [],
      "name": "exchangeRateCurrent",
      "outputs": [
        {
          "internalType": "uint256",
          "name": "",
          "type": "uint256"
        }
      ],
      "payable": false,
      "stateMutability": "nonpayable",
      "type": "function"
    },
    {
      "constant": true,
      "inputs": [],
      "name": "exchangeRateStored",
      "outputs": [
        {
          "internalType": "uint256",
          "name": "",
          "type": "uint256"
        }
      ],
      "payable": false,
      "stateMutability": "view",
      "type": "function"
    },
    {
      "constant": true,
      "inputs": [
        {
          "internalType": "address",
          "name": "account",
          "type": "address"
        }
      ],
      "name": "getAccountSnapshot",
      "outputs": [
        {
          "internalType": "uint256",
          "name": "",
          "type": "uint256"
        },
        {
          "internalType": "uint256",
          "name": "",
          "type": "uint256"
        },
        {
          "internalType": "uint256",
          "name": "",
          "type": "uint256"
        },
        {
          "internalType": "uint256",
          "name": "",
          "type": "uint256"
        }
      ],
      "payable": false,
      "stateMutability": "view",
      "type": "function"
    },
    {
      "constant": true,
      "inputs": [],
      "name": "getCash",
      "outputs": [
        {
          "internalType": "uint256",
          "name": "",
          "type": "uint256"
        }
      ],
      "payable": false,
      "stateMutability": "view",
      "type": "function"
    },
    {
      "constant": true,
      "inputs": [],
      "name": "iHaveSpoken",
      "outputs": [
        {
          "internalType": "string",
          "name": "",
          "type": "string"
        }
      ],
      "payable": false,
      "stateMutability": "pure",
      "type": "function"
    },
    {
      "constant": true,
      "inputs": [],
      "name": "implementation",
      "outputs": [
        {
          "internalType": "address",
          "name": "",
          "type": "address"
        }
      ],
      "payable": false,
      "stateMutability": "view",
      "type": "function"
    },
    {
      "constant": false,
      "inputs": [
        {
          "internalType": "address",
          "name": "underlying_",
          "type": "address"
        },
        {
          "internalType": "contract ComptrollerInterface",
          "name": "comptroller_",
          "type": "address"
        },
        {
          "internalType": "contract InterestRateModel",
          "name": "interestRateModel_",
          "type": "address"
        },
        {
          "internalType": "uint256",
          "name": "initialExchangeRateMantissa_",
          "type": "uint256"
        },
        {
          "internalType": "string",
          "name": "name_",
          "type": "string"
        },
        {
          "internalType": "string",
          "name": "symbol_",
          "type": "string"
        },
        {
          "internalType": "uint8",
          "name": "decimals_",
          "type": "uint8"
        }
      ],
      "name": "initialize",
      "outputs": [],
      "payable": false,
      "stateMutability": "nonpayable",
      "type": "function"
    },
    {
      "constant": false,
      "inputs": [
        {
          "internalType": "contract ComptrollerInterface",
          "name": "comptroller_",
          "type": "address"
        },
        {
          "internalType": "contract InterestRateModel",
          "name": "interestRateModel_",
          "type": "address"
        },
        {
          "internalType": "uint256",
          "name": "initialExchangeRateMantissa_",
          "type": "uint256"
        },
        {
          "internalType": "string",
          "name": "name_",
          "type": "string"
        },
        {
          "internalType": "string",
          "name": "symbol_",
          "type": "string"
        },
        {
          "internalType": "uint8",
          "name": "decimals_",
          "type": "uint8"
        }
      ],
      "name": "initialize",
      "outputs": [],
      "payable": false,
      "stateMutability": "nonpayable",
      "type": "function"
    },
    {
      "constant": true,
      "inputs": [],
      "name": "interestRateModel",
      "outputs": [
        {
          "internalType": "contract InterestRateModel",
          "name": "",
          "type": "address"
        }
      ],
      "payable": false,
      "stateMutability": "view",
      "type": "function"
    },
    {
      "constant": true,
      "inputs": [],
      "name": "isVToken",
      "outputs": [
        {
          "internalType": "bool",
          "name": "",
          "type": "bool"
        }
      ],
      "payable": false,
      "stateMutability": "view",
      "type": "function"
    },
    {
      "constant": false,
      "inputs": [],
      "name": "itIsTheWay",
      "outputs": [],
      "payable": false,
      "stateMutability": "nonpayable",
      "type": "function"
    },
    {
      "constant": false,
      "inputs": [
        {
          "internalType": "address",
          "name": "borrower",
          "type": "address"
        },
        {
          "internalType": "uint256",
          "name": "repayAmount",
          "type": "uint256"
        },
        {
          "internalType": "contract VTokenInterface",
          "name": "vTokenCollateral",
          "type": "address"
        }
      ],
      "name": "liquidateBorrow",
      "outputs": [
        {
          "internalType": "uint256",
          "name": "",
          "type": "uint256"
        }
      ],
      "payable": false,
      "stateMutability": "nonpayable",
      "type": "function"
    },
    {
      "constant": false,
      "inputs": [
        {
          "internalType": "uint256",
          "name": "mintAmount",
          "type": "uint256"
        }
      ],
      "name": "mint",
      "outputs": [
        {
          "internalType": "uint256",
          "name": "",
          "type": "uint256"
        }
      ],
      "payable": false,
      "stateMutability": "nonpayable",
      "type": "function"
    },
    {
      "constant": false,
      "inputs": [
        {
          "internalType": "address",
          "name": "receiver",
          "type": "address"
        },
        {
          "internalType": "uint256",
          "name": "mintAmount",
          "type": "uint256"
        }
      ],
      "name": "mintBehalf",
      "outputs": [
        {
          "internalType": "uint256",
          "name": "",
          "type": "uint256"
        }
      ],
      "payable": false,
      "stateMutability": "nonpayable",
      "type": "function"
    },
    {
      "constant": true,
      "inputs": [],
      "name": "name",
      "outputs": [
        {
          "internalType": "string",
          "name": "",
          "type": "string"
        }
      ],
      "payable": false,
      "stateMutability": "view",
      "type": "function"
    },
    {
      "constant": true,
      "inputs": [],
      "name": "pendingAdmin",
      "outputs": [
        {
          "internalType": "address payable",
          "name": "",
          "type": "address"
        }
      ],
      "payable": false,
      "stateMutability": "view",
      "type": "function"
    },
    {
      "constant": false,
      "inputs": [
        {
          "internalType": "uint256",
          "name": "redeemTokens",
          "type": "uint256"
        }
      ],
      "name": "redeem",
      "outputs": [
        {
          "internalType": "uint256",
          "name": "",
          "type": "uint256"
        }
      ],
      "payable": false,
      "stateMutability": "nonpayable",
      "type": "function"
    },
    {
      "constant": false,
      "inputs": [
        {
          "internalType": "uint256",
          "name": "redeemAmount",
          "type": "uint256"
        }
      ],
      "name": "redeemUnderlying",
      "outputs": [
        {
          "internalType": "uint256",
          "name": "",
          "type": "uint256"
        }
      ],
      "payable": false,
      "stateMutability": "nonpayable",
      "type": "function"
    },
    {
      "constant": false,
      "inputs": [
        {
          "internalType": "uint256",
          "name": "repayAmount",
          "type": "uint256"
        }
      ],
      "name": "repayBorrow",
      "outputs": [
        {
          "internalType": "uint256",
          "name": "",
          "type": "uint256"
        }
      ],
      "payable": false,
      "stateMutability": "nonpayable",
      "type": "function"
    },
    {
      "constant": false,
      "inputs": [
        {
          "internalType": "address",
          "name": "borrower",
          "type": "address"
        },
        {
          "internalType": "uint256",
          "name": "repayAmount",
          "type": "uint256"
        }
      ],
      "name": "repayBorrowBehalf",
      "outputs": [
        {
          "internalType": "uint256",
          "name": "",
          "type": "uint256"
        }
      ],
      "payable": false,
      "stateMutability": "nonpayable",
      "type": "function"
    },
    {
      "constant": true,
      "inputs": [],
      "name": "reserveFactorMantissa",
      "outputs": [
        {
          "internalType": "uint256",
          "name": "",
          "type": "uint256"
        }
      ],
      "payable": false,
      "stateMutability": "view",
      "type": "function"
    },
    {
      "constant": false,
      "inputs": [
        {
          "internalType": "address",
          "name": "liquidator",
          "type": "address"
        },
        {
          "internalType": "address",
          "name": "borrower",
          "type": "address"
        },
        {
          "internalType": "uint256",
          "name": "seizeTokens",
          "type": "uint256"
        }
      ],
      "name": "seize",
      "outputs": [
        {
          "internalType": "uint256",
          "name": "",
          "type": "uint256"
        }
      ],
      "payable": false,
      "stateMutability": "nonpayable",
      "type": "function"
    },
    {
      "constant": false,
      "inputs": [
        {
          "internalType": "uint256",
          "name": "totalBorrows_",
          "type": "uint256"
        }
      ],
      "name": "setTotalBorrows",
      "outputs": [],
      "payable": false,
      "stateMutability": "nonpayable",
      "type": "function"
    },
    {
      "constant": false,
      "inputs": [
        {
          "internalType": "uint256",
          "name": "totalReserves_",
          "type": "uint256"
        }
      ],
      "name": "setTotalReserves",
      "outputs": [],
      "payable": false,
      "stateMutability": "nonpayable",
      "type": "function"
    },
    {
      "constant": true,
      "inputs": [],
      "name": "supplyRatePerBlock",
      "outputs": [
        {
          "internalType": "uint256",
          "name": "",
          "type": "uint256"
        }
      ],
      "payable": false,
      "stateMutability": "view",
      "type": "function"
    },
    {
      "constant": true,
      "inputs": [],
      "name": "symbol",
      "outputs": [
        {
          "internalType": "string",
          "name": "",
          "type": "string"
        }
      ],
      "payable": false,
      "stateMutability": "view",
      "type": "function"
    },
    {
      "constant": true,
      "inputs": [],
      "name": "totalBorrows",
      "outputs": [
        {
          "internalType": "uint256",
          "name": "",
          "type": "uint256"
        }
      ],
      "payable": false,
      "stateMutability": "view",
      "type": "function"
    },
    {
      "constant": false,
      "inputs": [],
      "name": "totalBorrowsCurrent",
      "outputs": [
        {
          "internalType": "uint256",
          "name": "",
          "type": "uint256"
        }
      ],
      "payable": false,
      "stateMutability": "nonpayable",
      "type": "function"
    },
    {
      "constant": true,
      "inputs": [],
      "name": "totalReserves",
      "outputs": [
        {
          "internalType": "uint256",
          "name": "",
          "type": "uint256"
        }
      ],
      "payable": false,
      "stateMutability": "view",
      "type": "function"
    },
    {
      "constant": true,
      "inputs": [],
      "name": "totalSupply",
      "outputs": [
        {
          "internalType": "uint256",
          "name": "",
          "type": "uint256"
        }
      ],
      "payable": false,
      "stateMutability": "view",
      "type": "function"
    },
    {
      "constant": false,
      "inputs": [
        {
          "internalType": "address",
          "name": "dst",
          "type": "address"
        },
        {
          "internalType": "uint256",
          "name": "amount",
          "type": "uint256"
        }
      ],
      "name": "transfer",
      "outputs": [
        {
          "internalType": "bool",
          "name": "",
          "type": "bool"
        }
      ],
      "payable": false,
      "stateMutability": "nonpayable",
      "type": "function"
    },
    {
      "constant": false,
      "inputs": [
        {
          "internalType": "address",
          "name": "src",
          "type": "address"
        },
        {
          "internalType": "address",
          "name": "dst",
          "type": "address"
        },
        {
          "internalType": "uint256",
          "name": "amount",
          "type": "uint256"
        }
      ],
      "name": "transferFrom",
      "outputs": [
        {
          "internalType": "bool",
          "name": "",
          "type": "bool"
        }
      ],
      "payable": false,
      "stateMutability": "nonpayable",
      "type": "function"
    },
    {
      "constant": true,
      "inputs": [],
      "name": "underlying",
      "outputs": [
        {
          "internalType": "address",
          "name": "",
          "type": "address"
        }
      ],
      "payable": false,
      "stateMutability": "view",
      "type": "function"
    }
  ],
  "bytecode": "0x6080604052615a5b806100136000396000f3fe608060405234801561001057600080fd5b50600436106103835760003560e01c806373acee98116101de578063b71d1a0c1161010f578063e9c714f2116100ad578063f5e3c4621161007c578063f5e3c46214610c14578063f851a44014610c4a578063f8f9da2814610c52578063fca7820b14610c5a57610383565b8063e9c714f214610bd6578063f2b3abbd14610bde578063f3fdb15a14610c04578063f5d0506014610c0c57610383565b8063c5ebeaec116100e9578063c5ebeaec14610b66578063db006a7514610b83578063dd62ed3e14610ba0578063ddeddbfb14610bce57610383565b8063b71d1a0c14610aec578063bd6d894d14610b12578063c37f68e214610b1a57610383565b8063a0712d681161017c578063aa5af0fd11610156578063aa5af0fd14610a89578063ae9d70b014610a91578063b0e0bf2a14610a99578063b2a02ff114610ab657610383565b8063a0712d6814610a38578063a6afed9514610a55578063a9059cbb14610a5d57610383565b806395d89b41116101b857806395d89b411461089f57806395dd9193146108a7578063977e19e9146108cd57806399d8c1b4146108ea57610383565b806373acee9814610872578063852a12e31461087a5780638f840ddd1461089757610383565b80633af9e669116102b85780635c60da1b116102565780636643cf6b116102305780636643cf6b146108345780636c540baf1461083c5780636f307dc31461084457806370a082311461084c57610383565b80635c60da1b146108075780635fe3b5671461080f578063601a0bf11461081757610383565b80633e941010116102925780633e941010146107185780634576b5db1461073557806347bd37181461075b57806356e677281461076357610383565b80633af9e669146106e25780633b1d21a2146107085780633d9ea3a11461071057610383565b8063182df0f51161032557806323b872dd116102ff57806323b872dd1461063e5780632608f8181461067457806326782247146106a0578063313ce567146106c457610383565b8063182df0f5146104b45780631a31d465146104bc57806323323e031461061257610383565b8063153ab50511610361578063153ab50514610474578063173b99041461047e57806317bfdfbc1461048657806318160ddd146104ac57610383565b806306fdde0314610388578063095ea7b3146104055780630e75270214610445575b600080fd5b610390610c77565b6040805160208082528351818301528351919283929083019185019080838360005b838110156103ca5781810151838201526020016103b2565b50505050905090810190601f1680156103f75780820380516001836020036101000a031916815260200191505b509250505060405180910390f35b6104316004803603604081101561041b57600080fd5b506001600160a01b038135169060200135610d04565b604080519115158252519081900360200190f35b6104626004803603602081101561045b57600080fd5b5035610d71565b60408051918252519081900360200190f35b61047c610d87565b005b610462610dd7565b6104626004803603602081101561049c57600080fd5b50356001600160a01b0316610ddd565b610462610e9d565b610462610ea3565b61047c600480360360e08110156104d257600080fd5b6001600160a01b03823581169260208101358216926040820135909216916060820135919081019060a081016080820135600160201b81111561051457600080fd5b82018360208201111561052657600080fd5b803590602001918460018302840111600160201b8311171561054757600080fd5b91908080601f0160208091040260200160405190810160405280939291908181526020018383808284376000920191909152509295949360208101935035915050600160201b81111561059957600080fd5b8201836020820111156105ab57600080fd5b803590602001918460018302840111600160201b831117156105cc57600080fd5b91908080601f0160208091040260200160405190810160405280939291908181526020018383808284376000920191909152509295505050903560ff169150610f069050565b6104626004803603604081101561062857600080fd5b506001600160a01b038135169060200135610fa5565b6104316004803603606081101561065457600080fd5b506001600160a01b03813581169160208101359091169060400135610fbb565b6104626004803603604081101561068a57600080fd5b506001600160a01b03813516906020013561102d565b6106a861103a565b604080516001600160a01b039092168252519081900360200190f35b6106cc611049565b6040805160ff9092168252519081900360200190f35b610462600480360360208110156106f857600080fd5b50356001600160a01b0316611052565b610462611108565b610431611117565b6104626004803603602081101561072e57600080fd5b503561111c565b6104626004803603602081101561074b57600080fd5b50356001600160a01b0316611127565b61046261127c565b61047c6004803603602081101561077957600080fd5b810190602081018135600160201b81111561079357600080fd5b8201836020820111156107a557600080fd5b803590602001918460018302840111600160201b831117156107c657600080fd5b91908080601f016020809104026020016040519081016040528093929190818152602001838380828437600092019190915250929550611282945050505050565b6106a86112d3565b6106a86112e2565b6104626004803603602081101561082d57600080fd5b50356112f1565b61039061138c565b6104626113b3565b6106a86113b9565b6104626004803603602081101561086257600080fd5b50356001600160a01b03166113c8565b6104626113e3565b6104626004803603602081101561089057600080fd5b5035611499565b6104626114a4565b6103906114aa565b610462600480360360208110156108bd57600080fd5b50356001600160a01b0316611502565b61047c600480360360208110156108e357600080fd5b503561155f565b61047c600480360360c081101561090057600080fd5b6001600160a01b03823581169260208101359091169160408201359190810190608081016060820135600160201b81111561093a57600080fd5b82018360208201111561094c57600080fd5b803590602001918460018302840111600160201b8311171561096d57600080fd5b91908080601f0160208091040260200160405190810160405280939291908181526020018383808284376000920191909152509295949360208101935035915050600160201b8111156109bf57600080fd5b8201836020820111156109d157600080fd5b803590602001918460018302840111600160201b831117156109f257600080fd5b91908080601f0160208091040260200160405190810160405280939291908181526020018383808284376000920191909152509295505050903560ff1691506115649050565b61046260048036036020811015610a4e57600080fd5b503561174b565b610462611757565b61043160048036036040811015610a7357600080fd5b506001600160a01b038135169060200135611aaf565b610462611b20565b610462611b26565b61047c60048036036020811015610aaf57600080fd5b5035611bc5565b61046260048036036060811015610acc57600080fd5b506001600160a01b03813581169160208101359091169060400135611bca565b61046260048036036020811015610b0257600080fd5b50356001600160a01b0316611c3b565b610462611cc7565b610b4060048036036020811015610b3057600080fd5b50356001600160a01b0316611d83565b604080519485526020850193909352838301919091526060830152519081900360800190f35b61046260048036036020811015610b7c57600080fd5b5035611e18565b61046260048036036020811015610b9957600080fd5b5035611e23565b61046260048036036040811015610bb657600080fd5b506001600160a01b0381358116916020013516611e2e565b61047c611e59565b610462611e70565b61046260048036036020811015610bf457600080fd5b50356001600160a01b0316611f68565b6106a8611fa2565b61047c611fb1565b61046260048036036060811015610c2a57600080fd5b506001600160a01b03813581169160208101359160409091013516611ff1565b6106a8612009565b61046261201d565b61046260048036036020811015610c7057600080fd5b5035612081565b60018054604080516020600284861615610100026000190190941693909304601f81018490048402820184019092528181529291830182828015610cfc5780601f10610cd157610100808354040283529160200191610cfc565b820191906000526020600020905b815481529060010190602001808311610cdf57829003601f168201915b505050505081565b336000818152600f602090815260408083206001600160a01b03871680855290835281842086905581518681529151939493909284927f8c5be1e5ebec7d5bd14f71427d1e84f3dd0314c0f7b2291e5b200ac8c7c3b925929081900390910190a360019150505b92915050565b600080610d7d836120ff565b509150505b919050565b60035461010090046001600160a01b03163314610dd55760405162461bcd60e51b815260040180806020018281038252602d81526020018061581c602d913960400191505060405180910390fd5b565b60085481565b6000805460ff16610e22576040805162461bcd60e51b815260206004820152600a6024820152691c994b595b9d195c995960b21b604482015290519081900360640190fd5b6000805460ff19168155610e34611757565b14610e7f576040805162461bcd60e51b81526020600482015260166024820152751858d8dc9d59481a5b9d195c995cdd0819985a5b195960521b604482015290519081900360640190fd5b610e8882611502565b90505b6000805460ff19166001179055919050565b600d5481565b6000806000610eb06121a8565b90925090506000826003811115610ec357fe5b14610eff5760405162461bcd60e51b81526004018080602001828103825260358152602001806159696035913960400191505060405180910390fd5b9150505b90565b610f14868686868686611564565b601180546001600160a01b0319166001600160a01b038981169190911791829055604080516318160ddd60e01b8152905192909116916318160ddd91600480820192602092909190829003018186803b158015610f7057600080fd5b505afa158015610f84573d6000803e3d6000fd5b505050506040513d6020811015610f9a57600080fd5b505050505050505050565b600080610fb28484612257565b50949350505050565b6000805460ff16611000576040805162461bcd60e51b815260206004820152600a6024820152691c994b595b9d195c995960b21b604482015290519081900360640190fd5b6000805460ff1916815561101633868686612302565b1490506000805460ff191660011790559392505050565b600080610fb28484612610565b6004546001600160a01b031681565b60035460ff1681565b600061105c615631565b604051806020016040528061106f611cc7565b90526001600160a01b0384166000908152600e602052604081205491925090819061109b908490612692565b909250905060008260038111156110ae57fe5b14611100576040805162461bcd60e51b815260206004820152601f60248201527f62616c616e636520636f756c64206e6f742062652063616c63756c6174656400604482015290519081900360640190fd5b949350505050565b60006111126126e6565b905090565b600181565b6000610d6b82612766565b60035460009061010090046001600160a01b031633146111545761114d6001603f6127fa565b9050610d82565b60055460408051623f1ee960e11b815290516001600160a01b0392831692851691627e3dd2916004808301926020929190829003018186803b15801561119957600080fd5b505afa1580156111ad573d6000803e3d6000fd5b505050506040513d60208110156111c357600080fd5b5051611216576040805162461bcd60e51b815260206004820152601c60248201527f6d61726b6572206d6574686f642072657475726e65642066616c736500000000604482015290519081900360640190fd5b600580546001600160a01b0319166001600160a01b03858116918217909255604080519284168352602083019190915280517f7ac369dbd14fa5ea3f473ed67cc9d598964a77501540ba6751eb0b3decf5870d9281900390910190a160005b9392505050565b600b5481565b60035461010090046001600160a01b031633146112d05760405162461bcd60e51b815260040180806020018281038252602d8152602001806159fa602d913960400191505060405180910390fd5b50565b6012546001600160a01b031681565b6005546001600160a01b031681565b6000805460ff16611336576040805162461bcd60e51b815260206004820152600a6024820152691c994b595b9d195c995960b21b604482015290519081900360640190fd5b6000805460ff19168155611348611757565b9050801561136e5761136681601181111561135f57fe5b60306127fa565b915050610e8b565b61137783612860565b9150506000805460ff19166001179055919050565b60408051808201909152600d81526c34903430bb329039b837b5b2b760991b602082015290565b60095481565b6011546001600160a01b031681565b6001600160a01b03166000908152600e602052604090205490565b6000805460ff16611428576040805162461bcd60e51b815260206004820152600a6024820152691c994b595b9d195c995960b21b604482015290519081900360640190fd5b6000805460ff1916815561143a611757565b14611485576040805162461bcd60e51b81526020600482015260166024820152751858d8dc9d59481a5b9d195c995cdd0819985a5b195960521b604482015290519081900360640190fd5b50600b546000805460ff1916600117905590565b6000610d6b82612954565b600c5481565b6002805460408051602060018416156101000260001901909316849004601f81018490048402820184019092528181529291830182828015610cfc5780601f10610cd157610100808354040283529160200191610cfc565b6000806000611510846129d5565b9092509050600082600381111561152357fe5b146112755760405162461bcd60e51b81526004018080602001828103825260378152602001806158746037913960400191505060405180910390fd5b600b55565b60035461010090046001600160a01b031633146115b25760405162461bcd60e51b81526004018080602001828103825260248152602001806157836024913960400191505060405180910390fd5b6009541580156115c25750600a54155b6115fd5760405162461bcd60e51b81526004018080602001828103825260238152602001806157a76023913960400191505060405180910390fd5b60078490558361163e5760405162461bcd60e51b81526004018080602001828103825260308152602001806157ca6030913960400191505060405180910390fd5b600061164987611127565b9050801561169e576040805162461bcd60e51b815260206004820152601a60248201527f73657474696e6720636f6d7074726f6c6c6572206661696c6564000000000000604482015290519081900360640190fd5b6116a6612a89565b600955670de0b6b3a7640000600a556116be86612ad1565b905080156116fd5760405162461bcd60e51b81526004018080602001828103825260228152602001806157fa6022913960400191505060405180910390fd5b8351611710906001906020870190615644565b508251611724906002906020860190615644565b50506003805460ff90921660ff199283161790556000805490911660011790555050505050565b600080610d7d83612c46565b600080611762612a89565b6009549091508082141561177b57600092505050610f03565b60006117856126e6565b600b54600c54600a54600654604080516315f2405360e01b815260048101879052602481018690526044810185905290519596509394929391926000926001600160a01b03909216916315f24053916064808301926020929190829003018186803b1580156117f357600080fd5b505afa158015611807573d6000803e3d6000fd5b505050506040513d602081101561181d57600080fd5b5051905065048c2739500081111561187c576040805162461bcd60e51b815260206004820152601c60248201527f626f72726f772072617465206973206162737572646c79206869676800000000604482015290519081900360640190fd5b6000806118898989612cc0565b9092509050600082600381111561189c57fe5b146118ee576040805162461bcd60e51b815260206004820152601f60248201527f636f756c64206e6f742063616c63756c61746520626c6f636b2064656c746100604482015290519081900360640190fd5b6118f6615631565b60008060008061191460405180602001604052808a81525087612ce3565b9097509450600087600381111561192757fe5b14611959576119446009600689600381111561193f57fe5b612d4b565b9e505050505050505050505050505050610f03565b611963858c612692565b9097509350600087600381111561197657fe5b1461198e576119446009600189600381111561193f57fe5b611998848c612db1565b909750925060008760038111156119ab57fe5b146119c3576119446009600489600381111561193f57fe5b6119de6040518060200160405280600854815250858c612dd7565b909750915060008760038111156119f157fe5b14611a09576119446009600589600381111561193f57fe5b611a14858a8b612dd7565b90975090506000876003811115611a2757fe5b14611a3f576119446009600389600381111561193f57fe5b60098e9055600a819055600b839055600c829055604080518d8152602081018690528082018390526060810185905290517f4dec04e750ca11537cabcd8a9eab06494de08da3735bc8871cd41250e190bc049181900360800190a160009e50505050505050505050505050505090565b6000805460ff16611af4576040805162461bcd60e51b815260206004820152600a6024820152691c994b595b9d195c995960b21b604482015290519081900360640190fd5b6000805460ff19168155611b0a33338686612302565b1490506000805460ff1916600117905592915050565b600a5481565b6006546000906001600160a01b031663b8168816611b426126e6565b600b54600c546008546040518563ffffffff1660e01b81526004018085815260200184815260200183815260200182815260200194505050505060206040518083038186803b158015611b9457600080fd5b505afa158015611ba8573d6000803e3d6000fd5b505050506040513d6020811015611bbe57600080fd5b5051905090565b600c55565b6000805460ff16611c0f576040805162461bcd60e51b815260206004820152600a6024820152691c994b595b9d195c995960b21b604482015290519081900360640190fd5b6000805460ff19169055611c2533858585612e33565b90506000805460ff191660011790559392505050565b60035460009061010090046001600160a01b03163314611c615761114d600160456127fa565b600480546001600160a01b038481166001600160a01b0319831681179093556040805191909216808252602082019390935281517fca4f2f25d0898edd99413412fb94012f9e54ec8142f9b093e7720646a95b16a9929181900390910190a16000611275565b6000805460ff16611d0c576040805162461bcd60e51b815260206004820152600a6024820152691c994b595b9d195c995960b21b604482015290519081900360640190fd5b6000805460ff19168155611d1e611757565b14611d69576040805162461bcd60e51b81526020600482015260166024820152751858d8dc9d59481a5b9d195c995cdd0819985a5b195960521b604482015290519081900360640190fd5b611d71610ea3565b90506000805460ff1916600117905590565b6001600160a01b0381166000908152600e6020526040812054819081908190818080611dae896129d5565b935090506000816003811115611dc057fe5b14611dde5760095b975060009650869550859450611e119350505050565b611de66121a8565b925090506000816003811115611df857fe5b14611e04576009611dc8565b5060009650919450925090505b9193509193565b6000610d6b82613099565b6000610d6b82613118565b6001600160a01b039182166000908152600f6020908152604080832093909416825291909152205490565b60038054610100600160a81b031916610100179055565b6004546000906001600160a01b03163314611e9857611e91600160006127fa565b9050610f03565b60038054600480546001600160a01b03818116610100818102610100600160a81b0319871617968790556001600160a01b031990931690935560408051948390048216808652929095041660208401528351909391927ff9ffabca9c8276e99321725bcb43fb076a6c66a54b7f21c4e8146d8519b417dc92908290030190a1600454604080516001600160a01b038085168252909216602083015280517fca4f2f25d0898edd99413412fb94012f9e54ec8142f9b093e7720646a95b16a99281900390910190a160009250505090565b600080611f73611757565b90508015611f9957611f91816011811115611f8a57fe5b60406127fa565b915050610d82565b61127583612ad1565b6006546001600160a01b031681565b6040805162461bcd60e51b815260206004820152601060248201526f70726f7465637420746865206261627960801b604482015290519081900360640190fd5b600080611fff858585613192565b5095945050505050565b60035461010090046001600160a01b031681565b6006546000906001600160a01b03166315f240536120396126e6565b600b54600c546040518463ffffffff1660e01b815260040180848152602001838152602001828152602001935050505060206040518083038186803b158015611b9457600080fd5b6000805460ff166120c6576040805162461bcd60e51b815260206004820152600a6024820152691c994b595b9d195c995960b21b604482015290519081900360640190fd5b6000805460ff191681556120d8611757565b905080156120f6576113668160118111156120ef57fe5b60466127fa565b611377836132c4565b60008054819060ff16612146576040805162461bcd60e51b815260206004820152600a6024820152691c994b595b9d195c995960b21b604482015290519081900360640190fd5b6000805460ff19168155612158611757565b905080156121835761217681601181111561216f57fe5b60366127fa565b9250600091506121949050565b61218e33338661336c565b92509250505b6000805460ff191660011790559092909150565b600d546000908190806121c357505060075460009150612253565b60006121cd6126e6565b905060006121d9615631565b60006121ea84600b54600c54613751565b9350905060008160038111156121fc57fe5b14612211579550600094506122539350505050565b61221b838661378f565b92509050600081600381111561222d57fe5b14612242579550600094506122539350505050565b505160009550935061225392505050565b9091565b60008054819060ff1661229e576040805162461bcd60e51b815260206004820152600a6024820152691c994b595b9d195c995960b21b604482015290519081900360640190fd5b6000805460ff191681556122b0611757565b905080156122db576122ce8160118111156122c757fe5b601e6127fa565b9250600091506122ec9050565b6122e633868661383f565b92509250505b6000805460ff1916600117905590939092509050565b600554604080516317b9b84b60e31b81523060048201526001600160a01b03868116602483015285811660448301526064820185905291516000938493169163bdcdc25891608480830192602092919082900301818787803b15801561236757600080fd5b505af115801561237b573d6000803e3d6000fd5b505050506040513d602081101561239157600080fd5b5051905080156123b0576123a86003604a83612d4b565b915050611100565b836001600160a01b0316856001600160a01b031614156123d6576123a86002604b6127fa565b60006001600160a01b0387811690871614156123f5575060001961241d565b506001600160a01b038086166000908152600f60209081526040808320938a16835292905220545b60008060008061242d8589612cc0565b9094509250600084600381111561244057fe5b1461245e576124516009604b6127fa565b9650505050505050611100565b6001600160a01b038a166000908152600e60205260409020546124819089612cc0565b9094509150600084600381111561249457fe5b146124a5576124516009604c6127fa565b6001600160a01b0389166000908152600e60205260409020546124c89089612db1565b909450905060008460038111156124db57fe5b146124ec576124516009604d6127fa565b6001600160a01b03808b166000908152600e6020526040808220859055918b168152208190556000198514612544576001600160a01b03808b166000908152600f60209081526040808320938f168352929052208390555b886001600160a01b03168a6001600160a01b03166000805160206158e58339815191528a6040518082815260200191505060405180910390a36005546040805163352b4a3f60e11b81523060048201526001600160a01b038d811660248301528c81166044830152606482018c905291519190921691636a56947e91608480830192600092919082900301818387803b1580156125e057600080fd5b505af11580156125f4573d6000803e3d6000fd5b5060009250612601915050565b9b9a5050505050505050505050565b60008054819060ff16612657576040805162461bcd60e51b815260206004820152600a6024820152691c994b595b9d195c995960b21b604482015290519081900360640190fd5b6000805460ff19168155612669611757565b90508015612687576122ce81601181111561268057fe5b60356127fa565b6122e633868661336c565b600080600061269f615631565b6126a98686612ce3565b909250905060008260038111156126bc57fe5b146126cd57509150600090506126df565b60006126d882613ccb565b9350935050505b9250929050565b601154604080516370a0823160e01b815230600482015290516000926001600160a01b03169182916370a0823191602480820192602092909190829003018186803b15801561273457600080fd5b505afa158015612748573d6000803e3d6000fd5b505050506040513d602081101561275e57600080fd5b505191505090565b6000805460ff166127ab576040805162461bcd60e51b815260206004820152600a6024820152691c994b595b9d195c995960b21b604482015290519081900360640190fd5b6000805460ff191681556127bd611757565b905080156127db576113668160118111156127d457fe5b604e6127fa565b6127e483613cda565b509150506000805460ff19166001179055919050565b60007f45b96fe442630264581b197e84bbada861235052c5a1aadfff9ea4e40a969aa083601181111561282957fe5b83605681111561283557fe5b604080519283526020830191909152600082820152519081900360600190a182601181111561127557fe5b600354600090819061010090046001600160a01b0316331461288857611f91600160316127fa565b612890612a89565b600954146128a457611f91600a60336127fa565b826128ad6126e6565b10156128bf57611f91600e60326127fa565b600c548311156128d557611f91600260346127fa565b50600c8054839003908190556003546128fc9061010090046001600160a01b031684613dc2565b600354604080516101009092046001600160a01b0316825260208201859052818101839052517f3bad0c59cf2f06e7314077049f48a93578cd16f5ef92329f1dab1420a99c177e916060908290030190a16000611275565b6000805460ff16612999576040805162461bcd60e51b815260206004820152600a6024820152691c994b595b9d195c995960b21b604482015290519081900360640190fd5b6000805460ff191681556129ab611757565b905080156129c9576113668160118111156129c257fe5b60276127fa565b61137733600085613eb9565b6001600160a01b038116600090815260106020526040812080548291829182918291612a0c575060009450849350612a8492505050565b612a1c8160000154600a54614634565b90945092506000846003811115612a2f57fe5b14612a44575091935060009250612a84915050565b612a52838260010154614673565b90945091506000846003811115612a6557fe5b14612a7a575091935060009250612a84915050565b5060009450925050505b915091565b600554604080516357e871e760e01b815290516000926001600160a01b03169182916357e871e791600480820192602092909190829003018186803b15801561273457600080fd5b600354600090819061010090046001600160a01b03163314612af957611f91600160426127fa565b612b01612a89565b60095414612b1557611f91600a60416127fa565b600660009054906101000a90046001600160a01b03169050826001600160a01b0316632191f92a6040518163ffffffff1660e01b815260040160206040518083038186803b158015612b6657600080fd5b505afa158015612b7a573d6000803e3d6000fd5b505050506040513d6020811015612b9057600080fd5b5051612be3576040805162461bcd60e51b815260206004820152601c60248201527f6d61726b6572206d6574686f642072657475726e65642066616c736500000000604482015290519081900360640190fd5b600680546001600160a01b0319166001600160a01b03858116918217909255604080519284168352602083019190915280517fedffc32e068c7c95dfd4bdfd5c4d939a084d6b11c4199eac8436ed234d72f9269281900390910190a16000611275565b60008054819060ff16612c8d576040805162461bcd60e51b815260206004820152600a6024820152691c994b595b9d195c995960b21b604482015290519081900360640190fd5b6000805460ff19168155612c9f611757565b90508015612cb6576121768160118111156122c757fe5b61218e338561469e565b600080838311612cd75750600090508183036126df565b506003905060006126df565b6000612ced615631565b600080612cfe866000015186614634565b90925090506000826003811115612d1157fe5b14612d30575060408051602081019091526000815290925090506126df565b60408051602081019091529081526000969095509350505050565b60007f45b96fe442630264581b197e84bbada861235052c5a1aadfff9ea4e40a969aa0846011811115612d7a57fe5b846056811115612d8657fe5b604080519283526020830191909152818101859052519081900360600190a183601181111561110057fe5b600080838301848110612dc9576000925090506126df565b5060029150600090506126df565b6000806000612de4615631565b612dee8787612ce3565b90925090506000826003811115612e0157fe5b14612e125750915060009050612e2b565b612e24612e1e82613ccb565b86612db1565b9350935050505b935093915050565b6005546040805163d02f735160e01b81523060048201526001600160a01b038781166024830152868116604483015285811660648301526084820185905291516000938493169163d02f73519160a480830192602092919082900301818787803b158015612ea057600080fd5b505af1158015612eb4573d6000803e3d6000fd5b505050506040513d6020811015612eca57600080fd5b505190508015612ee1576123a86003601b83612d4b565b846001600160a01b0316846001600160a01b03161415612f07576123a86006601c6127fa565b6001600160a01b0384166000908152600e602052604081205481908190612f2e9087612cc0565b90935091506000836003811115612f4157fe5b14612f6457612f596009601a85600381111561193f57fe5b945050505050611100565b6001600160a01b0388166000908152600e6020526040902054612f879087612db1565b90935090506000836003811115612f9a57fe5b14612fb257612f596009601985600381111561193f57fe5b6001600160a01b038088166000818152600e60209081526040808320879055938c168083529184902085905583518a8152935191936000805160206158e5833981519152929081900390910190a360055460408051636d35bf9160e01b81523060048201526001600160a01b038c811660248301528b811660448301528a81166064830152608482018a905291519190921691636d35bf919160a480830192600092919082900301818387803b15801561306b57600080fd5b505af115801561307f573d6000803e3d6000fd5b506000925061308c915050565b9998505050505050505050565b6000805460ff166130de576040805162461bcd60e51b815260206004820152600a6024820152691c994b595b9d195c995960b21b604482015290519081900360640190fd5b6000805460ff191681556130f0611757565b9050801561310e5761136681601181111561310757fe5b60086127fa565b6113773384614ae5565b6000805460ff1661315d576040805162461bcd60e51b815260206004820152600a6024820152691c994b595b9d195c995960b21b604482015290519081900360640190fd5b6000805460ff1916815561316f611757565b90508015613186576113668160118111156129c257fe5b61137733846000613eb9565b60008054819060ff166131d9576040805162461bcd60e51b815260206004820152600a6024820152691c994b595b9d195c995960b21b604482015290519081900360640190fd5b6000805460ff191681556131eb611757565b905080156132165761320981601181111561320257fe5b600f6127fa565b9250600091506132ad9050565b836001600160a01b031663a6afed956040518163ffffffff1660e01b8152600401602060405180830381600087803b15801561325157600080fd5b505af1158015613265573d6000803e3d6000fd5b505050506040513d602081101561327b57600080fd5b50519050801561329b5761320981601181111561329457fe5b60106127fa565b6132a733878787614df3565b92509250505b6000805460ff191660011790559094909350915050565b60035460009061010090046001600160a01b031633146132ea5761114d600160476127fa565b6132f2612a89565b600954146133065761114d600a60486127fa565b670de0b6b3a76400008211156133225761114d600260496127fa565b6008805490839055604080518281526020810185905281517faaa68312e2ea9d50e16af5068410ab56e1a1fd06037b1a35664812c30f821460929181900390910190a16000611275565b60055460408051631200453160e11b81523060048201526001600160a01b0386811660248301528581166044830152606482018590529151600093849384939116916324008a629160848082019260209290919082900301818787803b1580156133d557600080fd5b505af11580156133e9573d6000803e3d6000fd5b505050506040513d60208110156133ff57600080fd5b505190508015613423576134166003603883612d4b565b925060009150612e2b9050565b61342b612a89565b6009541461343f57613416600a60396127fa565b6134476156c2565b6001600160a01b0386166000908152601060205260409020600101546060820152613471866129d5565b608083018190526020830182600381111561348857fe5b600381111561349357fe5b90525060009050816020015160038111156134aa57fe5b146134d4576134c6600960378360200151600381111561193f57fe5b935060009250612e2b915050565b6000198514156134ed57608081015160408201526134f5565b604081018590525b613503878260400151615376565b60e08201819052608082015161351891612cc0565b60a083018190526020830182600381111561352f57fe5b600381111561353a57fe5b905250600090508160200151600381111561355157fe5b1461358d5760405162461bcd60e51b815260040180806020018281038252603a8152602001806158ab603a913960400191505060405180910390fd5b61359d600b548260e00151612cc0565b60c08301819052602083018260038111156135b457fe5b60038111156135bf57fe5b90525060009050816020015160038111156135d657fe5b146136125760405162461bcd60e51b81526004018080602001828103825260318152602001806159056031913960400191505060405180910390fd5b60a080820180516001600160a01b03808a16600081815260106020908152604091829020948555600a5460019095019490945560c0870151600b81905560e088015195518251948f16855294840192909252828101949094526060820192909252608081019190915290517f1a2a22cb034d26d1854bdc6666a5b91fe25efbbb5dcad3b0355478d6f5c362a1929181900390910190a160055460e0820151606083015160408051631ededc9160e01b81523060048201526001600160a01b038c811660248301528b8116604483015260648201949094526084810192909252519190921691631ededc919160a480830192600092919082900301818387803b15801561371d57600080fd5b505af1158015613731573d6000803e3d6000fd5b506000925061373e915050565b8160e00151935093505050935093915050565b6000806000806137618787612db1565b9092509050600082600381111561377457fe5b146137855750915060009050612e2b565b612e248186612cc0565b6000613799615631565b6000806137ae86670de0b6b3a7640000614634565b909250905060008260038111156137c157fe5b146137e0575060408051602081019091526000815290925090506126df565b6000806137ed8388614673565b9092509050600082600381111561380057fe5b14613822575060408051602081019091526000815290945092506126df915050565b604080516020810190915290815260009890975095505050505050565b6000806001600160a01b038416613893576040805162461bcd60e51b81526020600482015260136024820152721c9958d95a5d995c881a5cc81a5b9d985b1a59606a1b604482015290519081900360640190fd5b60055460408051634ef4c3e160e01b81523060048201526001600160a01b0387811660248301526044820187905291516000939290921691634ef4c3e19160648082019260209290919082900301818787803b1580156138f257600080fd5b505af1158015613906573d6000803e3d6000fd5b505050506040513d602081101561391c57600080fd5b505190508015613933576134166003601f83612d4b565b61393b612a89565b6009541461394f57613416600a60226127fa565b613957615708565b61395f6121a8565b602083018190528282600381111561397357fe5b600381111561397e57fe5b905250600090508151600381111561399257fe5b146139ae576134c6600960218360000151600381111561193f57fe5b6139b88786615376565b60a082018190526040805160208082019092529083015181526139db91906155c0565b60408301819052828260038111156139ef57fe5b60038111156139fa57fe5b9052506000905081516003811115613a0e57fe5b14613a60576040805162461bcd60e51b815260206004820181905260248201527f4d494e545f45584348414e47455f43414c43554c4154494f4e5f4641494c4544604482015290519081900360640190fd5b613a70600d548260400151612db1565b6060830181905282826003811115613a8457fe5b6003811115613a8f57fe5b9052506000905081516003811115613aa357fe5b14613adf5760405162461bcd60e51b815260040180806020018281038252602881526020018061599e6028913960400191505060405180910390fd5b6001600160a01b0386166000908152600e6020526040908190205490820151613b089190612db1565b6080830181905282826003811115613b1c57fe5b6003811115613b2757fe5b9052506000905081516003811115613b3b57fe5b14613b775760405162461bcd60e51b815260040180806020018281038252602b815260200180615849602b913960400191505060405180910390fd5b606080820151600d556080808301516001600160a01b03808a166000818152600e60209081526040918290209490945560a0870151818801518251948f16855294840192909252828101919091529381019190915291517f297989b84a5f5b82d2ee0c266504c19bd9b10b410f187dc72ca4b0f0faecb3459281900390910190a1604080820151815190815290516001600160a01b0388169130916000805160206158e58339815191529181900360200190a360055460a082015160408084015181516341c728b960e01b81523060048201526001600160a01b038b8116602483015260448201949094526064810191909152905191909216916341c728b991608480830192600092919082900301818387803b158015613c9757600080fd5b505af1158015613cab573d6000803e3d6000fd5b5060009250613cb8915050565b8160a00151935093505050935093915050565b51670de0b6b3a7640000900490565b600080600080613ce8612a89565b60095414613d0757613cfc600a604f6127fa565b93509150612a849050565b613d113386615376565b905080600c54019150600c54821015613d71576040805162461bcd60e51b815260206004820181905260248201527f61646420726573657276657320756e6578706563746564206f766572666c6f77604482015290519081900360640190fd5b600c829055604080513381526020810183905280820184905290517fa91e67c5ea634cd43a12c5a482724b03de01e85ca68702a53d0c2f45cb7c1dc59181900360600190a160009350915050915091565b6011546040805163a9059cbb60e01b81526001600160a01b0385811660048301526024820185905291519190921691829163a9059cbb9160448082019260009290919082900301818387803b158015613e1a57600080fd5b505af1158015613e2e573d6000803e3d6000fd5b5050505060003d60008114613e4a5760208114613e5457600080fd5b6000199150613e60565b60206000803e60005191505b5080613eb3576040805162461bcd60e51b815260206004820152601960248201527f544f4b454e5f5452414e534645525f4f55545f4641494c454400000000000000604482015290519081900360640190fd5b50505050565b6000821580613ec6575081155b613f015760405162461bcd60e51b81526004018080602001828103825260348152602001806159c66034913960400191505060405180910390fd5b613f09615708565b613f116121a8565b6020830181905282826003811115613f2557fe5b6003811115613f3057fe5b9052506000905081516003811115613f4457fe5b14613f6857613f606009602b8360000151600381111561193f57fe5b915050611275565b8315613fe457604080820185905280516020808201909252908201518152613f909085612692565b6060830181905282826003811115613fa457fe5b6003811115613faf57fe5b9052506000905081516003811115613fc357fe5b14613fdf57613f60600960298360000151600381111561193f57fe5b614057565b61400083604051806020016040528084602001518152506155c0565b604083018190528282600381111561401457fe5b600381111561401f57fe5b905250600090508151600381111561403357fe5b1461404f57613f606009602a8360000151600381111561193f57fe5b606081018390525b600554604080830151815163eabe7d9160e01b81523060048201526001600160a01b03898116602483015260448201929092529151600093919091169163eabe7d9191606480830192602092919082900301818787803b1580156140ba57600080fd5b505af11580156140ce573d6000803e3d6000fd5b505050506040513d60208110156140e457600080fd5b505190508015614104576140fb6003602883612d4b565b92505050611275565b61410c612a89565b60095414614120576140fb600a602c6127fa565b614130600d548360400151612cc0565b608084018190528382600381111561414457fe5b600381111561414f57fe5b905250600090508251600381111561416357fe5b1461417f576140fb6009602e8460000151600381111561193f57fe5b6001600160a01b0386166000908152600e60205260409081902054908301516141a89190612cc0565b60a08401819052838260038111156141bc57fe5b60038111156141c757fe5b90525060009050825160038111156141db57fe5b146141f7576140fb6009602d8460000151600381111561193f57fe5b81606001516142046126e6565b1015614216576140fb600e602f6127fa565b600080600560009054906101000a90046001600160a01b03166001600160a01b03166304ef9d586040518163ffffffff1660e01b815260040160206040518083038186803b15801561426757600080fd5b505afa15801561427b573d6000803e3d6000fd5b505050506040513d602081101561429157600080fd5b5051156144eb57606084015160055460408051629df3ab60e31b8152905161431493926001600160a01b0316916304ef9d58916004808301926020929190829003018186803b1580156142e357600080fd5b505afa1580156142f7573d6000803e3d6000fd5b505050506040513d602081101561430d57600080fd5b5051614634565b9250828582600381111561432457fe5b600381111561432f57fe5b905250600090508451600381111561434357fe5b1461436a5761435f600960568660000151600381111561193f57fe5b945050505050611275565b61437c82670de0b6b3a7640000614673565b9250828582600381111561438c57fe5b600381111561439757fe5b90525060009050845160038111156143ab57fe5b146143c75761435f600960568660000151600381111561193f57fe5b6143d5846060015183612cc0565b915081858260038111156143e557fe5b60038111156143f057fe5b905250600090508451600381111561440457fe5b146144205761435f600960568660000151600381111561193f57fe5b6005546040805163c5f956af60e01b81529051614498926001600160a01b03169163c5f956af916004808301926020929190829003018186803b15801561446657600080fd5b505afa15801561447a573d6000803e3d6000fd5b505050506040513d602081101561449057600080fd5b505183613dc2565b60408085015181516001600160a01b038b168152602081018590528083019190915290517fccf8e53b86a99b7e9ecf796342c165764d66154780f638c08e6241d711fba6d49181900360600190a16144f2565b5060608301515b6144fc8882613dc2565b6080840151600d5560a08401516001600160a01b0389166000818152600e602090815260409182902093909355808701518151908152905130936000805160206158e5833981519152928290030190a360408085015181516001600160a01b038b168152602081018490528083019190915290517fe5b754fb1abb7f01b499791d0b820ae3b6af3424ac1c59768edb53f4ec31a9299181900360600190a1600554606085015160408087015181516351dff98960e01b81523060048201526001600160a01b038d8116602483015260448201949094526064810191909152905191909216916351dff98991608480830192600092919082900301818387803b15801561460757600080fd5b505af115801561461b573d6000803e3d6000fd5b5060009250614628915050565b98975050505050505050565b60008083614647575060009050806126df565b8383028385828161465457fe5b0414614668575060029150600090506126df565b6000925090506126df565b6000808261468757506001905060006126df565b600083858161469257fe5b04915091509250929050565b60055460408051634ef4c3e160e01b81523060048201526001600160a01b03858116602483015260448201859052915160009384938493911691634ef4c3e19160648082019260209290919082900301818787803b1580156146ff57600080fd5b505af1158015614713573d6000803e3d6000fd5b505050506040513d602081101561472957600080fd5b50519050801561474d576147406003601f83612d4b565b9250600091506126df9050565b614755612a89565b6009541461476957614740600a60226127fa565b614771615708565b6147796121a8565b602083018190528282600381111561478d57fe5b600381111561479857fe5b90525060009050815160038111156147ac57fe5b146147d6576147c8600960218360000151600381111561193f57fe5b9350600092506126df915050565b6147e08686615376565b60a0820181905260408051602080820190925290830151815261480391906155c0565b604083018190528282600381111561481757fe5b600381111561482257fe5b905250600090508151600381111561483657fe5b14614888576040805162461bcd60e51b815260206004820181905260248201527f4d494e545f45584348414e47455f43414c43554c4154494f4e5f4641494c4544604482015290519081900360640190fd5b614898600d548260400151612db1565b60608301819052828260038111156148ac57fe5b60038111156148b757fe5b90525060009050815160038111156148cb57fe5b146149075760405162461bcd60e51b815260040180806020018281038252602881526020018061599e6028913960400191505060405180910390fd5b6001600160a01b0386166000908152600e60205260409081902054908201516149309190612db1565b608083018190528282600381111561494457fe5b600381111561494f57fe5b905250600090508151600381111561496357fe5b1461499f5760405162461bcd60e51b815260040180806020018281038252602b815260200180615849602b913960400191505060405180910390fd5b606080820151600d5560808201516001600160a01b0388166000818152600e60209081526040918290209390935560a0850151818601518251938452938301528181019290925290517f4c209b5fc8ad50758f13e2e1088ba56a560dff690a1c6fef26394f4c03821c4f929181900390910190a1604080820151815190815290516001600160a01b0388169130916000805160206158e58339815191529181900360200190a360055460a082015160408084015181516341c728b960e01b81523060048201526001600160a01b038b8116602483015260448201949094526064810191909152905191909216916341c728b991608480830192600092919082900301818387803b158015614ab257600080fd5b505af1158015614ac6573d6000803e3d6000fd5b5060009250614ad3915050565b8160a001519350935050509250929050565b6005546040805163368f515360e21b81523060048201526001600160a01b0385811660248301526044820185905291516000938493169163da3d454c91606480830192602092919082900301818787803b158015614b4257600080fd5b505af1158015614b56573d6000803e3d6000fd5b505050506040513d6020811015614b6c57600080fd5b505190508015614b8b57614b836003600e83612d4b565b915050610d6b565b614b93612a89565b60095414614ba657614b83600a806127fa565b82614baf6126e6565b1015614bc157614b83600e60096127fa565b614bc961573f565b614bd2856129d5565b6020830181905282826003811115614be657fe5b6003811115614bf157fe5b9052506000905081516003811115614c0557fe5b14614c2a57614c21600960078360000151600381111561193f57fe5b92505050610d6b565b614c38816020015185612db1565b6040830181905282826003811115614c4c57fe5b6003811115614c5757fe5b9052506000905081516003811115614c6b57fe5b14614c8757614c216009600c8360000151600381111561193f57fe5b614c93600b5485612db1565b6060830181905282826003811115614ca757fe5b6003811115614cb257fe5b9052506000905081516003811115614cc657fe5b14614ce257614c216009600b8360000151600381111561193f57fe5b614cec8585613dc2565b604080820180516001600160a01b03881660008181526010602090815290859020928355600a54600190930192909255606080860151600b81905593518551928352928201899052818501929092529081019190915290517f13ed6866d4e1ee6da46f845c46d7e54120883d75c5ea9a2dacc1c4ca8984ab809181900360800190a160055460408051635c77860560e01b81523060048201526001600160a01b0388811660248301526044820188905291519190921691635c77860591606480830192600092919082900301818387803b158015614dc957600080fd5b505af1158015614ddd573d6000803e3d6000fd5b5060009250614dea915050565b95945050505050565b60055460408051632fe3f38f60e11b81523060048201526001600160a01b0384811660248301528781166044830152868116606483015260848201869052915160009384938493911691635fc7e71e9160a48082019260209290919082900301818787803b158015614e6457600080fd5b505af1158015614e78573d6000803e3d6000fd5b505050506040513d6020811015614e8e57600080fd5b505190508015614eb257614ea56003601283612d4b565b92506000915061536d9050565b614eba612a89565b60095414614ece57614ea5600a60166127fa565b614ed6612a89565b846001600160a01b0316636c540baf6040518163ffffffff1660e01b815260040160206040518083038186803b158015614f0f57600080fd5b505afa158015614f23573d6000803e3d6000fd5b505050506040513d6020811015614f3957600080fd5b505114614f4c57614ea5600a60116127fa565b866001600160a01b0316866001600160a01b03161415614f7257614ea5600660176127fa565b84614f8357614ea5600760156127fa565b600019851415614f9957614ea5600760146127fa565b600080614fa789898961336c565b90925090508115614fd757614fc8826011811115614fc157fe5b60186127fa565b94506000935061536d92505050565b6005546040805163c488847b60e01b81523060048201526001600160a01b038981166024830152604482018590528251600094859492169263c488847b926064808301939192829003018186803b15801561503157600080fd5b505afa158015615045573d6000803e3d6000fd5b505050506040513d604081101561505b57600080fd5b508051602090910151909250905081156150a65760405162461bcd60e51b81526004018080602001828103825260338152602001806159366033913960400191505060405180910390fd5b80886001600160a01b03166370a082318c6040518263ffffffff1660e01b815260040180826001600160a01b03166001600160a01b0316815260200191505060206040518083038186803b1580156150fd57600080fd5b505afa158015615111573d6000803e3d6000fd5b505050506040513d602081101561512757600080fd5b5051101561517c576040805162461bcd60e51b815260206004820152601860248201527f4c49515549444154455f5345495a455f544f4f5f4d5543480000000000000000604482015290519081900360640190fd5b60006001600160a01b0389163014156151a25761519b308d8d85612e33565b905061522c565b6040805163b2a02ff160e01b81526001600160a01b038e811660048301528d81166024830152604482018590529151918b169163b2a02ff1916064808201926020929091908290030181600087803b1580156151fd57600080fd5b505af1158015615211573d6000803e3d6000fd5b505050506040513d602081101561522757600080fd5b505190505b8015615276576040805162461bcd60e51b81526020600482015260146024820152731d1bdad95b881cd95a5e9d5c994819985a5b195960621b604482015290519081900360640190fd5b604080516001600160a01b03808f168252808e1660208301528183018790528b1660608201526080810184905290517f298637f684da70674f26509b10f07ec2fbc77a335ab1e7d6215a4b2484d8bb529181900360a00190a1600554604080516347ef3b3b60e01b81523060048201526001600160a01b038c811660248301528f811660448301528e811660648301526084820188905260a48201869052915191909216916347ef3b3b9160c480830192600092919082900301818387803b15801561534157600080fd5b505af1158015615355573d6000803e3d6000fd5b5060009250615362915050565b975092955050505050505b94509492505050565b601154604080516370a0823160e01b815230600482015290516000926001600160a01b031691839183916370a08231916024808301926020929190829003018186803b1580156153c557600080fd5b505afa1580156153d9573d6000803e3d6000fd5b505050506040513d60208110156153ef57600080fd5b5051604080516323b872dd60e01b81526001600160a01b038881166004830152306024830152604482018890529151929350908416916323b872dd9160648082019260009290919082900301818387803b15801561544c57600080fd5b505af1158015615460573d6000803e3d6000fd5b5050505060003d6000811461547c576020811461548657600080fd5b6000199150615492565b60206000803e60005191505b50806154e5576040805162461bcd60e51b815260206004820152601860248201527f544f4b454e5f5452414e534645525f494e5f4641494c45440000000000000000604482015290519081900360640190fd5b601154604080516370a0823160e01b815230600482015290516000926001600160a01b0316916370a08231916024808301926020929190829003018186803b15801561553057600080fd5b505afa158015615544573d6000803e3d6000fd5b505050506040513d602081101561555a57600080fd5b50519050828110156155b3576040805162461bcd60e51b815260206004820152601a60248201527f544f4b454e5f5452414e534645525f494e5f4f564552464c4f57000000000000604482015290519081900360640190fd5b9190910395945050505050565b60008060006155cd615631565b6126a9868660006155dc615631565b6000806155f1670de0b6b3a764000087614634565b9092509050600082600381111561560457fe5b14615623575060408051602081019091526000815290925090506126df565b6126d881866000015161378f565b6040518060200160405280600081525090565b828054600181600116156101000203166002900490600052602060002090601f016020900481019282601f1061568557805160ff19168380011785556156b2565b828001600101855582156156b2579182015b828111156156b2578251825591602001919060010190615697565b506156be929150615768565b5090565b6040805161010081019091528060008152602001600081526020016000815260200160008152602001600081526020016000815260200160008152602001600081525090565b6040805160c08101909152806000815260200160008152602001600081526020016000815260200160008152602001600081525090565b604080516080810190915280600081526020016000815260200160008152602001600081525090565b610f0391905b808211156156be576000815560010161576e56fe6f6e6c792061646d696e206d617920696e697469616c697a6520746865206d61726b65746d61726b6574206d6179206f6e6c7920626520696e697469616c697a6564206f6e6365696e697469616c2065786368616e67652072617465206d7573742062652067726561746572207468616e207a65726f2e73657474696e6720696e7465726573742072617465206d6f64656c206661696c65646f6e6c79207468652061646d696e206d61792063616c6c205f72657369676e496d706c656d656e746174696f6e4d494e545f4e45575f4143434f554e545f42414c414e43455f43414c43554c4154494f4e5f4641494c4544626f72726f7742616c616e636553746f7265643a20626f72726f7742616c616e636553746f726564496e7465726e616c206661696c656452455041595f424f52524f575f4e45575f4143434f554e545f424f52524f575f42414c414e43455f43414c43554c4154494f4e5f4641494c4544ddf252ad1be2c89b69c2b068fc378daa952ba7f163c4a11628f55a4df523b3ef52455041595f424f52524f575f4e45575f544f54414c5f42414c414e43455f43414c43554c4154494f4e5f4641494c45444c49515549444154455f434f4d5054524f4c4c45525f43414c43554c4154455f414d4f554e545f5345495a455f4641494c454465786368616e67655261746553746f7265643a2065786368616e67655261746553746f726564496e7465726e616c206661696c65644d494e545f4e45575f544f54414c5f535550504c595f43414c43554c4154494f4e5f4641494c45446f6e65206f662072656465656d546f6b656e73496e206f722072656465656d416d6f756e74496e206d757374206265207a65726f6f6e6c79207468652061646d696e206d61792063616c6c205f6265636f6d65496d706c656d656e746174696f6ea265627a7a72315820cb03c9bfff3e4f95b3177a94f08de8d5b996bb1bb6710a745dd749cffb3152bd64736f6c63430005100032",
  "linkReferences": {},
  "deployedLinkReferences": {}
}