{
  "_format": "hh-sol-artifact-1",
  "contractName": "VBep20Delegator",
  "sourceName": "contracts/VBep20Delegator.sol",
  "abi": [
    {
      "inputs": [
        {
          "internalType": "address",
          "name": "underlying_",
          "type": "address"
        },
        {
          "internalType": "contract ComptrollerInterface",
          "name": "comptroller_",
          "type": "address"
        },
        {
          "internalType": "contract InterestRateModel",
          "name": "interestRateModel_",
          "type": "address"
        },
        {
          "internalType": "uint256",
          "name": "initialExchangeRateMantissa_",
          "type": "uint256"
        },
        {
          "internalType": "string",
          "name": "name_",
          "type": "string"
        },
        {
          "internalType": "string",
          "name": "symbol_",
          "type": "string"
        },
        {
          "internalType": "uint8",
          "name": "decimals_",
          "type": "uint8"
        },
        {
          "internalType": "address payable",
          "name": "admin_",
          "type": "address"
        },
        {
          "internalType": "address",
          "name": "implementation_",
          "type": "address"
        },
        {
          "internalType": "bytes",
          "name": "becomeImplementationData",
          "type": "bytes"
        }
      ],
      "payable": false,
      "stateMutability": "nonpayable",
      "type": "constructor"
    },
    {
      "anonymous": false,
      "inputs": [
        {
          "indexed": false,
          "internalType": "uint256",
          "name": "cashPrior",
          "type": "uint256"
        },
        {
          "indexed": false,
          "internalType": "uint256",
          "name": "interestAccumulated",
          "type": "uint256"
        },
        {
          "indexed": false,
          "internalType": "uint256",
          "name": "borrowIndex",
          "type": "uint256"
        },
        {
          "indexed": false,
          "internalType": "uint256",
          "name": "totalBorrows",
          "type": "uint256"
        }
      ],
      "name": "AccrueInterest",
      "type": "event"
    },
    {
      "anonymous": false,
      "inputs": [
        {
          "indexed": true,
          "internalType": "address",
          "name": "owner",
          "type": "address"
        },
        {
          "indexed": true,
          "internalType": "address",
          "name": "spender",
          "type": "address"
        },
        {
          "indexed": false,
          "internalType": "uint256",
          "name": "amount",
          "type": "uint256"
        }
      ],
      "name": "Approval",
      "type": "event"
    },
    {
      "anonymous": false,
      "inputs": [
        {
          "indexed": false,
          "internalType": "address",
          "name": "borrower",
          "type": "address"
        },
        {
          "indexed": false,
          "internalType": "uint256",
          "name": "borrowAmount",
          "type": "uint256"
        },
        {
          "indexed": false,
          "internalType": "uint256",
          "name": "accountBorrows",
          "type": "uint256"
        },
        {
          "indexed": false,
          "internalType": "uint256",
          "name": "totalBorrows",
          "type": "uint256"
        }
      ],
      "name": "Borrow",
      "type": "event"
    },
    {
      "anonymous": false,
      "inputs": [
        {
          "indexed": false,
          "internalType": "uint256",
          "name": "error",
          "type": "uint256"
        },
        {
          "indexed": false,
          "internalType": "uint256",
          "name": "info",
          "type": "uint256"
        },
        {
          "indexed": false,
          "internalType": "uint256",
          "name": "detail",
          "type": "uint256"
        }
      ],
      "name": "Failure",
      "type": "event"
    },
    {
      "anonymous": false,
      "inputs": [
        {
          "indexed": false,
          "internalType": "address",
          "name": "liquidator",
          "type": "address"
        },
        {
          "indexed": false,
          "internalType": "address",
          "name": "borrower",
          "type": "address"
        },
        {
          "indexed": false,
          "internalType": "uint256",
          "name": "repayAmount",
          "type": "uint256"
        },
        {
          "indexed": false,
          "internalType": "address",
          "name": "vTokenCollateral",
          "type": "address"
        },
        {
          "indexed": false,
          "internalType": "uint256",
          "name": "seizeTokens",
          "type": "uint256"
        }
      ],
      "name": "LiquidateBorrow",
      "type": "event"
    },
    {
      "anonymous": false,
      "inputs": [
        {
          "indexed": false,
          "internalType": "address",
          "name": "minter",
          "type": "address"
        },
        {
          "indexed": false,
          "internalType": "uint256",
          "name": "mintAmount",
          "type": "uint256"
        },
        {
          "indexed": false,
          "internalType": "uint256",
          "name": "mintTokens",
          "type": "uint256"
        }
      ],
      "name": "Mint",
      "type": "event"
    },
    {
      "anonymous": false,
      "inputs": [
        {
          "indexed": false,
          "internalType": "address",
          "name": "payer",
          "type": "address"
        },
        {
          "indexed": false,
          "internalType": "address",
          "name": "receiver",
          "type": "address"
        },
        {
          "indexed": false,
          "internalType": "uint256",
          "name": "mintAmount",
          "type": "uint256"
        },
        {
          "indexed": false,
          "internalType": "uint256",
          "name": "mintTokens",
          "type": "uint256"
        }
      ],
      "name": "MintBehalf",
      "type": "event"
    },
    {
      "anonymous": false,
      "inputs": [
        {
          "indexed": false,
          "internalType": "address",
          "name": "oldAdmin",
          "type": "address"
        },
        {
          "indexed": false,
          "internalType": "address",
          "name": "newAdmin",
          "type": "address"
        }
      ],
      "name": "NewAdmin",
      "type": "event"
    },
    {
      "anonymous": false,
      "inputs": [
        {
          "indexed": false,
          "internalType": "contract ComptrollerInterface",
          "name": "oldComptroller",
          "type": "address"
        },
        {
          "indexed": false,
          "internalType": "contract ComptrollerInterface",
          "name": "newComptroller",
          "type": "address"
        }
      ],
      "name": "NewComptroller",
      "type": "event"
    },
    {
      "anonymous": false,
      "inputs": [
        {
          "indexed": false,
          "internalType": "address",
          "name": "oldImplementation",
          "type": "address"
        },
        {
          "indexed": false,
          "internalType": "address",
          "name": "newImplementation",
          "type": "address"
        }
      ],
      "name": "NewImplementation",
      "type": "event"
    },
    {
      "anonymous": false,
      "inputs": [
        {
          "indexed": false,
          "internalType": "contract InterestRateModel",
          "name": "oldInterestRateModel",
          "type": "address"
        },
        {
          "indexed": false,
          "internalType": "contract InterestRateModel",
          "name": "newInterestRateModel",
          "type": "address"
        }
      ],
      "name": "NewMarketInterestRateModel",
      "type": "event"
    },
    {
      "anonymous": false,
      "inputs": [
        {
          "indexed": false,
          "internalType": "address",
          "name": "oldPendingAdmin",
          "type": "address"
        },
        {
          "indexed": false,
          "internalType": "address",
          "name": "newPendingAdmin",
          "type": "address"
        }
      ],
      "name": "NewPendingAdmin",
      "type": "event"
    },
    {
      "anonymous": false,
      "inputs": [
        {
          "indexed": false,
          "internalType": "uint256",
          "name": "oldReserveFactorMantissa",
          "type": "uint256"
        },
        {
          "indexed": false,
          "internalType": "uint256",
          "name": "newReserveFactorMantissa",
          "type": "uint256"
        }
      ],
      "name": "NewReserveFactor",
      "type": "event"
    },
    {
      "anonymous": false,
      "inputs": [
        {
          "indexed": false,
          "internalType": "address",
          "name": "redeemer",
          "type": "address"
        },
        {
          "indexed": false,
          "internalType": "uint256",
          "name": "redeemAmount",
          "type": "uint256"
        },
        {
          "indexed": false,
          "internalType": "uint256",
          "name": "redeemTokens",
          "type": "uint256"
        }
      ],
      "name": "Redeem",
      "type": "event"
    },
    {
      "anonymous": false,
      "inputs": [
        {
          "indexed": false,
          "internalType": "address",
          "name": "redeemer",
          "type": "address"
        },
        {
          "indexed": false,
          "internalType": "uint256",
          "name": "feeAmount",
          "type": "uint256"
        },
        {
          "indexed": false,
          "internalType": "uint256",
          "name": "redeemTokens",
          "type": "uint256"
        }
      ],
      "name": "RedeemFee",
      "type": "event"
    },
    {
      "anonymous": false,
      "inputs": [
        {
          "indexed": false,
          "internalType": "address",
          "name": "payer",
          "type": "address"
        },
        {
          "indexed": false,
          "internalType": "address",
          "name": "borrower",
          "type": "address"
        },
        {
          "indexed": false,
          "internalType": "uint256",
          "name": "repayAmount",
          "type": "uint256"
        },
        {
          "indexed": false,
          "internalType": "uint256",
          "name": "accountBorrows",
          "type": "uint256"
        },
        {
          "indexed": false,
          "internalType": "uint256",
          "name": "totalBorrows",
          "type": "uint256"
        }
      ],
      "name": "RepayBorrow",
      "type": "event"
    },
    {
      "anonymous": false,
      "inputs": [
        {
          "indexed": false,
          "internalType": "address",
          "name": "benefactor",
          "type": "address"
        },
        {
          "indexed": false,
          "internalType": "uint256",
          "name": "addAmount",
          "type": "uint256"
        },
        {
          "indexed": false,
          "internalType": "uint256",
          "name": "newTotalReserves",
          "type": "uint256"
        }
      ],
      "name": "ReservesAdded",
      "type": "event"
    },
    {
      "anonymous": false,
      "inputs": [
        {
          "indexed": false,
          "internalType": "address",
          "name": "admin",
          "type": "address"
        },
        {
          "indexed": false,
          "internalType": "uint256",
          "name": "reduceAmount",
          "type": "uint256"
        },
        {
          "indexed": false,
          "internalType": "uint256",
          "name": "newTotalReserves",
          "type": "uint256"
        }
      ],
      "name": "ReservesReduced",
      "type": "event"
    },
    {
      "anonymous": false,
      "inputs": [
        {
          "indexed": true,
          "internalType": "address",
          "name": "from",
          "type": "address"
        },
        {
          "indexed": true,
          "internalType": "address",
          "name": "to",
          "type": "address"
        },
        {
          "indexed": false,
          "internalType": "uint256",
          "name": "amount",
          "type": "uint256"
        }
      ],
      "name": "Transfer",
      "type": "event"
    },
    {
      "payable": true,
      "stateMutability": "payable",
      "type": "fallback"
    },
    {
      "constant": false,
      "inputs": [],
      "name": "_acceptAdmin",
      "outputs": [
        {
          "internalType": "uint256",
          "name": "",
          "type": "uint256"
        }
      ],
      "payable": false,
      "stateMutability": "nonpayable",
      "type": "function"
    },
    {
      "constant": false,
      "inputs": [
        {
          "internalType": "uint256",
          "name": "addAmount",
          "type": "uint256"
        }
      ],
      "name": "_addReserves",
      "outputs": [
        {
          "internalType": "uint256",
          "name": "",
          "type": "uint256"
        }
      ],
      "payable": false,
      "stateMutability": "nonpayable",
      "type": "function"
    },
    {
      "constant": false,
      "inputs": [
        {
          "internalType": "uint256",
          "name": "reduceAmount",
          "type": "uint256"
        }
      ],
      "name": "_reduceReserves",
      "outputs": [
        {
          "internalType": "uint256",
          "name": "",
          "type": "uint256"
        }
      ],
      "payable": false,
      "stateMutability": "nonpayable",
      "type": "function"
    },
    {
      "constant": false,
      "inputs": [
        {
          "internalType": "contract ComptrollerInterface",
          "name": "newComptroller",
          "type": "address"
        }
      ],
      "name": "_setComptroller",
      "outputs": [
        {
          "internalType": "uint256",
          "name": "",
          "type": "uint256"
        }
      ],
      "payable": false,
      "stateMutability": "nonpayable",
      "type": "function"
    },
    {
      "constant": false,
      "inputs": [
        {
          "internalType": "address",
          "name": "implementation_",
          "type": "address"
        },
        {
          "internalType": "bool",
          "name": "allowResign",
          "type": "bool"
        },
        {
          "internalType": "bytes",
          "name": "becomeImplementationData",
          "type": "bytes"
        }
      ],
      "name": "_setImplementation",
      "outputs": [],
      "payable": false,
      "stateMutability": "nonpayable",
      "type": "function"
    },
    {
      "constant": false,
      "inputs": [
        {
          "internalType": "contract InterestRateModel",
          "name": "newInterestRateModel",
          "type": "address"
        }
      ],
      "name": "_setInterestRateModel",
      "outputs": [
        {
          "internalType": "uint256",
          "name": "",
          "type": "uint256"
        }
      ],
      "payable": false,
      "stateMutability": "nonpayable",
      "type": "function"
    },
    {
      "constant": false,
      "inputs": [
        {
          "internalType": "address payable",
          "name": "newPendingAdmin",
          "type": "address"
        }
      ],
      "name": "_setPendingAdmin",
      "outputs": [
        {
          "internalType": "uint256",
          "name": "",
          "type": "uint256"
        }
      ],
      "payable": false,
      "stateMutability": "nonpayable",
      "type": "function"
    },
    {
      "constant": false,
      "inputs": [
        {
          "internalType": "uint256",
          "name": "newReserveFactorMantissa",
          "type": "uint256"
        }
      ],
      "name": "_setReserveFactor",
      "outputs": [
        {
          "internalType": "uint256",
          "name": "",
          "type": "uint256"
        }
      ],
      "payable": false,
      "stateMutability": "nonpayable",
      "type": "function"
    },
    {
      "constant": true,
      "inputs": [],
      "name": "accrualBlockNumber",
      "outputs": [
        {
          "internalType": "uint256",
          "name": "",
          "type": "uint256"
        }
      ],
      "payable": false,
      "stateMutability": "view",
      "type": "function"
    },
    {
      "constant": false,
      "inputs": [],
      "name": "accrueInterest",
      "outputs": [
        {
          "internalType": "uint256",
          "name": "",
          "type": "uint256"
        }
      ],
      "payable": false,
      "stateMutability": "nonpayable",
      "type": "function"
    },
    {
      "constant": true,
      "inputs": [],
      "name": "admin",
      "outputs": [
        {
          "internalType": "address payable",
          "name": "",
          "type": "address"
        }
      ],
      "payable": false,
      "stateMutability": "view",
      "type": "function"
    },
    {
      "constant": true,
      "inputs": [
        {
          "internalType": "address",
          "name": "owner",
          "type": "address"
        },
        {
          "internalType": "address",
          "name": "spender",
          "type": "address"
        }
      ],
      "name": "allowance",
      "outputs": [
        {
          "internalType": "uint256",
          "name": "",
          "type": "uint256"
        }
      ],
      "payable": false,
      "stateMutability": "view",
      "type": "function"
    },
    {
      "constant": false,
      "inputs": [
        {
          "internalType": "address",
          "name": "spender",
          "type": "address"
        },
        {
          "internalType": "uint256",
          "name": "amount",
          "type": "uint256"
        }
      ],
      "name": "approve",
      "outputs": [
        {
          "internalType": "bool",
          "name": "",
          "type": "bool"
        }
      ],
      "payable": false,
      "stateMutability": "nonpayable",
      "type": "function"
    },
    {
      "constant": true,
      "inputs": [
        {
          "internalType": "address",
          "name": "owner",
          "type": "address"
        }
      ],
      "name": "balanceOf",
      "outputs": [
        {
          "internalType": "uint256",
          "name": "",
          "type": "uint256"
        }
      ],
      "payable": false,
      "stateMutability": "view",
      "type": "function"
    },
    {
      "constant": false,
      "inputs": [
        {
          "internalType": "address",
          "name": "owner",
          "type": "address"
        }
      ],
      "name": "balanceOfUnderlying",
      "outputs": [
        {
          "internalType": "uint256",
          "name": "",
          "type": "uint256"
        }
      ],
      "payable": false,
      "stateMutability": "nonpayable",
      "type": "function"
    },
    {
      "constant": false,
      "inputs": [
        {
          "internalType": "uint256",
          "name": "borrowAmount",
          "type": "uint256"
        }
      ],
      "name": "borrow",
      "outputs": [
        {
          "internalType": "uint256",
          "name": "",
          "type": "uint256"
        }
      ],
      "payable": false,
      "stateMutability": "nonpayable",
      "type": "function"
    },
    {
      "constant": false,
      "inputs": [
        {
          "internalType": "address",
          "name": "account",
          "type": "address"
        }
      ],
      "name": "borrowBalanceCurrent",
      "outputs": [
        {
          "internalType": "uint256",
          "name": "",
          "type": "uint256"
        }
      ],
      "payable": false,
      "stateMutability": "nonpayable",
      "type": "function"
    },
    {
      "constant": true,
      "inputs": [
        {
          "internalType": "address",
          "name": "account",
          "type": "address"
        }
      ],
      "name": "borrowBalanceStored",
      "outputs": [
        {
          "internalType": "uint256",
          "name": "",
          "type": "uint256"
        }
      ],
      "payable": false,
      "stateMutability": "view",
      "type": "function"
    },
    {
      "constant": true,
      "inputs": [],
      "name": "borrowIndex",
      "outputs": [
        {
          "internalType": "uint256",
          "name": "",
          "type": "uint256"
        }
      ],
      "payable": false,
      "stateMutability": "view",
      "type": "function"
    },
    {
      "constant": true,
      "inputs": [],
      "name": "borrowRatePerBlock",
      "outputs": [
        {
          "internalType": "uint256",
          "name": "",
          "type": "uint256"
        }
      ],
      "payable": false,
      "stateMutability": "view",
      "type": "function"
    },
    {
      "constant": true,
      "inputs": [],
      "name": "comptroller",
      "outputs": [
        {
          "internalType": "contract ComptrollerInterface",
          "name": "",
          "type": "address"
        }
      ],
      "payable": false,
      "stateMutability": "view",
      "type": "function"
    },
    {
      "constant": true,
      "inputs": [],
      "name": "decimals",
      "outputs": [
        {
          "internalType": "uint8",
          "name": "",
          "type": "uint8"
        }
      ],
      "payable": false,
      "stateMutability": "view",
      "type": "function"
    },
    {
      "constant": false,
      "inputs": [
        {
          "internalType": "bytes",
          "name": "data",
          "type": "bytes"
        }
      ],
      "name": "delegateToImplementation",
      "outputs": [
        {
          "internalType": "bytes",
          "name": "",
          "type": "bytes"
        }
      ],
      "payable": false,
      "stateMutability": "nonpayable",
      "type": "function"
    },
    {
      "constant": true,
      "inputs": [
        {
          "internalType": "bytes",
          "name": "data",
          "type": "bytes"
        }
      ],
      "name": "delegateToViewImplementation",
      "outputs": [
        {
          "internalType": "bytes",
          "name": "",
          "type": "bytes"
        }
      ],
      "payable": false,
      "stateMutability": "view",
      "type": "function"
    },
    {
      "constant": false,
      "inputs": [],
      "name": "exchangeRateCurrent",
      "outputs": [
        {
          "internalType": "uint256",
          "name": "",
          "type": "uint256"
        }
      ],
      "payable": false,
      "stateMutability": "nonpayable",
      "type": "function"
    },
    {
      "constant": true,
      "inputs": [],
      "name": "exchangeRateStored",
      "outputs": [
        {
          "internalType": "uint256",
          "name": "",
          "type": "uint256"
        }
      ],
      "payable": false,
      "stateMutability": "view",
      "type": "function"
    },
    {
      "constant": true,
      "inputs": [
        {
          "internalType": "address",
          "name": "account",
          "type": "address"
        }
      ],
      "name": "getAccountSnapshot",
      "outputs": [
        {
          "internalType": "uint256",
          "name": "",
          "type": "uint256"
        },
        {
          "internalType": "uint256",
          "name": "",
          "type": "uint256"
        },
        {
          "internalType": "uint256",
          "name": "",
          "type": "uint256"
        },
        {
          "internalType": "uint256",
          "name": "",
          "type": "uint256"
        }
      ],
      "payable": false,
      "stateMutability": "view",
      "type": "function"
    },
    {
      "constant": true,
      "inputs": [],
      "name": "getCash",
      "outputs": [
        {
          "internalType": "uint256",
          "name": "",
          "type": "uint256"
        }
      ],
      "payable": false,
      "stateMutability": "view",
      "type": "function"
    },
    {
      "constant": true,
      "inputs": [],
      "name": "implementation",
      "outputs": [
        {
          "internalType": "address",
          "name": "",
          "type": "address"
        }
      ],
      "payable": false,
      "stateMutability": "view",
      "type": "function"
    },
    {
      "constant": true,
      "inputs": [],
      "name": "interestRateModel",
      "outputs": [
        {
          "internalType": "contract InterestRateModel",
          "name": "",
          "type": "address"
        }
      ],
      "payable": false,
      "stateMutability": "view",
      "type": "function"
    },
    {
      "constant": true,
      "inputs": [],
      "name": "isVToken",
      "outputs": [
        {
          "internalType": "bool",
          "name": "",
          "type": "bool"
        }
      ],
      "payable": false,
      "stateMutability": "view",
      "type": "function"
    },
    {
      "constant": false,
      "inputs": [
        {
          "internalType": "address",
          "name": "borrower",
          "type": "address"
        },
        {
          "internalType": "uint256",
          "name": "repayAmount",
          "type": "uint256"
        },
        {
          "internalType": "contract VTokenInterface",
          "name": "vTokenCollateral",
          "type": "address"
        }
      ],
      "name": "liquidateBorrow",
      "outputs": [
        {
          "internalType": "uint256",
          "name": "",
          "type": "uint256"
        }
      ],
      "payable": false,
      "stateMutability": "nonpayable",
      "type": "function"
    },
    {
      "constant": false,
      "inputs": [
        {
          "internalType": "uint256",
          "name": "mintAmount",
          "type": "uint256"
        }
      ],
      "name": "mint",
      "outputs": [
        {
          "internalType": "uint256",
          "name": "",
          "type": "uint256"
        }
      ],
      "payable": false,
      "stateMutability": "nonpayable",
      "type": "function"
    },
    {
      "constant": false,
      "inputs": [
        {
          "internalType": "address",
          "name": "receiver",
          "type": "address"
        },
        {
          "internalType": "uint256",
          "name": "mintAmount",
          "type": "uint256"
        }
      ],
      "name": "mintBehalf",
      "outputs": [
        {
          "internalType": "uint256",
          "name": "",
          "type": "uint256"
        }
      ],
      "payable": false,
      "stateMutability": "nonpayable",
      "type": "function"
    },
    {
      "constant": true,
      "inputs": [],
      "name": "name",
      "outputs": [
        {
          "internalType": "string",
          "name": "",
          "type": "string"
        }
      ],
      "payable": false,
      "stateMutability": "view",
      "type": "function"
    },
    {
      "constant": true,
      "inputs": [],
      "name": "pendingAdmin",
      "outputs": [
        {
          "internalType": "address payable",
          "name": "",
          "type": "address"
        }
      ],
      "payable": false,
      "stateMutability": "view",
      "type": "function"
    },
    {
      "constant": false,
      "inputs": [
        {
          "internalType": "uint256",
          "name": "redeemTokens",
          "type": "uint256"
        }
      ],
      "name": "redeem",
      "outputs": [
        {
          "internalType": "uint256",
          "name": "",
          "type": "uint256"
        }
      ],
      "payable": false,
      "stateMutability": "nonpayable",
      "type": "function"
    },
    {
      "constant": false,
      "inputs": [
        {
          "internalType": "uint256",
          "name": "redeemAmount",
          "type": "uint256"
        }
      ],
      "name": "redeemUnderlying",
      "outputs": [
        {
          "internalType": "uint256",
          "name": "",
          "type": "uint256"
        }
      ],
      "payable": false,
      "stateMutability": "nonpayable",
      "type": "function"
    },
    {
      "constant": false,
      "inputs": [
        {
          "internalType": "uint256",
          "name": "repayAmount",
          "type": "uint256"
        }
      ],
      "name": "repayBorrow",
      "outputs": [
        {
          "internalType": "uint256",
          "name": "",
          "type": "uint256"
        }
      ],
      "payable": false,
      "stateMutability": "nonpayable",
      "type": "function"
    },
    {
      "constant": false,
      "inputs": [
        {
          "internalType": "address",
          "name": "borrower",
          "type": "address"
        },
        {
          "internalType": "uint256",
          "name": "repayAmount",
          "type": "uint256"
        }
      ],
      "name": "repayBorrowBehalf",
      "outputs": [
        {
          "internalType": "uint256",
          "name": "",
          "type": "uint256"
        }
      ],
      "payable": false,
      "stateMutability": "nonpayable",
      "type": "function"
    },
    {
      "constant": true,
      "inputs": [],
      "name": "reserveFactorMantissa",
      "outputs": [
        {
          "internalType": "uint256",
          "name": "",
          "type": "uint256"
        }
      ],
      "payable": false,
      "stateMutability": "view",
      "type": "function"
    },
    {
      "constant": false,
      "inputs": [
        {
          "internalType": "address",
          "name": "liquidator",
          "type": "address"
        },
        {
          "internalType": "address",
          "name": "borrower",
          "type": "address"
        },
        {
          "internalType": "uint256",
          "name": "seizeTokens",
          "type": "uint256"
        }
      ],
      "name": "seize",
      "outputs": [
        {
          "internalType": "uint256",
          "name": "",
          "type": "uint256"
        }
      ],
      "payable": false,
      "stateMutability": "nonpayable",
      "type": "function"
    },
    {
      "constant": true,
      "inputs": [],
      "name": "supplyRatePerBlock",
      "outputs": [
        {
          "internalType": "uint256",
          "name": "",
          "type": "uint256"
        }
      ],
      "payable": false,
      "stateMutability": "view",
      "type": "function"
    },
    {
      "constant": true,
      "inputs": [],
      "name": "symbol",
      "outputs": [
        {
          "internalType": "string",
          "name": "",
          "type": "string"
        }
      ],
      "payable": false,
      "stateMutability": "view",
      "type": "function"
    },
    {
      "constant": true,
      "inputs": [],
      "name": "totalBorrows",
      "outputs": [
        {
          "internalType": "uint256",
          "name": "",
          "type": "uint256"
        }
      ],
      "payable": false,
      "stateMutability": "view",
      "type": "function"
    },
    {
      "constant": false,
      "inputs": [],
      "name": "totalBorrowsCurrent",
      "outputs": [
        {
          "internalType": "uint256",
          "name": "",
          "type": "uint256"
        }
      ],
      "payable": false,
      "stateMutability": "nonpayable",
      "type": "function"
    },
    {
      "constant": true,
      "inputs": [],
      "name": "totalReserves",
      "outputs": [
        {
          "internalType": "uint256",
          "name": "",
          "type": "uint256"
        }
      ],
      "payable": false,
      "stateMutability": "view",
      "type": "function"
    },
    {
      "constant": true,
      "inputs": [],
      "name": "totalSupply",
      "outputs": [
        {
          "internalType": "uint256",
          "name": "",
          "type": "uint256"
        }
      ],
      "payable": false,
      "stateMutability": "view",
      "type": "function"
    },
    {
      "constant": false,
      "inputs": [
        {
          "internalType": "address",
          "name": "dst",
          "type": "address"
        },
        {
          "internalType": "uint256",
          "name": "amount",
          "type": "uint256"
        }
      ],
      "name": "transfer",
      "outputs": [
        {
          "internalType": "bool",
          "name": "",
          "type": "bool"
        }
      ],
      "payable": false,
      "stateMutability": "nonpayable",
      "type": "function"
    },
    {
      "constant": false,
      "inputs": [
        {
          "internalType": "address",
          "name": "src",
          "type": "address"
        },
        {
          "internalType": "address",
          "name": "dst",
          "type": "address"
        },
        {
          "internalType": "uint256",
          "name": "amount",
          "type": "uint256"
        }
      ],
      "name": "transferFrom",
      "outputs": [
        {
          "internalType": "bool",
          "name": "",
          "type": "bool"
        }
      ],
      "payable": false,
      "stateMutability": "nonpayable",
      "type": "function"
    },
    {
      "constant": true,
      "inputs": [],
      "name": "underlying",
      "outputs": [
        {
          "internalType": "address",
          "name": "",
          "type": "address"
        }
      ],
      "payable": false,
      "stateMutability": "view",
      "type": "function"
    }
  ],
  "bytecode": "0x60806040523480156200001157600080fd5b50604051620025c5380380620025c583398181016040526101408110156200003857600080fd5b81516020830151604080850151606086015160808701805193519597949692959194919392820192846401000000008211156200007457600080fd5b9083019060208201858111156200008a57600080fd5b8251640100000000811182820188101715620000a557600080fd5b82525081516020918201929091019080838360005b83811015620000d4578181015183820152602001620000ba565b50505050905090810190601f168015620001025780820380516001836020036101000a031916815260200191505b50604052602001805160405193929190846401000000008211156200012657600080fd5b9083019060208201858111156200013c57600080fd5b82516401000000008111828201881017156200015757600080fd5b82525081516020918201929091019080838360005b83811015620001865781810151838201526020016200016c565b50505050905090810190601f168015620001b45780820380516001836020036101000a031916815260200191505b50604081815260208301519083015160608401516080909401805192969195919284640100000000821115620001e957600080fd5b908301906020820185811115620001ff57600080fd5b82516401000000008111828201881017156200021a57600080fd5b82525081516020918201929091019080838360005b83811015620002495781810151838201526020016200022f565b50505050905090810190601f168015620002775780820380516001836020036101000a031916815260200191505b5060405250505033600360016101000a8154816001600160a01b0302191690836001600160a01b0316021790555062000424828b8b8b8b8b8b8b60405160240180886001600160a01b03166001600160a01b03168152602001876001600160a01b03166001600160a01b03168152602001866001600160a01b03166001600160a01b0316815260200185815260200180602001806020018460ff1660ff168152602001838103835286818151815260200191508051906020019080838360005b838110156200035157818101518382015260200162000337565b50505050905090810190601f1680156200037f5780820380516001836020036101000a031916815260200191505b50838103825285518152855160209182019187019080838360005b83811015620003b45781810151838201526020016200039a565b50505050905090810190601f168015620003e25780820380516001836020036101000a031916815260200191505b5060408051601f198184030181529190526020810180516001600160e01b03908116631a31d46560e01b17909152909a50620004721698505050505050505050565b506200043c826000836001600160e01b036200053916565b5050600380546001600160a01b0390921661010002610100600160a81b0319909216919091179055506200071a95505050505050565b606060006060846001600160a01b0316846040518082805190602001908083835b60208310620004b45780518252601f19909201916020918201910162000493565b6001836020036101000a038019825116818451168082178552505050505050905001915050600060405180830381855af49150503d806000811462000516576040519150601f19603f3d011682016040523d82523d6000602084013e6200051b565b606091505b5091509150600082141562000531573d60208201fd5b949350505050565b60035461010090046001600160a01b03163314620005895760405162461bcd60e51b81526004018080602001828103825260398152602001806200258c6039913960400191505060405180910390fd5b8115620005cb576040805160048152602481019091526020810180516001600160e01b0390811663153ab50560e01b17909152620005c99190620006f016565b505b601280546001600160a01b038581166001600160a01b03198316179092556040516020602482018181528551604484015285519490931693620006a1938693909283926064909201919085019080838360005b83811015620006385781810151838201526020016200061e565b50505050905090810190601f168015620006665780820380516001836020036101000a031916815260200191505b5060408051601f198184030181529190526020810180516001600160e01b03908116630adccee560e31b17909152909350620006f016915050565b50601254604080516001600160a01b038085168252909216602083015280517fd604de94d45953f9138079ec1b82d533cb2160c906d1076d1f7ed54befbca97a9281900390910190a150505050565b60125460609062000714906001600160a01b0316836001600160e01b036200047216565b92915050565b611e62806200072a6000396000f3fe6080604052600436106102e45760003560e01c80636f307dc311610190578063b71d1a0c116100dc578063e9c714f211610095578063f5e3c4621161006f578063f5e3c46214610cf4578063f851a44014610d37578063f8f9da2814610d4c578063fca7820b14610d61576102e4565b8063e9c714f214610c97578063f2b3abbd14610cac578063f3fdb15a14610cdf576102e4565b8063b71d1a0c14610b67578063bd6d894d14610b9a578063c37f68e214610baf578063c5ebeaec14610c08578063db006a7514610c32578063dd62ed3e14610c5c576102e4565b806395dd919311610149578063a9059cbb11610123578063a9059cbb14610ac1578063aa5af0fd14610afa578063ae9d70b014610b0f578063b2a02ff114610b24576102e4565b806395dd919314610a4f578063a0712d6814610a82578063a6afed9514610aac576102e4565b80636f307dc31461099e57806370a08231146109b357806373acee98146109e6578063852a12e3146109fb5780638f840ddd14610a2557806395d89b4114610a3a576102e4565b8063313ce5671161024f5780634576b5db116102085780635c60da1b116101e25780635c60da1b146109355780635fe3b5671461094a578063601a0bf11461095f5780636c540baf14610989576102e4565b80634576b5db1461082357806347bd371814610856578063555bcc401461086b576102e4565b8063313ce567146106c05780633af9e669146106eb5780633b1d21a21461071e5780633d9ea3a1146107335780633e941010146107485780634487152f14610772576102e4565b806318160ddd116102a157806318160ddd146105b0578063182df0f5146105c557806323323e03146105da57806323b872dd146106135780632608f81814610656578063267822471461068f576102e4565b806306fdde03146103a45780630933c1ed1461042e578063095ea7b3146104df5780630e7527021461052c578063173b99041461056857806317bfdfbc1461057d575b34156103215760405162461bcd60e51b8152600401808060200182810382526037815260200180611df76037913960400191505060405180910390fd5b6012546040516000916001600160a01b031690829036908083838082843760405192019450600093509091505080830381855af49150503d8060008114610384576040519150601f19603f3d011682016040523d82523d6000602084013e610389565b606091505b505090506040513d6000823e8180156103a0573d82f35b3d82fd5b3480156103b057600080fd5b506103b9610d8b565b6040805160208082528351818301528351919283929083019185019080838360005b838110156103f35781810151838201526020016103db565b50505050905090810190601f1680156104205780820380516001836020036101000a031916815260200191505b509250505060405180910390f35b34801561043a57600080fd5b506103b96004803603602081101561045157600080fd5b810190602081018135600160201b81111561046b57600080fd5b82018360208201111561047d57600080fd5b803590602001918460018302840111600160201b8311171561049e57600080fd5b91908080601f016020809104026020016040519081016040528093929190818152602001838380828437600092019190915250929550610e18945050505050565b3480156104eb57600080fd5b506105186004803603604081101561050257600080fd5b506001600160a01b038135169060200135610e37565b604080519115158252519081900360200190f35b34801561053857600080fd5b506105566004803603602081101561054f57600080fd5b5035610eae565b60408051918252519081900360200190f35b34801561057457600080fd5b50610556610f15565b34801561058957600080fd5b50610556600480360360208110156105a057600080fd5b50356001600160a01b0316610f1b565b3480156105bc57600080fd5b50610556610f6d565b3480156105d157600080fd5b50610556610f73565b3480156105e657600080fd5b50610556600480360360408110156105fd57600080fd5b506001600160a01b038135169060200135610fca565b34801561061f57600080fd5b506105186004803603606081101561063657600080fd5b506001600160a01b03813581169160208101359091169060400135611020565b34801561066257600080fd5b506105566004803603604081101561067957600080fd5b506001600160a01b0381351690602001356110a0565b34801561069b57600080fd5b506106a46110f6565b604080516001600160a01b039092168252519081900360200190f35b3480156106cc57600080fd5b506106d5611105565b6040805160ff9092168252519081900360200190f35b3480156106f757600080fd5b506105566004803603602081101561070e57600080fd5b50356001600160a01b031661110e565b34801561072a57600080fd5b50610556611160565b34801561073f57600080fd5b50610518611198565b34801561075457600080fd5b506105566004803603602081101561076b57600080fd5b503561119d565b34801561077e57600080fd5b506103b96004803603602081101561079557600080fd5b810190602081018135600160201b8111156107af57600080fd5b8201836020820111156107c157600080fd5b803590602001918460018302840111600160201b831117156107e257600080fd5b91908080601f0160208091040260200160405190810160405280939291908181526020018383808284376000920191909152509295506111e4945050505050565b34801561082f57600080fd5b506105566004803603602081101561084657600080fd5b50356001600160a01b0316611403565b34801561086257600080fd5b50610556611455565b34801561087757600080fd5b506109336004803603606081101561088e57600080fd5b6001600160a01b03823516916020810135151591810190606081016040820135600160201b8111156108bf57600080fd5b8201836020820111156108d157600080fd5b803590602001918460018302840111600160201b831117156108f257600080fd5b91908080601f01602080910402602001604051908101604052809392919081815260200183838082843760009201919091525092955061145b945050505050565b005b34801561094157600080fd5b506106a46115fe565b34801561095657600080fd5b506106a461160d565b34801561096b57600080fd5b506105566004803603602081101561098257600080fd5b503561161c565b34801561099557600080fd5b50610556611663565b3480156109aa57600080fd5b506106a4611669565b3480156109bf57600080fd5b50610556600480360360208110156109d657600080fd5b50356001600160a01b0316611678565b3480156109f257600080fd5b506105566116ca565b348015610a0757600080fd5b5061055660048036036020811015610a1e57600080fd5b5035611702565b348015610a3157600080fd5b50610556611749565b348015610a4657600080fd5b506103b961174f565b348015610a5b57600080fd5b5061055660048036036020811015610a7257600080fd5b50356001600160a01b03166117a7565b348015610a8e57600080fd5b5061055660048036036020811015610aa557600080fd5b50356117f9565b348015610ab857600080fd5b50610556611840565b348015610acd57600080fd5b5061051860048036036040811015610ae457600080fd5b506001600160a01b038135169060200135611878565b348015610b0657600080fd5b506105566118ce565b348015610b1b57600080fd5b506105566118d4565b348015610b3057600080fd5b5061055660048036036060811015610b4757600080fd5b506001600160a01b0381358116916020810135909116906040013561190c565b348015610b7357600080fd5b5061055660048036036020811015610b8a57600080fd5b50356001600160a01b031661196a565b348015610ba657600080fd5b506105566119bc565b348015610bbb57600080fd5b50610be260048036036020811015610bd257600080fd5b50356001600160a01b03166119f4565b604080519485526020850193909352838301919091526060830152519081900360800190f35b348015610c1457600080fd5b5061055660048036036020811015610c2b57600080fd5b5035611a86565b348015610c3e57600080fd5b5061055660048036036020811015610c5557600080fd5b5035611acd565b348015610c6857600080fd5b5061055660048036036040811015610c7f57600080fd5b506001600160a01b0381358116916020013516611b14565b348015610ca357600080fd5b50610556611b6e565b348015610cb857600080fd5b5061055660048036036020811015610ccf57600080fd5b50356001600160a01b0316611ba6565b348015610ceb57600080fd5b506106a4611bf8565b348015610d0057600080fd5b5061055660048036036060811015610d1757600080fd5b506001600160a01b03813581169160208101359160409091013516611c07565b348015610d4357600080fd5b506106a4611c68565b348015610d5857600080fd5b50610556611c7c565b348015610d6d57600080fd5b5061055660048036036020811015610d8457600080fd5b5035611cb4565b60018054604080516020600284861615610100026000190190941693909304601f81018490048402820184019092528181529291830182828015610e105780601f10610de557610100808354040283529160200191610e10565b820191906000526020600020905b815481529060010190602001808311610df357829003601f168201915b505050505081565b601254606090610e31906001600160a01b031683611cfb565b92915050565b604080516001600160a01b038416602482015260448082018490528251808303909101815260649091019091526020810180516001600160e01b031663095ea7b360e01b179052600090606090610e8d90610e18565b9050808060200190516020811015610ea457600080fd5b5051949350505050565b6040805160248082018490528251808303909101815260449091019091526020810180516001600160e01b031663073a938160e11b179052600090606090610ef590610e18565b9050808060200190516020811015610f0c57600080fd5b50519392505050565b60085481565b604080516001600160a01b0383166024808301919091528251808303909101815260449091019091526020810180516001600160e01b03166305eff7ef60e21b179052600090606090610ef590610e18565b600d5481565b6040805160048152602481019091526020810180516001600160e01b031663182df0f560e01b179052600090606090610fab906111e4565b9050808060200190516020811015610fc257600080fd5b505191505090565b604080516001600160a01b038416602482015260448082018490528251808303909101815260649091019091526020810180516001600160e01b03166323323e0360e01b179052600090606090610e8d90610e18565b604080516001600160a01b0380861660248301528416604482015260648082018490528251808303909101815260849091019091526020810180516001600160e01b03166323b872dd60e01b17905260009060609061107e90610e18565b905080806020019051602081101561109557600080fd5b505195945050505050565b604080516001600160a01b038416602482015260448082018490528251808303909101815260649091019091526020810180516001600160e01b03166304c11f0360e31b179052600090606090610e8d90610e18565b6004546001600160a01b031681565b60035460ff1681565b604080516001600160a01b0383166024808301919091528251808303909101815260449091019091526020810180516001600160e01b0316633af9e66960e01b179052600090606090610ef590610e18565b6040805160048152602481019091526020810180516001600160e01b0316631d8e90d160e11b179052600090606090610fab906111e4565b600181565b6040805160248082018490528251808303909101815260449091019091526020810180516001600160e01b03166303e9410160e41b179052600090606090610ef590610e18565b606060006060306001600160a01b0316846040516024018080602001828103825283818151815260200191508051906020019080838360005b8381101561123557818101518382015260200161121d565b50505050905090810190601f1680156112625780820380516001836020036101000a031916815260200191505b5060408051601f198184030181529181526020820180516001600160e01b0316630933c1ed60e01b178152905182519295509350839250908083835b602083106112bd5780518252601f19909201916020918201910161129e565b6001836020036101000a038019825116818451168082178552505050505050905001915050600060405180830381855afa9150503d806000811461131d576040519150601f19603f3d011682016040523d82523d6000602084013e611322565b606091505b50915091506000821415611337573d60208201fd5b80806020019051602081101561134c57600080fd5b8101908080516040519392919084600160201b82111561136b57600080fd5b90830190602082018581111561138057600080fd5b8251600160201b81118282018810171561139957600080fd5b82525081516020918201929091019080838360005b838110156113c65781810151838201526020016113ae565b50505050905090810190601f1680156113f35780820380516001836020036101000a031916815260200191505b5060405250505092505050919050565b604080516001600160a01b0383166024808301919091528251808303909101815260449091019091526020810180516001600160e01b0316634576b5db60e01b179052600090606090610ef590610e18565b600b5481565b60035461010090046001600160a01b031633146114a95760405162461bcd60e51b8152600401808060200182810382526039815260200180611dbe6039913960400191505060405180910390fd5b81156114e3576040805160048152602481019091526020810180516001600160e01b031663153ab50560e01b1790526114e190610e18565b505b601280546001600160a01b038581166001600160a01b031983161790925560405160206024820181815285516044840152855194909316936115af938693909283926064909201919085019080838360005b8381101561154d578181015183820152602001611535565b50505050905090810190601f16801561157a5780820380516001836020036101000a031916815260200191505b5060408051601f198184030181529190526020810180516001600160e01b0316630adccee560e31b1790529250610e18915050565b50601254604080516001600160a01b038085168252909216602083015280517fd604de94d45953f9138079ec1b82d533cb2160c906d1076d1f7ed54befbca97a9281900390910190a150505050565b6012546001600160a01b031681565b6005546001600160a01b031681565b6040805160248082018490528251808303909101815260449091019091526020810180516001600160e01b031663601a0bf160e01b179052600090606090610ef590610e18565b60095481565b6011546001600160a01b031681565b604080516001600160a01b0383166024808301919091528251808303909101815260449091019091526020810180516001600160e01b03166370a0823160e01b179052600090606090610ef5906111e4565b6040805160048152602481019091526020810180516001600160e01b0316630e759dd360e31b179052600090606090610fab90610e18565b6040805160248082018490528251808303909101815260449091019091526020810180516001600160e01b031663852a12e360e01b179052600090606090610ef590610e18565b600c5481565b6002805460408051602060018416156101000260001901909316849004601f81018490048402820184019092528181529291830182828015610e105780601f10610de557610100808354040283529160200191610e10565b604080516001600160a01b0383166024808301919091528251808303909101815260449091019091526020810180516001600160e01b03166395dd919360e01b179052600090606090610ef5906111e4565b6040805160248082018490528251808303909101815260449091019091526020810180516001600160e01b031663140e25ad60e31b179052600090606090610ef590610e18565b6040805160048152602481019091526020810180516001600160e01b031663a6afed9560e01b179052600090606090610fab90610e18565b604080516001600160a01b038416602482015260448082018490528251808303909101815260649091019091526020810180516001600160e01b031663a9059cbb60e01b179052600090606090610e8d90610e18565b600a5481565b6040805160048152602481019091526020810180516001600160e01b0316630ae9d70b60e41b179052600090606090610fab906111e4565b604080516001600160a01b0380861660248301528416604482015260648082018490528251808303909101815260849091019091526020810180516001600160e01b031663b2a02ff160e01b17905260009060609061107e90610e18565b604080516001600160a01b0383166024808301919091528251808303909101815260449091019091526020810180516001600160e01b0316632dc7468360e21b179052600090606090610ef590610e18565b6040805160048152602481019091526020810180516001600160e01b031663bd6d894d60e01b179052600090606090610fab90610e18565b604080516001600160a01b0383166024808301919091528251808303909101815260449091019091526020810180516001600160e01b03166361bfb47160e11b179052600090819081908190606090611a4c906111e4565b9050808060200190516080811015611a6357600080fd5b508051602082015160408301516060909301519199909850919650945092505050565b6040805160248082018490528251808303909101815260449091019091526020810180516001600160e01b031663317afabb60e21b179052600090606090610ef590610e18565b6040805160248082018490528251808303909101815260449091019091526020810180516001600160e01b031663db006a7560e01b179052600090606090610ef590610e18565b604080516001600160a01b03808516602483015283166044808301919091528251808303909101815260649091019091526020810180516001600160e01b0316636eb1769f60e11b179052600090606090610e8d906111e4565b6040805160048152602481019091526020810180516001600160e01b03166374e38a7960e11b179052600090606090610fab90610e18565b604080516001600160a01b0383166024808301919091528251808303909101815260449091019091526020810180516001600160e01b031663f2b3abbd60e01b179052600090606090610ef590610e18565b6006546001600160a01b031681565b604080516001600160a01b0380861660248301526044820185905283166064808301919091528251808303909101815260849091019091526020810180516001600160e01b0316637af1e23160e11b17905260009060609061107e90610e18565b60035461010090046001600160a01b031681565b6040805160048152602481019091526020810180516001600160e01b0316631f1f3b4560e31b179052600090606090610fab906111e4565b6040805160248082018490528251808303909101815260449091019091526020810180516001600160e01b031663fca7820b60e01b179052600090606090610ef590610e18565b606060006060846001600160a01b0316846040518082805190602001908083835b60208310611d3b5780518252601f199092019160209182019101611d1c565b6001836020036101000a038019825116818451168082178552505050505050905001915050600060405180830381855af49150503d8060008114611d9b576040519150601f19603f3d011682016040523d82523d6000602084013e611da0565b606091505b50915091506000821415611db5573d60208201fd5b94935050505056fe56426570323044656c656761746f723a3a5f736574496d706c656d656e746174696f6e3a2043616c6c6572206d7573742062652061646d696e56426570323044656c656761746f723a66616c6c6261636b3a2063616e6e6f742073656e642076616c756520746f2066616c6c6261636ba265627a7a7231582019e1d7915d4d4231ba0b5a32fb49fddc8f9e913af351f988dc597c106c106b1964736f6c6343000510003256426570323044656c656761746f723a3a5f736574496d706c656d656e746174696f6e3a2043616c6c6572206d7573742062652061646d696e",
  "linkReferences": {},
  "deployedLinkReferences": {}
}