{
  "_format": "hh-sol-artifact-1",
  "contractName": "VBNBScenario",
  "sourceName": "contracts/test/VBNBHarness.sol",
  "abi": [
    {
      "inputs": [
        {
          "internalType": "string",
          "name": "name_",
          "type": "string"
        },
        {
          "internalType": "string",
          "name": "symbol_",
          "type": "string"
        },
        {
          "internalType": "uint8",
          "name": "decimals_",
          "type": "uint8"
        },
        {
          "internalType": "address payable",
          "name": "admin_",
          "type": "address"
        },
        {
          "internalType": "contract ComptrollerInterface",
          "name": "comptroller_",
          "type": "address"
        },
        {
          "internalType": "contract InterestRateModel",
          "name": "interestRateModel_",
          "type": "address"
        },
        {
          "internalType": "uint256",
          "name": "initialExchangeRateMantissa",
          "type": "uint256"
        }
      ],
      "payable": false,
      "stateMutability": "nonpayable",
      "type": "constructor"
    },
    {
      "anonymous": false,
      "inputs": [
        {
          "indexed": false,
          "internalType": "uint256",
          "name": "cashPrior",
          "type": "uint256"
        },
        {
          "indexed": false,
          "internalType": "uint256",
          "name": "interestAccumulated",
          "type": "uint256"
        },
        {
          "indexed": false,
          "internalType": "uint256",
          "name": "borrowIndex",
          "type": "uint256"
        },
        {
          "indexed": false,
          "internalType": "uint256",
          "name": "totalBorrows",
          "type": "uint256"
        }
      ],
      "name": "AccrueInterest",
      "type": "event"
    },
    {
      "anonymous": false,
      "inputs": [
        {
          "indexed": true,
          "internalType": "address",
          "name": "owner",
          "type": "address"
        },
        {
          "indexed": true,
          "internalType": "address",
          "name": "spender",
          "type": "address"
        },
        {
          "indexed": false,
          "internalType": "uint256",
          "name": "amount",
          "type": "uint256"
        }
      ],
      "name": "Approval",
      "type": "event"
    },
    {
      "anonymous": false,
      "inputs": [
        {
          "indexed": false,
          "internalType": "address",
          "name": "borrower",
          "type": "address"
        },
        {
          "indexed": false,
          "internalType": "uint256",
          "name": "borrowAmount",
          "type": "uint256"
        },
        {
          "indexed": false,
          "internalType": "uint256",
          "name": "accountBorrows",
          "type": "uint256"
        },
        {
          "indexed": false,
          "internalType": "uint256",
          "name": "totalBorrows",
          "type": "uint256"
        }
      ],
      "name": "Borrow",
      "type": "event"
    },
    {
      "anonymous": false,
      "inputs": [
        {
          "indexed": false,
          "internalType": "uint256",
          "name": "error",
          "type": "uint256"
        },
        {
          "indexed": false,
          "internalType": "uint256",
          "name": "info",
          "type": "uint256"
        },
        {
          "indexed": false,
          "internalType": "uint256",
          "name": "detail",
          "type": "uint256"
        }
      ],
      "name": "Failure",
      "type": "event"
    },
    {
      "anonymous": false,
      "inputs": [
        {
          "indexed": false,
          "internalType": "address",
          "name": "liquidator",
          "type": "address"
        },
        {
          "indexed": false,
          "internalType": "address",
          "name": "borrower",
          "type": "address"
        },
        {
          "indexed": false,
          "internalType": "uint256",
          "name": "repayAmount",
          "type": "uint256"
        },
        {
          "indexed": false,
          "internalType": "address",
          "name": "vTokenCollateral",
          "type": "address"
        },
        {
          "indexed": false,
          "internalType": "uint256",
          "name": "seizeTokens",
          "type": "uint256"
        }
      ],
      "name": "LiquidateBorrow",
      "type": "event"
    },
    {
      "anonymous": false,
      "inputs": [
        {
          "indexed": false,
          "internalType": "address",
          "name": "minter",
          "type": "address"
        },
        {
          "indexed": false,
          "internalType": "uint256",
          "name": "mintAmount",
          "type": "uint256"
        },
        {
          "indexed": false,
          "internalType": "uint256",
          "name": "mintTokens",
          "type": "uint256"
        }
      ],
      "name": "Mint",
      "type": "event"
    },
    {
      "anonymous": false,
      "inputs": [
        {
          "indexed": false,
          "internalType": "address",
          "name": "payer",
          "type": "address"
        },
        {
          "indexed": false,
          "internalType": "address",
          "name": "receiver",
          "type": "address"
        },
        {
          "indexed": false,
          "internalType": "uint256",
          "name": "mintAmount",
          "type": "uint256"
        },
        {
          "indexed": false,
          "internalType": "uint256",
          "name": "mintTokens",
          "type": "uint256"
        }
      ],
      "name": "MintBehalf",
      "type": "event"
    },
    {
      "anonymous": false,
      "inputs": [
        {
          "indexed": false,
          "internalType": "address",
          "name": "oldAdmin",
          "type": "address"
        },
        {
          "indexed": false,
          "internalType": "address",
          "name": "newAdmin",
          "type": "address"
        }
      ],
      "name": "NewAdmin",
      "type": "event"
    },
    {
      "anonymous": false,
      "inputs": [
        {
          "indexed": false,
          "internalType": "contract ComptrollerInterface",
          "name": "oldComptroller",
          "type": "address"
        },
        {
          "indexed": false,
          "internalType": "contract ComptrollerInterface",
          "name": "newComptroller",
          "type": "address"
        }
      ],
      "name": "NewComptroller",
      "type": "event"
    },
    {
      "anonymous": false,
      "inputs": [
        {
          "indexed": false,
          "internalType": "contract InterestRateModel",
          "name": "oldInterestRateModel",
          "type": "address"
        },
        {
          "indexed": false,
          "internalType": "contract InterestRateModel",
          "name": "newInterestRateModel",
          "type": "address"
        }
      ],
      "name": "NewMarketInterestRateModel",
      "type": "event"
    },
    {
      "anonymous": false,
      "inputs": [
        {
          "indexed": false,
          "internalType": "address",
          "name": "oldPendingAdmin",
          "type": "address"
        },
        {
          "indexed": false,
          "internalType": "address",
          "name": "newPendingAdmin",
          "type": "address"
        }
      ],
      "name": "NewPendingAdmin",
      "type": "event"
    },
    {
      "anonymous": false,
      "inputs": [
        {
          "indexed": false,
          "internalType": "uint256",
          "name": "oldReserveFactorMantissa",
          "type": "uint256"
        },
        {
          "indexed": false,
          "internalType": "uint256",
          "name": "newReserveFactorMantissa",
          "type": "uint256"
        }
      ],
      "name": "NewReserveFactor",
      "type": "event"
    },
    {
      "anonymous": false,
      "inputs": [
        {
          "indexed": false,
          "internalType": "address",
          "name": "redeemer",
          "type": "address"
        },
        {
          "indexed": false,
          "internalType": "uint256",
          "name": "redeemAmount",
          "type": "uint256"
        },
        {
          "indexed": false,
          "internalType": "uint256",
          "name": "redeemTokens",
          "type": "uint256"
        }
      ],
      "name": "Redeem",
      "type": "event"
    },
    {
      "anonymous": false,
      "inputs": [
        {
          "indexed": false,
          "internalType": "address",
          "name": "redeemer",
          "type": "address"
        },
        {
          "indexed": false,
          "internalType": "uint256",
          "name": "feeAmount",
          "type": "uint256"
        },
        {
          "indexed": false,
          "internalType": "uint256",
          "name": "redeemTokens",
          "type": "uint256"
        }
      ],
      "name": "RedeemFee",
      "type": "event"
    },
    {
      "anonymous": false,
      "inputs": [
        {
          "indexed": false,
          "internalType": "address",
          "name": "payer",
          "type": "address"
        },
        {
          "indexed": false,
          "internalType": "address",
          "name": "borrower",
          "type": "address"
        },
        {
          "indexed": false,
          "internalType": "uint256",
          "name": "repayAmount",
          "type": "uint256"
        },
        {
          "indexed": false,
          "internalType": "uint256",
          "name": "accountBorrows",
          "type": "uint256"
        },
        {
          "indexed": false,
          "internalType": "uint256",
          "name": "totalBorrows",
          "type": "uint256"
        }
      ],
      "name": "RepayBorrow",
      "type": "event"
    },
    {
      "anonymous": false,
      "inputs": [
        {
          "indexed": false,
          "internalType": "address",
          "name": "benefactor",
          "type": "address"
        },
        {
          "indexed": false,
          "internalType": "uint256",
          "name": "addAmount",
          "type": "uint256"
        },
        {
          "indexed": false,
          "internalType": "uint256",
          "name": "newTotalReserves",
          "type": "uint256"
        }
      ],
      "name": "ReservesAdded",
      "type": "event"
    },
    {
      "anonymous": false,
      "inputs": [
        {
          "indexed": false,
          "internalType": "address",
          "name": "admin",
          "type": "address"
        },
        {
          "indexed": false,
          "internalType": "uint256",
          "name": "reduceAmount",
          "type": "uint256"
        },
        {
          "indexed": false,
          "internalType": "uint256",
          "name": "newTotalReserves",
          "type": "uint256"
        }
      ],
      "name": "ReservesReduced",
      "type": "event"
    },
    {
      "anonymous": false,
      "inputs": [
        {
          "indexed": true,
          "internalType": "address",
          "name": "from",
          "type": "address"
        },
        {
          "indexed": true,
          "internalType": "address",
          "name": "to",
          "type": "address"
        },
        {
          "indexed": false,
          "internalType": "uint256",
          "name": "amount",
          "type": "uint256"
        }
      ],
      "name": "Transfer",
      "type": "event"
    },
    {
      "payable": true,
      "stateMutability": "payable",
      "type": "fallback"
    },
    {
      "constant": false,
      "inputs": [],
      "name": "_acceptAdmin",
      "outputs": [
        {
          "internalType": "uint256",
          "name": "",
          "type": "uint256"
        }
      ],
      "payable": false,
      "stateMutability": "nonpayable",
      "type": "function"
    },
    {
      "constant": false,
      "inputs": [
        {
          "internalType": "uint256",
          "name": "reduceAmount",
          "type": "uint256"
        }
      ],
      "name": "_reduceReserves",
      "outputs": [
        {
          "internalType": "uint256",
          "name": "",
          "type": "uint256"
        }
      ],
      "payable": false,
      "stateMutability": "nonpayable",
      "type": "function"
    },
    {
      "constant": false,
      "inputs": [
        {
          "internalType": "contract ComptrollerInterface",
          "name": "newComptroller",
          "type": "address"
        }
      ],
      "name": "_setComptroller",
      "outputs": [
        {
          "internalType": "uint256",
          "name": "",
          "type": "uint256"
        }
      ],
      "payable": false,
      "stateMutability": "nonpayable",
      "type": "function"
    },
    {
      "constant": false,
      "inputs": [
        {
          "internalType": "contract InterestRateModel",
          "name": "newInterestRateModel",
          "type": "address"
        }
      ],
      "name": "_setInterestRateModel",
      "outputs": [
        {
          "internalType": "uint256",
          "name": "",
          "type": "uint256"
        }
      ],
      "payable": false,
      "stateMutability": "nonpayable",
      "type": "function"
    },
    {
      "constant": false,
      "inputs": [
        {
          "internalType": "address payable",
          "name": "newPendingAdmin",
          "type": "address"
        }
      ],
      "name": "_setPendingAdmin",
      "outputs": [
        {
          "internalType": "uint256",
          "name": "",
          "type": "uint256"
        }
      ],
      "payable": false,
      "stateMutability": "nonpayable",
      "type": "function"
    },
    {
      "constant": false,
      "inputs": [
        {
          "internalType": "uint256",
          "name": "newReserveFactorMantissa",
          "type": "uint256"
        }
      ],
      "name": "_setReserveFactor",
      "outputs": [
        {
          "internalType": "uint256",
          "name": "",
          "type": "uint256"
        }
      ],
      "payable": false,
      "stateMutability": "nonpayable",
      "type": "function"
    },
    {
      "constant": true,
      "inputs": [],
      "name": "accrualBlockNumber",
      "outputs": [
        {
          "internalType": "uint256",
          "name": "",
          "type": "uint256"
        }
      ],
      "payable": false,
      "stateMutability": "view",
      "type": "function"
    },
    {
      "constant": false,
      "inputs": [],
      "name": "accrueInterest",
      "outputs": [
        {
          "internalType": "uint256",
          "name": "",
          "type": "uint256"
        }
      ],
      "payable": false,
      "stateMutability": "nonpayable",
      "type": "function"
    },
    {
      "constant": true,
      "inputs": [],
      "name": "admin",
      "outputs": [
        {
          "internalType": "address payable",
          "name": "",
          "type": "address"
        }
      ],
      "payable": false,
      "stateMutability": "view",
      "type": "function"
    },
    {
      "constant": true,
      "inputs": [
        {
          "internalType": "address",
          "name": "owner",
          "type": "address"
        },
        {
          "internalType": "address",
          "name": "spender",
          "type": "address"
        }
      ],
      "name": "allowance",
      "outputs": [
        {
          "internalType": "uint256",
          "name": "",
          "type": "uint256"
        }
      ],
      "payable": false,
      "stateMutability": "view",
      "type": "function"
    },
    {
      "constant": false,
      "inputs": [
        {
          "internalType": "address",
          "name": "spender",
          "type": "address"
        },
        {
          "internalType": "uint256",
          "name": "amount",
          "type": "uint256"
        }
      ],
      "name": "approve",
      "outputs": [
        {
          "internalType": "bool",
          "name": "",
          "type": "bool"
        }
      ],
      "payable": false,
      "stateMutability": "nonpayable",
      "type": "function"
    },
    {
      "constant": true,
      "inputs": [
        {
          "internalType": "address",
          "name": "owner",
          "type": "address"
        }
      ],
      "name": "balanceOf",
      "outputs": [
        {
          "internalType": "uint256",
          "name": "",
          "type": "uint256"
        }
      ],
      "payable": false,
      "stateMutability": "view",
      "type": "function"
    },
    {
      "constant": false,
      "inputs": [
        {
          "internalType": "address",
          "name": "owner",
          "type": "address"
        }
      ],
      "name": "balanceOfUnderlying",
      "outputs": [
        {
          "internalType": "uint256",
          "name": "",
          "type": "uint256"
        }
      ],
      "payable": false,
      "stateMutability": "nonpayable",
      "type": "function"
    },
    {
      "constant": false,
      "inputs": [
        {
          "internalType": "uint256",
          "name": "borrowAmount",
          "type": "uint256"
        }
      ],
      "name": "borrow",
      "outputs": [
        {
          "internalType": "uint256",
          "name": "",
          "type": "uint256"
        }
      ],
      "payable": false,
      "stateMutability": "nonpayable",
      "type": "function"
    },
    {
      "constant": false,
      "inputs": [
        {
          "internalType": "address",
          "name": "account",
          "type": "address"
        }
      ],
      "name": "borrowBalanceCurrent",
      "outputs": [
        {
          "internalType": "uint256",
          "name": "",
          "type": "uint256"
        }
      ],
      "payable": false,
      "stateMutability": "nonpayable",
      "type": "function"
    },
    {
      "constant": true,
      "inputs": [
        {
          "internalType": "address",
          "name": "account",
          "type": "address"
        }
      ],
      "name": "borrowBalanceStored",
      "outputs": [
        {
          "internalType": "uint256",
          "name": "",
          "type": "uint256"
        }
      ],
      "payable": false,
      "stateMutability": "view",
      "type": "function"
    },
    {
      "constant": true,
      "inputs": [],
      "name": "borrowIndex",
      "outputs": [
        {
          "internalType": "uint256",
          "name": "",
          "type": "uint256"
        }
      ],
      "payable": false,
      "stateMutability": "view",
      "type": "function"
    },
    {
      "constant": true,
      "inputs": [],
      "name": "borrowRatePerBlock",
      "outputs": [
        {
          "internalType": "uint256",
          "name": "",
          "type": "uint256"
        }
      ],
      "payable": false,
      "stateMutability": "view",
      "type": "function"
    },
    {
      "constant": true,
      "inputs": [],
      "name": "comptroller",
      "outputs": [
        {
          "internalType": "contract ComptrollerInterface",
          "name": "",
          "type": "address"
        }
      ],
      "payable": false,
      "stateMutability": "view",
      "type": "function"
    },
    {
      "constant": true,
      "inputs": [],
      "name": "decimals",
      "outputs": [
        {
          "internalType": "uint8",
          "name": "",
          "type": "uint8"
        }
      ],
      "payable": false,
      "stateMutability": "view",
      "type": "function"
    },
    {
      "constant": false,
      "inputs": [],
      "name": "donate",
      "outputs": [],
      "payable": true,
      "stateMutability": "payable",
      "type": "function"
    },
    {
      "constant": false,
      "inputs": [],
      "name": "exchangeRateCurrent",
      "outputs": [
        {
          "internalType": "uint256",
          "name": "",
          "type": "uint256"
        }
      ],
      "payable": false,
      "stateMutability": "nonpayable",
      "type": "function"
    },
    {
      "constant": true,
      "inputs": [],
      "name": "exchangeRateStored",
      "outputs": [
        {
          "internalType": "uint256",
          "name": "",
          "type": "uint256"
        }
      ],
      "payable": false,
      "stateMutability": "view",
      "type": "function"
    },
    {
      "constant": true,
      "inputs": [
        {
          "internalType": "address",
          "name": "account",
          "type": "address"
        }
      ],
      "name": "getAccountSnapshot",
      "outputs": [
        {
          "internalType": "uint256",
          "name": "",
          "type": "uint256"
        },
        {
          "internalType": "uint256",
          "name": "",
          "type": "uint256"
        },
        {
          "internalType": "uint256",
          "name": "",
          "type": "uint256"
        },
        {
          "internalType": "uint256",
          "name": "",
          "type": "uint256"
        }
      ],
      "payable": false,
      "stateMutability": "view",
      "type": "function"
    },
    {
      "constant": true,
      "inputs": [],
      "name": "getCash",
      "outputs": [
        {
          "internalType": "uint256",
          "name": "",
          "type": "uint256"
        }
      ],
      "payable": false,
      "stateMutability": "view",
      "type": "function"
    },
    {
      "constant": false,
      "inputs": [
        {
          "internalType": "contract ComptrollerInterface",
          "name": "comptroller_",
          "type": "address"
        },
        {
          "internalType": "contract InterestRateModel",
          "name": "interestRateModel_",
          "type": "address"
        },
        {
          "internalType": "uint256",
          "name": "initialExchangeRateMantissa_",
          "type": "uint256"
        },
        {
          "internalType": "string",
          "name": "name_",
          "type": "string"
        },
        {
          "internalType": "string",
          "name": "symbol_",
          "type": "string"
        },
        {
          "internalType": "uint8",
          "name": "decimals_",
          "type": "uint8"
        }
      ],
      "name": "initialize",
      "outputs": [],
      "payable": false,
      "stateMutability": "nonpayable",
      "type": "function"
    },
    {
      "constant": true,
      "inputs": [],
      "name": "interestRateModel",
      "outputs": [
        {
          "internalType": "contract InterestRateModel",
          "name": "",
          "type": "address"
        }
      ],
      "payable": false,
      "stateMutability": "view",
      "type": "function"
    },
    {
      "constant": true,
      "inputs": [],
      "name": "isVToken",
      "outputs": [
        {
          "internalType": "bool",
          "name": "",
          "type": "bool"
        }
      ],
      "payable": false,
      "stateMutability": "view",
      "type": "function"
    },
    {
      "constant": false,
      "inputs": [
        {
          "internalType": "address",
          "name": "borrower",
          "type": "address"
        },
        {
          "internalType": "contract VToken",
          "name": "vTokenCollateral",
          "type": "address"
        }
      ],
      "name": "liquidateBorrow",
      "outputs": [],
      "payable": true,
      "stateMutability": "payable",
      "type": "function"
    },
    {
      "constant": false,
      "inputs": [],
      "name": "mint",
      "outputs": [],
      "payable": true,
      "stateMutability": "payable",
      "type": "function"
    },
    {
      "constant": true,
      "inputs": [],
      "name": "name",
      "outputs": [
        {
          "internalType": "string",
          "name": "",
          "type": "string"
        }
      ],
      "payable": false,
      "stateMutability": "view",
      "type": "function"
    },
    {
      "constant": true,
      "inputs": [],
      "name": "pendingAdmin",
      "outputs": [
        {
          "internalType": "address payable",
          "name": "",
          "type": "address"
        }
      ],
      "payable": false,
      "stateMutability": "view",
      "type": "function"
    },
    {
      "constant": false,
      "inputs": [
        {
          "internalType": "uint256",
          "name": "redeemTokens",
          "type": "uint256"
        }
      ],
      "name": "redeem",
      "outputs": [
        {
          "internalType": "uint256",
          "name": "",
          "type": "uint256"
        }
      ],
      "payable": false,
      "stateMutability": "nonpayable",
      "type": "function"
    },
    {
      "constant": false,
      "inputs": [
        {
          "internalType": "uint256",
          "name": "redeemAmount",
          "type": "uint256"
        }
      ],
      "name": "redeemUnderlying",
      "outputs": [
        {
          "internalType": "uint256",
          "name": "",
          "type": "uint256"
        }
      ],
      "payable": false,
      "stateMutability": "nonpayable",
      "type": "function"
    },
    {
      "constant": false,
      "inputs": [],
      "name": "repayBorrow",
      "outputs": [],
      "payable": true,
      "stateMutability": "payable",
      "type": "function"
    },
    {
      "constant": false,
      "inputs": [
        {
          "internalType": "address",
          "name": "borrower",
          "type": "address"
        }
      ],
      "name": "repayBorrowBehalf",
      "outputs": [],
      "payable": true,
      "stateMutability": "payable",
      "type": "function"
    },
    {
      "constant": true,
      "inputs": [],
      "name": "reserveFactorMantissa",
      "outputs": [
        {
          "internalType": "uint256",
          "name": "",
          "type": "uint256"
        }
      ],
      "payable": false,
      "stateMutability": "view",
      "type": "function"
    },
    {
      "constant": false,
      "inputs": [
        {
          "internalType": "address",
          "name": "liquidator",
          "type": "address"
        },
        {
          "internalType": "address",
          "name": "borrower",
          "type": "address"
        },
        {
          "internalType": "uint256",
          "name": "seizeTokens",
          "type": "uint256"
        }
      ],
      "name": "seize",
      "outputs": [
        {
          "internalType": "uint256",
          "name": "",
          "type": "uint256"
        }
      ],
      "payable": false,
      "stateMutability": "nonpayable",
      "type": "function"
    },
    {
      "constant": false,
      "inputs": [
        {
          "internalType": "uint256",
          "name": "totalBorrows_",
          "type": "uint256"
        }
      ],
      "name": "setTotalBorrows",
      "outputs": [],
      "payable": false,
      "stateMutability": "nonpayable",
      "type": "function"
    },
    {
      "constant": false,
      "inputs": [
        {
          "internalType": "uint256",
          "name": "totalReserves_",
          "type": "uint256"
        }
      ],
      "name": "setTotalReserves",
      "outputs": [],
      "payable": false,
      "stateMutability": "nonpayable",
      "type": "function"
    },
    {
      "constant": true,
      "inputs": [],
      "name": "supplyRatePerBlock",
      "outputs": [
        {
          "internalType": "uint256",
          "name": "",
          "type": "uint256"
        }
      ],
      "payable": false,
      "stateMutability": "view",
      "type": "function"
    },
    {
      "constant": true,
      "inputs": [],
      "name": "symbol",
      "outputs": [
        {
          "internalType": "string",
          "name": "",
          "type": "string"
        }
      ],
      "payable": false,
      "stateMutability": "view",
      "type": "function"
    },
    {
      "constant": true,
      "inputs": [],
      "name": "totalBorrows",
      "outputs": [
        {
          "internalType": "uint256",
          "name": "",
          "type": "uint256"
        }
      ],
      "payable": false,
      "stateMutability": "view",
      "type": "function"
    },
    {
      "constant": false,
      "inputs": [],
      "name": "totalBorrowsCurrent",
      "outputs": [
        {
          "internalType": "uint256",
          "name": "",
          "type": "uint256"
        }
      ],
      "payable": false,
      "stateMutability": "nonpayable",
      "type": "function"
    },
    {
      "constant": true,
      "inputs": [],
      "name": "totalReserves",
      "outputs": [
        {
          "internalType": "uint256",
          "name": "",
          "type": "uint256"
        }
      ],
      "payable": false,
      "stateMutability": "view",
      "type": "function"
    },
    {
      "constant": true,
      "inputs": [],
      "name": "totalSupply",
      "outputs": [
        {
          "internalType": "uint256",
          "name": "",
          "type": "uint256"
        }
      ],
      "payable": false,
      "stateMutability": "view",
      "type": "function"
    },
    {
      "constant": false,
      "inputs": [
        {
          "internalType": "address",
          "name": "dst",
          "type": "address"
        },
        {
          "internalType": "uint256",
          "name": "amount",
          "type": "uint256"
        }
      ],
      "name": "transfer",
      "outputs": [
        {
          "internalType": "bool",
          "name": "",
          "type": "bool"
        }
      ],
      "payable": false,
      "stateMutability": "nonpayable",
      "type": "function"
    },
    {
      "constant": false,
      "inputs": [
        {
          "internalType": "address",
          "name": "src",
          "type": "address"
        },
        {
          "internalType": "address",
          "name": "dst",
          "type": "address"
        },
        {
          "internalType": "uint256",
          "name": "amount",
          "type": "uint256"
        }
      ],
      "name": "transferFrom",
      "outputs": [
        {
          "internalType": "bool",
          "name": "",
          "type": "bool"
        }
      ],
      "payable": false,
      "stateMutability": "nonpayable",
      "type": "function"
    }
  ],
  "bytecode": "0x60806040523480156200001157600080fd5b5060405162005a6c38038062005a6c833981810160405260e08110156200003757600080fd5b81019080805160405193929190846401000000008211156200005857600080fd5b9083019060208201858111156200006e57600080fd5b82516401000000008111828201881017156200008957600080fd5b82525081516020918201929091019080838360005b83811015620000b85781810151838201526020016200009e565b50505050905090810190601f168015620000e65780820380516001836020036101000a031916815260200191505b50604052602001805160405193929190846401000000008211156200010a57600080fd5b9083019060208201858111156200012057600080fd5b82516401000000008111828201881017156200013b57600080fd5b82525081516020918201929091019080838360005b838110156200016a57818101518382015260200162000150565b50505050905090810190601f168015620001985780820380516001836020036101000a031916815260200191505b5060409081526020820151908201516060830151608084015160a09094015160038054610100600160a81b0319163361010002179055929550909350919082828289898989620001ed87878787878762000227565b600380546001600160a01b0390921661010002610100600160a81b031990921691909117905550620008db9b505050505050505050505050565b60035461010090046001600160a01b03163314620002775760405162461bcd60e51b8152600401808060200182810382526024815260200180620059d36024913960400191505060405180910390fd5b600954158015620002885750600a54155b620002c55760405162461bcd60e51b8152600401808060200182810382526023815260200180620059f76023913960400191505060405180910390fd5b600784905583620003085760405162461bcd60e51b815260040180806020018281038252603081526020018062005a1a6030913960400191505060405180910390fd5b60006200031e876001600160e01b036200043d16565b9050801562000374576040805162461bcd60e51b815260206004820152601a60248201527f73657474696e6720636f6d7074726f6c6c6572206661696c6564000000000000604482015290519081900360640190fd5b620003876001600160e01b03620005a516565b600955670de0b6b3a7640000600a55620003aa866001600160e01b036200062316565b90508015620003eb5760405162461bcd60e51b815260040180806020018281038252602281526020018062005a4a6022913960400191505060405180910390fd5b83516200040090600190602087019062000839565b5082516200041690600290602086019062000839565b50506003805460ff90921660ff199283161790556000805490911660011790555050505050565b60035460009061010090046001600160a01b0316331462000477576200046f6001603f6001600160e01b03620007c916565b9050620005a0565b60055460408051623f1ee960e11b815290516001600160a01b0392831692851691627e3dd2916004808301926020929190829003018186803b158015620004bd57600080fd5b505afa158015620004d2573d6000803e3d6000fd5b505050506040513d6020811015620004e957600080fd5b50516200053d576040805162461bcd60e51b815260206004820152601c60248201527f6d61726b6572206d6574686f642072657475726e65642066616c736500000000604482015290519081900360640190fd5b600580546001600160a01b0319166001600160a01b03858116918217909255604080519284168352602083019190915280517f7ac369dbd14fa5ea3f473ed67cc9d598964a77501540ba6751eb0b3decf5870d9281900390910190a160005b9150505b919050565b600554604080516357e871e760e01b815290516000926001600160a01b03169182916357e871e791600480820192602092909190829003018186803b158015620005ee57600080fd5b505afa15801562000603573d6000803e3d6000fd5b505050506040513d60208110156200061a57600080fd5b50519150505b90565b600354600090819061010090046001600160a01b03163314620006605762000657600160426001600160e01b03620007c916565b915050620005a0565b620006736001600160e01b03620005a516565b60095414620006935762000657600a60416001600160e01b03620007c916565b600660009054906101000a90046001600160a01b03169050826001600160a01b0316632191f92a6040518163ffffffff1660e01b815260040160206040518083038186803b158015620006e557600080fd5b505afa158015620006fa573d6000803e3d6000fd5b505050506040513d60208110156200071157600080fd5b505162000765576040805162461bcd60e51b815260206004820152601c60248201527f6d61726b6572206d6574686f642072657475726e65642066616c736500000000604482015290519081900360640190fd5b600680546001600160a01b0319166001600160a01b03858116918217909255604080519284168352602083019190915280517fedffc32e068c7c95dfd4bdfd5c4d939a084d6b11c4199eac8436ed234d72f9269281900390910190a160006200059c565b60007f45b96fe442630264581b197e84bbada861235052c5a1aadfff9ea4e40a969aa0836011811115620007f957fe5b8360568111156200080657fe5b604080519283526020830191909152600082820152519081900360600190a18260118111156200083257fe5b9392505050565b828054600181600116156101000203166002900490600052602060002090601f016020900481019282601f106200087c57805160ff1916838001178555620008ac565b82800160010185558215620008ac579182015b82811115620008ac5782518255916020019190600101906200088f565b50620008ba929150620008be565b5090565b6200062091905b80821115620008ba5760008155600101620008c5565b6150e880620008eb6000396000f3fe6080604052600436106102935760003560e01c806395dd91931161015a578063c37f68e2116100c1578063ed88c68e1161007a578063ed88c68e14610aac578063f2b3abbd14610ab4578063f3fdb15a14610ae7578063f851a44014610afc578063f8f9da2814610b11578063fca7820b14610b2657610293565b8063c37f68e214610989578063c5ebeaec146109e2578063db006a7514610a0c578063dd62ed3e14610a36578063e597461914610a71578063e9c714f214610a9757610293565b8063aae40a2a11610113578063aae40a2a14610891578063ae9d70b0146108bf578063b0e0bf2a146108d4578063b2a02ff1146108fe578063b71d1a0c14610941578063bd6d894d1461097457610293565b806395dd919314610672578063977e19e9146106a557806399d8c1b4146106cf578063a6afed951461082e578063a9059cbb14610843578063aa5af0fd1461087c57610293565b80633d9ea3a1116101fe5780636c540baf116101b75780636c540baf146105c157806370a08231146105d657806373acee9814610609578063852a12e31461061e5780638f840ddd1461064857806395d89b411461065d57610293565b80633d9ea3a11461051d5780634576b5db1461053257806347bd3718146105655780634e4d9fea1461057a5780635fe3b56714610582578063601a0bf11461059757610293565b8063182df0f511610250578063182df0f51461042157806323b872dd146104365780632678224714610479578063313ce567146104aa5780633af9e669146104d55780633b1d21a21461050857610293565b806306fdde03146102d1578063095ea7b31461035b5780631249c58b146103a8578063173b9904146103b257806317bfdfbc146103d957806318160ddd1461040c575b600061029e34610b50565b5090506102ce816040518060400160405280600b81526020016a1b5a5b9d0819985a5b195960aa1b815250610bf8565b50005b3480156102dd57600080fd5b506102e6610df8565b6040805160208082528351818301528351919283929083019185019080838360005b83811015610320578181015183820152602001610308565b50505050905090810190601f16801561034d5780820380516001836020036101000a031916815260200191505b509250505060405180910390f35b34801561036757600080fd5b506103946004803603604081101561037e57600080fd5b506001600160a01b038135169060200135610e85565b604080519115158252519081900360200190f35b6103b0610ef2565b005b3480156103be57600080fd5b506103c7610f30565b60408051918252519081900360200190f35b3480156103e557600080fd5b506103c7600480360360208110156103fc57600080fd5b50356001600160a01b0316610f36565b34801561041857600080fd5b506103c7610ff6565b34801561042d57600080fd5b506103c7610ffc565b34801561044257600080fd5b506103946004803603606081101561045957600080fd5b506001600160a01b0381358116916020810135909116906040013561105f565b34801561048557600080fd5b5061048e6110d1565b604080516001600160a01b039092168252519081900360200190f35b3480156104b657600080fd5b506104bf6110e0565b6040805160ff9092168252519081900360200190f35b3480156104e157600080fd5b506103c7600480360360208110156104f857600080fd5b50356001600160a01b03166110e9565b34801561051457600080fd5b506103c76111a1565b34801561052957600080fd5b506103946111b0565b34801561053e57600080fd5b506103c76004803603602081101561055557600080fd5b50356001600160a01b03166111b5565b34801561057157600080fd5b506103c761130a565b6103b0611310565b34801561058e57600080fd5b5061048e611352565b3480156105a357600080fd5b506103c7600480360360208110156105ba57600080fd5b5035611361565b3480156105cd57600080fd5b506103c76113fc565b3480156105e257600080fd5b506103c7600480360360208110156105f957600080fd5b50356001600160a01b0316611402565b34801561061557600080fd5b506103c761141d565b34801561062a57600080fd5b506103c76004803603602081101561064157600080fd5b50356114d3565b34801561065457600080fd5b506103c76114de565b34801561066957600080fd5b506102e66114e4565b34801561067e57600080fd5b506103c76004803603602081101561069557600080fd5b50356001600160a01b031661153c565b3480156106b157600080fd5b506103b0600480360360208110156106c857600080fd5b5035611599565b3480156106db57600080fd5b506103b0600480360360c08110156106f257600080fd5b6001600160a01b0382358116926020810135909116916040820135919081019060808101606082013564010000000081111561072d57600080fd5b82018360208201111561073f57600080fd5b8035906020019184600183028401116401000000008311171561076157600080fd5b91908080601f01602080910402602001604051908101604052809392919081815260200183838082843760009201919091525092959493602081019350359150506401000000008111156107b457600080fd5b8201836020820111156107c657600080fd5b803590602001918460018302840111640100000000831117156107e857600080fd5b91908080601f0160208091040260200160405190810160405280939291908181526020018383808284376000920191909152509295505050903560ff16915061159e9050565b34801561083a57600080fd5b506103c7611785565b34801561084f57600080fd5b506103946004803603604081101561086657600080fd5b506001600160a01b038135169060200135611add565b34801561088857600080fd5b506103c7611b4e565b6103b0600480360360408110156108a757600080fd5b506001600160a01b0381358116916020013516611b54565b3480156108cb57600080fd5b506103c7611ba1565b3480156108e057600080fd5b506103b0600480360360208110156108f757600080fd5b5035611c40565b34801561090a57600080fd5b506103c76004803603606081101561092157600080fd5b506001600160a01b03813581169160208101359091169060400135611c45565b34801561094d57600080fd5b506103c76004803603602081101561096457600080fd5b50356001600160a01b0316611cb6565b34801561098057600080fd5b506103c7611d42565b34801561099557600080fd5b506109bc600480360360208110156109ac57600080fd5b50356001600160a01b0316611dfe565b604080519485526020850193909352838301919091526060830152519081900360800190f35b3480156109ee57600080fd5b506103c760048036036020811015610a0557600080fd5b5035611e93565b348015610a1857600080fd5b506103c760048036036020811015610a2f57600080fd5b5035611e9e565b348015610a4257600080fd5b506103c760048036036040811015610a5957600080fd5b506001600160a01b0381358116916020013516611ea9565b6103b060048036036020811015610a8757600080fd5b50356001600160a01b0316611ed4565b348015610aa357600080fd5b506103c7611f22565b6103b061201a565b348015610ac057600080fd5b506103c760048036036020811015610ad757600080fd5b50356001600160a01b031661201c565b348015610af357600080fd5b5061048e612056565b348015610b0857600080fd5b5061048e612065565b348015610b1d57600080fd5b506103c7612079565b348015610b3257600080fd5b506103c760048036036020811015610b4957600080fd5b50356120dd565b60008054819060ff16610b97576040805162461bcd60e51b815260206004820152600a6024820152691c994b595b9d195c995960b21b604482015290519081900360640190fd5b6000805460ff19168155610ba9611785565b90508015610bd457610bc7816011811115610bc057fe5b601e61215b565b925060009150610be49050565b610bde33856121c1565b92509250505b6000805460ff191660011790559092909150565b81610c0257610df4565b606081516005016040519080825280601f01601f191660200182016040528015610c33576020820181803883390190505b50905060005b8251811015610c8457828181518110610c4e57fe5b602001015160f81c60f81b828281518110610c6557fe5b60200101906001600160f81b031916908160001a905350600101610c39565b8151600160fd1b90839083908110610c9857fe5b60200101906001600160f81b031916908160001a905350602860f81b828260010181518110610cc357fe5b60200101906001600160f81b031916908160001a905350600a840460300160f81b828260020181518110610cf357fe5b60200101906001600160f81b031916908160001a905350600a840660300160f81b828260030181518110610d2357fe5b60200101906001600160f81b031916908160001a905350602960f81b828260040181518110610d4e57fe5b60200101906001600160f81b031916908160001a905350818415610df05760405162461bcd60e51b81526004018080602001828103825283818151815260200191508051906020019080838360005b83811015610db5578181015183820152602001610d9d565b50505050905090810190601f168015610de25780820380516001836020036101000a031916815260200191505b509250505060405180910390fd5b5050505b5050565b60018054604080516020600284861615610100026000190190941693909304601f81018490048402820184019092528181529291830182828015610e7d5780601f10610e5257610100808354040283529160200191610e7d565b820191906000526020600020905b815481529060010190602001808311610e6057829003601f168201915b505050505081565b336000818152600f602090815260408083206001600160a01b03871680855290835281842086905581518681529151939493909284927f8c5be1e5ebec7d5bd14f71427d1e84f3dd0314c0f7b2291e5b200ac8c7c3b925929081900390910190a360019150505b92915050565b6000610efd34610b50565b509050610f2d816040518060400160405280600b81526020016a1b5a5b9d0819985a5b195960aa1b815250610bf8565b50565b60085481565b6000805460ff16610f7b576040805162461bcd60e51b815260206004820152600a6024820152691c994b595b9d195c995960b21b604482015290519081900360640190fd5b6000805460ff19168155610f8d611785565b14610fd8576040805162461bcd60e51b81526020600482015260166024820152751858d8dc9d59481a5b9d195c995cdd0819985a5b195960521b604482015290519081900360640190fd5b610fe18261153c565b90505b6000805460ff19166001179055919050565b600d5481565b6000806000611009612609565b9092509050600082600381111561101c57fe5b146110585760405162461bcd60e51b81526004018080602001828103825260358152602001806150236035913960400191505060405180910390fd5b9150505b90565b6000805460ff166110a4576040805162461bcd60e51b815260206004820152600a6024820152691c994b595b9d195c995960b21b604482015290519081900360640190fd5b6000805460ff191681556110ba338686866126b8565b1490506000805460ff191660011790559392505050565b6004546001600160a01b031681565b60035460ff1681565b60006110f3614d18565b6040518060200160405280611106611d42565b90526001600160a01b0384166000908152600e60205260408120549192509081906111329084906129c8565b9092509050600082600381111561114557fe5b14611197576040805162461bcd60e51b815260206004820152601f60248201527f62616c616e636520636f756c64206e6f742062652063616c63756c6174656400604482015290519081900360640190fd5b925050505b919050565b60006111ab612a1b565b905090565b600181565b60035460009061010090046001600160a01b031633146111e2576111db6001603f61215b565b905061119c565b60055460408051623f1ee960e11b815290516001600160a01b0392831692851691627e3dd2916004808301926020929190829003018186803b15801561122757600080fd5b505afa15801561123b573d6000803e3d6000fd5b505050506040513d602081101561125157600080fd5b50516112a4576040805162461bcd60e51b815260206004820152601c60248201527f6d61726b6572206d6574686f642072657475726e65642066616c736500000000604482015290519081900360640190fd5b600580546001600160a01b0319166001600160a01b03858116918217909255604080519284168352602083019190915280517f7ac369dbd14fa5ea3f473ed67cc9d598964a77501540ba6751eb0b3decf5870d9281900390910190a160005b9392505050565b600b5481565b600061131b34612a87565b509050610f2d81604051806040016040528060128152602001711c995c185e509bdc9c9bddc819985a5b195960721b815250610bf8565b6005546001600160a01b031681565b6000805460ff166113a6576040805162461bcd60e51b815260206004820152600a6024820152691c994b595b9d195c995960b21b604482015290519081900360640190fd5b6000805460ff191681556113b8611785565b905080156113de576113d68160118111156113cf57fe5b603061215b565b915050610fe4565b6113e783612b09565b9150506000805460ff19166001179055919050565b60095481565b6001600160a01b03166000908152600e602052604090205490565b6000805460ff16611462576040805162461bcd60e51b815260206004820152600a6024820152691c994b595b9d195c995960b21b604482015290519081900360640190fd5b6000805460ff19168155611474611785565b146114bf576040805162461bcd60e51b81526020600482015260166024820152751858d8dc9d59481a5b9d195c995cdd0819985a5b195960521b604482015290519081900360640190fd5b50600b546000805460ff1916600117905590565b6000610eec82612bfd565b600c5481565b6002805460408051602060018416156101000260001901909316849004601f81018490048402820184019092528181529291830182828015610e7d5780601f10610e5257610100808354040283529160200191610e7d565b600080600061154a84612c7e565b9092509050600082600381111561155d57fe5b146113035760405162461bcd60e51b8152600401808060200182810382526037815260200180614f2e6037913960400191505060405180910390fd5b600b55565b60035461010090046001600160a01b031633146115ec5760405162461bcd60e51b8152600401808060200182810382526024815260200180614e6a6024913960400191505060405180910390fd5b6009541580156115fc5750600a54155b6116375760405162461bcd60e51b8152600401808060200182810382526023815260200180614e8e6023913960400191505060405180910390fd5b6007849055836116785760405162461bcd60e51b8152600401808060200182810382526030815260200180614eb16030913960400191505060405180910390fd5b6000611683876111b5565b905080156116d8576040805162461bcd60e51b815260206004820152601a60248201527f73657474696e6720636f6d7074726f6c6c6572206661696c6564000000000000604482015290519081900360640190fd5b6116e0612d32565b600955670de0b6b3a7640000600a556116f886612dac565b905080156117375760405162461bcd60e51b8152600401808060200182810382526022815260200180614ee16022913960400191505060405180910390fd5b835161174a906001906020870190614d2b565b50825161175e906002906020860190614d2b565b50506003805460ff90921660ff199283161790556000805490911660011790555050505050565b600080611790612d32565b600954909150808214156117a95760009250505061105c565b60006117b3612a1b565b600b54600c54600a54600654604080516315f2405360e01b815260048101879052602481018690526044810185905290519596509394929391926000926001600160a01b03909216916315f24053916064808301926020929190829003018186803b15801561182157600080fd5b505afa158015611835573d6000803e3d6000fd5b505050506040513d602081101561184b57600080fd5b5051905065048c273950008111156118aa576040805162461bcd60e51b815260206004820152601c60248201527f626f72726f772072617465206973206162737572646c79206869676800000000604482015290519081900360640190fd5b6000806118b78989612f21565b909250905060008260038111156118ca57fe5b1461191c576040805162461bcd60e51b815260206004820152601f60248201527f636f756c64206e6f742063616c63756c61746520626c6f636b2064656c746100604482015290519081900360640190fd5b611924614d18565b60008060008061194260405180602001604052808a81525087612f44565b9097509450600087600381111561195557fe5b14611987576119726009600689600381111561196d57fe5b612fac565b9e50505050505050505050505050505061105c565b611991858c6129c8565b909750935060008760038111156119a457fe5b146119bc576119726009600189600381111561196d57fe5b6119c6848c613012565b909750925060008760038111156119d957fe5b146119f1576119726009600489600381111561196d57fe5b611a0c6040518060200160405280600854815250858c613038565b90975091506000876003811115611a1f57fe5b14611a37576119726009600589600381111561196d57fe5b611a42858a8b613038565b90975090506000876003811115611a5557fe5b14611a6d576119726009600389600381111561196d57fe5b60098e9055600a819055600b839055600c829055604080518d8152602081018690528082018390526060810185905290517f4dec04e750ca11537cabcd8a9eab06494de08da3735bc8871cd41250e190bc049181900360800190a160009e50505050505050505050505050505090565b6000805460ff16611b22576040805162461bcd60e51b815260206004820152600a6024820152691c994b595b9d195c995960b21b604482015290519081900360640190fd5b6000805460ff19168155611b38333386866126b8565b1490506000805460ff1916600117905592915050565b600a5481565b6000611b61833484613094565b509050611b9c81604051806040016040528060168152602001751b1a5c5d5a59185d19509bdc9c9bddc819985a5b195960521b815250610bf8565b505050565b6006546000906001600160a01b031663b8168816611bbd612a1b565b600b54600c546008546040518563ffffffff1660e01b81526004018085815260200184815260200183815260200182815260200194505050505060206040518083038186803b158015611c0f57600080fd5b505afa158015611c23573d6000803e3d6000fd5b505050506040513d6020811015611c3957600080fd5b5051905090565b600c55565b6000805460ff16611c8a576040805162461bcd60e51b815260206004820152600a6024820152691c994b595b9d195c995960b21b604482015290519081900360640190fd5b6000805460ff19169055611ca0338585856131c6565b90506000805460ff191660011790559392505050565b60035460009061010090046001600160a01b03163314611cdc576111db6001604561215b565b600480546001600160a01b038481166001600160a01b0319831681179093556040805191909216808252602082019390935281517fca4f2f25d0898edd99413412fb94012f9e54ec8142f9b093e7720646a95b16a9929181900390910190a16000611303565b6000805460ff16611d87576040805162461bcd60e51b815260206004820152600a6024820152691c994b595b9d195c995960b21b604482015290519081900360640190fd5b6000805460ff19168155611d99611785565b14611de4576040805162461bcd60e51b81526020600482015260166024820152751858d8dc9d59481a5b9d195c995cdd0819985a5b195960521b604482015290519081900360640190fd5b611dec610ffc565b90506000805460ff1916600117905590565b6001600160a01b0381166000908152600e6020526040812054819081908190818080611e2989612c7e565b935090506000816003811115611e3b57fe5b14611e595760095b975060009650869550859450611e8c9350505050565b611e61612609565b925090506000816003811115611e7357fe5b14611e7f576009611e43565b5060009650919450925090505b9193509193565b6000610eec8261342c565b6000610eec826134ab565b6001600160a01b039182166000908152600f6020908152604080832093909416825291909152205490565b6000611ee08234613525565b509050610df4816040518060400160405280601881526020017f7265706179426f72726f77426568616c66206661696c65640000000000000000815250610bf8565b6004546000906001600160a01b03163314611f4a57611f436001600061215b565b905061105c565b60038054600480546001600160a01b03818116610100818102610100600160a81b0319871617968790556001600160a01b031990931690935560408051948390048216808652929095041660208401528351909391927ff9ffabca9c8276e99321725bcb43fb076a6c66a54b7f21c4e8146d8519b417dc92908290030190a1600454604080516001600160a01b038085168252909216602083015280517fca4f2f25d0898edd99413412fb94012f9e54ec8142f9b093e7720646a95b16a99281900390910190a160009250505090565b565b600080612027611785565b9050801561204d5761204581601181111561203e57fe5b604061215b565b91505061119c565b61130383612dac565b6006546001600160a01b031681565b60035461010090046001600160a01b031681565b6006546000906001600160a01b03166315f24053612095612a1b565b600b54600c546040518463ffffffff1660e01b815260040180848152602001838152602001828152602001935050505060206040518083038186803b158015611c0f57600080fd5b6000805460ff16612122576040805162461bcd60e51b815260206004820152600a6024820152691c994b595b9d195c995960b21b604482015290519081900360640190fd5b6000805460ff19168155612134611785565b90508015612152576113d681601181111561214b57fe5b604661215b565b6113e7836135d0565b60007f45b96fe442630264581b197e84bbada861235052c5a1aadfff9ea4e40a969aa083601181111561218a57fe5b83605681111561219657fe5b604080519283526020830191909152600082820152519081900360600190a182601181111561130357fe5b60055460408051634ef4c3e160e01b81523060048201526001600160a01b03858116602483015260448201859052915160009384938493911691634ef4c3e19160648082019260209290919082900301818787803b15801561222257600080fd5b505af1158015612236573d6000803e3d6000fd5b505050506040513d602081101561224c57600080fd5b505190508015612270576122636003601f83612fac565b9250600091506126029050565b612278612d32565b6009541461228c57612263600a602261215b565b612294614da9565b61229c612609565b60208301819052828260038111156122b057fe5b60038111156122bb57fe5b90525060009050815160038111156122cf57fe5b146122f9576122eb600960218360000151600381111561196d57fe5b935060009250612602915050565b6123038686613678565b60a082018190526040805160208082019092529083015181526123269190613714565b604083018190528282600381111561233a57fe5b600381111561234557fe5b905250600090508151600381111561235957fe5b146123ab576040805162461bcd60e51b815260206004820181905260248201527f4d494e545f45584348414e47455f43414c43554c4154494f4e5f4641494c4544604482015290519081900360640190fd5b6123bb600d548260400151613012565b60608301819052828260038111156123cf57fe5b60038111156123da57fe5b90525060009050815160038111156123ee57fe5b1461242a5760405162461bcd60e51b81526004018080602001828103825260288152602001806150586028913960400191505060405180910390fd5b6001600160a01b0386166000908152600e60205260409081902054908201516124539190613012565b608083018190528282600381111561246757fe5b600381111561247257fe5b905250600090508151600381111561248657fe5b146124c25760405162461bcd60e51b815260040180806020018281038252602b815260200180614f03602b913960400191505060405180910390fd5b606080820151600d5560808201516001600160a01b0388166000818152600e60209081526040918290209390935560a0850151818601518251938452938301528181019290925290517f4c209b5fc8ad50758f13e2e1088ba56a560dff690a1c6fef26394f4c03821c4f929181900390910190a1604080820151815190815290516001600160a01b038816913091600080516020614f9f8339815191529181900360200190a360055460a082015160408084015181516341c728b960e01b81523060048201526001600160a01b038b8116602483015260448201949094526064810191909152905191909216916341c728b991608480830192600092919082900301818387803b1580156125d557600080fd5b505af11580156125e9573d6000803e3d6000fd5b50600092506125f6915050565b8160a001519350935050505b9250929050565b600d54600090819080612624575050600754600091506126b4565b600061262e612a1b565b9050600061263a614d18565b600061264b84600b54600c5461372b565b93509050600081600381111561265d57fe5b14612672579550600094506126b49350505050565b61267c8386613769565b92509050600081600381111561268e57fe5b146126a3579550600094506126b49350505050565b50516000955093506126b492505050565b9091565b600554604080516317b9b84b60e31b81523060048201526001600160a01b03868116602483015285811660448301526064820185905291516000938493169163bdcdc25891608480830192602092919082900301818787803b15801561271d57600080fd5b505af1158015612731573d6000803e3d6000fd5b505050506040513d602081101561274757600080fd5b5051905080156127665761275e6003604a83612fac565b9150506129c0565b836001600160a01b0316856001600160a01b0316141561278c5761275e6002604b61215b565b60006001600160a01b0387811690871614156127ab57506000196127d3565b506001600160a01b038086166000908152600f60209081526040808320938a16835292905220545b6000806000806127e38589612f21565b909450925060008460038111156127f657fe5b14612814576128076009604b61215b565b96505050505050506129c0565b6001600160a01b038a166000908152600e60205260409020546128379089612f21565b9094509150600084600381111561284a57fe5b1461285b576128076009604c61215b565b6001600160a01b0389166000908152600e602052604090205461287e9089613012565b9094509050600084600381111561289157fe5b146128a2576128076009604d61215b565b6001600160a01b03808b166000908152600e6020526040808220859055918b1681522081905560001985146128fa576001600160a01b03808b166000908152600f60209081526040808320938f168352929052208390555b886001600160a01b03168a6001600160a01b0316600080516020614f9f8339815191528a6040518082815260200191505060405180910390a36005546040805163352b4a3f60e11b81523060048201526001600160a01b038d811660248301528c81166044830152606482018c905291519190921691636a56947e91608480830192600092919082900301818387803b15801561299657600080fd5b505af11580156129aa573d6000803e3d6000fd5b50600092506129b7915050565b96505050505050505b949350505050565b60008060006129d5614d18565b6129df8686612f44565b909250905060008260038111156129f257fe5b14612a035750915060009050612602565b6000612a0e82613819565b9350935050509250929050565b6000806000612a2a4734612f21565b90925090506000826003811115612a3d57fe5b14611058576040805162461bcd60e51b815260206004820152601560248201527431b0b9b410383934b7b91036b0ba341032b93937b960591b604482015290519081900360640190fd5b60008054819060ff16612ace576040805162461bcd60e51b815260206004820152600a6024820152691c994b595b9d195c995960b21b604482015290519081900360640190fd5b6000805460ff19168155612ae0611785565b90508015612afe57610bc7816011811115612af757fe5b603661215b565b610bde333386613828565b600354600090819061010090046001600160a01b03163314612b31576120456001603161215b565b612b39612d32565b60095414612b4d57612045600a603361215b565b82612b56612a1b565b1015612b6857612045600e603261215b565b600c54831115612b7e576120456002603461215b565b50600c805483900390819055600354612ba59061010090046001600160a01b031684613c0d565b600354604080516101009092046001600160a01b0316825260208201859052818101839052517f3bad0c59cf2f06e7314077049f48a93578cd16f5ef92329f1dab1420a99c177e916060908290030190a16000611303565b6000805460ff16612c42576040805162461bcd60e51b815260206004820152600a6024820152691c994b595b9d195c995960b21b604482015290519081900360640190fd5b6000805460ff19168155612c54611785565b90508015612c72576113d6816011811115612c6b57fe5b602761215b565b6113e733600085613c43565b6001600160a01b038116600090815260106020526040812080548291829182918291612cb5575060009450849350612d2d92505050565b612cc58160000154600a546143be565b90945092506000846003811115612cd857fe5b14612ced575091935060009250612d2d915050565b612cfb8382600101546143fd565b90945091506000846003811115612d0e57fe5b14612d23575091935060009250612d2d915050565b5060009450925050505b915091565b600554604080516357e871e760e01b815290516000926001600160a01b03169182916357e871e791600480820192602092909190829003018186803b158015612d7a57600080fd5b505afa158015612d8e573d6000803e3d6000fd5b505050506040513d6020811015612da457600080fd5b505191505090565b600354600090819061010090046001600160a01b03163314612dd4576120456001604261215b565b612ddc612d32565b60095414612df057612045600a604161215b565b600660009054906101000a90046001600160a01b03169050826001600160a01b0316632191f92a6040518163ffffffff1660e01b815260040160206040518083038186803b158015612e4157600080fd5b505afa158015612e55573d6000803e3d6000fd5b505050506040513d6020811015612e6b57600080fd5b5051612ebe576040805162461bcd60e51b815260206004820152601c60248201527f6d61726b6572206d6574686f642072657475726e65642066616c736500000000604482015290519081900360640190fd5b600680546001600160a01b0319166001600160a01b03858116918217909255604080519284168352602083019190915280517fedffc32e068c7c95dfd4bdfd5c4d939a084d6b11c4199eac8436ed234d72f9269281900390910190a16000611303565b600080838311612f38575060009050818303612602565b50600390506000612602565b6000612f4e614d18565b600080612f5f8660000151866143be565b90925090506000826003811115612f7257fe5b14612f9157506040805160208101909152600081529092509050612602565b60408051602081019091529081526000969095509350505050565b60007f45b96fe442630264581b197e84bbada861235052c5a1aadfff9ea4e40a969aa0846011811115612fdb57fe5b846056811115612fe757fe5b604080519283526020830191909152818101859052519081900360600190a18360118111156129c057fe5b60008083830184811061302a57600092509050612602565b506002915060009050612602565b6000806000613045614d18565b61304f8787612f44565b9092509050600082600381111561306257fe5b14613073575091506000905061308c565b61308561307f82613819565b86613012565b9350935050505b935093915050565b60008054819060ff166130db576040805162461bcd60e51b815260206004820152600a6024820152691c994b595b9d195c995960b21b604482015290519081900360640190fd5b6000805460ff191681556130ed611785565b905080156131185761310b81601181111561310457fe5b600f61215b565b9250600091506131af9050565b836001600160a01b031663a6afed956040518163ffffffff1660e01b8152600401602060405180830381600087803b15801561315357600080fd5b505af1158015613167573d6000803e3d6000fd5b505050506040513d602081101561317d57600080fd5b50519050801561319d5761310b81601181111561319657fe5b601061215b565b6131a933878787614428565b92509250505b6000805460ff191660011790559094909350915050565b6005546040805163d02f735160e01b81523060048201526001600160a01b038781166024830152868116604483015285811660648301526084820185905291516000938493169163d02f73519160a480830192602092919082900301818787803b15801561323357600080fd5b505af1158015613247573d6000803e3d6000fd5b505050506040513d602081101561325d57600080fd5b5051905080156132745761275e6003601b83612fac565b846001600160a01b0316846001600160a01b0316141561329a5761275e6006601c61215b565b6001600160a01b0384166000908152600e6020526040812054819081906132c19087612f21565b909350915060008360038111156132d457fe5b146132f7576132ec6009601a85600381111561196d57fe5b9450505050506129c0565b6001600160a01b0388166000908152600e602052604090205461331a9087613012565b9093509050600083600381111561332d57fe5b14613345576132ec6009601985600381111561196d57fe5b6001600160a01b038088166000818152600e60209081526040808320879055938c168083529184902085905583518a815293519193600080516020614f9f833981519152929081900390910190a360055460408051636d35bf9160e01b81523060048201526001600160a01b038c811660248301528b811660448301528a81166064830152608482018a905291519190921691636d35bf919160a480830192600092919082900301818387803b1580156133fe57600080fd5b505af1158015613412573d6000803e3d6000fd5b506000925061341f915050565b9998505050505050505050565b6000805460ff16613471576040805162461bcd60e51b815260206004820152600a6024820152691c994b595b9d195c995960b21b604482015290519081900360640190fd5b6000805460ff19168155613483611785565b905080156134a1576113d681601181111561349a57fe5b600861215b565b6113e733846149ab565b6000805460ff166134f0576040805162461bcd60e51b815260206004820152600a6024820152691c994b595b9d195c995960b21b604482015290519081900360640190fd5b6000805460ff19168155613502611785565b90508015613519576113d6816011811115612c6b57fe5b6113e733846000613c43565b60008054819060ff1661356c576040805162461bcd60e51b815260206004820152600a6024820152691c994b595b9d195c995960b21b604482015290519081900360640190fd5b6000805460ff1916815561357e611785565b905080156135a95761359c81601181111561359557fe5b603561215b565b9250600091506135ba9050565b6135b4338686613828565b92509250505b6000805460ff1916600117905590939092509050565b60035460009061010090046001600160a01b031633146135f6576111db6001604761215b565b6135fe612d32565b60095414613612576111db600a604861215b565b670de0b6b3a764000082111561362e576111db6002604961215b565b6008805490839055604080518281526020810185905281517faaa68312e2ea9d50e16af5068410ab56e1a1fd06037b1a35664812c30f821460929181900390910190a16000611303565b6000336001600160a01b038416146136c9576040805162461bcd60e51b815260206004820152600f60248201526e0e6cadcc8cae440dad2e6dac2e8c6d608b1b604482015290519081900360640190fd5b81341461370e576040805162461bcd60e51b815260206004820152600e60248201526d0ecc2d8eaca40dad2e6dac2e8c6d60931b604482015290519081900360640190fd5b50919050565b6000806000613721614d18565b6129df8686614cb9565b60008060008061373b8787613012565b9092509050600082600381111561374e57fe5b1461375f575091506000905061308c565b6130858186612f21565b6000613773614d18565b60008061378886670de0b6b3a76400006143be565b9092509050600082600381111561379b57fe5b146137ba57506040805160208101909152600081529092509050612602565b6000806137c783886143fd565b909250905060008260038111156137da57fe5b146137fc57506040805160208101909152600081529094509250612602915050565b604080516020810190915290815260009890975095505050505050565b51670de0b6b3a7640000900490565b60055460408051631200453160e11b81523060048201526001600160a01b0386811660248301528581166044830152606482018590529151600093849384939116916324008a629160848082019260209290919082900301818787803b15801561389157600080fd5b505af11580156138a5573d6000803e3d6000fd5b505050506040513d60208110156138bb57600080fd5b5051905080156138df576138d26003603883612fac565b92506000915061308c9050565b6138e7612d32565b600954146138fb576138d2600a603961215b565b613903614de0565b6001600160a01b038616600090815260106020526040902060010154606082015261392d86612c7e565b608083018190526020830182600381111561394457fe5b600381111561394f57fe5b905250600090508160200151600381111561396657fe5b1461399057613982600960378360200151600381111561196d57fe5b93506000925061308c915050565b6000198514156139a957608081015160408201526139b1565b604081018590525b6139bf878260400151613678565b60e0820181905260808201516139d491612f21565b60a08301819052602083018260038111156139eb57fe5b60038111156139f657fe5b9052506000905081602001516003811115613a0d57fe5b14613a495760405162461bcd60e51b815260040180806020018281038252603a815260200180614f65603a913960400191505060405180910390fd5b613a59600b548260e00151612f21565b60c0830181905260208301826003811115613a7057fe5b6003811115613a7b57fe5b9052506000905081602001516003811115613a9257fe5b14613ace5760405162461bcd60e51b8152600401808060200182810382526031815260200180614fbf6031913960400191505060405180910390fd5b60a080820180516001600160a01b03808a16600081815260106020908152604091829020948555600a5460019095019490945560c0870151600b81905560e088015195518251948f16855294840192909252828101949094526060820192909252608081019190915290517f1a2a22cb034d26d1854bdc6666a5b91fe25efbbb5dcad3b0355478d6f5c362a1929181900390910190a160055460e0820151606083015160408051631ededc9160e01b81523060048201526001600160a01b038c811660248301528b8116604483015260648201949094526084810192909252519190921691631ededc919160a480830192600092919082900301818387803b158015613bd957600080fd5b505af1158015613bed573d6000803e3d6000fd5b5060009250613bfa915050565b8160e00151935093505050935093915050565b6040516001600160a01b0383169082156108fc029083906000818181858888f19350505050158015611b9c573d6000803e3d6000fd5b6000821580613c50575081155b613c8b5760405162461bcd60e51b81526004018080602001828103825260348152602001806150806034913960400191505060405180910390fd5b613c93614da9565b613c9b612609565b6020830181905282826003811115613caf57fe5b6003811115613cba57fe5b9052506000905081516003811115613cce57fe5b14613cf257613cea6009602b8360000151600381111561196d57fe5b915050611303565b8315613d6e57604080820185905280516020808201909252908201518152613d1a90856129c8565b6060830181905282826003811115613d2e57fe5b6003811115613d3957fe5b9052506000905081516003811115613d4d57fe5b14613d6957613cea600960298360000151600381111561196d57fe5b613de1565b613d8a8360405180602001604052808460200151815250613714565b6040830181905282826003811115613d9e57fe5b6003811115613da957fe5b9052506000905081516003811115613dbd57fe5b14613dd957613cea6009602a8360000151600381111561196d57fe5b606081018390525b600554604080830151815163eabe7d9160e01b81523060048201526001600160a01b03898116602483015260448201929092529151600093919091169163eabe7d9191606480830192602092919082900301818787803b158015613e4457600080fd5b505af1158015613e58573d6000803e3d6000fd5b505050506040513d6020811015613e6e57600080fd5b505190508015613e8e57613e856003602883612fac565b92505050611303565b613e96612d32565b60095414613eaa57613e85600a602c61215b565b613eba600d548360400151612f21565b6080840181905283826003811115613ece57fe5b6003811115613ed957fe5b9052506000905082516003811115613eed57fe5b14613f0957613e856009602e8460000151600381111561196d57fe5b6001600160a01b0386166000908152600e6020526040908190205490830151613f329190612f21565b60a0840181905283826003811115613f4657fe5b6003811115613f5157fe5b9052506000905082516003811115613f6557fe5b14613f8157613e856009602d8460000151600381111561196d57fe5b8160600151613f8e612a1b565b1015613fa057613e85600e602f61215b565b600080600560009054906101000a90046001600160a01b03166001600160a01b03166304ef9d586040518163ffffffff1660e01b815260040160206040518083038186803b158015613ff157600080fd5b505afa158015614005573d6000803e3d6000fd5b505050506040513d602081101561401b57600080fd5b50511561427557606084015160055460408051629df3ab60e31b8152905161409e93926001600160a01b0316916304ef9d58916004808301926020929190829003018186803b15801561406d57600080fd5b505afa158015614081573d6000803e3d6000fd5b505050506040513d602081101561409757600080fd5b50516143be565b925082858260038111156140ae57fe5b60038111156140b957fe5b90525060009050845160038111156140cd57fe5b146140f4576140e9600960568660000151600381111561196d57fe5b945050505050611303565b61410682670de0b6b3a76400006143fd565b9250828582600381111561411657fe5b600381111561412157fe5b905250600090508451600381111561413557fe5b14614151576140e9600960568660000151600381111561196d57fe5b61415f846060015183612f21565b9150818582600381111561416f57fe5b600381111561417a57fe5b905250600090508451600381111561418e57fe5b146141aa576140e9600960568660000151600381111561196d57fe5b6005546040805163c5f956af60e01b81529051614222926001600160a01b03169163c5f956af916004808301926020929190829003018186803b1580156141f057600080fd5b505afa158015614204573d6000803e3d6000fd5b505050506040513d602081101561421a57600080fd5b505183613c0d565b60408085015181516001600160a01b038b168152602081018590528083019190915290517fccf8e53b86a99b7e9ecf796342c165764d66154780f638c08e6241d711fba6d49181900360600190a161427c565b5060608301515b6142868882613c0d565b6080840151600d5560a08401516001600160a01b0389166000818152600e60209081526040918290209390935580870151815190815290513093600080516020614f9f833981519152928290030190a360408085015181516001600160a01b038b168152602081018490528083019190915290517fe5b754fb1abb7f01b499791d0b820ae3b6af3424ac1c59768edb53f4ec31a9299181900360600190a1600554606085015160408087015181516351dff98960e01b81523060048201526001600160a01b038d8116602483015260448201949094526064810191909152905191909216916351dff98991608480830192600092919082900301818387803b15801561439157600080fd5b505af11580156143a5573d6000803e3d6000fd5b50600092506143b2915050565b98975050505050505050565b600080836143d157506000905080612602565b838302838582816143de57fe5b04146143f257506002915060009050612602565b600092509050612602565b600080826144115750600190506000612602565b600083858161441c57fe5b04915091509250929050565b60055460408051632fe3f38f60e11b81523060048201526001600160a01b0384811660248301528781166044830152868116606483015260848201869052915160009384938493911691635fc7e71e9160a48082019260209290919082900301818787803b15801561449957600080fd5b505af11580156144ad573d6000803e3d6000fd5b505050506040513d60208110156144c357600080fd5b5051905080156144e7576144da6003601283612fac565b9250600091506149a29050565b6144ef612d32565b60095414614503576144da600a601661215b565b61450b612d32565b846001600160a01b0316636c540baf6040518163ffffffff1660e01b815260040160206040518083038186803b15801561454457600080fd5b505afa158015614558573d6000803e3d6000fd5b505050506040513d602081101561456e57600080fd5b505114614581576144da600a601161215b565b866001600160a01b0316866001600160a01b031614156145a7576144da6006601761215b565b846145b8576144da6007601561215b565b6000198514156145ce576144da6007601461215b565b6000806145dc898989613828565b9092509050811561460c576145fd8260118111156145f657fe5b601861215b565b9450600093506149a292505050565b6005546040805163c488847b60e01b81523060048201526001600160a01b038981166024830152604482018590528251600094859492169263c488847b926064808301939192829003018186803b15801561466657600080fd5b505afa15801561467a573d6000803e3d6000fd5b505050506040513d604081101561469057600080fd5b508051602090910151909250905081156146db5760405162461bcd60e51b8152600401808060200182810382526033815260200180614ff06033913960400191505060405180910390fd5b80886001600160a01b03166370a082318c6040518263ffffffff1660e01b815260040180826001600160a01b03166001600160a01b0316815260200191505060206040518083038186803b15801561473257600080fd5b505afa158015614746573d6000803e3d6000fd5b505050506040513d602081101561475c57600080fd5b505110156147b1576040805162461bcd60e51b815260206004820152601860248201527f4c49515549444154455f5345495a455f544f4f5f4d5543480000000000000000604482015290519081900360640190fd5b60006001600160a01b0389163014156147d7576147d0308d8d856131c6565b9050614861565b6040805163b2a02ff160e01b81526001600160a01b038e811660048301528d81166024830152604482018590529151918b169163b2a02ff1916064808201926020929091908290030181600087803b15801561483257600080fd5b505af1158015614846573d6000803e3d6000fd5b505050506040513d602081101561485c57600080fd5b505190505b80156148ab576040805162461bcd60e51b81526020600482015260146024820152731d1bdad95b881cd95a5e9d5c994819985a5b195960621b604482015290519081900360640190fd5b604080516001600160a01b03808f168252808e1660208301528183018790528b1660608201526080810184905290517f298637f684da70674f26509b10f07ec2fbc77a335ab1e7d6215a4b2484d8bb529181900360a00190a1600554604080516347ef3b3b60e01b81523060048201526001600160a01b038c811660248301528f811660448301528e811660648301526084820188905260a48201869052915191909216916347ef3b3b9160c480830192600092919082900301818387803b15801561497657600080fd5b505af115801561498a573d6000803e3d6000fd5b5060009250614997915050565b975092955050505050505b94509492505050565b6005546040805163368f515360e21b81523060048201526001600160a01b0385811660248301526044820185905291516000938493169163da3d454c91606480830192602092919082900301818787803b158015614a0857600080fd5b505af1158015614a1c573d6000803e3d6000fd5b505050506040513d6020811015614a3257600080fd5b505190508015614a5157614a496003600e83612fac565b915050610eec565b614a59612d32565b60095414614a6c57614a49600a8061215b565b82614a75612a1b565b1015614a8757614a49600e600961215b565b614a8f614e26565b614a9885612c7e565b6020830181905282826003811115614aac57fe5b6003811115614ab757fe5b9052506000905081516003811115614acb57fe5b14614af057614ae7600960078360000151600381111561196d57fe5b92505050610eec565b614afe816020015185613012565b6040830181905282826003811115614b1257fe5b6003811115614b1d57fe5b9052506000905081516003811115614b3157fe5b14614b4d57614ae76009600c8360000151600381111561196d57fe5b614b59600b5485613012565b6060830181905282826003811115614b6d57fe5b6003811115614b7857fe5b9052506000905081516003811115614b8c57fe5b14614ba857614ae76009600b8360000151600381111561196d57fe5b614bb28585613c0d565b604080820180516001600160a01b03881660008181526010602090815290859020928355600a54600190930192909255606080860151600b81905593518551928352928201899052818501929092529081019190915290517f13ed6866d4e1ee6da46f845c46d7e54120883d75c5ea9a2dacc1c4ca8984ab809181900360800190a160055460408051635c77860560e01b81523060048201526001600160a01b0388811660248301526044820188905291519190921691635c77860591606480830192600092919082900301818387803b158015614c8f57600080fd5b505af1158015614ca3573d6000803e3d6000fd5b5060009250614cb0915050565b95945050505050565b6000614cc3614d18565b600080614cd8670de0b6b3a7640000876143be565b90925090506000826003811115614ceb57fe5b14614d0a57506040805160208101909152600081529092509050612602565b612a0e818660000151613769565b6040518060200160405280600081525090565b828054600181600116156101000203166002900490600052602060002090601f016020900481019282601f10614d6c57805160ff1916838001178555614d99565b82800160010185558215614d99579182015b82811115614d99578251825591602001919060010190614d7e565b50614da5929150614e4f565b5090565b6040805160c08101909152806000815260200160008152602001600081526020016000815260200160008152602001600081525090565b6040805161010081019091528060008152602001600081526020016000815260200160008152602001600081526020016000815260200160008152602001600081525090565b604080516080810190915280600081526020016000815260200160008152602001600081525090565b61105c91905b80821115614da55760008155600101614e5556fe6f6e6c792061646d696e206d617920696e697469616c697a6520746865206d61726b65746d61726b6574206d6179206f6e6c7920626520696e697469616c697a6564206f6e6365696e697469616c2065786368616e67652072617465206d7573742062652067726561746572207468616e207a65726f2e73657474696e6720696e7465726573742072617465206d6f64656c206661696c65644d494e545f4e45575f4143434f554e545f42414c414e43455f43414c43554c4154494f4e5f4641494c4544626f72726f7742616c616e636553746f7265643a20626f72726f7742616c616e636553746f726564496e7465726e616c206661696c656452455041595f424f52524f575f4e45575f4143434f554e545f424f52524f575f42414c414e43455f43414c43554c4154494f4e5f4641494c4544ddf252ad1be2c89b69c2b068fc378daa952ba7f163c4a11628f55a4df523b3ef52455041595f424f52524f575f4e45575f544f54414c5f42414c414e43455f43414c43554c4154494f4e5f4641494c45444c49515549444154455f434f4d5054524f4c4c45525f43414c43554c4154455f414d4f554e545f5345495a455f4641494c454465786368616e67655261746553746f7265643a2065786368616e67655261746553746f726564496e7465726e616c206661696c65644d494e545f4e45575f544f54414c5f535550504c595f43414c43554c4154494f4e5f4641494c45446f6e65206f662072656465656d546f6b656e73496e206f722072656465656d416d6f756e74496e206d757374206265207a65726fa265627a7a72315820301084eca2a7bc7ee8ec0b749a7234a90839553967e9dbda9214d60e6beb503364736f6c634300051000326f6e6c792061646d696e206d617920696e697469616c697a6520746865206d61726b65746d61726b6574206d6179206f6e6c7920626520696e697469616c697a6564206f6e6365696e697469616c2065786368616e67652072617465206d7573742062652067726561746572207468616e207a65726f2e73657474696e6720696e7465726573742072617465206d6f64656c206661696c6564",
  "linkReferences": {},
  "deployedLinkReferences": {}
}