{
  "_format": "hh-sol-artifact-1",
  "contractName": "VBNBHarness",
  "sourceName": "contracts/test/VBNBHarness.sol",
  "abi": [
    {
      "inputs": [
        {
          "internalType": "contract ComptrollerInterface",
          "name": "comptroller_",
          "type": "address"
        },
        {
          "internalType": "contract InterestRateModel",
          "name": "interestRateModel_",
          "type": "address"
        },
        {
          "internalType": "uint256",
          "name": "initialExchangeRateMantissa",
          "type": "uint256"
        },
        {
          "internalType": "string",
          "name": "name_",
          "type": "string"
        },
        {
          "internalType": "string",
          "name": "symbol_",
          "type": "string"
        },
        {
          "internalType": "uint8",
          "name": "decimals_",
          "type": "uint8"
        },
        {
          "internalType": "address payable",
          "name": "admin_",
          "type": "address"
        }
      ],
      "payable": false,
      "stateMutability": "nonpayable",
      "type": "constructor"
    },
    {
      "anonymous": false,
      "inputs": [
        {
          "indexed": false,
          "internalType": "uint256",
          "name": "cashPrior",
          "type": "uint256"
        },
        {
          "indexed": false,
          "internalType": "uint256",
          "name": "interestAccumulated",
          "type": "uint256"
        },
        {
          "indexed": false,
          "internalType": "uint256",
          "name": "borrowIndex",
          "type": "uint256"
        },
        {
          "indexed": false,
          "internalType": "uint256",
          "name": "totalBorrows",
          "type": "uint256"
        }
      ],
      "name": "AccrueInterest",
      "type": "event"
    },
    {
      "anonymous": false,
      "inputs": [
        {
          "indexed": true,
          "internalType": "address",
          "name": "owner",
          "type": "address"
        },
        {
          "indexed": true,
          "internalType": "address",
          "name": "spender",
          "type": "address"
        },
        {
          "indexed": false,
          "internalType": "uint256",
          "name": "amount",
          "type": "uint256"
        }
      ],
      "name": "Approval",
      "type": "event"
    },
    {
      "anonymous": false,
      "inputs": [
        {
          "indexed": false,
          "internalType": "address",
          "name": "borrower",
          "type": "address"
        },
        {
          "indexed": false,
          "internalType": "uint256",
          "name": "borrowAmount",
          "type": "uint256"
        },
        {
          "indexed": false,
          "internalType": "uint256",
          "name": "accountBorrows",
          "type": "uint256"
        },
        {
          "indexed": false,
          "internalType": "uint256",
          "name": "totalBorrows",
          "type": "uint256"
        }
      ],
      "name": "Borrow",
      "type": "event"
    },
    {
      "anonymous": false,
      "inputs": [
        {
          "indexed": false,
          "internalType": "uint256",
          "name": "error",
          "type": "uint256"
        },
        {
          "indexed": false,
          "internalType": "uint256",
          "name": "info",
          "type": "uint256"
        },
        {
          "indexed": false,
          "internalType": "uint256",
          "name": "detail",
          "type": "uint256"
        }
      ],
      "name": "Failure",
      "type": "event"
    },
    {
      "anonymous": false,
      "inputs": [
        {
          "indexed": false,
          "internalType": "address",
          "name": "liquidator",
          "type": "address"
        },
        {
          "indexed": false,
          "internalType": "address",
          "name": "borrower",
          "type": "address"
        },
        {
          "indexed": false,
          "internalType": "uint256",
          "name": "repayAmount",
          "type": "uint256"
        },
        {
          "indexed": false,
          "internalType": "address",
          "name": "vTokenCollateral",
          "type": "address"
        },
        {
          "indexed": false,
          "internalType": "uint256",
          "name": "seizeTokens",
          "type": "uint256"
        }
      ],
      "name": "LiquidateBorrow",
      "type": "event"
    },
    {
      "anonymous": false,
      "inputs": [
        {
          "indexed": false,
          "internalType": "address",
          "name": "minter",
          "type": "address"
        },
        {
          "indexed": false,
          "internalType": "uint256",
          "name": "mintAmount",
          "type": "uint256"
        },
        {
          "indexed": false,
          "internalType": "uint256",
          "name": "mintTokens",
          "type": "uint256"
        }
      ],
      "name": "Mint",
      "type": "event"
    },
    {
      "anonymous": false,
      "inputs": [
        {
          "indexed": false,
          "internalType": "address",
          "name": "payer",
          "type": "address"
        },
        {
          "indexed": false,
          "internalType": "address",
          "name": "receiver",
          "type": "address"
        },
        {
          "indexed": false,
          "internalType": "uint256",
          "name": "mintAmount",
          "type": "uint256"
        },
        {
          "indexed": false,
          "internalType": "uint256",
          "name": "mintTokens",
          "type": "uint256"
        }
      ],
      "name": "MintBehalf",
      "type": "event"
    },
    {
      "anonymous": false,
      "inputs": [
        {
          "indexed": false,
          "internalType": "address",
          "name": "oldAdmin",
          "type": "address"
        },
        {
          "indexed": false,
          "internalType": "address",
          "name": "newAdmin",
          "type": "address"
        }
      ],
      "name": "NewAdmin",
      "type": "event"
    },
    {
      "anonymous": false,
      "inputs": [
        {
          "indexed": false,
          "internalType": "contract ComptrollerInterface",
          "name": "oldComptroller",
          "type": "address"
        },
        {
          "indexed": false,
          "internalType": "contract ComptrollerInterface",
          "name": "newComptroller",
          "type": "address"
        }
      ],
      "name": "NewComptroller",
      "type": "event"
    },
    {
      "anonymous": false,
      "inputs": [
        {
          "indexed": false,
          "internalType": "contract InterestRateModel",
          "name": "oldInterestRateModel",
          "type": "address"
        },
        {
          "indexed": false,
          "internalType": "contract InterestRateModel",
          "name": "newInterestRateModel",
          "type": "address"
        }
      ],
      "name": "NewMarketInterestRateModel",
      "type": "event"
    },
    {
      "anonymous": false,
      "inputs": [
        {
          "indexed": false,
          "internalType": "address",
          "name": "oldPendingAdmin",
          "type": "address"
        },
        {
          "indexed": false,
          "internalType": "address",
          "name": "newPendingAdmin",
          "type": "address"
        }
      ],
      "name": "NewPendingAdmin",
      "type": "event"
    },
    {
      "anonymous": false,
      "inputs": [
        {
          "indexed": false,
          "internalType": "uint256",
          "name": "oldReserveFactorMantissa",
          "type": "uint256"
        },
        {
          "indexed": false,
          "internalType": "uint256",
          "name": "newReserveFactorMantissa",
          "type": "uint256"
        }
      ],
      "name": "NewReserveFactor",
      "type": "event"
    },
    {
      "anonymous": false,
      "inputs": [
        {
          "indexed": false,
          "internalType": "address",
          "name": "redeemer",
          "type": "address"
        },
        {
          "indexed": false,
          "internalType": "uint256",
          "name": "redeemAmount",
          "type": "uint256"
        },
        {
          "indexed": false,
          "internalType": "uint256",
          "name": "redeemTokens",
          "type": "uint256"
        }
      ],
      "name": "Redeem",
      "type": "event"
    },
    {
      "anonymous": false,
      "inputs": [
        {
          "indexed": false,
          "internalType": "address",
          "name": "redeemer",
          "type": "address"
        },
        {
          "indexed": false,
          "internalType": "uint256",
          "name": "feeAmount",
          "type": "uint256"
        },
        {
          "indexed": false,
          "internalType": "uint256",
          "name": "redeemTokens",
          "type": "uint256"
        }
      ],
      "name": "RedeemFee",
      "type": "event"
    },
    {
      "anonymous": false,
      "inputs": [
        {
          "indexed": false,
          "internalType": "address",
          "name": "payer",
          "type": "address"
        },
        {
          "indexed": false,
          "internalType": "address",
          "name": "borrower",
          "type": "address"
        },
        {
          "indexed": false,
          "internalType": "uint256",
          "name": "repayAmount",
          "type": "uint256"
        },
        {
          "indexed": false,
          "internalType": "uint256",
          "name": "accountBorrows",
          "type": "uint256"
        },
        {
          "indexed": false,
          "internalType": "uint256",
          "name": "totalBorrows",
          "type": "uint256"
        }
      ],
      "name": "RepayBorrow",
      "type": "event"
    },
    {
      "anonymous": false,
      "inputs": [
        {
          "indexed": false,
          "internalType": "address",
          "name": "benefactor",
          "type": "address"
        },
        {
          "indexed": false,
          "internalType": "uint256",
          "name": "addAmount",
          "type": "uint256"
        },
        {
          "indexed": false,
          "internalType": "uint256",
          "name": "newTotalReserves",
          "type": "uint256"
        }
      ],
      "name": "ReservesAdded",
      "type": "event"
    },
    {
      "anonymous": false,
      "inputs": [
        {
          "indexed": false,
          "internalType": "address",
          "name": "admin",
          "type": "address"
        },
        {
          "indexed": false,
          "internalType": "uint256",
          "name": "reduceAmount",
          "type": "uint256"
        },
        {
          "indexed": false,
          "internalType": "uint256",
          "name": "newTotalReserves",
          "type": "uint256"
        }
      ],
      "name": "ReservesReduced",
      "type": "event"
    },
    {
      "anonymous": false,
      "inputs": [
        {
          "indexed": true,
          "internalType": "address",
          "name": "from",
          "type": "address"
        },
        {
          "indexed": true,
          "internalType": "address",
          "name": "to",
          "type": "address"
        },
        {
          "indexed": false,
          "internalType": "uint256",
          "name": "amount",
          "type": "uint256"
        }
      ],
      "name": "Transfer",
      "type": "event"
    },
    {
      "payable": true,
      "stateMutability": "payable",
      "type": "fallback"
    },
    {
      "constant": false,
      "inputs": [],
      "name": "_acceptAdmin",
      "outputs": [
        {
          "internalType": "uint256",
          "name": "",
          "type": "uint256"
        }
      ],
      "payable": false,
      "stateMutability": "nonpayable",
      "type": "function"
    },
    {
      "constant": false,
      "inputs": [
        {
          "internalType": "uint256",
          "name": "reduceAmount",
          "type": "uint256"
        }
      ],
      "name": "_reduceReserves",
      "outputs": [
        {
          "internalType": "uint256",
          "name": "",
          "type": "uint256"
        }
      ],
      "payable": false,
      "stateMutability": "nonpayable",
      "type": "function"
    },
    {
      "constant": false,
      "inputs": [
        {
          "internalType": "contract ComptrollerInterface",
          "name": "newComptroller",
          "type": "address"
        }
      ],
      "name": "_setComptroller",
      "outputs": [
        {
          "internalType": "uint256",
          "name": "",
          "type": "uint256"
        }
      ],
      "payable": false,
      "stateMutability": "nonpayable",
      "type": "function"
    },
    {
      "constant": false,
      "inputs": [
        {
          "internalType": "contract InterestRateModel",
          "name": "newInterestRateModel",
          "type": "address"
        }
      ],
      "name": "_setInterestRateModel",
      "outputs": [
        {
          "internalType": "uint256",
          "name": "",
          "type": "uint256"
        }
      ],
      "payable": false,
      "stateMutability": "nonpayable",
      "type": "function"
    },
    {
      "constant": false,
      "inputs": [
        {
          "internalType": "address payable",
          "name": "newPendingAdmin",
          "type": "address"
        }
      ],
      "name": "_setPendingAdmin",
      "outputs": [
        {
          "internalType": "uint256",
          "name": "",
          "type": "uint256"
        }
      ],
      "payable": false,
      "stateMutability": "nonpayable",
      "type": "function"
    },
    {
      "constant": false,
      "inputs": [
        {
          "internalType": "uint256",
          "name": "newReserveFactorMantissa",
          "type": "uint256"
        }
      ],
      "name": "_setReserveFactor",
      "outputs": [
        {
          "internalType": "uint256",
          "name": "",
          "type": "uint256"
        }
      ],
      "payable": false,
      "stateMutability": "nonpayable",
      "type": "function"
    },
    {
      "constant": true,
      "inputs": [],
      "name": "accrualBlockNumber",
      "outputs": [
        {
          "internalType": "uint256",
          "name": "",
          "type": "uint256"
        }
      ],
      "payable": false,
      "stateMutability": "view",
      "type": "function"
    },
    {
      "constant": false,
      "inputs": [],
      "name": "accrueInterest",
      "outputs": [
        {
          "internalType": "uint256",
          "name": "",
          "type": "uint256"
        }
      ],
      "payable": false,
      "stateMutability": "nonpayable",
      "type": "function"
    },
    {
      "constant": true,
      "inputs": [],
      "name": "admin",
      "outputs": [
        {
          "internalType": "address payable",
          "name": "",
          "type": "address"
        }
      ],
      "payable": false,
      "stateMutability": "view",
      "type": "function"
    },
    {
      "constant": true,
      "inputs": [
        {
          "internalType": "address",
          "name": "owner",
          "type": "address"
        },
        {
          "internalType": "address",
          "name": "spender",
          "type": "address"
        }
      ],
      "name": "allowance",
      "outputs": [
        {
          "internalType": "uint256",
          "name": "",
          "type": "uint256"
        }
      ],
      "payable": false,
      "stateMutability": "view",
      "type": "function"
    },
    {
      "constant": false,
      "inputs": [
        {
          "internalType": "address",
          "name": "spender",
          "type": "address"
        },
        {
          "internalType": "uint256",
          "name": "amount",
          "type": "uint256"
        }
      ],
      "name": "approve",
      "outputs": [
        {
          "internalType": "bool",
          "name": "",
          "type": "bool"
        }
      ],
      "payable": false,
      "stateMutability": "nonpayable",
      "type": "function"
    },
    {
      "constant": true,
      "inputs": [
        {
          "internalType": "address",
          "name": "owner",
          "type": "address"
        }
      ],
      "name": "balanceOf",
      "outputs": [
        {
          "internalType": "uint256",
          "name": "",
          "type": "uint256"
        }
      ],
      "payable": false,
      "stateMutability": "view",
      "type": "function"
    },
    {
      "constant": false,
      "inputs": [
        {
          "internalType": "address",
          "name": "owner",
          "type": "address"
        }
      ],
      "name": "balanceOfUnderlying",
      "outputs": [
        {
          "internalType": "uint256",
          "name": "",
          "type": "uint256"
        }
      ],
      "payable": false,
      "stateMutability": "nonpayable",
      "type": "function"
    },
    {
      "constant": true,
      "inputs": [],
      "name": "blockNumber",
      "outputs": [
        {
          "internalType": "uint256",
          "name": "",
          "type": "uint256"
        }
      ],
      "payable": false,
      "stateMutability": "view",
      "type": "function"
    },
    {
      "constant": false,
      "inputs": [
        {
          "internalType": "uint256",
          "name": "borrowAmount",
          "type": "uint256"
        }
      ],
      "name": "borrow",
      "outputs": [
        {
          "internalType": "uint256",
          "name": "",
          "type": "uint256"
        }
      ],
      "payable": false,
      "stateMutability": "nonpayable",
      "type": "function"
    },
    {
      "constant": false,
      "inputs": [
        {
          "internalType": "address",
          "name": "account",
          "type": "address"
        }
      ],
      "name": "borrowBalanceCurrent",
      "outputs": [
        {
          "internalType": "uint256",
          "name": "",
          "type": "uint256"
        }
      ],
      "payable": false,
      "stateMutability": "nonpayable",
      "type": "function"
    },
    {
      "constant": true,
      "inputs": [
        {
          "internalType": "address",
          "name": "account",
          "type": "address"
        }
      ],
      "name": "borrowBalanceStored",
      "outputs": [
        {
          "internalType": "uint256",
          "name": "",
          "type": "uint256"
        }
      ],
      "payable": false,
      "stateMutability": "view",
      "type": "function"
    },
    {
      "constant": true,
      "inputs": [],
      "name": "borrowIndex",
      "outputs": [
        {
          "internalType": "uint256",
          "name": "",
          "type": "uint256"
        }
      ],
      "payable": false,
      "stateMutability": "view",
      "type": "function"
    },
    {
      "constant": true,
      "inputs": [],
      "name": "borrowRatePerBlock",
      "outputs": [
        {
          "internalType": "uint256",
          "name": "",
          "type": "uint256"
        }
      ],
      "payable": false,
      "stateMutability": "view",
      "type": "function"
    },
    {
      "constant": true,
      "inputs": [],
      "name": "comptroller",
      "outputs": [
        {
          "internalType": "contract ComptrollerInterface",
          "name": "",
          "type": "address"
        }
      ],
      "payable": false,
      "stateMutability": "view",
      "type": "function"
    },
    {
      "constant": true,
      "inputs": [],
      "name": "decimals",
      "outputs": [
        {
          "internalType": "uint8",
          "name": "",
          "type": "uint8"
        }
      ],
      "payable": false,
      "stateMutability": "view",
      "type": "function"
    },
    {
      "constant": false,
      "inputs": [],
      "name": "exchangeRateCurrent",
      "outputs": [
        {
          "internalType": "uint256",
          "name": "",
          "type": "uint256"
        }
      ],
      "payable": false,
      "stateMutability": "nonpayable",
      "type": "function"
    },
    {
      "constant": true,
      "inputs": [],
      "name": "exchangeRateStored",
      "outputs": [
        {
          "internalType": "uint256",
          "name": "",
          "type": "uint256"
        }
      ],
      "payable": false,
      "stateMutability": "view",
      "type": "function"
    },
    {
      "constant": true,
      "inputs": [
        {
          "internalType": "address",
          "name": "",
          "type": "address"
        }
      ],
      "name": "failTransferToAddresses",
      "outputs": [
        {
          "internalType": "bool",
          "name": "",
          "type": "bool"
        }
      ],
      "payable": false,
      "stateMutability": "view",
      "type": "function"
    },
    {
      "constant": true,
      "inputs": [
        {
          "internalType": "address",
          "name": "account",
          "type": "address"
        }
      ],
      "name": "getAccountSnapshot",
      "outputs": [
        {
          "internalType": "uint256",
          "name": "",
          "type": "uint256"
        },
        {
          "internalType": "uint256",
          "name": "",
          "type": "uint256"
        },
        {
          "internalType": "uint256",
          "name": "",
          "type": "uint256"
        },
        {
          "internalType": "uint256",
          "name": "",
          "type": "uint256"
        }
      ],
      "payable": false,
      "stateMutability": "view",
      "type": "function"
    },
    {
      "constant": true,
      "inputs": [],
      "name": "getCash",
      "outputs": [
        {
          "internalType": "uint256",
          "name": "",
          "type": "uint256"
        }
      ],
      "payable": false,
      "stateMutability": "view",
      "type": "function"
    },
    {
      "constant": true,
      "inputs": [
        {
          "internalType": "address",
          "name": "account",
          "type": "address"
        }
      ],
      "name": "harnessAccountBorrows",
      "outputs": [
        {
          "internalType": "uint256",
          "name": "principal",
          "type": "uint256"
        },
        {
          "internalType": "uint256",
          "name": "interestIndex",
          "type": "uint256"
        }
      ],
      "payable": false,
      "stateMutability": "view",
      "type": "function"
    },
    {
      "constant": false,
      "inputs": [
        {
          "internalType": "address payable",
          "name": "account",
          "type": "address"
        },
        {
          "internalType": "uint256",
          "name": "borrowAmount",
          "type": "uint256"
        }
      ],
      "name": "harnessBorrowFresh",
      "outputs": [
        {
          "internalType": "uint256",
          "name": "",
          "type": "uint256"
        }
      ],
      "payable": false,
      "stateMutability": "nonpayable",
      "type": "function"
    },
    {
      "constant": false,
      "inputs": [
        {
          "internalType": "address",
          "name": "from",
          "type": "address"
        },
        {
          "internalType": "uint256",
          "name": "amount",
          "type": "uint256"
        }
      ],
      "name": "harnessDoTransferIn",
      "outputs": [
        {
          "internalType": "uint256",
          "name": "",
          "type": "uint256"
        }
      ],
      "payable": true,
      "stateMutability": "payable",
      "type": "function"
    },
    {
      "constant": false,
      "inputs": [
        {
          "internalType": "address payable",
          "name": "to",
          "type": "address"
        },
        {
          "internalType": "uint256",
          "name": "amount",
          "type": "uint256"
        }
      ],
      "name": "harnessDoTransferOut",
      "outputs": [],
      "payable": true,
      "stateMutability": "payable",
      "type": "function"
    },
    {
      "constant": false,
      "inputs": [
        {
          "internalType": "uint256",
          "name": "_totalSupply",
          "type": "uint256"
        },
        {
          "internalType": "uint256",
          "name": "_totalBorrows",
          "type": "uint256"
        },
        {
          "internalType": "uint256",
          "name": "_totalReserves",
          "type": "uint256"
        }
      ],
      "name": "harnessExchangeRateDetails",
      "outputs": [],
      "payable": false,
      "stateMutability": "nonpayable",
      "type": "function"
    },
    {
      "constant": false,
      "inputs": [
        {
          "internalType": "uint256",
          "name": "blocks",
          "type": "uint256"
        }
      ],
      "name": "harnessFastForward",
      "outputs": [],
      "payable": false,
      "stateMutability": "nonpayable",
      "type": "function"
    },
    {
      "constant": false,
      "inputs": [],
      "name": "harnessGetCashPrior",
      "outputs": [
        {
          "internalType": "uint256",
          "name": "",
          "type": "uint256"
        }
      ],
      "payable": true,
      "stateMutability": "payable",
      "type": "function"
    },
    {
      "constant": false,
      "inputs": [
        {
          "internalType": "address",
          "name": "liquidator",
          "type": "address"
        },
        {
          "internalType": "address",
          "name": "borrower",
          "type": "address"
        },
        {
          "internalType": "uint256",
          "name": "repayAmount",
          "type": "uint256"
        },
        {
          "internalType": "contract VToken",
          "name": "vTokenCollateral",
          "type": "address"
        }
      ],
      "name": "harnessLiquidateBorrowFresh",
      "outputs": [
        {
          "internalType": "uint256",
          "name": "",
          "type": "uint256"
        }
      ],
      "payable": false,
      "stateMutability": "nonpayable",
      "type": "function"
    },
    {
      "constant": false,
      "inputs": [
        {
          "internalType": "address",
          "name": "account",
          "type": "address"
        },
        {
          "internalType": "uint256",
          "name": "mintAmount",
          "type": "uint256"
        }
      ],
      "name": "harnessMintFresh",
      "outputs": [
        {
          "internalType": "uint256",
          "name": "",
          "type": "uint256"
        }
      ],
      "payable": false,
      "stateMutability": "nonpayable",
      "type": "function"
    },
    {
      "constant": false,
      "inputs": [
        {
          "internalType": "address payable",
          "name": "account",
          "type": "address"
        },
        {
          "internalType": "uint256",
          "name": "vTokenAmount",
          "type": "uint256"
        },
        {
          "internalType": "uint256",
          "name": "underlyingAmount",
          "type": "uint256"
        }
      ],
      "name": "harnessRedeemFresh",
      "outputs": [
        {
          "internalType": "uint256",
          "name": "",
          "type": "uint256"
        }
      ],
      "payable": false,
      "stateMutability": "nonpayable",
      "type": "function"
    },
    {
      "constant": false,
      "inputs": [
        {
          "internalType": "uint256",
          "name": "amount",
          "type": "uint256"
        }
      ],
      "name": "harnessReduceReservesFresh",
      "outputs": [
        {
          "internalType": "uint256",
          "name": "",
          "type": "uint256"
        }
      ],
      "payable": false,
      "stateMutability": "nonpayable",
      "type": "function"
    },
    {
      "constant": false,
      "inputs": [
        {
          "internalType": "address",
          "name": "payer",
          "type": "address"
        },
        {
          "internalType": "address",
          "name": "account",
          "type": "address"
        },
        {
          "internalType": "uint256",
          "name": "repayBorrowAmount",
          "type": "uint256"
        }
      ],
      "name": "harnessRepayBorrowFresh",
      "outputs": [
        {
          "internalType": "uint256",
          "name": "",
          "type": "uint256"
        }
      ],
      "payable": true,
      "stateMutability": "payable",
      "type": "function"
    },
    {
      "constant": true,
      "inputs": [
        {
          "internalType": "uint256",
          "name": "error",
          "type": "uint256"
        },
        {
          "internalType": "string",
          "name": "message",
          "type": "string"
        }
      ],
      "name": "harnessRequireNoError",
      "outputs": [],
      "payable": false,
      "stateMutability": "pure",
      "type": "function"
    },
    {
      "constant": false,
      "inputs": [
        {
          "internalType": "address",
          "name": "account",
          "type": "address"
        },
        {
          "internalType": "uint256",
          "name": "principal",
          "type": "uint256"
        },
        {
          "internalType": "uint256",
          "name": "interestIndex",
          "type": "uint256"
        }
      ],
      "name": "harnessSetAccountBorrows",
      "outputs": [],
      "payable": false,
      "stateMutability": "nonpayable",
      "type": "function"
    },
    {
      "constant": false,
      "inputs": [
        {
          "internalType": "uint256",
          "name": "_accrualblockNumber",
          "type": "uint256"
        }
      ],
      "name": "harnessSetAccrualBlockNumber",
      "outputs": [],
      "payable": false,
      "stateMutability": "nonpayable",
      "type": "function"
    },
    {
      "constant": false,
      "inputs": [
        {
          "internalType": "address",
          "name": "account",
          "type": "address"
        },
        {
          "internalType": "uint256",
          "name": "amount",
          "type": "uint256"
        }
      ],
      "name": "harnessSetBalance",
      "outputs": [],
      "payable": false,
      "stateMutability": "nonpayable",
      "type": "function"
    },
    {
      "constant": false,
      "inputs": [
        {
          "internalType": "uint256",
          "name": "newBlockNumber",
          "type": "uint256"
        }
      ],
      "name": "harnessSetBlockNumber",
      "outputs": [],
      "payable": false,
      "stateMutability": "nonpayable",
      "type": "function"
    },
    {
      "constant": false,
      "inputs": [
        {
          "internalType": "uint256",
          "name": "borrowIndex_",
          "type": "uint256"
        }
      ],
      "name": "harnessSetBorrowIndex",
      "outputs": [],
      "payable": false,
      "stateMutability": "nonpayable",
      "type": "function"
    },
    {
      "constant": false,
      "inputs": [
        {
          "internalType": "uint256",
          "name": "exchangeRate",
          "type": "uint256"
        }
      ],
      "name": "harnessSetExchangeRate",
      "outputs": [],
      "payable": false,
      "stateMutability": "nonpayable",
      "type": "function"
    },
    {
      "constant": false,
      "inputs": [
        {
          "internalType": "address",
          "name": "_to",
          "type": "address"
        },
        {
          "internalType": "bool",
          "name": "_fail",
          "type": "bool"
        }
      ],
      "name": "harnessSetFailTransferToAddress",
      "outputs": [],
      "payable": false,
      "stateMutability": "nonpayable",
      "type": "function"
    },
    {
      "constant": false,
      "inputs": [
        {
          "internalType": "address",
          "name": "newInterestRateModelAddress",
          "type": "address"
        }
      ],
      "name": "harnessSetInterestRateModel",
      "outputs": [],
      "payable": false,
      "stateMutability": "nonpayable",
      "type": "function"
    },
    {
      "constant": false,
      "inputs": [
        {
          "internalType": "contract InterestRateModel",
          "name": "newInterestRateModel",
          "type": "address"
        }
      ],
      "name": "harnessSetInterestRateModelFresh",
      "outputs": [
        {
          "internalType": "uint256",
          "name": "",
          "type": "uint256"
        }
      ],
      "payable": false,
      "stateMutability": "nonpayable",
      "type": "function"
    },
    {
      "constant": false,
      "inputs": [
        {
          "internalType": "uint256",
          "name": "newReserveFactorMantissa",
          "type": "uint256"
        }
      ],
      "name": "harnessSetReserveFactorFresh",
      "outputs": [
        {
          "internalType": "uint256",
          "name": "",
          "type": "uint256"
        }
      ],
      "payable": false,
      "stateMutability": "nonpayable",
      "type": "function"
    },
    {
      "constant": false,
      "inputs": [
        {
          "internalType": "uint256",
          "name": "amount",
          "type": "uint256"
        }
      ],
      "name": "harnessSetReserves",
      "outputs": [],
      "payable": false,
      "stateMutability": "nonpayable",
      "type": "function"
    },
    {
      "constant": false,
      "inputs": [
        {
          "internalType": "uint256",
          "name": "totalBorrows_",
          "type": "uint256"
        }
      ],
      "name": "harnessSetTotalBorrows",
      "outputs": [],
      "payable": false,
      "stateMutability": "nonpayable",
      "type": "function"
    },
    {
      "constant": false,
      "inputs": [
        {
          "internalType": "uint256",
          "name": "totalReserves_",
          "type": "uint256"
        }
      ],
      "name": "harnessSetTotalReserves",
      "outputs": [],
      "payable": false,
      "stateMutability": "nonpayable",
      "type": "function"
    },
    {
      "constant": false,
      "inputs": [
        {
          "internalType": "uint256",
          "name": "totalSupply_",
          "type": "uint256"
        }
      ],
      "name": "harnessSetTotalSupply",
      "outputs": [],
      "payable": false,
      "stateMutability": "nonpayable",
      "type": "function"
    },
    {
      "constant": false,
      "inputs": [
        {
          "internalType": "contract ComptrollerInterface",
          "name": "comptroller_",
          "type": "address"
        },
        {
          "internalType": "contract InterestRateModel",
          "name": "interestRateModel_",
          "type": "address"
        },
        {
          "internalType": "uint256",
          "name": "initialExchangeRateMantissa_",
          "type": "uint256"
        },
        {
          "internalType": "string",
          "name": "name_",
          "type": "string"
        },
        {
          "internalType": "string",
          "name": "symbol_",
          "type": "string"
        },
        {
          "internalType": "uint8",
          "name": "decimals_",
          "type": "uint8"
        }
      ],
      "name": "initialize",
      "outputs": [],
      "payable": false,
      "stateMutability": "nonpayable",
      "type": "function"
    },
    {
      "constant": true,
      "inputs": [],
      "name": "interestRateModel",
      "outputs": [
        {
          "internalType": "contract InterestRateModel",
          "name": "",
          "type": "address"
        }
      ],
      "payable": false,
      "stateMutability": "view",
      "type": "function"
    },
    {
      "constant": true,
      "inputs": [],
      "name": "isVToken",
      "outputs": [
        {
          "internalType": "bool",
          "name": "",
          "type": "bool"
        }
      ],
      "payable": false,
      "stateMutability": "view",
      "type": "function"
    },
    {
      "constant": false,
      "inputs": [
        {
          "internalType": "address",
          "name": "borrower",
          "type": "address"
        },
        {
          "internalType": "contract VToken",
          "name": "vTokenCollateral",
          "type": "address"
        }
      ],
      "name": "liquidateBorrow",
      "outputs": [],
      "payable": true,
      "stateMutability": "payable",
      "type": "function"
    },
    {
      "constant": false,
      "inputs": [],
      "name": "mint",
      "outputs": [],
      "payable": true,
      "stateMutability": "payable",
      "type": "function"
    },
    {
      "constant": true,
      "inputs": [],
      "name": "name",
      "outputs": [
        {
          "internalType": "string",
          "name": "",
          "type": "string"
        }
      ],
      "payable": false,
      "stateMutability": "view",
      "type": "function"
    },
    {
      "constant": true,
      "inputs": [],
      "name": "pendingAdmin",
      "outputs": [
        {
          "internalType": "address payable",
          "name": "",
          "type": "address"
        }
      ],
      "payable": false,
      "stateMutability": "view",
      "type": "function"
    },
    {
      "constant": false,
      "inputs": [
        {
          "internalType": "uint256",
          "name": "redeemTokens",
          "type": "uint256"
        }
      ],
      "name": "redeem",
      "outputs": [
        {
          "internalType": "uint256",
          "name": "",
          "type": "uint256"
        }
      ],
      "payable": false,
      "stateMutability": "nonpayable",
      "type": "function"
    },
    {
      "constant": false,
      "inputs": [
        {
          "internalType": "uint256",
          "name": "redeemAmount",
          "type": "uint256"
        }
      ],
      "name": "redeemUnderlying",
      "outputs": [
        {
          "internalType": "uint256",
          "name": "",
          "type": "uint256"
        }
      ],
      "payable": false,
      "stateMutability": "nonpayable",
      "type": "function"
    },
    {
      "constant": false,
      "inputs": [],
      "name": "repayBorrow",
      "outputs": [],
      "payable": true,
      "stateMutability": "payable",
      "type": "function"
    },
    {
      "constant": false,
      "inputs": [
        {
          "internalType": "address",
          "name": "borrower",
          "type": "address"
        }
      ],
      "name": "repayBorrowBehalf",
      "outputs": [],
      "payable": true,
      "stateMutability": "payable",
      "type": "function"
    },
    {
      "constant": true,
      "inputs": [],
      "name": "reserveFactorMantissa",
      "outputs": [
        {
          "internalType": "uint256",
          "name": "",
          "type": "uint256"
        }
      ],
      "payable": false,
      "stateMutability": "view",
      "type": "function"
    },
    {
      "constant": false,
      "inputs": [
        {
          "internalType": "address",
          "name": "liquidator",
          "type": "address"
        },
        {
          "internalType": "address",
          "name": "borrower",
          "type": "address"
        },
        {
          "internalType": "uint256",
          "name": "seizeTokens",
          "type": "uint256"
        }
      ],
      "name": "seize",
      "outputs": [
        {
          "internalType": "uint256",
          "name": "",
          "type": "uint256"
        }
      ],
      "payable": false,
      "stateMutability": "nonpayable",
      "type": "function"
    },
    {
      "constant": true,
      "inputs": [],
      "name": "supplyRatePerBlock",
      "outputs": [
        {
          "internalType": "uint256",
          "name": "",
          "type": "uint256"
        }
      ],
      "payable": false,
      "stateMutability": "view",
      "type": "function"
    },
    {
      "constant": true,
      "inputs": [],
      "name": "symbol",
      "outputs": [
        {
          "internalType": "string",
          "name": "",
          "type": "string"
        }
      ],
      "payable": false,
      "stateMutability": "view",
      "type": "function"
    },
    {
      "constant": true,
      "inputs": [],
      "name": "totalBorrows",
      "outputs": [
        {
          "internalType": "uint256",
          "name": "",
          "type": "uint256"
        }
      ],
      "payable": false,
      "stateMutability": "view",
      "type": "function"
    },
    {
      "constant": false,
      "inputs": [],
      "name": "totalBorrowsCurrent",
      "outputs": [
        {
          "internalType": "uint256",
          "name": "",
          "type": "uint256"
        }
      ],
      "payable": false,
      "stateMutability": "nonpayable",
      "type": "function"
    },
    {
      "constant": true,
      "inputs": [],
      "name": "totalReserves",
      "outputs": [
        {
          "internalType": "uint256",
          "name": "",
          "type": "uint256"
        }
      ],
      "payable": false,
      "stateMutability": "view",
      "type": "function"
    },
    {
      "constant": true,
      "inputs": [],
      "name": "totalSupply",
      "outputs": [
        {
          "internalType": "uint256",
          "name": "",
          "type": "uint256"
        }
      ],
      "payable": false,
      "stateMutability": "view",
      "type": "function"
    },
    {
      "constant": false,
      "inputs": [
        {
          "internalType": "address",
          "name": "dst",
          "type": "address"
        },
        {
          "internalType": "uint256",
          "name": "amount",
          "type": "uint256"
        }
      ],
      "name": "transfer",
      "outputs": [
        {
          "internalType": "bool",
          "name": "",
          "type": "bool"
        }
      ],
      "payable": false,
      "stateMutability": "nonpayable",
      "type": "function"
    },
    {
      "constant": false,
      "inputs": [
        {
          "internalType": "address",
          "name": "src",
          "type": "address"
        },
        {
          "internalType": "address",
          "name": "dst",
          "type": "address"
        },
        {
          "internalType": "uint256",
          "name": "amount",
          "type": "uint256"
        }
      ],
      "name": "transferFrom",
      "outputs": [
        {
          "internalType": "bool",
          "name": "",
          "type": "bool"
        }
      ],
      "payable": false,
      "stateMutability": "nonpayable",
      "type": "function"
    }
  ],
  "bytecode": "0x6080604052620186a06012553480156200001857600080fd5b506040516200633238038062006332833981810160405260e08110156200003e57600080fd5b8151602083015160408085015160608601805192519496939591949391820192846401000000008211156200007257600080fd5b9083019060208201858111156200008857600080fd5b8251640100000000811182820188101715620000a357600080fd5b82525081516020918201929091019080838360005b83811015620000d2578181015183820152602001620000b8565b50505050905090810190601f168015620001005780820380516001836020036101000a031916815260200191505b50604052602001805160405193929190846401000000008211156200012457600080fd5b9083019060208201858111156200013a57600080fd5b82516401000000008111828201881017156200015557600080fd5b82525081516020918201929091019080838360005b83811015620001845781810151838201526020016200016a565b50505050905090810190601f168015620001b25780820380516001836020036101000a031916815260200191505b506040908152602082015191015160038054610100600160a81b0319163361010002179055909250905086868686868686620001f38787878787876200022d565b600380546001600160a01b0390921661010002610100600160a81b0319909216919091179055506200086a9b505050505050505050505050565b60035461010090046001600160a01b031633146200027d5760405162461bcd60e51b8152600401808060200182810382526024815260200180620062996024913960400191505060405180910390fd5b6009541580156200028e5750600a54155b620002cb5760405162461bcd60e51b8152600401808060200182810382526023815260200180620062bd6023913960400191505060405180910390fd5b6007849055836200030e5760405162461bcd60e51b8152600401808060200182810382526030815260200180620062e06030913960400191505060405180910390fd5b600062000324876001600160e01b036200044316565b905080156200037a576040805162461bcd60e51b815260206004820152601a60248201527f73657474696e6720636f6d7074726f6c6c6572206661696c6564000000000000604482015290519081900360640190fd5b6200038d6001600160e01b03620005ab16565b600955670de0b6b3a7640000600a55620003b0866001600160e01b03620005b216565b90508015620003f15760405162461bcd60e51b8152600401808060200182810382526022815260200180620063106022913960400191505060405180910390fd5b835162000406906001906020870190620007c8565b5082516200041c906002906020860190620007c8565b50506003805460ff90921660ff199283161790556000805490911660011790555050505050565b60035460009061010090046001600160a01b031633146200047d57620004756001603f6001600160e01b036200075816565b9050620005a6565b60055460408051623f1ee960e11b815290516001600160a01b0392831692851691627e3dd2916004808301926020929190829003018186803b158015620004c357600080fd5b505afa158015620004d8573d6000803e3d6000fd5b505050506040513d6020811015620004ef57600080fd5b505162000543576040805162461bcd60e51b815260206004820152601c60248201527f6d61726b6572206d6574686f642072657475726e65642066616c736500000000604482015290519081900360640190fd5b600580546001600160a01b0319166001600160a01b03858116918217909255604080519284168352602083019190915280517f7ac369dbd14fa5ea3f473ed67cc9d598964a77501540ba6751eb0b3decf5870d9281900390910190a160005b9150505b919050565b6012545b90565b600354600090819061010090046001600160a01b03163314620005ef57620005e6600160426001600160e01b036200075816565b915050620005a6565b620006026001600160e01b03620005ab16565b600954146200062257620005e6600a60416001600160e01b036200075816565b600660009054906101000a90046001600160a01b03169050826001600160a01b0316632191f92a6040518163ffffffff1660e01b815260040160206040518083038186803b1580156200067457600080fd5b505afa15801562000689573d6000803e3d6000fd5b505050506040513d6020811015620006a057600080fd5b5051620006f4576040805162461bcd60e51b815260206004820152601c60248201527f6d61726b6572206d6574686f642072657475726e65642066616c736500000000604482015290519081900360640190fd5b600680546001600160a01b0319166001600160a01b03858116918217909255604080519284168352602083019190915280517fedffc32e068c7c95dfd4bdfd5c4d939a084d6b11c4199eac8436ed234d72f9269281900390910190a16000620005a2565b60007f45b96fe442630264581b197e84bbada861235052c5a1aadfff9ea4e40a969aa08360118111156200078857fe5b8360568111156200079557fe5b604080519283526020830191909152600082820152519081900360600190a1826011811115620007c157fe5b9392505050565b828054600181600116156101000203166002900490600052602060002090601f016020900481019282601f106200080b57805160ff19168380011785556200083b565b828001600101855582156200083b579182015b828111156200083b5782518255916020019190600101906200081e565b50620008499291506200084d565b5090565b620005af91905b8082111562000849576000815560010162000854565b615a1f806200087a6000396000f3fe6080604052600436106104305760003560e01c80638f840ddd11610229578063cd781bec1161012e578063e4187d1a116100b6578063f4b474501161007a578063f4b474501461114c578063f851a44014611154578063f8f9da2814611169578063fab869901461117e578063fca7820b1461120257610430565b8063e4187d1a14610ca7578063e5974619146110c9578063e9c714f2146110ef578063f2b3abbd14611104578063f3fdb15a1461113757610430565b8063d9a7eb70116100fd578063d9a7eb7014610fd7578063da9378f514611010578063db006a751461103a578063dc334fc414611064578063dd62ed3e1461108e57610430565b8063cd781bec14610eee578063d0f7c21a14610f27578063d3ec234014610f5d578063d401c29314610f9c57610430565b8063aae40a2a116101b1578063bcbef6f311610180578063bcbef6f314610ded578063bd6d894d14610e17578063c37f68e214610e2c578063c439eee014610e85578063c5ebeaec14610ec457610430565b8063aae40a2a14610d34578063ae9d70b014610d62578063b2a02ff114610d77578063b71d1a0c14610dba57610430565b80639aae902b116101f85780639aae902b14610c74578063a3309d9d14610ca7578063a6afed9514610cd1578063a9059cbb14610ce6578063aa5af0fd14610d1f57610430565b80638f840ddd14610ab857806395d89b4114610acd57806395dd919314610ae257806399d8c1b414610b1557610430565b80633d9ea3a11161033a5780635fe3b567116102c257806373acee981161028657806373acee98146109ec57806374f4021e14610a0157806383a0622c14610a2b578063852a12e314610a645780638869737e14610a8e57610430565b80635fe3b5671461091c578063601a0bf114610931578063632dbca71461095b5780636c540baf146109a457806370a08231146109b957610430565b80635365148411610309578063536514841461084a5780635521ade2146108805780635640a5ac146108b357806357e871e7146108dd5780635a518ba8146108f257610430565b80633d9ea3a1146107e55780634576b5db146107fa57806347bd37181461082d5780634e4d9fea1461084257610430565b80632111b73e116103bd578063267822471161038c5780632678224714610717578063313ce5671461074857806331c2480b146107735780633af9e6691461079d5780633b1d21a2146107d057610430565b80632111b73e1461065257806323b872dd1461067e578063240150ca146106c1578063246acab1146106ed57610430565b8063173b990411610404578063173b99041461058257806317bfdfbc146105a95780631815c011146105dc57806318160ddd14610628578063182df0f51461063d57610430565b80629db1e21461046e57806306fdde03146104a3578063095ea7b31461052d5780631249c58b1461057a575b600061043b3461122c565b50905061046b816040518060400160405280600b81526020016a1b5a5b9d0819985a5b195960aa1b8152506112d4565b50005b34801561047a57600080fd5b506104a16004803603602081101561049157600080fd5b50356001600160a01b03166114d4565b005b3480156104af57600080fd5b506104b86114f6565b6040805160208082528351818301528351919283929083019185019080838360005b838110156104f25781810151838201526020016104da565b50505050905090810190601f16801561051f5780820380516001836020036101000a031916815260200191505b509250505060405180910390f35b34801561053957600080fd5b506105666004803603604081101561055057600080fd5b506001600160a01b038135169060200135611583565b604080519115158252519081900360200190f35b6104a16115f0565b34801561058e57600080fd5b5061059761162e565b60408051918252519081900360200190f35b3480156105b557600080fd5b50610597600480360360208110156105cc57600080fd5b50356001600160a01b0316611634565b3480156105e857600080fd5b5061060f600480360360208110156105ff57600080fd5b50356001600160a01b03166116f4565b6040805192835260208301919091528051918290030190f35b34801561063457600080fd5b5061059761173f565b34801561064957600080fd5b50610597611745565b6105976004803603604081101561066857600080fd5b506001600160a01b0381351690602001356117a8565b34801561068a57600080fd5b50610566600480360360608110156106a157600080fd5b506001600160a01b038135811691602081013590911690604001356117bb565b6104a1600480360360408110156106d757600080fd5b506001600160a01b03813516906020013561182d565b3480156106f957600080fd5b506104a16004803603602081101561071057600080fd5b5035611837565b34801561072357600080fd5b5061072c611842565b604080516001600160a01b039092168252519081900360200190f35b34801561075457600080fd5b5061075d611851565b6040805160ff9092168252519081900360200190f35b34801561077f57600080fd5b506104a16004803603602081101561079657600080fd5b503561185a565b3480156107a957600080fd5b50610597600480360360208110156107c057600080fd5b50356001600160a01b031661185f565b3480156107dc57600080fd5b50610597611917565b3480156107f157600080fd5b50610566611926565b34801561080657600080fd5b506105976004803603602081101561081d57600080fd5b50356001600160a01b031661192b565b34801561083957600080fd5b50610597611a7f565b6104a1611a85565b34801561085657600080fd5b506104a16004803603606081101561086d57600080fd5b5080359060208101359060400135611ac7565b34801561088c57600080fd5b50610566600480360360208110156108a357600080fd5b50356001600160a01b0316611ad5565b3480156108bf57600080fd5b506104a1600480360360208110156108d657600080fd5b5035611aea565b3480156108e957600080fd5b50610597611aef565b3480156108fe57600080fd5b506104a16004803603602081101561091557600080fd5b5035611af5565b34801561092857600080fd5b5061072c611afa565b34801561093d57600080fd5b506105976004803603602081101561095457600080fd5b5035611b09565b34801561096757600080fd5b506105976004803603608081101561097e57600080fd5b506001600160a01b03813581169160208101358216916040820135916060013516611ba4565b3480156109b057600080fd5b50610597611bc0565b3480156109c557600080fd5b50610597600480360360208110156109dc57600080fd5b50356001600160a01b0316611bc6565b3480156109f857600080fd5b50610597611be1565b348015610a0d57600080fd5b5061059760048036036020811015610a2457600080fd5b5035611c97565b348015610a3757600080fd5b5061059760048036036040811015610a4e57600080fd5b506001600160a01b038135169060200135611ca2565b348015610a7057600080fd5b5061059760048036036020811015610a8757600080fd5b5035611cae565b348015610a9a57600080fd5b506104a160048036036020811015610ab157600080fd5b5035611cb9565b348015610ac457600080fd5b50610597611cbe565b348015610ad957600080fd5b506104b8611cc4565b348015610aee57600080fd5b5061059760048036036020811015610b0557600080fd5b50356001600160a01b0316611d1c565b348015610b2157600080fd5b506104a1600480360360c0811015610b3857600080fd5b6001600160a01b03823581169260208101359091169160408201359190810190608081016060820135640100000000811115610b7357600080fd5b820183602082011115610b8557600080fd5b80359060200191846001830284011164010000000083111715610ba757600080fd5b91908080601f0160208091040260200160405190810160405280939291908181526020018383808284376000920191909152509295949360208101935035915050640100000000811115610bfa57600080fd5b820183602082011115610c0c57600080fd5b80359060200191846001830284011164010000000083111715610c2e57600080fd5b91908080601f0160208091040260200160405190810160405280939291908181526020018383808284376000920191909152509295505050903560ff169150611d799050565b348015610c8057600080fd5b5061059760048036036020811015610c9757600080fd5b50356001600160a01b0316611f60565b348015610cb357600080fd5b506104a160048036036020811015610cca57600080fd5b5035611f6b565b348015610cdd57600080fd5b50610597611f70565b348015610cf257600080fd5b5061056660048036036040811015610d0957600080fd5b506001600160a01b0381351690602001356122c8565b348015610d2b57600080fd5b50610597612339565b6104a160048036036040811015610d4a57600080fd5b506001600160a01b038135811691602001351661233f565b348015610d6e57600080fd5b5061059761238c565b348015610d8357600080fd5b5061059760048036036060811015610d9a57600080fd5b506001600160a01b0381358116916020810135909116906040013561242b565b348015610dc657600080fd5b5061059760048036036020811015610ddd57600080fd5b50356001600160a01b031661249c565b348015610df957600080fd5b506104a160048036036020811015610e1057600080fd5b5035612528565b348015610e2357600080fd5b5061059761252d565b348015610e3857600080fd5b50610e5f60048036036020811015610e4f57600080fd5b50356001600160a01b03166125e9565b604080519485526020850193909352838301919091526060830152519081900360800190f35b348015610e9157600080fd5b506104a160048036036060811015610ea857600080fd5b506001600160a01b03813516906020810135906040013561267e565b348015610ed057600080fd5b5061059760048036036020811015610ee757600080fd5b50356126b8565b348015610efa57600080fd5b5061059760048036036040811015610f1157600080fd5b506001600160a01b0381351690602001356126c3565b61059760048036036060811015610f3d57600080fd5b506001600160a01b038135811691602081013590911690604001356126d9565b348015610f6957600080fd5b5061059760048036036060811015610f8057600080fd5b506001600160a01b0381351690602081013590604001356126f1565b348015610fa857600080fd5b506104a160048036036040811015610fbf57600080fd5b506001600160a01b03813516906020013515156126fe565b348015610fe357600080fd5b506104a160048036036040811015610ffa57600080fd5b506001600160a01b038135169060200135612729565b34801561101c57600080fd5b506105976004803603602081101561103357600080fd5b5035612745565b34801561104657600080fd5b506105976004803603602081101561105d57600080fd5b5035612750565b34801561107057600080fd5b506104a16004803603602081101561108757600080fd5b503561275b565b34801561109a57600080fd5b50610597600480360360408110156110b157600080fd5b506001600160a01b0381358116916020013516612760565b6104a1600480360360208110156110df57600080fd5b50356001600160a01b031661278b565b3480156110fb57600080fd5b506105976127d9565b34801561111057600080fd5b506105976004803603602081101561112757600080fd5b50356001600160a01b03166128d1565b34801561114357600080fd5b5061072c61290b565b610597611917565b34801561116057600080fd5b5061072c61291a565b34801561117557600080fd5b5061059761292e565b34801561118a57600080fd5b506104a1600480360360408110156111a157600080fd5b813591908101906040810160208201356401000000008111156111c357600080fd5b8201836020820111156111d557600080fd5b803590602001918460018302840111640100000000831117156111f757600080fd5b509092509050612992565b34801561120e57600080fd5b506105976004803603602081101561122557600080fd5b50356129d2565b60008054819060ff16611273576040805162461bcd60e51b815260206004820152600a6024820152691c994b595b9d195c995960b21b604482015290519081900360640190fd5b6000805460ff19168155611285611f70565b905080156112b0576112a381601181111561129c57fe5b601e612a50565b9250600091506112c09050565b6112ba3385612ab6565b92509250505b6000805460ff191660011790559092909150565b816112de576114d0565b606081516005016040519080825280601f01601f19166020018201604052801561130f576020820181803883390190505b50905060005b82518110156113605782818151811061132a57fe5b602001015160f81c60f81b82828151811061134157fe5b60200101906001600160f81b031916908160001a905350600101611315565b8151600160fd1b9083908390811061137457fe5b60200101906001600160f81b031916908160001a905350602860f81b82826001018151811061139f57fe5b60200101906001600160f81b031916908160001a905350600a840460300160f81b8282600201815181106113cf57fe5b60200101906001600160f81b031916908160001a905350600a840660300160f81b8282600301815181106113ff57fe5b60200101906001600160f81b031916908160001a905350602960f81b82826004018151811061142a57fe5b60200101906001600160f81b031916908160001a9053508184156114cc5760405162461bcd60e51b81526004018080602001828103825283818151815260200191508051906020019080838360005b83811015611491578181015183820152602001611479565b50505050905090810190601f1680156114be5780820380516001836020036101000a031916815260200191505b509250505060405180910390fd5b5050505b5050565b600680546001600160a01b0319166001600160a01b0392909216919091179055565b60018054604080516020600284861615610100026000190190941693909304601f8101849004840282018401909252818152929183018282801561157b5780601f106115505761010080835404028352916020019161157b565b820191906000526020600020905b81548152906001019060200180831161155e57829003601f168201915b505050505081565b336000818152600f602090815260408083206001600160a01b03871680855290835281842086905581518681529151939493909284927f8c5be1e5ebec7d5bd14f71427d1e84f3dd0314c0f7b2291e5b200ac8c7c3b925929081900390910190a360019150505b92915050565b60006115fb3461122c565b50905061162b816040518060400160405280600b81526020016a1b5a5b9d0819985a5b195960aa1b8152506112d4565b50565b60085481565b6000805460ff16611679576040805162461bcd60e51b815260206004820152600a6024820152691c994b595b9d195c995960b21b604482015290519081900360640190fd5b6000805460ff1916815561168b611f70565b146116d6576040805162461bcd60e51b81526020600482015260166024820152751858d8dc9d59481a5b9d195c995cdd0819985a5b195960521b604482015290519081900360640190fd5b6116df82611d1c565b90505b6000805460ff19166001179055919050565b6000806116ff615635565b5050506001600160a01b0381166000908152601060209081526040918290208251808401909352805480845260019091015492909101829052905b915091565b600d5481565b6000806000611752612efe565b9092509050600082600381111561176557fe5b146117a15760405162461bcd60e51b815260040180806020018281038252603581526020018061595a6035913960400191505060405180910390fd5b9150505b90565b60006117b48383612f29565b9392505050565b6000805460ff16611800576040805162461bcd60e51b815260206004820152600a6024820152691c994b595b9d195c995960b21b604482015290519081900360640190fd5b6000805460ff1916815561181633868686612fc5565b1490506000805460ff191660011790559392505050565b6114d082826132d3565b601280549091019055565b6004546001600160a01b031681565b60035460ff1681565b600d55565b600061186961564f565b604051806020016040528061187c61252d565b90526001600160a01b0384166000908152600e60205260408120549192509081906118a890849061334b565b909250905060008260038111156118bb57fe5b1461190d576040805162461bcd60e51b815260206004820152601f60248201527f62616c616e636520636f756c64206e6f742062652063616c63756c6174656400604482015290519081900360640190fd5b925050505b919050565b600061192161339e565b905090565b600181565b60035460009061010090046001600160a01b03163314611958576119516001603f612a50565b9050611912565b60055460408051623f1ee960e11b815290516001600160a01b0392831692851691627e3dd2916004808301926020929190829003018186803b15801561199d57600080fd5b505afa1580156119b1573d6000803e3d6000fd5b505050506040513d60208110156119c757600080fd5b5051611a1a576040805162461bcd60e51b815260206004820152601c60248201527f6d61726b6572206d6574686f642072657475726e65642066616c736500000000604482015290519081900360640190fd5b600580546001600160a01b0319166001600160a01b03858116918217909255604080519284168352602083019190915280517f7ac369dbd14fa5ea3f473ed67cc9d598964a77501540ba6751eb0b3decf5870d9281900390910190a160009392505050565b600b5481565b6000611a903461340a565b50905061162b81604051806040016040528060128152602001711c995c185e509bdc9c9bddc819985a5b195960721b8152506112d4565b600d92909255600b55600c55565b60136020526000908152604090205460ff1681565b600a55565b60125481565b600955565b6005546001600160a01b031681565b6000805460ff16611b4e576040805162461bcd60e51b815260206004820152600a6024820152691c994b595b9d195c995960b21b604482015290519081900360640190fd5b6000805460ff19168155611b60611f70565b90508015611b8657611b7e816011811115611b7757fe5b6030612a50565b9150506116e2565b611b8f8361348c565b9150506000805460ff19166001179055919050565b600080611bb386868686613580565b509150505b949350505050565b60095481565b6001600160a01b03166000908152600e602052604090205490565b6000805460ff16611c26576040805162461bcd60e51b815260206004820152600a6024820152691c994b595b9d195c995960b21b604482015290519081900360640190fd5b6000805460ff19168155611c38611f70565b14611c83576040805162461bcd60e51b81526020600482015260166024820152751858d8dc9d59481a5b9d195c995cdd0819985a5b195960521b604482015290519081900360640190fd5b50600b546000805460ff1916600117905590565b60006115ea8261348c565b60006117b48383613b03565b60006115ea82613e11565b601255565b600c5481565b6002805460408051602060018416156101000260001901909316849004601f8101849004840282018401909252818152929183018282801561157b5780601f106115505761010080835404028352916020019161157b565b6000806000611d2a84613e92565b90925090506000826003811115611d3d57fe5b146117b45760405162461bcd60e51b81526004018080602001828103825260378152602001806158656037913960400191505060405180910390fd5b60035461010090046001600160a01b03163314611dc75760405162461bcd60e51b81526004018080602001828103825260248152602001806157a16024913960400191505060405180910390fd5b600954158015611dd75750600a54155b611e125760405162461bcd60e51b81526004018080602001828103825260238152602001806157c56023913960400191505060405180910390fd5b600784905583611e535760405162461bcd60e51b81526004018080602001828103825260308152602001806157e86030913960400191505060405180910390fd5b6000611e5e8761192b565b90508015611eb3576040805162461bcd60e51b815260206004820152601a60248201527f73657474696e6720636f6d7074726f6c6c6572206661696c6564000000000000604482015290519081900360640190fd5b611ebb613f45565b600955670de0b6b3a7640000600a55611ed386613f4b565b90508015611f125760405162461bcd60e51b81526004018080602001828103825260228152602001806158186022913960400191505060405180910390fd5b8351611f25906001906020870190615662565b508251611f39906002906020860190615662565b50506003805460ff90921660ff199283161790556000805490911660011790555050505050565b60006115ea82613f4b565b600c55565b600080611f7b613f45565b60095490915080821415611f94576000925050506117a5565b6000611f9e61339e565b600b54600c54600a54600654604080516315f2405360e01b815260048101879052602481018690526044810185905290519596509394929391926000926001600160a01b03909216916315f24053916064808301926020929190829003018186803b15801561200c57600080fd5b505afa158015612020573d6000803e3d6000fd5b505050506040513d602081101561203657600080fd5b5051905065048c27395000811115612095576040805162461bcd60e51b815260206004820152601c60248201527f626f72726f772072617465206973206162737572646c79206869676800000000604482015290519081900360640190fd5b6000806120a289896140c0565b909250905060008260038111156120b557fe5b14612107576040805162461bcd60e51b815260206004820152601f60248201527f636f756c64206e6f742063616c63756c61746520626c6f636b2064656c746100604482015290519081900360640190fd5b61210f61564f565b60008060008061212d60405180602001604052808a815250876140e3565b9097509450600087600381111561214057fe5b146121725761215d6009600689600381111561215857fe5b61414b565b9e5050505050505050505050505050506117a5565b61217c858c61334b565b9097509350600087600381111561218f57fe5b146121a75761215d6009600189600381111561215857fe5b6121b1848c6141b1565b909750925060008760038111156121c457fe5b146121dc5761215d6009600489600381111561215857fe5b6121f76040518060200160405280600854815250858c6141d7565b9097509150600087600381111561220a57fe5b146122225761215d6009600589600381111561215857fe5b61222d858a8b6141d7565b9097509050600087600381111561224057fe5b146122585761215d6009600389600381111561215857fe5b60098e9055600a819055600b839055600c829055604080518d8152602081018690528082018390526060810185905290517f4dec04e750ca11537cabcd8a9eab06494de08da3735bc8871cd41250e190bc049181900360800190a160009e50505050505050505050505050505090565b6000805460ff1661230d576040805162461bcd60e51b815260206004820152600a6024820152691c994b595b9d195c995960b21b604482015290519081900360640190fd5b6000805460ff1916815561232333338686612fc5565b1490506000805460ff1916600117905592915050565b600a5481565b600061234c833484614233565b50905061238781604051806040016040528060168152602001751b1a5c5d5a59185d19509bdc9c9bddc819985a5b195960521b8152506112d4565b505050565b6006546000906001600160a01b031663b81688166123a861339e565b600b54600c546008546040518563ffffffff1660e01b81526004018085815260200184815260200183815260200182815260200194505050505060206040518083038186803b1580156123fa57600080fd5b505afa15801561240e573d6000803e3d6000fd5b505050506040513d602081101561242457600080fd5b5051905090565b6000805460ff16612470576040805162461bcd60e51b815260206004820152600a6024820152691c994b595b9d195c995960b21b604482015290519081900360640190fd5b6000805460ff1916905561248633858585614365565b90506000805460ff191660011790559392505050565b60035460009061010090046001600160a01b031633146124c25761195160016045612a50565b600480546001600160a01b038481166001600160a01b0319831681179093556040805191909216808252602082019390935281517fca4f2f25d0898edd99413412fb94012f9e54ec8142f9b093e7720646a95b16a9929181900390910190a160006117b4565b601155565b6000805460ff16612572576040805162461bcd60e51b815260206004820152600a6024820152691c994b595b9d195c995960b21b604482015290519081900360640190fd5b6000805460ff19168155612584611f70565b146125cf576040805162461bcd60e51b81526020600482015260166024820152751858d8dc9d59481a5b9d195c995cdd0819985a5b195960521b604482015290519081900360640190fd5b6125d7611745565b90506000805460ff1916600117905590565b6001600160a01b0381166000908152600e602052604081205481908190819081808061261489613e92565b93509050600081600381111561262657fe5b146126445760095b9750600096508695508594506126779350505050565b61264c612efe565b92509050600081600381111561265e57fe5b1461266a57600961262e565b5060009650919450925090505b9193509193565b60408051808201825292835260208084019283526001600160a01b0390941660009081526010909452909220905181559051600190910155565b60006115ea826145cb565b6000806126d08484612ab6565b50949350505050565b6000806126e785858561464a565b5095945050505050565b6000611bb8848484614a2f565b6001600160a01b03919091166000908152601360205260409020805460ff1916911515919091179055565b6001600160a01b039091166000908152600e6020526040902055565b60006115ea826151aa565b60006115ea82615252565b600b55565b6001600160a01b039182166000908152600f6020908152604080832093909416825291909152205490565b600061279782346152cc565b5090506114d0816040518060400160405280601881526020017f7265706179426f72726f77426568616c66206661696c656400000000000000008152506112d4565b6004546000906001600160a01b03163314612801576127fa60016000612a50565b90506117a5565b60038054600480546001600160a01b03818116610100818102610100600160a81b0319871617968790556001600160a01b031990931690935560408051948390048216808652929095041660208401528351909391927ff9ffabca9c8276e99321725bcb43fb076a6c66a54b7f21c4e8146d8519b417dc92908290030190a1600454604080516001600160a01b038085168252909216602083015280517fca4f2f25d0898edd99413412fb94012f9e54ec8142f9b093e7720646a95b16a99281900390910190a160009250505090565b6000806128dc611f70565b90508015612902576128fa8160118111156128f357fe5b6040612a50565b915050611912565b6117b483613f4b565b6006546001600160a01b031681565b60035461010090046001600160a01b031681565b6006546000906001600160a01b03166315f2405361294a61339e565b600b54600c546040518463ffffffff1660e01b815260040180848152602001838152602001828152602001935050505060206040518083038186803b1580156123fa57600080fd5b6123878383838080601f0160208091040260200160405190810160405280939291908181526020018383808284376000920191909152506112d492505050565b6000805460ff16612a17576040805162461bcd60e51b815260206004820152600a6024820152691c994b595b9d195c995960b21b604482015290519081900360640190fd5b6000805460ff19168155612a29611f70565b90508015612a4757611b7e816011811115612a4057fe5b6046612a50565b611b8f836151aa565b60007f45b96fe442630264581b197e84bbada861235052c5a1aadfff9ea4e40a969aa0836011811115612a7f57fe5b836056811115612a8b57fe5b604080519283526020830191909152600082820152519081900360600190a18260118111156117b457fe5b60055460408051634ef4c3e160e01b81523060048201526001600160a01b03858116602483015260448201859052915160009384938493911691634ef4c3e19160648082019260209290919082900301818787803b158015612b1757600080fd5b505af1158015612b2b573d6000803e3d6000fd5b505050506040513d6020811015612b4157600080fd5b505190508015612b6557612b586003601f8361414b565b925060009150612ef79050565b612b6d613f45565b60095414612b8157612b58600a6022612a50565b612b896156e0565b612b91612efe565b6020830181905282826003811115612ba557fe5b6003811115612bb057fe5b9052506000905081516003811115612bc457fe5b14612bee57612be0600960218360000151600381111561215857fe5b935060009250612ef7915050565b612bf88686612f29565b60a08201819052604080516020808201909252908301518152612c1b9190615377565b6040830181905282826003811115612c2f57fe5b6003811115612c3a57fe5b9052506000905081516003811115612c4e57fe5b14612ca0576040805162461bcd60e51b815260206004820181905260248201527f4d494e545f45584348414e47455f43414c43554c4154494f4e5f4641494c4544604482015290519081900360640190fd5b612cb0600d5482604001516141b1565b6060830181905282826003811115612cc457fe5b6003811115612ccf57fe5b9052506000905081516003811115612ce357fe5b14612d1f5760405162461bcd60e51b815260040180806020018281038252602881526020018061598f6028913960400191505060405180910390fd5b6001600160a01b0386166000908152600e6020526040908190205490820151612d4891906141b1565b6080830181905282826003811115612d5c57fe5b6003811115612d6757fe5b9052506000905081516003811115612d7b57fe5b14612db75760405162461bcd60e51b815260040180806020018281038252602b81526020018061583a602b913960400191505060405180910390fd5b606080820151600d5560808201516001600160a01b0388166000818152600e60209081526040918290209390935560a0850151818601518251938452938301528181019290925290517f4c209b5fc8ad50758f13e2e1088ba56a560dff690a1c6fef26394f4c03821c4f929181900390910190a1604080820151815190815290516001600160a01b0388169130916000805160206158d68339815191529181900360200190a360055460a082015160408084015181516341c728b960e01b81523060048201526001600160a01b038b8116602483015260448201949094526064810191909152905191909216916341c728b991608480830192600092919082900301818387803b158015612eca57600080fd5b505af1158015612ede573d6000803e3d6000fd5b5060009250612eeb915050565b8160a001519350935050505b9250929050565b600080601154600014612f18575050601154600090612f25565b612f2061538e565b915091505b9091565b6000336001600160a01b03841614612f7a576040805162461bcd60e51b815260206004820152600f60248201526e0e6cadcc8cae440dad2e6dac2e8c6d608b1b604482015290519081900360640190fd5b813414612fbf576040805162461bcd60e51b815260206004820152600e60248201526d0ecc2d8eaca40dad2e6dac2e8c6d60931b604482015290519081900360640190fd5b50919050565b600554604080516317b9b84b60e31b81523060048201526001600160a01b03868116602483015285811660448301526064820185905291516000938493169163bdcdc25891608480830192602092919082900301818787803b15801561302a57600080fd5b505af115801561303e573d6000803e3d6000fd5b505050506040513d602081101561305457600080fd5b5051905080156130735761306b6003604a8361414b565b915050611bb8565b836001600160a01b0316856001600160a01b031614156130995761306b6002604b612a50565b60006001600160a01b0387811690871614156130b857506000196130e0565b506001600160a01b038086166000908152600f60209081526040808320938a16835292905220545b6000806000806130f085896140c0565b9094509250600084600381111561310357fe5b14613121576131146009604b612a50565b9650505050505050611bb8565b6001600160a01b038a166000908152600e602052604090205461314490896140c0565b9094509150600084600381111561315757fe5b14613168576131146009604c612a50565b6001600160a01b0389166000908152600e602052604090205461318b90896141b1565b9094509050600084600381111561319e57fe5b146131af576131146009604d612a50565b6001600160a01b03808b166000908152600e6020526040808220859055918b168152208190556000198514613207576001600160a01b03808b166000908152600f60209081526040808320938f168352929052208390555b886001600160a01b03168a6001600160a01b03166000805160206158d68339815191528a6040518082815260200191505060405180910390a36005546040805163352b4a3f60e11b81523060048201526001600160a01b038d811660248301528c81166044830152606482018c905291519190921691636a56947e91608480830192600092919082900301818387803b1580156132a357600080fd5b505af11580156132b7573d6000803e3d6000fd5b50600092506132c4915050565b9b9a5050505050505050505050565b6001600160a01b03821660009081526013602052604090205460ff1615613341576040805162461bcd60e51b815260206004820152601960248201527f544f4b454e5f5452414e534645525f4f55545f4641494c454400000000000000604482015290519081900360640190fd5b6114d08282615439565b600080600061335861564f565b61336286866140e3565b9092509050600082600381111561337557fe5b146133865750915060009050612ef7565b60006133918261546f565b9350935050509250929050565b60008060006133ad47346140c0565b909250905060008260038111156133c057fe5b146117a1576040805162461bcd60e51b815260206004820152601560248201527431b0b9b410383934b7b91036b0ba341032b93937b960591b604482015290519081900360640190fd5b60008054819060ff16613451576040805162461bcd60e51b815260206004820152600a6024820152691c994b595b9d195c995960b21b604482015290519081900360640190fd5b6000805460ff19168155613463611f70565b90508015613481576112a381601181111561347a57fe5b6036612a50565b6112ba33338661464a565b600354600090819061010090046001600160a01b031633146134b4576128fa60016031612a50565b6134bc613f45565b600954146134d0576128fa600a6033612a50565b826134d961339e565b10156134eb576128fa600e6032612a50565b600c54831115613501576128fa60026034612a50565b50600c8054839003908190556003546135289061010090046001600160a01b0316846132d3565b600354604080516101009092046001600160a01b0316825260208201859052818101839052517f3bad0c59cf2f06e7314077049f48a93578cd16f5ef92329f1dab1420a99c177e916060908290030190a160006117b4565b60055460408051632fe3f38f60e11b81523060048201526001600160a01b0384811660248301528781166044830152868116606483015260848201869052915160009384938493911691635fc7e71e9160a48082019260209290919082900301818787803b1580156135f157600080fd5b505af1158015613605573d6000803e3d6000fd5b505050506040513d602081101561361b57600080fd5b50519050801561363f57613632600360128361414b565b925060009150613afa9050565b613647613f45565b6009541461365b57613632600a6016612a50565b613663613f45565b846001600160a01b0316636c540baf6040518163ffffffff1660e01b815260040160206040518083038186803b15801561369c57600080fd5b505afa1580156136b0573d6000803e3d6000fd5b505050506040513d60208110156136c657600080fd5b5051146136d957613632600a6011612a50565b866001600160a01b0316866001600160a01b031614156136ff5761363260066017612a50565b846137105761363260076015612a50565b6000198514156137265761363260076014612a50565b60008061373489898961464a565b909250905081156137645761375582601181111561374e57fe5b6018612a50565b945060009350613afa92505050565b6005546040805163c488847b60e01b81523060048201526001600160a01b038981166024830152604482018590528251600094859492169263c488847b926064808301939192829003018186803b1580156137be57600080fd5b505afa1580156137d2573d6000803e3d6000fd5b505050506040513d60408110156137e857600080fd5b508051602090910151909250905081156138335760405162461bcd60e51b81526004018080602001828103825260338152602001806159276033913960400191505060405180910390fd5b80886001600160a01b03166370a082318c6040518263ffffffff1660e01b815260040180826001600160a01b03166001600160a01b0316815260200191505060206040518083038186803b15801561388a57600080fd5b505afa15801561389e573d6000803e3d6000fd5b505050506040513d60208110156138b457600080fd5b50511015613909576040805162461bcd60e51b815260206004820152601860248201527f4c49515549444154455f5345495a455f544f4f5f4d5543480000000000000000604482015290519081900360640190fd5b60006001600160a01b03891630141561392f57613928308d8d85614365565b90506139b9565b6040805163b2a02ff160e01b81526001600160a01b038e811660048301528d81166024830152604482018590529151918b169163b2a02ff1916064808201926020929091908290030181600087803b15801561398a57600080fd5b505af115801561399e573d6000803e3d6000fd5b505050506040513d60208110156139b457600080fd5b505190505b8015613a03576040805162461bcd60e51b81526020600482015260146024820152731d1bdad95b881cd95a5e9d5c994819985a5b195960621b604482015290519081900360640190fd5b604080516001600160a01b03808f168252808e1660208301528183018790528b1660608201526080810184905290517f298637f684da70674f26509b10f07ec2fbc77a335ab1e7d6215a4b2484d8bb529181900360a00190a1600554604080516347ef3b3b60e01b81523060048201526001600160a01b038c811660248301528f811660448301528e811660648301526084820188905260a48201869052915191909216916347ef3b3b9160c480830192600092919082900301818387803b158015613ace57600080fd5b505af1158015613ae2573d6000803e3d6000fd5b5060009250613aef915050565b975092955050505050505b94509492505050565b6005546040805163368f515360e21b81523060048201526001600160a01b0385811660248301526044820185905291516000938493169163da3d454c91606480830192602092919082900301818787803b158015613b6057600080fd5b505af1158015613b74573d6000803e3d6000fd5b505050506040513d6020811015613b8a57600080fd5b505190508015613ba957613ba16003600e8361414b565b9150506115ea565b613bb1613f45565b60095414613bc457613ba1600a80612a50565b82613bcd61339e565b1015613bdf57613ba1600e6009612a50565b613be7615717565b613bf085613e92565b6020830181905282826003811115613c0457fe5b6003811115613c0f57fe5b9052506000905081516003811115613c2357fe5b14613c4857613c3f600960078360000151600381111561215857fe5b925050506115ea565b613c568160200151856141b1565b6040830181905282826003811115613c6a57fe5b6003811115613c7557fe5b9052506000905081516003811115613c8957fe5b14613ca557613c3f6009600c8360000151600381111561215857fe5b613cb1600b54856141b1565b6060830181905282826003811115613cc557fe5b6003811115613cd057fe5b9052506000905081516003811115613ce457fe5b14613d0057613c3f6009600b8360000151600381111561215857fe5b613d0a85856132d3565b604080820180516001600160a01b03881660008181526010602090815290859020928355600a54600190930192909255606080860151600b81905593518551928352928201899052818501929092529081019190915290517f13ed6866d4e1ee6da46f845c46d7e54120883d75c5ea9a2dacc1c4ca8984ab809181900360800190a160055460408051635c77860560e01b81523060048201526001600160a01b0388811660248301526044820188905291519190921691635c77860591606480830192600092919082900301818387803b158015613de757600080fd5b505af1158015613dfb573d6000803e3d6000fd5b5060009250613e08915050565b95945050505050565b6000805460ff16613e56576040805162461bcd60e51b815260206004820152600a6024820152691c994b595b9d195c995960b21b604482015290519081900360640190fd5b6000805460ff19168155613e68611f70565b90508015613e8657611b7e816011811115613e7f57fe5b6027612a50565b611b8f33600085614a2f565b6001600160a01b038116600090815260106020526040812080548291829182918291613ec957506000945084935061173a92505050565b613ed98160000154600a5461547e565b90945092506000846003811115613eec57fe5b14613f0157509193506000925061173a915050565b613f0f8382600101546154bd565b90945091506000846003811115613f2257fe5b14613f3757509193506000925061173a915050565b506000945092505050915091565b60125490565b600354600090819061010090046001600160a01b03163314613f73576128fa60016042612a50565b613f7b613f45565b60095414613f8f576128fa600a6041612a50565b600660009054906101000a90046001600160a01b03169050826001600160a01b0316632191f92a6040518163ffffffff1660e01b815260040160206040518083038186803b158015613fe057600080fd5b505afa158015613ff4573d6000803e3d6000fd5b505050506040513d602081101561400a57600080fd5b505161405d576040805162461bcd60e51b815260206004820152601c60248201527f6d61726b6572206d6574686f642072657475726e65642066616c736500000000604482015290519081900360640190fd5b600680546001600160a01b0319166001600160a01b03858116918217909255604080519284168352602083019190915280517fedffc32e068c7c95dfd4bdfd5c4d939a084d6b11c4199eac8436ed234d72f9269281900390910190a160006117b4565b6000808383116140d7575060009050818303612ef7565b50600390506000612ef7565b60006140ed61564f565b6000806140fe86600001518661547e565b9092509050600082600381111561411157fe5b1461413057506040805160208101909152600081529092509050612ef7565b60408051602081019091529081526000969095509350505050565b60007f45b96fe442630264581b197e84bbada861235052c5a1aadfff9ea4e40a969aa084601181111561417a57fe5b84605681111561418657fe5b604080519283526020830191909152818101859052519081900360600190a1836011811115611bb857fe5b6000808383018481106141c957600092509050612ef7565b506002915060009050612ef7565b60008060006141e461564f565b6141ee87876140e3565b9092509050600082600381111561420157fe5b14614212575091506000905061422b565b61422461421e8261546f565b866141b1565b9350935050505b935093915050565b60008054819060ff1661427a576040805162461bcd60e51b815260206004820152600a6024820152691c994b595b9d195c995960b21b604482015290519081900360640190fd5b6000805460ff1916815561428c611f70565b905080156142b7576142aa8160118111156142a357fe5b600f612a50565b92506000915061434e9050565b836001600160a01b031663a6afed956040518163ffffffff1660e01b8152600401602060405180830381600087803b1580156142f257600080fd5b505af1158015614306573d6000803e3d6000fd5b505050506040513d602081101561431c57600080fd5b50519050801561433c576142aa81601181111561433557fe5b6010612a50565b61434833878787613580565b92509250505b6000805460ff191660011790559094909350915050565b6005546040805163d02f735160e01b81523060048201526001600160a01b038781166024830152868116604483015285811660648301526084820185905291516000938493169163d02f73519160a480830192602092919082900301818787803b1580156143d257600080fd5b505af11580156143e6573d6000803e3d6000fd5b505050506040513d60208110156143fc57600080fd5b5051905080156144135761306b6003601b8361414b565b846001600160a01b0316846001600160a01b031614156144395761306b6006601c612a50565b6001600160a01b0384166000908152600e60205260408120548190819061446090876140c0565b9093509150600083600381111561447357fe5b146144965761448b6009601a85600381111561215857fe5b945050505050611bb8565b6001600160a01b0388166000908152600e60205260409020546144b990876141b1565b909350905060008360038111156144cc57fe5b146144e45761448b6009601985600381111561215857fe5b6001600160a01b038088166000818152600e60209081526040808320879055938c168083529184902085905583518a8152935191936000805160206158d6833981519152929081900390910190a360055460408051636d35bf9160e01b81523060048201526001600160a01b038c811660248301528b811660448301528a81166064830152608482018a905291519190921691636d35bf919160a480830192600092919082900301818387803b15801561459d57600080fd5b505af11580156145b1573d6000803e3d6000fd5b50600092506145be915050565b9998505050505050505050565b6000805460ff16614610576040805162461bcd60e51b815260206004820152600a6024820152691c994b595b9d195c995960b21b604482015290519081900360640190fd5b6000805460ff19168155614622611f70565b9050801561464057611b7e81601181111561463957fe5b6008612a50565b611b8f3384613b03565b60055460408051631200453160e11b81523060048201526001600160a01b0386811660248301528581166044830152606482018590529151600093849384939116916324008a629160848082019260209290919082900301818787803b1580156146b357600080fd5b505af11580156146c7573d6000803e3d6000fd5b505050506040513d60208110156146dd57600080fd5b505190508015614701576146f4600360388361414b565b92506000915061422b9050565b614709613f45565b6009541461471d576146f4600a6039612a50565b614725615740565b6001600160a01b038616600090815260106020526040902060010154606082015261474f86613e92565b608083018190526020830182600381111561476657fe5b600381111561477157fe5b905250600090508160200151600381111561478857fe5b146147b2576147a4600960378360200151600381111561215857fe5b93506000925061422b915050565b6000198514156147cb57608081015160408201526147d3565b604081018590525b6147e1878260400151612f29565b60e0820181905260808201516147f6916140c0565b60a083018190526020830182600381111561480d57fe5b600381111561481857fe5b905250600090508160200151600381111561482f57fe5b1461486b5760405162461bcd60e51b815260040180806020018281038252603a81526020018061589c603a913960400191505060405180910390fd5b61487b600b548260e001516140c0565b60c083018190526020830182600381111561489257fe5b600381111561489d57fe5b90525060009050816020015160038111156148b457fe5b146148f05760405162461bcd60e51b81526004018080602001828103825260318152602001806158f66031913960400191505060405180910390fd5b60a080820180516001600160a01b03808a16600081815260106020908152604091829020948555600a5460019095019490945560c0870151600b81905560e088015195518251948f16855294840192909252828101949094526060820192909252608081019190915290517f1a2a22cb034d26d1854bdc6666a5b91fe25efbbb5dcad3b0355478d6f5c362a1929181900390910190a160055460e0820151606083015160408051631ededc9160e01b81523060048201526001600160a01b038c811660248301528b8116604483015260648201949094526084810192909252519190921691631ededc919160a480830192600092919082900301818387803b1580156149fb57600080fd5b505af1158015614a0f573d6000803e3d6000fd5b5060009250614a1c915050565b8160e00151935093505050935093915050565b6000821580614a3c575081155b614a775760405162461bcd60e51b81526004018080602001828103825260348152602001806159b76034913960400191505060405180910390fd5b614a7f6156e0565b614a87612efe565b6020830181905282826003811115614a9b57fe5b6003811115614aa657fe5b9052506000905081516003811115614aba57fe5b14614ade57614ad66009602b8360000151600381111561215857fe5b9150506117b4565b8315614b5a57604080820185905280516020808201909252908201518152614b06908561334b565b6060830181905282826003811115614b1a57fe5b6003811115614b2557fe5b9052506000905081516003811115614b3957fe5b14614b5557614ad6600960298360000151600381111561215857fe5b614bcd565b614b768360405180602001604052808460200151815250615377565b6040830181905282826003811115614b8a57fe5b6003811115614b9557fe5b9052506000905081516003811115614ba957fe5b14614bc557614ad66009602a8360000151600381111561215857fe5b606081018390525b600554604080830151815163eabe7d9160e01b81523060048201526001600160a01b03898116602483015260448201929092529151600093919091169163eabe7d9191606480830192602092919082900301818787803b158015614c3057600080fd5b505af1158015614c44573d6000803e3d6000fd5b505050506040513d6020811015614c5a57600080fd5b505190508015614c7a57614c71600360288361414b565b925050506117b4565b614c82613f45565b60095414614c9657614c71600a602c612a50565b614ca6600d5483604001516140c0565b6080840181905283826003811115614cba57fe5b6003811115614cc557fe5b9052506000905082516003811115614cd957fe5b14614cf557614c716009602e8460000151600381111561215857fe5b6001600160a01b0386166000908152600e6020526040908190205490830151614d1e91906140c0565b60a0840181905283826003811115614d3257fe5b6003811115614d3d57fe5b9052506000905082516003811115614d5157fe5b14614d6d57614c716009602d8460000151600381111561215857fe5b8160600151614d7a61339e565b1015614d8c57614c71600e602f612a50565b600080600560009054906101000a90046001600160a01b03166001600160a01b03166304ef9d586040518163ffffffff1660e01b815260040160206040518083038186803b158015614ddd57600080fd5b505afa158015614df1573d6000803e3d6000fd5b505050506040513d6020811015614e0757600080fd5b50511561506157606084015160055460408051629df3ab60e31b81529051614e8a93926001600160a01b0316916304ef9d58916004808301926020929190829003018186803b158015614e5957600080fd5b505afa158015614e6d573d6000803e3d6000fd5b505050506040513d6020811015614e8357600080fd5b505161547e565b92508285826003811115614e9a57fe5b6003811115614ea557fe5b9052506000905084516003811115614eb957fe5b14614ee057614ed5600960568660000151600381111561215857fe5b9450505050506117b4565b614ef282670de0b6b3a76400006154bd565b92508285826003811115614f0257fe5b6003811115614f0d57fe5b9052506000905084516003811115614f2157fe5b14614f3d57614ed5600960568660000151600381111561215857fe5b614f4b8460600151836140c0565b91508185826003811115614f5b57fe5b6003811115614f6657fe5b9052506000905084516003811115614f7a57fe5b14614f9657614ed5600960568660000151600381111561215857fe5b6005546040805163c5f956af60e01b8152905161500e926001600160a01b03169163c5f956af916004808301926020929190829003018186803b158015614fdc57600080fd5b505afa158015614ff0573d6000803e3d6000fd5b505050506040513d602081101561500657600080fd5b5051836132d3565b60408085015181516001600160a01b038b168152602081018590528083019190915290517fccf8e53b86a99b7e9ecf796342c165764d66154780f638c08e6241d711fba6d49181900360600190a1615068565b5060608301515b61507288826132d3565b6080840151600d5560a08401516001600160a01b0389166000818152600e602090815260409182902093909355808701518151908152905130936000805160206158d6833981519152928290030190a360408085015181516001600160a01b038b168152602081018490528083019190915290517fe5b754fb1abb7f01b499791d0b820ae3b6af3424ac1c59768edb53f4ec31a9299181900360600190a1600554606085015160408087015181516351dff98960e01b81523060048201526001600160a01b038d8116602483015260448201949094526064810191909152905191909216916351dff98991608480830192600092919082900301818387803b15801561517d57600080fd5b505af1158015615191573d6000803e3d6000fd5b506000925061519e915050565b98975050505050505050565b60035460009061010090046001600160a01b031633146151d05761195160016047612a50565b6151d8613f45565b600954146151ec57611951600a6048612a50565b670de0b6b3a76400008211156152085761195160026049612a50565b6008805490839055604080518281526020810185905281517faaa68312e2ea9d50e16af5068410ab56e1a1fd06037b1a35664812c30f821460929181900390910190a160006117b4565b6000805460ff16615297576040805162461bcd60e51b815260206004820152600a6024820152691c994b595b9d195c995960b21b604482015290519081900360640190fd5b6000805460ff191681556152a9611f70565b905080156152c057611b7e816011811115613e7f57fe5b611b8f33846000614a2f565b60008054819060ff16615313576040805162461bcd60e51b815260206004820152600a6024820152691c994b595b9d195c995960b21b604482015290519081900360640190fd5b6000805460ff19168155615325611f70565b905080156153505761534381601181111561533c57fe5b6035612a50565b9250600091506153619050565b61535b33868661464a565b92509250505b6000805460ff1916600117905590939092509050565b600080600061538461564f565b61336286866154e8565b600d546000908190806153a957505060075460009150612f25565b60006153b361339e565b905060006153bf61564f565b60006153d084600b54600c54615547565b9350905060008160038111156153e257fe5b146153f757955060009450612f259350505050565b6154018386615585565b92509050600081600381111561541357fe5b1461542857955060009450612f259350505050565b5051600095509350612f2592505050565b6040516001600160a01b0383169082156108fc029083906000818181858888f19350505050158015612387573d6000803e3d6000fd5b51670de0b6b3a7640000900490565b6000808361549157506000905080612ef7565b8383028385828161549e57fe5b04146154b257506002915060009050612ef7565b600092509050612ef7565b600080826154d15750600190506000612ef7565b60008385816154dc57fe5b04915091509250929050565b60006154f261564f565b600080615507670de0b6b3a76400008761547e565b9092509050600082600381111561551a57fe5b1461553957506040805160208101909152600081529092509050612ef7565b613391818660000151615585565b60008060008061555787876141b1565b9092509050600082600381111561556a57fe5b1461557b575091506000905061422b565b61422481866140c0565b600061558f61564f565b6000806155a486670de0b6b3a764000061547e565b909250905060008260038111156155b757fe5b146155d657506040805160208101909152600081529092509050612ef7565b6000806155e383886154bd565b909250905060008260038111156155f657fe5b1461561857506040805160208101909152600081529094509250612ef7915050565b604080516020810190915290815260009890975095505050505050565b604051806040016040528060008152602001600081525090565b6040518060200160405280600081525090565b828054600181600116156101000203166002900490600052602060002090601f016020900481019282601f106156a357805160ff19168380011785556156d0565b828001600101855582156156d0579182015b828111156156d05782518255916020019190600101906156b5565b506156dc929150615786565b5090565b6040805160c08101909152806000815260200160008152602001600081526020016000815260200160008152602001600081525090565b604080516080810190915280600081526020016000815260200160008152602001600081525090565b6040805161010081019091528060008152602001600081526020016000815260200160008152602001600081526020016000815260200160008152602001600081525090565b6117a591905b808211156156dc576000815560010161578c56fe6f6e6c792061646d696e206d617920696e697469616c697a6520746865206d61726b65746d61726b6574206d6179206f6e6c7920626520696e697469616c697a6564206f6e6365696e697469616c2065786368616e67652072617465206d7573742062652067726561746572207468616e207a65726f2e73657474696e6720696e7465726573742072617465206d6f64656c206661696c65644d494e545f4e45575f4143434f554e545f42414c414e43455f43414c43554c4154494f4e5f4641494c4544626f72726f7742616c616e636553746f7265643a20626f72726f7742616c616e636553746f726564496e7465726e616c206661696c656452455041595f424f52524f575f4e45575f4143434f554e545f424f52524f575f42414c414e43455f43414c43554c4154494f4e5f4641494c4544ddf252ad1be2c89b69c2b068fc378daa952ba7f163c4a11628f55a4df523b3ef52455041595f424f52524f575f4e45575f544f54414c5f42414c414e43455f43414c43554c4154494f4e5f4641494c45444c49515549444154455f434f4d5054524f4c4c45525f43414c43554c4154455f414d4f554e545f5345495a455f4641494c454465786368616e67655261746553746f7265643a2065786368616e67655261746553746f726564496e7465726e616c206661696c65644d494e545f4e45575f544f54414c5f535550504c595f43414c43554c4154494f4e5f4641494c45446f6e65206f662072656465656d546f6b656e73496e206f722072656465656d416d6f756e74496e206d757374206265207a65726fa265627a7a723158202d7f42ee776c70959957599ea5731dcb9305a86e80b17481da3482a06ef17fec64736f6c634300051000326f6e6c792061646d696e206d617920696e697469616c697a6520746865206d61726b65746d61726b6574206d6179206f6e6c7920626520696e697469616c697a6564206f6e6365696e697469616c2065786368616e67652072617465206d7573742062652067726561746572207468616e207a65726f2e73657474696e6720696e7465726573742072617465206d6f64656c206661696c6564",
  "linkReferences": {},
  "deployedLinkReferences": {}
}