{
  "_format": "hh-sol-artifact-1",
  "contractName": "VDaiDelegateScenario",
  "sourceName": "contracts/test/VBep20Harness.sol",
  "abi": [
    {
      "anonymous": false,
      "inputs": [
        {
          "indexed": false,
          "internalType": "uint256",
          "name": "cashPrior",
          "type": "uint256"
        },
        {
          "indexed": false,
          "internalType": "uint256",
          "name": "interestAccumulated",
          "type": "uint256"
        },
        {
          "indexed": false,
          "internalType": "uint256",
          "name": "borrowIndex",
          "type": "uint256"
        },
        {
          "indexed": false,
          "internalType": "uint256",
          "name": "totalBorrows",
          "type": "uint256"
        }
      ],
      "name": "AccrueInterest",
      "type": "event"
    },
    {
      "anonymous": false,
      "inputs": [
        {
          "indexed": true,
          "internalType": "address",
          "name": "owner",
          "type": "address"
        },
        {
          "indexed": true,
          "internalType": "address",
          "name": "spender",
          "type": "address"
        },
        {
          "indexed": false,
          "internalType": "uint256",
          "name": "amount",
          "type": "uint256"
        }
      ],
      "name": "Approval",
      "type": "event"
    },
    {
      "anonymous": false,
      "inputs": [
        {
          "indexed": false,
          "internalType": "address",
          "name": "borrower",
          "type": "address"
        },
        {
          "indexed": false,
          "internalType": "uint256",
          "name": "borrowAmount",
          "type": "uint256"
        },
        {
          "indexed": false,
          "internalType": "uint256",
          "name": "accountBorrows",
          "type": "uint256"
        },
        {
          "indexed": false,
          "internalType": "uint256",
          "name": "totalBorrows",
          "type": "uint256"
        }
      ],
      "name": "Borrow",
      "type": "event"
    },
    {
      "anonymous": false,
      "inputs": [
        {
          "indexed": false,
          "internalType": "uint256",
          "name": "error",
          "type": "uint256"
        },
        {
          "indexed": false,
          "internalType": "uint256",
          "name": "info",
          "type": "uint256"
        },
        {
          "indexed": false,
          "internalType": "uint256",
          "name": "detail",
          "type": "uint256"
        }
      ],
      "name": "Failure",
      "type": "event"
    },
    {
      "anonymous": false,
      "inputs": [
        {
          "indexed": false,
          "internalType": "address",
          "name": "liquidator",
          "type": "address"
        },
        {
          "indexed": false,
          "internalType": "address",
          "name": "borrower",
          "type": "address"
        },
        {
          "indexed": false,
          "internalType": "uint256",
          "name": "repayAmount",
          "type": "uint256"
        },
        {
          "indexed": false,
          "internalType": "address",
          "name": "vTokenCollateral",
          "type": "address"
        },
        {
          "indexed": false,
          "internalType": "uint256",
          "name": "seizeTokens",
          "type": "uint256"
        }
      ],
      "name": "LiquidateBorrow",
      "type": "event"
    },
    {
      "anonymous": false,
      "inputs": [
        {
          "indexed": false,
          "internalType": "address",
          "name": "minter",
          "type": "address"
        },
        {
          "indexed": false,
          "internalType": "uint256",
          "name": "mintAmount",
          "type": "uint256"
        },
        {
          "indexed": false,
          "internalType": "uint256",
          "name": "mintTokens",
          "type": "uint256"
        }
      ],
      "name": "Mint",
      "type": "event"
    },
    {
      "anonymous": false,
      "inputs": [
        {
          "indexed": false,
          "internalType": "address",
          "name": "payer",
          "type": "address"
        },
        {
          "indexed": false,
          "internalType": "address",
          "name": "receiver",
          "type": "address"
        },
        {
          "indexed": false,
          "internalType": "uint256",
          "name": "mintAmount",
          "type": "uint256"
        },
        {
          "indexed": false,
          "internalType": "uint256",
          "name": "mintTokens",
          "type": "uint256"
        }
      ],
      "name": "MintBehalf",
      "type": "event"
    },
    {
      "anonymous": false,
      "inputs": [
        {
          "indexed": false,
          "internalType": "address",
          "name": "oldAdmin",
          "type": "address"
        },
        {
          "indexed": false,
          "internalType": "address",
          "name": "newAdmin",
          "type": "address"
        }
      ],
      "name": "NewAdmin",
      "type": "event"
    },
    {
      "anonymous": false,
      "inputs": [
        {
          "indexed": false,
          "internalType": "contract ComptrollerInterface",
          "name": "oldComptroller",
          "type": "address"
        },
        {
          "indexed": false,
          "internalType": "contract ComptrollerInterface",
          "name": "newComptroller",
          "type": "address"
        }
      ],
      "name": "NewComptroller",
      "type": "event"
    },
    {
      "anonymous": false,
      "inputs": [
        {
          "indexed": false,
          "internalType": "contract InterestRateModel",
          "name": "oldInterestRateModel",
          "type": "address"
        },
        {
          "indexed": false,
          "internalType": "contract InterestRateModel",
          "name": "newInterestRateModel",
          "type": "address"
        }
      ],
      "name": "NewMarketInterestRateModel",
      "type": "event"
    },
    {
      "anonymous": false,
      "inputs": [
        {
          "indexed": false,
          "internalType": "address",
          "name": "oldPendingAdmin",
          "type": "address"
        },
        {
          "indexed": false,
          "internalType": "address",
          "name": "newPendingAdmin",
          "type": "address"
        }
      ],
      "name": "NewPendingAdmin",
      "type": "event"
    },
    {
      "anonymous": false,
      "inputs": [
        {
          "indexed": false,
          "internalType": "uint256",
          "name": "oldReserveFactorMantissa",
          "type": "uint256"
        },
        {
          "indexed": false,
          "internalType": "uint256",
          "name": "newReserveFactorMantissa",
          "type": "uint256"
        }
      ],
      "name": "NewReserveFactor",
      "type": "event"
    },
    {
      "anonymous": false,
      "inputs": [
        {
          "indexed": false,
          "internalType": "address",
          "name": "redeemer",
          "type": "address"
        },
        {
          "indexed": false,
          "internalType": "uint256",
          "name": "redeemAmount",
          "type": "uint256"
        },
        {
          "indexed": false,
          "internalType": "uint256",
          "name": "redeemTokens",
          "type": "uint256"
        }
      ],
      "name": "Redeem",
      "type": "event"
    },
    {
      "anonymous": false,
      "inputs": [
        {
          "indexed": false,
          "internalType": "address",
          "name": "redeemer",
          "type": "address"
        },
        {
          "indexed": false,
          "internalType": "uint256",
          "name": "feeAmount",
          "type": "uint256"
        },
        {
          "indexed": false,
          "internalType": "uint256",
          "name": "redeemTokens",
          "type": "uint256"
        }
      ],
      "name": "RedeemFee",
      "type": "event"
    },
    {
      "anonymous": false,
      "inputs": [
        {
          "indexed": false,
          "internalType": "address",
          "name": "payer",
          "type": "address"
        },
        {
          "indexed": false,
          "internalType": "address",
          "name": "borrower",
          "type": "address"
        },
        {
          "indexed": false,
          "internalType": "uint256",
          "name": "repayAmount",
          "type": "uint256"
        },
        {
          "indexed": false,
          "internalType": "uint256",
          "name": "accountBorrows",
          "type": "uint256"
        },
        {
          "indexed": false,
          "internalType": "uint256",
          "name": "totalBorrows",
          "type": "uint256"
        }
      ],
      "name": "RepayBorrow",
      "type": "event"
    },
    {
      "anonymous": false,
      "inputs": [
        {
          "indexed": false,
          "internalType": "address",
          "name": "benefactor",
          "type": "address"
        },
        {
          "indexed": false,
          "internalType": "uint256",
          "name": "addAmount",
          "type": "uint256"
        },
        {
          "indexed": false,
          "internalType": "uint256",
          "name": "newTotalReserves",
          "type": "uint256"
        }
      ],
      "name": "ReservesAdded",
      "type": "event"
    },
    {
      "anonymous": false,
      "inputs": [
        {
          "indexed": false,
          "internalType": "address",
          "name": "admin",
          "type": "address"
        },
        {
          "indexed": false,
          "internalType": "uint256",
          "name": "reduceAmount",
          "type": "uint256"
        },
        {
          "indexed": false,
          "internalType": "uint256",
          "name": "newTotalReserves",
          "type": "uint256"
        }
      ],
      "name": "ReservesReduced",
      "type": "event"
    },
    {
      "anonymous": false,
      "inputs": [
        {
          "indexed": true,
          "internalType": "address",
          "name": "from",
          "type": "address"
        },
        {
          "indexed": true,
          "internalType": "address",
          "name": "to",
          "type": "address"
        },
        {
          "indexed": false,
          "internalType": "uint256",
          "name": "amount",
          "type": "uint256"
        }
      ],
      "name": "Transfer",
      "type": "event"
    },
    {
      "constant": false,
      "inputs": [],
      "name": "_acceptAdmin",
      "outputs": [
        {
          "internalType": "uint256",
          "name": "",
          "type": "uint256"
        }
      ],
      "payable": false,
      "stateMutability": "nonpayable",
      "type": "function"
    },
    {
      "constant": false,
      "inputs": [
        {
          "internalType": "uint256",
          "name": "addAmount",
          "type": "uint256"
        }
      ],
      "name": "_addReserves",
      "outputs": [
        {
          "internalType": "uint256",
          "name": "",
          "type": "uint256"
        }
      ],
      "payable": false,
      "stateMutability": "nonpayable",
      "type": "function"
    },
    {
      "constant": false,
      "inputs": [
        {
          "internalType": "bytes",
          "name": "data",
          "type": "bytes"
        }
      ],
      "name": "_becomeImplementation",
      "outputs": [],
      "payable": false,
      "stateMutability": "nonpayable",
      "type": "function"
    },
    {
      "constant": false,
      "inputs": [
        {
          "internalType": "uint256",
          "name": "reduceAmount",
          "type": "uint256"
        }
      ],
      "name": "_reduceReserves",
      "outputs": [
        {
          "internalType": "uint256",
          "name": "",
          "type": "uint256"
        }
      ],
      "payable": false,
      "stateMutability": "nonpayable",
      "type": "function"
    },
    {
      "constant": false,
      "inputs": [],
      "name": "_resignImplementation",
      "outputs": [],
      "payable": false,
      "stateMutability": "nonpayable",
      "type": "function"
    },
    {
      "constant": false,
      "inputs": [
        {
          "internalType": "contract ComptrollerInterface",
          "name": "newComptroller",
          "type": "address"
        }
      ],
      "name": "_setComptroller",
      "outputs": [
        {
          "internalType": "uint256",
          "name": "",
          "type": "uint256"
        }
      ],
      "payable": false,
      "stateMutability": "nonpayable",
      "type": "function"
    },
    {
      "constant": false,
      "inputs": [
        {
          "internalType": "contract InterestRateModel",
          "name": "newInterestRateModel",
          "type": "address"
        }
      ],
      "name": "_setInterestRateModel",
      "outputs": [
        {
          "internalType": "uint256",
          "name": "",
          "type": "uint256"
        }
      ],
      "payable": false,
      "stateMutability": "nonpayable",
      "type": "function"
    },
    {
      "constant": false,
      "inputs": [
        {
          "internalType": "address payable",
          "name": "newPendingAdmin",
          "type": "address"
        }
      ],
      "name": "_setPendingAdmin",
      "outputs": [
        {
          "internalType": "uint256",
          "name": "",
          "type": "uint256"
        }
      ],
      "payable": false,
      "stateMutability": "nonpayable",
      "type": "function"
    },
    {
      "constant": false,
      "inputs": [
        {
          "internalType": "uint256",
          "name": "newReserveFactorMantissa",
          "type": "uint256"
        }
      ],
      "name": "_setReserveFactor",
      "outputs": [
        {
          "internalType": "uint256",
          "name": "",
          "type": "uint256"
        }
      ],
      "payable": false,
      "stateMutability": "nonpayable",
      "type": "function"
    },
    {
      "constant": true,
      "inputs": [],
      "name": "accrualBlockNumber",
      "outputs": [
        {
          "internalType": "uint256",
          "name": "",
          "type": "uint256"
        }
      ],
      "payable": false,
      "stateMutability": "view",
      "type": "function"
    },
    {
      "constant": false,
      "inputs": [],
      "name": "accrueInterest",
      "outputs": [
        {
          "internalType": "uint256",
          "name": "",
          "type": "uint256"
        }
      ],
      "payable": false,
      "stateMutability": "nonpayable",
      "type": "function"
    },
    {
      "constant": true,
      "inputs": [],
      "name": "admin",
      "outputs": [
        {
          "internalType": "address payable",
          "name": "",
          "type": "address"
        }
      ],
      "payable": false,
      "stateMutability": "view",
      "type": "function"
    },
    {
      "constant": true,
      "inputs": [
        {
          "internalType": "address",
          "name": "owner",
          "type": "address"
        },
        {
          "internalType": "address",
          "name": "spender",
          "type": "address"
        }
      ],
      "name": "allowance",
      "outputs": [
        {
          "internalType": "uint256",
          "name": "",
          "type": "uint256"
        }
      ],
      "payable": false,
      "stateMutability": "view",
      "type": "function"
    },
    {
      "constant": false,
      "inputs": [
        {
          "internalType": "address",
          "name": "spender",
          "type": "address"
        },
        {
          "internalType": "uint256",
          "name": "amount",
          "type": "uint256"
        }
      ],
      "name": "approve",
      "outputs": [
        {
          "internalType": "bool",
          "name": "",
          "type": "bool"
        }
      ],
      "payable": false,
      "stateMutability": "nonpayable",
      "type": "function"
    },
    {
      "constant": true,
      "inputs": [
        {
          "internalType": "address",
          "name": "owner",
          "type": "address"
        }
      ],
      "name": "balanceOf",
      "outputs": [
        {
          "internalType": "uint256",
          "name": "",
          "type": "uint256"
        }
      ],
      "payable": false,
      "stateMutability": "view",
      "type": "function"
    },
    {
      "constant": false,
      "inputs": [
        {
          "internalType": "address",
          "name": "owner",
          "type": "address"
        }
      ],
      "name": "balanceOfUnderlying",
      "outputs": [
        {
          "internalType": "uint256",
          "name": "",
          "type": "uint256"
        }
      ],
      "payable": false,
      "stateMutability": "nonpayable",
      "type": "function"
    },
    {
      "constant": false,
      "inputs": [
        {
          "internalType": "uint256",
          "name": "borrowAmount",
          "type": "uint256"
        }
      ],
      "name": "borrow",
      "outputs": [
        {
          "internalType": "uint256",
          "name": "",
          "type": "uint256"
        }
      ],
      "payable": false,
      "stateMutability": "nonpayable",
      "type": "function"
    },
    {
      "constant": false,
      "inputs": [
        {
          "internalType": "address",
          "name": "account",
          "type": "address"
        }
      ],
      "name": "borrowBalanceCurrent",
      "outputs": [
        {
          "internalType": "uint256",
          "name": "",
          "type": "uint256"
        }
      ],
      "payable": false,
      "stateMutability": "nonpayable",
      "type": "function"
    },
    {
      "constant": true,
      "inputs": [
        {
          "internalType": "address",
          "name": "account",
          "type": "address"
        }
      ],
      "name": "borrowBalanceStored",
      "outputs": [
        {
          "internalType": "uint256",
          "name": "",
          "type": "uint256"
        }
      ],
      "payable": false,
      "stateMutability": "view",
      "type": "function"
    },
    {
      "constant": true,
      "inputs": [],
      "name": "borrowIndex",
      "outputs": [
        {
          "internalType": "uint256",
          "name": "",
          "type": "uint256"
        }
      ],
      "payable": false,
      "stateMutability": "view",
      "type": "function"
    },
    {
      "constant": true,
      "inputs": [],
      "name": "borrowRatePerBlock",
      "outputs": [
        {
          "internalType": "uint256",
          "name": "",
          "type": "uint256"
        }
      ],
      "payable": false,
      "stateMutability": "view",
      "type": "function"
    },
    {
      "constant": true,
      "inputs": [],
      "name": "comptroller",
      "outputs": [
        {
          "internalType": "contract ComptrollerInterface",
          "name": "",
          "type": "address"
        }
      ],
      "payable": false,
      "stateMutability": "view",
      "type": "function"
    },
    {
      "constant": true,
      "inputs": [],
      "name": "daiJoinAddress",
      "outputs": [
        {
          "internalType": "address",
          "name": "",
          "type": "address"
        }
      ],
      "payable": false,
      "stateMutability": "view",
      "type": "function"
    },
    {
      "constant": true,
      "inputs": [],
      "name": "decimals",
      "outputs": [
        {
          "internalType": "uint8",
          "name": "",
          "type": "uint8"
        }
      ],
      "payable": false,
      "stateMutability": "view",
      "type": "function"
    },
    {
      "constant": false,
      "inputs": [],
      "name": "exchangeRateCurrent",
      "outputs": [
        {
          "internalType": "uint256",
          "name": "",
          "type": "uint256"
        }
      ],
      "payable": false,
      "stateMutability": "nonpayable",
      "type": "function"
    },
    {
      "constant": true,
      "inputs": [],
      "name": "exchangeRateStored",
      "outputs": [
        {
          "internalType": "uint256",
          "name": "",
          "type": "uint256"
        }
      ],
      "payable": false,
      "stateMutability": "view",
      "type": "function"
    },
    {
      "constant": true,
      "inputs": [
        {
          "internalType": "address",
          "name": "account",
          "type": "address"
        }
      ],
      "name": "getAccountSnapshot",
      "outputs": [
        {
          "internalType": "uint256",
          "name": "",
          "type": "uint256"
        },
        {
          "internalType": "uint256",
          "name": "",
          "type": "uint256"
        },
        {
          "internalType": "uint256",
          "name": "",
          "type": "uint256"
        },
        {
          "internalType": "uint256",
          "name": "",
          "type": "uint256"
        }
      ],
      "payable": false,
      "stateMutability": "view",
      "type": "function"
    },
    {
      "constant": true,
      "inputs": [],
      "name": "getCash",
      "outputs": [
        {
          "internalType": "uint256",
          "name": "",
          "type": "uint256"
        }
      ],
      "payable": false,
      "stateMutability": "view",
      "type": "function"
    },
    {
      "constant": true,
      "inputs": [],
      "name": "implementation",
      "outputs": [
        {
          "internalType": "address",
          "name": "",
          "type": "address"
        }
      ],
      "payable": false,
      "stateMutability": "view",
      "type": "function"
    },
    {
      "constant": false,
      "inputs": [
        {
          "internalType": "address",
          "name": "underlying_",
          "type": "address"
        },
        {
          "internalType": "contract ComptrollerInterface",
          "name": "comptroller_",
          "type": "address"
        },
        {
          "internalType": "contract InterestRateModel",
          "name": "interestRateModel_",
          "type": "address"
        },
        {
          "internalType": "uint256",
          "name": "initialExchangeRateMantissa_",
          "type": "uint256"
        },
        {
          "internalType": "string",
          "name": "name_",
          "type": "string"
        },
        {
          "internalType": "string",
          "name": "symbol_",
          "type": "string"
        },
        {
          "internalType": "uint8",
          "name": "decimals_",
          "type": "uint8"
        }
      ],
      "name": "initialize",
      "outputs": [],
      "payable": false,
      "stateMutability": "nonpayable",
      "type": "function"
    },
    {
      "constant": false,
      "inputs": [
        {
          "internalType": "contract ComptrollerInterface",
          "name": "comptroller_",
          "type": "address"
        },
        {
          "internalType": "contract InterestRateModel",
          "name": "interestRateModel_",
          "type": "address"
        },
        {
          "internalType": "uint256",
          "name": "initialExchangeRateMantissa_",
          "type": "uint256"
        },
        {
          "internalType": "string",
          "name": "name_",
          "type": "string"
        },
        {
          "internalType": "string",
          "name": "symbol_",
          "type": "string"
        },
        {
          "internalType": "uint8",
          "name": "decimals_",
          "type": "uint8"
        }
      ],
      "name": "initialize",
      "outputs": [],
      "payable": false,
      "stateMutability": "nonpayable",
      "type": "function"
    },
    {
      "constant": true,
      "inputs": [],
      "name": "interestRateModel",
      "outputs": [
        {
          "internalType": "contract InterestRateModel",
          "name": "",
          "type": "address"
        }
      ],
      "payable": false,
      "stateMutability": "view",
      "type": "function"
    },
    {
      "constant": true,
      "inputs": [],
      "name": "isVToken",
      "outputs": [
        {
          "internalType": "bool",
          "name": "",
          "type": "bool"
        }
      ],
      "payable": false,
      "stateMutability": "view",
      "type": "function"
    },
    {
      "constant": false,
      "inputs": [
        {
          "internalType": "address",
          "name": "borrower",
          "type": "address"
        },
        {
          "internalType": "uint256",
          "name": "repayAmount",
          "type": "uint256"
        },
        {
          "internalType": "contract VTokenInterface",
          "name": "vTokenCollateral",
          "type": "address"
        }
      ],
      "name": "liquidateBorrow",
      "outputs": [
        {
          "internalType": "uint256",
          "name": "",
          "type": "uint256"
        }
      ],
      "payable": false,
      "stateMutability": "nonpayable",
      "type": "function"
    },
    {
      "constant": false,
      "inputs": [
        {
          "internalType": "uint256",
          "name": "mintAmount",
          "type": "uint256"
        }
      ],
      "name": "mint",
      "outputs": [
        {
          "internalType": "uint256",
          "name": "",
          "type": "uint256"
        }
      ],
      "payable": false,
      "stateMutability": "nonpayable",
      "type": "function"
    },
    {
      "constant": false,
      "inputs": [
        {
          "internalType": "address",
          "name": "receiver",
          "type": "address"
        },
        {
          "internalType": "uint256",
          "name": "mintAmount",
          "type": "uint256"
        }
      ],
      "name": "mintBehalf",
      "outputs": [
        {
          "internalType": "uint256",
          "name": "",
          "type": "uint256"
        }
      ],
      "payable": false,
      "stateMutability": "nonpayable",
      "type": "function"
    },
    {
      "constant": true,
      "inputs": [],
      "name": "name",
      "outputs": [
        {
          "internalType": "string",
          "name": "",
          "type": "string"
        }
      ],
      "payable": false,
      "stateMutability": "view",
      "type": "function"
    },
    {
      "constant": true,
      "inputs": [],
      "name": "pendingAdmin",
      "outputs": [
        {
          "internalType": "address payable",
          "name": "",
          "type": "address"
        }
      ],
      "payable": false,
      "stateMutability": "view",
      "type": "function"
    },
    {
      "constant": true,
      "inputs": [],
      "name": "potAddress",
      "outputs": [
        {
          "internalType": "address",
          "name": "",
          "type": "address"
        }
      ],
      "payable": false,
      "stateMutability": "view",
      "type": "function"
    },
    {
      "constant": false,
      "inputs": [
        {
          "internalType": "uint256",
          "name": "redeemTokens",
          "type": "uint256"
        }
      ],
      "name": "redeem",
      "outputs": [
        {
          "internalType": "uint256",
          "name": "",
          "type": "uint256"
        }
      ],
      "payable": false,
      "stateMutability": "nonpayable",
      "type": "function"
    },
    {
      "constant": false,
      "inputs": [
        {
          "internalType": "uint256",
          "name": "redeemAmount",
          "type": "uint256"
        }
      ],
      "name": "redeemUnderlying",
      "outputs": [
        {
          "internalType": "uint256",
          "name": "",
          "type": "uint256"
        }
      ],
      "payable": false,
      "stateMutability": "nonpayable",
      "type": "function"
    },
    {
      "constant": false,
      "inputs": [
        {
          "internalType": "uint256",
          "name": "repayAmount",
          "type": "uint256"
        }
      ],
      "name": "repayBorrow",
      "outputs": [
        {
          "internalType": "uint256",
          "name": "",
          "type": "uint256"
        }
      ],
      "payable": false,
      "stateMutability": "nonpayable",
      "type": "function"
    },
    {
      "constant": false,
      "inputs": [
        {
          "internalType": "address",
          "name": "borrower",
          "type": "address"
        },
        {
          "internalType": "uint256",
          "name": "repayAmount",
          "type": "uint256"
        }
      ],
      "name": "repayBorrowBehalf",
      "outputs": [
        {
          "internalType": "uint256",
          "name": "",
          "type": "uint256"
        }
      ],
      "payable": false,
      "stateMutability": "nonpayable",
      "type": "function"
    },
    {
      "constant": true,
      "inputs": [],
      "name": "reserveFactorMantissa",
      "outputs": [
        {
          "internalType": "uint256",
          "name": "",
          "type": "uint256"
        }
      ],
      "payable": false,
      "stateMutability": "view",
      "type": "function"
    },
    {
      "constant": false,
      "inputs": [
        {
          "internalType": "address",
          "name": "liquidator",
          "type": "address"
        },
        {
          "internalType": "address",
          "name": "borrower",
          "type": "address"
        },
        {
          "internalType": "uint256",
          "name": "seizeTokens",
          "type": "uint256"
        }
      ],
      "name": "seize",
      "outputs": [
        {
          "internalType": "uint256",
          "name": "",
          "type": "uint256"
        }
      ],
      "payable": false,
      "stateMutability": "nonpayable",
      "type": "function"
    },
    {
      "constant": false,
      "inputs": [
        {
          "internalType": "uint256",
          "name": "totalBorrows_",
          "type": "uint256"
        }
      ],
      "name": "setTotalBorrows",
      "outputs": [],
      "payable": false,
      "stateMutability": "nonpayable",
      "type": "function"
    },
    {
      "constant": false,
      "inputs": [
        {
          "internalType": "uint256",
          "name": "totalReserves_",
          "type": "uint256"
        }
      ],
      "name": "setTotalReserves",
      "outputs": [],
      "payable": false,
      "stateMutability": "nonpayable",
      "type": "function"
    },
    {
      "constant": true,
      "inputs": [],
      "name": "supplyRatePerBlock",
      "outputs": [
        {
          "internalType": "uint256",
          "name": "",
          "type": "uint256"
        }
      ],
      "payable": false,
      "stateMutability": "view",
      "type": "function"
    },
    {
      "constant": true,
      "inputs": [],
      "name": "symbol",
      "outputs": [
        {
          "internalType": "string",
          "name": "",
          "type": "string"
        }
      ],
      "payable": false,
      "stateMutability": "view",
      "type": "function"
    },
    {
      "constant": true,
      "inputs": [],
      "name": "totalBorrows",
      "outputs": [
        {
          "internalType": "uint256",
          "name": "",
          "type": "uint256"
        }
      ],
      "payable": false,
      "stateMutability": "view",
      "type": "function"
    },
    {
      "constant": false,
      "inputs": [],
      "name": "totalBorrowsCurrent",
      "outputs": [
        {
          "internalType": "uint256",
          "name": "",
          "type": "uint256"
        }
      ],
      "payable": false,
      "stateMutability": "nonpayable",
      "type": "function"
    },
    {
      "constant": true,
      "inputs": [],
      "name": "totalReserves",
      "outputs": [
        {
          "internalType": "uint256",
          "name": "",
          "type": "uint256"
        }
      ],
      "payable": false,
      "stateMutability": "view",
      "type": "function"
    },
    {
      "constant": true,
      "inputs": [],
      "name": "totalSupply",
      "outputs": [
        {
          "internalType": "uint256",
          "name": "",
          "type": "uint256"
        }
      ],
      "payable": false,
      "stateMutability": "view",
      "type": "function"
    },
    {
      "constant": false,
      "inputs": [
        {
          "internalType": "address",
          "name": "dst",
          "type": "address"
        },
        {
          "internalType": "uint256",
          "name": "amount",
          "type": "uint256"
        }
      ],
      "name": "transfer",
      "outputs": [
        {
          "internalType": "bool",
          "name": "",
          "type": "bool"
        }
      ],
      "payable": false,
      "stateMutability": "nonpayable",
      "type": "function"
    },
    {
      "constant": false,
      "inputs": [
        {
          "internalType": "address",
          "name": "src",
          "type": "address"
        },
        {
          "internalType": "address",
          "name": "dst",
          "type": "address"
        },
        {
          "internalType": "uint256",
          "name": "amount",
          "type": "uint256"
        }
      ],
      "name": "transferFrom",
      "outputs": [
        {
          "internalType": "bool",
          "name": "",
          "type": "bool"
        }
      ],
      "payable": false,
      "stateMutability": "nonpayable",
      "type": "function"
    },
    {
      "constant": true,
      "inputs": [],
      "name": "underlying",
      "outputs": [
        {
          "internalType": "address",
          "name": "",
          "type": "address"
        }
      ],
      "payable": false,
      "stateMutability": "view",
      "type": "function"
    },
    {
      "constant": true,
      "inputs": [],
      "name": "vatAddress",
      "outputs": [
        {
          "internalType": "address",
          "name": "",
          "type": "address"
        }
      ],
      "payable": false,
      "stateMutability": "view",
      "type": "function"
    }
  ],
  "bytecode": "0x6080604052616312806100136000396000f3fe608060405234801561001057600080fd5b50600436106103835760003560e01c806373acee98116101de578063b0e0bf2a1161010f578063dd62ed3e116100ad578063f5e3c4621161007c578063f5e3c46214610c14578063f851a44014610c4a578063f8f9da2814610c52578063fca7820b14610c5a57610383565b8063dd62ed3e14610bb0578063e9c714f214610bde578063f2b3abbd14610be6578063f3fdb15a14610c0c57610383565b8063bd6d894d116100e9578063bd6d894d14610b22578063c37f68e214610b2a578063c5ebeaec14610b76578063db006a7514610b9357610383565b8063b0e0bf2a14610aa9578063b2a02ff114610ac6578063b71d1a0c14610afc57610383565b8063977e19e91161017c578063a6afed9511610156578063a6afed9514610a65578063a9059cbb14610a6d578063aa5af0fd14610a99578063ae9d70b014610aa157610383565b8063977e19e9146108dd57806399d8c1b4146108fa578063a0712d6814610a4857610383565b80638d925ccd116101b85780638d925ccd1461089f5780638f840ddd146108a757806395d89b41146108af57806395dd9193146108b757610383565b806373acee9814610872578063852a12e31461087a5780638a8df2e61461089757610383565b80633af9e669116102b85780635c60da1b1161025657806366ced6021161023057806366ced602146108345780636c540baf1461083c5780636f307dc31461084457806370a082311461084c57610383565b80635c60da1b146108075780635fe3b5671461080f578063601a0bf11461081757610383565b80633e941010116102925780633e941010146107185780634576b5db1461073557806347bd37181461075b57806356e677281461076357610383565b80633af9e669146106e25780633b1d21a2146107085780633d9ea3a11461071057610383565b8063182df0f51161032557806323b872dd116102ff57806323b872dd1461063e5780632608f8181461067457806326782247146106a0578063313ce567146106c457610383565b8063182df0f5146104b45780631a31d465146104bc57806323323e031461061257610383565b8063153ab50511610361578063153ab50514610474578063173b99041461047e57806317bfdfbc1461048657806318160ddd146104ac57610383565b806306fdde0314610388578063095ea7b3146104055780630e75270214610445575b600080fd5b610390610c77565b6040805160208082528351818301528351919283929083019185019080838360005b838110156103ca5781810151838201526020016103b2565b50505050905090810190601f1680156103f75780820380516001836020036101000a031916815260200191505b509250505060405180910390f35b6104316004803603604081101561041b57600080fd5b506001600160a01b038135169060200135610d04565b604080519115158252519081900360200190f35b6104626004803603602081101561045b57600080fd5b5035610d71565b60408051918252519081900360200190f35b61047c610d87565b005b610462611025565b6104626004803603602081101561049c57600080fd5b50356001600160a01b031661102b565b6104626110eb565b6104626110f1565b61047c600480360360e08110156104d257600080fd5b6001600160a01b03823581169260208101358216926040820135909216916060820135919081019060a081016080820135600160201b81111561051457600080fd5b82018360208201111561052657600080fd5b803590602001918460018302840111600160201b8311171561054757600080fd5b91908080601f0160208091040260200160405190810160405280939291908181526020018383808284376000920191909152509295949360208101935035915050600160201b81111561059957600080fd5b8201836020820111156105ab57600080fd5b803590602001918460018302840111600160201b831117156105cc57600080fd5b91908080601f0160208091040260200160405190810160405280939291908181526020018383808284376000920191909152509295505050903560ff1691506111549050565b6104626004803603604081101561062857600080fd5b506001600160a01b0381351690602001356111e8565b6104316004803603606081101561065457600080fd5b506001600160a01b038135811691602081013590911690604001356111fe565b6104626004803603604081101561068a57600080fd5b506001600160a01b038135169060200135611270565b6106a861127d565b604080516001600160a01b039092168252519081900360200190f35b6106cc61128c565b6040805160ff9092168252519081900360200190f35b610462600480360360208110156106f857600080fd5b50356001600160a01b0316611295565b61046261134b565b61043161135a565b6104626004803603602081101561072e57600080fd5b503561135f565b6104626004803603602081101561074b57600080fd5b50356001600160a01b031661136a565b6104626114bf565b61047c6004803603602081101561077957600080fd5b810190602081018135600160201b81111561079357600080fd5b8201836020820111156107a557600080fd5b803590602001918460018302840111600160201b831117156107c657600080fd5b91908080601f0160208091040260200160405190810160405280939291908181526020018383808284376000920191909152509295506114c5945050505050565b6106a8611548565b6106a8611557565b6104626004803603602081101561082d57600080fd5b5035611566565b6106a8611601565b610462611610565b6106a8611616565b6104626004803603602081101561086257600080fd5b50356001600160a01b0316611625565b610462611640565b6104626004803603602081101561089057600080fd5b50356116f6565b6106a8611701565b6106a8611710565b61046261171f565b610390611725565b610462600480360360208110156108cd57600080fd5b50356001600160a01b031661177d565b61047c600480360360208110156108f357600080fd5b50356117da565b61047c600480360360c081101561091057600080fd5b6001600160a01b03823581169260208101359091169160408201359190810190608081016060820135600160201b81111561094a57600080fd5b82018360208201111561095c57600080fd5b803590602001918460018302840111600160201b8311171561097d57600080fd5b91908080601f0160208091040260200160405190810160405280939291908181526020018383808284376000920191909152509295949360208101935035915050600160201b8111156109cf57600080fd5b8201836020820111156109e157600080fd5b803590602001918460018302840111600160201b83111715610a0257600080fd5b91908080601f0160208091040260200160405190810160405280939291908181526020018383808284376000920191909152509295505050903560ff1691506117df9050565b61046260048036036020811015610a5e57600080fd5b50356119c6565b6104626119d2565b61043160048036036040811015610a8357600080fd5b506001600160a01b038135169060200135611a4d565b610462611abe565b610462611ac4565b61047c60048036036020811015610abf57600080fd5b5035611b63565b61046260048036036060811015610adc57600080fd5b506001600160a01b03813581169160208101359091169060400135611b68565b61046260048036036020811015610b1257600080fd5b50356001600160a01b0316611bd9565b610462611c65565b610b5060048036036020811015610b4057600080fd5b50356001600160a01b0316611d21565b604080519485526020850193909352838301919091526060830152519081900360800190f35b61046260048036036020811015610b8c57600080fd5b5035611db6565b61046260048036036020811015610ba957600080fd5b5035611dc1565b61046260048036036040811015610bc657600080fd5b506001600160a01b0381358116916020013516611dcc565b610462611df7565b61046260048036036020811015610bfc57600080fd5b50356001600160a01b0316611eef565b6106a8611f29565b61046260048036036060811015610c2a57600080fd5b506001600160a01b03813581169160208101359160409091013516611f38565b6106a8611f50565b610462611f64565b61046260048036036020811015610c7057600080fd5b5035611fc8565b60018054604080516020600284861615610100026000190190941693909304601f81018490048402820184019092528181529291830182828015610cfc5780601f10610cd157610100808354040283529160200191610cfc565b820191906000526020600020905b815481529060010190602001808311610cdf57829003601f168201915b505050505081565b336000818152600f602090815260408083206001600160a01b03871680855290835281842086905581518681529151939493909284927f8c5be1e5ebec7d5bd14f71427d1e84f3dd0314c0f7b2291e5b200ac8c7c3b925929081900390910190a360019150505b92915050565b600080610d7d83612046565b509150505b919050565b60035461010090046001600160a01b03163314610dd55760405162461bcd60e51b815260040180806020018281038252602d8152602001806160ba602d913960400191505060405180910390fd5b60135460145460155460408051634fb3c66560e11b815290516001600160a01b039485169493841693909216918391639f678cca9160048083019260209291908290030181600087803b158015610e2b57600080fd5b505af1158015610e3f573d6000803e3d6000fd5b505050506040513d6020811015610e5557600080fd5b5050604080516305f5d64360e11b815230600482015290516000916001600160a01b03851691630bebac8691602480820192602092909190829003018186803b158015610ea157600080fd5b505afa158015610eb5573d6000803e3d6000fd5b505050506040513d6020811015610ecb57600080fd5b505160408051637f8661a160e01b81526004810183905290519192506001600160a01b03851691637f8661a19160248082019260009290919082900301818387803b158015610f1957600080fd5b505af1158015610f2d573d6000803e3d6000fd5b505060408051633612d9a360e11b81523060048201529051600093506001600160a01b0386169250636c25b34691602480820192602092909190829003018186803b158015610f7b57600080fd5b505afa158015610f8f573d6000803e3d6000fd5b505050506040513d6020811015610fa557600080fd5b50516040805163ef693bed60e01b81523060048201526b033b2e3c9fd0803ce80000008304602482015290519192506001600160a01b0387169163ef693bed9160448082019260009290919082900301818387803b15801561100657600080fd5b505af115801561101a573d6000803e3d6000fd5b505050505050505050565b60085481565b6000805460ff16611070576040805162461bcd60e51b815260206004820152600a6024820152691c994b595b9d195c995960b21b604482015290519081900360640190fd5b6000805460ff191681556110826119d2565b146110cd576040805162461bcd60e51b81526020600482015260166024820152751858d8dc9d59481a5b9d195c995cdd0819985a5b195960521b604482015290519081900360640190fd5b6110d68261177d565b90505b6000805460ff19166001179055919050565b600d5481565b60008060006110fe6120ef565b9092509050600082600381111561111157fe5b1461114d5760405162461bcd60e51b815260040180806020018281038252603581526020018061624d6035913960400191505060405180910390fd5b9150505b90565b6111628686868686866117df565b601180546001600160a01b0319166001600160a01b038981169190911791829055604080516318160ddd60e01b8152905192909116916318160ddd91600480820192602092909190829003018186803b1580156111be57600080fd5b505afa1580156111d2573d6000803e3d6000fd5b505050506040513d602081101561101a57600080fd5b6000806111f5848461219e565b50949350505050565b6000805460ff16611243576040805162461bcd60e51b815260206004820152600a6024820152691c994b595b9d195c995960b21b604482015290519081900360640190fd5b6000805460ff1916815561125933868686612249565b1490506000805460ff191660011790559392505050565b6000806111f58484612557565b6004546001600160a01b031681565b60035460ff1681565b600061129f615e9f565b60405180602001604052806112b2611c65565b90526001600160a01b0384166000908152600e60205260408120549192509081906112de9084906125d9565b909250905060008260038111156112f157fe5b14611343576040805162461bcd60e51b815260206004820152601f60248201527f62616c616e636520636f756c64206e6f742062652063616c63756c6174656400604482015290519081900360640190fd5b949350505050565b600061135561262d565b905090565b600181565b6000610d6b8261273f565b60035460009061010090046001600160a01b03163314611397576113906001603f6127d3565b9050610d82565b60055460408051623f1ee960e11b815290516001600160a01b0392831692851691627e3dd2916004808301926020929190829003018186803b1580156113dc57600080fd5b505afa1580156113f0573d6000803e3d6000fd5b505050506040513d602081101561140657600080fd5b5051611459576040805162461bcd60e51b815260206004820152601c60248201527f6d61726b6572206d6574686f642072657475726e65642066616c736500000000604482015290519081900360640190fd5b600580546001600160a01b0319166001600160a01b03858116918217909255604080519284168352602083019190915280517f7ac369dbd14fa5ea3f473ed67cc9d598964a77501540ba6751eb0b3decf5870d9281900390910190a160005b9392505050565b600b5481565b60035461010090046001600160a01b031633146115135760405162461bcd60e51b81526004018080602001828103825260308152602001806160386030913960400191505060405180910390fd5b60008082806020019051604081101561152b57600080fd5b50805160209091015190925090506115438282612839565b505050565b6012546001600160a01b031681565b6005546001600160a01b031681565b6000805460ff166115ab576040805162461bcd60e51b815260206004820152600a6024820152691c994b595b9d195c995960b21b604482015290519081900360640190fd5b6000805460ff191681556115bd6119d2565b905080156115e3576115db8160118111156115d457fe5b60306127d3565b9150506110d9565b6115ec83612b54565b9150506000805460ff19166001179055919050565b6014546001600160a01b031681565b60095481565b6011546001600160a01b031681565b6001600160a01b03166000908152600e602052604090205490565b6000805460ff16611685576040805162461bcd60e51b815260206004820152600a6024820152691c994b595b9d195c995960b21b604482015290519081900360640190fd5b6000805460ff191681556116976119d2565b146116e2576040805162461bcd60e51b81526020600482015260166024820152751858d8dc9d59481a5b9d195c995cdd0819985a5b195960521b604482015290519081900360640190fd5b50600b546000805460ff1916600117905590565b6000610d6b82612c48565b6013546001600160a01b031681565b6015546001600160a01b031681565b600c5481565b6002805460408051602060018416156101000260001901909316849004601f81018490048402820184019092528181529291830182828015610cfc5780601f10610cd157610100808354040283529160200191610cfc565b600080600061178b84612cc9565b9092509050600082600381111561179e57fe5b146114b85760405162461bcd60e51b81526004018080602001828103825260378152602001806161126037913960400191505060405180910390fd5b600b55565b60035461010090046001600160a01b0316331461182d5760405162461bcd60e51b8152600401808060200182810382526024815260200180615ff16024913960400191505060405180910390fd5b60095415801561183d5750600a54155b6118785760405162461bcd60e51b81526004018080602001828103825260238152602001806160156023913960400191505060405180910390fd5b6007849055836118b95760405162461bcd60e51b81526004018080602001828103825260308152602001806160686030913960400191505060405180910390fd5b60006118c48761136a565b90508015611919576040805162461bcd60e51b815260206004820152601a60248201527f73657474696e6720636f6d7074726f6c6c6572206661696c6564000000000000604482015290519081900360640190fd5b611921612d7d565b600955670de0b6b3a7640000600a5561193986612df7565b905080156119785760405162461bcd60e51b81526004018080602001828103825260228152602001806160986022913960400191505060405180910390fd5b835161198b906001906020870190615eb2565b50825161199f906002906020860190615eb2565b50506003805460ff90921660ff199283161790556000805490911660011790555050505050565b600080610d7d83612f6c565b60145460408051634fb3c66560e11b815290516000926001600160a01b031691639f678cca91600480830192602092919082900301818787803b158015611a1857600080fd5b505af1158015611a2c573d6000803e3d6000fd5b505050506040513d6020811015611a4257600080fd5b506113559050612fe6565b6000805460ff16611a92576040805162461bcd60e51b815260206004820152600a6024820152691c994b595b9d195c995960b21b604482015290519081900360640190fd5b6000805460ff19168155611aa833338686612249565b1490506000805460ff1916600117905592915050565b600a5481565b6006546000906001600160a01b031663b8168816611ae061262d565b600b54600c546008546040518563ffffffff1660e01b81526004018085815260200184815260200183815260200182815260200194505050505060206040518083038186803b158015611b3257600080fd5b505afa158015611b46573d6000803e3d6000fd5b505050506040513d6020811015611b5c57600080fd5b5051905090565b600c55565b6000805460ff16611bad576040805162461bcd60e51b815260206004820152600a6024820152691c994b595b9d195c995960b21b604482015290519081900360640190fd5b6000805460ff19169055611bc33385858561333e565b90506000805460ff191660011790559392505050565b60035460009061010090046001600160a01b03163314611bff57611390600160456127d3565b600480546001600160a01b038481166001600160a01b0319831681179093556040805191909216808252602082019390935281517fca4f2f25d0898edd99413412fb94012f9e54ec8142f9b093e7720646a95b16a9929181900390910190a160006114b8565b6000805460ff16611caa576040805162461bcd60e51b815260206004820152600a6024820152691c994b595b9d195c995960b21b604482015290519081900360640190fd5b6000805460ff19168155611cbc6119d2565b14611d07576040805162461bcd60e51b81526020600482015260166024820152751858d8dc9d59481a5b9d195c995cdd0819985a5b195960521b604482015290519081900360640190fd5b611d0f6110f1565b90506000805460ff1916600117905590565b6001600160a01b0381166000908152600e6020526040812054819081908190818080611d4c89612cc9565b935090506000816003811115611d5e57fe5b14611d7c5760095b975060009650869550859450611daf9350505050565b611d846120ef565b925090506000816003811115611d9657fe5b14611da2576009611d66565b5060009650919450925090505b9193509193565b6000610d6b826135a4565b6000610d6b82613623565b6001600160a01b039182166000908152600f6020908152604080832093909416825291909152205490565b6004546000906001600160a01b03163314611e1f57611e18600160006127d3565b9050611151565b60038054600480546001600160a01b03818116610100818102610100600160a81b0319871617968790556001600160a01b031990931690935560408051948390048216808652929095041660208401528351909391927ff9ffabca9c8276e99321725bcb43fb076a6c66a54b7f21c4e8146d8519b417dc92908290030190a1600454604080516001600160a01b038085168252909216602083015280517fca4f2f25d0898edd99413412fb94012f9e54ec8142f9b093e7720646a95b16a99281900390910190a160009250505090565b600080611efa6119d2565b90508015611f2057611f18816011811115611f1157fe5b60406127d3565b915050610d82565b6114b883612df7565b6006546001600160a01b031681565b600080611f4685858561369d565b5095945050505050565b60035461010090046001600160a01b031681565b6006546000906001600160a01b03166315f24053611f8061262d565b600b54600c546040518463ffffffff1660e01b815260040180848152602001838152602001828152602001935050505060206040518083038186803b158015611b3257600080fd5b6000805460ff1661200d576040805162461bcd60e51b815260206004820152600a6024820152691c994b595b9d195c995960b21b604482015290519081900360640190fd5b6000805460ff1916815561201f6119d2565b9050801561203d576115db81601181111561203657fe5b60466127d3565b6115ec836137cf565b60008054819060ff1661208d576040805162461bcd60e51b815260206004820152600a6024820152691c994b595b9d195c995960b21b604482015290519081900360640190fd5b6000805460ff1916815561209f6119d2565b905080156120ca576120bd8160118111156120b657fe5b60366127d3565b9250600091506120db9050565b6120d5333386613877565b92509250505b6000805460ff191660011790559092909150565b600d5460009081908061210a5750506007546000915061219a565b600061211461262d565b90506000612120615e9f565b600061213184600b54600c54613c5d565b93509050600081600381111561214357fe5b146121585795506000945061219a9350505050565b6121628386613ca9565b92509050600081600381111561217457fe5b146121895795506000945061219a9350505050565b505160009550935061219a92505050565b9091565b60008054819060ff166121e5576040805162461bcd60e51b815260206004820152600a6024820152691c994b595b9d195c995960b21b604482015290519081900360640190fd5b6000805460ff191681556121f76119d2565b905080156122225761221581601181111561220e57fe5b601e6127d3565b9250600091506122339050565b61222d338686613d59565b92509250505b6000805460ff1916600117905590939092509050565b600554604080516317b9b84b60e31b81523060048201526001600160a01b03868116602483015285811660448301526064820185905291516000938493169163bdcdc25891608480830192602092919082900301818787803b1580156122ae57600080fd5b505af11580156122c2573d6000803e3d6000fd5b505050506040513d60208110156122d857600080fd5b5051905080156122f7576122ef6003604a836141e5565b915050611343565b836001600160a01b0316856001600160a01b0316141561231d576122ef6002604b6127d3565b60006001600160a01b03878116908716141561233c5750600019612364565b506001600160a01b038086166000908152600f60209081526040808320938a16835292905220545b600080600080612374858961424b565b9094509250600084600381111561238757fe5b146123a5576123986009604b6127d3565b9650505050505050611343565b6001600160a01b038a166000908152600e60205260409020546123c8908961424b565b909450915060008460038111156123db57fe5b146123ec576123986009604c6127d3565b6001600160a01b0389166000908152600e602052604090205461240f908961426e565b9094509050600084600381111561242257fe5b14612433576123986009604d6127d3565b6001600160a01b03808b166000908152600e6020526040808220859055918b16815220819055600019851461248b576001600160a01b03808b166000908152600f60209081526040808320938f168352929052208390555b886001600160a01b03168a6001600160a01b03166000805160206161a58339815191528a6040518082815260200191505060405180910390a36005546040805163352b4a3f60e11b81523060048201526001600160a01b038d811660248301528c81166044830152606482018c905291519190921691636a56947e91608480830192600092919082900301818387803b15801561252757600080fd5b505af115801561253b573d6000803e3d6000fd5b5060009250612548915050565b9b9a5050505050505050505050565b60008054819060ff1661259e576040805162461bcd60e51b815260206004820152600a6024820152691c994b595b9d195c995960b21b604482015290519081900360640190fd5b6000805460ff191681556125b06119d2565b905080156125ce576122158160118111156125c757fe5b60356127d3565b61222d338686613877565b60008060006125e6615e9f565b6125f08686614294565b9092509050600082600381111561260357fe5b146126145750915060009050612626565b600061261f826142fc565b9350935050505b9250929050565b601454604080516305f5d64360e11b815230600482015290516000926001600160a01b03169183918391630bebac86916024808301926020929190829003018186803b15801561267c57600080fd5b505afa158015612690573d6000803e3d6000fd5b505050506040513d60208110156126a657600080fd5b50516040805163324abb3160e21b815290519192506b033b2e3c9fd0803ce800000091612730916001600160a01b0386169163c92aecc491600480820192602092909190829003018186803b1580156126fe57600080fd5b505afa158015612712573d6000803e3d6000fd5b505050506040513d602081101561272857600080fd5b50518361430b565b8161273757fe5b049250505090565b6000805460ff16612784576040805162461bcd60e51b815260206004820152600a6024820152691c994b595b9d195c995960b21b604482015290519081900360640190fd5b6000805460ff191681556127966119d2565b905080156127b4576115db8160118111156127ad57fe5b604e6127d3565b6127bd83614366565b509150506000805460ff19166001179055919050565b60007f45b96fe442630264581b197e84bbada861235052c5a1aadfff9ea4e40a969aa083601181111561280257fe5b83605681111561280e57fe5b604080519283526020830191909152600082820152519081900360600190a18260118111156114b857fe5b600082905060008290506000826001600160a01b031663f4b9fa756040518163ffffffff1660e01b8152600401602060405180830381600087803b15801561288057600080fd5b505af1158015612894573d6000803e3d6000fd5b505050506040513d60208110156128aa57600080fd5b5051604080516336569e7760e01b815290519192506000916001600160a01b038616916336569e7791600480830192602092919082900301818787803b1580156128f357600080fd5b505af1158015612907573d6000803e3d6000fd5b505050506040513d602081101561291d57600080fd5b50516011549091506001600160a01b0383811691161461296e5760405162461bcd60e51b81526004018080602001828103825260228152602001806161496022913960400191505060405180910390fd5b601380546001600160a01b038089166001600160a01b0319928316179283905560148054898316908416179055601580548583169316929092179091556040805163095ea7b360e01b815292821660048401526000196024840152519084169163095ea7b391604480830192600092919082900301818387803b1580156129f457600080fd5b505af1158015612a08573d6000803e3d6000fd5b5050601454604080516328ec8bf160e21b81526001600160a01b0392831660048201529051918516935063a3b22fc4925060248082019260009290919082900301818387803b158015612a5a57600080fd5b505af1158015612a6e573d6000803e3d6000fd5b5050601354604080516328ec8bf160e21b81526001600160a01b0392831660048201529051918516935063a3b22fc4925060248082019260009290919082900301818387803b158015612ac057600080fd5b505af1158015612ad4573d6000803e3d6000fd5b50505050826001600160a01b0316639f678cca6040518163ffffffff1660e01b8152600401602060405180830381600087803b158015612b1357600080fd5b505af1158015612b27573d6000803e3d6000fd5b505050506040513d6020811015612b3d57600080fd5b50612b4b905030600061444e565b50505050505050565b600354600090819061010090046001600160a01b03163314612b7c57611f18600160316127d3565b612b84612d7d565b60095414612b9857611f18600a60336127d3565b82612ba161262d565b1015612bb357611f18600e60326127d3565b600c54831115612bc957611f18600260346127d3565b50600c805483900390819055600354612bf09061010090046001600160a01b031684614773565b600354604080516101009092046001600160a01b0316825260208201859052818101839052517f3bad0c59cf2f06e7314077049f48a93578cd16f5ef92329f1dab1420a99c177e916060908290030190a160006114b8565b6000805460ff16612c8d576040805162461bcd60e51b815260206004820152600a6024820152691c994b595b9d195c995960b21b604482015290519081900360640190fd5b6000805460ff19168155612c9f6119d2565b90508015612cbd576115db816011811115612cb657fe5b60276127d3565b6115ec336000856148d8565b6001600160a01b038116600090815260106020526040812080548291829182918291612d00575060009450849350612d7892505050565b612d108160000154600a54615053565b90945092506000846003811115612d2357fe5b14612d38575091935060009250612d78915050565b612d46838260010154615092565b90945091506000846003811115612d5957fe5b14612d6e575091935060009250612d78915050565b5060009450925050505b915091565b600554604080516357e871e760e01b815290516000926001600160a01b03169182916357e871e791600480820192602092909190829003018186803b158015612dc557600080fd5b505afa158015612dd9573d6000803e3d6000fd5b505050506040513d6020811015612def57600080fd5b505191505090565b600354600090819061010090046001600160a01b03163314612e1f57611f18600160426127d3565b612e27612d7d565b60095414612e3b57611f18600a60416127d3565b600660009054906101000a90046001600160a01b03169050826001600160a01b0316632191f92a6040518163ffffffff1660e01b815260040160206040518083038186803b158015612e8c57600080fd5b505afa158015612ea0573d6000803e3d6000fd5b505050506040513d6020811015612eb657600080fd5b5051612f09576040805162461bcd60e51b815260206004820152601c60248201527f6d61726b6572206d6574686f642072657475726e65642066616c736500000000604482015290519081900360640190fd5b600680546001600160a01b0319166001600160a01b03858116918217909255604080519284168352602083019190915280517fedffc32e068c7c95dfd4bdfd5c4d939a084d6b11c4199eac8436ed234d72f9269281900390910190a160006114b8565b60008054819060ff16612fb3576040805162461bcd60e51b815260206004820152600a6024820152691c994b595b9d195c995960b21b604482015290519081900360640190fd5b6000805460ff19168155612fc56119d2565b90508015612fdc576120bd81601181111561220e57fe5b6120d533856150bd565b600080612ff1612d7d565b6009549091508082141561300a57600092505050611151565b600061301461262d565b600b54600c54600a54600654604080516315f2405360e01b815260048101879052602481018690526044810185905290519596509394929391926000926001600160a01b03909216916315f24053916064808301926020929190829003018186803b15801561308257600080fd5b505afa158015613096573d6000803e3d6000fd5b505050506040513d60208110156130ac57600080fd5b5051905065048c2739500081111561310b576040805162461bcd60e51b815260206004820152601c60248201527f626f72726f772072617465206973206162737572646c79206869676800000000604482015290519081900360640190fd5b600080613118898961424b565b9092509050600082600381111561312b57fe5b1461317d576040805162461bcd60e51b815260206004820152601f60248201527f636f756c64206e6f742063616c63756c61746520626c6f636b2064656c746100604482015290519081900360640190fd5b613185615e9f565b6000806000806131a360405180602001604052808a81525087614294565b909750945060008760038111156131b657fe5b146131e8576131d3600960068960038111156131ce57fe5b6141e5565b9e505050505050505050505050505050611151565b6131f2858c6125d9565b9097509350600087600381111561320557fe5b1461321d576131d3600960018960038111156131ce57fe5b613227848c61426e565b9097509250600087600381111561323a57fe5b14613252576131d3600960048960038111156131ce57fe5b61326d6040518060200160405280600854815250858c615504565b9097509150600087600381111561328057fe5b14613298576131d3600960058960038111156131ce57fe5b6132a3858a8b615504565b909750905060008760038111156132b657fe5b146132ce576131d3600960038960038111156131ce57fe5b60098e9055600a819055600b839055600c829055604080518d8152602081018690528082018390526060810185905290517f4dec04e750ca11537cabcd8a9eab06494de08da3735bc8871cd41250e190bc049181900360800190a160009e50505050505050505050505050505090565b6005546040805163d02f735160e01b81523060048201526001600160a01b038781166024830152868116604483015285811660648301526084820185905291516000938493169163d02f73519160a480830192602092919082900301818787803b1580156133ab57600080fd5b505af11580156133bf573d6000803e3d6000fd5b505050506040513d60208110156133d557600080fd5b5051905080156133ec576122ef6003601b836141e5565b846001600160a01b0316846001600160a01b03161415613412576122ef6006601c6127d3565b6001600160a01b0384166000908152600e602052604081205481908190613439908761424b565b9093509150600083600381111561344c57fe5b1461346f576134646009601a8560038111156131ce57fe5b945050505050611343565b6001600160a01b0388166000908152600e6020526040902054613492908761426e565b909350905060008360038111156134a557fe5b146134bd57613464600960198560038111156131ce57fe5b6001600160a01b038088166000818152600e60209081526040808320879055938c168083529184902085905583518a8152935191936000805160206161a5833981519152929081900390910190a360055460408051636d35bf9160e01b81523060048201526001600160a01b038c811660248301528b811660448301528a81166064830152608482018a905291519190921691636d35bf919160a480830192600092919082900301818387803b15801561357657600080fd5b505af115801561358a573d6000803e3d6000fd5b5060009250613597915050565b9998505050505050505050565b6000805460ff166135e9576040805162461bcd60e51b815260206004820152600a6024820152691c994b595b9d195c995960b21b604482015290519081900360640190fd5b6000805460ff191681556135fb6119d2565b90508015613619576115db81601181111561361257fe5b60086127d3565b6115ec3384615551565b6000805460ff16613668576040805162461bcd60e51b815260206004820152600a6024820152691c994b595b9d195c995960b21b604482015290519081900360640190fd5b6000805460ff1916815561367a6119d2565b90508015613691576115db816011811115612cb657fe5b6115ec338460006148d8565b60008054819060ff166136e4576040805162461bcd60e51b815260206004820152600a6024820152691c994b595b9d195c995960b21b604482015290519081900360640190fd5b6000805460ff191681556136f66119d2565b905080156137215761371481601181111561370d57fe5b600f6127d3565b9250600091506137b89050565b836001600160a01b031663a6afed956040518163ffffffff1660e01b8152600401602060405180830381600087803b15801561375c57600080fd5b505af1158015613770573d6000803e3d6000fd5b505050506040513d602081101561378657600080fd5b5051905080156137a65761371481601181111561379f57fe5b60106127d3565b6137b23387878761585f565b92509250505b6000805460ff191660011790559094909350915050565b60035460009061010090046001600160a01b031633146137f557611390600160476127d3565b6137fd612d7d565b6009541461381157611390600a60486127d3565b670de0b6b3a764000082111561382d57611390600260496127d3565b6008805490839055604080518281526020810185905281517faaa68312e2ea9d50e16af5068410ab56e1a1fd06037b1a35664812c30f821460929181900390910190a160006114b8565b60055460408051631200453160e11b81523060048201526001600160a01b0386811660248301528581166044830152606482018590529151600093849384939116916324008a629160848082019260209290919082900301818787803b1580156138e057600080fd5b505af11580156138f4573d6000803e3d6000fd5b505050506040513d602081101561390a57600080fd5b50519050801561392e5761392160036038836141e5565b925060009150613c559050565b613936612d7d565b6009541461394a57613921600a60396127d3565b613952615f30565b6001600160a01b038616600090815260106020526040902060010154606082015261397c86612cc9565b608083018190526020830182600381111561399357fe5b600381111561399e57fe5b90525060009050816020015160038111156139b557fe5b146139df576139d160096037836020015160038111156131ce57fe5b935060009250613c55915050565b6000198514156139f85760808101516040820152613a00565b604081018590525b613a0e87826040015161444e565b60e082018190526080820151613a239161424b565b60a0830181905260208301826003811115613a3a57fe5b6003811115613a4557fe5b9052506000905081602001516003811115613a5c57fe5b14613a985760405162461bcd60e51b815260040180806020018281038252603a81526020018061616b603a913960400191505060405180910390fd5b613aa8600b548260e0015161424b565b60c0830181905260208301826003811115613abf57fe5b6003811115613aca57fe5b9052506000905081602001516003811115613ae157fe5b14613b1d5760405162461bcd60e51b81526004018080602001828103825260318152602001806161c56031913960400191505060405180910390fd5b60a080820180516001600160a01b03808a16600081815260106020908152604091829020948555600a5460019095019490945560c0870151600b81905560e088015195518251948f16855294840192909252828101949094526060820192909252608081019190915290517f1a2a22cb034d26d1854bdc6666a5b91fe25efbbb5dcad3b0355478d6f5c362a1929181900390910190a160055460e0820151606083015160408051631ededc9160e01b81523060048201526001600160a01b038c811660248301528b8116604483015260648201949094526084810192909252519190921691631ededc919160a480830192600092919082900301818387803b158015613c2857600080fd5b505af1158015613c3c573d6000803e3d6000fd5b5060009250613c49915050565b8160e001519350935050505b935093915050565b600080600080613c6d878761426e565b90925090506000826003811115613c8057fe5b14613c915750915060009050613c55565b613c9b818661424b565b935093505050935093915050565b6000613cb3615e9f565b600080613cc886670de0b6b3a7640000615053565b90925090506000826003811115613cdb57fe5b14613cfa57506040805160208101909152600081529092509050612626565b600080613d078388615092565b90925090506000826003811115613d1a57fe5b14613d3c57506040805160208101909152600081529094509250612626915050565b604080516020810190915290815260009890975095505050505050565b6000806001600160a01b038416613dad576040805162461bcd60e51b81526020600482015260136024820152721c9958d95a5d995c881a5cc81a5b9d985b1a59606a1b604482015290519081900360640190fd5b60055460408051634ef4c3e160e01b81523060048201526001600160a01b0387811660248301526044820187905291516000939290921691634ef4c3e19160648082019260209290919082900301818787803b158015613e0c57600080fd5b505af1158015613e20573d6000803e3d6000fd5b505050506040513d6020811015613e3657600080fd5b505190508015613e4d576139216003601f836141e5565b613e55612d7d565b60095414613e6957613921600a60226127d3565b613e71615f76565b613e796120ef565b6020830181905282826003811115613e8d57fe5b6003811115613e9857fe5b9052506000905081516003811115613eac57fe5b14613ec8576139d160096021836000015160038111156131ce57fe5b613ed2878661444e565b60a08201819052604080516020808201909252908301518152613ef59190615de2565b6040830181905282826003811115613f0957fe5b6003811115613f1457fe5b9052506000905081516003811115613f2857fe5b14613f7a576040805162461bcd60e51b815260206004820181905260248201527f4d494e545f45584348414e47455f43414c43554c4154494f4e5f4641494c4544604482015290519081900360640190fd5b613f8a600d54826040015161426e565b6060830181905282826003811115613f9e57fe5b6003811115613fa957fe5b9052506000905081516003811115613fbd57fe5b14613ff95760405162461bcd60e51b81526004018080602001828103825260288152602001806162826028913960400191505060405180910390fd5b6001600160a01b0386166000908152600e6020526040908190205490820151614022919061426e565b608083018190528282600381111561403657fe5b600381111561404157fe5b905250600090508151600381111561405557fe5b146140915760405162461bcd60e51b815260040180806020018281038252602b8152602001806160e7602b913960400191505060405180910390fd5b606080820151600d556080808301516001600160a01b03808a166000818152600e60209081526040918290209490945560a0870151818801518251948f16855294840192909252828101919091529381019190915291517f297989b84a5f5b82d2ee0c266504c19bd9b10b410f187dc72ca4b0f0faecb3459281900390910190a1604080820151815190815290516001600160a01b0388169130916000805160206161a58339815191529181900360200190a360055460a082015160408084015181516341c728b960e01b81523060048201526001600160a01b038b8116602483015260448201949094526064810191909152905191909216916341c728b991608480830192600092919082900301818387803b1580156141b157600080fd5b505af11580156141c5573d6000803e3d6000fd5b50600092506141d2915050565b8160a00151935093505050935093915050565b60007f45b96fe442630264581b197e84bbada861235052c5a1aadfff9ea4e40a969aa084601181111561421457fe5b84605681111561422057fe5b604080519283526020830191909152818101859052519081900360600190a183601181111561134357fe5b600080838311614262575060009050818303612626565b50600390506000612626565b60008083830184811061428657600092509050612626565b506002915060009050612626565b600061429e615e9f565b6000806142af866000015186615053565b909250905060008260038111156142c257fe5b146142e157506040805160208101909152600081529092509050612626565b60408051602081019091529081526000969095509350505050565b51670de0b6b3a7640000900490565b60008115806143265750508082028282828161432357fe5b04145b610d6b576040805162461bcd60e51b815260206004820152600c60248201526b6d756c2d6f766572666c6f7760a01b604482015290519081900360640190fd5b600080600080614374612d7d565b6009541461439357614388600a604f6127d3565b93509150612d789050565b61439d338661444e565b905080600c54019150600c548210156143fd576040805162461bcd60e51b815260206004820181905260248201527f61646420726573657276657320756e6578706563746564206f766572666c6f77604482015290519081900360640190fd5b600c829055604080513381526020810183905280820184905290517fa91e67c5ea634cd43a12c5a482724b03de01e85ca68702a53d0c2f45cb7c1dc59181900360600190a160009350915050915091565b601154604080516323b872dd60e01b81526001600160a01b038581166004830152306024830152604482018590529151600093929092169182916323b872dd91606480830192602092919082900301818887803b1580156144ae57600080fd5b505af11580156144c2573d6000803e3d6000fd5b505050506040513d60208110156144d857600080fd5b50516145155760405162461bcd60e51b81526004018080602001828103825260248152602001806162296024913960400191505060405180910390fd5b601354601154601454601554604080516370a0823160e01b8152306004820181905291516001600160a01b03968716969586169594851694909316928692633b4da69f92909187916370a08231916024808301926020929190829003018186803b15801561458257600080fd5b505afa158015614596573d6000803e3d6000fd5b505050506040513d60208110156145ac57600080fd5b5051604080516001600160e01b031960e086901b1681526001600160a01b039093166004840152602483019190915251604480830192600092919082900301818387803b1580156145fc57600080fd5b505af1158015614610573d6000803e3d6000fd5b505060408051633612d9a360e11b81523060048201529051600093506001600160a01b0385169250636c25b34691602480820192602092909190829003018186803b15801561465e57600080fd5b505afa158015614672573d6000803e3d6000fd5b505050506040513d602081101561468857600080fd5b50516040805163324abb3160e21b815290519192506000916001600160a01b0386169163c92aecc4916004808301926020929190829003018186803b1580156146d057600080fd5b505afa1580156146e4573d6000803e3d6000fd5b505050506040513d60208110156146fa57600080fd5b5051828161470457fe5b049050836001600160a01b031663049878f3826040518263ffffffff1660e01b815260040180828152602001915050600060405180830381600087803b15801561474d57600080fd5b505af1158015614761573d6000803e3d6000fd5b509a9c9b505050505050505050505050565b6013546014546040805163324abb3160e21b815290516001600160a01b03938416939092169160009161481891849163c92aecc4916004808301926020929190829003018186803b1580156147c757600080fd5b505afa1580156147db573d6000803e3d6000fd5b505050506040513d60208110156147f157600080fd5b5051614809866b033b2e3c9fd0803ce800000061430b565b8161481057fe5b046001615df9565b9050816001600160a01b0316637f8661a1826040518263ffffffff1660e01b815260040180828152602001915050600060405180830381600087803b15801561486057600080fd5b505af1158015614874573d6000803e3d6000fd5b50505050826001600160a01b031663ef693bed86866040518363ffffffff1660e01b815260040180836001600160a01b03166001600160a01b0316815260200182815260200192505050600060405180830381600087803b15801561100657600080fd5b60008215806148e5575081155b6149205760405162461bcd60e51b81526004018080602001828103825260348152602001806162aa6034913960400191505060405180910390fd5b614928615f76565b6149306120ef565b602083018190528282600381111561494457fe5b600381111561494f57fe5b905250600090508151600381111561496357fe5b146149875761497f6009602b836000015160038111156131ce57fe5b9150506114b8565b8315614a03576040808201859052805160208082019092529082015181526149af90856125d9565b60608301819052828260038111156149c357fe5b60038111156149ce57fe5b90525060009050815160038111156149e257fe5b146149fe5761497f60096029836000015160038111156131ce57fe5b614a76565b614a1f8360405180602001604052808460200151815250615de2565b6040830181905282826003811115614a3357fe5b6003811115614a3e57fe5b9052506000905081516003811115614a5257fe5b14614a6e5761497f6009602a836000015160038111156131ce57fe5b606081018390525b600554604080830151815163eabe7d9160e01b81523060048201526001600160a01b03898116602483015260448201929092529151600093919091169163eabe7d9191606480830192602092919082900301818787803b158015614ad957600080fd5b505af1158015614aed573d6000803e3d6000fd5b505050506040513d6020811015614b0357600080fd5b505190508015614b2357614b1a60036028836141e5565b925050506114b8565b614b2b612d7d565b60095414614b3f57614b1a600a602c6127d3565b614b4f600d54836040015161424b565b6080840181905283826003811115614b6357fe5b6003811115614b6e57fe5b9052506000905082516003811115614b8257fe5b14614b9e57614b1a6009602e846000015160038111156131ce57fe5b6001600160a01b0386166000908152600e6020526040908190205490830151614bc7919061424b565b60a0840181905283826003811115614bdb57fe5b6003811115614be657fe5b9052506000905082516003811115614bfa57fe5b14614c1657614b1a6009602d846000015160038111156131ce57fe5b8160600151614c2361262d565b1015614c3557614b1a600e602f6127d3565b600080600560009054906101000a90046001600160a01b03166001600160a01b03166304ef9d586040518163ffffffff1660e01b815260040160206040518083038186803b158015614c8657600080fd5b505afa158015614c9a573d6000803e3d6000fd5b505050506040513d6020811015614cb057600080fd5b505115614f0a57606084015160055460408051629df3ab60e31b81529051614d3393926001600160a01b0316916304ef9d58916004808301926020929190829003018186803b158015614d0257600080fd5b505afa158015614d16573d6000803e3d6000fd5b505050506040513d6020811015614d2c57600080fd5b5051615053565b92508285826003811115614d4357fe5b6003811115614d4e57fe5b9052506000905084516003811115614d6257fe5b14614d8957614d7e60096056866000015160038111156131ce57fe5b9450505050506114b8565b614d9b82670de0b6b3a7640000615092565b92508285826003811115614dab57fe5b6003811115614db657fe5b9052506000905084516003811115614dca57fe5b14614de657614d7e60096056866000015160038111156131ce57fe5b614df484606001518361424b565b91508185826003811115614e0457fe5b6003811115614e0f57fe5b9052506000905084516003811115614e2357fe5b14614e3f57614d7e60096056866000015160038111156131ce57fe5b6005546040805163c5f956af60e01b81529051614eb7926001600160a01b03169163c5f956af916004808301926020929190829003018186803b158015614e8557600080fd5b505afa158015614e99573d6000803e3d6000fd5b505050506040513d6020811015614eaf57600080fd5b505183614773565b60408085015181516001600160a01b038b168152602081018590528083019190915290517fccf8e53b86a99b7e9ecf796342c165764d66154780f638c08e6241d711fba6d49181900360600190a1614f11565b5060608301515b614f1b8882614773565b6080840151600d5560a08401516001600160a01b0389166000818152600e602090815260409182902093909355808701518151908152905130936000805160206161a5833981519152928290030190a360408085015181516001600160a01b038b168152602081018490528083019190915290517fe5b754fb1abb7f01b499791d0b820ae3b6af3424ac1c59768edb53f4ec31a9299181900360600190a1600554606085015160408087015181516351dff98960e01b81523060048201526001600160a01b038d8116602483015260448201949094526064810191909152905191909216916351dff98991608480830192600092919082900301818387803b15801561502657600080fd5b505af115801561503a573d6000803e3d6000fd5b5060009250615047915050565b98975050505050505050565b6000808361506657506000905080612626565b8383028385828161507357fe5b041461508757506002915060009050612626565b600092509050612626565b600080826150a65750600190506000612626565b60008385816150b157fe5b04915091509250929050565b60055460408051634ef4c3e160e01b81523060048201526001600160a01b03858116602483015260448201859052915160009384938493911691634ef4c3e19160648082019260209290919082900301818787803b15801561511e57600080fd5b505af1158015615132573d6000803e3d6000fd5b505050506040513d602081101561514857600080fd5b50519050801561516c5761515f6003601f836141e5565b9250600091506126269050565b615174612d7d565b600954146151885761515f600a60226127d3565b615190615f76565b6151986120ef565b60208301819052828260038111156151ac57fe5b60038111156151b757fe5b90525060009050815160038111156151cb57fe5b146151f5576151e760096021836000015160038111156131ce57fe5b935060009250612626915050565b6151ff868661444e565b60a082018190526040805160208082019092529083015181526152229190615de2565b604083018190528282600381111561523657fe5b600381111561524157fe5b905250600090508151600381111561525557fe5b146152a7576040805162461bcd60e51b815260206004820181905260248201527f4d494e545f45584348414e47455f43414c43554c4154494f4e5f4641494c4544604482015290519081900360640190fd5b6152b7600d54826040015161426e565b60608301819052828260038111156152cb57fe5b60038111156152d657fe5b90525060009050815160038111156152ea57fe5b146153265760405162461bcd60e51b81526004018080602001828103825260288152602001806162826028913960400191505060405180910390fd5b6001600160a01b0386166000908152600e602052604090819020549082015161534f919061426e565b608083018190528282600381111561536357fe5b600381111561536e57fe5b905250600090508151600381111561538257fe5b146153be5760405162461bcd60e51b815260040180806020018281038252602b8152602001806160e7602b913960400191505060405180910390fd5b606080820151600d5560808201516001600160a01b0388166000818152600e60209081526040918290209390935560a0850151818601518251938452938301528181019290925290517f4c209b5fc8ad50758f13e2e1088ba56a560dff690a1c6fef26394f4c03821c4f929181900390910190a1604080820151815190815290516001600160a01b0388169130916000805160206161a58339815191529181900360200190a360055460a082015160408084015181516341c728b960e01b81523060048201526001600160a01b038b8116602483015260448201949094526064810191909152905191909216916341c728b991608480830192600092919082900301818387803b1580156154d157600080fd5b505af11580156154e5573d6000803e3d6000fd5b50600092506154f2915050565b8160a001519350935050509250929050565b6000806000615511615e9f565b61551b8787614294565b9092509050600082600381111561552e57fe5b1461553f5750915060009050613c55565b613c9b61554b826142fc565b8661426e565b6005546040805163368f515360e21b81523060048201526001600160a01b0385811660248301526044820185905291516000938493169163da3d454c91606480830192602092919082900301818787803b1580156155ae57600080fd5b505af11580156155c2573d6000803e3d6000fd5b505050506040513d60208110156155d857600080fd5b5051905080156155f7576155ef6003600e836141e5565b915050610d6b565b6155ff612d7d565b60095414615612576155ef600a806127d3565b8261561b61262d565b101561562d576155ef600e60096127d3565b615635615fad565b61563e85612cc9565b602083018190528282600381111561565257fe5b600381111561565d57fe5b905250600090508151600381111561567157fe5b146156965761568d60096007836000015160038111156131ce57fe5b92505050610d6b565b6156a481602001518561426e565b60408301819052828260038111156156b857fe5b60038111156156c357fe5b90525060009050815160038111156156d757fe5b146156f35761568d6009600c836000015160038111156131ce57fe5b6156ff600b548561426e565b606083018190528282600381111561571357fe5b600381111561571e57fe5b905250600090508151600381111561573257fe5b1461574e5761568d6009600b836000015160038111156131ce57fe5b6157588585614773565b604080820180516001600160a01b03881660008181526010602090815290859020928355600a54600190930192909255606080860151600b81905593518551928352928201899052818501929092529081019190915290517f13ed6866d4e1ee6da46f845c46d7e54120883d75c5ea9a2dacc1c4ca8984ab809181900360800190a160055460408051635c77860560e01b81523060048201526001600160a01b0388811660248301526044820188905291519190921691635c77860591606480830192600092919082900301818387803b15801561583557600080fd5b505af1158015615849573d6000803e3d6000fd5b5060009250615856915050565b95945050505050565b60055460408051632fe3f38f60e11b81523060048201526001600160a01b0384811660248301528781166044830152868116606483015260848201869052915160009384938493911691635fc7e71e9160a48082019260209290919082900301818787803b1580156158d057600080fd5b505af11580156158e4573d6000803e3d6000fd5b505050506040513d60208110156158fa57600080fd5b50519050801561591e5761591160036012836141e5565b925060009150615dd99050565b615926612d7d565b6009541461593a57615911600a60166127d3565b615942612d7d565b846001600160a01b0316636c540baf6040518163ffffffff1660e01b815260040160206040518083038186803b15801561597b57600080fd5b505afa15801561598f573d6000803e3d6000fd5b505050506040513d60208110156159a557600080fd5b5051146159b857615911600a60116127d3565b866001600160a01b0316866001600160a01b031614156159de57615911600660176127d3565b846159ef57615911600760156127d3565b600019851415615a0557615911600760146127d3565b600080615a13898989613877565b90925090508115615a4357615a34826011811115615a2d57fe5b60186127d3565b945060009350615dd992505050565b6005546040805163c488847b60e01b81523060048201526001600160a01b038981166024830152604482018590528251600094859492169263c488847b926064808301939192829003018186803b158015615a9d57600080fd5b505afa158015615ab1573d6000803e3d6000fd5b505050506040513d6040811015615ac757600080fd5b50805160209091015190925090508115615b125760405162461bcd60e51b81526004018080602001828103825260338152602001806161f66033913960400191505060405180910390fd5b80886001600160a01b03166370a082318c6040518263ffffffff1660e01b815260040180826001600160a01b03166001600160a01b0316815260200191505060206040518083038186803b158015615b6957600080fd5b505afa158015615b7d573d6000803e3d6000fd5b505050506040513d6020811015615b9357600080fd5b50511015615be8576040805162461bcd60e51b815260206004820152601860248201527f4c49515549444154455f5345495a455f544f4f5f4d5543480000000000000000604482015290519081900360640190fd5b60006001600160a01b038916301415615c0e57615c07308d8d8561333e565b9050615c98565b6040805163b2a02ff160e01b81526001600160a01b038e811660048301528d81166024830152604482018590529151918b169163b2a02ff1916064808201926020929091908290030181600087803b158015615c6957600080fd5b505af1158015615c7d573d6000803e3d6000fd5b505050506040513d6020811015615c9357600080fd5b505190505b8015615ce2576040805162461bcd60e51b81526020600482015260146024820152731d1bdad95b881cd95a5e9d5c994819985a5b195960621b604482015290519081900360640190fd5b604080516001600160a01b03808f168252808e1660208301528183018790528b1660608201526080810184905290517f298637f684da70674f26509b10f07ec2fbc77a335ab1e7d6215a4b2484d8bb529181900360a00190a1600554604080516347ef3b3b60e01b81523060048201526001600160a01b038c811660248301528f811660448301528e811660648301526084820188905260a48201869052915191909216916347ef3b3b9160c480830192600092919082900301818387803b158015615dad57600080fd5b505af1158015615dc1573d6000803e3d6000fd5b5060009250615dce915050565b975092955050505050505b94509492505050565b6000806000615def615e9f565b6125f08686615e40565b80820182811015610d6b576040805162461bcd60e51b815260206004820152600c60248201526b6164642d6f766572666c6f7760a01b604482015290519081900360640190fd5b6000615e4a615e9f565b600080615e5f670de0b6b3a764000087615053565b90925090506000826003811115615e7257fe5b14615e9157506040805160208101909152600081529092509050612626565b61261f818660000151613ca9565b6040518060200160405280600081525090565b828054600181600116156101000203166002900490600052602060002090601f016020900481019282601f10615ef357805160ff1916838001178555615f20565b82800160010185558215615f20579182015b82811115615f20578251825591602001919060010190615f05565b50615f2c929150615fd6565b5090565b6040805161010081019091528060008152602001600081526020016000815260200160008152602001600081526020016000815260200160008152602001600081525090565b6040805160c08101909152806000815260200160008152602001600081526020016000815260200160008152602001600081525090565b604080516080810190915280600081526020016000815260200160008152602001600081525090565b61115191905b80821115615f2c5760008155600101615fdc56fe6f6e6c792061646d696e206d617920696e697469616c697a6520746865206d61726b65746d61726b6574206d6179206f6e6c7920626520696e697469616c697a6564206f6e63656f6e6c79207468652061646d696e206d617920696e697469616c697a652074686520696d706c656d656e746174696f6e696e697469616c2065786368616e67652072617465206d7573742062652067726561746572207468616e207a65726f2e73657474696e6720696e7465726573742072617465206d6f64656c206661696c65646f6e6c79207468652061646d696e206d6179206162616e646f6e2074686520696d706c656d656e746174696f6e4d494e545f4e45575f4143434f554e545f42414c414e43455f43414c43554c4154494f4e5f4641494c4544626f72726f7742616c616e636553746f7265643a20626f72726f7742616c616e636553746f726564496e7465726e616c206661696c6564444149206d757374206265207468652073616d6520617320756e6465726c79696e6752455041595f424f52524f575f4e45575f4143434f554e545f424f52524f575f42414c414e43455f43414c43554c4154494f4e5f4641494c4544ddf252ad1be2c89b69c2b068fc378daa952ba7f163c4a11628f55a4df523b3ef52455041595f424f52524f575f4e45575f544f54414c5f42414c414e43455f43414c43554c4154494f4e5f4641494c45444c49515549444154455f434f4d5054524f4c4c45525f43414c43554c4154455f414d4f554e545f5345495a455f4641494c4544756e6578706563746564204549502d3230207472616e7366657220696e2072657475726e65786368616e67655261746553746f7265643a2065786368616e67655261746553746f726564496e7465726e616c206661696c65644d494e545f4e45575f544f54414c5f535550504c595f43414c43554c4154494f4e5f4641494c45446f6e65206f662072656465656d546f6b656e73496e206f722072656465656d416d6f756e74496e206d757374206265207a65726fa265627a7a72315820dc6d3a22c997742684b4aa98e933ab2299617a9c676d1374f12e14555e8e3b8164736f6c63430005100032",
  "linkReferences": {},
  "deployedLinkReferences": {}
}