{
  "_format": "hh-sol-artifact-1",
  "contractName": "VDaiDelegateHarness",
  "sourceName": "contracts/test/VBep20Harness.sol",
  "abi": [
    {
      "anonymous": false,
      "inputs": [
        {
          "indexed": false,
          "internalType": "uint256",
          "name": "cashPrior",
          "type": "uint256"
        },
        {
          "indexed": false,
          "internalType": "uint256",
          "name": "interestAccumulated",
          "type": "uint256"
        },
        {
          "indexed": false,
          "internalType": "uint256",
          "name": "borrowIndex",
          "type": "uint256"
        },
        {
          "indexed": false,
          "internalType": "uint256",
          "name": "totalBorrows",
          "type": "uint256"
        }
      ],
      "name": "AccrueInterest",
      "type": "event"
    },
    {
      "anonymous": false,
      "inputs": [
        {
          "indexed": true,
          "internalType": "address",
          "name": "owner",
          "type": "address"
        },
        {
          "indexed": true,
          "internalType": "address",
          "name": "spender",
          "type": "address"
        },
        {
          "indexed": false,
          "internalType": "uint256",
          "name": "amount",
          "type": "uint256"
        }
      ],
      "name": "Approval",
      "type": "event"
    },
    {
      "anonymous": false,
      "inputs": [
        {
          "indexed": false,
          "internalType": "address",
          "name": "borrower",
          "type": "address"
        },
        {
          "indexed": false,
          "internalType": "uint256",
          "name": "borrowAmount",
          "type": "uint256"
        },
        {
          "indexed": false,
          "internalType": "uint256",
          "name": "accountBorrows",
          "type": "uint256"
        },
        {
          "indexed": false,
          "internalType": "uint256",
          "name": "totalBorrows",
          "type": "uint256"
        }
      ],
      "name": "Borrow",
      "type": "event"
    },
    {
      "anonymous": false,
      "inputs": [
        {
          "indexed": false,
          "internalType": "uint256",
          "name": "error",
          "type": "uint256"
        },
        {
          "indexed": false,
          "internalType": "uint256",
          "name": "info",
          "type": "uint256"
        },
        {
          "indexed": false,
          "internalType": "uint256",
          "name": "detail",
          "type": "uint256"
        }
      ],
      "name": "Failure",
      "type": "event"
    },
    {
      "anonymous": false,
      "inputs": [
        {
          "indexed": false,
          "internalType": "address",
          "name": "liquidator",
          "type": "address"
        },
        {
          "indexed": false,
          "internalType": "address",
          "name": "borrower",
          "type": "address"
        },
        {
          "indexed": false,
          "internalType": "uint256",
          "name": "repayAmount",
          "type": "uint256"
        },
        {
          "indexed": false,
          "internalType": "address",
          "name": "vTokenCollateral",
          "type": "address"
        },
        {
          "indexed": false,
          "internalType": "uint256",
          "name": "seizeTokens",
          "type": "uint256"
        }
      ],
      "name": "LiquidateBorrow",
      "type": "event"
    },
    {
      "anonymous": false,
      "inputs": [
        {
          "indexed": false,
          "internalType": "address",
          "name": "minter",
          "type": "address"
        },
        {
          "indexed": false,
          "internalType": "uint256",
          "name": "mintAmount",
          "type": "uint256"
        },
        {
          "indexed": false,
          "internalType": "uint256",
          "name": "mintTokens",
          "type": "uint256"
        }
      ],
      "name": "Mint",
      "type": "event"
    },
    {
      "anonymous": false,
      "inputs": [
        {
          "indexed": false,
          "internalType": "address",
          "name": "payer",
          "type": "address"
        },
        {
          "indexed": false,
          "internalType": "address",
          "name": "receiver",
          "type": "address"
        },
        {
          "indexed": false,
          "internalType": "uint256",
          "name": "mintAmount",
          "type": "uint256"
        },
        {
          "indexed": false,
          "internalType": "uint256",
          "name": "mintTokens",
          "type": "uint256"
        }
      ],
      "name": "MintBehalf",
      "type": "event"
    },
    {
      "anonymous": false,
      "inputs": [
        {
          "indexed": false,
          "internalType": "address",
          "name": "oldAdmin",
          "type": "address"
        },
        {
          "indexed": false,
          "internalType": "address",
          "name": "newAdmin",
          "type": "address"
        }
      ],
      "name": "NewAdmin",
      "type": "event"
    },
    {
      "anonymous": false,
      "inputs": [
        {
          "indexed": false,
          "internalType": "contract ComptrollerInterface",
          "name": "oldComptroller",
          "type": "address"
        },
        {
          "indexed": false,
          "internalType": "contract ComptrollerInterface",
          "name": "newComptroller",
          "type": "address"
        }
      ],
      "name": "NewComptroller",
      "type": "event"
    },
    {
      "anonymous": false,
      "inputs": [
        {
          "indexed": false,
          "internalType": "contract InterestRateModel",
          "name": "oldInterestRateModel",
          "type": "address"
        },
        {
          "indexed": false,
          "internalType": "contract InterestRateModel",
          "name": "newInterestRateModel",
          "type": "address"
        }
      ],
      "name": "NewMarketInterestRateModel",
      "type": "event"
    },
    {
      "anonymous": false,
      "inputs": [
        {
          "indexed": false,
          "internalType": "address",
          "name": "oldPendingAdmin",
          "type": "address"
        },
        {
          "indexed": false,
          "internalType": "address",
          "name": "newPendingAdmin",
          "type": "address"
        }
      ],
      "name": "NewPendingAdmin",
      "type": "event"
    },
    {
      "anonymous": false,
      "inputs": [
        {
          "indexed": false,
          "internalType": "uint256",
          "name": "oldReserveFactorMantissa",
          "type": "uint256"
        },
        {
          "indexed": false,
          "internalType": "uint256",
          "name": "newReserveFactorMantissa",
          "type": "uint256"
        }
      ],
      "name": "NewReserveFactor",
      "type": "event"
    },
    {
      "anonymous": false,
      "inputs": [
        {
          "indexed": false,
          "internalType": "address",
          "name": "redeemer",
          "type": "address"
        },
        {
          "indexed": false,
          "internalType": "uint256",
          "name": "redeemAmount",
          "type": "uint256"
        },
        {
          "indexed": false,
          "internalType": "uint256",
          "name": "redeemTokens",
          "type": "uint256"
        }
      ],
      "name": "Redeem",
      "type": "event"
    },
    {
      "anonymous": false,
      "inputs": [
        {
          "indexed": false,
          "internalType": "address",
          "name": "redeemer",
          "type": "address"
        },
        {
          "indexed": false,
          "internalType": "uint256",
          "name": "feeAmount",
          "type": "uint256"
        },
        {
          "indexed": false,
          "internalType": "uint256",
          "name": "redeemTokens",
          "type": "uint256"
        }
      ],
      "name": "RedeemFee",
      "type": "event"
    },
    {
      "anonymous": false,
      "inputs": [
        {
          "indexed": false,
          "internalType": "address",
          "name": "payer",
          "type": "address"
        },
        {
          "indexed": false,
          "internalType": "address",
          "name": "borrower",
          "type": "address"
        },
        {
          "indexed": false,
          "internalType": "uint256",
          "name": "repayAmount",
          "type": "uint256"
        },
        {
          "indexed": false,
          "internalType": "uint256",
          "name": "accountBorrows",
          "type": "uint256"
        },
        {
          "indexed": false,
          "internalType": "uint256",
          "name": "totalBorrows",
          "type": "uint256"
        }
      ],
      "name": "RepayBorrow",
      "type": "event"
    },
    {
      "anonymous": false,
      "inputs": [
        {
          "indexed": false,
          "internalType": "address",
          "name": "benefactor",
          "type": "address"
        },
        {
          "indexed": false,
          "internalType": "uint256",
          "name": "addAmount",
          "type": "uint256"
        },
        {
          "indexed": false,
          "internalType": "uint256",
          "name": "newTotalReserves",
          "type": "uint256"
        }
      ],
      "name": "ReservesAdded",
      "type": "event"
    },
    {
      "anonymous": false,
      "inputs": [
        {
          "indexed": false,
          "internalType": "address",
          "name": "admin",
          "type": "address"
        },
        {
          "indexed": false,
          "internalType": "uint256",
          "name": "reduceAmount",
          "type": "uint256"
        },
        {
          "indexed": false,
          "internalType": "uint256",
          "name": "newTotalReserves",
          "type": "uint256"
        }
      ],
      "name": "ReservesReduced",
      "type": "event"
    },
    {
      "anonymous": false,
      "inputs": [
        {
          "indexed": true,
          "internalType": "address",
          "name": "from",
          "type": "address"
        },
        {
          "indexed": true,
          "internalType": "address",
          "name": "to",
          "type": "address"
        },
        {
          "indexed": false,
          "internalType": "uint256",
          "name": "amount",
          "type": "uint256"
        }
      ],
      "name": "Transfer",
      "type": "event"
    },
    {
      "constant": false,
      "inputs": [],
      "name": "_acceptAdmin",
      "outputs": [
        {
          "internalType": "uint256",
          "name": "",
          "type": "uint256"
        }
      ],
      "payable": false,
      "stateMutability": "nonpayable",
      "type": "function"
    },
    {
      "constant": false,
      "inputs": [
        {
          "internalType": "uint256",
          "name": "addAmount",
          "type": "uint256"
        }
      ],
      "name": "_addReserves",
      "outputs": [
        {
          "internalType": "uint256",
          "name": "",
          "type": "uint256"
        }
      ],
      "payable": false,
      "stateMutability": "nonpayable",
      "type": "function"
    },
    {
      "constant": false,
      "inputs": [
        {
          "internalType": "bytes",
          "name": "data",
          "type": "bytes"
        }
      ],
      "name": "_becomeImplementation",
      "outputs": [],
      "payable": false,
      "stateMutability": "nonpayable",
      "type": "function"
    },
    {
      "constant": false,
      "inputs": [
        {
          "internalType": "uint256",
          "name": "reduceAmount",
          "type": "uint256"
        }
      ],
      "name": "_reduceReserves",
      "outputs": [
        {
          "internalType": "uint256",
          "name": "",
          "type": "uint256"
        }
      ],
      "payable": false,
      "stateMutability": "nonpayable",
      "type": "function"
    },
    {
      "constant": false,
      "inputs": [],
      "name": "_resignImplementation",
      "outputs": [],
      "payable": false,
      "stateMutability": "nonpayable",
      "type": "function"
    },
    {
      "constant": false,
      "inputs": [
        {
          "internalType": "contract ComptrollerInterface",
          "name": "newComptroller",
          "type": "address"
        }
      ],
      "name": "_setComptroller",
      "outputs": [
        {
          "internalType": "uint256",
          "name": "",
          "type": "uint256"
        }
      ],
      "payable": false,
      "stateMutability": "nonpayable",
      "type": "function"
    },
    {
      "constant": false,
      "inputs": [
        {
          "internalType": "contract InterestRateModel",
          "name": "newInterestRateModel",
          "type": "address"
        }
      ],
      "name": "_setInterestRateModel",
      "outputs": [
        {
          "internalType": "uint256",
          "name": "",
          "type": "uint256"
        }
      ],
      "payable": false,
      "stateMutability": "nonpayable",
      "type": "function"
    },
    {
      "constant": false,
      "inputs": [
        {
          "internalType": "address payable",
          "name": "newPendingAdmin",
          "type": "address"
        }
      ],
      "name": "_setPendingAdmin",
      "outputs": [
        {
          "internalType": "uint256",
          "name": "",
          "type": "uint256"
        }
      ],
      "payable": false,
      "stateMutability": "nonpayable",
      "type": "function"
    },
    {
      "constant": false,
      "inputs": [
        {
          "internalType": "uint256",
          "name": "newReserveFactorMantissa",
          "type": "uint256"
        }
      ],
      "name": "_setReserveFactor",
      "outputs": [
        {
          "internalType": "uint256",
          "name": "",
          "type": "uint256"
        }
      ],
      "payable": false,
      "stateMutability": "nonpayable",
      "type": "function"
    },
    {
      "constant": true,
      "inputs": [],
      "name": "accrualBlockNumber",
      "outputs": [
        {
          "internalType": "uint256",
          "name": "",
          "type": "uint256"
        }
      ],
      "payable": false,
      "stateMutability": "view",
      "type": "function"
    },
    {
      "constant": false,
      "inputs": [],
      "name": "accrueInterest",
      "outputs": [
        {
          "internalType": "uint256",
          "name": "",
          "type": "uint256"
        }
      ],
      "payable": false,
      "stateMutability": "nonpayable",
      "type": "function"
    },
    {
      "constant": true,
      "inputs": [],
      "name": "admin",
      "outputs": [
        {
          "internalType": "address payable",
          "name": "",
          "type": "address"
        }
      ],
      "payable": false,
      "stateMutability": "view",
      "type": "function"
    },
    {
      "constant": true,
      "inputs": [
        {
          "internalType": "address",
          "name": "owner",
          "type": "address"
        },
        {
          "internalType": "address",
          "name": "spender",
          "type": "address"
        }
      ],
      "name": "allowance",
      "outputs": [
        {
          "internalType": "uint256",
          "name": "",
          "type": "uint256"
        }
      ],
      "payable": false,
      "stateMutability": "view",
      "type": "function"
    },
    {
      "constant": false,
      "inputs": [
        {
          "internalType": "address",
          "name": "spender",
          "type": "address"
        },
        {
          "internalType": "uint256",
          "name": "amount",
          "type": "uint256"
        }
      ],
      "name": "approve",
      "outputs": [
        {
          "internalType": "bool",
          "name": "",
          "type": "bool"
        }
      ],
      "payable": false,
      "stateMutability": "nonpayable",
      "type": "function"
    },
    {
      "constant": true,
      "inputs": [
        {
          "internalType": "address",
          "name": "owner",
          "type": "address"
        }
      ],
      "name": "balanceOf",
      "outputs": [
        {
          "internalType": "uint256",
          "name": "",
          "type": "uint256"
        }
      ],
      "payable": false,
      "stateMutability": "view",
      "type": "function"
    },
    {
      "constant": false,
      "inputs": [
        {
          "internalType": "address",
          "name": "owner",
          "type": "address"
        }
      ],
      "name": "balanceOfUnderlying",
      "outputs": [
        {
          "internalType": "uint256",
          "name": "",
          "type": "uint256"
        }
      ],
      "payable": false,
      "stateMutability": "nonpayable",
      "type": "function"
    },
    {
      "constant": false,
      "inputs": [
        {
          "internalType": "uint256",
          "name": "borrowAmount",
          "type": "uint256"
        }
      ],
      "name": "borrow",
      "outputs": [
        {
          "internalType": "uint256",
          "name": "",
          "type": "uint256"
        }
      ],
      "payable": false,
      "stateMutability": "nonpayable",
      "type": "function"
    },
    {
      "constant": false,
      "inputs": [
        {
          "internalType": "address",
          "name": "account",
          "type": "address"
        }
      ],
      "name": "borrowBalanceCurrent",
      "outputs": [
        {
          "internalType": "uint256",
          "name": "",
          "type": "uint256"
        }
      ],
      "payable": false,
      "stateMutability": "nonpayable",
      "type": "function"
    },
    {
      "constant": true,
      "inputs": [
        {
          "internalType": "address",
          "name": "account",
          "type": "address"
        }
      ],
      "name": "borrowBalanceStored",
      "outputs": [
        {
          "internalType": "uint256",
          "name": "",
          "type": "uint256"
        }
      ],
      "payable": false,
      "stateMutability": "view",
      "type": "function"
    },
    {
      "constant": true,
      "inputs": [],
      "name": "borrowIndex",
      "outputs": [
        {
          "internalType": "uint256",
          "name": "",
          "type": "uint256"
        }
      ],
      "payable": false,
      "stateMutability": "view",
      "type": "function"
    },
    {
      "constant": true,
      "inputs": [],
      "name": "borrowRatePerBlock",
      "outputs": [
        {
          "internalType": "uint256",
          "name": "",
          "type": "uint256"
        }
      ],
      "payable": false,
      "stateMutability": "view",
      "type": "function"
    },
    {
      "constant": true,
      "inputs": [],
      "name": "comptroller",
      "outputs": [
        {
          "internalType": "contract ComptrollerInterface",
          "name": "",
          "type": "address"
        }
      ],
      "payable": false,
      "stateMutability": "view",
      "type": "function"
    },
    {
      "constant": true,
      "inputs": [],
      "name": "daiJoinAddress",
      "outputs": [
        {
          "internalType": "address",
          "name": "",
          "type": "address"
        }
      ],
      "payable": false,
      "stateMutability": "view",
      "type": "function"
    },
    {
      "constant": true,
      "inputs": [],
      "name": "decimals",
      "outputs": [
        {
          "internalType": "uint8",
          "name": "",
          "type": "uint8"
        }
      ],
      "payable": false,
      "stateMutability": "view",
      "type": "function"
    },
    {
      "constant": false,
      "inputs": [],
      "name": "exchangeRateCurrent",
      "outputs": [
        {
          "internalType": "uint256",
          "name": "",
          "type": "uint256"
        }
      ],
      "payable": false,
      "stateMutability": "nonpayable",
      "type": "function"
    },
    {
      "constant": true,
      "inputs": [],
      "name": "exchangeRateStored",
      "outputs": [
        {
          "internalType": "uint256",
          "name": "",
          "type": "uint256"
        }
      ],
      "payable": false,
      "stateMutability": "view",
      "type": "function"
    },
    {
      "constant": true,
      "inputs": [
        {
          "internalType": "address",
          "name": "account",
          "type": "address"
        }
      ],
      "name": "getAccountSnapshot",
      "outputs": [
        {
          "internalType": "uint256",
          "name": "",
          "type": "uint256"
        },
        {
          "internalType": "uint256",
          "name": "",
          "type": "uint256"
        },
        {
          "internalType": "uint256",
          "name": "",
          "type": "uint256"
        },
        {
          "internalType": "uint256",
          "name": "",
          "type": "uint256"
        }
      ],
      "payable": false,
      "stateMutability": "view",
      "type": "function"
    },
    {
      "constant": true,
      "inputs": [],
      "name": "getCash",
      "outputs": [
        {
          "internalType": "uint256",
          "name": "",
          "type": "uint256"
        }
      ],
      "payable": false,
      "stateMutability": "view",
      "type": "function"
    },
    {
      "constant": false,
      "inputs": [
        {
          "internalType": "uint256",
          "name": "blocks",
          "type": "uint256"
        }
      ],
      "name": "harnessFastForward",
      "outputs": [],
      "payable": false,
      "stateMutability": "nonpayable",
      "type": "function"
    },
    {
      "constant": false,
      "inputs": [
        {
          "internalType": "uint256",
          "name": "_accrualblockNumber",
          "type": "uint256"
        }
      ],
      "name": "harnessSetAccrualBlockNumber",
      "outputs": [],
      "payable": false,
      "stateMutability": "nonpayable",
      "type": "function"
    },
    {
      "constant": false,
      "inputs": [
        {
          "internalType": "address",
          "name": "account",
          "type": "address"
        },
        {
          "internalType": "uint256",
          "name": "amount",
          "type": "uint256"
        }
      ],
      "name": "harnessSetBalance",
      "outputs": [],
      "payable": false,
      "stateMutability": "nonpayable",
      "type": "function"
    },
    {
      "constant": false,
      "inputs": [
        {
          "internalType": "uint256",
          "name": "newBlockNumber",
          "type": "uint256"
        }
      ],
      "name": "harnessSetBlockNumber",
      "outputs": [],
      "payable": false,
      "stateMutability": "nonpayable",
      "type": "function"
    },
    {
      "constant": false,
      "inputs": [
        {
          "internalType": "uint256",
          "name": "exchangeRate",
          "type": "uint256"
        }
      ],
      "name": "harnessSetExchangeRate",
      "outputs": [],
      "payable": false,
      "stateMutability": "nonpayable",
      "type": "function"
    },
    {
      "constant": false,
      "inputs": [
        {
          "internalType": "uint256",
          "name": "totalSupply_",
          "type": "uint256"
        }
      ],
      "name": "harnessSetTotalSupply",
      "outputs": [],
      "payable": false,
      "stateMutability": "nonpayable",
      "type": "function"
    },
    {
      "constant": true,
      "inputs": [],
      "name": "implementation",
      "outputs": [
        {
          "internalType": "address",
          "name": "",
          "type": "address"
        }
      ],
      "payable": false,
      "stateMutability": "view",
      "type": "function"
    },
    {
      "constant": false,
      "inputs": [
        {
          "internalType": "address",
          "name": "underlying_",
          "type": "address"
        },
        {
          "internalType": "contract ComptrollerInterface",
          "name": "comptroller_",
          "type": "address"
        },
        {
          "internalType": "contract InterestRateModel",
          "name": "interestRateModel_",
          "type": "address"
        },
        {
          "internalType": "uint256",
          "name": "initialExchangeRateMantissa_",
          "type": "uint256"
        },
        {
          "internalType": "string",
          "name": "name_",
          "type": "string"
        },
        {
          "internalType": "string",
          "name": "symbol_",
          "type": "string"
        },
        {
          "internalType": "uint8",
          "name": "decimals_",
          "type": "uint8"
        }
      ],
      "name": "initialize",
      "outputs": [],
      "payable": false,
      "stateMutability": "nonpayable",
      "type": "function"
    },
    {
      "constant": false,
      "inputs": [
        {
          "internalType": "contract ComptrollerInterface",
          "name": "comptroller_",
          "type": "address"
        },
        {
          "internalType": "contract InterestRateModel",
          "name": "interestRateModel_",
          "type": "address"
        },
        {
          "internalType": "uint256",
          "name": "initialExchangeRateMantissa_",
          "type": "uint256"
        },
        {
          "internalType": "string",
          "name": "name_",
          "type": "string"
        },
        {
          "internalType": "string",
          "name": "symbol_",
          "type": "string"
        },
        {
          "internalType": "uint8",
          "name": "decimals_",
          "type": "uint8"
        }
      ],
      "name": "initialize",
      "outputs": [],
      "payable": false,
      "stateMutability": "nonpayable",
      "type": "function"
    },
    {
      "constant": true,
      "inputs": [],
      "name": "interestRateModel",
      "outputs": [
        {
          "internalType": "contract InterestRateModel",
          "name": "",
          "type": "address"
        }
      ],
      "payable": false,
      "stateMutability": "view",
      "type": "function"
    },
    {
      "constant": true,
      "inputs": [],
      "name": "isVToken",
      "outputs": [
        {
          "internalType": "bool",
          "name": "",
          "type": "bool"
        }
      ],
      "payable": false,
      "stateMutability": "view",
      "type": "function"
    },
    {
      "constant": false,
      "inputs": [
        {
          "internalType": "address",
          "name": "borrower",
          "type": "address"
        },
        {
          "internalType": "uint256",
          "name": "repayAmount",
          "type": "uint256"
        },
        {
          "internalType": "contract VTokenInterface",
          "name": "vTokenCollateral",
          "type": "address"
        }
      ],
      "name": "liquidateBorrow",
      "outputs": [
        {
          "internalType": "uint256",
          "name": "",
          "type": "uint256"
        }
      ],
      "payable": false,
      "stateMutability": "nonpayable",
      "type": "function"
    },
    {
      "constant": false,
      "inputs": [
        {
          "internalType": "uint256",
          "name": "mintAmount",
          "type": "uint256"
        }
      ],
      "name": "mint",
      "outputs": [
        {
          "internalType": "uint256",
          "name": "",
          "type": "uint256"
        }
      ],
      "payable": false,
      "stateMutability": "nonpayable",
      "type": "function"
    },
    {
      "constant": false,
      "inputs": [
        {
          "internalType": "address",
          "name": "receiver",
          "type": "address"
        },
        {
          "internalType": "uint256",
          "name": "mintAmount",
          "type": "uint256"
        }
      ],
      "name": "mintBehalf",
      "outputs": [
        {
          "internalType": "uint256",
          "name": "",
          "type": "uint256"
        }
      ],
      "payable": false,
      "stateMutability": "nonpayable",
      "type": "function"
    },
    {
      "constant": true,
      "inputs": [],
      "name": "name",
      "outputs": [
        {
          "internalType": "string",
          "name": "",
          "type": "string"
        }
      ],
      "payable": false,
      "stateMutability": "view",
      "type": "function"
    },
    {
      "constant": true,
      "inputs": [],
      "name": "pendingAdmin",
      "outputs": [
        {
          "internalType": "address payable",
          "name": "",
          "type": "address"
        }
      ],
      "payable": false,
      "stateMutability": "view",
      "type": "function"
    },
    {
      "constant": true,
      "inputs": [],
      "name": "potAddress",
      "outputs": [
        {
          "internalType": "address",
          "name": "",
          "type": "address"
        }
      ],
      "payable": false,
      "stateMutability": "view",
      "type": "function"
    },
    {
      "constant": false,
      "inputs": [
        {
          "internalType": "uint256",
          "name": "redeemTokens",
          "type": "uint256"
        }
      ],
      "name": "redeem",
      "outputs": [
        {
          "internalType": "uint256",
          "name": "",
          "type": "uint256"
        }
      ],
      "payable": false,
      "stateMutability": "nonpayable",
      "type": "function"
    },
    {
      "constant": false,
      "inputs": [
        {
          "internalType": "uint256",
          "name": "redeemAmount",
          "type": "uint256"
        }
      ],
      "name": "redeemUnderlying",
      "outputs": [
        {
          "internalType": "uint256",
          "name": "",
          "type": "uint256"
        }
      ],
      "payable": false,
      "stateMutability": "nonpayable",
      "type": "function"
    },
    {
      "constant": false,
      "inputs": [
        {
          "internalType": "uint256",
          "name": "repayAmount",
          "type": "uint256"
        }
      ],
      "name": "repayBorrow",
      "outputs": [
        {
          "internalType": "uint256",
          "name": "",
          "type": "uint256"
        }
      ],
      "payable": false,
      "stateMutability": "nonpayable",
      "type": "function"
    },
    {
      "constant": false,
      "inputs": [
        {
          "internalType": "address",
          "name": "borrower",
          "type": "address"
        },
        {
          "internalType": "uint256",
          "name": "repayAmount",
          "type": "uint256"
        }
      ],
      "name": "repayBorrowBehalf",
      "outputs": [
        {
          "internalType": "uint256",
          "name": "",
          "type": "uint256"
        }
      ],
      "payable": false,
      "stateMutability": "nonpayable",
      "type": "function"
    },
    {
      "constant": true,
      "inputs": [],
      "name": "reserveFactorMantissa",
      "outputs": [
        {
          "internalType": "uint256",
          "name": "",
          "type": "uint256"
        }
      ],
      "payable": false,
      "stateMutability": "view",
      "type": "function"
    },
    {
      "constant": false,
      "inputs": [
        {
          "internalType": "address",
          "name": "liquidator",
          "type": "address"
        },
        {
          "internalType": "address",
          "name": "borrower",
          "type": "address"
        },
        {
          "internalType": "uint256",
          "name": "seizeTokens",
          "type": "uint256"
        }
      ],
      "name": "seize",
      "outputs": [
        {
          "internalType": "uint256",
          "name": "",
          "type": "uint256"
        }
      ],
      "payable": false,
      "stateMutability": "nonpayable",
      "type": "function"
    },
    {
      "constant": true,
      "inputs": [],
      "name": "supplyRatePerBlock",
      "outputs": [
        {
          "internalType": "uint256",
          "name": "",
          "type": "uint256"
        }
      ],
      "payable": false,
      "stateMutability": "view",
      "type": "function"
    },
    {
      "constant": true,
      "inputs": [],
      "name": "symbol",
      "outputs": [
        {
          "internalType": "string",
          "name": "",
          "type": "string"
        }
      ],
      "payable": false,
      "stateMutability": "view",
      "type": "function"
    },
    {
      "constant": true,
      "inputs": [],
      "name": "totalBorrows",
      "outputs": [
        {
          "internalType": "uint256",
          "name": "",
          "type": "uint256"
        }
      ],
      "payable": false,
      "stateMutability": "view",
      "type": "function"
    },
    {
      "constant": false,
      "inputs": [],
      "name": "totalBorrowsCurrent",
      "outputs": [
        {
          "internalType": "uint256",
          "name": "",
          "type": "uint256"
        }
      ],
      "payable": false,
      "stateMutability": "nonpayable",
      "type": "function"
    },
    {
      "constant": true,
      "inputs": [],
      "name": "totalReserves",
      "outputs": [
        {
          "internalType": "uint256",
          "name": "",
          "type": "uint256"
        }
      ],
      "payable": false,
      "stateMutability": "view",
      "type": "function"
    },
    {
      "constant": true,
      "inputs": [],
      "name": "totalSupply",
      "outputs": [
        {
          "internalType": "uint256",
          "name": "",
          "type": "uint256"
        }
      ],
      "payable": false,
      "stateMutability": "view",
      "type": "function"
    },
    {
      "constant": false,
      "inputs": [
        {
          "internalType": "address",
          "name": "dst",
          "type": "address"
        },
        {
          "internalType": "uint256",
          "name": "amount",
          "type": "uint256"
        }
      ],
      "name": "transfer",
      "outputs": [
        {
          "internalType": "bool",
          "name": "",
          "type": "bool"
        }
      ],
      "payable": false,
      "stateMutability": "nonpayable",
      "type": "function"
    },
    {
      "constant": false,
      "inputs": [
        {
          "internalType": "address",
          "name": "src",
          "type": "address"
        },
        {
          "internalType": "address",
          "name": "dst",
          "type": "address"
        },
        {
          "internalType": "uint256",
          "name": "amount",
          "type": "uint256"
        }
      ],
      "name": "transferFrom",
      "outputs": [
        {
          "internalType": "bool",
          "name": "",
          "type": "bool"
        }
      ],
      "payable": false,
      "stateMutability": "nonpayable",
      "type": "function"
    },
    {
      "constant": true,
      "inputs": [],
      "name": "underlying",
      "outputs": [
        {
          "internalType": "address",
          "name": "",
          "type": "address"
        }
      ],
      "payable": false,
      "stateMutability": "view",
      "type": "function"
    },
    {
      "constant": true,
      "inputs": [],
      "name": "vatAddress",
      "outputs": [
        {
          "internalType": "address",
          "name": "",
          "type": "address"
        }
      ],
      "payable": false,
      "stateMutability": "view",
      "type": "function"
    }
  ],
  "bytecode": "0x6080604052620186a060165561638b8061001a6000396000f3fe608060405234801561001057600080fd5b50600436106103af5760003560e01c806370a08231116101f4578063b2a02ff11161011a578063dd62ed3e116100ad578063f5e3c4621161007c578063f5e3c46214610cc3578063f851a44014610cf9578063f8f9da2814610d01578063fca7820b14610d09576103af565b8063dd62ed3e14610c5f578063e9c714f214610c8d578063f2b3abbd14610c95578063f3fdb15a14610cbb576103af565b8063c37f68e2116100e9578063c37f68e214610bad578063c5ebeaec14610bf9578063d9a7eb7014610c16578063db006a7514610c42576103af565b8063b2a02ff114610b2c578063b71d1a0c14610b62578063bcbef6f314610b88578063bd6d894d14610ba5576103af565b806395d89b4111610192578063a6afed9511610161578063a6afed9514610ae8578063a9059cbb14610af0578063aa5af0fd14610b1c578063ae9d70b014610b24576103af565b806395d89b411461094f57806395dd91931461095757806399d8c1b41461097d578063a0712d6814610acb576103af565b80638869737e116101ce5780638869737e1461091a5780638a8df2e6146109375780638d925ccd1461093f5780638f840ddd14610947576103af565b806370a08231146108cf57806373acee98146108f5578063852a12e3146108fd576103af565b806331c2480b116102d957806356e6772811610277578063601a0bf111610246578063601a0bf11461089a57806366ced602146108b75780636c540baf146108bf5780636f307dc3146108c7576103af565b806356e67728146107c95780635a518ba81461086d5780635c60da1b1461088a5780635fe3b56714610892576103af565b80633d9ea3a1116102b35780633d9ea3a1146107765780633e9410101461077e5780634576b5db1461079b57806347bd3718146107c1576103af565b806331c2480b1461072b5780633af9e669146107485780633b1d21a21461076e576103af565b8063182df0f511610351578063246acab111610320578063246acab1146106a05780632608f818146106bd57806326782247146106e9578063313ce5671461070d576103af565b8063182df0f5146104e05780631a31d465146104e857806323323e031461063e57806323b872dd1461066a576103af565b8063153ab5051161038d578063153ab505146104a0578063173b9904146104aa57806317bfdfbc146104b257806318160ddd146104d8576103af565b806306fdde03146103b4578063095ea7b3146104315780630e75270214610471575b600080fd5b6103bc610d26565b6040805160208082528351818301528351919283929083019185019080838360005b838110156103f65781810151838201526020016103de565b50505050905090810190601f1680156104235780820380516001836020036101000a031916815260200191505b509250505060405180910390f35b61045d6004803603604081101561044757600080fd5b506001600160a01b038135169060200135610db3565b604080519115158252519081900360200190f35b61048e6004803603602081101561048757600080fd5b5035610e20565b60408051918252519081900360200190f35b6104a8610e36565b005b61048e6110d4565b61048e600480360360208110156104c857600080fd5b50356001600160a01b03166110da565b61048e61119a565b61048e6111a0565b6104a8600480360360e08110156104fe57600080fd5b6001600160a01b03823581169260208101358216926040820135909216916060820135919081019060a081016080820135600160201b81111561054057600080fd5b82018360208201111561055257600080fd5b803590602001918460018302840111600160201b8311171561057357600080fd5b91908080601f0160208091040260200160405190810160405280939291908181526020018383808284376000920191909152509295949360208101935035915050600160201b8111156105c557600080fd5b8201836020820111156105d757600080fd5b803590602001918460018302840111600160201b831117156105f857600080fd5b91908080601f0160208091040260200160405190810160405280939291908181526020018383808284376000920191909152509295505050903560ff1691506112039050565b61048e6004803603604081101561065457600080fd5b506001600160a01b038135169060200135611297565b61045d6004803603606081101561068057600080fd5b506001600160a01b038135811691602081013590911690604001356112ad565b6104a8600480360360208110156106b657600080fd5b503561131f565b61048e600480360360408110156106d357600080fd5b506001600160a01b03813516906020013561132a565b6106f1611337565b604080516001600160a01b039092168252519081900360200190f35b610715611346565b6040805160ff9092168252519081900360200190f35b6104a86004803603602081101561074157600080fd5b503561134f565b61048e6004803603602081101561075e57600080fd5b50356001600160a01b0316611354565b61048e61140a565b61045d611419565b61048e6004803603602081101561079457600080fd5b503561141e565b61048e600480360360208110156107b157600080fd5b50356001600160a01b0316611429565b61048e61157e565b6104a8600480360360208110156107df57600080fd5b810190602081018135600160201b8111156107f957600080fd5b82018360208201111561080b57600080fd5b803590602001918460018302840111600160201b8311171561082c57600080fd5b91908080601f016020809104026020016040519081016040528093929190818152602001838380828437600092019190915250929550611584945050505050565b6104a86004803603602081101561088357600080fd5b5035611607565b6106f161160c565b6106f161161b565b61048e600480360360208110156108b057600080fd5b503561162a565b6106f16116c5565b61048e6116d4565b6106f16116da565b61048e600480360360208110156108e557600080fd5b50356001600160a01b03166116e9565b61048e611704565b61048e6004803603602081101561091357600080fd5b50356117ba565b6104a86004803603602081101561093057600080fd5b50356117c5565b6106f16117ca565b6106f16117d9565b61048e6117e8565b6103bc6117ee565b61048e6004803603602081101561096d57600080fd5b50356001600160a01b0316611846565b6104a8600480360360c081101561099357600080fd5b6001600160a01b03823581169260208101359091169160408201359190810190608081016060820135600160201b8111156109cd57600080fd5b8201836020820111156109df57600080fd5b803590602001918460018302840111600160201b83111715610a0057600080fd5b91908080601f0160208091040260200160405190810160405280939291908181526020018383808284376000920191909152509295949360208101935035915050600160201b811115610a5257600080fd5b820183602082011115610a6457600080fd5b803590602001918460018302840111600160201b83111715610a8557600080fd5b91908080601f0160208091040260200160405190810160405280939291908181526020018383808284376000920191909152509295505050903560ff1691506118a39050565b61048e60048036036020811015610ae157600080fd5b5035611a8a565b61048e611a96565b61045d60048036036040811015610b0657600080fd5b506001600160a01b038135169060200135611b11565b61048e611b82565b61048e611b88565b61048e60048036036060811015610b4257600080fd5b506001600160a01b03813581169160208101359091169060400135611c27565b61048e60048036036020811015610b7857600080fd5b50356001600160a01b0316611c98565b6104a860048036036020811015610b9e57600080fd5b5035611d24565b61048e611d36565b610bd360048036036020811015610bc357600080fd5b50356001600160a01b0316611df2565b604080519485526020850193909352838301919091526060830152519081900360800190f35b61048e60048036036020811015610c0f57600080fd5b5035611e87565b6104a860048036036040811015610c2c57600080fd5b506001600160a01b038135169060200135611e92565b61048e60048036036020811015610c5857600080fd5b5035611eae565b61048e60048036036040811015610c7557600080fd5b506001600160a01b0381358116916020013516611eb9565b61048e611ee4565b61048e60048036036020811015610cab57600080fd5b50356001600160a01b0316611fdc565b6106f1612016565b61048e60048036036060811015610cd957600080fd5b506001600160a01b03813581169160208101359160409091013516612025565b6106f161203d565b61048e612051565b61048e60048036036020811015610d1f57600080fd5b50356120b5565b60018054604080516020600284861615610100026000190190941693909304601f81018490048402820184019092528181529291830182828015610dab5780601f10610d8057610100808354040283529160200191610dab565b820191906000526020600020905b815481529060010190602001808311610d8e57829003601f168201915b505050505081565b336000818152600f602090815260408083206001600160a01b03871680855290835281842086905581518681529151939493909284927f8c5be1e5ebec7d5bd14f71427d1e84f3dd0314c0f7b2291e5b200ac8c7c3b925929081900390910190a360019150505b92915050565b600080610e2c83612133565b509150505b919050565b60035461010090046001600160a01b03163314610e845760405162461bcd60e51b815260040180806020018281038252602d815260200180616133602d913960400191505060405180910390fd5b60135460145460155460408051634fb3c66560e11b815290516001600160a01b039485169493841693909216918391639f678cca9160048083019260209291908290030181600087803b158015610eda57600080fd5b505af1158015610eee573d6000803e3d6000fd5b505050506040513d6020811015610f0457600080fd5b5050604080516305f5d64360e11b815230600482015290516000916001600160a01b03851691630bebac8691602480820192602092909190829003018186803b158015610f5057600080fd5b505afa158015610f64573d6000803e3d6000fd5b505050506040513d6020811015610f7a57600080fd5b505160408051637f8661a160e01b81526004810183905290519192506001600160a01b03851691637f8661a19160248082019260009290919082900301818387803b158015610fc857600080fd5b505af1158015610fdc573d6000803e3d6000fd5b505060408051633612d9a360e11b81523060048201529051600093506001600160a01b0386169250636c25b34691602480820192602092909190829003018186803b15801561102a57600080fd5b505afa15801561103e573d6000803e3d6000fd5b505050506040513d602081101561105457600080fd5b50516040805163ef693bed60e01b81523060048201526b033b2e3c9fd0803ce80000008304602482015290519192506001600160a01b0387169163ef693bed9160448082019260009290919082900301818387803b1580156110b557600080fd5b505af11580156110c9573d6000803e3d6000fd5b505050505050505050565b60085481565b6000805460ff1661111f576040805162461bcd60e51b815260206004820152600a6024820152691c994b595b9d195c995960b21b604482015290519081900360640190fd5b6000805460ff19168155611131611a96565b1461117c576040805162461bcd60e51b81526020600482015260166024820152751858d8dc9d59481a5b9d195c995cdd0819985a5b195960521b604482015290519081900360640190fd5b61118582611846565b90505b6000805460ff19166001179055919050565b600d5481565b60008060006111ad6121dc565b909250905060008260038111156111c057fe5b146111fc5760405162461bcd60e51b81526004018080602001828103825260358152602001806162c66035913960400191505060405180910390fd5b9150505b90565b6112118686868686866118a3565b601180546001600160a01b0319166001600160a01b038981169190911791829055604080516318160ddd60e01b8152905192909116916318160ddd91600480820192602092909190829003018186803b15801561126d57600080fd5b505afa158015611281573d6000803e3d6000fd5b505050506040513d60208110156110c957600080fd5b6000806112a4848461228b565b50949350505050565b6000805460ff166112f2576040805162461bcd60e51b815260206004820152600a6024820152691c994b595b9d195c995960b21b604482015290519081900360640190fd5b6000805460ff1916815561130833868686612336565b1490506000805460ff191660011790559392505050565b601680549091019055565b6000806112a48484612644565b6004546001600160a01b031681565b60035460ff1681565b600d55565b600061135e615f18565b6040518060200160405280611371611d36565b90526001600160a01b0384166000908152600e602052604081205491925090819061139d9084906126c6565b909250905060008260038111156113b057fe5b14611402576040805162461bcd60e51b815260206004820152601f60248201527f62616c616e636520636f756c64206e6f742062652063616c63756c6174656400604482015290519081900360640190fd5b949350505050565b600061141461271a565b905090565b600181565b6000610e1a8261282c565b60035460009061010090046001600160a01b031633146114565761144f6001603f6128c0565b9050610e31565b60055460408051623f1ee960e11b815290516001600160a01b0392831692851691627e3dd2916004808301926020929190829003018186803b15801561149b57600080fd5b505afa1580156114af573d6000803e3d6000fd5b505050506040513d60208110156114c557600080fd5b5051611518576040805162461bcd60e51b815260206004820152601c60248201527f6d61726b6572206d6574686f642072657475726e65642066616c736500000000604482015290519081900360640190fd5b600580546001600160a01b0319166001600160a01b03858116918217909255604080519284168352602083019190915280517f7ac369dbd14fa5ea3f473ed67cc9d598964a77501540ba6751eb0b3decf5870d9281900390910190a160005b9392505050565b600b5481565b60035461010090046001600160a01b031633146115d25760405162461bcd60e51b81526004018080602001828103825260308152602001806160b16030913960400191505060405180910390fd5b6000808280602001905160408110156115ea57600080fd5b50805160209091015190925090506116028282612926565b505050565b600955565b6012546001600160a01b031681565b6005546001600160a01b031681565b6000805460ff1661166f576040805162461bcd60e51b815260206004820152600a6024820152691c994b595b9d195c995960b21b604482015290519081900360640190fd5b6000805460ff19168155611681611a96565b905080156116a75761169f81601181111561169857fe5b60306128c0565b915050611188565b6116b083612c41565b9150506000805460ff19166001179055919050565b6014546001600160a01b031681565b60095481565b6011546001600160a01b031681565b6001600160a01b03166000908152600e602052604090205490565b6000805460ff16611749576040805162461bcd60e51b815260206004820152600a6024820152691c994b595b9d195c995960b21b604482015290519081900360640190fd5b6000805460ff1916815561175b611a96565b146117a6576040805162461bcd60e51b81526020600482015260166024820152751858d8dc9d59481a5b9d195c995cdd0819985a5b195960521b604482015290519081900360640190fd5b50600b546000805460ff1916600117905590565b6000610e1a82612d35565b601655565b6013546001600160a01b031681565b6015546001600160a01b031681565b600c5481565b6002805460408051602060018416156101000260001901909316849004601f81018490048402820184019092528181529291830182828015610dab5780601f10610d8057610100808354040283529160200191610dab565b600080600061185484612db6565b9092509050600082600381111561186757fe5b146115775760405162461bcd60e51b815260040180806020018281038252603781526020018061618b6037913960400191505060405180910390fd5b60035461010090046001600160a01b031633146118f15760405162461bcd60e51b815260040180806020018281038252602481526020018061606a6024913960400191505060405180910390fd5b6009541580156119015750600a54155b61193c5760405162461bcd60e51b815260040180806020018281038252602381526020018061608e6023913960400191505060405180910390fd5b60078490558361197d5760405162461bcd60e51b81526004018080602001828103825260308152602001806160e16030913960400191505060405180910390fd5b600061198887611429565b905080156119dd576040805162461bcd60e51b815260206004820152601a60248201527f73657474696e6720636f6d7074726f6c6c6572206661696c6564000000000000604482015290519081900360640190fd5b6119e5612e6a565b600955670de0b6b3a7640000600a556119fd86612e70565b90508015611a3c5760405162461bcd60e51b81526004018080602001828103825260228152602001806161116022913960400191505060405180910390fd5b8351611a4f906001906020870190615f2b565b508251611a63906002906020860190615f2b565b50506003805460ff90921660ff199283161790556000805490911660011790555050505050565b600080610e2c83612fe5565b60145460408051634fb3c66560e11b815290516000926001600160a01b031691639f678cca91600480830192602092919082900301818787803b158015611adc57600080fd5b505af1158015611af0573d6000803e3d6000fd5b505050506040513d6020811015611b0657600080fd5b50611414905061305f565b6000805460ff16611b56576040805162461bcd60e51b815260206004820152600a6024820152691c994b595b9d195c995960b21b604482015290519081900360640190fd5b6000805460ff19168155611b6c33338686612336565b1490506000805460ff1916600117905592915050565b600a5481565b6006546000906001600160a01b031663b8168816611ba461271a565b600b54600c546008546040518563ffffffff1660e01b81526004018085815260200184815260200183815260200182815260200194505050505060206040518083038186803b158015611bf657600080fd5b505afa158015611c0a573d6000803e3d6000fd5b505050506040513d6020811015611c2057600080fd5b5051905090565b6000805460ff16611c6c576040805162461bcd60e51b815260206004820152600a6024820152691c994b595b9d195c995960b21b604482015290519081900360640190fd5b6000805460ff19169055611c82338585856133b7565b90506000805460ff191660011790559392505050565b60035460009061010090046001600160a01b03163314611cbe5761144f600160456128c0565b600480546001600160a01b038481166001600160a01b0319831681179093556040805191909216808252602082019390935281517fca4f2f25d0898edd99413412fb94012f9e54ec8142f9b093e7720646a95b16a9929181900390910190a16000611577565b6017556018805460ff19166001179055565b6000805460ff16611d7b576040805162461bcd60e51b815260206004820152600a6024820152691c994b595b9d195c995960b21b604482015290519081900360640190fd5b6000805460ff19168155611d8d611a96565b14611dd8576040805162461bcd60e51b81526020600482015260166024820152751858d8dc9d59481a5b9d195c995cdd0819985a5b195960521b604482015290519081900360640190fd5b611de06111a0565b90506000805460ff1916600117905590565b6001600160a01b0381166000908152600e6020526040812054819081908190818080611e1d89612db6565b935090506000816003811115611e2f57fe5b14611e4d5760095b975060009650869550859450611e809350505050565b611e556121dc565b925090506000816003811115611e6757fe5b14611e73576009611e37565b5060009650919450925090505b9193509193565b6000610e1a8261361d565b6001600160a01b039091166000908152600e6020526040902055565b6000610e1a8261369c565b6001600160a01b039182166000908152600f6020908152604080832093909416825291909152205490565b6004546000906001600160a01b03163314611f0c57611f05600160006128c0565b9050611200565b60038054600480546001600160a01b03818116610100818102610100600160a81b0319871617968790556001600160a01b031990931690935560408051948390048216808652929095041660208401528351909391927ff9ffabca9c8276e99321725bcb43fb076a6c66a54b7f21c4e8146d8519b417dc92908290030190a1600454604080516001600160a01b038085168252909216602083015280517fca4f2f25d0898edd99413412fb94012f9e54ec8142f9b093e7720646a95b16a99281900390910190a160009250505090565b600080611fe7611a96565b9050801561200d57612005816011811115611ffe57fe5b60406128c0565b915050610e31565b61157783612e70565b6006546001600160a01b031681565b600080612033858585613716565b5095945050505050565b60035461010090046001600160a01b031681565b6006546000906001600160a01b03166315f2405361206d61271a565b600b54600c546040518463ffffffff1660e01b815260040180848152602001838152602001828152602001935050505060206040518083038186803b158015611bf657600080fd5b6000805460ff166120fa576040805162461bcd60e51b815260206004820152600a6024820152691c994b595b9d195c995960b21b604482015290519081900360640190fd5b6000805460ff1916815561210c611a96565b9050801561212a5761169f81601181111561212357fe5b60466128c0565b6116b083613848565b60008054819060ff1661217a576040805162461bcd60e51b815260206004820152600a6024820152691c994b595b9d195c995960b21b604482015290519081900360640190fd5b6000805460ff1916815561218c611a96565b905080156121b7576121aa8160118111156121a357fe5b60366128c0565b9250600091506121c89050565b6121c23333866138f0565b92509250505b6000805460ff191660011790559092909150565b600d546000908190806121f757505060075460009150612287565b600061220161271a565b9050600061220d615f18565b600061221e84600b54600c54613cd6565b93509050600081600381111561223057fe5b14612245579550600094506122879350505050565b61224f8386613d22565b92509050600081600381111561226157fe5b14612276579550600094506122879350505050565b505160009550935061228792505050565b9091565b60008054819060ff166122d2576040805162461bcd60e51b815260206004820152600a6024820152691c994b595b9d195c995960b21b604482015290519081900360640190fd5b6000805460ff191681556122e4611a96565b9050801561230f576123028160118111156122fb57fe5b601e6128c0565b9250600091506123209050565b61231a338686613dd2565b92509250505b6000805460ff1916600117905590939092509050565b600554604080516317b9b84b60e31b81523060048201526001600160a01b03868116602483015285811660448301526064820185905291516000938493169163bdcdc25891608480830192602092919082900301818787803b15801561239b57600080fd5b505af11580156123af573d6000803e3d6000fd5b505050506040513d60208110156123c557600080fd5b5051905080156123e4576123dc6003604a8361425e565b915050611402565b836001600160a01b0316856001600160a01b0316141561240a576123dc6002604b6128c0565b60006001600160a01b0387811690871614156124295750600019612451565b506001600160a01b038086166000908152600f60209081526040808320938a16835292905220545b60008060008061246185896142c4565b9094509250600084600381111561247457fe5b14612492576124856009604b6128c0565b9650505050505050611402565b6001600160a01b038a166000908152600e60205260409020546124b590896142c4565b909450915060008460038111156124c857fe5b146124d9576124856009604c6128c0565b6001600160a01b0389166000908152600e60205260409020546124fc90896142e7565b9094509050600084600381111561250f57fe5b14612520576124856009604d6128c0565b6001600160a01b03808b166000908152600e6020526040808220859055918b168152208190556000198514612578576001600160a01b03808b166000908152600f60209081526040808320938f168352929052208390555b886001600160a01b03168a6001600160a01b031660008051602061621e8339815191528a6040518082815260200191505060405180910390a36005546040805163352b4a3f60e11b81523060048201526001600160a01b038d811660248301528c81166044830152606482018c905291519190921691636a56947e91608480830192600092919082900301818387803b15801561261457600080fd5b505af1158015612628573d6000803e3d6000fd5b5060009250612635915050565b9b9a5050505050505050505050565b60008054819060ff1661268b576040805162461bcd60e51b815260206004820152600a6024820152691c994b595b9d195c995960b21b604482015290519081900360640190fd5b6000805460ff1916815561269d611a96565b905080156126bb576123028160118111156126b457fe5b60356128c0565b61231a3386866138f0565b60008060006126d3615f18565b6126dd868661430d565b909250905060008260038111156126f057fe5b146127015750915060009050612713565b600061270c82614375565b9350935050505b9250929050565b601454604080516305f5d64360e11b815230600482015290516000926001600160a01b03169183918391630bebac86916024808301926020929190829003018186803b15801561276957600080fd5b505afa15801561277d573d6000803e3d6000fd5b505050506040513d602081101561279357600080fd5b50516040805163324abb3160e21b815290519192506b033b2e3c9fd0803ce80000009161281d916001600160a01b0386169163c92aecc491600480820192602092909190829003018186803b1580156127eb57600080fd5b505afa1580156127ff573d6000803e3d6000fd5b505050506040513d602081101561281557600080fd5b505183614384565b8161282457fe5b049250505090565b6000805460ff16612871576040805162461bcd60e51b815260206004820152600a6024820152691c994b595b9d195c995960b21b604482015290519081900360640190fd5b6000805460ff19168155612883611a96565b905080156128a15761169f81601181111561289a57fe5b604e6128c0565b6128aa836143df565b509150506000805460ff19166001179055919050565b60007f45b96fe442630264581b197e84bbada861235052c5a1aadfff9ea4e40a969aa08360118111156128ef57fe5b8360568111156128fb57fe5b604080519283526020830191909152600082820152519081900360600190a182601181111561157757fe5b600082905060008290506000826001600160a01b031663f4b9fa756040518163ffffffff1660e01b8152600401602060405180830381600087803b15801561296d57600080fd5b505af1158015612981573d6000803e3d6000fd5b505050506040513d602081101561299757600080fd5b5051604080516336569e7760e01b815290519192506000916001600160a01b038616916336569e7791600480830192602092919082900301818787803b1580156129e057600080fd5b505af11580156129f4573d6000803e3d6000fd5b505050506040513d6020811015612a0a57600080fd5b50516011549091506001600160a01b03838116911614612a5b5760405162461bcd60e51b81526004018080602001828103825260228152602001806161c26022913960400191505060405180910390fd5b601380546001600160a01b038089166001600160a01b0319928316179283905560148054898316908416179055601580548583169316929092179091556040805163095ea7b360e01b815292821660048401526000196024840152519084169163095ea7b391604480830192600092919082900301818387803b158015612ae157600080fd5b505af1158015612af5573d6000803e3d6000fd5b5050601454604080516328ec8bf160e21b81526001600160a01b0392831660048201529051918516935063a3b22fc4925060248082019260009290919082900301818387803b158015612b4757600080fd5b505af1158015612b5b573d6000803e3d6000fd5b5050601354604080516328ec8bf160e21b81526001600160a01b0392831660048201529051918516935063a3b22fc4925060248082019260009290919082900301818387803b158015612bad57600080fd5b505af1158015612bc1573d6000803e3d6000fd5b50505050826001600160a01b0316639f678cca6040518163ffffffff1660e01b8152600401602060405180830381600087803b158015612c0057600080fd5b505af1158015612c14573d6000803e3d6000fd5b505050506040513d6020811015612c2a57600080fd5b50612c3890503060006144c7565b50505050505050565b600354600090819061010090046001600160a01b03163314612c6957612005600160316128c0565b612c71612e6a565b60095414612c8557612005600a60336128c0565b82612c8e61271a565b1015612ca057612005600e60326128c0565b600c54831115612cb657612005600260346128c0565b50600c805483900390819055600354612cdd9061010090046001600160a01b0316846147ec565b600354604080516101009092046001600160a01b0316825260208201859052818101839052517f3bad0c59cf2f06e7314077049f48a93578cd16f5ef92329f1dab1420a99c177e916060908290030190a16000611577565b6000805460ff16612d7a576040805162461bcd60e51b815260206004820152600a6024820152691c994b595b9d195c995960b21b604482015290519081900360640190fd5b6000805460ff19168155612d8c611a96565b90508015612daa5761169f816011811115612da357fe5b60276128c0565b6116b033600085614951565b6001600160a01b038116600090815260106020526040812080548291829182918291612ded575060009450849350612e6592505050565b612dfd8160000154600a546150cc565b90945092506000846003811115612e1057fe5b14612e25575091935060009250612e65915050565b612e3383826001015461510b565b90945091506000846003811115612e4657fe5b14612e5b575091935060009250612e65915050565b5060009450925050505b915091565b60165490565b600354600090819061010090046001600160a01b03163314612e9857612005600160426128c0565b612ea0612e6a565b60095414612eb457612005600a60416128c0565b600660009054906101000a90046001600160a01b03169050826001600160a01b0316632191f92a6040518163ffffffff1660e01b815260040160206040518083038186803b158015612f0557600080fd5b505afa158015612f19573d6000803e3d6000fd5b505050506040513d6020811015612f2f57600080fd5b5051612f82576040805162461bcd60e51b815260206004820152601c60248201527f6d61726b6572206d6574686f642072657475726e65642066616c736500000000604482015290519081900360640190fd5b600680546001600160a01b0319166001600160a01b03858116918217909255604080519284168352602083019190915280517fedffc32e068c7c95dfd4bdfd5c4d939a084d6b11c4199eac8436ed234d72f9269281900390910190a16000611577565b60008054819060ff1661302c576040805162461bcd60e51b815260206004820152600a6024820152691c994b595b9d195c995960b21b604482015290519081900360640190fd5b6000805460ff1916815561303e611a96565b90508015613055576121aa8160118111156122fb57fe5b6121c23385615136565b60008061306a612e6a565b6009549091508082141561308357600092505050611200565b600061308d61271a565b600b54600c54600a54600654604080516315f2405360e01b815260048101879052602481018690526044810185905290519596509394929391926000926001600160a01b03909216916315f24053916064808301926020929190829003018186803b1580156130fb57600080fd5b505afa15801561310f573d6000803e3d6000fd5b505050506040513d602081101561312557600080fd5b5051905065048c27395000811115613184576040805162461bcd60e51b815260206004820152601c60248201527f626f72726f772072617465206973206162737572646c79206869676800000000604482015290519081900360640190fd5b60008061319189896142c4565b909250905060008260038111156131a457fe5b146131f6576040805162461bcd60e51b815260206004820152601f60248201527f636f756c64206e6f742063616c63756c61746520626c6f636b2064656c746100604482015290519081900360640190fd5b6131fe615f18565b60008060008061321c60405180602001604052808a8152508761430d565b9097509450600087600381111561322f57fe5b146132615761324c6009600689600381111561324757fe5b61425e565b9e505050505050505050505050505050611200565b61326b858c6126c6565b9097509350600087600381111561327e57fe5b146132965761324c6009600189600381111561324757fe5b6132a0848c6142e7565b909750925060008760038111156132b357fe5b146132cb5761324c6009600489600381111561324757fe5b6132e66040518060200160405280600854815250858c61557d565b909750915060008760038111156132f957fe5b146133115761324c6009600589600381111561324757fe5b61331c858a8b61557d565b9097509050600087600381111561332f57fe5b146133475761324c6009600389600381111561324757fe5b60098e9055600a819055600b839055600c829055604080518d8152602081018690528082018390526060810185905290517f4dec04e750ca11537cabcd8a9eab06494de08da3735bc8871cd41250e190bc049181900360800190a160009e50505050505050505050505050505090565b6005546040805163d02f735160e01b81523060048201526001600160a01b038781166024830152868116604483015285811660648301526084820185905291516000938493169163d02f73519160a480830192602092919082900301818787803b15801561342457600080fd5b505af1158015613438573d6000803e3d6000fd5b505050506040513d602081101561344e57600080fd5b505190508015613465576123dc6003601b8361425e565b846001600160a01b0316846001600160a01b0316141561348b576123dc6006601c6128c0565b6001600160a01b0384166000908152600e6020526040812054819081906134b290876142c4565b909350915060008360038111156134c557fe5b146134e8576134dd6009601a85600381111561324757fe5b945050505050611402565b6001600160a01b0388166000908152600e602052604090205461350b90876142e7565b9093509050600083600381111561351e57fe5b14613536576134dd6009601985600381111561324757fe5b6001600160a01b038088166000818152600e60209081526040808320879055938c168083529184902085905583518a81529351919360008051602061621e833981519152929081900390910190a360055460408051636d35bf9160e01b81523060048201526001600160a01b038c811660248301528b811660448301528a81166064830152608482018a905291519190921691636d35bf919160a480830192600092919082900301818387803b1580156135ef57600080fd5b505af1158015613603573d6000803e3d6000fd5b5060009250613610915050565b9998505050505050505050565b6000805460ff16613662576040805162461bcd60e51b815260206004820152600a6024820152691c994b595b9d195c995960b21b604482015290519081900360640190fd5b6000805460ff19168155613674611a96565b905080156136925761169f81601181111561368b57fe5b60086128c0565b6116b033846155ca565b6000805460ff166136e1576040805162461bcd60e51b815260206004820152600a6024820152691c994b595b9d195c995960b21b604482015290519081900360640190fd5b6000805460ff191681556136f3611a96565b9050801561370a5761169f816011811115612da357fe5b6116b033846000614951565b60008054819060ff1661375d576040805162461bcd60e51b815260206004820152600a6024820152691c994b595b9d195c995960b21b604482015290519081900360640190fd5b6000805460ff1916815561376f611a96565b9050801561379a5761378d81601181111561378657fe5b600f6128c0565b9250600091506138319050565b836001600160a01b031663a6afed956040518163ffffffff1660e01b8152600401602060405180830381600087803b1580156137d557600080fd5b505af11580156137e9573d6000803e3d6000fd5b505050506040513d60208110156137ff57600080fd5b50519050801561381f5761378d81601181111561381857fe5b60106128c0565b61382b338787876158d8565b92509250505b6000805460ff191660011790559094909350915050565b60035460009061010090046001600160a01b0316331461386e5761144f600160476128c0565b613876612e6a565b6009541461388a5761144f600a60486128c0565b670de0b6b3a76400008211156138a65761144f600260496128c0565b6008805490839055604080518281526020810185905281517faaa68312e2ea9d50e16af5068410ab56e1a1fd06037b1a35664812c30f821460929181900390910190a16000611577565b60055460408051631200453160e11b81523060048201526001600160a01b0386811660248301528581166044830152606482018590529151600093849384939116916324008a629160848082019260209290919082900301818787803b15801561395957600080fd5b505af115801561396d573d6000803e3d6000fd5b505050506040513d602081101561398357600080fd5b5051905080156139a75761399a600360388361425e565b925060009150613cce9050565b6139af612e6a565b600954146139c35761399a600a60396128c0565b6139cb615fa9565b6001600160a01b03861660009081526010602052604090206001015460608201526139f586612db6565b6080830181905260208301826003811115613a0c57fe5b6003811115613a1757fe5b9052506000905081602001516003811115613a2e57fe5b14613a5857613a4a600960378360200151600381111561324757fe5b935060009250613cce915050565b600019851415613a715760808101516040820152613a79565b604081018590525b613a878782604001516144c7565b60e082018190526080820151613a9c916142c4565b60a0830181905260208301826003811115613ab357fe5b6003811115613abe57fe5b9052506000905081602001516003811115613ad557fe5b14613b115760405162461bcd60e51b815260040180806020018281038252603a8152602001806161e4603a913960400191505060405180910390fd5b613b21600b548260e001516142c4565b60c0830181905260208301826003811115613b3857fe5b6003811115613b4357fe5b9052506000905081602001516003811115613b5a57fe5b14613b965760405162461bcd60e51b815260040180806020018281038252603181526020018061623e6031913960400191505060405180910390fd5b60a080820180516001600160a01b03808a16600081815260106020908152604091829020948555600a5460019095019490945560c0870151600b81905560e088015195518251948f16855294840192909252828101949094526060820192909252608081019190915290517f1a2a22cb034d26d1854bdc6666a5b91fe25efbbb5dcad3b0355478d6f5c362a1929181900390910190a160055460e0820151606083015160408051631ededc9160e01b81523060048201526001600160a01b038c811660248301528b8116604483015260648201949094526084810192909252519190921691631ededc919160a480830192600092919082900301818387803b158015613ca157600080fd5b505af1158015613cb5573d6000803e3d6000fd5b5060009250613cc2915050565b8160e001519350935050505b935093915050565b600080600080613ce687876142e7565b90925090506000826003811115613cf957fe5b14613d0a5750915060009050613cce565b613d1481866142c4565b935093505050935093915050565b6000613d2c615f18565b600080613d4186670de0b6b3a76400006150cc565b90925090506000826003811115613d5457fe5b14613d7357506040805160208101909152600081529092509050612713565b600080613d80838861510b565b90925090506000826003811115613d9357fe5b14613db557506040805160208101909152600081529094509250612713915050565b604080516020810190915290815260009890975095505050505050565b6000806001600160a01b038416613e26576040805162461bcd60e51b81526020600482015260136024820152721c9958d95a5d995c881a5cc81a5b9d985b1a59606a1b604482015290519081900360640190fd5b60055460408051634ef4c3e160e01b81523060048201526001600160a01b0387811660248301526044820187905291516000939290921691634ef4c3e19160648082019260209290919082900301818787803b158015613e8557600080fd5b505af1158015613e99573d6000803e3d6000fd5b505050506040513d6020811015613eaf57600080fd5b505190508015613ec65761399a6003601f8361425e565b613ece612e6a565b60095414613ee25761399a600a60226128c0565b613eea615fef565b613ef26121dc565b6020830181905282826003811115613f0657fe5b6003811115613f1157fe5b9052506000905081516003811115613f2557fe5b14613f4157613a4a600960218360000151600381111561324757fe5b613f4b87866144c7565b60a08201819052604080516020808201909252908301518152613f6e9190615e5b565b6040830181905282826003811115613f8257fe5b6003811115613f8d57fe5b9052506000905081516003811115613fa157fe5b14613ff3576040805162461bcd60e51b815260206004820181905260248201527f4d494e545f45584348414e47455f43414c43554c4154494f4e5f4641494c4544604482015290519081900360640190fd5b614003600d5482604001516142e7565b606083018190528282600381111561401757fe5b600381111561402257fe5b905250600090508151600381111561403657fe5b146140725760405162461bcd60e51b81526004018080602001828103825260288152602001806162fb6028913960400191505060405180910390fd5b6001600160a01b0386166000908152600e602052604090819020549082015161409b91906142e7565b60808301819052828260038111156140af57fe5b60038111156140ba57fe5b90525060009050815160038111156140ce57fe5b1461410a5760405162461bcd60e51b815260040180806020018281038252602b815260200180616160602b913960400191505060405180910390fd5b606080820151600d556080808301516001600160a01b03808a166000818152600e60209081526040918290209490945560a0870151818801518251948f16855294840192909252828101919091529381019190915291517f297989b84a5f5b82d2ee0c266504c19bd9b10b410f187dc72ca4b0f0faecb3459281900390910190a1604080820151815190815290516001600160a01b03881691309160008051602061621e8339815191529181900360200190a360055460a082015160408084015181516341c728b960e01b81523060048201526001600160a01b038b8116602483015260448201949094526064810191909152905191909216916341c728b991608480830192600092919082900301818387803b15801561422a57600080fd5b505af115801561423e573d6000803e3d6000fd5b506000925061424b915050565b8160a00151935093505050935093915050565b60007f45b96fe442630264581b197e84bbada861235052c5a1aadfff9ea4e40a969aa084601181111561428d57fe5b84605681111561429957fe5b604080519283526020830191909152818101859052519081900360600190a183601181111561140257fe5b6000808383116142db575060009050818303612713565b50600390506000612713565b6000808383018481106142ff57600092509050612713565b506002915060009050612713565b6000614317615f18565b6000806143288660000151866150cc565b9092509050600082600381111561433b57fe5b1461435a57506040805160208101909152600081529092509050612713565b60408051602081019091529081526000969095509350505050565b51670de0b6b3a7640000900490565b600081158061439f5750508082028282828161439c57fe5b04145b610e1a576040805162461bcd60e51b815260206004820152600c60248201526b6d756c2d6f766572666c6f7760a01b604482015290519081900360640190fd5b6000806000806143ed612e6a565b6009541461440c57614401600a604f6128c0565b93509150612e659050565b61441633866144c7565b905080600c54019150600c54821015614476576040805162461bcd60e51b815260206004820181905260248201527f61646420726573657276657320756e6578706563746564206f766572666c6f77604482015290519081900360640190fd5b600c829055604080513381526020810183905280820184905290517fa91e67c5ea634cd43a12c5a482724b03de01e85ca68702a53d0c2f45cb7c1dc59181900360600190a160009350915050915091565b601154604080516323b872dd60e01b81526001600160a01b038581166004830152306024830152604482018590529151600093929092169182916323b872dd91606480830192602092919082900301818887803b15801561452757600080fd5b505af115801561453b573d6000803e3d6000fd5b505050506040513d602081101561455157600080fd5b505161458e5760405162461bcd60e51b81526004018080602001828103825260248152602001806162a26024913960400191505060405180910390fd5b601354601154601454601554604080516370a0823160e01b8152306004820181905291516001600160a01b03968716969586169594851694909316928692633b4da69f92909187916370a08231916024808301926020929190829003018186803b1580156145fb57600080fd5b505afa15801561460f573d6000803e3d6000fd5b505050506040513d602081101561462557600080fd5b5051604080516001600160e01b031960e086901b1681526001600160a01b039093166004840152602483019190915251604480830192600092919082900301818387803b15801561467557600080fd5b505af1158015614689573d6000803e3d6000fd5b505060408051633612d9a360e11b81523060048201529051600093506001600160a01b0385169250636c25b34691602480820192602092909190829003018186803b1580156146d757600080fd5b505afa1580156146eb573d6000803e3d6000fd5b505050506040513d602081101561470157600080fd5b50516040805163324abb3160e21b815290519192506000916001600160a01b0386169163c92aecc4916004808301926020929190829003018186803b15801561474957600080fd5b505afa15801561475d573d6000803e3d6000fd5b505050506040513d602081101561477357600080fd5b5051828161477d57fe5b049050836001600160a01b031663049878f3826040518263ffffffff1660e01b815260040180828152602001915050600060405180830381600087803b1580156147c657600080fd5b505af11580156147da573d6000803e3d6000fd5b509a9c9b505050505050505050505050565b6013546014546040805163324abb3160e21b815290516001600160a01b03938416939092169160009161489191849163c92aecc4916004808301926020929190829003018186803b15801561484057600080fd5b505afa158015614854573d6000803e3d6000fd5b505050506040513d602081101561486a57600080fd5b5051614882866b033b2e3c9fd0803ce8000000614384565b8161488957fe5b046001615e72565b9050816001600160a01b0316637f8661a1826040518263ffffffff1660e01b815260040180828152602001915050600060405180830381600087803b1580156148d957600080fd5b505af11580156148ed573d6000803e3d6000fd5b50505050826001600160a01b031663ef693bed86866040518363ffffffff1660e01b815260040180836001600160a01b03166001600160a01b0316815260200182815260200192505050600060405180830381600087803b1580156110b557600080fd5b600082158061495e575081155b6149995760405162461bcd60e51b81526004018080602001828103825260348152602001806163236034913960400191505060405180910390fd5b6149a1615fef565b6149a96121dc565b60208301819052828260038111156149bd57fe5b60038111156149c857fe5b90525060009050815160038111156149dc57fe5b14614a00576149f86009602b8360000151600381111561324757fe5b915050611577565b8315614a7c57604080820185905280516020808201909252908201518152614a2890856126c6565b6060830181905282826003811115614a3c57fe5b6003811115614a4757fe5b9052506000905081516003811115614a5b57fe5b14614a77576149f8600960298360000151600381111561324757fe5b614aef565b614a988360405180602001604052808460200151815250615e5b565b6040830181905282826003811115614aac57fe5b6003811115614ab757fe5b9052506000905081516003811115614acb57fe5b14614ae7576149f86009602a8360000151600381111561324757fe5b606081018390525b600554604080830151815163eabe7d9160e01b81523060048201526001600160a01b03898116602483015260448201929092529151600093919091169163eabe7d9191606480830192602092919082900301818787803b158015614b5257600080fd5b505af1158015614b66573d6000803e3d6000fd5b505050506040513d6020811015614b7c57600080fd5b505190508015614b9c57614b93600360288361425e565b92505050611577565b614ba4612e6a565b60095414614bb857614b93600a602c6128c0565b614bc8600d5483604001516142c4565b6080840181905283826003811115614bdc57fe5b6003811115614be757fe5b9052506000905082516003811115614bfb57fe5b14614c1757614b936009602e8460000151600381111561324757fe5b6001600160a01b0386166000908152600e6020526040908190205490830151614c4091906142c4565b60a0840181905283826003811115614c5457fe5b6003811115614c5f57fe5b9052506000905082516003811115614c7357fe5b14614c8f57614b936009602d8460000151600381111561324757fe5b8160600151614c9c61271a565b1015614cae57614b93600e602f6128c0565b600080600560009054906101000a90046001600160a01b03166001600160a01b03166304ef9d586040518163ffffffff1660e01b815260040160206040518083038186803b158015614cff57600080fd5b505afa158015614d13573d6000803e3d6000fd5b505050506040513d6020811015614d2957600080fd5b505115614f8357606084015160055460408051629df3ab60e31b81529051614dac93926001600160a01b0316916304ef9d58916004808301926020929190829003018186803b158015614d7b57600080fd5b505afa158015614d8f573d6000803e3d6000fd5b505050506040513d6020811015614da557600080fd5b50516150cc565b92508285826003811115614dbc57fe5b6003811115614dc757fe5b9052506000905084516003811115614ddb57fe5b14614e0257614df7600960568660000151600381111561324757fe5b945050505050611577565b614e1482670de0b6b3a764000061510b565b92508285826003811115614e2457fe5b6003811115614e2f57fe5b9052506000905084516003811115614e4357fe5b14614e5f57614df7600960568660000151600381111561324757fe5b614e6d8460600151836142c4565b91508185826003811115614e7d57fe5b6003811115614e8857fe5b9052506000905084516003811115614e9c57fe5b14614eb857614df7600960568660000151600381111561324757fe5b6005546040805163c5f956af60e01b81529051614f30926001600160a01b03169163c5f956af916004808301926020929190829003018186803b158015614efe57600080fd5b505afa158015614f12573d6000803e3d6000fd5b505050506040513d6020811015614f2857600080fd5b5051836147ec565b60408085015181516001600160a01b038b168152602081018590528083019190915290517fccf8e53b86a99b7e9ecf796342c165764d66154780f638c08e6241d711fba6d49181900360600190a1614f8a565b5060608301515b614f9488826147ec565b6080840151600d5560a08401516001600160a01b0389166000818152600e6020908152604091829020939093558087015181519081529051309360008051602061621e833981519152928290030190a360408085015181516001600160a01b038b168152602081018490528083019190915290517fe5b754fb1abb7f01b499791d0b820ae3b6af3424ac1c59768edb53f4ec31a9299181900360600190a1600554606085015160408087015181516351dff98960e01b81523060048201526001600160a01b038d8116602483015260448201949094526064810191909152905191909216916351dff98991608480830192600092919082900301818387803b15801561509f57600080fd5b505af11580156150b3573d6000803e3d6000fd5b50600092506150c0915050565b98975050505050505050565b600080836150df57506000905080612713565b838302838582816150ec57fe5b041461510057506002915060009050612713565b600092509050612713565b6000808261511f5750600190506000612713565b600083858161512a57fe5b04915091509250929050565b60055460408051634ef4c3e160e01b81523060048201526001600160a01b03858116602483015260448201859052915160009384938493911691634ef4c3e19160648082019260209290919082900301818787803b15801561519757600080fd5b505af11580156151ab573d6000803e3d6000fd5b505050506040513d60208110156151c157600080fd5b5051905080156151e5576151d86003601f8361425e565b9250600091506127139050565b6151ed612e6a565b60095414615201576151d8600a60226128c0565b615209615fef565b6152116121dc565b602083018190528282600381111561522557fe5b600381111561523057fe5b905250600090508151600381111561524457fe5b1461526e57615260600960218360000151600381111561324757fe5b935060009250612713915050565b61527886866144c7565b60a0820181905260408051602080820190925290830151815261529b9190615e5b565b60408301819052828260038111156152af57fe5b60038111156152ba57fe5b90525060009050815160038111156152ce57fe5b14615320576040805162461bcd60e51b815260206004820181905260248201527f4d494e545f45584348414e47455f43414c43554c4154494f4e5f4641494c4544604482015290519081900360640190fd5b615330600d5482604001516142e7565b606083018190528282600381111561534457fe5b600381111561534f57fe5b905250600090508151600381111561536357fe5b1461539f5760405162461bcd60e51b81526004018080602001828103825260288152602001806162fb6028913960400191505060405180910390fd5b6001600160a01b0386166000908152600e60205260409081902054908201516153c891906142e7565b60808301819052828260038111156153dc57fe5b60038111156153e757fe5b90525060009050815160038111156153fb57fe5b146154375760405162461bcd60e51b815260040180806020018281038252602b815260200180616160602b913960400191505060405180910390fd5b606080820151600d5560808201516001600160a01b0388166000818152600e60209081526040918290209390935560a0850151818601518251938452938301528181019290925290517f4c209b5fc8ad50758f13e2e1088ba56a560dff690a1c6fef26394f4c03821c4f929181900390910190a1604080820151815190815290516001600160a01b03881691309160008051602061621e8339815191529181900360200190a360055460a082015160408084015181516341c728b960e01b81523060048201526001600160a01b038b8116602483015260448201949094526064810191909152905191909216916341c728b991608480830192600092919082900301818387803b15801561554a57600080fd5b505af115801561555e573d6000803e3d6000fd5b506000925061556b915050565b8160a001519350935050509250929050565b600080600061558a615f18565b615594878761430d565b909250905060008260038111156155a757fe5b146155b85750915060009050613cce565b613d146155c482614375565b866142e7565b6005546040805163368f515360e21b81523060048201526001600160a01b0385811660248301526044820185905291516000938493169163da3d454c91606480830192602092919082900301818787803b15801561562757600080fd5b505af115801561563b573d6000803e3d6000fd5b505050506040513d602081101561565157600080fd5b505190508015615670576156686003600e8361425e565b915050610e1a565b615678612e6a565b6009541461568b57615668600a806128c0565b8261569461271a565b10156156a657615668600e60096128c0565b6156ae616026565b6156b785612db6565b60208301819052828260038111156156cb57fe5b60038111156156d657fe5b90525060009050815160038111156156ea57fe5b1461570f57615706600960078360000151600381111561324757fe5b92505050610e1a565b61571d8160200151856142e7565b604083018190528282600381111561573157fe5b600381111561573c57fe5b905250600090508151600381111561575057fe5b1461576c576157066009600c8360000151600381111561324757fe5b615778600b54856142e7565b606083018190528282600381111561578c57fe5b600381111561579757fe5b90525060009050815160038111156157ab57fe5b146157c7576157066009600b8360000151600381111561324757fe5b6157d185856147ec565b604080820180516001600160a01b03881660008181526010602090815290859020928355600a54600190930192909255606080860151600b81905593518551928352928201899052818501929092529081019190915290517f13ed6866d4e1ee6da46f845c46d7e54120883d75c5ea9a2dacc1c4ca8984ab809181900360800190a160055460408051635c77860560e01b81523060048201526001600160a01b0388811660248301526044820188905291519190921691635c77860591606480830192600092919082900301818387803b1580156158ae57600080fd5b505af11580156158c2573d6000803e3d6000fd5b50600092506158cf915050565b95945050505050565b60055460408051632fe3f38f60e11b81523060048201526001600160a01b0384811660248301528781166044830152868116606483015260848201869052915160009384938493911691635fc7e71e9160a48082019260209290919082900301818787803b15801561594957600080fd5b505af115801561595d573d6000803e3d6000fd5b505050506040513d602081101561597357600080fd5b5051905080156159975761598a600360128361425e565b925060009150615e529050565b61599f612e6a565b600954146159b35761598a600a60166128c0565b6159bb612e6a565b846001600160a01b0316636c540baf6040518163ffffffff1660e01b815260040160206040518083038186803b1580156159f457600080fd5b505afa158015615a08573d6000803e3d6000fd5b505050506040513d6020811015615a1e57600080fd5b505114615a315761598a600a60116128c0565b866001600160a01b0316866001600160a01b03161415615a575761598a600660176128c0565b84615a685761598a600760156128c0565b600019851415615a7e5761598a600760146128c0565b600080615a8c8989896138f0565b90925090508115615abc57615aad826011811115615aa657fe5b60186128c0565b945060009350615e5292505050565b6005546040805163c488847b60e01b81523060048201526001600160a01b038981166024830152604482018590528251600094859492169263c488847b926064808301939192829003018186803b158015615b1657600080fd5b505afa158015615b2a573d6000803e3d6000fd5b505050506040513d6040811015615b4057600080fd5b50805160209091015190925090508115615b8b5760405162461bcd60e51b815260040180806020018281038252603381526020018061626f6033913960400191505060405180910390fd5b80886001600160a01b03166370a082318c6040518263ffffffff1660e01b815260040180826001600160a01b03166001600160a01b0316815260200191505060206040518083038186803b158015615be257600080fd5b505afa158015615bf6573d6000803e3d6000fd5b505050506040513d6020811015615c0c57600080fd5b50511015615c61576040805162461bcd60e51b815260206004820152601860248201527f4c49515549444154455f5345495a455f544f4f5f4d5543480000000000000000604482015290519081900360640190fd5b60006001600160a01b038916301415615c8757615c80308d8d856133b7565b9050615d11565b6040805163b2a02ff160e01b81526001600160a01b038e811660048301528d81166024830152604482018590529151918b169163b2a02ff1916064808201926020929091908290030181600087803b158015615ce257600080fd5b505af1158015615cf6573d6000803e3d6000fd5b505050506040513d6020811015615d0c57600080fd5b505190505b8015615d5b576040805162461bcd60e51b81526020600482015260146024820152731d1bdad95b881cd95a5e9d5c994819985a5b195960621b604482015290519081900360640190fd5b604080516001600160a01b03808f168252808e1660208301528183018790528b1660608201526080810184905290517f298637f684da70674f26509b10f07ec2fbc77a335ab1e7d6215a4b2484d8bb529181900360a00190a1600554604080516347ef3b3b60e01b81523060048201526001600160a01b038c811660248301528f811660448301528e811660648301526084820188905260a48201869052915191909216916347ef3b3b9160c480830192600092919082900301818387803b158015615e2657600080fd5b505af1158015615e3a573d6000803e3d6000fd5b5060009250615e47915050565b975092955050505050505b94509492505050565b6000806000615e68615f18565b6126dd8686615eb9565b80820182811015610e1a576040805162461bcd60e51b815260206004820152600c60248201526b6164642d6f766572666c6f7760a01b604482015290519081900360640190fd5b6000615ec3615f18565b600080615ed8670de0b6b3a7640000876150cc565b90925090506000826003811115615eeb57fe5b14615f0a57506040805160208101909152600081529092509050612713565b61270c818660000151613d22565b6040518060200160405280600081525090565b828054600181600116156101000203166002900490600052602060002090601f016020900481019282601f10615f6c57805160ff1916838001178555615f99565b82800160010185558215615f99579182015b82811115615f99578251825591602001919060010190615f7e565b50615fa592915061604f565b5090565b6040805161010081019091528060008152602001600081526020016000815260200160008152602001600081526020016000815260200160008152602001600081525090565b6040805160c08101909152806000815260200160008152602001600081526020016000815260200160008152602001600081525090565b604080516080810190915280600081526020016000815260200160008152602001600081525090565b61120091905b80821115615fa5576000815560010161605556fe6f6e6c792061646d696e206d617920696e697469616c697a6520746865206d61726b65746d61726b6574206d6179206f6e6c7920626520696e697469616c697a6564206f6e63656f6e6c79207468652061646d696e206d617920696e697469616c697a652074686520696d706c656d656e746174696f6e696e697469616c2065786368616e67652072617465206d7573742062652067726561746572207468616e207a65726f2e73657474696e6720696e7465726573742072617465206d6f64656c206661696c65646f6e6c79207468652061646d696e206d6179206162616e646f6e2074686520696d706c656d656e746174696f6e4d494e545f4e45575f4143434f554e545f42414c414e43455f43414c43554c4154494f4e5f4641494c4544626f72726f7742616c616e636553746f7265643a20626f72726f7742616c616e636553746f726564496e7465726e616c206661696c6564444149206d757374206265207468652073616d6520617320756e6465726c79696e6752455041595f424f52524f575f4e45575f4143434f554e545f424f52524f575f42414c414e43455f43414c43554c4154494f4e5f4641494c4544ddf252ad1be2c89b69c2b068fc378daa952ba7f163c4a11628f55a4df523b3ef52455041595f424f52524f575f4e45575f544f54414c5f42414c414e43455f43414c43554c4154494f4e5f4641494c45444c49515549444154455f434f4d5054524f4c4c45525f43414c43554c4154455f414d4f554e545f5345495a455f4641494c4544756e6578706563746564204549502d3230207472616e7366657220696e2072657475726e65786368616e67655261746553746f7265643a2065786368616e67655261746553746f726564496e7465726e616c206661696c65644d494e545f4e45575f544f54414c5f535550504c595f43414c43554c4154494f4e5f4641494c45446f6e65206f662072656465656d546f6b656e73496e206f722072656465656d416d6f756e74496e206d757374206265207a65726fa265627a7a72315820cd61e170e904fbde30a58664c3ae17f13de703918b97e1b5f6a352a620c5c49364736f6c63430005100032",
  "linkReferences": {},
  "deployedLinkReferences": {}
}