{
  "_format": "hh-sol-artifact-1",
  "contractName": "VDaiDelegate",
  "sourceName": "contracts/VDaiDelegate.sol",
  "abi": [
    {
      "anonymous": false,
      "inputs": [
        {
          "indexed": false,
          "internalType": "uint256",
          "name": "cashPrior",
          "type": "uint256"
        },
        {
          "indexed": false,
          "internalType": "uint256",
          "name": "interestAccumulated",
          "type": "uint256"
        },
        {
          "indexed": false,
          "internalType": "uint256",
          "name": "borrowIndex",
          "type": "uint256"
        },
        {
          "indexed": false,
          "internalType": "uint256",
          "name": "totalBorrows",
          "type": "uint256"
        }
      ],
      "name": "AccrueInterest",
      "type": "event"
    },
    {
      "anonymous": false,
      "inputs": [
        {
          "indexed": true,
          "internalType": "address",
          "name": "owner",
          "type": "address"
        },
        {
          "indexed": true,
          "internalType": "address",
          "name": "spender",
          "type": "address"
        },
        {
          "indexed": false,
          "internalType": "uint256",
          "name": "amount",
          "type": "uint256"
        }
      ],
      "name": "Approval",
      "type": "event"
    },
    {
      "anonymous": false,
      "inputs": [
        {
          "indexed": false,
          "internalType": "address",
          "name": "borrower",
          "type": "address"
        },
        {
          "indexed": false,
          "internalType": "uint256",
          "name": "borrowAmount",
          "type": "uint256"
        },
        {
          "indexed": false,
          "internalType": "uint256",
          "name": "accountBorrows",
          "type": "uint256"
        },
        {
          "indexed": false,
          "internalType": "uint256",
          "name": "totalBorrows",
          "type": "uint256"
        }
      ],
      "name": "Borrow",
      "type": "event"
    },
    {
      "anonymous": false,
      "inputs": [
        {
          "indexed": false,
          "internalType": "uint256",
          "name": "error",
          "type": "uint256"
        },
        {
          "indexed": false,
          "internalType": "uint256",
          "name": "info",
          "type": "uint256"
        },
        {
          "indexed": false,
          "internalType": "uint256",
          "name": "detail",
          "type": "uint256"
        }
      ],
      "name": "Failure",
      "type": "event"
    },
    {
      "anonymous": false,
      "inputs": [
        {
          "indexed": false,
          "internalType": "address",
          "name": "liquidator",
          "type": "address"
        },
        {
          "indexed": false,
          "internalType": "address",
          "name": "borrower",
          "type": "address"
        },
        {
          "indexed": false,
          "internalType": "uint256",
          "name": "repayAmount",
          "type": "uint256"
        },
        {
          "indexed": false,
          "internalType": "address",
          "name": "vTokenCollateral",
          "type": "address"
        },
        {
          "indexed": false,
          "internalType": "uint256",
          "name": "seizeTokens",
          "type": "uint256"
        }
      ],
      "name": "LiquidateBorrow",
      "type": "event"
    },
    {
      "anonymous": false,
      "inputs": [
        {
          "indexed": false,
          "internalType": "address",
          "name": "minter",
          "type": "address"
        },
        {
          "indexed": false,
          "internalType": "uint256",
          "name": "mintAmount",
          "type": "uint256"
        },
        {
          "indexed": false,
          "internalType": "uint256",
          "name": "mintTokens",
          "type": "uint256"
        }
      ],
      "name": "Mint",
      "type": "event"
    },
    {
      "anonymous": false,
      "inputs": [
        {
          "indexed": false,
          "internalType": "address",
          "name": "payer",
          "type": "address"
        },
        {
          "indexed": false,
          "internalType": "address",
          "name": "receiver",
          "type": "address"
        },
        {
          "indexed": false,
          "internalType": "uint256",
          "name": "mintAmount",
          "type": "uint256"
        },
        {
          "indexed": false,
          "internalType": "uint256",
          "name": "mintTokens",
          "type": "uint256"
        }
      ],
      "name": "MintBehalf",
      "type": "event"
    },
    {
      "anonymous": false,
      "inputs": [
        {
          "indexed": false,
          "internalType": "address",
          "name": "oldAdmin",
          "type": "address"
        },
        {
          "indexed": false,
          "internalType": "address",
          "name": "newAdmin",
          "type": "address"
        }
      ],
      "name": "NewAdmin",
      "type": "event"
    },
    {
      "anonymous": false,
      "inputs": [
        {
          "indexed": false,
          "internalType": "contract ComptrollerInterface",
          "name": "oldComptroller",
          "type": "address"
        },
        {
          "indexed": false,
          "internalType": "contract ComptrollerInterface",
          "name": "newComptroller",
          "type": "address"
        }
      ],
      "name": "NewComptroller",
      "type": "event"
    },
    {
      "anonymous": false,
      "inputs": [
        {
          "indexed": false,
          "internalType": "contract InterestRateModel",
          "name": "oldInterestRateModel",
          "type": "address"
        },
        {
          "indexed": false,
          "internalType": "contract InterestRateModel",
          "name": "newInterestRateModel",
          "type": "address"
        }
      ],
      "name": "NewMarketInterestRateModel",
      "type": "event"
    },
    {
      "anonymous": false,
      "inputs": [
        {
          "indexed": false,
          "internalType": "address",
          "name": "oldPendingAdmin",
          "type": "address"
        },
        {
          "indexed": false,
          "internalType": "address",
          "name": "newPendingAdmin",
          "type": "address"
        }
      ],
      "name": "NewPendingAdmin",
      "type": "event"
    },
    {
      "anonymous": false,
      "inputs": [
        {
          "indexed": false,
          "internalType": "uint256",
          "name": "oldReserveFactorMantissa",
          "type": "uint256"
        },
        {
          "indexed": false,
          "internalType": "uint256",
          "name": "newReserveFactorMantissa",
          "type": "uint256"
        }
      ],
      "name": "NewReserveFactor",
      "type": "event"
    },
    {
      "anonymous": false,
      "inputs": [
        {
          "indexed": false,
          "internalType": "address",
          "name": "redeemer",
          "type": "address"
        },
        {
          "indexed": false,
          "internalType": "uint256",
          "name": "redeemAmount",
          "type": "uint256"
        },
        {
          "indexed": false,
          "internalType": "uint256",
          "name": "redeemTokens",
          "type": "uint256"
        }
      ],
      "name": "Redeem",
      "type": "event"
    },
    {
      "anonymous": false,
      "inputs": [
        {
          "indexed": false,
          "internalType": "address",
          "name": "redeemer",
          "type": "address"
        },
        {
          "indexed": false,
          "internalType": "uint256",
          "name": "feeAmount",
          "type": "uint256"
        },
        {
          "indexed": false,
          "internalType": "uint256",
          "name": "redeemTokens",
          "type": "uint256"
        }
      ],
      "name": "RedeemFee",
      "type": "event"
    },
    {
      "anonymous": false,
      "inputs": [
        {
          "indexed": false,
          "internalType": "address",
          "name": "payer",
          "type": "address"
        },
        {
          "indexed": false,
          "internalType": "address",
          "name": "borrower",
          "type": "address"
        },
        {
          "indexed": false,
          "internalType": "uint256",
          "name": "repayAmount",
          "type": "uint256"
        },
        {
          "indexed": false,
          "internalType": "uint256",
          "name": "accountBorrows",
          "type": "uint256"
        },
        {
          "indexed": false,
          "internalType": "uint256",
          "name": "totalBorrows",
          "type": "uint256"
        }
      ],
      "name": "RepayBorrow",
      "type": "event"
    },
    {
      "anonymous": false,
      "inputs": [
        {
          "indexed": false,
          "internalType": "address",
          "name": "benefactor",
          "type": "address"
        },
        {
          "indexed": false,
          "internalType": "uint256",
          "name": "addAmount",
          "type": "uint256"
        },
        {
          "indexed": false,
          "internalType": "uint256",
          "name": "newTotalReserves",
          "type": "uint256"
        }
      ],
      "name": "ReservesAdded",
      "type": "event"
    },
    {
      "anonymous": false,
      "inputs": [
        {
          "indexed": false,
          "internalType": "address",
          "name": "admin",
          "type": "address"
        },
        {
          "indexed": false,
          "internalType": "uint256",
          "name": "reduceAmount",
          "type": "uint256"
        },
        {
          "indexed": false,
          "internalType": "uint256",
          "name": "newTotalReserves",
          "type": "uint256"
        }
      ],
      "name": "ReservesReduced",
      "type": "event"
    },
    {
      "anonymous": false,
      "inputs": [
        {
          "indexed": true,
          "internalType": "address",
          "name": "from",
          "type": "address"
        },
        {
          "indexed": true,
          "internalType": "address",
          "name": "to",
          "type": "address"
        },
        {
          "indexed": false,
          "internalType": "uint256",
          "name": "amount",
          "type": "uint256"
        }
      ],
      "name": "Transfer",
      "type": "event"
    },
    {
      "constant": false,
      "inputs": [],
      "name": "_acceptAdmin",
      "outputs": [
        {
          "internalType": "uint256",
          "name": "",
          "type": "uint256"
        }
      ],
      "payable": false,
      "stateMutability": "nonpayable",
      "type": "function"
    },
    {
      "constant": false,
      "inputs": [
        {
          "internalType": "uint256",
          "name": "addAmount",
          "type": "uint256"
        }
      ],
      "name": "_addReserves",
      "outputs": [
        {
          "internalType": "uint256",
          "name": "",
          "type": "uint256"
        }
      ],
      "payable": false,
      "stateMutability": "nonpayable",
      "type": "function"
    },
    {
      "constant": false,
      "inputs": [
        {
          "internalType": "bytes",
          "name": "data",
          "type": "bytes"
        }
      ],
      "name": "_becomeImplementation",
      "outputs": [],
      "payable": false,
      "stateMutability": "nonpayable",
      "type": "function"
    },
    {
      "constant": false,
      "inputs": [
        {
          "internalType": "uint256",
          "name": "reduceAmount",
          "type": "uint256"
        }
      ],
      "name": "_reduceReserves",
      "outputs": [
        {
          "internalType": "uint256",
          "name": "",
          "type": "uint256"
        }
      ],
      "payable": false,
      "stateMutability": "nonpayable",
      "type": "function"
    },
    {
      "constant": false,
      "inputs": [],
      "name": "_resignImplementation",
      "outputs": [],
      "payable": false,
      "stateMutability": "nonpayable",
      "type": "function"
    },
    {
      "constant": false,
      "inputs": [
        {
          "internalType": "contract ComptrollerInterface",
          "name": "newComptroller",
          "type": "address"
        }
      ],
      "name": "_setComptroller",
      "outputs": [
        {
          "internalType": "uint256",
          "name": "",
          "type": "uint256"
        }
      ],
      "payable": false,
      "stateMutability": "nonpayable",
      "type": "function"
    },
    {
      "constant": false,
      "inputs": [
        {
          "internalType": "contract InterestRateModel",
          "name": "newInterestRateModel",
          "type": "address"
        }
      ],
      "name": "_setInterestRateModel",
      "outputs": [
        {
          "internalType": "uint256",
          "name": "",
          "type": "uint256"
        }
      ],
      "payable": false,
      "stateMutability": "nonpayable",
      "type": "function"
    },
    {
      "constant": false,
      "inputs": [
        {
          "internalType": "address payable",
          "name": "newPendingAdmin",
          "type": "address"
        }
      ],
      "name": "_setPendingAdmin",
      "outputs": [
        {
          "internalType": "uint256",
          "name": "",
          "type": "uint256"
        }
      ],
      "payable": false,
      "stateMutability": "nonpayable",
      "type": "function"
    },
    {
      "constant": false,
      "inputs": [
        {
          "internalType": "uint256",
          "name": "newReserveFactorMantissa",
          "type": "uint256"
        }
      ],
      "name": "_setReserveFactor",
      "outputs": [
        {
          "internalType": "uint256",
          "name": "",
          "type": "uint256"
        }
      ],
      "payable": false,
      "stateMutability": "nonpayable",
      "type": "function"
    },
    {
      "constant": true,
      "inputs": [],
      "name": "accrualBlockNumber",
      "outputs": [
        {
          "internalType": "uint256",
          "name": "",
          "type": "uint256"
        }
      ],
      "payable": false,
      "stateMutability": "view",
      "type": "function"
    },
    {
      "constant": false,
      "inputs": [],
      "name": "accrueInterest",
      "outputs": [
        {
          "internalType": "uint256",
          "name": "",
          "type": "uint256"
        }
      ],
      "payable": false,
      "stateMutability": "nonpayable",
      "type": "function"
    },
    {
      "constant": true,
      "inputs": [],
      "name": "admin",
      "outputs": [
        {
          "internalType": "address payable",
          "name": "",
          "type": "address"
        }
      ],
      "payable": false,
      "stateMutability": "view",
      "type": "function"
    },
    {
      "constant": true,
      "inputs": [
        {
          "internalType": "address",
          "name": "owner",
          "type": "address"
        },
        {
          "internalType": "address",
          "name": "spender",
          "type": "address"
        }
      ],
      "name": "allowance",
      "outputs": [
        {
          "internalType": "uint256",
          "name": "",
          "type": "uint256"
        }
      ],
      "payable": false,
      "stateMutability": "view",
      "type": "function"
    },
    {
      "constant": false,
      "inputs": [
        {
          "internalType": "address",
          "name": "spender",
          "type": "address"
        },
        {
          "internalType": "uint256",
          "name": "amount",
          "type": "uint256"
        }
      ],
      "name": "approve",
      "outputs": [
        {
          "internalType": "bool",
          "name": "",
          "type": "bool"
        }
      ],
      "payable": false,
      "stateMutability": "nonpayable",
      "type": "function"
    },
    {
      "constant": true,
      "inputs": [
        {
          "internalType": "address",
          "name": "owner",
          "type": "address"
        }
      ],
      "name": "balanceOf",
      "outputs": [
        {
          "internalType": "uint256",
          "name": "",
          "type": "uint256"
        }
      ],
      "payable": false,
      "stateMutability": "view",
      "type": "function"
    },
    {
      "constant": false,
      "inputs": [
        {
          "internalType": "address",
          "name": "owner",
          "type": "address"
        }
      ],
      "name": "balanceOfUnderlying",
      "outputs": [
        {
          "internalType": "uint256",
          "name": "",
          "type": "uint256"
        }
      ],
      "payable": false,
      "stateMutability": "nonpayable",
      "type": "function"
    },
    {
      "constant": false,
      "inputs": [
        {
          "internalType": "uint256",
          "name": "borrowAmount",
          "type": "uint256"
        }
      ],
      "name": "borrow",
      "outputs": [
        {
          "internalType": "uint256",
          "name": "",
          "type": "uint256"
        }
      ],
      "payable": false,
      "stateMutability": "nonpayable",
      "type": "function"
    },
    {
      "constant": false,
      "inputs": [
        {
          "internalType": "address",
          "name": "account",
          "type": "address"
        }
      ],
      "name": "borrowBalanceCurrent",
      "outputs": [
        {
          "internalType": "uint256",
          "name": "",
          "type": "uint256"
        }
      ],
      "payable": false,
      "stateMutability": "nonpayable",
      "type": "function"
    },
    {
      "constant": true,
      "inputs": [
        {
          "internalType": "address",
          "name": "account",
          "type": "address"
        }
      ],
      "name": "borrowBalanceStored",
      "outputs": [
        {
          "internalType": "uint256",
          "name": "",
          "type": "uint256"
        }
      ],
      "payable": false,
      "stateMutability": "view",
      "type": "function"
    },
    {
      "constant": true,
      "inputs": [],
      "name": "borrowIndex",
      "outputs": [
        {
          "internalType": "uint256",
          "name": "",
          "type": "uint256"
        }
      ],
      "payable": false,
      "stateMutability": "view",
      "type": "function"
    },
    {
      "constant": true,
      "inputs": [],
      "name": "borrowRatePerBlock",
      "outputs": [
        {
          "internalType": "uint256",
          "name": "",
          "type": "uint256"
        }
      ],
      "payable": false,
      "stateMutability": "view",
      "type": "function"
    },
    {
      "constant": true,
      "inputs": [],
      "name": "comptroller",
      "outputs": [
        {
          "internalType": "contract ComptrollerInterface",
          "name": "",
          "type": "address"
        }
      ],
      "payable": false,
      "stateMutability": "view",
      "type": "function"
    },
    {
      "constant": true,
      "inputs": [],
      "name": "daiJoinAddress",
      "outputs": [
        {
          "internalType": "address",
          "name": "",
          "type": "address"
        }
      ],
      "payable": false,
      "stateMutability": "view",
      "type": "function"
    },
    {
      "constant": true,
      "inputs": [],
      "name": "decimals",
      "outputs": [
        {
          "internalType": "uint8",
          "name": "",
          "type": "uint8"
        }
      ],
      "payable": false,
      "stateMutability": "view",
      "type": "function"
    },
    {
      "constant": false,
      "inputs": [],
      "name": "exchangeRateCurrent",
      "outputs": [
        {
          "internalType": "uint256",
          "name": "",
          "type": "uint256"
        }
      ],
      "payable": false,
      "stateMutability": "nonpayable",
      "type": "function"
    },
    {
      "constant": true,
      "inputs": [],
      "name": "exchangeRateStored",
      "outputs": [
        {
          "internalType": "uint256",
          "name": "",
          "type": "uint256"
        }
      ],
      "payable": false,
      "stateMutability": "view",
      "type": "function"
    },
    {
      "constant": true,
      "inputs": [
        {
          "internalType": "address",
          "name": "account",
          "type": "address"
        }
      ],
      "name": "getAccountSnapshot",
      "outputs": [
        {
          "internalType": "uint256",
          "name": "",
          "type": "uint256"
        },
        {
          "internalType": "uint256",
          "name": "",
          "type": "uint256"
        },
        {
          "internalType": "uint256",
          "name": "",
          "type": "uint256"
        },
        {
          "internalType": "uint256",
          "name": "",
          "type": "uint256"
        }
      ],
      "payable": false,
      "stateMutability": "view",
      "type": "function"
    },
    {
      "constant": true,
      "inputs": [],
      "name": "getCash",
      "outputs": [
        {
          "internalType": "uint256",
          "name": "",
          "type": "uint256"
        }
      ],
      "payable": false,
      "stateMutability": "view",
      "type": "function"
    },
    {
      "constant": true,
      "inputs": [],
      "name": "implementation",
      "outputs": [
        {
          "internalType": "address",
          "name": "",
          "type": "address"
        }
      ],
      "payable": false,
      "stateMutability": "view",
      "type": "function"
    },
    {
      "constant": false,
      "inputs": [
        {
          "internalType": "address",
          "name": "underlying_",
          "type": "address"
        },
        {
          "internalType": "contract ComptrollerInterface",
          "name": "comptroller_",
          "type": "address"
        },
        {
          "internalType": "contract InterestRateModel",
          "name": "interestRateModel_",
          "type": "address"
        },
        {
          "internalType": "uint256",
          "name": "initialExchangeRateMantissa_",
          "type": "uint256"
        },
        {
          "internalType": "string",
          "name": "name_",
          "type": "string"
        },
        {
          "internalType": "string",
          "name": "symbol_",
          "type": "string"
        },
        {
          "internalType": "uint8",
          "name": "decimals_",
          "type": "uint8"
        }
      ],
      "name": "initialize",
      "outputs": [],
      "payable": false,
      "stateMutability": "nonpayable",
      "type": "function"
    },
    {
      "constant": false,
      "inputs": [
        {
          "internalType": "contract ComptrollerInterface",
          "name": "comptroller_",
          "type": "address"
        },
        {
          "internalType": "contract InterestRateModel",
          "name": "interestRateModel_",
          "type": "address"
        },
        {
          "internalType": "uint256",
          "name": "initialExchangeRateMantissa_",
          "type": "uint256"
        },
        {
          "internalType": "string",
          "name": "name_",
          "type": "string"
        },
        {
          "internalType": "string",
          "name": "symbol_",
          "type": "string"
        },
        {
          "internalType": "uint8",
          "name": "decimals_",
          "type": "uint8"
        }
      ],
      "name": "initialize",
      "outputs": [],
      "payable": false,
      "stateMutability": "nonpayable",
      "type": "function"
    },
    {
      "constant": true,
      "inputs": [],
      "name": "interestRateModel",
      "outputs": [
        {
          "internalType": "contract InterestRateModel",
          "name": "",
          "type": "address"
        }
      ],
      "payable": false,
      "stateMutability": "view",
      "type": "function"
    },
    {
      "constant": true,
      "inputs": [],
      "name": "isVToken",
      "outputs": [
        {
          "internalType": "bool",
          "name": "",
          "type": "bool"
        }
      ],
      "payable": false,
      "stateMutability": "view",
      "type": "function"
    },
    {
      "constant": false,
      "inputs": [
        {
          "internalType": "address",
          "name": "borrower",
          "type": "address"
        },
        {
          "internalType": "uint256",
          "name": "repayAmount",
          "type": "uint256"
        },
        {
          "internalType": "contract VTokenInterface",
          "name": "vTokenCollateral",
          "type": "address"
        }
      ],
      "name": "liquidateBorrow",
      "outputs": [
        {
          "internalType": "uint256",
          "name": "",
          "type": "uint256"
        }
      ],
      "payable": false,
      "stateMutability": "nonpayable",
      "type": "function"
    },
    {
      "constant": false,
      "inputs": [
        {
          "internalType": "uint256",
          "name": "mintAmount",
          "type": "uint256"
        }
      ],
      "name": "mint",
      "outputs": [
        {
          "internalType": "uint256",
          "name": "",
          "type": "uint256"
        }
      ],
      "payable": false,
      "stateMutability": "nonpayable",
      "type": "function"
    },
    {
      "constant": false,
      "inputs": [
        {
          "internalType": "address",
          "name": "receiver",
          "type": "address"
        },
        {
          "internalType": "uint256",
          "name": "mintAmount",
          "type": "uint256"
        }
      ],
      "name": "mintBehalf",
      "outputs": [
        {
          "internalType": "uint256",
          "name": "",
          "type": "uint256"
        }
      ],
      "payable": false,
      "stateMutability": "nonpayable",
      "type": "function"
    },
    {
      "constant": true,
      "inputs": [],
      "name": "name",
      "outputs": [
        {
          "internalType": "string",
          "name": "",
          "type": "string"
        }
      ],
      "payable": false,
      "stateMutability": "view",
      "type": "function"
    },
    {
      "constant": true,
      "inputs": [],
      "name": "pendingAdmin",
      "outputs": [
        {
          "internalType": "address payable",
          "name": "",
          "type": "address"
        }
      ],
      "payable": false,
      "stateMutability": "view",
      "type": "function"
    },
    {
      "constant": true,
      "inputs": [],
      "name": "potAddress",
      "outputs": [
        {
          "internalType": "address",
          "name": "",
          "type": "address"
        }
      ],
      "payable": false,
      "stateMutability": "view",
      "type": "function"
    },
    {
      "constant": false,
      "inputs": [
        {
          "internalType": "uint256",
          "name": "redeemTokens",
          "type": "uint256"
        }
      ],
      "name": "redeem",
      "outputs": [
        {
          "internalType": "uint256",
          "name": "",
          "type": "uint256"
        }
      ],
      "payable": false,
      "stateMutability": "nonpayable",
      "type": "function"
    },
    {
      "constant": false,
      "inputs": [
        {
          "internalType": "uint256",
          "name": "redeemAmount",
          "type": "uint256"
        }
      ],
      "name": "redeemUnderlying",
      "outputs": [
        {
          "internalType": "uint256",
          "name": "",
          "type": "uint256"
        }
      ],
      "payable": false,
      "stateMutability": "nonpayable",
      "type": "function"
    },
    {
      "constant": false,
      "inputs": [
        {
          "internalType": "uint256",
          "name": "repayAmount",
          "type": "uint256"
        }
      ],
      "name": "repayBorrow",
      "outputs": [
        {
          "internalType": "uint256",
          "name": "",
          "type": "uint256"
        }
      ],
      "payable": false,
      "stateMutability": "nonpayable",
      "type": "function"
    },
    {
      "constant": false,
      "inputs": [
        {
          "internalType": "address",
          "name": "borrower",
          "type": "address"
        },
        {
          "internalType": "uint256",
          "name": "repayAmount",
          "type": "uint256"
        }
      ],
      "name": "repayBorrowBehalf",
      "outputs": [
        {
          "internalType": "uint256",
          "name": "",
          "type": "uint256"
        }
      ],
      "payable": false,
      "stateMutability": "nonpayable",
      "type": "function"
    },
    {
      "constant": true,
      "inputs": [],
      "name": "reserveFactorMantissa",
      "outputs": [
        {
          "internalType": "uint256",
          "name": "",
          "type": "uint256"
        }
      ],
      "payable": false,
      "stateMutability": "view",
      "type": "function"
    },
    {
      "constant": false,
      "inputs": [
        {
          "internalType": "address",
          "name": "liquidator",
          "type": "address"
        },
        {
          "internalType": "address",
          "name": "borrower",
          "type": "address"
        },
        {
          "internalType": "uint256",
          "name": "seizeTokens",
          "type": "uint256"
        }
      ],
      "name": "seize",
      "outputs": [
        {
          "internalType": "uint256",
          "name": "",
          "type": "uint256"
        }
      ],
      "payable": false,
      "stateMutability": "nonpayable",
      "type": "function"
    },
    {
      "constant": true,
      "inputs": [],
      "name": "supplyRatePerBlock",
      "outputs": [
        {
          "internalType": "uint256",
          "name": "",
          "type": "uint256"
        }
      ],
      "payable": false,
      "stateMutability": "view",
      "type": "function"
    },
    {
      "constant": true,
      "inputs": [],
      "name": "symbol",
      "outputs": [
        {
          "internalType": "string",
          "name": "",
          "type": "string"
        }
      ],
      "payable": false,
      "stateMutability": "view",
      "type": "function"
    },
    {
      "constant": true,
      "inputs": [],
      "name": "totalBorrows",
      "outputs": [
        {
          "internalType": "uint256",
          "name": "",
          "type": "uint256"
        }
      ],
      "payable": false,
      "stateMutability": "view",
      "type": "function"
    },
    {
      "constant": false,
      "inputs": [],
      "name": "totalBorrowsCurrent",
      "outputs": [
        {
          "internalType": "uint256",
          "name": "",
          "type": "uint256"
        }
      ],
      "payable": false,
      "stateMutability": "nonpayable",
      "type": "function"
    },
    {
      "constant": true,
      "inputs": [],
      "name": "totalReserves",
      "outputs": [
        {
          "internalType": "uint256",
          "name": "",
          "type": "uint256"
        }
      ],
      "payable": false,
      "stateMutability": "view",
      "type": "function"
    },
    {
      "constant": true,
      "inputs": [],
      "name": "totalSupply",
      "outputs": [
        {
          "internalType": "uint256",
          "name": "",
          "type": "uint256"
        }
      ],
      "payable": false,
      "stateMutability": "view",
      "type": "function"
    },
    {
      "constant": false,
      "inputs": [
        {
          "internalType": "address",
          "name": "dst",
          "type": "address"
        },
        {
          "internalType": "uint256",
          "name": "amount",
          "type": "uint256"
        }
      ],
      "name": "transfer",
      "outputs": [
        {
          "internalType": "bool",
          "name": "",
          "type": "bool"
        }
      ],
      "payable": false,
      "stateMutability": "nonpayable",
      "type": "function"
    },
    {
      "constant": false,
      "inputs": [
        {
          "internalType": "address",
          "name": "src",
          "type": "address"
        },
        {
          "internalType": "address",
          "name": "dst",
          "type": "address"
        },
        {
          "internalType": "uint256",
          "name": "amount",
          "type": "uint256"
        }
      ],
      "name": "transferFrom",
      "outputs": [
        {
          "internalType": "bool",
          "name": "",
          "type": "bool"
        }
      ],
      "payable": false,
      "stateMutability": "nonpayable",
      "type": "function"
    },
    {
      "constant": true,
      "inputs": [],
      "name": "underlying",
      "outputs": [
        {
          "internalType": "address",
          "name": "",
          "type": "address"
        }
      ],
      "payable": false,
      "stateMutability": "view",
      "type": "function"
    },
    {
      "constant": true,
      "inputs": [],
      "name": "vatAddress",
      "outputs": [
        {
          "internalType": "address",
          "name": "",
          "type": "address"
        }
      ],
      "payable": false,
      "stateMutability": "view",
      "type": "function"
    }
  ],
  "bytecode": "0x6080604052616232806100136000396000f3fe608060405234801561001057600080fd5b506004361061035d5760003560e01c806370a08231116101d3578063b2a02ff111610104578063e9c714f2116100a2578063f5e3c4621161007c578063f5e3c46214610bb4578063f851a44014610bea578063f8f9da2814610bf2578063fca7820b14610bfa5761035d565b8063e9c714f214610b7e578063f2b3abbd14610b86578063f3fdb15a14610bac5761035d565b8063c37f68e2116100de578063c37f68e214610aca578063c5ebeaec14610b16578063db006a7514610b33578063dd62ed3e14610b505761035d565b8063b2a02ff114610a66578063b71d1a0c14610a9c578063bd6d894d14610ac25761035d565b806395dd919311610171578063a6afed951161014b578063a6afed9514610a22578063a9059cbb14610a2a578063aa5af0fd14610a56578063ae9d70b014610a5e5761035d565b806395dd91931461089157806399d8c1b4146108b7578063a0712d6814610a055761035d565b80638a8df2e6116101ad5780638a8df2e6146108715780638d925ccd146108795780638f840ddd1461088157806395d89b41146108895761035d565b806370a082311461082657806373acee981461084c578063852a12e3146108545761035d565b8063313ce567116102ad57806356e677281161024b578063601a0bf111610225578063601a0bf1146107f157806366ced6021461080e5780636c540baf146108165780636f307dc31461081e5761035d565b806356e677281461073d5780635c60da1b146107e15780635fe3b567146107e95761035d565b80633d9ea3a1116102875780633d9ea3a1146106ea5780633e941010146106f25780634576b5db1461070f57806347bd3718146107355761035d565b8063313ce5671461069e5780633af9e669146106bc5780633b1d21a2146106e25761035d565b806318160ddd1161031a57806323323e03116102f457806323323e03146105ec57806323b872dd146106185780632608f8181461064e578063267822471461067a5761035d565b806318160ddd14610486578063182df0f51461048e5780631a31d465146104965761035d565b806306fdde0314610362578063095ea7b3146103df5780630e7527021461041f578063153ab5051461044e578063173b99041461045857806317bfdfbc14610460575b600080fd5b61036a610c17565b6040805160208082528351818301528351919283929083019185019080838360005b838110156103a457818101518382015260200161038c565b50505050905090810190601f1680156103d15780820380516001836020036101000a031916815260200191505b509250505060405180910390f35b61040b600480360360408110156103f557600080fd5b506001600160a01b038135169060200135610ca4565b604080519115158252519081900360200190f35b61043c6004803603602081101561043557600080fd5b5035610d11565b60408051918252519081900360200190f35b610456610d27565b005b61043c610fc5565b61043c6004803603602081101561047657600080fd5b50356001600160a01b0316610fcb565b61043c61108b565b61043c611091565b610456600480360360e08110156104ac57600080fd5b6001600160a01b03823581169260208101358216926040820135909216916060820135919081019060a081016080820135600160201b8111156104ee57600080fd5b82018360208201111561050057600080fd5b803590602001918460018302840111600160201b8311171561052157600080fd5b91908080601f0160208091040260200160405190810160405280939291908181526020018383808284376000920191909152509295949360208101935035915050600160201b81111561057357600080fd5b82018360208201111561058557600080fd5b803590602001918460018302840111600160201b831117156105a657600080fd5b91908080601f0160208091040260200160405190810160405280939291908181526020018383808284376000920191909152509295505050903560ff1691506110f49050565b61043c6004803603604081101561060257600080fd5b506001600160a01b038135169060200135611188565b61040b6004803603606081101561062e57600080fd5b506001600160a01b0381358116916020810135909116906040013561119e565b61043c6004803603604081101561066457600080fd5b506001600160a01b038135169060200135611210565b61068261121d565b604080516001600160a01b039092168252519081900360200190f35b6106a661122c565b6040805160ff9092168252519081900360200190f35b61043c600480360360208110156106d257600080fd5b50356001600160a01b0316611235565b61043c6112eb565b61040b6112fa565b61043c6004803603602081101561070857600080fd5b50356112ff565b61043c6004803603602081101561072557600080fd5b50356001600160a01b031661130a565b61043c61145f565b6104566004803603602081101561075357600080fd5b810190602081018135600160201b81111561076d57600080fd5b82018360208201111561077f57600080fd5b803590602001918460018302840111600160201b831117156107a057600080fd5b91908080601f016020809104026020016040519081016040528093929190818152602001838380828437600092019190915250929550611465945050505050565b6106826114e8565b6106826114f7565b61043c6004803603602081101561080757600080fd5b5035611506565b6106826115a1565b61043c6115b0565b6106826115b6565b61043c6004803603602081101561083c57600080fd5b50356001600160a01b03166115c5565b61043c6115e0565b61043c6004803603602081101561086a57600080fd5b5035611696565b6106826116a1565b6106826116b0565b61043c6116bf565b61036a6116c5565b61043c600480360360208110156108a757600080fd5b50356001600160a01b031661171d565b610456600480360360c08110156108cd57600080fd5b6001600160a01b03823581169260208101359091169160408201359190810190608081016060820135600160201b81111561090757600080fd5b82018360208201111561091957600080fd5b803590602001918460018302840111600160201b8311171561093a57600080fd5b91908080601f0160208091040260200160405190810160405280939291908181526020018383808284376000920191909152509295949360208101935035915050600160201b81111561098c57600080fd5b82018360208201111561099e57600080fd5b803590602001918460018302840111600160201b831117156109bf57600080fd5b91908080601f0160208091040260200160405190810160405280939291908181526020018383808284376000920191909152509295505050903560ff16915061177a9050565b61043c60048036036020811015610a1b57600080fd5b5035611961565b61043c61196d565b61040b60048036036040811015610a4057600080fd5b506001600160a01b0381351690602001356119e8565b61043c611a59565b61043c611a5f565b61043c60048036036060811015610a7c57600080fd5b506001600160a01b03813581169160208101359091169060400135611afe565b61043c60048036036020811015610ab257600080fd5b50356001600160a01b0316611b6f565b61043c611bfb565b610af060048036036020811015610ae057600080fd5b50356001600160a01b0316611cb7565b604080519485526020850193909352838301919091526060830152519081900360800190f35b61043c60048036036020811015610b2c57600080fd5b5035611d4c565b61043c60048036036020811015610b4957600080fd5b5035611d57565b61043c60048036036040811015610b6657600080fd5b506001600160a01b0381358116916020013516611d62565b61043c611d8d565b61043c60048036036020811015610b9c57600080fd5b50356001600160a01b0316611e85565b610682611ebf565b61043c60048036036060811015610bca57600080fd5b506001600160a01b03813581169160208101359160409091013516611ece565b610682611ee6565b61043c611efa565b61043c60048036036020811015610c1057600080fd5b5035611f5e565b60018054604080516020600284861615610100026000190190941693909304601f81018490048402820184019092528181529291830182828015610c9c5780601f10610c7157610100808354040283529160200191610c9c565b820191906000526020600020905b815481529060010190602001808311610c7f57829003601f168201915b505050505081565b336000818152600f602090815260408083206001600160a01b03871680855290835281842086905581518681529151939493909284927f8c5be1e5ebec7d5bd14f71427d1e84f3dd0314c0f7b2291e5b200ac8c7c3b925929081900390910190a360019150505b92915050565b600080610d1d83611fdc565b509150505b919050565b60035461010090046001600160a01b03163314610d755760405162461bcd60e51b815260040180806020018281038252602d815260200180615fda602d913960400191505060405180910390fd5b60135460145460155460408051634fb3c66560e11b815290516001600160a01b039485169493841693909216918391639f678cca9160048083019260209291908290030181600087803b158015610dcb57600080fd5b505af1158015610ddf573d6000803e3d6000fd5b505050506040513d6020811015610df557600080fd5b5050604080516305f5d64360e11b815230600482015290516000916001600160a01b03851691630bebac8691602480820192602092909190829003018186803b158015610e4157600080fd5b505afa158015610e55573d6000803e3d6000fd5b505050506040513d6020811015610e6b57600080fd5b505160408051637f8661a160e01b81526004810183905290519192506001600160a01b03851691637f8661a19160248082019260009290919082900301818387803b158015610eb957600080fd5b505af1158015610ecd573d6000803e3d6000fd5b505060408051633612d9a360e11b81523060048201529051600093506001600160a01b0386169250636c25b34691602480820192602092909190829003018186803b158015610f1b57600080fd5b505afa158015610f2f573d6000803e3d6000fd5b505050506040513d6020811015610f4557600080fd5b50516040805163ef693bed60e01b81523060048201526b033b2e3c9fd0803ce80000008304602482015290519192506001600160a01b0387169163ef693bed9160448082019260009290919082900301818387803b158015610fa657600080fd5b505af1158015610fba573d6000803e3d6000fd5b505050505050505050565b60085481565b6000805460ff16611010576040805162461bcd60e51b815260206004820152600a6024820152691c994b595b9d195c995960b21b604482015290519081900360640190fd5b6000805460ff1916815561102261196d565b1461106d576040805162461bcd60e51b81526020600482015260166024820152751858d8dc9d59481a5b9d195c995cdd0819985a5b195960521b604482015290519081900360640190fd5b6110768261171d565b90505b6000805460ff19166001179055919050565b600d5481565b600080600061109e612085565b909250905060008260038111156110b157fe5b146110ed5760405162461bcd60e51b815260040180806020018281038252603581526020018061616d6035913960400191505060405180910390fd5b9150505b90565b61110286868686868661177a565b601180546001600160a01b0319166001600160a01b038981169190911791829055604080516318160ddd60e01b8152905192909116916318160ddd91600480820192602092909190829003018186803b15801561115e57600080fd5b505afa158015611172573d6000803e3d6000fd5b505050506040513d6020811015610fba57600080fd5b6000806111958484612134565b50949350505050565b6000805460ff166111e3576040805162461bcd60e51b815260206004820152600a6024820152691c994b595b9d195c995960b21b604482015290519081900360640190fd5b6000805460ff191681556111f9338686866121df565b1490506000805460ff191660011790559392505050565b60008061119584846124ed565b6004546001600160a01b031681565b60035460ff1681565b600061123f615dbf565b6040518060200160405280611252611bfb565b90526001600160a01b0384166000908152600e602052604081205491925090819061127e90849061256f565b9092509050600082600381111561129157fe5b146112e3576040805162461bcd60e51b815260206004820152601f60248201527f62616c616e636520636f756c64206e6f742062652063616c63756c6174656400604482015290519081900360640190fd5b949350505050565b60006112f56125c3565b905090565b600181565b6000610d0b826126d5565b60035460009061010090046001600160a01b03163314611337576113306001603f612769565b9050610d22565b60055460408051623f1ee960e11b815290516001600160a01b0392831692851691627e3dd2916004808301926020929190829003018186803b15801561137c57600080fd5b505afa158015611390573d6000803e3d6000fd5b505050506040513d60208110156113a657600080fd5b50516113f9576040805162461bcd60e51b815260206004820152601c60248201527f6d61726b6572206d6574686f642072657475726e65642066616c736500000000604482015290519081900360640190fd5b600580546001600160a01b0319166001600160a01b03858116918217909255604080519284168352602083019190915280517f7ac369dbd14fa5ea3f473ed67cc9d598964a77501540ba6751eb0b3decf5870d9281900390910190a160005b9392505050565b600b5481565b60035461010090046001600160a01b031633146114b35760405162461bcd60e51b8152600401808060200182810382526030815260200180615f586030913960400191505060405180910390fd5b6000808280602001905160408110156114cb57600080fd5b50805160209091015190925090506114e382826127cf565b505050565b6012546001600160a01b031681565b6005546001600160a01b031681565b6000805460ff1661154b576040805162461bcd60e51b815260206004820152600a6024820152691c994b595b9d195c995960b21b604482015290519081900360640190fd5b6000805460ff1916815561155d61196d565b905080156115835761157b81601181111561157457fe5b6030612769565b915050611079565b61158c83612aea565b9150506000805460ff19166001179055919050565b6014546001600160a01b031681565b60095481565b6011546001600160a01b031681565b6001600160a01b03166000908152600e602052604090205490565b6000805460ff16611625576040805162461bcd60e51b815260206004820152600a6024820152691c994b595b9d195c995960b21b604482015290519081900360640190fd5b6000805460ff1916815561163761196d565b14611682576040805162461bcd60e51b81526020600482015260166024820152751858d8dc9d59481a5b9d195c995cdd0819985a5b195960521b604482015290519081900360640190fd5b50600b546000805460ff1916600117905590565b6000610d0b82612bde565b6013546001600160a01b031681565b6015546001600160a01b031681565b600c5481565b6002805460408051602060018416156101000260001901909316849004601f81018490048402820184019092528181529291830182828015610c9c5780601f10610c7157610100808354040283529160200191610c9c565b600080600061172b84612c5f565b9092509050600082600381111561173e57fe5b146114585760405162461bcd60e51b81526004018080602001828103825260378152602001806160326037913960400191505060405180910390fd5b60035461010090046001600160a01b031633146117c85760405162461bcd60e51b8152600401808060200182810382526024815260200180615f116024913960400191505060405180910390fd5b6009541580156117d85750600a54155b6118135760405162461bcd60e51b8152600401808060200182810382526023815260200180615f356023913960400191505060405180910390fd5b6007849055836118545760405162461bcd60e51b8152600401808060200182810382526030815260200180615f886030913960400191505060405180910390fd5b600061185f8761130a565b905080156118b4576040805162461bcd60e51b815260206004820152601a60248201527f73657474696e6720636f6d7074726f6c6c6572206661696c6564000000000000604482015290519081900360640190fd5b6118bc612d13565b600955670de0b6b3a7640000600a556118d486612d17565b905080156119135760405162461bcd60e51b8152600401808060200182810382526022815260200180615fb86022913960400191505060405180910390fd5b8351611926906001906020870190615dd2565b50825161193a906002906020860190615dd2565b50506003805460ff90921660ff199283161790556000805490911660011790555050505050565b600080610d1d83612e8c565b60145460408051634fb3c66560e11b815290516000926001600160a01b031691639f678cca91600480830192602092919082900301818787803b1580156119b357600080fd5b505af11580156119c7573d6000803e3d6000fd5b505050506040513d60208110156119dd57600080fd5b506112f59050612f06565b6000805460ff16611a2d576040805162461bcd60e51b815260206004820152600a6024820152691c994b595b9d195c995960b21b604482015290519081900360640190fd5b6000805460ff19168155611a43333386866121df565b1490506000805460ff1916600117905592915050565b600a5481565b6006546000906001600160a01b031663b8168816611a7b6125c3565b600b54600c546008546040518563ffffffff1660e01b81526004018085815260200184815260200183815260200182815260200194505050505060206040518083038186803b158015611acd57600080fd5b505afa158015611ae1573d6000803e3d6000fd5b505050506040513d6020811015611af757600080fd5b5051905090565b6000805460ff16611b43576040805162461bcd60e51b815260206004820152600a6024820152691c994b595b9d195c995960b21b604482015290519081900360640190fd5b6000805460ff19169055611b593385858561325e565b90506000805460ff191660011790559392505050565b60035460009061010090046001600160a01b03163314611b955761133060016045612769565b600480546001600160a01b038481166001600160a01b0319831681179093556040805191909216808252602082019390935281517fca4f2f25d0898edd99413412fb94012f9e54ec8142f9b093e7720646a95b16a9929181900390910190a16000611458565b6000805460ff16611c40576040805162461bcd60e51b815260206004820152600a6024820152691c994b595b9d195c995960b21b604482015290519081900360640190fd5b6000805460ff19168155611c5261196d565b14611c9d576040805162461bcd60e51b81526020600482015260166024820152751858d8dc9d59481a5b9d195c995cdd0819985a5b195960521b604482015290519081900360640190fd5b611ca5611091565b90506000805460ff1916600117905590565b6001600160a01b0381166000908152600e6020526040812054819081908190818080611ce289612c5f565b935090506000816003811115611cf457fe5b14611d125760095b975060009650869550859450611d459350505050565b611d1a612085565b925090506000816003811115611d2c57fe5b14611d38576009611cfc565b5060009650919450925090505b9193509193565b6000610d0b826134c4565b6000610d0b82613543565b6001600160a01b039182166000908152600f6020908152604080832093909416825291909152205490565b6004546000906001600160a01b03163314611db557611dae60016000612769565b90506110f1565b60038054600480546001600160a01b03818116610100818102610100600160a81b0319871617968790556001600160a01b031990931690935560408051948390048216808652929095041660208401528351909391927ff9ffabca9c8276e99321725bcb43fb076a6c66a54b7f21c4e8146d8519b417dc92908290030190a1600454604080516001600160a01b038085168252909216602083015280517fca4f2f25d0898edd99413412fb94012f9e54ec8142f9b093e7720646a95b16a99281900390910190a160009250505090565b600080611e9061196d565b90508015611eb657611eae816011811115611ea757fe5b6040612769565b915050610d22565b61145883612d17565b6006546001600160a01b031681565b600080611edc8585856135bd565b5095945050505050565b60035461010090046001600160a01b031681565b6006546000906001600160a01b03166315f24053611f166125c3565b600b54600c546040518463ffffffff1660e01b815260040180848152602001838152602001828152602001935050505060206040518083038186803b158015611acd57600080fd5b6000805460ff16611fa3576040805162461bcd60e51b815260206004820152600a6024820152691c994b595b9d195c995960b21b604482015290519081900360640190fd5b6000805460ff19168155611fb561196d565b90508015611fd35761157b816011811115611fcc57fe5b6046612769565b61158c836136ef565b60008054819060ff16612023576040805162461bcd60e51b815260206004820152600a6024820152691c994b595b9d195c995960b21b604482015290519081900360640190fd5b6000805460ff1916815561203561196d565b905080156120605761205381601181111561204c57fe5b6036612769565b9250600091506120719050565b61206b333386613797565b92509250505b6000805460ff191660011790559092909150565b600d546000908190806120a057505060075460009150612130565b60006120aa6125c3565b905060006120b6615dbf565b60006120c784600b54600c54613b7d565b9350905060008160038111156120d957fe5b146120ee579550600094506121309350505050565b6120f88386613bc9565b92509050600081600381111561210a57fe5b1461211f579550600094506121309350505050565b505160009550935061213092505050565b9091565b60008054819060ff1661217b576040805162461bcd60e51b815260206004820152600a6024820152691c994b595b9d195c995960b21b604482015290519081900360640190fd5b6000805460ff1916815561218d61196d565b905080156121b8576121ab8160118111156121a457fe5b601e612769565b9250600091506121c99050565b6121c3338686613c79565b92509250505b6000805460ff1916600117905590939092509050565b600554604080516317b9b84b60e31b81523060048201526001600160a01b03868116602483015285811660448301526064820185905291516000938493169163bdcdc25891608480830192602092919082900301818787803b15801561224457600080fd5b505af1158015612258573d6000803e3d6000fd5b505050506040513d602081101561226e57600080fd5b50519050801561228d576122856003604a83614105565b9150506112e3565b836001600160a01b0316856001600160a01b031614156122b3576122856002604b612769565b60006001600160a01b0387811690871614156122d257506000196122fa565b506001600160a01b038086166000908152600f60209081526040808320938a16835292905220545b60008060008061230a858961416b565b9094509250600084600381111561231d57fe5b1461233b5761232e6009604b612769565b96505050505050506112e3565b6001600160a01b038a166000908152600e602052604090205461235e908961416b565b9094509150600084600381111561237157fe5b146123825761232e6009604c612769565b6001600160a01b0389166000908152600e60205260409020546123a5908961418e565b909450905060008460038111156123b857fe5b146123c95761232e6009604d612769565b6001600160a01b03808b166000908152600e6020526040808220859055918b168152208190556000198514612421576001600160a01b03808b166000908152600f60209081526040808320938f168352929052208390555b886001600160a01b03168a6001600160a01b03166000805160206160c58339815191528a6040518082815260200191505060405180910390a36005546040805163352b4a3f60e11b81523060048201526001600160a01b038d811660248301528c81166044830152606482018c905291519190921691636a56947e91608480830192600092919082900301818387803b1580156124bd57600080fd5b505af11580156124d1573d6000803e3d6000fd5b50600092506124de915050565b9b9a5050505050505050505050565b60008054819060ff16612534576040805162461bcd60e51b815260206004820152600a6024820152691c994b595b9d195c995960b21b604482015290519081900360640190fd5b6000805460ff1916815561254661196d565b90508015612564576121ab81601181111561255d57fe5b6035612769565b6121c3338686613797565b600080600061257c615dbf565b61258686866141b4565b9092509050600082600381111561259957fe5b146125aa57509150600090506125bc565b60006125b58261421c565b9350935050505b9250929050565b601454604080516305f5d64360e11b815230600482015290516000926001600160a01b03169183918391630bebac86916024808301926020929190829003018186803b15801561261257600080fd5b505afa158015612626573d6000803e3d6000fd5b505050506040513d602081101561263c57600080fd5b50516040805163324abb3160e21b815290519192506b033b2e3c9fd0803ce8000000916126c6916001600160a01b0386169163c92aecc491600480820192602092909190829003018186803b15801561269457600080fd5b505afa1580156126a8573d6000803e3d6000fd5b505050506040513d60208110156126be57600080fd5b50518361422b565b816126cd57fe5b049250505090565b6000805460ff1661271a576040805162461bcd60e51b815260206004820152600a6024820152691c994b595b9d195c995960b21b604482015290519081900360640190fd5b6000805460ff1916815561272c61196d565b9050801561274a5761157b81601181111561274357fe5b604e612769565b61275383614286565b509150506000805460ff19166001179055919050565b60007f45b96fe442630264581b197e84bbada861235052c5a1aadfff9ea4e40a969aa083601181111561279857fe5b8360568111156127a457fe5b604080519283526020830191909152600082820152519081900360600190a182601181111561145857fe5b600082905060008290506000826001600160a01b031663f4b9fa756040518163ffffffff1660e01b8152600401602060405180830381600087803b15801561281657600080fd5b505af115801561282a573d6000803e3d6000fd5b505050506040513d602081101561284057600080fd5b5051604080516336569e7760e01b815290519192506000916001600160a01b038616916336569e7791600480830192602092919082900301818787803b15801561288957600080fd5b505af115801561289d573d6000803e3d6000fd5b505050506040513d60208110156128b357600080fd5b50516011549091506001600160a01b038381169116146129045760405162461bcd60e51b81526004018080602001828103825260228152602001806160696022913960400191505060405180910390fd5b601380546001600160a01b038089166001600160a01b0319928316179283905560148054898316908416179055601580548583169316929092179091556040805163095ea7b360e01b815292821660048401526000196024840152519084169163095ea7b391604480830192600092919082900301818387803b15801561298a57600080fd5b505af115801561299e573d6000803e3d6000fd5b5050601454604080516328ec8bf160e21b81526001600160a01b0392831660048201529051918516935063a3b22fc4925060248082019260009290919082900301818387803b1580156129f057600080fd5b505af1158015612a04573d6000803e3d6000fd5b5050601354604080516328ec8bf160e21b81526001600160a01b0392831660048201529051918516935063a3b22fc4925060248082019260009290919082900301818387803b158015612a5657600080fd5b505af1158015612a6a573d6000803e3d6000fd5b50505050826001600160a01b0316639f678cca6040518163ffffffff1660e01b8152600401602060405180830381600087803b158015612aa957600080fd5b505af1158015612abd573d6000803e3d6000fd5b505050506040513d6020811015612ad357600080fd5b50612ae1905030600061436e565b50505050505050565b600354600090819061010090046001600160a01b03163314612b1257611eae60016031612769565b612b1a612d13565b60095414612b2e57611eae600a6033612769565b82612b376125c3565b1015612b4957611eae600e6032612769565b600c54831115612b5f57611eae60026034612769565b50600c805483900390819055600354612b869061010090046001600160a01b031684614693565b600354604080516101009092046001600160a01b0316825260208201859052818101839052517f3bad0c59cf2f06e7314077049f48a93578cd16f5ef92329f1dab1420a99c177e916060908290030190a16000611458565b6000805460ff16612c23576040805162461bcd60e51b815260206004820152600a6024820152691c994b595b9d195c995960b21b604482015290519081900360640190fd5b6000805460ff19168155612c3561196d565b90508015612c535761157b816011811115612c4c57fe5b6027612769565b61158c336000856147f8565b6001600160a01b038116600090815260106020526040812080548291829182918291612c96575060009450849350612d0e92505050565b612ca68160000154600a54614f73565b90945092506000846003811115612cb957fe5b14612cce575091935060009250612d0e915050565b612cdc838260010154614fb2565b90945091506000846003811115612cef57fe5b14612d04575091935060009250612d0e915050565b5060009450925050505b915091565b4390565b600354600090819061010090046001600160a01b03163314612d3f57611eae60016042612769565b612d47612d13565b60095414612d5b57611eae600a6041612769565b600660009054906101000a90046001600160a01b03169050826001600160a01b0316632191f92a6040518163ffffffff1660e01b815260040160206040518083038186803b158015612dac57600080fd5b505afa158015612dc0573d6000803e3d6000fd5b505050506040513d6020811015612dd657600080fd5b5051612e29576040805162461bcd60e51b815260206004820152601c60248201527f6d61726b6572206d6574686f642072657475726e65642066616c736500000000604482015290519081900360640190fd5b600680546001600160a01b0319166001600160a01b03858116918217909255604080519284168352602083019190915280517fedffc32e068c7c95dfd4bdfd5c4d939a084d6b11c4199eac8436ed234d72f9269281900390910190a16000611458565b60008054819060ff16612ed3576040805162461bcd60e51b815260206004820152600a6024820152691c994b595b9d195c995960b21b604482015290519081900360640190fd5b6000805460ff19168155612ee561196d565b90508015612efc576120538160118111156121a457fe5b61206b3385614fdd565b600080612f11612d13565b60095490915080821415612f2a576000925050506110f1565b6000612f346125c3565b600b54600c54600a54600654604080516315f2405360e01b815260048101879052602481018690526044810185905290519596509394929391926000926001600160a01b03909216916315f24053916064808301926020929190829003018186803b158015612fa257600080fd5b505afa158015612fb6573d6000803e3d6000fd5b505050506040513d6020811015612fcc57600080fd5b5051905065048c2739500081111561302b576040805162461bcd60e51b815260206004820152601c60248201527f626f72726f772072617465206973206162737572646c79206869676800000000604482015290519081900360640190fd5b600080613038898961416b565b9092509050600082600381111561304b57fe5b1461309d576040805162461bcd60e51b815260206004820152601f60248201527f636f756c64206e6f742063616c63756c61746520626c6f636b2064656c746100604482015290519081900360640190fd5b6130a5615dbf565b6000806000806130c360405180602001604052808a815250876141b4565b909750945060008760038111156130d657fe5b14613108576130f3600960068960038111156130ee57fe5b614105565b9e5050505050505050505050505050506110f1565b613112858c61256f565b9097509350600087600381111561312557fe5b1461313d576130f3600960018960038111156130ee57fe5b613147848c61418e565b9097509250600087600381111561315a57fe5b14613172576130f3600960048960038111156130ee57fe5b61318d6040518060200160405280600854815250858c615424565b909750915060008760038111156131a057fe5b146131b8576130f3600960058960038111156130ee57fe5b6131c3858a8b615424565b909750905060008760038111156131d657fe5b146131ee576130f3600960038960038111156130ee57fe5b60098e9055600a819055600b839055600c829055604080518d8152602081018690528082018390526060810185905290517f4dec04e750ca11537cabcd8a9eab06494de08da3735bc8871cd41250e190bc049181900360800190a160009e50505050505050505050505050505090565b6005546040805163d02f735160e01b81523060048201526001600160a01b038781166024830152868116604483015285811660648301526084820185905291516000938493169163d02f73519160a480830192602092919082900301818787803b1580156132cb57600080fd5b505af11580156132df573d6000803e3d6000fd5b505050506040513d60208110156132f557600080fd5b50519050801561330c576122856003601b83614105565b846001600160a01b0316846001600160a01b03161415613332576122856006601c612769565b6001600160a01b0384166000908152600e602052604081205481908190613359908761416b565b9093509150600083600381111561336c57fe5b1461338f576133846009601a8560038111156130ee57fe5b9450505050506112e3565b6001600160a01b0388166000908152600e60205260409020546133b2908761418e565b909350905060008360038111156133c557fe5b146133dd57613384600960198560038111156130ee57fe5b6001600160a01b038088166000818152600e60209081526040808320879055938c168083529184902085905583518a8152935191936000805160206160c5833981519152929081900390910190a360055460408051636d35bf9160e01b81523060048201526001600160a01b038c811660248301528b811660448301528a81166064830152608482018a905291519190921691636d35bf919160a480830192600092919082900301818387803b15801561349657600080fd5b505af11580156134aa573d6000803e3d6000fd5b50600092506134b7915050565b9998505050505050505050565b6000805460ff16613509576040805162461bcd60e51b815260206004820152600a6024820152691c994b595b9d195c995960b21b604482015290519081900360640190fd5b6000805460ff1916815561351b61196d565b905080156135395761157b81601181111561353257fe5b6008612769565b61158c3384615471565b6000805460ff16613588576040805162461bcd60e51b815260206004820152600a6024820152691c994b595b9d195c995960b21b604482015290519081900360640190fd5b6000805460ff1916815561359a61196d565b905080156135b15761157b816011811115612c4c57fe5b61158c338460006147f8565b60008054819060ff16613604576040805162461bcd60e51b815260206004820152600a6024820152691c994b595b9d195c995960b21b604482015290519081900360640190fd5b6000805460ff1916815561361661196d565b905080156136415761363481601181111561362d57fe5b600f612769565b9250600091506136d89050565b836001600160a01b031663a6afed956040518163ffffffff1660e01b8152600401602060405180830381600087803b15801561367c57600080fd5b505af1158015613690573d6000803e3d6000fd5b505050506040513d60208110156136a657600080fd5b5051905080156136c6576136348160118111156136bf57fe5b6010612769565b6136d23387878761577f565b92509250505b6000805460ff191660011790559094909350915050565b60035460009061010090046001600160a01b031633146137155761133060016047612769565b61371d612d13565b6009541461373157611330600a6048612769565b670de0b6b3a764000082111561374d5761133060026049612769565b6008805490839055604080518281526020810185905281517faaa68312e2ea9d50e16af5068410ab56e1a1fd06037b1a35664812c30f821460929181900390910190a16000611458565b60055460408051631200453160e11b81523060048201526001600160a01b0386811660248301528581166044830152606482018590529151600093849384939116916324008a629160848082019260209290919082900301818787803b15801561380057600080fd5b505af1158015613814573d6000803e3d6000fd5b505050506040513d602081101561382a57600080fd5b50519050801561384e576138416003603883614105565b925060009150613b759050565b613856612d13565b6009541461386a57613841600a6039612769565b613872615e50565b6001600160a01b038616600090815260106020526040902060010154606082015261389c86612c5f565b60808301819052602083018260038111156138b357fe5b60038111156138be57fe5b90525060009050816020015160038111156138d557fe5b146138ff576138f160096037836020015160038111156130ee57fe5b935060009250613b75915050565b6000198514156139185760808101516040820152613920565b604081018590525b61392e87826040015161436e565b60e0820181905260808201516139439161416b565b60a083018190526020830182600381111561395a57fe5b600381111561396557fe5b905250600090508160200151600381111561397c57fe5b146139b85760405162461bcd60e51b815260040180806020018281038252603a81526020018061608b603a913960400191505060405180910390fd5b6139c8600b548260e0015161416b565b60c08301819052602083018260038111156139df57fe5b60038111156139ea57fe5b9052506000905081602001516003811115613a0157fe5b14613a3d5760405162461bcd60e51b81526004018080602001828103825260318152602001806160e56031913960400191505060405180910390fd5b60a080820180516001600160a01b03808a16600081815260106020908152604091829020948555600a5460019095019490945560c0870151600b81905560e088015195518251948f16855294840192909252828101949094526060820192909252608081019190915290517f1a2a22cb034d26d1854bdc6666a5b91fe25efbbb5dcad3b0355478d6f5c362a1929181900390910190a160055460e0820151606083015160408051631ededc9160e01b81523060048201526001600160a01b038c811660248301528b8116604483015260648201949094526084810192909252519190921691631ededc919160a480830192600092919082900301818387803b158015613b4857600080fd5b505af1158015613b5c573d6000803e3d6000fd5b5060009250613b69915050565b8160e001519350935050505b935093915050565b600080600080613b8d878761418e565b90925090506000826003811115613ba057fe5b14613bb15750915060009050613b75565b613bbb818661416b565b935093505050935093915050565b6000613bd3615dbf565b600080613be886670de0b6b3a7640000614f73565b90925090506000826003811115613bfb57fe5b14613c1a575060408051602081019091526000815290925090506125bc565b600080613c278388614fb2565b90925090506000826003811115613c3a57fe5b14613c5c575060408051602081019091526000815290945092506125bc915050565b604080516020810190915290815260009890975095505050505050565b6000806001600160a01b038416613ccd576040805162461bcd60e51b81526020600482015260136024820152721c9958d95a5d995c881a5cc81a5b9d985b1a59606a1b604482015290519081900360640190fd5b60055460408051634ef4c3e160e01b81523060048201526001600160a01b0387811660248301526044820187905291516000939290921691634ef4c3e19160648082019260209290919082900301818787803b158015613d2c57600080fd5b505af1158015613d40573d6000803e3d6000fd5b505050506040513d6020811015613d5657600080fd5b505190508015613d6d576138416003601f83614105565b613d75612d13565b60095414613d8957613841600a6022612769565b613d91615e96565b613d99612085565b6020830181905282826003811115613dad57fe5b6003811115613db857fe5b9052506000905081516003811115613dcc57fe5b14613de8576138f160096021836000015160038111156130ee57fe5b613df2878661436e565b60a08201819052604080516020808201909252908301518152613e159190615d02565b6040830181905282826003811115613e2957fe5b6003811115613e3457fe5b9052506000905081516003811115613e4857fe5b14613e9a576040805162461bcd60e51b815260206004820181905260248201527f4d494e545f45584348414e47455f43414c43554c4154494f4e5f4641494c4544604482015290519081900360640190fd5b613eaa600d54826040015161418e565b6060830181905282826003811115613ebe57fe5b6003811115613ec957fe5b9052506000905081516003811115613edd57fe5b14613f195760405162461bcd60e51b81526004018080602001828103825260288152602001806161a26028913960400191505060405180910390fd5b6001600160a01b0386166000908152600e6020526040908190205490820151613f42919061418e565b6080830181905282826003811115613f5657fe5b6003811115613f6157fe5b9052506000905081516003811115613f7557fe5b14613fb15760405162461bcd60e51b815260040180806020018281038252602b815260200180616007602b913960400191505060405180910390fd5b606080820151600d556080808301516001600160a01b03808a166000818152600e60209081526040918290209490945560a0870151818801518251948f16855294840192909252828101919091529381019190915291517f297989b84a5f5b82d2ee0c266504c19bd9b10b410f187dc72ca4b0f0faecb3459281900390910190a1604080820151815190815290516001600160a01b0388169130916000805160206160c58339815191529181900360200190a360055460a082015160408084015181516341c728b960e01b81523060048201526001600160a01b038b8116602483015260448201949094526064810191909152905191909216916341c728b991608480830192600092919082900301818387803b1580156140d157600080fd5b505af11580156140e5573d6000803e3d6000fd5b50600092506140f2915050565b8160a00151935093505050935093915050565b60007f45b96fe442630264581b197e84bbada861235052c5a1aadfff9ea4e40a969aa084601181111561413457fe5b84605681111561414057fe5b604080519283526020830191909152818101859052519081900360600190a18360118111156112e357fe5b6000808383116141825750600090508183036125bc565b506003905060006125bc565b6000808383018481106141a6576000925090506125bc565b5060029150600090506125bc565b60006141be615dbf565b6000806141cf866000015186614f73565b909250905060008260038111156141e257fe5b14614201575060408051602081019091526000815290925090506125bc565b60408051602081019091529081526000969095509350505050565b51670de0b6b3a7640000900490565b60008115806142465750508082028282828161424357fe5b04145b610d0b576040805162461bcd60e51b815260206004820152600c60248201526b6d756c2d6f766572666c6f7760a01b604482015290519081900360640190fd5b600080600080614294612d13565b600954146142b3576142a8600a604f612769565b93509150612d0e9050565b6142bd338661436e565b905080600c54019150600c5482101561431d576040805162461bcd60e51b815260206004820181905260248201527f61646420726573657276657320756e6578706563746564206f766572666c6f77604482015290519081900360640190fd5b600c829055604080513381526020810183905280820184905290517fa91e67c5ea634cd43a12c5a482724b03de01e85ca68702a53d0c2f45cb7c1dc59181900360600190a160009350915050915091565b601154604080516323b872dd60e01b81526001600160a01b038581166004830152306024830152604482018590529151600093929092169182916323b872dd91606480830192602092919082900301818887803b1580156143ce57600080fd5b505af11580156143e2573d6000803e3d6000fd5b505050506040513d60208110156143f857600080fd5b50516144355760405162461bcd60e51b81526004018080602001828103825260248152602001806161496024913960400191505060405180910390fd5b601354601154601454601554604080516370a0823160e01b8152306004820181905291516001600160a01b03968716969586169594851694909316928692633b4da69f92909187916370a08231916024808301926020929190829003018186803b1580156144a257600080fd5b505afa1580156144b6573d6000803e3d6000fd5b505050506040513d60208110156144cc57600080fd5b5051604080516001600160e01b031960e086901b1681526001600160a01b039093166004840152602483019190915251604480830192600092919082900301818387803b15801561451c57600080fd5b505af1158015614530573d6000803e3d6000fd5b505060408051633612d9a360e11b81523060048201529051600093506001600160a01b0385169250636c25b34691602480820192602092909190829003018186803b15801561457e57600080fd5b505afa158015614592573d6000803e3d6000fd5b505050506040513d60208110156145a857600080fd5b50516040805163324abb3160e21b815290519192506000916001600160a01b0386169163c92aecc4916004808301926020929190829003018186803b1580156145f057600080fd5b505afa158015614604573d6000803e3d6000fd5b505050506040513d602081101561461a57600080fd5b5051828161462457fe5b049050836001600160a01b031663049878f3826040518263ffffffff1660e01b815260040180828152602001915050600060405180830381600087803b15801561466d57600080fd5b505af1158015614681573d6000803e3d6000fd5b509a9c9b505050505050505050505050565b6013546014546040805163324abb3160e21b815290516001600160a01b03938416939092169160009161473891849163c92aecc4916004808301926020929190829003018186803b1580156146e757600080fd5b505afa1580156146fb573d6000803e3d6000fd5b505050506040513d602081101561471157600080fd5b5051614729866b033b2e3c9fd0803ce800000061422b565b8161473057fe5b046001615d19565b9050816001600160a01b0316637f8661a1826040518263ffffffff1660e01b815260040180828152602001915050600060405180830381600087803b15801561478057600080fd5b505af1158015614794573d6000803e3d6000fd5b50505050826001600160a01b031663ef693bed86866040518363ffffffff1660e01b815260040180836001600160a01b03166001600160a01b0316815260200182815260200192505050600060405180830381600087803b158015610fa657600080fd5b6000821580614805575081155b6148405760405162461bcd60e51b81526004018080602001828103825260348152602001806161ca6034913960400191505060405180910390fd5b614848615e96565b614850612085565b602083018190528282600381111561486457fe5b600381111561486f57fe5b905250600090508151600381111561488357fe5b146148a75761489f6009602b836000015160038111156130ee57fe5b915050611458565b8315614923576040808201859052805160208082019092529082015181526148cf908561256f565b60608301819052828260038111156148e357fe5b60038111156148ee57fe5b905250600090508151600381111561490257fe5b1461491e5761489f60096029836000015160038111156130ee57fe5b614996565b61493f8360405180602001604052808460200151815250615d02565b604083018190528282600381111561495357fe5b600381111561495e57fe5b905250600090508151600381111561497257fe5b1461498e5761489f6009602a836000015160038111156130ee57fe5b606081018390525b600554604080830151815163eabe7d9160e01b81523060048201526001600160a01b03898116602483015260448201929092529151600093919091169163eabe7d9191606480830192602092919082900301818787803b1580156149f957600080fd5b505af1158015614a0d573d6000803e3d6000fd5b505050506040513d6020811015614a2357600080fd5b505190508015614a4357614a3a6003602883614105565b92505050611458565b614a4b612d13565b60095414614a5f57614a3a600a602c612769565b614a6f600d54836040015161416b565b6080840181905283826003811115614a8357fe5b6003811115614a8e57fe5b9052506000905082516003811115614aa257fe5b14614abe57614a3a6009602e846000015160038111156130ee57fe5b6001600160a01b0386166000908152600e6020526040908190205490830151614ae7919061416b565b60a0840181905283826003811115614afb57fe5b6003811115614b0657fe5b9052506000905082516003811115614b1a57fe5b14614b3657614a3a6009602d846000015160038111156130ee57fe5b8160600151614b436125c3565b1015614b5557614a3a600e602f612769565b600080600560009054906101000a90046001600160a01b03166001600160a01b03166304ef9d586040518163ffffffff1660e01b815260040160206040518083038186803b158015614ba657600080fd5b505afa158015614bba573d6000803e3d6000fd5b505050506040513d6020811015614bd057600080fd5b505115614e2a57606084015160055460408051629df3ab60e31b81529051614c5393926001600160a01b0316916304ef9d58916004808301926020929190829003018186803b158015614c2257600080fd5b505afa158015614c36573d6000803e3d6000fd5b505050506040513d6020811015614c4c57600080fd5b5051614f73565b92508285826003811115614c6357fe5b6003811115614c6e57fe5b9052506000905084516003811115614c8257fe5b14614ca957614c9e60096056866000015160038111156130ee57fe5b945050505050611458565b614cbb82670de0b6b3a7640000614fb2565b92508285826003811115614ccb57fe5b6003811115614cd657fe5b9052506000905084516003811115614cea57fe5b14614d0657614c9e60096056866000015160038111156130ee57fe5b614d1484606001518361416b565b91508185826003811115614d2457fe5b6003811115614d2f57fe5b9052506000905084516003811115614d4357fe5b14614d5f57614c9e60096056866000015160038111156130ee57fe5b6005546040805163c5f956af60e01b81529051614dd7926001600160a01b03169163c5f956af916004808301926020929190829003018186803b158015614da557600080fd5b505afa158015614db9573d6000803e3d6000fd5b505050506040513d6020811015614dcf57600080fd5b505183614693565b60408085015181516001600160a01b038b168152602081018590528083019190915290517fccf8e53b86a99b7e9ecf796342c165764d66154780f638c08e6241d711fba6d49181900360600190a1614e31565b5060608301515b614e3b8882614693565b6080840151600d5560a08401516001600160a01b0389166000818152600e602090815260409182902093909355808701518151908152905130936000805160206160c5833981519152928290030190a360408085015181516001600160a01b038b168152602081018490528083019190915290517fe5b754fb1abb7f01b499791d0b820ae3b6af3424ac1c59768edb53f4ec31a9299181900360600190a1600554606085015160408087015181516351dff98960e01b81523060048201526001600160a01b038d8116602483015260448201949094526064810191909152905191909216916351dff98991608480830192600092919082900301818387803b158015614f4657600080fd5b505af1158015614f5a573d6000803e3d6000fd5b5060009250614f67915050565b98975050505050505050565b60008083614f86575060009050806125bc565b83830283858281614f9357fe5b0414614fa7575060029150600090506125bc565b6000925090506125bc565b60008082614fc657506001905060006125bc565b6000838581614fd157fe5b04915091509250929050565b60055460408051634ef4c3e160e01b81523060048201526001600160a01b03858116602483015260448201859052915160009384938493911691634ef4c3e19160648082019260209290919082900301818787803b15801561503e57600080fd5b505af1158015615052573d6000803e3d6000fd5b505050506040513d602081101561506857600080fd5b50519050801561508c5761507f6003601f83614105565b9250600091506125bc9050565b615094612d13565b600954146150a85761507f600a6022612769565b6150b0615e96565b6150b8612085565b60208301819052828260038111156150cc57fe5b60038111156150d757fe5b90525060009050815160038111156150eb57fe5b146151155761510760096021836000015160038111156130ee57fe5b9350600092506125bc915050565b61511f868661436e565b60a082018190526040805160208082019092529083015181526151429190615d02565b604083018190528282600381111561515657fe5b600381111561516157fe5b905250600090508151600381111561517557fe5b146151c7576040805162461bcd60e51b815260206004820181905260248201527f4d494e545f45584348414e47455f43414c43554c4154494f4e5f4641494c4544604482015290519081900360640190fd5b6151d7600d54826040015161418e565b60608301819052828260038111156151eb57fe5b60038111156151f657fe5b905250600090508151600381111561520a57fe5b146152465760405162461bcd60e51b81526004018080602001828103825260288152602001806161a26028913960400191505060405180910390fd5b6001600160a01b0386166000908152600e602052604090819020549082015161526f919061418e565b608083018190528282600381111561528357fe5b600381111561528e57fe5b90525060009050815160038111156152a257fe5b146152de5760405162461bcd60e51b815260040180806020018281038252602b815260200180616007602b913960400191505060405180910390fd5b606080820151600d5560808201516001600160a01b0388166000818152600e60209081526040918290209390935560a0850151818601518251938452938301528181019290925290517f4c209b5fc8ad50758f13e2e1088ba56a560dff690a1c6fef26394f4c03821c4f929181900390910190a1604080820151815190815290516001600160a01b0388169130916000805160206160c58339815191529181900360200190a360055460a082015160408084015181516341c728b960e01b81523060048201526001600160a01b038b8116602483015260448201949094526064810191909152905191909216916341c728b991608480830192600092919082900301818387803b1580156153f157600080fd5b505af1158015615405573d6000803e3d6000fd5b5060009250615412915050565b8160a001519350935050509250929050565b6000806000615431615dbf565b61543b87876141b4565b9092509050600082600381111561544e57fe5b1461545f5750915060009050613b75565b613bbb61546b8261421c565b8661418e565b6005546040805163368f515360e21b81523060048201526001600160a01b0385811660248301526044820185905291516000938493169163da3d454c91606480830192602092919082900301818787803b1580156154ce57600080fd5b505af11580156154e2573d6000803e3d6000fd5b505050506040513d60208110156154f857600080fd5b5051905080156155175761550f6003600e83614105565b915050610d0b565b61551f612d13565b600954146155325761550f600a80612769565b8261553b6125c3565b101561554d5761550f600e6009612769565b615555615ecd565b61555e85612c5f565b602083018190528282600381111561557257fe5b600381111561557d57fe5b905250600090508151600381111561559157fe5b146155b6576155ad60096007836000015160038111156130ee57fe5b92505050610d0b565b6155c481602001518561418e565b60408301819052828260038111156155d857fe5b60038111156155e357fe5b90525060009050815160038111156155f757fe5b14615613576155ad6009600c836000015160038111156130ee57fe5b61561f600b548561418e565b606083018190528282600381111561563357fe5b600381111561563e57fe5b905250600090508151600381111561565257fe5b1461566e576155ad6009600b836000015160038111156130ee57fe5b6156788585614693565b604080820180516001600160a01b03881660008181526010602090815290859020928355600a54600190930192909255606080860151600b81905593518551928352928201899052818501929092529081019190915290517f13ed6866d4e1ee6da46f845c46d7e54120883d75c5ea9a2dacc1c4ca8984ab809181900360800190a160055460408051635c77860560e01b81523060048201526001600160a01b0388811660248301526044820188905291519190921691635c77860591606480830192600092919082900301818387803b15801561575557600080fd5b505af1158015615769573d6000803e3d6000fd5b5060009250615776915050565b95945050505050565b60055460408051632fe3f38f60e11b81523060048201526001600160a01b0384811660248301528781166044830152868116606483015260848201869052915160009384938493911691635fc7e71e9160a48082019260209290919082900301818787803b1580156157f057600080fd5b505af1158015615804573d6000803e3d6000fd5b505050506040513d602081101561581a57600080fd5b50519050801561583e576158316003601283614105565b925060009150615cf99050565b615846612d13565b6009541461585a57615831600a6016612769565b615862612d13565b846001600160a01b0316636c540baf6040518163ffffffff1660e01b815260040160206040518083038186803b15801561589b57600080fd5b505afa1580156158af573d6000803e3d6000fd5b505050506040513d60208110156158c557600080fd5b5051146158d857615831600a6011612769565b866001600160a01b0316866001600160a01b031614156158fe5761583160066017612769565b8461590f5761583160076015612769565b6000198514156159255761583160076014612769565b600080615933898989613797565b909250905081156159635761595482601181111561594d57fe5b6018612769565b945060009350615cf992505050565b6005546040805163c488847b60e01b81523060048201526001600160a01b038981166024830152604482018590528251600094859492169263c488847b926064808301939192829003018186803b1580156159bd57600080fd5b505afa1580156159d1573d6000803e3d6000fd5b505050506040513d60408110156159e757600080fd5b50805160209091015190925090508115615a325760405162461bcd60e51b81526004018080602001828103825260338152602001806161166033913960400191505060405180910390fd5b80886001600160a01b03166370a082318c6040518263ffffffff1660e01b815260040180826001600160a01b03166001600160a01b0316815260200191505060206040518083038186803b158015615a8957600080fd5b505afa158015615a9d573d6000803e3d6000fd5b505050506040513d6020811015615ab357600080fd5b50511015615b08576040805162461bcd60e51b815260206004820152601860248201527f4c49515549444154455f5345495a455f544f4f5f4d5543480000000000000000604482015290519081900360640190fd5b60006001600160a01b038916301415615b2e57615b27308d8d8561325e565b9050615bb8565b6040805163b2a02ff160e01b81526001600160a01b038e811660048301528d81166024830152604482018590529151918b169163b2a02ff1916064808201926020929091908290030181600087803b158015615b8957600080fd5b505af1158015615b9d573d6000803e3d6000fd5b505050506040513d6020811015615bb357600080fd5b505190505b8015615c02576040805162461bcd60e51b81526020600482015260146024820152731d1bdad95b881cd95a5e9d5c994819985a5b195960621b604482015290519081900360640190fd5b604080516001600160a01b03808f168252808e1660208301528183018790528b1660608201526080810184905290517f298637f684da70674f26509b10f07ec2fbc77a335ab1e7d6215a4b2484d8bb529181900360a00190a1600554604080516347ef3b3b60e01b81523060048201526001600160a01b038c811660248301528f811660448301528e811660648301526084820188905260a48201869052915191909216916347ef3b3b9160c480830192600092919082900301818387803b158015615ccd57600080fd5b505af1158015615ce1573d6000803e3d6000fd5b5060009250615cee915050565b975092955050505050505b94509492505050565b6000806000615d0f615dbf565b6125868686615d60565b80820182811015610d0b576040805162461bcd60e51b815260206004820152600c60248201526b6164642d6f766572666c6f7760a01b604482015290519081900360640190fd5b6000615d6a615dbf565b600080615d7f670de0b6b3a764000087614f73565b90925090506000826003811115615d9257fe5b14615db1575060408051602081019091526000815290925090506125bc565b6125b5818660000151613bc9565b6040518060200160405280600081525090565b828054600181600116156101000203166002900490600052602060002090601f016020900481019282601f10615e1357805160ff1916838001178555615e40565b82800160010185558215615e40579182015b82811115615e40578251825591602001919060010190615e25565b50615e4c929150615ef6565b5090565b6040805161010081019091528060008152602001600081526020016000815260200160008152602001600081526020016000815260200160008152602001600081525090565b6040805160c08101909152806000815260200160008152602001600081526020016000815260200160008152602001600081525090565b604080516080810190915280600081526020016000815260200160008152602001600081525090565b6110f191905b80821115615e4c5760008155600101615efc56fe6f6e6c792061646d696e206d617920696e697469616c697a6520746865206d61726b65746d61726b6574206d6179206f6e6c7920626520696e697469616c697a6564206f6e63656f6e6c79207468652061646d696e206d617920696e697469616c697a652074686520696d706c656d656e746174696f6e696e697469616c2065786368616e67652072617465206d7573742062652067726561746572207468616e207a65726f2e73657474696e6720696e7465726573742072617465206d6f64656c206661696c65646f6e6c79207468652061646d696e206d6179206162616e646f6e2074686520696d706c656d656e746174696f6e4d494e545f4e45575f4143434f554e545f42414c414e43455f43414c43554c4154494f4e5f4641494c4544626f72726f7742616c616e636553746f7265643a20626f72726f7742616c616e636553746f726564496e7465726e616c206661696c6564444149206d757374206265207468652073616d6520617320756e6465726c79696e6752455041595f424f52524f575f4e45575f4143434f554e545f424f52524f575f42414c414e43455f43414c43554c4154494f4e5f4641494c4544ddf252ad1be2c89b69c2b068fc378daa952ba7f163c4a11628f55a4df523b3ef52455041595f424f52524f575f4e45575f544f54414c5f42414c414e43455f43414c43554c4154494f4e5f4641494c45444c49515549444154455f434f4d5054524f4c4c45525f43414c43554c4154455f414d4f554e545f5345495a455f4641494c4544756e6578706563746564204549502d3230207472616e7366657220696e2072657475726e65786368616e67655261746553746f7265643a2065786368616e67655261746553746f726564496e7465726e616c206661696c65644d494e545f4e45575f544f54414c5f535550504c595f43414c43554c4154494f4e5f4641494c45446f6e65206f662072656465656d546f6b656e73496e206f722072656465656d416d6f756e74496e206d757374206265207a65726fa265627a7a7231582055e942601bfd43ce7c0bfd494f20e1f685755cb2cb001e9ac8a48190a2b3421764736f6c63430005100032",
  "linkReferences": {},
  "deployedLinkReferences": {}
}