{
  "_format": "hh-sol-artifact-1",
  "contractName": "VenusLens",
  "sourceName": "contracts/Lens/VenusLens.sol",
  "abi": [
    {
      "constant": true,
      "inputs": [],
      "name": "BLOCKS_PER_DAY",
      "outputs": [
        {
          "internalType": "uint256",
          "name": "",
          "type": "uint256"
        }
      ],
      "payable": false,
      "stateMutability": "view",
      "type": "function"
    },
    {
      "constant": true,
      "inputs": [
        {
          "internalType": "contract ComptrollerInterface",
          "name": "comptroller",
          "type": "address"
        },
        {
          "internalType": "address",
          "name": "account",
          "type": "address"
        }
      ],
      "name": "getAccountLimits",
      "outputs": [
        {
          "components": [
            {
              "internalType": "contract VToken[]",
              "name": "markets",
              "type": "address[]"
            },
            {
              "internalType": "uint256",
              "name": "liquidity",
              "type": "uint256"
            },
            {
              "internalType": "uint256",
              "name": "shortfall",
              "type": "uint256"
            }
          ],
          "internalType": "struct VenusLens.AccountLimits",
          "name": "",
          "type": "tuple"
        }
      ],
      "payable": false,
      "stateMutability": "view",
      "type": "function"
    },
    {
      "constant": false,
      "inputs": [
        {
          "internalType": "address payable",
          "name": "account",
          "type": "address"
        },
        {
          "internalType": "address",
          "name": "comptrollerAddress",
          "type": "address"
        }
      ],
      "name": "getDailyXVS",
      "outputs": [
        {
          "internalType": "uint256",
          "name": "",
          "type": "uint256"
        }
      ],
      "payable": false,
      "stateMutability": "nonpayable",
      "type": "function"
    },
    {
      "constant": true,
      "inputs": [
        {
          "internalType": "contract GovernorAlpha",
          "name": "governor",
          "type": "address"
        },
        {
          "internalType": "uint256[]",
          "name": "proposalIds",
          "type": "uint256[]"
        }
      ],
      "name": "getGovProposals",
      "outputs": [
        {
          "components": [
            {
              "internalType": "uint256",
              "name": "proposalId",
              "type": "uint256"
            },
            {
              "internalType": "address",
              "name": "proposer",
              "type": "address"
            },
            {
              "internalType": "uint256",
              "name": "eta",
              "type": "uint256"
            },
            {
              "internalType": "address[]",
              "name": "targets",
              "type": "address[]"
            },
            {
              "internalType": "uint256[]",
              "name": "values",
              "type": "uint256[]"
            },
            {
              "internalType": "string[]",
              "name": "signatures",
              "type": "string[]"
            },
            {
              "internalType": "bytes[]",
              "name": "calldatas",
              "type": "bytes[]"
            },
            {
              "internalType": "uint256",
              "name": "startBlock",
              "type": "uint256"
            },
            {
              "internalType": "uint256",
              "name": "endBlock",
              "type": "uint256"
            },
            {
              "internalType": "uint256",
              "name": "forVotes",
              "type": "uint256"
            },
            {
              "internalType": "uint256",
              "name": "againstVotes",
              "type": "uint256"
            },
            {
              "internalType": "bool",
              "name": "canceled",
              "type": "bool"
            },
            {
              "internalType": "bool",
              "name": "executed",
              "type": "bool"
            }
          ],
          "internalType": "struct VenusLens.GovProposal[]",
          "name": "",
          "type": "tuple[]"
        }
      ],
      "payable": false,
      "stateMutability": "view",
      "type": "function"
    },
    {
      "constant": true,
      "inputs": [
        {
          "internalType": "contract GovernorAlpha",
          "name": "governor",
          "type": "address"
        },
        {
          "internalType": "address",
          "name": "voter",
          "type": "address"
        },
        {
          "internalType": "uint256[]",
          "name": "proposalIds",
          "type": "uint256[]"
        }
      ],
      "name": "getGovReceipts",
      "outputs": [
        {
          "components": [
            {
              "internalType": "uint256",
              "name": "proposalId",
              "type": "uint256"
            },
            {
              "internalType": "bool",
              "name": "hasVoted",
              "type": "bool"
            },
            {
              "internalType": "bool",
              "name": "support",
              "type": "bool"
            },
            {
              "internalType": "uint96",
              "name": "votes",
              "type": "uint96"
            }
          ],
          "internalType": "struct VenusLens.GovReceipt[]",
          "name": "",
          "type": "tuple[]"
        }
      ],
      "payable": false,
      "stateMutability": "view",
      "type": "function"
    },
    {
      "constant": true,
      "inputs": [
        {
          "internalType": "contract XVS",
          "name": "xvs",
          "type": "address"
        },
        {
          "internalType": "address",
          "name": "account",
          "type": "address"
        },
        {
          "internalType": "uint32[]",
          "name": "blockNumbers",
          "type": "uint32[]"
        }
      ],
      "name": "getVenusVotes",
      "outputs": [
        {
          "components": [
            {
              "internalType": "uint256",
              "name": "blockNumber",
              "type": "uint256"
            },
            {
              "internalType": "uint256",
              "name": "votes",
              "type": "uint256"
            }
          ],
          "internalType": "struct VenusLens.VenusVotes[]",
          "name": "",
          "type": "tuple[]"
        }
      ],
      "payable": false,
      "stateMutability": "view",
      "type": "function"
    },
    {
      "constant": true,
      "inputs": [
        {
          "internalType": "contract XVS",
          "name": "xvs",
          "type": "address"
        },
        {
          "internalType": "address",
          "name": "account",
          "type": "address"
        }
      ],
      "name": "getXVSBalanceMetadata",
      "outputs": [
        {
          "components": [
            {
              "internalType": "uint256",
              "name": "balance",
              "type": "uint256"
            },
            {
              "internalType": "uint256",
              "name": "votes",
              "type": "uint256"
            },
            {
              "internalType": "address",
              "name": "delegate",
              "type": "address"
            }
          ],
          "internalType": "struct VenusLens.XVSBalanceMetadata",
          "name": "",
          "type": "tuple"
        }
      ],
      "payable": false,
      "stateMutability": "view",
      "type": "function"
    },
    {
      "constant": false,
      "inputs": [
        {
          "internalType": "contract XVS",
          "name": "xvs",
          "type": "address"
        },
        {
          "internalType": "contract ComptrollerInterface",
          "name": "comptroller",
          "type": "address"
        },
        {
          "internalType": "address",
          "name": "account",
          "type": "address"
        }
      ],
      "name": "getXVSBalanceMetadataExt",
      "outputs": [
        {
          "components": [
            {
              "internalType": "uint256",
              "name": "balance",
              "type": "uint256"
            },
            {
              "internalType": "uint256",
              "name": "votes",
              "type": "uint256"
            },
            {
              "internalType": "address",
              "name": "delegate",
              "type": "address"
            },
            {
              "internalType": "uint256",
              "name": "allocated",
              "type": "uint256"
            }
          ],
          "internalType": "struct VenusLens.XVSBalanceMetadataExt",
          "name": "",
          "type": "tuple"
        }
      ],
      "payable": false,
      "stateMutability": "nonpayable",
      "type": "function"
    },
    {
      "constant": true,
      "inputs": [
        {
          "internalType": "address",
          "name": "holder",
          "type": "address"
        },
        {
          "internalType": "contract ComptrollerInterface",
          "name": "comptroller",
          "type": "address"
        }
      ],
      "name": "pendingVenus",
      "outputs": [
        {
          "internalType": "uint256",
          "name": "",
          "type": "uint256"
        }
      ],
      "payable": false,
      "stateMutability": "view",
      "type": "function"
    },
    {
      "constant": false,
      "inputs": [
        {
          "internalType": "contract VToken",
          "name": "vToken",
          "type": "address"
        },
        {
          "internalType": "address payable",
          "name": "account",
          "type": "address"
        }
      ],
      "name": "vTokenBalances",
      "outputs": [
        {
          "components": [
            {
              "internalType": "address",
              "name": "vToken",
              "type": "address"
            },
            {
              "internalType": "uint256",
              "name": "balanceOf",
              "type": "uint256"
            },
            {
              "internalType": "uint256",
              "name": "borrowBalanceCurrent",
              "type": "uint256"
            },
            {
              "internalType": "uint256",
              "name": "balanceOfUnderlying",
              "type": "uint256"
            },
            {
              "internalType": "uint256",
              "name": "tokenBalance",
              "type": "uint256"
            },
            {
              "internalType": "uint256",
              "name": "tokenAllowance",
              "type": "uint256"
            }
          ],
          "internalType": "struct VenusLens.VTokenBalances",
          "name": "",
          "type": "tuple"
        }
      ],
      "payable": false,
      "stateMutability": "nonpayable",
      "type": "function"
    },
    {
      "constant": false,
      "inputs": [
        {
          "internalType": "contract VToken[]",
          "name": "vTokens",
          "type": "address[]"
        },
        {
          "internalType": "address payable",
          "name": "account",
          "type": "address"
        }
      ],
      "name": "vTokenBalancesAll",
      "outputs": [
        {
          "components": [
            {
              "internalType": "address",
              "name": "vToken",
              "type": "address"
            },
            {
              "internalType": "uint256",
              "name": "balanceOf",
              "type": "uint256"
            },
            {
              "internalType": "uint256",
              "name": "borrowBalanceCurrent",
              "type": "uint256"
            },
            {
              "internalType": "uint256",
              "name": "balanceOfUnderlying",
              "type": "uint256"
            },
            {
              "internalType": "uint256",
              "name": "tokenBalance",
              "type": "uint256"
            },
            {
              "internalType": "uint256",
              "name": "tokenAllowance",
              "type": "uint256"
            }
          ],
          "internalType": "struct VenusLens.VTokenBalances[]",
          "name": "",
          "type": "tuple[]"
        }
      ],
      "payable": false,
      "stateMutability": "nonpayable",
      "type": "function"
    },
    {
      "constant": false,
      "inputs": [
        {
          "internalType": "contract VToken",
          "name": "vToken",
          "type": "address"
        }
      ],
      "name": "vTokenMetadata",
      "outputs": [
        {
          "components": [
            {
              "internalType": "address",
              "name": "vToken",
              "type": "address"
            },
            {
              "internalType": "uint256",
              "name": "exchangeRateCurrent",
              "type": "uint256"
            },
            {
              "internalType": "uint256",
              "name": "supplyRatePerBlock",
              "type": "uint256"
            },
            {
              "internalType": "uint256",
              "name": "borrowRatePerBlock",
              "type": "uint256"
            },
            {
              "internalType": "uint256",
              "name": "reserveFactorMantissa",
              "type": "uint256"
            },
            {
              "internalType": "uint256",
              "name": "totalBorrows",
              "type": "uint256"
            },
            {
              "internalType": "uint256",
              "name": "totalReserves",
              "type": "uint256"
            },
            {
              "internalType": "uint256",
              "name": "totalSupply",
              "type": "uint256"
            },
            {
              "internalType": "uint256",
              "name": "totalCash",
              "type": "uint256"
            },
            {
              "internalType": "bool",
              "name": "isListed",
              "type": "bool"
            },
            {
              "internalType": "uint256",
              "name": "collateralFactorMantissa",
              "type": "uint256"
            },
            {
              "internalType": "address",
              "name": "underlyingAssetAddress",
              "type": "address"
            },
            {
              "internalType": "uint256",
              "name": "vTokenDecimals",
              "type": "uint256"
            },
            {
              "internalType": "uint256",
              "name": "underlyingDecimals",
              "type": "uint256"
            },
            {
              "internalType": "uint256",
              "name": "venusSupplySpeed",
              "type": "uint256"
            },
            {
              "internalType": "uint256",
              "name": "venusBorrowSpeed",
              "type": "uint256"
            },
            {
              "internalType": "uint256",
              "name": "dailySupplyXvs",
              "type": "uint256"
            },
            {
              "internalType": "uint256",
              "name": "dailyBorrowXvs",
              "type": "uint256"
            }
          ],
          "internalType": "struct VenusLens.VTokenMetadata",
          "name": "",
          "type": "tuple"
        }
      ],
      "payable": false,
      "stateMutability": "nonpayable",
      "type": "function"
    },
    {
      "constant": false,
      "inputs": [
        {
          "internalType": "contract VToken[]",
          "name": "vTokens",
          "type": "address[]"
        }
      ],
      "name": "vTokenMetadataAll",
      "outputs": [
        {
          "components": [
            {
              "internalType": "address",
              "name": "vToken",
              "type": "address"
            },
            {
              "internalType": "uint256",
              "name": "exchangeRateCurrent",
              "type": "uint256"
            },
            {
              "internalType": "uint256",
              "name": "supplyRatePerBlock",
              "type": "uint256"
            },
            {
              "internalType": "uint256",
              "name": "borrowRatePerBlock",
              "type": "uint256"
            },
            {
              "internalType": "uint256",
              "name": "reserveFactorMantissa",
              "type": "uint256"
            },
            {
              "internalType": "uint256",
              "name": "totalBorrows",
              "type": "uint256"
            },
            {
              "internalType": "uint256",
              "name": "totalReserves",
              "type": "uint256"
            },
            {
              "internalType": "uint256",
              "name": "totalSupply",
              "type": "uint256"
            },
            {
              "internalType": "uint256",
              "name": "totalCash",
              "type": "uint256"
            },
            {
              "internalType": "bool",
              "name": "isListed",
              "type": "bool"
            },
            {
              "internalType": "uint256",
              "name": "collateralFactorMantissa",
              "type": "uint256"
            },
            {
              "internalType": "address",
              "name": "underlyingAssetAddress",
              "type": "address"
            },
            {
              "internalType": "uint256",
              "name": "vTokenDecimals",
              "type": "uint256"
            },
            {
              "internalType": "uint256",
              "name": "underlyingDecimals",
              "type": "uint256"
            },
            {
              "internalType": "uint256",
              "name": "venusSupplySpeed",
              "type": "uint256"
            },
            {
              "internalType": "uint256",
              "name": "venusBorrowSpeed",
              "type": "uint256"
            },
            {
              "internalType": "uint256",
              "name": "dailySupplyXvs",
              "type": "uint256"
            },
            {
              "internalType": "uint256",
              "name": "dailyBorrowXvs",
              "type": "uint256"
            }
          ],
          "internalType": "struct VenusLens.VTokenMetadata[]",
          "name": "",
          "type": "tuple[]"
        }
      ],
      "payable": false,
      "stateMutability": "nonpayable",
      "type": "function"
    },
    {
      "constant": true,
      "inputs": [
        {
          "internalType": "contract VToken",
          "name": "vToken",
          "type": "address"
        }
      ],
      "name": "vTokenUnderlyingPrice",
      "outputs": [
        {
          "components": [
            {
              "internalType": "address",
              "name": "vToken",
              "type": "address"
            },
            {
              "internalType": "uint256",
              "name": "underlyingPrice",
              "type": "uint256"
            }
          ],
          "internalType": "struct VenusLens.VTokenUnderlyingPrice",
          "name": "",
          "type": "tuple"
        }
      ],
      "payable": false,
      "stateMutability": "view",
      "type": "function"
    },
    {
      "constant": true,
      "inputs": [
        {
          "internalType": "contract VToken[]",
          "name": "vTokens",
          "type": "address[]"
        }
      ],
      "name": "vTokenUnderlyingPriceAll",
      "outputs": [
        {
          "components": [
            {
              "internalType": "address",
              "name": "vToken",
              "type": "address"
            },
            {
              "internalType": "uint256",
              "name": "underlyingPrice",
              "type": "uint256"
            }
          ],
          "internalType": "struct VenusLens.VTokenUnderlyingPrice[]",
          "name": "",
          "type": "tuple[]"
        }
      ],
      "payable": false,
      "stateMutability": "view",
      "type": "function"
    }
  ],
  "bytecode": "0x608060405234801561001057600080fd5b50614bbe806100206000396000f3fe608060405234801561001057600080fd5b50600436106100f55760003560e01c8063995ed99f11610097578063e09744c611610066578063e09744c61461023e578063e0a67f111461025e578063f40c27771461027e578063fbd88b461461029e576100f5565b8063995ed99f146101cb578063aa5dbd23146101eb578063b31242391461020b578063b814a8a61461022b576100f5565b80637c51b642116100d35780637c51b6421461014b5780637c84e3b31461016b5780637dd8f6d91461018b57806396994869146101ab576100f5565b80631f884fdf146100fa578063603fdeee146101235780636bb987fe14610143575b600080fd5b61010d6101083660046139f8565b6102be565b60405161011a919061492e565b60405180910390f35b61013661013136600461390c565b61035a565b60405161011a91906149e7565b610136610783565b61015e610159366004613a39565b610789565b60405161011a919061490c565b61017e610179366004613bdd565b61082c565b60405161011a91906149bd565b61019e610199366004613b0f565b6109be565b60405161011a919061498f565b6101be6101b9366004613b88565b610b16565b60405161011a91906148ea565b6101de6101d9366004613b2e565b610cd2565b60405161011a91906148fb565b6101fe6101f9366004613bdd565b610e2c565b60405161011a91906149ae565b61021e610219366004613b0f565b611675565b60405161011a91906149a0565b6101366102393660046138d2565b611a15565b61025161024c366004613c62565b611d4c565b60405161011a91906149cb565b61027161026c3660046139f8565b6120d2565b60405161011a919061491d565b61029161028c366004613b0f565b612163565b60405161011a91906149d9565b6102b16102ac366004613bfb565b61230c565b60405161011a919061493f565b604080518281526020808402820101909152606090829082908280156102fe57816020015b6102eb61322d565b8152602001906001900390816102e35790505b50905060005b8281101561034f5761033086868381811061031b57fe5b90506020020160206101799190810190613bdd565b82828151811061033c57fe5b6020908102919091010152600101610304565b509150505b92915050565b60006060826001600160a01b031663b0772d0b6040518163ffffffff1660e01b815260040160006040518083038186803b15801561039757600080fd5b505afa1580156103ab573d6000803e3d6000fd5b505050506040513d6000823e601f3d908101601f191682016040526103d39190810190613a8d565b90506103dd613244565b60005b82518110156106f257846001600160a01b031663e37d4b7984838151811061040457fe5b60200260200101516040518263ffffffff1660e01b8152600401610428919061488a565b604080518083038186803b15801561043f57600080fd5b505afa158015610453573d6000803e3d6000fd5b505050506040513d601f19601f820116820180604052506104779190810190613d15565b63ffffffff1660408401526001600160e01b0316602083015261049861322d565b604051806040016040528084602001516001600160e01b03168152602001846040015163ffffffff168152509050856001600160a01b031663b8324c7c8584815181106104e157fe5b60200260200101516040518263ffffffff1660e01b8152600401610505919061488a565b604080518083038186803b15801561051c57600080fd5b505afa158015610530573d6000803e3d6000fd5b505050506040513d601f19601f820116820180604052506105549190810190613d15565b63ffffffff1660808501526001600160e01b0316606084015261057561322d565b506040805180820190915260608401516001600160e01b03168152608084015163ffffffff1660208201526105a8613272565b60405180602001604052808786815181106105bf57fe5b60200260200101516001600160a01b031663aa5af0fd6040518163ffffffff1660e01b815260040160206040518083038186803b1580156105ff57600080fd5b505afa158015610613573d6000803e3d6000fd5b505050506040513d601f19601f820116820180604052506106379190810190613d45565b815250905061065b8387868151811061064c57fe5b6020026020010151838b61245a565b600061067d8488878151811061066d57fe5b60200260200101518c858d6126da565b905061068d86600001518261285a565b865286516106b19084908990889081106106a357fe5b60200260200101518b612890565b6106d0838887815181106106c157fe5b60200260200101518c8c612b06565b90506106e086600001518261285a565b86525050600190920191506103e09050565b50604051638a7dc16560e01b815261077a906001600160a01b03861690638a7dc1659061072390899060040161488a565b60206040518083038186803b15801561073b57600080fd5b505afa15801561074f573d6000803e3d6000fd5b505050506040513d601f19601f820116820180604052506107739190810190613d45565b825161285a565b95945050505050565b61708081565b604080518381526020808502820101909152606090839082908280156107c957816020015b6107b6613285565b8152602001906001900390816107ae5790505b50905060005b82811015610820576108018787838181106107e657fe5b90506020020160206107fb9190810190613bdd565b86611675565b82828151811061080d57fe5b60209081029190910101526001016107cf565b509150505b9392505050565b61083461322d565b6000826001600160a01b0316635fe3b5676040518163ffffffff1660e01b815260040160206040518083038186803b15801561086f57600080fd5b505afa158015610883573d6000803e3d6000fd5b505050506040513d601f19601f820116820180604052506108a79190810190613af1565b90506000816001600160a01b0316637dc0d1d06040518163ffffffff1660e01b815260040160206040518083038186803b1580156108e457600080fd5b505afa1580156108f8573d6000803e3d6000fd5b505050506040513d601f19601f8201168201806040525061091c9190810190613af1565b90506040518060400160405280856001600160a01b03168152602001826001600160a01b031663fc57d4df876040518263ffffffff1660e01b81526004016109649190614950565b60206040518083038186803b15801561097c57600080fd5b505afa158015610990573d6000803e3d6000fd5b505050506040513d601f19601f820116820180604052506109b49190810190613d45565b9052949350505050565b6109c66132c4565b6000806000856001600160a01b0316635ec88c79866040518263ffffffff1660e01b81526004016109f7919061488a565b60606040518083038186803b158015610a0f57600080fd5b505afa158015610a23573d6000803e3d6000fd5b505050506040513d601f19601f82011682018060405250610a479190810190613e27565b92509250925082600014610a765760405162461bcd60e51b8152600401610a6d9061496f565b60405180910390fd5b604080516060810191829052632aff3bff60e21b909152806001600160a01b03881663abfceffc610aaa896064850161488a565b60006040518083038186803b158015610ac257600080fd5b505afa158015610ad6573d6000803e3d6000fd5b505050506040513d6000823e601f3d908101601f19168201604052610afe9190810190613a8d565b81526020810193909352604090920152949350505050565b60608083839050604051908082528060200260200182016040528015610b5657816020015b610b436132e5565b815260200190600190039081610b3b5790505b50905060005b83811015610cc957606080606080896001600160a01b031663328dd9828a8a88818110610b8557fe5b905060200201356040518263ffffffff1660e01b8152600401610ba891906149e7565b60006040518083038186803b158015610bc057600080fd5b505afa158015610bd4573d6000803e3d6000fd5b505050506040513d6000823e601f3d908101601f19168201604052610bfc919081019061393c565b9350935093509350604051806101a001604052806000815260200160006001600160a01b03168152602001600081526020018581526020018481526020018381526020018281526020016000815260200160008152602001600081526020016000815260200160001515815260200160001515815250868681518110610c7e57fe5b6020026020010181905250610cb9868681518110610c9857fe5b60200260200101518b8b8b89818110610cad57fe5b90506020020135612cfa565b505060019092019150610b5c9050565b50949350505050565b6060600082519050606081604051908082528060200260200182016040528015610d1657816020015b610d0361335a565b815260200190600190039081610cfb5790505b50905060005b8281101561082057610d2c613381565b876001600160a01b031663e23a9a52878481518110610d4757fe5b6020026020010151896040518363ffffffff1660e01b8152600401610d6d9291906149f5565b60606040518083038186803b158015610d8557600080fd5b505afa158015610d99573d6000803e3d6000fd5b505050506040513d601f19601f82011682018060405250610dbd9190810190613cd9565b90506040518060800160405280878481518110610dd657fe5b6020026020010151815260200182600001511515815260200182602001511515815260200182604001516001600160601b0316815250838381518110610e1857fe5b602090810291909101015250600101610d1c565b610e346133a1565b6000826001600160a01b031663bd6d894d6040518163ffffffff1660e01b8152600401602060405180830381600087803b158015610e7157600080fd5b505af1158015610e85573d6000803e3d6000fd5b505050506040513d601f19601f82011682018060405250610ea99190810190613d45565b90506000836001600160a01b0316635fe3b5676040518163ffffffff1660e01b815260040160206040518083038186803b158015610ee657600080fd5b505afa158015610efa573d6000803e3d6000fd5b505050506040513d601f19601f82011682018060405250610f1e9190810190613af1565b604051638e8f294b60e01b8152909150819060009081906001600160a01b03841690638e8f294b90610f54908a9060040161488a565b604080518083038186803b158015610f6b57600080fd5b505afa158015610f7f573d6000803e3d6000fd5b505050506040513d601f19601f82011682018060405250610fa39190810190613ac1565b91509150600080611044896001600160a01b03166395d89b416040518163ffffffff1660e01b815260040160006040518083038186803b158015610fe657600080fd5b505afa158015610ffa573d6000803e3d6000fd5b505050506040513d6000823e601f3d908101601f191682016040526110229190810190613ca5565b604051806040016040528060048152602001633b21272160e11b815250612e20565b1561105557506000905060126111b5565b6000899050806001600160a01b0316636f307dc36040518163ffffffff1660e01b815260040160206040518083038186803b15801561109357600080fd5b505afa1580156110a7573d6000803e3d6000fd5b505050506040513d601f19601f820116820180604052506110cb91908101906138b4565b9250806001600160a01b0316636f307dc36040518163ffffffff1660e01b815260040160206040518083038186803b15801561110657600080fd5b505afa15801561111a573d6000803e3d6000fd5b505050506040513d601f19601f8201168201806040525061113e91908101906138b4565b6001600160a01b031663313ce5676040518163ffffffff1660e01b815260040160206040518083038186803b15801561117657600080fd5b505afa15801561118a573d6000803e3d6000fd5b505050506040513d601f19601f820116820180604052506111ae9190810190613e88565b60ff169150505b604051631abcaa7760e01b81526000906001600160a01b03871690631abcaa77906111e4908d9060040161488a565b60206040518083038186803b1580156111fc57600080fd5b505afa158015611210573d6000803e3d6000fd5b505050506040513d601f19601f820116820180604052506112349190810190613d45565b90506040518061024001604052808b6001600160a01b031681526020018981526020018b6001600160a01b031663ae9d70b06040518163ffffffff1660e01b815260040160206040518083038186803b15801561129057600080fd5b505afa1580156112a4573d6000803e3d6000fd5b505050506040513d601f19601f820116820180604052506112c89190810190613d45565b81526020018b6001600160a01b031663f8f9da286040518163ffffffff1660e01b815260040160206040518083038186803b15801561130657600080fd5b505afa15801561131a573d6000803e3d6000fd5b505050506040513d601f19601f8201168201806040525061133e9190810190613d45565b81526020018b6001600160a01b031663173b99046040518163ffffffff1660e01b815260040160206040518083038186803b15801561137c57600080fd5b505afa158015611390573d6000803e3d6000fd5b505050506040513d601f19601f820116820180604052506113b49190810190613d45565b81526020018b6001600160a01b03166347bd37186040518163ffffffff1660e01b815260040160206040518083038186803b1580156113f257600080fd5b505afa158015611406573d6000803e3d6000fd5b505050506040513d601f19601f8201168201806040525061142a9190810190613d45565b81526020018b6001600160a01b0316638f840ddd6040518163ffffffff1660e01b815260040160206040518083038186803b15801561146857600080fd5b505afa15801561147c573d6000803e3d6000fd5b505050506040513d601f19601f820116820180604052506114a09190810190613d45565b81526020018b6001600160a01b03166318160ddd6040518163ffffffff1660e01b815260040160206040518083038186803b1580156114de57600080fd5b505afa1580156114f2573d6000803e3d6000fd5b505050506040513d601f19601f820116820180604052506115169190810190613d45565b81526020018b6001600160a01b0316633b1d21a26040518163ffffffff1660e01b815260040160206040518083038186803b15801561155457600080fd5b505afa158015611568573d6000803e3d6000fd5b505050506040513d601f19601f8201168201806040525061158c9190810190613d45565b81526020018615158152602001858152602001846001600160a01b031681526020018b6001600160a01b031663313ce5676040518163ffffffff1660e01b815260040160206040518083038186803b1580156115e757600080fd5b505afa1580156115fb573d6000803e3d6000fd5b505050506040513d601f19601f8201168201806040525061161f9190810190613e88565b60ff16815260200183815260200182815260200182815260200161164e61708084612e7990919063ffffffff16565b81526020016116658361708063ffffffff612e7916565b90529a9950505050505050505050565b61167d613285565b6040516370a0823160e01b81526000906001600160a01b038516906370a08231906116ac908690600401614898565b60206040518083038186803b1580156116c457600080fd5b505afa1580156116d8573d6000803e3d6000fd5b505050506040513d601f19601f820116820180604052506116fc9190810190613d45565b90506000846001600160a01b03166317bfdfbc856040518263ffffffff1660e01b815260040161172c9190614898565b602060405180830381600087803b15801561174657600080fd5b505af115801561175a573d6000803e3d6000fd5b505050506040513d601f19601f8201168201806040525061177e9190810190613d45565b90506000856001600160a01b0316633af9e669866040518263ffffffff1660e01b81526004016117ae9190614898565b602060405180830381600087803b1580156117c857600080fd5b505af11580156117dc573d6000803e3d6000fd5b505050506040513d601f19601f820116820180604052506118009190810190613d45565b9050600080611841886001600160a01b03166395d89b416040518163ffffffff1660e01b815260040160006040518083038186803b158015610fe657600080fd5b1561185b5750506001600160a01b038516803190316119d8565b60008890506000816001600160a01b0316636f307dc36040518163ffffffff1660e01b815260040160206040518083038186803b15801561189b57600080fd5b505afa1580156118af573d6000803e3d6000fd5b505050506040513d601f19601f820116820180604052506118d391908101906138b4565b6040516370a0823160e01b81529091506001600160a01b038216906370a0823190611902908c90600401614898565b60206040518083038186803b15801561191a57600080fd5b505afa15801561192e573d6000803e3d6000fd5b505050506040513d601f19601f820116820180604052506119529190810190613d45565b604051636eb1769f60e11b81529094506001600160a01b0382169063dd62ed3e90611983908c908e906004016148a6565b60206040518083038186803b15801561199b57600080fd5b505afa1580156119af573d6000803e3d6000fd5b505050506040513d601f19601f820116820180604052506119d39190810190613d45565b925050505b6040805160c0810182526001600160a01b039990991689526020890195909552938701929092526060860152608085015260a08401525090919050565b6000808290506060816001600160a01b031663b0772d0b6040518163ffffffff1660e01b815260040160006040518083038186803b158015611a5657600080fd5b505afa158015611a6a573d6000803e3d6000fd5b505050506040513d6000823e601f3d908101601f19168201604052611a929190810190613a8d565b90506000805b8251811015611d42576000838281518110611aaf57fe5b60200260200101519050611b53816001600160a01b03166395d89b416040518163ffffffff1660e01b815260040160006040518083038186803b158015611af557600080fd5b505afa158015611b09573d6000803e3d6000fd5b505050506040513d6000823e601f3d908101601f19168201604052611b319190810190613ca5565b604051806040016040528060048152602001631d9554d560e21b815250612e20565b158015611bf85750611bf6816001600160a01b03166395d89b416040518163ffffffff1660e01b815260040160006040518083038186803b158015611b9757600080fd5b505afa158015611bab573d6000803e3d6000fd5b505050506040513d6000823e601f3d908101601f19168201604052611bd39190810190613ca5565b60405180604001604052806005815260200164764c554e4160d81b815250612e20565b155b15611d3957611c056133a1565b611c0e82610e2c565b9050611c18613285565b611c22838b611675565b9050611c2c61322d565b611c358461082c565b6020810151909150611c45613272565b604051806020016040528083815250905060008090506000611c6b838760600151612eb3565b90506000611ca2670de0b6b3a7640000611c968a602001518b60e00151612e7990919063ffffffff16565b9063ffffffff612eda16565b90506000611cb08583612eb3565b90508015611cd757611cd481611c96858c6102000151612e7990919063ffffffff16565b93505b60008090506000611cec878b60400151612eb3565b90506000611cfe888d60a00151612eb3565b90508015611d2557611d2281611c96848f6102200151612e7990919063ffffffff16565b92505b8287018f019e505050505050505050505050505b50600101611a98565b5095945050505050565b611d54613440565b6040516370a0823160e01b81526000906001600160a01b038616906370a0823190611d8390869060040161488a565b60206040518083038186803b158015611d9b57600080fd5b505afa158015611daf573d6000803e3d6000fd5b505050506040513d601f19601f82011682018060405250611dd39190810190613d45565b60405163adcd5fb960e01b81529091506001600160a01b0385169063adcd5fb990611e0290869060040161488a565b600060405180830381600087803b158015611e1c57600080fd5b505af1158015611e30573d6000803e3d6000fd5b50506040516370a0823160e01b8152600092506001600160a01b03881691506370a0823190611e6390879060040161488a565b60206040518083038186803b158015611e7b57600080fd5b505afa158015611e8f573d6000803e3d6000fd5b505050506040513d601f19601f82011682018060405250611eb39190810190613d45565b90506000856001600160a01b0316638a7dc165866040518263ffffffff1660e01b8152600401611ee3919061488a565b60206040518083038186803b158015611efb57600080fd5b505afa158015611f0f573d6000803e3d6000fd5b505050506040513d601f19601f82011682018060405250611f339190810190613d45565b90506000611f6782846040518060400160405280600d81526020016c1cdd5b481e1d9cc81d1bdd185b609a1b815250612f1c565b90506000611f9b82866040518060400160405280600d81526020016c1cdd5888185b1b1bd8d85d1959609a1b815250612f43565b905060405180608001604052808681526020018a6001600160a01b031663b4b5ea578a6040518263ffffffff1660e01b8152600401611fda919061488a565b60206040518083038186803b158015611ff257600080fd5b505afa158015612006573d6000803e3d6000fd5b505050506040513d601f19601f8201168201806040525061202a9190810190613ea6565b6001600160601b031681526020018a6001600160a01b031663587cde1e8a6040518263ffffffff1660e01b8152600401612064919061488a565b60206040518083038186803b15801561207c57600080fd5b505afa158015612090573d6000803e3d6000fd5b505050506040513d601f19601f820116820180604052506120b491908101906138b4565b6001600160a01b031681526020019190915298975050505050505050565b6040805182815260208084028201019091526060908290829082801561211257816020015b6120ff6133a1565b8152602001906001900390816120f75790505b50905060005b8281101561034f5761214486868381811061212f57fe5b90506020020160206101f99190810190613bdd565b82828151811061215057fe5b6020908102919091010152600101612118565b61216b613471565b6040805160608101918290526370a0823160e01b909152806001600160a01b0385166370a0823161219f866064850161488a565b60206040518083038186803b1580156121b757600080fd5b505afa1580156121cb573d6000803e3d6000fd5b505050506040513d601f19601f820116820180604052506121ef9190810190613d45565b8152602001846001600160a01b031663b4b5ea57856040518263ffffffff1660e01b8152600401612220919061488a565b60206040518083038186803b15801561223857600080fd5b505afa15801561224c573d6000803e3d6000fd5b505050506040513d601f19601f820116820180604052506122709190810190613ea6565b6001600160601b03168152602001846001600160a01b031663587cde1e856040518263ffffffff1660e01b81526004016122aa919061488a565b60206040518083038186803b1580156122c257600080fd5b505afa1580156122d6573d6000803e3d6000fd5b505050506040513d601f19601f820116820180604052506122fa91908101906138b4565b6001600160a01b031690529392505050565b6060808383905060405190808252806020026020018201604052801561234c57816020015b61233961349b565b8152602001906001900390816123315790505b50905060005b83811015611d4257604051806040016040528086868481811061237157fe5b90506020020160206123869190810190613e6a565b63ffffffff168152602001886001600160a01b031663782d6fe1898989878181106123ad57fe5b90506020020160206123c29190810190613e6a565b6040518363ffffffff1660e01b81526004016123df9291906148cf565b60206040518083038186803b1580156123f757600080fd5b505afa15801561240b573d6000803e3d6000fd5b505050506040513d601f19601f8201168201806040525061242f9190810190613ea6565b6001600160601b031681525082828151811061244757fe5b6020908102919091010152600101612352565b604051631abcaa7760e01b81526000906001600160a01b03831690631abcaa779061248990879060040161488a565b60206040518083038186803b1580156124a157600080fd5b505afa1580156124b5573d6000803e3d6000fd5b505050506040513d601f19601f820116820180604052506124d99190810190613d45565b9050600043905060006124f682886020015163ffffffff16612f6f565b90506000811180156125085750600083115b15612687576000612589876001600160a01b03166347bd37186040518163ffffffff1660e01b815260040160206040518083038186803b15801561254b57600080fd5b505afa15801561255f573d6000803e3d6000fd5b505050506040513d601f19601f820116820180604052506125839190810190613d45565b87612fa9565b905060006125978386612fc7565b90506125a1613272565b600083116125be57604051806020016040528060008152506125c8565b6125c88284613009565b90506125d2613272565b60408051602081019091528b516001600160e01b031681526125f49083613047565b905061262f8160000151604051806040016040528060138152602001726e657720696e646578206f766572666c6f777360681b81525061306c565b6001600160e01b03168b52604080518082019091526016815275626c6f636b206e756d626572206f766572666c6f777360501b602082015261267290879061309b565b63ffffffff1660208c0152506126d192505050565b80156126d1576126c58260405180604001604052806016815260200175626c6f636b206e756d626572206f766572666c6f777360501b81525061309b565b63ffffffff1660208801525b50505050505050565b60006126e4613272565b50604080516020810190915286516001600160e01b03168152612705613272565b604080516020810191829052630238089760e21b909152806001600160a01b0386166308e0225c61273a8b8b602486016148c1565b60206040518083038186803b15801561275257600080fd5b505afa158015612766573d6000803e3d6000fd5b505050506040513d601f19601f8201168201806040525061278a9190810190613d45565b905280519091501561284c5761279e613272565b6127a883836130c3565b90506000612831896001600160a01b03166395dd91938a6040518263ffffffff1660e01b81526004016127db919061488a565b60206040518083038186803b1580156127f357600080fd5b505afa158015612807573d6000803e3d6000fd5b505050506040513d601f19601f8201168201806040525061282b9190810190613d45565b88612fa9565b9050600061283f82846130e8565b955061077a945050505050565b506000979650505050505050565b60006108258383604051806040016040528060118152602001706164646974696f6e206f766572666c6f7760781b815250612f1c565b604051631abcaa7760e01b81526000906001600160a01b03831690631abcaa77906128bf90869060040161488a565b60206040518083038186803b1580156128d757600080fd5b505afa1580156128eb573d6000803e3d6000fd5b505050506040513d601f19601f8201168201806040525061290f9190810190613d45565b90506000439050600061292c82876020015163ffffffff16612f6f565b905060008111801561293e5750600083115b15612ab4576000856001600160a01b03166318160ddd6040518163ffffffff1660e01b815260040160206040518083038186803b15801561297e57600080fd5b505afa158015612992573d6000803e3d6000fd5b505050506040513d601f19601f820116820180604052506129b69190810190613d45565b905060006129c48386612fc7565b90506129ce613272565b600083116129eb57604051806020016040528060008152506129f5565b6129f58284613009565b90506129ff613272565b60408051602081019091528a516001600160e01b03168152612a219083613047565b9050612a5c8160000151604051806040016040528060138152602001726e657720696e646578206f766572666c6f777360681b81525061306c565b6001600160e01b03168a52604080518082019091526016815275626c6f636b206e756d626572206f766572666c6f777360501b6020820152612a9f90879061309b565b63ffffffff1660208b015250612afe92505050565b8015612afe57612af28260405180604001604052806016815260200175626c6f636b206e756d626572206f766572666c6f777360501b81525061309b565b63ffffffff1660208701525b505050505050565b6000612b10613272565b50604080516020810190915285516001600160e01b03168152612b31613272565b604080516020810191829052631068634b60e21b909152806001600160a01b0386166341a18d2c612b668a8a602486016148c1565b60206040518083038186803b158015612b7e57600080fd5b505afa158015612b92573d6000803e3d6000fd5b505050506040513d601f19601f82011682018060405250612bb69190810190613d45565b90528051909150158015612bca5750815115155b15612c4c57836001600160a01b031663c5b4db556040518163ffffffff1660e01b815260040160206040518083038186803b158015612c0857600080fd5b505afa158015612c1c573d6000803e3d6000fd5b505050506040513d601f19601f82011682018060405250612c409190810190613cf7565b6001600160e01b031681525b612c54613272565b612c5e83836130c3565b90506000876001600160a01b03166370a08231886040518263ffffffff1660e01b8152600401612c8e919061488a565b60206040518083038186803b158015612ca657600080fd5b505afa158015612cba573d6000803e3d6000fd5b505050506040513d601f19601f82011682018060405250612cde9190810190613d45565b90506000612cec82846130e8565b9a9950505050505050505050565b600080600080600080600080896001600160a01b031663013cf08b8a6040518263ffffffff1660e01b8152600401612d3291906149e7565b6101206040518083038186803b158015612d4b57600080fd5b505afa158015612d5f573d6000803e3d6000fd5b505050506040513d601f19601f82011682018060405250612d839190810190613d63565b9850985098509850985098509850985050888b6000018181525050878b602001906001600160a01b031690816001600160a01b031681525050868b6040018181525050858b60e0018181525050848b610100018181525050838b610120018181525050828b610140018181525050818b610160019015159081151581525050808b6101800190151590811515815250505050505050505050505050565b600081604051602001612e33919061487e565b6040516020818303038152906040528051906020012083604051602001612e5a919061487e565b6040516020818303038152906040528051906020012014905092915050565b600082612e8857506000610354565b82820282848281612e9557fe5b04146108255760405162461bcd60e51b8152600401610a6d9061497f565b6000612ebd613272565b612ec78484613117565b9050612ed281613138565b949350505050565b600061082583836040518060400160405280601a81526020017f536166654d6174683a206469766973696f6e206279207a65726f000000000000815250613147565b60008383018285821015610cc95760405162461bcd60e51b8152600401610a6d919061495e565b60008184841115612f675760405162461bcd60e51b8152600401610a6d919061495e565b505050900390565b60006108258383604051806040016040528060158152602001747375627472616374696f6e20756e646572666c6f7760581b815250612f43565b6000610825612fc084670de0b6b3a7640000612fc7565b835161317e565b600061082583836040518060400160405280601781526020017f6d756c7469706c69636174696f6e206f766572666c6f770000000000000000008152506131b1565b613011613272565b604051806020016040528061303e613038866ec097ce7bc90715b34b9f1000000000612fc7565b8561317e565b90529392505050565b61304f613272565b604051806020016040528061303e8560000151856000015161285a565b600081600160e01b84106130935760405162461bcd60e51b8152600401610a6d919061495e565b509192915050565b60008164010000000084106130935760405162461bcd60e51b8152600401610a6d919061495e565b6130cb613272565b604051806020016040528061303e85600001518560000151612f6f565b60006ec097ce7bc90715b34b9f1000000000613108848460000151612fc7565b8161310f57fe5b049392505050565b61311f613272565b604051806020016040528061303e856000015185612fc7565b51670de0b6b3a7640000900490565b600081836131685760405162461bcd60e51b8152600401610a6d919061495e565b50600083858161317457fe5b0495945050505050565b600061082583836040518060400160405280600e81526020016d646976696465206279207a65726f60901b8152506131f9565b60008315806131be575082155b156131cb57506000610825565b838302838582816131d857fe5b04148390610cc95760405162461bcd60e51b8152600401610a6d919061495e565b6000818361321a5760405162461bcd60e51b8152600401610a6d919061495e565b5082848161322457fe5b04949350505050565b604080518082019091526000808252602082015290565b6040805160a08101825260008082526020820181905291810182905260608101829052608081019190915290565b6040518060200160405280600081525090565b6040518060c0016040528060006001600160a01b0316815260200160008152602001600081526020016000815260200160008152602001600081525090565b60405180606001604052806060815260200160008152602001600081525090565b604051806101a001604052806000815260200160006001600160a01b031681526020016000815260200160608152602001606081526020016060815260200160608152602001600081526020016000815260200160008152602001600081526020016000151581526020016000151581525090565b60408051608081018252600080825260208201819052918101829052606081019190915290565b604080516060810182526000808252602082018190529181019190915290565b60405180610240016040528060006001600160a01b0316815260200160008152602001600081526020016000815260200160008152602001600081526020016000815260200160008152602001600081526020016000151581526020016000815260200160006001600160a01b031681526020016000815260200160008152602001600081526020016000815260200160008152602001600081525090565b6040518060800160405280600081526020016000815260200160006001600160a01b03168152602001600081525090565b6040518060600160405280600081526020016000815260200160006001600160a01b031681525090565b604051806040016040528060008152602001600081525090565b803561035481614b25565b805161035481614b25565b600082601f8301126134dc57600080fd5b81516134ef6134ea82614a29565b614a03565b9150818183526020840193506020810190508385602084028201111561351457600080fd5b60005b83811015613540578161352a88826134c0565b8452506020928301929190910190600101613517565b5050505092915050565b600082601f83011261355b57600080fd5b81516135696134ea82614a29565b81815260209384019390925082018360005b83811015613540578151860161359188826137a7565b845250602092830192919091019060010161357b565b60008083601f8401126135b957600080fd5b5081356001600160401b038111156135d057600080fd5b6020830191508360208202830111156135e857600080fd5b9250929050565b600082601f83011261360057600080fd5b815161360e6134ea82614a29565b9150818183526020840193506020810190508385602084028201111561363357600080fd5b60005b8381101561354057816136498882613801565b8452506020928301929190910190600101613636565b600082601f83011261367057600080fd5b815161367e6134ea82614a29565b81815260209384019390925082018360005b8381101561354057815186016136a688826137a7565b8452506020928301929190910190600101613690565b600082601f8301126136cd57600080fd5b81356136db6134ea82614a29565b9150818183526020840193506020810190508385602084028201111561370057600080fd5b60005b8381101561354057816137168882613872565b8452506020928301929190910190600101613703565b600082601f83011261373d57600080fd5b815161374b6134ea82614a29565b9150818183526020840193506020810190508385602084028201111561377057600080fd5b60005b838110156135405781613786888261387d565b8452506020928301929190910190600101613773565b805161035481614b3c565b600082601f8301126137b857600080fd5b81516137c66134ea82614a49565b915080825260208301602083018583830111156137e257600080fd5b6137ed838284614aef565b50505092915050565b803561035481614b45565b805161035481614b45565b60006060828403121561381e57600080fd5b6138286060614a03565b90506000613836848461379c565b82525060206138478484830161379c565b602083015250604061385b848285016138a9565b60408301525092915050565b805161035481614b4e565b803561035481614b57565b805161035481614b57565b803561035481614b60565b805161035481614b60565b805161035481614b69565b805161035481614b72565b6000602082840312156138c657600080fd5b6000612ed284846134c0565b600080604083850312156138e557600080fd5b60006138f185856134b5565b9250506020613902858286016134b5565b9150509250929050565b6000806040838503121561391f57600080fd5b600061392b85856134b5565b9250506020613902858286016137f6565b6000806000806080858703121561395257600080fd5b84516001600160401b0381111561396857600080fd5b613974878288016134cb565b94505060208501516001600160401b0381111561399057600080fd5b61399c8782880161372c565b93505060408501516001600160401b038111156139b857600080fd5b6139c48782880161365f565b92505060608501516001600160401b038111156139e057600080fd5b6139ec8782880161354a565b91505092959194509250565b60008060208385031215613a0b57600080fd5b82356001600160401b03811115613a2157600080fd5b613a2d858286016135a7565b92509250509250929050565b600080600060408486031215613a4e57600080fd5b83356001600160401b03811115613a6457600080fd5b613a70868287016135a7565b93509350506020613a83868287016134b5565b9150509250925092565b600060208284031215613a9f57600080fd5b81516001600160401b03811115613ab557600080fd5b612ed2848285016135ef565b60008060408385031215613ad457600080fd5b6000613ae0858561379c565b92505060206139028582860161387d565b600060208284031215613b0357600080fd5b6000612ed28484613801565b60008060408385031215613b2257600080fd5b60006138f185856137f6565b600080600060608486031215613b4357600080fd5b6000613b4f86866137f6565b9350506020613b60868287016134b5565b92505060408401356001600160401b03811115613b7c57600080fd5b613a83868287016136bc565b600080600060408486031215613b9d57600080fd5b6000613ba986866137f6565b93505060208401356001600160401b03811115613bc557600080fd5b613bd1868287016135a7565b92509250509250925092565b600060208284031215613bef57600080fd5b6000612ed284846137f6565b60008060008060608587031215613c1157600080fd5b6000613c1d87876137f6565b9450506020613c2e878288016134b5565b93505060408501356001600160401b03811115613c4a57600080fd5b613c56878288016135a7565b95989497509550505050565b600080600060608486031215613c7757600080fd5b6000613c8386866137f6565b9350506020613c94868287016137f6565b9250506040613a83868287016134b5565b600060208284031215613cb757600080fd5b81516001600160401b03811115613ccd57600080fd5b612ed2848285016137a7565b600060608284031215613ceb57600080fd5b6000612ed2848461380c565b600060208284031215613d0957600080fd5b6000612ed28484613867565b60008060408385031215613d2857600080fd5b6000613d348585613867565b925050602061390285828601613893565b600060208284031215613d5757600080fd5b6000612ed2848461387d565b60008060008060008060008060006101208a8c031215613d8257600080fd5b6000613d8e8c8c61387d565b9950506020613d9f8c828d016134c0565b9850506040613db08c828d0161387d565b9750506060613dc18c828d0161387d565b9650506080613dd28c828d0161387d565b95505060a0613de38c828d0161387d565b94505060c0613df48c828d0161387d565b93505060e0613e058c828d0161379c565b925050610100613e178c828d0161379c565b9150509295985092959850929598565b600080600060608486031215613e3c57600080fd5b6000613e48868661387d565b9350506020613e598682870161387d565b9250506040613a838682870161387d565b600060208284031215613e7c57600080fd5b6000612ed28484613888565b600060208284031215613e9a57600080fd5b6000612ed2848461389e565b600060208284031215613eb857600080fd5b6000612ed284846138a9565b6000613ed08383613f74565b505060200190565b60006108258383614331565b6000613ed08383614369565b60006108258383614465565b6000613f088383614584565b505060800190565b6000613f1c83836145d4565b505060c00190565b6000613f308383614644565b50506102400190565b6000613f4583836147ad565b505060400190565b6000613f4583836147d1565b6000613ed08383614863565b613f6e81614ad9565b82525050565b613f6e81614a88565b6000613f8882614a76565b613f928185614a7a565b9350613f9d83614a70565b8060005b83811015613fcb578151613fb58882613ec4565b9750613fc083614a70565b925050600101613fa1565b509495945050505050565b6000613fe182614a76565b613feb8185614a7a565b935083602082028501613ffd85614a70565b8060005b85811015614037578484038952815161401a8582613ed8565b945061402583614a70565b60209a909a0199925050600101614001565b5091979650505050505050565b600061404f82614a76565b6140598185614a7a565b935061406483614a70565b8060005b83811015613fcb57815161407c8882613ee4565b975061408783614a70565b925050600101614068565b600061409d82614a76565b6140a78185614a7a565b9350836020820285016140b985614a70565b8060005b8581101561403757848403895281516140d68582613ed8565b94506140e183614a70565b60209a909a01999250506001016140bd565b60006140fe82614a76565b6141088185614a7a565b93508360208202850161411a85614a70565b8060005b8581101561403757848403895281516141378582613ef0565b945061414283614a70565b60209a909a019992505060010161411e565b600061415f82614a76565b6141698185614a7a565b935061417483614a70565b8060005b83811015613fcb57815161418c8882613efc565b975061419783614a70565b925050600101614178565b60006141ad82614a76565b6141b78185614a7a565b93506141c283614a70565b8060005b83811015613fcb5781516141da8882613f10565b97506141e583614a70565b9250506001016141c6565b60006141fb82614a76565b6142058185614a7a565b935061421083614a70565b8060005b83811015613fcb5781516142288882613f24565b975061423383614a70565b925050600101614214565b600061424982614a76565b6142538185614a7a565b935061425e83614a70565b8060005b83811015613fcb5781516142768882613f39565b975061428183614a70565b925050600101614262565b600061429782614a76565b6142a18185614a7a565b93506142ac83614a70565b8060005b83811015613fcb5781516142c48882613f4d565b97506142cf83614a70565b9250506001016142b0565b60006142e582614a76565b6142ef8185614a7a565b93506142fa83614a70565b8060005b83811015613fcb5781516143128882613f59565b975061431d83614a70565b9250506001016142fe565b613f6e81614a93565b600061433c82614a76565b6143468185614a7a565b9350614356818560208601614aef565b61435f81614b1b565b9093019392505050565b613f6e81614a98565b600061437d82614a76565b6143878185614a83565b9350614397818560208601614aef565b9290920192915050565b60006143ae601783614a7a565b7f6163636f756e74206c6971756964697479206572726f72000000000000000000815260200192915050565b60006143e7602183614a7a565b7f536166654d6174683a206d756c7469706c69636174696f6e206f766572666c6f8152607760f81b602082015260400192915050565b80516060808452600091908401906144358282614044565b915050602083015161444a6020860182614863565b50604083015161445d6040860182614863565b509392505050565b80516000906101a084019061447a8582614863565b50602083015161448d6020860182613f74565b5060408301516144a06040860182614863565b50606083015184820360608601526144b88282613f7d565b915050608083015184820360808601526144d282826142da565b91505060a083015184820360a08601526144ec8282614092565b91505060c083015184820360c08601526145068282613fd6565b91505060e083015161451b60e0860182614863565b50610100830151614530610100860182614863565b50610120830151614545610120860182614863565b5061014083015161455a610140860182614863565b5061016083015161456f610160860182614328565b5061018083015161445d610180860182614328565b805160808301906145958482614863565b5060208201516145a86020850182614328565b5060408201516145bb6040850182614328565b5060608201516145ce6060850182614875565b50505050565b805160c08301906145e58482613f74565b5060208201516145f86020850182614863565b50604082015161460b6040850182614863565b50606082015161461e6060850182614863565b5060808201516146316080850182614863565b5060a08201516145ce60a0850182614863565b80516102408301906146568482613f74565b5060208201516146696020850182614863565b50604082015161467c6040850182614863565b50606082015161468f6060850182614863565b5060808201516146a26080850182614863565b5060a08201516146b560a0850182614863565b5060c08201516146c860c0850182614863565b5060e08201516146db60e0850182614863565b506101008201516146f0610100850182614863565b50610120820151614705610120850182614328565b5061014082015161471a610140850182614863565b5061016082015161472f610160850182613f74565b50610180820151614744610180850182614863565b506101a08201516147596101a0850182614863565b506101c082015161476e6101c0850182614863565b506101e08201516147836101e0850182614863565b50610200820151614798610200850182614863565b506102208201516145ce610220850182614863565b805160408301906147be8482613f74565b5060208201516145ce6020850182614863565b805160408301906147be8482614863565b805160808301906147f38482614863565b5060208201516148066020850182614863565b5060408201516148196040850182613f74565b5060608201516145ce6060850182614863565b8051606083019061483d8482614863565b5060208201516148506020850182614863565b5060408201516145ce6040850182613f74565b613f6e81614abb565b613f6e81614ae4565b613f6e81614acd565b60006108258284614372565b602081016103548284613f74565b602081016103548284613f65565b604081016148b48285613f65565b6108256020830184613f74565b604081016148b48285613f74565b604081016148dd8285613f74565b610825602083018461486c565b6020808252810161082581846140f3565b602080825281016108258184614154565b6020808252810161082581846141a2565b6020808252810161082581846141f0565b60208082528101610825818461423e565b60208082528101610825818461428c565b602081016103548284614369565b602080825281016108258184614331565b60208082528101610354816143a1565b60208082528101610354816143da565b60208082528101610825818461441d565b60c0810161035482846145d4565b61024081016103548284614644565b6040810161035482846147ad565b6080810161035482846147e2565b60608101610354828461482c565b602081016103548284614863565b604081016148b48285614863565b6040518181016001600160401b0381118282101715614a2157600080fd5b604052919050565b60006001600160401b03821115614a3f57600080fd5b5060209081020190565b60006001600160401b03821115614a5f57600080fd5b506020601f91909101601f19160190565b60200190565b5190565b90815260200190565b919050565b600061035482614aa3565b151590565b600061035482614a88565b6001600160a01b031690565b6001600160e01b031690565b90565b63ffffffff1690565b60ff1690565b6001600160601b031690565b600061035482614a98565b600061035482614abe565b60005b83811015614b0a578181015183820152602001614af2565b838111156145ce5750506000910152565b601f01601f191690565b614b2e81614a88565b8114614b3957600080fd5b50565b614b2e81614a93565b614b2e81614a98565b614b2e81614aaf565b614b2e81614abb565b614b2e81614abe565b614b2e81614ac7565b614b2e81614acd56fea365627a7a7231582094db6feddb954f1f150200ab9d0438630e72b30e5f3f983d83c8acdcb75c91f66c6578706572696d656e74616cf564736f6c63430005100040",
  "linkReferences": {},
  "deployedLinkReferences": {}
}