{
  "_format": "hh-sol-artifact-1",
  "contractName": "VenusChainlinkOracle",
  "sourceName": "contracts/VenusChainlinkOracle.sol",
  "abi": [
    {
      "inputs": [
        {
          "internalType": "uint256",
          "name": "maxStalePeriod_",
          "type": "uint256"
        }
      ],
      "payable": false,
      "stateMutability": "nonpayable",
      "type": "constructor"
    },
    {
      "anonymous": false,
      "inputs": [
        {
          "indexed": false,
          "internalType": "address",
          "name": "feed",
          "type": "address"
        },
        {
          "indexed": false,
          "internalType": "string",
          "name": "symbol",
          "type": "string"
        }
      ],
      "name": "FeedSet",
      "type": "event"
    },
    {
      "anonymous": false,
      "inputs": [
        {
          "indexed": false,
          "internalType": "uint256",
          "name": "oldMaxStalePeriod",
          "type": "uint256"
        },
        {
          "indexed": false,
          "internalType": "uint256",
          "name": "newMaxStalePeriod",
          "type": "uint256"
        }
      ],
      "name": "MaxStalePeriodUpdated",
      "type": "event"
    },
    {
      "anonymous": false,
      "inputs": [
        {
          "indexed": false,
          "internalType": "address",
          "name": "oldAdmin",
          "type": "address"
        },
        {
          "indexed": false,
          "internalType": "address",
          "name": "newAdmin",
          "type": "address"
        }
      ],
      "name": "NewAdmin",
      "type": "event"
    },
    {
      "anonymous": false,
      "inputs": [
        {
          "indexed": false,
          "internalType": "address",
          "name": "asset",
          "type": "address"
        },
        {
          "indexed": false,
          "internalType": "uint256",
          "name": "previousPriceMantissa",
          "type": "uint256"
        },
        {
          "indexed": false,
          "internalType": "uint256",
          "name": "requestedPriceMantissa",
          "type": "uint256"
        },
        {
          "indexed": false,
          "internalType": "uint256",
          "name": "newPriceMantissa",
          "type": "uint256"
        }
      ],
      "name": "PricePosted",
      "type": "event"
    },
    {
      "constant": true,
      "inputs": [],
      "name": "VAI_VALUE",
      "outputs": [
        {
          "internalType": "uint256",
          "name": "",
          "type": "uint256"
        }
      ],
      "payable": false,
      "stateMutability": "view",
      "type": "function"
    },
    {
      "constant": true,
      "inputs": [],
      "name": "admin",
      "outputs": [
        {
          "internalType": "address",
          "name": "",
          "type": "address"
        }
      ],
      "payable": false,
      "stateMutability": "view",
      "type": "function"
    },
    {
      "constant": true,
      "inputs": [
        {
          "internalType": "address",
          "name": "asset",
          "type": "address"
        }
      ],
      "name": "assetPrices",
      "outputs": [
        {
          "internalType": "uint256",
          "name": "",
          "type": "uint256"
        }
      ],
      "payable": false,
      "stateMutability": "view",
      "type": "function"
    },
    {
      "constant": true,
      "inputs": [
        {
          "internalType": "string",
          "name": "symbol",
          "type": "string"
        }
      ],
      "name": "getFeed",
      "outputs": [
        {
          "internalType": "contract AggregatorV2V3Interface",
          "name": "",
          "type": "address"
        }
      ],
      "payable": false,
      "stateMutability": "view",
      "type": "function"
    },
    {
      "constant": true,
      "inputs": [
        {
          "internalType": "contract VToken",
          "name": "vToken",
          "type": "address"
        }
      ],
      "name": "getUnderlyingPrice",
      "outputs": [
        {
          "internalType": "uint256",
          "name": "",
          "type": "uint256"
        }
      ],
      "payable": false,
      "stateMutability": "view",
      "type": "function"
    },
    {
      "constant": true,
      "inputs": [],
      "name": "isPriceOracle",
      "outputs": [
        {
          "internalType": "bool",
          "name": "",
          "type": "bool"
        }
      ],
      "payable": false,
      "stateMutability": "view",
      "type": "function"
    },
    {
      "constant": true,
      "inputs": [],
      "name": "maxStalePeriod",
      "outputs": [
        {
          "internalType": "uint256",
          "name": "",
          "type": "uint256"
        }
      ],
      "payable": false,
      "stateMutability": "view",
      "type": "function"
    },
    {
      "constant": false,
      "inputs": [
        {
          "internalType": "address",
          "name": "newAdmin",
          "type": "address"
        }
      ],
      "name": "setAdmin",
      "outputs": [],
      "payable": false,
      "stateMutability": "nonpayable",
      "type": "function"
    },
    {
      "constant": false,
      "inputs": [
        {
          "internalType": "address",
          "name": "asset",
          "type": "address"
        },
        {
          "internalType": "uint256",
          "name": "price",
          "type": "uint256"
        }
      ],
      "name": "setDirectPrice",
      "outputs": [],
      "payable": false,
      "stateMutability": "nonpayable",
      "type": "function"
    },
    {
      "constant": false,
      "inputs": [
        {
          "internalType": "string",
          "name": "symbol",
          "type": "string"
        },
        {
          "internalType": "address",
          "name": "feed",
          "type": "address"
        }
      ],
      "name": "setFeed",
      "outputs": [],
      "payable": false,
      "stateMutability": "nonpayable",
      "type": "function"
    },
    {
      "constant": false,
      "inputs": [
        {
          "internalType": "uint256",
          "name": "newMaxStalePeriod",
          "type": "uint256"
        }
      ],
      "name": "setMaxStalePeriod",
      "outputs": [],
      "payable": false,
      "stateMutability": "nonpayable",
      "type": "function"
    },
    {
      "constant": false,
      "inputs": [
        {
          "internalType": "contract VToken",
          "name": "vToken",
          "type": "address"
        },
        {
          "internalType": "uint256",
          "name": "underlyingPriceMantissa",
          "type": "uint256"
        }
      ],
      "name": "setUnderlyingPrice",
      "outputs": [],
      "payable": false,
      "stateMutability": "nonpayable",
      "type": "function"
    }
  ],
  "bytecode": "0x608060405234801561001057600080fd5b506040516111ad3803806111ad8339818101604052602081101561003357600080fd5b5051600080546001600160a01b03191633179055600155611154806100596000396000f3fe608060405234801561001057600080fd5b50600436106100b45760003560e01c806366331bba1161007157806366331bba1461029f578063704b6c02146102bb5780637361e5ff146102e1578063b9de61e2146102e9578063f851a440146102f1578063fc57d4df146102f9576100b4565b806309a8acb0146100b95780630c607acf146100e7578063127ffda01461015e5780633107d3df1461018a5780633b39a51c146101a75780635e9a523c14610267575b600080fd5b6100e5600480360360408110156100cf57600080fd5b506001600160a01b03813516906020013561031f565b005b6100e5600480360360408110156100fd57600080fd5b810190602081018135600160201b81111561011757600080fd5b82018360208201111561012957600080fd5b803590602001918460018302840111600160201b8311171561014a57600080fd5b9193509150356001600160a01b03166103ee565b6100e56004803603604081101561017457600080fd5b506001600160a01b038135169060200135610592565b6100e5600480360360208110156101a057600080fd5b50356106cb565b61024b600480360360208110156101bd57600080fd5b810190602081018135600160201b8111156101d757600080fd5b8201836020820111156101e957600080fd5b803590602001918460018302840111600160201b8311171561020a57600080fd5b91908080601f0160208091040260200160405190810160405280939291908181526020018383808284376000920191909152509295506107bc945050505050565b604080516001600160a01b039092168252519081900360200190f35b61028d6004803603602081101561027d57600080fd5b50356001600160a01b031661085a565b60408051918252519081900360200190f35b6102a7610875565b604080519115158252519081900360200190f35b6100e5600480360360208110156102d157600080fd5b50356001600160a01b031661087a565b61028d610932565b61028d610938565b61024b610944565b61028d6004803603602081101561030f57600080fd5b50356001600160a01b0316610953565b6000546001600160a01b03163314610374576040805162461bcd60e51b81526020600482015260136024820152721bdb9b1e4818591b5a5b881b585e4818d85b1b606a1b604482015290519081900360640190fd5b6001600160a01b0382166000818152600260209081526040918290205482519384529083015281810183905260608201839052517fdd71a1d19fcba687442a1d5c58578f1e409af71a79d10fd95a4d66efd8fa9ae79181900360800190a16001600160a01b03909116600090815260026020526040902055565b6000546001600160a01b03163314610443576040805162461bcd60e51b81526020600482015260136024820152721bdb9b1e4818591b5a5b881b585e4818d85b1b606a1b604482015290519081900360640190fd5b6001600160a01b0381161580159061046457506001600160a01b0381163014155b6104ac576040805162461bcd60e51b8152602060048201526014602482015273696e76616c69642066656564206164647265737360601b604482015290519081900360640190fd5b7fd9e7d1778ca05570ced72c9aeb12a41fcc76f7f57ea25853dea228f8836d002281848460405180846001600160a01b03166001600160a01b03168152602001806020018281038252848482818152602001925080828437600083820152604051601f909101601f1916909201829003965090945050505050a18060036000858560405160200180838380828437808301925050509250505060405160208183030381529060405280519060200120815260200190815260200160002060006101000a8154816001600160a01b0302191690836001600160a01b03160217905550505050565b6000546001600160a01b031633146105e7576040805162461bcd60e51b81526020600482015260136024820152721bdb9b1e4818591b5a5b881b585e4818d85b1b606a1b604482015290519081900360640190fd5b6000826001600160a01b0316636f307dc36040518163ffffffff1660e01b815260040160206040518083038186803b15801561062257600080fd5b505afa158015610636573d6000803e3d6000fd5b505050506040513d602081101561064c57600080fd5b50516001600160a01b0381166000818152600260209081526040918290205482519384529083015281810185905260608201859052519192507fdd71a1d19fcba687442a1d5c58578f1e409af71a79d10fd95a4d66efd8fa9ae7919081900360800190a16001600160a01b031660009081526002602052604090205550565b6000546001600160a01b03163314610720576040805162461bcd60e51b81526020600482015260136024820152721bdb9b1e4818591b5a5b881b585e4818d85b1b606a1b604482015290519081900360640190fd5b60008111610775576040805162461bcd60e51b815260206004820152601a60248201527f7374616c6520706572696f642063616e2774206265207a65726f000000000000604482015290519081900360640190fd5b6001805490829055604080518281526020810184905281517fee4e443779cd261a31d42e5e8b3653b6dacc2b9adafebc4dfb712efd6cb22796929181900390910190a15050565b600060036000836040516020018082805190602001908083835b602083106107f55780518252601f1990920191602091820191016107d6565b6001836020036101000a03801982511681845116808217855250505050505090500191505060405160208183030381529060405280519060200120815260200190815260200160002060009054906101000a90046001600160a01b031690505b919050565b6001600160a01b031660009081526002602052604090205490565b600181565b6000546001600160a01b031633146108cf576040805162461bcd60e51b81526020600482015260136024820152721bdb9b1e4818591b5a5b881b585e4818d85b1b606a1b604482015290519081900360640190fd5b600080546001600160a01b038381166001600160a01b0319831681179093556040805191909216808252602082019390935281517ff9ffabca9c8276e99321725bcb43fb076a6c66a54b7f21c4e8146d8519b417dc929181900390910190a15050565b60015481565b670de0b6b3a764000081565b6000546001600160a01b031681565b60006060826001600160a01b03166395d89b416040518163ffffffff1660e01b815260040160006040518083038186803b15801561099057600080fd5b505afa1580156109a4573d6000803e3d6000fd5b505050506040513d6000823e601f3d908101601f1916820160405260208110156109cd57600080fd5b8101908080516040519392919084600160201b8211156109ec57600080fd5b908301906020820185811115610a0157600080fd5b8251600160201b811182820188101715610a1a57600080fd5b82525081516020918201929091019080838360005b83811015610a47578181015183820152602001610a2f565b50505050905090810190601f168015610a745780820380516001836020036101000a031916815260200191505b506040525050509050610aa381604051806040016040528060048152602001633b21272160e11b815250610b4f565b15610ac157610ab9610ab4826107bc565b610c37565b915050610855565b610ae6816040518060400160405280600381526020016256414960e81b815250610b4f565b15610afc57670de0b6b3a7640000915050610855565b610b21816040518060400160405280600381526020016258565360e81b815250610b4f565b15610b465750506001600160a01b038116600090815260026020526040902054610855565b610ab983610d7f565b6000816040516020018082805190602001908083835b60208310610b845780518252601f199092019160209182019101610b65565b6001836020036101000a03801982511681845116808217855250505050505090500191505060405160208183030381529060405280519060200120836040516020018082805190602001908083835b60208310610bf25780518252601f199092019160209182019101610bd3565b6001836020036101000a038019825116818451168082178552505050505050905001915050604051602081830303815290604052805190602001201490505b92915050565b600080610cb3836001600160a01b031663313ce5676040518163ffffffff1660e01b815260040160206040518083038186803b158015610c7657600080fd5b505afa158015610c8a573d6000803e3d6000fd5b505050506040513d6020811015610ca057600080fd5b505160129060ff1663ffffffff610fc516565b9050600080846001600160a01b031663feaf968c6040518163ffffffff1660e01b815260040160a06040518083038186803b158015610cf157600080fd5b505afa158015610d05573d6000803e3d6000fd5b505050506040513d60a0811015610d1b57600080fd5b5060208101516060909101516001549193509150610d3f428363ffffffff610fc516565b1115610d515760009350505050610855565b8215610d7557610d6b82600a85900a63ffffffff61100e16565b9350505050610855565b5091506108559050565b600080826001600160a01b0316636f307dc36040518163ffffffff1660e01b815260040160206040518083038186803b158015610dbb57600080fd5b505afa158015610dcf573d6000803e3d6000fd5b505050506040513d6020811015610de557600080fd5b50516001600160a01b03811660009081526002602052604090205490915015610e28576001600160a01b0381166000908152600260205260409020549150610f5a565b610f57610ab4826001600160a01b03166395d89b416040518163ffffffff1660e01b815260040160006040518083038186803b158015610e6757600080fd5b505afa158015610e7b573d6000803e3d6000fd5b505050506040513d6000823e601f3d908101601f191682016040526020811015610ea457600080fd5b8101908080516040519392919084600160201b821115610ec357600080fd5b908301906020820185811115610ed857600080fd5b8251600160201b811182820188101715610ef157600080fd5b82525081516020918201929091019080838360005b83811015610f1e578181015183820152602001610f06565b50505050905090810190601f168015610f4b5780820380516001836020036101000a031916815260200191505b506040525050506107bc565b91505b6000610f98826001600160a01b031663313ce5676040518163ffffffff1660e01b815260040160206040518083038186803b158015610c7657600080fd5b90508015610fbd57610fb483600a83900a63ffffffff61100e16565b92505050610855565b506108559050565b600061100783836040518060400160405280601e81526020017f536166654d6174683a207375627472616374696f6e206f766572666c6f770000815250611067565b9392505050565b60008261101d57506000610c31565b8282028284828161102a57fe5b04146110075760405162461bcd60e51b81526004018080602001828103825260218152602001806110ff6021913960400191505060405180910390fd5b600081848411156110f65760405162461bcd60e51b81526004018080602001828103825283818151815260200191508051906020019080838360005b838110156110bb5781810151838201526020016110a3565b50505050905090810190601f1680156110e85780820380516001836020036101000a031916815260200191505b509250505060405180910390fd5b50505090039056fe536166654d6174683a206d756c7469706c69636174696f6e206f766572666c6f77a265627a7a72315820c847258015615a56a3baf61070594dff19117ded9169f5035daa028a0fe89b7c64736f6c63430005100032",
  "linkReferences": {},
  "deployedLinkReferences": {}
}