{
  "_format": "hh-sol-artifact-1",
  "contractName": "VenusPriceOracle",
  "sourceName": "contracts/VenusPriceOracle.sol",
  "abi": [
    {
      "inputs": [
        {
          "internalType": "contract IStdReference",
          "name": "_ref",
          "type": "address"
        }
      ],
      "payable": false,
      "stateMutability": "nonpayable",
      "type": "constructor"
    },
    {
      "anonymous": false,
      "inputs": [
        {
          "indexed": false,
          "internalType": "address",
          "name": "oldAdmin",
          "type": "address"
        },
        {
          "indexed": false,
          "internalType": "address",
          "name": "newAdmin",
          "type": "address"
        }
      ],
      "name": "NewAdmin",
      "type": "event"
    },
    {
      "anonymous": false,
      "inputs": [
        {
          "indexed": false,
          "internalType": "address",
          "name": "asset",
          "type": "address"
        },
        {
          "indexed": false,
          "internalType": "uint256",
          "name": "previousPriceMantissa",
          "type": "uint256"
        },
        {
          "indexed": false,
          "internalType": "uint256",
          "name": "requestedPriceMantissa",
          "type": "uint256"
        },
        {
          "indexed": false,
          "internalType": "uint256",
          "name": "newPriceMantissa",
          "type": "uint256"
        }
      ],
      "name": "PricePosted",
      "type": "event"
    },
    {
      "constant": true,
      "inputs": [],
      "name": "admin",
      "outputs": [
        {
          "internalType": "address",
          "name": "",
          "type": "address"
        }
      ],
      "payable": false,
      "stateMutability": "view",
      "type": "function"
    },
    {
      "constant": true,
      "inputs": [
        {
          "internalType": "address",
          "name": "asset",
          "type": "address"
        }
      ],
      "name": "assetPrices",
      "outputs": [
        {
          "internalType": "uint256",
          "name": "",
          "type": "uint256"
        }
      ],
      "payable": false,
      "stateMutability": "view",
      "type": "function"
    },
    {
      "constant": true,
      "inputs": [
        {
          "internalType": "contract VToken",
          "name": "vToken",
          "type": "address"
        }
      ],
      "name": "getUnderlyingPrice",
      "outputs": [
        {
          "internalType": "uint256",
          "name": "",
          "type": "uint256"
        }
      ],
      "payable": false,
      "stateMutability": "view",
      "type": "function"
    },
    {
      "constant": true,
      "inputs": [],
      "name": "isPriceOracle",
      "outputs": [
        {
          "internalType": "bool",
          "name": "",
          "type": "bool"
        }
      ],
      "payable": false,
      "stateMutability": "view",
      "type": "function"
    },
    {
      "constant": false,
      "inputs": [
        {
          "internalType": "address",
          "name": "newAdmin",
          "type": "address"
        }
      ],
      "name": "setAdmin",
      "outputs": [],
      "payable": false,
      "stateMutability": "nonpayable",
      "type": "function"
    },
    {
      "constant": false,
      "inputs": [
        {
          "internalType": "address",
          "name": "asset",
          "type": "address"
        },
        {
          "internalType": "uint256",
          "name": "price",
          "type": "uint256"
        }
      ],
      "name": "setDirectPrice",
      "outputs": [],
      "payable": false,
      "stateMutability": "nonpayable",
      "type": "function"
    },
    {
      "constant": false,
      "inputs": [
        {
          "internalType": "contract VToken",
          "name": "vToken",
          "type": "address"
        },
        {
          "internalType": "uint256",
          "name": "underlyingPriceMantissa",
          "type": "uint256"
        }
      ],
      "name": "setUnderlyingPrice",
      "outputs": [],
      "payable": false,
      "stateMutability": "nonpayable",
      "type": "function"
    }
  ],
  "bytecode": "0x60806040523480156200001157600080fd5b506040516200110738038062001107833981016040819052620000349162000076565b600280546001600160a01b039092166001600160a01b03199283161790556000805490911633179055620000df565b80516200007081620000c5565b92915050565b6000602082840312156200008957600080fd5b600062000097848462000063565b949350505050565b60006200007082620000b9565b600062000070826200009f565b6001600160a01b031690565b620000d081620000ac565b8114620000dc57600080fd5b50565b61101880620000ef6000396000f3fe608060405234801561001057600080fd5b506004361061007d5760003560e01c806366331bba1161005b57806366331bba146100d3578063704b6c02146100e8578063f851a440146100fb578063fc57d4df146101105761007d565b806309a8acb014610082578063127ffda0146100975780635e9a523c146100aa575b600080fd5b610095610090366004610b0e565b610123565b005b6100956100a5366004610b66565b6101c9565b6100bd6100b8366004610aca565b6102da565b6040516100ca9190610ecf565b60405180910390f35b6100db6102f9565b6040516100ca9190610e29565b6100956100f6366004610aca565b6102fe565b610103610387565b6040516100ca9190610dc2565b6100bd61011e366004610b48565b610396565b6000546001600160a01b031633146101565760405162461bcd60e51b815260040161014d90610e6c565b60405180910390fd5b6001600160a01b038216600090815260016020526040908190205490517fdd71a1d19fcba687442a1d5c58578f1e409af71a79d10fd95a4d66efd8fa9ae7916101a59185919085908190610deb565b60405180910390a16001600160a01b03909116600090815260016020526040902055565b6000546001600160a01b031633146101f35760405162461bcd60e51b815260040161014d90610eaf565b6000826001600160a01b0316636f307dc36040518163ffffffff1660e01b815260040160206040518083038186803b15801561022e57600080fd5b505afa158015610242573d6000803e3d6000fd5b505050506040513d601f19601f820116820180604052506102669190810190610af0565b6001600160a01b038116600090815260016020526040908190205490519192507fdd71a1d19fcba687442a1d5c58578f1e409af71a79d10fd95a4d66efd8fa9ae7916102b791849186908190610deb565b60405180910390a16001600160a01b031660009081526001602052604090205550565b6001600160a01b0381166000908152600160205260409020545b919050565b600181565b6000546001600160a01b031633146103285760405162461bcd60e51b815260040161014d90610e9f565b600080546001600160a01b038381166001600160a01b03198316179092556040519116907ff9ffabca9c8276e99321725bcb43fb076a6c66a54b7f21c4e8146d8519b417dc9061037b9083908590610dd0565b60405180910390a15050565b6000546001600160a01b031681565b6000610432826001600160a01b03166395d89b416040518163ffffffff1660e01b815260040160006040518083038186803b1580156103d457600080fd5b505afa1580156103e8573d6000803e3d6000fd5b505050506040513d6000823e601f3d908101601f191682016040526104109190810190610b85565b604051806040016040528060048152602001633b21272160e11b815250610836565b156104c75761043f6109b8565b60025460405163195556f360e21b81526001600160a01b03909116906365555bcc9061046d90600401610e7c565b60606040518083038186803b15801561048557600080fd5b505afa158015610499573d6000803e3d6000fd5b505050506040513d601f19601f820116820180604052506104bd9190810190610bba565b5191506102f49050565b610560826001600160a01b03166395d89b416040518163ffffffff1660e01b815260040160006040518083038186803b15801561050357600080fd5b505afa158015610517573d6000803e3d6000fd5b505050506040513d6000823e601f3d908101601f1916820160405261053f9190810190610b85565b6040518060400160405280600381526020016258565360e81b815250610836565b1561058457506001600160a01b0381166000908152600160205260409020546102f4565b600080836001600160a01b0316636f307dc36040518163ffffffff1660e01b815260040160206040518083038186803b1580156105c057600080fd5b505afa1580156105d4573d6000803e3d6000fd5b505050506040513d601f19601f820116820180604052506105f89190810190610af0565b6001600160a01b03811660009081526001602052604090205490915015610639576001600160a01b038116600090815260016020526040902054915061074b565b6106416109b8565b600260009054906101000a90046001600160a01b03166001600160a01b03166365555bcc836001600160a01b03166395d89b416040518163ffffffff1660e01b815260040160006040518083038186803b15801561069e57600080fd5b505afa1580156106b2573d6000803e3d6000fd5b505050506040513d6000823e601f3d908101601f191682016040526106da9190810190610b85565b6040518263ffffffff1660e01b81526004016106f69190610e48565b60606040518083038186803b15801561070e57600080fd5b505afa158015610722573d6000803e3d6000fd5b505050506040513d601f19601f820116820180604052506107469190810190610bba565b519250505b6000601290506000826001600160a01b031663313ce5676040518163ffffffff1660e01b815260040160206040518083038186803b15801561078c57600080fd5b505afa1580156107a0573d6000803e3d6000fd5b505050506040513d601f19601f820116820180604052506107c49190810190610bd8565b60ff169050808214156107dd57839450505050506102f4565b80821115610813576108086107f8838363ffffffff61089016565b8590600a0a63ffffffff6108d916565b9450505050506102f4565b610808610826828463ffffffff61089016565b8590600a0a63ffffffff61091316565b6000816040516020016108499190610db6565b60405160208183030381529060405280519060200120836040516020016108709190610db6565b604051602081830303815290604052805190602001201490505b92915050565b60006108d283836040518060400160405280601e81526020017f536166654d6174683a207375627472616374696f6e206f766572666c6f770000815250610955565b9392505050565b6000826108e85750600061088a565b828202828482816108f557fe5b04146108d25760405162461bcd60e51b815260040161014d90610ebf565b60006108d283836040518060400160405280601a81526020017f536166654d6174683a206469766973696f6e206279207a65726f000000000000815250610981565b600081848411156109795760405162461bcd60e51b815260040161014d9190610e37565b505050900390565b600081836109a25760405162461bcd60e51b815260040161014d9190610e37565b5060008385816109ae57fe5b0495945050505050565b60405180606001604052806000815260200160008152602001600081525090565b803561088a81610fa3565b805161088a81610fa3565b803561088a81610fba565b600082601f830112610a0b57600080fd5b8151610a1e610a1982610f04565b610edd565b91508082526020830160208301858383011115610a3a57600080fd5b610a45838284610f69565b50505092915050565b600060608284031215610a6057600080fd5b610a6a6060610edd565b90506000610a788484610ab4565b8252506020610a8984848301610ab4565b6020830152506040610a9d84828501610ab4565b60408301525092915050565b803561088a81610fc3565b805161088a81610fc3565b805161088a81610fcc565b600060208284031215610adc57600080fd5b6000610ae884846109d9565b949350505050565b600060208284031215610b0257600080fd5b6000610ae884846109e4565b60008060408385031215610b2157600080fd5b6000610b2d85856109d9565b9250506020610b3e85828601610aa9565b9150509250929050565b600060208284031215610b5a57600080fd5b6000610ae884846109ef565b60008060408385031215610b7957600080fd5b6000610b2d85856109ef565b600060208284031215610b9757600080fd5b815167ffffffffffffffff811115610bae57600080fd5b610ae8848285016109fa565b600060608284031215610bcc57600080fd5b6000610ae88484610a4e565b600060208284031215610bea57600080fd5b6000610ae88484610abf565b610bff81610f39565b82525050565b610bff81610f44565b6000610c1982610f2c565b610c238185610f30565b9350610c33818560208601610f69565b610c3c81610f99565b9093019392505050565b6000610c5182610f2c565b610c5b81856102f4565b9350610c6b818560208601610f69565b9290920192915050565b6000610c82601883610f30565b7f6f6e6c792061646d696e2063616e207365742070726963650000000000000000815260200192915050565b6000610cbb600383610f30565b6221272160e91b815260200192915050565b6000610cda601c83610f30565b7f6f6e6c792061646d696e2063616e20736574206e65772061646d696e00000000815260200192915050565b6000610d13602383610f30565b7f6f6e6c792061646d696e2063616e2073657420756e6465726c79696e6720707281526269636560e81b602082015260400192915050565b6000610d58602183610f30565b7f536166654d6174683a206d756c7469706c69636174696f6e206f766572666c6f8152607760f81b602082015260400192915050565b6000610d9b600383610f30565b621554d160ea1b815260200192915050565b610bff81610f60565b60006108d28284610c46565b6020810161088a8284610bf6565b60408101610dde8285610bf6565b6108d26020830184610bf6565b60808101610df98287610bf6565b610e066020830186610dad565b610e136040830185610dad565b610e206060830184610dad565b95945050505050565b6020810161088a8284610c05565b602080825281016108d28184610c0e565b60408082528101610e598184610c0e565b905081810360208301526108d281610d8e565b6020808252810161088a81610c75565b60408082528101610e8c81610cae565b9050818103602083015261088a81610d8e565b6020808252810161088a81610ccd565b6020808252810161088a81610d06565b6020808252810161088a81610d4b565b6020810161088a8284610dad565b60405181810167ffffffffffffffff81118282101715610efc57600080fd5b604052919050565b600067ffffffffffffffff821115610f1b57600080fd5b506020601f91909101601f19160190565b5190565b90815260200190565b600061088a82610f54565b151590565b600061088a82610f39565b6001600160a01b031690565b90565b60ff1690565b60005b83811015610f84578181015183820152602001610f6c565b83811115610f93576000848401525b50505050565b601f01601f191690565b610fac81610f39565b8114610fb757600080fd5b50565b610fac81610f49565b610fac81610f60565b610fac81610f6356fea365627a7a72315820537169e09c7d589cb70d7f20eddab2949f057c28139eef5b38c3cd16a169c6be6c6578706572696d656e74616cf564736f6c63430005100040",
  "linkReferences": {},
  "deployedLinkReferences": {}
}