{
  "_format": "hh-sol-artifact-1",
  "contractName": "VRTConverterAdminStorage",
  "sourceName": "contracts/VRT/VRTConverterStorage.sol",
  "abi": [
    {
      "constant": true,
      "inputs": [],
      "name": "admin",
      "outputs": [
        {
          "internalType": "address",
          "name": "",
          "type": "address"
        }
      ],
      "payable": false,
      "stateMutability": "view",
      "type": "function"
    },
    {
      "constant": true,
      "inputs": [],
      "name": "implementation",
      "outputs": [
        {
          "internalType": "address",
          "name": "",
          "type": "address"
        }
      ],
      "payable": false,
      "stateMutability": "view",
      "type": "function"
    },
    {
      "constant": true,
      "inputs": [],
      "name": "pendingAdmin",
      "outputs": [
        {
          "internalType": "address",
          "name": "",
          "type": "address"
        }
      ],
      "payable": false,
      "stateMutability": "view",
      "type": "function"
    },
    {
      "constant": true,
      "inputs": [],
      "name": "pendingImplementation",
      "outputs": [
        {
          "internalType": "address",
          "name": "",
          "type": "address"
        }
      ],
      "payable": false,
      "stateMutability": "view",
      "type": "function"
    }
  ],
  "bytecode": "0x608060405234801561001057600080fd5b5060f08061001f6000396000f3fe6080604052348015600f57600080fd5b506004361060465760003560e01c80632678224714604b578063396f7b2314606d5780635c60da1b146073578063f851a440146079575b600080fd5b6051607f565b604080516001600160a01b039092168252519081900360200190f35b6051608e565b6051609d565b605160ac565b6001546001600160a01b031681565b6003546001600160a01b031681565b6002546001600160a01b031681565b6000546001600160a01b03168156fea265627a7a7231582020f98d96d8373229b38833c3a7bac69b9e061e1b4008bae6908917f8cb3c1ffb64736f6c63430005100032",
  "linkReferences": {},
  "deployedLinkReferences": {}
}