{
  "_format": "hh-sol-artifact-1",
  "contractName": "VRTConverterHarness",
  "sourceName": "contracts/test/VRTConverterHarness.sol",
  "abi": [
    {
      "inputs": [],
      "payable": false,
      "stateMutability": "nonpayable",
      "type": "constructor"
    },
    {
      "anonymous": false,
      "inputs": [
        {
          "indexed": false,
          "internalType": "uint256",
          "name": "conversionRatio",
          "type": "uint256"
        },
        {
          "indexed": false,
          "internalType": "uint256",
          "name": "conversionStartTime",
          "type": "uint256"
        },
        {
          "indexed": false,
          "internalType": "uint256",
          "name": "conversionPeriod",
          "type": "uint256"
        },
        {
          "indexed": false,
          "internalType": "uint256",
          "name": "conversionEndTime",
          "type": "uint256"
        }
      ],
      "name": "ConversionInfoSet",
      "type": "event"
    },
    {
      "anonymous": false,
      "inputs": [
        {
          "indexed": false,
          "internalType": "address",
          "name": "reedeemer",
          "type": "address"
        },
        {
          "indexed": false,
          "internalType": "address",
          "name": "vrtAddress",
          "type": "address"
        },
        {
          "indexed": false,
          "internalType": "uint256",
          "name": "vrtAmount",
          "type": "uint256"
        },
        {
          "indexed": false,
          "internalType": "address",
          "name": "xvsAddress",
          "type": "address"
        },
        {
          "indexed": false,
          "internalType": "uint256",
          "name": "xvsAmount",
          "type": "uint256"
        }
      ],
      "name": "TokenConverted",
      "type": "event"
    },
    {
      "anonymous": false,
      "inputs": [
        {
          "indexed": false,
          "internalType": "address",
          "name": "token",
          "type": "address"
        },
        {
          "indexed": false,
          "internalType": "address",
          "name": "to",
          "type": "address"
        },
        {
          "indexed": false,
          "internalType": "uint256",
          "name": "amount",
          "type": "uint256"
        }
      ],
      "name": "TokenWithdraw",
      "type": "event"
    },
    {
      "anonymous": false,
      "inputs": [
        {
          "indexed": false,
          "internalType": "address",
          "name": "xvsVestingAddress",
          "type": "address"
        }
      ],
      "name": "XVSVestingSet",
      "type": "event"
    },
    {
      "constant": true,
      "inputs": [],
      "name": "DEAD_ADDRESS",
      "outputs": [
        {
          "internalType": "address",
          "name": "",
          "type": "address"
        }
      ],
      "payable": false,
      "stateMutability": "view",
      "type": "function"
    },
    {
      "constant": false,
      "inputs": [
        {
          "internalType": "contract VRTConverterProxy",
          "name": "vrtConverterProxy",
          "type": "address"
        }
      ],
      "name": "_become",
      "outputs": [],
      "payable": false,
      "stateMutability": "nonpayable",
      "type": "function"
    },
    {
      "constant": true,
      "inputs": [],
      "name": "_notEntered",
      "outputs": [
        {
          "internalType": "bool",
          "name": "",
          "type": "bool"
        }
      ],
      "payable": false,
      "stateMutability": "view",
      "type": "function"
    },
    {
      "constant": true,
      "inputs": [],
      "name": "admin",
      "outputs": [
        {
          "internalType": "address",
          "name": "",
          "type": "address"
        }
      ],
      "payable": false,
      "stateMutability": "view",
      "type": "function"
    },
    {
      "constant": true,
      "inputs": [],
      "name": "balanceOfUser",
      "outputs": [
        {
          "internalType": "uint256",
          "name": "",
          "type": "uint256"
        },
        {
          "internalType": "address",
          "name": "",
          "type": "address"
        }
      ],
      "payable": false,
      "stateMutability": "view",
      "type": "function"
    },
    {
      "constant": true,
      "inputs": [],
      "name": "conversionEndTime",
      "outputs": [
        {
          "internalType": "uint256",
          "name": "",
          "type": "uint256"
        }
      ],
      "payable": false,
      "stateMutability": "view",
      "type": "function"
    },
    {
      "constant": true,
      "inputs": [],
      "name": "conversionPeriod",
      "outputs": [
        {
          "internalType": "uint256",
          "name": "",
          "type": "uint256"
        }
      ],
      "payable": false,
      "stateMutability": "view",
      "type": "function"
    },
    {
      "constant": true,
      "inputs": [],
      "name": "conversionRatio",
      "outputs": [
        {
          "internalType": "uint256",
          "name": "",
          "type": "uint256"
        }
      ],
      "payable": false,
      "stateMutability": "view",
      "type": "function"
    },
    {
      "constant": true,
      "inputs": [],
      "name": "conversionStartTime",
      "outputs": [
        {
          "internalType": "uint256",
          "name": "",
          "type": "uint256"
        }
      ],
      "payable": false,
      "stateMutability": "view",
      "type": "function"
    },
    {
      "constant": false,
      "inputs": [
        {
          "internalType": "uint256",
          "name": "vrtAmount",
          "type": "uint256"
        }
      ],
      "name": "convert",
      "outputs": [],
      "payable": false,
      "stateMutability": "nonpayable",
      "type": "function"
    },
    {
      "constant": true,
      "inputs": [
        {
          "internalType": "uint256",
          "name": "vrtAmount",
          "type": "uint256"
        }
      ],
      "name": "getXVSRedeemedAmount",
      "outputs": [
        {
          "internalType": "uint256",
          "name": "",
          "type": "uint256"
        }
      ],
      "payable": false,
      "stateMutability": "view",
      "type": "function"
    },
    {
      "constant": true,
      "inputs": [],
      "name": "implementation",
      "outputs": [
        {
          "internalType": "address",
          "name": "",
          "type": "address"
        }
      ],
      "payable": false,
      "stateMutability": "view",
      "type": "function"
    },
    {
      "constant": false,
      "inputs": [
        {
          "internalType": "address",
          "name": "_vrtAddress",
          "type": "address"
        },
        {
          "internalType": "address",
          "name": "_xvsAddress",
          "type": "address"
        },
        {
          "internalType": "uint256",
          "name": "_conversionRatio",
          "type": "uint256"
        },
        {
          "internalType": "uint256",
          "name": "_conversionStartTime",
          "type": "uint256"
        },
        {
          "internalType": "uint256",
          "name": "_conversionPeriod",
          "type": "uint256"
        }
      ],
      "name": "initialize",
      "outputs": [],
      "payable": false,
      "stateMutability": "nonpayable",
      "type": "function"
    },
    {
      "constant": true,
      "inputs": [],
      "name": "initialized",
      "outputs": [
        {
          "internalType": "bool",
          "name": "",
          "type": "bool"
        }
      ],
      "payable": false,
      "stateMutability": "view",
      "type": "function"
    },
    {
      "constant": true,
      "inputs": [],
      "name": "isConversionActive",
      "outputs": [
        {
          "internalType": "bool",
          "name": "",
          "type": "bool"
        }
      ],
      "payable": false,
      "stateMutability": "view",
      "type": "function"
    },
    {
      "constant": true,
      "inputs": [],
      "name": "pendingAdmin",
      "outputs": [
        {
          "internalType": "address",
          "name": "",
          "type": "address"
        }
      ],
      "payable": false,
      "stateMutability": "view",
      "type": "function"
    },
    {
      "constant": true,
      "inputs": [],
      "name": "pendingImplementation",
      "outputs": [
        {
          "internalType": "address",
          "name": "",
          "type": "address"
        }
      ],
      "payable": false,
      "stateMutability": "view",
      "type": "function"
    },
    {
      "constant": false,
      "inputs": [
        {
          "internalType": "uint256",
          "name": "_conversionRatio",
          "type": "uint256"
        }
      ],
      "name": "setConversionRatio",
      "outputs": [],
      "payable": false,
      "stateMutability": "nonpayable",
      "type": "function"
    },
    {
      "constant": false,
      "inputs": [
        {
          "internalType": "uint256",
          "name": "_conversionStartTime",
          "type": "uint256"
        },
        {
          "internalType": "uint256",
          "name": "_conversionPeriod",
          "type": "uint256"
        }
      ],
      "name": "setConversionTimeline",
      "outputs": [],
      "payable": false,
      "stateMutability": "nonpayable",
      "type": "function"
    },
    {
      "constant": false,
      "inputs": [
        {
          "internalType": "address",
          "name": "_xvsVestingAddress",
          "type": "address"
        }
      ],
      "name": "setXVSVesting",
      "outputs": [],
      "payable": false,
      "stateMutability": "nonpayable",
      "type": "function"
    },
    {
      "constant": true,
      "inputs": [],
      "name": "totalVrtConverted",
      "outputs": [
        {
          "internalType": "uint256",
          "name": "",
          "type": "uint256"
        }
      ],
      "payable": false,
      "stateMutability": "view",
      "type": "function"
    },
    {
      "constant": true,
      "inputs": [],
      "name": "vrt",
      "outputs": [
        {
          "internalType": "contract IBEP20",
          "name": "",
          "type": "address"
        }
      ],
      "payable": false,
      "stateMutability": "view",
      "type": "function"
    },
    {
      "constant": true,
      "inputs": [],
      "name": "vrtDecimalsMultiplier",
      "outputs": [
        {
          "internalType": "uint256",
          "name": "",
          "type": "uint256"
        }
      ],
      "payable": false,
      "stateMutability": "view",
      "type": "function"
    },
    {
      "constant": true,
      "inputs": [],
      "name": "xvs",
      "outputs": [
        {
          "internalType": "contract IBEP20",
          "name": "",
          "type": "address"
        }
      ],
      "payable": false,
      "stateMutability": "view",
      "type": "function"
    },
    {
      "constant": true,
      "inputs": [],
      "name": "xvsDecimalsMultiplier",
      "outputs": [
        {
          "internalType": "uint256",
          "name": "",
          "type": "uint256"
        }
      ],
      "payable": false,
      "stateMutability": "view",
      "type": "function"
    },
    {
      "constant": true,
      "inputs": [],
      "name": "xvsVesting",
      "outputs": [
        {
          "internalType": "contract IXVSVesting",
          "name": "",
          "type": "address"
        }
      ],
      "payable": false,
      "stateMutability": "view",
      "type": "function"
    }
  ],
  "bytecode": "0x608060405234801561001057600080fd5b50600080546001600160a01b031916331790556113e1806100326000396000f3fe608060405234801561001057600080fd5b506004361061018e5760003560e01c80636a1a4d36116100de578063acc8c92b11610097578063d13f90b411610071578063d13f90b414610336578063d8438ae814610378578063e775f6ce14610380578063f851a440146103885761018e565b8063acc8c92b14610326578063b8f1d1971461032e578063bcab369b1461032e5761018e565b80636a1a4d36146102935780636ebdd31c1461029b57806382aed989146102c1578063a3908e1b146102e4578063a67a66d114610301578063a9ffd6b21461031e5761018e565b8063396f7b231161014b5780634e79ed3c116101255780634e79ed3c1461025e5780634f49a5991461026657806358859916146102835780635c60da1b1461028b5761018e565b8063396f7b23146102465780634bcf2ed91461024e5780634e6fd6c4146102565761018e565b8063158ef93e146101935780631888927a146101af5780631d504dc6146101c957806326782247146101f157806333fca8b114610215578063354c658e1461021d575b600080fd5b61019b610390565b604080519115158252519081900360200190f35b6101b76103a0565b60408051918252519081900360200190f35b6101ef600480360360208110156101df57600080fd5b50356001600160a01b03166103a6565b005b6101f96104a7565b604080516001600160a01b039092168252519081900360200190f35b6101b76104b6565b6102256104bc565b604080519283526001600160a01b0390911660208301528051918290030190f35b6101f9610544565b61019b610553565b6101f9610584565b6101f961058a565b6101ef6004803603602081101561027c57600080fd5b5035610599565b6101f96105ee565b6101f96105fd565b6101b761060c565b6101ef600480360360208110156102b157600080fd5b50356001600160a01b0316610612565b6101ef600480360360408110156102d757600080fd5b508035906020013561070a565b6101ef600480360360208110156102fa57600080fd5b503561077b565b6101b76004803603602081101561031757600080fd5b5035610b25565b6101f9610b66565b6101b7610b75565b6101b7610b7b565b6101ef600480360360a081101561034c57600080fd5b506001600160a01b03813581169160208101359091169060408101359060608101359060800135610b87565b61019b610e8a565b6101b7610e9a565b6101f9610ea0565b600354600160a81b900460ff1681565b60095481565b806001600160a01b031663f851a4406040518163ffffffff1660e01b815260040160206040518083038186803b1580156103df57600080fd5b505afa1580156103f3573d6000803e3d6000fd5b505050506040513d602081101561040957600080fd5b50516001600160a01b031633146104515760405162461bcd60e51b815260040180806020018281038252602281526020018061138b6022913960400191505060405180910390fd5b806001600160a01b031663c1e803346040518163ffffffff1660e01b8152600401600060405180830381600087803b15801561048c57600080fd5b505af11580156104a0573d6000803e3d6000fd5b5050505050565b6001546001600160a01b031681565b60075481565b60048054604080516370a0823160e01b8152339381019390935251600092839283926001600160a01b03909116916370a08231916024808301926020929190829003018186803b15801561050f57600080fd5b505afa158015610523573d6000803e3d6000fd5b505050506040513d602081101561053957600080fd5b505193339350915050565b6003546001600160a01b031681565b6009546000904290811080159061056c5750600b548111155b1561057b576001915050610581565b60009150505b90565b61dead81565b6005546001600160a01b031681565b6000546001600160a01b031633146105e9576040805162461bcd60e51b815260206004820152600e60248201526d37b7363c9030b236b4b71031b0b760911b604482015290519081900360640190fd5b600755565b6006546001600160a01b031681565b6002546001600160a01b031681565b600b5481565b6000546001600160a01b0316331461065b5760405162461bcd60e51b81526004018080602001828103825260238152602001806113196023913960400191505060405180910390fd5b6001600160a01b0381166106b6576040805162461bcd60e51b815260206004820181905260248201527f78767356657374696e67416464726573732063616e6e6f74206265205a65726f604482015290519081900360640190fd5b600680546001600160a01b0383166001600160a01b0319909116811790915560408051918252517fb3849bf00f7a1ef27db5b5740efa1d9e032be4db8cfbe8fc84f01599616dd59f9181900360200190a150565b6000546001600160a01b0316331461075a576040805162461bcd60e51b815260206004820152600e60248201526d37b7363c9030b236b4b71031b0b760911b604482015290519081900360640190fd5b6009829055600a819055610774828263ffffffff610eaf16565b600b555050565b600354600160a81b900460ff1615156001146107de576040805162461bcd60e51b815260206004820152601f60248201527f565254436f6e766572746572206973206e6f7420696e697469616c697a656400604482015290519081900360640190fd5b6009544290811015610837576040805162461bcd60e51b815260206004820152601c60248201527f436f6e76657273696f6e20646964206e6f742073746172742079657400000000604482015290519081900360640190fd5b600b5481111561088e576040805162461bcd60e51b815260206004820152601760248201527f436f6e76657273696f6e20506572696f6420456e646564000000000000000000604482015290519081900360640190fd5b600354600160a01b900460ff166108d9576040805162461bcd60e51b815260206004820152600a6024820152691c994b595b9d195c995960b21b604482015290519081900360640190fd5b6003805460ff60a01b191690556006546001600160a01b03161580159061090d57506006546001600160a01b031661dead14155b61095e576040805162461bcd60e51b815260206004820152601e60248201527f5856532d56657374696e672041646472657373206973206e6f74207365740000604482015290519081900360640190fd5b600082116109b3576040805162461bcd60e51b815260206004820152601b60248201527f56525420616d6f756e74206d757374206265206e6f6e2d7a65726f0000000000604482015290519081900360640190fd5b6008546109c6908363ffffffff610eaf16565b6008819055506000610a1f670de0b6b3a7640000610a13670de0b6b3a7640000610a13670de0b6b3a7640000610a076007548a610f1090919063ffffffff16565b9063ffffffff610f1016565b9063ffffffff610f6916565b600454600554604080513381526001600160a01b0393841660208201528082018890529190921660608201526080810183905290519192507fe0aebc0b49a57880fff1a14cdb8f71331347f88fedf9f4a251ff97b31061d828919081900360a00190a1600454610aa2906001600160a01b03163361dead8663ffffffff610fab16565b600654604080516311f9fbc960e21b81523360048201526024810184905290516001600160a01b03909216916347e7ef249160448082019260009290919082900301818387803b158015610af557600080fd5b505af1158015610b09573d6000803e3d6000fd5b50506003805460ff60a01b1916600160a01b1790555050505050565b6000610b60670de0b6b3a7640000610a13670de0b6b3a7640000610a13670de0b6b3a7640000610a0760075489610f1090919063ffffffff16565b92915050565b6004546001600160a01b031681565b60085481565b670de0b6b3a764000081565b6000546001600160a01b03163314610bd05760405162461bcd60e51b815260040180806020018281038252602a8152602001806112ef602a913960400191505060405180910390fd5b600354600160a81b900460ff1615610c195760405162461bcd60e51b81526004018080602001828103825260238152602001806112cc6023913960400191505060405180910390fd5b6001600160a01b038516610c74576040805162461bcd60e51b815260206004820152601960248201527f767274416464726573732063616e6e6f74206265205a65726f00000000000000604482015290519081900360640190fd5b600480546001600160a01b0319166001600160a01b03878116919091179091558416610ce7576040805162461bcd60e51b815260206004820152601960248201527f787673416464726573732063616e6e6f74206265205a65726f00000000000000604482015290519081900360640190fd5b600580546001600160a01b0319166001600160a01b03861617905582610d54576040805162461bcd60e51b815260206004820152601e60248201527f636f6e76657273696f6e526174696f2063616e6e6f74206265205a65726f0000604482015290519081900360640190fd5b600783905542821015610d985760405162461bcd60e51b815260040180806020018281038252602e81526020018061133c602e913960400191505060405180910390fd5b60008111610ded576040805162461bcd60e51b815260206004820152601c60248201527f5f636f6e76657273696f6e506572696f6420697320696e76616c696400000000604482015290519081900360640190fd5b6009829055600a819055610e07828263ffffffff610eaf16565b600b819055600754600954600a5460408051938452602084019290925282820152606082019290925290517fd1a8ac984a8430f21edede61cef5f001917ac908c13ff7d1c7bfd9e0eca6e7b69181900360800190a15050600060085550506003805460ff60a81b1960ff60a01b19909116600160a01b1716600160a81b17905550565b600354600160a01b900460ff1681565b600a5481565b6000546001600160a01b031681565b600082820183811015610f09576040805162461bcd60e51b815260206004820152601b60248201527f536166654d6174683a206164646974696f6e206f766572666c6f770000000000604482015290519081900360640190fd5b9392505050565b600082610f1f57506000610b60565b82820282848281610f2c57fe5b0414610f095760405162461bcd60e51b815260040180806020018281038252602181526020018061136a6021913960400191505060405180910390fd5b6000610f0983836040518060400160405280601a81526020017f536166654d6174683a206469766973696f6e206279207a65726f00000000000081525061100b565b604080516001600160a01b0385811660248301528416604482015260648082018490528251808303909101815260849091019091526020810180516001600160e01b03166323b872dd60e01b1790526110059085906110ad565b50505050565b600081836110975760405162461bcd60e51b81526004018080602001828103825283818151815260200191508051906020019080838360005b8381101561105c578181015183820152602001611044565b50505050905090810190601f1680156110895780820380516001836020036101000a031916815260200191505b509250505060405180910390fd5b5060008385816110a357fe5b0495945050505050565b6110bf826001600160a01b0316611265565b611110576040805162461bcd60e51b815260206004820152601f60248201527f5361666542455032303a2063616c6c20746f206e6f6e2d636f6e747261637400604482015290519081900360640190fd5b60006060836001600160a01b0316836040518082805190602001908083835b6020831061114e5780518252601f19909201916020918201910161112f565b6001836020036101000a0380198251168184511680821785525050505050509050019150506000604051808303816000865af19150503d80600081146111b0576040519150601f19603f3d011682016040523d82523d6000602084013e6111b5565b606091505b50915091508161120c576040805162461bcd60e51b815260206004820181905260248201527f5361666542455032303a206c6f772d6c6576656c2063616c6c206661696c6564604482015290519081900360640190fd5b8051156110055780806020019051602081101561122857600080fd5b50516110055760405162461bcd60e51b815260040180806020018281038252602a8152602001806112a2602a913960400191505060405180910390fd5b6000813f7fc5d2460186f7233c927e7db2dcc703c0e500b653ca82273b7bfad8045d85a47081811480159061129957508115155b94935050505056fe5361666542455032303a204245503230206f7065726174696f6e20646964206e6f742073756363656564565254436f6e76657274657220697320616c726561647920696e697469616c697a65646f6e6c792061646d696e206d617920696e697469616c697a652074686520565254436f6e7665727465726f6e6c792061646d696e206d617920696e697469616c697a6520746865205661756c74636f6e76657273696f6e537461727454696d65206d7573742062652074696d6520696e2074686520667574757265536166654d6174683a206d756c7469706c69636174696f6e206f766572666c6f776f6e6c792070726f78792061646d696e2063616e206368616e676520627261696e73a265627a7a72315820e13a467380fe0cbca7663094a3ac16d041b36462812c3c5471e364df3036c03264736f6c63430005100032",
  "linkReferences": {},
  "deployedLinkReferences": {}
}