{
  "_format": "hh-sol-artifact-1",
  "contractName": "VRTVaultHarness",
  "sourceName": "contracts/test/VRTVaultHarness.sol",
  "abi": [
    {
      "inputs": [],
      "payable": false,
      "stateMutability": "nonpayable",
      "type": "constructor"
    },
    {
      "anonymous": false,
      "inputs": [
        {
          "indexed": true,
          "internalType": "address",
          "name": "oldAdmin",
          "type": "address"
        },
        {
          "indexed": true,
          "internalType": "address",
          "name": "newAdmin",
          "type": "address"
        }
      ],
      "name": "AdminTransfered",
      "type": "event"
    },
    {
      "anonymous": false,
      "inputs": [
        {
          "indexed": true,
          "internalType": "address",
          "name": "user",
          "type": "address"
        },
        {
          "indexed": false,
          "internalType": "uint256",
          "name": "interestAmount",
          "type": "uint256"
        }
      ],
      "name": "Claim",
      "type": "event"
    },
    {
      "anonymous": false,
      "inputs": [
        {
          "indexed": true,
          "internalType": "address",
          "name": "user",
          "type": "address"
        },
        {
          "indexed": false,
          "internalType": "uint256",
          "name": "amount",
          "type": "uint256"
        }
      ],
      "name": "Deposit",
      "type": "event"
    },
    {
      "anonymous": false,
      "inputs": [
        {
          "indexed": true,
          "internalType": "address",
          "name": "admin",
          "type": "address"
        }
      ],
      "name": "VaultPaused",
      "type": "event"
    },
    {
      "anonymous": false,
      "inputs": [
        {
          "indexed": true,
          "internalType": "address",
          "name": "admin",
          "type": "address"
        }
      ],
      "name": "VaultResumed",
      "type": "event"
    },
    {
      "anonymous": false,
      "inputs": [
        {
          "indexed": true,
          "internalType": "address",
          "name": "user",
          "type": "address"
        },
        {
          "indexed": false,
          "internalType": "uint256",
          "name": "withdrawnAmount",
          "type": "uint256"
        },
        {
          "indexed": false,
          "internalType": "uint256",
          "name": "totalPrincipalAmount",
          "type": "uint256"
        },
        {
          "indexed": false,
          "internalType": "uint256",
          "name": "accruedInterest",
          "type": "uint256"
        }
      ],
      "name": "Withdraw",
      "type": "event"
    },
    {
      "anonymous": false,
      "inputs": [
        {
          "indexed": true,
          "internalType": "address",
          "name": "tokenAddress",
          "type": "address"
        },
        {
          "indexed": true,
          "internalType": "address",
          "name": "receiver",
          "type": "address"
        },
        {
          "indexed": false,
          "internalType": "uint256",
          "name": "amount",
          "type": "uint256"
        }
      ],
      "name": "WithdrawToken",
      "type": "event"
    },
    {
      "constant": false,
      "inputs": [
        {
          "internalType": "contract VRTVaultProxy",
          "name": "vrtVaultProxy",
          "type": "address"
        }
      ],
      "name": "_become",
      "outputs": [],
      "payable": false,
      "stateMutability": "nonpayable",
      "type": "function"
    },
    {
      "constant": true,
      "inputs": [],
      "name": "_notEntered",
      "outputs": [
        {
          "internalType": "bool",
          "name": "",
          "type": "bool"
        }
      ],
      "payable": false,
      "stateMutability": "view",
      "type": "function"
    },
    {
      "constant": true,
      "inputs": [],
      "name": "admin",
      "outputs": [
        {
          "internalType": "address",
          "name": "",
          "type": "address"
        }
      ],
      "payable": false,
      "stateMutability": "view",
      "type": "function"
    },
    {
      "constant": true,
      "inputs": [],
      "name": "balanceOfUser",
      "outputs": [
        {
          "internalType": "uint256",
          "name": "",
          "type": "uint256"
        },
        {
          "internalType": "address",
          "name": "",
          "type": "address"
        }
      ],
      "payable": false,
      "stateMutability": "view",
      "type": "function"
    },
    {
      "constant": true,
      "inputs": [],
      "name": "blockNumber",
      "outputs": [
        {
          "internalType": "uint256",
          "name": "",
          "type": "uint256"
        }
      ],
      "payable": false,
      "stateMutability": "view",
      "type": "function"
    },
    {
      "constant": false,
      "inputs": [],
      "name": "claim",
      "outputs": [],
      "payable": false,
      "stateMutability": "nonpayable",
      "type": "function"
    },
    {
      "constant": false,
      "inputs": [
        {
          "internalType": "uint256",
          "name": "depositAmount",
          "type": "uint256"
        }
      ],
      "name": "deposit",
      "outputs": [],
      "payable": false,
      "stateMutability": "nonpayable",
      "type": "function"
    },
    {
      "constant": true,
      "inputs": [
        {
          "internalType": "address",
          "name": "userAddress",
          "type": "address"
        }
      ],
      "name": "getAccruedInterest",
      "outputs": [
        {
          "internalType": "uint256",
          "name": "",
          "type": "uint256"
        }
      ],
      "payable": false,
      "stateMutability": "view",
      "type": "function"
    },
    {
      "constant": true,
      "inputs": [],
      "name": "getBlockNumber",
      "outputs": [
        {
          "internalType": "uint256",
          "name": "",
          "type": "uint256"
        }
      ],
      "payable": false,
      "stateMutability": "view",
      "type": "function"
    },
    {
      "constant": false,
      "inputs": [
        {
          "internalType": "uint256",
          "name": "blocks",
          "type": "uint256"
        }
      ],
      "name": "harnessFastForward",
      "outputs": [
        {
          "internalType": "uint256",
          "name": "",
          "type": "uint256"
        }
      ],
      "payable": false,
      "stateMutability": "nonpayable",
      "type": "function"
    },
    {
      "constant": true,
      "inputs": [],
      "name": "implementation",
      "outputs": [
        {
          "internalType": "address",
          "name": "",
          "type": "address"
        }
      ],
      "payable": false,
      "stateMutability": "view",
      "type": "function"
    },
    {
      "constant": false,
      "inputs": [
        {
          "internalType": "address",
          "name": "_vrtAddress",
          "type": "address"
        },
        {
          "internalType": "uint256",
          "name": "_interestRatePerBlock",
          "type": "uint256"
        }
      ],
      "name": "initialize",
      "outputs": [],
      "payable": false,
      "stateMutability": "nonpayable",
      "type": "function"
    },
    {
      "constant": true,
      "inputs": [],
      "name": "interestRatePerBlock",
      "outputs": [
        {
          "internalType": "uint256",
          "name": "",
          "type": "uint256"
        }
      ],
      "payable": false,
      "stateMutability": "view",
      "type": "function"
    },
    {
      "constant": false,
      "inputs": [
        {
          "internalType": "uint256",
          "name": "_interestRatePerBlock",
          "type": "uint256"
        }
      ],
      "name": "overrideInterestRatePerBlock",
      "outputs": [],
      "payable": false,
      "stateMutability": "nonpayable",
      "type": "function"
    },
    {
      "constant": false,
      "inputs": [],
      "name": "pause",
      "outputs": [],
      "payable": false,
      "stateMutability": "nonpayable",
      "type": "function"
    },
    {
      "constant": true,
      "inputs": [],
      "name": "pendingAdmin",
      "outputs": [
        {
          "internalType": "address",
          "name": "",
          "type": "address"
        }
      ],
      "payable": false,
      "stateMutability": "view",
      "type": "function"
    },
    {
      "constant": true,
      "inputs": [],
      "name": "pendingImplementation",
      "outputs": [
        {
          "internalType": "address",
          "name": "",
          "type": "address"
        }
      ],
      "payable": false,
      "stateMutability": "view",
      "type": "function"
    },
    {
      "constant": false,
      "inputs": [],
      "name": "resume",
      "outputs": [],
      "payable": false,
      "stateMutability": "nonpayable",
      "type": "function"
    },
    {
      "constant": false,
      "inputs": [
        {
          "internalType": "uint256",
          "name": "number",
          "type": "uint256"
        }
      ],
      "name": "setBlockNumber",
      "outputs": [],
      "payable": false,
      "stateMutability": "nonpayable",
      "type": "function"
    },
    {
      "constant": true,
      "inputs": [
        {
          "internalType": "address",
          "name": "",
          "type": "address"
        }
      ],
      "name": "userInfo",
      "outputs": [
        {
          "internalType": "address",
          "name": "userAddress",
          "type": "address"
        },
        {
          "internalType": "uint256",
          "name": "accrualStartBlockNumber",
          "type": "uint256"
        },
        {
          "internalType": "uint256",
          "name": "totalPrincipalAmount",
          "type": "uint256"
        },
        {
          "internalType": "uint256",
          "name": "lastWithdrawnBlockNumber",
          "type": "uint256"
        }
      ],
      "payable": false,
      "stateMutability": "view",
      "type": "function"
    },
    {
      "constant": true,
      "inputs": [],
      "name": "vaultPaused",
      "outputs": [
        {
          "internalType": "bool",
          "name": "",
          "type": "bool"
        }
      ],
      "payable": false,
      "stateMutability": "view",
      "type": "function"
    },
    {
      "constant": true,
      "inputs": [],
      "name": "vrt",
      "outputs": [
        {
          "internalType": "contract IBEP20",
          "name": "",
          "type": "address"
        }
      ],
      "payable": false,
      "stateMutability": "view",
      "type": "function"
    },
    {
      "constant": false,
      "inputs": [],
      "name": "withdraw",
      "outputs": [],
      "payable": false,
      "stateMutability": "nonpayable",
      "type": "function"
    },
    {
      "constant": false,
      "inputs": [
        {
          "internalType": "address",
          "name": "tokenAddress",
          "type": "address"
        },
        {
          "internalType": "address",
          "name": "receiver",
          "type": "address"
        },
        {
          "internalType": "uint256",
          "name": "amount",
          "type": "uint256"
        }
      ],
      "name": "withdrawBep20",
      "outputs": [],
      "payable": false,
      "stateMutability": "nonpayable",
      "type": "function"
    }
  ],
  "bytecode": "0x608060405234801561001057600080fd5b50600080546001600160a01b03191633179055611d40806100326000396000f3fe608060405234801561001057600080fd5b50600436106101585760003560e01c806357e871e7116100c3578063b2e932041161007c578063b2e9320414610316578063b6b55f2514610333578063bbf14e7414610350578063cd6dc68714610376578063d8438ae8146103a2578063f851a440146103aa57610158565b806357e871e7146102bd5780635c60da1b146102c557806373d025d6146102cd5780638456cb59146102e9578063a8c3c850146102f1578063a9ffd6b21461030e57610158565b8063354c658e11610115578063354c658e1461023e578063396f7b23146102675780633ccfd60b1461026f57806342cbb15c1461027757806347ec6db01461027f5780634e71d92d146102b557610158565b8063046f7da21461015d5780631959a002146101675780631d504dc6146101bd578063246acab1146101e357806326782247146102125780632ff7709e14610236575b600080fd5b6101656103b2565b005b61018d6004803603602081101561017d57600080fd5b50356001600160a01b0316610499565b604080516001600160a01b0390951685526020850193909352838301919091526060830152519081900360800190f35b610165600480360360208110156101d357600080fd5b50356001600160a01b03166104ca565b610200600480360360208110156101f957600080fd5b50356105cb565b60408051918252519081900360200190f35b61021a6105da565b604080516001600160a01b039092168252519081900360200190f35b6102006105e9565b6102466105ef565b604080519283526001600160a01b0390911660208301528051918290030190f35b61021a610677565b610165610686565b610200610961565b6101656004803603606081101561029557600080fd5b506001600160a01b03813581169160208101359091169060400135610967565b610165610c29565b610200610ed2565b61021a610ed8565b6102d5610ee7565b604080519115158252519081900360200190f35b610165610ef7565b6101656004803603602081101561030757600080fd5b5035610fea565b61021a610fef565b6101656004803603602081101561032c57600080fd5b5035610ffe565b6101656004803603602081101561034957600080fd5b5035611003565b6102006004803603602081101561036657600080fd5b50356001600160a01b0316611360565b6101656004803603604081101561038c57600080fd5b506001600160a01b038135169060200135611443565b6102d561159e565b61021a6115ae565b6000546001600160a01b03163314610406576040805162461bcd60e51b81526020600482015260126024820152711bdb9b1e4818591b5a5b88185b1b1bddd95960721b604482015290519081900360640190fd5b600354600160a81b900460ff16151560011461045f576040805162461bcd60e51b815260206004820152601360248201527215985d5b1d081a5cc81b9bdd081c185d5cd959606a1b604482015290519081900360640190fd5b6003805460ff60a81b1916905560405133907fd2619572a1464e0df0bb351d834fd47f3350984d7bfdb1ab69cfcb0b8e42141590600090a2565b60066020526000908152604090208054600182015460028301546003909301546001600160a01b0390921692909184565b806001600160a01b031663f851a4406040518163ffffffff1660e01b815260040160206040518083038186803b15801561050357600080fd5b505afa158015610517573d6000803e3d6000fd5b505050506040513d602081101561052d57600080fd5b50516001600160a01b031633146105755760405162461bcd60e51b8152600401808060200182810382526022815260200180611cbe6022913960400191505060405180910390fd5b806001600160a01b031663c1e803346040518163ffffffff1660e01b8152600401600060405180830381600087803b1580156105b057600080fd5b505af11580156105c4573d6000803e3d6000fd5b5050505050565b60078054820190819055919050565b6001546001600160a01b031681565b60055481565b60048054604080516370a0823160e01b8152339381019390935251600092839283926001600160a01b03909116916370a08231916024808301926020929190829003018186803b15801561064257600080fd5b505afa158015610656573d6000803e3d6000fd5b505050506040513d602081101561066c57600080fd5b505193339350915050565b6003546001600160a01b031681565b600354600160a01b900460ff166106d1576040805162461bcd60e51b815260206004820152600a6024820152691c994b595b9d195c995960b21b604482015290519081900360640190fd5b6003805460ff60a01b19169055600554610720576040805162461bcd60e51b81526020600482015260186024820152600080516020611c60833981519152604482015290519081900360640190fd5b33600081815260066020526040902080546001600160a01b03166107755760405162461bcd60e51b815260040180806020018281038252602c815260200180611ce0602c913960400191505060405180910390fd5b600354600160a81b900460ff16156107c6576040805162461bcd60e51b815260206004820152600f60248201526e15985d5b1d081a5cc81c185d5cd959608a1b604482015290519081900360640190fd5b3360006107d282611360565b6001600160a01b038316600090815260066020526040812060028101549293509190610804848363ffffffff6115bd16565b600060028501559050610815610961565b600184015560048054604080516370a0823160e01b81523093810193909352516000926001600160a01b03909216916370a08231916024808301926020929190829003018186803b15801561086957600080fd5b505afa15801561087d573d6000803e3d6000fd5b505050506040513d602081101561089357600080fd5b50519050818110156108d65760405162461bcd60e51b8152600401808060200182810382526032815260200180611b976032913960400191505060405180910390fd5b604080518381526020810185905280820187905290516001600160a01b038816917f02f25270a4d87bea75db541cdfe559334a275b4a233520ed6c0a2429667cca94919081900360600190a28354600454610944916001600160a01b0391821691168463ffffffff61162016565b50506003805460ff60a01b1916600160a01b179055505050505050565b60075490565b6000546001600160a01b031633146109bb576040805162461bcd60e51b81526020600482015260126024820152711bdb9b1e4818591b5a5b88185b1b1bddd95960721b604482015290519081900360640190fd5b600060055411610a00576040805162461bcd60e51b81526020600482015260186024820152600080516020611c60833981519152604482015290519081900360640190fd5b826001600160a01b038116610a55576040805162461bcd60e51b8152602060048201526016602482015275416464726573732063616e6e6f74206265205a65726f60501b604482015290519081900360640190fd5b826001600160a01b038116610aaa576040805162461bcd60e51b8152602060048201526016602482015275416464726573732063616e6e6f74206265205a65726f60501b604482015290519081900360640190fd5b60008311610af3576040805162461bcd60e51b8152602060048201526011602482015270185b5bdd5b9d081a5cc81a5b9d985b1a59607a1b604482015290519081900360640190fd5b604080516370a0823160e01b8152306004820152905186916001600160a01b038316916370a0823191602480820192602092909190829003018186803b158015610b3c57600080fd5b505afa158015610b50573d6000803e3d6000fd5b505050506040513d6020811015610b6657600080fd5b5051841115610bbc576040805162461bcd60e51b815260206004820152601c60248201527f496e73756666696369656e7420616d6f756e7420696e205661756c7400000000604482015290519081900360640190fd5b846001600160a01b0316866001600160a01b03167f037238854fe57fbf51f09946f854fc3916fe83938d6521f09bd05463839f1304866040518082815260200191505060405180910390a3610c216001600160a01b038216868663ffffffff61162016565b505050505050565b600354600160a01b900460ff16610c74576040805162461bcd60e51b815260206004820152600a6024820152691c994b595b9d195c995960b21b604482015290519081900360640190fd5b6003805460ff60a01b19169055600554610cc3576040805162461bcd60e51b81526020600482015260186024820152600080516020611c60833981519152604482015290519081900360640190fd5b33600081815260066020526040902080546001600160a01b0316610d185760405162461bcd60e51b815260040180806020018281038252602c815260200180611ce0602c913960400191505060405180910390fd5b600354600160a81b900460ff1615610d69576040805162461bcd60e51b815260206004820152600f60248201526e15985d5b1d081a5cc81c185d5cd959608a1b604482015290519081900360640190fd5b336000610d7582611360565b90508015610eb9576001600160a01b0380831660009081526006602090815260408083206004805483516370a0823160e01b815230928101929092529251919592909216926370a082319260248082019391829003018186803b158015610ddb57600080fd5b505afa158015610def573d6000803e3d6000fd5b505050506040513d6020811015610e0557600080fd5b5051905082811015610e485760405162461bcd60e51b8152600401808060200182810382526032815260200180611b976032913960400191505060405180910390fd5b6040805184815290516001600160a01b038616917f47cee97cb7acd717b3c0aa1435d004cd5b3c8c57d70dbceb4e4458bbd60e39d4919081900360200190a2610e8f610961565b60018301558154600454610eb6916001600160a01b0391821691168563ffffffff61162016565b50505b50506003805460ff60a01b1916600160a01b1790555050565b60075481565b6002546001600160a01b031681565b600354600160a81b900460ff1681565b6000546001600160a01b03163314610f4b576040805162461bcd60e51b81526020600482015260126024820152711bdb9b1e4818591b5a5b88185b1b1bddd95960721b604482015290519081900360640190fd5b600354600160a81b900460ff1615610faa576040805162461bcd60e51b815260206004820152601760248201527f5661756c7420697320616c726561647920706175736564000000000000000000604482015290519081900360640190fd5b6003805460ff60a81b1916600160a81b17905560405133907fdffada2889ebfab9224c24069d833f3de835d8cf99872d49e7b7ba5fccb7a46f90600090a2565b600755565b6004546001600160a01b031681565b600555565b600354600160a01b900460ff1661104e576040805162461bcd60e51b815260206004820152600a6024820152691c994b595b9d195c995960b21b604482015290519081900360640190fd5b6003805460ff60a01b1916905560055461109d576040805162461bcd60e51b81526020600482015260186024820152600080516020611c60833981519152604482015290519081900360640190fd5b600354600160a81b900460ff16156110ee576040805162461bcd60e51b815260206004820152600f60248201526e15985d5b1d081a5cc81c185d5cd959608a1b604482015290519081900360640190fd5b60008111611143576040805162461bcd60e51b815260206004820152601f60248201527f4465706f73697420616d6f756e74206d757374206265206e6f6e2d7a65726f00604482015290519081900360640190fd5b33600081815260066020526040902080546001600160a01b03166111865780546001600160a01b0319166001600160a01b038316178155600281018390556112de565b600061119a82600201548360010154611677565b60028301549091506111b2908563ffffffff6115bd16565b600283015580156112dc5760048054604080516370a0823160e01b81523093810193909352516000926001600160a01b03909216916370a08231916024808301926020929190829003018186803b15801561120c57600080fd5b505afa158015611220573d6000803e3d6000fd5b505050506040513d602081101561123657600080fd5b50519050818110156112795760405162461bcd60e51b815260040180806020018281038252603e815260200180611c80603e913960400191505060405180910390fd5b6040805183815290516001600160a01b038616917f47cee97cb7acd717b3c0aa1435d004cd5b3c8c57d70dbceb4e4458bbd60e39d4919081900360200190a282546004546112da916001600160a01b0391821691168463ffffffff61162016565b505b505b6112e6610961565b60018201556040805184815290516001600160a01b038416917fe1fffcc4923d04b559f4d29a8bfc6cda04eb5b0d3c460751c2402c5c5cc9109c919081900360200190a2600454611348906001600160a01b031683308663ffffffff61174216565b50506003805460ff60a01b1916600160a01b17905550565b6000816001600160a01b0381166113b7576040805162461bcd60e51b8152602060048201526016602482015275416464726573732063616e6e6f74206265205a65726f60501b604482015290519081900360640190fd5b6000600554116113fc576040805162461bcd60e51b81526020600482015260186024820152600080516020611c60833981519152604482015290519081900360640190fd5b6001600160a01b0383166000908152600660205260409020600181015461142757600092505061143d565b61143981600201548260010154611677565b9250505b50919050565b6000546001600160a01b0316331461148c5760405162461bcd60e51b8152600401808060200182810382526023815260200180611c1c6023913960400191505060405180910390fd5b6001600160a01b0382166114e7576040805162461bcd60e51b815260206004820152601960248201527f767274416464726573732063616e6e6f74206265205a65726f00000000000000604482015290519081900360640190fd5b600554156115265760405162461bcd60e51b8152600401808060200182810382526022815260200180611bc96022913960400191505060405180910390fd5b6005819055806115675760405162461bcd60e51b8152600401808060200182810382526031815260200180611beb6031913960400191505060405180910390fd5b50600480546001600160a01b039092166001600160a01b03199092169190911790556003805460ff60a01b1916600160a01b179055565b600354600160a01b900460ff1681565b6000546001600160a01b031681565b600082820183811015611617576040805162461bcd60e51b815260206004820152601b60248201527f536166654d6174683a206164646974696f6e206f766572666c6f770000000000604482015290519081900360640190fd5b90505b92915050565b604080516001600160a01b038416602482015260448082018490528251808303909101815260649091019091526020810180516001600160e01b031663a9059cbb60e01b1790526116729084906117a2565b505050565b600080600554116116bd576040805162461bcd60e51b81526020600482015260186024820152600080516020611c60833981519152604482015290519081900360640190fd5b60006116c7610961565b90508215806116d65750808310155b156116e557600091505061161a565b60006116f7828563ffffffff61195a16565b90506000611738670de0b6b3a764000061172c846117206005548b61199c90919063ffffffff16565b9063ffffffff61199c16565b9063ffffffff6119f516565b9695505050505050565b604080516001600160a01b0385811660248301528416604482015260648082018490528251808303909101815260849091019091526020810180516001600160e01b03166323b872dd60e01b17905261179c9085906117a2565b50505050565b6117b4826001600160a01b0316611a37565b611805576040805162461bcd60e51b815260206004820152601f60248201527f5361666542455032303a2063616c6c20746f206e6f6e2d636f6e747261637400604482015290519081900360640190fd5b60006060836001600160a01b0316836040518082805190602001908083835b602083106118435780518252601f199092019160209182019101611824565b6001836020036101000a0380198251168184511680821785525050505050509050019150506000604051808303816000865af19150503d80600081146118a5576040519150601f19603f3d011682016040523d82523d6000602084013e6118aa565b606091505b509150915081611901576040805162461bcd60e51b815260206004820181905260248201527f5361666542455032303a206c6f772d6c6576656c2063616c6c206661696c6564604482015290519081900360640190fd5b80511561179c5780806020019051602081101561191d57600080fd5b505161179c5760405162461bcd60e51b815260040180806020018281038252602a815260200180611b6d602a913960400191505060405180910390fd5b600061161783836040518060400160405280601e81526020017f536166654d6174683a207375627472616374696f6e206f766572666c6f770000815250611a70565b6000826119ab5750600061161a565b828202828482816119b857fe5b04146116175760405162461bcd60e51b8152600401808060200182810382526021815260200180611c3f6021913960400191505060405180910390fd5b600061161783836040518060400160405280601a81526020017f536166654d6174683a206469766973696f6e206279207a65726f000000000000815250611b07565b6000813f7fc5d2460186f7233c927e7db2dcc703c0e500b653ca82273b7bfad8045d85a470818114801590611439575050151592915050565b60008184841115611aff5760405162461bcd60e51b81526004018080602001828103825283818151815260200191508051906020019080838360005b83811015611ac4578181015183820152602001611aac565b50505050905090810190601f168015611af15780820380516001836020036101000a031916815260200191505b509250505060405180910390fd5b505050900390565b60008183611b565760405162461bcd60e51b8152602060048201818152835160248401528351909283926044909101919085019080838360008315611ac4578181015183820152602001611aac565b506000838581611b6257fe5b049594505050505056fe5361666542455032303a204245503230206f7065726174696f6e20646964206e6f7420737563636565644661696c656420746f207472616e73666572205652542c20496e73756666696369656e742056525420696e205661756c742e5661756c74206d6179206f6e6c7920626520696e697469616c697a6564206f6e6365696e746572657374526174652050657220426c6f636b206d7573742062652067726561746572207468616e207a65726f2e6f6e6c792061646d696e206d617920696e697469616c697a6520746865205661756c74536166654d6174683a206d756c7469706c69636174696f6e206f766572666c6f775661756c74206973206e6f7420696e697469616c697a656400000000000000004661696c656420746f207472616e736665722061636372756564496e7465726573742c20496e73756666696369656e742056525420696e205661756c742e6f6e6c792070726f78792061646d696e2063616e206368616e676520627261696e735573657220646f65736e6f74206861766520616e7920706f736974696f6e20696e20746865205661756c742ea265627a7a72315820c3ab92afa20ce6956b76f9050026c05b30a66f874952d40a404b80228711521464736f6c63430005100032",
  "linkReferences": {},
  "deployedLinkReferences": {}
}