{
  "_format": "hh-sol-artifact-1",
  "contractName": "VRTVaultProxy",
  "sourceName": "contracts/VRTVault/VRTVaultProxy.sol",
  "abi": [
    {
      "inputs": [
        {
          "internalType": "address",
          "name": "implementation_",
          "type": "address"
        },
        {
          "internalType": "address",
          "name": "vrtAddress_",
          "type": "address"
        },
        {
          "internalType": "uint256",
          "name": "interestRatePerBlock_",
          "type": "uint256"
        }
      ],
      "payable": false,
      "stateMutability": "nonpayable",
      "type": "constructor"
    },
    {
      "anonymous": false,
      "inputs": [
        {
          "indexed": false,
          "internalType": "address",
          "name": "oldAdmin",
          "type": "address"
        },
        {
          "indexed": false,
          "internalType": "address",
          "name": "newAdmin",
          "type": "address"
        }
      ],
      "name": "NewAdmin",
      "type": "event"
    },
    {
      "anonymous": false,
      "inputs": [
        {
          "indexed": false,
          "internalType": "address",
          "name": "oldImplementation",
          "type": "address"
        },
        {
          "indexed": false,
          "internalType": "address",
          "name": "newImplementation",
          "type": "address"
        }
      ],
      "name": "NewImplementation",
      "type": "event"
    },
    {
      "anonymous": false,
      "inputs": [
        {
          "indexed": false,
          "internalType": "address",
          "name": "oldPendingAdmin",
          "type": "address"
        },
        {
          "indexed": false,
          "internalType": "address",
          "name": "newPendingAdmin",
          "type": "address"
        }
      ],
      "name": "NewPendingAdmin",
      "type": "event"
    },
    {
      "anonymous": false,
      "inputs": [
        {
          "indexed": false,
          "internalType": "address",
          "name": "oldPendingImplementation",
          "type": "address"
        },
        {
          "indexed": false,
          "internalType": "address",
          "name": "newPendingImplementation",
          "type": "address"
        }
      ],
      "name": "NewPendingImplementation",
      "type": "event"
    },
    {
      "payable": true,
      "stateMutability": "payable",
      "type": "fallback"
    },
    {
      "constant": false,
      "inputs": [],
      "name": "_acceptAdmin",
      "outputs": [],
      "payable": false,
      "stateMutability": "nonpayable",
      "type": "function"
    },
    {
      "constant": false,
      "inputs": [],
      "name": "_acceptImplementation",
      "outputs": [],
      "payable": false,
      "stateMutability": "nonpayable",
      "type": "function"
    },
    {
      "constant": false,
      "inputs": [
        {
          "internalType": "address",
          "name": "implementation_",
          "type": "address"
        }
      ],
      "name": "_setImplementation",
      "outputs": [],
      "payable": false,
      "stateMutability": "nonpayable",
      "type": "function"
    },
    {
      "constant": false,
      "inputs": [
        {
          "internalType": "address",
          "name": "newPendingAdmin",
          "type": "address"
        }
      ],
      "name": "_setPendingAdmin",
      "outputs": [],
      "payable": false,
      "stateMutability": "nonpayable",
      "type": "function"
    },
    {
      "constant": false,
      "inputs": [
        {
          "internalType": "address",
          "name": "newPendingImplementation",
          "type": "address"
        }
      ],
      "name": "_setPendingImplementation",
      "outputs": [],
      "payable": false,
      "stateMutability": "nonpayable",
      "type": "function"
    },
    {
      "constant": true,
      "inputs": [],
      "name": "admin",
      "outputs": [
        {
          "internalType": "address",
          "name": "",
          "type": "address"
        }
      ],
      "payable": false,
      "stateMutability": "view",
      "type": "function"
    },
    {
      "constant": true,
      "inputs": [],
      "name": "implementation",
      "outputs": [
        {
          "internalType": "address",
          "name": "",
          "type": "address"
        }
      ],
      "payable": false,
      "stateMutability": "view",
      "type": "function"
    },
    {
      "constant": true,
      "inputs": [],
      "name": "pendingAdmin",
      "outputs": [
        {
          "internalType": "address",
          "name": "",
          "type": "address"
        }
      ],
      "payable": false,
      "stateMutability": "view",
      "type": "function"
    },
    {
      "constant": true,
      "inputs": [],
      "name": "pendingImplementation",
      "outputs": [
        {
          "internalType": "address",
          "name": "",
          "type": "address"
        }
      ],
      "payable": false,
      "stateMutability": "view",
      "type": "function"
    }
  ],
  "bytecode": "0x608060405234801561001057600080fd5b50604051610b16380380610b168339818101604052606081101561003357600080fd5b5080516020820151604090920151600080546001600160a01b03191633179055909190610068836001600160e01b036100c716565b604080516001600160a01b038416602482015260448082018490528251808303909101815260649091019091526020810180516001600160e01b0390811663cd6dc68760e01b179091526100be9185916101b716565b50505050610279565b6000546001600160a01b031633146101105760405162461bcd60e51b815260040180806020018281038252602d815260200180610aa8602d913960400191505060405180910390fd5b6001600160a01b0381166101555760405162461bcd60e51b8152600401808060200182810382526041815260200180610ad56041913960600191505060405180910390fd5b600280546001600160a01b038381166001600160a01b0319831617928390556040805192821680845293909116602083015280517fd604de94d45953f9138079ec1b82d533cb2160c906d1076d1f7ed54befbca97a9281900390910190a15050565b606060006060846001600160a01b0316846040518082805190602001908083835b602083106101f75780518252601f1990920191602091820191016101d8565b6001836020036101000a038019825116818451168082178552505050505050905001915050600060405180830381855af49150503d8060008114610257576040519150601f19603f3d011682016040523d82523d6000602084013e61025c565b606091505b50915091506000821415610271573d60208201fd5b949350505050565b610820806102886000396000f3fe6080604052600436106100865760003560e01c8063bb913f4111610059578063bb913f4114610199578063c1e80334146101cc578063e992a041146101e1578063e9c714f214610214578063f851a4401461022957610086565b80632678224714610109578063396f7b231461013a5780635c60da1b1461014f578063b71d1a0c14610164575b6002546040516000916001600160a01b031690829036908083838082843760405192019450600093509091505080830381855af49150503d80600081146100e9576040519150601f19603f3d011682016040523d82523d6000602084013e6100ee565b606091505b505090506040513d6000823e818015610105573d82f35b3d82fd5b34801561011557600080fd5b5061011e61023e565b604080516001600160a01b039092168252519081900360200190f35b34801561014657600080fd5b5061011e61024d565b34801561015b57600080fd5b5061011e61025c565b34801561017057600080fd5b506101976004803603602081101561018757600080fd5b50356001600160a01b031661026b565b005b3480156101a557600080fd5b50610197600480360360208110156101bc57600080fd5b50356001600160a01b031661032d565b3480156101d857600080fd5b5061019761041d565b3480156101ed57600080fd5b506101976004803603602081101561020457600080fd5b50356001600160a01b031661051d565b34801561022057600080fd5b506101976105c8565b34801561023557600080fd5b5061011e6106c8565b6001546001600160a01b031681565b6003546001600160a01b031681565b6002546001600160a01b031681565b6000546001600160a01b031633146102ca576040805162461bcd60e51b815260206004820181905260248201527f6f6e6c792061646d696e2063616e207365742070656e64696e672061646d696e604482015290519081900360640190fd5b600180546001600160a01b038381166001600160a01b0319831681179093556040805191909216808252602082019390935281517fca4f2f25d0898edd99413412fb94012f9e54ec8142f9b093e7720646a95b16a9929181900390910190a15050565b6000546001600160a01b031633146103765760405162461bcd60e51b815260040180806020018281038252602d8152602001806106d8602d913960400191505060405180910390fd5b6001600160a01b0381166103bb5760405162461bcd60e51b81526004018080602001828103825260418152602001806107656041913960600191505060405180910390fd5b600280546001600160a01b038381166001600160a01b0319831617928390556040805192821680845293909116602083015280517fd604de94d45953f9138079ec1b82d533cb2160c906d1076d1f7ed54befbca97a9281900390910190a15050565b6003546001600160a01b031633146104665760405162461bcd60e51b81526004018080602001828103825260468152602001806107a66046913960600191505060405180910390fd5b60028054600380546001600160a01b038082166001600160a01b031980861682179687905590921690925560408051938316808552949092166020840152815190927fd604de94d45953f9138079ec1b82d533cb2160c906d1076d1f7ed54befbca97a92908290030190a1600354604080516001600160a01b038085168252909216602083015280517fe945ccee5d701fc83f9b8aa8ca94ea4219ec1fcbd4f4cab4f0ea57c5c3e1d8159281900390910190a15050565b6000546001600160a01b031633146105665760405162461bcd60e51b815260040180806020018281038252602981526020018061073c6029913960400191505060405180910390fd5b600380546001600160a01b038381166001600160a01b0319831617928390556040805192821680845293909116602083015280517fe945ccee5d701fc83f9b8aa8ca94ea4219ec1fcbd4f4cab4f0ea57c5c3e1d8159281900390910190a15050565b6001546001600160a01b031633146106115760405162461bcd60e51b81526004018080602001828103825260378152602001806107056037913960400191505060405180910390fd5b60008054600180546001600160a01b038082166001600160a01b031980861682179687905590921690925560408051938316808552949092166020840152815190927ff9ffabca9c8276e99321725bcb43fb076a6c66a54b7f21c4e8146d8519b417dc92908290030190a1600154604080516001600160a01b038085168252909216602083015280517fca4f2f25d0898edd99413412fb94012f9e54ec8142f9b093e7720646a95b16a99281900390910190a15050565b6000546001600160a01b03168156fe5652545661756c7450726f78793a3a5f736574496d706c656d656e746174696f6e3a2061646d696e206f6e6c796f6e6c792061646472657373206d61726b65642061732070656e64696e6741646d696e2063616e206163636570742061732041646d696e4f6e6c792061646d696e2063616e207365742050656e64696e6720496d706c656d656e746174696f6e5652545661756c7450726f78793a3a5f736574496d706c656d656e746174696f6e3a20696e76616c696420696d706c656d656e746174696f6e20616464726573736f6e6c792061646472657373206d61726b65642061732070656e64696e67496d706c656d656e746174696f6e2063616e2061636365707420496d706c656d656e746174696f6ea265627a7a723158201756541c3fabd9207f9808bf6a4b66997dffe43a69e51e8a3f8ce8260fe4220b64736f6c634300051000325652545661756c7450726f78793a3a5f736574496d706c656d656e746174696f6e3a2061646d696e206f6e6c795652545661756c7450726f78793a3a5f736574496d706c656d656e746174696f6e3a20696e76616c696420696d706c656d656e746174696f6e2061646472657373",
  "linkReferences": {},
  "deployedLinkReferences": {}
}