{
  "_format": "hh-sol-artifact-1",
  "contractName": "VXvsLikeDelegate",
  "sourceName": "contracts/VXvsLikeDelegate.sol",
  "abi": [
    {
      "inputs": [],
      "payable": false,
      "stateMutability": "nonpayable",
      "type": "constructor"
    },
    {
      "anonymous": false,
      "inputs": [
        {
          "indexed": false,
          "internalType": "uint256",
          "name": "cashPrior",
          "type": "uint256"
        },
        {
          "indexed": false,
          "internalType": "uint256",
          "name": "interestAccumulated",
          "type": "uint256"
        },
        {
          "indexed": false,
          "internalType": "uint256",
          "name": "borrowIndex",
          "type": "uint256"
        },
        {
          "indexed": false,
          "internalType": "uint256",
          "name": "totalBorrows",
          "type": "uint256"
        }
      ],
      "name": "AccrueInterest",
      "type": "event"
    },
    {
      "anonymous": false,
      "inputs": [
        {
          "indexed": true,
          "internalType": "address",
          "name": "owner",
          "type": "address"
        },
        {
          "indexed": true,
          "internalType": "address",
          "name": "spender",
          "type": "address"
        },
        {
          "indexed": false,
          "internalType": "uint256",
          "name": "amount",
          "type": "uint256"
        }
      ],
      "name": "Approval",
      "type": "event"
    },
    {
      "anonymous": false,
      "inputs": [
        {
          "indexed": false,
          "internalType": "address",
          "name": "borrower",
          "type": "address"
        },
        {
          "indexed": false,
          "internalType": "uint256",
          "name": "borrowAmount",
          "type": "uint256"
        },
        {
          "indexed": false,
          "internalType": "uint256",
          "name": "accountBorrows",
          "type": "uint256"
        },
        {
          "indexed": false,
          "internalType": "uint256",
          "name": "totalBorrows",
          "type": "uint256"
        }
      ],
      "name": "Borrow",
      "type": "event"
    },
    {
      "anonymous": false,
      "inputs": [
        {
          "indexed": false,
          "internalType": "uint256",
          "name": "error",
          "type": "uint256"
        },
        {
          "indexed": false,
          "internalType": "uint256",
          "name": "info",
          "type": "uint256"
        },
        {
          "indexed": false,
          "internalType": "uint256",
          "name": "detail",
          "type": "uint256"
        }
      ],
      "name": "Failure",
      "type": "event"
    },
    {
      "anonymous": false,
      "inputs": [
        {
          "indexed": false,
          "internalType": "address",
          "name": "liquidator",
          "type": "address"
        },
        {
          "indexed": false,
          "internalType": "address",
          "name": "borrower",
          "type": "address"
        },
        {
          "indexed": false,
          "internalType": "uint256",
          "name": "repayAmount",
          "type": "uint256"
        },
        {
          "indexed": false,
          "internalType": "address",
          "name": "vTokenCollateral",
          "type": "address"
        },
        {
          "indexed": false,
          "internalType": "uint256",
          "name": "seizeTokens",
          "type": "uint256"
        }
      ],
      "name": "LiquidateBorrow",
      "type": "event"
    },
    {
      "anonymous": false,
      "inputs": [
        {
          "indexed": false,
          "internalType": "address",
          "name": "minter",
          "type": "address"
        },
        {
          "indexed": false,
          "internalType": "uint256",
          "name": "mintAmount",
          "type": "uint256"
        },
        {
          "indexed": false,
          "internalType": "uint256",
          "name": "mintTokens",
          "type": "uint256"
        }
      ],
      "name": "Mint",
      "type": "event"
    },
    {
      "anonymous": false,
      "inputs": [
        {
          "indexed": false,
          "internalType": "address",
          "name": "payer",
          "type": "address"
        },
        {
          "indexed": false,
          "internalType": "address",
          "name": "receiver",
          "type": "address"
        },
        {
          "indexed": false,
          "internalType": "uint256",
          "name": "mintAmount",
          "type": "uint256"
        },
        {
          "indexed": false,
          "internalType": "uint256",
          "name": "mintTokens",
          "type": "uint256"
        }
      ],
      "name": "MintBehalf",
      "type": "event"
    },
    {
      "anonymous": false,
      "inputs": [
        {
          "indexed": false,
          "internalType": "address",
          "name": "oldAdmin",
          "type": "address"
        },
        {
          "indexed": false,
          "internalType": "address",
          "name": "newAdmin",
          "type": "address"
        }
      ],
      "name": "NewAdmin",
      "type": "event"
    },
    {
      "anonymous": false,
      "inputs": [
        {
          "indexed": false,
          "internalType": "contract ComptrollerInterface",
          "name": "oldComptroller",
          "type": "address"
        },
        {
          "indexed": false,
          "internalType": "contract ComptrollerInterface",
          "name": "newComptroller",
          "type": "address"
        }
      ],
      "name": "NewComptroller",
      "type": "event"
    },
    {
      "anonymous": false,
      "inputs": [
        {
          "indexed": false,
          "internalType": "contract InterestRateModel",
          "name": "oldInterestRateModel",
          "type": "address"
        },
        {
          "indexed": false,
          "internalType": "contract InterestRateModel",
          "name": "newInterestRateModel",
          "type": "address"
        }
      ],
      "name": "NewMarketInterestRateModel",
      "type": "event"
    },
    {
      "anonymous": false,
      "inputs": [
        {
          "indexed": false,
          "internalType": "address",
          "name": "oldPendingAdmin",
          "type": "address"
        },
        {
          "indexed": false,
          "internalType": "address",
          "name": "newPendingAdmin",
          "type": "address"
        }
      ],
      "name": "NewPendingAdmin",
      "type": "event"
    },
    {
      "anonymous": false,
      "inputs": [
        {
          "indexed": false,
          "internalType": "uint256",
          "name": "oldReserveFactorMantissa",
          "type": "uint256"
        },
        {
          "indexed": false,
          "internalType": "uint256",
          "name": "newReserveFactorMantissa",
          "type": "uint256"
        }
      ],
      "name": "NewReserveFactor",
      "type": "event"
    },
    {
      "anonymous": false,
      "inputs": [
        {
          "indexed": false,
          "internalType": "address",
          "name": "redeemer",
          "type": "address"
        },
        {
          "indexed": false,
          "internalType": "uint256",
          "name": "redeemAmount",
          "type": "uint256"
        },
        {
          "indexed": false,
          "internalType": "uint256",
          "name": "redeemTokens",
          "type": "uint256"
        }
      ],
      "name": "Redeem",
      "type": "event"
    },
    {
      "anonymous": false,
      "inputs": [
        {
          "indexed": false,
          "internalType": "address",
          "name": "redeemer",
          "type": "address"
        },
        {
          "indexed": false,
          "internalType": "uint256",
          "name": "feeAmount",
          "type": "uint256"
        },
        {
          "indexed": false,
          "internalType": "uint256",
          "name": "redeemTokens",
          "type": "uint256"
        }
      ],
      "name": "RedeemFee",
      "type": "event"
    },
    {
      "anonymous": false,
      "inputs": [
        {
          "indexed": false,
          "internalType": "address",
          "name": "payer",
          "type": "address"
        },
        {
          "indexed": false,
          "internalType": "address",
          "name": "borrower",
          "type": "address"
        },
        {
          "indexed": false,
          "internalType": "uint256",
          "name": "repayAmount",
          "type": "uint256"
        },
        {
          "indexed": false,
          "internalType": "uint256",
          "name": "accountBorrows",
          "type": "uint256"
        },
        {
          "indexed": false,
          "internalType": "uint256",
          "name": "totalBorrows",
          "type": "uint256"
        }
      ],
      "name": "RepayBorrow",
      "type": "event"
    },
    {
      "anonymous": false,
      "inputs": [
        {
          "indexed": false,
          "internalType": "address",
          "name": "benefactor",
          "type": "address"
        },
        {
          "indexed": false,
          "internalType": "uint256",
          "name": "addAmount",
          "type": "uint256"
        },
        {
          "indexed": false,
          "internalType": "uint256",
          "name": "newTotalReserves",
          "type": "uint256"
        }
      ],
      "name": "ReservesAdded",
      "type": "event"
    },
    {
      "anonymous": false,
      "inputs": [
        {
          "indexed": false,
          "internalType": "address",
          "name": "admin",
          "type": "address"
        },
        {
          "indexed": false,
          "internalType": "uint256",
          "name": "reduceAmount",
          "type": "uint256"
        },
        {
          "indexed": false,
          "internalType": "uint256",
          "name": "newTotalReserves",
          "type": "uint256"
        }
      ],
      "name": "ReservesReduced",
      "type": "event"
    },
    {
      "anonymous": false,
      "inputs": [
        {
          "indexed": true,
          "internalType": "address",
          "name": "from",
          "type": "address"
        },
        {
          "indexed": true,
          "internalType": "address",
          "name": "to",
          "type": "address"
        },
        {
          "indexed": false,
          "internalType": "uint256",
          "name": "amount",
          "type": "uint256"
        }
      ],
      "name": "Transfer",
      "type": "event"
    },
    {
      "constant": false,
      "inputs": [],
      "name": "_acceptAdmin",
      "outputs": [
        {
          "internalType": "uint256",
          "name": "",
          "type": "uint256"
        }
      ],
      "payable": false,
      "stateMutability": "nonpayable",
      "type": "function"
    },
    {
      "constant": false,
      "inputs": [
        {
          "internalType": "uint256",
          "name": "addAmount",
          "type": "uint256"
        }
      ],
      "name": "_addReserves",
      "outputs": [
        {
          "internalType": "uint256",
          "name": "",
          "type": "uint256"
        }
      ],
      "payable": false,
      "stateMutability": "nonpayable",
      "type": "function"
    },
    {
      "constant": false,
      "inputs": [
        {
          "internalType": "bytes",
          "name": "data",
          "type": "bytes"
        }
      ],
      "name": "_becomeImplementation",
      "outputs": [],
      "payable": false,
      "stateMutability": "nonpayable",
      "type": "function"
    },
    {
      "constant": false,
      "inputs": [
        {
          "internalType": "address",
          "name": "xvsLikeDelegatee",
          "type": "address"
        }
      ],
      "name": "_delegateXvsLikeTo",
      "outputs": [],
      "payable": false,
      "stateMutability": "nonpayable",
      "type": "function"
    },
    {
      "constant": false,
      "inputs": [
        {
          "internalType": "uint256",
          "name": "reduceAmount",
          "type": "uint256"
        }
      ],
      "name": "_reduceReserves",
      "outputs": [
        {
          "internalType": "uint256",
          "name": "",
          "type": "uint256"
        }
      ],
      "payable": false,
      "stateMutability": "nonpayable",
      "type": "function"
    },
    {
      "constant": false,
      "inputs": [],
      "name": "_resignImplementation",
      "outputs": [],
      "payable": false,
      "stateMutability": "nonpayable",
      "type": "function"
    },
    {
      "constant": false,
      "inputs": [
        {
          "internalType": "contract ComptrollerInterface",
          "name": "newComptroller",
          "type": "address"
        }
      ],
      "name": "_setComptroller",
      "outputs": [
        {
          "internalType": "uint256",
          "name": "",
          "type": "uint256"
        }
      ],
      "payable": false,
      "stateMutability": "nonpayable",
      "type": "function"
    },
    {
      "constant": false,
      "inputs": [
        {
          "internalType": "contract InterestRateModel",
          "name": "newInterestRateModel",
          "type": "address"
        }
      ],
      "name": "_setInterestRateModel",
      "outputs": [
        {
          "internalType": "uint256",
          "name": "",
          "type": "uint256"
        }
      ],
      "payable": false,
      "stateMutability": "nonpayable",
      "type": "function"
    },
    {
      "constant": false,
      "inputs": [
        {
          "internalType": "address payable",
          "name": "newPendingAdmin",
          "type": "address"
        }
      ],
      "name": "_setPendingAdmin",
      "outputs": [
        {
          "internalType": "uint256",
          "name": "",
          "type": "uint256"
        }
      ],
      "payable": false,
      "stateMutability": "nonpayable",
      "type": "function"
    },
    {
      "constant": false,
      "inputs": [
        {
          "internalType": "uint256",
          "name": "newReserveFactorMantissa",
          "type": "uint256"
        }
      ],
      "name": "_setReserveFactor",
      "outputs": [
        {
          "internalType": "uint256",
          "name": "",
          "type": "uint256"
        }
      ],
      "payable": false,
      "stateMutability": "nonpayable",
      "type": "function"
    },
    {
      "constant": true,
      "inputs": [],
      "name": "accrualBlockNumber",
      "outputs": [
        {
          "internalType": "uint256",
          "name": "",
          "type": "uint256"
        }
      ],
      "payable": false,
      "stateMutability": "view",
      "type": "function"
    },
    {
      "constant": false,
      "inputs": [],
      "name": "accrueInterest",
      "outputs": [
        {
          "internalType": "uint256",
          "name": "",
          "type": "uint256"
        }
      ],
      "payable": false,
      "stateMutability": "nonpayable",
      "type": "function"
    },
    {
      "constant": true,
      "inputs": [],
      "name": "admin",
      "outputs": [
        {
          "internalType": "address payable",
          "name": "",
          "type": "address"
        }
      ],
      "payable": false,
      "stateMutability": "view",
      "type": "function"
    },
    {
      "constant": true,
      "inputs": [
        {
          "internalType": "address",
          "name": "owner",
          "type": "address"
        },
        {
          "internalType": "address",
          "name": "spender",
          "type": "address"
        }
      ],
      "name": "allowance",
      "outputs": [
        {
          "internalType": "uint256",
          "name": "",
          "type": "uint256"
        }
      ],
      "payable": false,
      "stateMutability": "view",
      "type": "function"
    },
    {
      "constant": false,
      "inputs": [
        {
          "internalType": "address",
          "name": "spender",
          "type": "address"
        },
        {
          "internalType": "uint256",
          "name": "amount",
          "type": "uint256"
        }
      ],
      "name": "approve",
      "outputs": [
        {
          "internalType": "bool",
          "name": "",
          "type": "bool"
        }
      ],
      "payable": false,
      "stateMutability": "nonpayable",
      "type": "function"
    },
    {
      "constant": true,
      "inputs": [
        {
          "internalType": "address",
          "name": "owner",
          "type": "address"
        }
      ],
      "name": "balanceOf",
      "outputs": [
        {
          "internalType": "uint256",
          "name": "",
          "type": "uint256"
        }
      ],
      "payable": false,
      "stateMutability": "view",
      "type": "function"
    },
    {
      "constant": false,
      "inputs": [
        {
          "internalType": "address",
          "name": "owner",
          "type": "address"
        }
      ],
      "name": "balanceOfUnderlying",
      "outputs": [
        {
          "internalType": "uint256",
          "name": "",
          "type": "uint256"
        }
      ],
      "payable": false,
      "stateMutability": "nonpayable",
      "type": "function"
    },
    {
      "constant": false,
      "inputs": [
        {
          "internalType": "uint256",
          "name": "borrowAmount",
          "type": "uint256"
        }
      ],
      "name": "borrow",
      "outputs": [
        {
          "internalType": "uint256",
          "name": "",
          "type": "uint256"
        }
      ],
      "payable": false,
      "stateMutability": "nonpayable",
      "type": "function"
    },
    {
      "constant": false,
      "inputs": [
        {
          "internalType": "address",
          "name": "account",
          "type": "address"
        }
      ],
      "name": "borrowBalanceCurrent",
      "outputs": [
        {
          "internalType": "uint256",
          "name": "",
          "type": "uint256"
        }
      ],
      "payable": false,
      "stateMutability": "nonpayable",
      "type": "function"
    },
    {
      "constant": true,
      "inputs": [
        {
          "internalType": "address",
          "name": "account",
          "type": "address"
        }
      ],
      "name": "borrowBalanceStored",
      "outputs": [
        {
          "internalType": "uint256",
          "name": "",
          "type": "uint256"
        }
      ],
      "payable": false,
      "stateMutability": "view",
      "type": "function"
    },
    {
      "constant": true,
      "inputs": [],
      "name": "borrowIndex",
      "outputs": [
        {
          "internalType": "uint256",
          "name": "",
          "type": "uint256"
        }
      ],
      "payable": false,
      "stateMutability": "view",
      "type": "function"
    },
    {
      "constant": true,
      "inputs": [],
      "name": "borrowRatePerBlock",
      "outputs": [
        {
          "internalType": "uint256",
          "name": "",
          "type": "uint256"
        }
      ],
      "payable": false,
      "stateMutability": "view",
      "type": "function"
    },
    {
      "constant": true,
      "inputs": [],
      "name": "comptroller",
      "outputs": [
        {
          "internalType": "contract ComptrollerInterface",
          "name": "",
          "type": "address"
        }
      ],
      "payable": false,
      "stateMutability": "view",
      "type": "function"
    },
    {
      "constant": true,
      "inputs": [],
      "name": "decimals",
      "outputs": [
        {
          "internalType": "uint8",
          "name": "",
          "type": "uint8"
        }
      ],
      "payable": false,
      "stateMutability": "view",
      "type": "function"
    },
    {
      "constant": false,
      "inputs": [],
      "name": "exchangeRateCurrent",
      "outputs": [
        {
          "internalType": "uint256",
          "name": "",
          "type": "uint256"
        }
      ],
      "payable": false,
      "stateMutability": "nonpayable",
      "type": "function"
    },
    {
      "constant": true,
      "inputs": [],
      "name": "exchangeRateStored",
      "outputs": [
        {
          "internalType": "uint256",
          "name": "",
          "type": "uint256"
        }
      ],
      "payable": false,
      "stateMutability": "view",
      "type": "function"
    },
    {
      "constant": true,
      "inputs": [
        {
          "internalType": "address",
          "name": "account",
          "type": "address"
        }
      ],
      "name": "getAccountSnapshot",
      "outputs": [
        {
          "internalType": "uint256",
          "name": "",
          "type": "uint256"
        },
        {
          "internalType": "uint256",
          "name": "",
          "type": "uint256"
        },
        {
          "internalType": "uint256",
          "name": "",
          "type": "uint256"
        },
        {
          "internalType": "uint256",
          "name": "",
          "type": "uint256"
        }
      ],
      "payable": false,
      "stateMutability": "view",
      "type": "function"
    },
    {
      "constant": true,
      "inputs": [],
      "name": "getCash",
      "outputs": [
        {
          "internalType": "uint256",
          "name": "",
          "type": "uint256"
        }
      ],
      "payable": false,
      "stateMutability": "view",
      "type": "function"
    },
    {
      "constant": true,
      "inputs": [],
      "name": "implementation",
      "outputs": [
        {
          "internalType": "address",
          "name": "",
          "type": "address"
        }
      ],
      "payable": false,
      "stateMutability": "view",
      "type": "function"
    },
    {
      "constant": false,
      "inputs": [
        {
          "internalType": "address",
          "name": "underlying_",
          "type": "address"
        },
        {
          "internalType": "contract ComptrollerInterface",
          "name": "comptroller_",
          "type": "address"
        },
        {
          "internalType": "contract InterestRateModel",
          "name": "interestRateModel_",
          "type": "address"
        },
        {
          "internalType": "uint256",
          "name": "initialExchangeRateMantissa_",
          "type": "uint256"
        },
        {
          "internalType": "string",
          "name": "name_",
          "type": "string"
        },
        {
          "internalType": "string",
          "name": "symbol_",
          "type": "string"
        },
        {
          "internalType": "uint8",
          "name": "decimals_",
          "type": "uint8"
        }
      ],
      "name": "initialize",
      "outputs": [],
      "payable": false,
      "stateMutability": "nonpayable",
      "type": "function"
    },
    {
      "constant": false,
      "inputs": [
        {
          "internalType": "contract ComptrollerInterface",
          "name": "comptroller_",
          "type": "address"
        },
        {
          "internalType": "contract InterestRateModel",
          "name": "interestRateModel_",
          "type": "address"
        },
        {
          "internalType": "uint256",
          "name": "initialExchangeRateMantissa_",
          "type": "uint256"
        },
        {
          "internalType": "string",
          "name": "name_",
          "type": "string"
        },
        {
          "internalType": "string",
          "name": "symbol_",
          "type": "string"
        },
        {
          "internalType": "uint8",
          "name": "decimals_",
          "type": "uint8"
        }
      ],
      "name": "initialize",
      "outputs": [],
      "payable": false,
      "stateMutability": "nonpayable",
      "type": "function"
    },
    {
      "constant": true,
      "inputs": [],
      "name": "interestRateModel",
      "outputs": [
        {
          "internalType": "contract InterestRateModel",
          "name": "",
          "type": "address"
        }
      ],
      "payable": false,
      "stateMutability": "view",
      "type": "function"
    },
    {
      "constant": true,
      "inputs": [],
      "name": "isVToken",
      "outputs": [
        {
          "internalType": "bool",
          "name": "",
          "type": "bool"
        }
      ],
      "payable": false,
      "stateMutability": "view",
      "type": "function"
    },
    {
      "constant": false,
      "inputs": [
        {
          "internalType": "address",
          "name": "borrower",
          "type": "address"
        },
        {
          "internalType": "uint256",
          "name": "repayAmount",
          "type": "uint256"
        },
        {
          "internalType": "contract VTokenInterface",
          "name": "vTokenCollateral",
          "type": "address"
        }
      ],
      "name": "liquidateBorrow",
      "outputs": [
        {
          "internalType": "uint256",
          "name": "",
          "type": "uint256"
        }
      ],
      "payable": false,
      "stateMutability": "nonpayable",
      "type": "function"
    },
    {
      "constant": false,
      "inputs": [
        {
          "internalType": "uint256",
          "name": "mintAmount",
          "type": "uint256"
        }
      ],
      "name": "mint",
      "outputs": [
        {
          "internalType": "uint256",
          "name": "",
          "type": "uint256"
        }
      ],
      "payable": false,
      "stateMutability": "nonpayable",
      "type": "function"
    },
    {
      "constant": false,
      "inputs": [
        {
          "internalType": "address",
          "name": "receiver",
          "type": "address"
        },
        {
          "internalType": "uint256",
          "name": "mintAmount",
          "type": "uint256"
        }
      ],
      "name": "mintBehalf",
      "outputs": [
        {
          "internalType": "uint256",
          "name": "",
          "type": "uint256"
        }
      ],
      "payable": false,
      "stateMutability": "nonpayable",
      "type": "function"
    },
    {
      "constant": true,
      "inputs": [],
      "name": "name",
      "outputs": [
        {
          "internalType": "string",
          "name": "",
          "type": "string"
        }
      ],
      "payable": false,
      "stateMutability": "view",
      "type": "function"
    },
    {
      "constant": true,
      "inputs": [],
      "name": "pendingAdmin",
      "outputs": [
        {
          "internalType": "address payable",
          "name": "",
          "type": "address"
        }
      ],
      "payable": false,
      "stateMutability": "view",
      "type": "function"
    },
    {
      "constant": false,
      "inputs": [
        {
          "internalType": "uint256",
          "name": "redeemTokens",
          "type": "uint256"
        }
      ],
      "name": "redeem",
      "outputs": [
        {
          "internalType": "uint256",
          "name": "",
          "type": "uint256"
        }
      ],
      "payable": false,
      "stateMutability": "nonpayable",
      "type": "function"
    },
    {
      "constant": false,
      "inputs": [
        {
          "internalType": "uint256",
          "name": "redeemAmount",
          "type": "uint256"
        }
      ],
      "name": "redeemUnderlying",
      "outputs": [
        {
          "internalType": "uint256",
          "name": "",
          "type": "uint256"
        }
      ],
      "payable": false,
      "stateMutability": "nonpayable",
      "type": "function"
    },
    {
      "constant": false,
      "inputs": [
        {
          "internalType": "uint256",
          "name": "repayAmount",
          "type": "uint256"
        }
      ],
      "name": "repayBorrow",
      "outputs": [
        {
          "internalType": "uint256",
          "name": "",
          "type": "uint256"
        }
      ],
      "payable": false,
      "stateMutability": "nonpayable",
      "type": "function"
    },
    {
      "constant": false,
      "inputs": [
        {
          "internalType": "address",
          "name": "borrower",
          "type": "address"
        },
        {
          "internalType": "uint256",
          "name": "repayAmount",
          "type": "uint256"
        }
      ],
      "name": "repayBorrowBehalf",
      "outputs": [
        {
          "internalType": "uint256",
          "name": "",
          "type": "uint256"
        }
      ],
      "payable": false,
      "stateMutability": "nonpayable",
      "type": "function"
    },
    {
      "constant": true,
      "inputs": [],
      "name": "reserveFactorMantissa",
      "outputs": [
        {
          "internalType": "uint256",
          "name": "",
          "type": "uint256"
        }
      ],
      "payable": false,
      "stateMutability": "view",
      "type": "function"
    },
    {
      "constant": false,
      "inputs": [
        {
          "internalType": "address",
          "name": "liquidator",
          "type": "address"
        },
        {
          "internalType": "address",
          "name": "borrower",
          "type": "address"
        },
        {
          "internalType": "uint256",
          "name": "seizeTokens",
          "type": "uint256"
        }
      ],
      "name": "seize",
      "outputs": [
        {
          "internalType": "uint256",
          "name": "",
          "type": "uint256"
        }
      ],
      "payable": false,
      "stateMutability": "nonpayable",
      "type": "function"
    },
    {
      "constant": true,
      "inputs": [],
      "name": "supplyRatePerBlock",
      "outputs": [
        {
          "internalType": "uint256",
          "name": "",
          "type": "uint256"
        }
      ],
      "payable": false,
      "stateMutability": "view",
      "type": "function"
    },
    {
      "constant": true,
      "inputs": [],
      "name": "symbol",
      "outputs": [
        {
          "internalType": "string",
          "name": "",
          "type": "string"
        }
      ],
      "payable": false,
      "stateMutability": "view",
      "type": "function"
    },
    {
      "constant": true,
      "inputs": [],
      "name": "totalBorrows",
      "outputs": [
        {
          "internalType": "uint256",
          "name": "",
          "type": "uint256"
        }
      ],
      "payable": false,
      "stateMutability": "view",
      "type": "function"
    },
    {
      "constant": false,
      "inputs": [],
      "name": "totalBorrowsCurrent",
      "outputs": [
        {
          "internalType": "uint256",
          "name": "",
          "type": "uint256"
        }
      ],
      "payable": false,
      "stateMutability": "nonpayable",
      "type": "function"
    },
    {
      "constant": true,
      "inputs": [],
      "name": "totalReserves",
      "outputs": [
        {
          "internalType": "uint256",
          "name": "",
          "type": "uint256"
        }
      ],
      "payable": false,
      "stateMutability": "view",
      "type": "function"
    },
    {
      "constant": true,
      "inputs": [],
      "name": "totalSupply",
      "outputs": [
        {
          "internalType": "uint256",
          "name": "",
          "type": "uint256"
        }
      ],
      "payable": false,
      "stateMutability": "view",
      "type": "function"
    },
    {
      "constant": false,
      "inputs": [
        {
          "internalType": "address",
          "name": "dst",
          "type": "address"
        },
        {
          "internalType": "uint256",
          "name": "amount",
          "type": "uint256"
        }
      ],
      "name": "transfer",
      "outputs": [
        {
          "internalType": "bool",
          "name": "",
          "type": "bool"
        }
      ],
      "payable": false,
      "stateMutability": "nonpayable",
      "type": "function"
    },
    {
      "constant": false,
      "inputs": [
        {
          "internalType": "address",
          "name": "src",
          "type": "address"
        },
        {
          "internalType": "address",
          "name": "dst",
          "type": "address"
        },
        {
          "internalType": "uint256",
          "name": "amount",
          "type": "uint256"
        }
      ],
      "name": "transferFrom",
      "outputs": [
        {
          "internalType": "bool",
          "name": "",
          "type": "bool"
        }
      ],
      "payable": false,
      "stateMutability": "nonpayable",
      "type": "function"
    },
    {
      "constant": true,
      "inputs": [],
      "name": "underlying",
      "outputs": [
        {
          "internalType": "address",
          "name": "",
          "type": "address"
        }
      ],
      "payable": false,
      "stateMutability": "view",
      "type": "function"
    }
  ],
  "bytecode": "0x608060405234801561001057600080fd5b506159ea80620000216000396000f3fe608060405234801561001057600080fd5b50600436106103275760003560e01c806370a08231116101b8578063b2a02ff111610104578063e9c714f2116100a2578063f5e3c4621161007c578063f5e3c46214610b8c578063f851a44014610bc2578063f8f9da2814610bca578063fca7820b14610bd257610327565b8063e9c714f214610b56578063f2b3abbd14610b5e578063f3fdb15a14610b8457610327565b8063c37f68e2116100de578063c37f68e214610aa2578063c5ebeaec14610aee578063db006a7514610b0b578063dd62ed3e14610b2857610327565b8063b2a02ff114610a3e578063b71d1a0c14610a74578063bd6d894d14610a9a57610327565b806395dd919311610171578063a6afed951161014b578063a6afed95146109fa578063a9059cbb14610a02578063aa5af0fd14610a2e578063ae9d70b014610a3657610327565b806395dd91931461086957806399d8c1b41461088f578063a0712d68146109dd57610327565b806370a08231146107e857806373acee981461080e57806379373fe014610816578063852a12e31461083c5780638f840ddd1461085957806395d89b411461086157610327565b8063313ce5671161027757806347bd3718116102305780635fe3b5671161020a5780635fe3b567146107b3578063601a0bf1146107bb5780636c540baf146107d85780636f307dc3146107e057610327565b806347bd3718146106ff57806356e67728146107075780635c60da1b146107ab57610327565b8063313ce567146106685780633af9e669146106865780633b1d21a2146106ac5780633d9ea3a1146106b45780633e941010146106bc5780634576b5db146106d957610327565b806318160ddd116102e457806323323e03116102be57806323323e03146105b657806323b872dd146105e25780632608f81814610618578063267822471461064457610327565b806318160ddd14610450578063182df0f5146104585780631a31d4651461046057610327565b806306fdde031461032c578063095ea7b3146103a95780630e752702146103e9578063153ab50514610418578063173b99041461042257806317bfdfbc1461042a575b600080fd5b610334610bef565b6040805160208082528351818301528351919283929083019185019080838360005b8381101561036e578181015183820152602001610356565b50505050905090810190601f16801561039b5780820380516001836020036101000a031916815260200191505b509250505060405180910390f35b6103d5600480360360408110156103bf57600080fd5b506001600160a01b038135169060200135610c7c565b604080519115158252519081900360200190f35b610406600480360360208110156103ff57600080fd5b5035610ce9565b60408051918252519081900360200190f35b610420610cff565b005b610406610d4f565b6104066004803603602081101561044057600080fd5b50356001600160a01b0316610d55565b610406610e15565b610406610e1b565b610420600480360360e081101561047657600080fd5b6001600160a01b03823581169260208101358216926040820135909216916060820135919081019060a081016080820135600160201b8111156104b857600080fd5b8201836020820111156104ca57600080fd5b803590602001918460018302840111600160201b831117156104eb57600080fd5b91908080601f0160208091040260200160405190810160405280939291908181526020018383808284376000920191909152509295949360208101935035915050600160201b81111561053d57600080fd5b82018360208201111561054f57600080fd5b803590602001918460018302840111600160201b8311171561057057600080fd5b91908080601f0160208091040260200160405190810160405280939291908181526020018383808284376000920191909152509295505050903560ff169150610e7e9050565b610406600480360360408110156105cc57600080fd5b506001600160a01b038135169060200135610f1d565b6103d5600480360360608110156105f857600080fd5b506001600160a01b03813581169160208101359091169060400135610f33565b6104066004803603604081101561062e57600080fd5b506001600160a01b038135169060200135610fa5565b61064c610fb2565b604080516001600160a01b039092168252519081900360200190f35b610670610fc1565b6040805160ff9092168252519081900360200190f35b6104066004803603602081101561069c57600080fd5b50356001600160a01b0316610fca565b610406611080565b6103d561108f565b610406600480360360208110156106d257600080fd5b5035611094565b610406600480360360208110156106ef57600080fd5b50356001600160a01b031661109f565b6104066111f4565b6104206004803603602081101561071d57600080fd5b810190602081018135600160201b81111561073757600080fd5b82018360208201111561074957600080fd5b803590602001918460018302840111600160201b8311171561076a57600080fd5b91908080601f0160208091040260200160405190810160405280939291908181526020018383808284376000920191909152509295506111fa945050505050565b61064c61124b565b61064c61125a565b610406600480360360208110156107d157600080fd5b5035611269565b610406611304565b61064c61130a565b610406600480360360208110156107fe57600080fd5b50356001600160a01b0316611319565b610406611334565b6104206004803603602081101561082c57600080fd5b50356001600160a01b03166113ea565b6104066004803603602081101561085257600080fd5b50356114a1565b6104066114ac565b6103346114b2565b6104066004803603602081101561087f57600080fd5b50356001600160a01b031661150a565b610420600480360360c08110156108a557600080fd5b6001600160a01b03823581169260208101359091169160408201359190810190608081016060820135600160201b8111156108df57600080fd5b8201836020820111156108f157600080fd5b803590602001918460018302840111600160201b8311171561091257600080fd5b91908080601f0160208091040260200160405190810160405280939291908181526020018383808284376000920191909152509295949360208101935035915050600160201b81111561096457600080fd5b82018360208201111561097657600080fd5b803590602001918460018302840111600160201b8311171561099757600080fd5b91908080601f0160208091040260200160405190810160405280939291908181526020018383808284376000920191909152509295505050903560ff1691506115679050565b610406600480360360208110156109f357600080fd5b503561174e565b61040661175a565b6103d560048036036040811015610a1857600080fd5b506001600160a01b038135169060200135611ab2565b610406611b23565b610406611b29565b61040660048036036060811015610a5457600080fd5b506001600160a01b03813581169160208101359091169060400135611bc8565b61040660048036036020811015610a8a57600080fd5b50356001600160a01b0316611c39565b610406611cc5565b610ac860048036036020811015610ab857600080fd5b50356001600160a01b0316611d81565b604080519485526020850193909352838301919091526060830152519081900360800190f35b61040660048036036020811015610b0457600080fd5b5035611e16565b61040660048036036020811015610b2157600080fd5b5035611e21565b61040660048036036040811015610b3e57600080fd5b506001600160a01b0381358116916020013516611e2c565b610406611e57565b61040660048036036020811015610b7457600080fd5b50356001600160a01b0316611f4f565b61064c611f89565b61040660048036036060811015610ba257600080fd5b506001600160a01b03813581169160208101359160409091013516611f98565b61064c611fb0565b610406611fc4565b61040660048036036020811015610be857600080fd5b5035612028565b60018054604080516020600284861615610100026000190190941693909304601f81018490048402820184019092528181529291830182828015610c745780601f10610c4957610100808354040283529160200191610c74565b820191906000526020600020905b815481529060010190602001808311610c5757829003601f168201915b505050505081565b336000818152600f602090815260408083206001600160a01b03871680855290835281842086905581518681529151939493909284927f8c5be1e5ebec7d5bd14f71427d1e84f3dd0314c0f7b2291e5b200ac8c7c3b925929081900390910190a360019150505b92915050565b600080610cf5836120a6565b509150505b919050565b60035461010090046001600160a01b03163314610d4d5760405162461bcd60e51b815260040180806020018281038252602d81526020018061577f602d913960400191505060405180910390fd5b565b60085481565b6000805460ff16610d9a576040805162461bcd60e51b815260206004820152600a6024820152691c994b595b9d195c995960b21b604482015290519081900360640190fd5b6000805460ff19168155610dac61175a565b14610df7576040805162461bcd60e51b81526020600482015260166024820152751858d8dc9d59481a5b9d195c995cdd0819985a5b195960521b604482015290519081900360640190fd5b610e008261150a565b90505b6000805460ff19166001179055919050565b600d5481565b6000806000610e2861214f565b90925090506000826003811115610e3b57fe5b14610e775760405162461bcd60e51b81526004018080602001828103825260358152602001806158cc6035913960400191505060405180910390fd5b9150505b90565b610e8c868686868686611567565b601180546001600160a01b0319166001600160a01b038981169190911791829055604080516318160ddd60e01b8152905192909116916318160ddd91600480820192602092909190829003018186803b158015610ee857600080fd5b505afa158015610efc573d6000803e3d6000fd5b505050506040513d6020811015610f1257600080fd5b505050505050505050565b600080610f2a84846121fe565b50949350505050565b6000805460ff16610f78576040805162461bcd60e51b815260206004820152600a6024820152691c994b595b9d195c995960b21b604482015290519081900360640190fd5b6000805460ff19168155610f8e338686866122a9565b1490506000805460ff191660011790559392505050565b600080610f2a84846125b7565b6004546001600160a01b031681565b60035460ff1681565b6000610fd4615594565b6040518060200160405280610fe7611cc5565b90526001600160a01b0384166000908152600e6020526040812054919250908190611013908490612639565b9092509050600082600381111561102657fe5b14611078576040805162461bcd60e51b815260206004820152601f60248201527f62616c616e636520636f756c64206e6f742062652063616c63756c6174656400604482015290519081900360640190fd5b949350505050565b600061108a61268d565b905090565b600181565b6000610ce38261270d565b60035460009061010090046001600160a01b031633146110cc576110c56001603f6127a1565b9050610cfa565b60055460408051623f1ee960e11b815290516001600160a01b0392831692851691627e3dd2916004808301926020929190829003018186803b15801561111157600080fd5b505afa158015611125573d6000803e3d6000fd5b505050506040513d602081101561113b57600080fd5b505161118e576040805162461bcd60e51b815260206004820152601c60248201527f6d61726b6572206d6574686f642072657475726e65642066616c736500000000604482015290519081900360640190fd5b600580546001600160a01b0319166001600160a01b03858116918217909255604080519284168352602083019190915280517f7ac369dbd14fa5ea3f473ed67cc9d598964a77501540ba6751eb0b3decf5870d9281900390910190a160005b9392505050565b600b5481565b60035461010090046001600160a01b031633146112485760405162461bcd60e51b815260040180806020018281038252602d815260200180615989602d913960400191505060405180910390fd5b50565b6012546001600160a01b031681565b6005546001600160a01b031681565b6000805460ff166112ae576040805162461bcd60e51b815260206004820152600a6024820152691c994b595b9d195c995960b21b604482015290519081900360640190fd5b6000805460ff191681556112c061175a565b905080156112e6576112de8160118111156112d757fe5b60306127a1565b915050610e03565b6112ef83612807565b9150506000805460ff19166001179055919050565b60095481565b6011546001600160a01b031681565b6001600160a01b03166000908152600e602052604090205490565b6000805460ff16611379576040805162461bcd60e51b815260206004820152600a6024820152691c994b595b9d195c995960b21b604482015290519081900360640190fd5b6000805460ff1916815561138b61175a565b146113d6576040805162461bcd60e51b81526020600482015260166024820152751858d8dc9d59481a5b9d195c995cdd0819985a5b195960521b604482015290519081900360640190fd5b50600b546000805460ff1916600117905590565b60035461010090046001600160a01b031633146114385760405162461bcd60e51b815260040180806020018281038252602c815260200180615929602c913960400191505060405180910390fd5b601154604080516317066a5760e21b81526001600160a01b03848116600483015291519190921691635c19a95c91602480830192600092919082900301818387803b15801561148657600080fd5b505af115801561149a573d6000803e3d6000fd5b5050505050565b6000610ce3826128fb565b600c5481565b6002805460408051602060018416156101000260001901909316849004601f81018490048402820184019092528181529291830182828015610c745780601f10610c4957610100808354040283529160200191610c74565b60008060006115188461297c565b9092509050600082600381111561152b57fe5b146111ed5760405162461bcd60e51b81526004018080602001828103825260378152602001806157d76037913960400191505060405180910390fd5b60035461010090046001600160a01b031633146115b55760405162461bcd60e51b81526004018080602001828103825260248152602001806156e66024913960400191505060405180910390fd5b6009541580156115c55750600a54155b6116005760405162461bcd60e51b815260040180806020018281038252602381526020018061570a6023913960400191505060405180910390fd5b6007849055836116415760405162461bcd60e51b815260040180806020018281038252603081526020018061572d6030913960400191505060405180910390fd5b600061164c8761109f565b905080156116a1576040805162461bcd60e51b815260206004820152601a60248201527f73657474696e6720636f6d7074726f6c6c6572206661696c6564000000000000604482015290519081900360640190fd5b6116a9612a30565b600955670de0b6b3a7640000600a556116c186612a34565b905080156117005760405162461bcd60e51b815260040180806020018281038252602281526020018061575d6022913960400191505060405180910390fd5b83516117139060019060208701906155a7565b5082516117279060029060208601906155a7565b50506003805460ff90921660ff199283161790556000805490911660011790555050505050565b600080610cf583612ba9565b600080611765612a30565b6009549091508082141561177e57600092505050610e7b565b600061178861268d565b600b54600c54600a54600654604080516315f2405360e01b815260048101879052602481018690526044810185905290519596509394929391926000926001600160a01b03909216916315f24053916064808301926020929190829003018186803b1580156117f657600080fd5b505afa15801561180a573d6000803e3d6000fd5b505050506040513d602081101561182057600080fd5b5051905065048c2739500081111561187f576040805162461bcd60e51b815260206004820152601c60248201527f626f72726f772072617465206973206162737572646c79206869676800000000604482015290519081900360640190fd5b60008061188c8989612c23565b9092509050600082600381111561189f57fe5b146118f1576040805162461bcd60e51b815260206004820152601f60248201527f636f756c64206e6f742063616c63756c61746520626c6f636b2064656c746100604482015290519081900360640190fd5b6118f9615594565b60008060008061191760405180602001604052808a81525087612c46565b9097509450600087600381111561192a57fe5b1461195c576119476009600689600381111561194257fe5b612cae565b9e505050505050505050505050505050610e7b565b611966858c612639565b9097509350600087600381111561197957fe5b14611991576119476009600189600381111561194257fe5b61199b848c612d14565b909750925060008760038111156119ae57fe5b146119c6576119476009600489600381111561194257fe5b6119e16040518060200160405280600854815250858c612d3a565b909750915060008760038111156119f457fe5b14611a0c576119476009600589600381111561194257fe5b611a17858a8b612d3a565b90975090506000876003811115611a2a57fe5b14611a42576119476009600389600381111561194257fe5b60098e9055600a819055600b839055600c829055604080518d8152602081018690528082018390526060810185905290517f4dec04e750ca11537cabcd8a9eab06494de08da3735bc8871cd41250e190bc049181900360800190a160009e50505050505050505050505050505090565b6000805460ff16611af7576040805162461bcd60e51b815260206004820152600a6024820152691c994b595b9d195c995960b21b604482015290519081900360640190fd5b6000805460ff19168155611b0d333386866122a9565b1490506000805460ff1916600117905592915050565b600a5481565b6006546000906001600160a01b031663b8168816611b4561268d565b600b54600c546008546040518563ffffffff1660e01b81526004018085815260200184815260200183815260200182815260200194505050505060206040518083038186803b158015611b9757600080fd5b505afa158015611bab573d6000803e3d6000fd5b505050506040513d6020811015611bc157600080fd5b5051905090565b6000805460ff16611c0d576040805162461bcd60e51b815260206004820152600a6024820152691c994b595b9d195c995960b21b604482015290519081900360640190fd5b6000805460ff19169055611c2333858585612d96565b90506000805460ff191660011790559392505050565b60035460009061010090046001600160a01b03163314611c5f576110c5600160456127a1565b600480546001600160a01b038481166001600160a01b0319831681179093556040805191909216808252602082019390935281517fca4f2f25d0898edd99413412fb94012f9e54ec8142f9b093e7720646a95b16a9929181900390910190a160006111ed565b6000805460ff16611d0a576040805162461bcd60e51b815260206004820152600a6024820152691c994b595b9d195c995960b21b604482015290519081900360640190fd5b6000805460ff19168155611d1c61175a565b14611d67576040805162461bcd60e51b81526020600482015260166024820152751858d8dc9d59481a5b9d195c995cdd0819985a5b195960521b604482015290519081900360640190fd5b611d6f610e1b565b90506000805460ff1916600117905590565b6001600160a01b0381166000908152600e6020526040812054819081908190818080611dac8961297c565b935090506000816003811115611dbe57fe5b14611ddc5760095b975060009650869550859450611e0f9350505050565b611de461214f565b925090506000816003811115611df657fe5b14611e02576009611dc6565b5060009650919450925090505b9193509193565b6000610ce382612ffc565b6000610ce38261307b565b6001600160a01b039182166000908152600f6020908152604080832093909416825291909152205490565b6004546000906001600160a01b03163314611e7f57611e78600160006127a1565b9050610e7b565b60038054600480546001600160a01b03818116610100818102610100600160a81b0319871617968790556001600160a01b031990931690935560408051948390048216808652929095041660208401528351909391927ff9ffabca9c8276e99321725bcb43fb076a6c66a54b7f21c4e8146d8519b417dc92908290030190a1600454604080516001600160a01b038085168252909216602083015280517fca4f2f25d0898edd99413412fb94012f9e54ec8142f9b093e7720646a95b16a99281900390910190a160009250505090565b600080611f5a61175a565b90508015611f8057611f78816011811115611f7157fe5b60406127a1565b915050610cfa565b6111ed83612a34565b6006546001600160a01b031681565b600080611fa68585856130f5565b5095945050505050565b60035461010090046001600160a01b031681565b6006546000906001600160a01b03166315f24053611fe061268d565b600b54600c546040518463ffffffff1660e01b815260040180848152602001838152602001828152602001935050505060206040518083038186803b158015611b9757600080fd5b6000805460ff1661206d576040805162461bcd60e51b815260206004820152600a6024820152691c994b595b9d195c995960b21b604482015290519081900360640190fd5b6000805460ff1916815561207f61175a565b9050801561209d576112de81601181111561209657fe5b60466127a1565b6112ef83613227565b60008054819060ff166120ed576040805162461bcd60e51b815260206004820152600a6024820152691c994b595b9d195c995960b21b604482015290519081900360640190fd5b6000805460ff191681556120ff61175a565b9050801561212a5761211d81601181111561211657fe5b60366127a1565b92506000915061213b9050565b6121353333866132cf565b92509250505b6000805460ff191660011790559092909150565b600d5460009081908061216a575050600754600091506121fa565b600061217461268d565b90506000612180615594565b600061219184600b54600c546136b4565b9350905060008160038111156121a357fe5b146121b8579550600094506121fa9350505050565b6121c283866136f2565b9250905060008160038111156121d457fe5b146121e9579550600094506121fa9350505050565b50516000955093506121fa92505050565b9091565b60008054819060ff16612245576040805162461bcd60e51b815260206004820152600a6024820152691c994b595b9d195c995960b21b604482015290519081900360640190fd5b6000805460ff1916815561225761175a565b905080156122825761227581601181111561226e57fe5b601e6127a1565b9250600091506122939050565b61228d3386866137a2565b92509250505b6000805460ff1916600117905590939092509050565b600554604080516317b9b84b60e31b81523060048201526001600160a01b03868116602483015285811660448301526064820185905291516000938493169163bdcdc25891608480830192602092919082900301818787803b15801561230e57600080fd5b505af1158015612322573d6000803e3d6000fd5b505050506040513d602081101561233857600080fd5b5051905080156123575761234f6003604a83612cae565b915050611078565b836001600160a01b0316856001600160a01b0316141561237d5761234f6002604b6127a1565b60006001600160a01b03878116908716141561239c57506000196123c4565b506001600160a01b038086166000908152600f60209081526040808320938a16835292905220545b6000806000806123d48589612c23565b909450925060008460038111156123e757fe5b14612405576123f86009604b6127a1565b9650505050505050611078565b6001600160a01b038a166000908152600e60205260409020546124289089612c23565b9094509150600084600381111561243b57fe5b1461244c576123f86009604c6127a1565b6001600160a01b0389166000908152600e602052604090205461246f9089612d14565b9094509050600084600381111561248257fe5b14612493576123f86009604d6127a1565b6001600160a01b03808b166000908152600e6020526040808220859055918b1681522081905560001985146124eb576001600160a01b03808b166000908152600f60209081526040808320938f168352929052208390555b886001600160a01b03168a6001600160a01b03166000805160206158488339815191528a6040518082815260200191505060405180910390a36005546040805163352b4a3f60e11b81523060048201526001600160a01b038d811660248301528c81166044830152606482018c905291519190921691636a56947e91608480830192600092919082900301818387803b15801561258757600080fd5b505af115801561259b573d6000803e3d6000fd5b50600092506125a8915050565b9b9a5050505050505050505050565b60008054819060ff166125fe576040805162461bcd60e51b815260206004820152600a6024820152691c994b595b9d195c995960b21b604482015290519081900360640190fd5b6000805460ff1916815561261061175a565b9050801561262e5761227581601181111561262757fe5b60356127a1565b61228d3386866132cf565b6000806000612646615594565b6126508686612c46565b9092509050600082600381111561266357fe5b146126745750915060009050612686565b600061267f82613c2e565b9350935050505b9250929050565b601154604080516370a0823160e01b815230600482015290516000926001600160a01b03169182916370a0823191602480820192602092909190829003018186803b1580156126db57600080fd5b505afa1580156126ef573d6000803e3d6000fd5b505050506040513d602081101561270557600080fd5b505191505090565b6000805460ff16612752576040805162461bcd60e51b815260206004820152600a6024820152691c994b595b9d195c995960b21b604482015290519081900360640190fd5b6000805460ff1916815561276461175a565b90508015612782576112de81601181111561277b57fe5b604e6127a1565b61278b83613c3d565b509150506000805460ff19166001179055919050565b60007f45b96fe442630264581b197e84bbada861235052c5a1aadfff9ea4e40a969aa08360118111156127d057fe5b8360568111156127dc57fe5b604080519283526020830191909152600082820152519081900360600190a18260118111156111ed57fe5b600354600090819061010090046001600160a01b0316331461282f57611f78600160316127a1565b612837612a30565b6009541461284b57611f78600a60336127a1565b8261285461268d565b101561286657611f78600e60326127a1565b600c5483111561287c57611f78600260346127a1565b50600c8054839003908190556003546128a39061010090046001600160a01b031684613d25565b600354604080516101009092046001600160a01b0316825260208201859052818101839052517f3bad0c59cf2f06e7314077049f48a93578cd16f5ef92329f1dab1420a99c177e916060908290030190a160006111ed565b6000805460ff16612940576040805162461bcd60e51b815260206004820152600a6024820152691c994b595b9d195c995960b21b604482015290519081900360640190fd5b6000805460ff1916815561295261175a565b90508015612970576112de81601181111561296957fe5b60276127a1565b6112ef33600085613e1c565b6001600160a01b0381166000908152601060205260408120805482918291829182916129b3575060009450849350612a2b92505050565b6129c38160000154600a54614597565b909450925060008460038111156129d657fe5b146129eb575091935060009250612a2b915050565b6129f98382600101546145d6565b90945091506000846003811115612a0c57fe5b14612a21575091935060009250612a2b915050565b5060009450925050505b915091565b4390565b600354600090819061010090046001600160a01b03163314612a5c57611f78600160426127a1565b612a64612a30565b60095414612a7857611f78600a60416127a1565b600660009054906101000a90046001600160a01b03169050826001600160a01b0316632191f92a6040518163ffffffff1660e01b815260040160206040518083038186803b158015612ac957600080fd5b505afa158015612add573d6000803e3d6000fd5b505050506040513d6020811015612af357600080fd5b5051612b46576040805162461bcd60e51b815260206004820152601c60248201527f6d61726b6572206d6574686f642072657475726e65642066616c736500000000604482015290519081900360640190fd5b600680546001600160a01b0319166001600160a01b03858116918217909255604080519284168352602083019190915280517fedffc32e068c7c95dfd4bdfd5c4d939a084d6b11c4199eac8436ed234d72f9269281900390910190a160006111ed565b60008054819060ff16612bf0576040805162461bcd60e51b815260206004820152600a6024820152691c994b595b9d195c995960b21b604482015290519081900360640190fd5b6000805460ff19168155612c0261175a565b90508015612c195761211d81601181111561226e57fe5b6121353385614601565b600080838311612c3a575060009050818303612686565b50600390506000612686565b6000612c50615594565b600080612c61866000015186614597565b90925090506000826003811115612c7457fe5b14612c9357506040805160208101909152600081529092509050612686565b60408051602081019091529081526000969095509350505050565b60007f45b96fe442630264581b197e84bbada861235052c5a1aadfff9ea4e40a969aa0846011811115612cdd57fe5b846056811115612ce957fe5b604080519283526020830191909152818101859052519081900360600190a183601181111561107857fe5b600080838301848110612d2c57600092509050612686565b506002915060009050612686565b6000806000612d47615594565b612d518787612c46565b90925090506000826003811115612d6457fe5b14612d755750915060009050612d8e565b612d87612d8182613c2e565b86612d14565b9350935050505b935093915050565b6005546040805163d02f735160e01b81523060048201526001600160a01b038781166024830152868116604483015285811660648301526084820185905291516000938493169163d02f73519160a480830192602092919082900301818787803b158015612e0357600080fd5b505af1158015612e17573d6000803e3d6000fd5b505050506040513d6020811015612e2d57600080fd5b505190508015612e445761234f6003601b83612cae565b846001600160a01b0316846001600160a01b03161415612e6a5761234f6006601c6127a1565b6001600160a01b0384166000908152600e602052604081205481908190612e919087612c23565b90935091506000836003811115612ea457fe5b14612ec757612ebc6009601a85600381111561194257fe5b945050505050611078565b6001600160a01b0388166000908152600e6020526040902054612eea9087612d14565b90935090506000836003811115612efd57fe5b14612f1557612ebc6009601985600381111561194257fe5b6001600160a01b038088166000818152600e60209081526040808320879055938c168083529184902085905583518a815293519193600080516020615848833981519152929081900390910190a360055460408051636d35bf9160e01b81523060048201526001600160a01b038c811660248301528b811660448301528a81166064830152608482018a905291519190921691636d35bf919160a480830192600092919082900301818387803b158015612fce57600080fd5b505af1158015612fe2573d6000803e3d6000fd5b5060009250612fef915050565b9998505050505050505050565b6000805460ff16613041576040805162461bcd60e51b815260206004820152600a6024820152691c994b595b9d195c995960b21b604482015290519081900360640190fd5b6000805460ff1916815561305361175a565b90508015613071576112de81601181111561306a57fe5b60086127a1565b6112ef3384614a48565b6000805460ff166130c0576040805162461bcd60e51b815260206004820152600a6024820152691c994b595b9d195c995960b21b604482015290519081900360640190fd5b6000805460ff191681556130d261175a565b905080156130e9576112de81601181111561296957fe5b6112ef33846000613e1c565b60008054819060ff1661313c576040805162461bcd60e51b815260206004820152600a6024820152691c994b595b9d195c995960b21b604482015290519081900360640190fd5b6000805460ff1916815561314e61175a565b905080156131795761316c81601181111561316557fe5b600f6127a1565b9250600091506132109050565b836001600160a01b031663a6afed956040518163ffffffff1660e01b8152600401602060405180830381600087803b1580156131b457600080fd5b505af11580156131c8573d6000803e3d6000fd5b505050506040513d60208110156131de57600080fd5b5051905080156131fe5761316c8160118111156131f757fe5b60106127a1565b61320a33878787614d56565b92509250505b6000805460ff191660011790559094909350915050565b60035460009061010090046001600160a01b0316331461324d576110c5600160476127a1565b613255612a30565b60095414613269576110c5600a60486127a1565b670de0b6b3a7640000821115613285576110c5600260496127a1565b6008805490839055604080518281526020810185905281517faaa68312e2ea9d50e16af5068410ab56e1a1fd06037b1a35664812c30f821460929181900390910190a160006111ed565b60055460408051631200453160e11b81523060048201526001600160a01b0386811660248301528581166044830152606482018590529151600093849384939116916324008a629160848082019260209290919082900301818787803b15801561333857600080fd5b505af115801561334c573d6000803e3d6000fd5b505050506040513d602081101561336257600080fd5b505190508015613386576133796003603883612cae565b925060009150612d8e9050565b61338e612a30565b600954146133a257613379600a60396127a1565b6133aa615625565b6001600160a01b03861660009081526010602052604090206001015460608201526133d48661297c565b60808301819052602083018260038111156133eb57fe5b60038111156133f657fe5b905250600090508160200151600381111561340d57fe5b1461343757613429600960378360200151600381111561194257fe5b935060009250612d8e915050565b6000198514156134505760808101516040820152613458565b604081018590525b6134668782604001516152d9565b60e08201819052608082015161347b91612c23565b60a083018190526020830182600381111561349257fe5b600381111561349d57fe5b90525060009050816020015160038111156134b457fe5b146134f05760405162461bcd60e51b815260040180806020018281038252603a81526020018061580e603a913960400191505060405180910390fd5b613500600b548260e00151612c23565b60c083018190526020830182600381111561351757fe5b600381111561352257fe5b905250600090508160200151600381111561353957fe5b146135755760405162461bcd60e51b81526004018080602001828103825260318152602001806158686031913960400191505060405180910390fd5b60a080820180516001600160a01b03808a16600081815260106020908152604091829020948555600a5460019095019490945560c0870151600b81905560e088015195518251948f16855294840192909252828101949094526060820192909252608081019190915290517f1a2a22cb034d26d1854bdc6666a5b91fe25efbbb5dcad3b0355478d6f5c362a1929181900390910190a160055460e0820151606083015160408051631ededc9160e01b81523060048201526001600160a01b038c811660248301528b8116604483015260648201949094526084810192909252519190921691631ededc919160a480830192600092919082900301818387803b15801561368057600080fd5b505af1158015613694573d6000803e3d6000fd5b50600092506136a1915050565b8160e00151935093505050935093915050565b6000806000806136c48787612d14565b909250905060008260038111156136d757fe5b146136e85750915060009050612d8e565b612d878186612c23565b60006136fc615594565b60008061371186670de0b6b3a7640000614597565b9092509050600082600381111561372457fe5b1461374357506040805160208101909152600081529092509050612686565b60008061375083886145d6565b9092509050600082600381111561376357fe5b1461378557506040805160208101909152600081529094509250612686915050565b604080516020810190915290815260009890975095505050505050565b6000806001600160a01b0384166137f6576040805162461bcd60e51b81526020600482015260136024820152721c9958d95a5d995c881a5cc81a5b9d985b1a59606a1b604482015290519081900360640190fd5b60055460408051634ef4c3e160e01b81523060048201526001600160a01b0387811660248301526044820187905291516000939290921691634ef4c3e19160648082019260209290919082900301818787803b15801561385557600080fd5b505af1158015613869573d6000803e3d6000fd5b505050506040513d602081101561387f57600080fd5b505190508015613896576133796003601f83612cae565b61389e612a30565b600954146138b257613379600a60226127a1565b6138ba61566b565b6138c261214f565b60208301819052828260038111156138d657fe5b60038111156138e157fe5b90525060009050815160038111156138f557fe5b1461391157613429600960218360000151600381111561194257fe5b61391b87866152d9565b60a0820181905260408051602080820190925290830151815261393e9190615523565b604083018190528282600381111561395257fe5b600381111561395d57fe5b905250600090508151600381111561397157fe5b146139c3576040805162461bcd60e51b815260206004820181905260248201527f4d494e545f45584348414e47455f43414c43554c4154494f4e5f4641494c4544604482015290519081900360640190fd5b6139d3600d548260400151612d14565b60608301819052828260038111156139e757fe5b60038111156139f257fe5b9052506000905081516003811115613a0657fe5b14613a425760405162461bcd60e51b81526004018080602001828103825260288152602001806159016028913960400191505060405180910390fd5b6001600160a01b0386166000908152600e6020526040908190205490820151613a6b9190612d14565b6080830181905282826003811115613a7f57fe5b6003811115613a8a57fe5b9052506000905081516003811115613a9e57fe5b14613ada5760405162461bcd60e51b815260040180806020018281038252602b8152602001806157ac602b913960400191505060405180910390fd5b606080820151600d556080808301516001600160a01b03808a166000818152600e60209081526040918290209490945560a0870151818801518251948f16855294840192909252828101919091529381019190915291517f297989b84a5f5b82d2ee0c266504c19bd9b10b410f187dc72ca4b0f0faecb3459281900390910190a1604080820151815190815290516001600160a01b0388169130916000805160206158488339815191529181900360200190a360055460a082015160408084015181516341c728b960e01b81523060048201526001600160a01b038b8116602483015260448201949094526064810191909152905191909216916341c728b991608480830192600092919082900301818387803b158015613bfa57600080fd5b505af1158015613c0e573d6000803e3d6000fd5b5060009250613c1b915050565b8160a00151935093505050935093915050565b51670de0b6b3a7640000900490565b600080600080613c4b612a30565b60095414613c6a57613c5f600a604f6127a1565b93509150612a2b9050565b613c7433866152d9565b905080600c54019150600c54821015613cd4576040805162461bcd60e51b815260206004820181905260248201527f61646420726573657276657320756e6578706563746564206f766572666c6f77604482015290519081900360640190fd5b600c829055604080513381526020810183905280820184905290517fa91e67c5ea634cd43a12c5a482724b03de01e85ca68702a53d0c2f45cb7c1dc59181900360600190a160009350915050915091565b6011546040805163a9059cbb60e01b81526001600160a01b0385811660048301526024820185905291519190921691829163a9059cbb9160448082019260009290919082900301818387803b158015613d7d57600080fd5b505af1158015613d91573d6000803e3d6000fd5b5050505060003d60008114613dad5760208114613db757600080fd5b6000199150613dc3565b60206000803e60005191505b5080613e16576040805162461bcd60e51b815260206004820152601960248201527f544f4b454e5f5452414e534645525f4f55545f4641494c454400000000000000604482015290519081900360640190fd5b50505050565b6000821580613e29575081155b613e645760405162461bcd60e51b81526004018080602001828103825260348152602001806159556034913960400191505060405180910390fd5b613e6c61566b565b613e7461214f565b6020830181905282826003811115613e8857fe5b6003811115613e9357fe5b9052506000905081516003811115613ea757fe5b14613ecb57613ec36009602b8360000151600381111561194257fe5b9150506111ed565b8315613f4757604080820185905280516020808201909252908201518152613ef39085612639565b6060830181905282826003811115613f0757fe5b6003811115613f1257fe5b9052506000905081516003811115613f2657fe5b14613f4257613ec3600960298360000151600381111561194257fe5b613fba565b613f638360405180602001604052808460200151815250615523565b6040830181905282826003811115613f7757fe5b6003811115613f8257fe5b9052506000905081516003811115613f9657fe5b14613fb257613ec36009602a8360000151600381111561194257fe5b606081018390525b600554604080830151815163eabe7d9160e01b81523060048201526001600160a01b03898116602483015260448201929092529151600093919091169163eabe7d9191606480830192602092919082900301818787803b15801561401d57600080fd5b505af1158015614031573d6000803e3d6000fd5b505050506040513d602081101561404757600080fd5b5051905080156140675761405e6003602883612cae565b925050506111ed565b61406f612a30565b600954146140835761405e600a602c6127a1565b614093600d548360400151612c23565b60808401819052838260038111156140a757fe5b60038111156140b257fe5b90525060009050825160038111156140c657fe5b146140e25761405e6009602e8460000151600381111561194257fe5b6001600160a01b0386166000908152600e602052604090819020549083015161410b9190612c23565b60a084018190528382600381111561411f57fe5b600381111561412a57fe5b905250600090508251600381111561413e57fe5b1461415a5761405e6009602d8460000151600381111561194257fe5b816060015161416761268d565b10156141795761405e600e602f6127a1565b600080600560009054906101000a90046001600160a01b03166001600160a01b03166304ef9d586040518163ffffffff1660e01b815260040160206040518083038186803b1580156141ca57600080fd5b505afa1580156141de573d6000803e3d6000fd5b505050506040513d60208110156141f457600080fd5b50511561444e57606084015160055460408051629df3ab60e31b8152905161427793926001600160a01b0316916304ef9d58916004808301926020929190829003018186803b15801561424657600080fd5b505afa15801561425a573d6000803e3d6000fd5b505050506040513d602081101561427057600080fd5b5051614597565b9250828582600381111561428757fe5b600381111561429257fe5b90525060009050845160038111156142a657fe5b146142cd576142c2600960568660000151600381111561194257fe5b9450505050506111ed565b6142df82670de0b6b3a76400006145d6565b925082858260038111156142ef57fe5b60038111156142fa57fe5b905250600090508451600381111561430e57fe5b1461432a576142c2600960568660000151600381111561194257fe5b614338846060015183612c23565b9150818582600381111561434857fe5b600381111561435357fe5b905250600090508451600381111561436757fe5b14614383576142c2600960568660000151600381111561194257fe5b6005546040805163c5f956af60e01b815290516143fb926001600160a01b03169163c5f956af916004808301926020929190829003018186803b1580156143c957600080fd5b505afa1580156143dd573d6000803e3d6000fd5b505050506040513d60208110156143f357600080fd5b505183613d25565b60408085015181516001600160a01b038b168152602081018590528083019190915290517fccf8e53b86a99b7e9ecf796342c165764d66154780f638c08e6241d711fba6d49181900360600190a1614455565b5060608301515b61445f8882613d25565b6080840151600d5560a08401516001600160a01b0389166000818152600e60209081526040918290209390935580870151815190815290513093600080516020615848833981519152928290030190a360408085015181516001600160a01b038b168152602081018490528083019190915290517fe5b754fb1abb7f01b499791d0b820ae3b6af3424ac1c59768edb53f4ec31a9299181900360600190a1600554606085015160408087015181516351dff98960e01b81523060048201526001600160a01b038d8116602483015260448201949094526064810191909152905191909216916351dff98991608480830192600092919082900301818387803b15801561456a57600080fd5b505af115801561457e573d6000803e3d6000fd5b506000925061458b915050565b98975050505050505050565b600080836145aa57506000905080612686565b838302838582816145b757fe5b04146145cb57506002915060009050612686565b600092509050612686565b600080826145ea5750600190506000612686565b60008385816145f557fe5b04915091509250929050565b60055460408051634ef4c3e160e01b81523060048201526001600160a01b03858116602483015260448201859052915160009384938493911691634ef4c3e19160648082019260209290919082900301818787803b15801561466257600080fd5b505af1158015614676573d6000803e3d6000fd5b505050506040513d602081101561468c57600080fd5b5051905080156146b0576146a36003601f83612cae565b9250600091506126869050565b6146b8612a30565b600954146146cc576146a3600a60226127a1565b6146d461566b565b6146dc61214f565b60208301819052828260038111156146f057fe5b60038111156146fb57fe5b905250600090508151600381111561470f57fe5b146147395761472b600960218360000151600381111561194257fe5b935060009250612686915050565b61474386866152d9565b60a082018190526040805160208082019092529083015181526147669190615523565b604083018190528282600381111561477a57fe5b600381111561478557fe5b905250600090508151600381111561479957fe5b146147eb576040805162461bcd60e51b815260206004820181905260248201527f4d494e545f45584348414e47455f43414c43554c4154494f4e5f4641494c4544604482015290519081900360640190fd5b6147fb600d548260400151612d14565b606083018190528282600381111561480f57fe5b600381111561481a57fe5b905250600090508151600381111561482e57fe5b1461486a5760405162461bcd60e51b81526004018080602001828103825260288152602001806159016028913960400191505060405180910390fd5b6001600160a01b0386166000908152600e60205260409081902054908201516148939190612d14565b60808301819052828260038111156148a757fe5b60038111156148b257fe5b90525060009050815160038111156148c657fe5b146149025760405162461bcd60e51b815260040180806020018281038252602b8152602001806157ac602b913960400191505060405180910390fd5b606080820151600d5560808201516001600160a01b0388166000818152600e60209081526040918290209390935560a0850151818601518251938452938301528181019290925290517f4c209b5fc8ad50758f13e2e1088ba56a560dff690a1c6fef26394f4c03821c4f929181900390910190a1604080820151815190815290516001600160a01b0388169130916000805160206158488339815191529181900360200190a360055460a082015160408084015181516341c728b960e01b81523060048201526001600160a01b038b8116602483015260448201949094526064810191909152905191909216916341c728b991608480830192600092919082900301818387803b158015614a1557600080fd5b505af1158015614a29573d6000803e3d6000fd5b5060009250614a36915050565b8160a001519350935050509250929050565b6005546040805163368f515360e21b81523060048201526001600160a01b0385811660248301526044820185905291516000938493169163da3d454c91606480830192602092919082900301818787803b158015614aa557600080fd5b505af1158015614ab9573d6000803e3d6000fd5b505050506040513d6020811015614acf57600080fd5b505190508015614aee57614ae66003600e83612cae565b915050610ce3565b614af6612a30565b60095414614b0957614ae6600a806127a1565b82614b1261268d565b1015614b2457614ae6600e60096127a1565b614b2c6156a2565b614b358561297c565b6020830181905282826003811115614b4957fe5b6003811115614b5457fe5b9052506000905081516003811115614b6857fe5b14614b8d57614b84600960078360000151600381111561194257fe5b92505050610ce3565b614b9b816020015185612d14565b6040830181905282826003811115614baf57fe5b6003811115614bba57fe5b9052506000905081516003811115614bce57fe5b14614bea57614b846009600c8360000151600381111561194257fe5b614bf6600b5485612d14565b6060830181905282826003811115614c0a57fe5b6003811115614c1557fe5b9052506000905081516003811115614c2957fe5b14614c4557614b846009600b8360000151600381111561194257fe5b614c4f8585613d25565b604080820180516001600160a01b03881660008181526010602090815290859020928355600a54600190930192909255606080860151600b81905593518551928352928201899052818501929092529081019190915290517f13ed6866d4e1ee6da46f845c46d7e54120883d75c5ea9a2dacc1c4ca8984ab809181900360800190a160055460408051635c77860560e01b81523060048201526001600160a01b0388811660248301526044820188905291519190921691635c77860591606480830192600092919082900301818387803b158015614d2c57600080fd5b505af1158015614d40573d6000803e3d6000fd5b5060009250614d4d915050565b95945050505050565b60055460408051632fe3f38f60e11b81523060048201526001600160a01b0384811660248301528781166044830152868116606483015260848201869052915160009384938493911691635fc7e71e9160a48082019260209290919082900301818787803b158015614dc757600080fd5b505af1158015614ddb573d6000803e3d6000fd5b505050506040513d6020811015614df157600080fd5b505190508015614e1557614e086003601283612cae565b9250600091506152d09050565b614e1d612a30565b60095414614e3157614e08600a60166127a1565b614e39612a30565b846001600160a01b0316636c540baf6040518163ffffffff1660e01b815260040160206040518083038186803b158015614e7257600080fd5b505afa158015614e86573d6000803e3d6000fd5b505050506040513d6020811015614e9c57600080fd5b505114614eaf57614e08600a60116127a1565b866001600160a01b0316866001600160a01b03161415614ed557614e08600660176127a1565b84614ee657614e08600760156127a1565b600019851415614efc57614e08600760146127a1565b600080614f0a8989896132cf565b90925090508115614f3a57614f2b826011811115614f2457fe5b60186127a1565b9450600093506152d092505050565b6005546040805163c488847b60e01b81523060048201526001600160a01b038981166024830152604482018590528251600094859492169263c488847b926064808301939192829003018186803b158015614f9457600080fd5b505afa158015614fa8573d6000803e3d6000fd5b505050506040513d6040811015614fbe57600080fd5b508051602090910151909250905081156150095760405162461bcd60e51b81526004018080602001828103825260338152602001806158996033913960400191505060405180910390fd5b80886001600160a01b03166370a082318c6040518263ffffffff1660e01b815260040180826001600160a01b03166001600160a01b0316815260200191505060206040518083038186803b15801561506057600080fd5b505afa158015615074573d6000803e3d6000fd5b505050506040513d602081101561508a57600080fd5b505110156150df576040805162461bcd60e51b815260206004820152601860248201527f4c49515549444154455f5345495a455f544f4f5f4d5543480000000000000000604482015290519081900360640190fd5b60006001600160a01b038916301415615105576150fe308d8d85612d96565b905061518f565b6040805163b2a02ff160e01b81526001600160a01b038e811660048301528d81166024830152604482018590529151918b169163b2a02ff1916064808201926020929091908290030181600087803b15801561516057600080fd5b505af1158015615174573d6000803e3d6000fd5b505050506040513d602081101561518a57600080fd5b505190505b80156151d9576040805162461bcd60e51b81526020600482015260146024820152731d1bdad95b881cd95a5e9d5c994819985a5b195960621b604482015290519081900360640190fd5b604080516001600160a01b03808f168252808e1660208301528183018790528b1660608201526080810184905290517f298637f684da70674f26509b10f07ec2fbc77a335ab1e7d6215a4b2484d8bb529181900360a00190a1600554604080516347ef3b3b60e01b81523060048201526001600160a01b038c811660248301528f811660448301528e811660648301526084820188905260a48201869052915191909216916347ef3b3b9160c480830192600092919082900301818387803b1580156152a457600080fd5b505af11580156152b8573d6000803e3d6000fd5b50600092506152c5915050565b975092955050505050505b94509492505050565b601154604080516370a0823160e01b815230600482015290516000926001600160a01b031691839183916370a08231916024808301926020929190829003018186803b15801561532857600080fd5b505afa15801561533c573d6000803e3d6000fd5b505050506040513d602081101561535257600080fd5b5051604080516323b872dd60e01b81526001600160a01b038881166004830152306024830152604482018890529151929350908416916323b872dd9160648082019260009290919082900301818387803b1580156153af57600080fd5b505af11580156153c3573d6000803e3d6000fd5b5050505060003d600081146153df57602081146153e957600080fd5b60001991506153f5565b60206000803e60005191505b5080615448576040805162461bcd60e51b815260206004820152601860248201527f544f4b454e5f5452414e534645525f494e5f4641494c45440000000000000000604482015290519081900360640190fd5b601154604080516370a0823160e01b815230600482015290516000926001600160a01b0316916370a08231916024808301926020929190829003018186803b15801561549357600080fd5b505afa1580156154a7573d6000803e3d6000fd5b505050506040513d60208110156154bd57600080fd5b5051905082811015615516576040805162461bcd60e51b815260206004820152601a60248201527f544f4b454e5f5452414e534645525f494e5f4f564552464c4f57000000000000604482015290519081900360640190fd5b9190910395945050505050565b6000806000615530615594565b6126508686600061553f615594565b600080615554670de0b6b3a764000087614597565b9092509050600082600381111561556757fe5b1461558657506040805160208101909152600081529092509050612686565b61267f8186600001516136f2565b6040518060200160405280600081525090565b828054600181600116156101000203166002900490600052602060002090601f016020900481019282601f106155e857805160ff1916838001178555615615565b82800160010185558215615615579182015b828111156156155782518255916020019190600101906155fa565b506156219291506156cb565b5090565b6040805161010081019091528060008152602001600081526020016000815260200160008152602001600081526020016000815260200160008152602001600081525090565b6040805160c08101909152806000815260200160008152602001600081526020016000815260200160008152602001600081525090565b604080516080810190915280600081526020016000815260200160008152602001600081525090565b610e7b91905b8082111561562157600081556001016156d156fe6f6e6c792061646d696e206d617920696e697469616c697a6520746865206d61726b65746d61726b6574206d6179206f6e6c7920626520696e697469616c697a6564206f6e6365696e697469616c2065786368616e67652072617465206d7573742062652067726561746572207468616e207a65726f2e73657474696e6720696e7465726573742072617465206d6f64656c206661696c65646f6e6c79207468652061646d696e206d61792063616c6c205f72657369676e496d706c656d656e746174696f6e4d494e545f4e45575f4143434f554e545f42414c414e43455f43414c43554c4154494f4e5f4641494c4544626f72726f7742616c616e636553746f7265643a20626f72726f7742616c616e636553746f726564496e7465726e616c206661696c656452455041595f424f52524f575f4e45575f4143434f554e545f424f52524f575f42414c414e43455f43414c43554c4154494f4e5f4641494c4544ddf252ad1be2c89b69c2b068fc378daa952ba7f163c4a11628f55a4df523b3ef52455041595f424f52524f575f4e45575f544f54414c5f42414c414e43455f43414c43554c4154494f4e5f4641494c45444c49515549444154455f434f4d5054524f4c4c45525f43414c43554c4154455f414d4f554e545f5345495a455f4641494c454465786368616e67655261746553746f7265643a2065786368616e67655261746553746f726564496e7465726e616c206661696c65644d494e545f4e45575f544f54414c5f535550504c595f43414c43554c4154494f4e5f4641494c45446f6e6c79207468652061646d696e206d61792073657420746865207876732d6c696b652064656c65676174656f6e65206f662072656465656d546f6b656e73496e206f722072656465656d416d6f756e74496e206d757374206265207a65726f6f6e6c79207468652061646d696e206d61792063616c6c205f6265636f6d65496d706c656d656e746174696f6ea265627a7a723158208b305aa8ed091ebd2bf77b1cb84a542c8288a9f63cbc7e9dfaa469936aaef1b864736f6c63430005100032",
  "linkReferences": {},
  "deployedLinkReferences": {}
}