{
  "_format": "hh-sol-artifact-1",
  "contractName": "WBTVToken",
  "sourceName": "contracts/test/WBTC.sol",
  "abi": [
    {
      "anonymous": false,
      "inputs": [
        {
          "indexed": true,
          "internalType": "address",
          "name": "owner",
          "type": "address"
        },
        {
          "indexed": true,
          "internalType": "address",
          "name": "spender",
          "type": "address"
        },
        {
          "indexed": false,
          "internalType": "uint256",
          "name": "value",
          "type": "uint256"
        }
      ],
      "name": "Approval",
      "type": "event"
    },
    {
      "anonymous": false,
      "inputs": [
        {
          "indexed": true,
          "internalType": "address",
          "name": "burner",
          "type": "address"
        },
        {
          "indexed": false,
          "internalType": "uint256",
          "name": "value",
          "type": "uint256"
        }
      ],
      "name": "Burn",
      "type": "event"
    },
    {
      "anonymous": false,
      "inputs": [
        {
          "indexed": true,
          "internalType": "address",
          "name": "to",
          "type": "address"
        },
        {
          "indexed": false,
          "internalType": "uint256",
          "name": "amount",
          "type": "uint256"
        }
      ],
      "name": "Mint",
      "type": "event"
    },
    {
      "anonymous": false,
      "inputs": [],
      "name": "MintFinished",
      "type": "event"
    },
    {
      "anonymous": false,
      "inputs": [
        {
          "indexed": true,
          "internalType": "address",
          "name": "previousOwner",
          "type": "address"
        }
      ],
      "name": "OwnershipRenounced",
      "type": "event"
    },
    {
      "anonymous": false,
      "inputs": [
        {
          "indexed": true,
          "internalType": "address",
          "name": "previousOwner",
          "type": "address"
        },
        {
          "indexed": true,
          "internalType": "address",
          "name": "newOwner",
          "type": "address"
        }
      ],
      "name": "OwnershipTransferred",
      "type": "event"
    },
    {
      "anonymous": false,
      "inputs": [],
      "name": "Pause",
      "type": "event"
    },
    {
      "anonymous": false,
      "inputs": [
        {
          "indexed": true,
          "internalType": "address",
          "name": "from",
          "type": "address"
        },
        {
          "indexed": true,
          "internalType": "address",
          "name": "to",
          "type": "address"
        },
        {
          "indexed": false,
          "internalType": "uint256",
          "name": "value",
          "type": "uint256"
        }
      ],
      "name": "Transfer",
      "type": "event"
    },
    {
      "anonymous": false,
      "inputs": [],
      "name": "Unpause",
      "type": "event"
    },
    {
      "constant": false,
      "inputs": [
        {
          "internalType": "address",
          "name": "_owner",
          "type": "address"
        },
        {
          "internalType": "uint256",
          "name": "value",
          "type": "uint256"
        }
      ],
      "name": "allocateTo",
      "outputs": [],
      "payable": false,
      "stateMutability": "nonpayable",
      "type": "function"
    },
    {
      "constant": true,
      "inputs": [
        {
          "internalType": "address",
          "name": "_owner",
          "type": "address"
        },
        {
          "internalType": "address",
          "name": "_spender",
          "type": "address"
        }
      ],
      "name": "allowance",
      "outputs": [
        {
          "internalType": "uint256",
          "name": "",
          "type": "uint256"
        }
      ],
      "payable": false,
      "stateMutability": "view",
      "type": "function"
    },
    {
      "constant": false,
      "inputs": [
        {
          "internalType": "address",
          "name": "_spender",
          "type": "address"
        },
        {
          "internalType": "uint256",
          "name": "_value",
          "type": "uint256"
        }
      ],
      "name": "approve",
      "outputs": [
        {
          "internalType": "bool",
          "name": "",
          "type": "bool"
        }
      ],
      "payable": false,
      "stateMutability": "nonpayable",
      "type": "function"
    },
    {
      "constant": true,
      "inputs": [
        {
          "internalType": "address",
          "name": "_owner",
          "type": "address"
        }
      ],
      "name": "balanceOf",
      "outputs": [
        {
          "internalType": "uint256",
          "name": "",
          "type": "uint256"
        }
      ],
      "payable": false,
      "stateMutability": "view",
      "type": "function"
    },
    {
      "constant": false,
      "inputs": [
        {
          "internalType": "uint256",
          "name": "value",
          "type": "uint256"
        }
      ],
      "name": "burn",
      "outputs": [],
      "payable": false,
      "stateMutability": "nonpayable",
      "type": "function"
    },
    {
      "constant": false,
      "inputs": [],
      "name": "claimOwnership",
      "outputs": [],
      "payable": false,
      "stateMutability": "nonpayable",
      "type": "function"
    },
    {
      "constant": true,
      "inputs": [],
      "name": "decimals",
      "outputs": [
        {
          "internalType": "uint8",
          "name": "",
          "type": "uint8"
        }
      ],
      "payable": false,
      "stateMutability": "view",
      "type": "function"
    },
    {
      "constant": false,
      "inputs": [
        {
          "internalType": "address",
          "name": "_spender",
          "type": "address"
        },
        {
          "internalType": "uint256",
          "name": "_subtractedValue",
          "type": "uint256"
        }
      ],
      "name": "decreaseApproval",
      "outputs": [
        {
          "internalType": "bool",
          "name": "success",
          "type": "bool"
        }
      ],
      "payable": false,
      "stateMutability": "nonpayable",
      "type": "function"
    },
    {
      "constant": false,
      "inputs": [],
      "name": "finishMinting",
      "outputs": [
        {
          "internalType": "bool",
          "name": "",
          "type": "bool"
        }
      ],
      "payable": false,
      "stateMutability": "nonpayable",
      "type": "function"
    },
    {
      "constant": false,
      "inputs": [
        {
          "internalType": "address",
          "name": "_spender",
          "type": "address"
        },
        {
          "internalType": "uint256",
          "name": "_addedValue",
          "type": "uint256"
        }
      ],
      "name": "increaseApproval",
      "outputs": [
        {
          "internalType": "bool",
          "name": "success",
          "type": "bool"
        }
      ],
      "payable": false,
      "stateMutability": "nonpayable",
      "type": "function"
    },
    {
      "constant": false,
      "inputs": [
        {
          "internalType": "address",
          "name": "_to",
          "type": "address"
        },
        {
          "internalType": "uint256",
          "name": "_amount",
          "type": "uint256"
        }
      ],
      "name": "mint",
      "outputs": [
        {
          "internalType": "bool",
          "name": "",
          "type": "bool"
        }
      ],
      "payable": false,
      "stateMutability": "nonpayable",
      "type": "function"
    },
    {
      "constant": true,
      "inputs": [],
      "name": "mintingFinished",
      "outputs": [
        {
          "internalType": "bool",
          "name": "",
          "type": "bool"
        }
      ],
      "payable": false,
      "stateMutability": "view",
      "type": "function"
    },
    {
      "constant": true,
      "inputs": [],
      "name": "name",
      "outputs": [
        {
          "internalType": "string",
          "name": "",
          "type": "string"
        }
      ],
      "payable": false,
      "stateMutability": "view",
      "type": "function"
    },
    {
      "constant": true,
      "inputs": [],
      "name": "owner",
      "outputs": [
        {
          "internalType": "address",
          "name": "",
          "type": "address"
        }
      ],
      "payable": false,
      "stateMutability": "view",
      "type": "function"
    },
    {
      "constant": false,
      "inputs": [],
      "name": "pause",
      "outputs": [],
      "payable": false,
      "stateMutability": "nonpayable",
      "type": "function"
    },
    {
      "constant": true,
      "inputs": [],
      "name": "paused",
      "outputs": [
        {
          "internalType": "bool",
          "name": "",
          "type": "bool"
        }
      ],
      "payable": false,
      "stateMutability": "view",
      "type": "function"
    },
    {
      "constant": true,
      "inputs": [],
      "name": "pendingOwner",
      "outputs": [
        {
          "internalType": "address",
          "name": "",
          "type": "address"
        }
      ],
      "payable": false,
      "stateMutability": "view",
      "type": "function"
    },
    {
      "constant": false,
      "inputs": [
        {
          "internalType": "contract BEP20Basic",
          "name": "_token",
          "type": "address"
        }
      ],
      "name": "reclaimToken",
      "outputs": [],
      "payable": false,
      "stateMutability": "nonpayable",
      "type": "function"
    },
    {
      "constant": false,
      "inputs": [],
      "name": "renounceOwnership",
      "outputs": [],
      "payable": false,
      "stateMutability": "nonpayable",
      "type": "function"
    },
    {
      "constant": true,
      "inputs": [],
      "name": "symbol",
      "outputs": [
        {
          "internalType": "string",
          "name": "",
          "type": "string"
        }
      ],
      "payable": false,
      "stateMutability": "view",
      "type": "function"
    },
    {
      "constant": true,
      "inputs": [],
      "name": "totalSupply",
      "outputs": [
        {
          "internalType": "uint256",
          "name": "",
          "type": "uint256"
        }
      ],
      "payable": false,
      "stateMutability": "view",
      "type": "function"
    },
    {
      "constant": false,
      "inputs": [
        {
          "internalType": "address",
          "name": "_to",
          "type": "address"
        },
        {
          "internalType": "uint256",
          "name": "_value",
          "type": "uint256"
        }
      ],
      "name": "transfer",
      "outputs": [
        {
          "internalType": "bool",
          "name": "",
          "type": "bool"
        }
      ],
      "payable": false,
      "stateMutability": "nonpayable",
      "type": "function"
    },
    {
      "constant": false,
      "inputs": [
        {
          "internalType": "address",
          "name": "_from",
          "type": "address"
        },
        {
          "internalType": "address",
          "name": "_to",
          "type": "address"
        },
        {
          "internalType": "uint256",
          "name": "_value",
          "type": "uint256"
        }
      ],
      "name": "transferFrom",
      "outputs": [
        {
          "internalType": "bool",
          "name": "",
          "type": "bool"
        }
      ],
      "payable": false,
      "stateMutability": "nonpayable",
      "type": "function"
    },
    {
      "constant": false,
      "inputs": [
        {
          "internalType": "address",
          "name": "newOwner",
          "type": "address"
        }
      ],
      "name": "transferOwnership",
      "outputs": [],
      "payable": false,
      "stateMutability": "nonpayable",
      "type": "function"
    },
    {
      "constant": false,
      "inputs": [],
      "name": "unpause",
      "outputs": [],
      "payable": false,
      "stateMutability": "nonpayable",
      "type": "function"
    }
  ],
  "bytecode": "0x6005805461ffff60a81b19169055600b60808181526a577261707065642042544360a81b60a0908152610100604052600460c0908152635742544360e01b60e052919260089162000054916003919062000099565b5081516200006a90600490602085019062000099565b506005805460ff191660ff9290921691909117610100600160a81b0319166101003302179055506200013e9050565b828054600181600116156101000203166002900490600052602060002090601f016020900481019282601f10620000dc57805160ff19168380011785556200010c565b828001600101855582156200010c579182015b828111156200010c578251825591602001919060010190620000ef565b506200011a9291506200011e565b5090565b6200013b91905b808211156200011a576000815560010162000125565b90565b6114aa806200014e6000396000f3fe608060405234801561001057600080fd5b50600436106101735760003560e01c80635c975abb116100de5780638da5cb5b11610097578063d73dd62311610071578063d73dd62314610422578063dd62ed3e1461044e578063e30c39781461047c578063f2fde38b1461048457610173565b80638da5cb5b146103ca57806395d89b41146103ee578063a9059cbb146103f657610173565b80635c975abb14610358578063661884631461036057806370a082311461038c578063715018a6146103b25780637d64bcb4146103ba5780638456cb59146103c257610173565b806323b872dd1161013057806323b872dd146102ab578063313ce567146102e15780633f4ba83a146102ff57806340c10f191461030757806342966c68146103335780634e71e0c81461035057610173565b806305d2035b1461017857806306fdde031461019457806308bca56614610211578063095ea7b31461023f57806317ffc3201461026b57806318160ddd14610291575b600080fd5b6101806104aa565b604080519115158252519081900360200190f35b61019c6104ba565b6040805160208082528351818301528351919283929083019185019080838360005b838110156101d65781810151838201526020016101be565b50505050905090810190601f1680156102035780820380516001836020036101000a031916815260200191505b509250505060405180910390f35b61023d6004803603604081101561022757600080fd5b506001600160a01b038135169060200135610548565b005b6101806004803603604081101561025557600080fd5b506001600160a01b038135169060200135610594565b61023d6004803603602081101561028157600080fd5b50356001600160a01b03166105e1565b6102996106c1565b60408051918252519081900360200190f35b610180600480360360608110156102c157600080fd5b506001600160a01b038135811691602081013590911690604001356106c7565b6102e9610716565b6040805160ff9092168252519081900360200190f35b61023d61071f565b6101806004803603604081101561031d57600080fd5b506001600160a01b0381351690602001356107cd565b61023d6004803603602081101561034957600080fd5b503561090e565b61023d610958565b610180610a08565b6101806004803603604081101561037657600080fd5b506001600160a01b038135169060200135610a18565b610299600480360360208110156103a257600080fd5b50356001600160a01b0316610a5e565b61023d610a79565b610180610b04565b61023d610b4b565b6103d2610c00565b604080516001600160a01b039092168252519081900360200190f35b61019c610c14565b6101806004803603604081101561040c57600080fd5b506001600160a01b038135169060200135610c6f565b6101806004803603604081101561043857600080fd5b506001600160a01b038135169060200135610cb5565b6102996004803603604081101561046457600080fd5b506001600160a01b0381358116916020013516610cfb565b6103d2610d26565b61023d6004803603602081101561049a57600080fd5b50356001600160a01b0316610d35565b600554600160a81b900460ff1681565b6003805460408051602060026001851615610100026000190190941693909304601f810184900484028201840190925281815292918301828280156105405780601f1061051557610100808354040283529160200191610540565b820191906000526020600020905b81548152906001019060200180831161052357829003601f168201915b505050505081565b6001600160a01b03821660008181526020818152604091829020805485019055600180548501905581518481529151309260008051602061145683398151915292908290030190a35050565b600554600090600160b01b900460ff16156105d0576040805162461bcd60e51b8152602060048201526000602482015290519081900360640190fd5b6105da8383610d95565b9392505050565b60055461010090046001600160a01b0316331461061f576040805162461bcd60e51b8152602060048201526000602482015290519081900360640190fd5b604080516370a0823160e01b815230600482015290516000916001600160a01b038416916370a0823191602480820192602092909190829003018186803b15801561066957600080fd5b505afa15801561067d573d6000803e3d6000fd5b505050506040513d602081101561069357600080fd5b50516005549091506106bd906001600160a01b03848116916101009004168363ffffffff610dfb16565b5050565b60015490565b600554600090600160b01b900460ff1615610703576040805162461bcd60e51b8152602060048201526000602482015290519081900360640190fd5b61070e848484610eb7565b949350505050565b60055460ff1681565b60055461010090046001600160a01b0316331461075d576040805162461bcd60e51b8152602060048201526000602482015290519081900360640190fd5b600554600160b01b900460ff16610795576040805162461bcd60e51b8152602060048201526000602482015290519081900360640190fd5b6005805460ff60b01b191690556040517f7805862f689e2f13df9f062ff482ad3ad112aca9e0847911ed832e158c525b3390600090a1565b60055460009061010090046001600160a01b0316331461080e576040805162461bcd60e51b8152602060048201526000602482015290519081900360640190fd5b600554600160a81b900460ff1615610847576040805162461bcd60e51b8152602060048201526000602482015290519081900360640190fd5b60015461085a908363ffffffff61107e16565b6001556001600160a01b038316600090815260208190526040902054610886908363ffffffff61107e16565b6001600160a01b03841660008181526020818152604091829020939093558051858152905191927f0f6798a560793a54c3bcfe86a93cde1e73087d944c0ea20544137d412139688592918290030190a26040805183815290516001600160a01b038516916000916000805160206114568339815191529181900360200190a350600192915050565b60055461010090046001600160a01b0316331461094c576040805162461bcd60e51b8152602060048201526000602482015290519081900360640190fd5b61095581611091565b50565b6006546001600160a01b03163314610991576040805162461bcd60e51b8152602060048201526000602482015290519081900360640190fd5b6006546005546040516001600160a01b0392831692610100909204909116907f8be0079c531659141344cd1fd0a4f28419497f9722a3daafe3b4186f6b6457e090600090a36006805460058054610100600160a81b0319166101006001600160a01b038416021790556001600160a01b0319169055565b600554600160b01b900460ff1681565b600554600090600160b01b900460ff1615610a54576040805162461bcd60e51b8152602060048201526000602482015290519081900360640190fd5b6105da838361109b565b6001600160a01b031660009081526020819052604090205490565b60055461010090046001600160a01b03163314610ab7576040805162461bcd60e51b8152602060048201526000602482015290519081900360640190fd5b6040805162461bcd60e51b815260206004820152601f60248201527f72656e6f756e63696e67206f776e65727368697020697320626c6f636b656400604482015290519081900360640190fd5b60055460009061010090046001600160a01b03163314610b45576040805162461bcd60e51b8152602060048201526000602482015290519081900360640190fd5b50600090565b60055461010090046001600160a01b03163314610b89576040805162461bcd60e51b8152602060048201526000602482015290519081900360640190fd5b600554600160b01b900460ff1615610bc2576040805162461bcd60e51b8152602060048201526000602482015290519081900360640190fd5b6005805460ff60b01b1916600160b01b1790556040517f6985a02210a168e66602d3235cb6db0e70f92b3ba4d376a33c0f3d9434bff62590600090a1565b60055461010090046001600160a01b031681565b6004805460408051602060026001851615610100026000190190941693909304601f810184900484028201840190925281815292918301828280156105405780601f1061051557610100808354040283529160200191610540565b600554600090600160b01b900460ff1615610cab576040805162461bcd60e51b8152602060048201526000602482015290519081900360640190fd5b6105da838361118a565b600554600090600160b01b900460ff1615610cf1576040805162461bcd60e51b8152602060048201526000602482015290519081900360640190fd5b6105da8383611299565b6001600160a01b03918216600090815260026020908152604080832093909416825291909152205490565b6006546001600160a01b031681565b60055461010090046001600160a01b03163314610d73576040805162461bcd60e51b8152602060048201526000602482015290519081900360640190fd5b600680546001600160a01b0319166001600160a01b0392909216919091179055565b3360008181526002602090815260408083206001600160a01b038716808552908352818420869055815186815291519394909390927f8c5be1e5ebec7d5bd14f71427d1e84f3dd0314c0f7b2291e5b200ac8c7c3b925928290030190a350600192915050565b826001600160a01b031663a9059cbb83836040518363ffffffff1660e01b815260040180836001600160a01b03166001600160a01b0316815260200182815260200192505050602060405180830381600087803b158015610e5b57600080fd5b505af1158015610e6f573d6000803e3d6000fd5b505050506040513d6020811015610e8557600080fd5b5051610eb2576040805162461bcd60e51b8152602060048201526000602482015290519081900360640190fd5b505050565b6001600160a01b038316600090815260208190526040812054821115610efe576040805162461bcd60e51b8152602060048201526000602482015290519081900360640190fd5b6001600160a01b0384166000908152600260209081526040808320338452909152902054821115610f50576040805162461bcd60e51b8152602060048201526000602482015290519081900360640190fd5b6001600160a01b038316610f85576040805162461bcd60e51b8152602060048201526000602482015290519081900360640190fd5b6001600160a01b038416600090815260208190526040902054610fae908363ffffffff61133216565b6001600160a01b038086166000908152602081905260408082209390935590851681522054610fe3908363ffffffff61107e16565b6001600160a01b03808516600090815260208181526040808320949094559187168152600282528281203382529091522054611025908363ffffffff61133216565b6001600160a01b0380861660008181526002602090815260408083203384528252918290209490945580518681529051928716939192600080516020611456833981519152929181900390910190a35060019392505050565b8181018281101561108b57fe5b92915050565b6109553382611344565b3360009081526002602090815260408083206001600160a01b03861684529091528120548083106110ef573360009081526002602090815260408083206001600160a01b0388168452909152812055611124565b6110ff818463ffffffff61133216565b3360009081526002602090815260408083206001600160a01b03891684529091529020555b3360008181526002602090815260408083206001600160a01b0389168085529083529281902054815190815290519293927f8c5be1e5ebec7d5bd14f71427d1e84f3dd0314c0f7b2291e5b200ac8c7c3b925929181900390910190a35060019392505050565b336000908152602081905260408120548211156111c8576040805162461bcd60e51b8152602060048201526000602482015290519081900360640190fd5b6001600160a01b0383166111fd576040805162461bcd60e51b8152602060048201526000602482015290519081900360640190fd5b3360009081526020819052604090205461121d908363ffffffff61133216565b33600090815260208190526040808220929092556001600160a01b0385168152205461124f908363ffffffff61107e16565b6001600160a01b038416600081815260208181526040918290209390935580518581529051919233926000805160206114568339815191529281900390910190a350600192915050565b3360009081526002602090815260408083206001600160a01b03861684529091528120546112cd908363ffffffff61107e16565b3360008181526002602090815260408083206001600160a01b0389168085529083529281902085905580519485525191937f8c5be1e5ebec7d5bd14f71427d1e84f3dd0314c0f7b2291e5b200ac8c7c3b925929081900390910190a350600192915050565b60008282111561133e57fe5b50900390565b6001600160a01b03821660009081526020819052604090205481111561138b576040805162461bcd60e51b8152602060048201526000602482015290519081900360640190fd5b6001600160a01b0382166000908152602081905260409020546113b4908263ffffffff61133216565b6001600160a01b0383166000908152602081905260409020556001546113e0908263ffffffff61133216565b6001556040805182815290516001600160a01b038416917fcc16f5dbb4873280815c1ee09dbd06736cffcc184412cf7a71a0fdb75d397ca5919081900360200190a26040805182815290516000916001600160a01b038516916000805160206114568339815191529181900360200190a3505056feddf252ad1be2c89b69c2b068fc378daa952ba7f163c4a11628f55a4df523b3efa265627a7a7231582073d066c63d8897dd643ff2ede0e308fe6602e5e97d06b4bce8ef1beacb2e243264736f6c63430005100032",
  "linkReferences": {},
  "deployedLinkReferences": {}
}