{
  "_format": "hh-sol-artifact-1",
  "contractName": "XVSScenario",
  "sourceName": "contracts/test/XVSHarness.sol",
  "abi": [
    {
      "inputs": [
        {
          "internalType": "address",
          "name": "account",
          "type": "address"
        }
      ],
      "payable": false,
      "stateMutability": "nonpayable",
      "type": "constructor"
    },
    {
      "anonymous": false,
      "inputs": [
        {
          "indexed": true,
          "internalType": "address",
          "name": "owner",
          "type": "address"
        },
        {
          "indexed": true,
          "internalType": "address",
          "name": "spender",
          "type": "address"
        },
        {
          "indexed": false,
          "internalType": "uint256",
          "name": "amount",
          "type": "uint256"
        }
      ],
      "name": "Approval",
      "type": "event"
    },
    {
      "anonymous": false,
      "inputs": [
        {
          "indexed": true,
          "internalType": "address",
          "name": "delegator",
          "type": "address"
        },
        {
          "indexed": true,
          "internalType": "address",
          "name": "fromDelegate",
          "type": "address"
        },
        {
          "indexed": true,
          "internalType": "address",
          "name": "toDelegate",
          "type": "address"
        }
      ],
      "name": "DelegateChanged",
      "type": "event"
    },
    {
      "anonymous": false,
      "inputs": [
        {
          "indexed": true,
          "internalType": "address",
          "name": "delegate",
          "type": "address"
        },
        {
          "indexed": false,
          "internalType": "uint256",
          "name": "previousBalance",
          "type": "uint256"
        },
        {
          "indexed": false,
          "internalType": "uint256",
          "name": "newBalance",
          "type": "uint256"
        }
      ],
      "name": "DelegateVotesChanged",
      "type": "event"
    },
    {
      "anonymous": false,
      "inputs": [],
      "name": "Freezed",
      "type": "event"
    },
    {
      "anonymous": false,
      "inputs": [
        {
          "indexed": true,
          "internalType": "address",
          "name": "_from",
          "type": "address"
        },
        {
          "indexed": true,
          "internalType": "address",
          "name": "_to",
          "type": "address"
        }
      ],
      "name": "OwnershipTransferred",
      "type": "event"
    },
    {
      "anonymous": false,
      "inputs": [
        {
          "indexed": true,
          "internalType": "address",
          "name": "from",
          "type": "address"
        },
        {
          "indexed": true,
          "internalType": "address",
          "name": "to",
          "type": "address"
        },
        {
          "indexed": false,
          "internalType": "uint256",
          "name": "amount",
          "type": "uint256"
        }
      ],
      "name": "Transfer",
      "type": "event"
    },
    {
      "anonymous": false,
      "inputs": [],
      "name": "UnFreezed",
      "type": "event"
    },
    {
      "constant": true,
      "inputs": [],
      "name": "DELEGATION_TYPEHASH",
      "outputs": [
        {
          "internalType": "bytes32",
          "name": "",
          "type": "bytes32"
        }
      ],
      "payable": false,
      "stateMutability": "view",
      "type": "function"
    },
    {
      "constant": true,
      "inputs": [],
      "name": "DOMAIN_TYPEHASH",
      "outputs": [
        {
          "internalType": "bytes32",
          "name": "",
          "type": "bytes32"
        }
      ],
      "payable": false,
      "stateMutability": "view",
      "type": "function"
    },
    {
      "constant": true,
      "inputs": [
        {
          "internalType": "address",
          "name": "account",
          "type": "address"
        },
        {
          "internalType": "address",
          "name": "spender",
          "type": "address"
        }
      ],
      "name": "allowance",
      "outputs": [
        {
          "internalType": "uint256",
          "name": "",
          "type": "uint256"
        }
      ],
      "payable": false,
      "stateMutability": "view",
      "type": "function"
    },
    {
      "constant": false,
      "inputs": [
        {
          "internalType": "address",
          "name": "spender",
          "type": "address"
        },
        {
          "internalType": "uint256",
          "name": "rawAmount",
          "type": "uint256"
        }
      ],
      "name": "approve",
      "outputs": [
        {
          "internalType": "bool",
          "name": "",
          "type": "bool"
        }
      ],
      "payable": false,
      "stateMutability": "nonpayable",
      "type": "function"
    },
    {
      "constant": true,
      "inputs": [
        {
          "internalType": "address",
          "name": "account",
          "type": "address"
        }
      ],
      "name": "balanceOf",
      "outputs": [
        {
          "internalType": "uint256",
          "name": "",
          "type": "uint256"
        }
      ],
      "payable": false,
      "stateMutability": "view",
      "type": "function"
    },
    {
      "constant": true,
      "inputs": [
        {
          "internalType": "address",
          "name": "",
          "type": "address"
        },
        {
          "internalType": "uint32",
          "name": "",
          "type": "uint32"
        }
      ],
      "name": "checkpoints",
      "outputs": [
        {
          "internalType": "uint32",
          "name": "fromBlock",
          "type": "uint32"
        },
        {
          "internalType": "uint96",
          "name": "votes",
          "type": "uint96"
        }
      ],
      "payable": false,
      "stateMutability": "view",
      "type": "function"
    },
    {
      "constant": true,
      "inputs": [],
      "name": "decimals",
      "outputs": [
        {
          "internalType": "uint8",
          "name": "",
          "type": "uint8"
        }
      ],
      "payable": false,
      "stateMutability": "view",
      "type": "function"
    },
    {
      "constant": false,
      "inputs": [
        {
          "internalType": "address",
          "name": "delegatee",
          "type": "address"
        }
      ],
      "name": "delegate",
      "outputs": [],
      "payable": false,
      "stateMutability": "nonpayable",
      "type": "function"
    },
    {
      "constant": false,
      "inputs": [
        {
          "internalType": "address",
          "name": "delegatee",
          "type": "address"
        },
        {
          "internalType": "uint256",
          "name": "nonce",
          "type": "uint256"
        },
        {
          "internalType": "uint256",
          "name": "expiry",
          "type": "uint256"
        },
        {
          "internalType": "uint8",
          "name": "v",
          "type": "uint8"
        },
        {
          "internalType": "bytes32",
          "name": "r",
          "type": "bytes32"
        },
        {
          "internalType": "bytes32",
          "name": "s",
          "type": "bytes32"
        }
      ],
      "name": "delegateBySig",
      "outputs": [],
      "payable": false,
      "stateMutability": "nonpayable",
      "type": "function"
    },
    {
      "constant": true,
      "inputs": [
        {
          "internalType": "address",
          "name": "",
          "type": "address"
        }
      ],
      "name": "delegates",
      "outputs": [
        {
          "internalType": "address",
          "name": "",
          "type": "address"
        }
      ],
      "payable": false,
      "stateMutability": "view",
      "type": "function"
    },
    {
      "constant": false,
      "inputs": [],
      "name": "freeze",
      "outputs": [],
      "payable": false,
      "stateMutability": "nonpayable",
      "type": "function"
    },
    {
      "constant": false,
      "inputs": [
        {
          "internalType": "uint256",
          "name": "count",
          "type": "uint256"
        },
        {
          "internalType": "uint256",
          "name": "offset",
          "type": "uint256"
        }
      ],
      "name": "generateCheckpoints",
      "outputs": [],
      "payable": false,
      "stateMutability": "nonpayable",
      "type": "function"
    },
    {
      "constant": true,
      "inputs": [
        {
          "internalType": "address",
          "name": "account",
          "type": "address"
        }
      ],
      "name": "getCurrentVotes",
      "outputs": [
        {
          "internalType": "uint96",
          "name": "",
          "type": "uint96"
        }
      ],
      "payable": false,
      "stateMutability": "view",
      "type": "function"
    },
    {
      "constant": true,
      "inputs": [
        {
          "internalType": "address",
          "name": "account",
          "type": "address"
        },
        {
          "internalType": "uint256",
          "name": "blockNumber",
          "type": "uint256"
        }
      ],
      "name": "getPriorVotes",
      "outputs": [
        {
          "internalType": "uint96",
          "name": "",
          "type": "uint96"
        }
      ],
      "payable": false,
      "stateMutability": "view",
      "type": "function"
    },
    {
      "constant": true,
      "inputs": [],
      "name": "name",
      "outputs": [
        {
          "internalType": "string",
          "name": "",
          "type": "string"
        }
      ],
      "payable": false,
      "stateMutability": "view",
      "type": "function"
    },
    {
      "constant": true,
      "inputs": [
        {
          "internalType": "address",
          "name": "",
          "type": "address"
        }
      ],
      "name": "nonces",
      "outputs": [
        {
          "internalType": "uint256",
          "name": "",
          "type": "uint256"
        }
      ],
      "payable": false,
      "stateMutability": "view",
      "type": "function"
    },
    {
      "constant": true,
      "inputs": [
        {
          "internalType": "address",
          "name": "",
          "type": "address"
        }
      ],
      "name": "numCheckpoints",
      "outputs": [
        {
          "internalType": "uint32",
          "name": "",
          "type": "uint32"
        }
      ],
      "payable": false,
      "stateMutability": "view",
      "type": "function"
    },
    {
      "constant": true,
      "inputs": [],
      "name": "owner",
      "outputs": [
        {
          "internalType": "address",
          "name": "",
          "type": "address"
        }
      ],
      "payable": false,
      "stateMutability": "view",
      "type": "function"
    },
    {
      "constant": true,
      "inputs": [],
      "name": "symbol",
      "outputs": [
        {
          "internalType": "string",
          "name": "",
          "type": "string"
        }
      ],
      "payable": false,
      "stateMutability": "view",
      "type": "function"
    },
    {
      "constant": true,
      "inputs": [],
      "name": "totalSupply",
      "outputs": [
        {
          "internalType": "uint256",
          "name": "",
          "type": "uint256"
        }
      ],
      "payable": false,
      "stateMutability": "view",
      "type": "function"
    },
    {
      "constant": false,
      "inputs": [
        {
          "internalType": "address",
          "name": "dst",
          "type": "address"
        },
        {
          "internalType": "uint256",
          "name": "rawAmount",
          "type": "uint256"
        }
      ],
      "name": "transfer",
      "outputs": [
        {
          "internalType": "bool",
          "name": "",
          "type": "bool"
        }
      ],
      "payable": false,
      "stateMutability": "nonpayable",
      "type": "function"
    },
    {
      "constant": false,
      "inputs": [
        {
          "internalType": "address",
          "name": "src",
          "type": "address"
        },
        {
          "internalType": "address",
          "name": "dst",
          "type": "address"
        },
        {
          "internalType": "uint256",
          "name": "rawAmount",
          "type": "uint256"
        }
      ],
      "name": "transferFrom",
      "outputs": [
        {
          "internalType": "bool",
          "name": "",
          "type": "bool"
        }
      ],
      "payable": false,
      "stateMutability": "nonpayable",
      "type": "function"
    },
    {
      "constant": false,
      "inputs": [
        {
          "internalType": "address[]",
          "name": "froms",
          "type": "address[]"
        },
        {
          "internalType": "uint256",
          "name": "amount",
          "type": "uint256"
        }
      ],
      "name": "transferFromScenario",
      "outputs": [
        {
          "internalType": "bool",
          "name": "",
          "type": "bool"
        }
      ],
      "payable": false,
      "stateMutability": "nonpayable",
      "type": "function"
    },
    {
      "constant": false,
      "inputs": [
        {
          "internalType": "address",
          "name": "newOwner",
          "type": "address"
        }
      ],
      "name": "transferOwnership",
      "outputs": [],
      "payable": false,
      "stateMutability": "nonpayable",
      "type": "function"
    },
    {
      "constant": false,
      "inputs": [
        {
          "internalType": "address[]",
          "name": "destinations",
          "type": "address[]"
        },
        {
          "internalType": "uint256",
          "name": "amount",
          "type": "uint256"
        }
      ],
      "name": "transferScenario",
      "outputs": [
        {
          "internalType": "bool",
          "name": "",
          "type": "bool"
        }
      ],
      "payable": false,
      "stateMutability": "nonpayable",
      "type": "function"
    },
    {
      "constant": false,
      "inputs": [],
      "name": "unfreeze",
      "outputs": [],
      "payable": false,
      "stateMutability": "nonpayable",
      "type": "function"
    }
  ],
  "bytecode": "0x60806040526000805460ff60a01b1916905534801561001d57600080fd5b50604051611f58380380611f588339818101604052602081101561004057600080fd5b5051600080546001600160a01b031916331781556001600160a01b03821680825260026020908152604080842080546001600160601b0319166a18d0bf423c03d8de000000908117909155815190815290518594927fddf252ad1be2c89b69c2b068fc378daa952ba7f163c4a11628f55a4df523b3ef928290030190a35050611e8a806100ce6000396000f3fe608060405234801561001057600080fd5b506004361061018e5760003560e01c8063782d6fe1116100de578063b4b5ea5711610097578063dd62ed3e11610071578063dd62ed3e146105bb578063e7a324dc146105e9578063f1127ed8146105f1578063f2fde38b1461064b5761018e565b8063b4b5ea571461052b578063c3cda52014610551578063dd5c8c29146105985761018e565b8063782d6fe1146104135780637ecebe001461045b5780638da5cb5b1461048157806395d89b4114610489578063a371172f14610491578063a9059cbb146104ff5761018e565b8063587cde1e1161014b5780636a28f000116101255780636a28f000146103385780636fcfff451461034057806370a082311461037f5780637477e674146103a55761018e565b8063587cde1e146102c65780635c19a95c1461030857806362a5af3b146103305761018e565b806306fdde0314610193578063095ea7b31461021057806318160ddd1461025057806320606b701461026a57806323b872dd14610272578063313ce567146102a8575b600080fd5b61019b610671565b6040805160208082528351818301528351919283929083019185019080838360005b838110156101d55781810151838201526020016101bd565b50505050905090810190601f1680156102025780820380516001836020036101000a031916815260200191505b509250505060405180910390f35b61023c6004803603604081101561022657600080fd5b506001600160a01b038135169060200135610692565b604080519115158252519081900360200190f35b6102586107a1565b60408051918252519081900360200190f35b6102586107b0565b61023c6004803603606081101561028857600080fd5b506001600160a01b038135811691602081013590911690604001356107cb565b6102b0610960565b6040805160ff9092168252519081900360200190f35b6102ec600480360360208110156102dc57600080fd5b50356001600160a01b0316610965565b604080516001600160a01b039092168252519081900360200190f35b61032e6004803603602081101561031e57600080fd5b50356001600160a01b0316610980565b005b61032e6109de565b61032e610a6b565b6103666004803603602081101561035657600080fd5b50356001600160a01b0316610af2565b6040805163ffffffff9092168252519081900360200190f35b6102586004803603602081101561039557600080fd5b50356001600160a01b0316610b0a565b61023c600480360360408110156103bb57600080fd5b810190602081018135600160201b8111156103d557600080fd5b8201836020820111156103e757600080fd5b803590602001918460208302840111600160201b8311171561040857600080fd5b919350915035610b2e565b61043f6004803603604081101561042957600080fd5b506001600160a01b038135169060200135610b79565b604080516001600160601b039092168252519081900360200190f35b6102586004803603602081101561047157600080fd5b50356001600160a01b0316610da6565b6102ec610db8565b61019b610dc7565b61023c600480360360408110156104a757600080fd5b810190602081018135600160201b8111156104c157600080fd5b8201836020820111156104d357600080fd5b803590602001918460208302840111600160201b831117156104f457600080fd5b919350915035610de6565b61023c6004803603604081101561051557600080fd5b506001600160a01b038135169060200135610e26565b61043f6004803603602081101561054157600080fd5b50356001600160a01b0316610eb3565b61032e600480360360c081101561056757600080fd5b506001600160a01b038135169060208101359060408101359060ff6060820135169060808101359060a00135610f24565b61032e600480360360408110156105ae57600080fd5b508035906020013561121b565b610258600480360360408110156105d157600080fd5b506001600160a01b03813581169160200135166112b9565b6102586112ed565b6106236004803603604081101561060757600080fd5b5080356001600160a01b0316906020013563ffffffff16611308565b6040805163ffffffff90931683526001600160601b0390911660208301528051918290030190f35b61032e6004803603602081101561066157600080fd5b50356001600160a01b031661133d565b6040518060400160405280600581526020016456656e757360d81b81525081565b60008054600160a01b900460ff16156106e4576040805162461bcd60e51b815260206004820152600f60248201526e151bdad95b881a5cc81b1bd8dad959608a1b604482015290519081900360640190fd5b60006000198314156106f9575060001961071e565b61071b83604051806060016040528060248152602001611d0f602491396113dc565b90505b3360008181526001602090815260408083206001600160a01b0389168085529083529281902080546001600160601b0319166001600160601b038716908117909155815190815290519293927f8c5be1e5ebec7d5bd14f71427d1e84f3dd0314c0f7b2291e5b200ac8c7c3b925929181900390910190a360019150505b92915050565b6a18d0bf423c03d8de00000081565b604051806043611ccc82396043019050604051809103902081565b60008054600160a01b900460ff161561081d576040805162461bcd60e51b815260206004820152600f60248201526e151bdad95b881a5cc81b1bd8dad959608a1b604482015290519081900360640190fd5b6001600160a01b03841660009081526001602090815260408083203380855290835281842054825160608101909352602480845291946001600160601b03909116939092610873928892611d0f908301396113dc565b9050866001600160a01b0316836001600160a01b0316141580156108a057506001600160601b0382811614155b156109485760006108ca83836040518060600160405280603c8152602001611b6b603c9139611476565b6001600160a01b038981166000818152600160209081526040808320948a168084529482529182902080546001600160601b0319166001600160601b03871690811790915582519081529151949550929391927f8c5be1e5ebec7d5bd14f71427d1e84f3dd0314c0f7b2291e5b200ac8c7c3b92592918290030190a3505b6109538787836114e3565b5060019695505050505050565b601281565b6003602052600090815260409020546001600160a01b031681565b600054600160a01b900460ff16156109d1576040805162461bcd60e51b815260206004820152600f60248201526e151bdad95b881a5cc81b1bd8dad959608a1b604482015290519081900360640190fd5b6109db33826116c3565b50565b6000546001600160a01b03163314610a2f576040805162461bcd60e51b815260206004820152600f60248201526e29b437bab6321031329037bbb732b960891b604482015290519081900360640190fd5b6000805460ff60a01b1916600160a01b1781556040517f962a6139ca22015759d0878e2cf5d770dcb8152e1d5ba08e46a969dd9b154a9c9190a1565b6000546001600160a01b03163314610abc576040805162461bcd60e51b815260206004820152600f60248201526e29b437bab6321031329037bbb732b960891b604482015290519081900360640190fd5b6000805460ff60a01b191681556040517ff0daac2271a735ea786b9adf80dfcbd6a3cbd52f3cab0a78337114692d5faf5d9190a1565b60056020526000908152604090205463ffffffff1681565b6001600160a01b03166000908152600260205260409020546001600160601b031690565b6000805b83811015610b6e576000858583818110610b4857fe5b905060200201356001600160a01b03169050610b658133866114e3565b50600101610b32565b506001949350505050565b6000438210610bb95760405162461bcd60e51b8152600401808060200182810382526026815260200180611d666026913960400191505060405180910390fd5b6001600160a01b03831660009081526005602052604090205463ffffffff1680610be757600091505061079b565b6001600160a01b038416600090815260046020908152604080832063ffffffff600019860181168552925290912054168310610c63576001600160a01b03841660009081526004602090815260408083206000199490940163ffffffff1683529290522054600160201b90046001600160601b0316905061079b565b6001600160a01b038416600090815260046020908152604080832083805290915290205463ffffffff16831015610c9e57600091505061079b565b600060001982015b8163ffffffff168163ffffffff161115610d6157600282820363ffffffff16048103610cd0611b53565b506001600160a01b038716600090815260046020908152604080832063ffffffff858116855290835292819020815180830190925254928316808252600160201b9093046001600160601b03169181019190915290871415610d3c5760200151945061079b9350505050565b805163ffffffff16871115610d5357819350610d5a565b6001820392505b5050610ca6565b506001600160a01b038516600090815260046020908152604080832063ffffffff909416835292905220546001600160601b03600160201b9091041691505092915050565b60066020526000908152604090205481565b6000546001600160a01b031681565b6040518060400160405280600381526020016258565360e81b81525081565b6000805b83811015610b6e576000858583818110610e0057fe5b905060200201356001600160a01b03169050610e1d3382866114e3565b50600101610dea565b60008054600160a01b900460ff1615610e78576040805162461bcd60e51b815260206004820152600f60248201526e151bdad95b881a5cc81b1bd8dad959608a1b604482015290519081900360640190fd5b6000610e9c83604051806060016040528060258152602001611c03602591396113dc565b9050610ea93385836114e3565b5060019392505050565b6001600160a01b03811660009081526005602052604081205463ffffffff1680610ede576000610f1d565b6001600160a01b0383166000908152600460209081526040808320600019850163ffffffff168452909152902054600160201b90046001600160601b03165b9392505050565b600054600160a01b900460ff1615610f75576040805162461bcd60e51b815260206004820152600f60248201526e151bdad95b881a5cc81b1bd8dad959608a1b604482015290519081900360640190fd5b60006040518080611ccc6043913960408051918290036043018220828201909152600582526456656e757360d81b60209092019190915290507f1a6875e3c24a024aa04a101518d25b2c59648a74ace83f8261f2a8e64025d85b610fd761174d565b3060405160200180858152602001848152602001838152602001826001600160a01b03166001600160a01b0316815260200194505050505060405160208183030381529060405280519060200120905060006040518080611e1c603a91396040805191829003603a0182206020808401919091526001600160a01b038c1683830152606083018b905260808084018b90528251808503909101815260a08401835280519082012061190160f01b60c085015260c2840187905260e2808501829052835180860390910181526101028501808552815191840191909120600091829052610122860180865281905260ff8c1661014287015261016286018b905261018286018a9052935191965092945091926001926101a28083019392601f198301929081900390910190855afa158015611115573d6000803e3d6000fd5b5050604051601f1901519150506001600160a01b0381166111675760405162461bcd60e51b8152600401808060200182810382526025815260200180611c826025913960400191505060405180910390fd5b6001600160a01b038116600090815260066020526040902080546001810190915589146111c55760405162461bcd60e51b8152600401808060200182810382526021815260200180611c286021913960400191505060405180910390fd5b874211156112045760405162461bcd60e51b8152600401808060200182810382526025815260200180611ca76025913960400191505060405180910390fd5b61120e818b6116c3565b505050505b505050505050565b600181015b81830181116112b45760408051808201825263ffffffff80841682526001600160601b0380851660208085019182523360009081526004825286812060058352878220805480881660018181018a1663ffffffff1993841617909355845291909352969020945185549251909316600160201b02640100000000600160801b03199390941691909516171617905501611220565b505050565b6001600160a01b0391821660009081526001602090815260408083209390941682529190915220546001600160601b031690565b60405180603a611e1c8239603a019050604051809103902081565b600460209081526000928352604080842090915290825290205463ffffffff811690600160201b90046001600160601b031682565b6000546001600160a01b0316331461138e576040805162461bcd60e51b815260206004820152600f60248201526e29b437bab6321031329037bbb732b960891b604482015290519081900360640190fd5b600080546001600160a01b0319166001600160a01b0383811691821780845560405192939116917f8be0079c531659141344cd1fd0a4f28419497f9722a3daafe3b4186f6b6457e09190a350565b600081600160601b841061146e5760405162461bcd60e51b81526004018080602001828103825283818151815260200191508051906020019080838360005b8381101561143357818101518382015260200161141b565b50505050905090810190601f1680156114605780820380516001836020036101000a031916815260200191505b509250505060405180910390fd5b509192915050565b6000836001600160601b0316836001600160601b0316111582906114db5760405162461bcd60e51b815260206004820181815283516024840152835190928392604490910191908501908083836000831561143357818101518382015260200161141b565b505050900390565b6001600160a01b0383166115285760405162461bcd60e51b815260040180806020018281038252603b815260200180611d8c603b913960400191505060405180910390fd5b6001600160a01b03821661156d5760405162461bcd60e51b8152600401808060200182810382526039815260200180611c496039913960400191505060405180910390fd5b6001600160a01b0383166000908152600260209081526040918290205482516060810190935260358084526115b8936001600160601b039092169285929190611ba790830139611476565b6001600160a01b03848116600090815260026020908152604080832080546001600160601b0319166001600160601b0396871617905592861682529082902054825160608101909352602f8084526116209491909116928592909190611dc790830139611751565b6001600160a01b0383811660008181526002602090815260409182902080546001600160601b0319166001600160601b039687161790558151948616855290519193928716927fddf252ad1be2c89b69c2b068fc378daa952ba7f163c4a11628f55a4df523b3ef929081900390910190a36001600160a01b038084166000908152600360205260408082205485841683529120546112b4929182169116836117bb565b6001600160a01b03808316600081815260036020818152604080842080546002845282862054949093528787166001600160a01b031984168117909155905191909516946001600160601b039092169391928592917f3134e8a2e6d97e929a7e54011ea5485d7d196dd5f0ba4d4ef95803e8e3fc257f9190a46117478284836117bb565b50505050565b4690565b6000838301826001600160601b0380871690831610156117b25760405162461bcd60e51b815260206004820181815283516024840152835190928392604490910191908501908083836000831561143357818101518382015260200161141b565b50949350505050565b816001600160a01b0316836001600160a01b0316141580156117e657506000816001600160601b0316115b156112b4576001600160a01b0383161561189e576001600160a01b03831660009081526005602052604081205463ffffffff169081611826576000611865565b6001600160a01b0385166000908152600460209081526040808320600019860163ffffffff168452909152902054600160201b90046001600160601b03165b9050600061188c8285604051806060016040528060278152602001611bdc60279139611476565b905061189a86848484611949565b5050505b6001600160a01b038216156112b4576001600160a01b03821660009081526005602052604081205463ffffffff1690816118d9576000611918565b6001600160a01b0384166000908152600460209081526040808320600019860163ffffffff168452909152902054600160201b90046001600160601b03165b9050600061193f8285604051806060016040528060268152602001611df660269139611751565b9050611213858484845b600061196d43604051806060016040528060338152602001611d3360339139611afe565b905060008463ffffffff161180156119b657506001600160a01b038516600090815260046020908152604080832063ffffffff6000198901811685529252909120548282169116145b15611a10576001600160a01b0385166000908152600460209081526040808320600019880163ffffffff16845290915290208054640100000000600160801b031916600160201b6001600160601b03851602179055611aaa565b60408051808201825263ffffffff80841682526001600160601b0380861660208085019182526001600160a01b038b166000818152600483528781208c871682528352878120965187549451909516600160201b02640100000000600160801b031995871663ffffffff19958616179590951694909417909555938252600590935292909220805460018801909316929091169190911790555b604080516001600160601b0380861682528416602082015281516001600160a01b038816927fdec2bacdd2f05b59de34da9b523dff8be42e5e38e818c82fdb0bae774387a724928290030190a25050505050565b600081600160201b841061146e5760405162461bcd60e51b815260206004820181815283516024840152835190928392604490910191908501908083836000831561143357818101518382015260200161141b565b60408051808201909152600080825260208201529056fe5856533a3a7472616e7366657246726f6d3a207472616e7366657220616d6f756e742065786365656473207370656e64657220616c6c6f77616e63655856533a3a5f7472616e73666572546f6b656e733a207472616e7366657220616d6f756e7420657863656564732062616c616e63655856533a3a5f6d6f7665566f7465733a20766f746520616d6f756e7420756e646572666c6f77735856533a3a7472616e736665723a20616d6f756e74206578636565647320393620626974735856533a3a64656c656761746542795369673a20696e76616c6964206e6f6e63655856533a3a5f7472616e73666572546f6b656e733a2063616e6e6f74207472616e7366657220746f20746865207a65726f20616464726573735856533a3a64656c656761746542795369673a20696e76616c6964207369676e61747572655856533a3a64656c656761746542795369673a207369676e61747572652065787069726564454950373132446f6d61696e28737472696e67206e616d652c75696e7432353620636861696e49642c6164647265737320766572696679696e67436f6e7472616374295856533a3a617070726f76653a20616d6f756e74206578636565647320393620626974735856533a3a5f7772697465436865636b706f696e743a20626c6f636b206e756d626572206578636565647320333220626974735856533a3a6765745072696f72566f7465733a206e6f74207965742064657465726d696e65645856533a3a5f7472616e73666572546f6b656e733a2063616e6e6f74207472616e736665722066726f6d20746865207a65726f20616464726573735856533a3a5f7472616e73666572546f6b656e733a207472616e7366657220616d6f756e74206f766572666c6f77735856533a3a5f6d6f7665566f7465733a20766f746520616d6f756e74206f766572666c6f777344656c65676174696f6e28616464726573732064656c6567617465652c75696e74323536206e6f6e63652c75696e743235362065787069727929a265627a7a723158206328ae46021f34df5e06953467bba96b383cf48ba32b61556b755ba7528c5a2464736f6c63430005100032",
  "linkReferences": {},
  "deployedLinkReferences": {}
}