{
  "_format": "hh-sol-artifact-1",
  "contractName": "XVSVestingHarness",
  "sourceName": "contracts/test/XVSVestingHarness.sol",
  "abi": [
    {
      "inputs": [],
      "payable": false,
      "stateMutability": "nonpayable",
      "type": "constructor"
    },
    {
      "anonymous": false,
      "inputs": [
        {
          "indexed": false,
          "internalType": "address",
          "name": "vrtConversionAddress",
          "type": "address"
        }
      ],
      "name": "VRTConversionSet",
      "type": "event"
    },
    {
      "anonymous": false,
      "inputs": [
        {
          "indexed": false,
          "internalType": "address",
          "name": "recipient",
          "type": "address"
        },
        {
          "indexed": false,
          "internalType": "uint256",
          "name": "amountClaimed",
          "type": "uint256"
        }
      ],
      "name": "VestedTokensClaimed",
      "type": "event"
    },
    {
      "anonymous": false,
      "inputs": [
        {
          "indexed": true,
          "internalType": "address",
          "name": "recipient",
          "type": "address"
        },
        {
          "indexed": false,
          "internalType": "uint256",
          "name": "startTime",
          "type": "uint256"
        },
        {
          "indexed": false,
          "internalType": "uint256",
          "name": "amount",
          "type": "uint256"
        },
        {
          "indexed": false,
          "internalType": "uint256",
          "name": "withdrawnAmount",
          "type": "uint256"
        }
      ],
      "name": "XVSVested",
      "type": "event"
    },
    {
      "anonymous": false,
      "inputs": [
        {
          "indexed": false,
          "internalType": "address",
          "name": "recipient",
          "type": "address"
        },
        {
          "indexed": false,
          "internalType": "uint256",
          "name": "amount",
          "type": "uint256"
        }
      ],
      "name": "XVSWithdrawn",
      "type": "event"
    },
    {
      "constant": true,
      "inputs": [],
      "name": "TOTAL_VESTING_TIME",
      "outputs": [
        {
          "internalType": "uint256",
          "name": "",
          "type": "uint256"
        }
      ],
      "payable": false,
      "stateMutability": "view",
      "type": "function"
    },
    {
      "constant": true,
      "inputs": [],
      "name": "ZERO_ADDRESS",
      "outputs": [
        {
          "internalType": "address",
          "name": "",
          "type": "address"
        }
      ],
      "payable": false,
      "stateMutability": "view",
      "type": "function"
    },
    {
      "constant": false,
      "inputs": [
        {
          "internalType": "contract XVSVestingProxy",
          "name": "xvsVestingProxy",
          "type": "address"
        }
      ],
      "name": "_become",
      "outputs": [],
      "payable": false,
      "stateMutability": "nonpayable",
      "type": "function"
    },
    {
      "constant": true,
      "inputs": [],
      "name": "_notEntered",
      "outputs": [
        {
          "internalType": "bool",
          "name": "",
          "type": "bool"
        }
      ],
      "payable": false,
      "stateMutability": "view",
      "type": "function"
    },
    {
      "constant": true,
      "inputs": [],
      "name": "admin",
      "outputs": [
        {
          "internalType": "address",
          "name": "",
          "type": "address"
        }
      ],
      "payable": false,
      "stateMutability": "view",
      "type": "function"
    },
    {
      "constant": true,
      "inputs": [],
      "name": "blockNumber",
      "outputs": [
        {
          "internalType": "uint256",
          "name": "",
          "type": "uint256"
        }
      ],
      "payable": false,
      "stateMutability": "view",
      "type": "function"
    },
    {
      "constant": true,
      "inputs": [
        {
          "internalType": "uint256",
          "name": "vestingAmount",
          "type": "uint256"
        },
        {
          "internalType": "uint256",
          "name": "vestingStartTime",
          "type": "uint256"
        },
        {
          "internalType": "uint256",
          "name": "currentTime",
          "type": "uint256"
        }
      ],
      "name": "computeVestedAmount",
      "outputs": [
        {
          "internalType": "uint256",
          "name": "",
          "type": "uint256"
        }
      ],
      "payable": false,
      "stateMutability": "view",
      "type": "function"
    },
    {
      "constant": true,
      "inputs": [
        {
          "internalType": "uint256",
          "name": "amount",
          "type": "uint256"
        },
        {
          "internalType": "uint256",
          "name": "vestingStartTime",
          "type": "uint256"
        },
        {
          "internalType": "uint256",
          "name": "withdrawnAmount",
          "type": "uint256"
        }
      ],
      "name": "computeWithdrawableAmount",
      "outputs": [
        {
          "internalType": "uint256",
          "name": "vestedAmount",
          "type": "uint256"
        },
        {
          "internalType": "uint256",
          "name": "toWithdraw",
          "type": "uint256"
        }
      ],
      "payable": false,
      "stateMutability": "view",
      "type": "function"
    },
    {
      "constant": false,
      "inputs": [
        {
          "internalType": "address",
          "name": "recipient",
          "type": "address"
        },
        {
          "internalType": "uint256",
          "name": "depositAmount",
          "type": "uint256"
        }
      ],
      "name": "deposit",
      "outputs": [],
      "payable": false,
      "stateMutability": "nonpayable",
      "type": "function"
    },
    {
      "constant": true,
      "inputs": [],
      "name": "getCurrentTime",
      "outputs": [
        {
          "internalType": "uint256",
          "name": "",
          "type": "uint256"
        }
      ],
      "payable": false,
      "stateMutability": "view",
      "type": "function"
    },
    {
      "constant": true,
      "inputs": [
        {
          "internalType": "address",
          "name": "recipient",
          "type": "address"
        }
      ],
      "name": "getVestedAmount",
      "outputs": [
        {
          "internalType": "uint256",
          "name": "",
          "type": "uint256"
        }
      ],
      "payable": false,
      "stateMutability": "view",
      "type": "function"
    },
    {
      "constant": true,
      "inputs": [
        {
          "internalType": "address",
          "name": "beneficiary",
          "type": "address"
        }
      ],
      "name": "getVestingCount",
      "outputs": [
        {
          "internalType": "uint256",
          "name": "",
          "type": "uint256"
        }
      ],
      "payable": false,
      "stateMutability": "view",
      "type": "function"
    },
    {
      "constant": true,
      "inputs": [
        {
          "internalType": "address",
          "name": "recipient",
          "type": "address"
        }
      ],
      "name": "getWithdrawableAmount",
      "outputs": [
        {
          "internalType": "uint256",
          "name": "totalWithdrawableAmount",
          "type": "uint256"
        },
        {
          "internalType": "uint256",
          "name": "totalVestedAmount",
          "type": "uint256"
        },
        {
          "internalType": "uint256",
          "name": "totalWithdrawnAmount",
          "type": "uint256"
        }
      ],
      "payable": false,
      "stateMutability": "view",
      "type": "function"
    },
    {
      "constant": true,
      "inputs": [],
      "name": "implementation",
      "outputs": [
        {
          "internalType": "address",
          "name": "",
          "type": "address"
        }
      ],
      "payable": false,
      "stateMutability": "view",
      "type": "function"
    },
    {
      "constant": false,
      "inputs": [
        {
          "internalType": "address",
          "name": "_xvsAddress",
          "type": "address"
        }
      ],
      "name": "initialize",
      "outputs": [],
      "payable": false,
      "stateMutability": "nonpayable",
      "type": "function"
    },
    {
      "constant": true,
      "inputs": [],
      "name": "initialized",
      "outputs": [
        {
          "internalType": "bool",
          "name": "",
          "type": "bool"
        }
      ],
      "payable": false,
      "stateMutability": "view",
      "type": "function"
    },
    {
      "constant": false,
      "inputs": [],
      "name": "overWriteVRTConversionAddress",
      "outputs": [],
      "payable": false,
      "stateMutability": "nonpayable",
      "type": "function"
    },
    {
      "constant": true,
      "inputs": [],
      "name": "pendingAdmin",
      "outputs": [
        {
          "internalType": "address",
          "name": "",
          "type": "address"
        }
      ],
      "payable": false,
      "stateMutability": "view",
      "type": "function"
    },
    {
      "constant": true,
      "inputs": [],
      "name": "pendingImplementation",
      "outputs": [
        {
          "internalType": "address",
          "name": "",
          "type": "address"
        }
      ],
      "payable": false,
      "stateMutability": "view",
      "type": "function"
    },
    {
      "constant": false,
      "inputs": [
        {
          "internalType": "address",
          "name": "recoveryAddress",
          "type": "address"
        }
      ],
      "name": "recoverXVS",
      "outputs": [],
      "payable": true,
      "stateMutability": "payable",
      "type": "function"
    },
    {
      "constant": false,
      "inputs": [
        {
          "internalType": "address",
          "name": "_vrtConversionAddress",
          "type": "address"
        }
      ],
      "name": "setVRTConverter",
      "outputs": [],
      "payable": false,
      "stateMutability": "nonpayable",
      "type": "function"
    },
    {
      "constant": true,
      "inputs": [
        {
          "internalType": "address",
          "name": "",
          "type": "address"
        },
        {
          "internalType": "uint256",
          "name": "",
          "type": "uint256"
        }
      ],
      "name": "vestings",
      "outputs": [
        {
          "internalType": "address",
          "name": "recipient",
          "type": "address"
        },
        {
          "internalType": "uint256",
          "name": "startTime",
          "type": "uint256"
        },
        {
          "internalType": "uint256",
          "name": "amount",
          "type": "uint256"
        },
        {
          "internalType": "uint256",
          "name": "withdrawnAmount",
          "type": "uint256"
        }
      ],
      "payable": false,
      "stateMutability": "view",
      "type": "function"
    },
    {
      "constant": true,
      "inputs": [],
      "name": "vrtConversionAddress",
      "outputs": [
        {
          "internalType": "address",
          "name": "",
          "type": "address"
        }
      ],
      "payable": false,
      "stateMutability": "view",
      "type": "function"
    },
    {
      "constant": false,
      "inputs": [],
      "name": "withdraw",
      "outputs": [],
      "payable": false,
      "stateMutability": "nonpayable",
      "type": "function"
    },
    {
      "constant": true,
      "inputs": [],
      "name": "xvs",
      "outputs": [
        {
          "internalType": "contract IBEP20",
          "name": "",
          "type": "address"
        }
      ],
      "payable": false,
      "stateMutability": "view",
      "type": "function"
    },
    {
      "constant": true,
      "inputs": [],
      "name": "xvsDecimalsMultiplier",
      "outputs": [
        {
          "internalType": "uint256",
          "name": "",
          "type": "uint256"
        }
      ],
      "payable": false,
      "stateMutability": "view",
      "type": "function"
    }
  ],
  "bytecode": "0x608060405234801561001057600080fd5b50600080546001600160a01b031916331790556119fa806100326000396000f3fe6080604052600436106101815760003560e01c80637f89178d116100d1578063c4d66de81161008a578063ec1afd7e11610064578063ec1afd7e146104f4578063f677717514610509578063f851a4401461055a578063f94af54e1461056f57610181565b8063c4d66de814610479578063d5a73fdd146104ac578063d8438ae8146104df57610181565b80637f89178d1461032e578063b116e9bc1461037d578063bb443b6c146103b3578063bcab369b146103c8578063bd84477d146103dd578063c21b6d1a1461044657610181565b80633ccfd60b1161013e578063538ba4f911610118578063538ba4f9146102c957806357e871e7146102de5780635c60da1b146102f3578063762f1bec1461030857610181565b80633ccfd60b1461026657806347e7ef241461027b5780634e79ed3c146102b457610181565b8063158ef93e146101865780631d504dc6146101af57806323da5bd6146101e457806326782247146101f957806329cb924d1461022a578063396f7b2314610251575b600080fd5b34801561019257600080fd5b5061019b6105a2565b604080519115158252519081900360200190f35b3480156101bb57600080fd5b506101e2600480360360208110156101d257600080fd5b50356001600160a01b03166105b2565b005b3480156101f057600080fd5b506101e26106b3565b34801561020557600080fd5b5061020e6106c5565b604080516001600160a01b039092168252519081900360200190f35b34801561023657600080fd5b5061023f6106d4565b60408051918252519081900360200190f35b34801561025d57600080fd5b5061020e6106d8565b34801561027257600080fd5b506101e26106e7565b34801561028757600080fd5b506101e26004803603604081101561029e57600080fd5b506001600160a01b038135169060200135610973565b3480156102c057600080fd5b5061020e610bbb565b3480156102d557600080fd5b5061020e610bca565b3480156102ea57600080fd5b5061023f610bcf565b3480156102ff57600080fd5b5061020e610bd5565b6101e26004803603602081101561031e57600080fd5b50356001600160a01b0316610be4565b34801561033a57600080fd5b506103646004803603606081101561035157600080fd5b5080359060208101359060400135610c84565b6040805192835260208301919091528051918290030190f35b34801561038957600080fd5b5061023f600480360360608110156103a057600080fd5b5080359060208101359060400135610c9e565b3480156103bf57600080fd5b5061020e610cb5565b3480156103d457600080fd5b5061023f610cc4565b3480156103e957600080fd5b506104166004803603604081101561040057600080fd5b506001600160a01b038135169060200135610cd0565b604080516001600160a01b0390951685526020850193909352838301919091526060830152519081900360800190f35b34801561045257600080fd5b5061023f6004803603602081101561046957600080fd5b50356001600160a01b0316610d1d565b34801561048557600080fd5b506101e26004803603602081101561049c57600080fd5b50356001600160a01b0316610d38565b3480156104b857600080fd5b5061023f600480360360208110156104cf57600080fd5b50356001600160a01b0316610e6a565b3480156104eb57600080fd5b5061019b610fd6565b34801561050057600080fd5b5061023f610fe6565b34801561051557600080fd5b5061053c6004803603602081101561052c57600080fd5b50356001600160a01b0316610fee565b60408051938452602084019290925282820152519081900360600190f35b34801561056657600080fd5b5061020e6111c0565b34801561057b57600080fd5b506101e26004803603602081101561059257600080fd5b50356001600160a01b03166111cf565b600354600160a81b900460ff1681565b806001600160a01b031663f851a4406040518163ffffffff1660e01b815260040160206040518083038186803b1580156105eb57600080fd5b505afa1580156105ff573d6000803e3d6000fd5b505050506040513d602081101561061557600080fd5b50516001600160a01b0316331461065d5760405162461bcd60e51b81526004018080602001828103825260228152602001806119a46022913960400191505060405180910390fd5b806001600160a01b031663c1e803346040518163ffffffff1660e01b8152600401600060405180830381600087803b15801561069857600080fd5b505af11580156106ac573d6000803e3d6000fd5b5050505050565b600580546001600160a01b0319169055565b6001546001600160a01b031681565b4290565b6003546001600160a01b031681565b600354600160a81b900460ff16151560011461074a576040805162461bcd60e51b815260206004820152601d60248201527f58565356657374696e67206973206e6f7420696e697469616c697a6564000000604482015290519081900360640190fd5b336000818152600660205260409020546107955760405162461bcd60e51b81526004018080602001828103825260288152602001806119106028913960400191505060405180910390fd5b33600081815260066020526040812080549091805b828110156108315760008482815481106107c057fe5b906000526020600020906004020190506000806107ea8360020154846001015485600301546112b1565b9092509050801561082357610805858263ffffffff6112ea16565b600384015490955061081d908263ffffffff6112ea16565b60038401555b5050508060010190506107aa565b5080156106ac5760048054604080516370a0823160e01b81523093810193909352516000926001600160a01b03909216916370a08231916024808301926020929190829003018186803b15801561088757600080fd5b505afa15801561089b573d6000803e3d6000fd5b505050506040513d60208110156108b157600080fd5b505190508181101561090a576040805162461bcd60e51b815260206004820152601f60248201527f496e73756666696369656e742058565320666f72207769746864726177616c00604482015290519081900360640190fd5b604080516001600160a01b03871681526020810184905281517fdef17b8a4592960eb0350493e982c7c3f435664ec0281086b1709245d381eb47929181900390910190a160045461096b906001600160a01b0316868463ffffffff61134d16565b505050505050565b600354600160a81b900460ff1615156001146109d6576040805162461bcd60e51b815260206004820152601d60248201527f58565356657374696e67206973206e6f7420696e697469616c697a6564000000604482015290519081900360640190fd5b6005546001600160a01b03163314610a1f5760405162461bcd60e51b81526004018080602001828103825260308152602001806118e06030913960400191505060405180910390fd5b816001600160a01b038116610a74576040805162461bcd60e51b8152602060048201526016602482015275416464726573732063616e6e6f74206265205a65726f60501b604482015290519081900360640190fd5b60008211610ac9576040805162461bcd60e51b815260206004820152601f60248201527f4465706f73697420616d6f756e74206d757374206265206e6f6e2d7a65726f00604482015290519081900360640190fd5b6001600160a01b0383166000908152600660205260409020610ae9611840565b6040518060800160405280866001600160a01b03168152602001610b0b6106d4565b815260208082018790526000604092830181905285546001808201885587835291839020855160049092020180546001600160a01b0319166001600160a01b039283161781558584015192810183905585850151600282018190556060808801516003909301839055865194855294840152828501529251939450918816927fededaccb1e456886ec3aabebbb93d4c448a453a7e498a1e1802cc2cd48646eb29281900390910190a25050505050565b6004546001600160a01b031681565b600081565b60075481565b6002546001600160a01b031681565b60048054604080516370a0823160e01b81523093810193909352516000926001600160a01b03909216916370a08231916024808301926020929190829003018186803b158015610c3357600080fd5b505afa158015610c47573d6000803e3d6000fd5b505050506040513d6020811015610c5d57600080fd5b5051600454909150610c80906001600160a01b031630848463ffffffff6113a416565b5050565b600080610c928585856112b1565b90969095509350505050565b6000610cab848484611404565b90505b9392505050565b6005546001600160a01b031681565b670de0b6b3a764000081565b60066020528160005260406000208181548110610ce957fe5b600091825260209091206004909102018054600182015460028301546003909301546001600160a01b039092169450925084565b6001600160a01b031660009081526006602052604090205490565b6000546001600160a01b03163314610d815760405162461bcd60e51b815260040180806020018281038252602881526020018061197c6028913960400191505060405180910390fd5b600354600160a81b900460ff1615610dca5760405162461bcd60e51b81526004018080602001828103825260218152602001806118726021913960400191505060405180910390fd5b6001600160a01b038116610e25576040805162461bcd60e51b815260206004820152601a60248201527f5f787673416464726573732063616e6e6f74206265205a65726f000000000000604482015290519081900360640190fd5b600480546001600160a01b039092166001600160a01b03199092169190911790556003805460ff60a81b1960ff60a01b19909116600160a01b1716600160a81b179055565b6000816001600160a01b038116610ec1576040805162461bcd60e51b8152602060048201526016602482015275416464726573732063616e6e6f74206265205a65726f60501b604482015290519081900360640190fd5b6001600160a01b0383166000908152600660209081526040808320805482518185028101850190935280835260609492939192909184015b82821015610f56576000848152602090819020604080516080810182526004860290920180546001600160a01b03168352600180820154848601526002820154928401929092526003015460608301529083529092019101610ef9565b5050825192935060009150819050610f6c6106d4565b905060005b83811015610fca57610f81611840565b858281518110610f8d57fe5b602002602001015190506000610fac8260400151836020015186611404565b9050610fbe858263ffffffff6112ea16565b94505050600101610f71565b50909695505050505050565b600354600160a01b900460ff1681565b6301e1338081565b6000806000600360159054906101000a900460ff161515600115151461105b576040805162461bcd60e51b815260206004820152601d60248201527f58565356657374696e67206973206e6f7420696e697469616c697a6564000000604482015290519081900360640190fd5b836001600160a01b0381166110b0576040805162461bcd60e51b8152602060048201526016602482015275416464726573732063616e6e6f74206265205a65726f60501b604482015290519081900360640190fd5b6001600160a01b03851660009081526006602052604090205485906111065760405162461bcd60e51b81526004018080602001828103825260288152602001806119106028913960400191505060405180910390fd5b6001600160a01b0386166000908152600660205260408120805490915b818110156111b457600083828154811061113957fe5b906000526020600020906004020190506000806111638360020154846001015485600301546112b1565b90925090506111788a8363ffffffff6112ea16565b995061118a8b8263ffffffff6112ea16565b9a506111a383600301548a6112ea90919063ffffffff16565b985050600190920191506111239050565b50505050509193909250565b6000546001600160a01b031681565b6000546001600160a01b031633146112185760405162461bcd60e51b81526004018080602001828103825260238152602001806119386023913960400191505060405180910390fd5b6001600160a01b03811661125d5760405162461bcd60e51b81526004018080602001828103825260238152602001806118936023913960400191505060405180910390fd5b600580546001600160a01b0383166001600160a01b0319909116811790915560408051918252517f5673fdce1f5315db6943d18b4249ea0cfb54555a5703cbbcb02d8e3c25e90f369181900360200190a150565b60008060006112c886866112c36106d4565b611404565b905060006112dc828663ffffffff61147316565b919791965090945050505050565b600082820183811015611344576040805162461bcd60e51b815260206004820152601b60248201527f536166654d6174683a206164646974696f6e206f766572666c6f770000000000604482015290519081900360640190fd5b90505b92915050565b604080516001600160a01b038416602482015260448082018490528251808303909101815260649091019091526020810180516001600160e01b031663a9059cbb60e01b17905261139f9084906114b5565b505050565b604080516001600160a01b0385811660248301528416604482015260648082018490528251808303909101815260849091019091526020810180516001600160e01b03166323b872dd60e01b1790526113fe9085906114b5565b50505050565b60008282101561141657506000610cae565b61142a836301e1338063ffffffff6112ea16565b821115611438575082610cae565b61146c6301e13380611460611453858763ffffffff61147316565b879063ffffffff61166d16565b9063ffffffff6116c616565b9050610cae565b600061134483836040518060400160405280601e81526020017f536166654d6174683a207375627472616374696f6e206f766572666c6f770000815250611708565b6114c7826001600160a01b031661179f565b611518576040805162461bcd60e51b815260206004820152601f60248201527f5361666542455032303a2063616c6c20746f206e6f6e2d636f6e747261637400604482015290519081900360640190fd5b60006060836001600160a01b0316836040518082805190602001908083835b602083106115565780518252601f199092019160209182019101611537565b6001836020036101000a0380198251168184511680821785525050505050509050019150506000604051808303816000865af19150503d80600081146115b8576040519150601f19603f3d011682016040523d82523d6000602084013e6115bd565b606091505b509150915081611614576040805162461bcd60e51b815260206004820181905260248201527f5361666542455032303a206c6f772d6c6576656c2063616c6c206661696c6564604482015290519081900360640190fd5b8051156113fe5780806020019051602081101561163057600080fd5b50516113fe5760405162461bcd60e51b815260040180806020018281038252602a8152602001806118b6602a913960400191505060405180910390fd5b60008261167c57506000611347565b8282028284828161168957fe5b04146113445760405162461bcd60e51b815260040180806020018281038252602181526020018061195b6021913960400191505060405180910390fd5b600061134483836040518060400160405280601a81526020017f536166654d6174683a206469766973696f6e206279207a65726f0000000000008152506117db565b600081848411156117975760405162461bcd60e51b81526004018080602001828103825283818151815260200191508051906020019080838360005b8381101561175c578181015183820152602001611744565b50505050905090810190601f1680156117895780820380516001836020036101000a031916815260200191505b509250505060405180910390fd5b505050900390565b6000813f7fc5d2460186f7233c927e7db2dcc703c0e500b653ca82273b7bfad8045d85a4708181148015906117d357508115155b949350505050565b6000818361182a5760405162461bcd60e51b815260206004820181815283516024840152835190928392604490910191908501908083836000831561175c578181015183820152602001611744565b50600083858161183657fe5b0495945050505050565b604051806080016040528060006001600160a01b03168152602001600081526020016000815260200160008152509056fe58565356657374696e6720697320616c726561647920696e697469616c697a6564767274436f6e76657273696f6e416464726573732063616e6e6f74206265205a65726f5361666542455032303a204245503230206f7065726174696f6e20646964206e6f7420737563636565646f6e6c7920565254436f6e76657273696f6e20416464726573732063616e2063616c6c207468652066756e6374696f6e726563697069656e7420646f65736e6f74206861766520616e792076657374696e675265636f72646f6e6c792061646d696e206d617920696e697469616c697a6520746865205661756c74536166654d6174683a206d756c7469706c69636174696f6e206f766572666c6f776f6e6c792061646d696e206d617920696e697469616c697a65207468652058565356657374696e676f6e6c792070726f78792061646d696e2063616e206368616e676520627261696e73a265627a7a72315820f0872311d7b8dbabf8e058945b0592c8c3647df6e976d7e1e234a00582b473df64736f6c63430005100032",
  "linkReferences": {},
  "deployedLinkReferences": {}
}