{
  "_format": "hh-sol-artifact-1",
  "contractName": "XVSVaultAdminStorage",
  "sourceName": "contracts/XVSVault/XVSVaultStorage.sol",
  "abi": [
    {
      "constant": true,
      "inputs": [],
      "name": "admin",
      "outputs": [
        {
          "internalType": "address",
          "name": "",
          "type": "address"
        }
      ],
      "payable": false,
      "stateMutability": "view",
      "type": "function"
    },
    {
      "constant": true,
      "inputs": [],
      "name": "implementation",
      "outputs": [
        {
          "internalType": "address",
          "name": "",
          "type": "address"
        }
      ],
      "payable": false,
      "stateMutability": "view",
      "type": "function"
    },
    {
      "constant": true,
      "inputs": [],
      "name": "pendingAdmin",
      "outputs": [
        {
          "internalType": "address",
          "name": "",
          "type": "address"
        }
      ],
      "payable": false,
      "stateMutability": "view",
      "type": "function"
    },
    {
      "constant": true,
      "inputs": [],
      "name": "pendingXVSVaultImplementation",
      "outputs": [
        {
          "internalType": "address",
          "name": "",
          "type": "address"
        }
      ],
      "payable": false,
      "stateMutability": "view",
      "type": "function"
    }
  ],
  "bytecode": "0x608060405234801561001057600080fd5b5060f08061001f6000396000f3fe6080604052348015600f57600080fd5b506004361060465760003560e01c80632678224714604b5780635c60da1b14606d578063de0368b2146073578063f851a440146079575b600080fd5b6051607f565b604080516001600160a01b039092168252519081900360200190f35b6051608e565b6051609d565b605160ac565b6001546001600160a01b031681565b6002546001600160a01b031681565b6003546001600160a01b031681565b6000546001600160a01b03168156fea265627a7a72315820551c0e713ca08c4b6c196beee60d0bbf190173eda710063e34386b138fb74ed864736f6c63430005100032",
  "linkReferences": {},
  "deployedLinkReferences": {}
}